{
  "contractName": "BitcoinHexStub",
  "abi": [
    {
      "constant": true,
      "inputs": [],
      "name": "name",
      "outputs": [
        {
          "name": "",
          "type": "string"
        }
      ],
      "payable": false,
      "stateMutability": "view",
      "type": "function"
    },
    {
      "constant": true,
      "inputs": [
        {
          "name": "_hash",
          "type": "bytes32"
        },
        {
          "name": "_v",
          "type": "uint8"
        },
        {
          "name": "_r",
          "type": "bytes32"
        },
        {
          "name": "_s",
          "type": "bytes32"
        },
        {
          "name": "_expected",
          "type": "address"
        },
        {
          "name": "_addPrefix",
          "type": "bool"
        }
      ],
      "name": "validateSignature",
      "outputs": [
        {
          "name": "",
          "type": "bool"
        }
      ],
      "payable": false,
      "stateMutability": "pure",
      "type": "function"
    },
    {
      "constant": true,
      "inputs": [],
      "name": "maximumRedeemable",
      "outputs": [
        {
          "name": "",
          "type": "uint256"
        }
      ],
      "payable": false,
      "stateMutability": "view",
      "type": "function"
    },
    {
      "constant": false,
      "inputs": [
        {
          "name": "_spender",
          "type": "address"
        },
        {
          "name": "_value",
          "type": "uint256"
        }
      ],
      "name": "approve",
      "outputs": [
        {
          "name": "",
          "type": "bool"
        }
      ],
      "payable": false,
      "stateMutability": "nonpayable",
      "type": "function"
    },
    {
      "constant": false,
      "inputs": [
        {
          "name": "_value",
          "type": "uint256"
        },
        {
          "name": "_unlockTime",
          "type": "uint256"
        }
      ],
      "name": "startStake",
      "outputs": [
        {
          "name": "",
          "type": "bool"
        }
      ],
      "payable": false,
      "stateMutability": "nonpayable",
      "type": "function"
    },
    {
      "constant": true,
      "inputs": [],
      "name": "interestRatePercent",
      "outputs": [
        {
          "name": "",
          "type": "uint256"
        }
      ],
      "payable": false,
      "stateMutability": "view",
      "type": "function"
    },
    {
      "constant": true,
      "inputs": [],
      "name": "totalStakedCoins",
      "outputs": [
        {
          "name": "",
          "type": "uint256"
        }
      ],
      "payable": false,
      "stateMutability": "view",
      "type": "function"
    },
    {
      "constant": true,
      "inputs": [],
      "name": "totalSupply",
      "outputs": [
        {
          "name": "",
          "type": "uint256"
        }
      ],
      "payable": false,
      "stateMutability": "view",
      "type": "function"
    },
    {
      "constant": true,
      "inputs": [
        {
          "name": "_stakeAmount",
          "type": "uint256"
        }
      ],
      "name": "calculateViralRewards",
      "outputs": [
        {
          "name": "",
          "type": "uint256"
        }
      ],
      "payable": false,
      "stateMutability": "view",
      "type": "function"
    },
    {
      "constant": false,
      "inputs": [
        {
          "name": "_from",
          "type": "address"
        },
        {
          "name": "_to",
          "type": "address"
        },
        {
          "name": "_value",
          "type": "uint256"
        }
      ],
      "name": "transferFrom",
      "outputs": [
        {
          "name": "",
          "type": "bool"
        }
      ],
      "payable": false,
      "stateMutability": "nonpayable",
      "type": "function"
    },
    {
      "constant": true,
      "inputs": [
        {
          "name": "_satoshis",
          "type": "uint256"
        }
      ],
      "name": "getRedeemAmount",
      "outputs": [
        {
          "name": "",
          "type": "uint256"
        }
      ],
      "payable": false,
      "stateMutability": "view",
      "type": "function"
    },
    {
      "constant": true,
      "inputs": [
        {
          "name": "",
          "type": "uint256"
        }
      ],
      "name": "unclaimedCoinsByWeek",
      "outputs": [
        {
          "name": "",
          "type": "uint256"
        }
      ],
      "payable": false,
      "stateMutability": "view",
      "type": "function"
    },
    {
      "constant": true,
      "inputs": [],
      "name": "decimals",
      "outputs": [
        {
          "name": "",
          "type": "uint256"
        }
      ],
      "payable": false,
      "stateMutability": "view",
      "type": "function"
    },
    {
      "constant": true,
      "inputs": [
        {
          "name": "_staker",
          "type": "address"
        }
      ],
      "name": "getCurrentStaked",
      "outputs": [
        {
          "name": "",
          "type": "uint256"
        }
      ],
      "payable": false,
      "stateMutability": "view",
      "type": "function"
    },
    {
      "constant": true,
      "inputs": [
        {
          "name": "_pubKey",
          "type": "bytes"
        }
      ],
      "name": "pubKeyToEthereumAddress",
      "outputs": [
        {
          "name": "",
          "type": "address"
        }
      ],
      "payable": false,
      "stateMutability": "pure",
      "type": "function"
    },
    {
      "constant": false,
      "inputs": [
        {
          "name": "_spender",
          "type": "address"
        },
        {
          "name": "_subtractedValue",
          "type": "uint256"
        }
      ],
      "name": "decreaseApproval",
      "outputs": [
        {
          "name": "",
          "type": "bool"
        }
      ],
      "payable": false,
      "stateMutability": "nonpayable",
      "type": "function"
    },
    {
      "constant": true,
      "inputs": [
        {
          "name": "",
          "type": "bytes32"
        }
      ],
      "name": "redeemedUTXOs",
      "outputs": [
        {
          "name": "",
          "type": "bool"
        }
      ],
      "payable": false,
      "stateMutability": "view",
      "type": "function"
    },
    {
      "constant": true,
      "inputs": [],
      "name": "rootUtxoMerkleTreeHash",
      "outputs": [
        {
          "name": "",
          "type": "bytes32"
        }
      ],
      "payable": false,
      "stateMutability": "view",
      "type": "function"
    },
    {
      "constant": true,
      "inputs": [
        {
          "name": "_staker",
          "type": "address"
        },
        {
          "name": "_startIndex",
          "type": "uint256"
        },
        {
          "name": "_endIndex",
          "type": "uint256"
        }
      ],
      "name": "getCurrentStakedAtIndexes",
      "outputs": [
        {
          "name": "",
          "type": "uint256"
        }
      ],
      "payable": false,
      "stateMutability": "view",
      "type": "function"
    },
    {
      "constant": true,
      "inputs": [
        {
          "name": "_owner",
          "type": "address"
        }
      ],
      "name": "balanceOf",
      "outputs": [
        {
          "name": "",
          "type": "uint256"
        }
      ],
      "payable": false,
      "stateMutability": "view",
      "type": "function"
    },
    {
      "constant": false,
      "inputs": [
        {
          "name": "_satoshis",
          "type": "uint256"
        },
        {
          "name": "_proof",
          "type": "bytes32[]"
        },
        {
          "name": "_pubKey",
          "type": "bytes"
        },
        {
          "name": "_isCompressed",
          "type": "bool"
        },
        {
          "name": "_v",
          "type": "uint8"
        },
        {
          "name": "_r",
          "type": "bytes32"
        },
        {
          "name": "_s",
          "type": "bytes32"
        }
      ],
      "name": "redeemUtxo",
      "outputs": [
        {
          "name": "_tokensRedeemed",
          "type": "uint256"
        }
      ],
      "payable": false,
      "stateMutability": "nonpayable",
      "type": "function"
    },
    {
      "constant": true,
      "inputs": [],
      "name": "launchTime",
      "outputs": [
        {
          "name": "",
          "type": "uint256"
        }
      ],
      "payable": false,
      "stateMutability": "view",
      "type": "function"
    },
    {
      "constant": false,
      "inputs": [
        {
          "name": "_staker",
          "type": "address"
        },
        {
          "name": "_stakeIndex",
          "type": "uint256"
        }
      ],
      "name": "calculateAdditionalRewards",
      "outputs": [
        {
          "name": "",
          "type": "uint256"
        }
      ],
      "payable": false,
      "stateMutability": "nonpayable",
      "type": "function"
    },
    {
      "constant": false,
      "inputs": [
        {
          "name": "_staker",
          "type": "address"
        },
        {
          "name": "_stakeIndex",
          "type": "uint256"
        }
      ],
      "name": "claimSingleStakingReward",
      "outputs": [
        {
          "name": "",
          "type": "bool"
        }
      ],
      "payable": false,
      "stateMutability": "nonpayable",
      "type": "function"
    },
    {
      "constant": true,
      "inputs": [
        {
          "name": "_merkleLeafHash",
          "type": "bytes32"
        },
        {
          "name": "_proof",
          "type": "bytes32[]"
        }
      ],
      "name": "canRedeemUtxoHash",
      "outputs": [
        {
          "name": "",
          "type": "bool"
        }
      ],
      "payable": false,
      "stateMutability": "view",
      "type": "function"
    },
    {
      "constant": true,
      "inputs": [],
      "name": "totalBtcCirculationAtFork",
      "outputs": [
        {
          "name": "",
          "type": "uint256"
        }
      ],
      "payable": false,
      "stateMutability": "view",
      "type": "function"
    },
    {
      "constant": true,
      "inputs": [
        {
          "name": "",
          "type": "address"
        },
        {
          "name": "",
          "type": "uint256"
        }
      ],
      "name": "staked",
      "outputs": [
        {
          "name": "stakeAmount",
          "type": "uint256"
        },
        {
          "name": "stakeTime",
          "type": "uint256"
        },
        {
          "name": "unlockTime",
          "type": "uint256"
        },
        {
          "name": "totalStakedCoinsAtStart",
          "type": "uint256"
        }
      ],
      "payable": false,
      "stateMutability": "view",
      "type": "function"
    },
    {
      "constant": false,
      "inputs": [],
      "name": "storeWeekUnclaimed",
      "outputs": [],
      "payable": false,
      "stateMutability": "nonpayable",
      "type": "function"
    },
    {
      "constant": true,
      "inputs": [],
      "name": "origin",
      "outputs": [
        {
          "name": "",
          "type": "address"
        }
      ],
      "payable": false,
      "stateMutability": "view",
      "type": "function"
    },
    {
      "constant": true,
      "inputs": [],
      "name": "symbol",
      "outputs": [
        {
          "name": "",
          "type": "string"
        }
      ],
      "payable": false,
      "stateMutability": "view",
      "type": "function"
    },
    {
      "constant": true,
      "inputs": [],
      "name": "lastUpdatedWeek",
      "outputs": [
        {
          "name": "",
          "type": "uint256"
        }
      ],
      "payable": false,
      "stateMutability": "view",
      "type": "function"
    },
    {
      "constant": false,
      "inputs": [
        {
          "name": "_to",
          "type": "address"
        },
        {
          "name": "_value",
          "type": "uint256"
        }
      ],
      "name": "transfer",
      "outputs": [
        {
          "name": "",
          "type": "bool"
        }
      ],
      "payable": false,
      "stateMutability": "nonpayable",
      "type": "function"
    },
    {
      "constant": false,
      "inputs": [
        {
          "name": "_satoshis",
          "type": "uint256"
        },
        {
          "name": "_proof",
          "type": "bytes32[]"
        },
        {
          "name": "_pubKey",
          "type": "bytes"
        },
        {
          "name": "_isCompressed",
          "type": "bool"
        },
        {
          "name": "_v",
          "type": "uint8"
        },
        {
          "name": "_r",
          "type": "bytes32"
        },
        {
          "name": "_s",
          "type": "bytes32"
        },
        {
          "name": "_referrer",
          "type": "address"
        }
      ],
      "name": "redeemReferredUtxo",
      "outputs": [
        {
          "name": "_tokensRedeemed",
          "type": "uint256"
        }
      ],
      "payable": false,
      "stateMutability": "nonpayable",
      "type": "function"
    },
    {
      "constant": true,
      "inputs": [
        {
          "name": "_stakeAmount",
          "type": "uint256"
        },
        {
          "name": "_stakeTime",
          "type": "uint256"
        }
      ],
      "name": "calculateWeAreAllSatoshiRewards",
      "outputs": [
        {
          "name": "",
          "type": "uint256"
        }
      ],
      "payable": false,
      "stateMutability": "view",
      "type": "function"
    },
    {
      "constant": true,
      "inputs": [
        {
          "name": "_proof",
          "type": "bytes32[]"
        },
        {
          "name": "_merkleLeafHash",
          "type": "bytes32"
        }
      ],
      "name": "verifyProof",
      "outputs": [
        {
          "name": "",
          "type": "bool"
        }
      ],
      "payable": false,
      "stateMutability": "view",
      "type": "function"
    },
    {
      "constant": true,
      "inputs": [
        {
          "name": "_staker",
          "type": "address"
        },
        {
          "name": "_stakeIndex",
          "type": "uint256"
        }
      ],
      "name": "getStakedEntry",
      "outputs": [
        {
          "name": "",
          "type": "uint256"
        }
      ],
      "payable": false,
      "stateMutability": "view",
      "type": "function"
    },
    {
      "constant": false,
      "inputs": [
        {
          "name": "_staker",
          "type": "address"
        },
        {
          "name": "_startIndex",
          "type": "uint256"
        },
        {
          "name": "_endIndex",
          "type": "uint256"
        }
      ],
      "name": "claimMultipleStakingRewards",
      "outputs": [
        {
          "name": "",
          "type": "bool"
        }
      ],
      "payable": false,
      "stateMutability": "nonpayable",
      "type": "function"
    },
    {
      "constant": true,
      "inputs": [
        {
          "name": "_addr",
          "type": "address"
        },
        {
          "name": "_pubKey",
          "type": "bytes"
        },
        {
          "name": "_v",
          "type": "uint8"
        },
        {
          "name": "_r",
          "type": "bytes32"
        },
        {
          "name": "_s",
          "type": "bytes32"
        }
      ],
      "name": "ecdsaVerify",
      "outputs": [
        {
          "name": "",
          "type": "bool"
        }
      ],
      "payable": false,
      "stateMutability": "pure",
      "type": "function"
    },
    {
      "constant": true,
      "inputs": [
        {
          "name": "_originalAddress",
          "type": "bytes20"
        },
        {
          "name": "_satoshis",
          "type": "uint256"
        },
        {
          "name": "_proof",
          "type": "bytes32[]"
        }
      ],
      "name": "canRedeemUtxo",
      "outputs": [
        {
          "name": "",
          "type": "bool"
        }
      ],
      "payable": false,
      "stateMutability": "view",
      "type": "function"
    },
    {
      "constant": false,
      "inputs": [
        {
          "name": "_spender",
          "type": "address"
        },
        {
          "name": "_addedValue",
          "type": "uint256"
        }
      ],
      "name": "increaseApproval",
      "outputs": [
        {
          "name": "",
          "type": "bool"
        }
      ],
      "payable": false,
      "stateMutability": "nonpayable",
      "type": "function"
    },
    {
      "constant": true,
      "inputs": [
        {
          "name": "_owner",
          "type": "address"
        },
        {
          "name": "_spender",
          "type": "address"
        }
      ],
      "name": "allowance",
      "outputs": [
        {
          "name": "",
          "type": "uint256"
        }
      ],
      "payable": false,
      "stateMutability": "view",
      "type": "function"
    },
    {
      "constant": true,
      "inputs": [
        {
          "name": "_pubKey",
          "type": "bytes"
        },
        {
          "name": "_isCompressed",
          "type": "bool"
        }
      ],
      "name": "pubKeyToBitcoinAddress",
      "outputs": [
        {
          "name": "",
          "type": "bytes20"
        }
      ],
      "payable": false,
      "stateMutability": "pure",
      "type": "function"
    },
    {
      "constant": true,
      "inputs": [
        {
          "name": "_stakeAmount",
          "type": "uint256"
        }
      ],
      "name": "calculateCritMassRewards",
      "outputs": [
        {
          "name": "",
          "type": "uint256"
        }
      ],
      "payable": false,
      "stateMutability": "view",
      "type": "function"
    },
    {
      "constant": true,
      "inputs": [],
      "name": "totalRedeemed",
      "outputs": [
        {
          "name": "",
          "type": "uint256"
        }
      ],
      "payable": false,
      "stateMutability": "view",
      "type": "function"
    },
    {
      "constant": true,
      "inputs": [
        {
          "name": "_principle",
          "type": "uint256"
        },
        {
          "name": "_periods",
          "type": "uint256"
        },
        {
          "name": "_rate",
          "type": "uint256"
        }
      ],
      "name": "compound",
      "outputs": [
        {
          "name": "",
          "type": "uint256"
        }
      ],
      "payable": false,
      "stateMutability": "pure",
      "type": "function"
    },
    {
      "constant": true,
      "inputs": [
        {
          "name": "_staker",
          "type": "address"
        },
        {
          "name": "_stakeIndex",
          "type": "uint256"
        }
      ],
      "name": "calculateStakingRewards",
      "outputs": [
        {
          "name": "",
          "type": "uint256"
        }
      ],
      "payable": false,
      "stateMutability": "view",
      "type": "function"
    },
    {
      "inputs": [
        {
          "name": "_originContract",
          "type": "address"
        },
        {
          "name": "_rootUtxoMerkleTreeHash",
          "type": "bytes32"
        },
        {
          "name": "_maximumRedeemable",
          "type": "uint256"
        },
        {
          "name": "_totalBtcCirculationAtFork",
          "type": "uint256"
        }
      ],
      "payable": false,
      "stateMutability": "nonpayable",
      "type": "constructor"
    },
    {
      "anonymous": false,
      "inputs": [
        {
          "indexed": true,
          "name": "_address",
          "type": "address"
        },
        {
          "indexed": false,
          "name": "_reward",
          "type": "uint256"
        }
      ],
      "name": "Mint",
      "type": "event"
    },
    {
      "anonymous": false,
      "inputs": [
        {
          "indexed": false,
          "name": "label",
          "type": "string"
        },
        {
          "indexed": false,
          "name": "testValue",
          "type": "uint256"
        }
      ],
      "name": "Test",
      "type": "event"
    },
    {
      "anonymous": false,
      "inputs": [
        {
          "indexed": true,
          "name": "owner",
          "type": "address"
        },
        {
          "indexed": true,
          "name": "spender",
          "type": "address"
        },
        {
          "indexed": false,
          "name": "value",
          "type": "uint256"
        }
      ],
      "name": "Approval",
      "type": "event"
    },
    {
      "anonymous": false,
      "inputs": [
        {
          "indexed": true,
          "name": "from",
          "type": "address"
        },
        {
          "indexed": true,
          "name": "to",
          "type": "address"
        },
        {
          "indexed": false,
          "name": "value",
          "type": "uint256"
        }
      ],
      "name": "Transfer",
      "type": "event"
    }
  ],
  "bytecode": "0x6080604052600060055560006009556040805190810160405280600a81526020017f426974636f696e48657800000000000000000000000000000000000000000000815250600e90805190602001906200005b92919062000171565b506040805190810160405280600381526020017f4248580000000000000000000000000000000000000000000000000000000000815250600f9080519060200190620000a992919062000171565b506012601055348015620000bc57600080fd5b5060405160808062004b3b83398101806040528101908080519060200190929190805190602001909291908051906020019092919080519060200190929190505050838383834260048190555083600360006101000a81548173ffffffffffffffffffffffffffffffffffffffff021916908373ffffffffffffffffffffffffffffffffffffffff160217905550826007816000191690555081600a8190555080600b81905550505050505050505062000220565b828054600181600116156101000203166002900490600052602060002090601f016020900481019282601f10620001b457805160ff1916838001178555620001e5565b82800160010185558215620001e5579182015b82811115620001e4578251825591602001919060010190620001c7565b5b509050620001f49190620001f8565b5090565b6200021d91905b8082111562000219576000816000905550600101620001ff565b5090565b90565b61490b80620002306000396000f300608060405260043610610230576000357c0100000000000000000000000000000000000000000000000000000000900463ffffffff16806306fdde03146102355780630867c0ad146102c557806308b4312b14610363578063095ea7b31461038e578063128bfcae146103f357806316043f5d146104425780631765f4bf1461046d57806318160ddd14610498578063229cfc32146104c357806323b872dd146105045780632c3ee88c1461058957806330fd546e146105ca578063313ce5671461060b578063443de10c146106365780635418796c1461068d5780636618846314610736578063687cf4a41461079b5780636aaf67e2146107e45780636e20f0a51461081757806370a0823114610882578063753bf8cd146108d9578063790ca413146109d85780637cdafe9d14610a0357806381437de814610a6457806381cd84b914610ac95780638d854c3414610b555780638f16981614610b805780639283032c14610bf6578063938b5f3214610c0d57806395d89b4114610c645780639d65b89214610cf4578063a9059cbb14610d1f578063b1ccf19314610d84578063b27f7a0e14610e4a578063b80ac7df14610e95578063be6eedbd14610f21578063cb9c501f14610f82578063ce267b5514610ff1578063cfc2334e146110bb578063d73dd6231461115c578063dd62ed3e146111c1578063e073ef6914611238578063e26e7b50146112df578063f35dad4014611320578063f3c85eba1461134b578063f6c45d02146113a0575b600080fd5b34801561024157600080fd5b5061024a611401565b6040518080602001828103825283818151815260200191508051906020019080838360005b8381101561028a57808201518184015260208101905061026f565b50505050905090810190601f1680156102b75780820380516001836020036101000a031916815260200191505b509250505060405180910390f35b3480156102d157600080fd5b506103496004803603810190808035600019169060200190929190803560ff16906020019092919080356000191690602001909291908035600019169060200190929190803573ffffffffffffffffffffffffffffffffffffffff16906020019092919080351515906020019092919050505061149f565b604051808215151515815260200191505060405180910390f35b34801561036f57600080fd5b5061037861168a565b6040518082815260200191505060405180910390f35b34801561039a57600080fd5b506103d9600480360381019080803573ffffffffffffffffffffffffffffffffffffffff16906020019092919080359060200190929190505050611690565b604051808215151515815260200191505060405180910390f35b3480156103ff57600080fd5b506104286004803603810190808035906020019092919080359060200190929190505050611782565b604051808215151515815260200191505060405180910390f35b34801561044e57600080fd5b50610457611a90565b6040518082815260200191505060405180910390f35b34801561047957600080fd5b50610482611a95565b6040518082815260200191505060405180910390f35b3480156104a457600080fd5b506104ad611a9b565b6040518082815260200191505060405180910390f35b3480156104cf57600080fd5b506104ee60048036038101908080359060200190929190505050611aa5565b6040518082815260200191505060405180910390f35b34801561051057600080fd5b5061056f600480360381019080803573ffffffffffffffffffffffffffffffffffffffff169060200190929190803573ffffffffffffffffffffffffffffffffffffffff16906020019092919080359060200190929190505050611aea565b604051808215151515815260200191505060405180910390f35b34801561059557600080fd5b506105b460048036038101908080359060200190929190505050611ea4565b6040518082815260200191505060405180910390f35b3480156105d657600080fd5b506105f56004803603810190808035906020019092919050505061221e565b6040518082815260200191505060405180910390f35b34801561061757600080fd5b50610620612236565b6040518082815260200191505060405180910390f35b34801561064257600080fd5b50610677600480360381019080803573ffffffffffffffffffffffffffffffffffffffff16906020019092919050505061223c565b6040518082815260200191505060405180910390f35b34801561069957600080fd5b506106f4600480360381019080803590602001908201803590602001908080601f01602080910402602001604051908101604052809392919081815260200183838082843782019150505050505091929192905050506122fa565b604051808273ffffffffffffffffffffffffffffffffffffffff1673ffffffffffffffffffffffffffffffffffffffff16815260200191505060405180910390f35b34801561074257600080fd5b50610781600480360381019080803573ffffffffffffffffffffffffffffffffffffffff16906020019092919080359060200190929190505050612380565b604051808215151515815260200191505060405180910390f35b3480156107a757600080fd5b506107ca6004803603810190808035600019169060200190929190505050612611565b604051808215151515815260200191505060405180910390f35b3480156107f057600080fd5b506107f9612631565b60405180826000191660001916815260200191505060405180910390f35b34801561082357600080fd5b5061086c600480360381019080803573ffffffffffffffffffffffffffffffffffffffff1690602001909291908035906020019092919080359060200190929190505050612637565b6040518082815260200191505060405180910390f35b34801561088e57600080fd5b506108c3600480360381019080803573ffffffffffffffffffffffffffffffffffffffff16906020019092919050505061270a565b6040518082815260200191505060405180910390f35b3480156108e557600080fd5b506109c26004803603810190808035906020019092919080359060200190820180359060200190808060200260200160405190810160405280939291908181526020018383602002808284378201915050505050509192919290803590602001908201803590602001908080601f0160208091040260200160405190810160405280939291908181526020018383808284378201915050505050509192919290803515159060200190929190803560ff16906020019092919080356000191690602001909291908035600019169060200190929190505050612752565b6040518082815260200191505060405180910390f35b3480156109e457600080fd5b506109ed6129f6565b6040518082815260200191505060405180910390f35b348015610a0f57600080fd5b50610a4e600480360381019080803573ffffffffffffffffffffffffffffffffffffffff169060200190929190803590602001909291905050506129fc565b6040518082815260200191505060405180910390f35b348015610a7057600080fd5b50610aaf600480360381019080803573ffffffffffffffffffffffffffffffffffffffff16906020019092919080359060200190929190505050612c61565b604051808215151515815260200191505060405180910390f35b348015610ad557600080fd5b50610b3b60048036038101908080356000191690602001909291908035906020019082018035906020019080806020026020016040519081016040528093929190818152602001838360200280828437820191505050505050919291929050505061322e565b604051808215151515815260200191505060405180910390f35b348015610b6157600080fd5b50610b6a613279565b6040518082815260200191505060405180910390f35b348015610b8c57600080fd5b50610bcb600480360381019080803573ffffffffffffffffffffffffffffffffffffffff1690602001909291908035906020019092919050505061327f565b6040518085815260200184815260200183815260200182815260200194505050505060405180910390f35b348015610c0257600080fd5b50610c0b6132cb565b005b348015610c1957600080fd5b50610c2261334e565b604051808273ffffffffffffffffffffffffffffffffffffffff1673ffffffffffffffffffffffffffffffffffffffff16815260200191505060405180910390f35b348015610c7057600080fd5b50610c79613374565b6040518080602001828103825283818151815260200191508051906020019080838360005b83811015610cb9578082015181840152602081019050610c9e565b50505050905090810190601f168015610ce65780820380516001836020036101000a031916815260200191505b509250505060405180910390f35b348015610d0057600080fd5b50610d09613412565b6040518082815260200191505060405180910390f35b348015610d2b57600080fd5b50610d6a600480360381019080803573ffffffffffffffffffffffffffffffffffffffff16906020019092919080359060200190929190505050613418565b604051808215151515815260200191505060405180910390f35b348015610d9057600080fd5b50610e3460048036038101908080359060200190929190803590602001908201803590602001919091929391929390803590602001908201803590602001919091929391929390803515159060200190929190803560ff16906020019092919080356000191690602001909291908035600019169060200190929190803573ffffffffffffffffffffffffffffffffffffffff169060200190929190505050613637565b6040518082815260200191505060405180910390f35b348015610e5657600080fd5b50610e7f6004803603810190808035906020019092919080359060200190929190505050613807565b6040518082815260200191505060405180910390f35b348015610ea157600080fd5b50610f076004803603810190808035906020019082018035906020019080806020026020016040519081016040528093929190818152602001838360200280828437820191505050505050919291929080356000191690602001909291905050506138dd565b604051808215151515815260200191505060405180910390f35b348015610f2d57600080fd5b50610f6c600480360381019080803573ffffffffffffffffffffffffffffffffffffffff169060200190929190803590602001909291905050506138f4565b6040518082815260200191505060405180910390f35b348015610f8e57600080fd5b50610fd7600480360381019080803573ffffffffffffffffffffffffffffffffffffffff16906020019092919080359060200190929190803590602001909291905050506139ea565b604051808215151515815260200191505060405180910390f35b348015610ffd57600080fd5b506110a1600480360381019080803573ffffffffffffffffffffffffffffffffffffffff169060200190929190803590602001908201803590602001908080601f0160208091040260200160405190810160405280939291908181526020018383808284378201915050505050509192919290803560ff16906020019092919080356000191690602001909291908035600019169060200190929190505050613ae3565b604051808215151515815260200191505060405180910390f35b3480156110c757600080fd5b5061114260048036038101908080356bffffffffffffffffffffffff191690602001909291908035906020019092919080359060200190820180359060200190808060200260200160405190810160405280939291908181526020018383602002808284378201915050505050509192919290505050613c02565b604051808215151515815260200191505060405180910390f35b34801561116857600080fd5b506111a7600480360381019080803573ffffffffffffffffffffffffffffffffffffffff16906020019092919080359060200190929190505050613cc3565b604051808215151515815260200191505060405180910390f35b3480156111cd57600080fd5b50611222600480360381019080803573ffffffffffffffffffffffffffffffffffffffff169060200190929190803573ffffffffffffffffffffffffffffffffffffffff169060200190929190505050613ebf565b6040518082815260200191505060405180910390f35b34801561124457600080fd5b506112ab600480360381019080803590602001908201803590602001908080601f0160208091040260200160405190810160405280939291908181526020018383808284378201915050505050509192919290803515159060200190929190505050613f46565b60405180826bffffffffffffffffffffffff19166bffffffffffffffffffffffff1916815260200191505060405180910390f35b3480156112eb57600080fd5b5061130a60048036038101908080359060200190929190505050614305565b6040518082815260200191505060405180910390f35b34801561132c57600080fd5b5061133561434a565b6040518082815260200191505060405180910390f35b34801561135757600080fd5b5061138a600480360381019080803590602001909291908035906020019092919080359060200190929190505050614350565b6040518082815260200191505060405180910390f35b3480156113ac57600080fd5b506113eb600480360381019080803573ffffffffffffffffffffffffffffffffffffffff16906020019092919080359060200190929190505050614466565b6040518082815260200191505060405180910390f35b600e8054600181600116156101000203166002900480601f0160208091040260200160405190810160405280929190818152602001828054600181600116156101000203166002900480156114975780601f1061146c57610100808354040283529160200191611497565b820191906000526020600020905b81548152906001019060200180831161147a57829003601f168201915b505050505081565b60008060608315156114b3578891506115cd565b6040805190810160405280601c81526020017f19457468657265756d205369676e6564204d6573736167653a0a333200000000815250905080896040516020018083805190602001908083835b6020831015156115255780518252602082019150602081019050602083039250611500565b6001836020036101000a0380198251168184511680821785525050505050509050018260001916600019168152602001925050506040516020818303038152906040526040518082805190602001908083835b60208310151561159d5780518252602082019150602081019050602083039250611578565b6001836020036101000a038019825116818451168082178552505050505050905001915050604051809103902091505b8473ffffffffffffffffffffffffffffffffffffffff166001838a8a8a604051600081526020016040526040518085600019166000191681526020018460ff1660ff1681526020018360001916600019168152602001826000191660001916815260200194505050505060206040516020810390808403906000865af115801561165b573d6000803e3d6000fd5b5050506020604051035173ffffffffffffffffffffffffffffffffffffffff1614925050509695505050505050565b600a5481565b600081600260003373ffffffffffffffffffffffffffffffffffffffff1673ffffffffffffffffffffffffffffffffffffffff16815260200190815260200160002060008573ffffffffffffffffffffffffffffffffffffffff1673ffffffffffffffffffffffffffffffffffffffff168152602001908152602001600020819055508273ffffffffffffffffffffffffffffffffffffffff163373ffffffffffffffffffffffffffffffffffffffff167f8c5be1e5ebec7d5bd14f71427d1e84f3dd0314c0f7b2291e5b200ac8c7c3b925846040518082815260200191505060405180910390a36001905092915050565b600080339050836000808373ffffffffffffffffffffffffffffffffffffffff1673ffffffffffffffffffffffffffffffffffffffff16815260200190815260200160002054101515156117d557600080fd5b6117eb620d2f00426145a190919063ffffffff16565b83101515156117f957600080fd5b61181063bbf81e00426145a190919063ffffffff16565b831115151561181e57600080fd5b6118266132cb565b611877846000808473ffffffffffffffffffffffffffffffffffffffff1673ffffffffffffffffffffffffffffffffffffffff168152602001908152602001600020546145bd90919063ffffffff16565b6000808373ffffffffffffffffffffffffffffffffffffffff1673ffffffffffffffffffffffffffffffffffffffff1681526020019081526020016000208190555061190a846000803073ffffffffffffffffffffffffffffffffffffffff1673ffffffffffffffffffffffffffffffffffffffff168152602001908152602001600020546145a190919063ffffffff16565b6000803073ffffffffffffffffffffffffffffffffffffffff1673ffffffffffffffffffffffffffffffffffffffff168152602001908152602001600020819055503073ffffffffffffffffffffffffffffffffffffffff168173ffffffffffffffffffffffffffffffffffffffff167fddf252ad1be2c89b69c2b068fc378daa952ba7f163c4a11628f55a4df523b3ef866040518082815260200191505060405180910390a3600d60008273ffffffffffffffffffffffffffffffffffffffff1673ffffffffffffffffffffffffffffffffffffffff168152602001908152602001600020608060405190810160405280868152602001428152602001858152602001600c548152509080600181540180825580915050906001820390600052602060002090600402016000909192909190915060008201518160000155602082015181600101556040820151816002015560608201518160030155505050611a7f84600c546145a190919063ffffffff16565b600c81905550600191505092915050565b600181565b600c5481565b6000600154905090565b6000611ae3600a611ad5600b54611ac7600954876145d690919063ffffffff16565b61460e90919063ffffffff16565b61460e90919063ffffffff16565b9050919050565b60008073ffffffffffffffffffffffffffffffffffffffff168373ffffffffffffffffffffffffffffffffffffffff1614151515611b2757600080fd5b6000808573ffffffffffffffffffffffffffffffffffffffff1673ffffffffffffffffffffffffffffffffffffffff168152602001908152602001600020548211151515611b7457600080fd5b600260008573ffffffffffffffffffffffffffffffffffffffff1673ffffffffffffffffffffffffffffffffffffffff16815260200190815260200160002060003373ffffffffffffffffffffffffffffffffffffffff1673ffffffffffffffffffffffffffffffffffffffff168152602001908152602001600020548211151515611bff57600080fd5b611c50826000808773ffffffffffffffffffffffffffffffffffffffff1673ffffffffffffffffffffffffffffffffffffffff168152602001908152602001600020546145bd90919063ffffffff16565b6000808673ffffffffffffffffffffffffffffffffffffffff1673ffffffffffffffffffffffffffffffffffffffff16815260200190815260200160002081905550611ce3826000808673ffffffffffffffffffffffffffffffffffffffff1673ffffffffffffffffffffffffffffffffffffffff168152602001908152602001600020546145a190919063ffffffff16565b6000808573ffffffffffffffffffffffffffffffffffffffff1673ffffffffffffffffffffffffffffffffffffffff16815260200190815260200160002081905550611db482600260008773ffffffffffffffffffffffffffffffffffffffff1673ffffffffffffffffffffffffffffffffffffffff16815260200190815260200160002060003373ffffffffffffffffffffffffffffffffffffffff1673ffffffffffffffffffffffffffffffffffffffff168152602001908152602001600020546145bd90919063ffffffff16565b600260008673ffffffffffffffffffffffffffffffffffffffff1673ffffffffffffffffffffffffffffffffffffffff16815260200190815260200160002060003373ffffffffffffffffffffffffffffffffffffffff1673ffffffffffffffffffffffffffffffffffffffff168152602001908152602001600020819055508273ffffffffffffffffffffffffffffffffffffffff168473ffffffffffffffffffffffffffffffffffffffff167fddf252ad1be2c89b69c2b068fc378daa952ba7f163c4a11628f55a4df523b3ef846040518082815260200191505060405180910390a3600190509392505050565b6000806000806000611ec46402540be400876145d690919063ffffffff16565b9350683635c9adc5dea00000841115611f5d5769152d02c7e14af6800000841015611f4557611f3e640ba43b7400611f306009611f226002611f1464174876e8008b6145bd90919063ffffffff16565b6145d690919063ffffffff16565b61460e90919063ffffffff16565b6145a190919063ffffffff16565b9350611f5c565b611f5960048561460e90919063ffffffff16565b93505b5b4260045410611f6d576000611f98565b611f9762093a80611f89600454426145bd90919063ffffffff16565b61460e90919063ffffffff16565b5b9250611fc1611fb16002856145d690919063ffffffff16565b60646145bd90919063ffffffff16565b9150611fe96064611fdb84876145d690919063ffffffff16565b61460e90919063ffffffff16565b9050602d831115611ffc57809450612215565b60208311156120335761202c606461201e6065846145d690919063ffffffff16565b61460e90919063ffffffff16565b9450612215565b601883111561206a5761206360646120556066846145d690919063ffffffff16565b61460e90919063ffffffff16565b9450612215565b60128311156120a15761209a606461208c6067846145d690919063ffffffff16565b61460e90919063ffffffff16565b9450612215565b600e8311156120d8576120d160646120c36068846145d690919063ffffffff16565b61460e90919063ffffffff16565b9450612215565b600a83111561210f5761210860646120fa6069846145d690919063ffffffff16565b61460e90919063ffffffff16565b9450612215565b60078311156121465761213f6064612131606a846145d690919063ffffffff16565b61460e90919063ffffffff16565b9450612215565b600583111561217d576121766064612168606b846145d690919063ffffffff16565b61460e90919063ffffffff16565b9450612215565b60038311156121b4576121ad606461219f606c846145d690919063ffffffff16565b61460e90919063ffffffff16565b9450612215565b60018311156121eb576121e460646121d6606d846145d690919063ffffffff16565b61460e90919063ffffffff16565b9450612215565b6122126064612204606e846145d690919063ffffffff16565b61460e90919063ffffffff16565b94505b50505050919050565b60066020528060005260406000206000915090505481565b60105481565b600080600d60008473ffffffffffffffffffffffffffffffffffffffff1673ffffffffffffffffffffffffffffffffffffffff16815260200190815260200160002080549050141561229157600090506122f5565b6122f28260006122ed6001600d60008873ffffffffffffffffffffffffffffffffffffffff1673ffffffffffffffffffffffffffffffffffffffff168152602001908152602001600020805490506145bd90919063ffffffff16565b612637565b90505b919050565b600073ffffffffffffffffffffffffffffffffffffffff826040518082805190602001908083835b6020831015156123475780518252602082019150602081019050602083039250612322565b6001836020036101000a038019825116818451168082178552505050505050905001915050604051809103902060019004169050919050565b600080600260003373ffffffffffffffffffffffffffffffffffffffff1673ffffffffffffffffffffffffffffffffffffffff16815260200190815260200160002060008573ffffffffffffffffffffffffffffffffffffffff1673ffffffffffffffffffffffffffffffffffffffff16815260200190815260200160002054905080831115612491576000600260003373ffffffffffffffffffffffffffffffffffffffff1673ffffffffffffffffffffffffffffffffffffffff16815260200190815260200160002060008673ffffffffffffffffffffffffffffffffffffffff1673ffffffffffffffffffffffffffffffffffffffff16815260200190815260200160002081905550612525565b6124a483826145bd90919063ffffffff16565b600260003373ffffffffffffffffffffffffffffffffffffffff1673ffffffffffffffffffffffffffffffffffffffff16815260200190815260200160002060008673ffffffffffffffffffffffffffffffffffffffff1673ffffffffffffffffffffffffffffffffffffffff168152602001908152602001600020819055505b8373ffffffffffffffffffffffffffffffffffffffff163373ffffffffffffffffffffffffffffffffffffffff167f8c5be1e5ebec7d5bd14f71427d1e84f3dd0314c0f7b2291e5b200ac8c7c3b925600260003373ffffffffffffffffffffffffffffffffffffffff1673ffffffffffffffffffffffffffffffffffffffff16815260200190815260200160002060008873ffffffffffffffffffffffffffffffffffffffff1673ffffffffffffffffffffffffffffffffffffffff168152602001908152602001600020546040518082815260200191505060405180910390a3600191505092915050565b60086020528060005260406000206000915054906101000a900460ff1681565b60075481565b600080600083851115151561264b57600080fd5b600d60008773ffffffffffffffffffffffffffffffffffffffff1673ffffffffffffffffffffffffffffffffffffffff168152602001908152602001600020805490508410151561269b57600080fd5b838514156126b4576126ad86866138f4565b9250612701565b600091508490505b838510156126fd576126e06126d187836138f4565b836145a190919063ffffffff16565b91506126f66001826145a190919063ffffffff16565b90506126bc565b8192505b50509392505050565b60008060008373ffffffffffffffffffffffffffffffffffffffff1673ffffffffffffffffffffffffffffffffffffffff168152602001908152602001600020549050919050565b6000806000600454421015151561276857600080fd5b6127706132cb565b61277a8888613f46565b9150818a60405160200180836bffffffffffffffffffffffff19166bffffffffffffffffffffffff19168152601401828152602001925050506040516020818303038152906040526040518082805190602001908083835b6020831015156127f757805182526020820191506020810190506020830392506127d2565b6001836020036101000a03801982511681845116808217855250505050505090500191505060405180910390209050612830818a61322e565b151561283b57600080fd5b6128483389888888613ae3565b151561285357600080fd5b600160086000836000191660001916815260200190815260200160002060006101000a81548160ff0219169083151502179055506128908a611ea4565b9250600a546128aa846009546145a190919063ffffffff16565b111515156128b757600080fd5b6128cc836009546145a190919063ffffffff16565b600981905550612923836000803373ffffffffffffffffffffffffffffffffffffffff1673ffffffffffffffffffffffffffffffffffffffff168152602001908152602001600020546145a190919063ffffffff16565b6000803373ffffffffffffffffffffffffffffffffffffffff1673ffffffffffffffffffffffffffffffffffffffff1681526020019081526020016000208190555061297a836001546145a190919063ffffffff16565b6001819055503373ffffffffffffffffffffffffffffffffffffffff16600073ffffffffffffffffffffffffffffffffffffffff167fddf252ad1be2c89b69c2b068fc378daa952ba7f163c4a11628f55a4df523b3ef856040518082815260200191505060405180910390a38292505050979650505050505050565b60045481565b600080600080600080600d60008973ffffffffffffffffffffffffffffffffffffffff1673ffffffffffffffffffffffffffffffffffffffff16815260200190815260200160002087815481101515612a5157fe5b906000526020600020906004020194506032612a9162093a80612a8360045489600101546145bd90919063ffffffff16565b61460e90919063ffffffff16565b111515612c5157612aa06132cb565b612ab285600001548660010154613807565b9350612ac18560000154611aa5565b9250612ad08560000154614305565b9150612af782612ae985876145a190919063ffffffff16565b6145a190919063ffffffff16565b90507f9de0f3f20e0598b25c26d43dc1197af8170d2d22ae0abc364802a962ada3ff60846040518080602001838152602001828103825260128152602001807f77652061726520616c6c207361746f73686900000000000000000000000000008152506020019250505060405180910390a17f9de0f3f20e0598b25c26d43dc1197af8170d2d22ae0abc364802a962ada3ff60836040518080602001838152602001828103825260058152602001807f766972616c0000000000000000000000000000000000000000000000000000008152506020019250505060405180910390a17f9de0f3f20e0598b25c26d43dc1197af8170d2d22ae0abc364802a962ada3ff60826040518080602001838152602001828103825260098152602001807f63726974206d61737300000000000000000000000000000000000000000000008152506020019250505060405180910390a1809550612c56565b600095505b505050505092915050565b600080600080600080600d60008973ffffffffffffffffffffffffffffffffffffffff1673ffffffffffffffffffffffffffffffffffffffff16815260200190815260200160002087815481101515612cb657fe5b90600052602060002090600402019450846002015442111515612cd857600080fd5b84600001549350612ce98888614466565b9250612cf588886129fc565b9150612d1c82612d0e85876145a190919063ffffffff16565b6145a190919063ffffffff16565b90507f9de0f3f20e0598b25c26d43dc1197af8170d2d22ae0abc364802a962ada3ff608360405180806020018381526020018281038252600f8152602001807f7374616b696e67207265776172647300000000000000000000000000000000008152506020019250505060405180910390a17f9de0f3f20e0598b25c26d43dc1197af8170d2d22ae0abc364802a962ada3ff60826040518080602001838152602001828103825260128152602001807f6164646974696f6e616c207265776172647300000000000000000000000000008152506020019250505060405180910390a17f9de0f3f20e0598b25c26d43dc1197af8170d2d22ae0abc364802a962ada3ff60816040518080602001838152602001828103825260158152602001807f746f74616c2072657761726473202b207374616b6500000000000000000000008152506020019250505060405180910390a1612eb6600d60008a73ffffffffffffffffffffffffffffffffffffffff1673ffffffffffffffffffffffffffffffffffffffff16815260200190815260200160002088614624565b612ecb84600c546145bd90919063ffffffff16565b600c81905550612f22846000803073ffffffffffffffffffffffffffffffffffffffff1673ffffffffffffffffffffffffffffffffffffffff168152602001908152602001600020546145bd90919063ffffffff16565b6000803073ffffffffffffffffffffffffffffffffffffffff1673ffffffffffffffffffffffffffffffffffffffff16815260200190815260200160002081905550612fb5816000808b73ffffffffffffffffffffffffffffffffffffffff1673ffffffffffffffffffffffffffffffffffffffff168152602001908152602001600020546145a190919063ffffffff16565b6000808a73ffffffffffffffffffffffffffffffffffffffff1673ffffffffffffffffffffffffffffffffffffffff1681526020019081526020016000208190555061306a82600080600360009054906101000a900473ffffffffffffffffffffffffffffffffffffffff1673ffffffffffffffffffffffffffffffffffffffff1673ffffffffffffffffffffffffffffffffffffffff168152602001908152602001600020546145a190919063ffffffff16565b600080600360009054906101000a900473ffffffffffffffffffffffffffffffffffffffff1673ffffffffffffffffffffffffffffffffffffffff1673ffffffffffffffffffffffffffffffffffffffff168152602001908152602001600020819055508773ffffffffffffffffffffffffffffffffffffffff163073ffffffffffffffffffffffffffffffffffffffff167fddf252ad1be2c89b69c2b068fc378daa952ba7f163c4a11628f55a4df523b3ef87600001546040518082815260200191505060405180910390a361315f61314e6002846145d690919063ffffffff16565b6001546145a190919063ffffffff16565b6001819055508773ffffffffffffffffffffffffffffffffffffffff167f0f6798a560793a54c3bcfe86a93cde1e73087d944c0ea20544137d4121396885836040518082815260200191505060405180910390a2600360009054906101000a900473ffffffffffffffffffffffffffffffffffffffff1673ffffffffffffffffffffffffffffffffffffffff167f0f6798a560793a54c3bcfe86a93cde1e73087d944c0ea20544137d4121396885836040518082815260200191505060405180910390a2505050505092915050565b600080151560086000856000191660001916815260200190815260200160002060009054906101000a900460ff161515148015613271575061327082846138dd565b5b905092915050565b600b5481565b600d6020528160005260406000208181548110151561329a57fe5b9060005260206000209060040201600091509150508060000154908060010154908060020154908060030154905084565b6000806132f862093a806132ea600454426145bd90919063ffffffff16565b61460e90919063ffffffff16565b91506032821115801561330c575060055482115b1561334a57613328600954600a546145bd90919063ffffffff16565b9050806006600084815260200190815260200160002081905550816005819055505b5050565b600360009054906101000a900473ffffffffffffffffffffffffffffffffffffffff1681565b600f8054600181600116156101000203166002900480601f01602080910402602001604051908101604052809291908181526020018280546001816001161561010002031660029004801561340a5780601f106133df5761010080835404028352916020019161340a565b820191906000526020600020905b8154815290600101906020018083116133ed57829003601f168201915b505050505081565b60055481565b60008073ffffffffffffffffffffffffffffffffffffffff168373ffffffffffffffffffffffffffffffffffffffff161415151561345557600080fd5b6000803373ffffffffffffffffffffffffffffffffffffffff1673ffffffffffffffffffffffffffffffffffffffff1681526020019081526020016000205482111515156134a257600080fd5b6134f3826000803373ffffffffffffffffffffffffffffffffffffffff1673ffffffffffffffffffffffffffffffffffffffff168152602001908152602001600020546145bd90919063ffffffff16565b6000803373ffffffffffffffffffffffffffffffffffffffff1673ffffffffffffffffffffffffffffffffffffffff16815260200190815260200160002081905550613586826000808673ffffffffffffffffffffffffffffffffffffffff1673ffffffffffffffffffffffffffffffffffffffff168152602001908152602001600020546145a190919063ffffffff16565b6000808573ffffffffffffffffffffffffffffffffffffffff1673ffffffffffffffffffffffffffffffffffffffff168152602001908152602001600020819055508273ffffffffffffffffffffffffffffffffffffffff163373ffffffffffffffffffffffffffffffffffffffff167fddf252ad1be2c89b69c2b068fc378daa952ba7f163c4a11628f55a4df523b3ef846040518082815260200191505060405180910390a36001905092915050565b60003373ffffffffffffffffffffffffffffffffffffffff168273ffffffffffffffffffffffffffffffffffffffff161415151561367457600080fd5b600073ffffffffffffffffffffffffffffffffffffffff168273ffffffffffffffffffffffffffffffffffffffff16141515156136b057600080fd5b6137208b8b8b808060200260200160405190810160405280939291908181526020018383602002808284378201915050505050508a8a8080601f01602080910402602001604051908101604052809392919081815260200183838082843782019150505050505089898989612752565b905061378661373960148361460e90919063ffffffff16565b6000808573ffffffffffffffffffffffffffffffffffffffff1673ffffffffffffffffffffffffffffffffffffffff168152602001908152602001600020546145a190919063ffffffff16565b6000808473ffffffffffffffffffffffffffffffffffffffff1673ffffffffffffffffffffffffffffffffffffffff168152602001908152602001600020819055506137f06137df60148361460e90919063ffffffff16565b6001546145a190919063ffffffff16565b6001819055508090509a9950505050505050505050565b600080600080600080935061383c62093a8061382e600454896145bd90919063ffffffff16565b61460e90919063ffffffff16565b925061386862093a8061385a600454426145bd90919063ffffffff16565b61460e90919063ffffffff16565b91508290505b818110156138d0576138c16138b260326138a48a60066000878152602001908152602001600020546145d690919063ffffffff16565b61460e90919063ffffffff16565b856145a190919063ffffffff16565b9350808060010191505061386e565b8394505050505092915050565b60006138ec83600754846146c7565b905092915050565b600080600d60008573ffffffffffffffffffffffffffffffffffffffff1673ffffffffffffffffffffffffffffffffffffffff1681526020019081526020016000208381548110151561394357fe5b9060005260206000209060040201600001549050600d60008573ffffffffffffffffffffffffffffffffffffffff1673ffffffffffffffffffffffffffffffffffffffff168152602001908152602001600020838154811015156139a357fe5b9060005260206000209060040201600201544211156139df576139d86139c985856129fc565b826145a190919063ffffffff16565b91506139e3565b8091505b5092915050565b6000808284111515156139fc57600080fd5b600d60008673ffffffffffffffffffffffffffffffffffffffff1673ffffffffffffffffffffffffffffffffffffffff168152602001908152602001600020805490508311151515613a4d57600080fd5b8390505b82811015613ad757600d60008673ffffffffffffffffffffffffffffffffffffffff1673ffffffffffffffffffffffffffffffffffffffff16815260200190815260200160002081815481101515613aa557fe5b906000526020600020906004020160020154421115613aca57613ac88582612c61565b505b8080600101915050613a51565b60019150509392505050565b6000613bf7600287604051602001808273ffffffffffffffffffffffffffffffffffffffff1673ffffffffffffffffffffffffffffffffffffffff166c010000000000000000000000000281526014019150506040516020818303038152906040526040518082805190602001908083835b602083101515613b7a5780518252602082019150602081019050602083039250613b55565b6001836020036101000a0380198251168184511680821785525050505050509050019150506020604051808303816000865af1158015613bbe573d6000803e3d6000fd5b5050506040513d6020811015613bd357600080fd5b8101908080519060200190929190505050858585613bf08a6122fa565b600061149f565b905095945050505050565b600080848460405160200180836bffffffffffffffffffffffff19166bffffffffffffffffffffffff19168152601401828152602001925050506040516020818303038152906040526040518082805190602001908083835b602083101515613c805780518252602082019150602081019050602083039250613c5b565b6001836020036101000a03801982511681845116808217855250505050505090500191505060405180910390209050613cb9818461322e565b9150509392505050565b6000613d5482600260003373ffffffffffffffffffffffffffffffffffffffff1673ffffffffffffffffffffffffffffffffffffffff16815260200190815260200160002060008673ffffffffffffffffffffffffffffffffffffffff1673ffffffffffffffffffffffffffffffffffffffff168152602001908152602001600020546145a190919063ffffffff16565b600260003373ffffffffffffffffffffffffffffffffffffffff1673ffffffffffffffffffffffffffffffffffffffff16815260200190815260200160002060008573ffffffffffffffffffffffffffffffffffffffff1673ffffffffffffffffffffffffffffffffffffffff168152602001908152602001600020819055508273ffffffffffffffffffffffffffffffffffffffff163373ffffffffffffffffffffffffffffffffffffffff167f8c5be1e5ebec7d5bd14f71427d1e84f3dd0314c0f7b2291e5b200ac8c7c3b925600260003373ffffffffffffffffffffffffffffffffffffffff1673ffffffffffffffffffffffffffffffffffffffff16815260200190815260200160002060008773ffffffffffffffffffffffffffffffffffffffff1673ffffffffffffffffffffffffffffffffffffffff168152602001908152602001600020546040518082815260200191505060405180910390a36001905092915050565b6000600260008473ffffffffffffffffffffffffffffffffffffffff1673ffffffffffffffffffffffffffffffffffffffff16815260200190815260200160002060008373ffffffffffffffffffffffffffffffffffffffff1673ffffffffffffffffffffffffffffffffffffffff16815260200190815260200160002054905092915050565b600080600080613f57866000614792565b600190049250613f68866020614792565b6001900491508415614144576000600283811515613f8257fe5b0614613f8f576003613f92565b60025b9050600360028285604051602001808360ff1660ff167f0100000000000000000000000000000000000000000000000000000000000000028152600101828152602001925050506040516020818303038152906040526040518082805190602001908083835b60208310151561401d5780518252602082019150602081019050602083039250613ff8565b6001836020036101000a0380198251168184511680821785525050505050509050019150506020604051808303816000865af1158015614061573d6000803e3d6000fd5b5050506040513d602081101561407657600080fd5b81019080805190602001909291905050506040516020018082600019166000191681526020019150506040516020818303038152906040526040518082805190602001908083835b6020831015156140e357805182526020820191506020810190506020830392506140be565b6001836020036101000a0380198251168184511680821785525050505050509050019150506020604051808303816000865af1158015614127573d6000803e3d6000fd5b505050604051516c010000000000000000000000000293506142fc565b6004905060036002828585604051602001808460ff1660ff167f010000000000000000000000000000000000000000000000000000000000000002815260010183815260200182815260200193505050506040516020818303038152906040526040518082805190602001908083835b6020831015156141d957805182526020820191506020810190506020830392506141b4565b6001836020036101000a0380198251168184511680821785525050505050509050019150506020604051808303816000865af115801561421d573d6000803e3d6000fd5b5050506040513d602081101561423257600080fd5b81019080805190602001909291905050506040516020018082600019166000191681526020019150506040516020818303038152906040526040518082805190602001908083835b60208310151561429f578051825260208201915060208101905060208303925061427a565b6001836020036101000a0380198251168184511680821785525050505050509050019150506020604051808303816000865af11580156142e3573d6000803e3d6000fd5b505050604051516c010000000000000000000000000293505b50505092915050565b6000614343600a614335600a54614327600954876145d690919063ffffffff16565b61460e90919063ffffffff16565b61460e90919063ffffffff16565b9050919050565b60095481565b600080600080600080601e9450848881151561436857fe5b06935061437e858961460e90919063ffffffff16565b92506143986402540be4008a61460e90919063ffffffff16565b9150600090505b82811015614401576143e48460640a6143d6866143c68b60016145a190919063ffffffff16565b0a856145d690919063ffffffff16565b61460e90919063ffffffff16565b91506143fa6001826145a190919063ffffffff16565b905061439f565b61443e8460640a614430866144208b60016145a190919063ffffffff16565b0a856145d690919063ffffffff16565b61460e90919063ffffffff16565b91506144586402540be400836145d690919063ffffffff16565b955050505050509392505050565b600080600080600080600d60008973ffffffffffffffffffffffffffffffffffffffff1673ffffffffffffffffffffffffffffffffffffffff168152602001908152602001600020878154811015156144bb57fe5b906000526020600020906004020194506144e0606460016145d690919063ffffffff16565b93506000856003015414156144f6576001614523565b614522600154614514606488600301546145d690919063ffffffff16565b61460e90919063ffffffff16565b5b9250614538838561460e90919063ffffffff16565b935061456a620d2f0061455c876001015488600201546145bd90919063ffffffff16565b61460e90919063ffffffff16565b915061457b85600001548386614350565b90506145948560000154826145bd90919063ffffffff16565b9550505050505092915050565b600081830190508281101515156145b457fe5b80905092915050565b60008282111515156145cb57fe5b818303905092915050565b6000808314156145e95760009050614608565b81830290508183828115156145fa57fe5b0414151561460457fe5b8090505b92915050565b6000818381151561461b57fe5b04905092915050565b8161463d600184805490506145bd90919063ffffffff16565b81548110151561464957fe5b9060005260206000209060040201828281548110151561466557fe5b9060005260206000209060040201600082015481600001556001820154816001015560028201548160020155600382015481600301559050506146b6600183805490506145bd90919063ffffffff16565b82816146c2919061486e565b505050565b600080600080849250600091505b865182101561477b5786828151811015156146ec57fe5b90602001906020020151905080600019168360001916101561473d5782816040518083600019166000191681526020018260001916600019168152602001925050506040518091039020925061476e565b8083604051808360001916600019168152602001826000191660001916815260200192505050604051809103902092505b81806001019250506146d5565b856000191683600019161493505050509392505050565b600080600090505b60208110156148645760088102848483018151811015156147b757fe5b9060200101517f010000000000000000000000000000000000000000000000000000000000000090047f0100000000000000000000000000000000000000000000000000000000000000027effffffffffffffffffffffffffffffffffffffffffffffffffffffffffffff19167fff0000000000000000000000000000000000000000000000000000000000000060010216600019169060020a900482189150808060010191505061479a565b8191505092915050565b81548183558181111561489b5760040281600402836000526020600020918201910161489a91906148a0565b5b505050565b6148dc91905b808211156148d857600080820160009055600182016000905560028201600090556003820160009055506004016148a6565b5090565b905600a165627a7a72305820178ccd7511003711a6165431b190f3cd6f7e848594173366f2b424cfa8665a330029",
  "source": "pragma solidity >=0.4.23;\n\nimport \"../BitcoinHex.sol\";\n\n\n// this will allow us to initialize block timestamp or wrap any internal functions and make them assessible to white box testing\ncontract BitcoinHexStub is BitcoinHex {\n  constructor(\n    address _originContract,\n    bytes32 _rootUtxoMerkleTreeHash,\n    uint256 _maximumRedeemable,\n    uint256 _totalBtcCirculationAtFork\n  ) \n    public \n    BitcoinHex(\n      _originContract,\n      _rootUtxoMerkleTreeHash,\n      _maximumRedeemable,\n      _totalBtcCirculationAtFork\n    )\n  {}    \n}\n",
  "sourcePath": "/Users/tovarishfin/dev/bhx/bhx-contracts/contracts/stubs/BitcoinHexStub.sol",
  "compiler": {
    "name": "solc",
    "version": "0.4.24+commit.e67f0147.Emscripten.clang"
  },
  "schemaVersion": "2.0.0",
  "updatedAt": "2018-07-23T13:47:12.617Z"
}