{
  "contractName": "BitcoinHexStub",
  "abi": [
    {
      "constant": true,
      "inputs": [],
      "name": "name",
      "outputs": [
        {
          "name": "",
          "type": "string"
        }
      ],
      "payable": false,
      "stateMutability": "view",
      "type": "function"
    },
    {
      "constant": true,
      "inputs": [
        {
          "name": "_hash",
          "type": "bytes32"
        },
        {
          "name": "_v",
          "type": "uint8"
        },
        {
          "name": "_r",
          "type": "bytes32"
        },
        {
          "name": "_s",
          "type": "bytes32"
        },
        {
          "name": "_expected",
          "type": "address"
        },
        {
          "name": "_addPrefix",
          "type": "bool"
        }
      ],
      "name": "validateSignature",
      "outputs": [
        {
          "name": "",
          "type": "bool"
        }
      ],
      "payable": false,
      "stateMutability": "pure",
      "type": "function"
    },
    {
      "constant": true,
      "inputs": [],
      "name": "maximumRedeemable",
      "outputs": [
        {
          "name": "",
          "type": "uint256"
        }
      ],
      "payable": false,
      "stateMutability": "view",
      "type": "function"
    },
    {
      "constant": false,
      "inputs": [
        {
          "name": "_spender",
          "type": "address"
        },
        {
          "name": "_value",
          "type": "uint256"
        }
      ],
      "name": "approve",
      "outputs": [
        {
          "name": "",
          "type": "bool"
        }
      ],
      "payable": false,
      "stateMutability": "nonpayable",
      "type": "function"
    },
    {
      "constant": false,
      "inputs": [
        {
          "name": "_value",
          "type": "uint256"
        },
        {
          "name": "_unlockTime",
          "type": "uint256"
        }
      ],
      "name": "startStake",
      "outputs": [
        {
          "name": "",
          "type": "bool"
        }
      ],
      "payable": false,
      "stateMutability": "nonpayable",
      "type": "function"
    },
    {
      "constant": true,
      "inputs": [],
      "name": "interestRatePercent",
      "outputs": [
        {
          "name": "",
          "type": "uint256"
        }
      ],
      "payable": false,
      "stateMutability": "view",
      "type": "function"
    },
    {
      "constant": true,
      "inputs": [],
      "name": "totalStakedCoins",
      "outputs": [
        {
          "name": "",
          "type": "uint256"
        }
      ],
      "payable": false,
      "stateMutability": "view",
      "type": "function"
    },
    {
      "constant": true,
      "inputs": [],
      "name": "totalSupply",
      "outputs": [
        {
          "name": "",
          "type": "uint256"
        }
      ],
      "payable": false,
      "stateMutability": "view",
      "type": "function"
    },
    {
      "constant": true,
      "inputs": [
        {
          "name": "_stakeAmount",
          "type": "uint256"
        }
      ],
      "name": "calculateViralRewards",
      "outputs": [
        {
          "name": "",
          "type": "uint256"
        }
      ],
      "payable": false,
      "stateMutability": "view",
      "type": "function"
    },
    {
      "constant": false,
      "inputs": [
        {
          "name": "_from",
          "type": "address"
        },
        {
          "name": "_to",
          "type": "address"
        },
        {
          "name": "_value",
          "type": "uint256"
        }
      ],
      "name": "transferFrom",
      "outputs": [
        {
          "name": "",
          "type": "bool"
        }
      ],
      "payable": false,
      "stateMutability": "nonpayable",
      "type": "function"
    },
    {
      "constant": false,
      "inputs": [
        {
          "name": "_satoshis",
          "type": "uint256"
        }
      ],
      "name": "getRedeemAmount",
      "outputs": [
        {
          "name": "",
          "type": "uint256"
        },
        {
          "name": "",
          "type": "uint256"
        }
      ],
      "payable": false,
      "stateMutability": "nonpayable",
      "type": "function"
    },
    {
      "constant": true,
      "inputs": [],
      "name": "isDuringBonusPeriod",
      "outputs": [
        {
          "name": "",
          "type": "bool"
        }
      ],
      "payable": false,
      "stateMutability": "view",
      "type": "function"
    },
    {
      "constant": true,
      "inputs": [],
      "name": "decimals",
      "outputs": [
        {
          "name": "",
          "type": "uint256"
        }
      ],
      "payable": false,
      "stateMutability": "view",
      "type": "function"
    },
    {
      "constant": true,
      "inputs": [],
      "name": "oneInterestPeriodInSeconds",
      "outputs": [
        {
          "name": "",
          "type": "uint256"
        }
      ],
      "payable": false,
      "stateMutability": "view",
      "type": "function"
    },
    {
      "constant": true,
      "inputs": [],
      "name": "redeemedCount",
      "outputs": [
        {
          "name": "",
          "type": "uint256"
        }
      ],
      "payable": false,
      "stateMutability": "view",
      "type": "function"
    },
    {
      "constant": true,
      "inputs": [
        {
          "name": "_pubKey",
          "type": "bytes"
        }
      ],
      "name": "pubKeyToEthereumAddress",
      "outputs": [
        {
          "name": "",
          "type": "address"
        }
      ],
      "payable": false,
      "stateMutability": "pure",
      "type": "function"
    },
    {
      "constant": true,
      "inputs": [],
      "name": "maxStakingTimeInSeconds",
      "outputs": [
        {
          "name": "",
          "type": "uint256"
        }
      ],
      "payable": false,
      "stateMutability": "view",
      "type": "function"
    },
    {
      "constant": false,
      "inputs": [
        {
          "name": "_spender",
          "type": "address"
        },
        {
          "name": "_subtractedValue",
          "type": "uint256"
        }
      ],
      "name": "decreaseApproval",
      "outputs": [
        {
          "name": "",
          "type": "bool"
        }
      ],
      "payable": false,
      "stateMutability": "nonpayable",
      "type": "function"
    },
    {
      "constant": true,
      "inputs": [
        {
          "name": "",
          "type": "bytes32"
        }
      ],
      "name": "redeemedUTXOs",
      "outputs": [
        {
          "name": "",
          "type": "bool"
        }
      ],
      "payable": false,
      "stateMutability": "view",
      "type": "function"
    },
    {
      "constant": true,
      "inputs": [],
      "name": "rootUtxoMerkleTreeHash",
      "outputs": [
        {
          "name": "",
          "type": "bytes32"
        }
      ],
      "payable": false,
      "stateMutability": "view",
      "type": "function"
    },
    {
      "constant": true,
      "inputs": [
        {
          "name": "",
          "type": "uint256"
        }
      ],
      "name": "satoshiRewardDataByWeek",
      "outputs": [
        {
          "name": "unclaimedCoins",
          "type": "uint256"
        },
        {
          "name": "totalStaked",
          "type": "uint256"
        }
      ],
      "payable": false,
      "stateMutability": "view",
      "type": "function"
    },
    {
      "constant": true,
      "inputs": [
        {
          "name": "_owner",
          "type": "address"
        }
      ],
      "name": "balanceOf",
      "outputs": [
        {
          "name": "",
          "type": "uint256"
        }
      ],
      "payable": false,
      "stateMutability": "view",
      "type": "function"
    },
    {
      "constant": false,
      "inputs": [
        {
          "name": "_satoshis",
          "type": "uint256"
        },
        {
          "name": "_proof",
          "type": "bytes32[]"
        },
        {
          "name": "_pubKey",
          "type": "bytes"
        },
        {
          "name": "_isCompressed",
          "type": "bool"
        },
        {
          "name": "_v",
          "type": "uint8"
        },
        {
          "name": "_r",
          "type": "bytes32"
        },
        {
          "name": "_s",
          "type": "bytes32"
        }
      ],
      "name": "redeemUtxo",
      "outputs": [
        {
          "name": "",
          "type": "uint256"
        }
      ],
      "payable": false,
      "stateMutability": "nonpayable",
      "type": "function"
    },
    {
      "constant": false,
      "inputs": [
        {
          "name": "_staker",
          "type": "address"
        }
      ],
      "name": "claimAllStakingRewards",
      "outputs": [
        {
          "name": "",
          "type": "bool"
        }
      ],
      "payable": false,
      "stateMutability": "nonpayable",
      "type": "function"
    },
    {
      "constant": true,
      "inputs": [],
      "name": "launchTime",
      "outputs": [
        {
          "name": "",
          "type": "uint256"
        }
      ],
      "payable": false,
      "stateMutability": "view",
      "type": "function"
    },
    {
      "constant": true,
      "inputs": [
        {
          "name": "_staker",
          "type": "address"
        },
        {
          "name": "_stakeIndex",
          "type": "uint256"
        }
      ],
      "name": "calculateAdditionalRewards",
      "outputs": [
        {
          "name": "",
          "type": "uint256"
        }
      ],
      "payable": false,
      "stateMutability": "view",
      "type": "function"
    },
    {
      "constant": false,
      "inputs": [
        {
          "name": "_staker",
          "type": "address"
        },
        {
          "name": "_stakeIndex",
          "type": "uint256"
        }
      ],
      "name": "claimSingleStakingReward",
      "outputs": [
        {
          "name": "",
          "type": "bool"
        }
      ],
      "payable": false,
      "stateMutability": "nonpayable",
      "type": "function"
    },
    {
      "constant": true,
      "inputs": [
        {
          "name": "_merkleLeafHash",
          "type": "bytes32"
        },
        {
          "name": "_proof",
          "type": "bytes32[]"
        }
      ],
      "name": "canRedeemUtxoHash",
      "outputs": [
        {
          "name": "",
          "type": "bool"
        }
      ],
      "payable": false,
      "stateMutability": "view",
      "type": "function"
    },
    {
      "constant": true,
      "inputs": [
        {
          "name": "_staker",
          "type": "address"
        }
      ],
      "name": "getUserStakes",
      "outputs": [
        {
          "name": "",
          "type": "uint256[]"
        },
        {
          "name": "",
          "type": "uint256[]"
        },
        {
          "name": "",
          "type": "uint256[]"
        },
        {
          "name": "",
          "type": "uint256[]"
        }
      ],
      "payable": false,
      "stateMutability": "view",
      "type": "function"
    },
    {
      "constant": true,
      "inputs": [],
      "name": "totalBtcCirculationAtFork",
      "outputs": [
        {
          "name": "",
          "type": "uint256"
        }
      ],
      "payable": false,
      "stateMutability": "view",
      "type": "function"
    },
    {
      "constant": true,
      "inputs": [
        {
          "name": "",
          "type": "address"
        },
        {
          "name": "",
          "type": "uint256"
        }
      ],
      "name": "staked",
      "outputs": [
        {
          "name": "stakeAmount",
          "type": "uint256"
        },
        {
          "name": "stakeTime",
          "type": "uint256"
        },
        {
          "name": "unlockTime",
          "type": "uint256"
        },
        {
          "name": "totalStakedCoinsAtStart",
          "type": "uint256"
        },
        {
          "name": "totalSupplyAtStart",
          "type": "uint256"
        }
      ],
      "payable": false,
      "stateMutability": "view",
      "type": "function"
    },
    {
      "constant": true,
      "inputs": [],
      "name": "origin",
      "outputs": [
        {
          "name": "",
          "type": "address"
        }
      ],
      "payable": false,
      "stateMutability": "view",
      "type": "function"
    },
    {
      "constant": true,
      "inputs": [],
      "name": "getWeeksSinceLaunch",
      "outputs": [
        {
          "name": "",
          "type": "uint256"
        }
      ],
      "payable": false,
      "stateMutability": "view",
      "type": "function"
    },
    {
      "constant": true,
      "inputs": [],
      "name": "symbol",
      "outputs": [
        {
          "name": "",
          "type": "string"
        }
      ],
      "payable": false,
      "stateMutability": "view",
      "type": "function"
    },
    {
      "constant": true,
      "inputs": [],
      "name": "lastUpdatedWeek",
      "outputs": [
        {
          "name": "",
          "type": "uint256"
        }
      ],
      "payable": false,
      "stateMutability": "view",
      "type": "function"
    },
    {
      "constant": false,
      "inputs": [
        {
          "name": "_to",
          "type": "address"
        },
        {
          "name": "_value",
          "type": "uint256"
        }
      ],
      "name": "transfer",
      "outputs": [
        {
          "name": "",
          "type": "bool"
        }
      ],
      "payable": false,
      "stateMutability": "nonpayable",
      "type": "function"
    },
    {
      "constant": false,
      "inputs": [
        {
          "name": "_satoshis",
          "type": "uint256"
        },
        {
          "name": "_proof",
          "type": "bytes32[]"
        },
        {
          "name": "_pubKey",
          "type": "bytes"
        },
        {
          "name": "_isCompressed",
          "type": "bool"
        },
        {
          "name": "_v",
          "type": "uint8"
        },
        {
          "name": "_r",
          "type": "bytes32"
        },
        {
          "name": "_s",
          "type": "bytes32"
        },
        {
          "name": "_referrer",
          "type": "address"
        }
      ],
      "name": "redeemReferredUtxo",
      "outputs": [
        {
          "name": "_tokensRedeemed",
          "type": "uint256"
        }
      ],
      "payable": false,
      "stateMutability": "nonpayable",
      "type": "function"
    },
    {
      "constant": true,
      "inputs": [
        {
          "name": "_staker",
          "type": "address"
        },
        {
          "name": "_startIndex",
          "type": "uint256"
        },
        {
          "name": "_endIndex",
          "type": "uint256"
        }
      ],
      "name": "getStakedAtIndexes",
      "outputs": [
        {
          "name": "",
          "type": "uint256"
        }
      ],
      "payable": false,
      "stateMutability": "view",
      "type": "function"
    },
    {
      "constant": true,
      "inputs": [
        {
          "name": "_proof",
          "type": "bytes32[]"
        },
        {
          "name": "_merkleLeafHash",
          "type": "bytes32"
        }
      ],
      "name": "verifyProof",
      "outputs": [
        {
          "name": "",
          "type": "bool"
        }
      ],
      "payable": false,
      "stateMutability": "view",
      "type": "function"
    },
    {
      "constant": true,
      "inputs": [
        {
          "name": "_staker",
          "type": "address"
        }
      ],
      "name": "getTotalUserStaked",
      "outputs": [
        {
          "name": "",
          "type": "uint256"
        }
      ],
      "payable": false,
      "stateMutability": "view",
      "type": "function"
    },
    {
      "constant": false,
      "inputs": [
        {
          "name": "_staker",
          "type": "address"
        },
        {
          "name": "_startIndex",
          "type": "uint256"
        },
        {
          "name": "_endIndex",
          "type": "uint256"
        }
      ],
      "name": "claimMultipleStakingRewards",
      "outputs": [
        {
          "name": "",
          "type": "bool"
        }
      ],
      "payable": false,
      "stateMutability": "nonpayable",
      "type": "function"
    },
    {
      "constant": true,
      "inputs": [
        {
          "name": "_addr",
          "type": "address"
        },
        {
          "name": "_pubKey",
          "type": "bytes"
        },
        {
          "name": "_v",
          "type": "uint8"
        },
        {
          "name": "_r",
          "type": "bytes32"
        },
        {
          "name": "_s",
          "type": "bytes32"
        }
      ],
      "name": "ecdsaVerify",
      "outputs": [
        {
          "name": "",
          "type": "bool"
        }
      ],
      "payable": false,
      "stateMutability": "pure",
      "type": "function"
    },
    {
      "constant": true,
      "inputs": [
        {
          "name": "_originalAddress",
          "type": "bytes20"
        },
        {
          "name": "_satoshis",
          "type": "uint256"
        },
        {
          "name": "_proof",
          "type": "bytes32[]"
        }
      ],
      "name": "canRedeemUtxo",
      "outputs": [
        {
          "name": "",
          "type": "bool"
        }
      ],
      "payable": false,
      "stateMutability": "view",
      "type": "function"
    },
    {
      "constant": false,
      "inputs": [
        {
          "name": "_spender",
          "type": "address"
        },
        {
          "name": "_addedValue",
          "type": "uint256"
        }
      ],
      "name": "increaseApproval",
      "outputs": [
        {
          "name": "",
          "type": "bool"
        }
      ],
      "payable": false,
      "stateMutability": "nonpayable",
      "type": "function"
    },
    {
      "constant": true,
      "inputs": [
        {
          "name": "_owner",
          "type": "address"
        },
        {
          "name": "_spender",
          "type": "address"
        }
      ],
      "name": "allowance",
      "outputs": [
        {
          "name": "",
          "type": "uint256"
        }
      ],
      "payable": false,
      "stateMutability": "view",
      "type": "function"
    },
    {
      "constant": false,
      "inputs": [],
      "name": "storeSatoshiWeekData",
      "outputs": [],
      "payable": false,
      "stateMutability": "nonpayable",
      "type": "function"
    },
    {
      "constant": true,
      "inputs": [
        {
          "name": "_pubKey",
          "type": "bytes"
        },
        {
          "name": "_isCompressed",
          "type": "bool"
        }
      ],
      "name": "pubKeyToBitcoinAddress",
      "outputs": [
        {
          "name": "",
          "type": "bytes20"
        }
      ],
      "payable": false,
      "stateMutability": "pure",
      "type": "function"
    },
    {
      "constant": true,
      "inputs": [
        {
          "name": "_stakeAmount",
          "type": "uint256"
        }
      ],
      "name": "calculateCritMassRewards",
      "outputs": [
        {
          "name": "",
          "type": "uint256"
        }
      ],
      "payable": false,
      "stateMutability": "view",
      "type": "function"
    },
    {
      "constant": true,
      "inputs": [
        {
          "name": "_staker",
          "type": "address"
        },
        {
          "name": "_stakeIndex",
          "type": "uint256"
        }
      ],
      "name": "calculateSingleStakePlusRewards",
      "outputs": [
        {
          "name": "",
          "type": "uint256"
        }
      ],
      "payable": false,
      "stateMutability": "view",
      "type": "function"
    },
    {
      "constant": true,
      "inputs": [
        {
          "name": "_stakeAmount",
          "type": "uint256"
        },
        {
          "name": "_stakeTime",
          "type": "uint256"
        },
        {
          "name": "_unlockTime",
          "type": "uint256"
        }
      ],
      "name": "calculateWeAreAllSatoshiRewards",
      "outputs": [
        {
          "name": "",
          "type": "uint256"
        }
      ],
      "payable": false,
      "stateMutability": "view",
      "type": "function"
    },
    {
      "constant": true,
      "inputs": [],
      "name": "totalRedeemed",
      "outputs": [
        {
          "name": "",
          "type": "uint256"
        }
      ],
      "payable": false,
      "stateMutability": "view",
      "type": "function"
    },
    {
      "constant": true,
      "inputs": [
        {
          "name": "_principle",
          "type": "uint256"
        },
        {
          "name": "_periods",
          "type": "uint256"
        },
        {
          "name": "_rate",
          "type": "uint256"
        }
      ],
      "name": "compound",
      "outputs": [
        {
          "name": "",
          "type": "uint256"
        }
      ],
      "payable": false,
      "stateMutability": "pure",
      "type": "function"
    },
    {
      "constant": true,
      "inputs": [
        {
          "name": "_staker",
          "type": "address"
        },
        {
          "name": "_stakeIndex",
          "type": "uint256"
        }
      ],
      "name": "calculateStakingRewards",
      "outputs": [
        {
          "name": "",
          "type": "uint256"
        }
      ],
      "payable": false,
      "stateMutability": "view",
      "type": "function"
    },
    {
      "inputs": [
        {
          "name": "_originContract",
          "type": "address"
        },
        {
          "name": "_rootUtxoMerkleTreeHash",
          "type": "bytes32"
        },
        {
          "name": "_maximumRedeemable",
          "type": "uint256"
        },
        {
          "name": "_totalBtcCirculationAtFork",
          "type": "uint256"
        }
      ],
      "payable": false,
      "stateMutability": "nonpayable",
      "type": "constructor"
    },
    {
      "anonymous": false,
      "inputs": [
        {
          "indexed": true,
          "name": "_address",
          "type": "address"
        },
        {
          "indexed": false,
          "name": "_reward",
          "type": "uint256"
        }
      ],
      "name": "Mint",
      "type": "event"
    },
    {
      "anonymous": false,
      "inputs": [
        {
          "indexed": false,
          "name": "test",
          "type": "uint256"
        }
      ],
      "name": "Test",
      "type": "event"
    },
    {
      "anonymous": false,
      "inputs": [
        {
          "indexed": true,
          "name": "owner",
          "type": "address"
        },
        {
          "indexed": true,
          "name": "spender",
          "type": "address"
        },
        {
          "indexed": false,
          "name": "value",
          "type": "uint256"
        }
      ],
      "name": "Approval",
      "type": "event"
    },
    {
      "anonymous": false,
      "inputs": [
        {
          "indexed": true,
          "name": "from",
          "type": "address"
        },
        {
          "indexed": true,
          "name": "to",
          "type": "address"
        },
        {
          "indexed": false,
          "name": "value",
          "type": "uint256"
        }
      ],
      "name": "Transfer",
      "type": "event"
    }
  ],
  "bytecode": "0x6080604052600060075560006008556040805190810160405280600a81526020017f426974636f696e48657800000000000000000000000000000000000000000000815250600f90805190602001906200005b92919062000171565b506040805190810160405280600381526020017f424858000000000000000000000000000000000000000000000000000000000081525060109080519060200190620000a992919062000171565b506012601155348015620000bc57600080fd5b506040516080806200561983398101806040528101908080519060200190929190805190602001909291908051906020019092919080519060200190929190505050838383834260048190555083600360006101000a81548173ffffffffffffffffffffffffffffffffffffffff021916908373ffffffffffffffffffffffffffffffffffffffff16021790555082600a81600019169055508160098190555080600d81905550505050505050505062000220565b828054600181600116156101000203166002900490600052602060002090601f016020900481019282601f10620001b457805160ff1916838001178555620001e5565b82800160010185558215620001e5579182015b82811115620001e4578251825591602001919060010190620001c7565b5b509050620001f49190620001f8565b5090565b6200021d91905b8082111562000219576000816000905550600101620001ff565b5090565b90565b6153e980620002306000396000f30060806040526004361061027d576000357c0100000000000000000000000000000000000000000000000000000000900463ffffffff16806306fdde03146102825780630867c0ad1461031257806308b4312b146103b0578063095ea7b3146103db578063128bfcae1461044057806316043f5d1461048f5780631765f4bf146104ba57806318160ddd146104e5578063229cfc321461051057806323b872dd146105515780632c3ee88c146105d65780632c48d57b1461061e578063313ce5671461064d5780634f265bf41461067857806352aa3e6c146106a35780635418796c146106ce57806365925c2b1461077757806366188463146107a2578063687cf4a4146108075780636aaf67e2146108505780636e0d6df21461088357806370a08231146108cb578063753bf8cd1461092257806375889a2b14610a21578063790ca41314610a7c5780637cdafe9d14610aa757806381437de814610b0857806381cd84b914610b6d578063842e298114610bf95780638d854c3414610d695780638f16981614610d94578063938b5f3214610e1157806394ce28e814610e6857806395d89b4114610e935780639d65b89214610f23578063a9059cbb14610f4e578063b1ccf19314610fb3578063b242c9bf14611079578063b80ac7df146110e4578063bac5c04814611170578063cb9c501f146111c7578063ce267b5514611236578063cfc2334e14611300578063d73dd623146113a1578063dd62ed3e14611406578063e043ee9c1461147d578063e073ef6914611494578063e26e7b501461153b578063e39a385a1461157c578063ebe558e9146115dd578063f35dad4014611632578063f3c85eba1461165d578063f6c45d02146116b2575b600080fd5b34801561028e57600080fd5b50610297611713565b6040518080602001828103825283818151815260200191508051906020019080838360005b838110156102d75780820151818401526020810190506102bc565b50505050905090810190601f1680156103045780820380516001836020036101000a031916815260200191505b509250505060405180910390f35b34801561031e57600080fd5b506103966004803603810190808035600019169060200190929190803560ff16906020019092919080356000191690602001909291908035600019169060200190929190803573ffffffffffffffffffffffffffffffffffffffff1690602001909291908035151590602001909291905050506117b1565b604051808215151515815260200191505060405180910390f35b3480156103bc57600080fd5b506103c561199c565b6040518082815260200191505060405180910390f35b3480156103e757600080fd5b50610426600480360381019080803573ffffffffffffffffffffffffffffffffffffffff169060200190929190803590602001909291905050506119a2565b604051808215151515815260200191505060405180910390f35b34801561044c57600080fd5b506104756004803603810190808035906020019092919080359060200190929190505050611a94565b604051808215151515815260200191505060405180910390f35b34801561049b57600080fd5b506104a4611daa565b6040518082815260200191505060405180910390f35b3480156104c657600080fd5b506104cf611daf565b6040518082815260200191505060405180910390f35b3480156104f157600080fd5b506104fa611db5565b6040518082815260200191505060405180910390f35b34801561051c57600080fd5b5061053b60048036038101908080359060200190929190505050611dbf565b6040518082815260200191505060405180910390f35b34801561055d57600080fd5b506105bc600480360381019080803573ffffffffffffffffffffffffffffffffffffffff169060200190929190803573ffffffffffffffffffffffffffffffffffffffff16906020019092919080359060200190929190505050611e04565b604051808215151515815260200191505060405180910390f35b3480156105e257600080fd5b50610601600480360381019080803590602001909291905050506121be565b604051808381526020018281526020019250505060405180910390f35b34801561062a57600080fd5b5061063361267c565b604051808215151515815260200191505060405180910390f35b34801561065957600080fd5b5061066261268f565b6040518082815260200191505060405180910390f35b34801561068457600080fd5b5061068d612695565b6040518082815260200191505060405180910390f35b3480156106af57600080fd5b506106b861269c565b6040518082815260200191505060405180910390f35b3480156106da57600080fd5b50610735600480360381019080803590602001908201803590602001908080601f01602080910402602001604051908101604052809392919081815260200183838082843782019150505050505091929192905050506126a2565b604051808273ffffffffffffffffffffffffffffffffffffffff1673ffffffffffffffffffffffffffffffffffffffff16815260200191505060405180910390f35b34801561078357600080fd5b5061078c612728565b6040518082815260200191505060405180910390f35b3480156107ae57600080fd5b506107ed600480360381019080803573ffffffffffffffffffffffffffffffffffffffff16906020019092919080359060200190929190505050612730565b604051808215151515815260200191505060405180910390f35b34801561081357600080fd5b5061083660048036038101908080356000191690602001909291905050506129c1565b604051808215151515815260200191505060405180910390f35b34801561085c57600080fd5b506108656129e1565b60405180826000191660001916815260200191505060405180910390f35b34801561088f57600080fd5b506108ae600480360381019080803590602001909291905050506129e7565b604051808381526020018281526020019250505060405180910390f35b3480156108d757600080fd5b5061090c600480360381019080803573ffffffffffffffffffffffffffffffffffffffff169060200190929190505050612a0b565b6040518082815260200191505060405180910390f35b34801561092e57600080fd5b50610a0b6004803603810190808035906020019092919080359060200190820180359060200190808060200260200160405190810160405280939291908181526020018383602002808284378201915050505050509192919290803590602001908201803590602001908080601f0160208091040260200160405190810160405280939291908181526020018383808284378201915050505050509192919290803515159060200190929190803560ff16906020019092919080356000191690602001909291908035600019169060200190929190505050612a53565b6040518082815260200191505060405180910390f35b348015610a2d57600080fd5b50610a62600480360381019080803573ffffffffffffffffffffffffffffffffffffffff169060200190929190505050612ec1565b604051808215151515815260200191505060405180910390f35b348015610a8857600080fd5b50610a91613046565b6040518082815260200191505060405180910390f35b348015610ab357600080fd5b50610af2600480360381019080803573ffffffffffffffffffffffffffffffffffffffff1690602001909291908035906020019092919050505061304c565b6040518082815260200191505060405180910390f35b348015610b1457600080fd5b50610b53600480360381019080803573ffffffffffffffffffffffffffffffffffffffff1690602001909291908035906020019092919050505061315e565b604051808215151515815260200191505060405180910390f35b348015610b7957600080fd5b50610bdf60048036038101908080356000191690602001909291908035906020019082018035906020019080806020026020016040519081016040528093929190818152602001838360200280828437820191505050505050919291929050505061361c565b604051808215151515815260200191505060405180910390f35b348015610c0557600080fd5b50610c3a600480360381019080803573ffffffffffffffffffffffffffffffffffffffff169060200190929190505050613667565b6040518080602001806020018060200180602001858103855289818151815260200191508051906020019060200280838360005b83811015610c89578082015181840152602081019050610c6e565b50505050905001858103845288818151815260200191508051906020019060200280838360005b83811015610ccb578082015181840152602081019050610cb0565b50505050905001858103835287818151815260200191508051906020019060200280838360005b83811015610d0d578082015181840152602081019050610cf2565b50505050905001858103825286818151815260200191508051906020019060200280838360005b83811015610d4f578082015181840152602081019050610d34565b505050509050019850505050505050505060405180910390f35b348015610d7557600080fd5b50610d7e613899565b6040518082815260200191505060405180910390f35b348015610da057600080fd5b50610ddf600480360381019080803573ffffffffffffffffffffffffffffffffffffffff1690602001909291908035906020019092919050505061389f565b604051808681526020018581526020018481526020018381526020018281526020019550505050505060405180910390f35b348015610e1d57600080fd5b50610e266138f1565b604051808273ffffffffffffffffffffffffffffffffffffffff1673ffffffffffffffffffffffffffffffffffffffff16815260200191505060405180910390f35b348015610e7457600080fd5b50610e7d613917565b6040518082815260200191505060405180910390f35b348015610e9f57600080fd5b50610ea8613959565b6040518080602001828103825283818151815260200191508051906020019080838360005b83811015610ee8578082015181840152602081019050610ecd565b50505050905090810190601f168015610f155780820380516001836020036101000a031916815260200191505b509250505060405180910390f35b348015610f2f57600080fd5b50610f386139f7565b6040518082815260200191505060405180910390f35b348015610f5a57600080fd5b50610f99600480360381019080803573ffffffffffffffffffffffffffffffffffffffff169060200190929190803590602001909291905050506139fd565b604051808215151515815260200191505060405180910390f35b348015610fbf57600080fd5b5061106360048036038101908080359060200190929190803590602001908201803590602001919091929391929390803590602001908201803590602001919091929391929390803515159060200190929190803560ff16906020019092919080356000191690602001909291908035600019169060200190929190803573ffffffffffffffffffffffffffffffffffffffff169060200190929190505050613c1c565b6040518082815260200191505060405180910390f35b34801561108557600080fd5b506110ce600480360381019080803573ffffffffffffffffffffffffffffffffffffffff1690602001909291908035906020019092919080359060200190929190505050613dec565b6040518082815260200191505060405180910390f35b3480156110f057600080fd5b50611156600480360381019080803590602001908201803590602001908080602002602001604051908101604052809392919081815260200183836020028082843782019150505050505091929192908035600019169060200190929190505050613fb5565b604051808215151515815260200191505060405180910390f35b34801561117c57600080fd5b506111b1600480360381019080803573ffffffffffffffffffffffffffffffffffffffff169060200190929190505050613fcc565b6040518082815260200191505060405180910390f35b3480156111d357600080fd5b5061121c600480360381019080803573ffffffffffffffffffffffffffffffffffffffff1690602001909291908035906020019092919080359060200190929190505050614026565b604051808215151515815260200191505060405180910390f35b34801561124257600080fd5b506112e6600480360381019080803573ffffffffffffffffffffffffffffffffffffffff169060200190929190803590602001908201803590602001908080601f0160208091040260200160405190810160405280939291908181526020018383808284378201915050505050509192919290803560ff16906020019092919080356000191690602001909291908035600019169060200190929190505050614130565b604051808215151515815260200191505060405180910390f35b34801561130c57600080fd5b5061138760048036038101908080356bffffffffffffffffffffffff19169060200190929190803590602001909291908035906020019082018035906020019080806020026020016040519081016040528093929190818152602001838360200280828437820191505050505050919291929050505061424f565b604051808215151515815260200191505060405180910390f35b3480156113ad57600080fd5b506113ec600480360381019080803573ffffffffffffffffffffffffffffffffffffffff16906020019092919080359060200190929190505050614310565b604051808215151515815260200191505060405180910390f35b34801561141257600080fd5b50611467600480360381019080803573ffffffffffffffffffffffffffffffffffffffff169060200190929190803573ffffffffffffffffffffffffffffffffffffffff16906020019092919050505061450c565b6040518082815260200191505060405180910390f35b34801561148957600080fd5b50611492614593565b005b3480156114a057600080fd5b50611507600480360381019080803590602001908201803590602001908080601f016020809104026020016040519081016040528093929190818152602001838380828437820191505050505050919291929080351515906020019092919050505061463f565b60405180826bffffffffffffffffffffffff19166bffffffffffffffffffffffff1916815260200191505060405180910390f35b34801561154757600080fd5b50611566600480360381019080803590602001909291905050506149fe565b6040518082815260200191505060405180910390f35b34801561158857600080fd5b506115c7600480360381019080803573ffffffffffffffffffffffffffffffffffffffff16906020019092919080359060200190929190505050614a43565b6040518082815260200191505060405180910390f35b3480156115e957600080fd5b5061161c600480360381019080803590602001909291908035906020019092919080359060200190929190505050614b39565b6040518082815260200191505060405180910390f35b34801561163e57600080fd5b50611647614c97565b6040518082815260200191505060405180910390f35b34801561166957600080fd5b5061169c600480360381019080803590602001909291908035906020019092919080359060200190929190505050614c9d565b6040518082815260200191505060405180910390f35b3480156116be57600080fd5b506116fd600480360381019080803573ffffffffffffffffffffffffffffffffffffffff16906020019092919080359060200190929190505050614db4565b6040518082815260200191505060405180910390f35b600f8054600181600116156101000203166002900480601f0160208091040260200160405190810160405280929190818152602001828054600181600116156101000203166002900480156117a95780601f1061177e576101008083540402835291602001916117a9565b820191906000526020600020905b81548152906001019060200180831161178c57829003601f168201915b505050505081565b60008060608315156117c5578891506118df565b6040805190810160405280601c81526020017f19457468657265756d205369676e6564204d6573736167653a0a333200000000815250905080896040516020018083805190602001908083835b6020831015156118375780518252602082019150602081019050602083039250611812565b6001836020036101000a0380198251168184511680821785525050505050509050018260001916600019168152602001925050506040516020818303038152906040526040518082805190602001908083835b6020831015156118af578051825260208201915060208101905060208303925061188a565b6001836020036101000a038019825116818451168082178552505050505050905001915050604051809103902091505b8473ffffffffffffffffffffffffffffffffffffffff166001838a8a8a604051600081526020016040526040518085600019166000191681526020018460ff1660ff1681526020018360001916600019168152602001826000191660001916815260200194505050505060206040516020810390808403906000865af115801561196d573d6000803e3d6000fd5b5050506020604051035173ffffffffffffffffffffffffffffffffffffffff1614925050509695505050505050565b60095481565b600081600260003373ffffffffffffffffffffffffffffffffffffffff1673ffffffffffffffffffffffffffffffffffffffff16815260200190815260200160002060008573ffffffffffffffffffffffffffffffffffffffff1673ffffffffffffffffffffffffffffffffffffffff168152602001908152602001600020819055508273ffffffffffffffffffffffffffffffffffffffff163373ffffffffffffffffffffffffffffffffffffffff167f8c5be1e5ebec7d5bd14f71427d1e84f3dd0314c0f7b2291e5b200ac8c7c3b925846040518082815260200191505060405180910390a36001905092915050565b600080339050836000808373ffffffffffffffffffffffffffffffffffffffff1673ffffffffffffffffffffffffffffffffffffffff1681526020019081526020016000205410151515611ae757600080fd5b611afe6312cc030042614f2190919063ffffffff16565b8311151515611b0c57600080fd5b611b14614593565b611b65846000808473ffffffffffffffffffffffffffffffffffffffff1673ffffffffffffffffffffffffffffffffffffffff16815260200190815260200160002054614f3d90919063ffffffff16565b6000808373ffffffffffffffffffffffffffffffffffffffff1673ffffffffffffffffffffffffffffffffffffffff16815260200190815260200160002081905550611bf8846000803073ffffffffffffffffffffffffffffffffffffffff1673ffffffffffffffffffffffffffffffffffffffff16815260200190815260200160002054614f2190919063ffffffff16565b6000803073ffffffffffffffffffffffffffffffffffffffff1673ffffffffffffffffffffffffffffffffffffffff16815260200190815260200160002081905550600e60008273ffffffffffffffffffffffffffffffffffffffff1673ffffffffffffffffffffffffffffffffffffffff16815260200190815260200160002060a060405190810160405280868152602001428152602001858152602001611cac87600654614f2190919063ffffffff16565b81526020016001548152509080600181540180825580915050906001820390600052602060002090600502016000909192909190915060008201518160000155602082015181600101556040820151816002015560608201518160030155608082015181600401555050506000611d7882611d736001600e60008773ffffffffffffffffffffffffffffffffffffffff1673ffffffffffffffffffffffffffffffffffffffff16815260200190815260200160002080549050614f3d90919063ffffffff16565b614db4565b111515611d8457600080fd5b611d9984600654614f2190919063ffffffff16565b600681905550600191505092915050565b600181565b60065481565b6000600154905090565b6000611dfd600a611def600d54611de160085487614f5690919063ffffffff16565b614f8e90919063ffffffff16565b614f8e90919063ffffffff16565b9050919050565b60008073ffffffffffffffffffffffffffffffffffffffff168373ffffffffffffffffffffffffffffffffffffffff1614151515611e4157600080fd5b6000808573ffffffffffffffffffffffffffffffffffffffff1673ffffffffffffffffffffffffffffffffffffffff168152602001908152602001600020548211151515611e8e57600080fd5b600260008573ffffffffffffffffffffffffffffffffffffffff1673ffffffffffffffffffffffffffffffffffffffff16815260200190815260200160002060003373ffffffffffffffffffffffffffffffffffffffff1673ffffffffffffffffffffffffffffffffffffffff168152602001908152602001600020548211151515611f1957600080fd5b611f6a826000808773ffffffffffffffffffffffffffffffffffffffff1673ffffffffffffffffffffffffffffffffffffffff16815260200190815260200160002054614f3d90919063ffffffff16565b6000808673ffffffffffffffffffffffffffffffffffffffff1673ffffffffffffffffffffffffffffffffffffffff16815260200190815260200160002081905550611ffd826000808673ffffffffffffffffffffffffffffffffffffffff1673ffffffffffffffffffffffffffffffffffffffff16815260200190815260200160002054614f2190919063ffffffff16565b6000808573ffffffffffffffffffffffffffffffffffffffff1673ffffffffffffffffffffffffffffffffffffffff168152602001908152602001600020819055506120ce82600260008773ffffffffffffffffffffffffffffffffffffffff1673ffffffffffffffffffffffffffffffffffffffff16815260200190815260200160002060003373ffffffffffffffffffffffffffffffffffffffff1673ffffffffffffffffffffffffffffffffffffffff16815260200190815260200160002054614f3d90919063ffffffff16565b600260008673ffffffffffffffffffffffffffffffffffffffff1673ffffffffffffffffffffffffffffffffffffffff16815260200190815260200160002060003373ffffffffffffffffffffffffffffffffffffffff1673ffffffffffffffffffffffffffffffffffffffff168152602001908152602001600020819055508273ffffffffffffffffffffffffffffffffffffffff168473ffffffffffffffffffffffffffffffffffffffff167fddf252ad1be2c89b69c2b068fc378daa952ba7f163c4a11628f55a4df523b3ef846040518082815260200191505060405180910390a3600190509392505050565b60008060008060008060006121e16402540be40089614f5690919063ffffffff16565b9450683635c9adc5dea0000085111561227a5769152d02c7e14af68000008510156122625761225b640ba43b740061224d600961223f600261223164174876e8008c614f3d90919063ffffffff16565b614f5690919063ffffffff16565b614f8e90919063ffffffff16565b614f2190919063ffffffff16565b9450612279565b612276600486614f8e90919063ffffffff16565b94505b5b426004541061228a5760006122b5565b6122b462093a806122a660045442614f3d90919063ffffffff16565b614f8e90919063ffffffff16565b5b93506122de6122ce600286614f5690919063ffffffff16565b6064614f3d90919063ffffffff16565b925061230660646122f88588614f5690919063ffffffff16565b614f8e90919063ffffffff16565b91507f63a242a632efe33c0e210e04e4173612a17efa4f16aa4890bc7e46caece80de0846040518082815260200191505060405180910390a160009050602d841115612355576000905061266c565b602084111561239e5761239782612389606461237b606587614f5690919063ffffffff16565b614f8e90919063ffffffff16565b614f3d90919063ffffffff16565b905061266b565b60188411156123e7576123e0826123d260646123c4606687614f5690919063ffffffff16565b614f8e90919063ffffffff16565b614f3d90919063ffffffff16565b905061266a565b6012841115612430576124298261241b606461240d606787614f5690919063ffffffff16565b614f8e90919063ffffffff16565b614f3d90919063ffffffff16565b9050612669565b600e84111561247957612472826124646064612456606887614f5690919063ffffffff16565b614f8e90919063ffffffff16565b614f3d90919063ffffffff16565b9050612668565b600a8411156124c2576124bb826124ad606461249f606987614f5690919063ffffffff16565b614f8e90919063ffffffff16565b614f3d90919063ffffffff16565b9050612667565b600784111561250b57612504826124f660646124e8606a87614f5690919063ffffffff16565b614f8e90919063ffffffff16565b614f3d90919063ffffffff16565b9050612666565b60058411156125545761254d8261253f6064612531606b87614f5690919063ffffffff16565b614f8e90919063ffffffff16565b614f3d90919063ffffffff16565b9050612665565b600384111561259d5761259682612588606461257a606c87614f5690919063ffffffff16565b614f8e90919063ffffffff16565b614f3d90919063ffffffff16565b9050612664565b600184111561261d576125df826125d160646125c3606d87614f5690919063ffffffff16565b614f8e90919063ffffffff16565b614f3d90919063ffffffff16565b90507f63a242a632efe33c0e210e04e4173612a17efa4f16aa4890bc7e46caece80de0816040518082815260200191505060405180910390a1612663565b60018410156126625761265f826126516064612643606e87614f5690919063ffffffff16565b614f8e90919063ffffffff16565b614f3d90919063ffffffff16565b90505b5b5b5b5b5b5b5b5b5b5b8181965096505050505050915091565b60006032612688613917565b1115905090565b60115481565b620d2f0081565b60085481565b600073ffffffffffffffffffffffffffffffffffffffff826040518082805190602001908083835b6020831015156126ef57805182526020820191506020810190506020830392506126ca565b6001836020036101000a038019825116818451168082178552505050505050905001915050604051809103902060019004169050919050565b6312cc030081565b600080600260003373ffffffffffffffffffffffffffffffffffffffff1673ffffffffffffffffffffffffffffffffffffffff16815260200190815260200160002060008573ffffffffffffffffffffffffffffffffffffffff1673ffffffffffffffffffffffffffffffffffffffff16815260200190815260200160002054905080831115612841576000600260003373ffffffffffffffffffffffffffffffffffffffff1673ffffffffffffffffffffffffffffffffffffffff16815260200190815260200160002060008673ffffffffffffffffffffffffffffffffffffffff1673ffffffffffffffffffffffffffffffffffffffff168152602001908152602001600020819055506128d5565b6128548382614f3d90919063ffffffff16565b600260003373ffffffffffffffffffffffffffffffffffffffff1673ffffffffffffffffffffffffffffffffffffffff16815260200190815260200160002060008673ffffffffffffffffffffffffffffffffffffffff1673ffffffffffffffffffffffffffffffffffffffff168152602001908152602001600020819055505b8373ffffffffffffffffffffffffffffffffffffffff163373ffffffffffffffffffffffffffffffffffffffff167f8c5be1e5ebec7d5bd14f71427d1e84f3dd0314c0f7b2291e5b200ac8c7c3b925600260003373ffffffffffffffffffffffffffffffffffffffff1673ffffffffffffffffffffffffffffffffffffffff16815260200190815260200160002060008873ffffffffffffffffffffffffffffffffffffffff1673ffffffffffffffffffffffffffffffffffffffff168152602001908152602001600020546040518082815260200191505060405180910390a3600191505092915050565b600c6020528060005260406000206000915054906101000a900460ff1681565b600a5481565b600b6020528060005260406000206000915090508060000154908060010154905082565b60008060008373ffffffffffffffffffffffffffffffffffffffff1673ffffffffffffffffffffffffffffffffffffffff168152602001908152602001600020549050919050565b60008060008060006004544210151515612a6c57600080fd5b612a74614593565b612a7e8a8a61463f565b9350838c60405160200180836bffffffffffffffffffffffff19166bffffffffffffffffffffffff19168152601401828152602001925050506040516020818303038152906040526040518082805190602001908083835b602083101515612afb5780518252602082019150602081019050602083039250612ad6565b6001836020036101000a03801982511681845116808217855250505050505090500191505060405180910390209250612b34838c61361c565b1515612b3f57600080fd5b612b4c338b8a8a8a614130565b1515612b5757600080fd5b6001600c6000856000191660001916815260200190815260200160002060006101000a81548160ff021916908315150217905550612b948c6121be565b91509150600954612bb083600754614f2190919063ffffffff16565b11151515612bbd57600080fd5b612bd282600754614f2190919063ffffffff16565b600781905550612c3b81612c2d846000803373ffffffffffffffffffffffffffffffffffffffff1673ffffffffffffffffffffffffffffffffffffffff16815260200190815260200160002054614f2190919063ffffffff16565b614f2190919063ffffffff16565b6000803373ffffffffffffffffffffffffffffffffffffffff1673ffffffffffffffffffffffffffffffffffffffff16815260200190815260200160002081905550612cf081600080600360009054906101000a900473ffffffffffffffffffffffffffffffffffffffff1673ffffffffffffffffffffffffffffffffffffffff1673ffffffffffffffffffffffffffffffffffffffff16815260200190815260200160002054614f2190919063ffffffff16565b600080600360009054906101000a900473ffffffffffffffffffffffffffffffffffffffff1673ffffffffffffffffffffffffffffffffffffffff1673ffffffffffffffffffffffffffffffffffffffff16815260200190815260200160002081905550612d7b81612d6d84600154614f2190919063ffffffff16565b614f2190919063ffffffff16565b600181905550612d976001600854614f2190919063ffffffff16565b6008819055503373ffffffffffffffffffffffffffffffffffffffff16600073ffffffffffffffffffffffffffffffffffffffff167fddf252ad1be2c89b69c2b068fc378daa952ba7f163c4a11628f55a4df523b3ef612e008486614f2190919063ffffffff16565b6040518082815260200191505060405180910390a3600360009054906101000a900473ffffffffffffffffffffffffffffffffffffffff1673ffffffffffffffffffffffffffffffffffffffff16600073ffffffffffffffffffffffffffffffffffffffff167fddf252ad1be2c89b69c2b068fc378daa952ba7f163c4a11628f55a4df523b3ef836040518082815260200191505060405180910390a3612eb08183614f2190919063ffffffff16565b945050505050979650505050505050565b600080600080600e60008673ffffffffffffffffffffffffffffffffffffffff1673ffffffffffffffffffffffffffffffffffffffff16815260200190815260200160002080549050925060009150600090506000831415612f26576000935061303e565b5b8282101561303957600e60008673ffffffffffffffffffffffffffffffffffffffff1673ffffffffffffffffffffffffffffffffffffffff16815260200190815260200160002080549050612f86600183614f2190919063ffffffff16565b11612f915780612f94565b60005b9050600e60008673ffffffffffffffffffffffffffffffffffffffff1673ffffffffffffffffffffffffffffffffffffffff16815260200190815260200160002081815481101515612fe257fe5b9060005260206000209060050201600201544210151561300857613006858261315e565b505b61301c600183614f2190919063ffffffff16565b9150613032600182614f2190919063ffffffff16565b9050612f27565b600193505b505050919050565b60045481565b600080600080600080600e60008973ffffffffffffffffffffffffffffffffffffffff1673ffffffffffffffffffffffffffffffffffffffff168152602001908152602001600020878154811015156130a157fe5b9060005260206000209060050201945060326130e162093a806130d36004548960010154614f3d90919063ffffffff16565b614f8e90919063ffffffff16565b11151561314e576130ff856000015486600101548760020154614b39565b935061310e8560000154611dbf565b925061311d85600001546149fe565b9150613144826131368587614f2190919063ffffffff16565b614f2190919063ffffffff16565b9050809550613153565b600095505b505050505092915050565b6000613168615314565b600080600080600e60008973ffffffffffffffffffffffffffffffffffffffff1673ffffffffffffffffffffffffffffffffffffffff168152602001908152602001600020878154811015156131ba57fe5b906000526020600020906005020160a060405190810160405290816000820154815260200160018201548152602001600282015481526020016003820154815260200160048201548152505094508460400151421015151561321b57600080fd5b613223614593565b846000015193506132348888614db4565b9250613240888861304c565b9150613267826132598587614f2190919063ffffffff16565b614f2190919063ffffffff16565b905061327e84600654614f3d90919063ffffffff16565b6006819055506132d5846000803073ffffffffffffffffffffffffffffffffffffffff1673ffffffffffffffffffffffffffffffffffffffff16815260200190815260200160002054614f3d90919063ffffffff16565b6000803073ffffffffffffffffffffffffffffffffffffffff1673ffffffffffffffffffffffffffffffffffffffff16815260200190815260200160002081905550613368816000808b73ffffffffffffffffffffffffffffffffffffffff1673ffffffffffffffffffffffffffffffffffffffff16815260200190815260200160002054614f2190919063ffffffff16565b6000808a73ffffffffffffffffffffffffffffffffffffffff1673ffffffffffffffffffffffffffffffffffffffff1681526020019081526020016000208190555061341d82600080600360009054906101000a900473ffffffffffffffffffffffffffffffffffffffff1673ffffffffffffffffffffffffffffffffffffffff1673ffffffffffffffffffffffffffffffffffffffff16815260200190815260200160002054614f2190919063ffffffff16565b600080600360009054906101000a900473ffffffffffffffffffffffffffffffffffffffff1673ffffffffffffffffffffffffffffffffffffffff1673ffffffffffffffffffffffffffffffffffffffff168152602001908152602001600020819055508773ffffffffffffffffffffffffffffffffffffffff163073ffffffffffffffffffffffffffffffffffffffff167fddf252ad1be2c89b69c2b068fc378daa952ba7f163c4a11628f55a4df523b3ef87600001516040518082815260200191505060405180910390a36134ff83600154614f2190919063ffffffff16565b60018190555061352d61351c600284614f5690919063ffffffff16565b600154614f2190919063ffffffff16565b6001819055508773ffffffffffffffffffffffffffffffffffffffff167f0f6798a560793a54c3bcfe86a93cde1e73087d944c0ea20544137d412139688561357e8585614f2190919063ffffffff16565b6040518082815260200191505060405180910390a2600360009054906101000a900473ffffffffffffffffffffffffffffffffffffffff1673ffffffffffffffffffffffffffffffffffffffff167f0f6798a560793a54c3bcfe86a93cde1e73087d944c0ea20544137d4121396885836040518082815260200191505060405180910390a261360d8888614fa4565b60019550505050505092915050565b6000801515600c6000856000191660001916815260200190815260200160002060009054906101000a900460ff16151514801561365f575061365e8284613fb5565b5b905092915050565b6060806060806000606080606080600080600e60008d73ffffffffffffffffffffffffffffffffffffffff1673ffffffffffffffffffffffffffffffffffffffff168152602001908152602001600020805490509650866040519080825280602002602001820160405280156136ec5781602001602082028038833980820191505090505b5095508660405190808252806020026020018201604052801561371e5781602001602082028038833980820191505090505b509450866040519080825280602002602001820160405280156137505781602001602082028038833980820191505090505b509350866040519080825280602002602001820160405280156137825781602001602082028038833980820191505090505b509250600091505b8682101561387f57600e60008d73ffffffffffffffffffffffffffffffffffffffff1673ffffffffffffffffffffffffffffffffffffffff168152602001908152602001600020828154811015156137de57fe5b906000526020600020906005020190508060000154868381518110151561380157fe5b90602001906020020181815250508060010154858381518110151561382257fe5b90602001906020020181815250508060020154848381518110151561384357fe5b90602001906020020181815250508060030154838381518110151561386457fe5b9060200190602002018181525050818060010192505061378a565b858585859a509a509a509a50505050505050509193509193565b600d5481565b600e602052816000526040600020818154811015156138ba57fe5b9060005260206000209060050201600091509150508060000154908060010154908060020154908060030154908060040154905085565b600360009054906101000a900473ffffffffffffffffffffffffffffffffffffffff1681565b60006004544211613929576000613954565b61395362093a8061394560045442614f3d90919063ffffffff16565b614f8e90919063ffffffff16565b5b905090565b60108054600181600116156101000203166002900480601f0160208091040260200160405190810160405280929190818152602001828054600181600116156101000203166002900480156139ef5780601f106139c4576101008083540402835291602001916139ef565b820191906000526020600020905b8154815290600101906020018083116139d257829003601f168201915b505050505081565b60055481565b60008073ffffffffffffffffffffffffffffffffffffffff168373ffffffffffffffffffffffffffffffffffffffff1614151515613a3a57600080fd5b6000803373ffffffffffffffffffffffffffffffffffffffff1673ffffffffffffffffffffffffffffffffffffffff168152602001908152602001600020548211151515613a8757600080fd5b613ad8826000803373ffffffffffffffffffffffffffffffffffffffff1673ffffffffffffffffffffffffffffffffffffffff16815260200190815260200160002054614f3d90919063ffffffff16565b6000803373ffffffffffffffffffffffffffffffffffffffff1673ffffffffffffffffffffffffffffffffffffffff16815260200190815260200160002081905550613b6b826000808673ffffffffffffffffffffffffffffffffffffffff1673ffffffffffffffffffffffffffffffffffffffff16815260200190815260200160002054614f2190919063ffffffff16565b6000808573ffffffffffffffffffffffffffffffffffffffff1673ffffffffffffffffffffffffffffffffffffffff168152602001908152602001600020819055508273ffffffffffffffffffffffffffffffffffffffff163373ffffffffffffffffffffffffffffffffffffffff167fddf252ad1be2c89b69c2b068fc378daa952ba7f163c4a11628f55a4df523b3ef846040518082815260200191505060405180910390a36001905092915050565b60003373ffffffffffffffffffffffffffffffffffffffff168273ffffffffffffffffffffffffffffffffffffffff1614151515613c5957600080fd5b600073ffffffffffffffffffffffffffffffffffffffff168273ffffffffffffffffffffffffffffffffffffffff1614151515613c9557600080fd5b613d058b8b8b808060200260200160405190810160405280939291908181526020018383602002808284378201915050505050508a8a8080601f01602080910402602001604051908101604052809392919081815260200183838082843782019150505050505089898989612a53565b9050613d6b613d1e601483614f8e90919063ffffffff16565b6000808573ffffffffffffffffffffffffffffffffffffffff1673ffffffffffffffffffffffffffffffffffffffff16815260200190815260200160002054614f2190919063ffffffff16565b6000808473ffffffffffffffffffffffffffffffffffffffff1673ffffffffffffffffffffffffffffffffffffffff16815260200190815260200160002081905550613dd5613dc4601483614f8e90919063ffffffff16565b600154614f2190919063ffffffff16565b6001819055508090509a9950505050505050505050565b6000806000806001600e60008973ffffffffffffffffffffffffffffffffffffffff1673ffffffffffffffffffffffffffffffffffffffff16815260200190815260200160002080549050039250828511151515613e4957600080fd5b60008610151515613e5957600080fd5b6000600e60008973ffffffffffffffffffffffffffffffffffffffff1673ffffffffffffffffffffffffffffffffffffffff168152602001908152602001600020805490501415613ead5760009350613fab565b84861415613f1b57600e60008873ffffffffffffffffffffffffffffffffffffffff1673ffffffffffffffffffffffffffffffffffffffff1681526020019081526020016000206000815481101515613f0257fe5b9060005260206000209060050201600001549350613fab565b8590505b8481111515613fa757613f98600e60008973ffffffffffffffffffffffffffffffffffffffff1673ffffffffffffffffffffffffffffffffffffffff16815260200190815260200160002082815481101515613f7757fe5b90600052602060002090600502016000015483614f2190919063ffffffff16565b91508080600101915050613f1f565b8193505b5050509392505050565b6000613fc483600a5484615095565b905092915050565b600061401f8260006001600e60008773ffffffffffffffffffffffffffffffffffffffff1673ffffffffffffffffffffffffffffffffffffffff1681526020019081526020016000208054905003613dec565b9050919050565b60008082841115151561403857600080fd5b600e60008673ffffffffffffffffffffffffffffffffffffffff1673ffffffffffffffffffffffffffffffffffffffff168152602001908152602001600020805490508310151561408857600080fd5b8390505b828111151561412457600e60008673ffffffffffffffffffffffffffffffffffffffff1673ffffffffffffffffffffffffffffffffffffffff16815260200190815260200160002060008154811015156140e257fe5b9060005260206000209060050201600201544210151561411f5761410785600061315e565b5061411c600182614f2190919063ffffffff16565b90505b61408c565b60019150509392505050565b6000614244600287604051602001808273ffffffffffffffffffffffffffffffffffffffff1673ffffffffffffffffffffffffffffffffffffffff166c010000000000000000000000000281526014019150506040516020818303038152906040526040518082805190602001908083835b6020831015156141c757805182526020820191506020810190506020830392506141a2565b6001836020036101000a0380198251168184511680821785525050505050509050019150506020604051808303816000865af115801561420b573d6000803e3d6000fd5b5050506040513d602081101561422057600080fd5b810190808051906020019092919050505085858561423d8a6126a2565b60006117b1565b905095945050505050565b600080848460405160200180836bffffffffffffffffffffffff19166bffffffffffffffffffffffff19168152601401828152602001925050506040516020818303038152906040526040518082805190602001908083835b6020831015156142cd57805182526020820191506020810190506020830392506142a8565b6001836020036101000a03801982511681845116808217855250505050505090500191505060405180910390209050614306818461361c565b9150509392505050565b60006143a182600260003373ffffffffffffffffffffffffffffffffffffffff1673ffffffffffffffffffffffffffffffffffffffff16815260200190815260200160002060008673ffffffffffffffffffffffffffffffffffffffff1673ffffffffffffffffffffffffffffffffffffffff16815260200190815260200160002054614f2190919063ffffffff16565b600260003373ffffffffffffffffffffffffffffffffffffffff1673ffffffffffffffffffffffffffffffffffffffff16815260200190815260200160002060008573ffffffffffffffffffffffffffffffffffffffff1673ffffffffffffffffffffffffffffffffffffffff168152602001908152602001600020819055508273ffffffffffffffffffffffffffffffffffffffff163373ffffffffffffffffffffffffffffffffffffffff167f8c5be1e5ebec7d5bd14f71427d1e84f3dd0314c0f7b2291e5b200ac8c7c3b925600260003373ffffffffffffffffffffffffffffffffffffffff1673ffffffffffffffffffffffffffffffffffffffff16815260200190815260200160002060008773ffffffffffffffffffffffffffffffffffffffff1673ffffffffffffffffffffffffffffffffffffffff168152602001908152602001600020546040518082815260200191505060405180910390a36001905092915050565b6000600260008473ffffffffffffffffffffffffffffffffffffffff1673ffffffffffffffffffffffffffffffffffffffff16815260200190815260200160002060008373ffffffffffffffffffffffffffffffffffffffff1673ffffffffffffffffffffffffffffffffffffffff16815260200190815260200160002054905092915050565b6000806145c062093a806145b260045442614f3d90919063ffffffff16565b614f8e90919063ffffffff16565b9150603282111580156145d4575060055482115b1561463b576145f0600754600954614f3d90919063ffffffff16565b90506040805190810160405280828152602001600654815250600b60008481526020019081526020016000206000820151816000015560208201518160010155905050816005819055505b5050565b600080600080614650866000615238565b600190049250614661866020615238565b600190049150841561483d57600060028381151561467b57fe5b061461468857600361468b565b60025b9050600360028285604051602001808360ff1660ff167f0100000000000000000000000000000000000000000000000000000000000000028152600101828152602001925050506040516020818303038152906040526040518082805190602001908083835b60208310151561471657805182526020820191506020810190506020830392506146f1565b6001836020036101000a0380198251168184511680821785525050505050509050019150506020604051808303816000865af115801561475a573d6000803e3d6000fd5b5050506040513d602081101561476f57600080fd5b81019080805190602001909291905050506040516020018082600019166000191681526020019150506040516020818303038152906040526040518082805190602001908083835b6020831015156147dc57805182526020820191506020810190506020830392506147b7565b6001836020036101000a0380198251168184511680821785525050505050509050019150506020604051808303816000865af1158015614820573d6000803e3d6000fd5b505050604051516c010000000000000000000000000293506149f5565b6004905060036002828585604051602001808460ff1660ff167f010000000000000000000000000000000000000000000000000000000000000002815260010183815260200182815260200193505050506040516020818303038152906040526040518082805190602001908083835b6020831015156148d257805182526020820191506020810190506020830392506148ad565b6001836020036101000a0380198251168184511680821785525050505050509050019150506020604051808303816000865af1158015614916573d6000803e3d6000fd5b5050506040513d602081101561492b57600080fd5b81019080805190602001909291905050506040516020018082600019166000191681526020019150506040516020818303038152906040526040518082805190602001908083835b6020831015156149985780518252602082019150602081019050602083039250614973565b6001836020036101000a0380198251168184511680821785525050505050509050019150506020604051808303816000865af11580156149dc573d6000803e3d6000fd5b505050604051516c010000000000000000000000000293505b50505092915050565b6000614a3c600a614a2e600954614a2060075487614f5690919063ffffffff16565b614f8e90919063ffffffff16565b614f8e90919063ffffffff16565b9050919050565b600080600e60008573ffffffffffffffffffffffffffffffffffffffff1673ffffffffffffffffffffffffffffffffffffffff16815260200190815260200160002083815481101515614a9257fe5b9060005260206000209060050201600001549050600e60008573ffffffffffffffffffffffffffffffffffffffff1673ffffffffffffffffffffffffffffffffffffffff16815260200190815260200160002083815481101515614af257fe5b906000526020600020906005020160020154421115614b2e57614b27614b18858561304c565b82614f2190919063ffffffff16565b9150614b32565b8091505b5092915050565b6000806000806000806000806000809750614b7462093a80614b666004548e614f3d90919063ffffffff16565b614f8e90919063ffffffff16565b965060008714614b845786614b87565b60015b9550614bb362093a80614ba56004548d614f3d90919063ffffffff16565b614f8e90919063ffffffff16565b945060328511614bc35784614bc6565b60325b93508592505b83831015614c8557614c10600b600085815260200190815260200160002060010154614c0260648f614f5690919063ffffffff16565b614f8e90919063ffffffff16565b9150614c616064614c5384614c456032600b60008a815260200190815260200160002060000154614f8e90919063ffffffff16565b614f5690919063ffffffff16565b614f8e90919063ffffffff16565b9050614c768189614f2190919063ffffffff16565b97508280600101935050614bcc565b87985050505050505050509392505050565b60075481565b6000806000806000806000614cbd61271089614f2190919063ffffffff16565b9550600a94508489811515614cce57fe5b069350614ce4858a614f8e90919063ffffffff16565b9250614cfe6402540be4008b614f8e90919063ffffffff16565b9150600090505b82811015614d5557614d38856127100a614d2a87890a85614f5690919063ffffffff16565b614f8e90919063ffffffff16565b9150614d4e600182614f2190919063ffffffff16565b9050614d05565b600084141515614d8d57614d8a846127100a614d7c86890a85614f5690919063ffffffff16565b614f8e90919063ffffffff16565b91505b614da56402540be40083614f5690919063ffffffff16565b96505050505050509392505050565b6000806000806000806000806000600e60008c73ffffffffffffffffffffffffffffffffffffffff1673ffffffffffffffffffffffffffffffffffffffff1681526020019081526020016000208a815481101515614e0e57fe5b90600052602060002090600502019750614e3360646001614f5690919063ffffffff16565b9650600195506064945060008860030154141515614eb757614e798860040154614e6b60648b60030154614f5690919063ffffffff16565b614f8e90919063ffffffff16565b935060008411614e8a576001614e8c565b835b9550614ea18688614f8e90919063ffffffff16565b925060008311614eb2576001614eb4565b825b94505b614ee7620d2f00614ed98a600101548b60020154614f3d90919063ffffffff16565b614f8e90919063ffffffff16565b9150614ef888600001548387614c9d565b9050614f11886000015482614f3d90919063ffffffff16565b9850505050505050505092915050565b60008183019050828110151515614f3457fe5b80905092915050565b6000828211151515614f4b57fe5b818303905092915050565b600080831415614f695760009050614f88565b8183029050818382811515614f7a57fe5b04141515614f8457fe5b8090505b92915050565b60008183811515614f9b57fe5b04905092915050565b6000600e60008473ffffffffffffffffffffffffffffffffffffffff1673ffffffffffffffffffffffffffffffffffffffff16815260200190815260200160002090508061500060018380549050614f3d90919063ffffffff16565b81548110151561500c57fe5b9060005260206000209060050201818381548110151561502857fe5b9060005260206000209060050201600082015481600001556001820154816001015560028201548160020155600382015481600301556004820154816004015590505061508360018280549050614f3d90919063ffffffff16565b818161508f9190615344565b50505050565b600080600080849250600091505b86518210156152215786828151811015156150ba57fe5b9060200190602002015190508060001916836000191610156151775782816040516020018083600019166000191681526020018260001916600019168152602001925050506040516020818303038152906040526040518082805190602001908083835b602083101515615143578051825260208201915060208101905060208303925061511e565b6001836020036101000a03801982511681845116808217855250505050505090500191505060405180910390209250615214565b80836040516020018083600019166000191681526020018260001916600019168152602001925050506040516020818303038152906040526040518082805190602001908083835b6020831015156151e457805182526020820191506020810190506020830392506151bf565b6001836020036101000a038019825116818451168082178552505050505050905001915050604051809103902092505b81806001019250506150a3565b856000191683600019161493505050509392505050565b600080600090505b602081101561530a57600881028484830181518110151561525d57fe5b9060200101517f010000000000000000000000000000000000000000000000000000000000000090047f0100000000000000000000000000000000000000000000000000000000000000027effffffffffffffffffffffffffffffffffffffffffffffffffffffffffffff19167fff0000000000000000000000000000000000000000000000000000000000000060010216600019169060020a9004821891508080600101915050615240565b8191505092915050565b60a06040519081016040528060008152602001600081526020016000815260200160008152602001600081525090565b815481835581811115615371576005028160050283600052602060002091820191016153709190615376565b5b505050565b6153ba91905b808211156153b65760008082016000905560018201600090556002820160009055600382016000905560048201600090555060050161537c565b5090565b905600a165627a7a7230582070b4dd8822f66a4e738fa29aa8e025d1b555486f30db678157c786f7ad2e40bd0029",
  "source": "pragma solidity >=0.4.23;\n\nimport \"../BitcoinHex.sol\";\n\n\n// this will allow us to initialize block timestamp or wrap any internal functions and make them assessible to white box testing\ncontract BitcoinHexStub is BitcoinHex {\n  constructor(\n    address _originContract,\n    bytes32 _rootUtxoMerkleTreeHash,\n    uint256 _maximumRedeemable,\n    uint256 _totalBtcCirculationAtFork\n  ) \n    public \n    BitcoinHex(\n      _originContract,\n      _rootUtxoMerkleTreeHash,\n      _maximumRedeemable,\n      _totalBtcCirculationAtFork\n    )\n  {}    \n}\n",
  "sourcePath": "/Users/tovarishfin/dev/bhx/contract/contracts/stubs/BitcoinHexStub.sol",
  "compiler": {
    "name": "solc",
    "version": "0.4.24+commit.e67f0147.Emscripten.clang"
  },
  "schemaVersion": "2.0.1",
  "updatedAt": "2018-08-29T17:14:35.296Z"
}