{
  "contractName": "BitcoinHex",
  "abi": [
    {
      "constant": true,
      "inputs": [],
      "name": "name",
      "outputs": [
        {
          "name": "",
          "type": "string"
        }
      ],
      "payable": false,
      "stateMutability": "view",
      "type": "function"
    },
    {
      "constant": true,
      "inputs": [],
      "name": "maximumRedeemable",
      "outputs": [
        {
          "name": "",
          "type": "uint256"
        }
      ],
      "payable": false,
      "stateMutability": "view",
      "type": "function"
    },
    {
      "constant": false,
      "inputs": [
        {
          "name": "_spender",
          "type": "address"
        },
        {
          "name": "_value",
          "type": "uint256"
        }
      ],
      "name": "approve",
      "outputs": [
        {
          "name": "",
          "type": "bool"
        }
      ],
      "payable": false,
      "stateMutability": "nonpayable",
      "type": "function"
    },
    {
      "constant": false,
      "inputs": [
        {
          "name": "_value",
          "type": "uint256"
        },
        {
          "name": "_unlockTime",
          "type": "uint256"
        }
      ],
      "name": "startStake",
      "outputs": [],
      "payable": false,
      "stateMutability": "nonpayable",
      "type": "function"
    },
    {
      "constant": true,
      "inputs": [],
      "name": "totalSupply",
      "outputs": [
        {
          "name": "",
          "type": "uint256"
        }
      ],
      "payable": false,
      "stateMutability": "view",
      "type": "function"
    },
    {
      "constant": false,
      "inputs": [
        {
          "name": "_from",
          "type": "address"
        },
        {
          "name": "_to",
          "type": "address"
        },
        {
          "name": "_value",
          "type": "uint256"
        }
      ],
      "name": "transferFrom",
      "outputs": [
        {
          "name": "",
          "type": "bool"
        }
      ],
      "payable": false,
      "stateMutability": "nonpayable",
      "type": "function"
    },
    {
      "constant": true,
      "inputs": [],
      "name": "decimals",
      "outputs": [
        {
          "name": "",
          "type": "uint256"
        }
      ],
      "payable": false,
      "stateMutability": "view",
      "type": "function"
    },
    {
      "constant": true,
      "inputs": [
        {
          "name": "staker",
          "type": "address"
        }
      ],
      "name": "getCurrentStaked",
      "outputs": [
        {
          "name": "stakes",
          "type": "uint256"
        }
      ],
      "payable": false,
      "stateMutability": "view",
      "type": "function"
    },
    {
      "constant": true,
      "inputs": [
        {
          "name": "pubKey",
          "type": "bytes"
        }
      ],
      "name": "pubKeyToEthereumAddress",
      "outputs": [
        {
          "name": "",
          "type": "address"
        }
      ],
      "payable": false,
      "stateMutability": "pure",
      "type": "function"
    },
    {
      "constant": false,
      "inputs": [
        {
          "name": "txid",
          "type": "bytes32"
        },
        {
          "name": "outputIndex",
          "type": "uint8"
        },
        {
          "name": "satoshis",
          "type": "uint256"
        },
        {
          "name": "proof",
          "type": "bytes32[]"
        },
        {
          "name": "pubKey",
          "type": "bytes"
        },
        {
          "name": "isCompressed",
          "type": "bool"
        },
        {
          "name": "v",
          "type": "uint8"
        },
        {
          "name": "r",
          "type": "bytes32"
        },
        {
          "name": "s",
          "type": "bytes32"
        },
        {
          "name": "referrer",
          "type": "address"
        }
      ],
      "name": "redeemUTXO",
      "outputs": [
        {
          "name": "tokensRedeemed",
          "type": "uint256"
        }
      ],
      "payable": false,
      "stateMutability": "nonpayable",
      "type": "function"
    },
    {
      "constant": false,
      "inputs": [
        {
          "name": "_spender",
          "type": "address"
        },
        {
          "name": "_subtractedValue",
          "type": "uint256"
        }
      ],
      "name": "decreaseApproval",
      "outputs": [
        {
          "name": "",
          "type": "bool"
        }
      ],
      "payable": false,
      "stateMutability": "nonpayable",
      "type": "function"
    },
    {
      "constant": true,
      "inputs": [
        {
          "name": "_owner",
          "type": "address"
        }
      ],
      "name": "balanceOf",
      "outputs": [
        {
          "name": "",
          "type": "uint256"
        }
      ],
      "payable": false,
      "stateMutability": "view",
      "type": "function"
    },
    {
      "constant": false,
      "inputs": [
        {
          "name": "txid",
          "type": "bytes32"
        },
        {
          "name": "outputIndex",
          "type": "uint8"
        },
        {
          "name": "satoshis",
          "type": "uint256"
        },
        {
          "name": "proof",
          "type": "bytes32[]"
        },
        {
          "name": "pubKey",
          "type": "bytes"
        },
        {
          "name": "isCompressed",
          "type": "bool"
        },
        {
          "name": "v",
          "type": "uint8"
        },
        {
          "name": "r",
          "type": "bytes32"
        },
        {
          "name": "s",
          "type": "bytes32"
        }
      ],
      "name": "redeemUTXO",
      "outputs": [
        {
          "name": "tokensRedeemed",
          "type": "uint256"
        }
      ],
      "payable": false,
      "stateMutability": "nonpayable",
      "type": "function"
    },
    {
      "constant": true,
      "inputs": [
        {
          "name": "merkleLeafHash",
          "type": "bytes32"
        },
        {
          "name": "proof",
          "type": "bytes32[]"
        }
      ],
      "name": "canRedeemUTXOHash",
      "outputs": [
        {
          "name": "",
          "type": "bool"
        }
      ],
      "payable": false,
      "stateMutability": "view",
      "type": "function"
    },
    {
      "constant": true,
      "inputs": [
        {
          "name": "",
          "type": "address"
        },
        {
          "name": "",
          "type": "uint256"
        }
      ],
      "name": "staked",
      "outputs": [
        {
          "name": "stakeAmount",
          "type": "uint256"
        },
        {
          "name": "stakeTime",
          "type": "uint256"
        },
        {
          "name": "unlockTime",
          "type": "uint256"
        },
        {
          "name": "stakedCoinsAtStart",
          "type": "uint256"
        }
      ],
      "payable": false,
      "stateMutability": "view",
      "type": "function"
    },
    {
      "constant": false,
      "inputs": [],
      "name": "storeWeekUnclaimed",
      "outputs": [],
      "payable": false,
      "stateMutability": "nonpayable",
      "type": "function"
    },
    {
      "constant": true,
      "inputs": [],
      "name": "symbol",
      "outputs": [
        {
          "name": "",
          "type": "string"
        }
      ],
      "payable": false,
      "stateMutability": "view",
      "type": "function"
    },
    {
      "constant": false,
      "inputs": [
        {
          "name": "staker",
          "type": "address"
        }
      ],
      "name": "claimStakingRewards",
      "outputs": [],
      "payable": false,
      "stateMutability": "nonpayable",
      "type": "function"
    },
    {
      "constant": false,
      "inputs": [
        {
          "name": "_to",
          "type": "address"
        },
        {
          "name": "_value",
          "type": "uint256"
        }
      ],
      "name": "transfer",
      "outputs": [
        {
          "name": "",
          "type": "bool"
        }
      ],
      "payable": false,
      "stateMutability": "nonpayable",
      "type": "function"
    },
    {
      "constant": true,
      "inputs": [
        {
          "name": "hash",
          "type": "bytes32"
        },
        {
          "name": "v",
          "type": "uint8"
        },
        {
          "name": "r",
          "type": "bytes32"
        },
        {
          "name": "s",
          "type": "bytes32"
        },
        {
          "name": "expected",
          "type": "address"
        }
      ],
      "name": "validateSignature",
      "outputs": [
        {
          "name": "",
          "type": "bool"
        }
      ],
      "payable": false,
      "stateMutability": "pure",
      "type": "function"
    },
    {
      "constant": true,
      "inputs": [
        {
          "name": "proof",
          "type": "bytes32[]"
        },
        {
          "name": "merkleLeafHash",
          "type": "bytes32"
        }
      ],
      "name": "verifyProof",
      "outputs": [
        {
          "name": "",
          "type": "bool"
        }
      ],
      "payable": false,
      "stateMutability": "view",
      "type": "function"
    },
    {
      "constant": true,
      "inputs": [
        {
          "name": "txid",
          "type": "bytes32"
        },
        {
          "name": "originalAddress",
          "type": "bytes20"
        },
        {
          "name": "outputIndex",
          "type": "uint8"
        },
        {
          "name": "satoshis",
          "type": "uint256"
        },
        {
          "name": "proof",
          "type": "bytes32[]"
        }
      ],
      "name": "canRedeemUTXO",
      "outputs": [
        {
          "name": "",
          "type": "bool"
        }
      ],
      "payable": false,
      "stateMutability": "view",
      "type": "function"
    },
    {
      "constant": true,
      "inputs": [
        {
          "name": "addr",
          "type": "address"
        },
        {
          "name": "pubKey",
          "type": "bytes"
        },
        {
          "name": "v",
          "type": "uint8"
        },
        {
          "name": "r",
          "type": "bytes32"
        },
        {
          "name": "s",
          "type": "bytes32"
        }
      ],
      "name": "ecdsaVerify",
      "outputs": [
        {
          "name": "",
          "type": "bool"
        }
      ],
      "payable": false,
      "stateMutability": "pure",
      "type": "function"
    },
    {
      "constant": false,
      "inputs": [
        {
          "name": "_spender",
          "type": "address"
        },
        {
          "name": "_addedValue",
          "type": "uint256"
        }
      ],
      "name": "increaseApproval",
      "outputs": [
        {
          "name": "",
          "type": "bool"
        }
      ],
      "payable": false,
      "stateMutability": "nonpayable",
      "type": "function"
    },
    {
      "constant": true,
      "inputs": [
        {
          "name": "_owner",
          "type": "address"
        },
        {
          "name": "_spender",
          "type": "address"
        }
      ],
      "name": "allowance",
      "outputs": [
        {
          "name": "",
          "type": "uint256"
        }
      ],
      "payable": false,
      "stateMutability": "view",
      "type": "function"
    },
    {
      "constant": true,
      "inputs": [
        {
          "name": "pubKey",
          "type": "bytes"
        },
        {
          "name": "isCompressed",
          "type": "bool"
        }
      ],
      "name": "pubKeyToBitcoinAddress",
      "outputs": [
        {
          "name": "",
          "type": "bytes20"
        }
      ],
      "payable": false,
      "stateMutability": "pure",
      "type": "function"
    },
    {
      "constant": true,
      "inputs": [],
      "name": "originAddress",
      "outputs": [
        {
          "name": "",
          "type": "address"
        }
      ],
      "payable": false,
      "stateMutability": "view",
      "type": "function"
    },
    {
      "constant": true,
      "inputs": [],
      "name": "rootUTXOMerkleTreeHash",
      "outputs": [
        {
          "name": "",
          "type": "bytes32"
        }
      ],
      "payable": false,
      "stateMutability": "view",
      "type": "function"
    },
    {
      "constant": true,
      "inputs": [],
      "name": "totalRedeemed",
      "outputs": [
        {
          "name": "",
          "type": "uint256"
        }
      ],
      "payable": false,
      "stateMutability": "view",
      "type": "function"
    },
    {
      "inputs": [
        {
          "name": "_originAddress",
          "type": "address"
        }
      ],
      "payable": false,
      "stateMutability": "nonpayable",
      "type": "constructor"
    },
    {
      "anonymous": false,
      "inputs": [
        {
          "indexed": true,
          "name": "_address",
          "type": "address"
        },
        {
          "indexed": false,
          "name": "_reward",
          "type": "uint256"
        }
      ],
      "name": "Mint",
      "type": "event"
    },
    {
      "anonymous": false,
      "inputs": [
        {
          "indexed": false,
          "name": "txid",
          "type": "bytes32"
        },
        {
          "indexed": false,
          "name": "outputIndex",
          "type": "uint8"
        },
        {
          "indexed": false,
          "name": "satoshis",
          "type": "uint256"
        },
        {
          "indexed": false,
          "name": "proof",
          "type": "bytes32[]"
        },
        {
          "indexed": false,
          "name": "pubKey",
          "type": "bytes"
        },
        {
          "indexed": false,
          "name": "v",
          "type": "uint8"
        },
        {
          "indexed": false,
          "name": "r",
          "type": "bytes32"
        },
        {
          "indexed": false,
          "name": "s",
          "type": "bytes32"
        },
        {
          "indexed": true,
          "name": "redeemer",
          "type": "address"
        },
        {
          "indexed": false,
          "name": "numberOfTokens",
          "type": "uint256"
        }
      ],
      "name": "UTXORedeemed",
      "type": "event"
    },
    {
      "anonymous": false,
      "inputs": [
        {
          "indexed": true,
          "name": "owner",
          "type": "address"
        },
        {
          "indexed": true,
          "name": "spender",
          "type": "address"
        },
        {
          "indexed": false,
          "name": "value",
          "type": "uint256"
        }
      ],
      "name": "Approval",
      "type": "event"
    },
    {
      "anonymous": false,
      "inputs": [
        {
          "indexed": true,
          "name": "from",
          "type": "address"
        },
        {
          "indexed": true,
          "name": "to",
          "type": "address"
        },
        {
          "indexed": false,
          "name": "value",
          "type": "uint256"
        }
      ],
      "name": "Transfer",
      "type": "event"
    }
  ],
  "bytecode": "0x608060405260006005556040805190810160405280600a81526020017f426974636f696e48657800000000000000000000000000000000000000000000815250600f90805190602001906200005692919062000157565b506040805190810160405280600381526020017f424858000000000000000000000000000000000000000000000000000000000081525060109080519060200190620000a492919062000157565b506012601155348015620000b757600080fd5b50604051602080620041a28339810180604052810190808051906020019092919050505060006001819055504260048190555080600360006101000a81548173ffffffffffffffffffffffffffffffffffffffff021916908373ffffffffffffffffffffffffffffffffffffffff1602179055506000600102600781600019169055506000600a819055506606114e7f3ba300600c819055505062000206565b828054600181600116156101000203166002900490600052602060002090601f016020900481019282601f106200019a57805160ff1916838001178555620001cb565b82800160010185558215620001cb579182015b82811115620001ca578251825591602001919060010190620001ad565b5b509050620001da9190620001de565b5090565b6200020391905b80821115620001ff576000816000905550600101620001e5565b5090565b90565b613f8c80620002166000396000f300608060405260043610610175576000357c0100000000000000000000000000000000000000000000000000000000900463ffffffff16806306fdde031461017a57806308b4312b1461020a578063095ea7b314610235578063128bfcae1461029a57806318160ddd146102d157806323b872dd146102fc578063313ce56714610381578063443de10c146103ac5780635418796c1461040357806358523e01146104ac57806366188463146105e657806370a082311461064b578063782520dd146106a25780637f761472146107bc5780638f169816146108485780639283032c146108be57806395d89b41146108d557806396bb1fef14610965578063a9059cbb146109a8578063af1d06e814610a0d578063b80ac7df14610a9f578063ca193e4d14610b2b578063ce267b5514610be7578063d73dd62314610cb1578063dd62ed3e14610d16578063e073ef6914610d8d578063e517fedd14610e34578063e6997f6d14610e8b578063f35dad4014610ebe575b600080fd5b34801561018657600080fd5b5061018f610ee9565b6040518080602001828103825283818151815260200191508051906020019080838360005b838110156101cf5780820151818401526020810190506101b4565b50505050905090810190601f1680156101fc5780820380516001836020036101000a031916815260200191505b509250505060405180910390f35b34801561021657600080fd5b5061021f610f87565b6040518082815260200191505060405180910390f35b34801561024157600080fd5b50610280600480360381019080803573ffffffffffffffffffffffffffffffffffffffff16906020019092919080359060200190929190505050610f8d565b604051808215151515815260200191505060405180910390f35b3480156102a657600080fd5b506102cf600480360381019080803590602001909291908035906020019092919050505061107f565b005b3480156102dd57600080fd5b506102e6611302565b6040518082815260200191505060405180910390f35b34801561030857600080fd5b50610367600480360381019080803573ffffffffffffffffffffffffffffffffffffffff169060200190929190803573ffffffffffffffffffffffffffffffffffffffff1690602001909291908035906020019092919050505061130c565b604051808215151515815260200191505060405180910390f35b34801561038d57600080fd5b506103966116c6565b6040518082815260200191505060405180910390f35b3480156103b857600080fd5b506103ed600480360381019080803573ffffffffffffffffffffffffffffffffffffffff1690602001909291905050506116cc565b6040518082815260200191505060405180910390f35b34801561040f57600080fd5b5061046a600480360381019080803590602001908201803590602001908080601f016020809104026020016040519081016040528093929190818152602001838380828437820191505050505050919291929050505061194e565b604051808273ffffffffffffffffffffffffffffffffffffffff1673ffffffffffffffffffffffffffffffffffffffff16815260200191505060405180910390f35b3480156104b857600080fd5b506105d06004803603810190808035600019169060200190929190803560ff1690602001909291908035906020019092919080359060200190820180359060200190808060200260200160405190810160405280939291908181526020018383602002808284378201915050505050509192919290803590602001908201803590602001908080601f0160208091040260200160405190810160405280939291908181526020018383808284378201915050505050509192919290803515159060200190929190803560ff16906020019092919080356000191690602001909291908035600019169060200190929190803573ffffffffffffffffffffffffffffffffffffffff1690602001909291905050506119d4565b6040518082815260200191505060405180910390f35b3480156105f257600080fd5b50610631600480360381019080803573ffffffffffffffffffffffffffffffffffffffff16906020019092919080359060200190929190505050611ace565b604051808215151515815260200191505060405180910390f35b34801561065757600080fd5b5061068c600480360381019080803573ffffffffffffffffffffffffffffffffffffffff169060200190929190505050611d5f565b6040518082815260200191505060405180910390f35b3480156106ae57600080fd5b506107a66004803603810190808035600019169060200190929190803560ff1690602001909291908035906020019092919080359060200190820180359060200190808060200260200160405190810160405280939291908181526020018383602002808284378201915050505050509192919290803590602001908201803590602001908080601f0160208091040260200160405190810160405280939291908181526020018383808284378201915050505050509192919290803515159060200190929190803560ff16906020019092919080356000191690602001909291908035600019169060200190929190505050611da7565b6040518082815260200191505060405180910390f35b3480156107c857600080fd5b5061082e60048036038101908080356000191690602001909291908035906020019082018035906020019080806020026020016040519081016040528093929190818152602001838360200280828437820191505050505050919291929050505061220c565b604051808215151515815260200191505060405180910390f35b34801561085457600080fd5b50610893600480360381019080803573ffffffffffffffffffffffffffffffffffffffff16906020019092919080359060200190929190505050612257565b6040518085815260200184815260200183815260200182815260200194505050505060405180910390f35b3480156108ca57600080fd5b506108d36122a3565b005b3480156108e157600080fd5b506108ea61233d565b6040518080602001828103825283818151815260200191508051906020019080838360005b8381101561092a57808201518184015260208101905061090f565b50505050905090810190601f1680156109575780820380516001836020036101000a031916815260200191505b509250505060405180910390f35b34801561097157600080fd5b506109a6600480360381019080803573ffffffffffffffffffffffffffffffffffffffff1690602001909291905050506123db565b005b3480156109b457600080fd5b506109f3600480360381019080803573ffffffffffffffffffffffffffffffffffffffff16906020019092919080359060200190929190505050612b7e565b604051808215151515815260200191505060405180910390f35b348015610a1957600080fd5b50610a856004803603810190808035600019169060200190929190803560ff16906020019092919080356000191690602001909291908035600019169060200190929190803573ffffffffffffffffffffffffffffffffffffffff169060200190929190505050612d9d565b604051808215151515815260200191505060405180910390f35b348015610aab57600080fd5b50610b11600480360381019080803590602001908201803590602001908080602002602001604051908101604052809392919081815260200183836020028082843782019150505050505091929192908035600019169060200190929190505050612e59565b604051808215151515815260200191505060405180910390f35b348015610b3757600080fd5b50610bcd600480360381019080803560001916906020019092919080356bffffffffffffffffffffffff19169060200190929190803560ff1690602001909291908035906020019092919080359060200190820180359060200190808060200260200160405190810160405280939291908181526020018383602002808284378201915050505050509192919290505050612e70565b604051808215151515815260200191505060405180910390f35b348015610bf357600080fd5b50610c97600480360381019080803573ffffffffffffffffffffffffffffffffffffffff169060200190929190803590602001908201803590602001908080601f0160208091040260200160405190810160405280939291908181526020018383808284378201915050505050509192919290803560ff16906020019092919080356000191690602001909291908035600019169060200190929190505050612f73565b604051808215151515815260200191505060405180910390f35b348015610cbd57600080fd5b50610cfc600480360381019080803573ffffffffffffffffffffffffffffffffffffffff16906020019092919080359060200190929190505050613090565b604051808215151515815260200191505060405180910390f35b348015610d2257600080fd5b50610d77600480360381019080803573ffffffffffffffffffffffffffffffffffffffff169060200190929190803573ffffffffffffffffffffffffffffffffffffffff16906020019092919050505061328c565b6040518082815260200191505060405180910390f35b348015610d9957600080fd5b50610e00600480360381019080803590602001908201803590602001908080601f0160208091040260200160405190810160405280939291908181526020018383808284378201915050505050509192919290803515159060200190929190505050613313565b60405180826bffffffffffffffffffffffff19166bffffffffffffffffffffffff1916815260200191505060405180910390f35b348015610e4057600080fd5b50610e496136d2565b604051808273ffffffffffffffffffffffffffffffffffffffff1673ffffffffffffffffffffffffffffffffffffffff16815260200191505060405180910390f35b348015610e9757600080fd5b50610ea06136f8565b60405180826000191660001916815260200191505060405180910390f35b348015610eca57600080fd5b50610ed36136fe565b6040518082815260200191505060405180910390f35b600f8054600181600116156101000203166002900480601f016020809104026020016040519081016040528092919081815260200182805460018160011615610100020316600290048015610f7f5780601f10610f5457610100808354040283529160200191610f7f565b820191906000526020600020905b815481529060010190602001808311610f6257829003601f168201915b505050505081565b600a5481565b600081600260003373ffffffffffffffffffffffffffffffffffffffff1673ffffffffffffffffffffffffffffffffffffffff16815260200190815260200160002060008573ffffffffffffffffffffffffffffffffffffffff1673ffffffffffffffffffffffffffffffffffffffff168152602001908152602001600020819055508273ffffffffffffffffffffffffffffffffffffffff163373ffffffffffffffffffffffffffffffffffffffff167f8c5be1e5ebec7d5bd14f71427d1e84f3dd0314c0f7b2291e5b200ac8c7c3b925846040518082815260200191505060405180910390a36001905092915050565b600033905061108c6122a3565b6110dd836000808473ffffffffffffffffffffffffffffffffffffffff1673ffffffffffffffffffffffffffffffffffffffff1681526020019081526020016000205461370490919063ffffffff16565b6000808373ffffffffffffffffffffffffffffffffffffffff1673ffffffffffffffffffffffffffffffffffffffff16815260200190815260200160002081905550611170836000803073ffffffffffffffffffffffffffffffffffffffff1673ffffffffffffffffffffffffffffffffffffffff1681526020019081526020016000205461371d90919063ffffffff16565b6000803073ffffffffffffffffffffffffffffffffffffffff1673ffffffffffffffffffffffffffffffffffffffff168152602001908152602001600020819055503073ffffffffffffffffffffffffffffffffffffffff168173ffffffffffffffffffffffffffffffffffffffff167fddf252ad1be2c89b69c2b068fc378daa952ba7f163c4a11628f55a4df523b3ef856040518082815260200191505060405180910390a3600e60008273ffffffffffffffffffffffffffffffffffffffff1673ffffffffffffffffffffffffffffffffffffffff168152602001908152602001600020608060405190810160405280856fffffffffffffffffffffffffffffffff168152602001428152602001848152602001600d5481525090806001815401808255809150509060018203906000526020600020906004020160009091929091909150600082015181600001556020820151816001015560408201518160020155606082015181600301555050506112f783600d5461371d90919063ffffffff16565b600d81905550505050565b6000600154905090565b60008073ffffffffffffffffffffffffffffffffffffffff168373ffffffffffffffffffffffffffffffffffffffff161415151561134957600080fd5b6000808573ffffffffffffffffffffffffffffffffffffffff1673ffffffffffffffffffffffffffffffffffffffff16815260200190815260200160002054821115151561139657600080fd5b600260008573ffffffffffffffffffffffffffffffffffffffff1673ffffffffffffffffffffffffffffffffffffffff16815260200190815260200160002060003373ffffffffffffffffffffffffffffffffffffffff1673ffffffffffffffffffffffffffffffffffffffff16815260200190815260200160002054821115151561142157600080fd5b611472826000808773ffffffffffffffffffffffffffffffffffffffff1673ffffffffffffffffffffffffffffffffffffffff1681526020019081526020016000205461370490919063ffffffff16565b6000808673ffffffffffffffffffffffffffffffffffffffff1673ffffffffffffffffffffffffffffffffffffffff16815260200190815260200160002081905550611505826000808673ffffffffffffffffffffffffffffffffffffffff1673ffffffffffffffffffffffffffffffffffffffff1681526020019081526020016000205461371d90919063ffffffff16565b6000808573ffffffffffffffffffffffffffffffffffffffff1673ffffffffffffffffffffffffffffffffffffffff168152602001908152602001600020819055506115d682600260008773ffffffffffffffffffffffffffffffffffffffff1673ffffffffffffffffffffffffffffffffffffffff16815260200190815260200160002060003373ffffffffffffffffffffffffffffffffffffffff1673ffffffffffffffffffffffffffffffffffffffff1681526020019081526020016000205461370490919063ffffffff16565b600260008673ffffffffffffffffffffffffffffffffffffffff1673ffffffffffffffffffffffffffffffffffffffff16815260200190815260200160002060003373ffffffffffffffffffffffffffffffffffffffff1673ffffffffffffffffffffffffffffffffffffffff168152602001908152602001600020819055508273ffffffffffffffffffffffffffffffffffffffff168473ffffffffffffffffffffffffffffffffffffffff167fddf252ad1be2c89b69c2b068fc378daa952ba7f163c4a11628f55a4df523b3ef846040518082815260200191505060405180910390a3600190509392505050565b60115481565b60008060005b600e60008573ffffffffffffffffffffffffffffffffffffffff1673ffffffffffffffffffffffffffffffffffffffff168152602001908152602001600020805490508210156119445761178c600e60008673ffffffffffffffffffffffffffffffffffffffff1673ffffffffffffffffffffffffffffffffffffffff1681526020019081526020016000208381548110151561176b57fe5b9060005260206000209060040201600001548461371d90919063ffffffff16565b9250600e60008573ffffffffffffffffffffffffffffffffffffffff1673ffffffffffffffffffffffffffffffffffffffff168152602001908152602001600020828154811015156117da57fe5b90600052602060002090600402016002015442111561193757611889600e60008673ffffffffffffffffffffffffffffffffffffffff1673ffffffffffffffffffffffffffffffffffffffff1681526020019081526020016000208381548110151561184257fe5b906000526020600020906004020160806040519081016040529081600082015481526020016001820154815260200160028201548152602001600382015481525050613739565b9050611934611925600e60008773ffffffffffffffffffffffffffffffffffffffff1673ffffffffffffffffffffffffffffffffffffffff168152602001908152602001600020848154811015156118dd57fe5b90600052602060002090600402016080604051908101604052908160008201548152602001600182015481526020016002820154815260200160038201548152505083613821565b8461371d90919063ffffffff16565b92505b81806001019250506116d2565b8292505050919050565b600073ffffffffffffffffffffffffffffffffffffffff826040518082805190602001908083835b60208310151561199b5780518252602082019150602081019050602083039250611976565b6001836020036101000a038019825116818451168082178552505050505050905001915050604051809103902060019004169050919050565b60006119e78b8b8b8b8b8b8b8b8b611da7565b9050611a4d611a0060148361388090919063ffffffff16565b6000808573ffffffffffffffffffffffffffffffffffffffff1673ffffffffffffffffffffffffffffffffffffffff1681526020019081526020016000205461371d90919063ffffffff16565b6000808473ffffffffffffffffffffffffffffffffffffffff1673ffffffffffffffffffffffffffffffffffffffff16815260200190815260200160002081905550611ab7611aa660148361388090919063ffffffff16565b60015461371d90919063ffffffff16565b6001819055508090509a9950505050505050505050565b600080600260003373ffffffffffffffffffffffffffffffffffffffff1673ffffffffffffffffffffffffffffffffffffffff16815260200190815260200160002060008573ffffffffffffffffffffffffffffffffffffffff1673ffffffffffffffffffffffffffffffffffffffff16815260200190815260200160002054905080831115611bdf576000600260003373ffffffffffffffffffffffffffffffffffffffff1673ffffffffffffffffffffffffffffffffffffffff16815260200190815260200160002060008673ffffffffffffffffffffffffffffffffffffffff1673ffffffffffffffffffffffffffffffffffffffff16815260200190815260200160002081905550611c73565b611bf2838261370490919063ffffffff16565b600260003373ffffffffffffffffffffffffffffffffffffffff1673ffffffffffffffffffffffffffffffffffffffff16815260200190815260200160002060008673ffffffffffffffffffffffffffffffffffffffff1673ffffffffffffffffffffffffffffffffffffffff168152602001908152602001600020819055505b8373ffffffffffffffffffffffffffffffffffffffff163373ffffffffffffffffffffffffffffffffffffffff167f8c5be1e5ebec7d5bd14f71427d1e84f3dd0314c0f7b2291e5b200ac8c7c3b925600260003373ffffffffffffffffffffffffffffffffffffffff1673ffffffffffffffffffffffffffffffffffffffff16815260200190815260200160002060008873ffffffffffffffffffffffffffffffffffffffff1673ffffffffffffffffffffffffffffffffffffffff168152602001908152602001600020546040518082815260200191505060405180910390a3600191505092915050565b60008060008373ffffffffffffffffffffffffffffffffffffffff1673ffffffffffffffffffffffffffffffffffffffff168152602001908152602001600020549050919050565b6000806000611db46122a3565b6032611de062093a80611dd26004544261370490919063ffffffff16565b61388090919063ffffffff16565b101515611dec57600080fd5b611df68888613313565b91508b828c8c604051602001808560001916600019168152602001846bffffffffffffffffffffffff19166bffffffffffffffffffffffff191681526014018360ff1660ff167f01000000000000000000000000000000000000000000000000000000000000000281526001018281526020019450505050506040516020818303038152906040526040518082805190602001908083835b602083101515611eb35780518252602082019150602081019050602083039250611e8e565b6001836020036101000a03801982511681845116808217855250505050505090500191505060405180910390209050611eec818a61220c565b1515611ef757600080fd5b611f043389888888612f73565b1515611f0f57600080fd5b600160086000836000191660001916815260200190815260200160002060006101000a81548160ff021916908315150217905550611f4c8a613896565b9250600a54611f668460095461371d90919063ffffffff16565b11151515611f7357600080fd5b611f888360095461371d90919063ffffffff16565b600981905550611fdf836000803373ffffffffffffffffffffffffffffffffffffffff1673ffffffffffffffffffffffffffffffffffffffff1681526020019081526020016000205461371d90919063ffffffff16565b6000803373ffffffffffffffffffffffffffffffffffffffff1673ffffffffffffffffffffffffffffffffffffffff168152602001908152602001600020819055506120368360015461371d90919063ffffffff16565b6001819055503373ffffffffffffffffffffffffffffffffffffffff16600073ffffffffffffffffffffffffffffffffffffffff167fddf252ad1be2c89b69c2b068fc378daa952ba7f163c4a11628f55a4df523b3ef856040518082815260200191505060405180910390a33373ffffffffffffffffffffffffffffffffffffffff167f312ab01e6ce21dfe30ce841b1cd250767ce180d2c10a5bea492a1cb6b62eb97b8d8d8d8d8d8c8c8c8c604051808a600019166000191681526020018960ff1660ff16815260200188815260200180602001806020018760ff1660ff16815260200186600019166000191681526020018560001916600019168152602001848152602001838103835289818151815260200191508051906020019060200280838360005b8381101561217857808201518184015260208101905061215d565b50505050905001838103825288818151815260200191508051906020019080838360005b838110156121b757808201518184015260208101905061219c565b50505050905090810190601f1680156121e45780820380516001836020036101000a031916815260200191505b509b50505050505050505050505060405180910390a282925050509998505050505050505050565b600080151560086000856000191660001916815260200190815260200160002060009054906101000a900460ff16151514801561224f575061224e8284612e59565b5b905092915050565b600e6020528160005260406000208181548110151561227257fe5b9060005260206000209060040201600091509150508060000154908060010154908060020154908060030154905084565b6000806122d062093a806122c26004544261370490919063ffffffff16565b61388090919063ffffffff16565b91506033821080156122e3575060055482115b15612339576122ff600954600a5461370490919063ffffffff16565b9050602060405190810160405280828152506006600084815260200190815260200160002060008201518160000155905050816005819055505b5050565b60108054600181600116156101000203166002900480601f0160208091040260200160405190810160405280929190818152602001828054600181600116156101000203166002900480156123d35780601f106123a8576101008083540402835291602001916123d3565b820191906000526020600020905b8154815290600101906020018083116123b657829003601f168201915b505050505081565b60008060006123e86122a3565b5b600e60008573ffffffffffffffffffffffffffffffffffffffff1673ffffffffffffffffffffffffffffffffffffffff16815260200190815260200160002080549050831015612b7857600e60008573ffffffffffffffffffffffffffffffffffffffff1673ffffffffffffffffffffffffffffffffffffffff1681526020019081526020016000208381548110151561247f57fe5b906000526020600020906004020160020154421115612b6b5761250a600e60008673ffffffffffffffffffffffffffffffffffffffff1673ffffffffffffffffffffffffffffffffffffffff168152602001908152602001600020848154811015156124e757fe5b906000526020600020906004020160000154600d5461370490919063ffffffff16565b600d819055506125be600e60008673ffffffffffffffffffffffffffffffffffffffff1673ffffffffffffffffffffffffffffffffffffffff1681526020019081526020016000208481548110151561255f57fe5b9060005260206000209060040201600001546000803073ffffffffffffffffffffffffffffffffffffffff1673ffffffffffffffffffffffffffffffffffffffff1681526020019081526020016000205461370490919063ffffffff16565b6000803073ffffffffffffffffffffffffffffffffffffffff1673ffffffffffffffffffffffffffffffffffffffff168152602001908152602001600020819055506126ae600e60008673ffffffffffffffffffffffffffffffffffffffff1673ffffffffffffffffffffffffffffffffffffffff1681526020019081526020016000208481548110151561264f57fe5b9060005260206000209060040201600001546000808773ffffffffffffffffffffffffffffffffffffffff1673ffffffffffffffffffffffffffffffffffffffff1681526020019081526020016000205461371d90919063ffffffff16565b6000808673ffffffffffffffffffffffffffffffffffffffff1673ffffffffffffffffffffffffffffffffffffffff168152602001908152602001600020819055508373ffffffffffffffffffffffffffffffffffffffff163073ffffffffffffffffffffffffffffffffffffffff167fddf252ad1be2c89b69c2b068fc378daa952ba7f163c4a11628f55a4df523b3ef600e60008873ffffffffffffffffffffffffffffffffffffffff1673ffffffffffffffffffffffffffffffffffffffff1681526020019081526020016000208681548110151561278b57fe5b9060005260206000209060040201600001546040518082815260200191505060405180910390a3612848600e60008673ffffffffffffffffffffffffffffffffffffffff1673ffffffffffffffffffffffffffffffffffffffff1681526020019081526020016000208481548110151561280157fe5b906000526020600020906004020160806040519081016040529081600082015481526020016001820154815260200160028201548152602001600382015481525050613739565b91506128f36128e4600e60008773ffffffffffffffffffffffffffffffffffffffff1673ffffffffffffffffffffffffffffffffffffffff1681526020019081526020016000208581548110151561289c57fe5b90600052602060002090600402016080604051908101604052908160008201548152602001600182015481526020016002820154815260200160038201548152505084613821565b8261371d90919063ffffffff16565b9050612946816000808773ffffffffffffffffffffffffffffffffffffffff1673ffffffffffffffffffffffffffffffffffffffff1681526020019081526020016000205461371d90919063ffffffff16565b6000808673ffffffffffffffffffffffffffffffffffffffff1673ffffffffffffffffffffffffffffffffffffffff16815260200190815260200160002081905550612a0d61299e838361370490919063ffffffff16565b600080600360009054906101000a900473ffffffffffffffffffffffffffffffffffffffff1673ffffffffffffffffffffffffffffffffffffffff1673ffffffffffffffffffffffffffffffffffffffff1681526020019081526020016000205461371d90919063ffffffff16565b600080600360009054906101000a900473ffffffffffffffffffffffffffffffffffffffff1673ffffffffffffffffffffffffffffffffffffffff1673ffffffffffffffffffffffffffffffffffffffff16815260200190815260200160002081905550612a99612a88600283613bff90919063ffffffff16565b60015461371d90919063ffffffff16565b600181905550600e60008573ffffffffffffffffffffffffffffffffffffffff1673ffffffffffffffffffffffffffffffffffffffff16815260200190815260200160002083815481101515612aeb57fe5b906000526020600020906004020160008082016000905560018201600090556002820160009055600382016000905550508373ffffffffffffffffffffffffffffffffffffffff167f0f6798a560793a54c3bcfe86a93cde1e73087d944c0ea20544137d4121396885826040518082815260200191505060405180910390a25b82806001019350506123e9565b50505050565b60008073ffffffffffffffffffffffffffffffffffffffff168373ffffffffffffffffffffffffffffffffffffffff1614151515612bbb57600080fd5b6000803373ffffffffffffffffffffffffffffffffffffffff1673ffffffffffffffffffffffffffffffffffffffff168152602001908152602001600020548211151515612c0857600080fd5b612c59826000803373ffffffffffffffffffffffffffffffffffffffff1673ffffffffffffffffffffffffffffffffffffffff1681526020019081526020016000205461370490919063ffffffff16565b6000803373ffffffffffffffffffffffffffffffffffffffff1673ffffffffffffffffffffffffffffffffffffffff16815260200190815260200160002081905550612cec826000808673ffffffffffffffffffffffffffffffffffffffff1673ffffffffffffffffffffffffffffffffffffffff1681526020019081526020016000205461371d90919063ffffffff16565b6000808573ffffffffffffffffffffffffffffffffffffffff1673ffffffffffffffffffffffffffffffffffffffff168152602001908152602001600020819055508273ffffffffffffffffffffffffffffffffffffffff163373ffffffffffffffffffffffffffffffffffffffff167fddf252ad1be2c89b69c2b068fc378daa952ba7f163c4a11628f55a4df523b3ef846040518082815260200191505060405180910390a36001905092915050565b60008173ffffffffffffffffffffffffffffffffffffffff16600187878787604051600081526020016040526040518085600019166000191681526020018460ff1660ff1681526020018360001916600019168152602001826000191660001916815260200194505050505060206040516020810390808403906000865af1158015612e2d573d6000803e3d6000fd5b5050506020604051035173ffffffffffffffffffffffffffffffffffffffff1614905095945050505050565b6000612e688360075484613c37565b905092915050565b60008086868686604051602001808560001916600019168152602001846bffffffffffffffffffffffff19166bffffffffffffffffffffffff191681526014018360ff1660ff167f01000000000000000000000000000000000000000000000000000000000000000281526001018281526020019450505050506040516020818303038152906040526040518082805190602001908083835b602083101515612f2e5780518252602082019150602081019050602083039250612f09565b6001836020036101000a03801982511681845116808217855250505050505090500191505060405180910390209050612f67818461220c565b91505095945050505050565b6000613085600287604051602001808273ffffffffffffffffffffffffffffffffffffffff1673ffffffffffffffffffffffffffffffffffffffff166c010000000000000000000000000281526014019150506040516020818303038152906040526040518082805190602001908083835b60208310151561300a5780518252602082019150602081019050602083039250612fe5565b6001836020036101000a0380198251168184511680821785525050505050509050019150506020604051808303816000865af115801561304e573d6000803e3d6000fd5b5050506040513d602081101561306357600080fd5b81019080805190602001909291905050508585856130808a61194e565b612d9d565b905095945050505050565b600061312182600260003373ffffffffffffffffffffffffffffffffffffffff1673ffffffffffffffffffffffffffffffffffffffff16815260200190815260200160002060008673ffffffffffffffffffffffffffffffffffffffff1673ffffffffffffffffffffffffffffffffffffffff1681526020019081526020016000205461371d90919063ffffffff16565b600260003373ffffffffffffffffffffffffffffffffffffffff1673ffffffffffffffffffffffffffffffffffffffff16815260200190815260200160002060008573ffffffffffffffffffffffffffffffffffffffff1673ffffffffffffffffffffffffffffffffffffffff168152602001908152602001600020819055508273ffffffffffffffffffffffffffffffffffffffff163373ffffffffffffffffffffffffffffffffffffffff167f8c5be1e5ebec7d5bd14f71427d1e84f3dd0314c0f7b2291e5b200ac8c7c3b925600260003373ffffffffffffffffffffffffffffffffffffffff1673ffffffffffffffffffffffffffffffffffffffff16815260200190815260200160002060008773ffffffffffffffffffffffffffffffffffffffff1673ffffffffffffffffffffffffffffffffffffffff168152602001908152602001600020546040518082815260200191505060405180910390a36001905092915050565b6000600260008473ffffffffffffffffffffffffffffffffffffffff1673ffffffffffffffffffffffffffffffffffffffff16815260200190815260200160002060008373ffffffffffffffffffffffffffffffffffffffff1673ffffffffffffffffffffffffffffffffffffffff16815260200190815260200160002054905092915050565b600080600080613324866000613d02565b600190049250613335866020613d02565b600190049150841561351157600060028381151561334f57fe5b061461335c57600361335f565b60025b9050600360028285604051602001808360ff1660ff167f0100000000000000000000000000000000000000000000000000000000000000028152600101828152602001925050506040516020818303038152906040526040518082805190602001908083835b6020831015156133ea57805182526020820191506020810190506020830392506133c5565b6001836020036101000a0380198251168184511680821785525050505050509050019150506020604051808303816000865af115801561342e573d6000803e3d6000fd5b5050506040513d602081101561344357600080fd5b81019080805190602001909291905050506040516020018082600019166000191681526020019150506040516020818303038152906040526040518082805190602001908083835b6020831015156134b0578051825260208201915060208101905060208303925061348b565b6001836020036101000a0380198251168184511680821785525050505050509050019150506020604051808303816000865af11580156134f4573d6000803e3d6000fd5b505050604051516c010000000000000000000000000293506136c9565b6004905060036002828585604051602001808460ff1660ff167f010000000000000000000000000000000000000000000000000000000000000002815260010183815260200182815260200193505050506040516020818303038152906040526040518082805190602001908083835b6020831015156135a65780518252602082019150602081019050602083039250613581565b6001836020036101000a0380198251168184511680821785525050505050509050019150506020604051808303816000865af11580156135ea573d6000803e3d6000fd5b5050506040513d60208110156135ff57600080fd5b81019080805190602001909291905050506040516020018082600019166000191681526020019150506040516020818303038152906040526040518082805190602001908083835b60208310151561366c5780518252602082019150602081019050602083039250613647565b6001836020036101000a0380198251168184511680821785525050505050509050019150506020604051808303816000865af11580156136b0573d6000803e3d6000fd5b505050604051516c010000000000000000000000000293505b50505092915050565b600b60009054906101000a900473ffffffffffffffffffffffffffffffffffffffff1681565b60075481565b60095481565b600082821115151561371257fe5b818303905092915050565b6000818301905082811015151561373057fe5b80905092915050565b60008060008060006064935061377160015461376360648960600151613bff90919063ffffffff16565b61388090919063ffffffff16565b9250613786838561388090919063ffffffff16565b93506137b4620d2f006137a688602001514261370490919063ffffffff16565b61388090919063ffffffff16565b91506137c586600001518386613dde565b90506138168660000151613808836137fa6103e86137ec8888613bff90919063ffffffff16565b61388090919063ffffffff16565b61371d90919063ffffffff16565b61370490919063ffffffff16565b945050505050919050565b600061383e61382f84613dff565b8361371d90919063ffffffff16565b905061387561384c82613ed6565b61386761385884613f1b565b8461371d90919063ffffffff16565b61371d90919063ffffffff16565b905080905092915050565b6000818381151561388d57fe5b04905092915050565b60008060008060008593506138cb62093a806138bd6004544261370490919063ffffffff16565b61388090919063ffffffff16565b92506138f46138e4600285613bff90919063ffffffff16565b606461370490919063ffffffff16565b9150683635c9adc5dea0000084111561398d5769152d02c7e14af68000008410156139755761396e640ba43b74006139606009613952600261394464174876e8008b61370490919063ffffffff16565b613bff90919063ffffffff16565b61388090919063ffffffff16565b61371d90919063ffffffff16565b935061398c565b61398960048561388090919063ffffffff16565b93505b5b6139ca60646139bc6402540be4006139ae8689613bff90919063ffffffff16565b613bff90919063ffffffff16565b61388090919063ffffffff16565b9050602d8311156139dd57809450613bf6565b6020831115613a1457613a0d60646139ff606584613bff90919063ffffffff16565b61388090919063ffffffff16565b9450613bf6565b6018831115613a4b57613a446064613a36606684613bff90919063ffffffff16565b61388090919063ffffffff16565b9450613bf6565b6012831115613a8257613a7b6064613a6d606784613bff90919063ffffffff16565b61388090919063ffffffff16565b9450613bf6565b600e831115613ab957613ab26064613aa4606884613bff90919063ffffffff16565b61388090919063ffffffff16565b9450613bf6565b600a831115613af057613ae96064613adb606984613bff90919063ffffffff16565b61388090919063ffffffff16565b9450613bf6565b6007831115613b2757613b206064613b12606a84613bff90919063ffffffff16565b61388090919063ffffffff16565b9450613bf6565b6005831115613b5e57613b576064613b49606b84613bff90919063ffffffff16565b61388090919063ffffffff16565b9450613bf6565b6003831115613b9557613b8e6064613b80606c84613bff90919063ffffffff16565b61388090919063ffffffff16565b9450613bf6565b6001831115613bcc57613bc56064613bb7606d84613bff90919063ffffffff16565b61388090919063ffffffff16565b9450613bf6565b613bf36064613be5606e84613bff90919063ffffffff16565b61388090919063ffffffff16565b94505b50505050919050565b600080831415613c125760009050613c31565b8183029050818382811515613c2357fe5b04141515613c2d57fe5b8090505b92915050565b600080600080849250600091505b8651821015613ceb578682815181101515613c5c57fe5b906020019060200201519050806000191683600019161015613cad57828160405180836000191660001916815260200182600019166000191681526020019250505060405180910390209250613cde565b8083604051808360001916600019168152602001826000191660001916815260200192505050604051809103902092505b8180600101925050613c45565b856000191683600019161493505050509392505050565b600080600090505b6020811015613dd4576008810284848301815181101515613d2757fe5b9060200101517f010000000000000000000000000000000000000000000000000000000000000090047f0100000000000000000000000000000000000000000000000000000000000000027effffffffffffffffffffffffffffffffffffffffffffffffffffffffffffff19167fff0000000000000000000000000000000000000000000000000000000000000060010216600019169060020a9004821891508080600101915050613d0a565b8191505092915050565b60008260640a83836064010a8502811515613df557fe5b0490509392505050565b600080600080613e3362093a80613e25600454886020015161370490919063ffffffff16565b61388090919063ffffffff16565b9250613e5f62093a80613e516004544261370490919063ffffffff16565b61388090919063ffffffff16565b91508290505b81811015613ece57613ebf613eb06032613ea288600001516006600087815260200190815260200160002060000154613bff90919063ffffffff16565b61388090919063ffffffff16565b8561371d90919063ffffffff16565b93508080600101915050613e65565b505050919050565b6000613f14600a613f06600a54613ef860095487613bff90919063ffffffff16565b61388090919063ffffffff16565b61388090919063ffffffff16565b9050919050565b6000613f59600a613f4b600c54613f3d60095487613bff90919063ffffffff16565b61388090919063ffffffff16565b61388090919063ffffffff16565b90509190505600a165627a7a7230582082150646e781347fe02e381e6b3867703574ec116f7a0241ffdd46c43eac2e2d0029",
  "source": "pragma solidity ^0.4.23;\nimport \"./StakeableToken.sol\";\n\n\ncontract BitcoinHex is StakeableToken {\n    string public name = \"BitcoinHex\"; \n    string public symbol = \"BHX\";\n    uint public decimals = 18;\n\n    constructor (address _originAddress) \n        public\n    {\n        totalSupply_ = 0;\n        // solium-disable-next-line security/no-block-members\n        launchTime = block.timestamp;\n        origin = _originAddress; // Change before launch\n        rootUTXOMerkleTreeHash = 0x0; // Change before launch\n        maximumRedeemable = 0; // Change before launch\n        totalBTCCirculationAtFork = 17078787*(10**8); // Change before launch\n    }\n}\n",
  "sourcePath": "/Users/mesquka/Git/Bitcoin Hex/contract/contracts/BitcoinHex.sol",
  "compiler": {
    "name": "solc",
    "version": "0.4.24+commit.e67f0147.Emscripten.clang"
  },
  "schemaVersion": "2.0.0",
  "updatedAt": "2018-06-13T06:15:45.549Z"
}