{
  "contractName": "BitcoinHex",
  "abi": [
    {
      "constant": true,
      "inputs": [],
      "name": "name",
      "outputs": [
        {
          "name": "",
          "type": "string"
        }
      ],
      "payable": false,
      "stateMutability": "view",
      "type": "function"
    },
    {
      "constant": true,
      "inputs": [
        {
          "name": "_hash",
          "type": "bytes32"
        },
        {
          "name": "_v",
          "type": "uint8"
        },
        {
          "name": "_r",
          "type": "bytes32"
        },
        {
          "name": "_s",
          "type": "bytes32"
        },
        {
          "name": "_expected",
          "type": "address"
        },
        {
          "name": "_addPrefix",
          "type": "bool"
        }
      ],
      "name": "validateSignature",
      "outputs": [
        {
          "name": "",
          "type": "bool"
        }
      ],
      "payable": false,
      "stateMutability": "pure",
      "type": "function"
    },
    {
      "constant": false,
      "inputs": [
        {
          "name": "spender",
          "type": "address"
        },
        {
          "name": "value",
          "type": "uint256"
        }
      ],
      "name": "approve",
      "outputs": [
        {
          "name": "",
          "type": "bool"
        }
      ],
      "payable": false,
      "stateMutability": "nonpayable",
      "type": "function"
    },
    {
      "constant": true,
      "inputs": [
        {
          "name": "_amount",
          "type": "uint256"
        },
        {
          "name": "_stakeTime",
          "type": "uint256"
        },
        {
          "name": "_unlockTime",
          "type": "uint256"
        }
      ],
      "name": "calculatePayout",
      "outputs": [
        {
          "name": "",
          "type": "uint256"
        }
      ],
      "payable": false,
      "stateMutability": "view",
      "type": "function"
    },
    {
      "constant": false,
      "inputs": [
        {
          "name": "_stakeIndex",
          "type": "uint256"
        }
      ],
      "name": "endStake",
      "outputs": [],
      "payable": false,
      "stateMutability": "nonpayable",
      "type": "function"
    },
    {
      "constant": false,
      "inputs": [
        {
          "name": "_satoshis",
          "type": "uint256"
        },
        {
          "name": "_periods",
          "type": "uint256"
        }
      ],
      "name": "startStake",
      "outputs": [],
      "payable": false,
      "stateMutability": "nonpayable",
      "type": "function"
    },
    {
      "constant": true,
      "inputs": [],
      "name": "totalStakedCoins",
      "outputs": [
        {
          "name": "",
          "type": "uint256"
        }
      ],
      "payable": false,
      "stateMutability": "view",
      "type": "function"
    },
    {
      "constant": true,
      "inputs": [],
      "name": "totalSupply",
      "outputs": [
        {
          "name": "",
          "type": "uint256"
        }
      ],
      "payable": false,
      "stateMutability": "view",
      "type": "function"
    },
    {
      "constant": false,
      "inputs": [],
      "name": "storePeriodData",
      "outputs": [],
      "payable": false,
      "stateMutability": "nonpayable",
      "type": "function"
    },
    {
      "constant": false,
      "inputs": [
        {
          "name": "from",
          "type": "address"
        },
        {
          "name": "to",
          "type": "address"
        },
        {
          "name": "value",
          "type": "uint256"
        }
      ],
      "name": "transferFrom",
      "outputs": [
        {
          "name": "",
          "type": "bool"
        }
      ],
      "payable": false,
      "stateMutability": "nonpayable",
      "type": "function"
    },
    {
      "constant": true,
      "inputs": [],
      "name": "getCirculatingSupply",
      "outputs": [
        {
          "name": "",
          "type": "uint256"
        }
      ],
      "payable": false,
      "stateMutability": "view",
      "type": "function"
    },
    {
      "constant": true,
      "inputs": [
        {
          "name": "_satoshis",
          "type": "uint256"
        }
      ],
      "name": "getRedeemAmount",
      "outputs": [
        {
          "name": "",
          "type": "uint256"
        },
        {
          "name": "",
          "type": "uint256"
        }
      ],
      "payable": false,
      "stateMutability": "view",
      "type": "function"
    },
    {
      "constant": true,
      "inputs": [],
      "name": "decimals",
      "outputs": [
        {
          "name": "",
          "type": "uint256"
        }
      ],
      "payable": false,
      "stateMutability": "view",
      "type": "function"
    },
    {
      "constant": false,
      "inputs": [
        {
          "name": "spender",
          "type": "address"
        },
        {
          "name": "addedValue",
          "type": "uint256"
        }
      ],
      "name": "increaseAllowance",
      "outputs": [
        {
          "name": "",
          "type": "bool"
        }
      ],
      "payable": false,
      "stateMutability": "nonpayable",
      "type": "function"
    },
    {
      "constant": false,
      "inputs": [],
      "name": "storeWeeklyData",
      "outputs": [],
      "payable": false,
      "stateMutability": "nonpayable",
      "type": "function"
    },
    {
      "constant": false,
      "inputs": [
        {
          "name": "_satoshis",
          "type": "uint256"
        },
        {
          "name": "_proof",
          "type": "bytes32[]"
        },
        {
          "name": "_pubKey",
          "type": "bytes"
        },
        {
          "name": "_isCompressed",
          "type": "bool"
        },
        {
          "name": "_v",
          "type": "uint8"
        },
        {
          "name": "_r",
          "type": "bytes32"
        },
        {
          "name": "_s",
          "type": "bytes32"
        },
        {
          "name": "_referrer",
          "type": "address"
        }
      ],
      "name": "redeemUTXO",
      "outputs": [
        {
          "name": "",
          "type": "uint256"
        }
      ],
      "payable": false,
      "stateMutability": "nonpayable",
      "type": "function"
    },
    {
      "constant": true,
      "inputs": [],
      "name": "redeemedCount",
      "outputs": [
        {
          "name": "",
          "type": "uint256"
        }
      ],
      "payable": false,
      "stateMutability": "view",
      "type": "function"
    },
    {
      "constant": true,
      "inputs": [
        {
          "name": "_pubKey",
          "type": "bytes"
        }
      ],
      "name": "pubKeyToEthereumAddress",
      "outputs": [
        {
          "name": "",
          "type": "address"
        }
      ],
      "payable": false,
      "stateMutability": "pure",
      "type": "function"
    },
    {
      "constant": true,
      "inputs": [],
      "name": "rootUtxoMerkleTreeHash",
      "outputs": [
        {
          "name": "",
          "type": "bytes32"
        }
      ],
      "payable": false,
      "stateMutability": "view",
      "type": "function"
    },
    {
      "constant": true,
      "inputs": [
        {
          "name": "owner",
          "type": "address"
        }
      ],
      "name": "balanceOf",
      "outputs": [
        {
          "name": "",
          "type": "uint256"
        }
      ],
      "payable": false,
      "stateMutability": "view",
      "type": "function"
    },
    {
      "constant": true,
      "inputs": [
        {
          "name": "_merkleLeafHash",
          "type": "bytes32"
        },
        {
          "name": "_proof",
          "type": "bytes32[]"
        }
      ],
      "name": "canRedeemUtxoHash",
      "outputs": [
        {
          "name": "",
          "type": "bool"
        }
      ],
      "payable": false,
      "stateMutability": "view",
      "type": "function"
    },
    {
      "constant": true,
      "inputs": [
        {
          "name": "",
          "type": "address"
        },
        {
          "name": "",
          "type": "uint256"
        }
      ],
      "name": "staked",
      "outputs": [
        {
          "name": "amount",
          "type": "uint256"
        },
        {
          "name": "stakeTime",
          "type": "uint256"
        },
        {
          "name": "unlockTime",
          "type": "uint256"
        }
      ],
      "payable": false,
      "stateMutability": "view",
      "type": "function"
    },
    {
      "constant": true,
      "inputs": [],
      "name": "symbol",
      "outputs": [
        {
          "name": "",
          "type": "string"
        }
      ],
      "payable": false,
      "stateMutability": "view",
      "type": "function"
    },
    {
      "constant": true,
      "inputs": [
        {
          "name": "_amount",
          "type": "uint256"
        },
        {
          "name": "_stakeTime",
          "type": "uint256"
        },
        {
          "name": "_unlockTime",
          "type": "uint256"
        }
      ],
      "name": "calculateBonuses",
      "outputs": [
        {
          "name": "",
          "type": "uint256"
        }
      ],
      "payable": false,
      "stateMutability": "view",
      "type": "function"
    },
    {
      "constant": false,
      "inputs": [
        {
          "name": "spender",
          "type": "address"
        },
        {
          "name": "subtractedValue",
          "type": "uint256"
        }
      ],
      "name": "decreaseAllowance",
      "outputs": [
        {
          "name": "",
          "type": "bool"
        }
      ],
      "payable": false,
      "stateMutability": "nonpayable",
      "type": "function"
    },
    {
      "constant": false,
      "inputs": [
        {
          "name": "to",
          "type": "address"
        },
        {
          "name": "value",
          "type": "uint256"
        }
      ],
      "name": "transfer",
      "outputs": [
        {
          "name": "",
          "type": "bool"
        }
      ],
      "payable": false,
      "stateMutability": "nonpayable",
      "type": "function"
    },
    {
      "constant": true,
      "inputs": [],
      "name": "isClaimsPeriod",
      "outputs": [
        {
          "name": "",
          "type": "bool"
        }
      ],
      "payable": false,
      "stateMutability": "view",
      "type": "function"
    },
    {
      "constant": true,
      "inputs": [
        {
          "name": "_proof",
          "type": "bytes32[]"
        },
        {
          "name": "_merkleLeafHash",
          "type": "bytes32"
        }
      ],
      "name": "verifyProof",
      "outputs": [
        {
          "name": "",
          "type": "bool"
        }
      ],
      "payable": false,
      "stateMutability": "view",
      "type": "function"
    },
    {
      "constant": true,
      "inputs": [
        {
          "name": "_addr",
          "type": "address"
        },
        {
          "name": "_pubKey",
          "type": "bytes"
        },
        {
          "name": "_v",
          "type": "uint8"
        },
        {
          "name": "_r",
          "type": "bytes32"
        },
        {
          "name": "_s",
          "type": "bytes32"
        }
      ],
      "name": "ecdsaVerify",
      "outputs": [
        {
          "name": "",
          "type": "bool"
        }
      ],
      "payable": false,
      "stateMutability": "pure",
      "type": "function"
    },
    {
      "constant": true,
      "inputs": [
        {
          "name": "_originalAddress",
          "type": "bytes20"
        },
        {
          "name": "_satoshis",
          "type": "uint256"
        },
        {
          "name": "_proof",
          "type": "bytes32[]"
        }
      ],
      "name": "canRedeemUtxo",
      "outputs": [
        {
          "name": "",
          "type": "bool"
        }
      ],
      "payable": false,
      "stateMutability": "view",
      "type": "function"
    },
    {
      "constant": true,
      "inputs": [
        {
          "name": "owner",
          "type": "address"
        },
        {
          "name": "spender",
          "type": "address"
        }
      ],
      "name": "allowance",
      "outputs": [
        {
          "name": "",
          "type": "uint256"
        }
      ],
      "payable": false,
      "stateMutability": "view",
      "type": "function"
    },
    {
      "constant": true,
      "inputs": [
        {
          "name": "_pubKey",
          "type": "bytes"
        },
        {
          "name": "_isCompressed",
          "type": "bool"
        }
      ],
      "name": "pubKeyToBitcoinAddress",
      "outputs": [
        {
          "name": "",
          "type": "bytes20"
        }
      ],
      "payable": false,
      "stateMutability": "pure",
      "type": "function"
    },
    {
      "constant": true,
      "inputs": [],
      "name": "totalRedeemed",
      "outputs": [
        {
          "name": "",
          "type": "uint256"
        }
      ],
      "payable": false,
      "stateMutability": "view",
      "type": "function"
    },
    {
      "inputs": [
        {
          "name": "_originAddress",
          "type": "address"
        },
        {
          "name": "_rootUtxoMerkleTreeHash",
          "type": "bytes32"
        },
        {
          "name": "_maximumRedeemable",
          "type": "uint256"
        },
        {
          "name": "_UTXOCountAtFork",
          "type": "uint256"
        }
      ],
      "payable": false,
      "stateMutability": "nonpayable",
      "type": "constructor"
    },
    {
      "anonymous": false,
      "inputs": [
        {
          "indexed": true,
          "name": "from",
          "type": "address"
        },
        {
          "indexed": true,
          "name": "to",
          "type": "address"
        },
        {
          "indexed": false,
          "name": "value",
          "type": "uint256"
        }
      ],
      "name": "Transfer",
      "type": "event"
    },
    {
      "anonymous": false,
      "inputs": [
        {
          "indexed": true,
          "name": "owner",
          "type": "address"
        },
        {
          "indexed": true,
          "name": "spender",
          "type": "address"
        },
        {
          "indexed": false,
          "name": "value",
          "type": "uint256"
        }
      ],
      "name": "Approval",
      "type": "event"
    }
  ],
  "bytecode": "0x60806040526000600560006101000a81548173ffffffffffffffffffffffffffffffffffffffff021916908373ffffffffffffffffffffffffffffffffffffffff1602179055506000600655600060075534801561005c57600080fd5b506040516080806131fb833981018060405281019080805190602001909291908051906020019092919080519060200190929190805190602001909291905050504260048190555083600360006101000a81548173ffffffffffffffffffffffffffffffffffffffff021916908373ffffffffffffffffffffffffffffffffffffffff160217905550826008816000191690555081600f8190555080600e81905550505050506130ea806101116000396000f3006080604052600436106101a1576000357c0100000000000000000000000000000000000000000000000000000000900463ffffffff16806306fdde03146101a65780630867c0ad14610236578063095ea7b3146102d45780630caee2ca146103395780630cbe28d61461038e578063128bfcae146103bb5780631765f4bf146103f257806318160ddd1461041d5780631ee752701461044857806323b872dd1461045f5780632b112e49146104e45780632c3ee88c1461050f578063313ce5671461055757806339509351146105825780634d3c8bc8146105e75780634ecd81b3146105fe57806352aa3e6c1461071d5780635418796c146107485780636aaf67e2146107f157806370a082311461082457806381cd84b91461087b5780638f1698161461090757806395d89b41146109765780639eb6f05d14610a06578063a457c2d714610a5b578063a9059cbb14610ac0578063adf71f1f14610b25578063b80ac7df14610b54578063ce267b5514610be0578063cfc2334e14610caa578063dd62ed3e14610d4b578063e073ef6914610dc2578063f35dad4014610e69575b600080fd5b3480156101b257600080fd5b506101bb610e94565b6040518080602001828103825283818151815260200191508051906020019080838360005b838110156101fb5780820151818401526020810190506101e0565b50505050905090810190601f1680156102285780820380516001836020036101000a031916815260200191505b509250505060405180910390f35b34801561024257600080fd5b506102ba6004803603810190808035600019169060200190929190803560ff16906020019092919080356000191690602001909291908035600019169060200190929190803573ffffffffffffffffffffffffffffffffffffffff169060200190929190803515159060200190929190505050610ecd565b604051808215151515815260200191505060405180910390f35b3480156102e057600080fd5b5061031f600480360381019080803573ffffffffffffffffffffffffffffffffffffffff169060200190929190803590602001909291905050506110b8565b604051808215151515815260200191505060405180910390f35b34801561034557600080fd5b506103786004803603810190808035906020019092919080359060200190929190803590602001909291905050506111e5565b6040518082815260200191505060405180910390f35b34801561039a57600080fd5b506103b960048036038101908080359060200190929190505050611298565b005b3480156103c757600080fd5b506103f0600480360381019080803590602001909291908035906020019092919050505061129b565b005b3480156103fe57600080fd5b5061040761142b565b6040518082815260200191505060405180910390f35b34801561042957600080fd5b50610432611431565b6040518082815260200191505060405180910390f35b34801561045457600080fd5b5061045d61143b565b005b34801561046b57600080fd5b506104ca600480360381019080803573ffffffffffffffffffffffffffffffffffffffff169060200190929190803573ffffffffffffffffffffffffffffffffffffffff169060200190929190803590602001909291905050506114dd565b604051808215151515815260200191505060405180910390f35b3480156104f057600080fd5b506104f961168f565b6040518082815260200191505060405180910390f35b34801561051b57600080fd5b5061053a600480360381019080803590602001909291905050506116b2565b604051808381526020018281526020019250505060405180910390f35b34801561056357600080fd5b5061056c6116db565b6040518082815260200191505060405180910390f35b34801561058e57600080fd5b506105cd600480360381019080803573ffffffffffffffffffffffffffffffffffffffff169060200190929190803590602001909291905050506116e0565b604051808215151515815260200191505060405180910390f35b3480156105f357600080fd5b506105fc611917565b005b34801561060a57600080fd5b506107076004803603810190808035906020019092919080359060200190820180359060200190808060200260200160405190810160405280939291908181526020018383602002808284378201915050505050509192919290803590602001908201803590602001908080601f0160208091040260200160405190810160405280939291908181526020018383808284378201915050505050509192919290803515159060200190929190803560ff16906020019092919080356000191690602001909291908035600019169060200190929190803573ffffffffffffffffffffffffffffffffffffffff1690602001909291905050506119f3565b6040518082815260200191505060405180910390f35b34801561072957600080fd5b50610732611d8b565b6040518082815260200191505060405180910390f35b34801561075457600080fd5b506107af600480360381019080803590602001908201803590602001908080601f0160208091040260200160405190810160405280939291908181526020018383808284378201915050505050509192919290505050611d91565b604051808273ffffffffffffffffffffffffffffffffffffffff1673ffffffffffffffffffffffffffffffffffffffff16815260200191505060405180910390f35b3480156107fd57600080fd5b50610806611e17565b60405180826000191660001916815260200191505060405180910390f35b34801561083057600080fd5b50610865600480360381019080803573ffffffffffffffffffffffffffffffffffffffff169060200190929190505050611e1d565b6040518082815260200191505060405180910390f35b34801561088757600080fd5b506108ed600480360381019080803560001916906020019092919080359060200190820180359060200190808060200260200160405190810160405280939291908181526020018383602002808284378201915050505050509192919290505050611e65565b604051808215151515815260200191505060405180910390f35b34801561091357600080fd5b50610952600480360381019080803573ffffffffffffffffffffffffffffffffffffffff16906020019092919080359060200190929190505050611eb0565b60405180848152602001838152602001828152602001935050505060405180910390f35b34801561098257600080fd5b5061098b611ef6565b6040518080602001828103825283818151815260200191508051906020019080838360005b838110156109cb5780820151818401526020810190506109b0565b50505050905090810190601f1680156109f85780820380516001836020036101000a031916815260200191505b509250505060405180910390f35b348015610a1257600080fd5b50610a45600480360381019080803590602001909291908035906020019092919080359060200190929190505050611f2f565b6040518082815260200191505060405180910390f35b348015610a6757600080fd5b50610aa6600480360381019080803573ffffffffffffffffffffffffffffffffffffffff16906020019092919080359060200190929190505050611f6e565b604051808215151515815260200191505060405180910390f35b348015610acc57600080fd5b50610b0b600480360381019080803573ffffffffffffffffffffffffffffffffffffffff169060200190929190803590602001909291905050506121a5565b604051808215151515815260200191505060405180910390f35b348015610b3157600080fd5b50610b3a6121bc565b604051808215151515815260200191505060405180910390f35b348015610b6057600080fd5b50610bc66004803603810190808035906020019082018035906020019080806020026020016040519081016040528093929190818152602001838360200280828437820191505050505050919291929080356000191690602001909291905050506121ce565b604051808215151515815260200191505060405180910390f35b348015610bec57600080fd5b50610c90600480360381019080803573ffffffffffffffffffffffffffffffffffffffff169060200190929190803590602001908201803590602001908080601f0160208091040260200160405190810160405280939291908181526020018383808284378201915050505050509192919290803560ff169060200190929190803560001916906020019092919080356000191690602001909291905050506121e5565b604051808215151515815260200191505060405180910390f35b348015610cb657600080fd5b50610d3160048036038101908080356bffffffffffffffffffffffff191690602001909291908035906020019092919080359060200190820180359060200190808060200260200160405190810160405280939291908181526020018383602002808284378201915050505050509192919290505050612304565b604051808215151515815260200191505060405180910390f35b348015610d5757600080fd5b50610dac600480360381019080803573ffffffffffffffffffffffffffffffffffffffff169060200190929190803573ffffffffffffffffffffffffffffffffffffffff1690602001909291905050506123c5565b6040518082815260200191505060405180910390f35b348015610dce57600080fd5b50610e35600480360381019080803590602001908201803590602001908080601f016020809104026020016040519081016040528093929190818152602001838380828437820191505050505050919291929080351515906020019092919050505061244c565b60405180826bffffffffffffffffffffffff19166bffffffffffffffffffffffff1916815260200191505060405180910390f35b348015610e7557600080fd5b50610e7e61280b565b6040518082815260200191505060405180910390f35b6040805190810160405280600a81526020017f426974636f696e4865780000000000000000000000000000000000000000000081525081565b6000806060831515610ee157889150610ffb565b6040805190810160405280601c81526020017f19457468657265756d205369676e6564204d6573736167653a0a333200000000815250905080896040516020018083805190602001908083835b602083101515610f535780518252602082019150602081019050602083039250610f2e565b6001836020036101000a0380198251168184511680821785525050505050509050018260001916600019168152602001925050506040516020818303038152906040526040518082805190602001908083835b602083101515610fcb5780518252602082019150602081019050602083039250610fa6565b6001836020036101000a038019825116818451168082178552505050505050905001915050604051809103902091505b8473ffffffffffffffffffffffffffffffffffffffff166001838a8a8a604051600081526020016040526040518085600019166000191681526020018460ff1660ff1681526020018360001916600019168152602001826000191660001916815260200194505050505060206040516020810390808403906000865af1158015611089573d6000803e3d6000fd5b5050506020604051035173ffffffffffffffffffffffffffffffffffffffff1614925050509695505050505050565b60008073ffffffffffffffffffffffffffffffffffffffff168373ffffffffffffffffffffffffffffffffffffffff16141515156110f557600080fd5b81600160003373ffffffffffffffffffffffffffffffffffffffff1673ffffffffffffffffffffffffffffffffffffffff16815260200190815260200160002060008573ffffffffffffffffffffffffffffffffffffffff1673ffffffffffffffffffffffffffffffffffffffff168152602001908152602001600020819055508273ffffffffffffffffffffffffffffffffffffffff163373ffffffffffffffffffffffffffffffffffffffff167f8c5be1e5ebec7d5bd14f71427d1e84f3dd0314c0f7b2291e5b200ac8c7c3b925846040518082815260200191505060405180910390a36001905092915050565b600080600080600080600094506111fb88612811565b935061120687612811565b92508391505b8282101561128957611265600d6000848152602001908152602001600020600101546112578b600d60008781526020019081526020016000206000015461284490919063ffffffff16565b61288290919063ffffffff16565b905061127a81866128ac90919063ffffffff16565b9450818060010192505061120c565b84955050505050509392505050565b50565b60006112c56112b6620d2f008461284490919063ffffffff16565b426128ac90919063ffffffff16565b9050826112d133611e1d565b101515156112de57600080fd5b6112f56312cc0300426128ac90919063ffffffff16565b811115151561130357600080fd5b611319620d2f00426128ac90919063ffffffff16565b811015151561132757600080fd5b61132f611917565b61133761143b565b601060003373ffffffffffffffffffffffffffffffffffffffff1673ffffffffffffffffffffffffffffffffffffffff16815260200190815260200160002060606040519081016040528085815260200142815260200183815250908060018154018082558091505090600182039060005260206000209060030201600090919290919091506000820151816000015560208201518160010155604082015181600201555050506113f3836011546128ac90919063ffffffff16565b60118190555061142633600560009054906101000a900473ffffffffffffffffffffffffffffffffffffffff16856128cd565b505050565b60115481565b6000600254905090565b60005b600b54611449612ae6565b11156114da5761146b61041661145d612af6565b61288290919063ffffffff16565b90506040805190810160405280828152602001601154815250600d600061149e6001600b546128ac90919063ffffffff16565b81526020019081526020016000206000820151816000015560208201518160010155905050600b6000815480929190600101919050555061143e565b50565b6000600160008573ffffffffffffffffffffffffffffffffffffffff1673ffffffffffffffffffffffffffffffffffffffff16815260200190815260200160002060003373ffffffffffffffffffffffffffffffffffffffff1673ffffffffffffffffffffffffffffffffffffffff16815260200190815260200160002054821115151561156a57600080fd5b6115f982600160008773ffffffffffffffffffffffffffffffffffffffff1673ffffffffffffffffffffffffffffffffffffffff16815260200190815260200160002060003373ffffffffffffffffffffffffffffffffffffffff1673ffffffffffffffffffffffffffffffffffffffff16815260200190815260200160002054612b2190919063ffffffff16565b600160008673ffffffffffffffffffffffffffffffffffffffff1673ffffffffffffffffffffffffffffffffffffffff16815260200190815260200160002060003373ffffffffffffffffffffffffffffffffffffffff1673ffffffffffffffffffffffffffffffffffffffff168152602001908152602001600020819055506116848484846128cd565b600190509392505050565b60006116ad60115461169f611431565b612b2190919063ffffffff16565b905090565b6000806000806116c185612b42565b91506116cc82612b8b565b90508181935093505050915091565b600881565b60008073ffffffffffffffffffffffffffffffffffffffff168373ffffffffffffffffffffffffffffffffffffffff161415151561171d57600080fd5b6117ac82600160003373ffffffffffffffffffffffffffffffffffffffff1673ffffffffffffffffffffffffffffffffffffffff16815260200190815260200160002060008673ffffffffffffffffffffffffffffffffffffffff1673ffffffffffffffffffffffffffffffffffffffff168152602001908152602001600020546128ac90919063ffffffff16565b600160003373ffffffffffffffffffffffffffffffffffffffff1673ffffffffffffffffffffffffffffffffffffffff16815260200190815260200160002060008573ffffffffffffffffffffffffffffffffffffffff1673ffffffffffffffffffffffffffffffffffffffff168152602001908152602001600020819055508273ffffffffffffffffffffffffffffffffffffffff163373ffffffffffffffffffffffffffffffffffffffff167f8c5be1e5ebec7d5bd14f71427d1e84f3dd0314c0f7b2291e5b200ac8c7c3b925600160003373ffffffffffffffffffffffffffffffffffffffff1673ffffffffffffffffffffffffffffffffffffffff16815260200190815260200160002060008773ffffffffffffffffffffffffffffffffffffffff1673ffffffffffffffffffffffffffffffffffffffff168152602001908152602001600020546040518082815260200191505060405180910390a36001905092915050565b60005b600a54611925612bf3565b11156119f057611942600654600f54612b2190919063ffffffff16565b90506040805190810160405280828152602001601154815250600c60006119756001600a546128ac90919063ffffffff16565b815260200190815260200160002060008201518160000155602082015181600101559050506119d9600360009054906101000a900473ffffffffffffffffffffffffffffffffffffffff166119d460328461288290919063ffffffff16565b612c03565b600a6000815480929190600101919050555061191a565b50565b6000806000806000611a036121bc565b1515611a0e57600080fd5b611a188b8b61244c565b9350838d60405160200180836bffffffffffffffffffffffff19166bffffffffffffffffffffffff19168152601401828152602001925050506040516020818303038152906040526040518082805190602001908083835b602083101515611a955780518252602082019150602081019050602083039250611a70565b6001836020036101000a03801982511681845116808217855250505050505090500191505060405180910390209250611ace838d611e65565b1515611ad957600080fd5b611ae1611917565b611ae961143b565b611af6338c8b8b8b6121e5565b1515611b0157600080fd5b600f54611b19836006546128ac90919063ffffffff16565b11151515611b2657600080fd5b611b3b8d6006546128ac90919063ffffffff16565b600681905550600160096000856000191660001916815260200190815260200160002060006101000a81548160ff021916908315150217905550611b7e8d6116b2565b91509150611b9e33611b9983856128ac90919063ffffffff16565b612c03565b611bca600360009054906101000a900473ffffffffffffffffffffffffffffffffffffffff1682612c03565b611be060016007546128ac90919063ffffffff16565b6007819055503373ffffffffffffffffffffffffffffffffffffffff16600073ffffffffffffffffffffffffffffffffffffffff167fddf252ad1be2c89b69c2b068fc378daa952ba7f163c4a11628f55a4df523b3ef611c4984866128ac90919063ffffffff16565b6040518082815260200191505060405180910390a3600360009054906101000a900473ffffffffffffffffffffffffffffffffffffffff1673ffffffffffffffffffffffffffffffffffffffff16600073ffffffffffffffffffffffffffffffffffffffff167fddf252ad1be2c89b69c2b068fc378daa952ba7f163c4a11628f55a4df523b3ef836040518082815260200191505060405180910390a3600073ffffffffffffffffffffffffffffffffffffffff168673ffffffffffffffffffffffffffffffffffffffff16141515611d6657611d268683612c03565b611d65600360009054906101000a900473ffffffffffffffffffffffffffffffffffffffff16611d6060148561288290919063ffffffff16565b612c03565b5b611d7981836128ac90919063ffffffff16565b94505050505098975050505050505050565b60075481565b600073ffffffffffffffffffffffffffffffffffffffff826040518082805190602001908083835b602083101515611dde5780518252602082019150602081019050602083039250611db9565b6001836020036101000a038019825116818451168082178552505050505050905001915050604051809103902060019004169050919050565b60085481565b60008060008373ffffffffffffffffffffffffffffffffffffffff1673ffffffffffffffffffffffffffffffffffffffff168152602001908152602001600020549050919050565b600080151560096000856000191660001916815260200190815260200160002060009054906101000a900460ff161515148015611ea85750611ea782846121ce565b5b905092915050565b601060205281600052604060002081815481101515611ecb57fe5b9060005260206000209060030201600091509150508060000154908060010154908060020154905083565b6040805190810160405280600381526020017f424858000000000000000000000000000000000000000000000000000000000081525081565b60008060009050611f3e6121bc565b15611f6357611f60611f51868686612d41565b826128ac90919063ffffffff16565b90505b809150509392505050565b60008073ffffffffffffffffffffffffffffffffffffffff168373ffffffffffffffffffffffffffffffffffffffff1614151515611fab57600080fd5b61203a82600160003373ffffffffffffffffffffffffffffffffffffffff1673ffffffffffffffffffffffffffffffffffffffff16815260200190815260200160002060008673ffffffffffffffffffffffffffffffffffffffff1673ffffffffffffffffffffffffffffffffffffffff16815260200190815260200160002054612b2190919063ffffffff16565b600160003373ffffffffffffffffffffffffffffffffffffffff1673ffffffffffffffffffffffffffffffffffffffff16815260200190815260200160002060008573ffffffffffffffffffffffffffffffffffffffff1673ffffffffffffffffffffffffffffffffffffffff168152602001908152602001600020819055508273ffffffffffffffffffffffffffffffffffffffff163373ffffffffffffffffffffffffffffffffffffffff167f8c5be1e5ebec7d5bd14f71427d1e84f3dd0314c0f7b2291e5b200ac8c7c3b925600160003373ffffffffffffffffffffffffffffffffffffffff1673ffffffffffffffffffffffffffffffffffffffff16815260200190815260200160002060008773ffffffffffffffffffffffffffffffffffffffff1673ffffffffffffffffffffffffffffffffffffffff168152602001908152602001600020546040518082815260200191505060405180910390a36001905092915050565b60006121b23384846128cd565b6001905092915050565b600060326121c8612bf3565b10905090565b60006121dd8360085484612e0a565b905092915050565b60006122f9600287604051602001808273ffffffffffffffffffffffffffffffffffffffff1673ffffffffffffffffffffffffffffffffffffffff166c010000000000000000000000000281526014019150506040516020818303038152906040526040518082805190602001908083835b60208310151561227c5780518252602082019150602081019050602083039250612257565b6001836020036101000a0380198251168184511680821785525050505050509050019150506020604051808303816000865af11580156122c0573d6000803e3d6000fd5b5050506040513d60208110156122d557600080fd5b81019080805190602001909291905050508585856122f28a611d91565b6000610ecd565b905095945050505050565b600080848460405160200180836bffffffffffffffffffffffff19166bffffffffffffffffffffffff19168152601401828152602001925050506040516020818303038152906040526040518082805190602001908083835b602083101515612382578051825260208201915060208101905060208303925061235d565b6001836020036101000a038019825116818451168082178552505050505050905001915050604051809103902090506123bb8184611e65565b9150509392505050565b6000600160008473ffffffffffffffffffffffffffffffffffffffff1673ffffffffffffffffffffffffffffffffffffffff16815260200190815260200160002060008373ffffffffffffffffffffffffffffffffffffffff1673ffffffffffffffffffffffffffffffffffffffff16815260200190815260200160002054905092915050565b60008060008061245d866000612fad565b60019004925061246e866020612fad565b600190049150841561264a57600060028381151561248857fe5b0614612495576003612498565b60025b9050600360028285604051602001808360ff1660ff167f0100000000000000000000000000000000000000000000000000000000000000028152600101828152602001925050506040516020818303038152906040526040518082805190602001908083835b60208310151561252357805182526020820191506020810190506020830392506124fe565b6001836020036101000a0380198251168184511680821785525050505050509050019150506020604051808303816000865af1158015612567573d6000803e3d6000fd5b5050506040513d602081101561257c57600080fd5b81019080805190602001909291905050506040516020018082600019166000191681526020019150506040516020818303038152906040526040518082805190602001908083835b6020831015156125e957805182526020820191506020810190506020830392506125c4565b6001836020036101000a0380198251168184511680821785525050505050509050019150506020604051808303816000865af115801561262d573d6000803e3d6000fd5b505050604051516c01000000000000000000000000029350612802565b6004905060036002828585604051602001808460ff1660ff167f010000000000000000000000000000000000000000000000000000000000000002815260010183815260200182815260200193505050506040516020818303038152906040526040518082805190602001908083835b6020831015156126df57805182526020820191506020810190506020830392506126ba565b6001836020036101000a0380198251168184511680821785525050505050509050019150506020604051808303816000865af1158015612723573d6000803e3d6000fd5b5050506040513d602081101561273857600080fd5b81019080805190602001909291905050506040516020018082600019166000191681526020019150506040516020818303038152906040526040518082805190602001908083835b6020831015156127a55780518252602082019150602081019050602083039250612780565b6001836020036101000a0380198251168184511680821785525050505050509050019150506020604051808303816000865af11580156127e9573d6000803e3d6000fd5b505050604051516c010000000000000000000000000293505b50505092915050565b60065481565b600061283d620d2f0061282f60045485612b2190919063ffffffff16565b61288290919063ffffffff16565b9050919050565b6000806000841415612859576000915061287b565b828402905082848281151561286a57fe5b0414151561287757600080fd5b8091505b5092915050565b60008060008311151561289457600080fd5b828481151561289f57fe5b0490508091505092915050565b60008082840190508381101515156128c357600080fd5b8091505092915050565b6000808473ffffffffffffffffffffffffffffffffffffffff1673ffffffffffffffffffffffffffffffffffffffff16815260200190815260200160002054811115151561291a57600080fd5b600073ffffffffffffffffffffffffffffffffffffffff168273ffffffffffffffffffffffffffffffffffffffff161415151561295657600080fd5b6129a7816000808673ffffffffffffffffffffffffffffffffffffffff1673ffffffffffffffffffffffffffffffffffffffff16815260200190815260200160002054612b2190919063ffffffff16565b6000808573ffffffffffffffffffffffffffffffffffffffff1673ffffffffffffffffffffffffffffffffffffffff16815260200190815260200160002081905550612a3a816000808573ffffffffffffffffffffffffffffffffffffffff1673ffffffffffffffffffffffffffffffffffffffff168152602001908152602001600020546128ac90919063ffffffff16565b6000808473ffffffffffffffffffffffffffffffffffffffff1673ffffffffffffffffffffffffffffffffffffffff168152602001908152602001600020819055508173ffffffffffffffffffffffffffffffffffffffff168373ffffffffffffffffffffffffffffffffffffffff167fddf252ad1be2c89b69c2b068fc378daa952ba7f163c4a11628f55a4df523b3ef836040518082815260200191505060405180910390a3505050565b6000612af142612811565b905090565b600080612b01611431565b9050600f54612b0e611431565b1015612b1a57600f5490505b8091505090565b600080838311151515612b3357600080fd5b82840390508091505092915050565b6000612b846064612b76612b676002612b59612bf3565b61284490919063ffffffff16565b8561284490919063ffffffff16565b61288290919063ffffffff16565b9050919050565b600080600060649150612bc1612bb26002612ba4612bf3565b61284490919063ffffffff16565b83612b2190919063ffffffff16565b9050612bea6103e8612bdc838761284490919063ffffffff16565b61288290919063ffffffff16565b92505050919050565b6000612bfe4261308b565b905090565b60008273ffffffffffffffffffffffffffffffffffffffff1614151515612c2957600080fd5b612c3e816002546128ac90919063ffffffff16565b600281905550612c95816000808573ffffffffffffffffffffffffffffffffffffffff1673ffffffffffffffffffffffffffffffffffffffff168152602001908152602001600020546128ac90919063ffffffff16565b6000808473ffffffffffffffffffffffffffffffffffffffff1673ffffffffffffffffffffffffffffffffffffffff168152602001908152602001600020819055508173ffffffffffffffffffffffffffffffffffffffff16600073ffffffffffffffffffffffffffffffffffffffff167fddf252ad1be2c89b69c2b068fc378daa952ba7f163c4a11628f55a4df523b3ef836040518082815260200191505060405180910390a35050565b60008060008060008060008060009650612d5a8a61308b565b955060008614612d6a5785612d6d565b60015b9450612d788961308b565b935060328411612d885783612d8b565b60325b92508491505b82821015612df957612dd56032612dc78d600c60008781526020019081526020016000206000015461284490919063ffffffff16565b61288290919063ffffffff16565b9050612dea81886128ac90919063ffffffff16565b96508180600101925050612d91565b869750505050505050509392505050565b600080600080849250600091505b8651821015612f96578682815181101515612e2f57fe5b906020019060200201519050806000191683600019161015612eec5782816040516020018083600019166000191681526020018260001916600019168152602001925050506040516020818303038152906040526040518082805190602001908083835b602083101515612eb85780518252602082019150602081019050602083039250612e93565b6001836020036101000a03801982511681845116808217855250505050505090500191505060405180910390209250612f89565b80836040516020018083600019166000191681526020018260001916600019168152602001925050506040516020818303038152906040526040518082805190602001908083835b602083101515612f595780518252602082019150602081019050602083039250612f34565b6001836020036101000a038019825116818451168082178552505050505050905001915050604051809103902092505b8180600101925050612e18565b856000191683600019161493505050509392505050565b60008060008090505b6020811015613080576008810285858301815181101515612fd357fe5b9060200101517f010000000000000000000000000000000000000000000000000000000000000090047f0100000000000000000000000000000000000000000000000000000000000000027effffffffffffffffffffffffffffffffffffffffffffffffffffffffffffff19167fff0000000000000000000000000000000000000000000000000000000000000060010216600019169060020a9004821891508080600101915050612fb6565b819250505092915050565b60006130b762093a806130a960045485612b2190919063ffffffff16565b61288290919063ffffffff16565b90509190505600a165627a7a72305820a8fadf41dddd0afb865e3453fd6dc23269018dc9257d672b6233d0564a82573e0029",
  "source": "pragma solidity ^0.4.24;\n\nimport \"./StakeableToken.sol\";\n\ncontract BitcoinHex is StakeableToken {\n  constructor (\n    address _originAddress,\n    bytes32 _rootUtxoMerkleTreeHash,\n    uint256 _maximumRedeemable,\n    uint256 _UTXOCountAtFork\n  ) public {\n    launchTime = block.timestamp;\n    origin = _originAddress;\n    rootUtxoMerkleTreeHash = _rootUtxoMerkleTreeHash;\n    maximumRedeemable = _maximumRedeemable;\n    UTXOCountAtFork = _UTXOCountAtFork;\n  }\n}\n",
  "sourcePath": "/Users/mesquka/Git/Bitcoin Hex/contract/contracts/BitcoinHex.sol",
  "compiler": {
    "name": "solc",
    "version": "0.4.24+commit.e67f0147.Emscripten.clang"
  },
  "schemaVersion": "2.0.1",
  "updatedAt": "2018-11-03T01:44:17.714Z"
}