{
  "contractName": "BitcoinHex",
  "abi": [
    {
      "constant": true,
      "inputs": [],
      "name": "name",
      "outputs": [
        {
          "name": "",
          "type": "string"
        }
      ],
      "payable": false,
      "stateMutability": "view",
      "type": "function"
    },
    {
      "constant": true,
      "inputs": [
        {
          "name": "_hash",
          "type": "bytes32"
        },
        {
          "name": "_v",
          "type": "uint8"
        },
        {
          "name": "_r",
          "type": "bytes32"
        },
        {
          "name": "_s",
          "type": "bytes32"
        },
        {
          "name": "_expected",
          "type": "address"
        },
        {
          "name": "_addPrefix",
          "type": "bool"
        }
      ],
      "name": "validateSignature",
      "outputs": [
        {
          "name": "",
          "type": "bool"
        }
      ],
      "payable": false,
      "stateMutability": "pure",
      "type": "function"
    },
    {
      "constant": true,
      "inputs": [],
      "name": "maximumRedeemable",
      "outputs": [
        {
          "name": "",
          "type": "uint256"
        }
      ],
      "payable": false,
      "stateMutability": "view",
      "type": "function"
    },
    {
      "constant": false,
      "inputs": [
        {
          "name": "_spender",
          "type": "address"
        },
        {
          "name": "_value",
          "type": "uint256"
        }
      ],
      "name": "approve",
      "outputs": [
        {
          "name": "",
          "type": "bool"
        }
      ],
      "payable": false,
      "stateMutability": "nonpayable",
      "type": "function"
    },
    {
      "constant": false,
      "inputs": [
        {
          "name": "_value",
          "type": "uint256"
        },
        {
          "name": "_unlockTime",
          "type": "uint256"
        }
      ],
      "name": "startStake",
      "outputs": [
        {
          "name": "",
          "type": "bool"
        }
      ],
      "payable": false,
      "stateMutability": "nonpayable",
      "type": "function"
    },
    {
      "constant": true,
      "inputs": [],
      "name": "interestRatePercent",
      "outputs": [
        {
          "name": "",
          "type": "uint256"
        }
      ],
      "payable": false,
      "stateMutability": "view",
      "type": "function"
    },
    {
      "constant": true,
      "inputs": [],
      "name": "totalStakedCoins",
      "outputs": [
        {
          "name": "",
          "type": "uint256"
        }
      ],
      "payable": false,
      "stateMutability": "view",
      "type": "function"
    },
    {
      "constant": true,
      "inputs": [],
      "name": "totalSupply",
      "outputs": [
        {
          "name": "",
          "type": "uint256"
        }
      ],
      "payable": false,
      "stateMutability": "view",
      "type": "function"
    },
    {
      "constant": true,
      "inputs": [
        {
          "name": "_stakeAmount",
          "type": "uint256"
        }
      ],
      "name": "calculateViralRewards",
      "outputs": [
        {
          "name": "",
          "type": "uint256"
        }
      ],
      "payable": false,
      "stateMutability": "view",
      "type": "function"
    },
    {
      "constant": false,
      "inputs": [
        {
          "name": "_from",
          "type": "address"
        },
        {
          "name": "_to",
          "type": "address"
        },
        {
          "name": "_value",
          "type": "uint256"
        }
      ],
      "name": "transferFrom",
      "outputs": [
        {
          "name": "",
          "type": "bool"
        }
      ],
      "payable": false,
      "stateMutability": "nonpayable",
      "type": "function"
    },
    {
      "constant": true,
      "inputs": [
        {
          "name": "_staker",
          "type": "address"
        },
        {
          "name": "_stakeIndex",
          "type": "uint256"
        }
      ],
      "name": "getStakedEntryPlusRewards",
      "outputs": [
        {
          "name": "",
          "type": "uint256"
        }
      ],
      "payable": false,
      "stateMutability": "view",
      "type": "function"
    },
    {
      "constant": true,
      "inputs": [
        {
          "name": "_satoshis",
          "type": "uint256"
        }
      ],
      "name": "getRedeemAmount",
      "outputs": [
        {
          "name": "",
          "type": "uint256"
        }
      ],
      "payable": false,
      "stateMutability": "view",
      "type": "function"
    },
    {
      "constant": true,
      "inputs": [
        {
          "name": "",
          "type": "uint256"
        }
      ],
      "name": "unclaimedCoinsByWeek",
      "outputs": [
        {
          "name": "",
          "type": "uint256"
        }
      ],
      "payable": false,
      "stateMutability": "view",
      "type": "function"
    },
    {
      "constant": true,
      "inputs": [],
      "name": "decimals",
      "outputs": [
        {
          "name": "",
          "type": "uint256"
        }
      ],
      "payable": false,
      "stateMutability": "view",
      "type": "function"
    },
    {
      "constant": true,
      "inputs": [
        {
          "name": "_staker",
          "type": "address"
        }
      ],
      "name": "getCurrentStaked",
      "outputs": [
        {
          "name": "",
          "type": "uint256"
        }
      ],
      "payable": false,
      "stateMutability": "view",
      "type": "function"
    },
    {
      "constant": true,
      "inputs": [
        {
          "name": "_pubKey",
          "type": "bytes"
        }
      ],
      "name": "pubKeyToEthereumAddress",
      "outputs": [
        {
          "name": "",
          "type": "address"
        }
      ],
      "payable": false,
      "stateMutability": "pure",
      "type": "function"
    },
    {
      "constant": false,
      "inputs": [
        {
          "name": "_spender",
          "type": "address"
        },
        {
          "name": "_subtractedValue",
          "type": "uint256"
        }
      ],
      "name": "decreaseApproval",
      "outputs": [
        {
          "name": "",
          "type": "bool"
        }
      ],
      "payable": false,
      "stateMutability": "nonpayable",
      "type": "function"
    },
    {
      "constant": true,
      "inputs": [
        {
          "name": "",
          "type": "bytes32"
        }
      ],
      "name": "redeemedUTXOs",
      "outputs": [
        {
          "name": "",
          "type": "bool"
        }
      ],
      "payable": false,
      "stateMutability": "view",
      "type": "function"
    },
    {
      "constant": true,
      "inputs": [],
      "name": "rootUtxoMerkleTreeHash",
      "outputs": [
        {
          "name": "",
          "type": "bytes32"
        }
      ],
      "payable": false,
      "stateMutability": "view",
      "type": "function"
    },
    {
      "constant": true,
      "inputs": [
        {
          "name": "_staker",
          "type": "address"
        },
        {
          "name": "_startIndex",
          "type": "uint256"
        },
        {
          "name": "_endIndex",
          "type": "uint256"
        }
      ],
      "name": "getCurrentStakedAtIndexes",
      "outputs": [
        {
          "name": "",
          "type": "uint256"
        }
      ],
      "payable": false,
      "stateMutability": "view",
      "type": "function"
    },
    {
      "constant": true,
      "inputs": [
        {
          "name": "_owner",
          "type": "address"
        }
      ],
      "name": "balanceOf",
      "outputs": [
        {
          "name": "",
          "type": "uint256"
        }
      ],
      "payable": false,
      "stateMutability": "view",
      "type": "function"
    },
    {
      "constant": false,
      "inputs": [
        {
          "name": "_satoshis",
          "type": "uint256"
        },
        {
          "name": "_proof",
          "type": "bytes32[]"
        },
        {
          "name": "_pubKey",
          "type": "bytes"
        },
        {
          "name": "_isCompressed",
          "type": "bool"
        },
        {
          "name": "_v",
          "type": "uint8"
        },
        {
          "name": "_r",
          "type": "bytes32"
        },
        {
          "name": "_s",
          "type": "bytes32"
        }
      ],
      "name": "redeemUtxo",
      "outputs": [
        {
          "name": "_tokensRedeemed",
          "type": "uint256"
        }
      ],
      "payable": false,
      "stateMutability": "nonpayable",
      "type": "function"
    },
    {
      "constant": true,
      "inputs": [],
      "name": "launchTime",
      "outputs": [
        {
          "name": "",
          "type": "uint256"
        }
      ],
      "payable": false,
      "stateMutability": "view",
      "type": "function"
    },
    {
      "constant": true,
      "inputs": [
        {
          "name": "_staker",
          "type": "address"
        },
        {
          "name": "_stakeIndex",
          "type": "uint256"
        }
      ],
      "name": "calculateAdditionalRewards",
      "outputs": [
        {
          "name": "",
          "type": "uint256"
        }
      ],
      "payable": false,
      "stateMutability": "view",
      "type": "function"
    },
    {
      "constant": false,
      "inputs": [
        {
          "name": "_staker",
          "type": "address"
        },
        {
          "name": "_stakeIndex",
          "type": "uint256"
        }
      ],
      "name": "claimSingleStakingReward",
      "outputs": [
        {
          "name": "",
          "type": "bool"
        }
      ],
      "payable": false,
      "stateMutability": "nonpayable",
      "type": "function"
    },
    {
      "constant": true,
      "inputs": [
        {
          "name": "_merkleLeafHash",
          "type": "bytes32"
        },
        {
          "name": "_proof",
          "type": "bytes32[]"
        }
      ],
      "name": "canRedeemUtxoHash",
      "outputs": [
        {
          "name": "",
          "type": "bool"
        }
      ],
      "payable": false,
      "stateMutability": "view",
      "type": "function"
    },
    {
      "constant": true,
      "inputs": [],
      "name": "totalBtcCirculationAtFork",
      "outputs": [
        {
          "name": "",
          "type": "uint256"
        }
      ],
      "payable": false,
      "stateMutability": "view",
      "type": "function"
    },
    {
      "constant": true,
      "inputs": [
        {
          "name": "",
          "type": "address"
        },
        {
          "name": "",
          "type": "uint256"
        }
      ],
      "name": "staked",
      "outputs": [
        {
          "name": "stakeAmount",
          "type": "uint256"
        },
        {
          "name": "stakeTime",
          "type": "uint256"
        },
        {
          "name": "unlockTime",
          "type": "uint256"
        },
        {
          "name": "totalStakedCoinsAtStart",
          "type": "uint256"
        }
      ],
      "payable": false,
      "stateMutability": "view",
      "type": "function"
    },
    {
      "constant": false,
      "inputs": [],
      "name": "storeWeekUnclaimed",
      "outputs": [],
      "payable": false,
      "stateMutability": "nonpayable",
      "type": "function"
    },
    {
      "constant": true,
      "inputs": [],
      "name": "origin",
      "outputs": [
        {
          "name": "",
          "type": "address"
        }
      ],
      "payable": false,
      "stateMutability": "view",
      "type": "function"
    },
    {
      "constant": true,
      "inputs": [],
      "name": "symbol",
      "outputs": [
        {
          "name": "",
          "type": "string"
        }
      ],
      "payable": false,
      "stateMutability": "view",
      "type": "function"
    },
    {
      "constant": true,
      "inputs": [],
      "name": "lastUpdatedWeek",
      "outputs": [
        {
          "name": "",
          "type": "uint256"
        }
      ],
      "payable": false,
      "stateMutability": "view",
      "type": "function"
    },
    {
      "constant": false,
      "inputs": [
        {
          "name": "_to",
          "type": "address"
        },
        {
          "name": "_value",
          "type": "uint256"
        }
      ],
      "name": "transfer",
      "outputs": [
        {
          "name": "",
          "type": "bool"
        }
      ],
      "payable": false,
      "stateMutability": "nonpayable",
      "type": "function"
    },
    {
      "constant": false,
      "inputs": [
        {
          "name": "_satoshis",
          "type": "uint256"
        },
        {
          "name": "_proof",
          "type": "bytes32[]"
        },
        {
          "name": "_pubKey",
          "type": "bytes"
        },
        {
          "name": "_isCompressed",
          "type": "bool"
        },
        {
          "name": "_v",
          "type": "uint8"
        },
        {
          "name": "_r",
          "type": "bytes32"
        },
        {
          "name": "_s",
          "type": "bytes32"
        },
        {
          "name": "_referrer",
          "type": "address"
        }
      ],
      "name": "redeemReferredUtxo",
      "outputs": [
        {
          "name": "_tokensRedeemed",
          "type": "uint256"
        }
      ],
      "payable": false,
      "stateMutability": "nonpayable",
      "type": "function"
    },
    {
      "constant": true,
      "inputs": [
        {
          "name": "_staker",
          "type": "address"
        },
        {
          "name": "_startIndex",
          "type": "uint256"
        },
        {
          "name": "_endIndex",
          "type": "uint256"
        }
      ],
      "name": "getStakedAtIndexes",
      "outputs": [
        {
          "name": "",
          "type": "uint256"
        }
      ],
      "payable": false,
      "stateMutability": "view",
      "type": "function"
    },
    {
      "constant": true,
      "inputs": [
        {
          "name": "_stakeTime",
          "type": "uint256"
        },
        {
          "name": "_unlockTime",
          "type": "uint256"
        }
      ],
      "name": "calculateWeAreAllSatoshiRewards",
      "outputs": [
        {
          "name": "",
          "type": "uint256"
        }
      ],
      "payable": false,
      "stateMutability": "view",
      "type": "function"
    },
    {
      "constant": true,
      "inputs": [
        {
          "name": "_proof",
          "type": "bytes32[]"
        },
        {
          "name": "_merkleLeafHash",
          "type": "bytes32"
        }
      ],
      "name": "verifyProof",
      "outputs": [
        {
          "name": "",
          "type": "bool"
        }
      ],
      "payable": false,
      "stateMutability": "view",
      "type": "function"
    },
    {
      "constant": false,
      "inputs": [
        {
          "name": "_staker",
          "type": "address"
        },
        {
          "name": "_startIndex",
          "type": "uint256"
        },
        {
          "name": "_endIndex",
          "type": "uint256"
        }
      ],
      "name": "claimMultipleStakingRewards",
      "outputs": [
        {
          "name": "",
          "type": "bool"
        }
      ],
      "payable": false,
      "stateMutability": "nonpayable",
      "type": "function"
    },
    {
      "constant": true,
      "inputs": [
        {
          "name": "_addr",
          "type": "address"
        },
        {
          "name": "_pubKey",
          "type": "bytes"
        },
        {
          "name": "_v",
          "type": "uint8"
        },
        {
          "name": "_r",
          "type": "bytes32"
        },
        {
          "name": "_s",
          "type": "bytes32"
        }
      ],
      "name": "ecdsaVerify",
      "outputs": [
        {
          "name": "",
          "type": "bool"
        }
      ],
      "payable": false,
      "stateMutability": "pure",
      "type": "function"
    },
    {
      "constant": true,
      "inputs": [
        {
          "name": "_originalAddress",
          "type": "bytes20"
        },
        {
          "name": "_satoshis",
          "type": "uint256"
        },
        {
          "name": "_proof",
          "type": "bytes32[]"
        }
      ],
      "name": "canRedeemUtxo",
      "outputs": [
        {
          "name": "",
          "type": "bool"
        }
      ],
      "payable": false,
      "stateMutability": "view",
      "type": "function"
    },
    {
      "constant": false,
      "inputs": [
        {
          "name": "_spender",
          "type": "address"
        },
        {
          "name": "_addedValue",
          "type": "uint256"
        }
      ],
      "name": "increaseApproval",
      "outputs": [
        {
          "name": "",
          "type": "bool"
        }
      ],
      "payable": false,
      "stateMutability": "nonpayable",
      "type": "function"
    },
    {
      "constant": true,
      "inputs": [
        {
          "name": "_staker",
          "type": "address"
        }
      ],
      "name": "getTotalStaked",
      "outputs": [
        {
          "name": "",
          "type": "uint256"
        }
      ],
      "payable": false,
      "stateMutability": "view",
      "type": "function"
    },
    {
      "constant": true,
      "inputs": [
        {
          "name": "_owner",
          "type": "address"
        },
        {
          "name": "_spender",
          "type": "address"
        }
      ],
      "name": "allowance",
      "outputs": [
        {
          "name": "",
          "type": "uint256"
        }
      ],
      "payable": false,
      "stateMutability": "view",
      "type": "function"
    },
    {
      "constant": true,
      "inputs": [
        {
          "name": "_pubKey",
          "type": "bytes"
        },
        {
          "name": "_isCompressed",
          "type": "bool"
        }
      ],
      "name": "pubKeyToBitcoinAddress",
      "outputs": [
        {
          "name": "",
          "type": "bytes20"
        }
      ],
      "payable": false,
      "stateMutability": "pure",
      "type": "function"
    },
    {
      "constant": true,
      "inputs": [
        {
          "name": "_stakeAmount",
          "type": "uint256"
        }
      ],
      "name": "calculateCritMassRewards",
      "outputs": [
        {
          "name": "",
          "type": "uint256"
        }
      ],
      "payable": false,
      "stateMutability": "view",
      "type": "function"
    },
    {
      "constant": true,
      "inputs": [],
      "name": "totalRedeemed",
      "outputs": [
        {
          "name": "",
          "type": "uint256"
        }
      ],
      "payable": false,
      "stateMutability": "view",
      "type": "function"
    },
    {
      "constant": true,
      "inputs": [
        {
          "name": "_principle",
          "type": "uint256"
        },
        {
          "name": "_periods",
          "type": "uint256"
        },
        {
          "name": "_rate",
          "type": "uint256"
        }
      ],
      "name": "compound",
      "outputs": [
        {
          "name": "",
          "type": "uint256"
        }
      ],
      "payable": false,
      "stateMutability": "pure",
      "type": "function"
    },
    {
      "constant": true,
      "inputs": [
        {
          "name": "_staker",
          "type": "address"
        },
        {
          "name": "_stakeIndex",
          "type": "uint256"
        }
      ],
      "name": "calculateStakingRewards",
      "outputs": [
        {
          "name": "",
          "type": "uint256"
        }
      ],
      "payable": false,
      "stateMutability": "view",
      "type": "function"
    },
    {
      "inputs": [
        {
          "name": "_originAddress",
          "type": "address"
        },
        {
          "name": "_rootUtxoMerkleTreeHash",
          "type": "bytes32"
        },
        {
          "name": "_maximumRedeemable",
          "type": "uint256"
        },
        {
          "name": "_totalBtcCirculationAtFork",
          "type": "uint256"
        }
      ],
      "payable": false,
      "stateMutability": "nonpayable",
      "type": "constructor"
    },
    {
      "anonymous": false,
      "inputs": [
        {
          "indexed": true,
          "name": "_address",
          "type": "address"
        },
        {
          "indexed": false,
          "name": "_reward",
          "type": "uint256"
        }
      ],
      "name": "Mint",
      "type": "event"
    },
    {
      "anonymous": false,
      "inputs": [
        {
          "indexed": true,
          "name": "owner",
          "type": "address"
        },
        {
          "indexed": true,
          "name": "spender",
          "type": "address"
        },
        {
          "indexed": false,
          "name": "value",
          "type": "uint256"
        }
      ],
      "name": "Approval",
      "type": "event"
    },
    {
      "anonymous": false,
      "inputs": [
        {
          "indexed": true,
          "name": "from",
          "type": "address"
        },
        {
          "indexed": true,
          "name": "to",
          "type": "address"
        },
        {
          "indexed": false,
          "name": "value",
          "type": "uint256"
        }
      ],
      "name": "Transfer",
      "type": "event"
    }
  ],
  "bytecode": "0x6080604052600060055560006009556040805190810160405280600a81526020017f426974636f696e48657800000000000000000000000000000000000000000000815250600e90805190602001906200005b92919062000169565b506040805190810160405280600381526020017f4248580000000000000000000000000000000000000000000000000000000000815250600f9080519060200190620000a992919062000169565b506012601055348015620000bc57600080fd5b5060405160808062004b94833981018060405281019080805190602001909291908051906020019092919080519060200190929190805190602001909291905050504260048190555083600360006101000a81548173ffffffffffffffffffffffffffffffffffffffff021916908373ffffffffffffffffffffffffffffffffffffffff160217905550826007816000191690555081600a8190555080600b819055505050505062000218565b828054600181600116156101000203166002900490600052602060002090601f016020900481019282601f10620001ac57805160ff1916838001178555620001dd565b82800160010185558215620001dd579182015b82811115620001dc578251825591602001919060010190620001bf565b5b509050620001ec9190620001f0565b5090565b6200021591905b8082111562000211576000816000905550600101620001f7565b5090565b90565b61496c80620002286000396000f300608060405260043610610246576000357c0100000000000000000000000000000000000000000000000000000000900463ffffffff16806306fdde031461024b5780630867c0ad146102db57806308b4312b14610379578063095ea7b3146103a4578063128bfcae1461040957806316043f5d146104585780631765f4bf1461048357806318160ddd146104ae578063229cfc32146104d957806323b872dd1461051a578063290baf481461059f5780632c3ee88c1461060057806330fd546e14610641578063313ce56714610682578063443de10c146106ad5780635418796c1461070457806366188463146107ad578063687cf4a4146108125780636aaf67e21461085b5780636e20f0a51461088e57806370a08231146108f9578063753bf8cd14610950578063790ca41314610a4f5780637cdafe9d14610a7a57806381437de814610adb57806381cd84b914610b405780638d854c3414610bcc5780638f16981614610bf75780639283032c14610c6d578063938b5f3214610c8457806395d89b4114610cdb5780639d65b89214610d6b578063a9059cbb14610d96578063b1ccf19314610dfb578063b242c9bf14610ec1578063b27f7a0e14610f2c578063b80ac7df14610f77578063cb9c501f14611003578063ce267b5514611072578063cfc2334e1461113c578063d73dd623146111dd578063dd2a8b1114611242578063dd62ed3e14611299578063e073ef6914611310578063e26e7b50146113b7578063f35dad40146113f8578063f3c85eba14611423578063f6c45d0214611478575b600080fd5b34801561025757600080fd5b506102606114d9565b6040518080602001828103825283818151815260200191508051906020019080838360005b838110156102a0578082015181840152602081019050610285565b50505050905090810190601f1680156102cd5780820380516001836020036101000a031916815260200191505b509250505060405180910390f35b3480156102e757600080fd5b5061035f6004803603810190808035600019169060200190929190803560ff16906020019092919080356000191690602001909291908035600019169060200190929190803573ffffffffffffffffffffffffffffffffffffffff169060200190929190803515159060200190929190505050611577565b604051808215151515815260200191505060405180910390f35b34801561038557600080fd5b5061038e611762565b6040518082815260200191505060405180910390f35b3480156103b057600080fd5b506103ef600480360381019080803573ffffffffffffffffffffffffffffffffffffffff16906020019092919080359060200190929190505050611768565b604051808215151515815260200191505060405180910390f35b34801561041557600080fd5b5061043e600480360381019080803590602001909291908035906020019092919050505061185a565b604051808215151515815260200191505060405180910390f35b34801561046457600080fd5b5061046d611b68565b6040518082815260200191505060405180910390f35b34801561048f57600080fd5b50610498611b6d565b6040518082815260200191505060405180910390f35b3480156104ba57600080fd5b506104c3611b73565b6040518082815260200191505060405180910390f35b3480156104e557600080fd5b5061050460048036038101908080359060200190929190505050611b7d565b6040518082815260200191505060405180910390f35b34801561052657600080fd5b50610585600480360381019080803573ffffffffffffffffffffffffffffffffffffffff169060200190929190803573ffffffffffffffffffffffffffffffffffffffff16906020019092919080359060200190929190505050611bc2565b604051808215151515815260200191505060405180910390f35b3480156105ab57600080fd5b506105ea600480360381019080803573ffffffffffffffffffffffffffffffffffffffff16906020019092919080359060200190929190505050611f7c565b6040518082815260200191505060405180910390f35b34801561060c57600080fd5b5061062b60048036038101908080359060200190929190505050612072565b6040518082815260200191505060405180910390f35b34801561064d57600080fd5b5061066c600480360381019080803590602001909291905050506123ec565b6040518082815260200191505060405180910390f35b34801561068e57600080fd5b50610697612404565b6040518082815260200191505060405180910390f35b3480156106b957600080fd5b506106ee600480360381019080803573ffffffffffffffffffffffffffffffffffffffff16906020019092919050505061240a565b6040518082815260200191505060405180910390f35b34801561071057600080fd5b5061076b600480360381019080803590602001908201803590602001908080601f01602080910402602001604051908101604052809392919081815260200183838082843782019150505050505091929192905050506124c8565b604051808273ffffffffffffffffffffffffffffffffffffffff1673ffffffffffffffffffffffffffffffffffffffff16815260200191505060405180910390f35b3480156107b957600080fd5b506107f8600480360381019080803573ffffffffffffffffffffffffffffffffffffffff1690602001909291908035906020019092919050505061254e565b604051808215151515815260200191505060405180910390f35b34801561081e57600080fd5b5061084160048036038101908080356000191690602001909291905050506127df565b604051808215151515815260200191505060405180910390f35b34801561086757600080fd5b506108706127ff565b60405180826000191660001916815260200191505060405180910390f35b34801561089a57600080fd5b506108e3600480360381019080803573ffffffffffffffffffffffffffffffffffffffff1690602001909291908035906020019092919080359060200190929190505050612805565b6040518082815260200191505060405180910390f35b34801561090557600080fd5b5061093a600480360381019080803573ffffffffffffffffffffffffffffffffffffffff1690602001909291905050506128d8565b6040518082815260200191505060405180910390f35b34801561095c57600080fd5b50610a396004803603810190808035906020019092919080359060200190820180359060200190808060200260200160405190810160405280939291908181526020018383602002808284378201915050505050509192919290803590602001908201803590602001908080601f0160208091040260200160405190810160405280939291908181526020018383808284378201915050505050509192919290803515159060200190929190803560ff16906020019092919080356000191690602001909291908035600019169060200190929190505050612920565b6040518082815260200191505060405180910390f35b348015610a5b57600080fd5b50610a64612bc4565b6040518082815260200191505060405180910390f35b348015610a8657600080fd5b50610ac5600480360381019080803573ffffffffffffffffffffffffffffffffffffffff16906020019092919080359060200190929190505050612bca565b6040518082815260200191505060405180910390f35b348015610ae757600080fd5b50610b26600480360381019080803573ffffffffffffffffffffffffffffffffffffffff16906020019092919080359060200190929190505050612cd7565b604051808215151515815260200191505060405180910390f35b348015610b4c57600080fd5b50610bb260048036038101908080356000191690602001909291908035906020019082018035906020019080806020026020016040519081016040528093929190818152602001838360200280828437820191505050505050919291929050505061315c565b604051808215151515815260200191505060405180910390f35b348015610bd857600080fd5b50610be16131a7565b6040518082815260200191505060405180910390f35b348015610c0357600080fd5b50610c42600480360381019080803573ffffffffffffffffffffffffffffffffffffffff169060200190929190803590602001909291905050506131ad565b6040518085815260200184815260200183815260200182815260200194505050505060405180910390f35b348015610c7957600080fd5b50610c826131f9565b005b348015610c9057600080fd5b50610c9961327f565b604051808273ffffffffffffffffffffffffffffffffffffffff1673ffffffffffffffffffffffffffffffffffffffff16815260200191505060405180910390f35b348015610ce757600080fd5b50610cf06132a5565b6040518080602001828103825283818151815260200191508051906020019080838360005b83811015610d30578082015181840152602081019050610d15565b50505050905090810190601f168015610d5d5780820380516001836020036101000a031916815260200191505b509250505060405180910390f35b348015610d7757600080fd5b50610d80613343565b6040518082815260200191505060405180910390f35b348015610da257600080fd5b50610de1600480360381019080803573ffffffffffffffffffffffffffffffffffffffff16906020019092919080359060200190929190505050613349565b604051808215151515815260200191505060405180910390f35b348015610e0757600080fd5b50610eab60048036038101908080359060200190929190803590602001908201803590602001919091929391929390803590602001908201803590602001919091929391929390803515159060200190929190803560ff16906020019092919080356000191690602001909291908035600019169060200190929190803573ffffffffffffffffffffffffffffffffffffffff169060200190929190505050613568565b6040518082815260200191505060405180910390f35b348015610ecd57600080fd5b50610f16600480360381019080803573ffffffffffffffffffffffffffffffffffffffff1690602001909291908035906020019092919080359060200190929190505050613738565b6040518082815260200191505060405180910390f35b348015610f3857600080fd5b50610f616004803603810190808035906020019092919080359060200190929190505050613900565b6040518082815260200191505060405180910390f35b348015610f8357600080fd5b50610fe96004803603810190808035906020019082018035906020019080806020026020016040519081016040528093929190818152602001838360200280828437820191505050505050919291929080356000191690602001909291905050506139da565b604051808215151515815260200191505060405180910390f35b34801561100f57600080fd5b50611058600480360381019080803573ffffffffffffffffffffffffffffffffffffffff16906020019092919080359060200190929190803590602001909291905050506139f1565b604051808215151515815260200191505060405180910390f35b34801561107e57600080fd5b50611122600480360381019080803573ffffffffffffffffffffffffffffffffffffffff169060200190929190803590602001908201803590602001908080601f0160208091040260200160405190810160405280939291908181526020018383808284378201915050505050509192919290803560ff16906020019092919080356000191690602001909291908035600019169060200190929190505050613aea565b604051808215151515815260200191505060405180910390f35b34801561114857600080fd5b506111c360048036038101908080356bffffffffffffffffffffffff191690602001909291908035906020019092919080359060200190820180359060200190808060200260200160405190810160405280939291908181526020018383602002808284378201915050505050509192919290505050613c09565b604051808215151515815260200191505060405180910390f35b3480156111e957600080fd5b50611228600480360381019080803573ffffffffffffffffffffffffffffffffffffffff16906020019092919080359060200190929190505050613cca565b604051808215151515815260200191505060405180910390f35b34801561124e57600080fd5b50611283600480360381019080803573ffffffffffffffffffffffffffffffffffffffff169060200190929190505050613ec6565b6040518082815260200191505060405180910390f35b3480156112a557600080fd5b506112fa600480360381019080803573ffffffffffffffffffffffffffffffffffffffff169060200190929190803573ffffffffffffffffffffffffffffffffffffffff169060200190929190505050613f20565b6040518082815260200191505060405180910390f35b34801561131c57600080fd5b50611383600480360381019080803590602001908201803590602001908080601f0160208091040260200160405190810160405280939291908181526020018383808284378201915050505050509192919290803515159060200190929190505050613fa7565b60405180826bffffffffffffffffffffffff19166bffffffffffffffffffffffff1916815260200191505060405180910390f35b3480156113c357600080fd5b506113e260048036038101908080359060200190929190505050614366565b6040518082815260200191505060405180910390f35b34801561140457600080fd5b5061140d6143ab565b6040518082815260200191505060405180910390f35b34801561142f57600080fd5b506114626004803603810190808035906020019092919080359060200190929190803590602001909291905050506143b1565b6040518082815260200191505060405180910390f35b34801561148457600080fd5b506114c3600480360381019080803573ffffffffffffffffffffffffffffffffffffffff169060200190929190803590602001909291905050506144c7565b6040518082815260200191505060405180910390f35b600e8054600181600116156101000203166002900480601f01602080910402602001604051908101604052809291908181526020018280546001816001161561010002031660029004801561156f5780601f106115445761010080835404028352916020019161156f565b820191906000526020600020905b81548152906001019060200180831161155257829003601f168201915b505050505081565b600080606083151561158b578891506116a5565b6040805190810160405280601c81526020017f19457468657265756d205369676e6564204d6573736167653a0a333200000000815250905080896040516020018083805190602001908083835b6020831015156115fd57805182526020820191506020810190506020830392506115d8565b6001836020036101000a0380198251168184511680821785525050505050509050018260001916600019168152602001925050506040516020818303038152906040526040518082805190602001908083835b6020831015156116755780518252602082019150602081019050602083039250611650565b6001836020036101000a038019825116818451168082178552505050505050905001915050604051809103902091505b8473ffffffffffffffffffffffffffffffffffffffff166001838a8a8a604051600081526020016040526040518085600019166000191681526020018460ff1660ff1681526020018360001916600019168152602001826000191660001916815260200194505050505060206040516020810390808403906000865af1158015611733573d6000803e3d6000fd5b5050506020604051035173ffffffffffffffffffffffffffffffffffffffff1614925050509695505050505050565b600a5481565b600081600260003373ffffffffffffffffffffffffffffffffffffffff1673ffffffffffffffffffffffffffffffffffffffff16815260200190815260200160002060008573ffffffffffffffffffffffffffffffffffffffff1673ffffffffffffffffffffffffffffffffffffffff168152602001908152602001600020819055508273ffffffffffffffffffffffffffffffffffffffff163373ffffffffffffffffffffffffffffffffffffffff167f8c5be1e5ebec7d5bd14f71427d1e84f3dd0314c0f7b2291e5b200ac8c7c3b925846040518082815260200191505060405180910390a36001905092915050565b600080339050836000808373ffffffffffffffffffffffffffffffffffffffff1673ffffffffffffffffffffffffffffffffffffffff16815260200190815260200160002054101515156118ad57600080fd5b6118c3620d2f004261460290919063ffffffff16565b83101515156118d157600080fd5b6118e863bbf81e004261460290919063ffffffff16565b83111515156118f657600080fd5b6118fe6131f9565b61194f846000808473ffffffffffffffffffffffffffffffffffffffff1673ffffffffffffffffffffffffffffffffffffffff1681526020019081526020016000205461461e90919063ffffffff16565b6000808373ffffffffffffffffffffffffffffffffffffffff1673ffffffffffffffffffffffffffffffffffffffff168152602001908152602001600020819055506119e2846000803073ffffffffffffffffffffffffffffffffffffffff1673ffffffffffffffffffffffffffffffffffffffff1681526020019081526020016000205461460290919063ffffffff16565b6000803073ffffffffffffffffffffffffffffffffffffffff1673ffffffffffffffffffffffffffffffffffffffff168152602001908152602001600020819055503073ffffffffffffffffffffffffffffffffffffffff168173ffffffffffffffffffffffffffffffffffffffff167fddf252ad1be2c89b69c2b068fc378daa952ba7f163c4a11628f55a4df523b3ef866040518082815260200191505060405180910390a3600d60008273ffffffffffffffffffffffffffffffffffffffff1673ffffffffffffffffffffffffffffffffffffffff168152602001908152602001600020608060405190810160405280868152602001428152602001858152602001600c548152509080600181540180825580915050906001820390600052602060002090600402016000909192909190915060008201518160000155602082015181600101556040820151816002015560608201518160030155505050611b5784600c5461460290919063ffffffff16565b600c81905550600191505092915050565b600181565b600c5481565b6000600154905090565b6000611bbb600a611bad600b54611b9f6009548761463790919063ffffffff16565b61466f90919063ffffffff16565b61466f90919063ffffffff16565b9050919050565b60008073ffffffffffffffffffffffffffffffffffffffff168373ffffffffffffffffffffffffffffffffffffffff1614151515611bff57600080fd5b6000808573ffffffffffffffffffffffffffffffffffffffff1673ffffffffffffffffffffffffffffffffffffffff168152602001908152602001600020548211151515611c4c57600080fd5b600260008573ffffffffffffffffffffffffffffffffffffffff1673ffffffffffffffffffffffffffffffffffffffff16815260200190815260200160002060003373ffffffffffffffffffffffffffffffffffffffff1673ffffffffffffffffffffffffffffffffffffffff168152602001908152602001600020548211151515611cd757600080fd5b611d28826000808773ffffffffffffffffffffffffffffffffffffffff1673ffffffffffffffffffffffffffffffffffffffff1681526020019081526020016000205461461e90919063ffffffff16565b6000808673ffffffffffffffffffffffffffffffffffffffff1673ffffffffffffffffffffffffffffffffffffffff16815260200190815260200160002081905550611dbb826000808673ffffffffffffffffffffffffffffffffffffffff1673ffffffffffffffffffffffffffffffffffffffff1681526020019081526020016000205461460290919063ffffffff16565b6000808573ffffffffffffffffffffffffffffffffffffffff1673ffffffffffffffffffffffffffffffffffffffff16815260200190815260200160002081905550611e8c82600260008773ffffffffffffffffffffffffffffffffffffffff1673ffffffffffffffffffffffffffffffffffffffff16815260200190815260200160002060003373ffffffffffffffffffffffffffffffffffffffff1673ffffffffffffffffffffffffffffffffffffffff1681526020019081526020016000205461461e90919063ffffffff16565b600260008673ffffffffffffffffffffffffffffffffffffffff1673ffffffffffffffffffffffffffffffffffffffff16815260200190815260200160002060003373ffffffffffffffffffffffffffffffffffffffff1673ffffffffffffffffffffffffffffffffffffffff168152602001908152602001600020819055508273ffffffffffffffffffffffffffffffffffffffff168473ffffffffffffffffffffffffffffffffffffffff167fddf252ad1be2c89b69c2b068fc378daa952ba7f163c4a11628f55a4df523b3ef846040518082815260200191505060405180910390a3600190509392505050565b600080600d60008573ffffffffffffffffffffffffffffffffffffffff1673ffffffffffffffffffffffffffffffffffffffff16815260200190815260200160002083815481101515611fcb57fe5b9060005260206000209060040201600001549050600d60008573ffffffffffffffffffffffffffffffffffffffff1673ffffffffffffffffffffffffffffffffffffffff1681526020019081526020016000208381548110151561202b57fe5b906000526020600020906004020160020154421115612067576120606120518585612bca565b8261460290919063ffffffff16565b915061206b565b8091505b5092915050565b60008060008060006120926402540be4008761463790919063ffffffff16565b9350683635c9adc5dea0000084111561212b5769152d02c7e14af68000008410156121135761210c640ba43b74006120fe60096120f060026120e264174876e8008b61461e90919063ffffffff16565b61463790919063ffffffff16565b61466f90919063ffffffff16565b61460290919063ffffffff16565b935061212a565b61212760048561466f90919063ffffffff16565b93505b5b426004541061213b576000612166565b61216562093a806121576004544261461e90919063ffffffff16565b61466f90919063ffffffff16565b5b925061218f61217f60028561463790919063ffffffff16565b606461461e90919063ffffffff16565b91506121b760646121a9848761463790919063ffffffff16565b61466f90919063ffffffff16565b9050602d8311156121ca578094506123e3565b6020831115612201576121fa60646121ec60658461463790919063ffffffff16565b61466f90919063ffffffff16565b94506123e3565b601883111561223857612231606461222360668461463790919063ffffffff16565b61466f90919063ffffffff16565b94506123e3565b601283111561226f57612268606461225a60678461463790919063ffffffff16565b61466f90919063ffffffff16565b94506123e3565b600e8311156122a65761229f606461229160688461463790919063ffffffff16565b61466f90919063ffffffff16565b94506123e3565b600a8311156122dd576122d660646122c860698461463790919063ffffffff16565b61466f90919063ffffffff16565b94506123e3565b60078311156123145761230d60646122ff606a8461463790919063ffffffff16565b61466f90919063ffffffff16565b94506123e3565b600583111561234b576123446064612336606b8461463790919063ffffffff16565b61466f90919063ffffffff16565b94506123e3565b60038311156123825761237b606461236d606c8461463790919063ffffffff16565b61466f90919063ffffffff16565b94506123e3565b60018311156123b9576123b260646123a4606d8461463790919063ffffffff16565b61466f90919063ffffffff16565b94506123e3565b6123e060646123d2606e8461463790919063ffffffff16565b61466f90919063ffffffff16565b94505b50505050919050565b60066020528060005260406000206000915090505481565b60105481565b600080600d60008473ffffffffffffffffffffffffffffffffffffffff1673ffffffffffffffffffffffffffffffffffffffff16815260200190815260200160002080549050141561245f57600090506124c3565b6124c08260006124bb6001600d60008873ffffffffffffffffffffffffffffffffffffffff1673ffffffffffffffffffffffffffffffffffffffff1681526020019081526020016000208054905061461e90919063ffffffff16565b612805565b90505b919050565b600073ffffffffffffffffffffffffffffffffffffffff826040518082805190602001908083835b60208310151561251557805182526020820191506020810190506020830392506124f0565b6001836020036101000a038019825116818451168082178552505050505050905001915050604051809103902060019004169050919050565b600080600260003373ffffffffffffffffffffffffffffffffffffffff1673ffffffffffffffffffffffffffffffffffffffff16815260200190815260200160002060008573ffffffffffffffffffffffffffffffffffffffff1673ffffffffffffffffffffffffffffffffffffffff1681526020019081526020016000205490508083111561265f576000600260003373ffffffffffffffffffffffffffffffffffffffff1673ffffffffffffffffffffffffffffffffffffffff16815260200190815260200160002060008673ffffffffffffffffffffffffffffffffffffffff1673ffffffffffffffffffffffffffffffffffffffff168152602001908152602001600020819055506126f3565b612672838261461e90919063ffffffff16565b600260003373ffffffffffffffffffffffffffffffffffffffff1673ffffffffffffffffffffffffffffffffffffffff16815260200190815260200160002060008673ffffffffffffffffffffffffffffffffffffffff1673ffffffffffffffffffffffffffffffffffffffff168152602001908152602001600020819055505b8373ffffffffffffffffffffffffffffffffffffffff163373ffffffffffffffffffffffffffffffffffffffff167f8c5be1e5ebec7d5bd14f71427d1e84f3dd0314c0f7b2291e5b200ac8c7c3b925600260003373ffffffffffffffffffffffffffffffffffffffff1673ffffffffffffffffffffffffffffffffffffffff16815260200190815260200160002060008873ffffffffffffffffffffffffffffffffffffffff1673ffffffffffffffffffffffffffffffffffffffff168152602001908152602001600020546040518082815260200191505060405180910390a3600191505092915050565b60086020528060005260406000206000915054906101000a900460ff1681565b60075481565b600080600083851115151561281957600080fd5b600d60008773ffffffffffffffffffffffffffffffffffffffff1673ffffffffffffffffffffffffffffffffffffffff168152602001908152602001600020805490508410151561286957600080fd5b838514156128825761287b8686611f7c565b92506128cf565b600091508490505b838510156128cb576128ae61289f8783611f7c565b8361460290919063ffffffff16565b91506128c460018261460290919063ffffffff16565b905061288a565b8192505b50509392505050565b60008060008373ffffffffffffffffffffffffffffffffffffffff1673ffffffffffffffffffffffffffffffffffffffff168152602001908152602001600020549050919050565b6000806000600454421015151561293657600080fd5b61293e6131f9565b6129488888613fa7565b9150818a60405160200180836bffffffffffffffffffffffff19166bffffffffffffffffffffffff19168152601401828152602001925050506040516020818303038152906040526040518082805190602001908083835b6020831015156129c557805182526020820191506020810190506020830392506129a0565b6001836020036101000a038019825116818451168082178552505050505050905001915050604051809103902090506129fe818a61315c565b1515612a0957600080fd5b612a163389888888613aea565b1515612a2157600080fd5b600160086000836000191660001916815260200190815260200160002060006101000a81548160ff021916908315150217905550612a5e8a612072565b9250600a54612a788460095461460290919063ffffffff16565b11151515612a8557600080fd5b612a9a8360095461460290919063ffffffff16565b600981905550612af1836000803373ffffffffffffffffffffffffffffffffffffffff1673ffffffffffffffffffffffffffffffffffffffff1681526020019081526020016000205461460290919063ffffffff16565b6000803373ffffffffffffffffffffffffffffffffffffffff1673ffffffffffffffffffffffffffffffffffffffff16815260200190815260200160002081905550612b488360015461460290919063ffffffff16565b6001819055503373ffffffffffffffffffffffffffffffffffffffff16600073ffffffffffffffffffffffffffffffffffffffff167fddf252ad1be2c89b69c2b068fc378daa952ba7f163c4a11628f55a4df523b3ef856040518082815260200191505060405180910390a38292505050979650505050505050565b60045481565b600080600080600080600d60008973ffffffffffffffffffffffffffffffffffffffff1673ffffffffffffffffffffffffffffffffffffffff16815260200190815260200160002087815481101515612c1f57fe5b906000526020600020906004020194506032612c5f62093a80612c51600454896001015461461e90919063ffffffff16565b61466f90919063ffffffff16565b111515612cc757612c7885600101548660020154613900565b9350612c878560000154611b7d565b9250612c968560000154614366565b9150612cbd82612caf858761460290919063ffffffff16565b61460290919063ffffffff16565b9050809550612ccc565b600095505b505050505092915050565b600080600080600080600d60008973ffffffffffffffffffffffffffffffffffffffff1673ffffffffffffffffffffffffffffffffffffffff16815260200190815260200160002087815481101515612d2c57fe5b90600052602060002090600402019450846002015442111515612d4e57600080fd5b612d566131f9565b84600001549350612d6788886144c7565b9250612d738888612bca565b9150612d9a82612d8c858761460290919063ffffffff16565b61460290919063ffffffff16565b9050612de4600d60008a73ffffffffffffffffffffffffffffffffffffffff1673ffffffffffffffffffffffffffffffffffffffff16815260200190815260200160002088614685565b612df984600c5461461e90919063ffffffff16565b600c81905550612e50846000803073ffffffffffffffffffffffffffffffffffffffff1673ffffffffffffffffffffffffffffffffffffffff1681526020019081526020016000205461461e90919063ffffffff16565b6000803073ffffffffffffffffffffffffffffffffffffffff1673ffffffffffffffffffffffffffffffffffffffff16815260200190815260200160002081905550612ee3816000808b73ffffffffffffffffffffffffffffffffffffffff1673ffffffffffffffffffffffffffffffffffffffff1681526020019081526020016000205461460290919063ffffffff16565b6000808a73ffffffffffffffffffffffffffffffffffffffff1673ffffffffffffffffffffffffffffffffffffffff16815260200190815260200160002081905550612f9882600080600360009054906101000a900473ffffffffffffffffffffffffffffffffffffffff1673ffffffffffffffffffffffffffffffffffffffff1673ffffffffffffffffffffffffffffffffffffffff1681526020019081526020016000205461460290919063ffffffff16565b600080600360009054906101000a900473ffffffffffffffffffffffffffffffffffffffff1673ffffffffffffffffffffffffffffffffffffffff1673ffffffffffffffffffffffffffffffffffffffff168152602001908152602001600020819055508773ffffffffffffffffffffffffffffffffffffffff163073ffffffffffffffffffffffffffffffffffffffff167fddf252ad1be2c89b69c2b068fc378daa952ba7f163c4a11628f55a4df523b3ef87600001546040518082815260200191505060405180910390a361308d61307c60028461463790919063ffffffff16565b60015461460290919063ffffffff16565b6001819055508773ffffffffffffffffffffffffffffffffffffffff167f0f6798a560793a54c3bcfe86a93cde1e73087d944c0ea20544137d4121396885836040518082815260200191505060405180910390a2600360009054906101000a900473ffffffffffffffffffffffffffffffffffffffff1673ffffffffffffffffffffffffffffffffffffffff167f0f6798a560793a54c3bcfe86a93cde1e73087d944c0ea20544137d4121396885836040518082815260200191505060405180910390a2505050505092915050565b600080151560086000856000191660001916815260200190815260200160002060009054906101000a900460ff16151514801561319f575061319e82846139da565b5b905092915050565b600b5481565b600d602052816000526040600020818154811015156131c857fe5b9060005260206000209060040201600091509150508060000154908060010154908060020154908060030154905084565b60008061322662093a806132186004544261461e90919063ffffffff16565b61466f90919063ffffffff16565b91506032821115801561323a575060055482115b1561327b57613256600954600a5461461e90919063ffffffff16565b9050806006600060018503815260200190815260200160002081905550816005819055505b5050565b600360009054906101000a900473ffffffffffffffffffffffffffffffffffffffff1681565b600f8054600181600116156101000203166002900480601f01602080910402602001604051908101604052809291908181526020018280546001816001161561010002031660029004801561333b5780601f106133105761010080835404028352916020019161333b565b820191906000526020600020905b81548152906001019060200180831161331e57829003601f168201915b505050505081565b60055481565b60008073ffffffffffffffffffffffffffffffffffffffff168373ffffffffffffffffffffffffffffffffffffffff161415151561338657600080fd5b6000803373ffffffffffffffffffffffffffffffffffffffff1673ffffffffffffffffffffffffffffffffffffffff1681526020019081526020016000205482111515156133d357600080fd5b613424826000803373ffffffffffffffffffffffffffffffffffffffff1673ffffffffffffffffffffffffffffffffffffffff1681526020019081526020016000205461461e90919063ffffffff16565b6000803373ffffffffffffffffffffffffffffffffffffffff1673ffffffffffffffffffffffffffffffffffffffff168152602001908152602001600020819055506134b7826000808673ffffffffffffffffffffffffffffffffffffffff1673ffffffffffffffffffffffffffffffffffffffff1681526020019081526020016000205461460290919063ffffffff16565b6000808573ffffffffffffffffffffffffffffffffffffffff1673ffffffffffffffffffffffffffffffffffffffff168152602001908152602001600020819055508273ffffffffffffffffffffffffffffffffffffffff163373ffffffffffffffffffffffffffffffffffffffff167fddf252ad1be2c89b69c2b068fc378daa952ba7f163c4a11628f55a4df523b3ef846040518082815260200191505060405180910390a36001905092915050565b60003373ffffffffffffffffffffffffffffffffffffffff168273ffffffffffffffffffffffffffffffffffffffff16141515156135a557600080fd5b600073ffffffffffffffffffffffffffffffffffffffff168273ffffffffffffffffffffffffffffffffffffffff16141515156135e157600080fd5b6136518b8b8b808060200260200160405190810160405280939291908181526020018383602002808284378201915050505050508a8a8080601f01602080910402602001604051908101604052809392919081815260200183838082843782019150505050505089898989612920565b90506136b761366a60148361466f90919063ffffffff16565b6000808573ffffffffffffffffffffffffffffffffffffffff1673ffffffffffffffffffffffffffffffffffffffff1681526020019081526020016000205461460290919063ffffffff16565b6000808473ffffffffffffffffffffffffffffffffffffffff1673ffffffffffffffffffffffffffffffffffffffff1681526020019081526020016000208190555061372161371060148361466f90919063ffffffff16565b60015461460290919063ffffffff16565b6001819055508090509a9950505050505050505050565b6000806000806001600d60008973ffffffffffffffffffffffffffffffffffffffff1673ffffffffffffffffffffffffffffffffffffffff1681526020019081526020016000208054905003925082851115151561379557600080fd5b600086101515156137a557600080fd5b6000600d60008973ffffffffffffffffffffffffffffffffffffffff1673ffffffffffffffffffffffffffffffffffffffff1681526020019081526020016000208054905014156137f957600093506138f6565b8486141561386757600d60008873ffffffffffffffffffffffffffffffffffffffff1673ffffffffffffffffffffffffffffffffffffffff168152602001908152602001600020600081548110151561384e57fe5b90600052602060002090600402016000015493506138f6565b8590505b848110156138f2576138e3600d60008973ffffffffffffffffffffffffffffffffffffffff1673ffffffffffffffffffffffffffffffffffffffff168152602001908152602001600020828154811015156138c257fe5b9060005260206000209060040201600001548361460290919063ffffffff16565b9150808060010191505061386b565b8193505b5050509392505050565b6000806000806000806000945061393762093a806139296004548b61461e90919063ffffffff16565b61466f90919063ffffffff16565b935061396362093a806139556004548a61461e90919063ffffffff16565b61466f90919063ffffffff16565b9250603283116139735782613976565b60325b91508390505b818110156139cc576139bd6139ae6032600660008581526020019081526020016000205461466f90919063ffffffff16565b8661460290919063ffffffff16565b9450808060010191505061397c565b849550505050505092915050565b60006139e98360075484614728565b905092915050565b600080828411151515613a0357600080fd5b600d60008673ffffffffffffffffffffffffffffffffffffffff1673ffffffffffffffffffffffffffffffffffffffff168152602001908152602001600020805490508311151515613a5457600080fd5b8390505b82811015613ade57600d60008673ffffffffffffffffffffffffffffffffffffffff1673ffffffffffffffffffffffffffffffffffffffff16815260200190815260200160002081815481101515613aac57fe5b906000526020600020906004020160020154421115613ad157613acf8582612cd7565b505b8080600101915050613a58565b60019150509392505050565b6000613bfe600287604051602001808273ffffffffffffffffffffffffffffffffffffffff1673ffffffffffffffffffffffffffffffffffffffff166c010000000000000000000000000281526014019150506040516020818303038152906040526040518082805190602001908083835b602083101515613b815780518252602082019150602081019050602083039250613b5c565b6001836020036101000a0380198251168184511680821785525050505050509050019150506020604051808303816000865af1158015613bc5573d6000803e3d6000fd5b5050506040513d6020811015613bda57600080fd5b8101908080519060200190929190505050858585613bf78a6124c8565b6000611577565b905095945050505050565b600080848460405160200180836bffffffffffffffffffffffff19166bffffffffffffffffffffffff19168152601401828152602001925050506040516020818303038152906040526040518082805190602001908083835b602083101515613c875780518252602082019150602081019050602083039250613c62565b6001836020036101000a03801982511681845116808217855250505050505090500191505060405180910390209050613cc0818461315c565b9150509392505050565b6000613d5b82600260003373ffffffffffffffffffffffffffffffffffffffff1673ffffffffffffffffffffffffffffffffffffffff16815260200190815260200160002060008673ffffffffffffffffffffffffffffffffffffffff1673ffffffffffffffffffffffffffffffffffffffff1681526020019081526020016000205461460290919063ffffffff16565b600260003373ffffffffffffffffffffffffffffffffffffffff1673ffffffffffffffffffffffffffffffffffffffff16815260200190815260200160002060008573ffffffffffffffffffffffffffffffffffffffff1673ffffffffffffffffffffffffffffffffffffffff168152602001908152602001600020819055508273ffffffffffffffffffffffffffffffffffffffff163373ffffffffffffffffffffffffffffffffffffffff167f8c5be1e5ebec7d5bd14f71427d1e84f3dd0314c0f7b2291e5b200ac8c7c3b925600260003373ffffffffffffffffffffffffffffffffffffffff1673ffffffffffffffffffffffffffffffffffffffff16815260200190815260200160002060008773ffffffffffffffffffffffffffffffffffffffff1673ffffffffffffffffffffffffffffffffffffffff168152602001908152602001600020546040518082815260200191505060405180910390a36001905092915050565b6000613f198260006001600d60008773ffffffffffffffffffffffffffffffffffffffff1673ffffffffffffffffffffffffffffffffffffffff1681526020019081526020016000208054905003613738565b9050919050565b6000600260008473ffffffffffffffffffffffffffffffffffffffff1673ffffffffffffffffffffffffffffffffffffffff16815260200190815260200160002060008373ffffffffffffffffffffffffffffffffffffffff1673ffffffffffffffffffffffffffffffffffffffff16815260200190815260200160002054905092915050565b600080600080613fb88660006147f3565b600190049250613fc98660206147f3565b60019004915084156141a5576000600283811515613fe357fe5b0614613ff0576003613ff3565b60025b9050600360028285604051602001808360ff1660ff167f0100000000000000000000000000000000000000000000000000000000000000028152600101828152602001925050506040516020818303038152906040526040518082805190602001908083835b60208310151561407e5780518252602082019150602081019050602083039250614059565b6001836020036101000a0380198251168184511680821785525050505050509050019150506020604051808303816000865af11580156140c2573d6000803e3d6000fd5b5050506040513d60208110156140d757600080fd5b81019080805190602001909291905050506040516020018082600019166000191681526020019150506040516020818303038152906040526040518082805190602001908083835b602083101515614144578051825260208201915060208101905060208303925061411f565b6001836020036101000a0380198251168184511680821785525050505050509050019150506020604051808303816000865af1158015614188573d6000803e3d6000fd5b505050604051516c0100000000000000000000000002935061435d565b6004905060036002828585604051602001808460ff1660ff167f010000000000000000000000000000000000000000000000000000000000000002815260010183815260200182815260200193505050506040516020818303038152906040526040518082805190602001908083835b60208310151561423a5780518252602082019150602081019050602083039250614215565b6001836020036101000a0380198251168184511680821785525050505050509050019150506020604051808303816000865af115801561427e573d6000803e3d6000fd5b5050506040513d602081101561429357600080fd5b81019080805190602001909291905050506040516020018082600019166000191681526020019150506040516020818303038152906040526040518082805190602001908083835b60208310151561430057805182526020820191506020810190506020830392506142db565b6001836020036101000a0380198251168184511680821785525050505050509050019150506020604051808303816000865af1158015614344573d6000803e3d6000fd5b505050604051516c010000000000000000000000000293505b50505092915050565b60006143a4600a614396600a546143886009548761463790919063ffffffff16565b61466f90919063ffffffff16565b61466f90919063ffffffff16565b9050919050565b60095481565b600080600080600080601e945084888115156143c957fe5b0693506143df858961466f90919063ffffffff16565b92506143f96402540be4008a61466f90919063ffffffff16565b9150600090505b82811015614462576144458460640a614437866144278b600161460290919063ffffffff16565b0a8561463790919063ffffffff16565b61466f90919063ffffffff16565b915061445b60018261460290919063ffffffff16565b9050614400565b61449f8460640a614491866144818b600161460290919063ffffffff16565b0a8561463790919063ffffffff16565b61466f90919063ffffffff16565b91506144b96402540be4008361463790919063ffffffff16565b955050505050509392505050565b600080600080600080600d60008973ffffffffffffffffffffffffffffffffffffffff1673ffffffffffffffffffffffffffffffffffffffff1681526020019081526020016000208781548110151561451c57fe5b906000526020600020906004020194506145416064600161463790919063ffffffff16565b9350600085600301541415614557576001614584565b6145836001546145756064886003015461463790919063ffffffff16565b61466f90919063ffffffff16565b5b9250614599838561466f90919063ffffffff16565b93506145cb620d2f006145bd8760010154886002015461461e90919063ffffffff16565b61466f90919063ffffffff16565b91506145dc856000015483866143b1565b90506145f585600001548261461e90919063ffffffff16565b9550505050505092915050565b6000818301905082811015151561461557fe5b80905092915050565b600082821115151561462c57fe5b818303905092915050565b60008083141561464a5760009050614669565b818302905081838281151561465b57fe5b0414151561466557fe5b8090505b92915050565b6000818381151561467c57fe5b04905092915050565b8161469e6001848054905061461e90919063ffffffff16565b8154811015156146aa57fe5b906000526020600020906004020182828154811015156146c657fe5b9060005260206000209060040201600082015481600001556001820154816001015560028201548160020155600382015481600301559050506147176001838054905061461e90919063ffffffff16565b828161472391906148cf565b505050565b600080600080849250600091505b86518210156147dc57868281518110151561474d57fe5b90602001906020020151905080600019168360001916101561479e578281604051808360001916600019168152602001826000191660001916815260200192505050604051809103902092506147cf565b8083604051808360001916600019168152602001826000191660001916815260200192505050604051809103902092505b8180600101925050614736565b856000191683600019161493505050509392505050565b600080600090505b60208110156148c557600881028484830181518110151561481857fe5b9060200101517f010000000000000000000000000000000000000000000000000000000000000090047f0100000000000000000000000000000000000000000000000000000000000000027effffffffffffffffffffffffffffffffffffffffffffffffffffffffffffff19167fff0000000000000000000000000000000000000000000000000000000000000060010216600019169060020a90048218915080806001019150506147fb565b8191505092915050565b8154818355818111156148fc576004028160040283600052602060002091820191016148fb9190614901565b5b505050565b61493d91905b808211156149395760008082016000905560018201600090556002820160009055600382016000905550600401614907565b5090565b905600a165627a7a72305820ceebe31c5da88a5914ec5b9220d86866fdeb6a6eebcd69318fb1f01ebc4834cc0029",
  "source": "pragma solidity ^0.4.23;\nimport \"./StakeableToken.sol\";\n\n\ncontract BitcoinHex is StakeableToken {\n  string public name = \"BitcoinHex\"; \n  string public symbol = \"BHX\";\n  uint public decimals = 18;\n\n  constructor (\n    address _originAddress,\n    bytes32 _rootUtxoMerkleTreeHash,\n    uint256 _maximumRedeemable,\n    uint256 _totalBtcCirculationAtFork\n  ) \n    public\n  {\n    launchTime = block.timestamp;\n    origin = _originAddress;\n    rootUtxoMerkleTreeHash = _rootUtxoMerkleTreeHash;\n    maximumRedeemable = _maximumRedeemable;\n    totalBtcCirculationAtFork = _totalBtcCirculationAtFork;\n  }\n}\n",
  "sourcePath": "/Users/tovarishfin/dev/bhx/bhx-contracts/contracts/BitcoinHex.sol",
  "compiler": {
    "name": "solc",
    "version": "0.4.24+commit.e67f0147.Emscripten.clang"
  },
  "schemaVersion": "2.0.0",
  "updatedAt": "2018-07-30T14:39:22.249Z"
}