{
  "contractName": "BitcoinHexStub",
  "abi": [
    {
      "constant": true,
      "inputs": [],
      "name": "name",
      "outputs": [
        {
          "name": "",
          "type": "string"
        }
      ],
      "payable": false,
      "stateMutability": "view",
      "type": "function"
    },
    {
      "constant": true,
      "inputs": [
        {
          "name": "_hash",
          "type": "bytes32"
        },
        {
          "name": "_v",
          "type": "uint8"
        },
        {
          "name": "_r",
          "type": "bytes32"
        },
        {
          "name": "_s",
          "type": "bytes32"
        },
        {
          "name": "_expected",
          "type": "address"
        },
        {
          "name": "_addPrefix",
          "type": "bool"
        }
      ],
      "name": "validateSignature",
      "outputs": [
        {
          "name": "",
          "type": "bool"
        }
      ],
      "payable": false,
      "stateMutability": "pure",
      "type": "function"
    },
    {
      "constant": true,
      "inputs": [],
      "name": "maximumRedeemable",
      "outputs": [
        {
          "name": "",
          "type": "uint256"
        }
      ],
      "payable": false,
      "stateMutability": "view",
      "type": "function"
    },
    {
      "constant": false,
      "inputs": [
        {
          "name": "_spender",
          "type": "address"
        },
        {
          "name": "_value",
          "type": "uint256"
        }
      ],
      "name": "approve",
      "outputs": [
        {
          "name": "",
          "type": "bool"
        }
      ],
      "payable": false,
      "stateMutability": "nonpayable",
      "type": "function"
    },
    {
      "constant": false,
      "inputs": [
        {
          "name": "_value",
          "type": "uint256"
        },
        {
          "name": "_unlockTime",
          "type": "uint256"
        }
      ],
      "name": "startStake",
      "outputs": [
        {
          "name": "",
          "type": "bool"
        }
      ],
      "payable": false,
      "stateMutability": "nonpayable",
      "type": "function"
    },
    {
      "constant": true,
      "inputs": [],
      "name": "interestRatePercent",
      "outputs": [
        {
          "name": "",
          "type": "uint256"
        }
      ],
      "payable": false,
      "stateMutability": "view",
      "type": "function"
    },
    {
      "constant": true,
      "inputs": [],
      "name": "totalStakedCoins",
      "outputs": [
        {
          "name": "",
          "type": "uint256"
        }
      ],
      "payable": false,
      "stateMutability": "view",
      "type": "function"
    },
    {
      "constant": true,
      "inputs": [],
      "name": "totalSupply",
      "outputs": [
        {
          "name": "",
          "type": "uint256"
        }
      ],
      "payable": false,
      "stateMutability": "view",
      "type": "function"
    },
    {
      "constant": true,
      "inputs": [
        {
          "name": "_stakeAmount",
          "type": "uint256"
        }
      ],
      "name": "calculateViralRewards",
      "outputs": [
        {
          "name": "",
          "type": "uint256"
        }
      ],
      "payable": false,
      "stateMutability": "view",
      "type": "function"
    },
    {
      "constant": false,
      "inputs": [
        {
          "name": "_from",
          "type": "address"
        },
        {
          "name": "_to",
          "type": "address"
        },
        {
          "name": "_value",
          "type": "uint256"
        }
      ],
      "name": "transferFrom",
      "outputs": [
        {
          "name": "",
          "type": "bool"
        }
      ],
      "payable": false,
      "stateMutability": "nonpayable",
      "type": "function"
    },
    {
      "constant": true,
      "inputs": [
        {
          "name": "_satoshis",
          "type": "uint256"
        }
      ],
      "name": "getRedeemAmount",
      "outputs": [
        {
          "name": "",
          "type": "uint256"
        }
      ],
      "payable": false,
      "stateMutability": "view",
      "type": "function"
    },
    {
      "constant": true,
      "inputs": [],
      "name": "isDuringBonusPeriod",
      "outputs": [
        {
          "name": "",
          "type": "bool"
        }
      ],
      "payable": false,
      "stateMutability": "view",
      "type": "function"
    },
    {
      "constant": true,
      "inputs": [
        {
          "name": "",
          "type": "uint256"
        }
      ],
      "name": "unclaimedCoinsByWeek",
      "outputs": [
        {
          "name": "",
          "type": "uint256"
        }
      ],
      "payable": false,
      "stateMutability": "view",
      "type": "function"
    },
    {
      "constant": true,
      "inputs": [],
      "name": "decimals",
      "outputs": [
        {
          "name": "",
          "type": "uint256"
        }
      ],
      "payable": false,
      "stateMutability": "view",
      "type": "function"
    },
    {
      "constant": true,
      "inputs": [],
      "name": "oneInterestPeriodInSeconds",
      "outputs": [
        {
          "name": "",
          "type": "uint256"
        }
      ],
      "payable": false,
      "stateMutability": "view",
      "type": "function"
    },
    {
      "constant": true,
      "inputs": [],
      "name": "redeemedCount",
      "outputs": [
        {
          "name": "",
          "type": "uint256"
        }
      ],
      "payable": false,
      "stateMutability": "view",
      "type": "function"
    },
    {
      "constant": true,
      "inputs": [
        {
          "name": "_pubKey",
          "type": "bytes"
        }
      ],
      "name": "pubKeyToEthereumAddress",
      "outputs": [
        {
          "name": "",
          "type": "address"
        }
      ],
      "payable": false,
      "stateMutability": "pure",
      "type": "function"
    },
    {
      "constant": true,
      "inputs": [],
      "name": "maxStakingTimeInSeconds",
      "outputs": [
        {
          "name": "",
          "type": "uint256"
        }
      ],
      "payable": false,
      "stateMutability": "view",
      "type": "function"
    },
    {
      "constant": false,
      "inputs": [
        {
          "name": "_spender",
          "type": "address"
        },
        {
          "name": "_subtractedValue",
          "type": "uint256"
        }
      ],
      "name": "decreaseApproval",
      "outputs": [
        {
          "name": "",
          "type": "bool"
        }
      ],
      "payable": false,
      "stateMutability": "nonpayable",
      "type": "function"
    },
    {
      "constant": true,
      "inputs": [
        {
          "name": "",
          "type": "bytes32"
        }
      ],
      "name": "redeemedUTXOs",
      "outputs": [
        {
          "name": "",
          "type": "bool"
        }
      ],
      "payable": false,
      "stateMutability": "view",
      "type": "function"
    },
    {
      "constant": true,
      "inputs": [],
      "name": "rootUtxoMerkleTreeHash",
      "outputs": [
        {
          "name": "",
          "type": "bytes32"
        }
      ],
      "payable": false,
      "stateMutability": "view",
      "type": "function"
    },
    {
      "constant": true,
      "inputs": [
        {
          "name": "_owner",
          "type": "address"
        }
      ],
      "name": "balanceOf",
      "outputs": [
        {
          "name": "",
          "type": "uint256"
        }
      ],
      "payable": false,
      "stateMutability": "view",
      "type": "function"
    },
    {
      "constant": false,
      "inputs": [
        {
          "name": "_satoshis",
          "type": "uint256"
        },
        {
          "name": "_proof",
          "type": "bytes32[]"
        },
        {
          "name": "_pubKey",
          "type": "bytes"
        },
        {
          "name": "_isCompressed",
          "type": "bool"
        },
        {
          "name": "_v",
          "type": "uint8"
        },
        {
          "name": "_r",
          "type": "bytes32"
        },
        {
          "name": "_s",
          "type": "bytes32"
        }
      ],
      "name": "redeemUtxo",
      "outputs": [
        {
          "name": "_tokensRedeemed",
          "type": "uint256"
        }
      ],
      "payable": false,
      "stateMutability": "nonpayable",
      "type": "function"
    },
    {
      "constant": false,
      "inputs": [
        {
          "name": "_staker",
          "type": "address"
        }
      ],
      "name": "claimAllStakingRewards",
      "outputs": [
        {
          "name": "",
          "type": "bool"
        }
      ],
      "payable": false,
      "stateMutability": "nonpayable",
      "type": "function"
    },
    {
      "constant": true,
      "inputs": [],
      "name": "launchTime",
      "outputs": [
        {
          "name": "",
          "type": "uint256"
        }
      ],
      "payable": false,
      "stateMutability": "view",
      "type": "function"
    },
    {
      "constant": true,
      "inputs": [
        {
          "name": "_staker",
          "type": "address"
        },
        {
          "name": "_stakeIndex",
          "type": "uint256"
        }
      ],
      "name": "calculateAdditionalRewards",
      "outputs": [
        {
          "name": "",
          "type": "uint256"
        }
      ],
      "payable": false,
      "stateMutability": "view",
      "type": "function"
    },
    {
      "constant": false,
      "inputs": [
        {
          "name": "_staker",
          "type": "address"
        },
        {
          "name": "_stakeIndex",
          "type": "uint256"
        }
      ],
      "name": "claimSingleStakingReward",
      "outputs": [
        {
          "name": "",
          "type": "bool"
        }
      ],
      "payable": false,
      "stateMutability": "nonpayable",
      "type": "function"
    },
    {
      "constant": true,
      "inputs": [
        {
          "name": "_merkleLeafHash",
          "type": "bytes32"
        },
        {
          "name": "_proof",
          "type": "bytes32[]"
        }
      ],
      "name": "canRedeemUtxoHash",
      "outputs": [
        {
          "name": "",
          "type": "bool"
        }
      ],
      "payable": false,
      "stateMutability": "view",
      "type": "function"
    },
    {
      "constant": true,
      "inputs": [
        {
          "name": "_staker",
          "type": "address"
        }
      ],
      "name": "getUserStakes",
      "outputs": [
        {
          "name": "",
          "type": "uint256[]"
        },
        {
          "name": "",
          "type": "uint256[]"
        },
        {
          "name": "",
          "type": "uint256[]"
        },
        {
          "name": "",
          "type": "uint256[]"
        }
      ],
      "payable": false,
      "stateMutability": "view",
      "type": "function"
    },
    {
      "constant": false,
      "inputs": [
        {
          "name": "_staker",
          "type": "address"
        },
        {
          "name": "_stakeIndex",
          "type": "uint256"
        }
      ],
      "name": "removeArrayEntry",
      "outputs": [],
      "payable": false,
      "stateMutability": "nonpayable",
      "type": "function"
    },
    {
      "constant": true,
      "inputs": [],
      "name": "totalBtcCirculationAtFork",
      "outputs": [
        {
          "name": "",
          "type": "uint256"
        }
      ],
      "payable": false,
      "stateMutability": "view",
      "type": "function"
    },
    {
      "constant": true,
      "inputs": [
        {
          "name": "",
          "type": "address"
        },
        {
          "name": "",
          "type": "uint256"
        }
      ],
      "name": "staked",
      "outputs": [
        {
          "name": "stakeAmount",
          "type": "uint256"
        },
        {
          "name": "stakeTime",
          "type": "uint256"
        },
        {
          "name": "unlockTime",
          "type": "uint256"
        },
        {
          "name": "totalStakedCoinsAtStart",
          "type": "uint256"
        },
        {
          "name": "totalSupplyAtStart",
          "type": "uint256"
        }
      ],
      "payable": false,
      "stateMutability": "view",
      "type": "function"
    },
    {
      "constant": false,
      "inputs": [],
      "name": "storeWeekUnclaimed",
      "outputs": [],
      "payable": false,
      "stateMutability": "nonpayable",
      "type": "function"
    },
    {
      "constant": true,
      "inputs": [],
      "name": "origin",
      "outputs": [
        {
          "name": "",
          "type": "address"
        }
      ],
      "payable": false,
      "stateMutability": "view",
      "type": "function"
    },
    {
      "constant": true,
      "inputs": [],
      "name": "getWeeksSinceLaunch",
      "outputs": [
        {
          "name": "",
          "type": "uint256"
        }
      ],
      "payable": false,
      "stateMutability": "view",
      "type": "function"
    },
    {
      "constant": true,
      "inputs": [],
      "name": "symbol",
      "outputs": [
        {
          "name": "",
          "type": "string"
        }
      ],
      "payable": false,
      "stateMutability": "view",
      "type": "function"
    },
    {
      "constant": true,
      "inputs": [],
      "name": "lastUpdatedWeek",
      "outputs": [
        {
          "name": "",
          "type": "uint256"
        }
      ],
      "payable": false,
      "stateMutability": "view",
      "type": "function"
    },
    {
      "constant": false,
      "inputs": [
        {
          "name": "_to",
          "type": "address"
        },
        {
          "name": "_value",
          "type": "uint256"
        }
      ],
      "name": "transfer",
      "outputs": [
        {
          "name": "",
          "type": "bool"
        }
      ],
      "payable": false,
      "stateMutability": "nonpayable",
      "type": "function"
    },
    {
      "constant": false,
      "inputs": [
        {
          "name": "_satoshis",
          "type": "uint256"
        },
        {
          "name": "_proof",
          "type": "bytes32[]"
        },
        {
          "name": "_pubKey",
          "type": "bytes"
        },
        {
          "name": "_isCompressed",
          "type": "bool"
        },
        {
          "name": "_v",
          "type": "uint8"
        },
        {
          "name": "_r",
          "type": "bytes32"
        },
        {
          "name": "_s",
          "type": "bytes32"
        },
        {
          "name": "_referrer",
          "type": "address"
        }
      ],
      "name": "redeemReferredUtxo",
      "outputs": [
        {
          "name": "_tokensRedeemed",
          "type": "uint256"
        }
      ],
      "payable": false,
      "stateMutability": "nonpayable",
      "type": "function"
    },
    {
      "constant": true,
      "inputs": [
        {
          "name": "_staker",
          "type": "address"
        },
        {
          "name": "_startIndex",
          "type": "uint256"
        },
        {
          "name": "_endIndex",
          "type": "uint256"
        }
      ],
      "name": "getStakedAtIndexes",
      "outputs": [
        {
          "name": "",
          "type": "uint256"
        }
      ],
      "payable": false,
      "stateMutability": "view",
      "type": "function"
    },
    {
      "constant": true,
      "inputs": [
        {
          "name": "_stakeTime",
          "type": "uint256"
        },
        {
          "name": "_unlockTime",
          "type": "uint256"
        }
      ],
      "name": "calculateWeAreAllSatoshiRewards",
      "outputs": [
        {
          "name": "",
          "type": "uint256"
        }
      ],
      "payable": false,
      "stateMutability": "view",
      "type": "function"
    },
    {
      "constant": true,
      "inputs": [
        {
          "name": "_proof",
          "type": "bytes32[]"
        },
        {
          "name": "_merkleLeafHash",
          "type": "bytes32"
        }
      ],
      "name": "verifyProof",
      "outputs": [
        {
          "name": "",
          "type": "bool"
        }
      ],
      "payable": false,
      "stateMutability": "view",
      "type": "function"
    },
    {
      "constant": true,
      "inputs": [
        {
          "name": "_staker",
          "type": "address"
        }
      ],
      "name": "getTotalUserStaked",
      "outputs": [
        {
          "name": "",
          "type": "uint256"
        }
      ],
      "payable": false,
      "stateMutability": "view",
      "type": "function"
    },
    {
      "constant": false,
      "inputs": [
        {
          "name": "_staker",
          "type": "address"
        },
        {
          "name": "_startIndex",
          "type": "uint256"
        },
        {
          "name": "_endIndex",
          "type": "uint256"
        }
      ],
      "name": "claimMultipleStakingRewards",
      "outputs": [
        {
          "name": "",
          "type": "bool"
        }
      ],
      "payable": false,
      "stateMutability": "nonpayable",
      "type": "function"
    },
    {
      "constant": true,
      "inputs": [
        {
          "name": "_addr",
          "type": "address"
        },
        {
          "name": "_pubKey",
          "type": "bytes"
        },
        {
          "name": "_v",
          "type": "uint8"
        },
        {
          "name": "_r",
          "type": "bytes32"
        },
        {
          "name": "_s",
          "type": "bytes32"
        }
      ],
      "name": "ecdsaVerify",
      "outputs": [
        {
          "name": "",
          "type": "bool"
        }
      ],
      "payable": false,
      "stateMutability": "pure",
      "type": "function"
    },
    {
      "constant": true,
      "inputs": [
        {
          "name": "_originalAddress",
          "type": "bytes20"
        },
        {
          "name": "_satoshis",
          "type": "uint256"
        },
        {
          "name": "_proof",
          "type": "bytes32[]"
        }
      ],
      "name": "canRedeemUtxo",
      "outputs": [
        {
          "name": "",
          "type": "bool"
        }
      ],
      "payable": false,
      "stateMutability": "view",
      "type": "function"
    },
    {
      "constant": false,
      "inputs": [
        {
          "name": "_spender",
          "type": "address"
        },
        {
          "name": "_addedValue",
          "type": "uint256"
        }
      ],
      "name": "increaseApproval",
      "outputs": [
        {
          "name": "",
          "type": "bool"
        }
      ],
      "payable": false,
      "stateMutability": "nonpayable",
      "type": "function"
    },
    {
      "constant": true,
      "inputs": [
        {
          "name": "_owner",
          "type": "address"
        },
        {
          "name": "_spender",
          "type": "address"
        }
      ],
      "name": "allowance",
      "outputs": [
        {
          "name": "",
          "type": "uint256"
        }
      ],
      "payable": false,
      "stateMutability": "view",
      "type": "function"
    },
    {
      "constant": true,
      "inputs": [
        {
          "name": "_pubKey",
          "type": "bytes"
        },
        {
          "name": "_isCompressed",
          "type": "bool"
        }
      ],
      "name": "pubKeyToBitcoinAddress",
      "outputs": [
        {
          "name": "",
          "type": "bytes20"
        }
      ],
      "payable": false,
      "stateMutability": "pure",
      "type": "function"
    },
    {
      "constant": true,
      "inputs": [
        {
          "name": "_stakeAmount",
          "type": "uint256"
        }
      ],
      "name": "calculateCritMassRewards",
      "outputs": [
        {
          "name": "",
          "type": "uint256"
        }
      ],
      "payable": false,
      "stateMutability": "view",
      "type": "function"
    },
    {
      "constant": true,
      "inputs": [
        {
          "name": "_staker",
          "type": "address"
        },
        {
          "name": "_stakeIndex",
          "type": "uint256"
        }
      ],
      "name": "calculateSingleStakePlusRewards",
      "outputs": [
        {
          "name": "",
          "type": "uint256"
        }
      ],
      "payable": false,
      "stateMutability": "view",
      "type": "function"
    },
    {
      "constant": true,
      "inputs": [],
      "name": "totalRedeemed",
      "outputs": [
        {
          "name": "",
          "type": "uint256"
        }
      ],
      "payable": false,
      "stateMutability": "view",
      "type": "function"
    },
    {
      "constant": true,
      "inputs": [
        {
          "name": "_principle",
          "type": "uint256"
        },
        {
          "name": "_periods",
          "type": "uint256"
        },
        {
          "name": "_rate",
          "type": "uint256"
        }
      ],
      "name": "compound",
      "outputs": [
        {
          "name": "",
          "type": "uint256"
        }
      ],
      "payable": false,
      "stateMutability": "pure",
      "type": "function"
    },
    {
      "constant": true,
      "inputs": [
        {
          "name": "_staker",
          "type": "address"
        },
        {
          "name": "_stakeIndex",
          "type": "uint256"
        }
      ],
      "name": "calculateStakingRewards",
      "outputs": [
        {
          "name": "",
          "type": "uint256"
        }
      ],
      "payable": false,
      "stateMutability": "view",
      "type": "function"
    },
    {
      "inputs": [
        {
          "name": "_originContract",
          "type": "address"
        },
        {
          "name": "_rootUtxoMerkleTreeHash",
          "type": "bytes32"
        },
        {
          "name": "_maximumRedeemable",
          "type": "uint256"
        },
        {
          "name": "_totalBtcCirculationAtFork",
          "type": "uint256"
        }
      ],
      "payable": false,
      "stateMutability": "nonpayable",
      "type": "constructor"
    },
    {
      "anonymous": false,
      "inputs": [
        {
          "indexed": true,
          "name": "_address",
          "type": "address"
        },
        {
          "indexed": false,
          "name": "_reward",
          "type": "uint256"
        }
      ],
      "name": "Mint",
      "type": "event"
    },
    {
      "anonymous": false,
      "inputs": [
        {
          "indexed": true,
          "name": "owner",
          "type": "address"
        },
        {
          "indexed": true,
          "name": "spender",
          "type": "address"
        },
        {
          "indexed": false,
          "name": "value",
          "type": "uint256"
        }
      ],
      "name": "Approval",
      "type": "event"
    },
    {
      "anonymous": false,
      "inputs": [
        {
          "indexed": true,
          "name": "from",
          "type": "address"
        },
        {
          "indexed": true,
          "name": "to",
          "type": "address"
        },
        {
          "indexed": false,
          "name": "value",
          "type": "uint256"
        }
      ],
      "name": "Transfer",
      "type": "event"
    }
  ],
  "bytecode": "0x6080604052600060055560006009556000600a556040805190810160405280600a81526020017f426974636f696e48657800000000000000000000000000000000000000000000815250600f90805190602001906200006092919062000176565b506040805190810160405280600381526020017f424858000000000000000000000000000000000000000000000000000000000081525060109080519060200190620000ae92919062000176565b506012601155348015620000c157600080fd5b506040516080806200529e83398101806040528101908080519060200190929190805190602001909291908051906020019092919080519060200190929190505050838383834260048190555083600360006101000a81548173ffffffffffffffffffffffffffffffffffffffff021916908373ffffffffffffffffffffffffffffffffffffffff160217905550826007816000191690555081600b8190555080600c81905550505050505050505062000225565b828054600181600116156101000203166002900490600052602060002090601f016020900481019282601f10620001b957805160ff1916838001178555620001ea565b82800160010185558215620001ea579182015b82811115620001e9578251825591602001919060010190620001cc565b5b509050620001f99190620001fd565b5090565b6200022291905b808211156200021e57600081600090555060010162000204565b5090565b90565b61506980620002356000396000f300608060405260043610610288576000357c0100000000000000000000000000000000000000000000000000000000900463ffffffff16806306fdde031461028d5780630867c0ad1461031d57806308b4312b146103bb578063095ea7b3146103e6578063128bfcae1461044b57806316043f5d1461049a5780631765f4bf146104c557806318160ddd146104f0578063229cfc321461051b57806323b872dd1461055c5780632c3ee88c146105e15780632c48d57b1461062257806330fd546e14610651578063313ce567146106925780634f265bf4146106bd57806352aa3e6c146106e85780635418796c1461071357806365925c2b146107bc57806366188463146107e7578063687cf4a41461084c5780636aaf67e21461089557806370a08231146108c8578063753bf8cd1461091f57806375889a2b14610a1e578063790ca41314610a795780637cdafe9d14610aa457806381437de814610b0557806381cd84b914610b6a578063842e298114610bf65780638716391914610d665780638d854c3414610db35780638f16981614610dde5780639283032c14610e5b578063938b5f3214610e7257806394ce28e814610ec957806395d89b4114610ef45780639d65b89214610f84578063a9059cbb14610faf578063b1ccf19314611014578063b242c9bf146110da578063b27f7a0e14611145578063b80ac7df14611190578063bac5c0481461121c578063cb9c501f14611273578063ce267b55146112e2578063cfc2334e146113ac578063d73dd6231461144d578063dd62ed3e146114b2578063e073ef6914611529578063e26e7b50146115d0578063e39a385a14611611578063f35dad4014611672578063f3c85eba1461169d578063f6c45d02146116f2575b600080fd5b34801561029957600080fd5b506102a2611753565b6040518080602001828103825283818151815260200191508051906020019080838360005b838110156102e25780820151818401526020810190506102c7565b50505050905090810190601f16801561030f5780820380516001836020036101000a031916815260200191505b509250505060405180910390f35b34801561032957600080fd5b506103a16004803603810190808035600019169060200190929190803560ff16906020019092919080356000191690602001909291908035600019169060200190929190803573ffffffffffffffffffffffffffffffffffffffff1690602001909291908035151590602001909291905050506117f1565b604051808215151515815260200191505060405180910390f35b3480156103c757600080fd5b506103d06119dc565b6040518082815260200191505060405180910390f35b3480156103f257600080fd5b50610431600480360381019080803573ffffffffffffffffffffffffffffffffffffffff169060200190929190803590602001909291905050506119e2565b604051808215151515815260200191505060405180910390f35b34801561045757600080fd5b506104806004803603810190808035906020019092919080359060200190929190505050611ad4565b604051808215151515815260200191505060405180910390f35b3480156104a657600080fd5b506104af611dd8565b6040518082815260200191505060405180910390f35b3480156104d157600080fd5b506104da611ddd565b6040518082815260200191505060405180910390f35b3480156104fc57600080fd5b50610505611de3565b6040518082815260200191505060405180910390f35b34801561052757600080fd5b5061054660048036038101908080359060200190929190505050611ded565b6040518082815260200191505060405180910390f35b34801561056857600080fd5b506105c7600480360381019080803573ffffffffffffffffffffffffffffffffffffffff169060200190929190803573ffffffffffffffffffffffffffffffffffffffff16906020019092919080359060200190929190505050611e32565b604051808215151515815260200191505060405180910390f35b3480156105ed57600080fd5b5061060c600480360381019080803590602001909291905050506121ec565b6040518082815260200191505060405180910390f35b34801561062e57600080fd5b50610637612566565b604051808215151515815260200191505060405180910390f35b34801561065d57600080fd5b5061067c60048036038101908080359060200190929190505050612579565b6040518082815260200191505060405180910390f35b34801561069e57600080fd5b506106a7612591565b6040518082815260200191505060405180910390f35b3480156106c957600080fd5b506106d2612597565b6040518082815260200191505060405180910390f35b3480156106f457600080fd5b506106fd61259e565b6040518082815260200191505060405180910390f35b34801561071f57600080fd5b5061077a600480360381019080803590602001908201803590602001908080601f01602080910402602001604051908101604052809392919081815260200183838082843782019150505050505091929192905050506125a4565b604051808273ffffffffffffffffffffffffffffffffffffffff1673ffffffffffffffffffffffffffffffffffffffff16815260200191505060405180910390f35b3480156107c857600080fd5b506107d161262a565b6040518082815260200191505060405180910390f35b3480156107f357600080fd5b50610832600480360381019080803573ffffffffffffffffffffffffffffffffffffffff16906020019092919080359060200190929190505050612632565b604051808215151515815260200191505060405180910390f35b34801561085857600080fd5b5061087b60048036038101908080356000191690602001909291905050506128c3565b604051808215151515815260200191505060405180910390f35b3480156108a157600080fd5b506108aa6128e3565b60405180826000191660001916815260200191505060405180910390f35b3480156108d457600080fd5b50610909600480360381019080803573ffffffffffffffffffffffffffffffffffffffff1690602001909291905050506128e9565b6040518082815260200191505060405180910390f35b34801561092b57600080fd5b50610a086004803603810190808035906020019092919080359060200190820180359060200190808060200260200160405190810160405280939291908181526020018383602002808284378201915050505050509192919290803590602001908201803590602001908080601f0160208091040260200160405190810160405280939291908181526020018383808284378201915050505050509192919290803515159060200190929190803560ff16906020019092919080356000191690602001909291908035600019169060200190929190505050612931565b6040518082815260200191505060405180910390f35b348015610a2a57600080fd5b50610a5f600480360381019080803573ffffffffffffffffffffffffffffffffffffffff169060200190929190505050612bf1565b604051808215151515815260200191505060405180910390f35b348015610a8557600080fd5b50610a8e612d76565b6040518082815260200191505060405180910390f35b348015610ab057600080fd5b50610aef600480360381019080803573ffffffffffffffffffffffffffffffffffffffff16906020019092919080359060200190929190505050612d7c565b6040518082815260200191505060405180910390f35b348015610b1157600080fd5b50610b50600480360381019080803573ffffffffffffffffffffffffffffffffffffffff16906020019092919080359060200190929190505050612e89565b604051808215151515815260200191505060405180910390f35b348015610b7657600080fd5b50610bdc600480360381019080803560001916906020019092919080359060200190820180359060200190808060200260200160405190810160405280939291908181526020018383602002808284378201915050505050509192919290505050613347565b604051808215151515815260200191505060405180910390f35b348015610c0257600080fd5b50610c37600480360381019080803573ffffffffffffffffffffffffffffffffffffffff169060200190929190505050613392565b6040518080602001806020018060200180602001858103855289818151815260200191508051906020019060200280838360005b83811015610c86578082015181840152602081019050610c6b565b50505050905001858103845288818151815260200191508051906020019060200280838360005b83811015610cc8578082015181840152602081019050610cad565b50505050905001858103835287818151815260200191508051906020019060200280838360005b83811015610d0a578082015181840152602081019050610cef565b50505050905001858103825286818151815260200191508051906020019060200280838360005b83811015610d4c578082015181840152602081019050610d31565b505050509050019850505050505050505060405180910390f35b348015610d7257600080fd5b50610db1600480360381019080803573ffffffffffffffffffffffffffffffffffffffff169060200190929190803590602001909291905050506135c4565b005b348015610dbf57600080fd5b50610dc86136b5565b6040518082815260200191505060405180910390f35b348015610dea57600080fd5b50610e29600480360381019080803573ffffffffffffffffffffffffffffffffffffffff169060200190929190803590602001909291905050506136bb565b604051808681526020018581526020018481526020018381526020018281526020019550505050505060405180910390f35b348015610e6757600080fd5b50610e7061370d565b005b348015610e7e57600080fd5b50610e87613793565b604051808273ffffffffffffffffffffffffffffffffffffffff1673ffffffffffffffffffffffffffffffffffffffff16815260200191505060405180910390f35b348015610ed557600080fd5b50610ede6137b9565b6040518082815260200191505060405180910390f35b348015610f0057600080fd5b50610f096137fb565b6040518080602001828103825283818151815260200191508051906020019080838360005b83811015610f49578082015181840152602081019050610f2e565b50505050905090810190601f168015610f765780820380516001836020036101000a031916815260200191505b509250505060405180910390f35b348015610f9057600080fd5b50610f99613899565b6040518082815260200191505060405180910390f35b348015610fbb57600080fd5b50610ffa600480360381019080803573ffffffffffffffffffffffffffffffffffffffff1690602001909291908035906020019092919050505061389f565b604051808215151515815260200191505060405180910390f35b34801561102057600080fd5b506110c460048036038101908080359060200190929190803590602001908201803590602001919091929391929390803590602001908201803590602001919091929391929390803515159060200190929190803560ff16906020019092919080356000191690602001909291908035600019169060200190929190803573ffffffffffffffffffffffffffffffffffffffff169060200190929190505050613abe565b6040518082815260200191505060405180910390f35b3480156110e657600080fd5b5061112f600480360381019080803573ffffffffffffffffffffffffffffffffffffffff1690602001909291908035906020019092919080359060200190929190505050613c8e565b6040518082815260200191505060405180910390f35b34801561115157600080fd5b5061117a6004803603810190808035906020019092919080359060200190929190505050613e57565b6040518082815260200191505060405180910390f35b34801561119c57600080fd5b50611202600480360381019080803590602001908201803590602001908080602002602001604051908101604052809392919081815260200183836020028082843782019150505050505091929192908035600019169060200190929190505050613f31565b604051808215151515815260200191505060405180910390f35b34801561122857600080fd5b5061125d600480360381019080803573ffffffffffffffffffffffffffffffffffffffff169060200190929190505050613f48565b6040518082815260200191505060405180910390f35b34801561127f57600080fd5b506112c8600480360381019080803573ffffffffffffffffffffffffffffffffffffffff1690602001909291908035906020019092919080359060200190929190505050613fa2565b604051808215151515815260200191505060405180910390f35b3480156112ee57600080fd5b50611392600480360381019080803573ffffffffffffffffffffffffffffffffffffffff169060200190929190803590602001908201803590602001908080601f0160208091040260200160405190810160405280939291908181526020018383808284378201915050505050509192919290803560ff169060200190929190803560001916906020019092919080356000191690602001909291905050506140ac565b604051808215151515815260200191505060405180910390f35b3480156113b857600080fd5b5061143360048036038101908080356bffffffffffffffffffffffff1916906020019092919080359060200190929190803590602001908201803590602001908080602002602001604051908101604052809392919081815260200183836020028082843782019150505050505091929192905050506141cb565b604051808215151515815260200191505060405180910390f35b34801561145957600080fd5b50611498600480360381019080803573ffffffffffffffffffffffffffffffffffffffff1690602001909291908035906020019092919050505061428c565b604051808215151515815260200191505060405180910390f35b3480156114be57600080fd5b50611513600480360381019080803573ffffffffffffffffffffffffffffffffffffffff169060200190929190803573ffffffffffffffffffffffffffffffffffffffff169060200190929190505050614488565b6040518082815260200191505060405180910390f35b34801561153557600080fd5b5061159c600480360381019080803590602001908201803590602001908080601f016020809104026020016040519081016040528093929190818152602001838380828437820191505050505050919291929080351515906020019092919050505061450f565b60405180826bffffffffffffffffffffffff19166bffffffffffffffffffffffff1916815260200191505060405180910390f35b3480156115dc57600080fd5b506115fb600480360381019080803590602001909291905050506148ce565b6040518082815260200191505060405180910390f35b34801561161d57600080fd5b5061165c600480360381019080803573ffffffffffffffffffffffffffffffffffffffff16906020019092919080359060200190929190505050614913565b6040518082815260200191505060405180910390f35b34801561167e57600080fd5b50611687614a09565b6040518082815260200191505060405180910390f35b3480156116a957600080fd5b506116dc600480360381019080803590602001909291908035906020019092919080359060200190929190505050614a0f565b6040518082815260200191505060405180910390f35b3480156116fe57600080fd5b5061173d600480360381019080803573ffffffffffffffffffffffffffffffffffffffff16906020019092919080359060200190929190505050614b0c565b6040518082815260200191505060405180910390f35b600f8054600181600116156101000203166002900480601f0160208091040260200160405190810160405280929190818152602001828054600181600116156101000203166002900480156117e95780601f106117be576101008083540402835291602001916117e9565b820191906000526020600020905b8154815290600101906020018083116117cc57829003601f168201915b505050505081565b60008060608315156118055788915061191f565b6040805190810160405280601c81526020017f19457468657265756d205369676e6564204d6573736167653a0a333200000000815250905080896040516020018083805190602001908083835b6020831015156118775780518252602082019150602081019050602083039250611852565b6001836020036101000a0380198251168184511680821785525050505050509050018260001916600019168152602001925050506040516020818303038152906040526040518082805190602001908083835b6020831015156118ef57805182526020820191506020810190506020830392506118ca565b6001836020036101000a038019825116818451168082178552505050505050905001915050604051809103902091505b8473ffffffffffffffffffffffffffffffffffffffff166001838a8a8a604051600081526020016040526040518085600019166000191681526020018460ff1660ff1681526020018360001916600019168152602001826000191660001916815260200194505050505060206040516020810390808403906000865af11580156119ad573d6000803e3d6000fd5b5050506020604051035173ffffffffffffffffffffffffffffffffffffffff1614925050509695505050505050565b600b5481565b600081600260003373ffffffffffffffffffffffffffffffffffffffff1673ffffffffffffffffffffffffffffffffffffffff16815260200190815260200160002060008573ffffffffffffffffffffffffffffffffffffffff1673ffffffffffffffffffffffffffffffffffffffff168152602001908152602001600020819055508273ffffffffffffffffffffffffffffffffffffffff163373ffffffffffffffffffffffffffffffffffffffff167f8c5be1e5ebec7d5bd14f71427d1e84f3dd0314c0f7b2291e5b200ac8c7c3b925846040518082815260200191505060405180910390a36001905092915050565b600080339050836000808373ffffffffffffffffffffffffffffffffffffffff1673ffffffffffffffffffffffffffffffffffffffff1681526020019081526020016000205410151515611b2757600080fd5b611b3e6312cc030042614c9290919063ffffffff16565b8311151515611b4c57600080fd5b611b5461370d565b611ba5846000808473ffffffffffffffffffffffffffffffffffffffff1673ffffffffffffffffffffffffffffffffffffffff16815260200190815260200160002054614cae90919063ffffffff16565b6000808373ffffffffffffffffffffffffffffffffffffffff1673ffffffffffffffffffffffffffffffffffffffff16815260200190815260200160002081905550611c38846000803073ffffffffffffffffffffffffffffffffffffffff1673ffffffffffffffffffffffffffffffffffffffff16815260200190815260200160002054614c9290919063ffffffff16565b6000803073ffffffffffffffffffffffffffffffffffffffff1673ffffffffffffffffffffffffffffffffffffffff16815260200190815260200160002081905550600e60008273ffffffffffffffffffffffffffffffffffffffff1673ffffffffffffffffffffffffffffffffffffffff16815260200190815260200160002060a060405190810160405280868152602001428152602001858152602001600d5481526020016001548152509080600181540180825580915050906001820390600052602060002090600502016000909192909190915060008201518160000155602082015181600101556040820151816002015560608201518160030155608082015181600401555050506000611da682611da16001600e60008773ffffffffffffffffffffffffffffffffffffffff1673ffffffffffffffffffffffffffffffffffffffff16815260200190815260200160002080549050614cae90919063ffffffff16565b614b0c565b111515611db257600080fd5b611dc784600d54614c9290919063ffffffff16565b600d81905550600191505092915050565b600181565b600d5481565b6000600154905090565b6000611e2b600a611e1d600c54611e0f600a5487614cc790919063ffffffff16565b614cff90919063ffffffff16565b614cff90919063ffffffff16565b9050919050565b60008073ffffffffffffffffffffffffffffffffffffffff168373ffffffffffffffffffffffffffffffffffffffff1614151515611e6f57600080fd5b6000808573ffffffffffffffffffffffffffffffffffffffff1673ffffffffffffffffffffffffffffffffffffffff168152602001908152602001600020548211151515611ebc57600080fd5b600260008573ffffffffffffffffffffffffffffffffffffffff1673ffffffffffffffffffffffffffffffffffffffff16815260200190815260200160002060003373ffffffffffffffffffffffffffffffffffffffff1673ffffffffffffffffffffffffffffffffffffffff168152602001908152602001600020548211151515611f4757600080fd5b611f98826000808773ffffffffffffffffffffffffffffffffffffffff1673ffffffffffffffffffffffffffffffffffffffff16815260200190815260200160002054614cae90919063ffffffff16565b6000808673ffffffffffffffffffffffffffffffffffffffff1673ffffffffffffffffffffffffffffffffffffffff1681526020019081526020016000208190555061202b826000808673ffffffffffffffffffffffffffffffffffffffff1673ffffffffffffffffffffffffffffffffffffffff16815260200190815260200160002054614c9290919063ffffffff16565b6000808573ffffffffffffffffffffffffffffffffffffffff1673ffffffffffffffffffffffffffffffffffffffff168152602001908152602001600020819055506120fc82600260008773ffffffffffffffffffffffffffffffffffffffff1673ffffffffffffffffffffffffffffffffffffffff16815260200190815260200160002060003373ffffffffffffffffffffffffffffffffffffffff1673ffffffffffffffffffffffffffffffffffffffff16815260200190815260200160002054614cae90919063ffffffff16565b600260008673ffffffffffffffffffffffffffffffffffffffff1673ffffffffffffffffffffffffffffffffffffffff16815260200190815260200160002060003373ffffffffffffffffffffffffffffffffffffffff1673ffffffffffffffffffffffffffffffffffffffff168152602001908152602001600020819055508273ffffffffffffffffffffffffffffffffffffffff168473ffffffffffffffffffffffffffffffffffffffff167fddf252ad1be2c89b69c2b068fc378daa952ba7f163c4a11628f55a4df523b3ef846040518082815260200191505060405180910390a3600190509392505050565b600080600080600061220c6402540be40087614cc790919063ffffffff16565b9350683635c9adc5dea000008411156122a55769152d02c7e14af680000084101561228d57612286640ba43b7400612278600961226a600261225c64174876e8008b614cae90919063ffffffff16565b614cc790919063ffffffff16565b614cff90919063ffffffff16565b614c9290919063ffffffff16565b93506122a4565b6122a1600485614cff90919063ffffffff16565b93505b5b42600454106122b55760006122e0565b6122df62093a806122d160045442614cae90919063ffffffff16565b614cff90919063ffffffff16565b5b92506123096122f9600285614cc790919063ffffffff16565b6064614cae90919063ffffffff16565b915061233160646123238487614cc790919063ffffffff16565b614cff90919063ffffffff16565b9050602d8311156123445780945061255d565b602083111561237b576123746064612366606584614cc790919063ffffffff16565b614cff90919063ffffffff16565b945061255d565b60188311156123b2576123ab606461239d606684614cc790919063ffffffff16565b614cff90919063ffffffff16565b945061255d565b60128311156123e9576123e260646123d4606784614cc790919063ffffffff16565b614cff90919063ffffffff16565b945061255d565b600e83111561242057612419606461240b606884614cc790919063ffffffff16565b614cff90919063ffffffff16565b945061255d565b600a831115612457576124506064612442606984614cc790919063ffffffff16565b614cff90919063ffffffff16565b945061255d565b600783111561248e576124876064612479606a84614cc790919063ffffffff16565b614cff90919063ffffffff16565b945061255d565b60058311156124c5576124be60646124b0606b84614cc790919063ffffffff16565b614cff90919063ffffffff16565b945061255d565b60038311156124fc576124f560646124e7606c84614cc790919063ffffffff16565b614cff90919063ffffffff16565b945061255d565b60018311156125335761252c606461251e606d84614cc790919063ffffffff16565b614cff90919063ffffffff16565b945061255d565b61255a606461254c606e84614cc790919063ffffffff16565b614cff90919063ffffffff16565b94505b50505050919050565b600060326125726137b9565b1115905090565b60066020528060005260406000206000915090505481565b60115481565b620d2f0081565b600a5481565b600073ffffffffffffffffffffffffffffffffffffffff826040518082805190602001908083835b6020831015156125f157805182526020820191506020810190506020830392506125cc565b6001836020036101000a038019825116818451168082178552505050505050905001915050604051809103902060019004169050919050565b6312cc030081565b600080600260003373ffffffffffffffffffffffffffffffffffffffff1673ffffffffffffffffffffffffffffffffffffffff16815260200190815260200160002060008573ffffffffffffffffffffffffffffffffffffffff1673ffffffffffffffffffffffffffffffffffffffff16815260200190815260200160002054905080831115612743576000600260003373ffffffffffffffffffffffffffffffffffffffff1673ffffffffffffffffffffffffffffffffffffffff16815260200190815260200160002060008673ffffffffffffffffffffffffffffffffffffffff1673ffffffffffffffffffffffffffffffffffffffff168152602001908152602001600020819055506127d7565b6127568382614cae90919063ffffffff16565b600260003373ffffffffffffffffffffffffffffffffffffffff1673ffffffffffffffffffffffffffffffffffffffff16815260200190815260200160002060008673ffffffffffffffffffffffffffffffffffffffff1673ffffffffffffffffffffffffffffffffffffffff168152602001908152602001600020819055505b8373ffffffffffffffffffffffffffffffffffffffff163373ffffffffffffffffffffffffffffffffffffffff167f8c5be1e5ebec7d5bd14f71427d1e84f3dd0314c0f7b2291e5b200ac8c7c3b925600260003373ffffffffffffffffffffffffffffffffffffffff1673ffffffffffffffffffffffffffffffffffffffff16815260200190815260200160002060008873ffffffffffffffffffffffffffffffffffffffff1673ffffffffffffffffffffffffffffffffffffffff168152602001908152602001600020546040518082815260200191505060405180910390a3600191505092915050565b60086020528060005260406000206000915054906101000a900460ff1681565b60075481565b60008060008373ffffffffffffffffffffffffffffffffffffffff1673ffffffffffffffffffffffffffffffffffffffff168152602001908152602001600020549050919050565b6000806000600454421015151561294757600080fd5b61294f61370d565b612959888861450f565b9150818a60405160200180836bffffffffffffffffffffffff19166bffffffffffffffffffffffff19168152601401828152602001925050506040516020818303038152906040526040518082805190602001908083835b6020831015156129d657805182526020820191506020810190506020830392506129b1565b6001836020036101000a03801982511681845116808217855250505050505090500191505060405180910390209050612a0f818a613347565b1515612a1a57600080fd5b612a2733898888886140ac565b1515612a3257600080fd5b600160086000836000191660001916815260200190815260200160002060006101000a81548160ff021916908315150217905550612a6f8a6121ec565b9250600b54612a8984600954614c9290919063ffffffff16565b11151515612a9657600080fd5b612aab83600954614c9290919063ffffffff16565b600981905550612b02836000803373ffffffffffffffffffffffffffffffffffffffff1673ffffffffffffffffffffffffffffffffffffffff16815260200190815260200160002054614c9290919063ffffffff16565b6000803373ffffffffffffffffffffffffffffffffffffffff1673ffffffffffffffffffffffffffffffffffffffff16815260200190815260200160002081905550612b5983600154614c9290919063ffffffff16565b600181905550612b756001600a54614c9290919063ffffffff16565b600a819055503373ffffffffffffffffffffffffffffffffffffffff16600073ffffffffffffffffffffffffffffffffffffffff167fddf252ad1be2c89b69c2b068fc378daa952ba7f163c4a11628f55a4df523b3ef856040518082815260200191505060405180910390a38292505050979650505050505050565b600080600080600e60008673ffffffffffffffffffffffffffffffffffffffff1673ffffffffffffffffffffffffffffffffffffffff16815260200190815260200160002080549050925060009150600090506000831415612c565760009350612d6e565b5b82821015612d6957600e60008673ffffffffffffffffffffffffffffffffffffffff1673ffffffffffffffffffffffffffffffffffffffff16815260200190815260200160002080549050612cb6600183614c9290919063ffffffff16565b11612cc15780612cc4565b60005b9050600e60008673ffffffffffffffffffffffffffffffffffffffff1673ffffffffffffffffffffffffffffffffffffffff16815260200190815260200160002081815481101515612d1257fe5b90600052602060002090600502016002015442101515612d3857612d368582612e89565b505b612d4c600183614c9290919063ffffffff16565b9150612d62600182614c9290919063ffffffff16565b9050612c57565b600193505b505050919050565b60045481565b600080600080600080600e60008973ffffffffffffffffffffffffffffffffffffffff1673ffffffffffffffffffffffffffffffffffffffff16815260200190815260200160002087815481101515612dd157fe5b906000526020600020906005020194506032612e1162093a80612e036004548960010154614cae90919063ffffffff16565b614cff90919063ffffffff16565b111515612e7957612e2a85600101548660020154613e57565b9350612e398560000154611ded565b9250612e4885600001546148ce565b9150612e6f82612e618587614c9290919063ffffffff16565b614c9290919063ffffffff16565b9050809550612e7e565b600095505b505050505092915050565b6000612e93614f94565b600080600080600e60008973ffffffffffffffffffffffffffffffffffffffff1673ffffffffffffffffffffffffffffffffffffffff16815260200190815260200160002087815481101515612ee557fe5b906000526020600020906005020160a0604051908101604052908160008201548152602001600182015481526020016002820154815260200160038201548152602001600482015481525050945084604001514210151515612f4657600080fd5b612f4e61370d565b84600001519350612f5f8888614b0c565b9250612f6b8888612d7c565b9150612f9282612f848587614c9290919063ffffffff16565b614c9290919063ffffffff16565b9050612fa984600d54614cae90919063ffffffff16565b600d81905550613000846000803073ffffffffffffffffffffffffffffffffffffffff1673ffffffffffffffffffffffffffffffffffffffff16815260200190815260200160002054614cae90919063ffffffff16565b6000803073ffffffffffffffffffffffffffffffffffffffff1673ffffffffffffffffffffffffffffffffffffffff16815260200190815260200160002081905550613093816000808b73ffffffffffffffffffffffffffffffffffffffff1673ffffffffffffffffffffffffffffffffffffffff16815260200190815260200160002054614c9290919063ffffffff16565b6000808a73ffffffffffffffffffffffffffffffffffffffff1673ffffffffffffffffffffffffffffffffffffffff1681526020019081526020016000208190555061314882600080600360009054906101000a900473ffffffffffffffffffffffffffffffffffffffff1673ffffffffffffffffffffffffffffffffffffffff1673ffffffffffffffffffffffffffffffffffffffff16815260200190815260200160002054614c9290919063ffffffff16565b600080600360009054906101000a900473ffffffffffffffffffffffffffffffffffffffff1673ffffffffffffffffffffffffffffffffffffffff1673ffffffffffffffffffffffffffffffffffffffff168152602001908152602001600020819055508773ffffffffffffffffffffffffffffffffffffffff163073ffffffffffffffffffffffffffffffffffffffff167fddf252ad1be2c89b69c2b068fc378daa952ba7f163c4a11628f55a4df523b3ef87600001516040518082815260200191505060405180910390a361322a83600154614c9290919063ffffffff16565b600181905550613258613247600284614cc790919063ffffffff16565b600154614c9290919063ffffffff16565b6001819055508773ffffffffffffffffffffffffffffffffffffffff167f0f6798a560793a54c3bcfe86a93cde1e73087d944c0ea20544137d41213968856132a98585614c9290919063ffffffff16565b6040518082815260200191505060405180910390a2600360009054906101000a900473ffffffffffffffffffffffffffffffffffffffff1673ffffffffffffffffffffffffffffffffffffffff167f0f6798a560793a54c3bcfe86a93cde1e73087d944c0ea20544137d4121396885836040518082815260200191505060405180910390a261333888886135c4565b60019550505050505092915050565b600080151560086000856000191660001916815260200190815260200160002060009054906101000a900460ff16151514801561338a57506133898284613f31565b5b905092915050565b6060806060806000606080606080600080600e60008d73ffffffffffffffffffffffffffffffffffffffff1673ffffffffffffffffffffffffffffffffffffffff168152602001908152602001600020805490509650866040519080825280602002602001820160405280156134175781602001602082028038833980820191505090505b509550866040519080825280602002602001820160405280156134495781602001602082028038833980820191505090505b5094508660405190808252806020026020018201604052801561347b5781602001602082028038833980820191505090505b509350866040519080825280602002602001820160405280156134ad5781602001602082028038833980820191505090505b509250600091505b868210156135aa57600e60008d73ffffffffffffffffffffffffffffffffffffffff1673ffffffffffffffffffffffffffffffffffffffff1681526020019081526020016000208281548110151561350957fe5b906000526020600020906005020190508060000154868381518110151561352c57fe5b90602001906020020181815250508060010154858381518110151561354d57fe5b90602001906020020181815250508060020154848381518110151561356e57fe5b90602001906020020181815250508060030154838381518110151561358f57fe5b906020019060200201818152505081806001019250506134b5565b858585859a509a509a509a50505050505050509193509193565b6000600e60008473ffffffffffffffffffffffffffffffffffffffff1673ffffffffffffffffffffffffffffffffffffffff16815260200190815260200160002090508061362060018380549050614cae90919063ffffffff16565b81548110151561362c57fe5b9060005260206000209060050201818381548110151561364857fe5b906000526020600020906005020160008201548160000155600182015481600101556002820154816002015560038201548160030155600482015481600401559050506136a360018280549050614cae90919063ffffffff16565b81816136af9190614fc4565b50505050565b600c5481565b600e602052816000526040600020818154811015156136d657fe5b9060005260206000209060050201600091509150508060000154908060010154908060020154908060030154908060040154905085565b60008061373a62093a8061372c60045442614cae90919063ffffffff16565b614cff90919063ffffffff16565b91506032821115801561374e575060055482115b1561378f5761376a600954600b54614cae90919063ffffffff16565b9050806006600060018503815260200190815260200160002081905550816005819055505b5050565b600360009054906101000a900473ffffffffffffffffffffffffffffffffffffffff1681565b600060045442116137cb5760006137f6565b6137f562093a806137e760045442614cae90919063ffffffff16565b614cff90919063ffffffff16565b5b905090565b60108054600181600116156101000203166002900480601f0160208091040260200160405190810160405280929190818152602001828054600181600116156101000203166002900480156138915780601f1061386657610100808354040283529160200191613891565b820191906000526020600020905b81548152906001019060200180831161387457829003601f168201915b505050505081565b60055481565b60008073ffffffffffffffffffffffffffffffffffffffff168373ffffffffffffffffffffffffffffffffffffffff16141515156138dc57600080fd5b6000803373ffffffffffffffffffffffffffffffffffffffff1673ffffffffffffffffffffffffffffffffffffffff16815260200190815260200160002054821115151561392957600080fd5b61397a826000803373ffffffffffffffffffffffffffffffffffffffff1673ffffffffffffffffffffffffffffffffffffffff16815260200190815260200160002054614cae90919063ffffffff16565b6000803373ffffffffffffffffffffffffffffffffffffffff1673ffffffffffffffffffffffffffffffffffffffff16815260200190815260200160002081905550613a0d826000808673ffffffffffffffffffffffffffffffffffffffff1673ffffffffffffffffffffffffffffffffffffffff16815260200190815260200160002054614c9290919063ffffffff16565b6000808573ffffffffffffffffffffffffffffffffffffffff1673ffffffffffffffffffffffffffffffffffffffff168152602001908152602001600020819055508273ffffffffffffffffffffffffffffffffffffffff163373ffffffffffffffffffffffffffffffffffffffff167fddf252ad1be2c89b69c2b068fc378daa952ba7f163c4a11628f55a4df523b3ef846040518082815260200191505060405180910390a36001905092915050565b60003373ffffffffffffffffffffffffffffffffffffffff168273ffffffffffffffffffffffffffffffffffffffff1614151515613afb57600080fd5b600073ffffffffffffffffffffffffffffffffffffffff168273ffffffffffffffffffffffffffffffffffffffff1614151515613b3757600080fd5b613ba78b8b8b808060200260200160405190810160405280939291908181526020018383602002808284378201915050505050508a8a8080601f01602080910402602001604051908101604052809392919081815260200183838082843782019150505050505089898989612931565b9050613c0d613bc0601483614cff90919063ffffffff16565b6000808573ffffffffffffffffffffffffffffffffffffffff1673ffffffffffffffffffffffffffffffffffffffff16815260200190815260200160002054614c9290919063ffffffff16565b6000808473ffffffffffffffffffffffffffffffffffffffff1673ffffffffffffffffffffffffffffffffffffffff16815260200190815260200160002081905550613c77613c66601483614cff90919063ffffffff16565b600154614c9290919063ffffffff16565b6001819055508090509a9950505050505050505050565b6000806000806001600e60008973ffffffffffffffffffffffffffffffffffffffff1673ffffffffffffffffffffffffffffffffffffffff16815260200190815260200160002080549050039250828511151515613ceb57600080fd5b60008610151515613cfb57600080fd5b6000600e60008973ffffffffffffffffffffffffffffffffffffffff1673ffffffffffffffffffffffffffffffffffffffff168152602001908152602001600020805490501415613d4f5760009350613e4d565b84861415613dbd57600e60008873ffffffffffffffffffffffffffffffffffffffff1673ffffffffffffffffffffffffffffffffffffffff1681526020019081526020016000206000815481101515613da457fe5b9060005260206000209060050201600001549350613e4d565b8590505b8481111515613e4957613e3a600e60008973ffffffffffffffffffffffffffffffffffffffff1673ffffffffffffffffffffffffffffffffffffffff16815260200190815260200160002082815481101515613e1957fe5b90600052602060002090600502016000015483614c9290919063ffffffff16565b91508080600101915050613dc1565b8193505b5050509392505050565b60008060008060008060009450613e8e62093a80613e806004548b614cae90919063ffffffff16565b614cff90919063ffffffff16565b9350613eba62093a80613eac6004548a614cae90919063ffffffff16565b614cff90919063ffffffff16565b925060328311613eca5782613ecd565b60325b91508390505b81811015613f2357613f14613f0560326006600085815260200190815260200160002054614cff90919063ffffffff16565b86614c9290919063ffffffff16565b94508080600101915050613ed3565b849550505050505092915050565b6000613f408360075484614d15565b905092915050565b6000613f9b8260006001600e60008773ffffffffffffffffffffffffffffffffffffffff1673ffffffffffffffffffffffffffffffffffffffff1681526020019081526020016000208054905003613c8e565b9050919050565b600080828411151515613fb457600080fd5b600e60008673ffffffffffffffffffffffffffffffffffffffff1673ffffffffffffffffffffffffffffffffffffffff168152602001908152602001600020805490508310151561400457600080fd5b8390505b82811115156140a057600e60008673ffffffffffffffffffffffffffffffffffffffff1673ffffffffffffffffffffffffffffffffffffffff168152602001908152602001600020600081548110151561405e57fe5b9060005260206000209060050201600201544210151561409b57614083856000612e89565b50614098600182614c9290919063ffffffff16565b90505b614008565b60019150509392505050565b60006141c0600287604051602001808273ffffffffffffffffffffffffffffffffffffffff1673ffffffffffffffffffffffffffffffffffffffff166c010000000000000000000000000281526014019150506040516020818303038152906040526040518082805190602001908083835b602083101515614143578051825260208201915060208101905060208303925061411e565b6001836020036101000a0380198251168184511680821785525050505050509050019150506020604051808303816000865af1158015614187573d6000803e3d6000fd5b5050506040513d602081101561419c57600080fd5b81019080805190602001909291905050508585856141b98a6125a4565b60006117f1565b905095945050505050565b600080848460405160200180836bffffffffffffffffffffffff19166bffffffffffffffffffffffff19168152601401828152602001925050506040516020818303038152906040526040518082805190602001908083835b6020831015156142495780518252602082019150602081019050602083039250614224565b6001836020036101000a038019825116818451168082178552505050505050905001915050604051809103902090506142828184613347565b9150509392505050565b600061431d82600260003373ffffffffffffffffffffffffffffffffffffffff1673ffffffffffffffffffffffffffffffffffffffff16815260200190815260200160002060008673ffffffffffffffffffffffffffffffffffffffff1673ffffffffffffffffffffffffffffffffffffffff16815260200190815260200160002054614c9290919063ffffffff16565b600260003373ffffffffffffffffffffffffffffffffffffffff1673ffffffffffffffffffffffffffffffffffffffff16815260200190815260200160002060008573ffffffffffffffffffffffffffffffffffffffff1673ffffffffffffffffffffffffffffffffffffffff168152602001908152602001600020819055508273ffffffffffffffffffffffffffffffffffffffff163373ffffffffffffffffffffffffffffffffffffffff167f8c5be1e5ebec7d5bd14f71427d1e84f3dd0314c0f7b2291e5b200ac8c7c3b925600260003373ffffffffffffffffffffffffffffffffffffffff1673ffffffffffffffffffffffffffffffffffffffff16815260200190815260200160002060008773ffffffffffffffffffffffffffffffffffffffff1673ffffffffffffffffffffffffffffffffffffffff168152602001908152602001600020546040518082815260200191505060405180910390a36001905092915050565b6000600260008473ffffffffffffffffffffffffffffffffffffffff1673ffffffffffffffffffffffffffffffffffffffff16815260200190815260200160002060008373ffffffffffffffffffffffffffffffffffffffff1673ffffffffffffffffffffffffffffffffffffffff16815260200190815260200160002054905092915050565b600080600080614520866000614eb8565b600190049250614531866020614eb8565b600190049150841561470d57600060028381151561454b57fe5b061461455857600361455b565b60025b9050600360028285604051602001808360ff1660ff167f0100000000000000000000000000000000000000000000000000000000000000028152600101828152602001925050506040516020818303038152906040526040518082805190602001908083835b6020831015156145e657805182526020820191506020810190506020830392506145c1565b6001836020036101000a0380198251168184511680821785525050505050509050019150506020604051808303816000865af115801561462a573d6000803e3d6000fd5b5050506040513d602081101561463f57600080fd5b81019080805190602001909291905050506040516020018082600019166000191681526020019150506040516020818303038152906040526040518082805190602001908083835b6020831015156146ac5780518252602082019150602081019050602083039250614687565b6001836020036101000a0380198251168184511680821785525050505050509050019150506020604051808303816000865af11580156146f0573d6000803e3d6000fd5b505050604051516c010000000000000000000000000293506148c5565b6004905060036002828585604051602001808460ff1660ff167f010000000000000000000000000000000000000000000000000000000000000002815260010183815260200182815260200193505050506040516020818303038152906040526040518082805190602001908083835b6020831015156147a2578051825260208201915060208101905060208303925061477d565b6001836020036101000a0380198251168184511680821785525050505050509050019150506020604051808303816000865af11580156147e6573d6000803e3d6000fd5b5050506040513d60208110156147fb57600080fd5b81019080805190602001909291905050506040516020018082600019166000191681526020019150506040516020818303038152906040526040518082805190602001908083835b6020831015156148685780518252602082019150602081019050602083039250614843565b6001836020036101000a0380198251168184511680821785525050505050509050019150506020604051808303816000865af11580156148ac573d6000803e3d6000fd5b505050604051516c010000000000000000000000000293505b50505092915050565b600061490c600a6148fe600b546148f060095487614cc790919063ffffffff16565b614cff90919063ffffffff16565b614cff90919063ffffffff16565b9050919050565b600080600e60008573ffffffffffffffffffffffffffffffffffffffff1673ffffffffffffffffffffffffffffffffffffffff1681526020019081526020016000208381548110151561496257fe5b9060005260206000209060050201600001549050600e60008573ffffffffffffffffffffffffffffffffffffffff1673ffffffffffffffffffffffffffffffffffffffff168152602001908152602001600020838154811015156149c257fe5b9060005260206000209060050201600201544211156149fe576149f76149e88585612d7c565b82614c9290919063ffffffff16565b9150614a02565b8091505b5092915050565b60095481565b600080600080600080600a94508488811515614a2757fe5b069350614a3d8589614cff90919063ffffffff16565b9250614a576402540be4008a614cff90919063ffffffff16565b9150600090505b82811015614aae57614a91856127100a614a83878a0a85614cc790919063ffffffff16565b614cff90919063ffffffff16565b9150614aa7600182614c9290919063ffffffff16565b9050614a5e565b600084141515614ae657614ae3846127100a614ad5868a0a85614cc790919063ffffffff16565b614cff90919063ffffffff16565b91505b614afe6402540be40083614cc790919063ffffffff16565b955050505050509392505050565b600080600080600080600080600080600e60008d73ffffffffffffffffffffffffffffffffffffffff1673ffffffffffffffffffffffffffffffffffffffff1681526020019081526020016000208b815481101515614b6757fe5b90600052602060002090600502019850614b8c60646001614cc790919063ffffffff16565b9750600196506064955060008960030154141515614c1057614bd28960040154614bc460648c60030154614cc790919063ffffffff16565b614cff90919063ffffffff16565b945060008511614be3576001614be5565b845b9650614bfa8789614cff90919063ffffffff16565b935060008411614c0b576001614c0d565b835b95505b614c2561271087614c9290919063ffffffff16565b9250614c57620d2f00614c498b600101548c60020154614cae90919063ffffffff16565b614cff90919063ffffffff16565b9150614c6889600001548385614a0f565b9050614c81896000015482614cae90919063ffffffff16565b995050505050505050505092915050565b60008183019050828110151515614ca557fe5b80905092915050565b6000828211151515614cbc57fe5b818303905092915050565b600080831415614cda5760009050614cf9565b8183029050818382811515614ceb57fe5b04141515614cf557fe5b8090505b92915050565b60008183811515614d0c57fe5b04905092915050565b600080600080849250600091505b8651821015614ea1578682815181101515614d3a57fe5b906020019060200201519050806000191683600019161015614df75782816040516020018083600019166000191681526020018260001916600019168152602001925050506040516020818303038152906040526040518082805190602001908083835b602083101515614dc35780518252602082019150602081019050602083039250614d9e565b6001836020036101000a03801982511681845116808217855250505050505090500191505060405180910390209250614e94565b80836040516020018083600019166000191681526020018260001916600019168152602001925050506040516020818303038152906040526040518082805190602001908083835b602083101515614e645780518252602082019150602081019050602083039250614e3f565b6001836020036101000a038019825116818451168082178552505050505050905001915050604051809103902092505b8180600101925050614d23565b856000191683600019161493505050509392505050565b600080600090505b6020811015614f8a576008810284848301815181101515614edd57fe5b9060200101517f010000000000000000000000000000000000000000000000000000000000000090047f0100000000000000000000000000000000000000000000000000000000000000027effffffffffffffffffffffffffffffffffffffffffffffffffffffffffffff19167fff0000000000000000000000000000000000000000000000000000000000000060010216600019169060020a9004821891508080600101915050614ec0565b8191505092915050565b60a06040519081016040528060008152602001600081526020016000815260200160008152602001600081525090565b815481835581811115614ff157600502816005028360005260206000209182019101614ff09190614ff6565b5b505050565b61503a91905b8082111561503657600080820160009055600182016000905560028201600090556003820160009055600482016000905550600501614ffc565b5090565b905600a165627a7a723058200b04cd9123c2578892254e37849044ceb0967312de9578d0ceb5b0f24881a2ed0029",
  "source": "pragma solidity >=0.4.23;\n\nimport \"../BitcoinHex.sol\";\n\n\n// this will allow us to initialize block timestamp or wrap any internal functions and make them assessible to white box testing\ncontract BitcoinHexStub is BitcoinHex {\n  constructor(\n    address _originContract,\n    bytes32 _rootUtxoMerkleTreeHash,\n    uint256 _maximumRedeemable,\n    uint256 _totalBtcCirculationAtFork\n  ) \n    public \n    BitcoinHex(\n      _originContract,\n      _rootUtxoMerkleTreeHash,\n      _maximumRedeemable,\n      _totalBtcCirculationAtFork\n    )\n  {}    \n}\n",
  "sourcePath": "/Users/tovarishfin/dev/bhx/bhx-contracts/contracts/stubs/BitcoinHexStub.sol",
  "compiler": {
    "name": "solc",
    "version": "0.4.24+commit.e67f0147.Emscripten.clang"
  },
  "schemaVersion": "2.0.1",
  "updatedAt": "2018-08-13T11:23:40.101Z"
}