{
  "contractName": "BitcoinHex",
  "abi": [
    {
      "constant": true,
      "inputs": [],
      "name": "name",
      "outputs": [
        {
          "name": "",
          "type": "string"
        }
      ],
      "payable": false,
      "stateMutability": "view",
      "type": "function"
    },
    {
      "constant": true,
      "inputs": [
        {
          "name": "_hash",
          "type": "bytes32"
        },
        {
          "name": "_v",
          "type": "uint8"
        },
        {
          "name": "_r",
          "type": "bytes32"
        },
        {
          "name": "_s",
          "type": "bytes32"
        },
        {
          "name": "_expected",
          "type": "address"
        },
        {
          "name": "_addPrefix",
          "type": "bool"
        }
      ],
      "name": "validateSignature",
      "outputs": [
        {
          "name": "",
          "type": "bool"
        }
      ],
      "payable": false,
      "stateMutability": "pure",
      "type": "function"
    },
    {
      "constant": true,
      "inputs": [],
      "name": "maximumRedeemable",
      "outputs": [
        {
          "name": "",
          "type": "uint256"
        }
      ],
      "payable": false,
      "stateMutability": "view",
      "type": "function"
    },
    {
      "constant": false,
      "inputs": [
        {
          "name": "_spender",
          "type": "address"
        },
        {
          "name": "_value",
          "type": "uint256"
        }
      ],
      "name": "approve",
      "outputs": [
        {
          "name": "",
          "type": "bool"
        }
      ],
      "payable": false,
      "stateMutability": "nonpayable",
      "type": "function"
    },
    {
      "constant": false,
      "inputs": [
        {
          "name": "_value",
          "type": "uint256"
        },
        {
          "name": "_unlockTime",
          "type": "uint256"
        }
      ],
      "name": "startStake",
      "outputs": [],
      "payable": false,
      "stateMutability": "nonpayable",
      "type": "function"
    },
    {
      "constant": true,
      "inputs": [],
      "name": "totalSupply",
      "outputs": [
        {
          "name": "",
          "type": "uint256"
        }
      ],
      "payable": false,
      "stateMutability": "view",
      "type": "function"
    },
    {
      "constant": false,
      "inputs": [
        {
          "name": "_from",
          "type": "address"
        },
        {
          "name": "_to",
          "type": "address"
        },
        {
          "name": "_value",
          "type": "uint256"
        }
      ],
      "name": "transferFrom",
      "outputs": [
        {
          "name": "",
          "type": "bool"
        }
      ],
      "payable": false,
      "stateMutability": "nonpayable",
      "type": "function"
    },
    {
      "constant": true,
      "inputs": [],
      "name": "decimals",
      "outputs": [
        {
          "name": "",
          "type": "uint256"
        }
      ],
      "payable": false,
      "stateMutability": "view",
      "type": "function"
    },
    {
      "constant": false,
      "inputs": [
        {
          "name": "_satoshis",
          "type": "uint256"
        },
        {
          "name": "_proof",
          "type": "bytes32[]"
        },
        {
          "name": "_pubKey",
          "type": "bytes"
        },
        {
          "name": "_isCompressed",
          "type": "bool"
        },
        {
          "name": "_v",
          "type": "uint8"
        },
        {
          "name": "_r",
          "type": "bytes32"
        },
        {
          "name": "_s",
          "type": "bytes32"
        }
      ],
      "name": "redeemUTXO",
      "outputs": [
        {
          "name": "_tokensRedeemed",
          "type": "uint256"
        }
      ],
      "payable": false,
      "stateMutability": "nonpayable",
      "type": "function"
    },
    {
      "constant": true,
      "inputs": [
        {
          "name": "staker",
          "type": "address"
        }
      ],
      "name": "getCurrentStaked",
      "outputs": [
        {
          "name": "stakes",
          "type": "uint256"
        }
      ],
      "payable": false,
      "stateMutability": "view",
      "type": "function"
    },
    {
      "constant": false,
      "inputs": [
        {
          "name": "_satoshis",
          "type": "uint256"
        },
        {
          "name": "_proof",
          "type": "bytes32[]"
        },
        {
          "name": "_pubKey",
          "type": "bytes"
        },
        {
          "name": "_isCompressed",
          "type": "bool"
        },
        {
          "name": "_v",
          "type": "uint8"
        },
        {
          "name": "_r",
          "type": "bytes32"
        },
        {
          "name": "_s",
          "type": "bytes32"
        },
        {
          "name": "_referrer",
          "type": "address"
        }
      ],
      "name": "redeemUTXO",
      "outputs": [
        {
          "name": "tokensRedeemed",
          "type": "uint256"
        }
      ],
      "payable": false,
      "stateMutability": "nonpayable",
      "type": "function"
    },
    {
      "constant": true,
      "inputs": [
        {
          "name": "_pubKey",
          "type": "bytes"
        }
      ],
      "name": "pubKeyToEthereumAddress",
      "outputs": [
        {
          "name": "",
          "type": "address"
        }
      ],
      "payable": false,
      "stateMutability": "pure",
      "type": "function"
    },
    {
      "constant": false,
      "inputs": [
        {
          "name": "_spender",
          "type": "address"
        },
        {
          "name": "_subtractedValue",
          "type": "uint256"
        }
      ],
      "name": "decreaseApproval",
      "outputs": [
        {
          "name": "",
          "type": "bool"
        }
      ],
      "payable": false,
      "stateMutability": "nonpayable",
      "type": "function"
    },
    {
      "constant": true,
      "inputs": [
        {
          "name": "_owner",
          "type": "address"
        }
      ],
      "name": "balanceOf",
      "outputs": [
        {
          "name": "",
          "type": "uint256"
        }
      ],
      "payable": false,
      "stateMutability": "view",
      "type": "function"
    },
    {
      "constant": true,
      "inputs": [],
      "name": "launchTime",
      "outputs": [
        {
          "name": "",
          "type": "uint256"
        }
      ],
      "payable": false,
      "stateMutability": "view",
      "type": "function"
    },
    {
      "constant": true,
      "inputs": [
        {
          "name": "_merkleLeafHash",
          "type": "bytes32"
        },
        {
          "name": "_proof",
          "type": "bytes32[]"
        }
      ],
      "name": "canRedeemUtxoHash",
      "outputs": [
        {
          "name": "",
          "type": "bool"
        }
      ],
      "payable": false,
      "stateMutability": "view",
      "type": "function"
    },
    {
      "constant": true,
      "inputs": [],
      "name": "totalBTCCirculationAtFork",
      "outputs": [
        {
          "name": "",
          "type": "uint256"
        }
      ],
      "payable": false,
      "stateMutability": "view",
      "type": "function"
    },
    {
      "constant": true,
      "inputs": [
        {
          "name": "",
          "type": "address"
        },
        {
          "name": "",
          "type": "uint256"
        }
      ],
      "name": "staked",
      "outputs": [
        {
          "name": "stakeAmount",
          "type": "uint256"
        },
        {
          "name": "stakeTime",
          "type": "uint256"
        },
        {
          "name": "unlockTime",
          "type": "uint256"
        },
        {
          "name": "stakedCoinsAtStart",
          "type": "uint256"
        }
      ],
      "payable": false,
      "stateMutability": "view",
      "type": "function"
    },
    {
      "constant": false,
      "inputs": [],
      "name": "storeWeekUnclaimed",
      "outputs": [],
      "payable": false,
      "stateMutability": "nonpayable",
      "type": "function"
    },
    {
      "constant": true,
      "inputs": [],
      "name": "origin",
      "outputs": [
        {
          "name": "",
          "type": "address"
        }
      ],
      "payable": false,
      "stateMutability": "view",
      "type": "function"
    },
    {
      "constant": true,
      "inputs": [],
      "name": "symbol",
      "outputs": [
        {
          "name": "",
          "type": "string"
        }
      ],
      "payable": false,
      "stateMutability": "view",
      "type": "function"
    },
    {
      "constant": false,
      "inputs": [
        {
          "name": "staker",
          "type": "address"
        }
      ],
      "name": "claimStakingRewards",
      "outputs": [],
      "payable": false,
      "stateMutability": "nonpayable",
      "type": "function"
    },
    {
      "constant": true,
      "inputs": [],
      "name": "lastUpdatedWeek",
      "outputs": [
        {
          "name": "",
          "type": "uint256"
        }
      ],
      "payable": false,
      "stateMutability": "view",
      "type": "function"
    },
    {
      "constant": false,
      "inputs": [
        {
          "name": "_to",
          "type": "address"
        },
        {
          "name": "_value",
          "type": "uint256"
        }
      ],
      "name": "transfer",
      "outputs": [
        {
          "name": "",
          "type": "bool"
        }
      ],
      "payable": false,
      "stateMutability": "nonpayable",
      "type": "function"
    },
    {
      "constant": true,
      "inputs": [
        {
          "name": "_proof",
          "type": "bytes32[]"
        },
        {
          "name": "_merkleLeafHash",
          "type": "bytes32"
        }
      ],
      "name": "verifyProof",
      "outputs": [
        {
          "name": "",
          "type": "bool"
        }
      ],
      "payable": false,
      "stateMutability": "view",
      "type": "function"
    },
    {
      "constant": true,
      "inputs": [
        {
          "name": "_addr",
          "type": "address"
        },
        {
          "name": "_pubKey",
          "type": "bytes"
        },
        {
          "name": "_v",
          "type": "uint8"
        },
        {
          "name": "_r",
          "type": "bytes32"
        },
        {
          "name": "_s",
          "type": "bytes32"
        }
      ],
      "name": "ecdsaVerify",
      "outputs": [
        {
          "name": "",
          "type": "bool"
        }
      ],
      "payable": false,
      "stateMutability": "pure",
      "type": "function"
    },
    {
      "constant": true,
      "inputs": [
        {
          "name": "_originalAddress",
          "type": "bytes20"
        },
        {
          "name": "_satoshis",
          "type": "uint256"
        },
        {
          "name": "_proof",
          "type": "bytes32[]"
        }
      ],
      "name": "canRedeemUtxo",
      "outputs": [
        {
          "name": "",
          "type": "bool"
        }
      ],
      "payable": false,
      "stateMutability": "view",
      "type": "function"
    },
    {
      "constant": true,
      "inputs": [],
      "name": "stakedCoins",
      "outputs": [
        {
          "name": "",
          "type": "uint256"
        }
      ],
      "payable": false,
      "stateMutability": "view",
      "type": "function"
    },
    {
      "constant": false,
      "inputs": [
        {
          "name": "_spender",
          "type": "address"
        },
        {
          "name": "_addedValue",
          "type": "uint256"
        }
      ],
      "name": "increaseApproval",
      "outputs": [
        {
          "name": "",
          "type": "bool"
        }
      ],
      "payable": false,
      "stateMutability": "nonpayable",
      "type": "function"
    },
    {
      "constant": true,
      "inputs": [
        {
          "name": "_owner",
          "type": "address"
        },
        {
          "name": "_spender",
          "type": "address"
        }
      ],
      "name": "allowance",
      "outputs": [
        {
          "name": "",
          "type": "uint256"
        }
      ],
      "payable": false,
      "stateMutability": "view",
      "type": "function"
    },
    {
      "constant": true,
      "inputs": [
        {
          "name": "_pubKey",
          "type": "bytes"
        },
        {
          "name": "_isCompressed",
          "type": "bool"
        }
      ],
      "name": "pubKeyToBitcoinAddress",
      "outputs": [
        {
          "name": "",
          "type": "bytes20"
        }
      ],
      "payable": false,
      "stateMutability": "pure",
      "type": "function"
    },
    {
      "constant": true,
      "inputs": [],
      "name": "rootUTXOMerkleTreeHash",
      "outputs": [
        {
          "name": "",
          "type": "bytes32"
        }
      ],
      "payable": false,
      "stateMutability": "view",
      "type": "function"
    },
    {
      "constant": true,
      "inputs": [],
      "name": "totalRedeemed",
      "outputs": [
        {
          "name": "",
          "type": "uint256"
        }
      ],
      "payable": false,
      "stateMutability": "view",
      "type": "function"
    },
    {
      "inputs": [
        {
          "name": "_originAddress",
          "type": "address"
        },
        {
          "name": "_rootUTXOMerkleTreeHash",
          "type": "bytes32"
        },
        {
          "name": "_maximumRedeemable",
          "type": "uint256"
        },
        {
          "name": "_totalBTCCirculationAtFork",
          "type": "uint256"
        }
      ],
      "payable": false,
      "stateMutability": "nonpayable",
      "type": "constructor"
    },
    {
      "anonymous": false,
      "inputs": [
        {
          "indexed": true,
          "name": "_address",
          "type": "address"
        },
        {
          "indexed": false,
          "name": "_reward",
          "type": "uint256"
        }
      ],
      "name": "Mint",
      "type": "event"
    },
    {
      "anonymous": false,
      "inputs": [
        {
          "indexed": true,
          "name": "owner",
          "type": "address"
        },
        {
          "indexed": true,
          "name": "spender",
          "type": "address"
        },
        {
          "indexed": false,
          "name": "value",
          "type": "uint256"
        }
      ],
      "name": "Approval",
      "type": "event"
    },
    {
      "anonymous": false,
      "inputs": [
        {
          "indexed": true,
          "name": "from",
          "type": "address"
        },
        {
          "indexed": true,
          "name": "to",
          "type": "address"
        },
        {
          "indexed": false,
          "name": "value",
          "type": "uint256"
        }
      ],
      "name": "Transfer",
      "type": "event"
    }
  ],
  "bytecode": "0x6080604052600060055560006009556040805190810160405280600a81526020017f426974636f696e48657800000000000000000000000000000000000000000000815250600e90805190602001906200005b92919062000169565b506040805190810160405280600381526020017f4248580000000000000000000000000000000000000000000000000000000000815250600f9080519060200190620000a992919062000169565b506012601055348015620000bc57600080fd5b506040516080806200421e833981018060405281019080805190602001909291908051906020019092919080519060200190929190805190602001909291905050504260048190555083600360006101000a81548173ffffffffffffffffffffffffffffffffffffffff021916908373ffffffffffffffffffffffffffffffffffffffff160217905550826007816000191690555081600a8190555080600b819055505050505062000218565b828054600181600116156101000203166002900490600052602060002090601f016020900481019282601f10620001ac57805160ff1916838001178555620001dd565b82800160010185558215620001dd579182015b82811115620001dc578251825591602001919060010190620001bf565b5b509050620001ec9190620001f0565b5090565b6200021591905b8082111562000211576000816000905550600101620001f7565b5090565b90565b613ff680620002286000396000f3006080604052600436106101a1576000357c0100000000000000000000000000000000000000000000000000000000900463ffffffff16806306fdde03146101a65780630867c0ad1461023657806308b4312b146102d4578063095ea7b3146102ff578063128bfcae1461036457806318160ddd1461039b57806323b872dd146103c6578063313ce5671461044b578063427da27514610476578063443de10c146105755780634ecd81b3146105cc5780635418796c14610692578063661884631461073b57806370a08231146107a0578063790ca413146107f757806381cd84b91461082257806385fcd90b146108ae5780638f169816146108d95780639283032c1461094f578063938b5f321461096657806395d89b41146109bd57806396bb1fef14610a4d5780639d65b89214610a90578063a9059cbb14610abb578063b80ac7df14610b20578063ce267b5514610bac578063cfc2334e14610c76578063d0668b3c14610d17578063d73dd62314610d42578063dd62ed3e14610da7578063e073ef6914610e1e578063e6997f6d14610ec5578063f35dad4014610ef8575b600080fd5b3480156101b257600080fd5b506101bb610f23565b6040518080602001828103825283818151815260200191508051906020019080838360005b838110156101fb5780820151818401526020810190506101e0565b50505050905090810190601f1680156102285780820380516001836020036101000a031916815260200191505b509250505060405180910390f35b34801561024257600080fd5b506102ba6004803603810190808035600019169060200190929190803560ff16906020019092919080356000191690602001909291908035600019169060200190929190803573ffffffffffffffffffffffffffffffffffffffff169060200190929190803515159060200190929190505050610fc1565b604051808215151515815260200191505060405180910390f35b3480156102e057600080fd5b506102e96111ac565b6040518082815260200191505060405180910390f35b34801561030b57600080fd5b5061034a600480360381019080803573ffffffffffffffffffffffffffffffffffffffff169060200190929190803590602001909291905050506111b2565b604051808215151515815260200191505060405180910390f35b34801561037057600080fd5b5061039960048036038101908080359060200190929190803590602001909291905050506112a4565b005b3480156103a757600080fd5b506103b0611574565b6040518082815260200191505060405180910390f35b3480156103d257600080fd5b50610431600480360381019080803573ffffffffffffffffffffffffffffffffffffffff169060200190929190803573ffffffffffffffffffffffffffffffffffffffff1690602001909291908035906020019092919050505061157e565b604051808215151515815260200191505060405180910390f35b34801561045757600080fd5b50610460611938565b6040518082815260200191505060405180910390f35b34801561048257600080fd5b5061055f6004803603810190808035906020019092919080359060200190820180359060200190808060200260200160405190810160405280939291908181526020018383602002808284378201915050505050509192919290803590602001908201803590602001908080601f0160208091040260200160405190810160405280939291908181526020018383808284378201915050505050509192919290803515159060200190929190803560ff1690602001909291908035600019169060200190929190803560001916906020019092919050505061193e565b6040518082815260200191505060405180910390f35b34801561058157600080fd5b506105b6600480360381019080803573ffffffffffffffffffffffffffffffffffffffff169060200190929190505050611c09565b6040518082815260200191505060405180910390f35b3480156105d857600080fd5b5061067c60048036038101908080359060200190929190803590602001908201803590602001919091929391929390803590602001908201803590602001919091929391929390803515159060200190929190803560ff16906020019092919080356000191690602001909291908035600019169060200190929190803573ffffffffffffffffffffffffffffffffffffffff169060200190929190505050611e8b565b6040518082815260200191505060405180910390f35b34801561069e57600080fd5b506106f9600480360381019080803590602001908201803590602001908080601f0160208091040260200160405190810160405280939291908181526020018383808284378201915050505050509192919290505050611fe4565b604051808273ffffffffffffffffffffffffffffffffffffffff1673ffffffffffffffffffffffffffffffffffffffff16815260200191505060405180910390f35b34801561074757600080fd5b50610786600480360381019080803573ffffffffffffffffffffffffffffffffffffffff1690602001909291908035906020019092919050505061206a565b604051808215151515815260200191505060405180910390f35b3480156107ac57600080fd5b506107e1600480360381019080803573ffffffffffffffffffffffffffffffffffffffff1690602001909291905050506122fb565b6040518082815260200191505060405180910390f35b34801561080357600080fd5b5061080c612343565b6040518082815260200191505060405180910390f35b34801561082e57600080fd5b50610894600480360381019080803560001916906020019092919080359060200190820180359060200190808060200260200160405190810160405280939291908181526020018383602002808284378201915050505050509192919290505050612349565b604051808215151515815260200191505060405180910390f35b3480156108ba57600080fd5b506108c3612394565b6040518082815260200191505060405180910390f35b3480156108e557600080fd5b50610924600480360381019080803573ffffffffffffffffffffffffffffffffffffffff1690602001909291908035906020019092919050505061239a565b6040518085815260200184815260200183815260200182815260200194505050505060405180910390f35b34801561095b57600080fd5b506109646123e6565b005b34801561097257600080fd5b5061097b612480565b604051808273ffffffffffffffffffffffffffffffffffffffff1673ffffffffffffffffffffffffffffffffffffffff16815260200191505060405180910390f35b3480156109c957600080fd5b506109d26124a6565b6040518080602001828103825283818151815260200191508051906020019080838360005b83811015610a125780820151818401526020810190506109f7565b50505050905090810190601f168015610a3f5780820380516001836020036101000a031916815260200191505b509250505060405180910390f35b348015610a5957600080fd5b50610a8e600480360381019080803573ffffffffffffffffffffffffffffffffffffffff169060200190929190505050612544565b005b348015610a9c57600080fd5b50610aa5612ce7565b6040518082815260200191505060405180910390f35b348015610ac757600080fd5b50610b06600480360381019080803573ffffffffffffffffffffffffffffffffffffffff16906020019092919080359060200190929190505050612ced565b604051808215151515815260200191505060405180910390f35b348015610b2c57600080fd5b50610b92600480360381019080803590602001908201803590602001908080602002602001604051908101604052809392919081815260200183836020028082843782019150505050505091929192908035600019169060200190929190505050612f0c565b604051808215151515815260200191505060405180910390f35b348015610bb857600080fd5b50610c5c600480360381019080803573ffffffffffffffffffffffffffffffffffffffff169060200190929190803590602001908201803590602001908080601f0160208091040260200160405190810160405280939291908181526020018383808284378201915050505050509192919290803560ff16906020019092919080356000191690602001909291908035600019169060200190929190505050612f23565b604051808215151515815260200191505060405180910390f35b348015610c8257600080fd5b50610cfd60048036038101908080356bffffffffffffffffffffffff191690602001909291908035906020019092919080359060200190820180359060200190808060200260200160405190810160405280939291908181526020018383602002808284378201915050505050509192919290505050613042565b604051808215151515815260200191505060405180910390f35b348015610d2357600080fd5b50610d2c613103565b6040518082815260200191505060405180910390f35b348015610d4e57600080fd5b50610d8d600480360381019080803573ffffffffffffffffffffffffffffffffffffffff16906020019092919080359060200190929190505050613109565b604051808215151515815260200191505060405180910390f35b348015610db357600080fd5b50610e08600480360381019080803573ffffffffffffffffffffffffffffffffffffffff169060200190929190803573ffffffffffffffffffffffffffffffffffffffff169060200190929190505050613305565b6040518082815260200191505060405180910390f35b348015610e2a57600080fd5b50610e91600480360381019080803590602001908201803590602001908080601f016020809104026020016040519081016040528093929190818152602001838380828437820191505050505050919291929080351515906020019092919050505061338c565b60405180826bffffffffffffffffffffffff19166bffffffffffffffffffffffff1916815260200191505060405180910390f35b348015610ed157600080fd5b50610eda61374b565b60405180826000191660001916815260200191505060405180910390f35b348015610f0457600080fd5b50610f0d613751565b6040518082815260200191505060405180910390f35b600e8054600181600116156101000203166002900480601f016020809104026020016040519081016040528092919081815260200182805460018160011615610100020316600290048015610fb95780601f10610f8e57610100808354040283529160200191610fb9565b820191906000526020600020905b815481529060010190602001808311610f9c57829003601f168201915b505050505081565b6000806060831515610fd5578891506110ef565b6040805190810160405280601c81526020017f19457468657265756d205369676e6564204d6573736167653a0a333200000000815250905080896040516020018083805190602001908083835b6020831015156110475780518252602082019150602081019050602083039250611022565b6001836020036101000a0380198251168184511680821785525050505050509050018260001916600019168152602001925050506040516020818303038152906040526040518082805190602001908083835b6020831015156110bf578051825260208201915060208101905060208303925061109a565b6001836020036101000a038019825116818451168082178552505050505050905001915050604051809103902091505b8473ffffffffffffffffffffffffffffffffffffffff166001838a8a8a604051600081526020016040526040518085600019166000191681526020018460ff1660ff1681526020018360001916600019168152602001826000191660001916815260200194505050505060206040516020810390808403906000865af115801561117d573d6000803e3d6000fd5b5050506020604051035173ffffffffffffffffffffffffffffffffffffffff1614925050509695505050505050565b600a5481565b600081600260003373ffffffffffffffffffffffffffffffffffffffff1673ffffffffffffffffffffffffffffffffffffffff16815260200190815260200160002060008573ffffffffffffffffffffffffffffffffffffffff1673ffffffffffffffffffffffffffffffffffffffff168152602001908152602001600020819055508273ffffffffffffffffffffffffffffffffffffffff163373ffffffffffffffffffffffffffffffffffffffff167f8c5be1e5ebec7d5bd14f71427d1e84f3dd0314c0f7b2291e5b200ac8c7c3b925846040518082815260200191505060405180910390a36001905092915050565b6000339050826000808373ffffffffffffffffffffffffffffffffffffffff1673ffffffffffffffffffffffffffffffffffffffff16815260200190815260200160002054101515156112f657600080fd5b6112fe6123e6565b61134f836000808473ffffffffffffffffffffffffffffffffffffffff1673ffffffffffffffffffffffffffffffffffffffff1681526020019081526020016000205461375790919063ffffffff16565b6000808373ffffffffffffffffffffffffffffffffffffffff1673ffffffffffffffffffffffffffffffffffffffff168152602001908152602001600020819055506113e2836000803073ffffffffffffffffffffffffffffffffffffffff1673ffffffffffffffffffffffffffffffffffffffff1681526020019081526020016000205461377090919063ffffffff16565b6000803073ffffffffffffffffffffffffffffffffffffffff1673ffffffffffffffffffffffffffffffffffffffff168152602001908152602001600020819055503073ffffffffffffffffffffffffffffffffffffffff168173ffffffffffffffffffffffffffffffffffffffff167fddf252ad1be2c89b69c2b068fc378daa952ba7f163c4a11628f55a4df523b3ef856040518082815260200191505060405180910390a3600d60008273ffffffffffffffffffffffffffffffffffffffff1673ffffffffffffffffffffffffffffffffffffffff168152602001908152602001600020608060405190810160405280856fffffffffffffffffffffffffffffffff168152602001428152602001848152602001600c54815250908060018154018082558091505090600182039060005260206000209060040201600090919290919091506000820151816000015560208201518160010155604082015181600201556060820151816003015550505061156983600c5461377090919063ffffffff16565b600c81905550505050565b6000600154905090565b60008073ffffffffffffffffffffffffffffffffffffffff168373ffffffffffffffffffffffffffffffffffffffff16141515156115bb57600080fd5b6000808573ffffffffffffffffffffffffffffffffffffffff1673ffffffffffffffffffffffffffffffffffffffff16815260200190815260200160002054821115151561160857600080fd5b600260008573ffffffffffffffffffffffffffffffffffffffff1673ffffffffffffffffffffffffffffffffffffffff16815260200190815260200160002060003373ffffffffffffffffffffffffffffffffffffffff1673ffffffffffffffffffffffffffffffffffffffff16815260200190815260200160002054821115151561169357600080fd5b6116e4826000808773ffffffffffffffffffffffffffffffffffffffff1673ffffffffffffffffffffffffffffffffffffffff1681526020019081526020016000205461375790919063ffffffff16565b6000808673ffffffffffffffffffffffffffffffffffffffff1673ffffffffffffffffffffffffffffffffffffffff16815260200190815260200160002081905550611777826000808673ffffffffffffffffffffffffffffffffffffffff1673ffffffffffffffffffffffffffffffffffffffff1681526020019081526020016000205461377090919063ffffffff16565b6000808573ffffffffffffffffffffffffffffffffffffffff1673ffffffffffffffffffffffffffffffffffffffff1681526020019081526020016000208190555061184882600260008773ffffffffffffffffffffffffffffffffffffffff1673ffffffffffffffffffffffffffffffffffffffff16815260200190815260200160002060003373ffffffffffffffffffffffffffffffffffffffff1673ffffffffffffffffffffffffffffffffffffffff1681526020019081526020016000205461375790919063ffffffff16565b600260008673ffffffffffffffffffffffffffffffffffffffff1673ffffffffffffffffffffffffffffffffffffffff16815260200190815260200160002060003373ffffffffffffffffffffffffffffffffffffffff1673ffffffffffffffffffffffffffffffffffffffff168152602001908152602001600020819055508273ffffffffffffffffffffffffffffffffffffffff168473ffffffffffffffffffffffffffffffffffffffff167fddf252ad1be2c89b69c2b068fc378daa952ba7f163c4a11628f55a4df523b3ef846040518082815260200191505060405180910390a3600190509392505050565b60105481565b600080600061194b6123e6565b603261197762093a806119696004544261375790919063ffffffff16565b61378c90919063ffffffff16565b10151561198357600080fd5b61198d888861338c565b9150818a60405160200180836bffffffffffffffffffffffff19166bffffffffffffffffffffffff19168152601401828152602001925050506040516020818303038152906040526040518082805190602001908083835b602083101515611a0a57805182526020820191506020810190506020830392506119e5565b6001836020036101000a03801982511681845116808217855250505050505090500191505060405180910390209050611a43818a612349565b1515611a4e57600080fd5b611a5b3389888888612f23565b1515611a6657600080fd5b600160086000836000191660001916815260200190815260200160002060006101000a81548160ff021916908315150217905550611aa38a6137a2565b9250600a54611abd8460095461377090919063ffffffff16565b11151515611aca57600080fd5b611adf8360095461377090919063ffffffff16565b600981905550611b36836000803373ffffffffffffffffffffffffffffffffffffffff1673ffffffffffffffffffffffffffffffffffffffff1681526020019081526020016000205461377090919063ffffffff16565b6000803373ffffffffffffffffffffffffffffffffffffffff1673ffffffffffffffffffffffffffffffffffffffff16815260200190815260200160002081905550611b8d8360015461377090919063ffffffff16565b6001819055503373ffffffffffffffffffffffffffffffffffffffff16600073ffffffffffffffffffffffffffffffffffffffff167fddf252ad1be2c89b69c2b068fc378daa952ba7f163c4a11628f55a4df523b3ef856040518082815260200191505060405180910390a38292505050979650505050505050565b60008060005b600d60008573ffffffffffffffffffffffffffffffffffffffff1673ffffffffffffffffffffffffffffffffffffffff16815260200190815260200160002080549050821015611e8157611cc9600d60008673ffffffffffffffffffffffffffffffffffffffff1673ffffffffffffffffffffffffffffffffffffffff16815260200190815260200160002083815481101515611ca857fe5b9060005260206000209060040201600001548461377090919063ffffffff16565b9250600d60008573ffffffffffffffffffffffffffffffffffffffff1673ffffffffffffffffffffffffffffffffffffffff16815260200190815260200160002082815481101515611d1757fe5b906000526020600020906004020160020154421115611e7457611dc6600d60008673ffffffffffffffffffffffffffffffffffffffff1673ffffffffffffffffffffffffffffffffffffffff16815260200190815260200160002083815481101515611d7f57fe5b906000526020600020906004020160806040519081016040529081600082015481526020016001820154815260200160028201548152602001600382015481525050613b22565b9050611e71611e62600d60008773ffffffffffffffffffffffffffffffffffffffff1673ffffffffffffffffffffffffffffffffffffffff16815260200190815260200160002084815481101515611e1a57fe5b90600052602060002090600402016080604051908101604052908160008201548152602001600182015481526020016002820154815260200160038201548152505083613c0a565b8461377090919063ffffffff16565b92505b8180600101925050611c0f565b8292505050919050565b6000611efd8b8b8b808060200260200160405190810160405280939291908181526020018383602002808284378201915050505050508a8a8080601f0160208091040260200160405190810160405280939291908181526020018383808284378201915050505050508989898961193e565b9050611f63611f1660148361378c90919063ffffffff16565b6000808573ffffffffffffffffffffffffffffffffffffffff1673ffffffffffffffffffffffffffffffffffffffff1681526020019081526020016000205461377090919063ffffffff16565b6000808473ffffffffffffffffffffffffffffffffffffffff1673ffffffffffffffffffffffffffffffffffffffff16815260200190815260200160002081905550611fcd611fbc60148361378c90919063ffffffff16565b60015461377090919063ffffffff16565b6001819055508090509a9950505050505050505050565b600073ffffffffffffffffffffffffffffffffffffffff826040518082805190602001908083835b602083101515612031578051825260208201915060208101905060208303925061200c565b6001836020036101000a038019825116818451168082178552505050505050905001915050604051809103902060019004169050919050565b600080600260003373ffffffffffffffffffffffffffffffffffffffff1673ffffffffffffffffffffffffffffffffffffffff16815260200190815260200160002060008573ffffffffffffffffffffffffffffffffffffffff1673ffffffffffffffffffffffffffffffffffffffff1681526020019081526020016000205490508083111561217b576000600260003373ffffffffffffffffffffffffffffffffffffffff1673ffffffffffffffffffffffffffffffffffffffff16815260200190815260200160002060008673ffffffffffffffffffffffffffffffffffffffff1673ffffffffffffffffffffffffffffffffffffffff1681526020019081526020016000208190555061220f565b61218e838261375790919063ffffffff16565b600260003373ffffffffffffffffffffffffffffffffffffffff1673ffffffffffffffffffffffffffffffffffffffff16815260200190815260200160002060008673ffffffffffffffffffffffffffffffffffffffff1673ffffffffffffffffffffffffffffffffffffffff168152602001908152602001600020819055505b8373ffffffffffffffffffffffffffffffffffffffff163373ffffffffffffffffffffffffffffffffffffffff167f8c5be1e5ebec7d5bd14f71427d1e84f3dd0314c0f7b2291e5b200ac8c7c3b925600260003373ffffffffffffffffffffffffffffffffffffffff1673ffffffffffffffffffffffffffffffffffffffff16815260200190815260200160002060008873ffffffffffffffffffffffffffffffffffffffff1673ffffffffffffffffffffffffffffffffffffffff168152602001908152602001600020546040518082815260200191505060405180910390a3600191505092915050565b60008060008373ffffffffffffffffffffffffffffffffffffffff1673ffffffffffffffffffffffffffffffffffffffff168152602001908152602001600020549050919050565b60045481565b600080151560086000856000191660001916815260200190815260200160002060009054906101000a900460ff16151514801561238c575061238b8284612f0c565b5b905092915050565b600b5481565b600d602052816000526040600020818154811015156123b557fe5b9060005260206000209060040201600091509150508060000154908060010154908060020154908060030154905084565b60008061241362093a806124056004544261375790919063ffffffff16565b61378c90919063ffffffff16565b9150603382108015612426575060055482115b1561247c57612442600954600a5461375790919063ffffffff16565b9050602060405190810160405280828152506006600084815260200190815260200160002060008201518160000155905050816005819055505b5050565b600360009054906101000a900473ffffffffffffffffffffffffffffffffffffffff1681565b600f8054600181600116156101000203166002900480601f01602080910402602001604051908101604052809291908181526020018280546001816001161561010002031660029004801561253c5780601f106125115761010080835404028352916020019161253c565b820191906000526020600020905b81548152906001019060200180831161251f57829003601f168201915b505050505081565b60008060006125516123e6565b5b600d60008573ffffffffffffffffffffffffffffffffffffffff1673ffffffffffffffffffffffffffffffffffffffff16815260200190815260200160002080549050831015612ce157600d60008573ffffffffffffffffffffffffffffffffffffffff1673ffffffffffffffffffffffffffffffffffffffff168152602001908152602001600020838154811015156125e857fe5b906000526020600020906004020160020154421115612cd457612673600d60008673ffffffffffffffffffffffffffffffffffffffff1673ffffffffffffffffffffffffffffffffffffffff1681526020019081526020016000208481548110151561265057fe5b906000526020600020906004020160000154600c5461375790919063ffffffff16565b600c81905550612727600d60008673ffffffffffffffffffffffffffffffffffffffff1673ffffffffffffffffffffffffffffffffffffffff168152602001908152602001600020848154811015156126c857fe5b9060005260206000209060040201600001546000803073ffffffffffffffffffffffffffffffffffffffff1673ffffffffffffffffffffffffffffffffffffffff1681526020019081526020016000205461375790919063ffffffff16565b6000803073ffffffffffffffffffffffffffffffffffffffff1673ffffffffffffffffffffffffffffffffffffffff16815260200190815260200160002081905550612817600d60008673ffffffffffffffffffffffffffffffffffffffff1673ffffffffffffffffffffffffffffffffffffffff168152602001908152602001600020848154811015156127b857fe5b9060005260206000209060040201600001546000808773ffffffffffffffffffffffffffffffffffffffff1673ffffffffffffffffffffffffffffffffffffffff1681526020019081526020016000205461377090919063ffffffff16565b6000808673ffffffffffffffffffffffffffffffffffffffff1673ffffffffffffffffffffffffffffffffffffffff168152602001908152602001600020819055508373ffffffffffffffffffffffffffffffffffffffff163073ffffffffffffffffffffffffffffffffffffffff167fddf252ad1be2c89b69c2b068fc378daa952ba7f163c4a11628f55a4df523b3ef600d60008873ffffffffffffffffffffffffffffffffffffffff1673ffffffffffffffffffffffffffffffffffffffff168152602001908152602001600020868154811015156128f457fe5b9060005260206000209060040201600001546040518082815260200191505060405180910390a36129b1600d60008673ffffffffffffffffffffffffffffffffffffffff1673ffffffffffffffffffffffffffffffffffffffff1681526020019081526020016000208481548110151561296a57fe5b906000526020600020906004020160806040519081016040529081600082015481526020016001820154815260200160028201548152602001600382015481525050613b22565b9150612a5c612a4d600d60008773ffffffffffffffffffffffffffffffffffffffff1673ffffffffffffffffffffffffffffffffffffffff16815260200190815260200160002085815481101515612a0557fe5b90600052602060002090600402016080604051908101604052908160008201548152602001600182015481526020016002820154815260200160038201548152505084613c0a565b8261377090919063ffffffff16565b9050612aaf816000808773ffffffffffffffffffffffffffffffffffffffff1673ffffffffffffffffffffffffffffffffffffffff1681526020019081526020016000205461377090919063ffffffff16565b6000808673ffffffffffffffffffffffffffffffffffffffff1673ffffffffffffffffffffffffffffffffffffffff16815260200190815260200160002081905550612b76612b07838361375790919063ffffffff16565b600080600360009054906101000a900473ffffffffffffffffffffffffffffffffffffffff1673ffffffffffffffffffffffffffffffffffffffff1673ffffffffffffffffffffffffffffffffffffffff1681526020019081526020016000205461377090919063ffffffff16565b600080600360009054906101000a900473ffffffffffffffffffffffffffffffffffffffff1673ffffffffffffffffffffffffffffffffffffffff1673ffffffffffffffffffffffffffffffffffffffff16815260200190815260200160002081905550612c02612bf1600283613c6990919063ffffffff16565b60015461377090919063ffffffff16565b600181905550600d60008573ffffffffffffffffffffffffffffffffffffffff1673ffffffffffffffffffffffffffffffffffffffff16815260200190815260200160002083815481101515612c5457fe5b906000526020600020906004020160008082016000905560018201600090556002820160009055600382016000905550508373ffffffffffffffffffffffffffffffffffffffff167f0f6798a560793a54c3bcfe86a93cde1e73087d944c0ea20544137d4121396885826040518082815260200191505060405180910390a25b8280600101935050612552565b50505050565b60055481565b60008073ffffffffffffffffffffffffffffffffffffffff168373ffffffffffffffffffffffffffffffffffffffff1614151515612d2a57600080fd5b6000803373ffffffffffffffffffffffffffffffffffffffff1673ffffffffffffffffffffffffffffffffffffffff168152602001908152602001600020548211151515612d7757600080fd5b612dc8826000803373ffffffffffffffffffffffffffffffffffffffff1673ffffffffffffffffffffffffffffffffffffffff1681526020019081526020016000205461375790919063ffffffff16565b6000803373ffffffffffffffffffffffffffffffffffffffff1673ffffffffffffffffffffffffffffffffffffffff16815260200190815260200160002081905550612e5b826000808673ffffffffffffffffffffffffffffffffffffffff1673ffffffffffffffffffffffffffffffffffffffff1681526020019081526020016000205461377090919063ffffffff16565b6000808573ffffffffffffffffffffffffffffffffffffffff1673ffffffffffffffffffffffffffffffffffffffff168152602001908152602001600020819055508273ffffffffffffffffffffffffffffffffffffffff163373ffffffffffffffffffffffffffffffffffffffff167fddf252ad1be2c89b69c2b068fc378daa952ba7f163c4a11628f55a4df523b3ef846040518082815260200191505060405180910390a36001905092915050565b6000612f1b8360075484613ca1565b905092915050565b6000613037600287604051602001808273ffffffffffffffffffffffffffffffffffffffff1673ffffffffffffffffffffffffffffffffffffffff166c010000000000000000000000000281526014019150506040516020818303038152906040526040518082805190602001908083835b602083101515612fba5780518252602082019150602081019050602083039250612f95565b6001836020036101000a0380198251168184511680821785525050505050509050019150506020604051808303816000865af1158015612ffe573d6000803e3d6000fd5b5050506040513d602081101561301357600080fd5b81019080805190602001909291905050508585856130308a611fe4565b6000610fc1565b905095945050505050565b600080848460405160200180836bffffffffffffffffffffffff19166bffffffffffffffffffffffff19168152601401828152602001925050506040516020818303038152906040526040518082805190602001908083835b6020831015156130c0578051825260208201915060208101905060208303925061309b565b6001836020036101000a038019825116818451168082178552505050505050905001915050604051809103902090506130f98184612349565b9150509392505050565b600c5481565b600061319a82600260003373ffffffffffffffffffffffffffffffffffffffff1673ffffffffffffffffffffffffffffffffffffffff16815260200190815260200160002060008673ffffffffffffffffffffffffffffffffffffffff1673ffffffffffffffffffffffffffffffffffffffff1681526020019081526020016000205461377090919063ffffffff16565b600260003373ffffffffffffffffffffffffffffffffffffffff1673ffffffffffffffffffffffffffffffffffffffff16815260200190815260200160002060008573ffffffffffffffffffffffffffffffffffffffff1673ffffffffffffffffffffffffffffffffffffffff168152602001908152602001600020819055508273ffffffffffffffffffffffffffffffffffffffff163373ffffffffffffffffffffffffffffffffffffffff167f8c5be1e5ebec7d5bd14f71427d1e84f3dd0314c0f7b2291e5b200ac8c7c3b925600260003373ffffffffffffffffffffffffffffffffffffffff1673ffffffffffffffffffffffffffffffffffffffff16815260200190815260200160002060008773ffffffffffffffffffffffffffffffffffffffff1673ffffffffffffffffffffffffffffffffffffffff168152602001908152602001600020546040518082815260200191505060405180910390a36001905092915050565b6000600260008473ffffffffffffffffffffffffffffffffffffffff1673ffffffffffffffffffffffffffffffffffffffff16815260200190815260200160002060008373ffffffffffffffffffffffffffffffffffffffff1673ffffffffffffffffffffffffffffffffffffffff16815260200190815260200160002054905092915050565b60008060008061339d866000613d6c565b6001900492506133ae866020613d6c565b600190049150841561358a5760006002838115156133c857fe5b06146133d55760036133d8565b60025b9050600360028285604051602001808360ff1660ff167f0100000000000000000000000000000000000000000000000000000000000000028152600101828152602001925050506040516020818303038152906040526040518082805190602001908083835b602083101515613463578051825260208201915060208101905060208303925061343e565b6001836020036101000a0380198251168184511680821785525050505050509050019150506020604051808303816000865af11580156134a7573d6000803e3d6000fd5b5050506040513d60208110156134bc57600080fd5b81019080805190602001909291905050506040516020018082600019166000191681526020019150506040516020818303038152906040526040518082805190602001908083835b6020831015156135295780518252602082019150602081019050602083039250613504565b6001836020036101000a0380198251168184511680821785525050505050509050019150506020604051808303816000865af115801561356d573d6000803e3d6000fd5b505050604051516c01000000000000000000000000029350613742565b6004905060036002828585604051602001808460ff1660ff167f010000000000000000000000000000000000000000000000000000000000000002815260010183815260200182815260200193505050506040516020818303038152906040526040518082805190602001908083835b60208310151561361f57805182526020820191506020810190506020830392506135fa565b6001836020036101000a0380198251168184511680821785525050505050509050019150506020604051808303816000865af1158015613663573d6000803e3d6000fd5b5050506040513d602081101561367857600080fd5b81019080805190602001909291905050506040516020018082600019166000191681526020019150506040516020818303038152906040526040518082805190602001908083835b6020831015156136e557805182526020820191506020810190506020830392506136c0565b6001836020036101000a0380198251168184511680821785525050505050509050019150506020604051808303816000865af1158015613729573d6000803e3d6000fd5b505050604051516c010000000000000000000000000293505b50505092915050565b60075481565b60095481565b600082821115151561376557fe5b818303905092915050565b6000818301905082811015151561378357fe5b80905092915050565b6000818381151561379957fe5b04905092915050565b60008060008060006137c26402540be40087613c6990919063ffffffff16565b93506137ee62093a806137e06004544261375790919063ffffffff16565b61378c90919063ffffffff16565b9250613817613807600285613c6990919063ffffffff16565b606461375790919063ffffffff16565b9150683635c9adc5dea000008411156138b05769152d02c7e14af680000084101561389857613891640ba43b74006138836009613875600261386764174876e8008b61375790919063ffffffff16565b613c6990919063ffffffff16565b61378c90919063ffffffff16565b61377090919063ffffffff16565b93506138af565b6138ac60048561378c90919063ffffffff16565b93505b5b6138ed60646138df6402540be4006138d18689613c6990919063ffffffff16565b613c6990919063ffffffff16565b61378c90919063ffffffff16565b9050602d83111561390057809450613b19565b6020831115613937576139306064613922606584613c6990919063ffffffff16565b61378c90919063ffffffff16565b9450613b19565b601883111561396e576139676064613959606684613c6990919063ffffffff16565b61378c90919063ffffffff16565b9450613b19565b60128311156139a55761399e6064613990606784613c6990919063ffffffff16565b61378c90919063ffffffff16565b9450613b19565b600e8311156139dc576139d560646139c7606884613c6990919063ffffffff16565b61378c90919063ffffffff16565b9450613b19565b600a831115613a1357613a0c60646139fe606984613c6990919063ffffffff16565b61378c90919063ffffffff16565b9450613b19565b6007831115613a4a57613a436064613a35606a84613c6990919063ffffffff16565b61378c90919063ffffffff16565b9450613b19565b6005831115613a8157613a7a6064613a6c606b84613c6990919063ffffffff16565b61378c90919063ffffffff16565b9450613b19565b6003831115613ab857613ab16064613aa3606c84613c6990919063ffffffff16565b61378c90919063ffffffff16565b9450613b19565b6001831115613aef57613ae86064613ada606d84613c6990919063ffffffff16565b61378c90919063ffffffff16565b9450613b19565b613b166064613b08606e84613c6990919063ffffffff16565b61378c90919063ffffffff16565b94505b50505050919050565b600080600080600060649350613b5a600154613b4c60648960600151613c6990919063ffffffff16565b61378c90919063ffffffff16565b9250613b6f838561378c90919063ffffffff16565b9350613b9d620d2f00613b8f88602001514261375790919063ffffffff16565b61378c90919063ffffffff16565b9150613bae86600001518386613e48565b9050613bff8660000151613bf183613be36103e8613bd58888613c6990919063ffffffff16565b61378c90919063ffffffff16565b61377090919063ffffffff16565b61375790919063ffffffff16565b945050505050919050565b6000613c27613c1884613e69565b8361377090919063ffffffff16565b9050613c5e613c3582613f40565b613c50613c4184613f85565b8461377090919063ffffffff16565b61377090919063ffffffff16565b905080905092915050565b600080831415613c7c5760009050613c9b565b8183029050818382811515613c8d57fe5b04141515613c9757fe5b8090505b92915050565b600080600080849250600091505b8651821015613d55578682815181101515613cc657fe5b906020019060200201519050806000191683600019161015613d1757828160405180836000191660001916815260200182600019166000191681526020019250505060405180910390209250613d48565b8083604051808360001916600019168152602001826000191660001916815260200192505050604051809103902092505b8180600101925050613caf565b856000191683600019161493505050509392505050565b600080600090505b6020811015613e3e576008810284848301815181101515613d9157fe5b9060200101517f010000000000000000000000000000000000000000000000000000000000000090047f0100000000000000000000000000000000000000000000000000000000000000027effffffffffffffffffffffffffffffffffffffffffffffffffffffffffffff19167fff0000000000000000000000000000000000000000000000000000000000000060010216600019169060020a9004821891508080600101915050613d74565b8191505092915050565b60008260640a83836064010a8502811515613e5f57fe5b0490509392505050565b600080600080613e9d62093a80613e8f600454886020015161375790919063ffffffff16565b61378c90919063ffffffff16565b9250613ec962093a80613ebb6004544261375790919063ffffffff16565b61378c90919063ffffffff16565b91508290505b81811015613f3857613f29613f1a6032613f0c88600001516006600087815260200190815260200160002060000154613c6990919063ffffffff16565b61378c90919063ffffffff16565b8561377090919063ffffffff16565b93508080600101915050613ecf565b505050919050565b6000613f7e600a613f70600a54613f6260095487613c6990919063ffffffff16565b61378c90919063ffffffff16565b61378c90919063ffffffff16565b9050919050565b6000613fc3600a613fb5600b54613fa760095487613c6990919063ffffffff16565b61378c90919063ffffffff16565b61378c90919063ffffffff16565b90509190505600a165627a7a723058206d13e274ddee4448c72f8645714f6b5601ea35c5b3fbb53f0911828a1fb5e23e0029",
  "source": "pragma solidity ^0.4.23;\nimport \"./StakeableToken.sol\";\n\ncontract BitcoinHex is StakeableToken {\n    string public name = \"BitcoinHex\"; \n    string public symbol = \"BHX\";\n    uint public decimals = 18;\n\n    constructor (\n        address _originAddress,\n        bytes32 _rootUTXOMerkleTreeHash,\n        uint256 _maximumRedeemable,\n        uint256 _totalBTCCirculationAtFork\n    ) \n        public\n    {\n        launchTime = block.timestamp;\n        origin = _originAddress;\n        rootUTXOMerkleTreeHash = _rootUTXOMerkleTreeHash;\n        maximumRedeemable = _maximumRedeemable;\n        totalBTCCirculationAtFork = _totalBTCCirculationAtFork;\n    }\n}\n",
  "sourcePath": "/Users/tovarishfin/dev/bhx/bhx-contracts/contracts/BitcoinHex.sol",
  "compiler": {
    "name": "solc",
    "version": "0.4.24+commit.e67f0147.Emscripten.clang"
  },
  "schemaVersion": "2.0.0",
  "updatedAt": "2018-07-03T11:52:54.472Z"
}