{
  "contractName": "BitcoinHex",
  "abi": [
    {
      "constant": true,
      "inputs": [],
      "name": "name",
      "outputs": [
        {
          "name": "",
          "type": "string"
        }
      ],
      "payable": false,
      "stateMutability": "view",
      "type": "function"
    },
    {
      "constant": true,
      "inputs": [],
      "name": "maximumRedeemable",
      "outputs": [
        {
          "name": "",
          "type": "uint256"
        }
      ],
      "payable": false,
      "stateMutability": "view",
      "type": "function"
    },
    {
      "constant": false,
      "inputs": [
        {
          "name": "_spender",
          "type": "address"
        },
        {
          "name": "_value",
          "type": "uint256"
        }
      ],
      "name": "approve",
      "outputs": [
        {
          "name": "",
          "type": "bool"
        }
      ],
      "payable": false,
      "stateMutability": "nonpayable",
      "type": "function"
    },
    {
      "constant": false,
      "inputs": [],
      "name": "mint",
      "outputs": [
        {
          "name": "",
          "type": "bool"
        }
      ],
      "payable": false,
      "stateMutability": "nonpayable",
      "type": "function"
    },
    {
      "constant": false,
      "inputs": [
        {
          "name": "_value",
          "type": "uint256"
        },
        {
          "name": "_unlockTime",
          "type": "uint256"
        }
      ],
      "name": "startStake",
      "outputs": [],
      "payable": false,
      "stateMutability": "nonpayable",
      "type": "function"
    },
    {
      "constant": true,
      "inputs": [],
      "name": "totalSupply",
      "outputs": [
        {
          "name": "",
          "type": "uint256"
        }
      ],
      "payable": false,
      "stateMutability": "view",
      "type": "function"
    },
    {
      "constant": false,
      "inputs": [
        {
          "name": "_from",
          "type": "address"
        },
        {
          "name": "_to",
          "type": "address"
        },
        {
          "name": "_value",
          "type": "uint256"
        }
      ],
      "name": "transferFrom",
      "outputs": [
        {
          "name": "",
          "type": "bool"
        }
      ],
      "payable": false,
      "stateMutability": "nonpayable",
      "type": "function"
    },
    {
      "constant": true,
      "inputs": [],
      "name": "decimals",
      "outputs": [
        {
          "name": "",
          "type": "uint256"
        }
      ],
      "payable": false,
      "stateMutability": "view",
      "type": "function"
    },
    {
      "constant": true,
      "inputs": [
        {
          "name": "pubKey",
          "type": "bytes"
        }
      ],
      "name": "pubKeyToEthereumAddress",
      "outputs": [
        {
          "name": "",
          "type": "address"
        }
      ],
      "payable": false,
      "stateMutability": "pure",
      "type": "function"
    },
    {
      "constant": false,
      "inputs": [
        {
          "name": "txid",
          "type": "bytes32"
        },
        {
          "name": "outputIndex",
          "type": "uint8"
        },
        {
          "name": "satoshis",
          "type": "uint256"
        },
        {
          "name": "proof",
          "type": "bytes32[]"
        },
        {
          "name": "pubKey",
          "type": "bytes"
        },
        {
          "name": "isCompressed",
          "type": "bool"
        },
        {
          "name": "v",
          "type": "uint8"
        },
        {
          "name": "r",
          "type": "bytes32"
        },
        {
          "name": "s",
          "type": "bytes32"
        },
        {
          "name": "referrer",
          "type": "address"
        }
      ],
      "name": "redeemUTXO",
      "outputs": [
        {
          "name": "tokensRedeemed",
          "type": "uint256"
        }
      ],
      "payable": false,
      "stateMutability": "nonpayable",
      "type": "function"
    },
    {
      "constant": false,
      "inputs": [
        {
          "name": "_spender",
          "type": "address"
        },
        {
          "name": "_subtractedValue",
          "type": "uint256"
        }
      ],
      "name": "decreaseApproval",
      "outputs": [
        {
          "name": "",
          "type": "bool"
        }
      ],
      "payable": false,
      "stateMutability": "nonpayable",
      "type": "function"
    },
    {
      "constant": true,
      "inputs": [
        {
          "name": "_owner",
          "type": "address"
        }
      ],
      "name": "balanceOf",
      "outputs": [
        {
          "name": "",
          "type": "uint256"
        }
      ],
      "payable": false,
      "stateMutability": "view",
      "type": "function"
    },
    {
      "constant": false,
      "inputs": [
        {
          "name": "txid",
          "type": "bytes32"
        },
        {
          "name": "outputIndex",
          "type": "uint8"
        },
        {
          "name": "satoshis",
          "type": "uint256"
        },
        {
          "name": "proof",
          "type": "bytes32[]"
        },
        {
          "name": "pubKey",
          "type": "bytes"
        },
        {
          "name": "isCompressed",
          "type": "bool"
        },
        {
          "name": "v",
          "type": "uint8"
        },
        {
          "name": "r",
          "type": "bytes32"
        },
        {
          "name": "s",
          "type": "bytes32"
        }
      ],
      "name": "redeemUTXO",
      "outputs": [
        {
          "name": "tokensRedeemed",
          "type": "uint256"
        }
      ],
      "payable": false,
      "stateMutability": "nonpayable",
      "type": "function"
    },
    {
      "constant": true,
      "inputs": [
        {
          "name": "merkleLeafHash",
          "type": "bytes32"
        },
        {
          "name": "proof",
          "type": "bytes32[]"
        }
      ],
      "name": "canRedeemUTXOHash",
      "outputs": [
        {
          "name": "",
          "type": "bool"
        }
      ],
      "payable": false,
      "stateMutability": "view",
      "type": "function"
    },
    {
      "constant": true,
      "inputs": [],
      "name": "owner",
      "outputs": [
        {
          "name": "",
          "type": "address"
        }
      ],
      "payable": false,
      "stateMutability": "view",
      "type": "function"
    },
    {
      "constant": true,
      "inputs": [],
      "name": "symbol",
      "outputs": [
        {
          "name": "",
          "type": "string"
        }
      ],
      "payable": false,
      "stateMutability": "view",
      "type": "function"
    },
    {
      "constant": false,
      "inputs": [
        {
          "name": "_to",
          "type": "address"
        },
        {
          "name": "_value",
          "type": "uint256"
        }
      ],
      "name": "transfer",
      "outputs": [
        {
          "name": "",
          "type": "bool"
        }
      ],
      "payable": false,
      "stateMutability": "nonpayable",
      "type": "function"
    },
    {
      "constant": true,
      "inputs": [
        {
          "name": "hash",
          "type": "bytes32"
        },
        {
          "name": "v",
          "type": "uint8"
        },
        {
          "name": "r",
          "type": "bytes32"
        },
        {
          "name": "s",
          "type": "bytes32"
        },
        {
          "name": "expected",
          "type": "address"
        }
      ],
      "name": "validateSignature",
      "outputs": [
        {
          "name": "",
          "type": "bool"
        }
      ],
      "payable": false,
      "stateMutability": "pure",
      "type": "function"
    },
    {
      "constant": true,
      "inputs": [
        {
          "name": "proof",
          "type": "bytes32[]"
        },
        {
          "name": "merkleLeafHash",
          "type": "bytes32"
        }
      ],
      "name": "verifyProof",
      "outputs": [
        {
          "name": "",
          "type": "bool"
        }
      ],
      "payable": false,
      "stateMutability": "view",
      "type": "function"
    },
    {
      "constant": true,
      "inputs": [
        {
          "name": "txid",
          "type": "bytes32"
        },
        {
          "name": "originalAddress",
          "type": "bytes20"
        },
        {
          "name": "outputIndex",
          "type": "uint8"
        },
        {
          "name": "satoshis",
          "type": "uint256"
        },
        {
          "name": "proof",
          "type": "bytes32[]"
        }
      ],
      "name": "canRedeemUTXO",
      "outputs": [
        {
          "name": "",
          "type": "bool"
        }
      ],
      "payable": false,
      "stateMutability": "view",
      "type": "function"
    },
    {
      "constant": true,
      "inputs": [
        {
          "name": "addr",
          "type": "address"
        },
        {
          "name": "pubKey",
          "type": "bytes"
        },
        {
          "name": "v",
          "type": "uint8"
        },
        {
          "name": "r",
          "type": "bytes32"
        },
        {
          "name": "s",
          "type": "bytes32"
        }
      ],
      "name": "ecdsaVerify",
      "outputs": [
        {
          "name": "",
          "type": "bool"
        }
      ],
      "payable": false,
      "stateMutability": "pure",
      "type": "function"
    },
    {
      "constant": false,
      "inputs": [
        {
          "name": "_spender",
          "type": "address"
        },
        {
          "name": "_addedValue",
          "type": "uint256"
        }
      ],
      "name": "increaseApproval",
      "outputs": [
        {
          "name": "",
          "type": "bool"
        }
      ],
      "payable": false,
      "stateMutability": "nonpayable",
      "type": "function"
    },
    {
      "constant": true,
      "inputs": [
        {
          "name": "_owner",
          "type": "address"
        },
        {
          "name": "_spender",
          "type": "address"
        }
      ],
      "name": "allowance",
      "outputs": [
        {
          "name": "",
          "type": "uint256"
        }
      ],
      "payable": false,
      "stateMutability": "view",
      "type": "function"
    },
    {
      "constant": true,
      "inputs": [
        {
          "name": "pubKey",
          "type": "bytes"
        },
        {
          "name": "isCompressed",
          "type": "bool"
        }
      ],
      "name": "pubKeyToBitcoinAddress",
      "outputs": [
        {
          "name": "",
          "type": "bytes20"
        }
      ],
      "payable": false,
      "stateMutability": "pure",
      "type": "function"
    },
    {
      "constant": true,
      "inputs": [],
      "name": "rootUTXOMerkleTreeHash",
      "outputs": [
        {
          "name": "",
          "type": "bytes32"
        }
      ],
      "payable": false,
      "stateMutability": "view",
      "type": "function"
    },
    {
      "constant": false,
      "inputs": [
        {
          "name": "newOwner",
          "type": "address"
        }
      ],
      "name": "transferOwnership",
      "outputs": [],
      "payable": false,
      "stateMutability": "nonpayable",
      "type": "function"
    },
    {
      "constant": true,
      "inputs": [],
      "name": "totalRedeemed",
      "outputs": [
        {
          "name": "",
          "type": "uint256"
        }
      ],
      "payable": false,
      "stateMutability": "view",
      "type": "function"
    },
    {
      "inputs": [],
      "payable": false,
      "stateMutability": "nonpayable",
      "type": "constructor"
    },
    {
      "anonymous": false,
      "inputs": [
        {
          "indexed": true,
          "name": "_address",
          "type": "address"
        },
        {
          "indexed": false,
          "name": "_reward",
          "type": "uint256"
        }
      ],
      "name": "Mint",
      "type": "event"
    },
    {
      "anonymous": false,
      "inputs": [
        {
          "indexed": false,
          "name": "txid",
          "type": "bytes32"
        },
        {
          "indexed": false,
          "name": "outputIndex",
          "type": "uint8"
        },
        {
          "indexed": false,
          "name": "satoshis",
          "type": "uint256"
        },
        {
          "indexed": false,
          "name": "proof",
          "type": "bytes32[]"
        },
        {
          "indexed": false,
          "name": "pubKey",
          "type": "bytes"
        },
        {
          "indexed": false,
          "name": "v",
          "type": "uint8"
        },
        {
          "indexed": false,
          "name": "r",
          "type": "bytes32"
        },
        {
          "indexed": false,
          "name": "s",
          "type": "bytes32"
        },
        {
          "indexed": true,
          "name": "redeemer",
          "type": "address"
        },
        {
          "indexed": false,
          "name": "numberOfTokens",
          "type": "uint256"
        }
      ],
      "name": "UTXORedeemed",
      "type": "event"
    },
    {
      "anonymous": false,
      "inputs": [
        {
          "indexed": true,
          "name": "previousOwner",
          "type": "address"
        },
        {
          "indexed": true,
          "name": "newOwner",
          "type": "address"
        }
      ],
      "name": "OwnershipTransferred",
      "type": "event"
    },
    {
      "anonymous": false,
      "inputs": [
        {
          "indexed": true,
          "name": "owner",
          "type": "address"
        },
        {
          "indexed": true,
          "name": "spender",
          "type": "address"
        },
        {
          "indexed": false,
          "name": "value",
          "type": "uint256"
        }
      ],
      "name": "Approval",
      "type": "event"
    },
    {
      "anonymous": false,
      "inputs": [
        {
          "indexed": true,
          "name": "from",
          "type": "address"
        },
        {
          "indexed": true,
          "name": "to",
          "type": "address"
        },
        {
          "indexed": false,
          "name": "value",
          "type": "uint256"
        }
      ],
      "name": "Transfer",
      "type": "event"
    }
  ],
  "bytecode": "0x6080604052600060075560006009556040805190810160405280600a81526020017f426974636f696e48657800000000000000000000000000000000000000000000815250600b90805190602001906200005b9291906200016b565b506040805190810160405280600381526020017f4248580000000000000000000000000000000000000000000000000000000000815250600c9080519060200190620000a99291906200016b565b506008600d55348015620000bc57600080fd5b5033600360006101000a81548173ffffffffffffffffffffffffffffffffffffffff021916908373ffffffffffffffffffffffffffffffffffffffff16021790555060006001819055504260048190555033600360006101000a81548173ffffffffffffffffffffffffffffffffffffffff021916908373ffffffffffffffffffffffffffffffffffffffff16021790555060006001026005816000191690555060006008819055506200021a565b828054600181600116156101000203166002900490600052602060002090601f016020900481019282601f10620001ae57805160ff1916838001178555620001df565b82800160010185558215620001df579182015b82811115620001de578251825591602001919060010190620001c1565b5b509050620001ee9190620001f2565b5090565b6200021791905b8082111562000213576000816000905550600101620001f9565b5090565b90565b6133f5806200022a6000396000f30060806040526004361061015f576000357c0100000000000000000000000000000000000000000000000000000000900463ffffffff16806306fdde031461016457806308b4312b146101f4578063095ea7b31461021f5780631249c58b14610284578063128bfcae146102b357806318160ddd146102ea57806323b872dd14610315578063313ce5671461039a5780635418796c146103c557806358523e011461046e57806366188463146105a857806370a082311461060d578063782520dd146106645780637f7614721461077e5780638da5cb5b1461080a57806395d89b4114610861578063a9059cbb146108f1578063af1d06e814610956578063b80ac7df146109e8578063ca193e4d14610a74578063ce267b5514610b30578063d73dd62314610bfa578063dd62ed3e14610c5f578063e073ef6914610cd6578063e6997f6d14610d7d578063f2fde38b14610db0578063f35dad4014610df3575b600080fd5b34801561017057600080fd5b50610179610e1e565b6040518080602001828103825283818151815260200191508051906020019080838360005b838110156101b957808201518184015260208101905061019e565b50505050905090810190601f1680156101e65780820380516001836020036101000a031916815260200191505b509250505060405180910390f35b34801561020057600080fd5b50610209610ebc565b6040518082815260200191505060405180910390f35b34801561022b57600080fd5b5061026a600480360381019080803573ffffffffffffffffffffffffffffffffffffffff16906020019092919080359060200190929190505050610ec2565b604051808215151515815260200191505060405180910390f35b34801561029057600080fd5b50610299610fb4565b604051808215151515815260200191505060405180910390f35b3480156102bf57600080fd5b506102e86004803603810190808035906020019092919080359060200190929190505050611382565b005b3480156102f657600080fd5b506102ff611572565b6040518082815260200191505060405180910390f35b34801561032157600080fd5b50610380600480360381019080803573ffffffffffffffffffffffffffffffffffffffff169060200190929190803573ffffffffffffffffffffffffffffffffffffffff1690602001909291908035906020019092919050505061157c565b604051808215151515815260200191505060405180910390f35b3480156103a657600080fd5b506103af611936565b6040518082815260200191505060405180910390f35b3480156103d157600080fd5b5061042c600480360381019080803590602001908201803590602001908080601f016020809104026020016040519081016040528093929190818152602001838380828437820191505050505050919291929050505061193c565b604051808273ffffffffffffffffffffffffffffffffffffffff1673ffffffffffffffffffffffffffffffffffffffff16815260200191505060405180910390f35b34801561047a57600080fd5b506105926004803603810190808035600019169060200190929190803560ff1690602001909291908035906020019092919080359060200190820180359060200190808060200260200160405190810160405280939291908181526020018383602002808284378201915050505050509192919290803590602001908201803590602001908080601f0160208091040260200160405190810160405280939291908181526020018383808284378201915050505050509192919290803515159060200190929190803560ff16906020019092919080356000191690602001909291908035600019169060200190929190803573ffffffffffffffffffffffffffffffffffffffff1690602001909291905050506119c2565b6040518082815260200191505060405180910390f35b3480156105b457600080fd5b506105f3600480360381019080803573ffffffffffffffffffffffffffffffffffffffff16906020019092919080359060200190929190505050611abe565b604051808215151515815260200191505060405180910390f35b34801561061957600080fd5b5061064e600480360381019080803573ffffffffffffffffffffffffffffffffffffffff169060200190929190505050611d4f565b6040518082815260200191505060405180910390f35b34801561067057600080fd5b506107686004803603810190808035600019169060200190929190803560ff1690602001909291908035906020019092919080359060200190820180359060200190808060200260200160405190810160405280939291908181526020018383602002808284378201915050505050509192919290803590602001908201803590602001908080601f0160208091040260200160405190810160405280939291908181526020018383808284378201915050505050509192919290803515159060200190929190803560ff16906020019092919080356000191690602001909291908035600019169060200190929190505050611d97565b6040518082815260200191505060405180910390f35b34801561078a57600080fd5b506107f06004803603810190808035600019169060200190929190803590602001908201803590602001908080602002602001604051908101604052809392919081815260200183836020028082843782019150505050505091929192905050506121f1565b604051808215151515815260200191505060405180910390f35b34801561081657600080fd5b5061081f61223c565b604051808273ffffffffffffffffffffffffffffffffffffffff1673ffffffffffffffffffffffffffffffffffffffff16815260200191505060405180910390f35b34801561086d57600080fd5b50610876612262565b6040518080602001828103825283818151815260200191508051906020019080838360005b838110156108b657808201518184015260208101905061089b565b50505050905090810190601f1680156108e35780820380516001836020036101000a031916815260200191505b509250505060405180910390f35b3480156108fd57600080fd5b5061093c600480360381019080803573ffffffffffffffffffffffffffffffffffffffff16906020019092919080359060200190929190505050612300565b604051808215151515815260200191505060405180910390f35b34801561096257600080fd5b506109ce6004803603810190808035600019169060200190929190803560ff16906020019092919080356000191690602001909291908035600019169060200190929190803573ffffffffffffffffffffffffffffffffffffffff16906020019092919050505061251f565b604051808215151515815260200191505060405180910390f35b3480156109f457600080fd5b50610a5a6004803603810190808035906020019082018035906020019080806020026020016040519081016040528093929190818152602001838360200280828437820191505050505050919291929080356000191690602001909291905050506125db565b604051808215151515815260200191505060405180910390f35b348015610a8057600080fd5b50610b16600480360381019080803560001916906020019092919080356bffffffffffffffffffffffff19169060200190929190803560ff16906020019092919080359060200190929190803590602001908201803590602001908080602002602001604051908101604052809392919081815260200183836020028082843782019150505050505091929192905050506125f2565b604051808215151515815260200191505060405180910390f35b348015610b3c57600080fd5b50610be0600480360381019080803573ffffffffffffffffffffffffffffffffffffffff169060200190929190803590602001908201803590602001908080601f0160208091040260200160405190810160405280939291908181526020018383808284378201915050505050509192919290803560ff169060200190929190803560001916906020019092919080356000191690602001909291905050506126f5565b604051808215151515815260200191505060405180910390f35b348015610c0657600080fd5b50610c45600480360381019080803573ffffffffffffffffffffffffffffffffffffffff16906020019092919080359060200190929190505050612812565b604051808215151515815260200191505060405180910390f35b348015610c6b57600080fd5b50610cc0600480360381019080803573ffffffffffffffffffffffffffffffffffffffff169060200190929190803573ffffffffffffffffffffffffffffffffffffffff169060200190929190505050612a0e565b6040518082815260200191505060405180910390f35b348015610ce257600080fd5b50610d49600480360381019080803590602001908201803590602001908080601f0160208091040260200160405190810160405280939291908181526020018383808284378201915050505050509192919290803515159060200190929190505050612a95565b60405180826bffffffffffffffffffffffff19166bffffffffffffffffffffffff1916815260200191505060405180910390f35b348015610d8957600080fd5b50610d92612e54565b60405180826000191660001916815260200191505060405180910390f35b348015610dbc57600080fd5b50610df1600480360381019080803573ffffffffffffffffffffffffffffffffffffffff169060200190929190505050612e5a565b005b348015610dff57600080fd5b50610e08612fb2565b6040518082815260200191505060405180910390f35b600b8054600181600116156101000203166002900480601f016020809104026020016040519081016040528092919081815260200182805460018160011615610100020316600290048015610eb45780601f10610e8957610100808354040283529160200191610eb4565b820191906000526020600020905b815481529060010190602001808311610e9757829003601f168201915b505050505081565b60085481565b600081600260003373ffffffffffffffffffffffffffffffffffffffff1673ffffffffffffffffffffffffffffffffffffffff16815260200190815260200160002060008573ffffffffffffffffffffffffffffffffffffffff1673ffffffffffffffffffffffffffffffffffffffff168152602001908152602001600020819055508273ffffffffffffffffffffffffffffffffffffffff163373ffffffffffffffffffffffffffffffffffffffff167f8c5be1e5ebec7d5bd14f71427d1e84f3dd0314c0f7b2291e5b200ac8c7c3b925846040518082815260200191505060405180910390a36001905092915050565b6000806000600a60003373ffffffffffffffffffffffffffffffffffffffff1673ffffffffffffffffffffffffffffffffffffffff1681526020019081526020016000206000015411151561100857600080fd5b600a60003373ffffffffffffffffffffffffffffffffffffffff1673ffffffffffffffffffffffffffffffffffffffff168152602001908152602001600020600201544211151561105857600080fd5b6110af600a60003373ffffffffffffffffffffffffffffffffffffffff1673ffffffffffffffffffffffffffffffffffffffff16815260200190815260200160002060000154600954612fb890919063ffffffff16565b600981905550611130600a60003373ffffffffffffffffffffffffffffffffffffffff1673ffffffffffffffffffffffffffffffffffffffff16815260200190815260200160002060806040519081016040529081600082015481526020016001820154815260200160028201548152602001600382015481525050612fd1565b9050611183816000803373ffffffffffffffffffffffffffffffffffffffff1673ffffffffffffffffffffffffffffffffffffffff16815260200190815260200160002054612ffe90919063ffffffff16565b6000803373ffffffffffffffffffffffffffffffffffffffff1673ffffffffffffffffffffffffffffffffffffffff1681526020019081526020016000208190555061123881600080600360009054906101000a900473ffffffffffffffffffffffffffffffffffffffff1673ffffffffffffffffffffffffffffffffffffffff1673ffffffffffffffffffffffffffffffffffffffff16815260200190815260200160002054612ffe90919063ffffffff16565b600080600360009054906101000a900473ffffffffffffffffffffffffffffffffffffffff1673ffffffffffffffffffffffffffffffffffffffff1673ffffffffffffffffffffffffffffffffffffffff168152602001908152602001600020819055506112c46112b360028361301a90919063ffffffff16565b600154612ffe90919063ffffffff16565b600181905550600a60003373ffffffffffffffffffffffffffffffffffffffff1673ffffffffffffffffffffffffffffffffffffffff16815260200190815260200160002060008082016000905560018201600090556002820160009055600382016000905550503373ffffffffffffffffffffffffffffffffffffffff167f0f6798a560793a54c3bcfe86a93cde1e73087d944c0ea20544137d4121396885826040518082815260200191505060405180910390a2600191505090565b6000600a60003373ffffffffffffffffffffffffffffffffffffffff1673ffffffffffffffffffffffffffffffffffffffff168152602001908152602001600020600001541415156113d357600080fd5b6000803373ffffffffffffffffffffffffffffffffffffffff1673ffffffffffffffffffffffffffffffffffffffff16815260200190815260200160002054821115151561142057600080fd5b611471826000803373ffffffffffffffffffffffffffffffffffffffff1673ffffffffffffffffffffffffffffffffffffffff16815260200190815260200160002054612fb890919063ffffffff16565b6000803373ffffffffffffffffffffffffffffffffffffffff1673ffffffffffffffffffffffffffffffffffffffff16815260200190815260200160002081905550608060405190810160405280836fffffffffffffffffffffffffffffffff168152602001428152602001828152602001600954815250600a60003373ffffffffffffffffffffffffffffffffffffffff1673ffffffffffffffffffffffffffffffffffffffff1681526020019081526020016000206000820151816000015560208201518160010155604082015181600201556060820151816003015590505061156882600954612ffe90919063ffffffff16565b6009819055505050565b6000600154905090565b60008073ffffffffffffffffffffffffffffffffffffffff168373ffffffffffffffffffffffffffffffffffffffff16141515156115b957600080fd5b6000808573ffffffffffffffffffffffffffffffffffffffff1673ffffffffffffffffffffffffffffffffffffffff16815260200190815260200160002054821115151561160657600080fd5b600260008573ffffffffffffffffffffffffffffffffffffffff1673ffffffffffffffffffffffffffffffffffffffff16815260200190815260200160002060003373ffffffffffffffffffffffffffffffffffffffff1673ffffffffffffffffffffffffffffffffffffffff16815260200190815260200160002054821115151561169157600080fd5b6116e2826000808773ffffffffffffffffffffffffffffffffffffffff1673ffffffffffffffffffffffffffffffffffffffff16815260200190815260200160002054612fb890919063ffffffff16565b6000808673ffffffffffffffffffffffffffffffffffffffff1673ffffffffffffffffffffffffffffffffffffffff16815260200190815260200160002081905550611775826000808673ffffffffffffffffffffffffffffffffffffffff1673ffffffffffffffffffffffffffffffffffffffff16815260200190815260200160002054612ffe90919063ffffffff16565b6000808573ffffffffffffffffffffffffffffffffffffffff1673ffffffffffffffffffffffffffffffffffffffff1681526020019081526020016000208190555061184682600260008773ffffffffffffffffffffffffffffffffffffffff1673ffffffffffffffffffffffffffffffffffffffff16815260200190815260200160002060003373ffffffffffffffffffffffffffffffffffffffff1673ffffffffffffffffffffffffffffffffffffffff16815260200190815260200160002054612fb890919063ffffffff16565b600260008673ffffffffffffffffffffffffffffffffffffffff1673ffffffffffffffffffffffffffffffffffffffff16815260200190815260200160002060003373ffffffffffffffffffffffffffffffffffffffff1673ffffffffffffffffffffffffffffffffffffffff168152602001908152602001600020819055508273ffffffffffffffffffffffffffffffffffffffff168473ffffffffffffffffffffffffffffffffffffffff167fddf252ad1be2c89b69c2b068fc378daa952ba7f163c4a11628f55a4df523b3ef846040518082815260200191505060405180910390a3600190509392505050565b600d5481565b600073ffffffffffffffffffffffffffffffffffffffff826040518082805190602001908083835b6020831015156119895780518252602082019150602081019050602083039250611964565b6001836020036101000a038019825116818451168082178552505050505050905001915050604051809103902060019004169050919050565b6000806119d68c8c8c8c8c8c8c8c8c611d97565b9050611a3c6119ef60148361305290919063ffffffff16565b6000808673ffffffffffffffffffffffffffffffffffffffff1673ffffffffffffffffffffffffffffffffffffffff16815260200190815260200160002054612ffe90919063ffffffff16565b6000808573ffffffffffffffffffffffffffffffffffffffff1673ffffffffffffffffffffffffffffffffffffffff16815260200190815260200160002081905550611aa6611a9560148361305290919063ffffffff16565b600154612ffe90919063ffffffff16565b600181905550809150509a9950505050505050505050565b600080600260003373ffffffffffffffffffffffffffffffffffffffff1673ffffffffffffffffffffffffffffffffffffffff16815260200190815260200160002060008573ffffffffffffffffffffffffffffffffffffffff1673ffffffffffffffffffffffffffffffffffffffff16815260200190815260200160002054905080831115611bcf576000600260003373ffffffffffffffffffffffffffffffffffffffff1673ffffffffffffffffffffffffffffffffffffffff16815260200190815260200160002060008673ffffffffffffffffffffffffffffffffffffffff1673ffffffffffffffffffffffffffffffffffffffff16815260200190815260200160002081905550611c63565b611be28382612fb890919063ffffffff16565b600260003373ffffffffffffffffffffffffffffffffffffffff1673ffffffffffffffffffffffffffffffffffffffff16815260200190815260200160002060008673ffffffffffffffffffffffffffffffffffffffff1673ffffffffffffffffffffffffffffffffffffffff168152602001908152602001600020819055505b8373ffffffffffffffffffffffffffffffffffffffff163373ffffffffffffffffffffffffffffffffffffffff167f8c5be1e5ebec7d5bd14f71427d1e84f3dd0314c0f7b2291e5b200ac8c7c3b925600260003373ffffffffffffffffffffffffffffffffffffffff1673ffffffffffffffffffffffffffffffffffffffff16815260200190815260200160002060008873ffffffffffffffffffffffffffffffffffffffff1673ffffffffffffffffffffffffffffffffffffffff168152602001908152602001600020546040518082815260200191505060405180910390a3600191505092915050565b60008060008373ffffffffffffffffffffffffffffffffffffffff1673ffffffffffffffffffffffffffffffffffffffff168152602001908152602001600020549050919050565b600080600080611da78989612a95565b92508c838d8d604051602001808560001916600019168152602001846bffffffffffffffffffffffff19166bffffffffffffffffffffffff191681526014018360ff1660ff167f01000000000000000000000000000000000000000000000000000000000000000281526001018281526020019450505050506040516020818303038152906040526040518082805190602001908083835b602083101515611e645780518252602082019150602081019050602083039250611e3f565b6001836020036101000a03801982511681845116808217855250505050505090500191505060405180910390209150611e9d828b6121f1565b1515611ea857600080fd5b611eb5338a8989896126f5565b1515611ec057600080fd5b600160066000846000191660001916815260200190815260200160002060006101000a81548160ff021916908315150217905550611f30611f0c60045442612fb890919063ffffffff16565b611f2262093a808e61301a90919063ffffffff16565b61305290919063ffffffff16565b9050600854611f4a82600754612ffe90919063ffffffff16565b11151515611f5757600080fd5b611f6c81600754612ffe90919063ffffffff16565b600781905550611fc3816000803373ffffffffffffffffffffffffffffffffffffffff1673ffffffffffffffffffffffffffffffffffffffff16815260200190815260200160002054612ffe90919063ffffffff16565b6000803373ffffffffffffffffffffffffffffffffffffffff1673ffffffffffffffffffffffffffffffffffffffff1681526020019081526020016000208190555061201a84600154612ffe90919063ffffffff16565b6001819055503373ffffffffffffffffffffffffffffffffffffffff16600073ffffffffffffffffffffffffffffffffffffffff167fddf252ad1be2c89b69c2b068fc378daa952ba7f163c4a11628f55a4df523b3ef836040518082815260200191505060405180910390a33373ffffffffffffffffffffffffffffffffffffffff167f312ab01e6ce21dfe30ce841b1cd250767ce180d2c10a5bea492a1cb6b62eb97b8e8e8e8e8e8d8d8d8a604051808a600019166000191681526020018960ff1660ff16815260200188815260200180602001806020018760ff1660ff16815260200186600019166000191681526020018560001916600019168152602001848152602001838103835289818151815260200191508051906020019060200280838360005b8381101561215c578082015181840152602081019050612141565b50505050905001838103825288818151815260200191508051906020019080838360005b8381101561219b578082015181840152602081019050612180565b50505050905090810190601f1680156121c85780820380516001836020036101000a031916815260200191505b509b50505050505050505050505060405180910390a28093505050509998505050505050505050565b600080151560066000856000191660001916815260200190815260200160002060009054906101000a900460ff161515148015612234575061223382846125db565b5b905092915050565b600360009054906101000a900473ffffffffffffffffffffffffffffffffffffffff1681565b600c8054600181600116156101000203166002900480601f0160208091040260200160405190810160405280929190818152602001828054600181600116156101000203166002900480156122f85780601f106122cd576101008083540402835291602001916122f8565b820191906000526020600020905b8154815290600101906020018083116122db57829003601f168201915b505050505081565b60008073ffffffffffffffffffffffffffffffffffffffff168373ffffffffffffffffffffffffffffffffffffffff161415151561233d57600080fd5b6000803373ffffffffffffffffffffffffffffffffffffffff1673ffffffffffffffffffffffffffffffffffffffff16815260200190815260200160002054821115151561238a57600080fd5b6123db826000803373ffffffffffffffffffffffffffffffffffffffff1673ffffffffffffffffffffffffffffffffffffffff16815260200190815260200160002054612fb890919063ffffffff16565b6000803373ffffffffffffffffffffffffffffffffffffffff1673ffffffffffffffffffffffffffffffffffffffff1681526020019081526020016000208190555061246e826000808673ffffffffffffffffffffffffffffffffffffffff1673ffffffffffffffffffffffffffffffffffffffff16815260200190815260200160002054612ffe90919063ffffffff16565b6000808573ffffffffffffffffffffffffffffffffffffffff1673ffffffffffffffffffffffffffffffffffffffff168152602001908152602001600020819055508273ffffffffffffffffffffffffffffffffffffffff163373ffffffffffffffffffffffffffffffffffffffff167fddf252ad1be2c89b69c2b068fc378daa952ba7f163c4a11628f55a4df523b3ef846040518082815260200191505060405180910390a36001905092915050565b60008173ffffffffffffffffffffffffffffffffffffffff16600187878787604051600081526020016040526040518085600019166000191681526020018460ff1660ff1681526020018360001916600019168152602001826000191660001916815260200194505050505060206040516020810390808403906000865af11580156125af573d6000803e3d6000fd5b5050506020604051035173ffffffffffffffffffffffffffffffffffffffff1614905095945050505050565b60006125ea8360055484613068565b905092915050565b60008086868686604051602001808560001916600019168152602001846bffffffffffffffffffffffff19166bffffffffffffffffffffffff191681526014018360ff1660ff167f01000000000000000000000000000000000000000000000000000000000000000281526001018281526020019450505050506040516020818303038152906040526040518082805190602001908083835b6020831015156126b0578051825260208201915060208101905060208303925061268b565b6001836020036101000a038019825116818451168082178552505050505050905001915050604051809103902090506126e981846121f1565b91505095945050505050565b6000612807600287604051602001808273ffffffffffffffffffffffffffffffffffffffff1673ffffffffffffffffffffffffffffffffffffffff166c010000000000000000000000000281526014019150506040516020818303038152906040526040518082805190602001908083835b60208310151561278c5780518252602082019150602081019050602083039250612767565b6001836020036101000a0380198251168184511680821785525050505050509050019150506020604051808303816000865af11580156127d0573d6000803e3d6000fd5b5050506040513d60208110156127e557600080fd5b81019080805190602001909291905050508585856128028a61193c565b61251f565b905095945050505050565b60006128a382600260003373ffffffffffffffffffffffffffffffffffffffff1673ffffffffffffffffffffffffffffffffffffffff16815260200190815260200160002060008673ffffffffffffffffffffffffffffffffffffffff1673ffffffffffffffffffffffffffffffffffffffff16815260200190815260200160002054612ffe90919063ffffffff16565b600260003373ffffffffffffffffffffffffffffffffffffffff1673ffffffffffffffffffffffffffffffffffffffff16815260200190815260200160002060008573ffffffffffffffffffffffffffffffffffffffff1673ffffffffffffffffffffffffffffffffffffffff168152602001908152602001600020819055508273ffffffffffffffffffffffffffffffffffffffff163373ffffffffffffffffffffffffffffffffffffffff167f8c5be1e5ebec7d5bd14f71427d1e84f3dd0314c0f7b2291e5b200ac8c7c3b925600260003373ffffffffffffffffffffffffffffffffffffffff1673ffffffffffffffffffffffffffffffffffffffff16815260200190815260200160002060008773ffffffffffffffffffffffffffffffffffffffff1673ffffffffffffffffffffffffffffffffffffffff168152602001908152602001600020546040518082815260200191505060405180910390a36001905092915050565b6000600260008473ffffffffffffffffffffffffffffffffffffffff1673ffffffffffffffffffffffffffffffffffffffff16815260200190815260200160002060008373ffffffffffffffffffffffffffffffffffffffff1673ffffffffffffffffffffffffffffffffffffffff16815260200190815260200160002054905092915050565b600080600080612aa686600061320b565b600190049250612ab786602061320b565b6001900491508415612c93576000600283811515612ad157fe5b0614612ade576003612ae1565b60025b9050600360028285604051602001808360ff1660ff167f0100000000000000000000000000000000000000000000000000000000000000028152600101828152602001925050506040516020818303038152906040526040518082805190602001908083835b602083101515612b6c5780518252602082019150602081019050602083039250612b47565b6001836020036101000a0380198251168184511680821785525050505050509050019150506020604051808303816000865af1158015612bb0573d6000803e3d6000fd5b5050506040513d6020811015612bc557600080fd5b81019080805190602001909291905050506040516020018082600019166000191681526020019150506040516020818303038152906040526040518082805190602001908083835b602083101515612c325780518252602082019150602081019050602083039250612c0d565b6001836020036101000a0380198251168184511680821785525050505050509050019150506020604051808303816000865af1158015612c76573d6000803e3d6000fd5b505050604051516c01000000000000000000000000029350612e4b565b6004905060036002828585604051602001808460ff1660ff167f010000000000000000000000000000000000000000000000000000000000000002815260010183815260200182815260200193505050506040516020818303038152906040526040518082805190602001908083835b602083101515612d285780518252602082019150602081019050602083039250612d03565b6001836020036101000a0380198251168184511680821785525050505050509050019150506020604051808303816000865af1158015612d6c573d6000803e3d6000fd5b5050506040513d6020811015612d8157600080fd5b81019080805190602001909291905050506040516020018082600019166000191681526020019150506040516020818303038152906040526040518082805190602001908083835b602083101515612dee5780518252602082019150602081019050602083039250612dc9565b6001836020036101000a0380198251168184511680821785525050505050509050019150506020604051808303816000865af1158015612e32573d6000803e3d6000fd5b505050604051516c010000000000000000000000000293505b50505092915050565b60055481565b600360009054906101000a900473ffffffffffffffffffffffffffffffffffffffff1673ffffffffffffffffffffffffffffffffffffffff163373ffffffffffffffffffffffffffffffffffffffff16141515612eb657600080fd5b600073ffffffffffffffffffffffffffffffffffffffff168173ffffffffffffffffffffffffffffffffffffffff1614151515612ef257600080fd5b8073ffffffffffffffffffffffffffffffffffffffff16600360009054906101000a900473ffffffffffffffffffffffffffffffffffffffff1673ffffffffffffffffffffffffffffffffffffffff167f8be0079c531659141344cd1fd0a4f28419497f9722a3daafe3b4186f6b6457e060405160405180910390a380600360006101000a81548173ffffffffffffffffffffffffffffffffffffffff021916908373ffffffffffffffffffffffffffffffffffffffff16021790555050565b60075481565b6000828211151515612fc657fe5b818303905092915050565b60008060009050612ff3612fe4846132e7565b82612ffe90919063ffffffff16565b905080915050919050565b6000818301905082811015151561301157fe5b80905092915050565b60008083141561302d576000905061304c565b818302905081838281151561303e57fe5b0414151561304857fe5b8090505b92915050565b6000818381151561305f57fe5b04905092915050565b600080600080849250600091505b86518210156131f457868281518110151561308d57fe5b90602001906020020151905080600019168360001916101561314a5782816040516020018083600019166000191681526020018260001916600019168152602001925050506040516020818303038152906040526040518082805190602001908083835b60208310151561311657805182526020820191506020810190506020830392506130f1565b6001836020036101000a038019825116818451168082178552505050505050905001915050604051809103902092506131e7565b80836040516020018083600019166000191681526020018260001916600019168152602001925050506040516020818303038152906040526040518082805190602001908083835b6020831015156131b75780518252602082019150602081019050602083039250613192565b6001836020036101000a038019825116818451168082178552505050505050905001915050604051809103902092505b8180600101925050613076565b856000191683600019161493505050509392505050565b600080600090505b60208110156132dd57600881028484830181518110151561323057fe5b9060200101517f010000000000000000000000000000000000000000000000000000000000000090047f0100000000000000000000000000000000000000000000000000000000000000027effffffffffffffffffffffffffffffffffffffffffffffffffffffffffffff19167fff0000000000000000000000000000000000000000000000000000000000000060010216600019169060020a9004821891508080600101915050613213565b8191505092915050565b60008060008060006064935061331f6001546133116064896060015161301a90919063ffffffff16565b61305290919063ffffffff16565b9250613334838561305290919063ffffffff16565b9350613362620d2f00613354886020015142612fb890919063ffffffff16565b61305290919063ffffffff16565b9150613373866000015183866133a6565b905061339b600a61338d848461301a90919063ffffffff16565b61305290919063ffffffff16565b945050505050919050565b6000826103e80a83836103e8010a85028115156133bf57fe5b04905093925050505600a165627a7a7230582064739401a808f7325ba123b5928c952a6a8dfb2ddda7a51cd278bb71470524c90029",
  "source": "pragma solidity ^0.4.23;\nimport \"./StakeableToken.sol\";\n\ncontract BitcoinHex is StakeableToken {\n    string public name = \"BitcoinHex\"; \n    string public symbol = \"BHX\";\n    uint public decimals = 8;\n\n    constructor () public {\n        totalSupply_ = 0;\n        launchTime = block.timestamp;\n        owner = msg.sender;\n        rootUTXOMerkleTreeHash = 0x0; // Change before launch\n        maximumRedeemable = 0; // Change before launch\n    }\n}\n",
  "sourcePath": "/Users/mesquka/Git/Bitcoin Hex/contract/contracts/BitcoinHex.sol",
  "compiler": {
    "name": "solc",
    "version": "0.4.24+commit.e67f0147.Emscripten.clang"
  },
  "schemaVersion": "2.0.0",
  "updatedAt": "2018-05-31T19:15:47.461Z"
}