{
  "contractName": "BitcoinHex",
  "abi": [
    {
      "constant": true,
      "inputs": [],
      "name": "name",
      "outputs": [
        {
          "name": "",
          "type": "string"
        }
      ],
      "payable": false,
      "stateMutability": "view",
      "type": "function"
    },
    {
      "constant": true,
      "inputs": [],
      "name": "maximumRedeemable",
      "outputs": [
        {
          "name": "",
          "type": "uint256"
        }
      ],
      "payable": false,
      "stateMutability": "view",
      "type": "function"
    },
    {
      "constant": false,
      "inputs": [
        {
          "name": "_spender",
          "type": "address"
        },
        {
          "name": "_value",
          "type": "uint256"
        }
      ],
      "name": "approve",
      "outputs": [
        {
          "name": "",
          "type": "bool"
        }
      ],
      "payable": false,
      "stateMutability": "nonpayable",
      "type": "function"
    },
    {
      "constant": false,
      "inputs": [],
      "name": "mint",
      "outputs": [
        {
          "name": "",
          "type": "bool"
        }
      ],
      "payable": false,
      "stateMutability": "nonpayable",
      "type": "function"
    },
    {
      "constant": false,
      "inputs": [
        {
          "name": "_value",
          "type": "uint256"
        },
        {
          "name": "_unlockTime",
          "type": "uint256"
        }
      ],
      "name": "startStake",
      "outputs": [],
      "payable": false,
      "stateMutability": "nonpayable",
      "type": "function"
    },
    {
      "constant": true,
      "inputs": [],
      "name": "totalSupply",
      "outputs": [
        {
          "name": "",
          "type": "uint256"
        }
      ],
      "payable": false,
      "stateMutability": "view",
      "type": "function"
    },
    {
      "constant": false,
      "inputs": [
        {
          "name": "_from",
          "type": "address"
        },
        {
          "name": "_to",
          "type": "address"
        },
        {
          "name": "_value",
          "type": "uint256"
        }
      ],
      "name": "transferFrom",
      "outputs": [
        {
          "name": "",
          "type": "bool"
        }
      ],
      "payable": false,
      "stateMutability": "nonpayable",
      "type": "function"
    },
    {
      "constant": true,
      "inputs": [],
      "name": "decimals",
      "outputs": [
        {
          "name": "",
          "type": "uint256"
        }
      ],
      "payable": false,
      "stateMutability": "view",
      "type": "function"
    },
    {
      "constant": true,
      "inputs": [
        {
          "name": "pubKey",
          "type": "bytes"
        }
      ],
      "name": "pubKeyToEthereumAddress",
      "outputs": [
        {
          "name": "",
          "type": "address"
        }
      ],
      "payable": false,
      "stateMutability": "pure",
      "type": "function"
    },
    {
      "constant": false,
      "inputs": [
        {
          "name": "txid",
          "type": "bytes32"
        },
        {
          "name": "outputIndex",
          "type": "uint8"
        },
        {
          "name": "satoshis",
          "type": "uint256"
        },
        {
          "name": "proof",
          "type": "bytes32[]"
        },
        {
          "name": "pubKey",
          "type": "bytes"
        },
        {
          "name": "isCompressed",
          "type": "bool"
        },
        {
          "name": "v",
          "type": "uint8"
        },
        {
          "name": "r",
          "type": "bytes32"
        },
        {
          "name": "s",
          "type": "bytes32"
        },
        {
          "name": "referrer",
          "type": "address"
        }
      ],
      "name": "redeemUTXO",
      "outputs": [
        {
          "name": "tokensRedeemed",
          "type": "uint256"
        }
      ],
      "payable": false,
      "stateMutability": "nonpayable",
      "type": "function"
    },
    {
      "constant": false,
      "inputs": [
        {
          "name": "_spender",
          "type": "address"
        },
        {
          "name": "_subtractedValue",
          "type": "uint256"
        }
      ],
      "name": "decreaseApproval",
      "outputs": [
        {
          "name": "",
          "type": "bool"
        }
      ],
      "payable": false,
      "stateMutability": "nonpayable",
      "type": "function"
    },
    {
      "constant": true,
      "inputs": [
        {
          "name": "_owner",
          "type": "address"
        }
      ],
      "name": "balanceOf",
      "outputs": [
        {
          "name": "",
          "type": "uint256"
        }
      ],
      "payable": false,
      "stateMutability": "view",
      "type": "function"
    },
    {
      "constant": false,
      "inputs": [
        {
          "name": "txid",
          "type": "bytes32"
        },
        {
          "name": "outputIndex",
          "type": "uint8"
        },
        {
          "name": "satoshis",
          "type": "uint256"
        },
        {
          "name": "proof",
          "type": "bytes32[]"
        },
        {
          "name": "pubKey",
          "type": "bytes"
        },
        {
          "name": "isCompressed",
          "type": "bool"
        },
        {
          "name": "v",
          "type": "uint8"
        },
        {
          "name": "r",
          "type": "bytes32"
        },
        {
          "name": "s",
          "type": "bytes32"
        }
      ],
      "name": "redeemUTXO",
      "outputs": [
        {
          "name": "tokensRedeemed",
          "type": "uint256"
        }
      ],
      "payable": false,
      "stateMutability": "nonpayable",
      "type": "function"
    },
    {
      "constant": true,
      "inputs": [
        {
          "name": "merkleLeafHash",
          "type": "bytes32"
        },
        {
          "name": "proof",
          "type": "bytes32[]"
        }
      ],
      "name": "canRedeemUTXOHash",
      "outputs": [
        {
          "name": "",
          "type": "bool"
        }
      ],
      "payable": false,
      "stateMutability": "view",
      "type": "function"
    },
    {
      "constant": true,
      "inputs": [],
      "name": "owner",
      "outputs": [
        {
          "name": "",
          "type": "address"
        }
      ],
      "payable": false,
      "stateMutability": "view",
      "type": "function"
    },
    {
      "constant": false,
      "inputs": [],
      "name": "storeWeekUnclaimed",
      "outputs": [],
      "payable": false,
      "stateMutability": "nonpayable",
      "type": "function"
    },
    {
      "constant": true,
      "inputs": [],
      "name": "symbol",
      "outputs": [
        {
          "name": "",
          "type": "string"
        }
      ],
      "payable": false,
      "stateMutability": "view",
      "type": "function"
    },
    {
      "constant": false,
      "inputs": [
        {
          "name": "_to",
          "type": "address"
        },
        {
          "name": "_value",
          "type": "uint256"
        }
      ],
      "name": "transfer",
      "outputs": [
        {
          "name": "",
          "type": "bool"
        }
      ],
      "payable": false,
      "stateMutability": "nonpayable",
      "type": "function"
    },
    {
      "constant": true,
      "inputs": [
        {
          "name": "hash",
          "type": "bytes32"
        },
        {
          "name": "v",
          "type": "uint8"
        },
        {
          "name": "r",
          "type": "bytes32"
        },
        {
          "name": "s",
          "type": "bytes32"
        },
        {
          "name": "expected",
          "type": "address"
        }
      ],
      "name": "validateSignature",
      "outputs": [
        {
          "name": "",
          "type": "bool"
        }
      ],
      "payable": false,
      "stateMutability": "pure",
      "type": "function"
    },
    {
      "constant": true,
      "inputs": [
        {
          "name": "proof",
          "type": "bytes32[]"
        },
        {
          "name": "merkleLeafHash",
          "type": "bytes32"
        }
      ],
      "name": "verifyProof",
      "outputs": [
        {
          "name": "",
          "type": "bool"
        }
      ],
      "payable": false,
      "stateMutability": "view",
      "type": "function"
    },
    {
      "constant": true,
      "inputs": [
        {
          "name": "txid",
          "type": "bytes32"
        },
        {
          "name": "originalAddress",
          "type": "bytes20"
        },
        {
          "name": "outputIndex",
          "type": "uint8"
        },
        {
          "name": "satoshis",
          "type": "uint256"
        },
        {
          "name": "proof",
          "type": "bytes32[]"
        }
      ],
      "name": "canRedeemUTXO",
      "outputs": [
        {
          "name": "",
          "type": "bool"
        }
      ],
      "payable": false,
      "stateMutability": "view",
      "type": "function"
    },
    {
      "constant": true,
      "inputs": [
        {
          "name": "addr",
          "type": "address"
        },
        {
          "name": "pubKey",
          "type": "bytes"
        },
        {
          "name": "v",
          "type": "uint8"
        },
        {
          "name": "r",
          "type": "bytes32"
        },
        {
          "name": "s",
          "type": "bytes32"
        }
      ],
      "name": "ecdsaVerify",
      "outputs": [
        {
          "name": "",
          "type": "bool"
        }
      ],
      "payable": false,
      "stateMutability": "pure",
      "type": "function"
    },
    {
      "constant": false,
      "inputs": [
        {
          "name": "_spender",
          "type": "address"
        },
        {
          "name": "_addedValue",
          "type": "uint256"
        }
      ],
      "name": "increaseApproval",
      "outputs": [
        {
          "name": "",
          "type": "bool"
        }
      ],
      "payable": false,
      "stateMutability": "nonpayable",
      "type": "function"
    },
    {
      "constant": true,
      "inputs": [
        {
          "name": "_owner",
          "type": "address"
        },
        {
          "name": "_spender",
          "type": "address"
        }
      ],
      "name": "allowance",
      "outputs": [
        {
          "name": "",
          "type": "uint256"
        }
      ],
      "payable": false,
      "stateMutability": "view",
      "type": "function"
    },
    {
      "constant": true,
      "inputs": [
        {
          "name": "pubKey",
          "type": "bytes"
        },
        {
          "name": "isCompressed",
          "type": "bool"
        }
      ],
      "name": "pubKeyToBitcoinAddress",
      "outputs": [
        {
          "name": "",
          "type": "bytes20"
        }
      ],
      "payable": false,
      "stateMutability": "pure",
      "type": "function"
    },
    {
      "constant": true,
      "inputs": [],
      "name": "rootUTXOMerkleTreeHash",
      "outputs": [
        {
          "name": "",
          "type": "bytes32"
        }
      ],
      "payable": false,
      "stateMutability": "view",
      "type": "function"
    },
    {
      "constant": false,
      "inputs": [
        {
          "name": "newOwner",
          "type": "address"
        }
      ],
      "name": "transferOwnership",
      "outputs": [],
      "payable": false,
      "stateMutability": "nonpayable",
      "type": "function"
    },
    {
      "constant": true,
      "inputs": [],
      "name": "totalRedeemed",
      "outputs": [
        {
          "name": "",
          "type": "uint256"
        }
      ],
      "payable": false,
      "stateMutability": "view",
      "type": "function"
    },
    {
      "inputs": [],
      "payable": false,
      "stateMutability": "nonpayable",
      "type": "constructor"
    },
    {
      "anonymous": false,
      "inputs": [
        {
          "indexed": true,
          "name": "_address",
          "type": "address"
        },
        {
          "indexed": false,
          "name": "_reward",
          "type": "uint256"
        }
      ],
      "name": "Mint",
      "type": "event"
    },
    {
      "anonymous": false,
      "inputs": [
        {
          "indexed": false,
          "name": "txid",
          "type": "bytes32"
        },
        {
          "indexed": false,
          "name": "outputIndex",
          "type": "uint8"
        },
        {
          "indexed": false,
          "name": "satoshis",
          "type": "uint256"
        },
        {
          "indexed": false,
          "name": "proof",
          "type": "bytes32[]"
        },
        {
          "indexed": false,
          "name": "pubKey",
          "type": "bytes"
        },
        {
          "indexed": false,
          "name": "v",
          "type": "uint8"
        },
        {
          "indexed": false,
          "name": "r",
          "type": "bytes32"
        },
        {
          "indexed": false,
          "name": "s",
          "type": "bytes32"
        },
        {
          "indexed": true,
          "name": "redeemer",
          "type": "address"
        },
        {
          "indexed": false,
          "name": "numberOfTokens",
          "type": "uint256"
        }
      ],
      "name": "UTXORedeemed",
      "type": "event"
    },
    {
      "anonymous": false,
      "inputs": [
        {
          "indexed": true,
          "name": "previousOwner",
          "type": "address"
        },
        {
          "indexed": true,
          "name": "newOwner",
          "type": "address"
        }
      ],
      "name": "OwnershipTransferred",
      "type": "event"
    },
    {
      "anonymous": false,
      "inputs": [
        {
          "indexed": true,
          "name": "owner",
          "type": "address"
        },
        {
          "indexed": true,
          "name": "spender",
          "type": "address"
        },
        {
          "indexed": false,
          "name": "value",
          "type": "uint256"
        }
      ],
      "name": "Approval",
      "type": "event"
    },
    {
      "anonymous": false,
      "inputs": [
        {
          "indexed": true,
          "name": "from",
          "type": "address"
        },
        {
          "indexed": true,
          "name": "to",
          "type": "address"
        },
        {
          "indexed": false,
          "name": "value",
          "type": "uint256"
        }
      ],
      "name": "Transfer",
      "type": "event"
    }
  ],
  "bytecode": "0x608060405260006005556000600c556040805190810160405280600a81526020017f426974636f696e48657800000000000000000000000000000000000000000000815250600e90805190602001906200005b9291906200067e565b506040805190810160405280600381526020017f4248580000000000000000000000000000000000000000000000000000000000815250600f9080519060200190620000a99291906200067e565b506008601055348015620000bc57600080fd5b5033600360006101000a81548173ffffffffffffffffffffffffffffffffffffffff021916908373ffffffffffffffffffffffffffffffffffffffff16021790555060006001819055504260048190555033600360006101000a81548173ffffffffffffffffffffffffffffffffffffffff021916908373ffffffffffffffffffffffffffffffffffffffff1602179055506000600102600781600019169055506000600a81905550606e600b600080815260200190815260200160002081905550606d600b60006001815260200190815260200160002081905550606d600b60006002815260200190815260200160002081905550606c600b60006003815260200190815260200160002081905550606c600b60006004815260200190815260200160002081905550606b600b60006005815260200190815260200160002081905550606b600b60006006815260200190815260200160002081905550606a600b60006007815260200190815260200160002081905550606a600b60006008815260200190815260200160002081905550606a600b600060098152602001908152602001600020819055506069600b6000600a8152602001908152602001600020819055506069600b6000600b8152602001908152602001600020819055506069600b6000600c8152602001908152602001600020819055506069600b6000600d8152602001908152602001600020819055506068600b6000600e8152602001908152602001600020819055506068600b6000600f8152602001908152602001600020819055506068600b600060108152602001908152602001600020819055506068600b600060118152602001908152602001600020819055506067600b600060128152602001908152602001600020819055506067600b600060138152602001908152602001600020819055506067600b600060148152602001908152602001600020819055506067600b600060158152602001908152602001600020819055506067600b600060168152602001908152602001600020819055506067600b600060178152602001908152602001600020819055506066600b600060188152602001908152602001600020819055506066600b600060198152602001908152602001600020819055506066600b6000601a8152602001908152602001600020819055506066600b6000601b8152602001908152602001600020819055506066600b6000601c8152602001908152602001600020819055506066600b6000601d8152602001908152602001600020819055506066600b6000601e8152602001908152602001600020819055506066600b6000601f8152602001908152602001600020819055506065600b600060208152602001908152602001600020819055506065600b600060218152602001908152602001600020819055506065600b600060228152602001908152602001600020819055506065600b600060238152602001908152602001600020819055506065600b600060248152602001908152602001600020819055506065600b600060258152602001908152602001600020819055506065600b600060268152602001908152602001600020819055506065600b600060278152602001908152602001600020819055506065600b600060288152602001908152602001600020819055506065600b600060298152602001908152602001600020819055506065600b6000602a8152602001908152602001600020819055506065600b6000602b8152602001908152602001600020819055506065600b6000602c8152602001908152602001600020819055506064600b6000602d8152602001908152602001600020819055506064600b6000602e8152602001908152602001600020819055506064600b6000602f8152602001908152602001600020819055506064600b600060308152602001908152602001600020819055506064600b600060318152602001908152602001600020819055506200072d565b828054600181600116156101000203166002900490600052602060002090601f016020900481019282601f10620006c157805160ff1916838001178555620006f2565b82800160010185558215620006f2579182015b82811115620006f1578251825591602001919060010190620006d4565b5b50905062000701919062000705565b5090565b6200072a91905b80821115620007265760008160009055506001016200070c565b5090565b90565b61380d806200073d6000396000f30060806040526004361061016a576000357c0100000000000000000000000000000000000000000000000000000000900463ffffffff16806306fdde031461016f57806308b4312b146101ff578063095ea7b31461022a5780631249c58b1461028f578063128bfcae146102be57806318160ddd146102f557806323b872dd14610320578063313ce567146103a55780635418796c146103d057806358523e011461047957806366188463146105b357806370a0823114610618578063782520dd1461066f5780637f761472146107895780638da5cb5b146108155780639283032c1461086c57806395d89b4114610883578063a9059cbb14610913578063af1d06e814610978578063b80ac7df14610a0a578063ca193e4d14610a96578063ce267b5514610b52578063d73dd62314610c1c578063dd62ed3e14610c81578063e073ef6914610cf8578063e6997f6d14610d9f578063f2fde38b14610dd2578063f35dad4014610e15575b600080fd5b34801561017b57600080fd5b50610184610e40565b6040518080602001828103825283818151815260200191508051906020019080838360005b838110156101c45780820151818401526020810190506101a9565b50505050905090810190601f1680156101f15780820380516001836020036101000a031916815260200191505b509250505060405180910390f35b34801561020b57600080fd5b50610214610ede565b6040518082815260200191505060405180910390f35b34801561023657600080fd5b50610275600480360381019080803573ffffffffffffffffffffffffffffffffffffffff16906020019092919080359060200190929190505050610ee4565b604051808215151515815260200191505060405180910390f35b34801561029b57600080fd5b506102a4610fd6565b604051808215151515815260200191505060405180910390f35b3480156102ca57600080fd5b506102f36004803603810190808035906020019092919080359060200190929190505050611481565b005b34801561030157600080fd5b5061030a611679565b6040518082815260200191505060405180910390f35b34801561032c57600080fd5b5061038b600480360381019080803573ffffffffffffffffffffffffffffffffffffffff169060200190929190803573ffffffffffffffffffffffffffffffffffffffff16906020019092919080359060200190929190505050611683565b604051808215151515815260200191505060405180910390f35b3480156103b157600080fd5b506103ba611a3d565b6040518082815260200191505060405180910390f35b3480156103dc57600080fd5b50610437600480360381019080803590602001908201803590602001908080601f0160208091040260200160405190810160405280939291908181526020018383808284378201915050505050509192919290505050611a43565b604051808273ffffffffffffffffffffffffffffffffffffffff1673ffffffffffffffffffffffffffffffffffffffff16815260200191505060405180910390f35b34801561048557600080fd5b5061059d6004803603810190808035600019169060200190929190803560ff1690602001909291908035906020019092919080359060200190820180359060200190808060200260200160405190810160405280939291908181526020018383602002808284378201915050505050509192919290803590602001908201803590602001908080601f0160208091040260200160405190810160405280939291908181526020018383808284378201915050505050509192919290803515159060200190929190803560ff16906020019092919080356000191690602001909291908035600019169060200190929190803573ffffffffffffffffffffffffffffffffffffffff169060200190929190505050611ac9565b6040518082815260200191505060405180910390f35b3480156105bf57600080fd5b506105fe600480360381019080803573ffffffffffffffffffffffffffffffffffffffff16906020019092919080359060200190929190505050611bc3565b604051808215151515815260200191505060405180910390f35b34801561062457600080fd5b50610659600480360381019080803573ffffffffffffffffffffffffffffffffffffffff169060200190929190505050611e54565b6040518082815260200191505060405180910390f35b34801561067b57600080fd5b506107736004803603810190808035600019169060200190929190803560ff1690602001909291908035906020019092919080359060200190820180359060200190808060200260200160405190810160405280939291908181526020018383602002808284378201915050505050509192919290803590602001908201803590602001908080601f0160208091040260200160405190810160405280939291908181526020018383808284378201915050505050509192919290803515159060200190929190803560ff16906020019092919080356000191690602001909291908035600019169060200190929190505050611e9c565b6040518082815260200191505060405180910390f35b34801561079557600080fd5b506107fb600480360381019080803560001916906020019092919080359060200190820180359060200190808060200260200160405190810160405280939291908181526020018383602002808284378201915050505050509192919290505050612301565b604051808215151515815260200191505060405180910390f35b34801561082157600080fd5b5061082a61234c565b604051808273ffffffffffffffffffffffffffffffffffffffff1673ffffffffffffffffffffffffffffffffffffffff16815260200191505060405180910390f35b34801561087857600080fd5b50610881612372565b005b34801561088f57600080fd5b5061089861240c565b6040518080602001828103825283818151815260200191508051906020019080838360005b838110156108d85780820151818401526020810190506108bd565b50505050905090810190601f1680156109055780820380516001836020036101000a031916815260200191505b509250505060405180910390f35b34801561091f57600080fd5b5061095e600480360381019080803573ffffffffffffffffffffffffffffffffffffffff169060200190929190803590602001909291905050506124aa565b604051808215151515815260200191505060405180910390f35b34801561098457600080fd5b506109f06004803603810190808035600019169060200190929190803560ff16906020019092919080356000191690602001909291908035600019169060200190929190803573ffffffffffffffffffffffffffffffffffffffff1690602001909291905050506126c9565b604051808215151515815260200191505060405180910390f35b348015610a1657600080fd5b50610a7c600480360381019080803590602001908201803590602001908080602002602001604051908101604052809392919081815260200183836020028082843782019150505050505091929192908035600019169060200190929190505050612785565b604051808215151515815260200191505060405180910390f35b348015610aa257600080fd5b50610b38600480360381019080803560001916906020019092919080356bffffffffffffffffffffffff19169060200190929190803560ff169060200190929190803590602001909291908035906020019082018035906020019080806020026020016040519081016040528093929190818152602001838360200280828437820191505050505050919291929050505061279c565b604051808215151515815260200191505060405180910390f35b348015610b5e57600080fd5b50610c02600480360381019080803573ffffffffffffffffffffffffffffffffffffffff169060200190929190803590602001908201803590602001908080601f0160208091040260200160405190810160405280939291908181526020018383808284378201915050505050509192919290803560ff1690602001909291908035600019169060200190929190803560001916906020019092919050505061289f565b604051808215151515815260200191505060405180910390f35b348015610c2857600080fd5b50610c67600480360381019080803573ffffffffffffffffffffffffffffffffffffffff169060200190929190803590602001909291905050506129bc565b604051808215151515815260200191505060405180910390f35b348015610c8d57600080fd5b50610ce2600480360381019080803573ffffffffffffffffffffffffffffffffffffffff169060200190929190803573ffffffffffffffffffffffffffffffffffffffff169060200190929190505050612bb8565b6040518082815260200191505060405180910390f35b348015610d0457600080fd5b50610d6b600480360381019080803590602001908201803590602001908080601f0160208091040260200160405190810160405280939291908181526020018383808284378201915050505050509192919290803515159060200190929190505050612c3f565b60405180826bffffffffffffffffffffffff19166bffffffffffffffffffffffff1916815260200191505060405180910390f35b348015610dab57600080fd5b50610db4612ffe565b60405180826000191660001916815260200191505060405180910390f35b348015610dde57600080fd5b50610e13600480360381019080803573ffffffffffffffffffffffffffffffffffffffff169060200190929190505050613004565b005b348015610e2157600080fd5b50610e2a61315c565b6040518082815260200191505060405180910390f35b600e8054600181600116156101000203166002900480601f016020809104026020016040519081016040528092919081815260200182805460018160011615610100020316600290048015610ed65780601f10610eab57610100808354040283529160200191610ed6565b820191906000526020600020905b815481529060010190602001808311610eb957829003601f168201915b505050505081565b600a5481565b600081600260003373ffffffffffffffffffffffffffffffffffffffff1673ffffffffffffffffffffffffffffffffffffffff16815260200190815260200160002060008573ffffffffffffffffffffffffffffffffffffffff1673ffffffffffffffffffffffffffffffffffffffff168152602001908152602001600020819055508273ffffffffffffffffffffffffffffffffffffffff163373ffffffffffffffffffffffffffffffffffffffff167f8c5be1e5ebec7d5bd14f71427d1e84f3dd0314c0f7b2291e5b200ac8c7c3b925846040518082815260200191505060405180910390a36001905092915050565b600080610fe1612372565b6000600d60003373ffffffffffffffffffffffffffffffffffffffff1673ffffffffffffffffffffffffffffffffffffffff1681526020019081526020016000206000015411151561103257600080fd5b600d60003373ffffffffffffffffffffffffffffffffffffffff1673ffffffffffffffffffffffffffffffffffffffff168152602001908152602001600020600201544211151561108257600080fd5b6110d9600d60003373ffffffffffffffffffffffffffffffffffffffff1673ffffffffffffffffffffffffffffffffffffffff16815260200190815260200160002060000154600c5461316290919063ffffffff16565b600c81905550611172600d60003373ffffffffffffffffffffffffffffffffffffffff1673ffffffffffffffffffffffffffffffffffffffff168152602001908152602001600020600001546000803373ffffffffffffffffffffffffffffffffffffffff1673ffffffffffffffffffffffffffffffffffffffff1681526020019081526020016000205461317b90919063ffffffff16565b6000803373ffffffffffffffffffffffffffffffffffffffff1673ffffffffffffffffffffffffffffffffffffffff1681526020019081526020016000208190555061122f600d60003373ffffffffffffffffffffffffffffffffffffffff1673ffffffffffffffffffffffffffffffffffffffff16815260200190815260200160002060806040519081016040529081600082015481526020016001820154815260200160028201548152602001600382015481525050613197565b9050611282816000803373ffffffffffffffffffffffffffffffffffffffff1673ffffffffffffffffffffffffffffffffffffffff1681526020019081526020016000205461317b90919063ffffffff16565b6000803373ffffffffffffffffffffffffffffffffffffffff1673ffffffffffffffffffffffffffffffffffffffff1681526020019081526020016000208190555061133781600080600360009054906101000a900473ffffffffffffffffffffffffffffffffffffffff1673ffffffffffffffffffffffffffffffffffffffff1673ffffffffffffffffffffffffffffffffffffffff1681526020019081526020016000205461317b90919063ffffffff16565b600080600360009054906101000a900473ffffffffffffffffffffffffffffffffffffffff1673ffffffffffffffffffffffffffffffffffffffff1673ffffffffffffffffffffffffffffffffffffffff168152602001908152602001600020819055506113c36113b260028361321c90919063ffffffff16565b60015461317b90919063ffffffff16565b600181905550600d60003373ffffffffffffffffffffffffffffffffffffffff1673ffffffffffffffffffffffffffffffffffffffff16815260200190815260200160002060008082016000905560018201600090556002820160009055600382016000905550503373ffffffffffffffffffffffffffffffffffffffff167f0f6798a560793a54c3bcfe86a93cde1e73087d944c0ea20544137d4121396885826040518082815260200191505060405180910390a2600191505090565b611489612372565b6000600d60003373ffffffffffffffffffffffffffffffffffffffff1673ffffffffffffffffffffffffffffffffffffffff168152602001908152602001600020600001541415156114da57600080fd5b6000803373ffffffffffffffffffffffffffffffffffffffff1673ffffffffffffffffffffffffffffffffffffffff16815260200190815260200160002054821115151561152757600080fd5b611578826000803373ffffffffffffffffffffffffffffffffffffffff1673ffffffffffffffffffffffffffffffffffffffff1681526020019081526020016000205461316290919063ffffffff16565b6000803373ffffffffffffffffffffffffffffffffffffffff1673ffffffffffffffffffffffffffffffffffffffff16815260200190815260200160002081905550608060405190810160405280836fffffffffffffffffffffffffffffffff168152602001428152602001828152602001600c54815250600d60003373ffffffffffffffffffffffffffffffffffffffff1673ffffffffffffffffffffffffffffffffffffffff1681526020019081526020016000206000820151816000015560208201518160010155604082015181600201556060820151816003015590505061166f82600c5461317b90919063ffffffff16565b600c819055505050565b6000600154905090565b60008073ffffffffffffffffffffffffffffffffffffffff168373ffffffffffffffffffffffffffffffffffffffff16141515156116c057600080fd5b6000808573ffffffffffffffffffffffffffffffffffffffff1673ffffffffffffffffffffffffffffffffffffffff16815260200190815260200160002054821115151561170d57600080fd5b600260008573ffffffffffffffffffffffffffffffffffffffff1673ffffffffffffffffffffffffffffffffffffffff16815260200190815260200160002060003373ffffffffffffffffffffffffffffffffffffffff1673ffffffffffffffffffffffffffffffffffffffff16815260200190815260200160002054821115151561179857600080fd5b6117e9826000808773ffffffffffffffffffffffffffffffffffffffff1673ffffffffffffffffffffffffffffffffffffffff1681526020019081526020016000205461316290919063ffffffff16565b6000808673ffffffffffffffffffffffffffffffffffffffff1673ffffffffffffffffffffffffffffffffffffffff1681526020019081526020016000208190555061187c826000808673ffffffffffffffffffffffffffffffffffffffff1673ffffffffffffffffffffffffffffffffffffffff1681526020019081526020016000205461317b90919063ffffffff16565b6000808573ffffffffffffffffffffffffffffffffffffffff1673ffffffffffffffffffffffffffffffffffffffff1681526020019081526020016000208190555061194d82600260008773ffffffffffffffffffffffffffffffffffffffff1673ffffffffffffffffffffffffffffffffffffffff16815260200190815260200160002060003373ffffffffffffffffffffffffffffffffffffffff1673ffffffffffffffffffffffffffffffffffffffff1681526020019081526020016000205461316290919063ffffffff16565b600260008673ffffffffffffffffffffffffffffffffffffffff1673ffffffffffffffffffffffffffffffffffffffff16815260200190815260200160002060003373ffffffffffffffffffffffffffffffffffffffff1673ffffffffffffffffffffffffffffffffffffffff168152602001908152602001600020819055508273ffffffffffffffffffffffffffffffffffffffff168473ffffffffffffffffffffffffffffffffffffffff167fddf252ad1be2c89b69c2b068fc378daa952ba7f163c4a11628f55a4df523b3ef846040518082815260200191505060405180910390a3600190509392505050565b60105481565b600073ffffffffffffffffffffffffffffffffffffffff826040518082805190602001908083835b602083101515611a905780518252602082019150602081019050602083039250611a6b565b6001836020036101000a038019825116818451168082178552505050505050905001915050604051809103902060019004169050919050565b6000611adc8b8b8b8b8b8b8b8b8b611e9c565b9050611b42611af560148361325490919063ffffffff16565b6000808573ffffffffffffffffffffffffffffffffffffffff1673ffffffffffffffffffffffffffffffffffffffff1681526020019081526020016000205461317b90919063ffffffff16565b6000808473ffffffffffffffffffffffffffffffffffffffff1673ffffffffffffffffffffffffffffffffffffffff16815260200190815260200160002081905550611bac611b9b60148361325490919063ffffffff16565b60015461317b90919063ffffffff16565b6001819055508090509a9950505050505050505050565b600080600260003373ffffffffffffffffffffffffffffffffffffffff1673ffffffffffffffffffffffffffffffffffffffff16815260200190815260200160002060008573ffffffffffffffffffffffffffffffffffffffff1673ffffffffffffffffffffffffffffffffffffffff16815260200190815260200160002054905080831115611cd4576000600260003373ffffffffffffffffffffffffffffffffffffffff1673ffffffffffffffffffffffffffffffffffffffff16815260200190815260200160002060008673ffffffffffffffffffffffffffffffffffffffff1673ffffffffffffffffffffffffffffffffffffffff16815260200190815260200160002081905550611d68565b611ce7838261316290919063ffffffff16565b600260003373ffffffffffffffffffffffffffffffffffffffff1673ffffffffffffffffffffffffffffffffffffffff16815260200190815260200160002060008673ffffffffffffffffffffffffffffffffffffffff1673ffffffffffffffffffffffffffffffffffffffff168152602001908152602001600020819055505b8373ffffffffffffffffffffffffffffffffffffffff163373ffffffffffffffffffffffffffffffffffffffff167f8c5be1e5ebec7d5bd14f71427d1e84f3dd0314c0f7b2291e5b200ac8c7c3b925600260003373ffffffffffffffffffffffffffffffffffffffff1673ffffffffffffffffffffffffffffffffffffffff16815260200190815260200160002060008873ffffffffffffffffffffffffffffffffffffffff1673ffffffffffffffffffffffffffffffffffffffff168152602001908152602001600020546040518082815260200191505060405180910390a3600191505092915050565b60008060008373ffffffffffffffffffffffffffffffffffffffff1673ffffffffffffffffffffffffffffffffffffffff168152602001908152602001600020549050919050565b6000806000611ea9612372565b6032611ed562093a80611ec76004544261316290919063ffffffff16565b61325490919063ffffffff16565b101515611ee157600080fd5b611eeb8888612c3f565b91508b828c8c604051602001808560001916600019168152602001846bffffffffffffffffffffffff19166bffffffffffffffffffffffff191681526014018360ff1660ff167f01000000000000000000000000000000000000000000000000000000000000000281526001018281526020019450505050506040516020818303038152906040526040518082805190602001908083835b602083101515611fa85780518252602082019150602081019050602083039250611f83565b6001836020036101000a03801982511681845116808217855250505050505090500191505060405180910390209050611fe1818a612301565b1515611fec57600080fd5b611ff9338988888861289f565b151561200457600080fd5b600160086000836000191660001916815260200190815260200160002060006101000a81548160ff0219169083151502179055506120418a61326a565b9250600a5461205b8460095461317b90919063ffffffff16565b1115151561206857600080fd5b61207d8360095461317b90919063ffffffff16565b6009819055506120d4836000803373ffffffffffffffffffffffffffffffffffffffff1673ffffffffffffffffffffffffffffffffffffffff1681526020019081526020016000205461317b90919063ffffffff16565b6000803373ffffffffffffffffffffffffffffffffffffffff1673ffffffffffffffffffffffffffffffffffffffff1681526020019081526020016000208190555061212b8360015461317b90919063ffffffff16565b6001819055503373ffffffffffffffffffffffffffffffffffffffff16600073ffffffffffffffffffffffffffffffffffffffff167fddf252ad1be2c89b69c2b068fc378daa952ba7f163c4a11628f55a4df523b3ef856040518082815260200191505060405180910390a33373ffffffffffffffffffffffffffffffffffffffff167f312ab01e6ce21dfe30ce841b1cd250767ce180d2c10a5bea492a1cb6b62eb97b8d8d8d8d8d8c8c8c8c604051808a600019166000191681526020018960ff1660ff16815260200188815260200180602001806020018760ff1660ff16815260200186600019166000191681526020018560001916600019168152602001848152602001838103835289818151815260200191508051906020019060200280838360005b8381101561226d578082015181840152602081019050612252565b50505050905001838103825288818151815260200191508051906020019080838360005b838110156122ac578082015181840152602081019050612291565b50505050905090810190601f1680156122d95780820380516001836020036101000a031916815260200191505b509b50505050505050505050505060405180910390a282925050509998505050505050505050565b600080151560086000856000191660001916815260200190815260200160002060009054906101000a900460ff16151514801561234457506123438284612785565b5b905092915050565b600360009054906101000a900473ffffffffffffffffffffffffffffffffffffffff1681565b60008061239f62093a806123916004544261316290919063ffffffff16565b61325490919063ffffffff16565b91506033821080156123b2575060055482115b15612408576123ce600954600a5461316290919063ffffffff16565b9050602060405190810160405280828152506006600084815260200190815260200160002060008201518160000155905050816005819055505b5050565b600f8054600181600116156101000203166002900480601f0160208091040260200160405190810160405280929190818152602001828054600181600116156101000203166002900480156124a25780601f10612477576101008083540402835291602001916124a2565b820191906000526020600020905b81548152906001019060200180831161248557829003601f168201915b505050505081565b60008073ffffffffffffffffffffffffffffffffffffffff168373ffffffffffffffffffffffffffffffffffffffff16141515156124e757600080fd5b6000803373ffffffffffffffffffffffffffffffffffffffff1673ffffffffffffffffffffffffffffffffffffffff16815260200190815260200160002054821115151561253457600080fd5b612585826000803373ffffffffffffffffffffffffffffffffffffffff1673ffffffffffffffffffffffffffffffffffffffff1681526020019081526020016000205461316290919063ffffffff16565b6000803373ffffffffffffffffffffffffffffffffffffffff1673ffffffffffffffffffffffffffffffffffffffff16815260200190815260200160002081905550612618826000808673ffffffffffffffffffffffffffffffffffffffff1673ffffffffffffffffffffffffffffffffffffffff1681526020019081526020016000205461317b90919063ffffffff16565b6000808573ffffffffffffffffffffffffffffffffffffffff1673ffffffffffffffffffffffffffffffffffffffff168152602001908152602001600020819055508273ffffffffffffffffffffffffffffffffffffffff163373ffffffffffffffffffffffffffffffffffffffff167fddf252ad1be2c89b69c2b068fc378daa952ba7f163c4a11628f55a4df523b3ef846040518082815260200191505060405180910390a36001905092915050565b60008173ffffffffffffffffffffffffffffffffffffffff16600187878787604051600081526020016040526040518085600019166000191681526020018460ff1660ff1681526020018360001916600019168152602001826000191660001916815260200194505050505060206040516020810390808403906000865af1158015612759573d6000803e3d6000fd5b5050506020604051035173ffffffffffffffffffffffffffffffffffffffff1614905095945050505050565b60006127948360075484613333565b905092915050565b60008086868686604051602001808560001916600019168152602001846bffffffffffffffffffffffff19166bffffffffffffffffffffffff191681526014018360ff1660ff167f01000000000000000000000000000000000000000000000000000000000000000281526001018281526020019450505050506040516020818303038152906040526040518082805190602001908083835b60208310151561285a5780518252602082019150602081019050602083039250612835565b6001836020036101000a038019825116818451168082178552505050505050905001915050604051809103902090506128938184612301565b91505095945050505050565b60006129b1600287604051602001808273ffffffffffffffffffffffffffffffffffffffff1673ffffffffffffffffffffffffffffffffffffffff166c010000000000000000000000000281526014019150506040516020818303038152906040526040518082805190602001908083835b6020831015156129365780518252602082019150602081019050602083039250612911565b6001836020036101000a0380198251168184511680821785525050505050509050019150506020604051808303816000865af115801561297a573d6000803e3d6000fd5b5050506040513d602081101561298f57600080fd5b81019080805190602001909291905050508585856129ac8a611a43565b6126c9565b905095945050505050565b6000612a4d82600260003373ffffffffffffffffffffffffffffffffffffffff1673ffffffffffffffffffffffffffffffffffffffff16815260200190815260200160002060008673ffffffffffffffffffffffffffffffffffffffff1673ffffffffffffffffffffffffffffffffffffffff1681526020019081526020016000205461317b90919063ffffffff16565b600260003373ffffffffffffffffffffffffffffffffffffffff1673ffffffffffffffffffffffffffffffffffffffff16815260200190815260200160002060008573ffffffffffffffffffffffffffffffffffffffff1673ffffffffffffffffffffffffffffffffffffffff168152602001908152602001600020819055508273ffffffffffffffffffffffffffffffffffffffff163373ffffffffffffffffffffffffffffffffffffffff167f8c5be1e5ebec7d5bd14f71427d1e84f3dd0314c0f7b2291e5b200ac8c7c3b925600260003373ffffffffffffffffffffffffffffffffffffffff1673ffffffffffffffffffffffffffffffffffffffff16815260200190815260200160002060008773ffffffffffffffffffffffffffffffffffffffff1673ffffffffffffffffffffffffffffffffffffffff168152602001908152602001600020546040518082815260200191505060405180910390a36001905092915050565b6000600260008473ffffffffffffffffffffffffffffffffffffffff1673ffffffffffffffffffffffffffffffffffffffff16815260200190815260200160002060008373ffffffffffffffffffffffffffffffffffffffff1673ffffffffffffffffffffffffffffffffffffffff16815260200190815260200160002054905092915050565b600080600080612c508660006134d6565b600190049250612c618660206134d6565b6001900491508415612e3d576000600283811515612c7b57fe5b0614612c88576003612c8b565b60025b9050600360028285604051602001808360ff1660ff167f0100000000000000000000000000000000000000000000000000000000000000028152600101828152602001925050506040516020818303038152906040526040518082805190602001908083835b602083101515612d165780518252602082019150602081019050602083039250612cf1565b6001836020036101000a0380198251168184511680821785525050505050509050019150506020604051808303816000865af1158015612d5a573d6000803e3d6000fd5b5050506040513d6020811015612d6f57600080fd5b81019080805190602001909291905050506040516020018082600019166000191681526020019150506040516020818303038152906040526040518082805190602001908083835b602083101515612ddc5780518252602082019150602081019050602083039250612db7565b6001836020036101000a0380198251168184511680821785525050505050509050019150506020604051808303816000865af1158015612e20573d6000803e3d6000fd5b505050604051516c01000000000000000000000000029350612ff5565b6004905060036002828585604051602001808460ff1660ff167f010000000000000000000000000000000000000000000000000000000000000002815260010183815260200182815260200193505050506040516020818303038152906040526040518082805190602001908083835b602083101515612ed25780518252602082019150602081019050602083039250612ead565b6001836020036101000a0380198251168184511680821785525050505050509050019150506020604051808303816000865af1158015612f16573d6000803e3d6000fd5b5050506040513d6020811015612f2b57600080fd5b81019080805190602001909291905050506040516020018082600019166000191681526020019150506040516020818303038152906040526040518082805190602001908083835b602083101515612f985780518252602082019150602081019050602083039250612f73565b6001836020036101000a0380198251168184511680821785525050505050509050019150506020604051808303816000865af1158015612fdc573d6000803e3d6000fd5b505050604051516c010000000000000000000000000293505b50505092915050565b60075481565b600360009054906101000a900473ffffffffffffffffffffffffffffffffffffffff1673ffffffffffffffffffffffffffffffffffffffff163373ffffffffffffffffffffffffffffffffffffffff1614151561306057600080fd5b600073ffffffffffffffffffffffffffffffffffffffff168173ffffffffffffffffffffffffffffffffffffffff161415151561309c57600080fd5b8073ffffffffffffffffffffffffffffffffffffffff16600360009054906101000a900473ffffffffffffffffffffffffffffffffffffffff1673ffffffffffffffffffffffffffffffffffffffff167f8be0079c531659141344cd1fd0a4f28419497f9722a3daafe3b4186f6b6457e060405160405180910390a380600360006101000a81548173ffffffffffffffffffffffffffffffffffffffff021916908373ffffffffffffffffffffffffffffffffffffffff16021790555050565b60095481565b600082821115151561317057fe5b818303905092915050565b6000818301905082811015151561318e57fe5b80905092915050565b600080600090506131b96131aa846135b2565b8261317b90919063ffffffff16565b90506131d66131c78461369a565b8261317b90919063ffffffff16565b90506131f36131e484613771565b8261317b90919063ffffffff16565b90506132116132028483613778565b8261317b90919063ffffffff16565b905080915050919050565b60008083141561322f576000905061324e565b818302905081838281151561324057fe5b0414151561324a57fe5b8090505b92915050565b6000818381151561326157fe5b04905092915050565b60008060008061329a62093a8061328c6004544261316290919063ffffffff16565b61325490919063ffffffff16565b92506132c36132b360028561321c90919063ffffffff16565b606461316290919063ffffffff16565b91506132eb60646132dd848861321c90919063ffffffff16565b61325490919063ffffffff16565b90506133266064613318600b6000878152602001908152602001600020548461321c90919063ffffffff16565b61325490919063ffffffff16565b9050809350505050919050565b600080600080849250600091505b86518210156134bf57868281518110151561335857fe5b9060200190602002015190508060001916836000191610156134155782816040516020018083600019166000191681526020018260001916600019168152602001925050506040516020818303038152906040526040518082805190602001908083835b6020831015156133e157805182526020820191506020810190506020830392506133bc565b6001836020036101000a038019825116818451168082178552505050505050905001915050604051809103902092506134b2565b80836040516020018083600019166000191681526020018260001916600019168152602001925050506040516020818303038152906040526040518082805190602001908083835b602083101515613482578051825260208201915060208101905060208303925061345d565b6001836020036101000a038019825116818451168082178552505050505050905001915050604051809103902092505b8180600101925050613341565b856000191683600019161493505050509392505050565b600080600090505b60208110156135a85760088102848483018151811015156134fb57fe5b9060200101517f010000000000000000000000000000000000000000000000000000000000000090047f0100000000000000000000000000000000000000000000000000000000000000027effffffffffffffffffffffffffffffffffffffffffffffffffffffffffffff19167fff0000000000000000000000000000000000000000000000000000000000000060010216600019169060020a90048218915080806001019150506134de565b8191505092915050565b6000806000806000606493506135ea6001546135dc6064896060015161321c90919063ffffffff16565b61325490919063ffffffff16565b92506135ff838561325490919063ffffffff16565b935061362d620d2f0061361f88602001514261316290919063ffffffff16565b61325490919063ffffffff16565b915061363e866000015183866137be565b905061368f8660000151613681836136736103e8613665888861321c90919063ffffffff16565b61325490919063ffffffff16565b61317b90919063ffffffff16565b61316290919063ffffffff16565b945050505050919050565b6000806000806136ce62093a806136c0600454886020015161316290919063ffffffff16565b61325490919063ffffffff16565b92506136fa62093a806136ec6004544261316290919063ffffffff16565b61325490919063ffffffff16565b91508290505b818110156137695761375a61374b603261373d8860000151600660008781526020019081526020016000206000015461321c90919063ffffffff16565b61325490919063ffffffff16565b8561317b90919063ffffffff16565b93508080600101915050613700565b505050919050565b6000919050565b60006137b6600a6137a8600a5461379a6009548761321c90919063ffffffff16565b61325490919063ffffffff16565b61325490919063ffffffff16565b905092915050565b6000826103e80a83836103e8010a85028115156137d757fe5b04905093925050505600a165627a7a7230582005781a2900b35b350de45baa7822b42a6f69a2fbd2c33a7194e4138f28bd62010029",
  "source": "pragma solidity ^0.4.23;\nimport \"./StakeableToken.sol\";\n\ncontract BitcoinHex is StakeableToken {\n    string public name = \"BitcoinHex\"; \n    string public symbol = \"BHX\";\n    uint public decimals = 8;\n\n    constructor () public {\n        totalSupply_ = 0;\n        launchTime = block.timestamp;\n        owner = msg.sender;\n        rootUTXOMerkleTreeHash = 0x0; // Change before launch\n        maximumRedeemable = 0; // Change before launch\n\n        /* Precomputed Speed Bonus Values weekToSpeedBonusTimesHundred = 10*0.95^week+100 */\n        weekToSpeedBonusTimesHundred[0] = 110;\n        weekToSpeedBonusTimesHundred[1] = 109;\n        weekToSpeedBonusTimesHundred[2] = 109;\n        weekToSpeedBonusTimesHundred[3] = 108;\n        weekToSpeedBonusTimesHundred[4] = 108;\n        weekToSpeedBonusTimesHundred[5] = 107;\n        weekToSpeedBonusTimesHundred[6] = 107;\n        weekToSpeedBonusTimesHundred[7] = 106;\n        weekToSpeedBonusTimesHundred[8] = 106;\n        weekToSpeedBonusTimesHundred[9] = 106;\n        weekToSpeedBonusTimesHundred[10] = 105;\n        weekToSpeedBonusTimesHundred[11] = 105;\n        weekToSpeedBonusTimesHundred[12] = 105;\n        weekToSpeedBonusTimesHundred[13] = 105;\n        weekToSpeedBonusTimesHundred[14] = 104;\n        weekToSpeedBonusTimesHundred[15] = 104;\n        weekToSpeedBonusTimesHundred[16] = 104;\n        weekToSpeedBonusTimesHundred[17] = 104;\n        weekToSpeedBonusTimesHundred[18] = 103;\n        weekToSpeedBonusTimesHundred[19] = 103;\n        weekToSpeedBonusTimesHundred[20] = 103;\n        weekToSpeedBonusTimesHundred[21] = 103;\n        weekToSpeedBonusTimesHundred[22] = 103;\n        weekToSpeedBonusTimesHundred[23] = 103;\n        weekToSpeedBonusTimesHundred[24] = 102;\n        weekToSpeedBonusTimesHundred[25] = 102;\n        weekToSpeedBonusTimesHundred[26] = 102;\n        weekToSpeedBonusTimesHundred[27] = 102;\n        weekToSpeedBonusTimesHundred[28] = 102;\n        weekToSpeedBonusTimesHundred[29] = 102;\n        weekToSpeedBonusTimesHundred[30] = 102;\n        weekToSpeedBonusTimesHundred[31] = 102;\n        weekToSpeedBonusTimesHundred[32] = 101;\n        weekToSpeedBonusTimesHundred[33] = 101;\n        weekToSpeedBonusTimesHundred[34] = 101;\n        weekToSpeedBonusTimesHundred[35] = 101;\n        weekToSpeedBonusTimesHundred[36] = 101;\n        weekToSpeedBonusTimesHundred[37] = 101;\n        weekToSpeedBonusTimesHundred[38] = 101;\n        weekToSpeedBonusTimesHundred[39] = 101;\n        weekToSpeedBonusTimesHundred[40] = 101;\n        weekToSpeedBonusTimesHundred[41] = 101;\n        weekToSpeedBonusTimesHundred[42] = 101;\n        weekToSpeedBonusTimesHundred[43] = 101;\n        weekToSpeedBonusTimesHundred[44] = 101;\n        weekToSpeedBonusTimesHundred[45] = 100;\n        weekToSpeedBonusTimesHundred[46] = 100;\n        weekToSpeedBonusTimesHundred[47] = 100;\n        weekToSpeedBonusTimesHundred[48] = 100;\n        weekToSpeedBonusTimesHundred[49] = 100;\n    }\n}\n",
  "sourcePath": "/Users/mesquka/Git/Bitcoin Hex/contract/contracts/BitcoinHex.sol",
  "compiler": {
    "name": "solc",
    "version": "0.4.24+commit.e67f0147.Emscripten.clang"
  },
  "schemaVersion": "2.0.0",
  "updatedAt": "2018-06-06T07:32:39.867Z"
}