{
  "contractName": "BitcoinHex",
  "abi": [
    {
      "constant": true,
      "inputs": [],
      "name": "name",
      "outputs": [
        {
          "name": "",
          "type": "string"
        }
      ],
      "payable": false,
      "stateMutability": "view",
      "type": "function"
    },
    {
      "constant": true,
      "inputs": [],
      "name": "maximumRedeemable",
      "outputs": [
        {
          "name": "",
          "type": "uint256"
        }
      ],
      "payable": false,
      "stateMutability": "view",
      "type": "function"
    },
    {
      "constant": false,
      "inputs": [
        {
          "name": "_spender",
          "type": "address"
        },
        {
          "name": "_value",
          "type": "uint256"
        }
      ],
      "name": "approve",
      "outputs": [
        {
          "name": "",
          "type": "bool"
        }
      ],
      "payable": false,
      "stateMutability": "nonpayable",
      "type": "function"
    },
    {
      "constant": false,
      "inputs": [],
      "name": "mint",
      "outputs": [
        {
          "name": "",
          "type": "bool"
        }
      ],
      "payable": false,
      "stateMutability": "nonpayable",
      "type": "function"
    },
    {
      "constant": false,
      "inputs": [
        {
          "name": "_value",
          "type": "uint256"
        },
        {
          "name": "_unlockTime",
          "type": "uint256"
        }
      ],
      "name": "startStake",
      "outputs": [],
      "payable": false,
      "stateMutability": "nonpayable",
      "type": "function"
    },
    {
      "constant": true,
      "inputs": [],
      "name": "totalSupply",
      "outputs": [
        {
          "name": "",
          "type": "uint256"
        }
      ],
      "payable": false,
      "stateMutability": "view",
      "type": "function"
    },
    {
      "constant": false,
      "inputs": [
        {
          "name": "_from",
          "type": "address"
        },
        {
          "name": "_to",
          "type": "address"
        },
        {
          "name": "_value",
          "type": "uint256"
        }
      ],
      "name": "transferFrom",
      "outputs": [
        {
          "name": "",
          "type": "bool"
        }
      ],
      "payable": false,
      "stateMutability": "nonpayable",
      "type": "function"
    },
    {
      "constant": true,
      "inputs": [],
      "name": "decimals",
      "outputs": [
        {
          "name": "",
          "type": "uint256"
        }
      ],
      "payable": false,
      "stateMutability": "view",
      "type": "function"
    },
    {
      "constant": true,
      "inputs": [
        {
          "name": "pubKey",
          "type": "bytes"
        }
      ],
      "name": "pubKeyToEthereumAddress",
      "outputs": [
        {
          "name": "",
          "type": "address"
        }
      ],
      "payable": false,
      "stateMutability": "pure",
      "type": "function"
    },
    {
      "constant": false,
      "inputs": [
        {
          "name": "txid",
          "type": "bytes32"
        },
        {
          "name": "outputIndex",
          "type": "uint8"
        },
        {
          "name": "satoshis",
          "type": "uint256"
        },
        {
          "name": "proof",
          "type": "bytes32[]"
        },
        {
          "name": "pubKey",
          "type": "bytes"
        },
        {
          "name": "isCompressed",
          "type": "bool"
        },
        {
          "name": "v",
          "type": "uint8"
        },
        {
          "name": "r",
          "type": "bytes32"
        },
        {
          "name": "s",
          "type": "bytes32"
        },
        {
          "name": "referrer",
          "type": "address"
        }
      ],
      "name": "redeemUTXO",
      "outputs": [
        {
          "name": "tokensRedeemed",
          "type": "uint256"
        }
      ],
      "payable": false,
      "stateMutability": "nonpayable",
      "type": "function"
    },
    {
      "constant": false,
      "inputs": [
        {
          "name": "_spender",
          "type": "address"
        },
        {
          "name": "_subtractedValue",
          "type": "uint256"
        }
      ],
      "name": "decreaseApproval",
      "outputs": [
        {
          "name": "",
          "type": "bool"
        }
      ],
      "payable": false,
      "stateMutability": "nonpayable",
      "type": "function"
    },
    {
      "constant": true,
      "inputs": [
        {
          "name": "_owner",
          "type": "address"
        }
      ],
      "name": "balanceOf",
      "outputs": [
        {
          "name": "",
          "type": "uint256"
        }
      ],
      "payable": false,
      "stateMutability": "view",
      "type": "function"
    },
    {
      "constant": false,
      "inputs": [
        {
          "name": "txid",
          "type": "bytes32"
        },
        {
          "name": "outputIndex",
          "type": "uint8"
        },
        {
          "name": "satoshis",
          "type": "uint256"
        },
        {
          "name": "proof",
          "type": "bytes32[]"
        },
        {
          "name": "pubKey",
          "type": "bytes"
        },
        {
          "name": "isCompressed",
          "type": "bool"
        },
        {
          "name": "v",
          "type": "uint8"
        },
        {
          "name": "r",
          "type": "bytes32"
        },
        {
          "name": "s",
          "type": "bytes32"
        }
      ],
      "name": "redeemUTXO",
      "outputs": [
        {
          "name": "tokensRedeemed",
          "type": "uint256"
        }
      ],
      "payable": false,
      "stateMutability": "nonpayable",
      "type": "function"
    },
    {
      "constant": true,
      "inputs": [
        {
          "name": "merkleLeafHash",
          "type": "bytes32"
        },
        {
          "name": "proof",
          "type": "bytes32[]"
        }
      ],
      "name": "canRedeemUTXOHash",
      "outputs": [
        {
          "name": "",
          "type": "bool"
        }
      ],
      "payable": false,
      "stateMutability": "view",
      "type": "function"
    },
    {
      "constant": true,
      "inputs": [],
      "name": "owner",
      "outputs": [
        {
          "name": "",
          "type": "address"
        }
      ],
      "payable": false,
      "stateMutability": "view",
      "type": "function"
    },
    {
      "constant": false,
      "inputs": [],
      "name": "storeWeekUnclaimed",
      "outputs": [],
      "payable": false,
      "stateMutability": "nonpayable",
      "type": "function"
    },
    {
      "constant": true,
      "inputs": [],
      "name": "symbol",
      "outputs": [
        {
          "name": "",
          "type": "string"
        }
      ],
      "payable": false,
      "stateMutability": "view",
      "type": "function"
    },
    {
      "constant": false,
      "inputs": [
        {
          "name": "_to",
          "type": "address"
        },
        {
          "name": "_value",
          "type": "uint256"
        }
      ],
      "name": "transfer",
      "outputs": [
        {
          "name": "",
          "type": "bool"
        }
      ],
      "payable": false,
      "stateMutability": "nonpayable",
      "type": "function"
    },
    {
      "constant": true,
      "inputs": [
        {
          "name": "hash",
          "type": "bytes32"
        },
        {
          "name": "v",
          "type": "uint8"
        },
        {
          "name": "r",
          "type": "bytes32"
        },
        {
          "name": "s",
          "type": "bytes32"
        },
        {
          "name": "expected",
          "type": "address"
        }
      ],
      "name": "validateSignature",
      "outputs": [
        {
          "name": "",
          "type": "bool"
        }
      ],
      "payable": false,
      "stateMutability": "pure",
      "type": "function"
    },
    {
      "constant": true,
      "inputs": [
        {
          "name": "proof",
          "type": "bytes32[]"
        },
        {
          "name": "merkleLeafHash",
          "type": "bytes32"
        }
      ],
      "name": "verifyProof",
      "outputs": [
        {
          "name": "",
          "type": "bool"
        }
      ],
      "payable": false,
      "stateMutability": "view",
      "type": "function"
    },
    {
      "constant": true,
      "inputs": [
        {
          "name": "txid",
          "type": "bytes32"
        },
        {
          "name": "originalAddress",
          "type": "bytes20"
        },
        {
          "name": "outputIndex",
          "type": "uint8"
        },
        {
          "name": "satoshis",
          "type": "uint256"
        },
        {
          "name": "proof",
          "type": "bytes32[]"
        }
      ],
      "name": "canRedeemUTXO",
      "outputs": [
        {
          "name": "",
          "type": "bool"
        }
      ],
      "payable": false,
      "stateMutability": "view",
      "type": "function"
    },
    {
      "constant": true,
      "inputs": [
        {
          "name": "addr",
          "type": "address"
        },
        {
          "name": "pubKey",
          "type": "bytes"
        },
        {
          "name": "v",
          "type": "uint8"
        },
        {
          "name": "r",
          "type": "bytes32"
        },
        {
          "name": "s",
          "type": "bytes32"
        }
      ],
      "name": "ecdsaVerify",
      "outputs": [
        {
          "name": "",
          "type": "bool"
        }
      ],
      "payable": false,
      "stateMutability": "pure",
      "type": "function"
    },
    {
      "constant": false,
      "inputs": [
        {
          "name": "_spender",
          "type": "address"
        },
        {
          "name": "_addedValue",
          "type": "uint256"
        }
      ],
      "name": "increaseApproval",
      "outputs": [
        {
          "name": "",
          "type": "bool"
        }
      ],
      "payable": false,
      "stateMutability": "nonpayable",
      "type": "function"
    },
    {
      "constant": true,
      "inputs": [
        {
          "name": "_owner",
          "type": "address"
        },
        {
          "name": "_spender",
          "type": "address"
        }
      ],
      "name": "allowance",
      "outputs": [
        {
          "name": "",
          "type": "uint256"
        }
      ],
      "payable": false,
      "stateMutability": "view",
      "type": "function"
    },
    {
      "constant": true,
      "inputs": [
        {
          "name": "pubKey",
          "type": "bytes"
        },
        {
          "name": "isCompressed",
          "type": "bool"
        }
      ],
      "name": "pubKeyToBitcoinAddress",
      "outputs": [
        {
          "name": "",
          "type": "bytes20"
        }
      ],
      "payable": false,
      "stateMutability": "pure",
      "type": "function"
    },
    {
      "constant": true,
      "inputs": [],
      "name": "rootUTXOMerkleTreeHash",
      "outputs": [
        {
          "name": "",
          "type": "bytes32"
        }
      ],
      "payable": false,
      "stateMutability": "view",
      "type": "function"
    },
    {
      "constant": false,
      "inputs": [
        {
          "name": "newOwner",
          "type": "address"
        }
      ],
      "name": "transferOwnership",
      "outputs": [],
      "payable": false,
      "stateMutability": "nonpayable",
      "type": "function"
    },
    {
      "constant": true,
      "inputs": [],
      "name": "totalRedeemed",
      "outputs": [
        {
          "name": "",
          "type": "uint256"
        }
      ],
      "payable": false,
      "stateMutability": "view",
      "type": "function"
    },
    {
      "inputs": [],
      "payable": false,
      "stateMutability": "nonpayable",
      "type": "constructor"
    },
    {
      "anonymous": false,
      "inputs": [
        {
          "indexed": true,
          "name": "_address",
          "type": "address"
        },
        {
          "indexed": false,
          "name": "_reward",
          "type": "uint256"
        }
      ],
      "name": "Mint",
      "type": "event"
    },
    {
      "anonymous": false,
      "inputs": [
        {
          "indexed": false,
          "name": "txid",
          "type": "bytes32"
        },
        {
          "indexed": false,
          "name": "outputIndex",
          "type": "uint8"
        },
        {
          "indexed": false,
          "name": "satoshis",
          "type": "uint256"
        },
        {
          "indexed": false,
          "name": "proof",
          "type": "bytes32[]"
        },
        {
          "indexed": false,
          "name": "pubKey",
          "type": "bytes"
        },
        {
          "indexed": false,
          "name": "v",
          "type": "uint8"
        },
        {
          "indexed": false,
          "name": "r",
          "type": "bytes32"
        },
        {
          "indexed": false,
          "name": "s",
          "type": "bytes32"
        },
        {
          "indexed": true,
          "name": "redeemer",
          "type": "address"
        },
        {
          "indexed": false,
          "name": "numberOfTokens",
          "type": "uint256"
        }
      ],
      "name": "UTXORedeemed",
      "type": "event"
    },
    {
      "anonymous": false,
      "inputs": [
        {
          "indexed": true,
          "name": "previousOwner",
          "type": "address"
        },
        {
          "indexed": true,
          "name": "newOwner",
          "type": "address"
        }
      ],
      "name": "OwnershipTransferred",
      "type": "event"
    },
    {
      "anonymous": false,
      "inputs": [
        {
          "indexed": true,
          "name": "owner",
          "type": "address"
        },
        {
          "indexed": true,
          "name": "spender",
          "type": "address"
        },
        {
          "indexed": false,
          "name": "value",
          "type": "uint256"
        }
      ],
      "name": "Approval",
      "type": "event"
    },
    {
      "anonymous": false,
      "inputs": [
        {
          "indexed": true,
          "name": "from",
          "type": "address"
        },
        {
          "indexed": true,
          "name": "to",
          "type": "address"
        },
        {
          "indexed": false,
          "name": "value",
          "type": "uint256"
        }
      ],
      "name": "Transfer",
      "type": "event"
    }
  ],
  "bytecode": "0x608060405260006005556040805190810160405280600a81526020017f426974636f696e48657800000000000000000000000000000000000000000000815250600f90805190602001906200005692919062000687565b506040805190810160405280600381526020017f424858000000000000000000000000000000000000000000000000000000000081525060109080519060200190620000a492919062000687565b506008601155348015620000b757600080fd5b5033600360006101000a81548173ffffffffffffffffffffffffffffffffffffffff021916908373ffffffffffffffffffffffffffffffffffffffff16021790555060006001819055504260048190555033600360006101000a81548173ffffffffffffffffffffffffffffffffffffffff021916908373ffffffffffffffffffffffffffffffffffffffff1602179055506000600102600781600019169055506000600a819055506606114e7f3ba300600c81905550606e600b600080815260200190815260200160002081905550606d600b60006001815260200190815260200160002081905550606d600b60006002815260200190815260200160002081905550606c600b60006003815260200190815260200160002081905550606c600b60006004815260200190815260200160002081905550606b600b60006005815260200190815260200160002081905550606b600b60006006815260200190815260200160002081905550606a600b60006007815260200190815260200160002081905550606a600b60006008815260200190815260200160002081905550606a600b600060098152602001908152602001600020819055506069600b6000600a8152602001908152602001600020819055506069600b6000600b8152602001908152602001600020819055506069600b6000600c8152602001908152602001600020819055506069600b6000600d8152602001908152602001600020819055506068600b6000600e8152602001908152602001600020819055506068600b6000600f8152602001908152602001600020819055506068600b600060108152602001908152602001600020819055506068600b600060118152602001908152602001600020819055506067600b600060128152602001908152602001600020819055506067600b600060138152602001908152602001600020819055506067600b600060148152602001908152602001600020819055506067600b600060158152602001908152602001600020819055506067600b600060168152602001908152602001600020819055506067600b600060178152602001908152602001600020819055506066600b600060188152602001908152602001600020819055506066600b600060198152602001908152602001600020819055506066600b6000601a8152602001908152602001600020819055506066600b6000601b8152602001908152602001600020819055506066600b6000601c8152602001908152602001600020819055506066600b6000601d8152602001908152602001600020819055506066600b6000601e8152602001908152602001600020819055506066600b6000601f8152602001908152602001600020819055506065600b600060208152602001908152602001600020819055506065600b600060218152602001908152602001600020819055506065600b600060228152602001908152602001600020819055506065600b600060238152602001908152602001600020819055506065600b600060248152602001908152602001600020819055506065600b600060258152602001908152602001600020819055506065600b600060268152602001908152602001600020819055506065600b600060278152602001908152602001600020819055506065600b600060288152602001908152602001600020819055506065600b600060298152602001908152602001600020819055506065600b6000602a8152602001908152602001600020819055506065600b6000602b8152602001908152602001600020819055506065600b6000602c8152602001908152602001600020819055506064600b6000602d8152602001908152602001600020819055506064600b6000602e8152602001908152602001600020819055506064600b6000602f8152602001908152602001600020819055506064600b600060308152602001908152602001600020819055506064600b6000603181526020019081526020016000208190555062000736565b828054600181600116156101000203166002900490600052602060002090601f016020900481019282601f10620006ca57805160ff1916838001178555620006fb565b82800160010185558215620006fb579182015b82811115620006fa578251825591602001919060010190620006dd565b5b5090506200070a91906200070e565b5090565b6200073391905b808211156200072f57600081600090555060010162000715565b5090565b90565b61393980620007466000396000f30060806040526004361061016a576000357c0100000000000000000000000000000000000000000000000000000000900463ffffffff16806306fdde031461016f57806308b4312b146101ff578063095ea7b31461022a5780631249c58b1461028f578063128bfcae146102be57806318160ddd146102f557806323b872dd14610320578063313ce567146103a55780635418796c146103d057806358523e011461047957806366188463146105b357806370a0823114610618578063782520dd1461066f5780637f761472146107895780638da5cb5b146108155780639283032c1461086c57806395d89b4114610883578063a9059cbb14610913578063af1d06e814610978578063b80ac7df14610a0a578063ca193e4d14610a96578063ce267b5514610b52578063d73dd62314610c1c578063dd62ed3e14610c81578063e073ef6914610cf8578063e6997f6d14610d9f578063f2fde38b14610dd2578063f35dad4014610e15575b600080fd5b34801561017b57600080fd5b50610184610e40565b6040518080602001828103825283818151815260200191508051906020019080838360005b838110156101c45780820151818401526020810190506101a9565b50505050905090810190601f1680156101f15780820380516001836020036101000a031916815260200191505b509250505060405180910390f35b34801561020b57600080fd5b50610214610ede565b6040518082815260200191505060405180910390f35b34801561023657600080fd5b50610275600480360381019080803573ffffffffffffffffffffffffffffffffffffffff16906020019092919080359060200190929190505050610ee4565b604051808215151515815260200191505060405180910390f35b34801561029b57600080fd5b506102a4610fd6565b604051808215151515815260200191505060405180910390f35b3480156102ca57600080fd5b506102f36004803603810190808035906020019092919080359060200190929190505050611509565b005b34801561030157600080fd5b5061030a6116db565b6040518082815260200191505060405180910390f35b34801561032c57600080fd5b5061038b600480360381019080803573ffffffffffffffffffffffffffffffffffffffff169060200190929190803573ffffffffffffffffffffffffffffffffffffffff169060200190929190803590602001909291905050506116e5565b604051808215151515815260200191505060405180910390f35b3480156103b157600080fd5b506103ba611a9f565b6040518082815260200191505060405180910390f35b3480156103dc57600080fd5b50610437600480360381019080803590602001908201803590602001908080601f0160208091040260200160405190810160405280939291908181526020018383808284378201915050505050509192919290505050611aa5565b604051808273ffffffffffffffffffffffffffffffffffffffff1673ffffffffffffffffffffffffffffffffffffffff16815260200191505060405180910390f35b34801561048557600080fd5b5061059d6004803603810190808035600019169060200190929190803560ff1690602001909291908035906020019092919080359060200190820180359060200190808060200260200160405190810160405280939291908181526020018383602002808284378201915050505050509192919290803590602001908201803590602001908080601f0160208091040260200160405190810160405280939291908181526020018383808284378201915050505050509192919290803515159060200190929190803560ff16906020019092919080356000191690602001909291908035600019169060200190929190803573ffffffffffffffffffffffffffffffffffffffff169060200190929190505050611b2b565b6040518082815260200191505060405180910390f35b3480156105bf57600080fd5b506105fe600480360381019080803573ffffffffffffffffffffffffffffffffffffffff16906020019092919080359060200190929190505050611c25565b604051808215151515815260200191505060405180910390f35b34801561062457600080fd5b50610659600480360381019080803573ffffffffffffffffffffffffffffffffffffffff169060200190929190505050611eb6565b6040518082815260200191505060405180910390f35b34801561067b57600080fd5b506107736004803603810190808035600019169060200190929190803560ff1690602001909291908035906020019092919080359060200190820180359060200190808060200260200160405190810160405280939291908181526020018383602002808284378201915050505050509192919290803590602001908201803590602001908080601f0160208091040260200160405190810160405280939291908181526020018383808284378201915050505050509192919290803515159060200190929190803560ff16906020019092919080356000191690602001909291908035600019169060200190929190505050611efe565b6040518082815260200191505060405180910390f35b34801561079557600080fd5b506107fb600480360381019080803560001916906020019092919080359060200190820180359060200190808060200260200160405190810160405280939291908181526020018383602002808284378201915050505050509192919290505050612363565b604051808215151515815260200191505060405180910390f35b34801561082157600080fd5b5061082a6123ae565b604051808273ffffffffffffffffffffffffffffffffffffffff1673ffffffffffffffffffffffffffffffffffffffff16815260200191505060405180910390f35b34801561087857600080fd5b506108816123d4565b005b34801561088f57600080fd5b5061089861246e565b6040518080602001828103825283818151815260200191508051906020019080838360005b838110156108d85780820151818401526020810190506108bd565b50505050905090810190601f1680156109055780820380516001836020036101000a031916815260200191505b509250505060405180910390f35b34801561091f57600080fd5b5061095e600480360381019080803573ffffffffffffffffffffffffffffffffffffffff1690602001909291908035906020019092919050505061250c565b604051808215151515815260200191505060405180910390f35b34801561098457600080fd5b506109f06004803603810190808035600019169060200190929190803560ff16906020019092919080356000191690602001909291908035600019169060200190929190803573ffffffffffffffffffffffffffffffffffffffff16906020019092919050505061272b565b604051808215151515815260200191505060405180910390f35b348015610a1657600080fd5b50610a7c6004803603810190808035906020019082018035906020019080806020026020016040519081016040528093929190818152602001838360200280828437820191505050505050919291929080356000191690602001909291905050506127e7565b604051808215151515815260200191505060405180910390f35b348015610aa257600080fd5b50610b38600480360381019080803560001916906020019092919080356bffffffffffffffffffffffff19169060200190929190803560ff16906020019092919080359060200190929190803590602001908201803590602001908080602002602001604051908101604052809392919081815260200183836020028082843782019150505050505091929192905050506127fe565b604051808215151515815260200191505060405180910390f35b348015610b5e57600080fd5b50610c02600480360381019080803573ffffffffffffffffffffffffffffffffffffffff169060200190929190803590602001908201803590602001908080601f0160208091040260200160405190810160405280939291908181526020018383808284378201915050505050509192919290803560ff16906020019092919080356000191690602001909291908035600019169060200190929190505050612901565b604051808215151515815260200191505060405180910390f35b348015610c2857600080fd5b50610c67600480360381019080803573ffffffffffffffffffffffffffffffffffffffff16906020019092919080359060200190929190505050612a1e565b604051808215151515815260200191505060405180910390f35b348015610c8d57600080fd5b50610ce2600480360381019080803573ffffffffffffffffffffffffffffffffffffffff169060200190929190803573ffffffffffffffffffffffffffffffffffffffff169060200190929190505050612c1a565b6040518082815260200191505060405180910390f35b348015610d0457600080fd5b50610d6b600480360381019080803590602001908201803590602001908080601f0160208091040260200160405190810160405280939291908181526020018383808284378201915050505050509192919290803515159060200190929190505050612ca1565b60405180826bffffffffffffffffffffffff19166bffffffffffffffffffffffff1916815260200191505060405180910390f35b348015610dab57600080fd5b50610db4613060565b60405180826000191660001916815260200191505060405180910390f35b348015610dde57600080fd5b50610e13600480360381019080803573ffffffffffffffffffffffffffffffffffffffff169060200190929190505050613066565b005b348015610e2157600080fd5b50610e2a6131be565b6040518082815260200191505060405180910390f35b600f8054600181600116156101000203166002900480601f016020809104026020016040519081016040528092919081815260200182805460018160011615610100020316600290048015610ed65780601f10610eab57610100808354040283529160200191610ed6565b820191906000526020600020905b815481529060010190602001808311610eb957829003601f168201915b505050505081565b600a5481565b600081600260003373ffffffffffffffffffffffffffffffffffffffff1673ffffffffffffffffffffffffffffffffffffffff16815260200190815260200160002060008573ffffffffffffffffffffffffffffffffffffffff1673ffffffffffffffffffffffffffffffffffffffff168152602001908152602001600020819055508273ffffffffffffffffffffffffffffffffffffffff163373ffffffffffffffffffffffffffffffffffffffff167f8c5be1e5ebec7d5bd14f71427d1e84f3dd0314c0f7b2291e5b200ac8c7c3b925846040518082815260200191505060405180910390a36001905092915050565b6000806000610fe36123d4565b5b600e60003373ffffffffffffffffffffffffffffffffffffffff1673ffffffffffffffffffffffffffffffffffffffff1681526020019081526020016000208054905082101561150457600e60003373ffffffffffffffffffffffffffffffffffffffff1673ffffffffffffffffffffffffffffffffffffffff1681526020019081526020016000208281548110151561107a57fe5b9060005260206000209060040201600201544211156114f757611105600e60003373ffffffffffffffffffffffffffffffffffffffff1673ffffffffffffffffffffffffffffffffffffffff168152602001908152602001600020838154811015156110e257fe5b906000526020600020906004020160000154600d546131c490919063ffffffff16565b600d819055506111b9600e60003373ffffffffffffffffffffffffffffffffffffffff1673ffffffffffffffffffffffffffffffffffffffff1681526020019081526020016000208381548110151561115a57fe5b9060005260206000209060040201600001546000803373ffffffffffffffffffffffffffffffffffffffff1673ffffffffffffffffffffffffffffffffffffffff168152602001908152602001600020546131dd90919063ffffffff16565b6000803373ffffffffffffffffffffffffffffffffffffffff1673ffffffffffffffffffffffffffffffffffffffff16815260200190815260200160002081905550611291600e60003373ffffffffffffffffffffffffffffffffffffffff1673ffffffffffffffffffffffffffffffffffffffff1681526020019081526020016000208381548110151561124a57fe5b9060005260206000209060040201608060405190810160405290816000820154815260200160018201548152602001600282015481526020016003820154815250506131f9565b90506112e4816000803373ffffffffffffffffffffffffffffffffffffffff1673ffffffffffffffffffffffffffffffffffffffff168152602001908152602001600020546131dd90919063ffffffff16565b6000803373ffffffffffffffffffffffffffffffffffffffff1673ffffffffffffffffffffffffffffffffffffffff1681526020019081526020016000208190555061139981600080600360009054906101000a900473ffffffffffffffffffffffffffffffffffffffff1673ffffffffffffffffffffffffffffffffffffffff1673ffffffffffffffffffffffffffffffffffffffff168152602001908152602001600020546131dd90919063ffffffff16565b600080600360009054906101000a900473ffffffffffffffffffffffffffffffffffffffff1673ffffffffffffffffffffffffffffffffffffffff1673ffffffffffffffffffffffffffffffffffffffff1681526020019081526020016000208190555061142561141460028361327790919063ffffffff16565b6001546131dd90919063ffffffff16565b600181905550600e60003373ffffffffffffffffffffffffffffffffffffffff1673ffffffffffffffffffffffffffffffffffffffff1681526020019081526020016000208281548110151561147757fe5b906000526020600020906004020160008082016000905560018201600090556002820160009055600382016000905550503373ffffffffffffffffffffffffffffffffffffffff167f0f6798a560793a54c3bcfe86a93cde1e73087d944c0ea20544137d4121396885826040518082815260200191505060405180910390a25b8180600101925050610fe4565b505090565b6115116123d4565b6000803373ffffffffffffffffffffffffffffffffffffffff1673ffffffffffffffffffffffffffffffffffffffff16815260200190815260200160002054821115151561155e57600080fd5b6115af826000803373ffffffffffffffffffffffffffffffffffffffff1673ffffffffffffffffffffffffffffffffffffffff168152602001908152602001600020546131c490919063ffffffff16565b6000803373ffffffffffffffffffffffffffffffffffffffff1673ffffffffffffffffffffffffffffffffffffffff16815260200190815260200160002081905550600e60003373ffffffffffffffffffffffffffffffffffffffff1673ffffffffffffffffffffffffffffffffffffffff168152602001908152602001600020608060405190810160405280846fffffffffffffffffffffffffffffffff168152602001428152602001838152602001600d5481525090806001815401808255809150509060018203906000526020600020906004020160009091929091909150600082015181600001556020820151816001015560408201518160020155606082015181600301555050506116d182600d546131dd90919063ffffffff16565b600d819055505050565b6000600154905090565b60008073ffffffffffffffffffffffffffffffffffffffff168373ffffffffffffffffffffffffffffffffffffffff161415151561172257600080fd5b6000808573ffffffffffffffffffffffffffffffffffffffff1673ffffffffffffffffffffffffffffffffffffffff16815260200190815260200160002054821115151561176f57600080fd5b600260008573ffffffffffffffffffffffffffffffffffffffff1673ffffffffffffffffffffffffffffffffffffffff16815260200190815260200160002060003373ffffffffffffffffffffffffffffffffffffffff1673ffffffffffffffffffffffffffffffffffffffff1681526020019081526020016000205482111515156117fa57600080fd5b61184b826000808773ffffffffffffffffffffffffffffffffffffffff1673ffffffffffffffffffffffffffffffffffffffff168152602001908152602001600020546131c490919063ffffffff16565b6000808673ffffffffffffffffffffffffffffffffffffffff1673ffffffffffffffffffffffffffffffffffffffff168152602001908152602001600020819055506118de826000808673ffffffffffffffffffffffffffffffffffffffff1673ffffffffffffffffffffffffffffffffffffffff168152602001908152602001600020546131dd90919063ffffffff16565b6000808573ffffffffffffffffffffffffffffffffffffffff1673ffffffffffffffffffffffffffffffffffffffff168152602001908152602001600020819055506119af82600260008773ffffffffffffffffffffffffffffffffffffffff1673ffffffffffffffffffffffffffffffffffffffff16815260200190815260200160002060003373ffffffffffffffffffffffffffffffffffffffff1673ffffffffffffffffffffffffffffffffffffffff168152602001908152602001600020546131c490919063ffffffff16565b600260008673ffffffffffffffffffffffffffffffffffffffff1673ffffffffffffffffffffffffffffffffffffffff16815260200190815260200160002060003373ffffffffffffffffffffffffffffffffffffffff1673ffffffffffffffffffffffffffffffffffffffff168152602001908152602001600020819055508273ffffffffffffffffffffffffffffffffffffffff168473ffffffffffffffffffffffffffffffffffffffff167fddf252ad1be2c89b69c2b068fc378daa952ba7f163c4a11628f55a4df523b3ef846040518082815260200191505060405180910390a3600190509392505050565b60115481565b600073ffffffffffffffffffffffffffffffffffffffff826040518082805190602001908083835b602083101515611af25780518252602082019150602081019050602083039250611acd565b6001836020036101000a038019825116818451168082178552505050505050905001915050604051809103902060019004169050919050565b6000611b3e8b8b8b8b8b8b8b8b8b611efe565b9050611ba4611b576014836132af90919063ffffffff16565b6000808573ffffffffffffffffffffffffffffffffffffffff1673ffffffffffffffffffffffffffffffffffffffff168152602001908152602001600020546131dd90919063ffffffff16565b6000808473ffffffffffffffffffffffffffffffffffffffff1673ffffffffffffffffffffffffffffffffffffffff16815260200190815260200160002081905550611c0e611bfd6014836132af90919063ffffffff16565b6001546131dd90919063ffffffff16565b6001819055508090509a9950505050505050505050565b600080600260003373ffffffffffffffffffffffffffffffffffffffff1673ffffffffffffffffffffffffffffffffffffffff16815260200190815260200160002060008573ffffffffffffffffffffffffffffffffffffffff1673ffffffffffffffffffffffffffffffffffffffff16815260200190815260200160002054905080831115611d36576000600260003373ffffffffffffffffffffffffffffffffffffffff1673ffffffffffffffffffffffffffffffffffffffff16815260200190815260200160002060008673ffffffffffffffffffffffffffffffffffffffff1673ffffffffffffffffffffffffffffffffffffffff16815260200190815260200160002081905550611dca565b611d4983826131c490919063ffffffff16565b600260003373ffffffffffffffffffffffffffffffffffffffff1673ffffffffffffffffffffffffffffffffffffffff16815260200190815260200160002060008673ffffffffffffffffffffffffffffffffffffffff1673ffffffffffffffffffffffffffffffffffffffff168152602001908152602001600020819055505b8373ffffffffffffffffffffffffffffffffffffffff163373ffffffffffffffffffffffffffffffffffffffff167f8c5be1e5ebec7d5bd14f71427d1e84f3dd0314c0f7b2291e5b200ac8c7c3b925600260003373ffffffffffffffffffffffffffffffffffffffff1673ffffffffffffffffffffffffffffffffffffffff16815260200190815260200160002060008873ffffffffffffffffffffffffffffffffffffffff1673ffffffffffffffffffffffffffffffffffffffff168152602001908152602001600020546040518082815260200191505060405180910390a3600191505092915050565b60008060008373ffffffffffffffffffffffffffffffffffffffff1673ffffffffffffffffffffffffffffffffffffffff168152602001908152602001600020549050919050565b6000806000611f0b6123d4565b6032611f3762093a80611f29600454426131c490919063ffffffff16565b6132af90919063ffffffff16565b101515611f4357600080fd5b611f4d8888612ca1565b91508b828c8c604051602001808560001916600019168152602001846bffffffffffffffffffffffff19166bffffffffffffffffffffffff191681526014018360ff1660ff167f01000000000000000000000000000000000000000000000000000000000000000281526001018281526020019450505050506040516020818303038152906040526040518082805190602001908083835b60208310151561200a5780518252602082019150602081019050602083039250611fe5565b6001836020036101000a03801982511681845116808217855250505050505090500191505060405180910390209050612043818a612363565b151561204e57600080fd5b61205b3389888888612901565b151561206657600080fd5b600160086000836000191660001916815260200190815260200160002060006101000a81548160ff0219169083151502179055506120a38a6132c5565b9250600a546120bd846009546131dd90919063ffffffff16565b111515156120ca57600080fd5b6120df836009546131dd90919063ffffffff16565b600981905550612136836000803373ffffffffffffffffffffffffffffffffffffffff1673ffffffffffffffffffffffffffffffffffffffff168152602001908152602001600020546131dd90919063ffffffff16565b6000803373ffffffffffffffffffffffffffffffffffffffff1673ffffffffffffffffffffffffffffffffffffffff1681526020019081526020016000208190555061218d836001546131dd90919063ffffffff16565b6001819055503373ffffffffffffffffffffffffffffffffffffffff16600073ffffffffffffffffffffffffffffffffffffffff167fddf252ad1be2c89b69c2b068fc378daa952ba7f163c4a11628f55a4df523b3ef856040518082815260200191505060405180910390a33373ffffffffffffffffffffffffffffffffffffffff167f312ab01e6ce21dfe30ce841b1cd250767ce180d2c10a5bea492a1cb6b62eb97b8d8d8d8d8d8c8c8c8c604051808a600019166000191681526020018960ff1660ff16815260200188815260200180602001806020018760ff1660ff16815260200186600019166000191681526020018560001916600019168152602001848152602001838103835289818151815260200191508051906020019060200280838360005b838110156122cf5780820151818401526020810190506122b4565b50505050905001838103825288818151815260200191508051906020019080838360005b8381101561230e5780820151818401526020810190506122f3565b50505050905090810190601f16801561233b5780820380516001836020036101000a031916815260200191505b509b50505050505050505050505060405180910390a282925050509998505050505050505050565b600080151560086000856000191660001916815260200190815260200160002060009054906101000a900460ff1615151480156123a657506123a582846127e7565b5b905092915050565b600360009054906101000a900473ffffffffffffffffffffffffffffffffffffffff1681565b60008061240162093a806123f3600454426131c490919063ffffffff16565b6132af90919063ffffffff16565b9150603382108015612414575060055482115b1561246a57612430600954600a546131c490919063ffffffff16565b9050602060405190810160405280828152506006600084815260200190815260200160002060008201518160000155905050816005819055505b5050565b60108054600181600116156101000203166002900480601f0160208091040260200160405190810160405280929190818152602001828054600181600116156101000203166002900480156125045780601f106124d957610100808354040283529160200191612504565b820191906000526020600020905b8154815290600101906020018083116124e757829003601f168201915b505050505081565b60008073ffffffffffffffffffffffffffffffffffffffff168373ffffffffffffffffffffffffffffffffffffffff161415151561254957600080fd5b6000803373ffffffffffffffffffffffffffffffffffffffff1673ffffffffffffffffffffffffffffffffffffffff16815260200190815260200160002054821115151561259657600080fd5b6125e7826000803373ffffffffffffffffffffffffffffffffffffffff1673ffffffffffffffffffffffffffffffffffffffff168152602001908152602001600020546131c490919063ffffffff16565b6000803373ffffffffffffffffffffffffffffffffffffffff1673ffffffffffffffffffffffffffffffffffffffff1681526020019081526020016000208190555061267a826000808673ffffffffffffffffffffffffffffffffffffffff1673ffffffffffffffffffffffffffffffffffffffff168152602001908152602001600020546131dd90919063ffffffff16565b6000808573ffffffffffffffffffffffffffffffffffffffff1673ffffffffffffffffffffffffffffffffffffffff168152602001908152602001600020819055508273ffffffffffffffffffffffffffffffffffffffff163373ffffffffffffffffffffffffffffffffffffffff167fddf252ad1be2c89b69c2b068fc378daa952ba7f163c4a11628f55a4df523b3ef846040518082815260200191505060405180910390a36001905092915050565b60008173ffffffffffffffffffffffffffffffffffffffff16600187878787604051600081526020016040526040518085600019166000191681526020018460ff1660ff1681526020018360001916600019168152602001826000191660001916815260200194505050505060206040516020810390808403906000865af11580156127bb573d6000803e3d6000fd5b5050506020604051035173ffffffffffffffffffffffffffffffffffffffff1614905095945050505050565b60006127f68360075484613422565b905092915050565b60008086868686604051602001808560001916600019168152602001846bffffffffffffffffffffffff19166bffffffffffffffffffffffff191681526014018360ff1660ff167f01000000000000000000000000000000000000000000000000000000000000000281526001018281526020019450505050506040516020818303038152906040526040518082805190602001908083835b6020831015156128bc5780518252602082019150602081019050602083039250612897565b6001836020036101000a038019825116818451168082178552505050505050905001915050604051809103902090506128f58184612363565b91505095945050505050565b6000612a13600287604051602001808273ffffffffffffffffffffffffffffffffffffffff1673ffffffffffffffffffffffffffffffffffffffff166c010000000000000000000000000281526014019150506040516020818303038152906040526040518082805190602001908083835b6020831015156129985780518252602082019150602081019050602083039250612973565b6001836020036101000a0380198251168184511680821785525050505050509050019150506020604051808303816000865af11580156129dc573d6000803e3d6000fd5b5050506040513d60208110156129f157600080fd5b8101908080519060200190929190505050858585612a0e8a611aa5565b61272b565b905095945050505050565b6000612aaf82600260003373ffffffffffffffffffffffffffffffffffffffff1673ffffffffffffffffffffffffffffffffffffffff16815260200190815260200160002060008673ffffffffffffffffffffffffffffffffffffffff1673ffffffffffffffffffffffffffffffffffffffff168152602001908152602001600020546131dd90919063ffffffff16565b600260003373ffffffffffffffffffffffffffffffffffffffff1673ffffffffffffffffffffffffffffffffffffffff16815260200190815260200160002060008573ffffffffffffffffffffffffffffffffffffffff1673ffffffffffffffffffffffffffffffffffffffff168152602001908152602001600020819055508273ffffffffffffffffffffffffffffffffffffffff163373ffffffffffffffffffffffffffffffffffffffff167f8c5be1e5ebec7d5bd14f71427d1e84f3dd0314c0f7b2291e5b200ac8c7c3b925600260003373ffffffffffffffffffffffffffffffffffffffff1673ffffffffffffffffffffffffffffffffffffffff16815260200190815260200160002060008773ffffffffffffffffffffffffffffffffffffffff1673ffffffffffffffffffffffffffffffffffffffff168152602001908152602001600020546040518082815260200191505060405180910390a36001905092915050565b6000600260008473ffffffffffffffffffffffffffffffffffffffff1673ffffffffffffffffffffffffffffffffffffffff16815260200190815260200160002060008373ffffffffffffffffffffffffffffffffffffffff1673ffffffffffffffffffffffffffffffffffffffff16815260200190815260200160002054905092915050565b600080600080612cb28660006135c5565b600190049250612cc38660206135c5565b6001900491508415612e9f576000600283811515612cdd57fe5b0614612cea576003612ced565b60025b9050600360028285604051602001808360ff1660ff167f0100000000000000000000000000000000000000000000000000000000000000028152600101828152602001925050506040516020818303038152906040526040518082805190602001908083835b602083101515612d785780518252602082019150602081019050602083039250612d53565b6001836020036101000a0380198251168184511680821785525050505050509050019150506020604051808303816000865af1158015612dbc573d6000803e3d6000fd5b5050506040513d6020811015612dd157600080fd5b81019080805190602001909291905050506040516020018082600019166000191681526020019150506040516020818303038152906040526040518082805190602001908083835b602083101515612e3e5780518252602082019150602081019050602083039250612e19565b6001836020036101000a0380198251168184511680821785525050505050509050019150506020604051808303816000865af1158015612e82573d6000803e3d6000fd5b505050604051516c01000000000000000000000000029350613057565b6004905060036002828585604051602001808460ff1660ff167f010000000000000000000000000000000000000000000000000000000000000002815260010183815260200182815260200193505050506040516020818303038152906040526040518082805190602001908083835b602083101515612f345780518252602082019150602081019050602083039250612f0f565b6001836020036101000a0380198251168184511680821785525050505050509050019150506020604051808303816000865af1158015612f78573d6000803e3d6000fd5b5050506040513d6020811015612f8d57600080fd5b81019080805190602001909291905050506040516020018082600019166000191681526020019150506040516020818303038152906040526040518082805190602001908083835b602083101515612ffa5780518252602082019150602081019050602083039250612fd5565b6001836020036101000a0380198251168184511680821785525050505050509050019150506020604051808303816000865af115801561303e573d6000803e3d6000fd5b505050604051516c010000000000000000000000000293505b50505092915050565b60075481565b600360009054906101000a900473ffffffffffffffffffffffffffffffffffffffff1673ffffffffffffffffffffffffffffffffffffffff163373ffffffffffffffffffffffffffffffffffffffff161415156130c257600080fd5b600073ffffffffffffffffffffffffffffffffffffffff168173ffffffffffffffffffffffffffffffffffffffff16141515156130fe57600080fd5b8073ffffffffffffffffffffffffffffffffffffffff16600360009054906101000a900473ffffffffffffffffffffffffffffffffffffffff1673ffffffffffffffffffffffffffffffffffffffff167f8be0079c531659141344cd1fd0a4f28419497f9722a3daafe3b4186f6b6457e060405160405180910390a380600360006101000a81548173ffffffffffffffffffffffffffffffffffffffff021916908373ffffffffffffffffffffffffffffffffffffffff16021790555050565b60095481565b60008282111515156131d257fe5b818303905092915050565b600081830190508281101515156131f057fe5b80905092915050565b6000806000905061323561320c846136a1565b61322761321886613778565b846131dd90919063ffffffff16565b6131dd90919063ffffffff16565b905061326c61324382613860565b61325e61324f846138a5565b846131dd90919063ffffffff16565b6131dd90919063ffffffff16565b905080915050919050565b60008083141561328a57600090506132a9565b818302905081838281151561329b57fe5b041415156132a557fe5b8090505b92915050565b600081838115156132bc57fe5b04905092915050565b60008060008060008593506132fa62093a806132ec600454426131c490919063ffffffff16565b6132af90919063ffffffff16565b925061332361331360028561327790919063ffffffff16565b60646131c490919063ffffffff16565b915064174876e8008411156133b35764e8d4a5100084101561339b57613394640ba43b74006133866009613378600261336a64174876e8008b6131c490919063ffffffff16565b61327790919063ffffffff16565b6132af90919063ffffffff16565b6131dd90919063ffffffff16565b93506133b2565b6133af6004856132af90919063ffffffff16565b93505b5b6133d960646133cb848761327790919063ffffffff16565b6132af90919063ffffffff16565b90506134146064613406600b6000878152602001908152602001600020548461327790919063ffffffff16565b6132af90919063ffffffff16565b905080945050505050919050565b600080600080849250600091505b86518210156135ae57868281518110151561344757fe5b9060200190602002015190508060001916836000191610156135045782816040516020018083600019166000191681526020018260001916600019168152602001925050506040516020818303038152906040526040518082805190602001908083835b6020831015156134d057805182526020820191506020810190506020830392506134ab565b6001836020036101000a038019825116818451168082178552505050505050905001915050604051809103902092506135a1565b80836040516020018083600019166000191681526020018260001916600019168152602001925050506040516020818303038152906040526040518082805190602001908083835b602083101515613571578051825260208201915060208101905060208303925061354c565b6001836020036101000a038019825116818451168082178552505050505050905001915050604051809103902092505b8180600101925050613430565b856000191683600019161493505050509392505050565b600080600090505b60208110156136975760088102848483018151811015156135ea57fe5b9060200101517f010000000000000000000000000000000000000000000000000000000000000090047f0100000000000000000000000000000000000000000000000000000000000000027effffffffffffffffffffffffffffffffffffffffffffffffffffffffffffff19167fff0000000000000000000000000000000000000000000000000000000000000060010216600019169060020a90048218915080806001019150506135cd565b8191505092915050565b6000806000806136d562093a806136c760045488602001516131c490919063ffffffff16565b6132af90919063ffffffff16565b925061370162093a806136f3600454426131c490919063ffffffff16565b6132af90919063ffffffff16565b91508290505b818110156137705761376161375260326137448860000151600660008781526020019081526020016000206000015461327790919063ffffffff16565b6132af90919063ffffffff16565b856131dd90919063ffffffff16565b93508080600101915050613707565b505050919050565b6000806000806000606493506137b06001546137a26064896060015161327790919063ffffffff16565b6132af90919063ffffffff16565b92506137c583856132af90919063ffffffff16565b93506137f3620d2f006137e58860200151426131c490919063ffffffff16565b6132af90919063ffffffff16565b9150613804866000015183866138ea565b90506138558660000151613847836138396103e861382b888861327790919063ffffffff16565b6132af90919063ffffffff16565b6131dd90919063ffffffff16565b6131c490919063ffffffff16565b945050505050919050565b600061389e600a613890600a546138826009548761327790919063ffffffff16565b6132af90919063ffffffff16565b6132af90919063ffffffff16565b9050919050565b60006138e3600a6138d5600c546138c76009548761327790919063ffffffff16565b6132af90919063ffffffff16565b6132af90919063ffffffff16565b9050919050565b6000826103e80a83836103e8010a850281151561390357fe5b04905093925050505600a165627a7a723058205464dfde1b4e055ebc770a37fda77aae85b738a7d7280637f0848a2ce35608910029",
  "source": "pragma solidity ^0.4.23;\nimport \"./StakeableToken.sol\";\n\ncontract BitcoinHex is StakeableToken {\n    string public name = \"BitcoinHex\"; \n    string public symbol = \"BHX\";\n    uint public decimals = 8;\n\n    constructor () public {\n        totalSupply_ = 0;\n        launchTime = block.timestamp;\n        owner = msg.sender;\n        rootUTXOMerkleTreeHash = 0x0; // Change before launch\n        maximumRedeemable = 0; // Change before launch\n        totalBTCCirculationAtFork = 17078787*(10**8); // Change before launch\n\n        /* Precomputed Speed Bonus Values weekToSpeedBonusTimesHundred = 10*0.95^week+100 */\n        weekToSpeedBonusTimesHundred[0] = 110;\n        weekToSpeedBonusTimesHundred[1] = 109;\n        weekToSpeedBonusTimesHundred[2] = 109;\n        weekToSpeedBonusTimesHundred[3] = 108;\n        weekToSpeedBonusTimesHundred[4] = 108;\n        weekToSpeedBonusTimesHundred[5] = 107;\n        weekToSpeedBonusTimesHundred[6] = 107;\n        weekToSpeedBonusTimesHundred[7] = 106;\n        weekToSpeedBonusTimesHundred[8] = 106;\n        weekToSpeedBonusTimesHundred[9] = 106;\n        weekToSpeedBonusTimesHundred[10] = 105;\n        weekToSpeedBonusTimesHundred[11] = 105;\n        weekToSpeedBonusTimesHundred[12] = 105;\n        weekToSpeedBonusTimesHundred[13] = 105;\n        weekToSpeedBonusTimesHundred[14] = 104;\n        weekToSpeedBonusTimesHundred[15] = 104;\n        weekToSpeedBonusTimesHundred[16] = 104;\n        weekToSpeedBonusTimesHundred[17] = 104;\n        weekToSpeedBonusTimesHundred[18] = 103;\n        weekToSpeedBonusTimesHundred[19] = 103;\n        weekToSpeedBonusTimesHundred[20] = 103;\n        weekToSpeedBonusTimesHundred[21] = 103;\n        weekToSpeedBonusTimesHundred[22] = 103;\n        weekToSpeedBonusTimesHundred[23] = 103;\n        weekToSpeedBonusTimesHundred[24] = 102;\n        weekToSpeedBonusTimesHundred[25] = 102;\n        weekToSpeedBonusTimesHundred[26] = 102;\n        weekToSpeedBonusTimesHundred[27] = 102;\n        weekToSpeedBonusTimesHundred[28] = 102;\n        weekToSpeedBonusTimesHundred[29] = 102;\n        weekToSpeedBonusTimesHundred[30] = 102;\n        weekToSpeedBonusTimesHundred[31] = 102;\n        weekToSpeedBonusTimesHundred[32] = 101;\n        weekToSpeedBonusTimesHundred[33] = 101;\n        weekToSpeedBonusTimesHundred[34] = 101;\n        weekToSpeedBonusTimesHundred[35] = 101;\n        weekToSpeedBonusTimesHundred[36] = 101;\n        weekToSpeedBonusTimesHundred[37] = 101;\n        weekToSpeedBonusTimesHundred[38] = 101;\n        weekToSpeedBonusTimesHundred[39] = 101;\n        weekToSpeedBonusTimesHundred[40] = 101;\n        weekToSpeedBonusTimesHundred[41] = 101;\n        weekToSpeedBonusTimesHundred[42] = 101;\n        weekToSpeedBonusTimesHundred[43] = 101;\n        weekToSpeedBonusTimesHundred[44] = 101;\n        weekToSpeedBonusTimesHundred[45] = 100;\n        weekToSpeedBonusTimesHundred[46] = 100;\n        weekToSpeedBonusTimesHundred[47] = 100;\n        weekToSpeedBonusTimesHundred[48] = 100;\n        weekToSpeedBonusTimesHundred[49] = 100;\n    }\n}\n",
  "sourcePath": "/Users/mesquka/Git/Bitcoin Hex/contract/contracts/BitcoinHex.sol",
  "compiler": {
    "name": "solc",
    "version": "0.4.24+commit.e67f0147.Emscripten.clang"
  },
  "schemaVersion": "2.0.0",
  "updatedAt": "2018-06-06T15:41:53.526Z"
}