{
  "contractName": "BitcoinHex",
  "abi": [
    {
      "constant": true,
      "inputs": [],
      "name": "name",
      "outputs": [
        {
          "name": "",
          "type": "string"
        }
      ],
      "payable": false,
      "stateMutability": "view",
      "type": "function"
    },
    {
      "constant": true,
      "inputs": [
        {
          "name": "_hash",
          "type": "bytes32"
        },
        {
          "name": "_v",
          "type": "uint8"
        },
        {
          "name": "_r",
          "type": "bytes32"
        },
        {
          "name": "_s",
          "type": "bytes32"
        },
        {
          "name": "_expected",
          "type": "address"
        },
        {
          "name": "_addPrefix",
          "type": "bool"
        }
      ],
      "name": "validateSignature",
      "outputs": [
        {
          "name": "",
          "type": "bool"
        }
      ],
      "payable": false,
      "stateMutability": "pure",
      "type": "function"
    },
    {
      "constant": true,
      "inputs": [],
      "name": "maximumRedeemable",
      "outputs": [
        {
          "name": "",
          "type": "uint256"
        }
      ],
      "payable": false,
      "stateMutability": "view",
      "type": "function"
    },
    {
      "constant": false,
      "inputs": [
        {
          "name": "_spender",
          "type": "address"
        },
        {
          "name": "_value",
          "type": "uint256"
        }
      ],
      "name": "approve",
      "outputs": [
        {
          "name": "",
          "type": "bool"
        }
      ],
      "payable": false,
      "stateMutability": "nonpayable",
      "type": "function"
    },
    {
      "constant": false,
      "inputs": [],
      "name": "storeWeeklyUnclaimedCoins",
      "outputs": [],
      "payable": false,
      "stateMutability": "nonpayable",
      "type": "function"
    },
    {
      "constant": false,
      "inputs": [
        {
          "name": "_value",
          "type": "uint256"
        },
        {
          "name": "_stakePeriods",
          "type": "uint256"
        }
      ],
      "name": "startStake",
      "outputs": [
        {
          "name": "",
          "type": "bool"
        }
      ],
      "payable": false,
      "stateMutability": "nonpayable",
      "type": "function"
    },
    {
      "constant": true,
      "inputs": [],
      "name": "interestRatePercent",
      "outputs": [
        {
          "name": "",
          "type": "uint256"
        }
      ],
      "payable": false,
      "stateMutability": "view",
      "type": "function"
    },
    {
      "constant": true,
      "inputs": [],
      "name": "totalStakedCoins",
      "outputs": [
        {
          "name": "",
          "type": "uint256"
        }
      ],
      "payable": false,
      "stateMutability": "view",
      "type": "function"
    },
    {
      "constant": true,
      "inputs": [],
      "name": "totalSupply",
      "outputs": [
        {
          "name": "",
          "type": "uint256"
        }
      ],
      "payable": false,
      "stateMutability": "view",
      "type": "function"
    },
    {
      "constant": true,
      "inputs": [
        {
          "name": "_stakePayout",
          "type": "uint256"
        }
      ],
      "name": "calculateViralRewards",
      "outputs": [
        {
          "name": "",
          "type": "uint256"
        }
      ],
      "payable": false,
      "stateMutability": "view",
      "type": "function"
    },
    {
      "constant": false,
      "inputs": [
        {
          "name": "_from",
          "type": "address"
        },
        {
          "name": "_to",
          "type": "address"
        },
        {
          "name": "_value",
          "type": "uint256"
        }
      ],
      "name": "transferFrom",
      "outputs": [
        {
          "name": "",
          "type": "bool"
        }
      ],
      "payable": false,
      "stateMutability": "nonpayable",
      "type": "function"
    },
    {
      "constant": true,
      "inputs": [],
      "name": "getCirculatingSupply",
      "outputs": [
        {
          "name": "",
          "type": "uint256"
        }
      ],
      "payable": false,
      "stateMutability": "view",
      "type": "function"
    },
    {
      "constant": true,
      "inputs": [
        {
          "name": "_satoshis",
          "type": "uint256"
        }
      ],
      "name": "getRedeemAmount",
      "outputs": [
        {
          "name": "",
          "type": "uint256"
        },
        {
          "name": "",
          "type": "uint256"
        }
      ],
      "payable": false,
      "stateMutability": "view",
      "type": "function"
    },
    {
      "constant": true,
      "inputs": [],
      "name": "isDuringBonusPeriod",
      "outputs": [
        {
          "name": "",
          "type": "bool"
        }
      ],
      "payable": false,
      "stateMutability": "view",
      "type": "function"
    },
    {
      "constant": true,
      "inputs": [
        {
          "name": "",
          "type": "uint256"
        }
      ],
      "name": "unclaimedCoinsByWeek",
      "outputs": [
        {
          "name": "unclaimedCoins",
          "type": "uint256"
        },
        {
          "name": "totalStaked",
          "type": "uint256"
        }
      ],
      "payable": false,
      "stateMutability": "view",
      "type": "function"
    },
    {
      "constant": true,
      "inputs": [],
      "name": "decimals",
      "outputs": [
        {
          "name": "",
          "type": "uint256"
        }
      ],
      "payable": false,
      "stateMutability": "view",
      "type": "function"
    },
    {
      "constant": true,
      "inputs": [],
      "name": "oneInterestPeriodInSeconds",
      "outputs": [
        {
          "name": "",
          "type": "uint256"
        }
      ],
      "payable": false,
      "stateMutability": "view",
      "type": "function"
    },
    {
      "constant": true,
      "inputs": [],
      "name": "redeemedCount",
      "outputs": [
        {
          "name": "",
          "type": "uint256"
        }
      ],
      "payable": false,
      "stateMutability": "view",
      "type": "function"
    },
    {
      "constant": true,
      "inputs": [
        {
          "name": "_pubKey",
          "type": "bytes"
        }
      ],
      "name": "pubKeyToEthereumAddress",
      "outputs": [
        {
          "name": "",
          "type": "address"
        }
      ],
      "payable": false,
      "stateMutability": "pure",
      "type": "function"
    },
    {
      "constant": true,
      "inputs": [],
      "name": "maxStakingTimeInSeconds",
      "outputs": [
        {
          "name": "",
          "type": "uint256"
        }
      ],
      "payable": false,
      "stateMutability": "view",
      "type": "function"
    },
    {
      "constant": false,
      "inputs": [
        {
          "name": "_spender",
          "type": "address"
        },
        {
          "name": "_subtractedValue",
          "type": "uint256"
        }
      ],
      "name": "decreaseApproval",
      "outputs": [
        {
          "name": "",
          "type": "bool"
        }
      ],
      "payable": false,
      "stateMutability": "nonpayable",
      "type": "function"
    },
    {
      "constant": true,
      "inputs": [
        {
          "name": "",
          "type": "bytes32"
        }
      ],
      "name": "redeemedUTXOs",
      "outputs": [
        {
          "name": "",
          "type": "bool"
        }
      ],
      "payable": false,
      "stateMutability": "view",
      "type": "function"
    },
    {
      "constant": true,
      "inputs": [],
      "name": "rootUtxoMerkleTreeHash",
      "outputs": [
        {
          "name": "",
          "type": "bytes32"
        }
      ],
      "payable": false,
      "stateMutability": "view",
      "type": "function"
    },
    {
      "constant": true,
      "inputs": [
        {
          "name": "_owner",
          "type": "address"
        }
      ],
      "name": "balanceOf",
      "outputs": [
        {
          "name": "",
          "type": "uint256"
        }
      ],
      "payable": false,
      "stateMutability": "view",
      "type": "function"
    },
    {
      "constant": false,
      "inputs": [
        {
          "name": "_satoshis",
          "type": "uint256"
        },
        {
          "name": "_proof",
          "type": "bytes32[]"
        },
        {
          "name": "_pubKey",
          "type": "bytes"
        },
        {
          "name": "_isCompressed",
          "type": "bool"
        },
        {
          "name": "_v",
          "type": "uint8"
        },
        {
          "name": "_r",
          "type": "bytes32"
        },
        {
          "name": "_s",
          "type": "bytes32"
        }
      ],
      "name": "redeemUtxo",
      "outputs": [
        {
          "name": "",
          "type": "uint256"
        }
      ],
      "payable": false,
      "stateMutability": "nonpayable",
      "type": "function"
    },
    {
      "constant": false,
      "inputs": [
        {
          "name": "_staker",
          "type": "address"
        }
      ],
      "name": "claimAllStakingRewards",
      "outputs": [
        {
          "name": "",
          "type": "bool"
        }
      ],
      "payable": false,
      "stateMutability": "nonpayable",
      "type": "function"
    },
    {
      "constant": true,
      "inputs": [],
      "name": "launchTime",
      "outputs": [
        {
          "name": "",
          "type": "uint256"
        }
      ],
      "payable": false,
      "stateMutability": "view",
      "type": "function"
    },
    {
      "constant": false,
      "inputs": [
        {
          "name": "_staker",
          "type": "address"
        },
        {
          "name": "_stakeIndex",
          "type": "uint256"
        }
      ],
      "name": "claimSingleStakingReward",
      "outputs": [
        {
          "name": "",
          "type": "bool"
        }
      ],
      "payable": false,
      "stateMutability": "nonpayable",
      "type": "function"
    },
    {
      "constant": true,
      "inputs": [
        {
          "name": "_merkleLeafHash",
          "type": "bytes32"
        },
        {
          "name": "_proof",
          "type": "bytes32[]"
        }
      ],
      "name": "canRedeemUtxoHash",
      "outputs": [
        {
          "name": "",
          "type": "bool"
        }
      ],
      "payable": false,
      "stateMutability": "view",
      "type": "function"
    },
    {
      "constant": true,
      "inputs": [
        {
          "name": "_staker",
          "type": "address"
        }
      ],
      "name": "getUserStakes",
      "outputs": [
        {
          "name": "",
          "type": "uint256[]"
        },
        {
          "name": "",
          "type": "uint256[]"
        },
        {
          "name": "",
          "type": "uint256[]"
        },
        {
          "name": "",
          "type": "uint256[]"
        }
      ],
      "payable": false,
      "stateMutability": "view",
      "type": "function"
    },
    {
      "constant": true,
      "inputs": [
        {
          "name": "",
          "type": "address"
        },
        {
          "name": "",
          "type": "uint256"
        }
      ],
      "name": "staked",
      "outputs": [
        {
          "name": "stakeAmount",
          "type": "uint256"
        },
        {
          "name": "stakeTime",
          "type": "uint256"
        },
        {
          "name": "unlockTime",
          "type": "uint256"
        },
        {
          "name": "totalStakedCoinsAtStart",
          "type": "uint256"
        },
        {
          "name": "maxOfTotalSupplyVSMaxRedeemableAtStart",
          "type": "uint256"
        }
      ],
      "payable": false,
      "stateMutability": "view",
      "type": "function"
    },
    {
      "constant": true,
      "inputs": [],
      "name": "origin",
      "outputs": [
        {
          "name": "",
          "type": "address"
        }
      ],
      "payable": false,
      "stateMutability": "view",
      "type": "function"
    },
    {
      "constant": true,
      "inputs": [],
      "name": "getWeeksSinceLaunch",
      "outputs": [
        {
          "name": "",
          "type": "uint256"
        }
      ],
      "payable": false,
      "stateMutability": "view",
      "type": "function"
    },
    {
      "constant": true,
      "inputs": [],
      "name": "symbol",
      "outputs": [
        {
          "name": "",
          "type": "string"
        }
      ],
      "payable": false,
      "stateMutability": "view",
      "type": "function"
    },
    {
      "constant": true,
      "inputs": [],
      "name": "lastUpdatedWeek",
      "outputs": [
        {
          "name": "",
          "type": "uint256"
        }
      ],
      "payable": false,
      "stateMutability": "view",
      "type": "function"
    },
    {
      "constant": false,
      "inputs": [
        {
          "name": "_to",
          "type": "address"
        },
        {
          "name": "_value",
          "type": "uint256"
        }
      ],
      "name": "transfer",
      "outputs": [
        {
          "name": "",
          "type": "bool"
        }
      ],
      "payable": false,
      "stateMutability": "nonpayable",
      "type": "function"
    },
    {
      "constant": false,
      "inputs": [
        {
          "name": "_satoshis",
          "type": "uint256"
        },
        {
          "name": "_proof",
          "type": "bytes32[]"
        },
        {
          "name": "_pubKey",
          "type": "bytes"
        },
        {
          "name": "_isCompressed",
          "type": "bool"
        },
        {
          "name": "_v",
          "type": "uint8"
        },
        {
          "name": "_r",
          "type": "bytes32"
        },
        {
          "name": "_s",
          "type": "bytes32"
        },
        {
          "name": "_referrer",
          "type": "address"
        }
      ],
      "name": "redeemReferredUtxo",
      "outputs": [
        {
          "name": "_tokensRedeemed",
          "type": "uint256"
        }
      ],
      "payable": false,
      "stateMutability": "nonpayable",
      "type": "function"
    },
    {
      "constant": true,
      "inputs": [
        {
          "name": "_staker",
          "type": "address"
        },
        {
          "name": "_startIndex",
          "type": "uint256"
        },
        {
          "name": "_endIndex",
          "type": "uint256"
        }
      ],
      "name": "getStakedAtIndexes",
      "outputs": [
        {
          "name": "",
          "type": "uint256"
        }
      ],
      "payable": false,
      "stateMutability": "view",
      "type": "function"
    },
    {
      "constant": true,
      "inputs": [
        {
          "name": "_proof",
          "type": "bytes32[]"
        },
        {
          "name": "_merkleLeafHash",
          "type": "bytes32"
        }
      ],
      "name": "verifyProof",
      "outputs": [
        {
          "name": "",
          "type": "bool"
        }
      ],
      "payable": false,
      "stateMutability": "view",
      "type": "function"
    },
    {
      "constant": true,
      "inputs": [
        {
          "name": "_staker",
          "type": "address"
        }
      ],
      "name": "getTotalUserStaked",
      "outputs": [
        {
          "name": "",
          "type": "uint256"
        }
      ],
      "payable": false,
      "stateMutability": "view",
      "type": "function"
    },
    {
      "constant": false,
      "inputs": [
        {
          "name": "_staker",
          "type": "address"
        },
        {
          "name": "_startIndex",
          "type": "uint256"
        },
        {
          "name": "_endIndex",
          "type": "uint256"
        }
      ],
      "name": "claimMultipleStakingRewards",
      "outputs": [
        {
          "name": "",
          "type": "bool"
        }
      ],
      "payable": false,
      "stateMutability": "nonpayable",
      "type": "function"
    },
    {
      "constant": true,
      "inputs": [
        {
          "name": "_addr",
          "type": "address"
        },
        {
          "name": "_pubKey",
          "type": "bytes"
        },
        {
          "name": "_v",
          "type": "uint8"
        },
        {
          "name": "_r",
          "type": "bytes32"
        },
        {
          "name": "_s",
          "type": "bytes32"
        }
      ],
      "name": "ecdsaVerify",
      "outputs": [
        {
          "name": "",
          "type": "bool"
        }
      ],
      "payable": false,
      "stateMutability": "pure",
      "type": "function"
    },
    {
      "constant": true,
      "inputs": [
        {
          "name": "_originalAddress",
          "type": "bytes20"
        },
        {
          "name": "_satoshis",
          "type": "uint256"
        },
        {
          "name": "_proof",
          "type": "bytes32[]"
        }
      ],
      "name": "canRedeemUtxo",
      "outputs": [
        {
          "name": "",
          "type": "bool"
        }
      ],
      "payable": false,
      "stateMutability": "view",
      "type": "function"
    },
    {
      "constant": false,
      "inputs": [
        {
          "name": "_spender",
          "type": "address"
        },
        {
          "name": "_addedValue",
          "type": "uint256"
        }
      ],
      "name": "increaseApproval",
      "outputs": [
        {
          "name": "",
          "type": "bool"
        }
      ],
      "payable": false,
      "stateMutability": "nonpayable",
      "type": "function"
    },
    {
      "constant": true,
      "inputs": [
        {
          "name": "_owner",
          "type": "address"
        },
        {
          "name": "_spender",
          "type": "address"
        }
      ],
      "name": "allowance",
      "outputs": [
        {
          "name": "",
          "type": "uint256"
        }
      ],
      "payable": false,
      "stateMutability": "view",
      "type": "function"
    },
    {
      "constant": true,
      "inputs": [
        {
          "name": "_pubKey",
          "type": "bytes"
        },
        {
          "name": "_isCompressed",
          "type": "bool"
        }
      ],
      "name": "pubKeyToBitcoinAddress",
      "outputs": [
        {
          "name": "",
          "type": "bytes20"
        }
      ],
      "payable": false,
      "stateMutability": "pure",
      "type": "function"
    },
    {
      "constant": true,
      "inputs": [
        {
          "name": "_stakePayout",
          "type": "uint256"
        }
      ],
      "name": "calculateCritMassRewards",
      "outputs": [
        {
          "name": "",
          "type": "uint256"
        }
      ],
      "payable": false,
      "stateMutability": "view",
      "type": "function"
    },
    {
      "constant": true,
      "inputs": [
        {
          "name": "_staker",
          "type": "address"
        },
        {
          "name": "_stakeIndex",
          "type": "uint256"
        }
      ],
      "name": "calculateSingleStakePlusRewards",
      "outputs": [
        {
          "name": "",
          "type": "uint256"
        }
      ],
      "payable": false,
      "stateMutability": "view",
      "type": "function"
    },
    {
      "constant": true,
      "inputs": [
        {
          "name": "_stakeAmount",
          "type": "uint256"
        },
        {
          "name": "_stakeTime",
          "type": "uint256"
        },
        {
          "name": "_unlockTime",
          "type": "uint256"
        }
      ],
      "name": "calculateWeAreAllSatoshiRewards",
      "outputs": [
        {
          "name": "",
          "type": "uint256"
        }
      ],
      "payable": false,
      "stateMutability": "view",
      "type": "function"
    },
    {
      "constant": true,
      "inputs": [
        {
          "name": "_staker",
          "type": "address"
        },
        {
          "name": "_stakeIndex",
          "type": "uint256"
        },
        {
          "name": "_stakePayout",
          "type": "uint256"
        }
      ],
      "name": "calculateAdditionalRewards",
      "outputs": [
        {
          "name": "",
          "type": "uint256"
        }
      ],
      "payable": false,
      "stateMutability": "view",
      "type": "function"
    },
    {
      "constant": true,
      "inputs": [],
      "name": "totalRedeemed",
      "outputs": [
        {
          "name": "",
          "type": "uint256"
        }
      ],
      "payable": false,
      "stateMutability": "view",
      "type": "function"
    },
    {
      "constant": true,
      "inputs": [
        {
          "name": "_principle",
          "type": "uint256"
        },
        {
          "name": "_periods",
          "type": "uint256"
        },
        {
          "name": "_rate",
          "type": "uint256"
        }
      ],
      "name": "compound",
      "outputs": [
        {
          "name": "",
          "type": "uint256"
        }
      ],
      "payable": false,
      "stateMutability": "pure",
      "type": "function"
    },
    {
      "constant": true,
      "inputs": [
        {
          "name": "_staker",
          "type": "address"
        },
        {
          "name": "_stakeIndex",
          "type": "uint256"
        }
      ],
      "name": "calculateStakingRewards",
      "outputs": [
        {
          "name": "",
          "type": "uint256"
        }
      ],
      "payable": false,
      "stateMutability": "view",
      "type": "function"
    },
    {
      "inputs": [
        {
          "name": "_originAddress",
          "type": "address"
        },
        {
          "name": "_rootUtxoMerkleTreeHash",
          "type": "bytes32"
        },
        {
          "name": "_maximumRedeemable",
          "type": "uint256"
        },
        {
          "name": "_UTXOCountAtFork",
          "type": "uint256"
        }
      ],
      "payable": false,
      "stateMutability": "nonpayable",
      "type": "constructor"
    },
    {
      "anonymous": false,
      "inputs": [
        {
          "indexed": true,
          "name": "_address",
          "type": "address"
        },
        {
          "indexed": false,
          "name": "_reward",
          "type": "uint256"
        }
      ],
      "name": "Mint",
      "type": "event"
    },
    {
      "anonymous": false,
      "inputs": [
        {
          "indexed": true,
          "name": "owner",
          "type": "address"
        },
        {
          "indexed": true,
          "name": "spender",
          "type": "address"
        },
        {
          "indexed": false,
          "name": "value",
          "type": "uint256"
        }
      ],
      "name": "Approval",
      "type": "event"
    },
    {
      "anonymous": false,
      "inputs": [
        {
          "indexed": true,
          "name": "from",
          "type": "address"
        },
        {
          "indexed": true,
          "name": "to",
          "type": "address"
        },
        {
          "indexed": false,
          "name": "value",
          "type": "uint256"
        }
      ],
      "name": "Transfer",
      "type": "event"
    }
  ],
  "bytecode": "0x6080604052600060075560006008556040805190810160405280600a81526020017f426974636f696e48657800000000000000000000000000000000000000000000815250601090805190602001906200005b92919062000168565b506040805190810160405280600381526020017f424858000000000000000000000000000000000000000000000000000000000081525060119080519060200190620000a992919062000168565b5060128055348015620000bb57600080fd5b506040516080806200568a833981018060405281019080805190602001909291908051906020019092919080519060200190929190805190602001909291905050504260048190555083600360006101000a81548173ffffffffffffffffffffffffffffffffffffffff021916908373ffffffffffffffffffffffffffffffffffffffff16021790555082600a81600019169055508160098190555080600d819055505050505062000217565b828054600181600116156101000203166002900490600052602060002090601f016020900481019282601f10620001ab57805160ff1916838001178555620001dc565b82800160010185558215620001dc579182015b82811115620001db578251825591602001919060010190620001be565b5b509050620001eb9190620001ef565b5090565b6200021491905b8082111562000210576000816000905550600101620001f6565b5090565b90565b61546380620002276000396000f30060806040526004361061027d576000357c0100000000000000000000000000000000000000000000000000000000900463ffffffff16806306fdde03146102825780630867c0ad1461031257806308b4312b146103b0578063095ea7b3146103db5780630b6f509914610440578063128bfcae1461045757806316043f5d146104a65780631765f4bf146104d157806318160ddd146104fc578063229cfc321461052757806323b872dd146105685780632b112e49146105ed5780632c3ee88c146106185780632c48d57b1461066057806330fd546e1461068f578063313ce567146106d75780634f265bf41461070257806352aa3e6c1461072d5780635418796c1461075857806365925c2b14610801578063661884631461082c578063687cf4a4146108915780636aaf67e2146108da57806370a082311461090d578063753bf8cd1461096457806375889a2b14610a63578063790ca41314610abe57806381437de814610ae957806381cd84b914610b4e578063842e298114610bda5780638f16981614610d4a578063938b5f3214610dc757806394ce28e814610e1e57806395d89b4114610e495780639d65b89214610ed9578063a9059cbb14610f04578063b1ccf19314610f69578063b242c9bf1461102f578063b80ac7df1461109a578063bac5c04814611126578063cb9c501f1461117d578063ce267b55146111ec578063cfc2334e146112b6578063d73dd62314611357578063dd62ed3e146113bc578063e073ef6914611433578063e26e7b50146114da578063e39a385a1461151b578063ebe558e91461157c578063f14bfbd0146115d1578063f35dad401461163c578063f3c85eba14611667578063f6c45d02146116bc575b600080fd5b34801561028e57600080fd5b5061029761171d565b6040518080602001828103825283818151815260200191508051906020019080838360005b838110156102d75780820151818401526020810190506102bc565b50505050905090810190601f1680156103045780820380516001836020036101000a031916815260200191505b509250505060405180910390f35b34801561031e57600080fd5b506103966004803603810190808035600019169060200190929190803560ff16906020019092919080356000191690602001909291908035600019169060200190929190803573ffffffffffffffffffffffffffffffffffffffff1690602001909291908035151590602001909291905050506117bb565b604051808215151515815260200191505060405180910390f35b3480156103bc57600080fd5b506103c56119a6565b6040518082815260200191505060405180910390f35b3480156103e757600080fd5b50610426600480360381019080803573ffffffffffffffffffffffffffffffffffffffff169060200190929190803590602001909291905050506119ac565b604051808215151515815260200191505060405180910390f35b34801561044c57600080fd5b50610455611a9e565b005b34801561046357600080fd5b5061048c6004803603810190808035906020019092919080359060200190929190505050611c37565b604051808215151515815260200191505060405180910390f35b3480156104b257600080fd5b506104bb611fb5565b6040518082815260200191505060405180910390f35b3480156104dd57600080fd5b506104e6611fba565b6040518082815260200191505060405180910390f35b34801561050857600080fd5b50610511611fc0565b6040518082815260200191505060405180910390f35b34801561053357600080fd5b5061055260048036038101908080359060200190929190505050611fca565b6040518082815260200191505060405180910390f35b34801561057457600080fd5b506105d3600480360381019080803573ffffffffffffffffffffffffffffffffffffffff169060200190929190803573ffffffffffffffffffffffffffffffffffffffff1690602001909291908035906020019092919050505061200f565b604051808215151515815260200191505060405180910390f35b3480156105f957600080fd5b506106026123c9565b6040518082815260200191505060405180910390f35b34801561062457600080fd5b50610643600480360381019080803590602001909291905050506123e7565b604051808381526020018281526020019250505060405180910390f35b34801561066c57600080fd5b50610675612838565b604051808215151515815260200191505060405180910390f35b34801561069b57600080fd5b506106ba6004803603810190808035906020019092919050505061284b565b604051808381526020018281526020019250505060405180910390f35b3480156106e357600080fd5b506106ec61286f565b6040518082815260200191505060405180910390f35b34801561070e57600080fd5b50610717612875565b6040518082815260200191505060405180910390f35b34801561073957600080fd5b5061074261287c565b6040518082815260200191505060405180910390f35b34801561076457600080fd5b506107bf600480360381019080803590602001908201803590602001908080601f0160208091040260200160405190810160405280939291908181526020018383808284378201915050505050509192919290505050612882565b604051808273ffffffffffffffffffffffffffffffffffffffff1673ffffffffffffffffffffffffffffffffffffffff16815260200191505060405180910390f35b34801561080d57600080fd5b50610816612908565b6040518082815260200191505060405180910390f35b34801561083857600080fd5b50610877600480360381019080803573ffffffffffffffffffffffffffffffffffffffff16906020019092919080359060200190929190505050612910565b604051808215151515815260200191505060405180910390f35b34801561089d57600080fd5b506108c06004803603810190808035600019169060200190929190505050612ba1565b604051808215151515815260200191505060405180910390f35b3480156108e657600080fd5b506108ef612bc1565b60405180826000191660001916815260200191505060405180910390f35b34801561091957600080fd5b5061094e600480360381019080803573ffffffffffffffffffffffffffffffffffffffff169060200190929190505050612bc7565b6040518082815260200191505060405180910390f35b34801561097057600080fd5b50610a4d6004803603810190808035906020019092919080359060200190820180359060200190808060200260200160405190810160405280939291908181526020018383602002808284378201915050505050509192919290803590602001908201803590602001908080601f0160208091040260200160405190810160405280939291908181526020018383808284378201915050505050509192919290803515159060200190929190803560ff16906020019092919080356000191690602001909291908035600019169060200190929190505050612c0f565b6040518082815260200191505060405180910390f35b348015610a6f57600080fd5b50610aa4600480360381019080803573ffffffffffffffffffffffffffffffffffffffff16906020019092919050505061307d565b604051808215151515815260200191505060405180910390f35b348015610aca57600080fd5b50610ad3613202565b6040518082815260200191505060405180910390f35b348015610af557600080fd5b50610b34600480360381019080803573ffffffffffffffffffffffffffffffffffffffff16906020019092919080359060200190929190505050613208565b604051808215151515815260200191505060405180910390f35b348015610b5a57600080fd5b50610bc06004803603810190808035600019169060200190929190803590602001908201803590602001908080602002602001604051908101604052809392919081815260200183836020028082843782019150505050505091929192905050506135f3565b604051808215151515815260200191505060405180910390f35b348015610be657600080fd5b50610c1b600480360381019080803573ffffffffffffffffffffffffffffffffffffffff16906020019092919050505061363e565b6040518080602001806020018060200180602001858103855289818151815260200191508051906020019060200280838360005b83811015610c6a578082015181840152602081019050610c4f565b50505050905001858103845288818151815260200191508051906020019060200280838360005b83811015610cac578082015181840152602081019050610c91565b50505050905001858103835287818151815260200191508051906020019060200280838360005b83811015610cee578082015181840152602081019050610cd3565b50505050905001858103825286818151815260200191508051906020019060200280838360005b83811015610d30578082015181840152602081019050610d15565b505050509050019850505050505050505060405180910390f35b348015610d5657600080fd5b50610d95600480360381019080803573ffffffffffffffffffffffffffffffffffffffff16906020019092919080359060200190929190505050613870565b604051808681526020018581526020018481526020018381526020018281526020019550505050505060405180910390f35b348015610dd357600080fd5b50610ddc6138c2565b604051808273ffffffffffffffffffffffffffffffffffffffff1673ffffffffffffffffffffffffffffffffffffffff16815260200191505060405180910390f35b348015610e2a57600080fd5b50610e336138e8565b6040518082815260200191505060405180910390f35b348015610e5557600080fd5b50610e5e61392a565b6040518080602001828103825283818151815260200191508051906020019080838360005b83811015610e9e578082015181840152602081019050610e83565b50505050905090810190601f168015610ecb5780820380516001836020036101000a031916815260200191505b509250505060405180910390f35b348015610ee557600080fd5b50610eee6139c8565b6040518082815260200191505060405180910390f35b348015610f1057600080fd5b50610f4f600480360381019080803573ffffffffffffffffffffffffffffffffffffffff169060200190929190803590602001909291905050506139ce565b604051808215151515815260200191505060405180910390f35b348015610f7557600080fd5b5061101960048036038101908080359060200190929190803590602001908201803590602001919091929391929390803590602001908201803590602001919091929391929390803515159060200190929190803560ff16906020019092919080356000191690602001909291908035600019169060200190929190803573ffffffffffffffffffffffffffffffffffffffff169060200190929190505050613bed565b6040518082815260200191505060405180910390f35b34801561103b57600080fd5b50611084600480360381019080803573ffffffffffffffffffffffffffffffffffffffff1690602001909291908035906020019092919080359060200190929190505050613ea7565b6040518082815260200191505060405180910390f35b3480156110a657600080fd5b5061110c600480360381019080803590602001908201803590602001908080602002602001604051908101604052809392919081815260200183836020028082843782019150505050505091929192908035600019169060200190929190505050614070565b604051808215151515815260200191505060405180910390f35b34801561113257600080fd5b50611167600480360381019080803573ffffffffffffffffffffffffffffffffffffffff169060200190929190505050614087565b6040518082815260200191505060405180910390f35b34801561118957600080fd5b506111d2600480360381019080803573ffffffffffffffffffffffffffffffffffffffff16906020019092919080359060200190929190803590602001909291905050506140e1565b604051808215151515815260200191505060405180910390f35b3480156111f857600080fd5b5061129c600480360381019080803573ffffffffffffffffffffffffffffffffffffffff169060200190929190803590602001908201803590602001908080601f0160208091040260200160405190810160405280939291908181526020018383808284378201915050505050509192919290803560ff169060200190929190803560001916906020019092919080356000191690602001909291905050506141eb565b604051808215151515815260200191505060405180910390f35b3480156112c257600080fd5b5061133d60048036038101908080356bffffffffffffffffffffffff19169060200190929190803590602001909291908035906020019082018035906020019080806020026020016040519081016040528093929190818152602001838360200280828437820191505050505050919291929050505061430a565b604051808215151515815260200191505060405180910390f35b34801561136357600080fd5b506113a2600480360381019080803573ffffffffffffffffffffffffffffffffffffffff169060200190929190803590602001909291905050506143cb565b604051808215151515815260200191505060405180910390f35b3480156113c857600080fd5b5061141d600480360381019080803573ffffffffffffffffffffffffffffffffffffffff169060200190929190803573ffffffffffffffffffffffffffffffffffffffff1690602001909291905050506145c7565b6040518082815260200191505060405180910390f35b34801561143f57600080fd5b506114a6600480360381019080803590602001908201803590602001908080601f016020809104026020016040519081016040528093929190818152602001838380828437820191505050505050919291929080351515906020019092919050505061464e565b60405180826bffffffffffffffffffffffff19166bffffffffffffffffffffffff1916815260200191505060405180910390f35b3480156114e657600080fd5b5061150560048036038101908080359060200190929190505050614a0d565b6040518082815260200191505060405180910390f35b34801561152757600080fd5b50611566600480360381019080803573ffffffffffffffffffffffffffffffffffffffff16906020019092919080359060200190929190505050614a52565b6040518082815260200191505060405180910390f35b34801561158857600080fd5b506115bb600480360381019080803590602001909291908035906020019092919080359060200190929190505050614b6a565b6040518082815260200191505060405180910390f35b3480156115dd57600080fd5b50611626600480360381019080803573ffffffffffffffffffffffffffffffffffffffff1690602001909291908035906020019092919080359060200190929190505050614cc8565b6040518082815260200191505060405180910390f35b34801561164857600080fd5b50611651614dd3565b6040518082815260200191505060405180910390f35b34801561167357600080fd5b506116a6600480360381019080803590602001909291908035906020019092919080359060200190929190505050614dd9565b6040518082815260200191505060405180910390f35b3480156116c857600080fd5b50611707600480360381019080803573ffffffffffffffffffffffffffffffffffffffff16906020019092919080359060200190929190505050614ef0565b6040518082815260200191505060405180910390f35b60108054600181600116156101000203166002900480601f0160208091040260200160405190810160405280929190818152602001828054600181600116156101000203166002900480156117b35780601f10611788576101008083540402835291602001916117b3565b820191906000526020600020905b81548152906001019060200180831161179657829003601f168201915b505050505081565b60008060608315156117cf578891506118e9565b6040805190810160405280601c81526020017f19457468657265756d205369676e6564204d6573736167653a0a333200000000815250905080896040516020018083805190602001908083835b602083101515611841578051825260208201915060208101905060208303925061181c565b6001836020036101000a0380198251168184511680821785525050505050509050018260001916600019168152602001925050506040516020818303038152906040526040518082805190602001908083835b6020831015156118b95780518252602082019150602081019050602083039250611894565b6001836020036101000a038019825116818451168082178552505050505050905001915050604051809103902091505b8473ffffffffffffffffffffffffffffffffffffffff166001838a8a8a604051600081526020016040526040518085600019166000191681526020018460ff1660ff1681526020018360001916600019168152602001826000191660001916815260200194505050505060206040516020810390808403906000865af1158015611977573d6000803e3d6000fd5b5050506020604051035173ffffffffffffffffffffffffffffffffffffffff1614925050509695505050505050565b60095481565b600081600260003373ffffffffffffffffffffffffffffffffffffffff1673ffffffffffffffffffffffffffffffffffffffff16815260200190815260200160002060008573ffffffffffffffffffffffffffffffffffffffff1673ffffffffffffffffffffffffffffffffffffffff168152602001908152602001600020819055508273ffffffffffffffffffffffffffffffffffffffff163373ffffffffffffffffffffffffffffffffffffffff167f8c5be1e5ebec7d5bd14f71427d1e84f3dd0314c0f7b2291e5b200ac8c7c3b925846040518082815260200191505060405180910390a36001905092915050565b600080611acb62093a80611abd6004544261507390919063ffffffff16565b61508c90919063ffffffff16565b91505b600554821115611c3357611aef60075460095461507390919063ffffffff16565b90506040805190810160405280828152602001600654815250600c60008481526020019081526020016000206000820151816000015560208201518160010155905050611bb8611b4960328361508c90919063ffffffff16565b600080600360009054906101000a900473ffffffffffffffffffffffffffffffffffffffff1673ffffffffffffffffffffffffffffffffffffffff1673ffffffffffffffffffffffffffffffffffffffff168152602001908152602001600020546150a290919063ffffffff16565b600080600360009054906101000a900473ffffffffffffffffffffffffffffffffffffffff1673ffffffffffffffffffffffffffffffffffffffff1673ffffffffffffffffffffffffffffffffffffffff16815260200190815260200160002081905550600560008154809291906001019190505550611ace565b5050565b600080600080339250611c68611c59620d2f00876150be90919063ffffffff16565b426150a290919063ffffffff16565b9150856000808573ffffffffffffffffffffffffffffffffffffffff1673ffffffffffffffffffffffffffffffffffffffff1681526020019081526020016000205410151515611cb757600080fd5b611cce6312cc0300426150a290919063ffffffff16565b8211151515611cdc57600080fd5b611cf2620d2f00426150a290919063ffffffff16565b8210151515611d0057600080fd5b611d08611a9e565b611d59866000808673ffffffffffffffffffffffffffffffffffffffff1673ffffffffffffffffffffffffffffffffffffffff1681526020019081526020016000205461507390919063ffffffff16565b6000808573ffffffffffffffffffffffffffffffffffffffff1673ffffffffffffffffffffffffffffffffffffffff16815260200190815260200160002081905550611dec866000803073ffffffffffffffffffffffffffffffffffffffff1673ffffffffffffffffffffffffffffffffffffffff168152602001908152602001600020546150a290919063ffffffff16565b6000803073ffffffffffffffffffffffffffffffffffffffff1673ffffffffffffffffffffffffffffffffffffffff168152602001908152602001600020819055506001549050600e546001541015611e4557600e5490505b600f60008473ffffffffffffffffffffffffffffffffffffffff1673ffffffffffffffffffffffffffffffffffffffff16815260200190815260200160002060a060405190810160405280888152602001428152602001848152602001611eb7896006546150a290919063ffffffff16565b8152602001838152509080600181540180825580915050906001820390600052602060002090600502016000909192909190915060008201518160000155602082015181600101556040820151816002015560608201518160030155608082015181600401555050506000611f8184611f7c6001600f60008973ffffffffffffffffffffffffffffffffffffffff1673ffffffffffffffffffffffffffffffffffffffff1681526020019081526020016000208054905061507390919063ffffffff16565b614ef0565b111515611f8d57600080fd5b611fa2866006546150a290919063ffffffff16565b6006819055506001935050505092915050565b600181565b60065481565b6000600154905090565b6000612008600a611ffa600d54611fec600854876150be90919063ffffffff16565b61508c90919063ffffffff16565b61508c90919063ffffffff16565b9050919050565b60008073ffffffffffffffffffffffffffffffffffffffff168373ffffffffffffffffffffffffffffffffffffffff161415151561204c57600080fd5b6000808573ffffffffffffffffffffffffffffffffffffffff1673ffffffffffffffffffffffffffffffffffffffff16815260200190815260200160002054821115151561209957600080fd5b600260008573ffffffffffffffffffffffffffffffffffffffff1673ffffffffffffffffffffffffffffffffffffffff16815260200190815260200160002060003373ffffffffffffffffffffffffffffffffffffffff1673ffffffffffffffffffffffffffffffffffffffff16815260200190815260200160002054821115151561212457600080fd5b612175826000808773ffffffffffffffffffffffffffffffffffffffff1673ffffffffffffffffffffffffffffffffffffffff1681526020019081526020016000205461507390919063ffffffff16565b6000808673ffffffffffffffffffffffffffffffffffffffff1673ffffffffffffffffffffffffffffffffffffffff16815260200190815260200160002081905550612208826000808673ffffffffffffffffffffffffffffffffffffffff1673ffffffffffffffffffffffffffffffffffffffff168152602001908152602001600020546150a290919063ffffffff16565b6000808573ffffffffffffffffffffffffffffffffffffffff1673ffffffffffffffffffffffffffffffffffffffff168152602001908152602001600020819055506122d982600260008773ffffffffffffffffffffffffffffffffffffffff1673ffffffffffffffffffffffffffffffffffffffff16815260200190815260200160002060003373ffffffffffffffffffffffffffffffffffffffff1673ffffffffffffffffffffffffffffffffffffffff1681526020019081526020016000205461507390919063ffffffff16565b600260008673ffffffffffffffffffffffffffffffffffffffff1673ffffffffffffffffffffffffffffffffffffffff16815260200190815260200160002060003373ffffffffffffffffffffffffffffffffffffffff1673ffffffffffffffffffffffffffffffffffffffff168152602001908152602001600020819055508273ffffffffffffffffffffffffffffffffffffffff168473ffffffffffffffffffffffffffffffffffffffff167fddf252ad1be2c89b69c2b068fc378daa952ba7f163c4a11628f55a4df523b3ef846040518082815260200191505060405180910390a3600190509392505050565b60006123e260065460015461507390919063ffffffff16565b905090565b600080600080600080600061240a6402540be400896150be90919063ffffffff16565b9450683635c9adc5dea000008511156124a35769152d02c7e14af680000085101561248b57612484640ba43b74006124766009612468600261245a64174876e8008c61507390919063ffffffff16565b6150be90919063ffffffff16565b61508c90919063ffffffff16565b6150a290919063ffffffff16565b94506124a2565b61249f60048661508c90919063ffffffff16565b94505b5b42600454106124b35760006124de565b6124dd62093a806124cf6004544261507390919063ffffffff16565b61508c90919063ffffffff16565b5b93506125076124f76002866150be90919063ffffffff16565b606461507390919063ffffffff16565b925061252f606461252185886150be90919063ffffffff16565b61508c90919063ffffffff16565b915060009050602d8411156125475760009050612828565b6020841115612590576125898261257b606461256d6065876150be90919063ffffffff16565b61508c90919063ffffffff16565b61507390919063ffffffff16565b9050612827565b60188411156125d9576125d2826125c460646125b66066876150be90919063ffffffff16565b61508c90919063ffffffff16565b61507390919063ffffffff16565b9050612826565b60128411156126225761261b8261260d60646125ff6067876150be90919063ffffffff16565b61508c90919063ffffffff16565b61507390919063ffffffff16565b9050612825565b600e84111561266b576126648261265660646126486068876150be90919063ffffffff16565b61508c90919063ffffffff16565b61507390919063ffffffff16565b9050612824565b600a8411156126b4576126ad8261269f60646126916069876150be90919063ffffffff16565b61508c90919063ffffffff16565b61507390919063ffffffff16565b9050612823565b60078411156126fd576126f6826126e860646126da606a876150be90919063ffffffff16565b61508c90919063ffffffff16565b61507390919063ffffffff16565b9050612822565b60058411156127465761273f826127316064612723606b876150be90919063ffffffff16565b61508c90919063ffffffff16565b61507390919063ffffffff16565b9050612821565b600384111561278f576127888261277a606461276c606c876150be90919063ffffffff16565b61508c90919063ffffffff16565b61507390919063ffffffff16565b9050612820565b60018411156127d8576127d1826127c360646127b5606d876150be90919063ffffffff16565b61508c90919063ffffffff16565b61507390919063ffffffff16565b905061281f565b60008410151561281e5761281b8261280d60646127ff606e876150be90919063ffffffff16565b61508c90919063ffffffff16565b61507390919063ffffffff16565b90505b5b5b5b5b5b5b5b5b5b5b8181965096505050505050915091565b600060326128446138e8565b1115905090565b600c6020528060005260406000206000915090508060000154908060010154905082565b60125481565b620d2f0081565b60085481565b600073ffffffffffffffffffffffffffffffffffffffff826040518082805190602001908083835b6020831015156128cf57805182526020820191506020810190506020830392506128aa565b6001836020036101000a038019825116818451168082178552505050505050905001915050604051809103902060019004169050919050565b6312cc030081565b600080600260003373ffffffffffffffffffffffffffffffffffffffff1673ffffffffffffffffffffffffffffffffffffffff16815260200190815260200160002060008573ffffffffffffffffffffffffffffffffffffffff1673ffffffffffffffffffffffffffffffffffffffff16815260200190815260200160002054905080831115612a21576000600260003373ffffffffffffffffffffffffffffffffffffffff1673ffffffffffffffffffffffffffffffffffffffff16815260200190815260200160002060008673ffffffffffffffffffffffffffffffffffffffff1673ffffffffffffffffffffffffffffffffffffffff16815260200190815260200160002081905550612ab5565b612a34838261507390919063ffffffff16565b600260003373ffffffffffffffffffffffffffffffffffffffff1673ffffffffffffffffffffffffffffffffffffffff16815260200190815260200160002060008673ffffffffffffffffffffffffffffffffffffffff1673ffffffffffffffffffffffffffffffffffffffff168152602001908152602001600020819055505b8373ffffffffffffffffffffffffffffffffffffffff163373ffffffffffffffffffffffffffffffffffffffff167f8c5be1e5ebec7d5bd14f71427d1e84f3dd0314c0f7b2291e5b200ac8c7c3b925600260003373ffffffffffffffffffffffffffffffffffffffff1673ffffffffffffffffffffffffffffffffffffffff16815260200190815260200160002060008873ffffffffffffffffffffffffffffffffffffffff1673ffffffffffffffffffffffffffffffffffffffff168152602001908152602001600020546040518082815260200191505060405180910390a3600191505092915050565b600b6020528060005260406000206000915054906101000a900460ff1681565b600a5481565b60008060008373ffffffffffffffffffffffffffffffffffffffff1673ffffffffffffffffffffffffffffffffffffffff168152602001908152602001600020549050919050565b60008060008060006004544210151515612c2857600080fd5b612c328a8a61464e565b9350838c60405160200180836bffffffffffffffffffffffff19166bffffffffffffffffffffffff19168152601401828152602001925050506040516020818303038152906040526040518082805190602001908083835b602083101515612caf5780518252602082019150602081019050602083039250612c8a565b6001836020036101000a03801982511681845116808217855250505050505090500191505060405180910390209250612ce6611a9e565b612cf0838c6135f3565b1515612cfb57600080fd5b612d08338b8a8a8a6141eb565b1515612d1357600080fd5b612d288c6007546150a290919063ffffffff16565b6007819055506001600b6000856000191660001916815260200190815260200160002060006101000a81548160ff021916908315150217905550612d6b8c6123e7565b91509150600954612d87836007546150a290919063ffffffff16565b11151515612d9457600080fd5b612df781612de9846000803373ffffffffffffffffffffffffffffffffffffffff1673ffffffffffffffffffffffffffffffffffffffff168152602001908152602001600020546150a290919063ffffffff16565b6150a290919063ffffffff16565b6000803373ffffffffffffffffffffffffffffffffffffffff1673ffffffffffffffffffffffffffffffffffffffff16815260200190815260200160002081905550612eac81600080600360009054906101000a900473ffffffffffffffffffffffffffffffffffffffff1673ffffffffffffffffffffffffffffffffffffffff1673ffffffffffffffffffffffffffffffffffffffff168152602001908152602001600020546150a290919063ffffffff16565b600080600360009054906101000a900473ffffffffffffffffffffffffffffffffffffffff1673ffffffffffffffffffffffffffffffffffffffff1673ffffffffffffffffffffffffffffffffffffffff16815260200190815260200160002081905550612f3781612f29846001546150a290919063ffffffff16565b6150a290919063ffffffff16565b600181905550612f5360016008546150a290919063ffffffff16565b6008819055503373ffffffffffffffffffffffffffffffffffffffff16600073ffffffffffffffffffffffffffffffffffffffff167fddf252ad1be2c89b69c2b068fc378daa952ba7f163c4a11628f55a4df523b3ef612fbc84866150a290919063ffffffff16565b6040518082815260200191505060405180910390a3600360009054906101000a900473ffffffffffffffffffffffffffffffffffffffff1673ffffffffffffffffffffffffffffffffffffffff16600073ffffffffffffffffffffffffffffffffffffffff167fddf252ad1be2c89b69c2b068fc378daa952ba7f163c4a11628f55a4df523b3ef836040518082815260200191505060405180910390a361306c81836150a290919063ffffffff16565b945050505050979650505050505050565b600080600080600f60008673ffffffffffffffffffffffffffffffffffffffff1673ffffffffffffffffffffffffffffffffffffffff168152602001908152602001600020805490509250600091506000905060008314156130e257600093506131fa565b5b828210156131f557600f60008673ffffffffffffffffffffffffffffffffffffffff1673ffffffffffffffffffffffffffffffffffffffff168152602001908152602001600020805490506131426001836150a290919063ffffffff16565b1161314d5780613150565b60005b9050600f60008673ffffffffffffffffffffffffffffffffffffffff1673ffffffffffffffffffffffffffffffffffffffff1681526020019081526020016000208181548110151561319e57fe5b906000526020600020906005020160020154421015156131c4576131c28582613208565b505b6131d86001836150a290919063ffffffff16565b91506131ee6001826150a290919063ffffffff16565b90506130e3565b600193505b505050919050565b60045481565b600061321261538e565b6000806000600f60008873ffffffffffffffffffffffffffffffffffffffff1673ffffffffffffffffffffffffffffffffffffffff1681526020019081526020016000208681548110151561326357fe5b906000526020600020906005020160a06040519081016040529081600082015481526020016001820154815260200160028201548152602001600382015481526020016004820154815250509350836040015142101515156132c457600080fd5b6132cc611a9e565b6132d68787614ef0565b92506132e3878785614cc8565b915061330e826133008587600001516150a290919063ffffffff16565b6150a290919063ffffffff16565b9050613329846000015160065461507390919063ffffffff16565b60068190555061338484600001516000803073ffffffffffffffffffffffffffffffffffffffff1673ffffffffffffffffffffffffffffffffffffffff1681526020019081526020016000205461507390919063ffffffff16565b6000803073ffffffffffffffffffffffffffffffffffffffff1673ffffffffffffffffffffffffffffffffffffffff16815260200190815260200160002081905550613417816000808a73ffffffffffffffffffffffffffffffffffffffff1673ffffffffffffffffffffffffffffffffffffffff168152602001908152602001600020546150a290919063ffffffff16565b6000808973ffffffffffffffffffffffffffffffffffffffff1673ffffffffffffffffffffffffffffffffffffffff168152602001908152602001600020819055508673ffffffffffffffffffffffffffffffffffffffff163073ffffffffffffffffffffffffffffffffffffffff167fddf252ad1be2c89b69c2b068fc378daa952ba7f163c4a11628f55a4df523b3ef86600001516040518082815260200191505060405180910390a36134d7836001546150a290919063ffffffff16565b6001819055506135056134f46002846150be90919063ffffffff16565b6001546150a290919063ffffffff16565b6001819055508673ffffffffffffffffffffffffffffffffffffffff167f0f6798a560793a54c3bcfe86a93cde1e73087d944c0ea20544137d412139688561355685856150a290919063ffffffff16565b6040518082815260200191505060405180910390a2600360009054906101000a900473ffffffffffffffffffffffffffffffffffffffff1673ffffffffffffffffffffffffffffffffffffffff167f0f6798a560793a54c3bcfe86a93cde1e73087d944c0ea20544137d4121396885836040518082815260200191505060405180910390a26135e587876150f6565b600194505050505092915050565b6000801515600b6000856000191660001916815260200190815260200160002060009054906101000a900460ff16151514801561363657506136358284614070565b5b905092915050565b6060806060806000606080606080600080600f60008d73ffffffffffffffffffffffffffffffffffffffff1673ffffffffffffffffffffffffffffffffffffffff168152602001908152602001600020805490509650866040519080825280602002602001820160405280156136c35781602001602082028038833980820191505090505b509550866040519080825280602002602001820160405280156136f55781602001602082028038833980820191505090505b509450866040519080825280602002602001820160405280156137275781602001602082028038833980820191505090505b509350866040519080825280602002602001820160405280156137595781602001602082028038833980820191505090505b509250600091505b8682101561385657600f60008d73ffffffffffffffffffffffffffffffffffffffff1673ffffffffffffffffffffffffffffffffffffffff168152602001908152602001600020828154811015156137b557fe5b90600052602060002090600502019050806000015486838151811015156137d857fe5b9060200190602002018181525050806001015485838151811015156137f957fe5b90602001906020020181815250508060020154848381518110151561381a57fe5b90602001906020020181815250508060030154838381518110151561383b57fe5b90602001906020020181815250508180600101925050613761565b858585859a509a509a509a50505050505050509193509193565b600f6020528160005260406000208181548110151561388b57fe5b9060005260206000209060050201600091509150508060000154908060010154908060020154908060030154908060040154905085565b600360009054906101000a900473ffffffffffffffffffffffffffffffffffffffff1681565b600060045442116138fa576000613925565b61392462093a806139166004544261507390919063ffffffff16565b61508c90919063ffffffff16565b5b905090565b60118054600181600116156101000203166002900480601f0160208091040260200160405190810160405280929190818152602001828054600181600116156101000203166002900480156139c05780601f10613995576101008083540402835291602001916139c0565b820191906000526020600020905b8154815290600101906020018083116139a357829003601f168201915b505050505081565b60055481565b60008073ffffffffffffffffffffffffffffffffffffffff168373ffffffffffffffffffffffffffffffffffffffff1614151515613a0b57600080fd5b6000803373ffffffffffffffffffffffffffffffffffffffff1673ffffffffffffffffffffffffffffffffffffffff168152602001908152602001600020548211151515613a5857600080fd5b613aa9826000803373ffffffffffffffffffffffffffffffffffffffff1673ffffffffffffffffffffffffffffffffffffffff1681526020019081526020016000205461507390919063ffffffff16565b6000803373ffffffffffffffffffffffffffffffffffffffff1673ffffffffffffffffffffffffffffffffffffffff16815260200190815260200160002081905550613b3c826000808673ffffffffffffffffffffffffffffffffffffffff1673ffffffffffffffffffffffffffffffffffffffff168152602001908152602001600020546150a290919063ffffffff16565b6000808573ffffffffffffffffffffffffffffffffffffffff1673ffffffffffffffffffffffffffffffffffffffff168152602001908152602001600020819055508273ffffffffffffffffffffffffffffffffffffffff163373ffffffffffffffffffffffffffffffffffffffff167fddf252ad1be2c89b69c2b068fc378daa952ba7f163c4a11628f55a4df523b3ef846040518082815260200191505060405180910390a36001905092915050565b60003373ffffffffffffffffffffffffffffffffffffffff168273ffffffffffffffffffffffffffffffffffffffff1614151515613c2a57600080fd5b600073ffffffffffffffffffffffffffffffffffffffff168273ffffffffffffffffffffffffffffffffffffffff1614151515613c6657600080fd5b613cd68b8b8b808060200260200160405190810160405280939291908181526020018383602002808284378201915050505050508a8a8080601f01602080910402602001604051908101604052809392919081815260200183838082843782019150505050505089898989612c0f565b9050613d3c613cef60148361508c90919063ffffffff16565b6000808573ffffffffffffffffffffffffffffffffffffffff1673ffffffffffffffffffffffffffffffffffffffff168152602001908152602001600020546150a290919063ffffffff16565b6000808473ffffffffffffffffffffffffffffffffffffffff1673ffffffffffffffffffffffffffffffffffffffff16815260200190815260200160002081905550613e04613d9560148361508c90919063ffffffff16565b600080600360009054906101000a900473ffffffffffffffffffffffffffffffffffffffff1673ffffffffffffffffffffffffffffffffffffffff1673ffffffffffffffffffffffffffffffffffffffff168152602001908152602001600020546150a290919063ffffffff16565b600080600360009054906101000a900473ffffffffffffffffffffffffffffffffffffffff1673ffffffffffffffffffffffffffffffffffffffff1673ffffffffffffffffffffffffffffffffffffffff16815260200190815260200160002081905550613e90613e7f60148361508c90919063ffffffff16565b6001546150a290919063ffffffff16565b6001819055508090509a9950505050505050505050565b6000806000806001600f60008973ffffffffffffffffffffffffffffffffffffffff1673ffffffffffffffffffffffffffffffffffffffff16815260200190815260200160002080549050039250828511151515613f0457600080fd5b60008610151515613f1457600080fd5b6000600f60008973ffffffffffffffffffffffffffffffffffffffff1673ffffffffffffffffffffffffffffffffffffffff168152602001908152602001600020805490501415613f685760009350614066565b84861415613fd657600f60008873ffffffffffffffffffffffffffffffffffffffff1673ffffffffffffffffffffffffffffffffffffffff1681526020019081526020016000206000815481101515613fbd57fe5b9060005260206000209060050201600001549350614066565b8590505b848111151561406257614053600f60008973ffffffffffffffffffffffffffffffffffffffff1673ffffffffffffffffffffffffffffffffffffffff1681526020019081526020016000208281548110151561403257fe5b906000526020600020906005020160000154836150a290919063ffffffff16565b91508080600101915050613fda565b8193505b5050509392505050565b600061407f83600a54846151e7565b905092915050565b60006140da8260006001600f60008773ffffffffffffffffffffffffffffffffffffffff1673ffffffffffffffffffffffffffffffffffffffff1681526020019081526020016000208054905003613ea7565b9050919050565b6000808284111515156140f357600080fd5b600f60008673ffffffffffffffffffffffffffffffffffffffff1673ffffffffffffffffffffffffffffffffffffffff168152602001908152602001600020805490508310151561414357600080fd5b8390505b82811115156141df57600f60008673ffffffffffffffffffffffffffffffffffffffff1673ffffffffffffffffffffffffffffffffffffffff168152602001908152602001600020600081548110151561419d57fe5b906000526020600020906005020160020154421015156141da576141c2856000613208565b506141d76001826150a290919063ffffffff16565b90505b614147565b60019150509392505050565b60006142ff600287604051602001808273ffffffffffffffffffffffffffffffffffffffff1673ffffffffffffffffffffffffffffffffffffffff166c010000000000000000000000000281526014019150506040516020818303038152906040526040518082805190602001908083835b602083101515614282578051825260208201915060208101905060208303925061425d565b6001836020036101000a0380198251168184511680821785525050505050509050019150506020604051808303816000865af11580156142c6573d6000803e3d6000fd5b5050506040513d60208110156142db57600080fd5b81019080805190602001909291905050508585856142f88a612882565b60006117bb565b905095945050505050565b600080848460405160200180836bffffffffffffffffffffffff19166bffffffffffffffffffffffff19168152601401828152602001925050506040516020818303038152906040526040518082805190602001908083835b6020831015156143885780518252602082019150602081019050602083039250614363565b6001836020036101000a038019825116818451168082178552505050505050905001915050604051809103902090506143c181846135f3565b9150509392505050565b600061445c82600260003373ffffffffffffffffffffffffffffffffffffffff1673ffffffffffffffffffffffffffffffffffffffff16815260200190815260200160002060008673ffffffffffffffffffffffffffffffffffffffff1673ffffffffffffffffffffffffffffffffffffffff168152602001908152602001600020546150a290919063ffffffff16565b600260003373ffffffffffffffffffffffffffffffffffffffff1673ffffffffffffffffffffffffffffffffffffffff16815260200190815260200160002060008573ffffffffffffffffffffffffffffffffffffffff1673ffffffffffffffffffffffffffffffffffffffff168152602001908152602001600020819055508273ffffffffffffffffffffffffffffffffffffffff163373ffffffffffffffffffffffffffffffffffffffff167f8c5be1e5ebec7d5bd14f71427d1e84f3dd0314c0f7b2291e5b200ac8c7c3b925600260003373ffffffffffffffffffffffffffffffffffffffff1673ffffffffffffffffffffffffffffffffffffffff16815260200190815260200160002060008773ffffffffffffffffffffffffffffffffffffffff1673ffffffffffffffffffffffffffffffffffffffff168152602001908152602001600020546040518082815260200191505060405180910390a36001905092915050565b6000600260008473ffffffffffffffffffffffffffffffffffffffff1673ffffffffffffffffffffffffffffffffffffffff16815260200190815260200160002060008373ffffffffffffffffffffffffffffffffffffffff1673ffffffffffffffffffffffffffffffffffffffff16815260200190815260200160002054905092915050565b60008060008061465f8660006152b2565b6001900492506146708660206152b2565b600190049150841561484c57600060028381151561468a57fe5b061461469757600361469a565b60025b9050600360028285604051602001808360ff1660ff167f0100000000000000000000000000000000000000000000000000000000000000028152600101828152602001925050506040516020818303038152906040526040518082805190602001908083835b6020831015156147255780518252602082019150602081019050602083039250614700565b6001836020036101000a0380198251168184511680821785525050505050509050019150506020604051808303816000865af1158015614769573d6000803e3d6000fd5b5050506040513d602081101561477e57600080fd5b81019080805190602001909291905050506040516020018082600019166000191681526020019150506040516020818303038152906040526040518082805190602001908083835b6020831015156147eb57805182526020820191506020810190506020830392506147c6565b6001836020036101000a0380198251168184511680821785525050505050509050019150506020604051808303816000865af115801561482f573d6000803e3d6000fd5b505050604051516c01000000000000000000000000029350614a04565b6004905060036002828585604051602001808460ff1660ff167f010000000000000000000000000000000000000000000000000000000000000002815260010183815260200182815260200193505050506040516020818303038152906040526040518082805190602001908083835b6020831015156148e157805182526020820191506020810190506020830392506148bc565b6001836020036101000a0380198251168184511680821785525050505050509050019150506020604051808303816000865af1158015614925573d6000803e3d6000fd5b5050506040513d602081101561493a57600080fd5b81019080805190602001909291905050506040516020018082600019166000191681526020019150506040516020818303038152906040526040518082805190602001908083835b6020831015156149a75780518252602082019150602081019050602083039250614982565b6001836020036101000a0380198251168184511680821785525050505050509050019150506020604051808303816000865af11580156149eb573d6000803e3d6000fd5b505050604051516c010000000000000000000000000293505b50505092915050565b6000614a4b600a614a3d600954614a2f600754876150be90919063ffffffff16565b61508c90919063ffffffff16565b61508c90919063ffffffff16565b9050919050565b6000806000600f60008673ffffffffffffffffffffffffffffffffffffffff1673ffffffffffffffffffffffffffffffffffffffff16815260200190815260200160002084815481101515614aa357fe5b9060005260206000209060050201600001549150600f60008673ffffffffffffffffffffffffffffffffffffffff1673ffffffffffffffffffffffffffffffffffffffff16815260200190815260200160002084815481101515614b0357fe5b906000526020600020906005020160020154421115614b5e57614b268585614ef0565b9050614b57614b4882614b3a888886614cc8565b6150a290919063ffffffff16565b836150a290919063ffffffff16565b9250614b62565b8192505b505092915050565b6000806000806000806000806000809750614ba562093a80614b976004548e61507390919063ffffffff16565b61508c90919063ffffffff16565b965060008714614bb55786614bb8565b60015b9550614be462093a80614bd66004548d61507390919063ffffffff16565b61508c90919063ffffffff16565b945060328511614bf45784614bf7565b60325b93508592505b83831015614cb657614c41600c600085815260200190815260200160002060010154614c3360648f6150be90919063ffffffff16565b61508c90919063ffffffff16565b9150614c926064614c8484614c766032600c60008a81526020019081526020016000206000015461508c90919063ffffffff16565b6150be90919063ffffffff16565b61508c90919063ffffffff16565b9050614ca781896150a290919063ffffffff16565b97508280600101935050614bfd565b87985050505050505050509392505050565b600080600080600080600f60008a73ffffffffffffffffffffffffffffffffffffffff1673ffffffffffffffffffffffffffffffffffffffff16815260200190815260200160002088815481101515614d1d57fe5b906000526020600020906005020194506032614d5d62093a80614d4f600454896001015461507390919063ffffffff16565b61508c90919063ffffffff16565b111515614dc257614d7b856000015486600101548760020154614b6a565b9350614d8687611fca565b9250614d9187614a0d565b9150614db882614daa85876150a290919063ffffffff16565b6150a290919063ffffffff16565b9050809550614dc7565b600095505b50505050509392505050565b60075481565b6000806000806000806000614df9612710896150a290919063ffffffff16565b9550600a94508489811515614e0a57fe5b069350614e20858a61508c90919063ffffffff16565b9250614e3a6402540be4008b61508c90919063ffffffff16565b9150600090505b82811015614e9157614e74856127100a614e6687890a856150be90919063ffffffff16565b61508c90919063ffffffff16565b9150614e8a6001826150a290919063ffffffff16565b9050614e41565b600084141515614ec957614ec6846127100a614eb886890a856150be90919063ffffffff16565b61508c90919063ffffffff16565b91505b614ee16402540be400836150be90919063ffffffff16565b96505050505050509392505050565b6000806000806000806000806000600f60008c73ffffffffffffffffffffffffffffffffffffffff1673ffffffffffffffffffffffffffffffffffffffff1681526020019081526020016000208a815481101515614f4a57fe5b90600052602060002090600502019750614f6f606460016150be90919063ffffffff16565b965060019550606494506000886003015414151561500957614fcb8860040154614fbd6064614faf8c600001548d600301546150a290919063ffffffff16565b6150be90919063ffffffff16565b61508c90919063ffffffff16565b935060008411614fdc576001614fde565b835b9550614ff3868861508c90919063ffffffff16565b925060008311615004576001615006565b825b94505b615039620d2f0061502b8a600101548b6002015461507390919063ffffffff16565b61508c90919063ffffffff16565b915061504a88600001548387614dd9565b905061506388600001548261507390919063ffffffff16565b9850505050505050505092915050565b600082821115151561508157fe5b818303905092915050565b6000818381151561509957fe5b04905092915050565b600081830190508281101515156150b557fe5b80905092915050565b6000808314156150d157600090506150f0565b81830290508183828115156150e257fe5b041415156150ec57fe5b8090505b92915050565b6000600f60008473ffffffffffffffffffffffffffffffffffffffff1673ffffffffffffffffffffffffffffffffffffffff1681526020019081526020016000209050806151526001838054905061507390919063ffffffff16565b81548110151561515e57fe5b9060005260206000209060050201818381548110151561517a57fe5b906000526020600020906005020160008201548160000155600182015481600101556002820154816002015560038201548160030155600482015481600401559050506151d56001828054905061507390919063ffffffff16565b81816151e191906153be565b50505050565b600080600080849250600091505b865182101561529b57868281518110151561520c57fe5b90602001906020020151905080600019168360001916101561525d5782816040518083600019166000191681526020018260001916600019168152602001925050506040518091039020925061528e565b8083604051808360001916600019168152602001826000191660001916815260200192505050604051809103902092505b81806001019250506151f5565b856000191683600019161493505050509392505050565b600080600090505b60208110156153845760088102848483018151811015156152d757fe5b9060200101517f010000000000000000000000000000000000000000000000000000000000000090047f0100000000000000000000000000000000000000000000000000000000000000027effffffffffffffffffffffffffffffffffffffffffffffffffffffffffffff19167fff0000000000000000000000000000000000000000000000000000000000000060010216600019169060020a90048218915080806001019150506152ba565b8191505092915050565b60a06040519081016040528060008152602001600081526020016000815260200160008152602001600081525090565b8154818355818111156153eb576005028160050283600052602060002091820191016153ea91906153f0565b5b505050565b61543491905b80821115615430576000808201600090556001820160009055600282016000905560038201600090556004820160009055506005016153f6565b5090565b905600a165627a7a72305820d50b1998369aad08b371832e09ffe00224ae16f67c4d0b66568e4f7547db1c110029",
  "source": "pragma solidity ^0.4.23;\nimport \"./StakeableToken.sol\";\n\n\n/**\n  @title BitcoinHex token contract\n  @notice inherits from StakeableToken which handles staking rewards, \n  UTXORedeemableToken which handles redeeming tokens through OpenZeppelin\n  MerkleProof, and StandardToken (also from OpenZeppelin)\n\n  @dev _rootUtxoMerkleTreeHash is derived from the Bitcoin blockchain\n  but is not an exact copy.\n*/\ncontract BitcoinHex is StakeableToken {\n  string public name = \"BitcoinHex\"; \n  string public symbol = \"BHX\";\n  uint public decimals = 18;\n\n  constructor (\n    address _originAddress,\n    bytes32 _rootUtxoMerkleTreeHash,\n    uint256 _maximumRedeemable,\n    uint256 _UTXOCountAtFork\n  ) \n    public\n  {\n    launchTime = block.timestamp;\n    origin = _originAddress;\n    rootUtxoMerkleTreeHash = _rootUtxoMerkleTreeHash;\n    maximumRedeemable = _maximumRedeemable;\n    UTXOCountAtFork = _UTXOCountAtFork;\n  }\n}\n",
  "sourcePath": "/Users/mesquka/Git/Bitcoin Hex/contract/contracts/BitcoinHex.sol",
  "compiler": {
    "name": "solc",
    "version": "0.4.24+commit.e67f0147.Emscripten.clang"
  },
  "schemaVersion": "2.0.0",
  "updatedAt": "2018-09-28T07:31:32.632Z"
}