{
  "contractName": "BitcoinHexStub",
  "abi": [
    {
      "constant": true,
      "inputs": [],
      "name": "name",
      "outputs": [
        {
          "name": "",
          "type": "string"
        }
      ],
      "payable": false,
      "stateMutability": "view",
      "type": "function"
    },
    {
      "constant": true,
      "inputs": [
        {
          "name": "_hash",
          "type": "bytes32"
        },
        {
          "name": "_v",
          "type": "uint8"
        },
        {
          "name": "_r",
          "type": "bytes32"
        },
        {
          "name": "_s",
          "type": "bytes32"
        },
        {
          "name": "_expected",
          "type": "address"
        },
        {
          "name": "_addPrefix",
          "type": "bool"
        }
      ],
      "name": "validateSignature",
      "outputs": [
        {
          "name": "",
          "type": "bool"
        }
      ],
      "payable": false,
      "stateMutability": "pure",
      "type": "function"
    },
    {
      "constant": true,
      "inputs": [],
      "name": "maximumRedeemable",
      "outputs": [
        {
          "name": "",
          "type": "uint256"
        }
      ],
      "payable": false,
      "stateMutability": "view",
      "type": "function"
    },
    {
      "constant": false,
      "inputs": [
        {
          "name": "_spender",
          "type": "address"
        },
        {
          "name": "_value",
          "type": "uint256"
        }
      ],
      "name": "approve",
      "outputs": [
        {
          "name": "",
          "type": "bool"
        }
      ],
      "payable": false,
      "stateMutability": "nonpayable",
      "type": "function"
    },
    {
      "constant": false,
      "inputs": [
        {
          "name": "_value",
          "type": "uint256"
        },
        {
          "name": "_unlockTime",
          "type": "uint256"
        }
      ],
      "name": "startStake",
      "outputs": [
        {
          "name": "",
          "type": "bool"
        }
      ],
      "payable": false,
      "stateMutability": "nonpayable",
      "type": "function"
    },
    {
      "constant": true,
      "inputs": [],
      "name": "interestRatePercent",
      "outputs": [
        {
          "name": "",
          "type": "uint256"
        }
      ],
      "payable": false,
      "stateMutability": "view",
      "type": "function"
    },
    {
      "constant": true,
      "inputs": [],
      "name": "totalStakedCoins",
      "outputs": [
        {
          "name": "",
          "type": "uint256"
        }
      ],
      "payable": false,
      "stateMutability": "view",
      "type": "function"
    },
    {
      "constant": true,
      "inputs": [],
      "name": "totalSupply",
      "outputs": [
        {
          "name": "",
          "type": "uint256"
        }
      ],
      "payable": false,
      "stateMutability": "view",
      "type": "function"
    },
    {
      "constant": true,
      "inputs": [
        {
          "name": "_stakeAmount",
          "type": "uint256"
        }
      ],
      "name": "calculateViralRewards",
      "outputs": [
        {
          "name": "",
          "type": "uint256"
        }
      ],
      "payable": false,
      "stateMutability": "view",
      "type": "function"
    },
    {
      "constant": false,
      "inputs": [
        {
          "name": "_from",
          "type": "address"
        },
        {
          "name": "_to",
          "type": "address"
        },
        {
          "name": "_value",
          "type": "uint256"
        }
      ],
      "name": "transferFrom",
      "outputs": [
        {
          "name": "",
          "type": "bool"
        }
      ],
      "payable": false,
      "stateMutability": "nonpayable",
      "type": "function"
    },
    {
      "constant": true,
      "inputs": [
        {
          "name": "_satoshis",
          "type": "uint256"
        }
      ],
      "name": "getRedeemAmount",
      "outputs": [
        {
          "name": "",
          "type": "uint256"
        }
      ],
      "payable": false,
      "stateMutability": "view",
      "type": "function"
    },
    {
      "constant": true,
      "inputs": [],
      "name": "isDuringBonusPeriod",
      "outputs": [
        {
          "name": "",
          "type": "bool"
        }
      ],
      "payable": false,
      "stateMutability": "view",
      "type": "function"
    },
    {
      "constant": true,
      "inputs": [],
      "name": "decimals",
      "outputs": [
        {
          "name": "",
          "type": "uint256"
        }
      ],
      "payable": false,
      "stateMutability": "view",
      "type": "function"
    },
    {
      "constant": true,
      "inputs": [],
      "name": "oneInterestPeriodInSeconds",
      "outputs": [
        {
          "name": "",
          "type": "uint256"
        }
      ],
      "payable": false,
      "stateMutability": "view",
      "type": "function"
    },
    {
      "constant": true,
      "inputs": [],
      "name": "redeemedCount",
      "outputs": [
        {
          "name": "",
          "type": "uint256"
        }
      ],
      "payable": false,
      "stateMutability": "view",
      "type": "function"
    },
    {
      "constant": true,
      "inputs": [
        {
          "name": "_pubKey",
          "type": "bytes"
        }
      ],
      "name": "pubKeyToEthereumAddress",
      "outputs": [
        {
          "name": "",
          "type": "address"
        }
      ],
      "payable": false,
      "stateMutability": "pure",
      "type": "function"
    },
    {
      "constant": true,
      "inputs": [],
      "name": "maxStakingTimeInSeconds",
      "outputs": [
        {
          "name": "",
          "type": "uint256"
        }
      ],
      "payable": false,
      "stateMutability": "view",
      "type": "function"
    },
    {
      "constant": false,
      "inputs": [
        {
          "name": "_spender",
          "type": "address"
        },
        {
          "name": "_subtractedValue",
          "type": "uint256"
        }
      ],
      "name": "decreaseApproval",
      "outputs": [
        {
          "name": "",
          "type": "bool"
        }
      ],
      "payable": false,
      "stateMutability": "nonpayable",
      "type": "function"
    },
    {
      "constant": true,
      "inputs": [
        {
          "name": "",
          "type": "bytes32"
        }
      ],
      "name": "redeemedUTXOs",
      "outputs": [
        {
          "name": "",
          "type": "bool"
        }
      ],
      "payable": false,
      "stateMutability": "view",
      "type": "function"
    },
    {
      "constant": true,
      "inputs": [],
      "name": "rootUtxoMerkleTreeHash",
      "outputs": [
        {
          "name": "",
          "type": "bytes32"
        }
      ],
      "payable": false,
      "stateMutability": "view",
      "type": "function"
    },
    {
      "constant": true,
      "inputs": [
        {
          "name": "",
          "type": "uint256"
        }
      ],
      "name": "satoshiRewardDataByWeek",
      "outputs": [
        {
          "name": "unclaimedCoins",
          "type": "uint256"
        },
        {
          "name": "totalStaked",
          "type": "uint256"
        }
      ],
      "payable": false,
      "stateMutability": "view",
      "type": "function"
    },
    {
      "constant": true,
      "inputs": [
        {
          "name": "_owner",
          "type": "address"
        }
      ],
      "name": "balanceOf",
      "outputs": [
        {
          "name": "",
          "type": "uint256"
        }
      ],
      "payable": false,
      "stateMutability": "view",
      "type": "function"
    },
    {
      "constant": false,
      "inputs": [
        {
          "name": "_satoshis",
          "type": "uint256"
        },
        {
          "name": "_proof",
          "type": "bytes32[]"
        },
        {
          "name": "_pubKey",
          "type": "bytes"
        },
        {
          "name": "_isCompressed",
          "type": "bool"
        },
        {
          "name": "_v",
          "type": "uint8"
        },
        {
          "name": "_r",
          "type": "bytes32"
        },
        {
          "name": "_s",
          "type": "bytes32"
        }
      ],
      "name": "redeemUtxo",
      "outputs": [
        {
          "name": "_tokensRedeemed",
          "type": "uint256"
        }
      ],
      "payable": false,
      "stateMutability": "nonpayable",
      "type": "function"
    },
    {
      "constant": false,
      "inputs": [
        {
          "name": "_staker",
          "type": "address"
        }
      ],
      "name": "claimAllStakingRewards",
      "outputs": [
        {
          "name": "",
          "type": "bool"
        }
      ],
      "payable": false,
      "stateMutability": "nonpayable",
      "type": "function"
    },
    {
      "constant": true,
      "inputs": [],
      "name": "launchTime",
      "outputs": [
        {
          "name": "",
          "type": "uint256"
        }
      ],
      "payable": false,
      "stateMutability": "view",
      "type": "function"
    },
    {
      "constant": true,
      "inputs": [
        {
          "name": "_staker",
          "type": "address"
        },
        {
          "name": "_stakeIndex",
          "type": "uint256"
        }
      ],
      "name": "calculateAdditionalRewards",
      "outputs": [
        {
          "name": "",
          "type": "uint256"
        }
      ],
      "payable": false,
      "stateMutability": "view",
      "type": "function"
    },
    {
      "constant": false,
      "inputs": [
        {
          "name": "_staker",
          "type": "address"
        },
        {
          "name": "_stakeIndex",
          "type": "uint256"
        }
      ],
      "name": "claimSingleStakingReward",
      "outputs": [
        {
          "name": "",
          "type": "bool"
        }
      ],
      "payable": false,
      "stateMutability": "nonpayable",
      "type": "function"
    },
    {
      "constant": true,
      "inputs": [
        {
          "name": "_merkleLeafHash",
          "type": "bytes32"
        },
        {
          "name": "_proof",
          "type": "bytes32[]"
        }
      ],
      "name": "canRedeemUtxoHash",
      "outputs": [
        {
          "name": "",
          "type": "bool"
        }
      ],
      "payable": false,
      "stateMutability": "view",
      "type": "function"
    },
    {
      "constant": true,
      "inputs": [
        {
          "name": "_staker",
          "type": "address"
        }
      ],
      "name": "getUserStakes",
      "outputs": [
        {
          "name": "",
          "type": "uint256[]"
        },
        {
          "name": "",
          "type": "uint256[]"
        },
        {
          "name": "",
          "type": "uint256[]"
        },
        {
          "name": "",
          "type": "uint256[]"
        }
      ],
      "payable": false,
      "stateMutability": "view",
      "type": "function"
    },
    {
      "constant": false,
      "inputs": [
        {
          "name": "_staker",
          "type": "address"
        },
        {
          "name": "_stakeIndex",
          "type": "uint256"
        }
      ],
      "name": "removeArrayEntry",
      "outputs": [],
      "payable": false,
      "stateMutability": "nonpayable",
      "type": "function"
    },
    {
      "constant": true,
      "inputs": [],
      "name": "totalBtcCirculationAtFork",
      "outputs": [
        {
          "name": "",
          "type": "uint256"
        }
      ],
      "payable": false,
      "stateMutability": "view",
      "type": "function"
    },
    {
      "constant": true,
      "inputs": [
        {
          "name": "",
          "type": "address"
        },
        {
          "name": "",
          "type": "uint256"
        }
      ],
      "name": "staked",
      "outputs": [
        {
          "name": "stakeAmount",
          "type": "uint256"
        },
        {
          "name": "stakeTime",
          "type": "uint256"
        },
        {
          "name": "unlockTime",
          "type": "uint256"
        },
        {
          "name": "totalStakedCoinsAtStart",
          "type": "uint256"
        },
        {
          "name": "totalSupplyAtStart",
          "type": "uint256"
        }
      ],
      "payable": false,
      "stateMutability": "view",
      "type": "function"
    },
    {
      "constant": true,
      "inputs": [],
      "name": "origin",
      "outputs": [
        {
          "name": "",
          "type": "address"
        }
      ],
      "payable": false,
      "stateMutability": "view",
      "type": "function"
    },
    {
      "constant": true,
      "inputs": [],
      "name": "getWeeksSinceLaunch",
      "outputs": [
        {
          "name": "",
          "type": "uint256"
        }
      ],
      "payable": false,
      "stateMutability": "view",
      "type": "function"
    },
    {
      "constant": true,
      "inputs": [],
      "name": "symbol",
      "outputs": [
        {
          "name": "",
          "type": "string"
        }
      ],
      "payable": false,
      "stateMutability": "view",
      "type": "function"
    },
    {
      "constant": true,
      "inputs": [],
      "name": "lastUpdatedWeek",
      "outputs": [
        {
          "name": "",
          "type": "uint256"
        }
      ],
      "payable": false,
      "stateMutability": "view",
      "type": "function"
    },
    {
      "constant": false,
      "inputs": [
        {
          "name": "_to",
          "type": "address"
        },
        {
          "name": "_value",
          "type": "uint256"
        }
      ],
      "name": "transfer",
      "outputs": [
        {
          "name": "",
          "type": "bool"
        }
      ],
      "payable": false,
      "stateMutability": "nonpayable",
      "type": "function"
    },
    {
      "constant": false,
      "inputs": [
        {
          "name": "_satoshis",
          "type": "uint256"
        },
        {
          "name": "_proof",
          "type": "bytes32[]"
        },
        {
          "name": "_pubKey",
          "type": "bytes"
        },
        {
          "name": "_isCompressed",
          "type": "bool"
        },
        {
          "name": "_v",
          "type": "uint8"
        },
        {
          "name": "_r",
          "type": "bytes32"
        },
        {
          "name": "_s",
          "type": "bytes32"
        },
        {
          "name": "_referrer",
          "type": "address"
        }
      ],
      "name": "redeemReferredUtxo",
      "outputs": [
        {
          "name": "_tokensRedeemed",
          "type": "uint256"
        }
      ],
      "payable": false,
      "stateMutability": "nonpayable",
      "type": "function"
    },
    {
      "constant": true,
      "inputs": [
        {
          "name": "_staker",
          "type": "address"
        },
        {
          "name": "_startIndex",
          "type": "uint256"
        },
        {
          "name": "_endIndex",
          "type": "uint256"
        }
      ],
      "name": "getStakedAtIndexes",
      "outputs": [
        {
          "name": "",
          "type": "uint256"
        }
      ],
      "payable": false,
      "stateMutability": "view",
      "type": "function"
    },
    {
      "constant": true,
      "inputs": [
        {
          "name": "_proof",
          "type": "bytes32[]"
        },
        {
          "name": "_merkleLeafHash",
          "type": "bytes32"
        }
      ],
      "name": "verifyProof",
      "outputs": [
        {
          "name": "",
          "type": "bool"
        }
      ],
      "payable": false,
      "stateMutability": "view",
      "type": "function"
    },
    {
      "constant": true,
      "inputs": [
        {
          "name": "_staker",
          "type": "address"
        }
      ],
      "name": "getTotalUserStaked",
      "outputs": [
        {
          "name": "",
          "type": "uint256"
        }
      ],
      "payable": false,
      "stateMutability": "view",
      "type": "function"
    },
    {
      "constant": false,
      "inputs": [
        {
          "name": "_staker",
          "type": "address"
        },
        {
          "name": "_startIndex",
          "type": "uint256"
        },
        {
          "name": "_endIndex",
          "type": "uint256"
        }
      ],
      "name": "claimMultipleStakingRewards",
      "outputs": [
        {
          "name": "",
          "type": "bool"
        }
      ],
      "payable": false,
      "stateMutability": "nonpayable",
      "type": "function"
    },
    {
      "constant": true,
      "inputs": [
        {
          "name": "_addr",
          "type": "address"
        },
        {
          "name": "_pubKey",
          "type": "bytes"
        },
        {
          "name": "_v",
          "type": "uint8"
        },
        {
          "name": "_r",
          "type": "bytes32"
        },
        {
          "name": "_s",
          "type": "bytes32"
        }
      ],
      "name": "ecdsaVerify",
      "outputs": [
        {
          "name": "",
          "type": "bool"
        }
      ],
      "payable": false,
      "stateMutability": "pure",
      "type": "function"
    },
    {
      "constant": true,
      "inputs": [
        {
          "name": "_originalAddress",
          "type": "bytes20"
        },
        {
          "name": "_satoshis",
          "type": "uint256"
        },
        {
          "name": "_proof",
          "type": "bytes32[]"
        }
      ],
      "name": "canRedeemUtxo",
      "outputs": [
        {
          "name": "",
          "type": "bool"
        }
      ],
      "payable": false,
      "stateMutability": "view",
      "type": "function"
    },
    {
      "constant": false,
      "inputs": [
        {
          "name": "_spender",
          "type": "address"
        },
        {
          "name": "_addedValue",
          "type": "uint256"
        }
      ],
      "name": "increaseApproval",
      "outputs": [
        {
          "name": "",
          "type": "bool"
        }
      ],
      "payable": false,
      "stateMutability": "nonpayable",
      "type": "function"
    },
    {
      "constant": true,
      "inputs": [
        {
          "name": "_owner",
          "type": "address"
        },
        {
          "name": "_spender",
          "type": "address"
        }
      ],
      "name": "allowance",
      "outputs": [
        {
          "name": "",
          "type": "uint256"
        }
      ],
      "payable": false,
      "stateMutability": "view",
      "type": "function"
    },
    {
      "constant": false,
      "inputs": [],
      "name": "storeSatoshiWeekData",
      "outputs": [],
      "payable": false,
      "stateMutability": "nonpayable",
      "type": "function"
    },
    {
      "constant": true,
      "inputs": [
        {
          "name": "_pubKey",
          "type": "bytes"
        },
        {
          "name": "_isCompressed",
          "type": "bool"
        }
      ],
      "name": "pubKeyToBitcoinAddress",
      "outputs": [
        {
          "name": "",
          "type": "bytes20"
        }
      ],
      "payable": false,
      "stateMutability": "pure",
      "type": "function"
    },
    {
      "constant": true,
      "inputs": [
        {
          "name": "_stakeAmount",
          "type": "uint256"
        }
      ],
      "name": "calculateCritMassRewards",
      "outputs": [
        {
          "name": "",
          "type": "uint256"
        }
      ],
      "payable": false,
      "stateMutability": "view",
      "type": "function"
    },
    {
      "constant": true,
      "inputs": [
        {
          "name": "_staker",
          "type": "address"
        },
        {
          "name": "_stakeIndex",
          "type": "uint256"
        }
      ],
      "name": "calculateSingleStakePlusRewards",
      "outputs": [
        {
          "name": "",
          "type": "uint256"
        }
      ],
      "payable": false,
      "stateMutability": "view",
      "type": "function"
    },
    {
      "constant": true,
      "inputs": [
        {
          "name": "_stakeAmount",
          "type": "uint256"
        },
        {
          "name": "_stakeTime",
          "type": "uint256"
        },
        {
          "name": "_unlockTime",
          "type": "uint256"
        }
      ],
      "name": "calculateWeAreAllSatoshiRewards",
      "outputs": [
        {
          "name": "",
          "type": "uint256"
        }
      ],
      "payable": false,
      "stateMutability": "view",
      "type": "function"
    },
    {
      "constant": true,
      "inputs": [],
      "name": "totalRedeemed",
      "outputs": [
        {
          "name": "",
          "type": "uint256"
        }
      ],
      "payable": false,
      "stateMutability": "view",
      "type": "function"
    },
    {
      "constant": true,
      "inputs": [
        {
          "name": "_principle",
          "type": "uint256"
        },
        {
          "name": "_periods",
          "type": "uint256"
        },
        {
          "name": "_rate",
          "type": "uint256"
        }
      ],
      "name": "compound",
      "outputs": [
        {
          "name": "",
          "type": "uint256"
        }
      ],
      "payable": false,
      "stateMutability": "pure",
      "type": "function"
    },
    {
      "constant": true,
      "inputs": [
        {
          "name": "_staker",
          "type": "address"
        },
        {
          "name": "_stakeIndex",
          "type": "uint256"
        }
      ],
      "name": "calculateStakingRewards",
      "outputs": [
        {
          "name": "",
          "type": "uint256"
        }
      ],
      "payable": false,
      "stateMutability": "view",
      "type": "function"
    },
    {
      "inputs": [
        {
          "name": "_originContract",
          "type": "address"
        },
        {
          "name": "_rootUtxoMerkleTreeHash",
          "type": "bytes32"
        },
        {
          "name": "_maximumRedeemable",
          "type": "uint256"
        },
        {
          "name": "_totalBtcCirculationAtFork",
          "type": "uint256"
        }
      ],
      "payable": false,
      "stateMutability": "nonpayable",
      "type": "constructor"
    },
    {
      "anonymous": false,
      "inputs": [
        {
          "indexed": true,
          "name": "_address",
          "type": "address"
        },
        {
          "indexed": false,
          "name": "_reward",
          "type": "uint256"
        }
      ],
      "name": "Mint",
      "type": "event"
    },
    {
      "anonymous": false,
      "inputs": [
        {
          "indexed": true,
          "name": "owner",
          "type": "address"
        },
        {
          "indexed": true,
          "name": "spender",
          "type": "address"
        },
        {
          "indexed": false,
          "name": "value",
          "type": "uint256"
        }
      ],
      "name": "Approval",
      "type": "event"
    },
    {
      "anonymous": false,
      "inputs": [
        {
          "indexed": true,
          "name": "from",
          "type": "address"
        },
        {
          "indexed": true,
          "name": "to",
          "type": "address"
        },
        {
          "indexed": false,
          "name": "value",
          "type": "uint256"
        }
      ],
      "name": "Transfer",
      "type": "event"
    }
  ],
  "bytecode": "0x6080604052600060075560006008556040805190810160405280600a81526020017f426974636f696e48657800000000000000000000000000000000000000000000815250600f90805190602001906200005b92919062000171565b506040805190810160405280600381526020017f424858000000000000000000000000000000000000000000000000000000000081525060109080519060200190620000a992919062000171565b506012601155348015620000bc57600080fd5b506040516080806200535383398101806040528101908080519060200190929190805190602001909291908051906020019092919080519060200190929190505050838383834260048190555083600360006101000a81548173ffffffffffffffffffffffffffffffffffffffff021916908373ffffffffffffffffffffffffffffffffffffffff16021790555082600a81600019169055508160098190555080600d81905550505050505050505062000220565b828054600181600116156101000203166002900490600052602060002090601f016020900481019282601f10620001b457805160ff1916838001178555620001e5565b82800160010185558215620001e5579182015b82811115620001e4578251825591602001919060010190620001c7565b5b509050620001f49190620001f8565b5090565b6200021d91905b8082111562000219576000816000905550600101620001ff565b5090565b90565b61512380620002306000396000f300608060405260043610610288576000357c0100000000000000000000000000000000000000000000000000000000900463ffffffff16806306fdde031461028d5780630867c0ad1461031d57806308b4312b146103bb578063095ea7b3146103e6578063128bfcae1461044b57806316043f5d1461049a5780631765f4bf146104c557806318160ddd146104f0578063229cfc321461051b57806323b872dd1461055c5780632c3ee88c146105e15780632c48d57b14610622578063313ce567146106515780634f265bf41461067c57806352aa3e6c146106a75780635418796c146106d257806365925c2b1461077b57806366188463146107a6578063687cf4a41461080b5780636aaf67e2146108545780636e0d6df21461088757806370a08231146108cf578063753bf8cd1461092657806375889a2b14610a25578063790ca41314610a805780637cdafe9d14610aab57806381437de814610b0c57806381cd84b914610b71578063842e298114610bfd5780638716391914610d6d5780638d854c3414610dba5780638f16981614610de5578063938b5f3214610e6257806394ce28e814610eb957806395d89b4114610ee45780639d65b89214610f74578063a9059cbb14610f9f578063b1ccf19314611004578063b242c9bf146110ca578063b80ac7df14611135578063bac5c048146111c1578063cb9c501f14611218578063ce267b5514611287578063cfc2334e14611351578063d73dd623146113f2578063dd62ed3e14611457578063e043ee9c146114ce578063e073ef69146114e5578063e26e7b501461158c578063e39a385a146115cd578063ebe558e91461162e578063f35dad4014611683578063f3c85eba146116ae578063f6c45d0214611703575b600080fd5b34801561029957600080fd5b506102a2611764565b6040518080602001828103825283818151815260200191508051906020019080838360005b838110156102e25780820151818401526020810190506102c7565b50505050905090810190601f16801561030f5780820380516001836020036101000a031916815260200191505b509250505060405180910390f35b34801561032957600080fd5b506103a16004803603810190808035600019169060200190929190803560ff16906020019092919080356000191690602001909291908035600019169060200190929190803573ffffffffffffffffffffffffffffffffffffffff169060200190929190803515159060200190929190505050611802565b604051808215151515815260200191505060405180910390f35b3480156103c757600080fd5b506103d06119ed565b6040518082815260200191505060405180910390f35b3480156103f257600080fd5b50610431600480360381019080803573ffffffffffffffffffffffffffffffffffffffff169060200190929190803590602001909291905050506119f3565b604051808215151515815260200191505060405180910390f35b34801561045757600080fd5b506104806004803603810190808035906020019092919080359060200190929190505050611ae5565b604051808215151515815260200191505060405180910390f35b3480156104a657600080fd5b506104af611de9565b6040518082815260200191505060405180910390f35b3480156104d157600080fd5b506104da611dee565b6040518082815260200191505060405180910390f35b3480156104fc57600080fd5b50610505611df4565b6040518082815260200191505060405180910390f35b34801561052757600080fd5b5061054660048036038101908080359060200190929190505050611dfe565b6040518082815260200191505060405180910390f35b34801561056857600080fd5b506105c7600480360381019080803573ffffffffffffffffffffffffffffffffffffffff169060200190929190803573ffffffffffffffffffffffffffffffffffffffff16906020019092919080359060200190929190505050611e43565b604051808215151515815260200191505060405180910390f35b3480156105ed57600080fd5b5061060c600480360381019080803590602001909291905050506121fd565b6040518082815260200191505060405180910390f35b34801561062e57600080fd5b50610637612577565b604051808215151515815260200191505060405180910390f35b34801561065d57600080fd5b5061066661258a565b6040518082815260200191505060405180910390f35b34801561068857600080fd5b50610691612590565b6040518082815260200191505060405180910390f35b3480156106b357600080fd5b506106bc612597565b6040518082815260200191505060405180910390f35b3480156106de57600080fd5b50610739600480360381019080803590602001908201803590602001908080601f016020809104026020016040519081016040528093929190818152602001838380828437820191505050505050919291929050505061259d565b604051808273ffffffffffffffffffffffffffffffffffffffff1673ffffffffffffffffffffffffffffffffffffffff16815260200191505060405180910390f35b34801561078757600080fd5b50610790612623565b6040518082815260200191505060405180910390f35b3480156107b257600080fd5b506107f1600480360381019080803573ffffffffffffffffffffffffffffffffffffffff1690602001909291908035906020019092919050505061262b565b604051808215151515815260200191505060405180910390f35b34801561081757600080fd5b5061083a60048036038101908080356000191690602001909291905050506128bc565b604051808215151515815260200191505060405180910390f35b34801561086057600080fd5b506108696128dc565b60405180826000191660001916815260200191505060405180910390f35b34801561089357600080fd5b506108b2600480360381019080803590602001909291905050506128e2565b604051808381526020018281526020019250505060405180910390f35b3480156108db57600080fd5b50610910600480360381019080803573ffffffffffffffffffffffffffffffffffffffff169060200190929190505050612906565b6040518082815260200191505060405180910390f35b34801561093257600080fd5b50610a0f6004803603810190808035906020019092919080359060200190820180359060200190808060200260200160405190810160405280939291908181526020018383602002808284378201915050505050509192919290803590602001908201803590602001908080601f0160208091040260200160405190810160405280939291908181526020018383808284378201915050505050509192919290803515159060200190929190803560ff1690602001909291908035600019169060200190929190803560001916906020019092919050505061294e565b6040518082815260200191505060405180910390f35b348015610a3157600080fd5b50610a66600480360381019080803573ffffffffffffffffffffffffffffffffffffffff169060200190929190505050612c0e565b604051808215151515815260200191505060405180910390f35b348015610a8c57600080fd5b50610a95612d93565b6040518082815260200191505060405180910390f35b348015610ab757600080fd5b50610af6600480360381019080803573ffffffffffffffffffffffffffffffffffffffff16906020019092919080359060200190929190505050612d99565b6040518082815260200191505060405180910390f35b348015610b1857600080fd5b50610b57600480360381019080803573ffffffffffffffffffffffffffffffffffffffff16906020019092919080359060200190929190505050612eab565b604051808215151515815260200191505060405180910390f35b348015610b7d57600080fd5b50610be3600480360381019080803560001916906020019092919080359060200190820180359060200190808060200260200160405190810160405280939291908181526020018383602002808284378201915050505050509192919290505050613369565b604051808215151515815260200191505060405180910390f35b348015610c0957600080fd5b50610c3e600480360381019080803573ffffffffffffffffffffffffffffffffffffffff1690602001909291905050506133b4565b6040518080602001806020018060200180602001858103855289818151815260200191508051906020019060200280838360005b83811015610c8d578082015181840152602081019050610c72565b50505050905001858103845288818151815260200191508051906020019060200280838360005b83811015610ccf578082015181840152602081019050610cb4565b50505050905001858103835287818151815260200191508051906020019060200280838360005b83811015610d11578082015181840152602081019050610cf6565b50505050905001858103825286818151815260200191508051906020019060200280838360005b83811015610d53578082015181840152602081019050610d38565b505050509050019850505050505050505060405180910390f35b348015610d7957600080fd5b50610db8600480360381019080803573ffffffffffffffffffffffffffffffffffffffff169060200190929190803590602001909291905050506135e6565b005b348015610dc657600080fd5b50610dcf6136d7565b6040518082815260200191505060405180910390f35b348015610df157600080fd5b50610e30600480360381019080803573ffffffffffffffffffffffffffffffffffffffff169060200190929190803590602001909291905050506136dd565b604051808681526020018581526020018481526020018381526020018281526020019550505050505060405180910390f35b348015610e6e57600080fd5b50610e7761372f565b604051808273ffffffffffffffffffffffffffffffffffffffff1673ffffffffffffffffffffffffffffffffffffffff16815260200191505060405180910390f35b348015610ec557600080fd5b50610ece613755565b6040518082815260200191505060405180910390f35b348015610ef057600080fd5b50610ef9613797565b6040518080602001828103825283818151815260200191508051906020019080838360005b83811015610f39578082015181840152602081019050610f1e565b50505050905090810190601f168015610f665780820380516001836020036101000a031916815260200191505b509250505060405180910390f35b348015610f8057600080fd5b50610f89613835565b6040518082815260200191505060405180910390f35b348015610fab57600080fd5b50610fea600480360381019080803573ffffffffffffffffffffffffffffffffffffffff1690602001909291908035906020019092919050505061383b565b604051808215151515815260200191505060405180910390f35b34801561101057600080fd5b506110b460048036038101908080359060200190929190803590602001908201803590602001919091929391929390803590602001908201803590602001919091929391929390803515159060200190929190803560ff16906020019092919080356000191690602001909291908035600019169060200190929190803573ffffffffffffffffffffffffffffffffffffffff169060200190929190505050613a5a565b6040518082815260200191505060405180910390f35b3480156110d657600080fd5b5061111f600480360381019080803573ffffffffffffffffffffffffffffffffffffffff1690602001909291908035906020019092919080359060200190929190505050613c2a565b6040518082815260200191505060405180910390f35b34801561114157600080fd5b506111a7600480360381019080803590602001908201803590602001908080602002602001604051908101604052809392919081815260200183836020028082843782019150505050505091929192908035600019169060200190929190505050613df3565b604051808215151515815260200191505060405180910390f35b3480156111cd57600080fd5b50611202600480360381019080803573ffffffffffffffffffffffffffffffffffffffff169060200190929190505050613e0a565b6040518082815260200191505060405180910390f35b34801561122457600080fd5b5061126d600480360381019080803573ffffffffffffffffffffffffffffffffffffffff1690602001909291908035906020019092919080359060200190929190505050613e64565b604051808215151515815260200191505060405180910390f35b34801561129357600080fd5b50611337600480360381019080803573ffffffffffffffffffffffffffffffffffffffff169060200190929190803590602001908201803590602001908080601f0160208091040260200160405190810160405280939291908181526020018383808284378201915050505050509192919290803560ff16906020019092919080356000191690602001909291908035600019169060200190929190505050613f6e565b604051808215151515815260200191505060405180910390f35b34801561135d57600080fd5b506113d860048036038101908080356bffffffffffffffffffffffff19169060200190929190803590602001909291908035906020019082018035906020019080806020026020016040519081016040528093929190818152602001838360200280828437820191505050505050919291929050505061408d565b604051808215151515815260200191505060405180910390f35b3480156113fe57600080fd5b5061143d600480360381019080803573ffffffffffffffffffffffffffffffffffffffff1690602001909291908035906020019092919050505061414e565b604051808215151515815260200191505060405180910390f35b34801561146357600080fd5b506114b8600480360381019080803573ffffffffffffffffffffffffffffffffffffffff169060200190929190803573ffffffffffffffffffffffffffffffffffffffff16906020019092919050505061434a565b6040518082815260200191505060405180910390f35b3480156114da57600080fd5b506114e36143d1565b005b3480156114f157600080fd5b50611558600480360381019080803590602001908201803590602001908080601f0160208091040260200160405190810160405280939291908181526020018383808284378201915050505050509192919290803515159060200190929190505050614480565b60405180826bffffffffffffffffffffffff19166bffffffffffffffffffffffff1916815260200191505060405180910390f35b34801561159857600080fd5b506115b76004803603810190808035906020019092919050505061483f565b6040518082815260200191505060405180910390f35b3480156115d957600080fd5b50611618600480360381019080803573ffffffffffffffffffffffffffffffffffffffff16906020019092919080359060200190929190505050614884565b6040518082815260200191505060405180910390f35b34801561163a57600080fd5b5061166d60048036038101908080359060200190929190803590602001909291908035906020019092919050505061497a565b6040518082815260200191505060405180910390f35b34801561168f57600080fd5b50611698614ac3565b6040518082815260200191505060405180910390f35b3480156116ba57600080fd5b506116ed600480360381019080803590602001909291908035906020019092919080359060200190929190505050614ac9565b6040518082815260200191505060405180910390f35b34801561170f57600080fd5b5061174e600480360381019080803573ffffffffffffffffffffffffffffffffffffffff16906020019092919080359060200190929190505050614bc6565b6040518082815260200191505060405180910390f35b600f8054600181600116156101000203166002900480601f0160208091040260200160405190810160405280929190818152602001828054600181600116156101000203166002900480156117fa5780601f106117cf576101008083540402835291602001916117fa565b820191906000526020600020905b8154815290600101906020018083116117dd57829003601f168201915b505050505081565b600080606083151561181657889150611930565b6040805190810160405280601c81526020017f19457468657265756d205369676e6564204d6573736167653a0a333200000000815250905080896040516020018083805190602001908083835b6020831015156118885780518252602082019150602081019050602083039250611863565b6001836020036101000a0380198251168184511680821785525050505050509050018260001916600019168152602001925050506040516020818303038152906040526040518082805190602001908083835b60208310151561190057805182526020820191506020810190506020830392506118db565b6001836020036101000a038019825116818451168082178552505050505050905001915050604051809103902091505b8473ffffffffffffffffffffffffffffffffffffffff166001838a8a8a604051600081526020016040526040518085600019166000191681526020018460ff1660ff1681526020018360001916600019168152602001826000191660001916815260200194505050505060206040516020810390808403906000865af11580156119be573d6000803e3d6000fd5b5050506020604051035173ffffffffffffffffffffffffffffffffffffffff1614925050509695505050505050565b60095481565b600081600260003373ffffffffffffffffffffffffffffffffffffffff1673ffffffffffffffffffffffffffffffffffffffff16815260200190815260200160002060008573ffffffffffffffffffffffffffffffffffffffff1673ffffffffffffffffffffffffffffffffffffffff168152602001908152602001600020819055508273ffffffffffffffffffffffffffffffffffffffff163373ffffffffffffffffffffffffffffffffffffffff167f8c5be1e5ebec7d5bd14f71427d1e84f3dd0314c0f7b2291e5b200ac8c7c3b925846040518082815260200191505060405180910390a36001905092915050565b600080339050836000808373ffffffffffffffffffffffffffffffffffffffff1673ffffffffffffffffffffffffffffffffffffffff1681526020019081526020016000205410151515611b3857600080fd5b611b4f6312cc030042614d4c90919063ffffffff16565b8311151515611b5d57600080fd5b611b656143d1565b611bb6846000808473ffffffffffffffffffffffffffffffffffffffff1673ffffffffffffffffffffffffffffffffffffffff16815260200190815260200160002054614d6890919063ffffffff16565b6000808373ffffffffffffffffffffffffffffffffffffffff1673ffffffffffffffffffffffffffffffffffffffff16815260200190815260200160002081905550611c49846000803073ffffffffffffffffffffffffffffffffffffffff1673ffffffffffffffffffffffffffffffffffffffff16815260200190815260200160002054614d4c90919063ffffffff16565b6000803073ffffffffffffffffffffffffffffffffffffffff1673ffffffffffffffffffffffffffffffffffffffff16815260200190815260200160002081905550600e60008273ffffffffffffffffffffffffffffffffffffffff1673ffffffffffffffffffffffffffffffffffffffff16815260200190815260200160002060a06040519081016040528086815260200142815260200185815260200160065481526020016001548152509080600181540180825580915050906001820390600052602060002090600502016000909192909190915060008201518160000155602082015181600101556040820151816002015560608201518160030155608082015181600401555050506000611db782611db26001600e60008773ffffffffffffffffffffffffffffffffffffffff1673ffffffffffffffffffffffffffffffffffffffff16815260200190815260200160002080549050614d6890919063ffffffff16565b614bc6565b111515611dc357600080fd5b611dd884600654614d4c90919063ffffffff16565b600681905550600191505092915050565b600181565b60065481565b6000600154905090565b6000611e3c600a611e2e600d54611e2060085487614d8190919063ffffffff16565b614db990919063ffffffff16565b614db990919063ffffffff16565b9050919050565b60008073ffffffffffffffffffffffffffffffffffffffff168373ffffffffffffffffffffffffffffffffffffffff1614151515611e8057600080fd5b6000808573ffffffffffffffffffffffffffffffffffffffff1673ffffffffffffffffffffffffffffffffffffffff168152602001908152602001600020548211151515611ecd57600080fd5b600260008573ffffffffffffffffffffffffffffffffffffffff1673ffffffffffffffffffffffffffffffffffffffff16815260200190815260200160002060003373ffffffffffffffffffffffffffffffffffffffff1673ffffffffffffffffffffffffffffffffffffffff168152602001908152602001600020548211151515611f5857600080fd5b611fa9826000808773ffffffffffffffffffffffffffffffffffffffff1673ffffffffffffffffffffffffffffffffffffffff16815260200190815260200160002054614d6890919063ffffffff16565b6000808673ffffffffffffffffffffffffffffffffffffffff1673ffffffffffffffffffffffffffffffffffffffff1681526020019081526020016000208190555061203c826000808673ffffffffffffffffffffffffffffffffffffffff1673ffffffffffffffffffffffffffffffffffffffff16815260200190815260200160002054614d4c90919063ffffffff16565b6000808573ffffffffffffffffffffffffffffffffffffffff1673ffffffffffffffffffffffffffffffffffffffff1681526020019081526020016000208190555061210d82600260008773ffffffffffffffffffffffffffffffffffffffff1673ffffffffffffffffffffffffffffffffffffffff16815260200190815260200160002060003373ffffffffffffffffffffffffffffffffffffffff1673ffffffffffffffffffffffffffffffffffffffff16815260200190815260200160002054614d6890919063ffffffff16565b600260008673ffffffffffffffffffffffffffffffffffffffff1673ffffffffffffffffffffffffffffffffffffffff16815260200190815260200160002060003373ffffffffffffffffffffffffffffffffffffffff1673ffffffffffffffffffffffffffffffffffffffff168152602001908152602001600020819055508273ffffffffffffffffffffffffffffffffffffffff168473ffffffffffffffffffffffffffffffffffffffff167fddf252ad1be2c89b69c2b068fc378daa952ba7f163c4a11628f55a4df523b3ef846040518082815260200191505060405180910390a3600190509392505050565b600080600080600061221d6402540be40087614d8190919063ffffffff16565b9350683635c9adc5dea000008411156122b65769152d02c7e14af680000084101561229e57612297640ba43b7400612289600961227b600261226d64174876e8008b614d6890919063ffffffff16565b614d8190919063ffffffff16565b614db990919063ffffffff16565b614d4c90919063ffffffff16565b93506122b5565b6122b2600485614db990919063ffffffff16565b93505b5b42600454106122c65760006122f1565b6122f062093a806122e260045442614d6890919063ffffffff16565b614db990919063ffffffff16565b5b925061231a61230a600285614d8190919063ffffffff16565b6064614d6890919063ffffffff16565b915061234260646123348487614d8190919063ffffffff16565b614db990919063ffffffff16565b9050602d8311156123555780945061256e565b602083111561238c576123856064612377606584614d8190919063ffffffff16565b614db990919063ffffffff16565b945061256e565b60188311156123c3576123bc60646123ae606684614d8190919063ffffffff16565b614db990919063ffffffff16565b945061256e565b60128311156123fa576123f360646123e5606784614d8190919063ffffffff16565b614db990919063ffffffff16565b945061256e565b600e8311156124315761242a606461241c606884614d8190919063ffffffff16565b614db990919063ffffffff16565b945061256e565b600a831115612468576124616064612453606984614d8190919063ffffffff16565b614db990919063ffffffff16565b945061256e565b600783111561249f57612498606461248a606a84614d8190919063ffffffff16565b614db990919063ffffffff16565b945061256e565b60058311156124d6576124cf60646124c1606b84614d8190919063ffffffff16565b614db990919063ffffffff16565b945061256e565b600383111561250d5761250660646124f8606c84614d8190919063ffffffff16565b614db990919063ffffffff16565b945061256e565b60018311156125445761253d606461252f606d84614d8190919063ffffffff16565b614db990919063ffffffff16565b945061256e565b61256b606461255d606e84614d8190919063ffffffff16565b614db990919063ffffffff16565b94505b50505050919050565b60006032612583613755565b1115905090565b60115481565b620d2f0081565b60085481565b600073ffffffffffffffffffffffffffffffffffffffff826040518082805190602001908083835b6020831015156125ea57805182526020820191506020810190506020830392506125c5565b6001836020036101000a038019825116818451168082178552505050505050905001915050604051809103902060019004169050919050565b6312cc030081565b600080600260003373ffffffffffffffffffffffffffffffffffffffff1673ffffffffffffffffffffffffffffffffffffffff16815260200190815260200160002060008573ffffffffffffffffffffffffffffffffffffffff1673ffffffffffffffffffffffffffffffffffffffff1681526020019081526020016000205490508083111561273c576000600260003373ffffffffffffffffffffffffffffffffffffffff1673ffffffffffffffffffffffffffffffffffffffff16815260200190815260200160002060008673ffffffffffffffffffffffffffffffffffffffff1673ffffffffffffffffffffffffffffffffffffffff168152602001908152602001600020819055506127d0565b61274f8382614d6890919063ffffffff16565b600260003373ffffffffffffffffffffffffffffffffffffffff1673ffffffffffffffffffffffffffffffffffffffff16815260200190815260200160002060008673ffffffffffffffffffffffffffffffffffffffff1673ffffffffffffffffffffffffffffffffffffffff168152602001908152602001600020819055505b8373ffffffffffffffffffffffffffffffffffffffff163373ffffffffffffffffffffffffffffffffffffffff167f8c5be1e5ebec7d5bd14f71427d1e84f3dd0314c0f7b2291e5b200ac8c7c3b925600260003373ffffffffffffffffffffffffffffffffffffffff1673ffffffffffffffffffffffffffffffffffffffff16815260200190815260200160002060008873ffffffffffffffffffffffffffffffffffffffff1673ffffffffffffffffffffffffffffffffffffffff168152602001908152602001600020546040518082815260200191505060405180910390a3600191505092915050565b600c6020528060005260406000206000915054906101000a900460ff1681565b600a5481565b600b6020528060005260406000206000915090508060000154908060010154905082565b60008060008373ffffffffffffffffffffffffffffffffffffffff1673ffffffffffffffffffffffffffffffffffffffff168152602001908152602001600020549050919050565b6000806000600454421015151561296457600080fd5b61296c6143d1565b6129768888614480565b9150818a60405160200180836bffffffffffffffffffffffff19166bffffffffffffffffffffffff19168152601401828152602001925050506040516020818303038152906040526040518082805190602001908083835b6020831015156129f357805182526020820191506020810190506020830392506129ce565b6001836020036101000a03801982511681845116808217855250505050505090500191505060405180910390209050612a2c818a613369565b1515612a3757600080fd5b612a443389888888613f6e565b1515612a4f57600080fd5b6001600c6000836000191660001916815260200190815260200160002060006101000a81548160ff021916908315150217905550612a8c8a6121fd565b9250600954612aa684600754614d4c90919063ffffffff16565b11151515612ab357600080fd5b612ac883600754614d4c90919063ffffffff16565b600781905550612b1f836000803373ffffffffffffffffffffffffffffffffffffffff1673ffffffffffffffffffffffffffffffffffffffff16815260200190815260200160002054614d4c90919063ffffffff16565b6000803373ffffffffffffffffffffffffffffffffffffffff1673ffffffffffffffffffffffffffffffffffffffff16815260200190815260200160002081905550612b7683600154614d4c90919063ffffffff16565b600181905550612b926001600854614d4c90919063ffffffff16565b6008819055503373ffffffffffffffffffffffffffffffffffffffff16600073ffffffffffffffffffffffffffffffffffffffff167fddf252ad1be2c89b69c2b068fc378daa952ba7f163c4a11628f55a4df523b3ef856040518082815260200191505060405180910390a38292505050979650505050505050565b600080600080600e60008673ffffffffffffffffffffffffffffffffffffffff1673ffffffffffffffffffffffffffffffffffffffff16815260200190815260200160002080549050925060009150600090506000831415612c735760009350612d8b565b5b82821015612d8657600e60008673ffffffffffffffffffffffffffffffffffffffff1673ffffffffffffffffffffffffffffffffffffffff16815260200190815260200160002080549050612cd3600183614d4c90919063ffffffff16565b11612cde5780612ce1565b60005b9050600e60008673ffffffffffffffffffffffffffffffffffffffff1673ffffffffffffffffffffffffffffffffffffffff16815260200190815260200160002081815481101515612d2f57fe5b90600052602060002090600502016002015442101515612d5557612d538582612eab565b505b612d69600183614d4c90919063ffffffff16565b9150612d7f600182614d4c90919063ffffffff16565b9050612c74565b600193505b505050919050565b60045481565b600080600080600080600e60008973ffffffffffffffffffffffffffffffffffffffff1673ffffffffffffffffffffffffffffffffffffffff16815260200190815260200160002087815481101515612dee57fe5b906000526020600020906005020194506032612e2e62093a80612e206004548960010154614d6890919063ffffffff16565b614db990919063ffffffff16565b111515612e9b57612e4c85600001548660010154876002015461497a565b9350612e5b8560000154611dfe565b9250612e6a856000015461483f565b9150612e9182612e838587614d4c90919063ffffffff16565b614d4c90919063ffffffff16565b9050809550612ea0565b600095505b505050505092915050565b6000612eb561504e565b600080600080600e60008973ffffffffffffffffffffffffffffffffffffffff1673ffffffffffffffffffffffffffffffffffffffff16815260200190815260200160002087815481101515612f0757fe5b906000526020600020906005020160a0604051908101604052908160008201548152602001600182015481526020016002820154815260200160038201548152602001600482015481525050945084604001514210151515612f6857600080fd5b612f706143d1565b84600001519350612f818888614bc6565b9250612f8d8888612d99565b9150612fb482612fa68587614d4c90919063ffffffff16565b614d4c90919063ffffffff16565b9050612fcb84600654614d6890919063ffffffff16565b600681905550613022846000803073ffffffffffffffffffffffffffffffffffffffff1673ffffffffffffffffffffffffffffffffffffffff16815260200190815260200160002054614d6890919063ffffffff16565b6000803073ffffffffffffffffffffffffffffffffffffffff1673ffffffffffffffffffffffffffffffffffffffff168152602001908152602001600020819055506130b5816000808b73ffffffffffffffffffffffffffffffffffffffff1673ffffffffffffffffffffffffffffffffffffffff16815260200190815260200160002054614d4c90919063ffffffff16565b6000808a73ffffffffffffffffffffffffffffffffffffffff1673ffffffffffffffffffffffffffffffffffffffff1681526020019081526020016000208190555061316a82600080600360009054906101000a900473ffffffffffffffffffffffffffffffffffffffff1673ffffffffffffffffffffffffffffffffffffffff1673ffffffffffffffffffffffffffffffffffffffff16815260200190815260200160002054614d4c90919063ffffffff16565b600080600360009054906101000a900473ffffffffffffffffffffffffffffffffffffffff1673ffffffffffffffffffffffffffffffffffffffff1673ffffffffffffffffffffffffffffffffffffffff168152602001908152602001600020819055508773ffffffffffffffffffffffffffffffffffffffff163073ffffffffffffffffffffffffffffffffffffffff167fddf252ad1be2c89b69c2b068fc378daa952ba7f163c4a11628f55a4df523b3ef87600001516040518082815260200191505060405180910390a361324c83600154614d4c90919063ffffffff16565b60018190555061327a613269600284614d8190919063ffffffff16565b600154614d4c90919063ffffffff16565b6001819055508773ffffffffffffffffffffffffffffffffffffffff167f0f6798a560793a54c3bcfe86a93cde1e73087d944c0ea20544137d41213968856132cb8585614d4c90919063ffffffff16565b6040518082815260200191505060405180910390a2600360009054906101000a900473ffffffffffffffffffffffffffffffffffffffff1673ffffffffffffffffffffffffffffffffffffffff167f0f6798a560793a54c3bcfe86a93cde1e73087d944c0ea20544137d4121396885836040518082815260200191505060405180910390a261335a88886135e6565b60019550505050505092915050565b6000801515600c6000856000191660001916815260200190815260200160002060009054906101000a900460ff1615151480156133ac57506133ab8284613df3565b5b905092915050565b6060806060806000606080606080600080600e60008d73ffffffffffffffffffffffffffffffffffffffff1673ffffffffffffffffffffffffffffffffffffffff168152602001908152602001600020805490509650866040519080825280602002602001820160405280156134395781602001602082028038833980820191505090505b5095508660405190808252806020026020018201604052801561346b5781602001602082028038833980820191505090505b5094508660405190808252806020026020018201604052801561349d5781602001602082028038833980820191505090505b509350866040519080825280602002602001820160405280156134cf5781602001602082028038833980820191505090505b509250600091505b868210156135cc57600e60008d73ffffffffffffffffffffffffffffffffffffffff1673ffffffffffffffffffffffffffffffffffffffff1681526020019081526020016000208281548110151561352b57fe5b906000526020600020906005020190508060000154868381518110151561354e57fe5b90602001906020020181815250508060010154858381518110151561356f57fe5b90602001906020020181815250508060020154848381518110151561359057fe5b9060200190602002018181525050806003015483838151811015156135b157fe5b906020019060200201818152505081806001019250506134d7565b858585859a509a509a509a50505050505050509193509193565b6000600e60008473ffffffffffffffffffffffffffffffffffffffff1673ffffffffffffffffffffffffffffffffffffffff16815260200190815260200160002090508061364260018380549050614d6890919063ffffffff16565b81548110151561364e57fe5b9060005260206000209060050201818381548110151561366a57fe5b906000526020600020906005020160008201548160000155600182015481600101556002820154816002015560038201548160030155600482015481600401559050506136c560018280549050614d6890919063ffffffff16565b81816136d1919061507e565b50505050565b600d5481565b600e602052816000526040600020818154811015156136f857fe5b9060005260206000209060050201600091509150508060000154908060010154908060020154908060030154908060040154905085565b600360009054906101000a900473ffffffffffffffffffffffffffffffffffffffff1681565b60006004544211613767576000613792565b61379162093a8061378360045442614d6890919063ffffffff16565b614db990919063ffffffff16565b5b905090565b60108054600181600116156101000203166002900480601f01602080910402602001604051908101604052809291908181526020018280546001816001161561010002031660029004801561382d5780601f106138025761010080835404028352916020019161382d565b820191906000526020600020905b81548152906001019060200180831161381057829003601f168201915b505050505081565b60055481565b60008073ffffffffffffffffffffffffffffffffffffffff168373ffffffffffffffffffffffffffffffffffffffff161415151561387857600080fd5b6000803373ffffffffffffffffffffffffffffffffffffffff1673ffffffffffffffffffffffffffffffffffffffff1681526020019081526020016000205482111515156138c557600080fd5b613916826000803373ffffffffffffffffffffffffffffffffffffffff1673ffffffffffffffffffffffffffffffffffffffff16815260200190815260200160002054614d6890919063ffffffff16565b6000803373ffffffffffffffffffffffffffffffffffffffff1673ffffffffffffffffffffffffffffffffffffffff168152602001908152602001600020819055506139a9826000808673ffffffffffffffffffffffffffffffffffffffff1673ffffffffffffffffffffffffffffffffffffffff16815260200190815260200160002054614d4c90919063ffffffff16565b6000808573ffffffffffffffffffffffffffffffffffffffff1673ffffffffffffffffffffffffffffffffffffffff168152602001908152602001600020819055508273ffffffffffffffffffffffffffffffffffffffff163373ffffffffffffffffffffffffffffffffffffffff167fddf252ad1be2c89b69c2b068fc378daa952ba7f163c4a11628f55a4df523b3ef846040518082815260200191505060405180910390a36001905092915050565b60003373ffffffffffffffffffffffffffffffffffffffff168273ffffffffffffffffffffffffffffffffffffffff1614151515613a9757600080fd5b600073ffffffffffffffffffffffffffffffffffffffff168273ffffffffffffffffffffffffffffffffffffffff1614151515613ad357600080fd5b613b438b8b8b808060200260200160405190810160405280939291908181526020018383602002808284378201915050505050508a8a8080601f0160208091040260200160405190810160405280939291908181526020018383808284378201915050505050508989898961294e565b9050613ba9613b5c601483614db990919063ffffffff16565b6000808573ffffffffffffffffffffffffffffffffffffffff1673ffffffffffffffffffffffffffffffffffffffff16815260200190815260200160002054614d4c90919063ffffffff16565b6000808473ffffffffffffffffffffffffffffffffffffffff1673ffffffffffffffffffffffffffffffffffffffff16815260200190815260200160002081905550613c13613c02601483614db990919063ffffffff16565b600154614d4c90919063ffffffff16565b6001819055508090509a9950505050505050505050565b6000806000806001600e60008973ffffffffffffffffffffffffffffffffffffffff1673ffffffffffffffffffffffffffffffffffffffff16815260200190815260200160002080549050039250828511151515613c8757600080fd5b60008610151515613c9757600080fd5b6000600e60008973ffffffffffffffffffffffffffffffffffffffff1673ffffffffffffffffffffffffffffffffffffffff168152602001908152602001600020805490501415613ceb5760009350613de9565b84861415613d5957600e60008873ffffffffffffffffffffffffffffffffffffffff1673ffffffffffffffffffffffffffffffffffffffff1681526020019081526020016000206000815481101515613d4057fe5b9060005260206000209060050201600001549350613de9565b8590505b8481111515613de557613dd6600e60008973ffffffffffffffffffffffffffffffffffffffff1673ffffffffffffffffffffffffffffffffffffffff16815260200190815260200160002082815481101515613db557fe5b90600052602060002090600502016000015483614d4c90919063ffffffff16565b91508080600101915050613d5d565b8193505b5050509392505050565b6000613e0283600a5484614dcf565b905092915050565b6000613e5d8260006001600e60008773ffffffffffffffffffffffffffffffffffffffff1673ffffffffffffffffffffffffffffffffffffffff1681526020019081526020016000208054905003613c2a565b9050919050565b600080828411151515613e7657600080fd5b600e60008673ffffffffffffffffffffffffffffffffffffffff1673ffffffffffffffffffffffffffffffffffffffff1681526020019081526020016000208054905083101515613ec657600080fd5b8390505b8281111515613f6257600e60008673ffffffffffffffffffffffffffffffffffffffff1673ffffffffffffffffffffffffffffffffffffffff1681526020019081526020016000206000815481101515613f2057fe5b90600052602060002090600502016002015442101515613f5d57613f45856000612eab565b50613f5a600182614d4c90919063ffffffff16565b90505b613eca565b60019150509392505050565b6000614082600287604051602001808273ffffffffffffffffffffffffffffffffffffffff1673ffffffffffffffffffffffffffffffffffffffff166c010000000000000000000000000281526014019150506040516020818303038152906040526040518082805190602001908083835b6020831015156140055780518252602082019150602081019050602083039250613fe0565b6001836020036101000a0380198251168184511680821785525050505050509050019150506020604051808303816000865af1158015614049573d6000803e3d6000fd5b5050506040513d602081101561405e57600080fd5b810190808051906020019092919050505085858561407b8a61259d565b6000611802565b905095945050505050565b600080848460405160200180836bffffffffffffffffffffffff19166bffffffffffffffffffffffff19168152601401828152602001925050506040516020818303038152906040526040518082805190602001908083835b60208310151561410b57805182526020820191506020810190506020830392506140e6565b6001836020036101000a038019825116818451168082178552505050505050905001915050604051809103902090506141448184613369565b9150509392505050565b60006141df82600260003373ffffffffffffffffffffffffffffffffffffffff1673ffffffffffffffffffffffffffffffffffffffff16815260200190815260200160002060008673ffffffffffffffffffffffffffffffffffffffff1673ffffffffffffffffffffffffffffffffffffffff16815260200190815260200160002054614d4c90919063ffffffff16565b600260003373ffffffffffffffffffffffffffffffffffffffff1673ffffffffffffffffffffffffffffffffffffffff16815260200190815260200160002060008573ffffffffffffffffffffffffffffffffffffffff1673ffffffffffffffffffffffffffffffffffffffff168152602001908152602001600020819055508273ffffffffffffffffffffffffffffffffffffffff163373ffffffffffffffffffffffffffffffffffffffff167f8c5be1e5ebec7d5bd14f71427d1e84f3dd0314c0f7b2291e5b200ac8c7c3b925600260003373ffffffffffffffffffffffffffffffffffffffff1673ffffffffffffffffffffffffffffffffffffffff16815260200190815260200160002060008773ffffffffffffffffffffffffffffffffffffffff1673ffffffffffffffffffffffffffffffffffffffff168152602001908152602001600020546040518082815260200191505060405180910390a36001905092915050565b6000600260008473ffffffffffffffffffffffffffffffffffffffff1673ffffffffffffffffffffffffffffffffffffffff16815260200190815260200160002060008373ffffffffffffffffffffffffffffffffffffffff1673ffffffffffffffffffffffffffffffffffffffff16815260200190815260200160002054905092915050565b6000806143fe62093a806143f060045442614d6890919063ffffffff16565b614db990919063ffffffff16565b915060328211158015614412575060055482115b1561447c5761442e600754600954614d6890919063ffffffff16565b90506040805190810160405280828152602001600654815250600b60006001850381526020019081526020016000206000820151816000015560208201518160010155905050816005819055505b5050565b600080600080614491866000614f72565b6001900492506144a2866020614f72565b600190049150841561467e5760006002838115156144bc57fe5b06146144c95760036144cc565b60025b9050600360028285604051602001808360ff1660ff167f0100000000000000000000000000000000000000000000000000000000000000028152600101828152602001925050506040516020818303038152906040526040518082805190602001908083835b6020831015156145575780518252602082019150602081019050602083039250614532565b6001836020036101000a0380198251168184511680821785525050505050509050019150506020604051808303816000865af115801561459b573d6000803e3d6000fd5b5050506040513d60208110156145b057600080fd5b81019080805190602001909291905050506040516020018082600019166000191681526020019150506040516020818303038152906040526040518082805190602001908083835b60208310151561461d57805182526020820191506020810190506020830392506145f8565b6001836020036101000a0380198251168184511680821785525050505050509050019150506020604051808303816000865af1158015614661573d6000803e3d6000fd5b505050604051516c01000000000000000000000000029350614836565b6004905060036002828585604051602001808460ff1660ff167f010000000000000000000000000000000000000000000000000000000000000002815260010183815260200182815260200193505050506040516020818303038152906040526040518082805190602001908083835b60208310151561471357805182526020820191506020810190506020830392506146ee565b6001836020036101000a0380198251168184511680821785525050505050509050019150506020604051808303816000865af1158015614757573d6000803e3d6000fd5b5050506040513d602081101561476c57600080fd5b81019080805190602001909291905050506040516020018082600019166000191681526020019150506040516020818303038152906040526040518082805190602001908083835b6020831015156147d957805182526020820191506020810190506020830392506147b4565b6001836020036101000a0380198251168184511680821785525050505050509050019150506020604051808303816000865af115801561481d573d6000803e3d6000fd5b505050604051516c010000000000000000000000000293505b50505092915050565b600061487d600a61486f60095461486160075487614d8190919063ffffffff16565b614db990919063ffffffff16565b614db990919063ffffffff16565b9050919050565b600080600e60008573ffffffffffffffffffffffffffffffffffffffff1673ffffffffffffffffffffffffffffffffffffffff168152602001908152602001600020838154811015156148d357fe5b9060005260206000209060050201600001549050600e60008573ffffffffffffffffffffffffffffffffffffffff1673ffffffffffffffffffffffffffffffffffffffff1681526020019081526020016000208381548110151561493357fe5b90600052602060002090600502016002015442111561496f576149686149598585612d99565b82614d4c90919063ffffffff16565b9150614973565b8091505b5092915050565b600080600080600080600080600096506149b462093a806149a66004548d614d6890919063ffffffff16565b614db990919063ffffffff16565b95506149e062093a806149d26004548c614d6890919063ffffffff16565b614db990919063ffffffff16565b9450603285116149f057846149f3565b60325b93508592505b83831015614ab257614a3d600b600085815260200190815260200160002060010154614a2f60648e614d8190919063ffffffff16565b614db990919063ffffffff16565b9150614a8e6064614a8084614a726032600b60008a815260200190815260200160002060000154614db990919063ffffffff16565b614d8190919063ffffffff16565b614db990919063ffffffff16565b9050614aa38188614d4c90919063ffffffff16565b965082806001019350506149f9565b869750505050505050509392505050565b60075481565b600080600080600080600a94508488811515614ae157fe5b069350614af78589614db990919063ffffffff16565b9250614b116402540be4008a614db990919063ffffffff16565b9150600090505b82811015614b6857614b4b856127100a614b3d878a0a85614d8190919063ffffffff16565b614db990919063ffffffff16565b9150614b61600182614d4c90919063ffffffff16565b9050614b18565b600084141515614ba057614b9d846127100a614b8f868a0a85614d8190919063ffffffff16565b614db990919063ffffffff16565b91505b614bb86402540be40083614d8190919063ffffffff16565b955050505050509392505050565b600080600080600080600080600080600e60008d73ffffffffffffffffffffffffffffffffffffffff1673ffffffffffffffffffffffffffffffffffffffff1681526020019081526020016000208b815481101515614c2157fe5b90600052602060002090600502019850614c4660646001614d8190919063ffffffff16565b9750600196506064955060008960030154141515614cca57614c8c8960040154614c7e60648c60030154614d8190919063ffffffff16565b614db990919063ffffffff16565b945060008511614c9d576001614c9f565b845b9650614cb48789614db990919063ffffffff16565b935060008411614cc5576001614cc7565b835b95505b614cdf61271087614d4c90919063ffffffff16565b9250614d11620d2f00614d038b600101548c60020154614d6890919063ffffffff16565b614db990919063ffffffff16565b9150614d2289600001548385614ac9565b9050614d3b896000015482614d6890919063ffffffff16565b995050505050505050505092915050565b60008183019050828110151515614d5f57fe5b80905092915050565b6000828211151515614d7657fe5b818303905092915050565b600080831415614d945760009050614db3565b8183029050818382811515614da557fe5b04141515614daf57fe5b8090505b92915050565b60008183811515614dc657fe5b04905092915050565b600080600080849250600091505b8651821015614f5b578682815181101515614df457fe5b906020019060200201519050806000191683600019161015614eb15782816040516020018083600019166000191681526020018260001916600019168152602001925050506040516020818303038152906040526040518082805190602001908083835b602083101515614e7d5780518252602082019150602081019050602083039250614e58565b6001836020036101000a03801982511681845116808217855250505050505090500191505060405180910390209250614f4e565b80836040516020018083600019166000191681526020018260001916600019168152602001925050506040516020818303038152906040526040518082805190602001908083835b602083101515614f1e5780518252602082019150602081019050602083039250614ef9565b6001836020036101000a038019825116818451168082178552505050505050905001915050604051809103902092505b8180600101925050614ddd565b856000191683600019161493505050509392505050565b600080600090505b6020811015615044576008810284848301815181101515614f9757fe5b9060200101517f010000000000000000000000000000000000000000000000000000000000000090047f0100000000000000000000000000000000000000000000000000000000000000027effffffffffffffffffffffffffffffffffffffffffffffffffffffffffffff19167fff0000000000000000000000000000000000000000000000000000000000000060010216600019169060020a9004821891508080600101915050614f7a565b8191505092915050565b60a06040519081016040528060008152602001600081526020016000815260200160008152602001600081525090565b8154818355818111156150ab576005028160050283600052602060002091820191016150aa91906150b0565b5b505050565b6150f491905b808211156150f0576000808201600090556001820160009055600282016000905560038201600090556004820160009055506005016150b6565b5090565b905600a165627a7a72305820189e5f3aab38d2a054f6d110602ad6f29f35f9d8e6c11cd3fce3d1dcbd9cc6240029",
  "source": "pragma solidity >=0.4.23;\n\nimport \"../BitcoinHex.sol\";\n\n\n// this will allow us to initialize block timestamp or wrap any internal functions and make them assessible to white box testing\ncontract BitcoinHexStub is BitcoinHex {\n  constructor(\n    address _originContract,\n    bytes32 _rootUtxoMerkleTreeHash,\n    uint256 _maximumRedeemable,\n    uint256 _totalBtcCirculationAtFork\n  ) \n    public \n    BitcoinHex(\n      _originContract,\n      _rootUtxoMerkleTreeHash,\n      _maximumRedeemable,\n      _totalBtcCirculationAtFork\n    )\n  {}    \n}\n",
  "sourcePath": "/Users/tovarishfin/dev/bhx/bhx-contracts/contracts/stubs/BitcoinHexStub.sol",
  "compiler": {
    "name": "solc",
    "version": "0.4.24+commit.e67f0147.Emscripten.clang"
  },
  "schemaVersion": "2.0.1",
  "updatedAt": "2018-08-15T14:27:34.537Z"
}