{
  "contractName": "BitcoinHex",
  "abi": [
    {
      "constant": true,
      "inputs": [],
      "name": "name",
      "outputs": [
        {
          "name": "",
          "type": "string"
        }
      ],
      "payable": false,
      "stateMutability": "view",
      "type": "function"
    },
    {
      "constant": true,
      "inputs": [
        {
          "name": "_hash",
          "type": "bytes32"
        },
        {
          "name": "_v",
          "type": "uint8"
        },
        {
          "name": "_r",
          "type": "bytes32"
        },
        {
          "name": "_s",
          "type": "bytes32"
        },
        {
          "name": "_expected",
          "type": "address"
        },
        {
          "name": "_addPrefix",
          "type": "bool"
        }
      ],
      "name": "validateSignature",
      "outputs": [
        {
          "name": "",
          "type": "bool"
        }
      ],
      "payable": false,
      "stateMutability": "pure",
      "type": "function"
    },
    {
      "constant": true,
      "inputs": [],
      "name": "maximumRedeemable",
      "outputs": [
        {
          "name": "",
          "type": "uint256"
        }
      ],
      "payable": false,
      "stateMutability": "view",
      "type": "function"
    },
    {
      "constant": false,
      "inputs": [
        {
          "name": "_spender",
          "type": "address"
        },
        {
          "name": "_value",
          "type": "uint256"
        }
      ],
      "name": "approve",
      "outputs": [
        {
          "name": "",
          "type": "bool"
        }
      ],
      "payable": false,
      "stateMutability": "nonpayable",
      "type": "function"
    },
    {
      "constant": false,
      "inputs": [
        {
          "name": "_value",
          "type": "uint256"
        },
        {
          "name": "_stakePeriods",
          "type": "uint256"
        }
      ],
      "name": "startStake",
      "outputs": [
        {
          "name": "",
          "type": "bool"
        }
      ],
      "payable": false,
      "stateMutability": "nonpayable",
      "type": "function"
    },
    {
      "constant": true,
      "inputs": [],
      "name": "interestRatePercent",
      "outputs": [
        {
          "name": "",
          "type": "uint256"
        }
      ],
      "payable": false,
      "stateMutability": "view",
      "type": "function"
    },
    {
      "constant": true,
      "inputs": [],
      "name": "totalStakedCoins",
      "outputs": [
        {
          "name": "",
          "type": "uint256"
        }
      ],
      "payable": false,
      "stateMutability": "view",
      "type": "function"
    },
    {
      "constant": true,
      "inputs": [],
      "name": "totalSupply",
      "outputs": [
        {
          "name": "",
          "type": "uint256"
        }
      ],
      "payable": false,
      "stateMutability": "view",
      "type": "function"
    },
    {
      "constant": true,
      "inputs": [
        {
          "name": "_stakePayout",
          "type": "uint256"
        }
      ],
      "name": "calculateViralRewards",
      "outputs": [
        {
          "name": "",
          "type": "uint256"
        }
      ],
      "payable": false,
      "stateMutability": "view",
      "type": "function"
    },
    {
      "constant": false,
      "inputs": [
        {
          "name": "_from",
          "type": "address"
        },
        {
          "name": "_to",
          "type": "address"
        },
        {
          "name": "_value",
          "type": "uint256"
        }
      ],
      "name": "transferFrom",
      "outputs": [
        {
          "name": "",
          "type": "bool"
        }
      ],
      "payable": false,
      "stateMutability": "nonpayable",
      "type": "function"
    },
    {
      "constant": true,
      "inputs": [],
      "name": "getCirculatingSupply",
      "outputs": [
        {
          "name": "",
          "type": "uint256"
        }
      ],
      "payable": false,
      "stateMutability": "view",
      "type": "function"
    },
    {
      "constant": true,
      "inputs": [
        {
          "name": "_satoshis",
          "type": "uint256"
        }
      ],
      "name": "getRedeemAmount",
      "outputs": [
        {
          "name": "",
          "type": "uint256"
        },
        {
          "name": "",
          "type": "uint256"
        }
      ],
      "payable": false,
      "stateMutability": "view",
      "type": "function"
    },
    {
      "constant": true,
      "inputs": [],
      "name": "isDuringBonusPeriod",
      "outputs": [
        {
          "name": "",
          "type": "bool"
        }
      ],
      "payable": false,
      "stateMutability": "view",
      "type": "function"
    },
    {
      "constant": true,
      "inputs": [],
      "name": "decimals",
      "outputs": [
        {
          "name": "",
          "type": "uint256"
        }
      ],
      "payable": false,
      "stateMutability": "view",
      "type": "function"
    },
    {
      "constant": true,
      "inputs": [],
      "name": "oneInterestPeriodInSeconds",
      "outputs": [
        {
          "name": "",
          "type": "uint256"
        }
      ],
      "payable": false,
      "stateMutability": "view",
      "type": "function"
    },
    {
      "constant": true,
      "inputs": [],
      "name": "redeemedCount",
      "outputs": [
        {
          "name": "",
          "type": "uint256"
        }
      ],
      "payable": false,
      "stateMutability": "view",
      "type": "function"
    },
    {
      "constant": true,
      "inputs": [
        {
          "name": "_pubKey",
          "type": "bytes"
        }
      ],
      "name": "pubKeyToEthereumAddress",
      "outputs": [
        {
          "name": "",
          "type": "address"
        }
      ],
      "payable": false,
      "stateMutability": "pure",
      "type": "function"
    },
    {
      "constant": true,
      "inputs": [],
      "name": "maxStakingTimeInSeconds",
      "outputs": [
        {
          "name": "",
          "type": "uint256"
        }
      ],
      "payable": false,
      "stateMutability": "view",
      "type": "function"
    },
    {
      "constant": false,
      "inputs": [
        {
          "name": "_spender",
          "type": "address"
        },
        {
          "name": "_subtractedValue",
          "type": "uint256"
        }
      ],
      "name": "decreaseApproval",
      "outputs": [
        {
          "name": "",
          "type": "bool"
        }
      ],
      "payable": false,
      "stateMutability": "nonpayable",
      "type": "function"
    },
    {
      "constant": true,
      "inputs": [
        {
          "name": "",
          "type": "bytes32"
        }
      ],
      "name": "redeemedUTXOs",
      "outputs": [
        {
          "name": "",
          "type": "bool"
        }
      ],
      "payable": false,
      "stateMutability": "view",
      "type": "function"
    },
    {
      "constant": true,
      "inputs": [],
      "name": "rootUtxoMerkleTreeHash",
      "outputs": [
        {
          "name": "",
          "type": "bytes32"
        }
      ],
      "payable": false,
      "stateMutability": "view",
      "type": "function"
    },
    {
      "constant": true,
      "inputs": [
        {
          "name": "",
          "type": "uint256"
        }
      ],
      "name": "satoshiRewardDataByWeek",
      "outputs": [
        {
          "name": "unclaimedCoins",
          "type": "uint256"
        },
        {
          "name": "totalStaked",
          "type": "uint256"
        }
      ],
      "payable": false,
      "stateMutability": "view",
      "type": "function"
    },
    {
      "constant": true,
      "inputs": [
        {
          "name": "_owner",
          "type": "address"
        }
      ],
      "name": "balanceOf",
      "outputs": [
        {
          "name": "",
          "type": "uint256"
        }
      ],
      "payable": false,
      "stateMutability": "view",
      "type": "function"
    },
    {
      "constant": false,
      "inputs": [
        {
          "name": "_satoshis",
          "type": "uint256"
        },
        {
          "name": "_proof",
          "type": "bytes32[]"
        },
        {
          "name": "_pubKey",
          "type": "bytes"
        },
        {
          "name": "_isCompressed",
          "type": "bool"
        },
        {
          "name": "_v",
          "type": "uint8"
        },
        {
          "name": "_r",
          "type": "bytes32"
        },
        {
          "name": "_s",
          "type": "bytes32"
        }
      ],
      "name": "redeemUtxo",
      "outputs": [
        {
          "name": "",
          "type": "uint256"
        }
      ],
      "payable": false,
      "stateMutability": "nonpayable",
      "type": "function"
    },
    {
      "constant": false,
      "inputs": [
        {
          "name": "_staker",
          "type": "address"
        }
      ],
      "name": "claimAllStakingRewards",
      "outputs": [
        {
          "name": "",
          "type": "bool"
        }
      ],
      "payable": false,
      "stateMutability": "nonpayable",
      "type": "function"
    },
    {
      "constant": true,
      "inputs": [],
      "name": "launchTime",
      "outputs": [
        {
          "name": "",
          "type": "uint256"
        }
      ],
      "payable": false,
      "stateMutability": "view",
      "type": "function"
    },
    {
      "constant": false,
      "inputs": [
        {
          "name": "_staker",
          "type": "address"
        },
        {
          "name": "_stakeIndex",
          "type": "uint256"
        }
      ],
      "name": "claimSingleStakingReward",
      "outputs": [
        {
          "name": "",
          "type": "bool"
        }
      ],
      "payable": false,
      "stateMutability": "nonpayable",
      "type": "function"
    },
    {
      "constant": true,
      "inputs": [
        {
          "name": "_merkleLeafHash",
          "type": "bytes32"
        },
        {
          "name": "_proof",
          "type": "bytes32[]"
        }
      ],
      "name": "canRedeemUtxoHash",
      "outputs": [
        {
          "name": "",
          "type": "bool"
        }
      ],
      "payable": false,
      "stateMutability": "view",
      "type": "function"
    },
    {
      "constant": true,
      "inputs": [
        {
          "name": "_staker",
          "type": "address"
        }
      ],
      "name": "getUserStakes",
      "outputs": [
        {
          "name": "",
          "type": "uint256[]"
        },
        {
          "name": "",
          "type": "uint256[]"
        },
        {
          "name": "",
          "type": "uint256[]"
        },
        {
          "name": "",
          "type": "uint256[]"
        }
      ],
      "payable": false,
      "stateMutability": "view",
      "type": "function"
    },
    {
      "constant": true,
      "inputs": [
        {
          "name": "",
          "type": "address"
        },
        {
          "name": "",
          "type": "uint256"
        }
      ],
      "name": "staked",
      "outputs": [
        {
          "name": "stakeAmount",
          "type": "uint256"
        },
        {
          "name": "stakeTime",
          "type": "uint256"
        },
        {
          "name": "unlockTime",
          "type": "uint256"
        },
        {
          "name": "totalStakedCoinsAtStart",
          "type": "uint256"
        },
        {
          "name": "maxOfTotalSupplyVSMaxRedeemableAtStart",
          "type": "uint256"
        }
      ],
      "payable": false,
      "stateMutability": "view",
      "type": "function"
    },
    {
      "constant": true,
      "inputs": [],
      "name": "origin",
      "outputs": [
        {
          "name": "",
          "type": "address"
        }
      ],
      "payable": false,
      "stateMutability": "view",
      "type": "function"
    },
    {
      "constant": true,
      "inputs": [],
      "name": "getWeeksSinceLaunch",
      "outputs": [
        {
          "name": "",
          "type": "uint256"
        }
      ],
      "payable": false,
      "stateMutability": "view",
      "type": "function"
    },
    {
      "constant": true,
      "inputs": [],
      "name": "symbol",
      "outputs": [
        {
          "name": "",
          "type": "string"
        }
      ],
      "payable": false,
      "stateMutability": "view",
      "type": "function"
    },
    {
      "constant": true,
      "inputs": [],
      "name": "lastUpdatedWeek",
      "outputs": [
        {
          "name": "",
          "type": "uint256"
        }
      ],
      "payable": false,
      "stateMutability": "view",
      "type": "function"
    },
    {
      "constant": false,
      "inputs": [
        {
          "name": "_to",
          "type": "address"
        },
        {
          "name": "_value",
          "type": "uint256"
        }
      ],
      "name": "transfer",
      "outputs": [
        {
          "name": "",
          "type": "bool"
        }
      ],
      "payable": false,
      "stateMutability": "nonpayable",
      "type": "function"
    },
    {
      "constant": false,
      "inputs": [
        {
          "name": "_satoshis",
          "type": "uint256"
        },
        {
          "name": "_proof",
          "type": "bytes32[]"
        },
        {
          "name": "_pubKey",
          "type": "bytes"
        },
        {
          "name": "_isCompressed",
          "type": "bool"
        },
        {
          "name": "_v",
          "type": "uint8"
        },
        {
          "name": "_r",
          "type": "bytes32"
        },
        {
          "name": "_s",
          "type": "bytes32"
        },
        {
          "name": "_referrer",
          "type": "address"
        }
      ],
      "name": "redeemReferredUtxo",
      "outputs": [
        {
          "name": "_tokensRedeemed",
          "type": "uint256"
        }
      ],
      "payable": false,
      "stateMutability": "nonpayable",
      "type": "function"
    },
    {
      "constant": true,
      "inputs": [
        {
          "name": "_staker",
          "type": "address"
        },
        {
          "name": "_startIndex",
          "type": "uint256"
        },
        {
          "name": "_endIndex",
          "type": "uint256"
        }
      ],
      "name": "getStakedAtIndexes",
      "outputs": [
        {
          "name": "",
          "type": "uint256"
        }
      ],
      "payable": false,
      "stateMutability": "view",
      "type": "function"
    },
    {
      "constant": true,
      "inputs": [
        {
          "name": "_proof",
          "type": "bytes32[]"
        },
        {
          "name": "_merkleLeafHash",
          "type": "bytes32"
        }
      ],
      "name": "verifyProof",
      "outputs": [
        {
          "name": "",
          "type": "bool"
        }
      ],
      "payable": false,
      "stateMutability": "view",
      "type": "function"
    },
    {
      "constant": true,
      "inputs": [
        {
          "name": "_staker",
          "type": "address"
        }
      ],
      "name": "getTotalUserStaked",
      "outputs": [
        {
          "name": "",
          "type": "uint256"
        }
      ],
      "payable": false,
      "stateMutability": "view",
      "type": "function"
    },
    {
      "constant": false,
      "inputs": [
        {
          "name": "_staker",
          "type": "address"
        },
        {
          "name": "_startIndex",
          "type": "uint256"
        },
        {
          "name": "_endIndex",
          "type": "uint256"
        }
      ],
      "name": "claimMultipleStakingRewards",
      "outputs": [
        {
          "name": "",
          "type": "bool"
        }
      ],
      "payable": false,
      "stateMutability": "nonpayable",
      "type": "function"
    },
    {
      "constant": true,
      "inputs": [
        {
          "name": "_addr",
          "type": "address"
        },
        {
          "name": "_pubKey",
          "type": "bytes"
        },
        {
          "name": "_v",
          "type": "uint8"
        },
        {
          "name": "_r",
          "type": "bytes32"
        },
        {
          "name": "_s",
          "type": "bytes32"
        }
      ],
      "name": "ecdsaVerify",
      "outputs": [
        {
          "name": "",
          "type": "bool"
        }
      ],
      "payable": false,
      "stateMutability": "pure",
      "type": "function"
    },
    {
      "constant": true,
      "inputs": [
        {
          "name": "_originalAddress",
          "type": "bytes20"
        },
        {
          "name": "_satoshis",
          "type": "uint256"
        },
        {
          "name": "_proof",
          "type": "bytes32[]"
        }
      ],
      "name": "canRedeemUtxo",
      "outputs": [
        {
          "name": "",
          "type": "bool"
        }
      ],
      "payable": false,
      "stateMutability": "view",
      "type": "function"
    },
    {
      "constant": false,
      "inputs": [
        {
          "name": "_spender",
          "type": "address"
        },
        {
          "name": "_addedValue",
          "type": "uint256"
        }
      ],
      "name": "increaseApproval",
      "outputs": [
        {
          "name": "",
          "type": "bool"
        }
      ],
      "payable": false,
      "stateMutability": "nonpayable",
      "type": "function"
    },
    {
      "constant": true,
      "inputs": [
        {
          "name": "_owner",
          "type": "address"
        },
        {
          "name": "_spender",
          "type": "address"
        }
      ],
      "name": "allowance",
      "outputs": [
        {
          "name": "",
          "type": "uint256"
        }
      ],
      "payable": false,
      "stateMutability": "view",
      "type": "function"
    },
    {
      "constant": false,
      "inputs": [],
      "name": "storeSatoshiWeekData",
      "outputs": [],
      "payable": false,
      "stateMutability": "nonpayable",
      "type": "function"
    },
    {
      "constant": true,
      "inputs": [
        {
          "name": "_pubKey",
          "type": "bytes"
        },
        {
          "name": "_isCompressed",
          "type": "bool"
        }
      ],
      "name": "pubKeyToBitcoinAddress",
      "outputs": [
        {
          "name": "",
          "type": "bytes20"
        }
      ],
      "payable": false,
      "stateMutability": "pure",
      "type": "function"
    },
    {
      "constant": true,
      "inputs": [
        {
          "name": "_stakePayout",
          "type": "uint256"
        }
      ],
      "name": "calculateCritMassRewards",
      "outputs": [
        {
          "name": "",
          "type": "uint256"
        }
      ],
      "payable": false,
      "stateMutability": "view",
      "type": "function"
    },
    {
      "constant": true,
      "inputs": [
        {
          "name": "_staker",
          "type": "address"
        },
        {
          "name": "_stakeIndex",
          "type": "uint256"
        }
      ],
      "name": "calculateSingleStakePlusRewards",
      "outputs": [
        {
          "name": "",
          "type": "uint256"
        }
      ],
      "payable": false,
      "stateMutability": "view",
      "type": "function"
    },
    {
      "constant": true,
      "inputs": [
        {
          "name": "_stakeAmount",
          "type": "uint256"
        },
        {
          "name": "_stakeTime",
          "type": "uint256"
        },
        {
          "name": "_unlockTime",
          "type": "uint256"
        }
      ],
      "name": "calculateWeAreAllSatoshiRewards",
      "outputs": [
        {
          "name": "",
          "type": "uint256"
        }
      ],
      "payable": false,
      "stateMutability": "view",
      "type": "function"
    },
    {
      "constant": true,
      "inputs": [
        {
          "name": "_staker",
          "type": "address"
        },
        {
          "name": "_stakeIndex",
          "type": "uint256"
        },
        {
          "name": "_stakePayout",
          "type": "uint256"
        }
      ],
      "name": "calculateAdditionalRewards",
      "outputs": [
        {
          "name": "",
          "type": "uint256"
        }
      ],
      "payable": false,
      "stateMutability": "view",
      "type": "function"
    },
    {
      "constant": true,
      "inputs": [],
      "name": "totalRedeemed",
      "outputs": [
        {
          "name": "",
          "type": "uint256"
        }
      ],
      "payable": false,
      "stateMutability": "view",
      "type": "function"
    },
    {
      "constant": true,
      "inputs": [
        {
          "name": "_principle",
          "type": "uint256"
        },
        {
          "name": "_periods",
          "type": "uint256"
        },
        {
          "name": "_rate",
          "type": "uint256"
        }
      ],
      "name": "compound",
      "outputs": [
        {
          "name": "",
          "type": "uint256"
        }
      ],
      "payable": false,
      "stateMutability": "pure",
      "type": "function"
    },
    {
      "constant": true,
      "inputs": [
        {
          "name": "_staker",
          "type": "address"
        },
        {
          "name": "_stakeIndex",
          "type": "uint256"
        }
      ],
      "name": "calculateStakingRewards",
      "outputs": [
        {
          "name": "",
          "type": "uint256"
        }
      ],
      "payable": false,
      "stateMutability": "view",
      "type": "function"
    },
    {
      "inputs": [
        {
          "name": "_originAddress",
          "type": "address"
        },
        {
          "name": "_rootUtxoMerkleTreeHash",
          "type": "bytes32"
        },
        {
          "name": "_maximumRedeemable",
          "type": "uint256"
        },
        {
          "name": "_UTXOCountAtFork",
          "type": "uint256"
        }
      ],
      "payable": false,
      "stateMutability": "nonpayable",
      "type": "constructor"
    },
    {
      "anonymous": false,
      "inputs": [
        {
          "indexed": true,
          "name": "_address",
          "type": "address"
        },
        {
          "indexed": false,
          "name": "_reward",
          "type": "uint256"
        }
      ],
      "name": "Mint",
      "type": "event"
    },
    {
      "anonymous": false,
      "inputs": [
        {
          "indexed": true,
          "name": "owner",
          "type": "address"
        },
        {
          "indexed": true,
          "name": "spender",
          "type": "address"
        },
        {
          "indexed": false,
          "name": "value",
          "type": "uint256"
        }
      ],
      "name": "Approval",
      "type": "event"
    },
    {
      "anonymous": false,
      "inputs": [
        {
          "indexed": true,
          "name": "from",
          "type": "address"
        },
        {
          "indexed": true,
          "name": "to",
          "type": "address"
        },
        {
          "indexed": false,
          "name": "value",
          "type": "uint256"
        }
      ],
      "name": "Transfer",
      "type": "event"
    }
  ],
  "bytecode": "0x6080604052600060075560006008556040805190810160405280600a81526020017f426974636f696e48657800000000000000000000000000000000000000000000815250601090805190602001906200005b92919062000168565b506040805190810160405280600381526020017f424858000000000000000000000000000000000000000000000000000000000081525060119080519060200190620000a992919062000168565b5060128055348015620000bb57600080fd5b506040516080806200557f833981018060405281019080805190602001909291908051906020019092919080519060200190929190805190602001909291905050504260048190555083600360006101000a81548173ffffffffffffffffffffffffffffffffffffffff021916908373ffffffffffffffffffffffffffffffffffffffff16021790555082600a81600019169055508160098190555080600c819055505050505062000217565b828054600181600116156101000203166002900490600052602060002090601f016020900481019282601f10620001ab57805160ff1916838001178555620001dc565b82800160010185558215620001dc579182015b82811115620001db578251825591602001919060010190620001be565b5b509050620001eb9190620001ef565b5090565b6200021491905b8082111562000210576000816000905550600101620001f6565b5090565b90565b61535880620002276000396000f30060806040526004361061027d576000357c0100000000000000000000000000000000000000000000000000000000900463ffffffff16806306fdde03146102825780630867c0ad1461031257806308b4312b146103b0578063095ea7b3146103db578063128bfcae1461044057806316043f5d1461048f5780631765f4bf146104ba57806318160ddd146104e5578063229cfc321461051057806323b872dd146105515780632b112e49146105d65780632c3ee88c146106015780632c48d57b14610649578063313ce567146106785780634f265bf4146106a357806352aa3e6c146106ce5780635418796c146106f957806365925c2b146107a257806366188463146107cd578063687cf4a4146108325780636aaf67e21461087b5780636e0d6df2146108ae57806370a08231146108f6578063753bf8cd1461094d57806375889a2b14610a4c578063790ca41314610aa757806381437de814610ad257806381cd84b914610b37578063842e298114610bc35780638f16981614610d33578063938b5f3214610db057806394ce28e814610e0757806395d89b4114610e325780639d65b89214610ec2578063a9059cbb14610eed578063b1ccf19314610f52578063b242c9bf14611018578063b80ac7df14611083578063bac5c0481461110f578063cb9c501f14611166578063ce267b55146111d5578063cfc2334e1461129f578063d73dd62314611340578063dd62ed3e146113a5578063e043ee9c1461141c578063e073ef6914611433578063e26e7b50146114da578063e39a385a1461151b578063ebe558e91461157c578063f14bfbd0146115d1578063f35dad401461163c578063f3c85eba14611667578063f6c45d02146116bc575b600080fd5b34801561028e57600080fd5b5061029761171d565b6040518080602001828103825283818151815260200191508051906020019080838360005b838110156102d75780820151818401526020810190506102bc565b50505050905090810190601f1680156103045780820380516001836020036101000a031916815260200191505b509250505060405180910390f35b34801561031e57600080fd5b506103966004803603810190808035600019169060200190929190803560ff16906020019092919080356000191690602001909291908035600019169060200190929190803573ffffffffffffffffffffffffffffffffffffffff1690602001909291908035151590602001909291905050506117bb565b604051808215151515815260200191505060405180910390f35b3480156103bc57600080fd5b506103c56119a6565b6040518082815260200191505060405180910390f35b3480156103e757600080fd5b50610426600480360381019080803573ffffffffffffffffffffffffffffffffffffffff169060200190929190803590602001909291905050506119ac565b604051808215151515815260200191505060405180910390f35b34801561044c57600080fd5b506104756004803603810190808035906020019092919080359060200190929190505050611a9e565b604051808215151515815260200191505060405180910390f35b34801561049b57600080fd5b506104a4611e1c565b6040518082815260200191505060405180910390f35b3480156104c657600080fd5b506104cf611e21565b6040518082815260200191505060405180910390f35b3480156104f157600080fd5b506104fa611e27565b6040518082815260200191505060405180910390f35b34801561051c57600080fd5b5061053b60048036038101908080359060200190929190505050611e31565b6040518082815260200191505060405180910390f35b34801561055d57600080fd5b506105bc600480360381019080803573ffffffffffffffffffffffffffffffffffffffff169060200190929190803573ffffffffffffffffffffffffffffffffffffffff16906020019092919080359060200190929190505050611e76565b604051808215151515815260200191505060405180910390f35b3480156105e257600080fd5b506105eb612230565b6040518082815260200191505060405180910390f35b34801561060d57600080fd5b5061062c6004803603810190808035906020019092919050505061224e565b604051808381526020018281526020019250505060405180910390f35b34801561065557600080fd5b5061065e61269f565b604051808215151515815260200191505060405180910390f35b34801561068457600080fd5b5061068d6126b2565b6040518082815260200191505060405180910390f35b3480156106af57600080fd5b506106b86126b8565b6040518082815260200191505060405180910390f35b3480156106da57600080fd5b506106e36126bf565b6040518082815260200191505060405180910390f35b34801561070557600080fd5b50610760600480360381019080803590602001908201803590602001908080601f01602080910402602001604051908101604052809392919081815260200183838082843782019150505050505091929192905050506126c5565b604051808273ffffffffffffffffffffffffffffffffffffffff1673ffffffffffffffffffffffffffffffffffffffff16815260200191505060405180910390f35b3480156107ae57600080fd5b506107b761274b565b6040518082815260200191505060405180910390f35b3480156107d957600080fd5b50610818600480360381019080803573ffffffffffffffffffffffffffffffffffffffff16906020019092919080359060200190929190505050612753565b604051808215151515815260200191505060405180910390f35b34801561083e57600080fd5b5061086160048036038101908080356000191690602001909291905050506129e4565b604051808215151515815260200191505060405180910390f35b34801561088757600080fd5b50610890612a04565b60405180826000191660001916815260200191505060405180910390f35b3480156108ba57600080fd5b506108d960048036038101908080359060200190929190505050612a0a565b604051808381526020018281526020019250505060405180910390f35b34801561090257600080fd5b50610937600480360381019080803573ffffffffffffffffffffffffffffffffffffffff169060200190929190505050612a2e565b6040518082815260200191505060405180910390f35b34801561095957600080fd5b50610a366004803603810190808035906020019092919080359060200190820180359060200190808060200260200160405190810160405280939291908181526020018383602002808284378201915050505050509192919290803590602001908201803590602001908080601f0160208091040260200160405190810160405280939291908181526020018383808284378201915050505050509192919290803515159060200190929190803560ff16906020019092919080356000191690602001909291908035600019169060200190929190505050612a76565b6040518082815260200191505060405180910390f35b348015610a5857600080fd5b50610a8d600480360381019080803573ffffffffffffffffffffffffffffffffffffffff169060200190929190505050612edc565b604051808215151515815260200191505060405180910390f35b348015610ab357600080fd5b50610abc613061565b6040518082815260200191505060405180910390f35b348015610ade57600080fd5b50610b1d600480360381019080803573ffffffffffffffffffffffffffffffffffffffff16906020019092919080359060200190929190505050613067565b604051808215151515815260200191505060405180910390f35b348015610b4357600080fd5b50610ba9600480360381019080803560001916906020019092919080359060200190820180359060200190808060200260200160405190810160405280939291908181526020018383602002808284378201915050505050509192919290505050613452565b604051808215151515815260200191505060405180910390f35b348015610bcf57600080fd5b50610c04600480360381019080803573ffffffffffffffffffffffffffffffffffffffff16906020019092919050505061349d565b6040518080602001806020018060200180602001858103855289818151815260200191508051906020019060200280838360005b83811015610c53578082015181840152602081019050610c38565b50505050905001858103845288818151815260200191508051906020019060200280838360005b83811015610c95578082015181840152602081019050610c7a565b50505050905001858103835287818151815260200191508051906020019060200280838360005b83811015610cd7578082015181840152602081019050610cbc565b50505050905001858103825286818151815260200191508051906020019060200280838360005b83811015610d19578082015181840152602081019050610cfe565b505050509050019850505050505050505060405180910390f35b348015610d3f57600080fd5b50610d7e600480360381019080803573ffffffffffffffffffffffffffffffffffffffff169060200190929190803590602001909291905050506136cf565b604051808681526020018581526020018481526020018381526020018281526020019550505050505060405180910390f35b348015610dbc57600080fd5b50610dc5613721565b604051808273ffffffffffffffffffffffffffffffffffffffff1673ffffffffffffffffffffffffffffffffffffffff16815260200191505060405180910390f35b348015610e1357600080fd5b50610e1c613747565b6040518082815260200191505060405180910390f35b348015610e3e57600080fd5b50610e47613789565b6040518080602001828103825283818151815260200191508051906020019080838360005b83811015610e87578082015181840152602081019050610e6c565b50505050905090810190601f168015610eb45780820380516001836020036101000a031916815260200191505b509250505060405180910390f35b348015610ece57600080fd5b50610ed7613827565b6040518082815260200191505060405180910390f35b348015610ef957600080fd5b50610f38600480360381019080803573ffffffffffffffffffffffffffffffffffffffff1690602001909291908035906020019092919050505061382d565b604051808215151515815260200191505060405180910390f35b348015610f5e57600080fd5b5061100260048036038101908080359060200190929190803590602001908201803590602001919091929391929390803590602001908201803590602001919091929391929390803515159060200190929190803560ff16906020019092919080356000191690602001909291908035600019169060200190929190803573ffffffffffffffffffffffffffffffffffffffff169060200190929190505050613a4c565b6040518082815260200191505060405180910390f35b34801561102457600080fd5b5061106d600480360381019080803573ffffffffffffffffffffffffffffffffffffffff1690602001909291908035906020019092919080359060200190929190505050613c1c565b6040518082815260200191505060405180910390f35b34801561108f57600080fd5b506110f5600480360381019080803590602001908201803590602001908080602002602001604051908101604052809392919081815260200183836020028082843782019150505050505091929192908035600019169060200190929190505050613de5565b604051808215151515815260200191505060405180910390f35b34801561111b57600080fd5b50611150600480360381019080803573ffffffffffffffffffffffffffffffffffffffff169060200190929190505050613dfc565b6040518082815260200191505060405180910390f35b34801561117257600080fd5b506111bb600480360381019080803573ffffffffffffffffffffffffffffffffffffffff1690602001909291908035906020019092919080359060200190929190505050613e56565b604051808215151515815260200191505060405180910390f35b3480156111e157600080fd5b50611285600480360381019080803573ffffffffffffffffffffffffffffffffffffffff169060200190929190803590602001908201803590602001908080601f0160208091040260200160405190810160405280939291908181526020018383808284378201915050505050509192919290803560ff16906020019092919080356000191690602001909291908035600019169060200190929190505050613f60565b604051808215151515815260200191505060405180910390f35b3480156112ab57600080fd5b5061132660048036038101908080356bffffffffffffffffffffffff19169060200190929190803590602001909291908035906020019082018035906020019080806020026020016040519081016040528093929190818152602001838360200280828437820191505050505050919291929050505061407f565b604051808215151515815260200191505060405180910390f35b34801561134c57600080fd5b5061138b600480360381019080803573ffffffffffffffffffffffffffffffffffffffff16906020019092919080359060200190929190505050614140565b604051808215151515815260200191505060405180910390f35b3480156113b157600080fd5b50611406600480360381019080803573ffffffffffffffffffffffffffffffffffffffff169060200190929190803573ffffffffffffffffffffffffffffffffffffffff16906020019092919050505061433c565b6040518082815260200191505060405180910390f35b34801561142857600080fd5b506114316143c3565b005b34801561143f57600080fd5b506114a6600480360381019080803590602001908201803590602001908080601f0160208091040260200160405190810160405280939291908181526020018383808284378201915050505050509192919290803515159060200190929190505050614559565b60405180826bffffffffffffffffffffffff19166bffffffffffffffffffffffff1916815260200191505060405180910390f35b3480156114e657600080fd5b5061150560048036038101908080359060200190929190505050614918565b6040518082815260200191505060405180910390f35b34801561152757600080fd5b50611566600480360381019080803573ffffffffffffffffffffffffffffffffffffffff1690602001909291908035906020019092919050505061495d565b6040518082815260200191505060405180910390f35b34801561158857600080fd5b506115bb600480360381019080803590602001909291908035906020019092919080359060200190929190505050614a75565b6040518082815260200191505060405180910390f35b3480156115dd57600080fd5b50611626600480360381019080803573ffffffffffffffffffffffffffffffffffffffff1690602001909291908035906020019092919080359060200190929190505050614bd3565b6040518082815260200191505060405180910390f35b34801561164857600080fd5b50611651614cde565b6040518082815260200191505060405180910390f35b34801561167357600080fd5b506116a6600480360381019080803590602001909291908035906020019092919080359060200190929190505050614ce4565b6040518082815260200191505060405180910390f35b3480156116c857600080fd5b50611707600480360381019080803573ffffffffffffffffffffffffffffffffffffffff16906020019092919080359060200190929190505050614dfb565b6040518082815260200191505060405180910390f35b60108054600181600116156101000203166002900480601f0160208091040260200160405190810160405280929190818152602001828054600181600116156101000203166002900480156117b35780601f10611788576101008083540402835291602001916117b3565b820191906000526020600020905b81548152906001019060200180831161179657829003601f168201915b505050505081565b60008060608315156117cf578891506118e9565b6040805190810160405280601c81526020017f19457468657265756d205369676e6564204d6573736167653a0a333200000000815250905080896040516020018083805190602001908083835b602083101515611841578051825260208201915060208101905060208303925061181c565b6001836020036101000a0380198251168184511680821785525050505050509050018260001916600019168152602001925050506040516020818303038152906040526040518082805190602001908083835b6020831015156118b95780518252602082019150602081019050602083039250611894565b6001836020036101000a038019825116818451168082178552505050505050905001915050604051809103902091505b8473ffffffffffffffffffffffffffffffffffffffff166001838a8a8a604051600081526020016040526040518085600019166000191681526020018460ff1660ff1681526020018360001916600019168152602001826000191660001916815260200194505050505060206040516020810390808403906000865af1158015611977573d6000803e3d6000fd5b5050506020604051035173ffffffffffffffffffffffffffffffffffffffff1614925050509695505050505050565b60095481565b600081600260003373ffffffffffffffffffffffffffffffffffffffff1673ffffffffffffffffffffffffffffffffffffffff16815260200190815260200160002060008573ffffffffffffffffffffffffffffffffffffffff1673ffffffffffffffffffffffffffffffffffffffff168152602001908152602001600020819055508273ffffffffffffffffffffffffffffffffffffffff163373ffffffffffffffffffffffffffffffffffffffff167f8c5be1e5ebec7d5bd14f71427d1e84f3dd0314c0f7b2291e5b200ac8c7c3b925846040518082815260200191505060405180910390a36001905092915050565b600080600080339250611acf611ac0620d2f0087614f6890919063ffffffff16565b42614fa090919063ffffffff16565b9150856000808573ffffffffffffffffffffffffffffffffffffffff1673ffffffffffffffffffffffffffffffffffffffff1681526020019081526020016000205410151515611b1e57600080fd5b611b356312cc030042614fa090919063ffffffff16565b8211151515611b4357600080fd5b611b59620d2f0042614fa090919063ffffffff16565b8210151515611b6757600080fd5b611b6f6143c3565b611bc0866000808673ffffffffffffffffffffffffffffffffffffffff1673ffffffffffffffffffffffffffffffffffffffff16815260200190815260200160002054614fbc90919063ffffffff16565b6000808573ffffffffffffffffffffffffffffffffffffffff1673ffffffffffffffffffffffffffffffffffffffff16815260200190815260200160002081905550611c53866000803073ffffffffffffffffffffffffffffffffffffffff1673ffffffffffffffffffffffffffffffffffffffff16815260200190815260200160002054614fa090919063ffffffff16565b6000803073ffffffffffffffffffffffffffffffffffffffff1673ffffffffffffffffffffffffffffffffffffffff168152602001908152602001600020819055506001549050600d546001541015611cac57600d5490505b600f60008473ffffffffffffffffffffffffffffffffffffffff1673ffffffffffffffffffffffffffffffffffffffff16815260200190815260200160002060a060405190810160405280888152602001428152602001848152602001611d1e89600654614fa090919063ffffffff16565b8152602001838152509080600181540180825580915050906001820390600052602060002090600502016000909192909190915060008201518160000155602082015181600101556040820151816002015560608201518160030155608082015181600401555050506000611de884611de36001600f60008973ffffffffffffffffffffffffffffffffffffffff1673ffffffffffffffffffffffffffffffffffffffff16815260200190815260200160002080549050614fbc90919063ffffffff16565b614dfb565b111515611df457600080fd5b611e0986600654614fa090919063ffffffff16565b6006819055506001935050505092915050565b600181565b60065481565b6000600154905090565b6000611e6f600a611e61600c54611e5360085487614f6890919063ffffffff16565b614fd590919063ffffffff16565b614fd590919063ffffffff16565b9050919050565b60008073ffffffffffffffffffffffffffffffffffffffff168373ffffffffffffffffffffffffffffffffffffffff1614151515611eb357600080fd5b6000808573ffffffffffffffffffffffffffffffffffffffff1673ffffffffffffffffffffffffffffffffffffffff168152602001908152602001600020548211151515611f0057600080fd5b600260008573ffffffffffffffffffffffffffffffffffffffff1673ffffffffffffffffffffffffffffffffffffffff16815260200190815260200160002060003373ffffffffffffffffffffffffffffffffffffffff1673ffffffffffffffffffffffffffffffffffffffff168152602001908152602001600020548211151515611f8b57600080fd5b611fdc826000808773ffffffffffffffffffffffffffffffffffffffff1673ffffffffffffffffffffffffffffffffffffffff16815260200190815260200160002054614fbc90919063ffffffff16565b6000808673ffffffffffffffffffffffffffffffffffffffff1673ffffffffffffffffffffffffffffffffffffffff1681526020019081526020016000208190555061206f826000808673ffffffffffffffffffffffffffffffffffffffff1673ffffffffffffffffffffffffffffffffffffffff16815260200190815260200160002054614fa090919063ffffffff16565b6000808573ffffffffffffffffffffffffffffffffffffffff1673ffffffffffffffffffffffffffffffffffffffff1681526020019081526020016000208190555061214082600260008773ffffffffffffffffffffffffffffffffffffffff1673ffffffffffffffffffffffffffffffffffffffff16815260200190815260200160002060003373ffffffffffffffffffffffffffffffffffffffff1673ffffffffffffffffffffffffffffffffffffffff16815260200190815260200160002054614fbc90919063ffffffff16565b600260008673ffffffffffffffffffffffffffffffffffffffff1673ffffffffffffffffffffffffffffffffffffffff16815260200190815260200160002060003373ffffffffffffffffffffffffffffffffffffffff1673ffffffffffffffffffffffffffffffffffffffff168152602001908152602001600020819055508273ffffffffffffffffffffffffffffffffffffffff168473ffffffffffffffffffffffffffffffffffffffff167fddf252ad1be2c89b69c2b068fc378daa952ba7f163c4a11628f55a4df523b3ef846040518082815260200191505060405180910390a3600190509392505050565b6000612249600654600154614fbc90919063ffffffff16565b905090565b60008060008060008060006122716402540be40089614f6890919063ffffffff16565b9450683635c9adc5dea0000085111561230a5769152d02c7e14af68000008510156122f2576122eb640ba43b74006122dd60096122cf60026122c164174876e8008c614fbc90919063ffffffff16565b614f6890919063ffffffff16565b614fd590919063ffffffff16565b614fa090919063ffffffff16565b9450612309565b612306600486614fd590919063ffffffff16565b94505b5b426004541061231a576000612345565b61234462093a8061233660045442614fbc90919063ffffffff16565b614fd590919063ffffffff16565b5b935061236e61235e600286614f6890919063ffffffff16565b6064614fbc90919063ffffffff16565b925061239660646123888588614f6890919063ffffffff16565b614fd590919063ffffffff16565b915060009050602d8411156123ae576000905061268f565b60208411156123f7576123f0826123e260646123d4606587614f6890919063ffffffff16565b614fd590919063ffffffff16565b614fbc90919063ffffffff16565b905061268e565b6018841115612440576124398261242b606461241d606687614f6890919063ffffffff16565b614fd590919063ffffffff16565b614fbc90919063ffffffff16565b905061268d565b601284111561248957612482826124746064612466606787614f6890919063ffffffff16565b614fd590919063ffffffff16565b614fbc90919063ffffffff16565b905061268c565b600e8411156124d2576124cb826124bd60646124af606887614f6890919063ffffffff16565b614fd590919063ffffffff16565b614fbc90919063ffffffff16565b905061268b565b600a84111561251b576125148261250660646124f8606987614f6890919063ffffffff16565b614fd590919063ffffffff16565b614fbc90919063ffffffff16565b905061268a565b60078411156125645761255d8261254f6064612541606a87614f6890919063ffffffff16565b614fd590919063ffffffff16565b614fbc90919063ffffffff16565b9050612689565b60058411156125ad576125a682612598606461258a606b87614f6890919063ffffffff16565b614fd590919063ffffffff16565b614fbc90919063ffffffff16565b9050612688565b60038411156125f6576125ef826125e160646125d3606c87614f6890919063ffffffff16565b614fd590919063ffffffff16565b614fbc90919063ffffffff16565b9050612687565b600184111561263f576126388261262a606461261c606d87614f6890919063ffffffff16565b614fd590919063ffffffff16565b614fbc90919063ffffffff16565b9050612686565b60008410151561268557612682826126746064612666606e87614f6890919063ffffffff16565b614fd590919063ffffffff16565b614fbc90919063ffffffff16565b90505b5b5b5b5b5b5b5b5b5b5b8181965096505050505050915091565b600060326126ab613747565b1115905090565b60125481565b620d2f0081565b60085481565b600073ffffffffffffffffffffffffffffffffffffffff826040518082805190602001908083835b60208310151561271257805182526020820191506020810190506020830392506126ed565b6001836020036101000a038019825116818451168082178552505050505050905001915050604051809103902060019004169050919050565b6312cc030081565b600080600260003373ffffffffffffffffffffffffffffffffffffffff1673ffffffffffffffffffffffffffffffffffffffff16815260200190815260200160002060008573ffffffffffffffffffffffffffffffffffffffff1673ffffffffffffffffffffffffffffffffffffffff16815260200190815260200160002054905080831115612864576000600260003373ffffffffffffffffffffffffffffffffffffffff1673ffffffffffffffffffffffffffffffffffffffff16815260200190815260200160002060008673ffffffffffffffffffffffffffffffffffffffff1673ffffffffffffffffffffffffffffffffffffffff168152602001908152602001600020819055506128f8565b6128778382614fbc90919063ffffffff16565b600260003373ffffffffffffffffffffffffffffffffffffffff1673ffffffffffffffffffffffffffffffffffffffff16815260200190815260200160002060008673ffffffffffffffffffffffffffffffffffffffff1673ffffffffffffffffffffffffffffffffffffffff168152602001908152602001600020819055505b8373ffffffffffffffffffffffffffffffffffffffff163373ffffffffffffffffffffffffffffffffffffffff167f8c5be1e5ebec7d5bd14f71427d1e84f3dd0314c0f7b2291e5b200ac8c7c3b925600260003373ffffffffffffffffffffffffffffffffffffffff1673ffffffffffffffffffffffffffffffffffffffff16815260200190815260200160002060008873ffffffffffffffffffffffffffffffffffffffff1673ffffffffffffffffffffffffffffffffffffffff168152602001908152602001600020546040518082815260200191505060405180910390a3600191505092915050565b600b6020528060005260406000206000915054906101000a900460ff1681565b600a5481565b600e6020528060005260406000206000915090508060000154908060010154905082565b60008060008373ffffffffffffffffffffffffffffffffffffffff1673ffffffffffffffffffffffffffffffffffffffff168152602001908152602001600020549050919050565b60008060008060006004544210151515612a8f57600080fd5b612a998a8a614559565b9350838c60405160200180836bffffffffffffffffffffffff19166bffffffffffffffffffffffff19168152601401828152602001925050506040516020818303038152906040526040518082805190602001908083835b602083101515612b165780518252602082019150602081019050602083039250612af1565b6001836020036101000a03801982511681845116808217855250505050505090500191505060405180910390209250612b4f838c613452565b1515612b5a57600080fd5b612b67338b8a8a8a613f60565b1515612b7257600080fd5b612b878c600754614fa090919063ffffffff16565b6007819055506001600b6000856000191660001916815260200190815260200160002060006101000a81548160ff021916908315150217905550612bca8c61224e565b91509150600954612be683600754614fa090919063ffffffff16565b11151515612bf357600080fd5b612c5681612c48846000803373ffffffffffffffffffffffffffffffffffffffff1673ffffffffffffffffffffffffffffffffffffffff16815260200190815260200160002054614fa090919063ffffffff16565b614fa090919063ffffffff16565b6000803373ffffffffffffffffffffffffffffffffffffffff1673ffffffffffffffffffffffffffffffffffffffff16815260200190815260200160002081905550612d0b81600080600360009054906101000a900473ffffffffffffffffffffffffffffffffffffffff1673ffffffffffffffffffffffffffffffffffffffff1673ffffffffffffffffffffffffffffffffffffffff16815260200190815260200160002054614fa090919063ffffffff16565b600080600360009054906101000a900473ffffffffffffffffffffffffffffffffffffffff1673ffffffffffffffffffffffffffffffffffffffff1673ffffffffffffffffffffffffffffffffffffffff16815260200190815260200160002081905550612d9681612d8884600154614fa090919063ffffffff16565b614fa090919063ffffffff16565b600181905550612db26001600854614fa090919063ffffffff16565b6008819055503373ffffffffffffffffffffffffffffffffffffffff16600073ffffffffffffffffffffffffffffffffffffffff167fddf252ad1be2c89b69c2b068fc378daa952ba7f163c4a11628f55a4df523b3ef612e1b8486614fa090919063ffffffff16565b6040518082815260200191505060405180910390a3600360009054906101000a900473ffffffffffffffffffffffffffffffffffffffff1673ffffffffffffffffffffffffffffffffffffffff16600073ffffffffffffffffffffffffffffffffffffffff167fddf252ad1be2c89b69c2b068fc378daa952ba7f163c4a11628f55a4df523b3ef836040518082815260200191505060405180910390a3612ecb8183614fa090919063ffffffff16565b945050505050979650505050505050565b600080600080600f60008673ffffffffffffffffffffffffffffffffffffffff1673ffffffffffffffffffffffffffffffffffffffff16815260200190815260200160002080549050925060009150600090506000831415612f415760009350613059565b5b8282101561305457600f60008673ffffffffffffffffffffffffffffffffffffffff1673ffffffffffffffffffffffffffffffffffffffff16815260200190815260200160002080549050612fa1600183614fa090919063ffffffff16565b11612fac5780612faf565b60005b9050600f60008673ffffffffffffffffffffffffffffffffffffffff1673ffffffffffffffffffffffffffffffffffffffff16815260200190815260200160002081815481101515612ffd57fe5b90600052602060002090600502016002015442101515613023576130218582613067565b505b613037600183614fa090919063ffffffff16565b915061304d600182614fa090919063ffffffff16565b9050612f42565b600193505b505050919050565b60045481565b6000613071615283565b6000806000600f60008873ffffffffffffffffffffffffffffffffffffffff1673ffffffffffffffffffffffffffffffffffffffff168152602001908152602001600020868154811015156130c257fe5b906000526020600020906005020160a060405190810160405290816000820154815260200160018201548152602001600282015481526020016003820154815260200160048201548152505093508360400151421015151561312357600080fd5b61312b6143c3565b6131358787614dfb565b9250613142878785614bd3565b915061316d8261315f858760000151614fa090919063ffffffff16565b614fa090919063ffffffff16565b90506131888460000151600654614fbc90919063ffffffff16565b6006819055506131e384600001516000803073ffffffffffffffffffffffffffffffffffffffff1673ffffffffffffffffffffffffffffffffffffffff16815260200190815260200160002054614fbc90919063ffffffff16565b6000803073ffffffffffffffffffffffffffffffffffffffff1673ffffffffffffffffffffffffffffffffffffffff16815260200190815260200160002081905550613276816000808a73ffffffffffffffffffffffffffffffffffffffff1673ffffffffffffffffffffffffffffffffffffffff16815260200190815260200160002054614fa090919063ffffffff16565b6000808973ffffffffffffffffffffffffffffffffffffffff1673ffffffffffffffffffffffffffffffffffffffff168152602001908152602001600020819055508673ffffffffffffffffffffffffffffffffffffffff163073ffffffffffffffffffffffffffffffffffffffff167fddf252ad1be2c89b69c2b068fc378daa952ba7f163c4a11628f55a4df523b3ef86600001516040518082815260200191505060405180910390a361333683600154614fa090919063ffffffff16565b600181905550613364613353600284614f6890919063ffffffff16565b600154614fa090919063ffffffff16565b6001819055508673ffffffffffffffffffffffffffffffffffffffff167f0f6798a560793a54c3bcfe86a93cde1e73087d944c0ea20544137d41213968856133b58585614fa090919063ffffffff16565b6040518082815260200191505060405180910390a2600360009054906101000a900473ffffffffffffffffffffffffffffffffffffffff1673ffffffffffffffffffffffffffffffffffffffff167f0f6798a560793a54c3bcfe86a93cde1e73087d944c0ea20544137d4121396885836040518082815260200191505060405180910390a26134448787614feb565b600194505050505092915050565b6000801515600b6000856000191660001916815260200190815260200160002060009054906101000a900460ff16151514801561349557506134948284613de5565b5b905092915050565b6060806060806000606080606080600080600f60008d73ffffffffffffffffffffffffffffffffffffffff1673ffffffffffffffffffffffffffffffffffffffff168152602001908152602001600020805490509650866040519080825280602002602001820160405280156135225781602001602082028038833980820191505090505b509550866040519080825280602002602001820160405280156135545781602001602082028038833980820191505090505b509450866040519080825280602002602001820160405280156135865781602001602082028038833980820191505090505b509350866040519080825280602002602001820160405280156135b85781602001602082028038833980820191505090505b509250600091505b868210156136b557600f60008d73ffffffffffffffffffffffffffffffffffffffff1673ffffffffffffffffffffffffffffffffffffffff1681526020019081526020016000208281548110151561361457fe5b906000526020600020906005020190508060000154868381518110151561363757fe5b90602001906020020181815250508060010154858381518110151561365857fe5b90602001906020020181815250508060020154848381518110151561367957fe5b90602001906020020181815250508060030154838381518110151561369a57fe5b906020019060200201818152505081806001019250506135c0565b858585859a509a509a509a50505050505050509193509193565b600f602052816000526040600020818154811015156136ea57fe5b9060005260206000209060050201600091509150508060000154908060010154908060020154908060030154908060040154905085565b600360009054906101000a900473ffffffffffffffffffffffffffffffffffffffff1681565b60006004544211613759576000613784565b61378362093a8061377560045442614fbc90919063ffffffff16565b614fd590919063ffffffff16565b5b905090565b60118054600181600116156101000203166002900480601f01602080910402602001604051908101604052809291908181526020018280546001816001161561010002031660029004801561381f5780601f106137f45761010080835404028352916020019161381f565b820191906000526020600020905b81548152906001019060200180831161380257829003601f168201915b505050505081565b60055481565b60008073ffffffffffffffffffffffffffffffffffffffff168373ffffffffffffffffffffffffffffffffffffffff161415151561386a57600080fd5b6000803373ffffffffffffffffffffffffffffffffffffffff1673ffffffffffffffffffffffffffffffffffffffff1681526020019081526020016000205482111515156138b757600080fd5b613908826000803373ffffffffffffffffffffffffffffffffffffffff1673ffffffffffffffffffffffffffffffffffffffff16815260200190815260200160002054614fbc90919063ffffffff16565b6000803373ffffffffffffffffffffffffffffffffffffffff1673ffffffffffffffffffffffffffffffffffffffff1681526020019081526020016000208190555061399b826000808673ffffffffffffffffffffffffffffffffffffffff1673ffffffffffffffffffffffffffffffffffffffff16815260200190815260200160002054614fa090919063ffffffff16565b6000808573ffffffffffffffffffffffffffffffffffffffff1673ffffffffffffffffffffffffffffffffffffffff168152602001908152602001600020819055508273ffffffffffffffffffffffffffffffffffffffff163373ffffffffffffffffffffffffffffffffffffffff167fddf252ad1be2c89b69c2b068fc378daa952ba7f163c4a11628f55a4df523b3ef846040518082815260200191505060405180910390a36001905092915050565b60003373ffffffffffffffffffffffffffffffffffffffff168273ffffffffffffffffffffffffffffffffffffffff1614151515613a8957600080fd5b600073ffffffffffffffffffffffffffffffffffffffff168273ffffffffffffffffffffffffffffffffffffffff1614151515613ac557600080fd5b613b358b8b8b808060200260200160405190810160405280939291908181526020018383602002808284378201915050505050508a8a8080601f01602080910402602001604051908101604052809392919081815260200183838082843782019150505050505089898989612a76565b9050613b9b613b4e601483614fd590919063ffffffff16565b6000808573ffffffffffffffffffffffffffffffffffffffff1673ffffffffffffffffffffffffffffffffffffffff16815260200190815260200160002054614fa090919063ffffffff16565b6000808473ffffffffffffffffffffffffffffffffffffffff1673ffffffffffffffffffffffffffffffffffffffff16815260200190815260200160002081905550613c05613bf4601483614fd590919063ffffffff16565b600154614fa090919063ffffffff16565b6001819055508090509a9950505050505050505050565b6000806000806001600f60008973ffffffffffffffffffffffffffffffffffffffff1673ffffffffffffffffffffffffffffffffffffffff16815260200190815260200160002080549050039250828511151515613c7957600080fd5b60008610151515613c8957600080fd5b6000600f60008973ffffffffffffffffffffffffffffffffffffffff1673ffffffffffffffffffffffffffffffffffffffff168152602001908152602001600020805490501415613cdd5760009350613ddb565b84861415613d4b57600f60008873ffffffffffffffffffffffffffffffffffffffff1673ffffffffffffffffffffffffffffffffffffffff1681526020019081526020016000206000815481101515613d3257fe5b9060005260206000209060050201600001549350613ddb565b8590505b8481111515613dd757613dc8600f60008973ffffffffffffffffffffffffffffffffffffffff1673ffffffffffffffffffffffffffffffffffffffff16815260200190815260200160002082815481101515613da757fe5b90600052602060002090600502016000015483614fa090919063ffffffff16565b91508080600101915050613d4f565b8193505b5050509392505050565b6000613df483600a54846150dc565b905092915050565b6000613e4f8260006001600f60008773ffffffffffffffffffffffffffffffffffffffff1673ffffffffffffffffffffffffffffffffffffffff1681526020019081526020016000208054905003613c1c565b9050919050565b600080828411151515613e6857600080fd5b600f60008673ffffffffffffffffffffffffffffffffffffffff1673ffffffffffffffffffffffffffffffffffffffff1681526020019081526020016000208054905083101515613eb857600080fd5b8390505b8281111515613f5457600f60008673ffffffffffffffffffffffffffffffffffffffff1673ffffffffffffffffffffffffffffffffffffffff1681526020019081526020016000206000815481101515613f1257fe5b90600052602060002090600502016002015442101515613f4f57613f37856000613067565b50613f4c600182614fa090919063ffffffff16565b90505b613ebc565b60019150509392505050565b6000614074600287604051602001808273ffffffffffffffffffffffffffffffffffffffff1673ffffffffffffffffffffffffffffffffffffffff166c010000000000000000000000000281526014019150506040516020818303038152906040526040518082805190602001908083835b602083101515613ff75780518252602082019150602081019050602083039250613fd2565b6001836020036101000a0380198251168184511680821785525050505050509050019150506020604051808303816000865af115801561403b573d6000803e3d6000fd5b5050506040513d602081101561405057600080fd5b810190808051906020019092919050505085858561406d8a6126c5565b60006117bb565b905095945050505050565b600080848460405160200180836bffffffffffffffffffffffff19166bffffffffffffffffffffffff19168152601401828152602001925050506040516020818303038152906040526040518082805190602001908083835b6020831015156140fd57805182526020820191506020810190506020830392506140d8565b6001836020036101000a038019825116818451168082178552505050505050905001915050604051809103902090506141368184613452565b9150509392505050565b60006141d182600260003373ffffffffffffffffffffffffffffffffffffffff1673ffffffffffffffffffffffffffffffffffffffff16815260200190815260200160002060008673ffffffffffffffffffffffffffffffffffffffff1673ffffffffffffffffffffffffffffffffffffffff16815260200190815260200160002054614fa090919063ffffffff16565b600260003373ffffffffffffffffffffffffffffffffffffffff1673ffffffffffffffffffffffffffffffffffffffff16815260200190815260200160002060008573ffffffffffffffffffffffffffffffffffffffff1673ffffffffffffffffffffffffffffffffffffffff168152602001908152602001600020819055508273ffffffffffffffffffffffffffffffffffffffff163373ffffffffffffffffffffffffffffffffffffffff167f8c5be1e5ebec7d5bd14f71427d1e84f3dd0314c0f7b2291e5b200ac8c7c3b925600260003373ffffffffffffffffffffffffffffffffffffffff1673ffffffffffffffffffffffffffffffffffffffff16815260200190815260200160002060008773ffffffffffffffffffffffffffffffffffffffff1673ffffffffffffffffffffffffffffffffffffffff168152602001908152602001600020546040518082815260200191505060405180910390a36001905092915050565b6000600260008473ffffffffffffffffffffffffffffffffffffffff1673ffffffffffffffffffffffffffffffffffffffff16815260200190815260200160002060008373ffffffffffffffffffffffffffffffffffffffff1673ffffffffffffffffffffffffffffffffffffffff16815260200190815260200160002054905092915050565b6000806143f062093a806143e260045442614fbc90919063ffffffff16565b614fd590919063ffffffff16565b915060328211158015614404575060055482115b1561455557614420600754600954614fbc90919063ffffffff16565b90506040805190810160405280828152602001600654815250600e60008481526020019081526020016000206000820151816000015560208201518160010155905050816005819055506144f0614481603283614fd590919063ffffffff16565b600080600360009054906101000a900473ffffffffffffffffffffffffffffffffffffffff1673ffffffffffffffffffffffffffffffffffffffff1673ffffffffffffffffffffffffffffffffffffffff16815260200190815260200160002054614fa090919063ffffffff16565b600080600360009054906101000a900473ffffffffffffffffffffffffffffffffffffffff1673ffffffffffffffffffffffffffffffffffffffff1673ffffffffffffffffffffffffffffffffffffffff168152602001908152602001600020819055505b5050565b60008060008061456a8660006151a7565b60019004925061457b8660206151a7565b600190049150841561475757600060028381151561459557fe5b06146145a25760036145a5565b60025b9050600360028285604051602001808360ff1660ff167f0100000000000000000000000000000000000000000000000000000000000000028152600101828152602001925050506040516020818303038152906040526040518082805190602001908083835b602083101515614630578051825260208201915060208101905060208303925061460b565b6001836020036101000a0380198251168184511680821785525050505050509050019150506020604051808303816000865af1158015614674573d6000803e3d6000fd5b5050506040513d602081101561468957600080fd5b81019080805190602001909291905050506040516020018082600019166000191681526020019150506040516020818303038152906040526040518082805190602001908083835b6020831015156146f657805182526020820191506020810190506020830392506146d1565b6001836020036101000a0380198251168184511680821785525050505050509050019150506020604051808303816000865af115801561473a573d6000803e3d6000fd5b505050604051516c0100000000000000000000000002935061490f565b6004905060036002828585604051602001808460ff1660ff167f010000000000000000000000000000000000000000000000000000000000000002815260010183815260200182815260200193505050506040516020818303038152906040526040518082805190602001908083835b6020831015156147ec57805182526020820191506020810190506020830392506147c7565b6001836020036101000a0380198251168184511680821785525050505050509050019150506020604051808303816000865af1158015614830573d6000803e3d6000fd5b5050506040513d602081101561484557600080fd5b81019080805190602001909291905050506040516020018082600019166000191681526020019150506040516020818303038152906040526040518082805190602001908083835b6020831015156148b2578051825260208201915060208101905060208303925061488d565b6001836020036101000a0380198251168184511680821785525050505050509050019150506020604051808303816000865af11580156148f6573d6000803e3d6000fd5b505050604051516c010000000000000000000000000293505b50505092915050565b6000614956600a61494860095461493a60075487614f6890919063ffffffff16565b614fd590919063ffffffff16565b614fd590919063ffffffff16565b9050919050565b6000806000600f60008673ffffffffffffffffffffffffffffffffffffffff1673ffffffffffffffffffffffffffffffffffffffff168152602001908152602001600020848154811015156149ae57fe5b9060005260206000209060050201600001549150600f60008673ffffffffffffffffffffffffffffffffffffffff1673ffffffffffffffffffffffffffffffffffffffff16815260200190815260200160002084815481101515614a0e57fe5b906000526020600020906005020160020154421115614a6957614a318585614dfb565b9050614a62614a5382614a45888886614bd3565b614fa090919063ffffffff16565b83614fa090919063ffffffff16565b9250614a6d565b8192505b505092915050565b6000806000806000806000806000809750614ab062093a80614aa26004548e614fbc90919063ffffffff16565b614fd590919063ffffffff16565b965060008714614ac05786614ac3565b60015b9550614aef62093a80614ae16004548d614fbc90919063ffffffff16565b614fd590919063ffffffff16565b945060328511614aff5784614b02565b60325b93508592505b83831015614bc157614b4c600e600085815260200190815260200160002060010154614b3e60648f614f6890919063ffffffff16565b614fd590919063ffffffff16565b9150614b9d6064614b8f84614b816032600e60008a815260200190815260200160002060000154614fd590919063ffffffff16565b614f6890919063ffffffff16565b614fd590919063ffffffff16565b9050614bb28189614fa090919063ffffffff16565b97508280600101935050614b08565b87985050505050505050509392505050565b600080600080600080600f60008a73ffffffffffffffffffffffffffffffffffffffff1673ffffffffffffffffffffffffffffffffffffffff16815260200190815260200160002088815481101515614c2857fe5b906000526020600020906005020194506032614c6862093a80614c5a6004548960010154614fbc90919063ffffffff16565b614fd590919063ffffffff16565b111515614ccd57614c86856000015486600101548760020154614a75565b9350614c9187611e31565b9250614c9c87614918565b9150614cc382614cb58587614fa090919063ffffffff16565b614fa090919063ffffffff16565b9050809550614cd2565b600095505b50505050509392505050565b60075481565b6000806000806000806000614d0461271089614fa090919063ffffffff16565b9550600a94508489811515614d1557fe5b069350614d2b858a614fd590919063ffffffff16565b9250614d456402540be4008b614fd590919063ffffffff16565b9150600090505b82811015614d9c57614d7f856127100a614d7187890a85614f6890919063ffffffff16565b614fd590919063ffffffff16565b9150614d95600182614fa090919063ffffffff16565b9050614d4c565b600084141515614dd457614dd1846127100a614dc386890a85614f6890919063ffffffff16565b614fd590919063ffffffff16565b91505b614dec6402540be40083614f6890919063ffffffff16565b96505050505050509392505050565b6000806000806000806000806000600f60008c73ffffffffffffffffffffffffffffffffffffffff1673ffffffffffffffffffffffffffffffffffffffff1681526020019081526020016000208a815481101515614e5557fe5b90600052602060002090600502019750614e7a60646001614f6890919063ffffffff16565b9650600195506064945060008860030154141515614efe57614ec08860040154614eb260648b60030154614f6890919063ffffffff16565b614fd590919063ffffffff16565b935060008411614ed1576001614ed3565b835b9550614ee88688614fd590919063ffffffff16565b925060008311614ef9576001614efb565b825b94505b614f2e620d2f00614f208a600101548b60020154614fbc90919063ffffffff16565b614fd590919063ffffffff16565b9150614f3f88600001548387614ce4565b9050614f58886000015482614fbc90919063ffffffff16565b9850505050505050505092915050565b600080831415614f7b5760009050614f9a565b8183029050818382811515614f8c57fe5b04141515614f9657fe5b8090505b92915050565b60008183019050828110151515614fb357fe5b80905092915050565b6000828211151515614fca57fe5b818303905092915050565b60008183811515614fe257fe5b04905092915050565b6000600f60008473ffffffffffffffffffffffffffffffffffffffff1673ffffffffffffffffffffffffffffffffffffffff16815260200190815260200160002090508061504760018380549050614fbc90919063ffffffff16565b81548110151561505357fe5b9060005260206000209060050201818381548110151561506f57fe5b906000526020600020906005020160008201548160000155600182015481600101556002820154816002015560038201548160030155600482015481600401559050506150ca60018280549050614fbc90919063ffffffff16565b81816150d691906152b3565b50505050565b600080600080849250600091505b865182101561519057868281518110151561510157fe5b90602001906020020151905080600019168360001916101561515257828160405180836000191660001916815260200182600019166000191681526020019250505060405180910390209250615183565b8083604051808360001916600019168152602001826000191660001916815260200192505050604051809103902092505b81806001019250506150ea565b856000191683600019161493505050509392505050565b600080600090505b60208110156152795760088102848483018151811015156151cc57fe5b9060200101517f010000000000000000000000000000000000000000000000000000000000000090047f0100000000000000000000000000000000000000000000000000000000000000027effffffffffffffffffffffffffffffffffffffffffffffffffffffffffffff19167fff0000000000000000000000000000000000000000000000000000000000000060010216600019169060020a90048218915080806001019150506151af565b8191505092915050565b60a06040519081016040528060008152602001600081526020016000815260200160008152602001600081525090565b8154818355818111156152e0576005028160050283600052602060002091820191016152df91906152e5565b5b505050565b61532991905b80821115615325576000808201600090556001820160009055600282016000905560038201600090556004820160009055506005016152eb565b5090565b905600a165627a7a7230582019cf0918132a7d1ea7c1f3b97bdfd9e018be860d8a2ac3f79c7979c755a535ad0029",
  "source": "pragma solidity ^0.4.23;\nimport \"./StakeableToken.sol\";\n\n\n/**\n  @title BitcoinHex token contract\n  @notice inherits from StakeableToken which handles staking rewards, \n  UTXORedeemableToken which handles redeeming tokens through OpenZeppelin\n  MerkleProof, and StandardToken (also from OpenZeppelin)\n\n  @dev _rootUtxoMerkleTreeHash is derived from the Bitcoin blockchain\n  but is not an exact copy.\n*/\ncontract BitcoinHex is StakeableToken {\n  string public name = \"BitcoinHex\"; \n  string public symbol = \"BHX\";\n  uint public decimals = 18;\n\n  constructor (\n    address _originAddress,\n    bytes32 _rootUtxoMerkleTreeHash,\n    uint256 _maximumRedeemable,\n    uint256 _UTXOCountAtFork\n  ) \n    public\n  {\n    launchTime = block.timestamp;\n    origin = _originAddress;\n    rootUtxoMerkleTreeHash = _rootUtxoMerkleTreeHash;\n    maximumRedeemable = _maximumRedeemable;\n    UTXOCountAtFork = _UTXOCountAtFork;\n  }\n}\n",
  "sourcePath": "/Users/mesquka/Git/Bitcoin Hex/contract/contracts/BitcoinHex.sol",
  "compiler": {
    "name": "solc",
    "version": "0.4.24+commit.e67f0147.Emscripten.clang"
  },
  "schemaVersion": "2.0.0",
  "updatedAt": "2018-09-28T06:50:22.236Z"
}