{
  "contractName": "BitcoinHex",
  "abi": [
    {
      "constant": true,
      "inputs": [],
      "name": "name",
      "outputs": [
        {
          "name": "",
          "type": "string"
        }
      ],
      "payable": false,
      "stateMutability": "view",
      "type": "function"
    },
    {
      "constant": true,
      "inputs": [
        {
          "name": "_hash",
          "type": "bytes32"
        },
        {
          "name": "_v",
          "type": "uint8"
        },
        {
          "name": "_r",
          "type": "bytes32"
        },
        {
          "name": "_s",
          "type": "bytes32"
        },
        {
          "name": "_expected",
          "type": "address"
        },
        {
          "name": "_addPrefix",
          "type": "bool"
        }
      ],
      "name": "validateSignature",
      "outputs": [
        {
          "name": "",
          "type": "bool"
        }
      ],
      "payable": false,
      "stateMutability": "pure",
      "type": "function"
    },
    {
      "constant": false,
      "inputs": [
        {
          "name": "spender",
          "type": "address"
        },
        {
          "name": "value",
          "type": "uint256"
        }
      ],
      "name": "approve",
      "outputs": [
        {
          "name": "",
          "type": "bool"
        }
      ],
      "payable": false,
      "stateMutability": "nonpayable",
      "type": "function"
    },
    {
      "constant": false,
      "inputs": [
        {
          "name": "_stakeIndex",
          "type": "uint256"
        }
      ],
      "name": "endStake",
      "outputs": [],
      "payable": false,
      "stateMutability": "nonpayable",
      "type": "function"
    },
    {
      "constant": false,
      "inputs": [
        {
          "name": "_satoshis",
          "type": "uint256"
        },
        {
          "name": "_periods",
          "type": "uint256"
        }
      ],
      "name": "startStake",
      "outputs": [],
      "payable": false,
      "stateMutability": "nonpayable",
      "type": "function"
    },
    {
      "constant": true,
      "inputs": [],
      "name": "totalStakedCoins",
      "outputs": [
        {
          "name": "",
          "type": "uint256"
        }
      ],
      "payable": false,
      "stateMutability": "view",
      "type": "function"
    },
    {
      "constant": true,
      "inputs": [],
      "name": "totalSupply",
      "outputs": [
        {
          "name": "",
          "type": "uint256"
        }
      ],
      "payable": false,
      "stateMutability": "view",
      "type": "function"
    },
    {
      "constant": true,
      "inputs": [],
      "name": "totalStakeShares",
      "outputs": [
        {
          "name": "",
          "type": "uint256"
        }
      ],
      "payable": false,
      "stateMutability": "view",
      "type": "function"
    },
    {
      "constant": false,
      "inputs": [],
      "name": "storePeriodData",
      "outputs": [],
      "payable": false,
      "stateMutability": "nonpayable",
      "type": "function"
    },
    {
      "constant": false,
      "inputs": [
        {
          "name": "from",
          "type": "address"
        },
        {
          "name": "to",
          "type": "address"
        },
        {
          "name": "value",
          "type": "uint256"
        }
      ],
      "name": "transferFrom",
      "outputs": [
        {
          "name": "",
          "type": "bool"
        }
      ],
      "payable": false,
      "stateMutability": "nonpayable",
      "type": "function"
    },
    {
      "constant": true,
      "inputs": [],
      "name": "getCirculatingSupply",
      "outputs": [
        {
          "name": "",
          "type": "uint256"
        }
      ],
      "payable": false,
      "stateMutability": "view",
      "type": "function"
    },
    {
      "constant": true,
      "inputs": [
        {
          "name": "_satoshis",
          "type": "uint256"
        }
      ],
      "name": "getRedeemAmount",
      "outputs": [
        {
          "name": "",
          "type": "uint256"
        },
        {
          "name": "",
          "type": "uint256"
        }
      ],
      "payable": false,
      "stateMutability": "view",
      "type": "function"
    },
    {
      "constant": true,
      "inputs": [],
      "name": "decimals",
      "outputs": [
        {
          "name": "",
          "type": "uint256"
        }
      ],
      "payable": false,
      "stateMutability": "view",
      "type": "function"
    },
    {
      "constant": false,
      "inputs": [
        {
          "name": "spender",
          "type": "address"
        },
        {
          "name": "addedValue",
          "type": "uint256"
        }
      ],
      "name": "increaseAllowance",
      "outputs": [
        {
          "name": "",
          "type": "bool"
        }
      ],
      "payable": false,
      "stateMutability": "nonpayable",
      "type": "function"
    },
    {
      "constant": false,
      "inputs": [],
      "name": "storeWeeklyData",
      "outputs": [],
      "payable": false,
      "stateMutability": "nonpayable",
      "type": "function"
    },
    {
      "constant": false,
      "inputs": [
        {
          "name": "_satoshis",
          "type": "uint256"
        },
        {
          "name": "_proof",
          "type": "bytes32[]"
        },
        {
          "name": "_pubKey",
          "type": "bytes"
        },
        {
          "name": "_isCompressed",
          "type": "bool"
        },
        {
          "name": "_v",
          "type": "uint8"
        },
        {
          "name": "_r",
          "type": "bytes32"
        },
        {
          "name": "_s",
          "type": "bytes32"
        },
        {
          "name": "_referrer",
          "type": "address"
        }
      ],
      "name": "redeemUTXO",
      "outputs": [
        {
          "name": "",
          "type": "uint256"
        }
      ],
      "payable": false,
      "stateMutability": "nonpayable",
      "type": "function"
    },
    {
      "constant": true,
      "inputs": [],
      "name": "redeemedCount",
      "outputs": [
        {
          "name": "",
          "type": "uint256"
        }
      ],
      "payable": false,
      "stateMutability": "view",
      "type": "function"
    },
    {
      "constant": true,
      "inputs": [
        {
          "name": "_pubKey",
          "type": "bytes"
        }
      ],
      "name": "pubKeyToEthereumAddress",
      "outputs": [
        {
          "name": "",
          "type": "address"
        }
      ],
      "payable": false,
      "stateMutability": "pure",
      "type": "function"
    },
    {
      "constant": true,
      "inputs": [
        {
          "name": "_amount",
          "type": "uint256"
        },
        {
          "name": "_stakeShares",
          "type": "uint256"
        },
        {
          "name": "_stakeTime",
          "type": "uint256"
        },
        {
          "name": "_unlockTime",
          "type": "uint256"
        }
      ],
      "name": "calculatePayout",
      "outputs": [
        {
          "name": "",
          "type": "uint256"
        }
      ],
      "payable": false,
      "stateMutability": "view",
      "type": "function"
    },
    {
      "constant": true,
      "inputs": [],
      "name": "rootUtxoMerkleTreeHash",
      "outputs": [
        {
          "name": "",
          "type": "bytes32"
        }
      ],
      "payable": false,
      "stateMutability": "view",
      "type": "function"
    },
    {
      "constant": true,
      "inputs": [
        {
          "name": "owner",
          "type": "address"
        }
      ],
      "name": "balanceOf",
      "outputs": [
        {
          "name": "",
          "type": "uint256"
        }
      ],
      "payable": false,
      "stateMutability": "view",
      "type": "function"
    },
    {
      "constant": true,
      "inputs": [
        {
          "name": "_merkleLeafHash",
          "type": "bytes32"
        },
        {
          "name": "_proof",
          "type": "bytes32[]"
        }
      ],
      "name": "canRedeemUtxoHash",
      "outputs": [
        {
          "name": "",
          "type": "bool"
        }
      ],
      "payable": false,
      "stateMutability": "view",
      "type": "function"
    },
    {
      "constant": true,
      "inputs": [
        {
          "name": "",
          "type": "address"
        },
        {
          "name": "",
          "type": "uint256"
        }
      ],
      "name": "staked",
      "outputs": [
        {
          "name": "amount",
          "type": "uint256"
        },
        {
          "name": "stakeShares",
          "type": "uint256"
        },
        {
          "name": "stakeTime",
          "type": "uint256"
        },
        {
          "name": "unlockTime",
          "type": "uint256"
        }
      ],
      "payable": false,
      "stateMutability": "view",
      "type": "function"
    },
    {
      "constant": true,
      "inputs": [],
      "name": "symbol",
      "outputs": [
        {
          "name": "",
          "type": "string"
        }
      ],
      "payable": false,
      "stateMutability": "view",
      "type": "function"
    },
    {
      "constant": true,
      "inputs": [
        {
          "name": "_amount",
          "type": "uint256"
        },
        {
          "name": "_stakeTime",
          "type": "uint256"
        },
        {
          "name": "_unlockTime",
          "type": "uint256"
        }
      ],
      "name": "calculateBonuses",
      "outputs": [
        {
          "name": "",
          "type": "uint256"
        }
      ],
      "payable": false,
      "stateMutability": "view",
      "type": "function"
    },
    {
      "constant": false,
      "inputs": [
        {
          "name": "spender",
          "type": "address"
        },
        {
          "name": "subtractedValue",
          "type": "uint256"
        }
      ],
      "name": "decreaseAllowance",
      "outputs": [
        {
          "name": "",
          "type": "bool"
        }
      ],
      "payable": false,
      "stateMutability": "nonpayable",
      "type": "function"
    },
    {
      "constant": false,
      "inputs": [
        {
          "name": "to",
          "type": "address"
        },
        {
          "name": "value",
          "type": "uint256"
        }
      ],
      "name": "transfer",
      "outputs": [
        {
          "name": "",
          "type": "bool"
        }
      ],
      "payable": false,
      "stateMutability": "nonpayable",
      "type": "function"
    },
    {
      "constant": true,
      "inputs": [],
      "name": "isClaimsPeriod",
      "outputs": [
        {
          "name": "",
          "type": "bool"
        }
      ],
      "payable": false,
      "stateMutability": "view",
      "type": "function"
    },
    {
      "constant": true,
      "inputs": [
        {
          "name": "_proof",
          "type": "bytes32[]"
        },
        {
          "name": "_merkleLeafHash",
          "type": "bytes32"
        }
      ],
      "name": "verifyProof",
      "outputs": [
        {
          "name": "",
          "type": "bool"
        }
      ],
      "payable": false,
      "stateMutability": "view",
      "type": "function"
    },
    {
      "constant": true,
      "inputs": [
        {
          "name": "_addr",
          "type": "address"
        },
        {
          "name": "_pubKey",
          "type": "bytes"
        },
        {
          "name": "_v",
          "type": "uint8"
        },
        {
          "name": "_r",
          "type": "bytes32"
        },
        {
          "name": "_s",
          "type": "bytes32"
        }
      ],
      "name": "ecdsaVerify",
      "outputs": [
        {
          "name": "",
          "type": "bool"
        }
      ],
      "payable": false,
      "stateMutability": "pure",
      "type": "function"
    },
    {
      "constant": true,
      "inputs": [
        {
          "name": "_originalAddress",
          "type": "bytes20"
        },
        {
          "name": "_satoshis",
          "type": "uint256"
        },
        {
          "name": "_proof",
          "type": "bytes32[]"
        }
      ],
      "name": "canRedeemUtxo",
      "outputs": [
        {
          "name": "",
          "type": "bool"
        }
      ],
      "payable": false,
      "stateMutability": "view",
      "type": "function"
    },
    {
      "constant": true,
      "inputs": [
        {
          "name": "owner",
          "type": "address"
        },
        {
          "name": "spender",
          "type": "address"
        }
      ],
      "name": "allowance",
      "outputs": [
        {
          "name": "",
          "type": "uint256"
        }
      ],
      "payable": false,
      "stateMutability": "view",
      "type": "function"
    },
    {
      "constant": true,
      "inputs": [
        {
          "name": "_pubKey",
          "type": "bytes"
        },
        {
          "name": "_isCompressed",
          "type": "bool"
        }
      ],
      "name": "pubKeyToBitcoinAddress",
      "outputs": [
        {
          "name": "",
          "type": "bytes20"
        }
      ],
      "payable": false,
      "stateMutability": "pure",
      "type": "function"
    },
    {
      "constant": true,
      "inputs": [],
      "name": "totalRedeemed",
      "outputs": [
        {
          "name": "",
          "type": "uint256"
        }
      ],
      "payable": false,
      "stateMutability": "view",
      "type": "function"
    },
    {
      "inputs": [
        {
          "name": "_originAddress",
          "type": "address"
        },
        {
          "name": "_rootUtxoMerkleTreeHash",
          "type": "bytes32"
        },
        {
          "name": "_maximumRedeemable",
          "type": "uint256"
        },
        {
          "name": "_UTXOCountAtFork",
          "type": "uint256"
        }
      ],
      "payable": false,
      "stateMutability": "nonpayable",
      "type": "constructor"
    },
    {
      "anonymous": false,
      "inputs": [
        {
          "indexed": true,
          "name": "from",
          "type": "address"
        },
        {
          "indexed": true,
          "name": "to",
          "type": "address"
        },
        {
          "indexed": false,
          "name": "value",
          "type": "uint256"
        }
      ],
      "name": "Transfer",
      "type": "event"
    },
    {
      "anonymous": false,
      "inputs": [
        {
          "indexed": true,
          "name": "owner",
          "type": "address"
        },
        {
          "indexed": true,
          "name": "spender",
          "type": "address"
        },
        {
          "indexed": false,
          "name": "value",
          "type": "uint256"
        }
      ],
      "name": "Approval",
      "type": "event"
    }
  ],
  "bytecode": "0x60806040526000600560006101000a81548173ffffffffffffffffffffffffffffffffffffffff021916908373ffffffffffffffffffffffffffffffffffffffff1602179055506000600655600060075534801561005c57600080fd5b506040516080806132e3833981018060405281019080805190602001909291908051906020019092919080519060200190929190805190602001909291905050504260048190555083600360006101000a81548173ffffffffffffffffffffffffffffffffffffffff021916908373ffffffffffffffffffffffffffffffffffffffff160217905550826008816000191690555081600f8190555080600e81905550505050506131d2806101116000396000f3006080604052600436106101ac576000357c0100000000000000000000000000000000000000000000000000000000900463ffffffff16806306fdde03146101b15780630867c0ad14610241578063095ea7b3146102df5780630cbe28d614610344578063128bfcae146103715780631765f4bf146103a857806318160ddd146103d35780631aa024b7146103fe5780631ee752701461042957806323b872dd146104405780632b112e49146104c55780632c3ee88c146104f0578063313ce5671461053857806339509351146105635780634d3c8bc8146105c85780634ecd81b3146105df57806352aa3e6c146106fe5780635418796c1461072957806365fbbf9d146107d25780636aaf67e21461083157806370a082311461086457806381cd84b9146108bb5780638f1698161461094757806395d89b41146109bd5780639eb6f05d14610a4d578063a457c2d714610aa2578063a9059cbb14610b07578063adf71f1f14610b6c578063b80ac7df14610b9b578063ce267b5514610c27578063cfc2334e14610cf1578063dd62ed3e14610d92578063e073ef6914610e09578063f35dad4014610eb0575b600080fd5b3480156101bd57600080fd5b506101c6610edb565b6040518080602001828103825283818151815260200191508051906020019080838360005b838110156102065780820151818401526020810190506101eb565b50505050905090810190601f1680156102335780820380516001836020036101000a031916815260200191505b509250505060405180910390f35b34801561024d57600080fd5b506102c56004803603810190808035600019169060200190929190803560ff16906020019092919080356000191690602001909291908035600019169060200190929190803573ffffffffffffffffffffffffffffffffffffffff169060200190929190803515159060200190929190505050610f14565b604051808215151515815260200191505060405180910390f35b3480156102eb57600080fd5b5061032a600480360381019080803573ffffffffffffffffffffffffffffffffffffffff169060200190929190803590602001909291905050506110ff565b604051808215151515815260200191505060405180910390f35b34801561035057600080fd5b5061036f6004803603810190808035906020019092919050505061122c565b005b34801561037d57600080fd5b506103a6600480360381019080803590602001909291908035906020019092919050505061122f565b005b3480156103b457600080fd5b506103bd611453565b6040518082815260200191505060405180910390f35b3480156103df57600080fd5b506103e8611459565b6040518082815260200191505060405180910390f35b34801561040a57600080fd5b50610413611463565b6040518082815260200191505060405180910390f35b34801561043557600080fd5b5061043e611469565b005b34801561044c57600080fd5b506104ab600480360381019080803573ffffffffffffffffffffffffffffffffffffffff169060200190929190803573ffffffffffffffffffffffffffffffffffffffff1690602001909291908035906020019092919050505061150b565b604051808215151515815260200191505060405180910390f35b3480156104d157600080fd5b506104da6116bd565b6040518082815260200191505060405180910390f35b3480156104fc57600080fd5b5061051b600480360381019080803590602001909291905050506116e0565b604051808381526020018281526020019250505060405180910390f35b34801561054457600080fd5b5061054d611709565b6040518082815260200191505060405180910390f35b34801561056f57600080fd5b506105ae600480360381019080803573ffffffffffffffffffffffffffffffffffffffff1690602001909291908035906020019092919050505061170e565b604051808215151515815260200191505060405180910390f35b3480156105d457600080fd5b506105dd611945565b005b3480156105eb57600080fd5b506106e86004803603810190808035906020019092919080359060200190820180359060200190808060200260200160405190810160405280939291908181526020018383602002808284378201915050505050509192919290803590602001908201803590602001908080601f0160208091040260200160405190810160405280939291908181526020018383808284378201915050505050509192919290803515159060200190929190803560ff16906020019092919080356000191690602001909291908035600019169060200190929190803573ffffffffffffffffffffffffffffffffffffffff169060200190929190505050611a21565b6040518082815260200191505060405180910390f35b34801561070a57600080fd5b50610713611db9565b6040518082815260200191505060405180910390f35b34801561073557600080fd5b50610790600480360381019080803590602001908201803590602001908080601f0160208091040260200160405190810160405280939291908181526020018383808284378201915050505050509192919290505050611dbf565b604051808273ffffffffffffffffffffffffffffffffffffffff1673ffffffffffffffffffffffffffffffffffffffff16815260200191505060405180910390f35b3480156107de57600080fd5b5061081b60048036038101908080359060200190929190803590602001909291908035906020019092919080359060200190929190505050611e45565b6040518082815260200191505060405180910390f35b34801561083d57600080fd5b50610846611ef9565b60405180826000191660001916815260200191505060405180910390f35b34801561087057600080fd5b506108a5600480360381019080803573ffffffffffffffffffffffffffffffffffffffff169060200190929190505050611eff565b6040518082815260200191505060405180910390f35b3480156108c757600080fd5b5061092d600480360381019080803560001916906020019092919080359060200190820180359060200190808060200260200160405190810160405280939291908181526020018383602002808284378201915050505050509192919290505050611f47565b604051808215151515815260200191505060405180910390f35b34801561095357600080fd5b50610992600480360381019080803573ffffffffffffffffffffffffffffffffffffffff16906020019092919080359060200190929190505050611f92565b6040518085815260200184815260200183815260200182815260200194505050505060405180910390f35b3480156109c957600080fd5b506109d2611fde565b6040518080602001828103825283818151815260200191508051906020019080838360005b83811015610a125780820151818401526020810190506109f7565b50505050905090810190601f168015610a3f5780820380516001836020036101000a031916815260200191505b509250505060405180910390f35b348015610a5957600080fd5b50610a8c600480360381019080803590602001909291908035906020019092919080359060200190929190505050612017565b6040518082815260200191505060405180910390f35b348015610aae57600080fd5b50610aed600480360381019080803573ffffffffffffffffffffffffffffffffffffffff16906020019092919080359060200190929190505050612056565b604051808215151515815260200191505060405180910390f35b348015610b1357600080fd5b50610b52600480360381019080803573ffffffffffffffffffffffffffffffffffffffff1690602001909291908035906020019092919050505061228d565b604051808215151515815260200191505060405180910390f35b348015610b7857600080fd5b50610b816122a4565b604051808215151515815260200191505060405180910390f35b348015610ba757600080fd5b50610c0d6004803603810190808035906020019082018035906020019080806020026020016040519081016040528093929190818152602001838360200280828437820191505050505050919291929080356000191690602001909291905050506122b6565b604051808215151515815260200191505060405180910390f35b348015610c3357600080fd5b50610cd7600480360381019080803573ffffffffffffffffffffffffffffffffffffffff169060200190929190803590602001908201803590602001908080601f0160208091040260200160405190810160405280939291908181526020018383808284378201915050505050509192919290803560ff169060200190929190803560001916906020019092919080356000191690602001909291905050506122cd565b604051808215151515815260200191505060405180910390f35b348015610cfd57600080fd5b50610d7860048036038101908080356bffffffffffffffffffffffff1916906020019092919080359060200190929190803590602001908201803590602001908080602002602001604051908101604052809392919081815260200183836020028082843782019150505050505091929192905050506123ec565b604051808215151515815260200191505060405180910390f35b348015610d9e57600080fd5b50610df3600480360381019080803573ffffffffffffffffffffffffffffffffffffffff169060200190929190803573ffffffffffffffffffffffffffffffffffffffff1690602001909291905050506124ad565b6040518082815260200191505060405180910390f35b348015610e1557600080fd5b50610e7c600480360381019080803590602001908201803590602001908080601f0160208091040260200160405190810160405280939291908181526020018383808284378201915050505050509192919290803515159060200190929190505050612534565b60405180826bffffffffffffffffffffffff19166bffffffffffffffffffffffff1916815260200191505060405180910390f35b348015610ebc57600080fd5b50610ec56128f3565b6040518082815260200191505060405180910390f35b6040805190810160405280600a81526020017f426974636f696e4865780000000000000000000000000000000000000000000081525081565b6000806060831515610f2857889150611042565b6040805190810160405280601c81526020017f19457468657265756d205369676e6564204d6573736167653a0a333200000000815250905080896040516020018083805190602001908083835b602083101515610f9a5780518252602082019150602081019050602083039250610f75565b6001836020036101000a0380198251168184511680821785525050505050509050018260001916600019168152602001925050506040516020818303038152906040526040518082805190602001908083835b6020831015156110125780518252602082019150602081019050602083039250610fed565b6001836020036101000a038019825116818451168082178552505050505050905001915050604051809103902091505b8473ffffffffffffffffffffffffffffffffffffffff166001838a8a8a604051600081526020016040526040518085600019166000191681526020018460ff1660ff1681526020018360001916600019168152602001826000191660001916815260200194505050505060206040516020810390808403906000865af11580156110d0573d6000803e3d6000fd5b5050506020604051035173ffffffffffffffffffffffffffffffffffffffff1614925050509695505050505050565b60008073ffffffffffffffffffffffffffffffffffffffff168373ffffffffffffffffffffffffffffffffffffffff161415151561113c57600080fd5b81600160003373ffffffffffffffffffffffffffffffffffffffff1673ffffffffffffffffffffffffffffffffffffffff16815260200190815260200160002060008573ffffffffffffffffffffffffffffffffffffffff1673ffffffffffffffffffffffffffffffffffffffff168152602001908152602001600020819055508273ffffffffffffffffffffffffffffffffffffffff163373ffffffffffffffffffffffffffffffffffffffff167f8c5be1e5ebec7d5bd14f71427d1e84f3dd0314c0f7b2291e5b200ac8c7c3b925846040518082815260200191505060405180910390a36001905092915050565b50565b600080600061125c61124d620d2f00866128f990919063ffffffff16565b4261293790919063ffffffff16565b92508461126833611eff565b1015151561127557600080fd5b61128c6312cc03004261293790919063ffffffff16565b831115151561129a57600080fd5b6112b0620d2f004261293790919063ffffffff16565b83101515156112be57600080fd5b6112c6611945565b6112ce611469565b6112f66101686112e860c8876128f990919063ffffffff16565b61295890919063ffffffff16565b9150611330611321606461131385896128f990919063ffffffff16565b61295890919063ffffffff16565b8661293790919063ffffffff16565b9050601060003373ffffffffffffffffffffffffffffffffffffffff1673ffffffffffffffffffffffffffffffffffffffff1681526020019081526020016000206080604051908101604052808781526020018381526020014281526020018581525090806001815401808255809150509060018203906000526020600020906004020160009091929091909150600082015181600001556020820151816001015560408201518160020155606082015181600301555050506113fe8560115461293790919063ffffffff16565b6011819055506114198160125461293790919063ffffffff16565b60128190555061144c33600560009054906101000a900473ffffffffffffffffffffffffffffffffffffffff1687612982565b5050505050565b60115481565b6000600254905090565b60125481565b60005b600b54611477612b9b565b11156115085761149961041661148b612bab565b61295890919063ffffffff16565b90506040805190810160405280828152602001601154815250600d60006114cc6001600b5461293790919063ffffffff16565b81526020019081526020016000206000820151816000015560208201518160010155905050600b6000815480929190600101919050555061146c565b50565b6000600160008573ffffffffffffffffffffffffffffffffffffffff1673ffffffffffffffffffffffffffffffffffffffff16815260200190815260200160002060003373ffffffffffffffffffffffffffffffffffffffff1673ffffffffffffffffffffffffffffffffffffffff16815260200190815260200160002054821115151561159857600080fd5b61162782600160008773ffffffffffffffffffffffffffffffffffffffff1673ffffffffffffffffffffffffffffffffffffffff16815260200190815260200160002060003373ffffffffffffffffffffffffffffffffffffffff1673ffffffffffffffffffffffffffffffffffffffff16815260200190815260200160002054612bd690919063ffffffff16565b600160008673ffffffffffffffffffffffffffffffffffffffff1673ffffffffffffffffffffffffffffffffffffffff16815260200190815260200160002060003373ffffffffffffffffffffffffffffffffffffffff1673ffffffffffffffffffffffffffffffffffffffff168152602001908152602001600020819055506116b2848484612982565b600190509392505050565b60006116db6011546116cd611459565b612bd690919063ffffffff16565b905090565b6000806000806116ef85612bf7565b91506116fa82612c40565b90508181935093505050915091565b600881565b60008073ffffffffffffffffffffffffffffffffffffffff168373ffffffffffffffffffffffffffffffffffffffff161415151561174b57600080fd5b6117da82600160003373ffffffffffffffffffffffffffffffffffffffff1673ffffffffffffffffffffffffffffffffffffffff16815260200190815260200160002060008673ffffffffffffffffffffffffffffffffffffffff1673ffffffffffffffffffffffffffffffffffffffff1681526020019081526020016000205461293790919063ffffffff16565b600160003373ffffffffffffffffffffffffffffffffffffffff1673ffffffffffffffffffffffffffffffffffffffff16815260200190815260200160002060008573ffffffffffffffffffffffffffffffffffffffff1673ffffffffffffffffffffffffffffffffffffffff168152602001908152602001600020819055508273ffffffffffffffffffffffffffffffffffffffff163373ffffffffffffffffffffffffffffffffffffffff167f8c5be1e5ebec7d5bd14f71427d1e84f3dd0314c0f7b2291e5b200ac8c7c3b925600160003373ffffffffffffffffffffffffffffffffffffffff1673ffffffffffffffffffffffffffffffffffffffff16815260200190815260200160002060008773ffffffffffffffffffffffffffffffffffffffff1673ffffffffffffffffffffffffffffffffffffffff168152602001908152602001600020546040518082815260200191505060405180910390a36001905092915050565b60005b600a54611953612ca8565b1115611a1e57611970600654600f54612bd690919063ffffffff16565b90506040805190810160405280828152602001601154815250600c60006119a36001600a5461293790919063ffffffff16565b81526020019081526020016000206000820151816000015560208201518160010155905050611a07600360009054906101000a900473ffffffffffffffffffffffffffffffffffffffff16611a0260328461295890919063ffffffff16565b612cb8565b600a60008154809291906001019190505550611948565b50565b6000806000806000611a316122a4565b1515611a3c57600080fd5b611a468b8b612534565b9350838d60405160200180836bffffffffffffffffffffffff19166bffffffffffffffffffffffff19168152601401828152602001925050506040516020818303038152906040526040518082805190602001908083835b602083101515611ac35780518252602082019150602081019050602083039250611a9e565b6001836020036101000a03801982511681845116808217855250505050505090500191505060405180910390209250611afc838d611f47565b1515611b0757600080fd5b611b0f611945565b611b17611469565b611b24338c8b8b8b6122cd565b1515611b2f57600080fd5b600f54611b478360065461293790919063ffffffff16565b11151515611b5457600080fd5b611b698d60065461293790919063ffffffff16565b600681905550600160096000856000191660001916815260200190815260200160002060006101000a81548160ff021916908315150217905550611bac8d6116e0565b91509150611bcc33611bc7838561293790919063ffffffff16565b612cb8565b611bf8600360009054906101000a900473ffffffffffffffffffffffffffffffffffffffff1682612cb8565b611c0e600160075461293790919063ffffffff16565b6007819055503373ffffffffffffffffffffffffffffffffffffffff16600073ffffffffffffffffffffffffffffffffffffffff167fddf252ad1be2c89b69c2b068fc378daa952ba7f163c4a11628f55a4df523b3ef611c77848661293790919063ffffffff16565b6040518082815260200191505060405180910390a3600360009054906101000a900473ffffffffffffffffffffffffffffffffffffffff1673ffffffffffffffffffffffffffffffffffffffff16600073ffffffffffffffffffffffffffffffffffffffff167fddf252ad1be2c89b69c2b068fc378daa952ba7f163c4a11628f55a4df523b3ef836040518082815260200191505060405180910390a3600073ffffffffffffffffffffffffffffffffffffffff168673ffffffffffffffffffffffffffffffffffffffff16141515611d9457611d548683612cb8565b611d93600360009054906101000a900473ffffffffffffffffffffffffffffffffffffffff16611d8e60148561295890919063ffffffff16565b612cb8565b5b611da7818361293790919063ffffffff16565b94505050505098975050505050505050565b60075481565b600073ffffffffffffffffffffffffffffffffffffffff826040518082805190602001908083835b602083101515611e0c5780518252602082019150602081019050602083039250611de7565b6001836020036101000a038019825116818451168082178552505050505050905001915050604051809103902060019004169050919050565b60008060008060008060009450611e5b88612df6565b9350611e6687612df6565b92508391505b82821015611ee957611ec5600d600084815260200190815260200160002060010154611eb78b600d6000878152602001908152602001600020600001546128f990919063ffffffff16565b61295890919063ffffffff16565b9050611eda818661293790919063ffffffff16565b94508180600101925050611e6c565b8495505050505050949350505050565b60085481565b60008060008373ffffffffffffffffffffffffffffffffffffffff1673ffffffffffffffffffffffffffffffffffffffff168152602001908152602001600020549050919050565b600080151560096000856000191660001916815260200190815260200160002060009054906101000a900460ff161515148015611f8a5750611f8982846122b6565b5b905092915050565b601060205281600052604060002081815481101515611fad57fe5b9060005260206000209060040201600091509150508060000154908060010154908060020154908060030154905084565b6040805190810160405280600381526020017f424858000000000000000000000000000000000000000000000000000000000081525081565b600080600090506120266122a4565b1561204b57612048612039868686612e29565b8261293790919063ffffffff16565b90505b809150509392505050565b60008073ffffffffffffffffffffffffffffffffffffffff168373ffffffffffffffffffffffffffffffffffffffff161415151561209357600080fd5b61212282600160003373ffffffffffffffffffffffffffffffffffffffff1673ffffffffffffffffffffffffffffffffffffffff16815260200190815260200160002060008673ffffffffffffffffffffffffffffffffffffffff1673ffffffffffffffffffffffffffffffffffffffff16815260200190815260200160002054612bd690919063ffffffff16565b600160003373ffffffffffffffffffffffffffffffffffffffff1673ffffffffffffffffffffffffffffffffffffffff16815260200190815260200160002060008573ffffffffffffffffffffffffffffffffffffffff1673ffffffffffffffffffffffffffffffffffffffff168152602001908152602001600020819055508273ffffffffffffffffffffffffffffffffffffffff163373ffffffffffffffffffffffffffffffffffffffff167f8c5be1e5ebec7d5bd14f71427d1e84f3dd0314c0f7b2291e5b200ac8c7c3b925600160003373ffffffffffffffffffffffffffffffffffffffff1673ffffffffffffffffffffffffffffffffffffffff16815260200190815260200160002060008773ffffffffffffffffffffffffffffffffffffffff1673ffffffffffffffffffffffffffffffffffffffff168152602001908152602001600020546040518082815260200191505060405180910390a36001905092915050565b600061229a338484612982565b6001905092915050565b600060326122b0612ca8565b10905090565b60006122c58360085484612ef2565b905092915050565b60006123e1600287604051602001808273ffffffffffffffffffffffffffffffffffffffff1673ffffffffffffffffffffffffffffffffffffffff166c010000000000000000000000000281526014019150506040516020818303038152906040526040518082805190602001908083835b602083101515612364578051825260208201915060208101905060208303925061233f565b6001836020036101000a0380198251168184511680821785525050505050509050019150506020604051808303816000865af11580156123a8573d6000803e3d6000fd5b5050506040513d60208110156123bd57600080fd5b81019080805190602001909291905050508585856123da8a611dbf565b6000610f14565b905095945050505050565b600080848460405160200180836bffffffffffffffffffffffff19166bffffffffffffffffffffffff19168152601401828152602001925050506040516020818303038152906040526040518082805190602001908083835b60208310151561246a5780518252602082019150602081019050602083039250612445565b6001836020036101000a038019825116818451168082178552505050505050905001915050604051809103902090506124a38184611f47565b9150509392505050565b6000600160008473ffffffffffffffffffffffffffffffffffffffff1673ffffffffffffffffffffffffffffffffffffffff16815260200190815260200160002060008373ffffffffffffffffffffffffffffffffffffffff1673ffffffffffffffffffffffffffffffffffffffff16815260200190815260200160002054905092915050565b600080600080612545866000613095565b600190049250612556866020613095565b600190049150841561273257600060028381151561257057fe5b061461257d576003612580565b60025b9050600360028285604051602001808360ff1660ff167f0100000000000000000000000000000000000000000000000000000000000000028152600101828152602001925050506040516020818303038152906040526040518082805190602001908083835b60208310151561260b57805182526020820191506020810190506020830392506125e6565b6001836020036101000a0380198251168184511680821785525050505050509050019150506020604051808303816000865af115801561264f573d6000803e3d6000fd5b5050506040513d602081101561266457600080fd5b81019080805190602001909291905050506040516020018082600019166000191681526020019150506040516020818303038152906040526040518082805190602001908083835b6020831015156126d157805182526020820191506020810190506020830392506126ac565b6001836020036101000a0380198251168184511680821785525050505050509050019150506020604051808303816000865af1158015612715573d6000803e3d6000fd5b505050604051516c010000000000000000000000000293506128ea565b6004905060036002828585604051602001808460ff1660ff167f010000000000000000000000000000000000000000000000000000000000000002815260010183815260200182815260200193505050506040516020818303038152906040526040518082805190602001908083835b6020831015156127c757805182526020820191506020810190506020830392506127a2565b6001836020036101000a0380198251168184511680821785525050505050509050019150506020604051808303816000865af115801561280b573d6000803e3d6000fd5b5050506040513d602081101561282057600080fd5b81019080805190602001909291905050506040516020018082600019166000191681526020019150506040516020818303038152906040526040518082805190602001908083835b60208310151561288d5780518252602082019150602081019050602083039250612868565b6001836020036101000a0380198251168184511680821785525050505050509050019150506020604051808303816000865af11580156128d1573d6000803e3d6000fd5b505050604051516c010000000000000000000000000293505b50505092915050565b60065481565b600080600084141561290e5760009150612930565b828402905082848281151561291f57fe5b0414151561292c57600080fd5b8091505b5092915050565b600080828401905083811015151561294e57600080fd5b8091505092915050565b60008060008311151561296a57600080fd5b828481151561297557fe5b0490508091505092915050565b6000808473ffffffffffffffffffffffffffffffffffffffff1673ffffffffffffffffffffffffffffffffffffffff1681526020019081526020016000205481111515156129cf57600080fd5b600073ffffffffffffffffffffffffffffffffffffffff168273ffffffffffffffffffffffffffffffffffffffff1614151515612a0b57600080fd5b612a5c816000808673ffffffffffffffffffffffffffffffffffffffff1673ffffffffffffffffffffffffffffffffffffffff16815260200190815260200160002054612bd690919063ffffffff16565b6000808573ffffffffffffffffffffffffffffffffffffffff1673ffffffffffffffffffffffffffffffffffffffff16815260200190815260200160002081905550612aef816000808573ffffffffffffffffffffffffffffffffffffffff1673ffffffffffffffffffffffffffffffffffffffff1681526020019081526020016000205461293790919063ffffffff16565b6000808473ffffffffffffffffffffffffffffffffffffffff1673ffffffffffffffffffffffffffffffffffffffff168152602001908152602001600020819055508173ffffffffffffffffffffffffffffffffffffffff168373ffffffffffffffffffffffffffffffffffffffff167fddf252ad1be2c89b69c2b068fc378daa952ba7f163c4a11628f55a4df523b3ef836040518082815260200191505060405180910390a3505050565b6000612ba642612df6565b905090565b600080612bb6611459565b9050600f54612bc3611459565b1015612bcf57600f5490505b8091505090565b600080838311151515612be857600080fd5b82840390508091505092915050565b6000612c396064612c2b612c1c6002612c0e612ca8565b6128f990919063ffffffff16565b856128f990919063ffffffff16565b61295890919063ffffffff16565b9050919050565b600080600060649150612c76612c676002612c59612ca8565b6128f990919063ffffffff16565b83612bd690919063ffffffff16565b9050612c9f6103e8612c9183876128f990919063ffffffff16565b61295890919063ffffffff16565b92505050919050565b6000612cb342613173565b905090565b60008273ffffffffffffffffffffffffffffffffffffffff1614151515612cde57600080fd5b612cf38160025461293790919063ffffffff16565b600281905550612d4a816000808573ffffffffffffffffffffffffffffffffffffffff1673ffffffffffffffffffffffffffffffffffffffff1681526020019081526020016000205461293790919063ffffffff16565b6000808473ffffffffffffffffffffffffffffffffffffffff1673ffffffffffffffffffffffffffffffffffffffff168152602001908152602001600020819055508173ffffffffffffffffffffffffffffffffffffffff16600073ffffffffffffffffffffffffffffffffffffffff167fddf252ad1be2c89b69c2b068fc378daa952ba7f163c4a11628f55a4df523b3ef836040518082815260200191505060405180910390a35050565b6000612e22620d2f00612e1460045485612bd690919063ffffffff16565b61295890919063ffffffff16565b9050919050565b60008060008060008060008060009650612e428a613173565b955060008614612e525785612e55565b60015b9450612e6089613173565b935060328411612e705783612e73565b60325b92508491505b82821015612ee157612ebd6032612eaf8d600c6000878152602001908152602001600020600001546128f990919063ffffffff16565b61295890919063ffffffff16565b9050612ed2818861293790919063ffffffff16565b96508180600101925050612e79565b869750505050505050509392505050565b600080600080849250600091505b865182101561307e578682815181101515612f1757fe5b906020019060200201519050806000191683600019161015612fd45782816040516020018083600019166000191681526020018260001916600019168152602001925050506040516020818303038152906040526040518082805190602001908083835b602083101515612fa05780518252602082019150602081019050602083039250612f7b565b6001836020036101000a03801982511681845116808217855250505050505090500191505060405180910390209250613071565b80836040516020018083600019166000191681526020018260001916600019168152602001925050506040516020818303038152906040526040518082805190602001908083835b602083101515613041578051825260208201915060208101905060208303925061301c565b6001836020036101000a038019825116818451168082178552505050505050905001915050604051809103902092505b8180600101925050612f00565b856000191683600019161493505050509392505050565b60008060008090505b60208110156131685760088102858583018151811015156130bb57fe5b9060200101517f010000000000000000000000000000000000000000000000000000000000000090047f0100000000000000000000000000000000000000000000000000000000000000027effffffffffffffffffffffffffffffffffffffffffffffffffffffffffffff19167fff0000000000000000000000000000000000000000000000000000000000000060010216600019169060020a900482189150808060010191505061309e565b819250505092915050565b600061319f62093a8061319160045485612bd690919063ffffffff16565b61295890919063ffffffff16565b90509190505600a165627a7a723058206007f36552754b1ca7a2f340bd640df9f341323289989c86577a92038df709920029",
  "source": "pragma solidity ^0.4.24;\n\nimport \"./StakeableToken.sol\";\n\ncontract BitcoinHex is StakeableToken {\n  constructor (\n    address _originAddress,\n    bytes32 _rootUtxoMerkleTreeHash,\n    uint256 _maximumRedeemable,\n    uint256 _UTXOCountAtFork\n  ) public {\n    launchTime = block.timestamp;\n    origin = _originAddress;\n    rootUtxoMerkleTreeHash = _rootUtxoMerkleTreeHash;\n    maximumRedeemable = _maximumRedeemable;\n    UTXOCountAtFork = _UTXOCountAtFork;\n  }\n}\n",
  "sourcePath": "/Users/mesquka/Git/Bitcoin Hex/contract/contracts/BitcoinHex.sol",
  "compiler": {
    "name": "solc",
    "version": "0.4.24+commit.e67f0147.Emscripten.clang"
  },
  "schemaVersion": "2.0.1",
  "updatedAt": "2018-11-03T04:46:26.367Z"
}