{
  "contractName": "GlobalsAndUtility",
  "abi": [
    {
      "constant": true,
      "inputs": [],
      "name": "name",
      "outputs": [
        {
          "name": "",
          "type": "string"
        }
      ],
      "payable": false,
      "stateMutability": "view",
      "type": "function"
    },
    {
      "constant": false,
      "inputs": [
        {
          "name": "spender",
          "type": "address"
        },
        {
          "name": "value",
          "type": "uint256"
        }
      ],
      "name": "approve",
      "outputs": [
        {
          "name": "",
          "type": "bool"
        }
      ],
      "payable": false,
      "stateMutability": "nonpayable",
      "type": "function"
    },
    {
      "constant": true,
      "inputs": [],
      "name": "totalStakedCoins",
      "outputs": [
        {
          "name": "",
          "type": "uint256"
        }
      ],
      "payable": false,
      "stateMutability": "view",
      "type": "function"
    },
    {
      "constant": true,
      "inputs": [],
      "name": "totalSupply",
      "outputs": [
        {
          "name": "",
          "type": "uint256"
        }
      ],
      "payable": false,
      "stateMutability": "view",
      "type": "function"
    },
    {
      "constant": false,
      "inputs": [
        {
          "name": "from",
          "type": "address"
        },
        {
          "name": "to",
          "type": "address"
        },
        {
          "name": "value",
          "type": "uint256"
        }
      ],
      "name": "transferFrom",
      "outputs": [
        {
          "name": "",
          "type": "bool"
        }
      ],
      "payable": false,
      "stateMutability": "nonpayable",
      "type": "function"
    },
    {
      "constant": true,
      "inputs": [],
      "name": "decimals",
      "outputs": [
        {
          "name": "",
          "type": "uint256"
        }
      ],
      "payable": false,
      "stateMutability": "view",
      "type": "function"
    },
    {
      "constant": false,
      "inputs": [
        {
          "name": "spender",
          "type": "address"
        },
        {
          "name": "addedValue",
          "type": "uint256"
        }
      ],
      "name": "increaseAllowance",
      "outputs": [
        {
          "name": "",
          "type": "bool"
        }
      ],
      "payable": false,
      "stateMutability": "nonpayable",
      "type": "function"
    },
    {
      "constant": true,
      "inputs": [],
      "name": "redeemedCount",
      "outputs": [
        {
          "name": "",
          "type": "uint256"
        }
      ],
      "payable": false,
      "stateMutability": "view",
      "type": "function"
    },
    {
      "constant": true,
      "inputs": [],
      "name": "rootUtxoMerkleTreeHash",
      "outputs": [
        {
          "name": "",
          "type": "bytes32"
        }
      ],
      "payable": false,
      "stateMutability": "view",
      "type": "function"
    },
    {
      "constant": true,
      "inputs": [
        {
          "name": "owner",
          "type": "address"
        }
      ],
      "name": "balanceOf",
      "outputs": [
        {
          "name": "",
          "type": "uint256"
        }
      ],
      "payable": false,
      "stateMutability": "view",
      "type": "function"
    },
    {
      "constant": true,
      "inputs": [
        {
          "name": "",
          "type": "address"
        },
        {
          "name": "",
          "type": "uint256"
        }
      ],
      "name": "staked",
      "outputs": [
        {
          "name": "amount",
          "type": "uint256"
        },
        {
          "name": "stakeTime",
          "type": "uint256"
        },
        {
          "name": "unlockTime",
          "type": "uint256"
        }
      ],
      "payable": false,
      "stateMutability": "view",
      "type": "function"
    },
    {
      "constant": true,
      "inputs": [],
      "name": "symbol",
      "outputs": [
        {
          "name": "",
          "type": "string"
        }
      ],
      "payable": false,
      "stateMutability": "view",
      "type": "function"
    },
    {
      "constant": false,
      "inputs": [
        {
          "name": "spender",
          "type": "address"
        },
        {
          "name": "subtractedValue",
          "type": "uint256"
        }
      ],
      "name": "decreaseAllowance",
      "outputs": [
        {
          "name": "",
          "type": "bool"
        }
      ],
      "payable": false,
      "stateMutability": "nonpayable",
      "type": "function"
    },
    {
      "constant": false,
      "inputs": [
        {
          "name": "to",
          "type": "address"
        },
        {
          "name": "value",
          "type": "uint256"
        }
      ],
      "name": "transfer",
      "outputs": [
        {
          "name": "",
          "type": "bool"
        }
      ],
      "payable": false,
      "stateMutability": "nonpayable",
      "type": "function"
    },
    {
      "constant": true,
      "inputs": [
        {
          "name": "owner",
          "type": "address"
        },
        {
          "name": "spender",
          "type": "address"
        }
      ],
      "name": "allowance",
      "outputs": [
        {
          "name": "",
          "type": "uint256"
        }
      ],
      "payable": false,
      "stateMutability": "view",
      "type": "function"
    },
    {
      "constant": true,
      "inputs": [],
      "name": "totalRedeemed",
      "outputs": [
        {
          "name": "",
          "type": "uint256"
        }
      ],
      "payable": false,
      "stateMutability": "view",
      "type": "function"
    },
    {
      "anonymous": false,
      "inputs": [
        {
          "indexed": true,
          "name": "from",
          "type": "address"
        },
        {
          "indexed": true,
          "name": "to",
          "type": "address"
        },
        {
          "indexed": false,
          "name": "value",
          "type": "uint256"
        }
      ],
      "name": "Transfer",
      "type": "event"
    },
    {
      "anonymous": false,
      "inputs": [
        {
          "indexed": true,
          "name": "owner",
          "type": "address"
        },
        {
          "indexed": true,
          "name": "spender",
          "type": "address"
        },
        {
          "indexed": false,
          "name": "value",
          "type": "uint256"
        }
      ],
      "name": "Approval",
      "type": "event"
    },
    {
      "constant": true,
      "inputs": [],
      "name": "isClaimsPeriod",
      "outputs": [
        {
          "name": "",
          "type": "bool"
        }
      ],
      "payable": false,
      "stateMutability": "view",
      "type": "function"
    },
    {
      "constant": false,
      "inputs": [],
      "name": "storeWeeklyData",
      "outputs": [],
      "payable": false,
      "stateMutability": "nonpayable",
      "type": "function"
    },
    {
      "constant": false,
      "inputs": [],
      "name": "storePeriodData",
      "outputs": [],
      "payable": false,
      "stateMutability": "nonpayable",
      "type": "function"
    },
    {
      "constant": true,
      "inputs": [],
      "name": "getCirculatingSupply",
      "outputs": [
        {
          "name": "",
          "type": "uint256"
        }
      ],
      "payable": false,
      "stateMutability": "view",
      "type": "function"
    }
  ],
  "bytecode": "0x60806040526000600560006101000a81548173ffffffffffffffffffffffffffffffffffffffff021916908373ffffffffffffffffffffffffffffffffffffffff1602179055506000600655600060075534801561005c57600080fd5b506116848061006c6000396000f300608060405260043610610112576000357c0100000000000000000000000000000000000000000000000000000000900463ffffffff16806306fdde0314610117578063095ea7b3146101a75780631765f4bf1461020c57806318160ddd146102375780631ee752701461026257806323b872dd146102795780632b112e49146102fe578063313ce5671461032957806339509351146103545780634d3c8bc8146103b957806352aa3e6c146103d05780636aaf67e2146103fb57806370a082311461042e5780638f1698161461048557806395d89b41146104f4578063a457c2d714610584578063a9059cbb146105e9578063adf71f1f1461064e578063dd62ed3e1461067d578063f35dad40146106f4575b600080fd5b34801561012357600080fd5b5061012c61071f565b6040518080602001828103825283818151815260200191508051906020019080838360005b8381101561016c578082015181840152602081019050610151565b50505050905090810190601f1680156101995780820380516001836020036101000a031916815260200191505b509250505060405180910390f35b3480156101b357600080fd5b506101f2600480360381019080803573ffffffffffffffffffffffffffffffffffffffff16906020019092919080359060200190929190505050610758565b604051808215151515815260200191505060405180910390f35b34801561021857600080fd5b50610221610885565b6040518082815260200191505060405180910390f35b34801561024357600080fd5b5061024c61088b565b6040518082815260200191505060405180910390f35b34801561026e57600080fd5b50610277610895565b005b34801561028557600080fd5b506102e4600480360381019080803573ffffffffffffffffffffffffffffffffffffffff169060200190929190803573ffffffffffffffffffffffffffffffffffffffff16906020019092919080359060200190929190505050610937565b604051808215151515815260200191505060405180910390f35b34801561030a57600080fd5b50610313610ae9565b6040518082815260200191505060405180910390f35b34801561033557600080fd5b5061033e610b0c565b6040518082815260200191505060405180910390f35b34801561036057600080fd5b5061039f600480360381019080803573ffffffffffffffffffffffffffffffffffffffff16906020019092919080359060200190929190505050610b11565b604051808215151515815260200191505060405180910390f35b3480156103c557600080fd5b506103ce610d48565b005b3480156103dc57600080fd5b506103e5610e24565b6040518082815260200191505060405180910390f35b34801561040757600080fd5b50610410610e2a565b60405180826000191660001916815260200191505060405180910390f35b34801561043a57600080fd5b5061046f600480360381019080803573ffffffffffffffffffffffffffffffffffffffff169060200190929190505050610e30565b6040518082815260200191505060405180910390f35b34801561049157600080fd5b506104d0600480360381019080803573ffffffffffffffffffffffffffffffffffffffff16906020019092919080359060200190929190505050610e78565b60405180848152602001838152602001828152602001935050505060405180910390f35b34801561050057600080fd5b50610509610ebe565b6040518080602001828103825283818151815260200191508051906020019080838360005b8381101561054957808201518184015260208101905061052e565b50505050905090810190601f1680156105765780820380516001836020036101000a031916815260200191505b509250505060405180910390f35b34801561059057600080fd5b506105cf600480360381019080803573ffffffffffffffffffffffffffffffffffffffff16906020019092919080359060200190929190505050610ef7565b604051808215151515815260200191505060405180910390f35b3480156105f557600080fd5b50610634600480360381019080803573ffffffffffffffffffffffffffffffffffffffff1690602001909291908035906020019092919050505061112e565b604051808215151515815260200191505060405180910390f35b34801561065a57600080fd5b50610663611145565b604051808215151515815260200191505060405180910390f35b34801561068957600080fd5b506106de600480360381019080803573ffffffffffffffffffffffffffffffffffffffff169060200190929190803573ffffffffffffffffffffffffffffffffffffffff169060200190929190505050611157565b6040518082815260200191505060405180910390f35b34801561070057600080fd5b506107096111de565b6040518082815260200191505060405180910390f35b6040805190810160405280600a81526020017f426974636f696e4865780000000000000000000000000000000000000000000081525081565b60008073ffffffffffffffffffffffffffffffffffffffff168373ffffffffffffffffffffffffffffffffffffffff161415151561079557600080fd5b81600160003373ffffffffffffffffffffffffffffffffffffffff1673ffffffffffffffffffffffffffffffffffffffff16815260200190815260200160002060008573ffffffffffffffffffffffffffffffffffffffff1673ffffffffffffffffffffffffffffffffffffffff168152602001908152602001600020819055508273ffffffffffffffffffffffffffffffffffffffff163373ffffffffffffffffffffffffffffffffffffffff167f8c5be1e5ebec7d5bd14f71427d1e84f3dd0314c0f7b2291e5b200ac8c7c3b925846040518082815260200191505060405180910390a36001905092915050565b60115481565b6000600254905090565b60005b600b546108a36111e4565b1115610934576108c56104166108b76111f4565b61121f90919063ffffffff16565b90506040805190810160405280828152602001601154815250600d60006108f86001600b5461124990919063ffffffff16565b81526020019081526020016000206000820151816000015560208201518160010155905050600b60008154809291906001019190505550610898565b50565b6000600160008573ffffffffffffffffffffffffffffffffffffffff1673ffffffffffffffffffffffffffffffffffffffff16815260200190815260200160002060003373ffffffffffffffffffffffffffffffffffffffff1673ffffffffffffffffffffffffffffffffffffffff1681526020019081526020016000205482111515156109c457600080fd5b610a5382600160008773ffffffffffffffffffffffffffffffffffffffff1673ffffffffffffffffffffffffffffffffffffffff16815260200190815260200160002060003373ffffffffffffffffffffffffffffffffffffffff1673ffffffffffffffffffffffffffffffffffffffff1681526020019081526020016000205461126a90919063ffffffff16565b600160008673ffffffffffffffffffffffffffffffffffffffff1673ffffffffffffffffffffffffffffffffffffffff16815260200190815260200160002060003373ffffffffffffffffffffffffffffffffffffffff1673ffffffffffffffffffffffffffffffffffffffff16815260200190815260200160002081905550610ade84848461128b565b600190509392505050565b6000610b07601154610af961088b565b61126a90919063ffffffff16565b905090565b600881565b60008073ffffffffffffffffffffffffffffffffffffffff168373ffffffffffffffffffffffffffffffffffffffff1614151515610b4e57600080fd5b610bdd82600160003373ffffffffffffffffffffffffffffffffffffffff1673ffffffffffffffffffffffffffffffffffffffff16815260200190815260200160002060008673ffffffffffffffffffffffffffffffffffffffff1673ffffffffffffffffffffffffffffffffffffffff1681526020019081526020016000205461124990919063ffffffff16565b600160003373ffffffffffffffffffffffffffffffffffffffff1673ffffffffffffffffffffffffffffffffffffffff16815260200190815260200160002060008573ffffffffffffffffffffffffffffffffffffffff1673ffffffffffffffffffffffffffffffffffffffff168152602001908152602001600020819055508273ffffffffffffffffffffffffffffffffffffffff163373ffffffffffffffffffffffffffffffffffffffff167f8c5be1e5ebec7d5bd14f71427d1e84f3dd0314c0f7b2291e5b200ac8c7c3b925600160003373ffffffffffffffffffffffffffffffffffffffff1673ffffffffffffffffffffffffffffffffffffffff16815260200190815260200160002060008773ffffffffffffffffffffffffffffffffffffffff1673ffffffffffffffffffffffffffffffffffffffff168152602001908152602001600020546040518082815260200191505060405180910390a36001905092915050565b60005b600a54610d566114a4565b1115610e2157610d73600654600f5461126a90919063ffffffff16565b90506040805190810160405280828152602001601154815250600c6000610da66001600a5461124990919063ffffffff16565b81526020019081526020016000206000820151816000015560208201518160010155905050610e0a600360009054906101000a900473ffffffffffffffffffffffffffffffffffffffff16610e0560328461121f90919063ffffffff16565b6114b4565b600a60008154809291906001019190505550610d4b565b50565b60075481565b60085481565b60008060008373ffffffffffffffffffffffffffffffffffffffff1673ffffffffffffffffffffffffffffffffffffffff168152602001908152602001600020549050919050565b601060205281600052604060002081815481101515610e9357fe5b9060005260206000209060030201600091509150508060000154908060010154908060020154905083565b6040805190810160405280600381526020017f424858000000000000000000000000000000000000000000000000000000000081525081565b60008073ffffffffffffffffffffffffffffffffffffffff168373ffffffffffffffffffffffffffffffffffffffff1614151515610f3457600080fd5b610fc382600160003373ffffffffffffffffffffffffffffffffffffffff1673ffffffffffffffffffffffffffffffffffffffff16815260200190815260200160002060008673ffffffffffffffffffffffffffffffffffffffff1673ffffffffffffffffffffffffffffffffffffffff1681526020019081526020016000205461126a90919063ffffffff16565b600160003373ffffffffffffffffffffffffffffffffffffffff1673ffffffffffffffffffffffffffffffffffffffff16815260200190815260200160002060008573ffffffffffffffffffffffffffffffffffffffff1673ffffffffffffffffffffffffffffffffffffffff168152602001908152602001600020819055508273ffffffffffffffffffffffffffffffffffffffff163373ffffffffffffffffffffffffffffffffffffffff167f8c5be1e5ebec7d5bd14f71427d1e84f3dd0314c0f7b2291e5b200ac8c7c3b925600160003373ffffffffffffffffffffffffffffffffffffffff1673ffffffffffffffffffffffffffffffffffffffff16815260200190815260200160002060008773ffffffffffffffffffffffffffffffffffffffff1673ffffffffffffffffffffffffffffffffffffffff168152602001908152602001600020546040518082815260200191505060405180910390a36001905092915050565b600061113b33848461128b565b6001905092915050565b600060326111516114a4565b10905090565b6000600160008473ffffffffffffffffffffffffffffffffffffffff1673ffffffffffffffffffffffffffffffffffffffff16815260200190815260200160002060008373ffffffffffffffffffffffffffffffffffffffff1673ffffffffffffffffffffffffffffffffffffffff16815260200190815260200160002054905092915050565b60065481565b60006111ef426115f2565b905090565b6000806111ff61088b565b9050600f5461120c61088b565b101561121857600f5490505b8091505090565b60008060008311151561123157600080fd5b828481151561123c57fe5b0490508091505092915050565b600080828401905083811015151561126057600080fd5b8091505092915050565b60008083831115151561127c57600080fd5b82840390508091505092915050565b6000808473ffffffffffffffffffffffffffffffffffffffff1673ffffffffffffffffffffffffffffffffffffffff1681526020019081526020016000205481111515156112d857600080fd5b600073ffffffffffffffffffffffffffffffffffffffff168273ffffffffffffffffffffffffffffffffffffffff161415151561131457600080fd5b611365816000808673ffffffffffffffffffffffffffffffffffffffff1673ffffffffffffffffffffffffffffffffffffffff1681526020019081526020016000205461126a90919063ffffffff16565b6000808573ffffffffffffffffffffffffffffffffffffffff1673ffffffffffffffffffffffffffffffffffffffff168152602001908152602001600020819055506113f8816000808573ffffffffffffffffffffffffffffffffffffffff1673ffffffffffffffffffffffffffffffffffffffff1681526020019081526020016000205461124990919063ffffffff16565b6000808473ffffffffffffffffffffffffffffffffffffffff1673ffffffffffffffffffffffffffffffffffffffff168152602001908152602001600020819055508173ffffffffffffffffffffffffffffffffffffffff168373ffffffffffffffffffffffffffffffffffffffff167fddf252ad1be2c89b69c2b068fc378daa952ba7f163c4a11628f55a4df523b3ef836040518082815260200191505060405180910390a3505050565b60006114af42611625565b905090565b60008273ffffffffffffffffffffffffffffffffffffffff16141515156114da57600080fd5b6114ef8160025461124990919063ffffffff16565b600281905550611546816000808573ffffffffffffffffffffffffffffffffffffffff1673ffffffffffffffffffffffffffffffffffffffff1681526020019081526020016000205461124990919063ffffffff16565b6000808473ffffffffffffffffffffffffffffffffffffffff1673ffffffffffffffffffffffffffffffffffffffff168152602001908152602001600020819055508173ffffffffffffffffffffffffffffffffffffffff16600073ffffffffffffffffffffffffffffffffffffffff167fddf252ad1be2c89b69c2b068fc378daa952ba7f163c4a11628f55a4df523b3ef836040518082815260200191505060405180910390a35050565b600061161e620d2f006116106004548561126a90919063ffffffff16565b61121f90919063ffffffff16565b9050919050565b600061165162093a806116436004548561126a90919063ffffffff16565b61121f90919063ffffffff16565b90509190505600a165627a7a723058202f6b9b60c6a04cc1c4084100e3337a1f5965466a30f837eb153f8afdcd8db2800029",
  "source": "pragma solidity ^0.4.24;\n\nimport \"../node_modules/openzeppelin-solidity/contracts/token/ERC20/ERC20.sol\";\nimport \"../node_modules/openzeppelin-solidity/contracts/math/SafeMath.sol\";\n\ncontract GlobalsAndUtility is ERC20 {\n  using SafeMath for uint256;\n  \n  /* Origin Address */\n  address internal origin;\n\n  /* ERC20 Constants */\n  string public constant name = \"BitcoinHex\"; \n  string public constant symbol = \"BHX\";\n  uint public constant decimals = 8;\n\n  /* Store time of launch for contract */\n  uint256 internal launchTime;\n\n  /* Address to store coins in stake */\n  address stakingAddress = 0x0;\n\n  /* Total tokens redeemed so far. */\n  uint256 public totalRedeemed = 0;\n  uint256 public redeemedCount = 0;\n\n  /* Root hash of the UTXO Merkle tree */\n  bytes32 public rootUtxoMerkleTreeHash;\n\n  /* Redeemed UTXOs. */\n  mapping(bytes32 => bool) internal redeemedUTXOs;\n\n  /* Store last week storeWeeklyData() ran */\n  uint256 internal lastUpdatedWeek;\n\n  /* Store last period storePeriodData() ran */\n  uint256 internal lastUpdatedPeriod;\n\n  /* Weekly data */\n  struct WeeklyDataStuct {\n    uint256 unclaimedCoins;\n    uint256 totalStaked;\n  }\n  mapping(uint256 => WeeklyDataStuct) internal weeklyData;\n\n  /* Period data */\n  struct PeriodDataStuct {\n    uint256 payoutRoundAmount;\n    uint256 totalStaked;\n  }\n  mapping(uint256 => PeriodDataStuct) internal periodData;\n\n  /* Total number of UTXO's at fork */\n  uint256 internal UTXOCountAtFork;\n\n  /* Maximum redeemable coins at fork */\n  uint256 internal maximumRedeemable;\n\n  /* Stakes Storage */\n  struct StakeStruct {\n    uint256 amount;\n    uint256 stakeTime;\n    uint256 unlockTime;\n  }\n  mapping(address => StakeStruct[]) public staked;\n  uint256 public totalStakedCoins;\n  uint256 internal constant maxStakingTime = 365 days * 10; // Solidity automatically converts 'days' to seconds\n  uint256 internal constant oneInterestPeriod = 10 days; // Solidity automatically converts 'days' to seconds\n\n  /**\n   * @dev Calculates maximum of Total Supply and MaxRedeemable, this is to keep calculations in the early rounds sane\n   * @return Maximum of Total Supply and MaxRedeemable\n   */\n  function maxOfTotalSupplyVSMaxRedeemable() internal view returns (uint256) {\n    uint256 _maxOfTotalSupplyVSMaxRedeemable = totalSupply();\n    if (totalSupply() < maximumRedeemable) {\n      _maxOfTotalSupplyVSMaxRedeemable = maximumRedeemable;\n    }\n    return _maxOfTotalSupplyVSMaxRedeemable;\n  }\n\n  /**\n   * @dev Converts timestamp to number of weeks into contract\n   * @param _timestamp timestamp to convert\n   * @return number of weeks into contract\n   */\n  function timestampToWeeks(\n    uint256 _timestamp\n  ) internal view returns (uint256) {\n    return (_timestamp.sub(launchTime).div(7 days));\n  }\n\n  /**\n   * @dev Checks number of weeks since launch of contract\n   * @return number of weeks since launch\n   */\n  function weeksSinceLaunch() internal view returns (uint256) {\n    return (timestampToWeeks(block.timestamp));\n  }\n\n  /**\n   * @dev Converts timestamp to number of periods into contract\n   * @param _timestamp timestamp to convert\n   * @return number of periods into contract\n   */\n  function timestampToPeriods(\n    uint256 _timestamp\n  ) internal view returns (uint256) {\n    return (_timestamp.sub(launchTime).div(10 days));\n  }\n\n  /**\n  * @dev Checks number of periods since launch of contract\n  * @return number of periods since launch\n  */\n  function periodsSinceLaunch() internal view returns (uint256) {\n    return (timestampToPeriods(block.timestamp));\n  }\n\n  /**\n   * @dev PUBLIC FACING: Checks if we're still in claims period\n   * @return true/false is in claims period\n   */\n  function isClaimsPeriod() public view returns (bool) {\n    return (weeksSinceLaunch() < 50);\n  }\n\n  /**\n   * @dev PUBLIC FACING: Store weekly coin data\n   */\n  function storeWeeklyData() public {\n    for (lastUpdatedWeek; weeksSinceLaunch() > lastUpdatedWeek; lastUpdatedWeek++) {\n      uint256 _unclaimedCoins = maximumRedeemable.sub(totalRedeemed);\n      weeklyData[lastUpdatedWeek.add(1)] = WeeklyDataStuct(\n          _unclaimedCoins,\n          totalStakedCoins\n      );\n      _mint(origin, _unclaimedCoins.div(50));\n    }\n  }\n\n  /**\n   * @dev PUBLIC FACING: Store period coin data\n   */\n  function storePeriodData() public {\n    for (lastUpdatedPeriod; periodsSinceLaunch() > lastUpdatedPeriod; lastUpdatedPeriod++) {\n      uint256 _payoutRound = maxOfTotalSupplyVSMaxRedeemable().div(1046); // Gives approximately 0.09561% inflation per period, which equals 3.5% per year inflation\n      periodData[lastUpdatedPeriod.add(1)] = PeriodDataStuct(\n          _payoutRound,\n          totalStakedCoins\n      );\n    }\n  }\n\n  /**\n   * @dev PUBLIC FACING: A convenience function to get circulating supply.\n   * @return Total Supply\n  */\n  function getCirculatingSupply() public view returns (uint256) {\n    return totalSupply().sub(totalStakedCoins);\n  }\n}",
  "sourcePath": "/Users/mesquka/Git/Bitcoin Hex/contract/contracts/GlobalsAndUtility.sol",
  "compiler": {
    "name": "solc",
    "version": "0.4.24+commit.e67f0147.Emscripten.clang"
  },
  "schemaVersion": "2.0.1",
  "updatedAt": "2018-11-03T01:44:17.721Z"
}