{
  "contractName": "MerkleProofStub",
  "abi": [
    {
      "constant": true,
      "inputs": [
        {
          "name": "_proof",
          "type": "bytes32[]"
        },
        {
          "name": "_root",
          "type": "bytes32"
        },
        {
          "name": "_leaf",
          "type": "bytes32"
        }
      ],
      "name": "testVerifyProof",
      "outputs": [
        {
          "name": "",
          "type": "bool"
        }
      ],
      "payable": false,
      "stateMutability": "pure",
      "type": "function"
    }
  ],
  "bytecode": "0x608060405234801561001057600080fd5b506102ca806100206000396000f300608060405260043610610041576000357c0100000000000000000000000000000000000000000000000000000000900463ffffffff168063d6c6807714610046575b600080fd5b34801561005257600080fd5b5061009b600480360381019080803590602001908201803590602001919091929391929390803560001916906020019092919080356000191690602001909291905050506100b5565b604051808215151515815260200191505060405180910390f35b60006100f185858080602002602001604051908101604052809392919081815260200183836020028082843782019150505050505084846100fb565b9050949350505050565b600080600080849250600091505b865182101561028757868281518110151561012057fe5b9060200190602002015190508060001916836000191610156101dd5782816040516020018083600019166000191681526020018260001916600019168152602001925050506040516020818303038152906040526040518082805190602001908083835b6020831015156101a95780518252602082019150602081019050602083039250610184565b6001836020036101000a0380198251168184511680821785525050505050509050019150506040518091039020925061027a565b80836040516020018083600019166000191681526020018260001916600019168152602001925050506040516020818303038152906040526040518082805190602001908083835b60208310151561024a5780518252602082019150602081019050602083039250610225565b6001836020036101000a038019825116818451168082178552505050505050905001915050604051809103902092505b8180600101925050610109565b8560001916836000191614935050505093925050505600a165627a7a723058202b0acb5671ef05bc9a5fb61eae2599bb053f9551a86968332370b59bcec412e90029",
  "source": "pragma solidity ^0.4.23;\n\nimport \"../../node_modules/openzeppelin-solidity/contracts/MerkleProof.sol\";\n\n\ncontract MerkleProofStub {\n\n  function testVerifyProof(\n    bytes32[] _proof,\n    bytes32 _root,\n    bytes32 _leaf\n  )\n    external\n    pure\n    returns (bool)\n  {\n    return MerkleProof.verifyProof(\n      _proof,\n      _root,\n      _leaf\n    );\n  }\n}",
  "sourcePath": "/Users/tovarishfin/dev/bhx/bhx-contracts/contracts/stubs/MerkleProofStub.sol",
  "compiler": {
    "name": "solc",
    "version": "0.4.24+commit.e67f0147.Emscripten.clang"
  },
  "schemaVersion": "2.0.1",
  "updatedAt": "2018-08-13T11:23:40.101Z"
}