{
  "contractName": "Migrations",
  "abi": [
    {
      "constant": true,
      "inputs": [],
      "name": "_originAddress",
      "outputs": [
        {
          "name": "",
          "type": "address"
        }
      ],
      "payable": false,
      "stateMutability": "view",
      "type": "function"
    },
    {
      "constant": true,
      "inputs": [],
      "name": "lastCompletedMigration",
      "outputs": [
        {
          "name": "",
          "type": "uint256"
        }
      ],
      "payable": false,
      "stateMutability": "view",
      "type": "function"
    },
    {
      "inputs": [],
      "payable": false,
      "stateMutability": "nonpayable",
      "type": "constructor"
    },
    {
      "constant": false,
      "inputs": [
        {
          "name": "completed",
          "type": "uint256"
        }
      ],
      "name": "setCompleted",
      "outputs": [],
      "payable": false,
      "stateMutability": "nonpayable",
      "type": "function"
    },
    {
      "constant": false,
      "inputs": [
        {
          "name": "newAddress",
          "type": "address"
        }
      ],
      "name": "upgrade",
      "outputs": [],
      "payable": false,
      "stateMutability": "nonpayable",
      "type": "function"
    }
  ],
  "bytecode": "0x608060405234801561001057600080fd5b50336000806101000a81548173ffffffffffffffffffffffffffffffffffffffff021916908373ffffffffffffffffffffffffffffffffffffffff160217905550610302806100606000396000f300608060405260043610610062576000357c0100000000000000000000000000000000000000000000000000000000900463ffffffff1680630900f01014610067578063e99fe3b3146100aa578063fbdbad3c14610101578063fdacd5761461012c575b600080fd5b34801561007357600080fd5b506100a8600480360381019080803573ffffffffffffffffffffffffffffffffffffffff169060200190929190505050610159565b005b3480156100b657600080fd5b506100bf610246565b604051808273ffffffffffffffffffffffffffffffffffffffff1673ffffffffffffffffffffffffffffffffffffffff16815260200191505060405180910390f35b34801561010d57600080fd5b5061011661026b565b6040518082815260200191505060405180910390f35b34801561013857600080fd5b5061015760048036038101908080359060200190929190505050610271565b005b60008060009054906101000a900473ffffffffffffffffffffffffffffffffffffffff1673ffffffffffffffffffffffffffffffffffffffff163373ffffffffffffffffffffffffffffffffffffffff161415156101b657600080fd5b8190508073ffffffffffffffffffffffffffffffffffffffff1663fdacd5766001546040518263ffffffff167c010000000000000000000000000000000000000000000000000000000002815260040180828152602001915050600060405180830381600087803b15801561022a57600080fd5b505af115801561023e573d6000803e3d6000fd5b505050505050565b6000809054906101000a900473ffffffffffffffffffffffffffffffffffffffff1681565b60015481565b6000809054906101000a900473ffffffffffffffffffffffffffffffffffffffff1673ffffffffffffffffffffffffffffffffffffffff163373ffffffffffffffffffffffffffffffffffffffff161415156102cc57600080fd5b80600181905550505600a165627a7a72305820d8a5d585988aa3a3c03be108a8a0109a92ffbbb49150a9d0ea4a4430a80ce5970029",
  "source": "pragma solidity ^0.4.24;\n\ncontract Migrations {\n  address public _originAddress;\n  uint public lastCompletedMigration;\n\n  constructor() public {\n    _originAddress = msg.sender;\n  }\n\n  modifier restricted() {\n    require(msg.sender == _originAddress);\n\n    _;\n  }\n\n  function setCompleted(uint completed) \n    public \n    restricted \n  {\n    lastCompletedMigration = completed;\n  }\n\n  function upgrade(address newAddress) \n    public \n    restricted \n  {\n    Migrations upgraded = Migrations(newAddress);\n    upgraded.setCompleted(lastCompletedMigration);\n  }\n}\n",
  "sourcePath": "/Users/mesquka/Git/Bitcoin Hex/contract/contracts/Migrations.sol",
  "compiler": {
    "name": "solc",
    "version": "0.4.24+commit.e67f0147.Emscripten.clang"
  },
  "schemaVersion": "2.0.1",
  "updatedAt": "2018-10-31T03:00:35.663Z"
}