{
  "contractName": "StakeableTokenStub",
  "abi": [
    {
      "constant": true,
      "inputs": [
        {
          "name": "_hash",
          "type": "bytes32"
        },
        {
          "name": "_v",
          "type": "uint8"
        },
        {
          "name": "_r",
          "type": "bytes32"
        },
        {
          "name": "_s",
          "type": "bytes32"
        },
        {
          "name": "_expected",
          "type": "address"
        },
        {
          "name": "_addPrefix",
          "type": "bool"
        }
      ],
      "name": "validateSignature",
      "outputs": [
        {
          "name": "",
          "type": "bool"
        }
      ],
      "payable": false,
      "stateMutability": "pure",
      "type": "function"
    },
    {
      "constant": true,
      "inputs": [],
      "name": "maximumRedeemable",
      "outputs": [
        {
          "name": "",
          "type": "uint256"
        }
      ],
      "payable": false,
      "stateMutability": "view",
      "type": "function"
    },
    {
      "constant": false,
      "inputs": [
        {
          "name": "_spender",
          "type": "address"
        },
        {
          "name": "_value",
          "type": "uint256"
        }
      ],
      "name": "approve",
      "outputs": [
        {
          "name": "",
          "type": "bool"
        }
      ],
      "payable": false,
      "stateMutability": "nonpayable",
      "type": "function"
    },
    {
      "constant": false,
      "inputs": [
        {
          "name": "_value",
          "type": "uint256"
        },
        {
          "name": "_unlockTime",
          "type": "uint256"
        }
      ],
      "name": "startStake",
      "outputs": [
        {
          "name": "",
          "type": "bool"
        }
      ],
      "payable": false,
      "stateMutability": "nonpayable",
      "type": "function"
    },
    {
      "constant": true,
      "inputs": [],
      "name": "interestRatePercent",
      "outputs": [
        {
          "name": "",
          "type": "uint256"
        }
      ],
      "payable": false,
      "stateMutability": "view",
      "type": "function"
    },
    {
      "constant": true,
      "inputs": [],
      "name": "totalStakedCoins",
      "outputs": [
        {
          "name": "",
          "type": "uint256"
        }
      ],
      "payable": false,
      "stateMutability": "view",
      "type": "function"
    },
    {
      "constant": true,
      "inputs": [],
      "name": "totalSupply",
      "outputs": [
        {
          "name": "",
          "type": "uint256"
        }
      ],
      "payable": false,
      "stateMutability": "view",
      "type": "function"
    },
    {
      "constant": true,
      "inputs": [
        {
          "name": "_stakeAmount",
          "type": "uint256"
        }
      ],
      "name": "calculateViralRewards",
      "outputs": [
        {
          "name": "",
          "type": "uint256"
        }
      ],
      "payable": false,
      "stateMutability": "view",
      "type": "function"
    },
    {
      "constant": false,
      "inputs": [
        {
          "name": "_from",
          "type": "address"
        },
        {
          "name": "_to",
          "type": "address"
        },
        {
          "name": "_value",
          "type": "uint256"
        }
      ],
      "name": "transferFrom",
      "outputs": [
        {
          "name": "",
          "type": "bool"
        }
      ],
      "payable": false,
      "stateMutability": "nonpayable",
      "type": "function"
    },
    {
      "constant": true,
      "inputs": [
        {
          "name": "_satoshis",
          "type": "uint256"
        }
      ],
      "name": "getRedeemAmount",
      "outputs": [
        {
          "name": "",
          "type": "uint256"
        }
      ],
      "payable": false,
      "stateMutability": "view",
      "type": "function"
    },
    {
      "constant": true,
      "inputs": [
        {
          "name": "",
          "type": "uint256"
        }
      ],
      "name": "unclaimedCoinsByWeek",
      "outputs": [
        {
          "name": "",
          "type": "uint256"
        }
      ],
      "payable": false,
      "stateMutability": "view",
      "type": "function"
    },
    {
      "constant": true,
      "inputs": [
        {
          "name": "_staker",
          "type": "address"
        }
      ],
      "name": "getCurrentStaked",
      "outputs": [
        {
          "name": "",
          "type": "uint256"
        }
      ],
      "payable": false,
      "stateMutability": "view",
      "type": "function"
    },
    {
      "constant": true,
      "inputs": [
        {
          "name": "_pubKey",
          "type": "bytes"
        }
      ],
      "name": "pubKeyToEthereumAddress",
      "outputs": [
        {
          "name": "",
          "type": "address"
        }
      ],
      "payable": false,
      "stateMutability": "pure",
      "type": "function"
    },
    {
      "constant": false,
      "inputs": [
        {
          "name": "_spender",
          "type": "address"
        },
        {
          "name": "_subtractedValue",
          "type": "uint256"
        }
      ],
      "name": "decreaseApproval",
      "outputs": [
        {
          "name": "",
          "type": "bool"
        }
      ],
      "payable": false,
      "stateMutability": "nonpayable",
      "type": "function"
    },
    {
      "constant": true,
      "inputs": [
        {
          "name": "",
          "type": "bytes32"
        }
      ],
      "name": "redeemedUTXOs",
      "outputs": [
        {
          "name": "",
          "type": "bool"
        }
      ],
      "payable": false,
      "stateMutability": "view",
      "type": "function"
    },
    {
      "constant": true,
      "inputs": [],
      "name": "rootUtxoMerkleTreeHash",
      "outputs": [
        {
          "name": "",
          "type": "bytes32"
        }
      ],
      "payable": false,
      "stateMutability": "view",
      "type": "function"
    },
    {
      "constant": true,
      "inputs": [
        {
          "name": "_staker",
          "type": "address"
        },
        {
          "name": "_startIndex",
          "type": "uint256"
        },
        {
          "name": "_endIndex",
          "type": "uint256"
        }
      ],
      "name": "getCurrentStakedAtIndexes",
      "outputs": [
        {
          "name": "",
          "type": "uint256"
        }
      ],
      "payable": false,
      "stateMutability": "view",
      "type": "function"
    },
    {
      "constant": true,
      "inputs": [
        {
          "name": "_owner",
          "type": "address"
        }
      ],
      "name": "balanceOf",
      "outputs": [
        {
          "name": "",
          "type": "uint256"
        }
      ],
      "payable": false,
      "stateMutability": "view",
      "type": "function"
    },
    {
      "constant": false,
      "inputs": [
        {
          "name": "_satoshis",
          "type": "uint256"
        },
        {
          "name": "_proof",
          "type": "bytes32[]"
        },
        {
          "name": "_pubKey",
          "type": "bytes"
        },
        {
          "name": "_isCompressed",
          "type": "bool"
        },
        {
          "name": "_v",
          "type": "uint8"
        },
        {
          "name": "_r",
          "type": "bytes32"
        },
        {
          "name": "_s",
          "type": "bytes32"
        }
      ],
      "name": "redeemUtxo",
      "outputs": [
        {
          "name": "_tokensRedeemed",
          "type": "uint256"
        }
      ],
      "payable": false,
      "stateMutability": "nonpayable",
      "type": "function"
    },
    {
      "constant": true,
      "inputs": [],
      "name": "launchTime",
      "outputs": [
        {
          "name": "",
          "type": "uint256"
        }
      ],
      "payable": false,
      "stateMutability": "view",
      "type": "function"
    },
    {
      "constant": false,
      "inputs": [
        {
          "name": "_staker",
          "type": "address"
        },
        {
          "name": "_stakeIndex",
          "type": "uint256"
        }
      ],
      "name": "calculateAdditionalRewards",
      "outputs": [
        {
          "name": "",
          "type": "uint256"
        }
      ],
      "payable": false,
      "stateMutability": "nonpayable",
      "type": "function"
    },
    {
      "constant": false,
      "inputs": [
        {
          "name": "_staker",
          "type": "address"
        },
        {
          "name": "_stakeIndex",
          "type": "uint256"
        }
      ],
      "name": "claimSingleStakingReward",
      "outputs": [
        {
          "name": "",
          "type": "bool"
        }
      ],
      "payable": false,
      "stateMutability": "nonpayable",
      "type": "function"
    },
    {
      "constant": true,
      "inputs": [
        {
          "name": "_merkleLeafHash",
          "type": "bytes32"
        },
        {
          "name": "_proof",
          "type": "bytes32[]"
        }
      ],
      "name": "canRedeemUtxoHash",
      "outputs": [
        {
          "name": "",
          "type": "bool"
        }
      ],
      "payable": false,
      "stateMutability": "view",
      "type": "function"
    },
    {
      "constant": true,
      "inputs": [],
      "name": "totalBtcCirculationAtFork",
      "outputs": [
        {
          "name": "",
          "type": "uint256"
        }
      ],
      "payable": false,
      "stateMutability": "view",
      "type": "function"
    },
    {
      "constant": true,
      "inputs": [
        {
          "name": "",
          "type": "address"
        },
        {
          "name": "",
          "type": "uint256"
        }
      ],
      "name": "staked",
      "outputs": [
        {
          "name": "stakeAmount",
          "type": "uint256"
        },
        {
          "name": "stakeTime",
          "type": "uint256"
        },
        {
          "name": "unlockTime",
          "type": "uint256"
        },
        {
          "name": "totalStakedCoinsAtStart",
          "type": "uint256"
        }
      ],
      "payable": false,
      "stateMutability": "view",
      "type": "function"
    },
    {
      "constant": false,
      "inputs": [],
      "name": "storeWeekUnclaimed",
      "outputs": [],
      "payable": false,
      "stateMutability": "nonpayable",
      "type": "function"
    },
    {
      "constant": true,
      "inputs": [],
      "name": "origin",
      "outputs": [
        {
          "name": "",
          "type": "address"
        }
      ],
      "payable": false,
      "stateMutability": "view",
      "type": "function"
    },
    {
      "constant": true,
      "inputs": [],
      "name": "lastUpdatedWeek",
      "outputs": [
        {
          "name": "",
          "type": "uint256"
        }
      ],
      "payable": false,
      "stateMutability": "view",
      "type": "function"
    },
    {
      "constant": false,
      "inputs": [
        {
          "name": "_to",
          "type": "address"
        },
        {
          "name": "_value",
          "type": "uint256"
        }
      ],
      "name": "transfer",
      "outputs": [
        {
          "name": "",
          "type": "bool"
        }
      ],
      "payable": false,
      "stateMutability": "nonpayable",
      "type": "function"
    },
    {
      "constant": false,
      "inputs": [
        {
          "name": "_satoshis",
          "type": "uint256"
        },
        {
          "name": "_proof",
          "type": "bytes32[]"
        },
        {
          "name": "_pubKey",
          "type": "bytes"
        },
        {
          "name": "_isCompressed",
          "type": "bool"
        },
        {
          "name": "_v",
          "type": "uint8"
        },
        {
          "name": "_r",
          "type": "bytes32"
        },
        {
          "name": "_s",
          "type": "bytes32"
        },
        {
          "name": "_referrer",
          "type": "address"
        }
      ],
      "name": "redeemReferredUtxo",
      "outputs": [
        {
          "name": "_tokensRedeemed",
          "type": "uint256"
        }
      ],
      "payable": false,
      "stateMutability": "nonpayable",
      "type": "function"
    },
    {
      "constant": true,
      "inputs": [
        {
          "name": "_stakeTime",
          "type": "uint256"
        },
        {
          "name": "_unlockTime",
          "type": "uint256"
        }
      ],
      "name": "calculateWeAreAllSatoshiRewards",
      "outputs": [
        {
          "name": "",
          "type": "uint256"
        }
      ],
      "payable": false,
      "stateMutability": "view",
      "type": "function"
    },
    {
      "constant": true,
      "inputs": [
        {
          "name": "_proof",
          "type": "bytes32[]"
        },
        {
          "name": "_merkleLeafHash",
          "type": "bytes32"
        }
      ],
      "name": "verifyProof",
      "outputs": [
        {
          "name": "",
          "type": "bool"
        }
      ],
      "payable": false,
      "stateMutability": "view",
      "type": "function"
    },
    {
      "constant": true,
      "inputs": [
        {
          "name": "_staker",
          "type": "address"
        },
        {
          "name": "_stakeIndex",
          "type": "uint256"
        }
      ],
      "name": "getStakedEntry",
      "outputs": [
        {
          "name": "",
          "type": "uint256"
        }
      ],
      "payable": false,
      "stateMutability": "view",
      "type": "function"
    },
    {
      "constant": false,
      "inputs": [
        {
          "name": "_staker",
          "type": "address"
        },
        {
          "name": "_startIndex",
          "type": "uint256"
        },
        {
          "name": "_endIndex",
          "type": "uint256"
        }
      ],
      "name": "claimMultipleStakingRewards",
      "outputs": [
        {
          "name": "",
          "type": "bool"
        }
      ],
      "payable": false,
      "stateMutability": "nonpayable",
      "type": "function"
    },
    {
      "constant": true,
      "inputs": [
        {
          "name": "_addr",
          "type": "address"
        },
        {
          "name": "_pubKey",
          "type": "bytes"
        },
        {
          "name": "_v",
          "type": "uint8"
        },
        {
          "name": "_r",
          "type": "bytes32"
        },
        {
          "name": "_s",
          "type": "bytes32"
        }
      ],
      "name": "ecdsaVerify",
      "outputs": [
        {
          "name": "",
          "type": "bool"
        }
      ],
      "payable": false,
      "stateMutability": "pure",
      "type": "function"
    },
    {
      "constant": true,
      "inputs": [
        {
          "name": "_originalAddress",
          "type": "bytes20"
        },
        {
          "name": "_satoshis",
          "type": "uint256"
        },
        {
          "name": "_proof",
          "type": "bytes32[]"
        }
      ],
      "name": "canRedeemUtxo",
      "outputs": [
        {
          "name": "",
          "type": "bool"
        }
      ],
      "payable": false,
      "stateMutability": "view",
      "type": "function"
    },
    {
      "constant": false,
      "inputs": [
        {
          "name": "_spender",
          "type": "address"
        },
        {
          "name": "_addedValue",
          "type": "uint256"
        }
      ],
      "name": "increaseApproval",
      "outputs": [
        {
          "name": "",
          "type": "bool"
        }
      ],
      "payable": false,
      "stateMutability": "nonpayable",
      "type": "function"
    },
    {
      "constant": true,
      "inputs": [
        {
          "name": "_owner",
          "type": "address"
        },
        {
          "name": "_spender",
          "type": "address"
        }
      ],
      "name": "allowance",
      "outputs": [
        {
          "name": "",
          "type": "uint256"
        }
      ],
      "payable": false,
      "stateMutability": "view",
      "type": "function"
    },
    {
      "constant": true,
      "inputs": [
        {
          "name": "_pubKey",
          "type": "bytes"
        },
        {
          "name": "_isCompressed",
          "type": "bool"
        }
      ],
      "name": "pubKeyToBitcoinAddress",
      "outputs": [
        {
          "name": "",
          "type": "bytes20"
        }
      ],
      "payable": false,
      "stateMutability": "pure",
      "type": "function"
    },
    {
      "constant": true,
      "inputs": [
        {
          "name": "_stakeAmount",
          "type": "uint256"
        }
      ],
      "name": "calculateCritMassRewards",
      "outputs": [
        {
          "name": "",
          "type": "uint256"
        }
      ],
      "payable": false,
      "stateMutability": "view",
      "type": "function"
    },
    {
      "constant": true,
      "inputs": [],
      "name": "totalRedeemed",
      "outputs": [
        {
          "name": "",
          "type": "uint256"
        }
      ],
      "payable": false,
      "stateMutability": "view",
      "type": "function"
    },
    {
      "constant": true,
      "inputs": [
        {
          "name": "_principle",
          "type": "uint256"
        },
        {
          "name": "_periods",
          "type": "uint256"
        },
        {
          "name": "_rate",
          "type": "uint256"
        }
      ],
      "name": "compound",
      "outputs": [
        {
          "name": "",
          "type": "uint256"
        }
      ],
      "payable": false,
      "stateMutability": "pure",
      "type": "function"
    },
    {
      "constant": true,
      "inputs": [
        {
          "name": "_staker",
          "type": "address"
        },
        {
          "name": "_stakeIndex",
          "type": "uint256"
        }
      ],
      "name": "calculateStakingRewards",
      "outputs": [
        {
          "name": "",
          "type": "uint256"
        }
      ],
      "payable": false,
      "stateMutability": "view",
      "type": "function"
    },
    {
      "inputs": [
        {
          "name": "_origin",
          "type": "address"
        },
        {
          "name": "_launchTime",
          "type": "uint256"
        },
        {
          "name": "_rootUtxoMerkleTreeHash",
          "type": "bytes32"
        },
        {
          "name": "_totalBtcCirculationAtFork",
          "type": "uint256"
        },
        {
          "name": "_maximumRedeemable",
          "type": "uint256"
        }
      ],
      "payable": false,
      "stateMutability": "nonpayable",
      "type": "constructor"
    },
    {
      "anonymous": false,
      "inputs": [
        {
          "indexed": true,
          "name": "_address",
          "type": "address"
        },
        {
          "indexed": false,
          "name": "_reward",
          "type": "uint256"
        }
      ],
      "name": "Mint",
      "type": "event"
    },
    {
      "anonymous": false,
      "inputs": [
        {
          "indexed": false,
          "name": "label",
          "type": "string"
        },
        {
          "indexed": false,
          "name": "testValue",
          "type": "uint256"
        }
      ],
      "name": "Test",
      "type": "event"
    },
    {
      "anonymous": false,
      "inputs": [
        {
          "indexed": true,
          "name": "owner",
          "type": "address"
        },
        {
          "indexed": true,
          "name": "spender",
          "type": "address"
        },
        {
          "indexed": false,
          "name": "value",
          "type": "uint256"
        }
      ],
      "name": "Approval",
      "type": "event"
    },
    {
      "anonymous": false,
      "inputs": [
        {
          "indexed": true,
          "name": "from",
          "type": "address"
        },
        {
          "indexed": true,
          "name": "to",
          "type": "address"
        },
        {
          "indexed": false,
          "name": "value",
          "type": "uint256"
        }
      ],
      "name": "Transfer",
      "type": "event"
    }
  ],
  "bytecode": "0x60806040526000600555600060095534801561001a57600080fd5b5060405160a0806145ee833981018060405281019080805190602001909291908051906020019092919080519060200190929190805190602001909291908051906020019092919050505084600360006101000a81548173ffffffffffffffffffffffffffffffffffffffff021916908373ffffffffffffffffffffffffffffffffffffffff16021790555083600481905550826007816000191690555081600b8190555080600a819055505050505050614514806100da6000396000f30060806040526004361061020f576000357c0100000000000000000000000000000000000000000000000000000000900463ffffffff1680630867c0ad1461021457806308b4312b146102b2578063095ea7b3146102dd578063128bfcae1461034257806316043f5d146103915780631765f4bf146103bc57806318160ddd146103e7578063229cfc321461041257806323b872dd146104535780632c3ee88c146104d857806330fd546e14610519578063443de10c1461055a5780635418796c146105b1578063661884631461065a578063687cf4a4146106bf5780636aaf67e2146107085780636e20f0a51461073b57806370a08231146107a6578063753bf8cd146107fd578063790ca413146108fc5780637cdafe9d1461092757806381437de81461098857806381cd84b9146109ed5780638d854c3414610a795780638f16981614610aa45780639283032c14610b1a578063938b5f3214610b315780639d65b89214610b88578063a9059cbb14610bb3578063b1ccf19314610c18578063b27f7a0e14610cde578063b80ac7df14610d29578063be6eedbd14610db5578063cb9c501f14610e16578063ce267b5514610e85578063cfc2334e14610f4f578063d73dd62314610ff0578063dd62ed3e14611055578063e073ef69146110cc578063e26e7b5014611173578063f35dad40146111b4578063f3c85eba146111df578063f6c45d0214611234575b600080fd5b34801561022057600080fd5b506102986004803603810190808035600019169060200190929190803560ff16906020019092919080356000191690602001909291908035600019169060200190929190803573ffffffffffffffffffffffffffffffffffffffff169060200190929190803515159060200190929190505050611295565b604051808215151515815260200191505060405180910390f35b3480156102be57600080fd5b506102c7611480565b6040518082815260200191505060405180910390f35b3480156102e957600080fd5b50610328600480360381019080803573ffffffffffffffffffffffffffffffffffffffff16906020019092919080359060200190929190505050611486565b604051808215151515815260200191505060405180910390f35b34801561034e57600080fd5b506103776004803603810190808035906020019092919080359060200190929190505050611578565b604051808215151515815260200191505060405180910390f35b34801561039d57600080fd5b506103a6611886565b6040518082815260200191505060405180910390f35b3480156103c857600080fd5b506103d161188b565b6040518082815260200191505060405180910390f35b3480156103f357600080fd5b506103fc611891565b6040518082815260200191505060405180910390f35b34801561041e57600080fd5b5061043d6004803603810190808035906020019092919050505061189b565b6040518082815260200191505060405180910390f35b34801561045f57600080fd5b506104be600480360381019080803573ffffffffffffffffffffffffffffffffffffffff169060200190929190803573ffffffffffffffffffffffffffffffffffffffff169060200190929190803590602001909291905050506118e0565b604051808215151515815260200191505060405180910390f35b3480156104e457600080fd5b5061050360048036038101908080359060200190929190505050611c9a565b6040518082815260200191505060405180910390f35b34801561052557600080fd5b5061054460048036038101908080359060200190929190505050612014565b6040518082815260200191505060405180910390f35b34801561056657600080fd5b5061059b600480360381019080803573ffffffffffffffffffffffffffffffffffffffff16906020019092919050505061202c565b6040518082815260200191505060405180910390f35b3480156105bd57600080fd5b50610618600480360381019080803590602001908201803590602001908080601f01602080910402602001604051908101604052809392919081815260200183838082843782019150505050505091929192905050506120ea565b604051808273ffffffffffffffffffffffffffffffffffffffff1673ffffffffffffffffffffffffffffffffffffffff16815260200191505060405180910390f35b34801561066657600080fd5b506106a5600480360381019080803573ffffffffffffffffffffffffffffffffffffffff16906020019092919080359060200190929190505050612170565b604051808215151515815260200191505060405180910390f35b3480156106cb57600080fd5b506106ee6004803603810190808035600019169060200190929190505050612401565b604051808215151515815260200191505060405180910390f35b34801561071457600080fd5b5061071d612421565b60405180826000191660001916815260200191505060405180910390f35b34801561074757600080fd5b50610790600480360381019080803573ffffffffffffffffffffffffffffffffffffffff1690602001909291908035906020019092919080359060200190929190505050612427565b6040518082815260200191505060405180910390f35b3480156107b257600080fd5b506107e7600480360381019080803573ffffffffffffffffffffffffffffffffffffffff1690602001909291905050506124fa565b6040518082815260200191505060405180910390f35b34801561080957600080fd5b506108e66004803603810190808035906020019092919080359060200190820180359060200190808060200260200160405190810160405280939291908181526020018383602002808284378201915050505050509192919290803590602001908201803590602001908080601f0160208091040260200160405190810160405280939291908181526020018383808284378201915050505050509192919290803515159060200190929190803560ff16906020019092919080356000191690602001909291908035600019169060200190929190505050612542565b6040518082815260200191505060405180910390f35b34801561090857600080fd5b506109116127e6565b6040518082815260200191505060405180910390f35b34801561093357600080fd5b50610972600480360381019080803573ffffffffffffffffffffffffffffffffffffffff169060200190929190803590602001909291905050506127ec565b6040518082815260200191505060405180910390f35b34801561099457600080fd5b506109d3600480360381019080803573ffffffffffffffffffffffffffffffffffffffff16906020019092919080359060200190929190505050612901565b604051808215151515815260200191505060405180910390f35b3480156109f957600080fd5b50610a5f600480360381019080803560001916906020019092919080359060200190820180359060200190808060200260200160405190810160405280939291908181526020018383602002808284378201915050505050509192919290505050612ece565b604051808215151515815260200191505060405180910390f35b348015610a8557600080fd5b50610a8e612f19565b6040518082815260200191505060405180910390f35b348015610ab057600080fd5b50610aef600480360381019080803573ffffffffffffffffffffffffffffffffffffffff16906020019092919080359060200190929190505050612f1f565b6040518085815260200184815260200183815260200182815260200194505050505060405180910390f35b348015610b2657600080fd5b50610b2f612f6b565b005b348015610b3d57600080fd5b50610b46612ff1565b604051808273ffffffffffffffffffffffffffffffffffffffff1673ffffffffffffffffffffffffffffffffffffffff16815260200191505060405180910390f35b348015610b9457600080fd5b50610b9d613017565b6040518082815260200191505060405180910390f35b348015610bbf57600080fd5b50610bfe600480360381019080803573ffffffffffffffffffffffffffffffffffffffff1690602001909291908035906020019092919050505061301d565b604051808215151515815260200191505060405180910390f35b348015610c2457600080fd5b50610cc860048036038101908080359060200190929190803590602001908201803590602001919091929391929390803590602001908201803590602001919091929391929390803515159060200190929190803560ff16906020019092919080356000191690602001909291908035600019169060200190929190803573ffffffffffffffffffffffffffffffffffffffff16906020019092919050505061323c565b6040518082815260200191505060405180910390f35b348015610cea57600080fd5b50610d13600480360381019080803590602001909291908035906020019092919050505061340c565b6040518082815260200191505060405180910390f35b348015610d3557600080fd5b50610d9b6004803603810190808035906020019082018035906020019080806020026020016040519081016040528093929190818152602001838360200280828437820191505050505050919291929080356000191690602001909291905050506134e6565b604051808215151515815260200191505060405180910390f35b348015610dc157600080fd5b50610e00600480360381019080803573ffffffffffffffffffffffffffffffffffffffff169060200190929190803590602001909291905050506134fd565b6040518082815260200191505060405180910390f35b348015610e2257600080fd5b50610e6b600480360381019080803573ffffffffffffffffffffffffffffffffffffffff16906020019092919080359060200190929190803590602001909291905050506135f3565b604051808215151515815260200191505060405180910390f35b348015610e9157600080fd5b50610f35600480360381019080803573ffffffffffffffffffffffffffffffffffffffff169060200190929190803590602001908201803590602001908080601f0160208091040260200160405190810160405280939291908181526020018383808284378201915050505050509192919290803560ff169060200190929190803560001916906020019092919080356000191690602001909291905050506136ec565b604051808215151515815260200191505060405180910390f35b348015610f5b57600080fd5b50610fd660048036038101908080356bffffffffffffffffffffffff19169060200190929190803590602001909291908035906020019082018035906020019080806020026020016040519081016040528093929190818152602001838360200280828437820191505050505050919291929050505061380b565b604051808215151515815260200191505060405180910390f35b348015610ffc57600080fd5b5061103b600480360381019080803573ffffffffffffffffffffffffffffffffffffffff169060200190929190803590602001909291905050506138cc565b604051808215151515815260200191505060405180910390f35b34801561106157600080fd5b506110b6600480360381019080803573ffffffffffffffffffffffffffffffffffffffff169060200190929190803573ffffffffffffffffffffffffffffffffffffffff169060200190929190505050613ac8565b6040518082815260200191505060405180910390f35b3480156110d857600080fd5b5061113f600480360381019080803590602001908201803590602001908080601f0160208091040260200160405190810160405280939291908181526020018383808284378201915050505050509192919290803515159060200190929190505050613b4f565b60405180826bffffffffffffffffffffffff19166bffffffffffffffffffffffff1916815260200191505060405180910390f35b34801561117f57600080fd5b5061119e60048036038101908080359060200190929190505050613f0e565b6040518082815260200191505060405180910390f35b3480156111c057600080fd5b506111c9613f53565b6040518082815260200191505060405180910390f35b3480156111eb57600080fd5b5061121e600480360381019080803590602001909291908035906020019092919080359060200190929190505050613f59565b6040518082815260200191505060405180910390f35b34801561124057600080fd5b5061127f600480360381019080803573ffffffffffffffffffffffffffffffffffffffff1690602001909291908035906020019092919050505061406f565b6040518082815260200191505060405180910390f35b60008060608315156112a9578891506113c3565b6040805190810160405280601c81526020017f19457468657265756d205369676e6564204d6573736167653a0a333200000000815250905080896040516020018083805190602001908083835b60208310151561131b57805182526020820191506020810190506020830392506112f6565b6001836020036101000a0380198251168184511680821785525050505050509050018260001916600019168152602001925050506040516020818303038152906040526040518082805190602001908083835b602083101515611393578051825260208201915060208101905060208303925061136e565b6001836020036101000a038019825116818451168082178552505050505050905001915050604051809103902091505b8473ffffffffffffffffffffffffffffffffffffffff166001838a8a8a604051600081526020016040526040518085600019166000191681526020018460ff1660ff1681526020018360001916600019168152602001826000191660001916815260200194505050505060206040516020810390808403906000865af1158015611451573d6000803e3d6000fd5b5050506020604051035173ffffffffffffffffffffffffffffffffffffffff1614925050509695505050505050565b600a5481565b600081600260003373ffffffffffffffffffffffffffffffffffffffff1673ffffffffffffffffffffffffffffffffffffffff16815260200190815260200160002060008573ffffffffffffffffffffffffffffffffffffffff1673ffffffffffffffffffffffffffffffffffffffff168152602001908152602001600020819055508273ffffffffffffffffffffffffffffffffffffffff163373ffffffffffffffffffffffffffffffffffffffff167f8c5be1e5ebec7d5bd14f71427d1e84f3dd0314c0f7b2291e5b200ac8c7c3b925846040518082815260200191505060405180910390a36001905092915050565b600080339050836000808373ffffffffffffffffffffffffffffffffffffffff1673ffffffffffffffffffffffffffffffffffffffff16815260200190815260200160002054101515156115cb57600080fd5b6115e1620d2f00426141aa90919063ffffffff16565b83101515156115ef57600080fd5b61160663bbf81e00426141aa90919063ffffffff16565b831115151561161457600080fd5b61161c612f6b565b61166d846000808473ffffffffffffffffffffffffffffffffffffffff1673ffffffffffffffffffffffffffffffffffffffff168152602001908152602001600020546141c690919063ffffffff16565b6000808373ffffffffffffffffffffffffffffffffffffffff1673ffffffffffffffffffffffffffffffffffffffff16815260200190815260200160002081905550611700846000803073ffffffffffffffffffffffffffffffffffffffff1673ffffffffffffffffffffffffffffffffffffffff168152602001908152602001600020546141aa90919063ffffffff16565b6000803073ffffffffffffffffffffffffffffffffffffffff1673ffffffffffffffffffffffffffffffffffffffff168152602001908152602001600020819055503073ffffffffffffffffffffffffffffffffffffffff168173ffffffffffffffffffffffffffffffffffffffff167fddf252ad1be2c89b69c2b068fc378daa952ba7f163c4a11628f55a4df523b3ef866040518082815260200191505060405180910390a3600d60008273ffffffffffffffffffffffffffffffffffffffff1673ffffffffffffffffffffffffffffffffffffffff168152602001908152602001600020608060405190810160405280868152602001428152602001858152602001600c54815250908060018154018082558091505090600182039060005260206000209060040201600090919290919091506000820151816000015560208201518160010155604082015181600201556060820151816003015550505061187584600c546141aa90919063ffffffff16565b600c81905550600191505092915050565b600181565b600c5481565b6000600154905090565b60006118d9600a6118cb600b546118bd600954876141df90919063ffffffff16565b61421790919063ffffffff16565b61421790919063ffffffff16565b9050919050565b60008073ffffffffffffffffffffffffffffffffffffffff168373ffffffffffffffffffffffffffffffffffffffff161415151561191d57600080fd5b6000808573ffffffffffffffffffffffffffffffffffffffff1673ffffffffffffffffffffffffffffffffffffffff16815260200190815260200160002054821115151561196a57600080fd5b600260008573ffffffffffffffffffffffffffffffffffffffff1673ffffffffffffffffffffffffffffffffffffffff16815260200190815260200160002060003373ffffffffffffffffffffffffffffffffffffffff1673ffffffffffffffffffffffffffffffffffffffff1681526020019081526020016000205482111515156119f557600080fd5b611a46826000808773ffffffffffffffffffffffffffffffffffffffff1673ffffffffffffffffffffffffffffffffffffffff168152602001908152602001600020546141c690919063ffffffff16565b6000808673ffffffffffffffffffffffffffffffffffffffff1673ffffffffffffffffffffffffffffffffffffffff16815260200190815260200160002081905550611ad9826000808673ffffffffffffffffffffffffffffffffffffffff1673ffffffffffffffffffffffffffffffffffffffff168152602001908152602001600020546141aa90919063ffffffff16565b6000808573ffffffffffffffffffffffffffffffffffffffff1673ffffffffffffffffffffffffffffffffffffffff16815260200190815260200160002081905550611baa82600260008773ffffffffffffffffffffffffffffffffffffffff1673ffffffffffffffffffffffffffffffffffffffff16815260200190815260200160002060003373ffffffffffffffffffffffffffffffffffffffff1673ffffffffffffffffffffffffffffffffffffffff168152602001908152602001600020546141c690919063ffffffff16565b600260008673ffffffffffffffffffffffffffffffffffffffff1673ffffffffffffffffffffffffffffffffffffffff16815260200190815260200160002060003373ffffffffffffffffffffffffffffffffffffffff1673ffffffffffffffffffffffffffffffffffffffff168152602001908152602001600020819055508273ffffffffffffffffffffffffffffffffffffffff168473ffffffffffffffffffffffffffffffffffffffff167fddf252ad1be2c89b69c2b068fc378daa952ba7f163c4a11628f55a4df523b3ef846040518082815260200191505060405180910390a3600190509392505050565b6000806000806000611cba6402540be400876141df90919063ffffffff16565b9350683635c9adc5dea00000841115611d535769152d02c7e14af6800000841015611d3b57611d34640ba43b7400611d266009611d186002611d0a64174876e8008b6141c690919063ffffffff16565b6141df90919063ffffffff16565b61421790919063ffffffff16565b6141aa90919063ffffffff16565b9350611d52565b611d4f60048561421790919063ffffffff16565b93505b5b4260045410611d63576000611d8e565b611d8d62093a80611d7f600454426141c690919063ffffffff16565b61421790919063ffffffff16565b5b9250611db7611da76002856141df90919063ffffffff16565b60646141c690919063ffffffff16565b9150611ddf6064611dd184876141df90919063ffffffff16565b61421790919063ffffffff16565b9050602d831115611df25780945061200b565b6020831115611e2957611e226064611e146065846141df90919063ffffffff16565b61421790919063ffffffff16565b945061200b565b6018831115611e6057611e596064611e4b6066846141df90919063ffffffff16565b61421790919063ffffffff16565b945061200b565b6012831115611e9757611e906064611e826067846141df90919063ffffffff16565b61421790919063ffffffff16565b945061200b565b600e831115611ece57611ec76064611eb96068846141df90919063ffffffff16565b61421790919063ffffffff16565b945061200b565b600a831115611f0557611efe6064611ef06069846141df90919063ffffffff16565b61421790919063ffffffff16565b945061200b565b6007831115611f3c57611f356064611f27606a846141df90919063ffffffff16565b61421790919063ffffffff16565b945061200b565b6005831115611f7357611f6c6064611f5e606b846141df90919063ffffffff16565b61421790919063ffffffff16565b945061200b565b6003831115611faa57611fa36064611f95606c846141df90919063ffffffff16565b61421790919063ffffffff16565b945061200b565b6001831115611fe157611fda6064611fcc606d846141df90919063ffffffff16565b61421790919063ffffffff16565b945061200b565b6120086064611ffa606e846141df90919063ffffffff16565b61421790919063ffffffff16565b94505b50505050919050565b60066020528060005260406000206000915090505481565b600080600d60008473ffffffffffffffffffffffffffffffffffffffff1673ffffffffffffffffffffffffffffffffffffffff16815260200190815260200160002080549050141561208157600090506120e5565b6120e28260006120dd6001600d60008873ffffffffffffffffffffffffffffffffffffffff1673ffffffffffffffffffffffffffffffffffffffff168152602001908152602001600020805490506141c690919063ffffffff16565b612427565b90505b919050565b600073ffffffffffffffffffffffffffffffffffffffff826040518082805190602001908083835b6020831015156121375780518252602082019150602081019050602083039250612112565b6001836020036101000a038019825116818451168082178552505050505050905001915050604051809103902060019004169050919050565b600080600260003373ffffffffffffffffffffffffffffffffffffffff1673ffffffffffffffffffffffffffffffffffffffff16815260200190815260200160002060008573ffffffffffffffffffffffffffffffffffffffff1673ffffffffffffffffffffffffffffffffffffffff16815260200190815260200160002054905080831115612281576000600260003373ffffffffffffffffffffffffffffffffffffffff1673ffffffffffffffffffffffffffffffffffffffff16815260200190815260200160002060008673ffffffffffffffffffffffffffffffffffffffff1673ffffffffffffffffffffffffffffffffffffffff16815260200190815260200160002081905550612315565b61229483826141c690919063ffffffff16565b600260003373ffffffffffffffffffffffffffffffffffffffff1673ffffffffffffffffffffffffffffffffffffffff16815260200190815260200160002060008673ffffffffffffffffffffffffffffffffffffffff1673ffffffffffffffffffffffffffffffffffffffff168152602001908152602001600020819055505b8373ffffffffffffffffffffffffffffffffffffffff163373ffffffffffffffffffffffffffffffffffffffff167f8c5be1e5ebec7d5bd14f71427d1e84f3dd0314c0f7b2291e5b200ac8c7c3b925600260003373ffffffffffffffffffffffffffffffffffffffff1673ffffffffffffffffffffffffffffffffffffffff16815260200190815260200160002060008873ffffffffffffffffffffffffffffffffffffffff1673ffffffffffffffffffffffffffffffffffffffff168152602001908152602001600020546040518082815260200191505060405180910390a3600191505092915050565b60086020528060005260406000206000915054906101000a900460ff1681565b60075481565b600080600083851115151561243b57600080fd5b600d60008773ffffffffffffffffffffffffffffffffffffffff1673ffffffffffffffffffffffffffffffffffffffff168152602001908152602001600020805490508410151561248b57600080fd5b838514156124a45761249d86866134fd565b92506124f1565b600091508490505b838510156124ed576124d06124c187836134fd565b836141aa90919063ffffffff16565b91506124e66001826141aa90919063ffffffff16565b90506124ac565b8192505b50509392505050565b60008060008373ffffffffffffffffffffffffffffffffffffffff1673ffffffffffffffffffffffffffffffffffffffff168152602001908152602001600020549050919050565b6000806000600454421015151561255857600080fd5b612560612f6b565b61256a8888613b4f565b9150818a60405160200180836bffffffffffffffffffffffff19166bffffffffffffffffffffffff19168152601401828152602001925050506040516020818303038152906040526040518082805190602001908083835b6020831015156125e757805182526020820191506020810190506020830392506125c2565b6001836020036101000a03801982511681845116808217855250505050505090500191505060405180910390209050612620818a612ece565b151561262b57600080fd5b61263833898888886136ec565b151561264357600080fd5b600160086000836000191660001916815260200190815260200160002060006101000a81548160ff0219169083151502179055506126808a611c9a565b9250600a5461269a846009546141aa90919063ffffffff16565b111515156126a757600080fd5b6126bc836009546141aa90919063ffffffff16565b600981905550612713836000803373ffffffffffffffffffffffffffffffffffffffff1673ffffffffffffffffffffffffffffffffffffffff168152602001908152602001600020546141aa90919063ffffffff16565b6000803373ffffffffffffffffffffffffffffffffffffffff1673ffffffffffffffffffffffffffffffffffffffff1681526020019081526020016000208190555061276a836001546141aa90919063ffffffff16565b6001819055503373ffffffffffffffffffffffffffffffffffffffff16600073ffffffffffffffffffffffffffffffffffffffff167fddf252ad1be2c89b69c2b068fc378daa952ba7f163c4a11628f55a4df523b3ef856040518082815260200191505060405180910390a38292505050979650505050505050565b60045481565b600080600080600080600d60008973ffffffffffffffffffffffffffffffffffffffff1673ffffffffffffffffffffffffffffffffffffffff1681526020019081526020016000208781548110151561284157fe5b90600052602060002090600402019450603261288162093a8061287360045489600101546141c690919063ffffffff16565b61421790919063ffffffff16565b1115156128f157612890612f6b565b6128a28560010154866002015461340c565b93506128b1856000015461189b565b92506128c08560000154613f0e565b91506128e7826128d985876141aa90919063ffffffff16565b6141aa90919063ffffffff16565b90508095506128f6565b600095505b505050505092915050565b600080600080600080600d60008973ffffffffffffffffffffffffffffffffffffffff1673ffffffffffffffffffffffffffffffffffffffff1681526020019081526020016000208781548110151561295657fe5b9060005260206000209060040201945084600201544211151561297857600080fd5b84600001549350612989888861406f565b925061299588886127ec565b91506129bc826129ae85876141aa90919063ffffffff16565b6141aa90919063ffffffff16565b90507f9de0f3f20e0598b25c26d43dc1197af8170d2d22ae0abc364802a962ada3ff608360405180806020018381526020018281038252600f8152602001807f7374616b696e67207265776172647300000000000000000000000000000000008152506020019250505060405180910390a17f9de0f3f20e0598b25c26d43dc1197af8170d2d22ae0abc364802a962ada3ff60826040518080602001838152602001828103825260128152602001807f6164646974696f6e616c207265776172647300000000000000000000000000008152506020019250505060405180910390a17f9de0f3f20e0598b25c26d43dc1197af8170d2d22ae0abc364802a962ada3ff60816040518080602001838152602001828103825260158152602001807f746f74616c2072657761726473202b207374616b6500000000000000000000008152506020019250505060405180910390a1612b56600d60008a73ffffffffffffffffffffffffffffffffffffffff1673ffffffffffffffffffffffffffffffffffffffff1681526020019081526020016000208861422d565b612b6b84600c546141c690919063ffffffff16565b600c81905550612bc2846000803073ffffffffffffffffffffffffffffffffffffffff1673ffffffffffffffffffffffffffffffffffffffff168152602001908152602001600020546141c690919063ffffffff16565b6000803073ffffffffffffffffffffffffffffffffffffffff1673ffffffffffffffffffffffffffffffffffffffff16815260200190815260200160002081905550612c55816000808b73ffffffffffffffffffffffffffffffffffffffff1673ffffffffffffffffffffffffffffffffffffffff168152602001908152602001600020546141aa90919063ffffffff16565b6000808a73ffffffffffffffffffffffffffffffffffffffff1673ffffffffffffffffffffffffffffffffffffffff16815260200190815260200160002081905550612d0a82600080600360009054906101000a900473ffffffffffffffffffffffffffffffffffffffff1673ffffffffffffffffffffffffffffffffffffffff1673ffffffffffffffffffffffffffffffffffffffff168152602001908152602001600020546141aa90919063ffffffff16565b600080600360009054906101000a900473ffffffffffffffffffffffffffffffffffffffff1673ffffffffffffffffffffffffffffffffffffffff1673ffffffffffffffffffffffffffffffffffffffff168152602001908152602001600020819055508773ffffffffffffffffffffffffffffffffffffffff163073ffffffffffffffffffffffffffffffffffffffff167fddf252ad1be2c89b69c2b068fc378daa952ba7f163c4a11628f55a4df523b3ef87600001546040518082815260200191505060405180910390a3612dff612dee6002846141df90919063ffffffff16565b6001546141aa90919063ffffffff16565b6001819055508773ffffffffffffffffffffffffffffffffffffffff167f0f6798a560793a54c3bcfe86a93cde1e73087d944c0ea20544137d4121396885836040518082815260200191505060405180910390a2600360009054906101000a900473ffffffffffffffffffffffffffffffffffffffff1673ffffffffffffffffffffffffffffffffffffffff167f0f6798a560793a54c3bcfe86a93cde1e73087d944c0ea20544137d4121396885836040518082815260200191505060405180910390a2505050505092915050565b600080151560086000856000191660001916815260200190815260200160002060009054906101000a900460ff161515148015612f115750612f1082846134e6565b5b905092915050565b600b5481565b600d60205281600052604060002081815481101515612f3a57fe5b9060005260206000209060040201600091509150508060000154908060010154908060020154908060030154905084565b600080612f9862093a80612f8a600454426141c690919063ffffffff16565b61421790919063ffffffff16565b915060328211158015612fac575060055482115b15612fed57612fc8600954600a546141c690919063ffffffff16565b9050806006600060018503815260200190815260200160002081905550816005819055505b5050565b600360009054906101000a900473ffffffffffffffffffffffffffffffffffffffff1681565b60055481565b60008073ffffffffffffffffffffffffffffffffffffffff168373ffffffffffffffffffffffffffffffffffffffff161415151561305a57600080fd5b6000803373ffffffffffffffffffffffffffffffffffffffff1673ffffffffffffffffffffffffffffffffffffffff1681526020019081526020016000205482111515156130a757600080fd5b6130f8826000803373ffffffffffffffffffffffffffffffffffffffff1673ffffffffffffffffffffffffffffffffffffffff168152602001908152602001600020546141c690919063ffffffff16565b6000803373ffffffffffffffffffffffffffffffffffffffff1673ffffffffffffffffffffffffffffffffffffffff1681526020019081526020016000208190555061318b826000808673ffffffffffffffffffffffffffffffffffffffff1673ffffffffffffffffffffffffffffffffffffffff168152602001908152602001600020546141aa90919063ffffffff16565b6000808573ffffffffffffffffffffffffffffffffffffffff1673ffffffffffffffffffffffffffffffffffffffff168152602001908152602001600020819055508273ffffffffffffffffffffffffffffffffffffffff163373ffffffffffffffffffffffffffffffffffffffff167fddf252ad1be2c89b69c2b068fc378daa952ba7f163c4a11628f55a4df523b3ef846040518082815260200191505060405180910390a36001905092915050565b60003373ffffffffffffffffffffffffffffffffffffffff168273ffffffffffffffffffffffffffffffffffffffff161415151561327957600080fd5b600073ffffffffffffffffffffffffffffffffffffffff168273ffffffffffffffffffffffffffffffffffffffff16141515156132b557600080fd5b6133258b8b8b808060200260200160405190810160405280939291908181526020018383602002808284378201915050505050508a8a8080601f01602080910402602001604051908101604052809392919081815260200183838082843782019150505050505089898989612542565b905061338b61333e60148361421790919063ffffffff16565b6000808573ffffffffffffffffffffffffffffffffffffffff1673ffffffffffffffffffffffffffffffffffffffff168152602001908152602001600020546141aa90919063ffffffff16565b6000808473ffffffffffffffffffffffffffffffffffffffff1673ffffffffffffffffffffffffffffffffffffffff168152602001908152602001600020819055506133f56133e460148361421790919063ffffffff16565b6001546141aa90919063ffffffff16565b6001819055508090509a9950505050505050505050565b6000806000806000806000945061344362093a806134356004548b6141c690919063ffffffff16565b61421790919063ffffffff16565b935061346f62093a806134616004548a6141c690919063ffffffff16565b61421790919063ffffffff16565b92506032831161347f5782613482565b60325b91508390505b818110156134d8576134c96134ba6032600660008581526020019081526020016000205461421790919063ffffffff16565b866141aa90919063ffffffff16565b94508080600101915050613488565b849550505050505092915050565b60006134f583600754846142d0565b905092915050565b600080600d60008573ffffffffffffffffffffffffffffffffffffffff1673ffffffffffffffffffffffffffffffffffffffff1681526020019081526020016000208381548110151561354c57fe5b9060005260206000209060040201600001549050600d60008573ffffffffffffffffffffffffffffffffffffffff1673ffffffffffffffffffffffffffffffffffffffff168152602001908152602001600020838154811015156135ac57fe5b9060005260206000209060040201600201544211156135e8576135e16135d285856127ec565b826141aa90919063ffffffff16565b91506135ec565b8091505b5092915050565b60008082841115151561360557600080fd5b600d60008673ffffffffffffffffffffffffffffffffffffffff1673ffffffffffffffffffffffffffffffffffffffff16815260200190815260200160002080549050831115151561365657600080fd5b8390505b828110156136e057600d60008673ffffffffffffffffffffffffffffffffffffffff1673ffffffffffffffffffffffffffffffffffffffff168152602001908152602001600020818154811015156136ae57fe5b9060005260206000209060040201600201544211156136d3576136d18582612901565b505b808060010191505061365a565b60019150509392505050565b6000613800600287604051602001808273ffffffffffffffffffffffffffffffffffffffff1673ffffffffffffffffffffffffffffffffffffffff166c010000000000000000000000000281526014019150506040516020818303038152906040526040518082805190602001908083835b602083101515613783578051825260208201915060208101905060208303925061375e565b6001836020036101000a0380198251168184511680821785525050505050509050019150506020604051808303816000865af11580156137c7573d6000803e3d6000fd5b5050506040513d60208110156137dc57600080fd5b81019080805190602001909291905050508585856137f98a6120ea565b6000611295565b905095945050505050565b600080848460405160200180836bffffffffffffffffffffffff19166bffffffffffffffffffffffff19168152601401828152602001925050506040516020818303038152906040526040518082805190602001908083835b6020831015156138895780518252602082019150602081019050602083039250613864565b6001836020036101000a038019825116818451168082178552505050505050905001915050604051809103902090506138c28184612ece565b9150509392505050565b600061395d82600260003373ffffffffffffffffffffffffffffffffffffffff1673ffffffffffffffffffffffffffffffffffffffff16815260200190815260200160002060008673ffffffffffffffffffffffffffffffffffffffff1673ffffffffffffffffffffffffffffffffffffffff168152602001908152602001600020546141aa90919063ffffffff16565b600260003373ffffffffffffffffffffffffffffffffffffffff1673ffffffffffffffffffffffffffffffffffffffff16815260200190815260200160002060008573ffffffffffffffffffffffffffffffffffffffff1673ffffffffffffffffffffffffffffffffffffffff168152602001908152602001600020819055508273ffffffffffffffffffffffffffffffffffffffff163373ffffffffffffffffffffffffffffffffffffffff167f8c5be1e5ebec7d5bd14f71427d1e84f3dd0314c0f7b2291e5b200ac8c7c3b925600260003373ffffffffffffffffffffffffffffffffffffffff1673ffffffffffffffffffffffffffffffffffffffff16815260200190815260200160002060008773ffffffffffffffffffffffffffffffffffffffff1673ffffffffffffffffffffffffffffffffffffffff168152602001908152602001600020546040518082815260200191505060405180910390a36001905092915050565b6000600260008473ffffffffffffffffffffffffffffffffffffffff1673ffffffffffffffffffffffffffffffffffffffff16815260200190815260200160002060008373ffffffffffffffffffffffffffffffffffffffff1673ffffffffffffffffffffffffffffffffffffffff16815260200190815260200160002054905092915050565b600080600080613b6086600061439b565b600190049250613b7186602061439b565b6001900491508415613d4d576000600283811515613b8b57fe5b0614613b98576003613b9b565b60025b9050600360028285604051602001808360ff1660ff167f0100000000000000000000000000000000000000000000000000000000000000028152600101828152602001925050506040516020818303038152906040526040518082805190602001908083835b602083101515613c265780518252602082019150602081019050602083039250613c01565b6001836020036101000a0380198251168184511680821785525050505050509050019150506020604051808303816000865af1158015613c6a573d6000803e3d6000fd5b5050506040513d6020811015613c7f57600080fd5b81019080805190602001909291905050506040516020018082600019166000191681526020019150506040516020818303038152906040526040518082805190602001908083835b602083101515613cec5780518252602082019150602081019050602083039250613cc7565b6001836020036101000a0380198251168184511680821785525050505050509050019150506020604051808303816000865af1158015613d30573d6000803e3d6000fd5b505050604051516c01000000000000000000000000029350613f05565b6004905060036002828585604051602001808460ff1660ff167f010000000000000000000000000000000000000000000000000000000000000002815260010183815260200182815260200193505050506040516020818303038152906040526040518082805190602001908083835b602083101515613de25780518252602082019150602081019050602083039250613dbd565b6001836020036101000a0380198251168184511680821785525050505050509050019150506020604051808303816000865af1158015613e26573d6000803e3d6000fd5b5050506040513d6020811015613e3b57600080fd5b81019080805190602001909291905050506040516020018082600019166000191681526020019150506040516020818303038152906040526040518082805190602001908083835b602083101515613ea85780518252602082019150602081019050602083039250613e83565b6001836020036101000a0380198251168184511680821785525050505050509050019150506020604051808303816000865af1158015613eec573d6000803e3d6000fd5b505050604051516c010000000000000000000000000293505b50505092915050565b6000613f4c600a613f3e600a54613f30600954876141df90919063ffffffff16565b61421790919063ffffffff16565b61421790919063ffffffff16565b9050919050565b60095481565b600080600080600080601e94508488811515613f7157fe5b069350613f87858961421790919063ffffffff16565b9250613fa16402540be4008a61421790919063ffffffff16565b9150600090505b8281101561400a57613fed8460640a613fdf86613fcf8b60016141aa90919063ffffffff16565b0a856141df90919063ffffffff16565b61421790919063ffffffff16565b91506140036001826141aa90919063ffffffff16565b9050613fa8565b6140478460640a614039866140298b60016141aa90919063ffffffff16565b0a856141df90919063ffffffff16565b61421790919063ffffffff16565b91506140616402540be400836141df90919063ffffffff16565b955050505050509392505050565b600080600080600080600d60008973ffffffffffffffffffffffffffffffffffffffff1673ffffffffffffffffffffffffffffffffffffffff168152602001908152602001600020878154811015156140c457fe5b906000526020600020906004020194506140e9606460016141df90919063ffffffff16565b93506000856003015414156140ff57600161412c565b61412b60015461411d606488600301546141df90919063ffffffff16565b61421790919063ffffffff16565b5b9250614141838561421790919063ffffffff16565b9350614173620d2f00614165876001015488600201546141c690919063ffffffff16565b61421790919063ffffffff16565b915061418485600001548386613f59565b905061419d8560000154826141c690919063ffffffff16565b9550505050505092915050565b600081830190508281101515156141bd57fe5b80905092915050565b60008282111515156141d457fe5b818303905092915050565b6000808314156141f25760009050614211565b818302905081838281151561420357fe5b0414151561420d57fe5b8090505b92915050565b6000818381151561422457fe5b04905092915050565b81614246600184805490506141c690919063ffffffff16565b81548110151561425257fe5b9060005260206000209060040201828281548110151561426e57fe5b9060005260206000209060040201600082015481600001556001820154816001015560028201548160020155600382015481600301559050506142bf600183805490506141c690919063ffffffff16565b82816142cb9190614477565b505050565b600080600080849250600091505b86518210156143845786828151811015156142f557fe5b90602001906020020151905080600019168360001916101561434657828160405180836000191660001916815260200182600019166000191681526020019250505060405180910390209250614377565b8083604051808360001916600019168152602001826000191660001916815260200192505050604051809103902092505b81806001019250506142de565b856000191683600019161493505050509392505050565b600080600090505b602081101561446d5760088102848483018151811015156143c057fe5b9060200101517f010000000000000000000000000000000000000000000000000000000000000090047f0100000000000000000000000000000000000000000000000000000000000000027effffffffffffffffffffffffffffffffffffffffffffffffffffffffffffff19167fff0000000000000000000000000000000000000000000000000000000000000060010216600019169060020a90048218915080806001019150506143a3565b8191505092915050565b8154818355818111156144a4576004028160040283600052602060002091820191016144a391906144a9565b5b505050565b6144e591905b808211156144e157600080820160009055600182016000905560028201600090556003820160009055506004016144af565b5090565b905600a165627a7a72305820f36d4aaa1f8cafdf2264128b5fac76c4b8b085d6d7bdeb957cc336dbf86a61470029",
  "source": "pragma solidity ^0.4.23;\n\nimport \"../StakeableToken.sol\";\n\n\ncontract StakeableTokenStub is StakeableToken {\n  constructor (\n    address _origin,\n    uint256 _launchTime,\n    bytes32 _rootUtxoMerkleTreeHash,\n    uint256 _totalBtcCirculationAtFork,\n    uint256 _maximumRedeemable\n  ) \n    public\n  {\n    origin = _origin;\n    launchTime = _launchTime;\n    rootUtxoMerkleTreeHash = _rootUtxoMerkleTreeHash;\n    totalBtcCirculationAtFork = _totalBtcCirculationAtFork;\n    maximumRedeemable = _maximumRedeemable;\n  }\n}",
  "sourcePath": "/Users/tovarishfin/dev/bhx/bhx-contracts/contracts/stubs/StakeableTokenStub.sol",
  "compiler": {
    "name": "solc",
    "version": "0.4.24+commit.e67f0147.Emscripten.clang"
  },
  "schemaVersion": "2.0.0",
  "updatedAt": "2018-07-23T15:54:30.730Z"
}