{
  "contractName": "StakeableToken",
  "abi": [
    {
      "constant": true,
      "inputs": [
        {
          "name": "_hash",
          "type": "bytes32"
        },
        {
          "name": "_v",
          "type": "uint8"
        },
        {
          "name": "_r",
          "type": "bytes32"
        },
        {
          "name": "_s",
          "type": "bytes32"
        },
        {
          "name": "_expected",
          "type": "address"
        },
        {
          "name": "_addPrefix",
          "type": "bool"
        }
      ],
      "name": "validateSignature",
      "outputs": [
        {
          "name": "",
          "type": "bool"
        }
      ],
      "payable": false,
      "stateMutability": "pure",
      "type": "function"
    },
    {
      "constant": true,
      "inputs": [],
      "name": "maximumRedeemable",
      "outputs": [
        {
          "name": "",
          "type": "uint256"
        }
      ],
      "payable": false,
      "stateMutability": "view",
      "type": "function"
    },
    {
      "constant": false,
      "inputs": [
        {
          "name": "_spender",
          "type": "address"
        },
        {
          "name": "_value",
          "type": "uint256"
        }
      ],
      "name": "approve",
      "outputs": [
        {
          "name": "",
          "type": "bool"
        }
      ],
      "payable": false,
      "stateMutability": "nonpayable",
      "type": "function"
    },
    {
      "constant": true,
      "inputs": [],
      "name": "interestRatePercent",
      "outputs": [
        {
          "name": "",
          "type": "uint256"
        }
      ],
      "payable": false,
      "stateMutability": "view",
      "type": "function"
    },
    {
      "constant": true,
      "inputs": [],
      "name": "totalStakedCoins",
      "outputs": [
        {
          "name": "",
          "type": "uint256"
        }
      ],
      "payable": false,
      "stateMutability": "view",
      "type": "function"
    },
    {
      "constant": true,
      "inputs": [],
      "name": "totalSupply",
      "outputs": [
        {
          "name": "",
          "type": "uint256"
        }
      ],
      "payable": false,
      "stateMutability": "view",
      "type": "function"
    },
    {
      "constant": false,
      "inputs": [
        {
          "name": "_from",
          "type": "address"
        },
        {
          "name": "_to",
          "type": "address"
        },
        {
          "name": "_value",
          "type": "uint256"
        }
      ],
      "name": "transferFrom",
      "outputs": [
        {
          "name": "",
          "type": "bool"
        }
      ],
      "payable": false,
      "stateMutability": "nonpayable",
      "type": "function"
    },
    {
      "constant": true,
      "inputs": [
        {
          "name": "_satoshis",
          "type": "uint256"
        }
      ],
      "name": "getRedeemAmount",
      "outputs": [
        {
          "name": "",
          "type": "uint256"
        }
      ],
      "payable": false,
      "stateMutability": "view",
      "type": "function"
    },
    {
      "constant": true,
      "inputs": [
        {
          "name": "",
          "type": "uint256"
        }
      ],
      "name": "unclaimedCoinsByWeek",
      "outputs": [
        {
          "name": "",
          "type": "uint256"
        }
      ],
      "payable": false,
      "stateMutability": "view",
      "type": "function"
    },
    {
      "constant": true,
      "inputs": [],
      "name": "oneInterestPeriodInSeconds",
      "outputs": [
        {
          "name": "",
          "type": "uint256"
        }
      ],
      "payable": false,
      "stateMutability": "view",
      "type": "function"
    },
    {
      "constant": true,
      "inputs": [],
      "name": "redeemedCount",
      "outputs": [
        {
          "name": "",
          "type": "uint256"
        }
      ],
      "payable": false,
      "stateMutability": "view",
      "type": "function"
    },
    {
      "constant": true,
      "inputs": [
        {
          "name": "_pubKey",
          "type": "bytes"
        }
      ],
      "name": "pubKeyToEthereumAddress",
      "outputs": [
        {
          "name": "",
          "type": "address"
        }
      ],
      "payable": false,
      "stateMutability": "pure",
      "type": "function"
    },
    {
      "constant": true,
      "inputs": [],
      "name": "maxStakingTimeInSeconds",
      "outputs": [
        {
          "name": "",
          "type": "uint256"
        }
      ],
      "payable": false,
      "stateMutability": "view",
      "type": "function"
    },
    {
      "constant": false,
      "inputs": [
        {
          "name": "_spender",
          "type": "address"
        },
        {
          "name": "_subtractedValue",
          "type": "uint256"
        }
      ],
      "name": "decreaseApproval",
      "outputs": [
        {
          "name": "",
          "type": "bool"
        }
      ],
      "payable": false,
      "stateMutability": "nonpayable",
      "type": "function"
    },
    {
      "constant": true,
      "inputs": [
        {
          "name": "",
          "type": "bytes32"
        }
      ],
      "name": "redeemedUTXOs",
      "outputs": [
        {
          "name": "",
          "type": "bool"
        }
      ],
      "payable": false,
      "stateMutability": "view",
      "type": "function"
    },
    {
      "constant": true,
      "inputs": [],
      "name": "rootUtxoMerkleTreeHash",
      "outputs": [
        {
          "name": "",
          "type": "bytes32"
        }
      ],
      "payable": false,
      "stateMutability": "view",
      "type": "function"
    },
    {
      "constant": true,
      "inputs": [
        {
          "name": "_owner",
          "type": "address"
        }
      ],
      "name": "balanceOf",
      "outputs": [
        {
          "name": "",
          "type": "uint256"
        }
      ],
      "payable": false,
      "stateMutability": "view",
      "type": "function"
    },
    {
      "constant": false,
      "inputs": [
        {
          "name": "_satoshis",
          "type": "uint256"
        },
        {
          "name": "_proof",
          "type": "bytes32[]"
        },
        {
          "name": "_pubKey",
          "type": "bytes"
        },
        {
          "name": "_isCompressed",
          "type": "bool"
        },
        {
          "name": "_v",
          "type": "uint8"
        },
        {
          "name": "_r",
          "type": "bytes32"
        },
        {
          "name": "_s",
          "type": "bytes32"
        }
      ],
      "name": "redeemUtxo",
      "outputs": [
        {
          "name": "_tokensRedeemed",
          "type": "uint256"
        }
      ],
      "payable": false,
      "stateMutability": "nonpayable",
      "type": "function"
    },
    {
      "constant": true,
      "inputs": [],
      "name": "launchTime",
      "outputs": [
        {
          "name": "",
          "type": "uint256"
        }
      ],
      "payable": false,
      "stateMutability": "view",
      "type": "function"
    },
    {
      "constant": true,
      "inputs": [
        {
          "name": "_merkleLeafHash",
          "type": "bytes32"
        },
        {
          "name": "_proof",
          "type": "bytes32[]"
        }
      ],
      "name": "canRedeemUtxoHash",
      "outputs": [
        {
          "name": "",
          "type": "bool"
        }
      ],
      "payable": false,
      "stateMutability": "view",
      "type": "function"
    },
    {
      "constant": true,
      "inputs": [],
      "name": "totalBtcCirculationAtFork",
      "outputs": [
        {
          "name": "",
          "type": "uint256"
        }
      ],
      "payable": false,
      "stateMutability": "view",
      "type": "function"
    },
    {
      "constant": true,
      "inputs": [
        {
          "name": "",
          "type": "address"
        },
        {
          "name": "",
          "type": "uint256"
        }
      ],
      "name": "staked",
      "outputs": [
        {
          "name": "stakeAmount",
          "type": "uint256"
        },
        {
          "name": "stakeTime",
          "type": "uint256"
        },
        {
          "name": "unlockTime",
          "type": "uint256"
        },
        {
          "name": "totalStakedCoinsAtStart",
          "type": "uint256"
        },
        {
          "name": "totalSupplyAtStart",
          "type": "uint256"
        }
      ],
      "payable": false,
      "stateMutability": "view",
      "type": "function"
    },
    {
      "constant": false,
      "inputs": [],
      "name": "storeSatoshiWeekData",
      "outputs": [],
      "payable": false,
      "stateMutability": "nonpayable",
      "type": "function"
    },
    {
      "constant": true,
      "inputs": [],
      "name": "origin",
      "outputs": [
        {
          "name": "",
          "type": "address"
        }
      ],
      "payable": false,
      "stateMutability": "view",
      "type": "function"
    },
    {
      "constant": true,
      "inputs": [],
      "name": "lastUpdatedWeek",
      "outputs": [
        {
          "name": "",
          "type": "uint256"
        }
      ],
      "payable": false,
      "stateMutability": "view",
      "type": "function"
    },
    {
      "constant": false,
      "inputs": [
        {
          "name": "_to",
          "type": "address"
        },
        {
          "name": "_value",
          "type": "uint256"
        }
      ],
      "name": "transfer",
      "outputs": [
        {
          "name": "",
          "type": "bool"
        }
      ],
      "payable": false,
      "stateMutability": "nonpayable",
      "type": "function"
    },
    {
      "constant": false,
      "inputs": [
        {
          "name": "_satoshis",
          "type": "uint256"
        },
        {
          "name": "_proof",
          "type": "bytes32[]"
        },
        {
          "name": "_pubKey",
          "type": "bytes"
        },
        {
          "name": "_isCompressed",
          "type": "bool"
        },
        {
          "name": "_v",
          "type": "uint8"
        },
        {
          "name": "_r",
          "type": "bytes32"
        },
        {
          "name": "_s",
          "type": "bytes32"
        },
        {
          "name": "_referrer",
          "type": "address"
        }
      ],
      "name": "redeemReferredUtxo",
      "outputs": [
        {
          "name": "_tokensRedeemed",
          "type": "uint256"
        }
      ],
      "payable": false,
      "stateMutability": "nonpayable",
      "type": "function"
    },
    {
      "constant": true,
      "inputs": [
        {
          "name": "_proof",
          "type": "bytes32[]"
        },
        {
          "name": "_merkleLeafHash",
          "type": "bytes32"
        }
      ],
      "name": "verifyProof",
      "outputs": [
        {
          "name": "",
          "type": "bool"
        }
      ],
      "payable": false,
      "stateMutability": "view",
      "type": "function"
    },
    {
      "constant": true,
      "inputs": [
        {
          "name": "_addr",
          "type": "address"
        },
        {
          "name": "_pubKey",
          "type": "bytes"
        },
        {
          "name": "_v",
          "type": "uint8"
        },
        {
          "name": "_r",
          "type": "bytes32"
        },
        {
          "name": "_s",
          "type": "bytes32"
        }
      ],
      "name": "ecdsaVerify",
      "outputs": [
        {
          "name": "",
          "type": "bool"
        }
      ],
      "payable": false,
      "stateMutability": "pure",
      "type": "function"
    },
    {
      "constant": true,
      "inputs": [
        {
          "name": "_originalAddress",
          "type": "bytes20"
        },
        {
          "name": "_satoshis",
          "type": "uint256"
        },
        {
          "name": "_proof",
          "type": "bytes32[]"
        }
      ],
      "name": "canRedeemUtxo",
      "outputs": [
        {
          "name": "",
          "type": "bool"
        }
      ],
      "payable": false,
      "stateMutability": "view",
      "type": "function"
    },
    {
      "constant": false,
      "inputs": [
        {
          "name": "_spender",
          "type": "address"
        },
        {
          "name": "_addedValue",
          "type": "uint256"
        }
      ],
      "name": "increaseApproval",
      "outputs": [
        {
          "name": "",
          "type": "bool"
        }
      ],
      "payable": false,
      "stateMutability": "nonpayable",
      "type": "function"
    },
    {
      "constant": true,
      "inputs": [
        {
          "name": "_owner",
          "type": "address"
        },
        {
          "name": "_spender",
          "type": "address"
        }
      ],
      "name": "allowance",
      "outputs": [
        {
          "name": "",
          "type": "uint256"
        }
      ],
      "payable": false,
      "stateMutability": "view",
      "type": "function"
    },
    {
      "constant": true,
      "inputs": [
        {
          "name": "_pubKey",
          "type": "bytes"
        },
        {
          "name": "_isCompressed",
          "type": "bool"
        }
      ],
      "name": "pubKeyToBitcoinAddress",
      "outputs": [
        {
          "name": "",
          "type": "bytes20"
        }
      ],
      "payable": false,
      "stateMutability": "pure",
      "type": "function"
    },
    {
      "constant": true,
      "inputs": [],
      "name": "totalRedeemed",
      "outputs": [
        {
          "name": "",
          "type": "uint256"
        }
      ],
      "payable": false,
      "stateMutability": "view",
      "type": "function"
    },
    {
      "anonymous": false,
      "inputs": [
        {
          "indexed": true,
          "name": "_address",
          "type": "address"
        },
        {
          "indexed": false,
          "name": "_reward",
          "type": "uint256"
        }
      ],
      "name": "Mint",
      "type": "event"
    },
    {
      "anonymous": false,
      "inputs": [
        {
          "indexed": true,
          "name": "owner",
          "type": "address"
        },
        {
          "indexed": true,
          "name": "spender",
          "type": "address"
        },
        {
          "indexed": false,
          "name": "value",
          "type": "uint256"
        }
      ],
      "name": "Approval",
      "type": "event"
    },
    {
      "anonymous": false,
      "inputs": [
        {
          "indexed": true,
          "name": "from",
          "type": "address"
        },
        {
          "indexed": true,
          "name": "to",
          "type": "address"
        },
        {
          "indexed": false,
          "name": "value",
          "type": "uint256"
        }
      ],
      "name": "Transfer",
      "type": "event"
    },
    {
      "constant": true,
      "inputs": [
        {
          "name": "_staker",
          "type": "address"
        }
      ],
      "name": "getUserStakes",
      "outputs": [
        {
          "name": "",
          "type": "uint256[]"
        },
        {
          "name": "",
          "type": "uint256[]"
        },
        {
          "name": "",
          "type": "uint256[]"
        },
        {
          "name": "",
          "type": "uint256[]"
        }
      ],
      "payable": false,
      "stateMutability": "view",
      "type": "function"
    },
    {
      "constant": true,
      "inputs": [],
      "name": "getWeeksSinceLaunch",
      "outputs": [
        {
          "name": "",
          "type": "uint256"
        }
      ],
      "payable": false,
      "stateMutability": "view",
      "type": "function"
    },
    {
      "constant": true,
      "inputs": [],
      "name": "isDuringBonusPeriod",
      "outputs": [
        {
          "name": "",
          "type": "bool"
        }
      ],
      "payable": false,
      "stateMutability": "view",
      "type": "function"
    },
    {
      "constant": false,
      "inputs": [
        {
          "name": "_staker",
          "type": "address"
        },
        {
          "name": "_stakeIndex",
          "type": "uint256"
        }
      ],
      "name": "removeArrayEntry",
      "outputs": [],
      "payable": false,
      "stateMutability": "nonpayable",
      "type": "function"
    },
    {
      "constant": true,
      "inputs": [
        {
          "name": "_principle",
          "type": "uint256"
        },
        {
          "name": "_periods",
          "type": "uint256"
        },
        {
          "name": "_rate",
          "type": "uint256"
        }
      ],
      "name": "compound",
      "outputs": [
        {
          "name": "",
          "type": "uint256"
        }
      ],
      "payable": false,
      "stateMutability": "pure",
      "type": "function"
    },
    {
      "constant": true,
      "inputs": [
        {
          "name": "_staker",
          "type": "address"
        },
        {
          "name": "_stakeIndex",
          "type": "uint256"
        }
      ],
      "name": "calculateStakingRewards",
      "outputs": [
        {
          "name": "",
          "type": "uint256"
        }
      ],
      "payable": false,
      "stateMutability": "view",
      "type": "function"
    },
    {
      "constant": true,
      "inputs": [
        {
          "name": "_stakeTime",
          "type": "uint256"
        },
        {
          "name": "_unlockTime",
          "type": "uint256"
        }
      ],
      "name": "calculateWeAreAllSatoshiRewards",
      "outputs": [
        {
          "name": "",
          "type": "uint256"
        }
      ],
      "payable": false,
      "stateMutability": "view",
      "type": "function"
    },
    {
      "constant": true,
      "inputs": [
        {
          "name": "_stakeAmount",
          "type": "uint256"
        }
      ],
      "name": "calculateViralRewards",
      "outputs": [
        {
          "name": "",
          "type": "uint256"
        }
      ],
      "payable": false,
      "stateMutability": "view",
      "type": "function"
    },
    {
      "constant": true,
      "inputs": [
        {
          "name": "_stakeAmount",
          "type": "uint256"
        }
      ],
      "name": "calculateCritMassRewards",
      "outputs": [
        {
          "name": "",
          "type": "uint256"
        }
      ],
      "payable": false,
      "stateMutability": "view",
      "type": "function"
    },
    {
      "constant": true,
      "inputs": [
        {
          "name": "_staker",
          "type": "address"
        },
        {
          "name": "_stakeIndex",
          "type": "uint256"
        }
      ],
      "name": "calculateAdditionalRewards",
      "outputs": [
        {
          "name": "",
          "type": "uint256"
        }
      ],
      "payable": false,
      "stateMutability": "view",
      "type": "function"
    },
    {
      "constant": true,
      "inputs": [
        {
          "name": "_staker",
          "type": "address"
        },
        {
          "name": "_startIndex",
          "type": "uint256"
        },
        {
          "name": "_endIndex",
          "type": "uint256"
        }
      ],
      "name": "getStakedAtIndexes",
      "outputs": [
        {
          "name": "",
          "type": "uint256"
        }
      ],
      "payable": false,
      "stateMutability": "view",
      "type": "function"
    },
    {
      "constant": true,
      "inputs": [
        {
          "name": "_staker",
          "type": "address"
        }
      ],
      "name": "getTotalUserStaked",
      "outputs": [
        {
          "name": "",
          "type": "uint256"
        }
      ],
      "payable": false,
      "stateMutability": "view",
      "type": "function"
    },
    {
      "constant": true,
      "inputs": [
        {
          "name": "_staker",
          "type": "address"
        },
        {
          "name": "_stakeIndex",
          "type": "uint256"
        }
      ],
      "name": "calculateSingleStakePlusRewards",
      "outputs": [
        {
          "name": "",
          "type": "uint256"
        }
      ],
      "payable": false,
      "stateMutability": "view",
      "type": "function"
    },
    {
      "constant": false,
      "inputs": [
        {
          "name": "_value",
          "type": "uint256"
        },
        {
          "name": "_unlockTime",
          "type": "uint256"
        }
      ],
      "name": "startStake",
      "outputs": [
        {
          "name": "",
          "type": "bool"
        }
      ],
      "payable": false,
      "stateMutability": "nonpayable",
      "type": "function"
    },
    {
      "constant": false,
      "inputs": [
        {
          "name": "_staker",
          "type": "address"
        },
        {
          "name": "_stakeIndex",
          "type": "uint256"
        }
      ],
      "name": "claimSingleStakingReward",
      "outputs": [
        {
          "name": "",
          "type": "bool"
        }
      ],
      "payable": false,
      "stateMutability": "nonpayable",
      "type": "function"
    },
    {
      "constant": false,
      "inputs": [
        {
          "name": "_staker",
          "type": "address"
        },
        {
          "name": "_startIndex",
          "type": "uint256"
        },
        {
          "name": "_endIndex",
          "type": "uint256"
        }
      ],
      "name": "claimMultipleStakingRewards",
      "outputs": [
        {
          "name": "",
          "type": "bool"
        }
      ],
      "payable": false,
      "stateMutability": "nonpayable",
      "type": "function"
    },
    {
      "constant": false,
      "inputs": [
        {
          "name": "_staker",
          "type": "address"
        }
      ],
      "name": "claimAllStakingRewards",
      "outputs": [
        {
          "name": "",
          "type": "bool"
        }
      ],
      "payable": false,
      "stateMutability": "nonpayable",
      "type": "function"
    }
  ],
  "bytecode": "0x6080604052600060055560006009556000600a5534801561001f57600080fd5b50614dbb8061002f6000396000f300608060405260043610610267576000357c0100000000000000000000000000000000000000000000000000000000900463ffffffff1680630867c0ad1461026c57806308b4312b1461030a578063095ea7b314610335578063128bfcae1461039a57806316043f5d146103e95780631765f4bf1461041457806318160ddd1461043f578063229cfc321461046a57806323b872dd146104ab5780632c3ee88c146105305780632c48d57b1461057157806330fd546e146105a05780634f265bf4146105e157806352aa3e6c1461060c5780635418796c1461063757806365925c2b146106e0578063661884631461070b578063687cf4a4146107705780636aaf67e2146107b957806370a08231146107ec578063753bf8cd1461084357806375889a2b14610942578063790ca4131461099d5780637cdafe9d146109c857806381437de814610a2957806381cd84b914610a8e578063842e298114610b1a5780638716391914610c8a5780638d854c3414610cd75780638f16981614610d025780639283032c14610d7f578063938b5f3214610d9657806394ce28e814610ded5780639d65b89214610e18578063a9059cbb14610e43578063b1ccf19314610ea8578063b242c9bf14610f6e578063b27f7a0e14610fd9578063b80ac7df14611024578063bac5c048146110b0578063cb9c501f14611107578063ce267b5514611176578063cfc2334e14611240578063d73dd623146112e1578063dd62ed3e14611346578063e073ef69146113bd578063e26e7b5014611464578063e39a385a146114a5578063f35dad4014611506578063f3c85eba14611531578063f6c45d0214611586575b600080fd5b34801561027857600080fd5b506102f06004803603810190808035600019169060200190929190803560ff16906020019092919080356000191690602001909291908035600019169060200190929190803573ffffffffffffffffffffffffffffffffffffffff1690602001909291908035151590602001909291905050506115e7565b604051808215151515815260200191505060405180910390f35b34801561031657600080fd5b5061031f6117d2565b6040518082815260200191505060405180910390f35b34801561034157600080fd5b50610380600480360381019080803573ffffffffffffffffffffffffffffffffffffffff169060200190929190803590602001909291905050506117d8565b604051808215151515815260200191505060405180910390f35b3480156103a657600080fd5b506103cf60048036038101908080359060200190929190803590602001909291905050506118ca565b604051808215151515815260200191505060405180910390f35b3480156103f557600080fd5b506103fe611bce565b6040518082815260200191505060405180910390f35b34801561042057600080fd5b50610429611bd3565b6040518082815260200191505060405180910390f35b34801561044b57600080fd5b50610454611bd9565b6040518082815260200191505060405180910390f35b34801561047657600080fd5b5061049560048036038101908080359060200190929190505050611be3565b6040518082815260200191505060405180910390f35b3480156104b757600080fd5b50610516600480360381019080803573ffffffffffffffffffffffffffffffffffffffff169060200190929190803573ffffffffffffffffffffffffffffffffffffffff16906020019092919080359060200190929190505050611c28565b604051808215151515815260200191505060405180910390f35b34801561053c57600080fd5b5061055b60048036038101908080359060200190929190505050611fe2565b6040518082815260200191505060405180910390f35b34801561057d57600080fd5b5061058661235c565b604051808215151515815260200191505060405180910390f35b3480156105ac57600080fd5b506105cb6004803603810190808035906020019092919050505061236f565b6040518082815260200191505060405180910390f35b3480156105ed57600080fd5b506105f6612387565b6040518082815260200191505060405180910390f35b34801561061857600080fd5b5061062161238e565b6040518082815260200191505060405180910390f35b34801561064357600080fd5b5061069e600480360381019080803590602001908201803590602001908080601f0160208091040260200160405190810160405280939291908181526020018383808284378201915050505050509192919290505050612394565b604051808273ffffffffffffffffffffffffffffffffffffffff1673ffffffffffffffffffffffffffffffffffffffff16815260200191505060405180910390f35b3480156106ec57600080fd5b506106f561241a565b6040518082815260200191505060405180910390f35b34801561071757600080fd5b50610756600480360381019080803573ffffffffffffffffffffffffffffffffffffffff16906020019092919080359060200190929190505050612422565b604051808215151515815260200191505060405180910390f35b34801561077c57600080fd5b5061079f60048036038101908080356000191690602001909291905050506126b3565b604051808215151515815260200191505060405180910390f35b3480156107c557600080fd5b506107ce6126d3565b60405180826000191660001916815260200191505060405180910390f35b3480156107f857600080fd5b5061082d600480360381019080803573ffffffffffffffffffffffffffffffffffffffff1690602001909291905050506126d9565b6040518082815260200191505060405180910390f35b34801561084f57600080fd5b5061092c6004803603810190808035906020019092919080359060200190820180359060200190808060200260200160405190810160405280939291908181526020018383602002808284378201915050505050509192919290803590602001908201803590602001908080601f0160208091040260200160405190810160405280939291908181526020018383808284378201915050505050509192919290803515159060200190929190803560ff16906020019092919080356000191690602001909291908035600019169060200190929190505050612721565b6040518082815260200191505060405180910390f35b34801561094e57600080fd5b50610983600480360381019080803573ffffffffffffffffffffffffffffffffffffffff1690602001909291905050506129e1565b604051808215151515815260200191505060405180910390f35b3480156109a957600080fd5b506109b2612b66565b6040518082815260200191505060405180910390f35b3480156109d457600080fd5b50610a13600480360381019080803573ffffffffffffffffffffffffffffffffffffffff16906020019092919080359060200190929190505050612b6c565b6040518082815260200191505060405180910390f35b348015610a3557600080fd5b50610a74600480360381019080803573ffffffffffffffffffffffffffffffffffffffff16906020019092919080359060200190929190505050612c79565b604051808215151515815260200191505060405180910390f35b348015610a9a57600080fd5b50610b00600480360381019080803560001916906020019092919080359060200190820180359060200190808060200260200160405190810160405280939291908181526020018383602002808284378201915050505050509192919290505050613137565b604051808215151515815260200191505060405180910390f35b348015610b2657600080fd5b50610b5b600480360381019080803573ffffffffffffffffffffffffffffffffffffffff169060200190929190505050613182565b6040518080602001806020018060200180602001858103855289818151815260200191508051906020019060200280838360005b83811015610baa578082015181840152602081019050610b8f565b50505050905001858103845288818151815260200191508051906020019060200280838360005b83811015610bec578082015181840152602081019050610bd1565b50505050905001858103835287818151815260200191508051906020019060200280838360005b83811015610c2e578082015181840152602081019050610c13565b50505050905001858103825286818151815260200191508051906020019060200280838360005b83811015610c70578082015181840152602081019050610c55565b505050509050019850505050505050505060405180910390f35b348015610c9657600080fd5b50610cd5600480360381019080803573ffffffffffffffffffffffffffffffffffffffff169060200190929190803590602001909291905050506133b4565b005b348015610ce357600080fd5b50610cec6134a5565b6040518082815260200191505060405180910390f35b348015610d0e57600080fd5b50610d4d600480360381019080803573ffffffffffffffffffffffffffffffffffffffff169060200190929190803590602001909291905050506134ab565b604051808681526020018581526020018481526020018381526020018281526020019550505050505060405180910390f35b348015610d8b57600080fd5b50610d946134fd565b005b348015610da257600080fd5b50610dab613583565b604051808273ffffffffffffffffffffffffffffffffffffffff1673ffffffffffffffffffffffffffffffffffffffff16815260200191505060405180910390f35b348015610df957600080fd5b50610e026135a9565b6040518082815260200191505060405180910390f35b348015610e2457600080fd5b50610e2d6135eb565b6040518082815260200191505060405180910390f35b348015610e4f57600080fd5b50610e8e600480360381019080803573ffffffffffffffffffffffffffffffffffffffff169060200190929190803590602001909291905050506135f1565b604051808215151515815260200191505060405180910390f35b348015610eb457600080fd5b50610f5860048036038101908080359060200190929190803590602001908201803590602001919091929391929390803590602001908201803590602001919091929391929390803515159060200190929190803560ff16906020019092919080356000191690602001909291908035600019169060200190929190803573ffffffffffffffffffffffffffffffffffffffff169060200190929190505050613810565b6040518082815260200191505060405180910390f35b348015610f7a57600080fd5b50610fc3600480360381019080803573ffffffffffffffffffffffffffffffffffffffff16906020019092919080359060200190929190803590602001909291905050506139e0565b6040518082815260200191505060405180910390f35b348015610fe557600080fd5b5061100e6004803603810190808035906020019092919080359060200190929190505050613ba9565b6040518082815260200191505060405180910390f35b34801561103057600080fd5b50611096600480360381019080803590602001908201803590602001908080602002602001604051908101604052809392919081815260200183836020028082843782019150505050505091929192908035600019169060200190929190505050613c83565b604051808215151515815260200191505060405180910390f35b3480156110bc57600080fd5b506110f1600480360381019080803573ffffffffffffffffffffffffffffffffffffffff169060200190929190505050613c9a565b6040518082815260200191505060405180910390f35b34801561111357600080fd5b5061115c600480360381019080803573ffffffffffffffffffffffffffffffffffffffff1690602001909291908035906020019092919080359060200190929190505050613cf4565b604051808215151515815260200191505060405180910390f35b34801561118257600080fd5b50611226600480360381019080803573ffffffffffffffffffffffffffffffffffffffff169060200190929190803590602001908201803590602001908080601f0160208091040260200160405190810160405280939291908181526020018383808284378201915050505050509192919290803560ff16906020019092919080356000191690602001909291908035600019169060200190929190505050613dfe565b604051808215151515815260200191505060405180910390f35b34801561124c57600080fd5b506112c760048036038101908080356bffffffffffffffffffffffff191690602001909291908035906020019092919080359060200190820180359060200190808060200260200160405190810160405280939291908181526020018383602002808284378201915050505050509192919290505050613f1d565b604051808215151515815260200191505060405180910390f35b3480156112ed57600080fd5b5061132c600480360381019080803573ffffffffffffffffffffffffffffffffffffffff16906020019092919080359060200190929190505050613fde565b604051808215151515815260200191505060405180910390f35b34801561135257600080fd5b506113a7600480360381019080803573ffffffffffffffffffffffffffffffffffffffff169060200190929190803573ffffffffffffffffffffffffffffffffffffffff1690602001909291905050506141da565b6040518082815260200191505060405180910390f35b3480156113c957600080fd5b50611430600480360381019080803590602001908201803590602001908080601f0160208091040260200160405190810160405280939291908181526020018383808284378201915050505050509192919290803515159060200190929190505050614261565b60405180826bffffffffffffffffffffffff19166bffffffffffffffffffffffff1916815260200191505060405180910390f35b34801561147057600080fd5b5061148f60048036038101908080359060200190929190505050614620565b6040518082815260200191505060405180910390f35b3480156114b157600080fd5b506114f0600480360381019080803573ffffffffffffffffffffffffffffffffffffffff16906020019092919080359060200190929190505050614665565b6040518082815260200191505060405180910390f35b34801561151257600080fd5b5061151b61475b565b6040518082815260200191505060405180910390f35b34801561153d57600080fd5b50611570600480360381019080803590602001909291908035906020019092919080359060200190929190505050614761565b6040518082815260200191505060405180910390f35b34801561159257600080fd5b506115d1600480360381019080803573ffffffffffffffffffffffffffffffffffffffff1690602001909291908035906020019092919050505061485e565b6040518082815260200191505060405180910390f35b60008060608315156115fb57889150611715565b6040805190810160405280601c81526020017f19457468657265756d205369676e6564204d6573736167653a0a333200000000815250905080896040516020018083805190602001908083835b60208310151561166d5780518252602082019150602081019050602083039250611648565b6001836020036101000a0380198251168184511680821785525050505050509050018260001916600019168152602001925050506040516020818303038152906040526040518082805190602001908083835b6020831015156116e557805182526020820191506020810190506020830392506116c0565b6001836020036101000a038019825116818451168082178552505050505050905001915050604051809103902091505b8473ffffffffffffffffffffffffffffffffffffffff166001838a8a8a604051600081526020016040526040518085600019166000191681526020018460ff1660ff1681526020018360001916600019168152602001826000191660001916815260200194505050505060206040516020810390808403906000865af11580156117a3573d6000803e3d6000fd5b5050506020604051035173ffffffffffffffffffffffffffffffffffffffff1614925050509695505050505050565b600b5481565b600081600260003373ffffffffffffffffffffffffffffffffffffffff1673ffffffffffffffffffffffffffffffffffffffff16815260200190815260200160002060008573ffffffffffffffffffffffffffffffffffffffff1673ffffffffffffffffffffffffffffffffffffffff168152602001908152602001600020819055508273ffffffffffffffffffffffffffffffffffffffff163373ffffffffffffffffffffffffffffffffffffffff167f8c5be1e5ebec7d5bd14f71427d1e84f3dd0314c0f7b2291e5b200ac8c7c3b925846040518082815260200191505060405180910390a36001905092915050565b600080339050836000808373ffffffffffffffffffffffffffffffffffffffff1673ffffffffffffffffffffffffffffffffffffffff168152602001908152602001600020541015151561191d57600080fd5b6119346312cc0300426149e490919063ffffffff16565b831115151561194257600080fd5b61194a6134fd565b61199b846000808473ffffffffffffffffffffffffffffffffffffffff1673ffffffffffffffffffffffffffffffffffffffff16815260200190815260200160002054614a0090919063ffffffff16565b6000808373ffffffffffffffffffffffffffffffffffffffff1673ffffffffffffffffffffffffffffffffffffffff16815260200190815260200160002081905550611a2e846000803073ffffffffffffffffffffffffffffffffffffffff1673ffffffffffffffffffffffffffffffffffffffff168152602001908152602001600020546149e490919063ffffffff16565b6000803073ffffffffffffffffffffffffffffffffffffffff1673ffffffffffffffffffffffffffffffffffffffff16815260200190815260200160002081905550600e60008273ffffffffffffffffffffffffffffffffffffffff1673ffffffffffffffffffffffffffffffffffffffff16815260200190815260200160002060a060405190810160405280868152602001428152602001858152602001600d5481526020016001548152509080600181540180825580915050906001820390600052602060002090600502016000909192909190915060008201518160000155602082015181600101556040820151816002015560608201518160030155608082015181600401555050506000611b9c82611b976001600e60008773ffffffffffffffffffffffffffffffffffffffff1673ffffffffffffffffffffffffffffffffffffffff16815260200190815260200160002080549050614a0090919063ffffffff16565b61485e565b111515611ba857600080fd5b611bbd84600d546149e490919063ffffffff16565b600d81905550600191505092915050565b600181565b600d5481565b6000600154905090565b6000611c21600a611c13600c54611c05600a5487614a1990919063ffffffff16565b614a5190919063ffffffff16565b614a5190919063ffffffff16565b9050919050565b60008073ffffffffffffffffffffffffffffffffffffffff168373ffffffffffffffffffffffffffffffffffffffff1614151515611c6557600080fd5b6000808573ffffffffffffffffffffffffffffffffffffffff1673ffffffffffffffffffffffffffffffffffffffff168152602001908152602001600020548211151515611cb257600080fd5b600260008573ffffffffffffffffffffffffffffffffffffffff1673ffffffffffffffffffffffffffffffffffffffff16815260200190815260200160002060003373ffffffffffffffffffffffffffffffffffffffff1673ffffffffffffffffffffffffffffffffffffffff168152602001908152602001600020548211151515611d3d57600080fd5b611d8e826000808773ffffffffffffffffffffffffffffffffffffffff1673ffffffffffffffffffffffffffffffffffffffff16815260200190815260200160002054614a0090919063ffffffff16565b6000808673ffffffffffffffffffffffffffffffffffffffff1673ffffffffffffffffffffffffffffffffffffffff16815260200190815260200160002081905550611e21826000808673ffffffffffffffffffffffffffffffffffffffff1673ffffffffffffffffffffffffffffffffffffffff168152602001908152602001600020546149e490919063ffffffff16565b6000808573ffffffffffffffffffffffffffffffffffffffff1673ffffffffffffffffffffffffffffffffffffffff16815260200190815260200160002081905550611ef282600260008773ffffffffffffffffffffffffffffffffffffffff1673ffffffffffffffffffffffffffffffffffffffff16815260200190815260200160002060003373ffffffffffffffffffffffffffffffffffffffff1673ffffffffffffffffffffffffffffffffffffffff16815260200190815260200160002054614a0090919063ffffffff16565b600260008673ffffffffffffffffffffffffffffffffffffffff1673ffffffffffffffffffffffffffffffffffffffff16815260200190815260200160002060003373ffffffffffffffffffffffffffffffffffffffff1673ffffffffffffffffffffffffffffffffffffffff168152602001908152602001600020819055508273ffffffffffffffffffffffffffffffffffffffff168473ffffffffffffffffffffffffffffffffffffffff167fddf252ad1be2c89b69c2b068fc378daa952ba7f163c4a11628f55a4df523b3ef846040518082815260200191505060405180910390a3600190509392505050565b60008060008060006120026402540be40087614a1990919063ffffffff16565b9350683635c9adc5dea0000084111561209b5769152d02c7e14af68000008410156120835761207c640ba43b740061206e6009612060600261205264174876e8008b614a0090919063ffffffff16565b614a1990919063ffffffff16565b614a5190919063ffffffff16565b6149e490919063ffffffff16565b935061209a565b612097600485614a5190919063ffffffff16565b93505b5b42600454106120ab5760006120d6565b6120d562093a806120c760045442614a0090919063ffffffff16565b614a5190919063ffffffff16565b5b92506120ff6120ef600285614a1990919063ffffffff16565b6064614a0090919063ffffffff16565b915061212760646121198487614a1990919063ffffffff16565b614a5190919063ffffffff16565b9050602d83111561213a57809450612353565b60208311156121715761216a606461215c606584614a1990919063ffffffff16565b614a5190919063ffffffff16565b9450612353565b60188311156121a8576121a16064612193606684614a1990919063ffffffff16565b614a5190919063ffffffff16565b9450612353565b60128311156121df576121d860646121ca606784614a1990919063ffffffff16565b614a5190919063ffffffff16565b9450612353565b600e8311156122165761220f6064612201606884614a1990919063ffffffff16565b614a5190919063ffffffff16565b9450612353565b600a83111561224d576122466064612238606984614a1990919063ffffffff16565b614a5190919063ffffffff16565b9450612353565b60078311156122845761227d606461226f606a84614a1990919063ffffffff16565b614a5190919063ffffffff16565b9450612353565b60058311156122bb576122b460646122a6606b84614a1990919063ffffffff16565b614a5190919063ffffffff16565b9450612353565b60038311156122f2576122eb60646122dd606c84614a1990919063ffffffff16565b614a5190919063ffffffff16565b9450612353565b6001831115612329576123226064612314606d84614a1990919063ffffffff16565b614a5190919063ffffffff16565b9450612353565b6123506064612342606e84614a1990919063ffffffff16565b614a5190919063ffffffff16565b94505b50505050919050565b600060326123686135a9565b1115905090565b60066020528060005260406000206000915090505481565b620d2f0081565b600a5481565b600073ffffffffffffffffffffffffffffffffffffffff826040518082805190602001908083835b6020831015156123e157805182526020820191506020810190506020830392506123bc565b6001836020036101000a038019825116818451168082178552505050505050905001915050604051809103902060019004169050919050565b6312cc030081565b600080600260003373ffffffffffffffffffffffffffffffffffffffff1673ffffffffffffffffffffffffffffffffffffffff16815260200190815260200160002060008573ffffffffffffffffffffffffffffffffffffffff1673ffffffffffffffffffffffffffffffffffffffff16815260200190815260200160002054905080831115612533576000600260003373ffffffffffffffffffffffffffffffffffffffff1673ffffffffffffffffffffffffffffffffffffffff16815260200190815260200160002060008673ffffffffffffffffffffffffffffffffffffffff1673ffffffffffffffffffffffffffffffffffffffff168152602001908152602001600020819055506125c7565b6125468382614a0090919063ffffffff16565b600260003373ffffffffffffffffffffffffffffffffffffffff1673ffffffffffffffffffffffffffffffffffffffff16815260200190815260200160002060008673ffffffffffffffffffffffffffffffffffffffff1673ffffffffffffffffffffffffffffffffffffffff168152602001908152602001600020819055505b8373ffffffffffffffffffffffffffffffffffffffff163373ffffffffffffffffffffffffffffffffffffffff167f8c5be1e5ebec7d5bd14f71427d1e84f3dd0314c0f7b2291e5b200ac8c7c3b925600260003373ffffffffffffffffffffffffffffffffffffffff1673ffffffffffffffffffffffffffffffffffffffff16815260200190815260200160002060008873ffffffffffffffffffffffffffffffffffffffff1673ffffffffffffffffffffffffffffffffffffffff168152602001908152602001600020546040518082815260200191505060405180910390a3600191505092915050565b60086020528060005260406000206000915054906101000a900460ff1681565b60075481565b60008060008373ffffffffffffffffffffffffffffffffffffffff1673ffffffffffffffffffffffffffffffffffffffff168152602001908152602001600020549050919050565b6000806000600454421015151561273757600080fd5b61273f6134fd565b6127498888614261565b9150818a60405160200180836bffffffffffffffffffffffff19166bffffffffffffffffffffffff19168152601401828152602001925050506040516020818303038152906040526040518082805190602001908083835b6020831015156127c657805182526020820191506020810190506020830392506127a1565b6001836020036101000a038019825116818451168082178552505050505050905001915050604051809103902090506127ff818a613137565b151561280a57600080fd5b6128173389888888613dfe565b151561282257600080fd5b600160086000836000191660001916815260200190815260200160002060006101000a81548160ff02191690831515021790555061285f8a611fe2565b9250600b54612879846009546149e490919063ffffffff16565b1115151561288657600080fd5b61289b836009546149e490919063ffffffff16565b6009819055506128f2836000803373ffffffffffffffffffffffffffffffffffffffff1673ffffffffffffffffffffffffffffffffffffffff168152602001908152602001600020546149e490919063ffffffff16565b6000803373ffffffffffffffffffffffffffffffffffffffff1673ffffffffffffffffffffffffffffffffffffffff16815260200190815260200160002081905550612949836001546149e490919063ffffffff16565b6001819055506129656001600a546149e490919063ffffffff16565b600a819055503373ffffffffffffffffffffffffffffffffffffffff16600073ffffffffffffffffffffffffffffffffffffffff167fddf252ad1be2c89b69c2b068fc378daa952ba7f163c4a11628f55a4df523b3ef856040518082815260200191505060405180910390a38292505050979650505050505050565b600080600080600e60008673ffffffffffffffffffffffffffffffffffffffff1673ffffffffffffffffffffffffffffffffffffffff16815260200190815260200160002080549050925060009150600090506000831415612a465760009350612b5e565b5b82821015612b5957600e60008673ffffffffffffffffffffffffffffffffffffffff1673ffffffffffffffffffffffffffffffffffffffff16815260200190815260200160002080549050612aa66001836149e490919063ffffffff16565b11612ab15780612ab4565b60005b9050600e60008673ffffffffffffffffffffffffffffffffffffffff1673ffffffffffffffffffffffffffffffffffffffff16815260200190815260200160002081815481101515612b0257fe5b90600052602060002090600502016002015442101515612b2857612b268582612c79565b505b612b3c6001836149e490919063ffffffff16565b9150612b526001826149e490919063ffffffff16565b9050612a47565b600193505b505050919050565b60045481565b600080600080600080600e60008973ffffffffffffffffffffffffffffffffffffffff1673ffffffffffffffffffffffffffffffffffffffff16815260200190815260200160002087815481101515612bc157fe5b906000526020600020906005020194506032612c0162093a80612bf36004548960010154614a0090919063ffffffff16565b614a5190919063ffffffff16565b111515612c6957612c1a85600101548660020154613ba9565b9350612c298560000154611be3565b9250612c388560000154614620565b9150612c5f82612c5185876149e490919063ffffffff16565b6149e490919063ffffffff16565b9050809550612c6e565b600095505b505050505092915050565b6000612c83614ce6565b600080600080600e60008973ffffffffffffffffffffffffffffffffffffffff1673ffffffffffffffffffffffffffffffffffffffff16815260200190815260200160002087815481101515612cd557fe5b906000526020600020906005020160a0604051908101604052908160008201548152602001600182015481526020016002820154815260200160038201548152602001600482015481525050945084604001514210151515612d3657600080fd5b612d3e6134fd565b84600001519350612d4f888861485e565b9250612d5b8888612b6c565b9150612d8282612d7485876149e490919063ffffffff16565b6149e490919063ffffffff16565b9050612d9984600d54614a0090919063ffffffff16565b600d81905550612df0846000803073ffffffffffffffffffffffffffffffffffffffff1673ffffffffffffffffffffffffffffffffffffffff16815260200190815260200160002054614a0090919063ffffffff16565b6000803073ffffffffffffffffffffffffffffffffffffffff1673ffffffffffffffffffffffffffffffffffffffff16815260200190815260200160002081905550612e83816000808b73ffffffffffffffffffffffffffffffffffffffff1673ffffffffffffffffffffffffffffffffffffffff168152602001908152602001600020546149e490919063ffffffff16565b6000808a73ffffffffffffffffffffffffffffffffffffffff1673ffffffffffffffffffffffffffffffffffffffff16815260200190815260200160002081905550612f3882600080600360009054906101000a900473ffffffffffffffffffffffffffffffffffffffff1673ffffffffffffffffffffffffffffffffffffffff1673ffffffffffffffffffffffffffffffffffffffff168152602001908152602001600020546149e490919063ffffffff16565b600080600360009054906101000a900473ffffffffffffffffffffffffffffffffffffffff1673ffffffffffffffffffffffffffffffffffffffff1673ffffffffffffffffffffffffffffffffffffffff168152602001908152602001600020819055508773ffffffffffffffffffffffffffffffffffffffff163073ffffffffffffffffffffffffffffffffffffffff167fddf252ad1be2c89b69c2b068fc378daa952ba7f163c4a11628f55a4df523b3ef87600001516040518082815260200191505060405180910390a361301a836001546149e490919063ffffffff16565b600181905550613048613037600284614a1990919063ffffffff16565b6001546149e490919063ffffffff16565b6001819055508773ffffffffffffffffffffffffffffffffffffffff167f0f6798a560793a54c3bcfe86a93cde1e73087d944c0ea20544137d412139688561309985856149e490919063ffffffff16565b6040518082815260200191505060405180910390a2600360009054906101000a900473ffffffffffffffffffffffffffffffffffffffff1673ffffffffffffffffffffffffffffffffffffffff167f0f6798a560793a54c3bcfe86a93cde1e73087d944c0ea20544137d4121396885836040518082815260200191505060405180910390a261312888886133b4565b60019550505050505092915050565b600080151560086000856000191660001916815260200190815260200160002060009054906101000a900460ff16151514801561317a57506131798284613c83565b5b905092915050565b6060806060806000606080606080600080600e60008d73ffffffffffffffffffffffffffffffffffffffff1673ffffffffffffffffffffffffffffffffffffffff168152602001908152602001600020805490509650866040519080825280602002602001820160405280156132075781602001602082028038833980820191505090505b509550866040519080825280602002602001820160405280156132395781602001602082028038833980820191505090505b5094508660405190808252806020026020018201604052801561326b5781602001602082028038833980820191505090505b5093508660405190808252806020026020018201604052801561329d5781602001602082028038833980820191505090505b509250600091505b8682101561339a57600e60008d73ffffffffffffffffffffffffffffffffffffffff1673ffffffffffffffffffffffffffffffffffffffff168152602001908152602001600020828154811015156132f957fe5b906000526020600020906005020190508060000154868381518110151561331c57fe5b90602001906020020181815250508060010154858381518110151561333d57fe5b90602001906020020181815250508060020154848381518110151561335e57fe5b90602001906020020181815250508060030154838381518110151561337f57fe5b906020019060200201818152505081806001019250506132a5565b858585859a509a509a509a50505050505050509193509193565b6000600e60008473ffffffffffffffffffffffffffffffffffffffff1673ffffffffffffffffffffffffffffffffffffffff16815260200190815260200160002090508061341060018380549050614a0090919063ffffffff16565b81548110151561341c57fe5b9060005260206000209060050201818381548110151561343857fe5b9060005260206000209060050201600082015481600001556001820154816001015560028201548160020155600382015481600301556004820154816004015590505061349360018280549050614a0090919063ffffffff16565b818161349f9190614d16565b50505050565b600c5481565b600e602052816000526040600020818154811015156134c657fe5b9060005260206000209060050201600091509150508060000154908060010154908060020154908060030154908060040154905085565b60008061352a62093a8061351c60045442614a0090919063ffffffff16565b614a5190919063ffffffff16565b91506032821115801561353e575060055482115b1561357f5761355a600954600b54614a0090919063ffffffff16565b9050806006600060018503815260200190815260200160002081905550816005819055505b5050565b600360009054906101000a900473ffffffffffffffffffffffffffffffffffffffff1681565b600060045442116135bb5760006135e6565b6135e562093a806135d760045442614a0090919063ffffffff16565b614a5190919063ffffffff16565b5b905090565b60055481565b60008073ffffffffffffffffffffffffffffffffffffffff168373ffffffffffffffffffffffffffffffffffffffff161415151561362e57600080fd5b6000803373ffffffffffffffffffffffffffffffffffffffff1673ffffffffffffffffffffffffffffffffffffffff16815260200190815260200160002054821115151561367b57600080fd5b6136cc826000803373ffffffffffffffffffffffffffffffffffffffff1673ffffffffffffffffffffffffffffffffffffffff16815260200190815260200160002054614a0090919063ffffffff16565b6000803373ffffffffffffffffffffffffffffffffffffffff1673ffffffffffffffffffffffffffffffffffffffff1681526020019081526020016000208190555061375f826000808673ffffffffffffffffffffffffffffffffffffffff1673ffffffffffffffffffffffffffffffffffffffff168152602001908152602001600020546149e490919063ffffffff16565b6000808573ffffffffffffffffffffffffffffffffffffffff1673ffffffffffffffffffffffffffffffffffffffff168152602001908152602001600020819055508273ffffffffffffffffffffffffffffffffffffffff163373ffffffffffffffffffffffffffffffffffffffff167fddf252ad1be2c89b69c2b068fc378daa952ba7f163c4a11628f55a4df523b3ef846040518082815260200191505060405180910390a36001905092915050565b60003373ffffffffffffffffffffffffffffffffffffffff168273ffffffffffffffffffffffffffffffffffffffff161415151561384d57600080fd5b600073ffffffffffffffffffffffffffffffffffffffff168273ffffffffffffffffffffffffffffffffffffffff161415151561388957600080fd5b6138f98b8b8b808060200260200160405190810160405280939291908181526020018383602002808284378201915050505050508a8a8080601f01602080910402602001604051908101604052809392919081815260200183838082843782019150505050505089898989612721565b905061395f613912601483614a5190919063ffffffff16565b6000808573ffffffffffffffffffffffffffffffffffffffff1673ffffffffffffffffffffffffffffffffffffffff168152602001908152602001600020546149e490919063ffffffff16565b6000808473ffffffffffffffffffffffffffffffffffffffff1673ffffffffffffffffffffffffffffffffffffffff168152602001908152602001600020819055506139c96139b8601483614a5190919063ffffffff16565b6001546149e490919063ffffffff16565b6001819055508090509a9950505050505050505050565b6000806000806001600e60008973ffffffffffffffffffffffffffffffffffffffff1673ffffffffffffffffffffffffffffffffffffffff16815260200190815260200160002080549050039250828511151515613a3d57600080fd5b60008610151515613a4d57600080fd5b6000600e60008973ffffffffffffffffffffffffffffffffffffffff1673ffffffffffffffffffffffffffffffffffffffff168152602001908152602001600020805490501415613aa15760009350613b9f565b84861415613b0f57600e60008873ffffffffffffffffffffffffffffffffffffffff1673ffffffffffffffffffffffffffffffffffffffff1681526020019081526020016000206000815481101515613af657fe5b9060005260206000209060050201600001549350613b9f565b8590505b8481111515613b9b57613b8c600e60008973ffffffffffffffffffffffffffffffffffffffff1673ffffffffffffffffffffffffffffffffffffffff16815260200190815260200160002082815481101515613b6b57fe5b906000526020600020906005020160000154836149e490919063ffffffff16565b91508080600101915050613b13565b8193505b5050509392505050565b60008060008060008060009450613be062093a80613bd26004548b614a0090919063ffffffff16565b614a5190919063ffffffff16565b9350613c0c62093a80613bfe6004548a614a0090919063ffffffff16565b614a5190919063ffffffff16565b925060328311613c1c5782613c1f565b60325b91508390505b81811015613c7557613c66613c5760326006600085815260200190815260200160002054614a5190919063ffffffff16565b866149e490919063ffffffff16565b94508080600101915050613c25565b849550505050505092915050565b6000613c928360075484614a67565b905092915050565b6000613ced8260006001600e60008773ffffffffffffffffffffffffffffffffffffffff1673ffffffffffffffffffffffffffffffffffffffff16815260200190815260200160002080549050036139e0565b9050919050565b600080828411151515613d0657600080fd5b600e60008673ffffffffffffffffffffffffffffffffffffffff1673ffffffffffffffffffffffffffffffffffffffff1681526020019081526020016000208054905083101515613d5657600080fd5b8390505b8281111515613df257600e60008673ffffffffffffffffffffffffffffffffffffffff1673ffffffffffffffffffffffffffffffffffffffff1681526020019081526020016000206000815481101515613db057fe5b90600052602060002090600502016002015442101515613ded57613dd5856000612c79565b50613dea6001826149e490919063ffffffff16565b90505b613d5a565b60019150509392505050565b6000613f12600287604051602001808273ffffffffffffffffffffffffffffffffffffffff1673ffffffffffffffffffffffffffffffffffffffff166c010000000000000000000000000281526014019150506040516020818303038152906040526040518082805190602001908083835b602083101515613e955780518252602082019150602081019050602083039250613e70565b6001836020036101000a0380198251168184511680821785525050505050509050019150506020604051808303816000865af1158015613ed9573d6000803e3d6000fd5b5050506040513d6020811015613eee57600080fd5b8101908080519060200190929190505050858585613f0b8a612394565b60006115e7565b905095945050505050565b600080848460405160200180836bffffffffffffffffffffffff19166bffffffffffffffffffffffff19168152601401828152602001925050506040516020818303038152906040526040518082805190602001908083835b602083101515613f9b5780518252602082019150602081019050602083039250613f76565b6001836020036101000a03801982511681845116808217855250505050505090500191505060405180910390209050613fd48184613137565b9150509392505050565b600061406f82600260003373ffffffffffffffffffffffffffffffffffffffff1673ffffffffffffffffffffffffffffffffffffffff16815260200190815260200160002060008673ffffffffffffffffffffffffffffffffffffffff1673ffffffffffffffffffffffffffffffffffffffff168152602001908152602001600020546149e490919063ffffffff16565b600260003373ffffffffffffffffffffffffffffffffffffffff1673ffffffffffffffffffffffffffffffffffffffff16815260200190815260200160002060008573ffffffffffffffffffffffffffffffffffffffff1673ffffffffffffffffffffffffffffffffffffffff168152602001908152602001600020819055508273ffffffffffffffffffffffffffffffffffffffff163373ffffffffffffffffffffffffffffffffffffffff167f8c5be1e5ebec7d5bd14f71427d1e84f3dd0314c0f7b2291e5b200ac8c7c3b925600260003373ffffffffffffffffffffffffffffffffffffffff1673ffffffffffffffffffffffffffffffffffffffff16815260200190815260200160002060008773ffffffffffffffffffffffffffffffffffffffff1673ffffffffffffffffffffffffffffffffffffffff168152602001908152602001600020546040518082815260200191505060405180910390a36001905092915050565b6000600260008473ffffffffffffffffffffffffffffffffffffffff1673ffffffffffffffffffffffffffffffffffffffff16815260200190815260200160002060008373ffffffffffffffffffffffffffffffffffffffff1673ffffffffffffffffffffffffffffffffffffffff16815260200190815260200160002054905092915050565b600080600080614272866000614c0a565b600190049250614283866020614c0a565b600190049150841561445f57600060028381151561429d57fe5b06146142aa5760036142ad565b60025b9050600360028285604051602001808360ff1660ff167f0100000000000000000000000000000000000000000000000000000000000000028152600101828152602001925050506040516020818303038152906040526040518082805190602001908083835b6020831015156143385780518252602082019150602081019050602083039250614313565b6001836020036101000a0380198251168184511680821785525050505050509050019150506020604051808303816000865af115801561437c573d6000803e3d6000fd5b5050506040513d602081101561439157600080fd5b81019080805190602001909291905050506040516020018082600019166000191681526020019150506040516020818303038152906040526040518082805190602001908083835b6020831015156143fe57805182526020820191506020810190506020830392506143d9565b6001836020036101000a0380198251168184511680821785525050505050509050019150506020604051808303816000865af1158015614442573d6000803e3d6000fd5b505050604051516c01000000000000000000000000029350614617565b6004905060036002828585604051602001808460ff1660ff167f010000000000000000000000000000000000000000000000000000000000000002815260010183815260200182815260200193505050506040516020818303038152906040526040518082805190602001908083835b6020831015156144f457805182526020820191506020810190506020830392506144cf565b6001836020036101000a0380198251168184511680821785525050505050509050019150506020604051808303816000865af1158015614538573d6000803e3d6000fd5b5050506040513d602081101561454d57600080fd5b81019080805190602001909291905050506040516020018082600019166000191681526020019150506040516020818303038152906040526040518082805190602001908083835b6020831015156145ba5780518252602082019150602081019050602083039250614595565b6001836020036101000a0380198251168184511680821785525050505050509050019150506020604051808303816000865af11580156145fe573d6000803e3d6000fd5b505050604051516c010000000000000000000000000293505b50505092915050565b600061465e600a614650600b5461464260095487614a1990919063ffffffff16565b614a5190919063ffffffff16565b614a5190919063ffffffff16565b9050919050565b600080600e60008573ffffffffffffffffffffffffffffffffffffffff1673ffffffffffffffffffffffffffffffffffffffff168152602001908152602001600020838154811015156146b457fe5b9060005260206000209060050201600001549050600e60008573ffffffffffffffffffffffffffffffffffffffff1673ffffffffffffffffffffffffffffffffffffffff1681526020019081526020016000208381548110151561471457fe5b9060005260206000209060050201600201544211156147505761474961473a8585612b6c565b826149e490919063ffffffff16565b9150614754565b8091505b5092915050565b60095481565b600080600080600080600a9450848881151561477957fe5b06935061478f8589614a5190919063ffffffff16565b92506147a96402540be4008a614a5190919063ffffffff16565b9150600090505b82811015614800576147e3856127100a6147d5878a0a85614a1990919063ffffffff16565b614a5190919063ffffffff16565b91506147f96001826149e490919063ffffffff16565b90506147b0565b60008414151561483857614835846127100a614827868a0a85614a1990919063ffffffff16565b614a5190919063ffffffff16565b91505b6148506402540be40083614a1990919063ffffffff16565b955050505050509392505050565b600080600080600080600080600080600e60008d73ffffffffffffffffffffffffffffffffffffffff1673ffffffffffffffffffffffffffffffffffffffff1681526020019081526020016000208b8154811015156148b957fe5b906000526020600020906005020198506148de60646001614a1990919063ffffffff16565b975060019650606495506000896003015414151561496257614924896004015461491660648c60030154614a1990919063ffffffff16565b614a5190919063ffffffff16565b945060008511614935576001614937565b845b965061494c8789614a5190919063ffffffff16565b93506000841161495d57600161495f565b835b95505b614977612710876149e490919063ffffffff16565b92506149a9620d2f0061499b8b600101548c60020154614a0090919063ffffffff16565b614a5190919063ffffffff16565b91506149ba89600001548385614761565b90506149d3896000015482614a0090919063ffffffff16565b995050505050505050505092915050565b600081830190508281101515156149f757fe5b80905092915050565b6000828211151515614a0e57fe5b818303905092915050565b600080831415614a2c5760009050614a4b565b8183029050818382811515614a3d57fe5b04141515614a4757fe5b8090505b92915050565b60008183811515614a5e57fe5b04905092915050565b600080600080849250600091505b8651821015614bf3578682815181101515614a8c57fe5b906020019060200201519050806000191683600019161015614b495782816040516020018083600019166000191681526020018260001916600019168152602001925050506040516020818303038152906040526040518082805190602001908083835b602083101515614b155780518252602082019150602081019050602083039250614af0565b6001836020036101000a03801982511681845116808217855250505050505090500191505060405180910390209250614be6565b80836040516020018083600019166000191681526020018260001916600019168152602001925050506040516020818303038152906040526040518082805190602001908083835b602083101515614bb65780518252602082019150602081019050602083039250614b91565b6001836020036101000a038019825116818451168082178552505050505050905001915050604051809103902092505b8180600101925050614a75565b856000191683600019161493505050509392505050565b600080600090505b6020811015614cdc576008810284848301815181101515614c2f57fe5b9060200101517f010000000000000000000000000000000000000000000000000000000000000090047f0100000000000000000000000000000000000000000000000000000000000000027effffffffffffffffffffffffffffffffffffffffffffffffffffffffffffff19167fff0000000000000000000000000000000000000000000000000000000000000060010216600019169060020a9004821891508080600101915050614c12565b8191505092915050565b60a06040519081016040528060008152602001600081526020016000815260200160008152602001600081525090565b815481835581811115614d4357600502816005028360005260206000209182019101614d429190614d48565b5b505050565b614d8c91905b80821115614d8857600080820160009055600182016000905560028201600090556003820160009055600482016000905550600501614d4e565b5090565b905600a165627a7a7230582068b6fba15d7ff0ba93f37207a9260286de4b8a656ced57fab90167e66e102ed80029",
  "source": "pragma solidity ^0.4.23;\nimport \"./UTXORedeemableToken.sol\";\n\n\ncontract StakeableToken is UTXORedeemableToken {\n\n  event Mint(address indexed _address, uint _reward);\n\n  uint256 public totalBtcCirculationAtFork;\n  uint256 public totalStakedCoins;\n  uint256 public constant interestRatePercent = 1;\n  uint256 public constant maxStakingTimeInSeconds = 365 days * 10;\n  uint256 public constant oneInterestPeriodInSeconds = 10 days;\n\n  struct StakeStruct {\n    uint256 stakeAmount;\n    uint256 stakeTime;\n    uint256 unlockTime;\n    uint256 totalStakedCoinsAtStart;\n    uint256 totalSupplyAtStart;\n  }\n\n  mapping(address => StakeStruct[]) public staked;\n\n  /************************\n  *start utility functions*\n  ************************/\n\n  function getUserStakes(address _staker)\n    public\n    view\n    returns (uint256[], uint256[], uint256[], uint256[])\n  {\n    uint256 _stakesLength = staked[_staker].length;\n    uint256[] memory _stakeAmount = new uint256[](_stakesLength);\n    uint256[] memory _stakeTime = new uint256[](_stakesLength);\n    uint256[] memory _unlockTime = new uint256[](_stakesLength);\n    uint256[] memory _totalStakedCoinsAtStart = new uint256[](_stakesLength);\n\n    for (uint256 _i = 0; _i < _stakesLength; _i++) {\n      StakeStruct storage stake = staked[_staker][_i];\n      _stakeAmount[_i] = stake.stakeAmount;\n      _stakeTime[_i] = stake.stakeTime;\n      _unlockTime[_i] = stake.unlockTime;\n      _totalStakedCoinsAtStart[_i] = stake.totalStakedCoinsAtStart;\n    }\n\n    return (_stakeAmount, _stakeTime, _unlockTime, _totalStakedCoinsAtStart);\n  }\n\n  function getWeeksSinceLaunch()\n    public\n    view\n    returns (uint256)\n  {\n    return block.timestamp > launchTime \n      ? block.timestamp.sub(launchTime).div(7 days) \n      : 0;\n  }\n\n  function isDuringBonusPeriod()\n    public\n    view\n    returns (bool)\n  {\n    return getWeeksSinceLaunch() <= 50;\n  }\n\n  /** \n    @dev Moves last item in array to location of item to be removed,\n    overwriting array item. Shortens array length by 1, removing now\n    duplicate item at end of array.\n    @param _staker staker address for accessing array\n    @param _stakeIndex index of the item to delete\n  */\n  function removeArrayEntry(\n    address _staker,\n    uint256 _stakeIndex\n  )\n    public\n  {\n    StakeStruct[] storage _stakedArray = staked[_staker];\n    // set last item to index of item we want to get rid of\n    _stakedArray[_stakeIndex] = _stakedArray[_stakedArray.length.sub(1)];\n    // remove last item in array now that safely copied to index of deleted item\n    _stakedArray.length = _stakedArray.length.sub(1);\n  }\n\n  // TODO: HEAVILY test this in order to ensure that there are no integer overflows\n  /**\n    @dev compound groups up compounding periods by 30 in order to avoid  \n    uint overflows when taking (100 + rate) ** periods. Accuracy is also brought by\n    10 decimals in order to avoid uint overflows when \n    taking compounded * ((100  + rate) ** periods).\n\n    @param _principle base amount being compounded\n    @param _periods amount of periods to compound principle\n    @param _rate rate given as uint percent \n  */\n  function compound(\n    uint256 _principle,\n    uint256 _periods,\n    uint256 _rate\n  )\n    public\n    pure\n    returns (uint256)\n  {\n    uint256 _maxGroupPeriods = 10;\n    uint256 _remainingPeriods = _periods % _maxGroupPeriods;\n    uint256 _groupings = _periods.div(_maxGroupPeriods);\n    uint256 _compounded = _principle.div(1e10);\n\n    for(uint256 _i = 0; _i < _groupings; _i = _i.add(1)) {\n      _compounded = _compounded\n        .mul(_rate ** _maxGroupPeriods)\n        .div(1e4 ** _maxGroupPeriods);\n    }\n\n    if (_remainingPeriods != 0) {\n      _compounded = _compounded\n        .mul(_rate ** _remainingPeriods)\n        .div(1e4 ** _remainingPeriods);\n    }\n\n    return _compounded.mul(1e10);\n  }\n\n  function calculateStakingRewards(\n    address _staker,\n    uint256 _stakeIndex\n  ) \n    public \n    view\n    returns (uint256)\n  {\n    StakeStruct storage _stake = staked[_staker][_stakeIndex];\n\n    // raise by 100 in order to adjust with scaler\n    uint256 _interestRateTimesHundred = interestRatePercent.mul(100);\n\n    // default _scaler to 1\n    uint256 _scaler = 1;\n    // default _scaledInterestRate to 100\n    uint256 _scaledInterestRate = 100;\n    // calculate percent of staked coins vs totalSupply to use for interest rate reduction\n    if (_stake.totalStakedCoinsAtStart != 0) {\n      uint256 _scalerCandidate = _stake.totalStakedCoinsAtStart\n        .mul(100)\n        .div(_stake.totalSupplyAtStart);\n      \n      _scaler = _scalerCandidate > 0 ? _scalerCandidate : 1;\n\n      // reduce interest rate by scaler\n      uint256 _scaledInterestRateCandidate = _interestRateTimesHundred.div(_scaler);\n\n      _scaledInterestRate = _scaledInterestRateCandidate > 0 \n        ? _scaledInterestRateCandidate \n        : 1;\n    }\n\n    // bring up by 1e4 in order to get an accurate percent\n    uint256 _interestRate = _scaledInterestRate.add(1e4);\n    // Calculate Periods\n    uint256 _periods = _stake.unlockTime\n      .sub(_stake.stakeTime)\n      .div(oneInterestPeriodInSeconds);\n    // Compound\n    uint256 _compounded = compound(\n      _stake.stakeAmount, \n      _periods, \n      _interestRate\n    );\n\n    // Calculate final staking rewards with time bonus\n    return _compounded.sub(_stake.stakeAmount);\n  }\n\n  function calculateWeAreAllSatoshiRewards(\n    uint256 _stakeTime,\n    uint256 _unlockTime\n  ) \n    public \n    view \n    returns (uint256)\n  {\n    uint256 _rewards = 0;\n    /* Calculate what week stake was opened */\n    uint256 _startWeek = _stakeTime\n      .sub(launchTime)\n      .div(7 days);\n\n    uint256 _endWeek = _unlockTime\n      .sub(launchTime)\n      .div(7 days);\n\n    uint256 _rewardableEndWeek = _endWeek > 50 ? 50 : _endWeek;\n\n    // Award 2% of unclaimed coins at end of every week\n    for (uint256 _i = _startWeek; _i < _rewardableEndWeek; _i++) {\n      _rewards = _rewards.add(unclaimedCoinsByWeek[_i].div(50));\n    }\n    return _rewards;\n  }\n\n  // TODO: double check that we want to make this public... if so... is it ok that\n  // it shows non zero amounts for users outside of bonus period?\n  function calculateViralRewards(\n    uint256 _stakeAmount\n  ) \n    public \n    view \n    returns (uint256)\n  {\n    // Add bonus percentage to _rewards from 0-10% based on adoption\n    return _stakeAmount\n      .mul(redeemedCount)\n      .div(totalBtcCirculationAtFork)\n      .div(10);\n  }\n\n  function calculateCritMassRewards(\n    uint256 _stakeAmount\n  ) \n    public \n    view \n    returns (uint256)\n  {\n    // Add bonus percentage to _rewards from 0-10% based on adoption\n    return _stakeAmount\n      .mul(totalRedeemed)\n      .div(maximumRedeemable)\n      .div(10);\n  }\n\n  /**\n    @dev Additional rewards should only be given within first 50 weeks.\n   */\n  function calculateAdditionalRewards(\n    address _staker,\n    uint256 _stakeIndex\n  ) \n    public \n    view \n    returns (uint256)\n  {\n    StakeStruct storage _stake = staked[_staker][_stakeIndex];\n    // only give rewards if within first 50 weeks\n    if (_stake.stakeTime.sub(launchTime).div(7 days) <= 50) {\n      uint256 _weAreAllSatoshiRewards = calculateWeAreAllSatoshiRewards(\n        _stake.stakeTime,\n        _stake.unlockTime\n      );\n      uint256 _viralRewards = calculateViralRewards(_stake.stakeAmount);\n      uint256 _critMassRewards = calculateCritMassRewards(_stake.stakeAmount);\n      uint256 _rewards = _weAreAllSatoshiRewards\n        .add(_viralRewards)\n        .add(_critMassRewards);\n\n      return _rewards;\n    } else {\n      return 0;\n    }\n\n    return 0;\n  }\n\n  /**\n    @notice available for use directly when there are too many stakes to do in a single operation\n  */\n  function getStakedAtIndexes(\n    address _staker,\n    uint256 _startIndex,\n    uint256 _endIndex\n  )\n    public\n    view\n    returns (uint256)\n  {\n    uint256 _maxIndex = staked[_staker].length - 1;\n    require(_endIndex <= _maxIndex);\n    require(_startIndex >= 0);\n    uint256 _totalStaked;\n    // ensure that there are stakes to be retreived\n    if (staked[_staker].length == 0) {\n      return 0;\n    }\n\n    // return single stake if indexes are the same\n    if( _startIndex == _endIndex) {\n      return staked[_staker][0].stakeAmount;\n    }\n\n    for (uint256 _i = _startIndex; _i <= _endIndex; _i++) {\n      _totalStaked = _totalStaked.add(staked[_staker][_i].stakeAmount);\n    }\n\n    return _totalStaked;\n  }\n\n  /**\n    @notice This function might fail if there are too many stakes for a user. Use getStakedAtIndexes if this is the case.\n  */\n  function getTotalUserStaked(\n    address _staker\n  )\n    public\n    view\n    returns (uint256)\n  {\n    return getStakedAtIndexes(_staker, 0, staked[_staker].length - 1);\n  }\n\n  function calculateSingleStakePlusRewards(\n    address _staker,\n    uint256 _stakeIndex\n  )\n    public\n    view\n    returns (uint256)\n  {\n    uint256 _stake = staked[_staker][_stakeIndex].stakeAmount;\n    \n    if (block.timestamp > staked[_staker][_stakeIndex].unlockTime) {\n      return _stake.add(\n          calculateAdditionalRewards(\n            _staker,\n            _stakeIndex\n          )\n      );\n    } else {\n      return _stake;\n    }\n  }\n\n  /**********************\n  *end utility functions*\n  **********************/\n\n  /*********************\n  *start user functions*\n  *********************/\n\n  /** \n    @notice start a stake in order to claim rewards at later unlock time.\n    Additional rewards only payable within first 50 weeks.\n    @param _value amount of tokens to lock\n    @param _unlockTime unix timestamp date for when to unlock tokens\n  */\n  function startStake(\n    uint256 _value, \n    uint256 _unlockTime\n  ) \n    external\n    returns (bool)\n  {\n    address _staker = msg.sender;\n\n    // Make sure staker has enough funds\n    require(balances[_staker] >= _value);\n    // ensure that unlock time is not more than approx 10 years\n    require(_unlockTime <= block.timestamp.add(maxStakingTimeInSeconds));\n    // Check if weekly data needs to be updated\n    storeSatoshiWeekData();\n\n    // Remove balance from sender\n    balances[_staker] = balances[_staker].sub(_value);\n    balances[address(this)] = balances[address(this)].add(_value);\n\n    // Create Stake\n    staked[_staker].push(\n      StakeStruct(\n        _value, \n        block.timestamp, \n        _unlockTime, \n        totalStakedCoins,\n        totalSupply_\n      )\n    );\n\n    // ensure that the new stake will return interest\n    require(calculateStakingRewards(_staker, staked[_staker].length.sub(1)) > 0);\n\n    // Add staked coins to global stake counter\n    totalStakedCoins = totalStakedCoins.add(_value);\n\n    return true;\n  }\n  \n  /**\n    @notice Used for claiming a single stake. Another user can claim a stake on another \n    user's behalf. All rewards and original stake go to original staker.\n    Useful for if _staker does not have any gas and someone else is claiming for them.\n    @param _staker user address for who is making the claim\n    @param _stakeIndex location of the stake to claim\n  */\n  function claimSingleStakingReward(\n    address _staker,\n    uint256 _stakeIndex\n  )\n    public\n    returns (bool)\n  {\n    StakeStruct memory _stake = staked[_staker][_stakeIndex]; \n    require(block.timestamp >= _stake.unlockTime);\n    // Check if weekly data needs to be updated\n    storeSatoshiWeekData();\n\n    uint256 _startingStake = _stake.stakeAmount;\n    // Calculate Rewards\n    uint256 _stakingRewards = calculateStakingRewards(\n      _staker, \n      _stakeIndex\n    );\n    uint256 _additionalRewards = calculateAdditionalRewards(\n      _staker,\n      _stakeIndex\n    );\n    uint256 _rewards = _startingStake\n      .add(_stakingRewards)\n      .add(_additionalRewards);\n    \n    // Remove StakedCoins from global counter\n    totalStakedCoins = totalStakedCoins\n      .sub(_startingStake);\n\n    // Sub staked coins from contract\n    balances[address(this)] = balances[address(this)]\n      .sub(_startingStake);\n    \n    // Add staked coins to staker\n    balances[_staker] = balances[_staker]\n      .add(_rewards);\n\n    // Award rewards to origin contract\n    balances[origin] = balances[origin]\n      .add(_additionalRewards);\n\n    emit Transfer(\n      address(this), \n      _staker, \n      _stake.stakeAmount\n    );\n\n    // Increase supply\n    totalSupply_ = totalSupply_.add(_stakingRewards);\n    totalSupply_ = totalSupply_.add(_additionalRewards.mul(2));\n\n    emit Mint(_staker, _additionalRewards.add(_stakingRewards));\n    emit Mint(origin, _additionalRewards);\n\n    // Remove Stake\n    removeArrayEntry(_staker, _stakeIndex);\n\n    return true;\n  }\n\n  // TODO: make this private\n  /**\n    @notice Used for claiming multiple stakes. Another user can \n    claim a stake on another user's behalf. All rewards and original stake go to original staker.\n    Useful for if _staker does not have any gas and someone else is claiming for them.\n    @param _staker user address for who is making the claim\n    @param _startIndex claim stakes from this location\n    @param _endIndex claim stakes up to this location\n  */\n  function claimMultipleStakingRewards( // this is no longer truthful when using removeArrayEntry... hm....\n    address _staker,\n    uint256 _startIndex,\n    uint256 _endIndex\n  ) \n    public \n    returns (bool)\n  {\n    // ensure that indexes are in array bounds\n    require(_startIndex <= _endIndex);\n    require(_endIndex < staked[_staker].length);\n\n    uint256 _i = _startIndex;\n    while (_i <= _endIndex) {\n      // Check if stake has matured\n      // all stakes can be claimed using 0 index due to arrays reorganizing every time one is removed\n      if (block.timestamp >= staked[_staker][0].unlockTime) {\n        claimSingleStakingReward(_staker, 0);\n        _i = _i.add(1);\n      }\n    }\n\n    return true;\n  }\n\n  function claimAllStakingRewards(\n    address _staker\n  )\n    external\n    returns (bool)\n  {\n    uint256 _stakeArrayLength = staked[_staker].length;\n    uint256 _processedCount = 0;\n    uint256 _cursor = 0;\n    if (_stakeArrayLength == 0) {\n      return false;\n    }\n\n    while (_processedCount < _stakeArrayLength) {\n      _cursor = _cursor.add(1) > staked[_staker].length\n        ? 0\n        : _cursor;\n\n      if (block.timestamp >= staked[_staker][_cursor].unlockTime) {\n        claimSingleStakingReward(_staker, _cursor);\n      }\n\n      _processedCount = _processedCount.add(1);\n      _cursor = _cursor.add(1);\n    }\n\n    return true;\n  }\n\n  /********************\n  *start end functions*\n  ********************/\n}\n",
  "sourcePath": "/Users/tovarishfin/dev/bhx/bhx-contracts/contracts/StakeableToken.sol",
  "compiler": {
    "name": "solc",
    "version": "0.4.24+commit.e67f0147.Emscripten.clang"
  },
  "schemaVersion": "2.0.1",
  "updatedAt": "2018-08-13T11:23:40.091Z"
}