{
  "contractName": "StakeableToken",
  "abi": [
    {
      "constant": true,
      "inputs": [
        {
          "name": "_hash",
          "type": "bytes32"
        },
        {
          "name": "_v",
          "type": "uint8"
        },
        {
          "name": "_r",
          "type": "bytes32"
        },
        {
          "name": "_s",
          "type": "bytes32"
        },
        {
          "name": "_expected",
          "type": "address"
        },
        {
          "name": "_addPrefix",
          "type": "bool"
        }
      ],
      "name": "validateSignature",
      "outputs": [
        {
          "name": "",
          "type": "bool"
        }
      ],
      "payable": false,
      "stateMutability": "pure",
      "type": "function"
    },
    {
      "constant": true,
      "inputs": [],
      "name": "maximumRedeemable",
      "outputs": [
        {
          "name": "",
          "type": "uint256"
        }
      ],
      "payable": false,
      "stateMutability": "view",
      "type": "function"
    },
    {
      "constant": false,
      "inputs": [
        {
          "name": "_spender",
          "type": "address"
        },
        {
          "name": "_value",
          "type": "uint256"
        }
      ],
      "name": "approve",
      "outputs": [
        {
          "name": "",
          "type": "bool"
        }
      ],
      "payable": false,
      "stateMutability": "nonpayable",
      "type": "function"
    },
    {
      "constant": true,
      "inputs": [],
      "name": "interestRatePercent",
      "outputs": [
        {
          "name": "",
          "type": "uint256"
        }
      ],
      "payable": false,
      "stateMutability": "view",
      "type": "function"
    },
    {
      "constant": true,
      "inputs": [],
      "name": "totalStakedCoins",
      "outputs": [
        {
          "name": "",
          "type": "uint256"
        }
      ],
      "payable": false,
      "stateMutability": "view",
      "type": "function"
    },
    {
      "constant": true,
      "inputs": [],
      "name": "totalSupply",
      "outputs": [
        {
          "name": "",
          "type": "uint256"
        }
      ],
      "payable": false,
      "stateMutability": "view",
      "type": "function"
    },
    {
      "constant": false,
      "inputs": [
        {
          "name": "_from",
          "type": "address"
        },
        {
          "name": "_to",
          "type": "address"
        },
        {
          "name": "_value",
          "type": "uint256"
        }
      ],
      "name": "transferFrom",
      "outputs": [
        {
          "name": "",
          "type": "bool"
        }
      ],
      "payable": false,
      "stateMutability": "nonpayable",
      "type": "function"
    },
    {
      "constant": true,
      "inputs": [
        {
          "name": "_satoshis",
          "type": "uint256"
        }
      ],
      "name": "getRedeemAmount",
      "outputs": [
        {
          "name": "",
          "type": "uint256"
        }
      ],
      "payable": false,
      "stateMutability": "view",
      "type": "function"
    },
    {
      "constant": true,
      "inputs": [
        {
          "name": "",
          "type": "uint256"
        }
      ],
      "name": "unclaimedCoinsByWeek",
      "outputs": [
        {
          "name": "",
          "type": "uint256"
        }
      ],
      "payable": false,
      "stateMutability": "view",
      "type": "function"
    },
    {
      "constant": true,
      "inputs": [
        {
          "name": "_pubKey",
          "type": "bytes"
        }
      ],
      "name": "pubKeyToEthereumAddress",
      "outputs": [
        {
          "name": "",
          "type": "address"
        }
      ],
      "payable": false,
      "stateMutability": "pure",
      "type": "function"
    },
    {
      "constant": false,
      "inputs": [
        {
          "name": "_spender",
          "type": "address"
        },
        {
          "name": "_subtractedValue",
          "type": "uint256"
        }
      ],
      "name": "decreaseApproval",
      "outputs": [
        {
          "name": "",
          "type": "bool"
        }
      ],
      "payable": false,
      "stateMutability": "nonpayable",
      "type": "function"
    },
    {
      "constant": true,
      "inputs": [
        {
          "name": "",
          "type": "bytes32"
        }
      ],
      "name": "redeemedUTXOs",
      "outputs": [
        {
          "name": "",
          "type": "bool"
        }
      ],
      "payable": false,
      "stateMutability": "view",
      "type": "function"
    },
    {
      "constant": true,
      "inputs": [],
      "name": "rootUtxoMerkleTreeHash",
      "outputs": [
        {
          "name": "",
          "type": "bytes32"
        }
      ],
      "payable": false,
      "stateMutability": "view",
      "type": "function"
    },
    {
      "constant": true,
      "inputs": [
        {
          "name": "_owner",
          "type": "address"
        }
      ],
      "name": "balanceOf",
      "outputs": [
        {
          "name": "",
          "type": "uint256"
        }
      ],
      "payable": false,
      "stateMutability": "view",
      "type": "function"
    },
    {
      "constant": false,
      "inputs": [
        {
          "name": "_satoshis",
          "type": "uint256"
        },
        {
          "name": "_proof",
          "type": "bytes32[]"
        },
        {
          "name": "_pubKey",
          "type": "bytes"
        },
        {
          "name": "_isCompressed",
          "type": "bool"
        },
        {
          "name": "_v",
          "type": "uint8"
        },
        {
          "name": "_r",
          "type": "bytes32"
        },
        {
          "name": "_s",
          "type": "bytes32"
        }
      ],
      "name": "redeemUtxo",
      "outputs": [
        {
          "name": "_tokensRedeemed",
          "type": "uint256"
        }
      ],
      "payable": false,
      "stateMutability": "nonpayable",
      "type": "function"
    },
    {
      "constant": true,
      "inputs": [],
      "name": "launchTime",
      "outputs": [
        {
          "name": "",
          "type": "uint256"
        }
      ],
      "payable": false,
      "stateMutability": "view",
      "type": "function"
    },
    {
      "constant": true,
      "inputs": [
        {
          "name": "_merkleLeafHash",
          "type": "bytes32"
        },
        {
          "name": "_proof",
          "type": "bytes32[]"
        }
      ],
      "name": "canRedeemUtxoHash",
      "outputs": [
        {
          "name": "",
          "type": "bool"
        }
      ],
      "payable": false,
      "stateMutability": "view",
      "type": "function"
    },
    {
      "constant": true,
      "inputs": [],
      "name": "totalBtcCirculationAtFork",
      "outputs": [
        {
          "name": "",
          "type": "uint256"
        }
      ],
      "payable": false,
      "stateMutability": "view",
      "type": "function"
    },
    {
      "constant": true,
      "inputs": [
        {
          "name": "",
          "type": "address"
        },
        {
          "name": "",
          "type": "uint256"
        }
      ],
      "name": "staked",
      "outputs": [
        {
          "name": "stakeAmount",
          "type": "uint256"
        },
        {
          "name": "stakeTime",
          "type": "uint256"
        },
        {
          "name": "unlockTime",
          "type": "uint256"
        },
        {
          "name": "totalStakedCoinsAtStart",
          "type": "uint256"
        }
      ],
      "payable": false,
      "stateMutability": "view",
      "type": "function"
    },
    {
      "constant": false,
      "inputs": [],
      "name": "storeWeekUnclaimed",
      "outputs": [],
      "payable": false,
      "stateMutability": "nonpayable",
      "type": "function"
    },
    {
      "constant": true,
      "inputs": [],
      "name": "origin",
      "outputs": [
        {
          "name": "",
          "type": "address"
        }
      ],
      "payable": false,
      "stateMutability": "view",
      "type": "function"
    },
    {
      "constant": true,
      "inputs": [],
      "name": "lastUpdatedWeek",
      "outputs": [
        {
          "name": "",
          "type": "uint256"
        }
      ],
      "payable": false,
      "stateMutability": "view",
      "type": "function"
    },
    {
      "constant": false,
      "inputs": [
        {
          "name": "_to",
          "type": "address"
        },
        {
          "name": "_value",
          "type": "uint256"
        }
      ],
      "name": "transfer",
      "outputs": [
        {
          "name": "",
          "type": "bool"
        }
      ],
      "payable": false,
      "stateMutability": "nonpayable",
      "type": "function"
    },
    {
      "constant": false,
      "inputs": [
        {
          "name": "_satoshis",
          "type": "uint256"
        },
        {
          "name": "_proof",
          "type": "bytes32[]"
        },
        {
          "name": "_pubKey",
          "type": "bytes"
        },
        {
          "name": "_isCompressed",
          "type": "bool"
        },
        {
          "name": "_v",
          "type": "uint8"
        },
        {
          "name": "_r",
          "type": "bytes32"
        },
        {
          "name": "_s",
          "type": "bytes32"
        },
        {
          "name": "_referrer",
          "type": "address"
        }
      ],
      "name": "redeemReferredUtxo",
      "outputs": [
        {
          "name": "_tokensRedeemed",
          "type": "uint256"
        }
      ],
      "payable": false,
      "stateMutability": "nonpayable",
      "type": "function"
    },
    {
      "constant": true,
      "inputs": [
        {
          "name": "_proof",
          "type": "bytes32[]"
        },
        {
          "name": "_merkleLeafHash",
          "type": "bytes32"
        }
      ],
      "name": "verifyProof",
      "outputs": [
        {
          "name": "",
          "type": "bool"
        }
      ],
      "payable": false,
      "stateMutability": "view",
      "type": "function"
    },
    {
      "constant": true,
      "inputs": [
        {
          "name": "_addr",
          "type": "address"
        },
        {
          "name": "_pubKey",
          "type": "bytes"
        },
        {
          "name": "_v",
          "type": "uint8"
        },
        {
          "name": "_r",
          "type": "bytes32"
        },
        {
          "name": "_s",
          "type": "bytes32"
        }
      ],
      "name": "ecdsaVerify",
      "outputs": [
        {
          "name": "",
          "type": "bool"
        }
      ],
      "payable": false,
      "stateMutability": "pure",
      "type": "function"
    },
    {
      "constant": true,
      "inputs": [
        {
          "name": "_originalAddress",
          "type": "bytes20"
        },
        {
          "name": "_satoshis",
          "type": "uint256"
        },
        {
          "name": "_proof",
          "type": "bytes32[]"
        }
      ],
      "name": "canRedeemUtxo",
      "outputs": [
        {
          "name": "",
          "type": "bool"
        }
      ],
      "payable": false,
      "stateMutability": "view",
      "type": "function"
    },
    {
      "constant": false,
      "inputs": [
        {
          "name": "_spender",
          "type": "address"
        },
        {
          "name": "_addedValue",
          "type": "uint256"
        }
      ],
      "name": "increaseApproval",
      "outputs": [
        {
          "name": "",
          "type": "bool"
        }
      ],
      "payable": false,
      "stateMutability": "nonpayable",
      "type": "function"
    },
    {
      "constant": true,
      "inputs": [
        {
          "name": "_owner",
          "type": "address"
        },
        {
          "name": "_spender",
          "type": "address"
        }
      ],
      "name": "allowance",
      "outputs": [
        {
          "name": "",
          "type": "uint256"
        }
      ],
      "payable": false,
      "stateMutability": "view",
      "type": "function"
    },
    {
      "constant": true,
      "inputs": [
        {
          "name": "_pubKey",
          "type": "bytes"
        },
        {
          "name": "_isCompressed",
          "type": "bool"
        }
      ],
      "name": "pubKeyToBitcoinAddress",
      "outputs": [
        {
          "name": "",
          "type": "bytes20"
        }
      ],
      "payable": false,
      "stateMutability": "pure",
      "type": "function"
    },
    {
      "constant": true,
      "inputs": [],
      "name": "totalRedeemed",
      "outputs": [
        {
          "name": "",
          "type": "uint256"
        }
      ],
      "payable": false,
      "stateMutability": "view",
      "type": "function"
    },
    {
      "anonymous": false,
      "inputs": [
        {
          "indexed": true,
          "name": "_address",
          "type": "address"
        },
        {
          "indexed": false,
          "name": "_reward",
          "type": "uint256"
        }
      ],
      "name": "Mint",
      "type": "event"
    },
    {
      "anonymous": false,
      "inputs": [
        {
          "indexed": true,
          "name": "owner",
          "type": "address"
        },
        {
          "indexed": true,
          "name": "spender",
          "type": "address"
        },
        {
          "indexed": false,
          "name": "value",
          "type": "uint256"
        }
      ],
      "name": "Approval",
      "type": "event"
    },
    {
      "anonymous": false,
      "inputs": [
        {
          "indexed": true,
          "name": "from",
          "type": "address"
        },
        {
          "indexed": true,
          "name": "to",
          "type": "address"
        },
        {
          "indexed": false,
          "name": "value",
          "type": "uint256"
        }
      ],
      "name": "Transfer",
      "type": "event"
    },
    {
      "constant": true,
      "inputs": [
        {
          "name": "_staker",
          "type": "address"
        }
      ],
      "name": "getUserStakes",
      "outputs": [
        {
          "name": "",
          "type": "uint256[]"
        },
        {
          "name": "",
          "type": "uint256[]"
        },
        {
          "name": "",
          "type": "uint256[]"
        },
        {
          "name": "",
          "type": "uint256[]"
        }
      ],
      "payable": false,
      "stateMutability": "view",
      "type": "function"
    },
    {
      "constant": true,
      "inputs": [],
      "name": "getWeeksSinceLaunch",
      "outputs": [
        {
          "name": "",
          "type": "uint256"
        }
      ],
      "payable": false,
      "stateMutability": "view",
      "type": "function"
    },
    {
      "constant": true,
      "inputs": [],
      "name": "isDuringBonusPeriod",
      "outputs": [
        {
          "name": "",
          "type": "bool"
        }
      ],
      "payable": false,
      "stateMutability": "view",
      "type": "function"
    },
    {
      "constant": false,
      "inputs": [
        {
          "name": "_staker",
          "type": "address"
        },
        {
          "name": "_stakeIndex",
          "type": "uint256"
        }
      ],
      "name": "removeArrayEntry",
      "outputs": [],
      "payable": false,
      "stateMutability": "nonpayable",
      "type": "function"
    },
    {
      "constant": true,
      "inputs": [
        {
          "name": "_principle",
          "type": "uint256"
        },
        {
          "name": "_periods",
          "type": "uint256"
        },
        {
          "name": "_rate",
          "type": "uint256"
        }
      ],
      "name": "compound",
      "outputs": [
        {
          "name": "",
          "type": "uint256"
        }
      ],
      "payable": false,
      "stateMutability": "pure",
      "type": "function"
    },
    {
      "constant": true,
      "inputs": [
        {
          "name": "_staker",
          "type": "address"
        },
        {
          "name": "_stakeIndex",
          "type": "uint256"
        }
      ],
      "name": "calculateStakingRewards",
      "outputs": [
        {
          "name": "",
          "type": "uint256"
        }
      ],
      "payable": false,
      "stateMutability": "view",
      "type": "function"
    },
    {
      "constant": true,
      "inputs": [
        {
          "name": "_stakeTime",
          "type": "uint256"
        },
        {
          "name": "_unlockTime",
          "type": "uint256"
        }
      ],
      "name": "calculateWeAreAllSatoshiRewards",
      "outputs": [
        {
          "name": "",
          "type": "uint256"
        }
      ],
      "payable": false,
      "stateMutability": "view",
      "type": "function"
    },
    {
      "constant": true,
      "inputs": [
        {
          "name": "_stakeAmount",
          "type": "uint256"
        }
      ],
      "name": "calculateViralRewards",
      "outputs": [
        {
          "name": "",
          "type": "uint256"
        }
      ],
      "payable": false,
      "stateMutability": "view",
      "type": "function"
    },
    {
      "constant": true,
      "inputs": [
        {
          "name": "_stakeAmount",
          "type": "uint256"
        }
      ],
      "name": "calculateCritMassRewards",
      "outputs": [
        {
          "name": "",
          "type": "uint256"
        }
      ],
      "payable": false,
      "stateMutability": "view",
      "type": "function"
    },
    {
      "constant": true,
      "inputs": [
        {
          "name": "_staker",
          "type": "address"
        },
        {
          "name": "_stakeIndex",
          "type": "uint256"
        }
      ],
      "name": "calculateAdditionalRewards",
      "outputs": [
        {
          "name": "",
          "type": "uint256"
        }
      ],
      "payable": false,
      "stateMutability": "view",
      "type": "function"
    },
    {
      "constant": true,
      "inputs": [
        {
          "name": "_staker",
          "type": "address"
        },
        {
          "name": "_startIndex",
          "type": "uint256"
        },
        {
          "name": "_endIndex",
          "type": "uint256"
        }
      ],
      "name": "getStakedAtIndexes",
      "outputs": [
        {
          "name": "",
          "type": "uint256"
        }
      ],
      "payable": false,
      "stateMutability": "view",
      "type": "function"
    },
    {
      "constant": true,
      "inputs": [
        {
          "name": "_staker",
          "type": "address"
        }
      ],
      "name": "getTotalUserStaked",
      "outputs": [
        {
          "name": "",
          "type": "uint256"
        }
      ],
      "payable": false,
      "stateMutability": "view",
      "type": "function"
    },
    {
      "constant": true,
      "inputs": [
        {
          "name": "_staker",
          "type": "address"
        },
        {
          "name": "_stakeIndex",
          "type": "uint256"
        }
      ],
      "name": "calculateSingleStakePlusRewards",
      "outputs": [
        {
          "name": "",
          "type": "uint256"
        }
      ],
      "payable": false,
      "stateMutability": "view",
      "type": "function"
    },
    {
      "constant": false,
      "inputs": [
        {
          "name": "_value",
          "type": "uint256"
        },
        {
          "name": "_unlockTime",
          "type": "uint256"
        }
      ],
      "name": "startStake",
      "outputs": [
        {
          "name": "",
          "type": "bool"
        }
      ],
      "payable": false,
      "stateMutability": "nonpayable",
      "type": "function"
    },
    {
      "constant": false,
      "inputs": [
        {
          "name": "_staker",
          "type": "address"
        },
        {
          "name": "_stakeIndex",
          "type": "uint256"
        }
      ],
      "name": "claimSingleStakingReward",
      "outputs": [
        {
          "name": "",
          "type": "bool"
        }
      ],
      "payable": false,
      "stateMutability": "nonpayable",
      "type": "function"
    },
    {
      "constant": false,
      "inputs": [
        {
          "name": "_staker",
          "type": "address"
        },
        {
          "name": "_startIndex",
          "type": "uint256"
        },
        {
          "name": "_endIndex",
          "type": "uint256"
        }
      ],
      "name": "claimMultipleStakingRewards",
      "outputs": [
        {
          "name": "",
          "type": "bool"
        }
      ],
      "payable": false,
      "stateMutability": "nonpayable",
      "type": "function"
    },
    {
      "constant": false,
      "inputs": [
        {
          "name": "_staker",
          "type": "address"
        }
      ],
      "name": "claimAllStakingRewards",
      "outputs": [
        {
          "name": "",
          "type": "bool"
        }
      ],
      "payable": false,
      "stateMutability": "nonpayable",
      "type": "function"
    }
  ],
  "bytecode": "0x60806040526000600555600060095534801561001a57600080fd5b50614c818061002a6000396000f300608060405260043610610246576000357c0100000000000000000000000000000000000000000000000000000000900463ffffffff1680630867c0ad1461024b57806308b4312b146102e9578063095ea7b314610314578063128bfcae1461037957806316043f5d146103c85780631765f4bf146103f357806318160ddd1461041e578063229cfc321461044957806323b872dd1461048a5780632c3ee88c1461050f5780632c48d57b1461055057806330fd546e1461057f5780635418796c146105c05780636618846314610669578063687cf4a4146106ce5780636aaf67e21461071757806370a082311461074a578063753bf8cd146107a157806375889a2b146108a0578063790ca413146108fb5780637cdafe9d1461092657806381437de81461098757806381cd84b9146109ec578063842e298114610a785780638716391914610be85780638d854c3414610c355780638f16981614610c605780639283032c14610cd6578063938b5f3214610ced57806394ce28e814610d445780639d65b89214610d6f578063a9059cbb14610d9a578063b1ccf19314610dff578063b242c9bf14610ec5578063b27f7a0e14610f30578063b80ac7df14610f7b578063bac5c04814611007578063cb9c501f1461105e578063ce267b55146110cd578063cfc2334e14611197578063d73dd62314611238578063dd62ed3e1461129d578063e073ef6914611314578063e26e7b50146113bb578063e39a385a146113fc578063f35dad401461145d578063f3c85eba14611488578063f6c45d02146114dd575b600080fd5b34801561025757600080fd5b506102cf6004803603810190808035600019169060200190929190803560ff16906020019092919080356000191690602001909291908035600019169060200190929190803573ffffffffffffffffffffffffffffffffffffffff16906020019092919080351515906020019092919050505061153e565b604051808215151515815260200191505060405180910390f35b3480156102f557600080fd5b506102fe611729565b6040518082815260200191505060405180910390f35b34801561032057600080fd5b5061035f600480360381019080803573ffffffffffffffffffffffffffffffffffffffff1690602001909291908035906020019092919050505061172f565b604051808215151515815260200191505060405180910390f35b34801561038557600080fd5b506103ae6004803603810190808035906020019092919080359060200190929190505050611821565b604051808215151515815260200191505060405180910390f35b3480156103d457600080fd5b506103dd611b36565b6040518082815260200191505060405180910390f35b3480156103ff57600080fd5b50610408611b3b565b6040518082815260200191505060405180910390f35b34801561042a57600080fd5b50610433611b41565b6040518082815260200191505060405180910390f35b34801561045557600080fd5b5061047460048036038101908080359060200190929190505050611b4b565b6040518082815260200191505060405180910390f35b34801561049657600080fd5b506104f5600480360381019080803573ffffffffffffffffffffffffffffffffffffffff169060200190929190803573ffffffffffffffffffffffffffffffffffffffff16906020019092919080359060200190929190505050611b90565b604051808215151515815260200191505060405180910390f35b34801561051b57600080fd5b5061053a60048036038101908080359060200190929190505050611f4a565b6040518082815260200191505060405180910390f35b34801561055c57600080fd5b506105656122c4565b604051808215151515815260200191505060405180910390f35b34801561058b57600080fd5b506105aa600480360381019080803590602001909291905050506122d7565b6040518082815260200191505060405180910390f35b3480156105cc57600080fd5b50610627600480360381019080803590602001908201803590602001908080601f01602080910402602001604051908101604052809392919081815260200183838082843782019150505050505091929192905050506122ef565b604051808273ffffffffffffffffffffffffffffffffffffffff1673ffffffffffffffffffffffffffffffffffffffff16815260200191505060405180910390f35b34801561067557600080fd5b506106b4600480360381019080803573ffffffffffffffffffffffffffffffffffffffff16906020019092919080359060200190929190505050612375565b604051808215151515815260200191505060405180910390f35b3480156106da57600080fd5b506106fd6004803603810190808035600019169060200190929190505050612606565b604051808215151515815260200191505060405180910390f35b34801561072357600080fd5b5061072c612626565b60405180826000191660001916815260200191505060405180910390f35b34801561075657600080fd5b5061078b600480360381019080803573ffffffffffffffffffffffffffffffffffffffff16906020019092919050505061262c565b6040518082815260200191505060405180910390f35b3480156107ad57600080fd5b5061088a6004803603810190808035906020019092919080359060200190820180359060200190808060200260200160405190810160405280939291908181526020018383602002808284378201915050505050509192919290803590602001908201803590602001908080601f0160208091040260200160405190810160405280939291908181526020018383808284378201915050505050509192919290803515159060200190929190803560ff16906020019092919080356000191690602001909291908035600019169060200190929190505050612674565b6040518082815260200191505060405180910390f35b3480156108ac57600080fd5b506108e1600480360381019080803573ffffffffffffffffffffffffffffffffffffffff169060200190929190505050612918565b604051808215151515815260200191505060405180910390f35b34801561090757600080fd5b50610910612a9d565b6040518082815260200191505060405180910390f35b34801561093257600080fd5b50610971600480360381019080803573ffffffffffffffffffffffffffffffffffffffff16906020019092919080359060200190929190505050612aa3565b6040518082815260200191505060405180910390f35b34801561099357600080fd5b506109d2600480360381019080803573ffffffffffffffffffffffffffffffffffffffff16906020019092919080359060200190929190505050612bb0565b604051808215151515815260200191505060405180910390f35b3480156109f857600080fd5b50610a5e600480360381019080803560001916906020019092919080359060200190820180359060200190808060200260200160405190810160405280939291908181526020018383602002808284378201915050505050509192919290505050613037565b604051808215151515815260200191505060405180910390f35b348015610a8457600080fd5b50610ab9600480360381019080803573ffffffffffffffffffffffffffffffffffffffff169060200190929190505050613082565b6040518080602001806020018060200180602001858103855289818151815260200191508051906020019060200280838360005b83811015610b08578082015181840152602081019050610aed565b50505050905001858103845288818151815260200191508051906020019060200280838360005b83811015610b4a578082015181840152602081019050610b2f565b50505050905001858103835287818151815260200191508051906020019060200280838360005b83811015610b8c578082015181840152602081019050610b71565b50505050905001858103825286818151815260200191508051906020019060200280838360005b83811015610bce578082015181840152602081019050610bb3565b505050509050019850505050505050505060405180910390f35b348015610bf457600080fd5b50610c33600480360381019080803573ffffffffffffffffffffffffffffffffffffffff169060200190929190803590602001909291905050506132b4565b005b348015610c4157600080fd5b50610c4a61339b565b6040518082815260200191505060405180910390f35b348015610c6c57600080fd5b50610cab600480360381019080803573ffffffffffffffffffffffffffffffffffffffff169060200190929190803590602001909291905050506133a1565b6040518085815260200184815260200183815260200182815260200194505050505060405180910390f35b348015610ce257600080fd5b50610ceb6133ed565b005b348015610cf957600080fd5b50610d02613473565b604051808273ffffffffffffffffffffffffffffffffffffffff1673ffffffffffffffffffffffffffffffffffffffff16815260200191505060405180910390f35b348015610d5057600080fd5b50610d59613499565b6040518082815260200191505060405180910390f35b348015610d7b57600080fd5b50610d846134db565b6040518082815260200191505060405180910390f35b348015610da657600080fd5b50610de5600480360381019080803573ffffffffffffffffffffffffffffffffffffffff169060200190929190803590602001909291905050506134e1565b604051808215151515815260200191505060405180910390f35b348015610e0b57600080fd5b50610eaf60048036038101908080359060200190929190803590602001908201803590602001919091929391929390803590602001908201803590602001919091929391929390803515159060200190929190803560ff16906020019092919080356000191690602001909291908035600019169060200190929190803573ffffffffffffffffffffffffffffffffffffffff169060200190929190505050613700565b6040518082815260200191505060405180910390f35b348015610ed157600080fd5b50610f1a600480360381019080803573ffffffffffffffffffffffffffffffffffffffff16906020019092919080359060200190929190803590602001909291905050506138d0565b6040518082815260200191505060405180910390f35b348015610f3c57600080fd5b50610f656004803603810190808035906020019092919080359060200190929190505050613a99565b6040518082815260200191505060405180910390f35b348015610f8757600080fd5b50610fed600480360381019080803590602001908201803590602001908080602002602001604051908101604052809392919081815260200183836020028082843782019150505050505091929192908035600019169060200190929190505050613b73565b604051808215151515815260200191505060405180910390f35b34801561101357600080fd5b50611048600480360381019080803573ffffffffffffffffffffffffffffffffffffffff169060200190929190505050613b8a565b6040518082815260200191505060405180910390f35b34801561106a57600080fd5b506110b3600480360381019080803573ffffffffffffffffffffffffffffffffffffffff1690602001909291908035906020019092919080359060200190929190505050613be4565b604051808215151515815260200191505060405180910390f35b3480156110d957600080fd5b5061117d600480360381019080803573ffffffffffffffffffffffffffffffffffffffff169060200190929190803590602001908201803590602001908080601f0160208091040260200160405190810160405280939291908181526020018383808284378201915050505050509192919290803560ff16906020019092919080356000191690602001909291908035600019169060200190929190505050613cee565b604051808215151515815260200191505060405180910390f35b3480156111a357600080fd5b5061121e60048036038101908080356bffffffffffffffffffffffff191690602001909291908035906020019092919080359060200190820180359060200190808060200260200160405190810160405280939291908181526020018383602002808284378201915050505050509192919290505050613e0d565b604051808215151515815260200191505060405180910390f35b34801561124457600080fd5b50611283600480360381019080803573ffffffffffffffffffffffffffffffffffffffff16906020019092919080359060200190929190505050613ece565b604051808215151515815260200191505060405180910390f35b3480156112a957600080fd5b506112fe600480360381019080803573ffffffffffffffffffffffffffffffffffffffff169060200190929190803573ffffffffffffffffffffffffffffffffffffffff1690602001909291905050506140ca565b6040518082815260200191505060405180910390f35b34801561132057600080fd5b50611387600480360381019080803590602001908201803590602001908080601f0160208091040260200160405190810160405280939291908181526020018383808284378201915050505050509192919290803515159060200190929190505050614151565b60405180826bffffffffffffffffffffffff19166bffffffffffffffffffffffff1916815260200191505060405180910390f35b3480156113c757600080fd5b506113e660048036038101908080359060200190929190505050614510565b6040518082815260200191505060405180910390f35b34801561140857600080fd5b50611447600480360381019080803573ffffffffffffffffffffffffffffffffffffffff16906020019092919080359060200190929190505050614555565b6040518082815260200191505060405180910390f35b34801561146957600080fd5b5061147261464b565b6040518082815260200191505060405180910390f35b34801561149457600080fd5b506114c7600480360381019080803590602001909291908035906020019092919080359060200190929190505050614651565b6040518082815260200191505060405180910390f35b3480156114e957600080fd5b50611528600480360381019080803573ffffffffffffffffffffffffffffffffffffffff1690602001909291908035906020019092919050505061474e565b6040518082815260200191505060405180910390f35b60008060608315156115525788915061166c565b6040805190810160405280601c81526020017f19457468657265756d205369676e6564204d6573736167653a0a333200000000815250905080896040516020018083805190602001908083835b6020831015156115c4578051825260208201915060208101905060208303925061159f565b6001836020036101000a0380198251168184511680821785525050505050509050018260001916600019168152602001925050506040516020818303038152906040526040518082805190602001908083835b60208310151561163c5780518252602082019150602081019050602083039250611617565b6001836020036101000a038019825116818451168082178552505050505050905001915050604051809103902091505b8473ffffffffffffffffffffffffffffffffffffffff166001838a8a8a604051600081526020016040526040518085600019166000191681526020018460ff1660ff1681526020018360001916600019168152602001826000191660001916815260200194505050505060206040516020810390808403906000865af11580156116fa573d6000803e3d6000fd5b5050506020604051035173ffffffffffffffffffffffffffffffffffffffff1614925050509695505050505050565b600a5481565b600081600260003373ffffffffffffffffffffffffffffffffffffffff1673ffffffffffffffffffffffffffffffffffffffff16815260200190815260200160002060008573ffffffffffffffffffffffffffffffffffffffff1673ffffffffffffffffffffffffffffffffffffffff168152602001908152602001600020819055508273ffffffffffffffffffffffffffffffffffffffff163373ffffffffffffffffffffffffffffffffffffffff167f8c5be1e5ebec7d5bd14f71427d1e84f3dd0314c0f7b2291e5b200ac8c7c3b925846040518082815260200191505060405180910390a36001905092915050565b600080339050836000808373ffffffffffffffffffffffffffffffffffffffff1673ffffffffffffffffffffffffffffffffffffffff168152602001908152602001600020541015151561187457600080fd5b61188a620d2f00426148b990919063ffffffff16565b831015151561189857600080fd5b6118af6312d93200426148b990919063ffffffff16565b831015156118bc57600080fd5b6118c46133ed565b611915846000808473ffffffffffffffffffffffffffffffffffffffff1673ffffffffffffffffffffffffffffffffffffffff168152602001908152602001600020546148d590919063ffffffff16565b6000808373ffffffffffffffffffffffffffffffffffffffff1673ffffffffffffffffffffffffffffffffffffffff168152602001908152602001600020819055506119a8846000803073ffffffffffffffffffffffffffffffffffffffff1673ffffffffffffffffffffffffffffffffffffffff168152602001908152602001600020546148b990919063ffffffff16565b6000803073ffffffffffffffffffffffffffffffffffffffff1673ffffffffffffffffffffffffffffffffffffffff16815260200190815260200160002081905550600d60008273ffffffffffffffffffffffffffffffffffffffff1673ffffffffffffffffffffffffffffffffffffffff168152602001908152602001600020608060405190810160405280868152602001428152602001858152602001600c5481525090806001815401808255809150509060018203906000526020600020906004020160009091929091909150600082015181600001556020820151816001015560408201518160020155606082015181600301555050506000611b0482611aff6001600d60008773ffffffffffffffffffffffffffffffffffffffff1673ffffffffffffffffffffffffffffffffffffffff168152602001908152602001600020805490506148d590919063ffffffff16565b61474e565b111515611b1057600080fd5b611b2584600c546148b990919063ffffffff16565b600c81905550600191505092915050565b600181565b600c5481565b6000600154905090565b6000611b89600a611b7b600b54611b6d600954876148ee90919063ffffffff16565b61492690919063ffffffff16565b61492690919063ffffffff16565b9050919050565b60008073ffffffffffffffffffffffffffffffffffffffff168373ffffffffffffffffffffffffffffffffffffffff1614151515611bcd57600080fd5b6000808573ffffffffffffffffffffffffffffffffffffffff1673ffffffffffffffffffffffffffffffffffffffff168152602001908152602001600020548211151515611c1a57600080fd5b600260008573ffffffffffffffffffffffffffffffffffffffff1673ffffffffffffffffffffffffffffffffffffffff16815260200190815260200160002060003373ffffffffffffffffffffffffffffffffffffffff1673ffffffffffffffffffffffffffffffffffffffff168152602001908152602001600020548211151515611ca557600080fd5b611cf6826000808773ffffffffffffffffffffffffffffffffffffffff1673ffffffffffffffffffffffffffffffffffffffff168152602001908152602001600020546148d590919063ffffffff16565b6000808673ffffffffffffffffffffffffffffffffffffffff1673ffffffffffffffffffffffffffffffffffffffff16815260200190815260200160002081905550611d89826000808673ffffffffffffffffffffffffffffffffffffffff1673ffffffffffffffffffffffffffffffffffffffff168152602001908152602001600020546148b990919063ffffffff16565b6000808573ffffffffffffffffffffffffffffffffffffffff1673ffffffffffffffffffffffffffffffffffffffff16815260200190815260200160002081905550611e5a82600260008773ffffffffffffffffffffffffffffffffffffffff1673ffffffffffffffffffffffffffffffffffffffff16815260200190815260200160002060003373ffffffffffffffffffffffffffffffffffffffff1673ffffffffffffffffffffffffffffffffffffffff168152602001908152602001600020546148d590919063ffffffff16565b600260008673ffffffffffffffffffffffffffffffffffffffff1673ffffffffffffffffffffffffffffffffffffffff16815260200190815260200160002060003373ffffffffffffffffffffffffffffffffffffffff1673ffffffffffffffffffffffffffffffffffffffff168152602001908152602001600020819055508273ffffffffffffffffffffffffffffffffffffffff168473ffffffffffffffffffffffffffffffffffffffff167fddf252ad1be2c89b69c2b068fc378daa952ba7f163c4a11628f55a4df523b3ef846040518082815260200191505060405180910390a3600190509392505050565b6000806000806000611f6a6402540be400876148ee90919063ffffffff16565b9350683635c9adc5dea000008411156120035769152d02c7e14af6800000841015611feb57611fe4640ba43b7400611fd66009611fc86002611fba64174876e8008b6148d590919063ffffffff16565b6148ee90919063ffffffff16565b61492690919063ffffffff16565b6148b990919063ffffffff16565b9350612002565b611fff60048561492690919063ffffffff16565b93505b5b426004541061201357600061203e565b61203d62093a8061202f600454426148d590919063ffffffff16565b61492690919063ffffffff16565b5b92506120676120576002856148ee90919063ffffffff16565b60646148d590919063ffffffff16565b915061208f606461208184876148ee90919063ffffffff16565b61492690919063ffffffff16565b9050602d8311156120a2578094506122bb565b60208311156120d9576120d260646120c46065846148ee90919063ffffffff16565b61492690919063ffffffff16565b94506122bb565b60188311156121105761210960646120fb6066846148ee90919063ffffffff16565b61492690919063ffffffff16565b94506122bb565b60128311156121475761214060646121326067846148ee90919063ffffffff16565b61492690919063ffffffff16565b94506122bb565b600e83111561217e5761217760646121696068846148ee90919063ffffffff16565b61492690919063ffffffff16565b94506122bb565b600a8311156121b5576121ae60646121a06069846148ee90919063ffffffff16565b61492690919063ffffffff16565b94506122bb565b60078311156121ec576121e560646121d7606a846148ee90919063ffffffff16565b61492690919063ffffffff16565b94506122bb565b60058311156122235761221c606461220e606b846148ee90919063ffffffff16565b61492690919063ffffffff16565b94506122bb565b600383111561225a576122536064612245606c846148ee90919063ffffffff16565b61492690919063ffffffff16565b94506122bb565b60018311156122915761228a606461227c606d846148ee90919063ffffffff16565b61492690919063ffffffff16565b94506122bb565b6122b860646122aa606e846148ee90919063ffffffff16565b61492690919063ffffffff16565b94505b50505050919050565b600060326122d0613499565b1115905090565b60066020528060005260406000206000915090505481565b600073ffffffffffffffffffffffffffffffffffffffff826040518082805190602001908083835b60208310151561233c5780518252602082019150602081019050602083039250612317565b6001836020036101000a038019825116818451168082178552505050505050905001915050604051809103902060019004169050919050565b600080600260003373ffffffffffffffffffffffffffffffffffffffff1673ffffffffffffffffffffffffffffffffffffffff16815260200190815260200160002060008573ffffffffffffffffffffffffffffffffffffffff1673ffffffffffffffffffffffffffffffffffffffff16815260200190815260200160002054905080831115612486576000600260003373ffffffffffffffffffffffffffffffffffffffff1673ffffffffffffffffffffffffffffffffffffffff16815260200190815260200160002060008673ffffffffffffffffffffffffffffffffffffffff1673ffffffffffffffffffffffffffffffffffffffff1681526020019081526020016000208190555061251a565b61249983826148d590919063ffffffff16565b600260003373ffffffffffffffffffffffffffffffffffffffff1673ffffffffffffffffffffffffffffffffffffffff16815260200190815260200160002060008673ffffffffffffffffffffffffffffffffffffffff1673ffffffffffffffffffffffffffffffffffffffff168152602001908152602001600020819055505b8373ffffffffffffffffffffffffffffffffffffffff163373ffffffffffffffffffffffffffffffffffffffff167f8c5be1e5ebec7d5bd14f71427d1e84f3dd0314c0f7b2291e5b200ac8c7c3b925600260003373ffffffffffffffffffffffffffffffffffffffff1673ffffffffffffffffffffffffffffffffffffffff16815260200190815260200160002060008873ffffffffffffffffffffffffffffffffffffffff1673ffffffffffffffffffffffffffffffffffffffff168152602001908152602001600020546040518082815260200191505060405180910390a3600191505092915050565b60086020528060005260406000206000915054906101000a900460ff1681565b60075481565b60008060008373ffffffffffffffffffffffffffffffffffffffff1673ffffffffffffffffffffffffffffffffffffffff168152602001908152602001600020549050919050565b6000806000600454421015151561268a57600080fd5b6126926133ed565b61269c8888614151565b9150818a60405160200180836bffffffffffffffffffffffff19166bffffffffffffffffffffffff19168152601401828152602001925050506040516020818303038152906040526040518082805190602001908083835b60208310151561271957805182526020820191506020810190506020830392506126f4565b6001836020036101000a03801982511681845116808217855250505050505090500191505060405180910390209050612752818a613037565b151561275d57600080fd5b61276a3389888888613cee565b151561277557600080fd5b600160086000836000191660001916815260200190815260200160002060006101000a81548160ff0219169083151502179055506127b28a611f4a565b9250600a546127cc846009546148b990919063ffffffff16565b111515156127d957600080fd5b6127ee836009546148b990919063ffffffff16565b600981905550612845836000803373ffffffffffffffffffffffffffffffffffffffff1673ffffffffffffffffffffffffffffffffffffffff168152602001908152602001600020546148b990919063ffffffff16565b6000803373ffffffffffffffffffffffffffffffffffffffff1673ffffffffffffffffffffffffffffffffffffffff1681526020019081526020016000208190555061289c836001546148b990919063ffffffff16565b6001819055503373ffffffffffffffffffffffffffffffffffffffff16600073ffffffffffffffffffffffffffffffffffffffff167fddf252ad1be2c89b69c2b068fc378daa952ba7f163c4a11628f55a4df523b3ef856040518082815260200191505060405180910390a38292505050979650505050505050565b600080600080600d60008673ffffffffffffffffffffffffffffffffffffffff1673ffffffffffffffffffffffffffffffffffffffff1681526020019081526020016000208054905092506000915060009050600083141561297d5760009350612a95565b5b82821015612a9057600d60008673ffffffffffffffffffffffffffffffffffffffff1673ffffffffffffffffffffffffffffffffffffffff168152602001908152602001600020805490506129dd6001836148b990919063ffffffff16565b116129e857806129eb565b60005b9050600d60008673ffffffffffffffffffffffffffffffffffffffff1673ffffffffffffffffffffffffffffffffffffffff16815260200190815260200160002081815481101515612a3957fe5b90600052602060002090600402016002015442101515612a5f57612a5d8582612bb0565b505b612a736001836148b990919063ffffffff16565b9150612a896001826148b990919063ffffffff16565b905061297e565b600193505b505050919050565b60045481565b600080600080600080600d60008973ffffffffffffffffffffffffffffffffffffffff1673ffffffffffffffffffffffffffffffffffffffff16815260200190815260200160002087815481101515612af857fe5b906000526020600020906004020194506032612b3862093a80612b2a60045489600101546148d590919063ffffffff16565b61492690919063ffffffff16565b111515612ba057612b5185600101548660020154613a99565b9350612b608560000154611b4b565b9250612b6f8560000154614510565b9150612b9682612b8885876148b990919063ffffffff16565b6148b990919063ffffffff16565b9050809550612ba5565b600095505b505050505092915050565b6000612bba614bbb565b600080600080600d60008973ffffffffffffffffffffffffffffffffffffffff1673ffffffffffffffffffffffffffffffffffffffff16815260200190815260200160002087815481101515612c0c57fe5b906000526020600020906004020160806040519081016040529081600082015481526020016001820154815260200160028201548152602001600382015481525050945084604001514210151515612c6357600080fd5b612c6b6133ed565b84600001519350612c7c888861474e565b9250612c888888612aa3565b9150612caf82612ca185876148b990919063ffffffff16565b6148b990919063ffffffff16565b9050612cc684600c546148d590919063ffffffff16565b600c81905550612d1d846000803073ffffffffffffffffffffffffffffffffffffffff1673ffffffffffffffffffffffffffffffffffffffff168152602001908152602001600020546148d590919063ffffffff16565b6000803073ffffffffffffffffffffffffffffffffffffffff1673ffffffffffffffffffffffffffffffffffffffff16815260200190815260200160002081905550612db0816000808b73ffffffffffffffffffffffffffffffffffffffff1673ffffffffffffffffffffffffffffffffffffffff168152602001908152602001600020546148b990919063ffffffff16565b6000808a73ffffffffffffffffffffffffffffffffffffffff1673ffffffffffffffffffffffffffffffffffffffff16815260200190815260200160002081905550612e6582600080600360009054906101000a900473ffffffffffffffffffffffffffffffffffffffff1673ffffffffffffffffffffffffffffffffffffffff1673ffffffffffffffffffffffffffffffffffffffff168152602001908152602001600020546148b990919063ffffffff16565b600080600360009054906101000a900473ffffffffffffffffffffffffffffffffffffffff1673ffffffffffffffffffffffffffffffffffffffff1673ffffffffffffffffffffffffffffffffffffffff168152602001908152602001600020819055508773ffffffffffffffffffffffffffffffffffffffff163073ffffffffffffffffffffffffffffffffffffffff167fddf252ad1be2c89b69c2b068fc378daa952ba7f163c4a11628f55a4df523b3ef87600001516040518082815260200191505060405180910390a3612f5a612f496002846148ee90919063ffffffff16565b6001546148b990919063ffffffff16565b6001819055508773ffffffffffffffffffffffffffffffffffffffff167f0f6798a560793a54c3bcfe86a93cde1e73087d944c0ea20544137d4121396885836040518082815260200191505060405180910390a2600360009054906101000a900473ffffffffffffffffffffffffffffffffffffffff1673ffffffffffffffffffffffffffffffffffffffff167f0f6798a560793a54c3bcfe86a93cde1e73087d944c0ea20544137d4121396885836040518082815260200191505060405180910390a261302888886132b4565b60019550505050505092915050565b600080151560086000856000191660001916815260200190815260200160002060009054906101000a900460ff16151514801561307a57506130798284613b73565b5b905092915050565b6060806060806000606080606080600080600d60008d73ffffffffffffffffffffffffffffffffffffffff1673ffffffffffffffffffffffffffffffffffffffff168152602001908152602001600020805490509650866040519080825280602002602001820160405280156131075781602001602082028038833980820191505090505b509550866040519080825280602002602001820160405280156131395781602001602082028038833980820191505090505b5094508660405190808252806020026020018201604052801561316b5781602001602082028038833980820191505090505b5093508660405190808252806020026020018201604052801561319d5781602001602082028038833980820191505090505b509250600091505b8682101561329a57600d60008d73ffffffffffffffffffffffffffffffffffffffff1673ffffffffffffffffffffffffffffffffffffffff168152602001908152602001600020828154811015156131f957fe5b906000526020600020906004020190508060000154868381518110151561321c57fe5b90602001906020020181815250508060010154858381518110151561323d57fe5b90602001906020020181815250508060020154848381518110151561325e57fe5b90602001906020020181815250508060030154838381518110151561327f57fe5b906020019060200201818152505081806001019250506131a5565b858585859a509a509a509a50505050505050509193509193565b6000600d60008473ffffffffffffffffffffffffffffffffffffffff1673ffffffffffffffffffffffffffffffffffffffff168152602001908152602001600020905080613310600183805490506148d590919063ffffffff16565b81548110151561331c57fe5b9060005260206000209060040201818381548110151561333857fe5b906000526020600020906004020160008201548160000155600182015481600101556002820154816002015560038201548160030155905050613389600182805490506148d590919063ffffffff16565b81816133959190614be4565b50505050565b600b5481565b600d602052816000526040600020818154811015156133bc57fe5b9060005260206000209060040201600091509150508060000154908060010154908060020154908060030154905084565b60008061341a62093a8061340c600454426148d590919063ffffffff16565b61492690919063ffffffff16565b91506032821115801561342e575060055482115b1561346f5761344a600954600a546148d590919063ffffffff16565b9050806006600060018503815260200190815260200160002081905550816005819055505b5050565b600360009054906101000a900473ffffffffffffffffffffffffffffffffffffffff1681565b600060045442116134ab5760006134d6565b6134d562093a806134c7600454426148d590919063ffffffff16565b61492690919063ffffffff16565b5b905090565b60055481565b60008073ffffffffffffffffffffffffffffffffffffffff168373ffffffffffffffffffffffffffffffffffffffff161415151561351e57600080fd5b6000803373ffffffffffffffffffffffffffffffffffffffff1673ffffffffffffffffffffffffffffffffffffffff16815260200190815260200160002054821115151561356b57600080fd5b6135bc826000803373ffffffffffffffffffffffffffffffffffffffff1673ffffffffffffffffffffffffffffffffffffffff168152602001908152602001600020546148d590919063ffffffff16565b6000803373ffffffffffffffffffffffffffffffffffffffff1673ffffffffffffffffffffffffffffffffffffffff1681526020019081526020016000208190555061364f826000808673ffffffffffffffffffffffffffffffffffffffff1673ffffffffffffffffffffffffffffffffffffffff168152602001908152602001600020546148b990919063ffffffff16565b6000808573ffffffffffffffffffffffffffffffffffffffff1673ffffffffffffffffffffffffffffffffffffffff168152602001908152602001600020819055508273ffffffffffffffffffffffffffffffffffffffff163373ffffffffffffffffffffffffffffffffffffffff167fddf252ad1be2c89b69c2b068fc378daa952ba7f163c4a11628f55a4df523b3ef846040518082815260200191505060405180910390a36001905092915050565b60003373ffffffffffffffffffffffffffffffffffffffff168273ffffffffffffffffffffffffffffffffffffffff161415151561373d57600080fd5b600073ffffffffffffffffffffffffffffffffffffffff168273ffffffffffffffffffffffffffffffffffffffff161415151561377957600080fd5b6137e98b8b8b808060200260200160405190810160405280939291908181526020018383602002808284378201915050505050508a8a8080601f01602080910402602001604051908101604052809392919081815260200183838082843782019150505050505089898989612674565b905061384f61380260148361492690919063ffffffff16565b6000808573ffffffffffffffffffffffffffffffffffffffff1673ffffffffffffffffffffffffffffffffffffffff168152602001908152602001600020546148b990919063ffffffff16565b6000808473ffffffffffffffffffffffffffffffffffffffff1673ffffffffffffffffffffffffffffffffffffffff168152602001908152602001600020819055506138b96138a860148361492690919063ffffffff16565b6001546148b990919063ffffffff16565b6001819055508090509a9950505050505050505050565b6000806000806001600d60008973ffffffffffffffffffffffffffffffffffffffff1673ffffffffffffffffffffffffffffffffffffffff1681526020019081526020016000208054905003925082851115151561392d57600080fd5b6000861015151561393d57600080fd5b6000600d60008973ffffffffffffffffffffffffffffffffffffffff1673ffffffffffffffffffffffffffffffffffffffff1681526020019081526020016000208054905014156139915760009350613a8f565b848614156139ff57600d60008873ffffffffffffffffffffffffffffffffffffffff1673ffffffffffffffffffffffffffffffffffffffff16815260200190815260200160002060008154811015156139e657fe5b9060005260206000209060040201600001549350613a8f565b8590505b8481111515613a8b57613a7c600d60008973ffffffffffffffffffffffffffffffffffffffff1673ffffffffffffffffffffffffffffffffffffffff16815260200190815260200160002082815481101515613a5b57fe5b906000526020600020906004020160000154836148b990919063ffffffff16565b91508080600101915050613a03565b8193505b5050509392505050565b60008060008060008060009450613ad062093a80613ac26004548b6148d590919063ffffffff16565b61492690919063ffffffff16565b9350613afc62093a80613aee6004548a6148d590919063ffffffff16565b61492690919063ffffffff16565b925060328311613b0c5782613b0f565b60325b91508390505b81811015613b6557613b56613b476032600660008581526020019081526020016000205461492690919063ffffffff16565b866148b990919063ffffffff16565b94508080600101915050613b15565b849550505050505092915050565b6000613b82836007548461493c565b905092915050565b6000613bdd8260006001600d60008773ffffffffffffffffffffffffffffffffffffffff1673ffffffffffffffffffffffffffffffffffffffff16815260200190815260200160002080549050036138d0565b9050919050565b600080828411151515613bf657600080fd5b600d60008673ffffffffffffffffffffffffffffffffffffffff1673ffffffffffffffffffffffffffffffffffffffff1681526020019081526020016000208054905083101515613c4657600080fd5b8390505b8281111515613ce257600d60008673ffffffffffffffffffffffffffffffffffffffff1673ffffffffffffffffffffffffffffffffffffffff1681526020019081526020016000206000815481101515613ca057fe5b90600052602060002090600402016002015442101515613cdd57613cc5856000612bb0565b50613cda6001826148b990919063ffffffff16565b90505b613c4a565b60019150509392505050565b6000613e02600287604051602001808273ffffffffffffffffffffffffffffffffffffffff1673ffffffffffffffffffffffffffffffffffffffff166c010000000000000000000000000281526014019150506040516020818303038152906040526040518082805190602001908083835b602083101515613d855780518252602082019150602081019050602083039250613d60565b6001836020036101000a0380198251168184511680821785525050505050509050019150506020604051808303816000865af1158015613dc9573d6000803e3d6000fd5b5050506040513d6020811015613dde57600080fd5b8101908080519060200190929190505050858585613dfb8a6122ef565b600061153e565b905095945050505050565b600080848460405160200180836bffffffffffffffffffffffff19166bffffffffffffffffffffffff19168152601401828152602001925050506040516020818303038152906040526040518082805190602001908083835b602083101515613e8b5780518252602082019150602081019050602083039250613e66565b6001836020036101000a03801982511681845116808217855250505050505090500191505060405180910390209050613ec48184613037565b9150509392505050565b6000613f5f82600260003373ffffffffffffffffffffffffffffffffffffffff1673ffffffffffffffffffffffffffffffffffffffff16815260200190815260200160002060008673ffffffffffffffffffffffffffffffffffffffff1673ffffffffffffffffffffffffffffffffffffffff168152602001908152602001600020546148b990919063ffffffff16565b600260003373ffffffffffffffffffffffffffffffffffffffff1673ffffffffffffffffffffffffffffffffffffffff16815260200190815260200160002060008573ffffffffffffffffffffffffffffffffffffffff1673ffffffffffffffffffffffffffffffffffffffff168152602001908152602001600020819055508273ffffffffffffffffffffffffffffffffffffffff163373ffffffffffffffffffffffffffffffffffffffff167f8c5be1e5ebec7d5bd14f71427d1e84f3dd0314c0f7b2291e5b200ac8c7c3b925600260003373ffffffffffffffffffffffffffffffffffffffff1673ffffffffffffffffffffffffffffffffffffffff16815260200190815260200160002060008773ffffffffffffffffffffffffffffffffffffffff1673ffffffffffffffffffffffffffffffffffffffff168152602001908152602001600020546040518082815260200191505060405180910390a36001905092915050565b6000600260008473ffffffffffffffffffffffffffffffffffffffff1673ffffffffffffffffffffffffffffffffffffffff16815260200190815260200160002060008373ffffffffffffffffffffffffffffffffffffffff1673ffffffffffffffffffffffffffffffffffffffff16815260200190815260200160002054905092915050565b600080600080614162866000614adf565b600190049250614173866020614adf565b600190049150841561434f57600060028381151561418d57fe5b061461419a57600361419d565b60025b9050600360028285604051602001808360ff1660ff167f0100000000000000000000000000000000000000000000000000000000000000028152600101828152602001925050506040516020818303038152906040526040518082805190602001908083835b6020831015156142285780518252602082019150602081019050602083039250614203565b6001836020036101000a0380198251168184511680821785525050505050509050019150506020604051808303816000865af115801561426c573d6000803e3d6000fd5b5050506040513d602081101561428157600080fd5b81019080805190602001909291905050506040516020018082600019166000191681526020019150506040516020818303038152906040526040518082805190602001908083835b6020831015156142ee57805182526020820191506020810190506020830392506142c9565b6001836020036101000a0380198251168184511680821785525050505050509050019150506020604051808303816000865af1158015614332573d6000803e3d6000fd5b505050604051516c01000000000000000000000000029350614507565b6004905060036002828585604051602001808460ff1660ff167f010000000000000000000000000000000000000000000000000000000000000002815260010183815260200182815260200193505050506040516020818303038152906040526040518082805190602001908083835b6020831015156143e457805182526020820191506020810190506020830392506143bf565b6001836020036101000a0380198251168184511680821785525050505050509050019150506020604051808303816000865af1158015614428573d6000803e3d6000fd5b5050506040513d602081101561443d57600080fd5b81019080805190602001909291905050506040516020018082600019166000191681526020019150506040516020818303038152906040526040518082805190602001908083835b6020831015156144aa5780518252602082019150602081019050602083039250614485565b6001836020036101000a0380198251168184511680821785525050505050509050019150506020604051808303816000865af11580156144ee573d6000803e3d6000fd5b505050604051516c010000000000000000000000000293505b50505092915050565b600061454e600a614540600a54614532600954876148ee90919063ffffffff16565b61492690919063ffffffff16565b61492690919063ffffffff16565b9050919050565b600080600d60008573ffffffffffffffffffffffffffffffffffffffff1673ffffffffffffffffffffffffffffffffffffffff168152602001908152602001600020838154811015156145a457fe5b9060005260206000209060040201600001549050600d60008573ffffffffffffffffffffffffffffffffffffffff1673ffffffffffffffffffffffffffffffffffffffff1681526020019081526020016000208381548110151561460457fe5b9060005260206000209060040201600201544211156146405761463961462a8585612aa3565b826148b990919063ffffffff16565b9150614644565b8091505b5092915050565b60095481565b600080600080600080600a9450848881151561466957fe5b06935061467f858961492690919063ffffffff16565b92506146996402540be4008a61492690919063ffffffff16565b9150600090505b828110156146f0576146d3856127100a6146c5878a0a856148ee90919063ffffffff16565b61492690919063ffffffff16565b91506146e96001826148b990919063ffffffff16565b90506146a0565b60008414151561472857614725846127100a614717868a0a856148ee90919063ffffffff16565b61492690919063ffffffff16565b91505b6147406402540be400836148ee90919063ffffffff16565b955050505050509392505050565b6000806000806000806000806000600d60008c73ffffffffffffffffffffffffffffffffffffffff1673ffffffffffffffffffffffffffffffffffffffff1681526020019081526020016000208a8154811015156147a857fe5b906000526020600020906004020197506147cd606460016148ee90919063ffffffff16565b965060019550600088600301541415156148235761480d6001546147ff60648b600301546148ee90919063ffffffff16565b61492690919063ffffffff16565b94506000851161481e576001614820565b845b94505b614836868861492690919063ffffffff16565b935061484d612710856148b990919063ffffffff16565b925061487f620d2f006148718a600101548b600201546148d590919063ffffffff16565b61492690919063ffffffff16565b915061489088600001548385614651565b90506148a98860000154826148d590919063ffffffff16565b9850505050505050505092915050565b600081830190508281101515156148cc57fe5b80905092915050565b60008282111515156148e357fe5b818303905092915050565b6000808314156149015760009050614920565b818302905081838281151561491257fe5b0414151561491c57fe5b8090505b92915050565b6000818381151561493357fe5b04905092915050565b600080600080849250600091505b8651821015614ac857868281518110151561496157fe5b906020019060200201519050806000191683600019161015614a1e5782816040516020018083600019166000191681526020018260001916600019168152602001925050506040516020818303038152906040526040518082805190602001908083835b6020831015156149ea57805182526020820191506020810190506020830392506149c5565b6001836020036101000a03801982511681845116808217855250505050505090500191505060405180910390209250614abb565b80836040516020018083600019166000191681526020018260001916600019168152602001925050506040516020818303038152906040526040518082805190602001908083835b602083101515614a8b5780518252602082019150602081019050602083039250614a66565b6001836020036101000a038019825116818451168082178552505050505050905001915050604051809103902092505b818060010192505061494a565b856000191683600019161493505050509392505050565b600080600090505b6020811015614bb1576008810284848301815181101515614b0457fe5b9060200101517f010000000000000000000000000000000000000000000000000000000000000090047f0100000000000000000000000000000000000000000000000000000000000000027effffffffffffffffffffffffffffffffffffffffffffffffffffffffffffff19167fff0000000000000000000000000000000000000000000000000000000000000060010216600019169060020a9004821891508080600101915050614ae7565b8191505092915050565b608060405190810160405280600081526020016000815260200160008152602001600081525090565b815481835581811115614c1157600402816004028360005260206000209182019101614c109190614c16565b5b505050565b614c5291905b80821115614c4e5760008082016000905560018201600090556002820160009055600382016000905550600401614c1c565b5090565b905600a165627a7a72305820cc5c066baa32fc7a3442eafe8d2610435cd60bcaa4593b2c076a12db74fa60590029",
  "source": "pragma solidity ^0.4.23;\nimport \"./UTXORedeemableToken.sol\";\n\n\ncontract StakeableToken is UTXORedeemableToken {\n\n  event Mint(address indexed _address, uint _reward);\n\n  uint256 public totalBtcCirculationAtFork;\n  uint256 public totalStakedCoins;\n  uint256 public constant interestRatePercent = 1;\n\n  struct StakeStruct {\n    uint256 stakeAmount;\n    uint256 stakeTime;\n    uint256 unlockTime;\n    uint256 totalStakedCoinsAtStart;\n  }\n\n  mapping(address => StakeStruct[]) public staked;\n\n  /************************\n  *start utility functions*\n  ************************/\n\n  function getUserStakes(address _staker)\n    public\n    view\n    returns (uint256[], uint256[], uint256[], uint256[])\n  {\n    uint256 _stakesLength = staked[_staker].length;\n    uint256[] memory _stakeAmount = new uint256[](_stakesLength);\n    uint256[] memory _stakeTime = new uint256[](_stakesLength);\n    uint256[] memory _unlockTime = new uint256[](_stakesLength);\n    uint256[] memory _totalStakedCoinsAtStart = new uint256[](_stakesLength);\n\n    for (uint256 _i = 0; _i < _stakesLength; _i++) {\n      StakeStruct storage stake = staked[_staker][_i];\n      _stakeAmount[_i] = stake.stakeAmount;\n      _stakeTime[_i] = stake.stakeTime;\n      _unlockTime[_i] = stake.unlockTime;\n      _totalStakedCoinsAtStart[_i] = stake.totalStakedCoinsAtStart;\n    }\n\n    return (_stakeAmount, _stakeTime, _unlockTime, _totalStakedCoinsAtStart);\n  }\n\n  function getWeeksSinceLaunch()\n    public\n    view\n    returns (uint256)\n  {\n    return block.timestamp > launchTime \n      ? block.timestamp.sub(launchTime).div(7 days) \n      : 0;\n  }\n\n  function isDuringBonusPeriod()\n    public\n    view\n    returns (bool)\n  {\n    return getWeeksSinceLaunch() <= 50;\n  }\n\n  /** \n    @dev Moves last item in array to location of item to be removed,\n    overwriting array item. Shortens array length by 1, removing now\n    duplicate item at end of array.\n    @param _staker staker address for accessing array\n    @param _stakeIndex index of the item to delete\n  */\n  function removeArrayEntry(\n    address _staker,\n    uint256 _stakeIndex\n  )\n    public\n  {\n    StakeStruct[] storage _stakedArray = staked[_staker];\n    // set last item to index of item we want to get rid of\n    _stakedArray[_stakeIndex] = _stakedArray[_stakedArray.length.sub(1)];\n    // remove last item in array now that safely copied to index of deleted item\n    _stakedArray.length = _stakedArray.length.sub(1);\n  }\n\n  // TODO: HEAVILY test this in order to ensure that there are no integer overflows\n  /**\n    @dev compound groups up compounding periods by 30 in order to avoid  \n    uint overflows when taking (100 + rate) ** periods. Accuracy is also brought by\n    10 decimals in order to avoid uint overflows when \n    taking compounded * ((100  + rate) ** periods).\n\n    @param _principle base amount being compounded\n    @param _periods amount of periods to compound principle\n    @param _rate rate given as uint percent \n  */\n  function compound(\n    uint256 _principle,\n    uint256 _periods,\n    uint256 _rate\n  )\n    public\n    pure\n    returns (uint256)\n  {\n    uint256 _maxGroupPeriods = 10;\n    uint256 _remainingPeriods = _periods % _maxGroupPeriods;\n    uint256 _groupings = _periods.div(_maxGroupPeriods);\n    uint256 _compounded = _principle.div(1e10);\n\n    for(uint256 _i = 0; _i < _groupings; _i = _i.add(1)) {\n      _compounded = _compounded\n        .mul(_rate ** _maxGroupPeriods)\n        .div(1e4 ** _maxGroupPeriods);\n    }\n\n    if (_remainingPeriods != 0) {\n      _compounded = _compounded\n        .mul(_rate ** _remainingPeriods)\n        .div(1e4 ** _remainingPeriods);\n    }\n\n    return _compounded.mul(1e10);\n  }\n\n  function calculateStakingRewards(\n    address _staker,\n    uint256 _stakeIndex\n  ) \n    public \n    view\n    returns (uint256)\n  {\n    StakeStruct storage _stake = staked[_staker][_stakeIndex];\n\n    // raise by 100 in order to adjust with scaler\n    uint256 _interestRateTimesHundred = interestRatePercent.mul(100);\n\n    // default _scaler to 1\n    uint256 _scaler = 1;\n    // calculate percent of staked coins vs totalSupply to use for interest rate reduction\n    if (_stake.totalStakedCoinsAtStart != 0) {\n      uint256 _scalerCandidate = _stake.totalStakedCoinsAtStart\n        .mul(100)\n        .div(totalSupply_);\n      \n      _scalerCandidate = _scalerCandidate > 0 ? _scalerCandidate : 1;\n    }\n\n    // reduce interest rate by scaler\n    uint256 _scaledInterestRate = _interestRateTimesHundred.div(_scaler);\n    // bring up by 1e4 in order to get an accurate percent\n    uint256 _interestRate = _scaledInterestRate.add(1e4);\n    // Calculate Periods\n    uint256 _periods = _stake.unlockTime\n      .sub(_stake.stakeTime)\n      .div(10 days);\n    // Compound\n    uint256 _compounded = compound(\n      _stake.stakeAmount, \n      _periods, \n      _interestRate\n    );\n\n    // Calculate final staking rewards with time bonus\n    return _compounded.sub(_stake.stakeAmount);\n  }\n\n  function calculateWeAreAllSatoshiRewards(\n    uint256 _stakeTime,\n    uint256 _unlockTime\n  ) \n    public \n    view \n    returns (uint256)\n  {\n    uint256 _rewards = 0;\n    /* Calculate what week stake was opened */\n    uint256 _startWeek = _stakeTime\n      .sub(launchTime)\n      .div(7 days);\n\n    uint256 _endWeek = _unlockTime\n      .sub(launchTime)\n      .div(7 days);\n\n    uint256 _rewardableEndWeek = _endWeek > 50 ? 50 : _endWeek;\n\n    // Award 2% of unclaimed coins at end of every week\n    for (uint256 _i = _startWeek; _i < _rewardableEndWeek; _i++) {\n      _rewards = _rewards.add(unclaimedCoinsByWeek[_i].div(50));\n    }\n    return _rewards;\n  }\n\n  // TODO: double check that we want to make this public... if so... is it ok that\n  // it shows non zero amounts for users outside of bonus period?\n  function calculateViralRewards(\n    uint256 _stakeAmount\n  ) \n    public \n    view \n    returns (uint256)\n  {\n    // Add bonus percentage to _rewards from 0-10% based on adoption\n    return _stakeAmount\n      .mul(totalRedeemed)\n      .div(totalBtcCirculationAtFork)\n      .div(10);\n  }\n\n  function calculateCritMassRewards(\n    uint256 _stakeAmount\n  ) \n    public \n    view \n    returns (uint256)\n  {\n    // Add bonus percentage to _rewards from 0-10% based on adoption\n    return _stakeAmount\n      .mul(totalRedeemed)\n      .div(maximumRedeemable)\n      .div(10);\n  }\n\n  /**\n    @dev Additional rewards should only be given within first 50 weeks.\n   */\n  function calculateAdditionalRewards(\n    address _staker,\n    uint256 _stakeIndex\n  ) \n    public \n    view \n    returns (uint256)\n  {\n    StakeStruct storage _stake = staked[_staker][_stakeIndex];\n    // only give rewards if within first 50 weeks\n    if (_stake.stakeTime.sub(launchTime).div(7 days) <= 50) {\n      uint256 _weAreAllSatoshiRewards = calculateWeAreAllSatoshiRewards(\n        _stake.stakeTime,\n        _stake.unlockTime\n      );\n      uint256 _viralRewards = calculateViralRewards(_stake.stakeAmount);\n      uint256 _critMassRewards = calculateCritMassRewards(_stake.stakeAmount);\n      uint256 _rewards = _weAreAllSatoshiRewards\n        .add(_viralRewards)\n        .add(_critMassRewards);\n\n      return _rewards;\n    } else {\n      return 0;\n    }\n\n    return 0;\n  }\n\n  /**\n    @notice available for use directly when there are too many stakes to do in a single operation\n  */\n  function getStakedAtIndexes(\n    address _staker,\n    uint256 _startIndex,\n    uint256 _endIndex\n  )\n    public\n    view\n    returns (uint256)\n  {\n    uint256 _maxIndex = staked[_staker].length - 1;\n    require(_endIndex <= _maxIndex);\n    require(_startIndex >= 0);\n    uint256 _totalStaked;\n    // ensure that there are stakes to be retreived\n    if (staked[_staker].length == 0) {\n      return 0;\n    }\n\n    // return single stake if indexes are the same\n    if( _startIndex == _endIndex) {\n      return staked[_staker][0].stakeAmount;\n    }\n\n    for (uint256 _i = _startIndex; _i <= _endIndex; _i++) {\n      _totalStaked = _totalStaked.add(staked[_staker][_i].stakeAmount);\n    }\n\n    return _totalStaked;\n  }\n\n  /**\n    @notice This function might fail if there are too many stakes for a user. Use getStakedAtIndexes if this is the case.\n  */\n  function getTotalUserStaked(\n    address _staker\n  )\n    public\n    view\n    returns (uint256)\n  {\n    return getStakedAtIndexes(_staker, 0, staked[_staker].length - 1);\n  }\n\n  function calculateSingleStakePlusRewards(\n    address _staker,\n    uint256 _stakeIndex\n  )\n    public\n    view\n    returns (uint256)\n  {\n    uint256 _stake = staked[_staker][_stakeIndex].stakeAmount;\n    \n    if (block.timestamp > staked[_staker][_stakeIndex].unlockTime) {\n      return _stake.add(\n          calculateAdditionalRewards(\n            _staker,\n            _stakeIndex\n          )\n      );\n    } else {\n      return _stake;\n    }\n  }\n\n  /**********************\n  *end utility functions*\n  **********************/\n\n  /*********************\n  *start user functions*\n  *********************/\n\n  /** \n    @notice start a stake in order to claim rewards at later unlock time.\n    Additional rewards only payable within first 50 weeks.\n    @param _value amount of tokens to lock\n    @param _unlockTime unix timestamp date for when to unlock tokens\n  */\n  function startStake(\n    uint256 _value, \n    uint256 _unlockTime\n  ) \n    external\n    returns (bool)\n  {\n    address _staker = msg.sender;\n\n    // Make sure staker has enough funds\n    require(balances[_staker] >= _value);\n    // ensure unlockTime is in the future\n    require(_unlockTime >= block.timestamp.add(10 days));\n    // ensure that unlock time is not more than approx 10 years\n    require(_unlockTime < block.timestamp.add(10 * 366 days));\n    // Check if weekly data needs to be updated\n    storeWeekUnclaimed();\n\n    // Remove balance from sender\n    balances[_staker] = balances[_staker].sub(_value);\n    balances[address(this)] = balances[address(this)].add(_value);\n\n    // Create Stake\n    staked[_staker].push(\n      StakeStruct(\n        _value, \n        block.timestamp, \n        _unlockTime, \n        totalStakedCoins\n      )\n    );\n\n    // ensure that the new stake will return interest\n    require(calculateStakingRewards(_staker, staked[_staker].length.sub(1)) > 0);\n\n    // Add staked coins to global stake counter\n    totalStakedCoins = totalStakedCoins.add(_value);\n\n    return true;\n  }\n  \n  /**\n    @notice Used for claiming a single stake. Another user can claim a stake on another \n    user's behalf. All rewards and original stake go to original staker.\n    Useful for if _staker does not have any gas and someone else is claiming for them.\n    @param _staker user address for who is making the claim\n    @param _stakeIndex location of the stake to claim\n  */\n  function claimSingleStakingReward(\n    address _staker,\n    uint256 _stakeIndex\n  )\n    public\n    returns (bool)\n  {\n    StakeStruct memory _stake = staked[_staker][_stakeIndex]; \n    require(block.timestamp >= _stake.unlockTime);\n    // Check if weekly data needs to be updated\n    storeWeekUnclaimed();\n\n    uint256 _startingStake = _stake.stakeAmount;\n    // Calculate Rewards\n    uint256 _stakingRewards = calculateStakingRewards(\n      _staker, \n      _stakeIndex\n    );\n    uint256 _additionalRewards = calculateAdditionalRewards(\n      _staker,\n      _stakeIndex\n    );\n    uint256 _rewards = _startingStake\n      .add(_stakingRewards)\n      .add(_additionalRewards);\n    \n    // Remove StakedCoins from global counter\n    totalStakedCoins = totalStakedCoins\n      .sub(_startingStake);\n\n    // Sub staked coins from contract\n    balances[address(this)] = balances[address(this)]\n      .sub(_startingStake);\n    \n    // Add staked coins to staker\n    balances[_staker] = balances[_staker]\n      .add(_rewards);\n\n    // Award rewards to origin contract\n    balances[origin] = balances[origin]\n      .add(_additionalRewards);\n\n    emit Transfer(\n      address(this), \n      _staker, \n      _stake.stakeAmount\n    );\n\n    // Increase supply\n    totalSupply_ = totalSupply_.add(_additionalRewards.mul(2));\n\n    emit Mint(_staker, _additionalRewards);\n    emit Mint(origin, _additionalRewards);\n\n    // Remove Stake\n    removeArrayEntry(_staker, _stakeIndex);\n\n    return true;\n  }\n\n  // TODO: make this private\n  /**\n    @notice Used for claiming multiple stakes. Another user can \n    claim a stake on another user's behalf. All rewards and original stake go to original staker.\n    Useful for if _staker does not have any gas and someone else is claiming for them.\n    @param _staker user address for who is making the claim\n    @param _startIndex claim stakes from this location\n    @param _endIndex claim stakes up to this location\n  */\n  function claimMultipleStakingRewards( // this is no longer truthful when using removeArrayEntry... hm....\n    address _staker,\n    uint256 _startIndex,\n    uint256 _endIndex\n  ) \n    public \n    returns (bool)\n  {\n    // ensure that indexes are in array bounds\n    require(_startIndex <= _endIndex);\n    require(_endIndex < staked[_staker].length);\n\n    uint256 _i = _startIndex;\n    while (_i <= _endIndex) {\n      // Check if stake has matured\n      // all stakes can be claimed using 0 index due to arrays reorganizing every time one is removed\n      if (block.timestamp >= staked[_staker][0].unlockTime) {\n        claimSingleStakingReward(_staker, 0);\n        _i = _i.add(1);\n      }\n    }\n\n    return true;\n  }\n\n  function claimAllStakingRewards(\n    address _staker\n  )\n    external\n    returns (bool)\n  {\n    uint256 _stakeArrayLength = staked[_staker].length;\n    uint256 _processedCount = 0;\n    uint256 _cursor = 0;\n    if (_stakeArrayLength == 0) {\n      return false;\n    }\n\n    while (_processedCount < _stakeArrayLength) {\n      _cursor = _cursor.add(1) > staked[_staker].length\n        ? 0\n        : _cursor;\n\n      if (block.timestamp >= staked[_staker][_cursor].unlockTime) {\n        claimSingleStakingReward(_staker, _cursor);\n      }\n\n      _processedCount = _processedCount.add(1);\n      _cursor = _cursor.add(1);\n    }\n\n    return true;\n  }\n\n  /********************\n  *start end functions*\n  ********************/\n}\n",
  "sourcePath": "/Users/tovarishfin/dev/bhx/bhx-contracts/contracts/StakeableToken.sol",
  "compiler": {
    "name": "solc",
    "version": "0.4.24+commit.e67f0147.Emscripten.clang"
  },
  "schemaVersion": "2.0.1",
  "updatedAt": "2018-08-06T18:46:49.629Z"
}