{
  "contractName": "StakeableToken",
  "abi": [
    {
      "constant": true,
      "inputs": [
        {
          "name": "_hash",
          "type": "bytes32"
        },
        {
          "name": "_v",
          "type": "uint8"
        },
        {
          "name": "_r",
          "type": "bytes32"
        },
        {
          "name": "_s",
          "type": "bytes32"
        },
        {
          "name": "_expected",
          "type": "address"
        },
        {
          "name": "_addPrefix",
          "type": "bool"
        }
      ],
      "name": "validateSignature",
      "outputs": [
        {
          "name": "",
          "type": "bool"
        }
      ],
      "payable": false,
      "stateMutability": "pure",
      "type": "function"
    },
    {
      "constant": true,
      "inputs": [],
      "name": "maximumRedeemable",
      "outputs": [
        {
          "name": "",
          "type": "uint256"
        }
      ],
      "payable": false,
      "stateMutability": "view",
      "type": "function"
    },
    {
      "constant": false,
      "inputs": [
        {
          "name": "_spender",
          "type": "address"
        },
        {
          "name": "_value",
          "type": "uint256"
        }
      ],
      "name": "approve",
      "outputs": [
        {
          "name": "",
          "type": "bool"
        }
      ],
      "payable": false,
      "stateMutability": "nonpayable",
      "type": "function"
    },
    {
      "constant": true,
      "inputs": [],
      "name": "totalSupply",
      "outputs": [
        {
          "name": "",
          "type": "uint256"
        }
      ],
      "payable": false,
      "stateMutability": "view",
      "type": "function"
    },
    {
      "constant": false,
      "inputs": [
        {
          "name": "_from",
          "type": "address"
        },
        {
          "name": "_to",
          "type": "address"
        },
        {
          "name": "_value",
          "type": "uint256"
        }
      ],
      "name": "transferFrom",
      "outputs": [
        {
          "name": "",
          "type": "bool"
        }
      ],
      "payable": false,
      "stateMutability": "nonpayable",
      "type": "function"
    },
    {
      "constant": true,
      "inputs": [
        {
          "name": "_satoshis",
          "type": "uint256"
        }
      ],
      "name": "getRedeemAmount",
      "outputs": [
        {
          "name": "",
          "type": "uint256"
        }
      ],
      "payable": false,
      "stateMutability": "view",
      "type": "function"
    },
    {
      "constant": true,
      "inputs": [
        {
          "name": "_pubKey",
          "type": "bytes"
        }
      ],
      "name": "pubKeyToEthereumAddress",
      "outputs": [
        {
          "name": "",
          "type": "address"
        }
      ],
      "payable": false,
      "stateMutability": "pure",
      "type": "function"
    },
    {
      "constant": false,
      "inputs": [
        {
          "name": "_spender",
          "type": "address"
        },
        {
          "name": "_subtractedValue",
          "type": "uint256"
        }
      ],
      "name": "decreaseApproval",
      "outputs": [
        {
          "name": "",
          "type": "bool"
        }
      ],
      "payable": false,
      "stateMutability": "nonpayable",
      "type": "function"
    },
    {
      "constant": true,
      "inputs": [
        {
          "name": "_owner",
          "type": "address"
        }
      ],
      "name": "balanceOf",
      "outputs": [
        {
          "name": "",
          "type": "uint256"
        }
      ],
      "payable": false,
      "stateMutability": "view",
      "type": "function"
    },
    {
      "constant": false,
      "inputs": [
        {
          "name": "_satoshis",
          "type": "uint256"
        },
        {
          "name": "_proof",
          "type": "bytes32[]"
        },
        {
          "name": "_pubKey",
          "type": "bytes"
        },
        {
          "name": "_isCompressed",
          "type": "bool"
        },
        {
          "name": "_v",
          "type": "uint8"
        },
        {
          "name": "_r",
          "type": "bytes32"
        },
        {
          "name": "_s",
          "type": "bytes32"
        }
      ],
      "name": "redeemUtxo",
      "outputs": [
        {
          "name": "_tokensRedeemed",
          "type": "uint256"
        }
      ],
      "payable": false,
      "stateMutability": "nonpayable",
      "type": "function"
    },
    {
      "constant": true,
      "inputs": [],
      "name": "launchTime",
      "outputs": [
        {
          "name": "",
          "type": "uint256"
        }
      ],
      "payable": false,
      "stateMutability": "view",
      "type": "function"
    },
    {
      "constant": true,
      "inputs": [
        {
          "name": "_merkleLeafHash",
          "type": "bytes32"
        },
        {
          "name": "_proof",
          "type": "bytes32[]"
        }
      ],
      "name": "canRedeemUtxoHash",
      "outputs": [
        {
          "name": "",
          "type": "bool"
        }
      ],
      "payable": false,
      "stateMutability": "view",
      "type": "function"
    },
    {
      "constant": true,
      "inputs": [],
      "name": "totalBTCCirculationAtFork",
      "outputs": [
        {
          "name": "",
          "type": "uint256"
        }
      ],
      "payable": false,
      "stateMutability": "view",
      "type": "function"
    },
    {
      "constant": true,
      "inputs": [
        {
          "name": "",
          "type": "address"
        },
        {
          "name": "",
          "type": "uint256"
        }
      ],
      "name": "staked",
      "outputs": [
        {
          "name": "stakeAmount",
          "type": "uint256"
        },
        {
          "name": "stakeTime",
          "type": "uint256"
        },
        {
          "name": "unlockTime",
          "type": "uint256"
        },
        {
          "name": "stakedCoinsAtStart",
          "type": "uint256"
        }
      ],
      "payable": false,
      "stateMutability": "view",
      "type": "function"
    },
    {
      "constant": false,
      "inputs": [],
      "name": "storeWeekUnclaimed",
      "outputs": [],
      "payable": false,
      "stateMutability": "nonpayable",
      "type": "function"
    },
    {
      "constant": true,
      "inputs": [],
      "name": "origin",
      "outputs": [
        {
          "name": "",
          "type": "address"
        }
      ],
      "payable": false,
      "stateMutability": "view",
      "type": "function"
    },
    {
      "constant": true,
      "inputs": [],
      "name": "lastUpdatedWeek",
      "outputs": [
        {
          "name": "",
          "type": "uint256"
        }
      ],
      "payable": false,
      "stateMutability": "view",
      "type": "function"
    },
    {
      "constant": false,
      "inputs": [
        {
          "name": "_to",
          "type": "address"
        },
        {
          "name": "_value",
          "type": "uint256"
        }
      ],
      "name": "transfer",
      "outputs": [
        {
          "name": "",
          "type": "bool"
        }
      ],
      "payable": false,
      "stateMutability": "nonpayable",
      "type": "function"
    },
    {
      "constant": false,
      "inputs": [
        {
          "name": "_satoshis",
          "type": "uint256"
        },
        {
          "name": "_proof",
          "type": "bytes32[]"
        },
        {
          "name": "_pubKey",
          "type": "bytes"
        },
        {
          "name": "_isCompressed",
          "type": "bool"
        },
        {
          "name": "_v",
          "type": "uint8"
        },
        {
          "name": "_r",
          "type": "bytes32"
        },
        {
          "name": "_s",
          "type": "bytes32"
        },
        {
          "name": "_referrer",
          "type": "address"
        }
      ],
      "name": "redeemReferredUtxo",
      "outputs": [
        {
          "name": "_tokensRedeemed",
          "type": "uint256"
        }
      ],
      "payable": false,
      "stateMutability": "nonpayable",
      "type": "function"
    },
    {
      "constant": true,
      "inputs": [
        {
          "name": "_proof",
          "type": "bytes32[]"
        },
        {
          "name": "_merkleLeafHash",
          "type": "bytes32"
        }
      ],
      "name": "verifyProof",
      "outputs": [
        {
          "name": "",
          "type": "bool"
        }
      ],
      "payable": false,
      "stateMutability": "view",
      "type": "function"
    },
    {
      "constant": true,
      "inputs": [
        {
          "name": "_addr",
          "type": "address"
        },
        {
          "name": "_pubKey",
          "type": "bytes"
        },
        {
          "name": "_v",
          "type": "uint8"
        },
        {
          "name": "_r",
          "type": "bytes32"
        },
        {
          "name": "_s",
          "type": "bytes32"
        }
      ],
      "name": "ecdsaVerify",
      "outputs": [
        {
          "name": "",
          "type": "bool"
        }
      ],
      "payable": false,
      "stateMutability": "pure",
      "type": "function"
    },
    {
      "constant": true,
      "inputs": [
        {
          "name": "_originalAddress",
          "type": "bytes20"
        },
        {
          "name": "_satoshis",
          "type": "uint256"
        },
        {
          "name": "_proof",
          "type": "bytes32[]"
        }
      ],
      "name": "canRedeemUtxo",
      "outputs": [
        {
          "name": "",
          "type": "bool"
        }
      ],
      "payable": false,
      "stateMutability": "view",
      "type": "function"
    },
    {
      "constant": true,
      "inputs": [],
      "name": "stakedCoins",
      "outputs": [
        {
          "name": "",
          "type": "uint256"
        }
      ],
      "payable": false,
      "stateMutability": "view",
      "type": "function"
    },
    {
      "constant": false,
      "inputs": [
        {
          "name": "_spender",
          "type": "address"
        },
        {
          "name": "_addedValue",
          "type": "uint256"
        }
      ],
      "name": "increaseApproval",
      "outputs": [
        {
          "name": "",
          "type": "bool"
        }
      ],
      "payable": false,
      "stateMutability": "nonpayable",
      "type": "function"
    },
    {
      "constant": true,
      "inputs": [
        {
          "name": "_owner",
          "type": "address"
        },
        {
          "name": "_spender",
          "type": "address"
        }
      ],
      "name": "allowance",
      "outputs": [
        {
          "name": "",
          "type": "uint256"
        }
      ],
      "payable": false,
      "stateMutability": "view",
      "type": "function"
    },
    {
      "constant": true,
      "inputs": [
        {
          "name": "_pubKey",
          "type": "bytes"
        },
        {
          "name": "_isCompressed",
          "type": "bool"
        }
      ],
      "name": "pubKeyToBitcoinAddress",
      "outputs": [
        {
          "name": "",
          "type": "bytes20"
        }
      ],
      "payable": false,
      "stateMutability": "pure",
      "type": "function"
    },
    {
      "constant": true,
      "inputs": [],
      "name": "rootUTXOMerkleTreeHash",
      "outputs": [
        {
          "name": "",
          "type": "bytes32"
        }
      ],
      "payable": false,
      "stateMutability": "view",
      "type": "function"
    },
    {
      "constant": true,
      "inputs": [],
      "name": "totalRedeemed",
      "outputs": [
        {
          "name": "",
          "type": "uint256"
        }
      ],
      "payable": false,
      "stateMutability": "view",
      "type": "function"
    },
    {
      "anonymous": false,
      "inputs": [
        {
          "indexed": true,
          "name": "_address",
          "type": "address"
        },
        {
          "indexed": false,
          "name": "_reward",
          "type": "uint256"
        }
      ],
      "name": "Mint",
      "type": "event"
    },
    {
      "anonymous": false,
      "inputs": [
        {
          "indexed": true,
          "name": "owner",
          "type": "address"
        },
        {
          "indexed": true,
          "name": "spender",
          "type": "address"
        },
        {
          "indexed": false,
          "name": "value",
          "type": "uint256"
        }
      ],
      "name": "Approval",
      "type": "event"
    },
    {
      "anonymous": false,
      "inputs": [
        {
          "indexed": true,
          "name": "from",
          "type": "address"
        },
        {
          "indexed": true,
          "name": "to",
          "type": "address"
        },
        {
          "indexed": false,
          "name": "value",
          "type": "uint256"
        }
      ],
      "name": "Transfer",
      "type": "event"
    },
    {
      "constant": false,
      "inputs": [
        {
          "name": "_value",
          "type": "uint256"
        },
        {
          "name": "_unlockTime",
          "type": "uint256"
        }
      ],
      "name": "startStake",
      "outputs": [],
      "payable": false,
      "stateMutability": "nonpayable",
      "type": "function"
    },
    {
      "constant": true,
      "inputs": [
        {
          "name": "staker",
          "type": "address"
        }
      ],
      "name": "getCurrentStaked",
      "outputs": [
        {
          "name": "stakes",
          "type": "uint256"
        }
      ],
      "payable": false,
      "stateMutability": "view",
      "type": "function"
    },
    {
      "constant": false,
      "inputs": [
        {
          "name": "staker",
          "type": "address"
        }
      ],
      "name": "claimStakingRewards",
      "outputs": [],
      "payable": false,
      "stateMutability": "nonpayable",
      "type": "function"
    }
  ],
  "bytecode": "0x60806040526000600555600060095534801561001a57600080fd5b50613d678061002a6000396000f30060806040526004361061018b576000357c0100000000000000000000000000000000000000000000000000000000900463ffffffff1680630867c0ad1461019057806308b4312b1461022e578063095ea7b314610259578063128bfcae146102be57806318160ddd146102f557806323b872dd146103205780632c3ee88c146103a5578063443de10c146103e65780635418796c1461043d57806366188463146104e657806370a082311461054b578063753bf8cd146105a2578063790ca413146106a157806381cd84b9146106cc57806385fcd90b146107585780638f169816146107835780639283032c146107f9578063938b5f321461081057806396bb1fef146108675780639d65b892146108aa578063a9059cbb146108d5578063b1ccf1931461093a578063b80ac7df14610a00578063ce267b5514610a8c578063cfc2334e14610b56578063d0668b3c14610bf7578063d73dd62314610c22578063dd62ed3e14610c87578063e073ef6914610cfe578063e6997f6d14610da5578063f35dad4014610dd8575b600080fd5b34801561019c57600080fd5b506102146004803603810190808035600019169060200190929190803560ff16906020019092919080356000191690602001909291908035600019169060200190929190803573ffffffffffffffffffffffffffffffffffffffff169060200190929190803515159060200190929190505050610e03565b604051808215151515815260200191505060405180910390f35b34801561023a57600080fd5b50610243610fee565b6040518082815260200191505060405180910390f35b34801561026557600080fd5b506102a4600480360381019080803573ffffffffffffffffffffffffffffffffffffffff16906020019092919080359060200190929190505050610ff4565b604051808215151515815260200191505060405180910390f35b3480156102ca57600080fd5b506102f360048036038101908080359060200190929190803590602001909291905050506110e6565b005b34801561030157600080fd5b5061030a6113b6565b6040518082815260200191505060405180910390f35b34801561032c57600080fd5b5061038b600480360381019080803573ffffffffffffffffffffffffffffffffffffffff169060200190929190803573ffffffffffffffffffffffffffffffffffffffff169060200190929190803590602001909291905050506113c0565b604051808215151515815260200191505060405180910390f35b3480156103b157600080fd5b506103d06004803603810190808035906020019092919050505061177a565b6040518082815260200191505060405180910390f35b3480156103f257600080fd5b50610427600480360381019080803573ffffffffffffffffffffffffffffffffffffffff169060200190929190505050611af4565b6040518082815260200191505060405180910390f35b34801561044957600080fd5b506104a4600480360381019080803590602001908201803590602001908080601f0160208091040260200160405190810160405280939291908181526020018383808284378201915050505050509192919290505050611d76565b604051808273ffffffffffffffffffffffffffffffffffffffff1673ffffffffffffffffffffffffffffffffffffffff16815260200191505060405180910390f35b3480156104f257600080fd5b50610531600480360381019080803573ffffffffffffffffffffffffffffffffffffffff16906020019092919080359060200190929190505050611dfc565b604051808215151515815260200191505060405180910390f35b34801561055757600080fd5b5061058c600480360381019080803573ffffffffffffffffffffffffffffffffffffffff16906020019092919050505061208d565b6040518082815260200191505060405180910390f35b3480156105ae57600080fd5b5061068b6004803603810190808035906020019092919080359060200190820180359060200190808060200260200160405190810160405280939291908181526020018383602002808284378201915050505050509192919290803590602001908201803590602001908080601f0160208091040260200160405190810160405280939291908181526020018383808284378201915050505050509192919290803515159060200190929190803560ff169060200190929190803560001916906020019092919080356000191690602001909291905050506120d5565b6040518082815260200191505060405180910390f35b3480156106ad57600080fd5b506106b6612379565b6040518082815260200191505060405180910390f35b3480156106d857600080fd5b5061073e60048036038101908080356000191690602001909291908035906020019082018035906020019080806020026020016040519081016040528093929190818152602001838360200280828437820191505050505050919291929050505061237f565b604051808215151515815260200191505060405180910390f35b34801561076457600080fd5b5061076d6123ca565b6040518082815260200191505060405180910390f35b34801561078f57600080fd5b506107ce600480360381019080803573ffffffffffffffffffffffffffffffffffffffff169060200190929190803590602001909291905050506123d0565b6040518085815260200184815260200183815260200182815260200194505050505060405180910390f35b34801561080557600080fd5b5061080e61241c565b005b34801561081c57600080fd5b506108256124b6565b604051808273ffffffffffffffffffffffffffffffffffffffff1673ffffffffffffffffffffffffffffffffffffffff16815260200191505060405180910390f35b34801561087357600080fd5b506108a8600480360381019080803573ffffffffffffffffffffffffffffffffffffffff1690602001909291905050506124dc565b005b3480156108b657600080fd5b506108bf612c7f565b6040518082815260200191505060405180910390f35b3480156108e157600080fd5b50610920600480360381019080803573ffffffffffffffffffffffffffffffffffffffff16906020019092919080359060200190929190505050612c85565b604051808215151515815260200191505060405180910390f35b34801561094657600080fd5b506109ea60048036038101908080359060200190929190803590602001908201803590602001919091929391929390803590602001908201803590602001919091929391929390803515159060200190929190803560ff16906020019092919080356000191690602001909291908035600019169060200190929190803573ffffffffffffffffffffffffffffffffffffffff169060200190929190505050612ea4565b6040518082815260200191505060405180910390f35b348015610a0c57600080fd5b50610a72600480360381019080803590602001908201803590602001908080602002602001604051908101604052809392919081815260200183836020028082843782019150505050505091929192908035600019169060200190929190505050612ffd565b604051808215151515815260200191505060405180910390f35b348015610a9857600080fd5b50610b3c600480360381019080803573ffffffffffffffffffffffffffffffffffffffff169060200190929190803590602001908201803590602001908080601f0160208091040260200160405190810160405280939291908181526020018383808284378201915050505050509192919290803560ff16906020019092919080356000191690602001909291908035600019169060200190929190505050613014565b604051808215151515815260200191505060405180910390f35b348015610b6257600080fd5b50610bdd60048036038101908080356bffffffffffffffffffffffff191690602001909291908035906020019092919080359060200190820180359060200190808060200260200160405190810160405280939291908181526020018383602002808284378201915050505050509192919290505050613133565b604051808215151515815260200191505060405180910390f35b348015610c0357600080fd5b50610c0c6131f4565b6040518082815260200191505060405180910390f35b348015610c2e57600080fd5b50610c6d600480360381019080803573ffffffffffffffffffffffffffffffffffffffff169060200190929190803590602001909291905050506131fa565b604051808215151515815260200191505060405180910390f35b348015610c9357600080fd5b50610ce8600480360381019080803573ffffffffffffffffffffffffffffffffffffffff169060200190929190803573ffffffffffffffffffffffffffffffffffffffff1690602001909291905050506133f6565b6040518082815260200191505060405180910390f35b348015610d0a57600080fd5b50610d71600480360381019080803590602001908201803590602001908080601f016020809104026020016040519081016040528093929190818152602001838380828437820191505050505050919291929080351515906020019092919050505061347d565b60405180826bffffffffffffffffffffffff19166bffffffffffffffffffffffff1916815260200191505060405180910390f35b348015610db157600080fd5b50610dba61383c565b60405180826000191660001916815260200191505060405180910390f35b348015610de457600080fd5b50610ded613842565b6040518082815260200191505060405180910390f35b6000806060831515610e1757889150610f31565b6040805190810160405280601c81526020017f19457468657265756d205369676e6564204d6573736167653a0a333200000000815250905080896040516020018083805190602001908083835b602083101515610e895780518252602082019150602081019050602083039250610e64565b6001836020036101000a0380198251168184511680821785525050505050509050018260001916600019168152602001925050506040516020818303038152906040526040518082805190602001908083835b602083101515610f015780518252602082019150602081019050602083039250610edc565b6001836020036101000a038019825116818451168082178552505050505050905001915050604051809103902091505b8473ffffffffffffffffffffffffffffffffffffffff166001838a8a8a604051600081526020016040526040518085600019166000191681526020018460ff1660ff1681526020018360001916600019168152602001826000191660001916815260200194505050505060206040516020810390808403906000865af1158015610fbf573d6000803e3d6000fd5b5050506020604051035173ffffffffffffffffffffffffffffffffffffffff1614925050509695505050505050565b600a5481565b600081600260003373ffffffffffffffffffffffffffffffffffffffff1673ffffffffffffffffffffffffffffffffffffffff16815260200190815260200160002060008573ffffffffffffffffffffffffffffffffffffffff1673ffffffffffffffffffffffffffffffffffffffff168152602001908152602001600020819055508273ffffffffffffffffffffffffffffffffffffffff163373ffffffffffffffffffffffffffffffffffffffff167f8c5be1e5ebec7d5bd14f71427d1e84f3dd0314c0f7b2291e5b200ac8c7c3b925846040518082815260200191505060405180910390a36001905092915050565b6000339050826000808373ffffffffffffffffffffffffffffffffffffffff1673ffffffffffffffffffffffffffffffffffffffff168152602001908152602001600020541015151561113857600080fd5b61114061241c565b611191836000808473ffffffffffffffffffffffffffffffffffffffff1673ffffffffffffffffffffffffffffffffffffffff1681526020019081526020016000205461384890919063ffffffff16565b6000808373ffffffffffffffffffffffffffffffffffffffff1673ffffffffffffffffffffffffffffffffffffffff16815260200190815260200160002081905550611224836000803073ffffffffffffffffffffffffffffffffffffffff1673ffffffffffffffffffffffffffffffffffffffff1681526020019081526020016000205461386190919063ffffffff16565b6000803073ffffffffffffffffffffffffffffffffffffffff1673ffffffffffffffffffffffffffffffffffffffff168152602001908152602001600020819055503073ffffffffffffffffffffffffffffffffffffffff168173ffffffffffffffffffffffffffffffffffffffff167fddf252ad1be2c89b69c2b068fc378daa952ba7f163c4a11628f55a4df523b3ef856040518082815260200191505060405180910390a3600d60008273ffffffffffffffffffffffffffffffffffffffff1673ffffffffffffffffffffffffffffffffffffffff168152602001908152602001600020608060405190810160405280856fffffffffffffffffffffffffffffffff168152602001428152602001848152602001600c5481525090806001815401808255809150509060018203906000526020600020906004020160009091929091909150600082015181600001556020820151816001015560408201518160020155606082015181600301555050506113ab83600c5461386190919063ffffffff16565b600c81905550505050565b6000600154905090565b60008073ffffffffffffffffffffffffffffffffffffffff168373ffffffffffffffffffffffffffffffffffffffff16141515156113fd57600080fd5b6000808573ffffffffffffffffffffffffffffffffffffffff1673ffffffffffffffffffffffffffffffffffffffff16815260200190815260200160002054821115151561144a57600080fd5b600260008573ffffffffffffffffffffffffffffffffffffffff1673ffffffffffffffffffffffffffffffffffffffff16815260200190815260200160002060003373ffffffffffffffffffffffffffffffffffffffff1673ffffffffffffffffffffffffffffffffffffffff1681526020019081526020016000205482111515156114d557600080fd5b611526826000808773ffffffffffffffffffffffffffffffffffffffff1673ffffffffffffffffffffffffffffffffffffffff1681526020019081526020016000205461384890919063ffffffff16565b6000808673ffffffffffffffffffffffffffffffffffffffff1673ffffffffffffffffffffffffffffffffffffffff168152602001908152602001600020819055506115b9826000808673ffffffffffffffffffffffffffffffffffffffff1673ffffffffffffffffffffffffffffffffffffffff1681526020019081526020016000205461386190919063ffffffff16565b6000808573ffffffffffffffffffffffffffffffffffffffff1673ffffffffffffffffffffffffffffffffffffffff1681526020019081526020016000208190555061168a82600260008773ffffffffffffffffffffffffffffffffffffffff1673ffffffffffffffffffffffffffffffffffffffff16815260200190815260200160002060003373ffffffffffffffffffffffffffffffffffffffff1673ffffffffffffffffffffffffffffffffffffffff1681526020019081526020016000205461384890919063ffffffff16565b600260008673ffffffffffffffffffffffffffffffffffffffff1673ffffffffffffffffffffffffffffffffffffffff16815260200190815260200160002060003373ffffffffffffffffffffffffffffffffffffffff1673ffffffffffffffffffffffffffffffffffffffff168152602001908152602001600020819055508273ffffffffffffffffffffffffffffffffffffffff168473ffffffffffffffffffffffffffffffffffffffff167fddf252ad1be2c89b69c2b068fc378daa952ba7f163c4a11628f55a4df523b3ef846040518082815260200191505060405180910390a3600190509392505050565b600080600080600061179a6402540be4008761387d90919063ffffffff16565b9350683635c9adc5dea000008411156118335769152d02c7e14af680000084101561181b57611814640ba43b740061180660096117f860026117ea64174876e8008b61384890919063ffffffff16565b61387d90919063ffffffff16565b6138b590919063ffffffff16565b61386190919063ffffffff16565b9350611832565b61182f6004856138b590919063ffffffff16565b93505b5b426004541061184357600061186e565b61186d62093a8061185f6004544261384890919063ffffffff16565b6138b590919063ffffffff16565b5b925061189761188760028561387d90919063ffffffff16565b606461384890919063ffffffff16565b91506118bf60646118b1848761387d90919063ffffffff16565b6138b590919063ffffffff16565b9050602d8311156118d257809450611aeb565b60208311156119095761190260646118f460658461387d90919063ffffffff16565b6138b590919063ffffffff16565b9450611aeb565b601883111561194057611939606461192b60668461387d90919063ffffffff16565b6138b590919063ffffffff16565b9450611aeb565b601283111561197757611970606461196260678461387d90919063ffffffff16565b6138b590919063ffffffff16565b9450611aeb565b600e8311156119ae576119a7606461199960688461387d90919063ffffffff16565b6138b590919063ffffffff16565b9450611aeb565b600a8311156119e5576119de60646119d060698461387d90919063ffffffff16565b6138b590919063ffffffff16565b9450611aeb565b6007831115611a1c57611a156064611a07606a8461387d90919063ffffffff16565b6138b590919063ffffffff16565b9450611aeb565b6005831115611a5357611a4c6064611a3e606b8461387d90919063ffffffff16565b6138b590919063ffffffff16565b9450611aeb565b6003831115611a8a57611a836064611a75606c8461387d90919063ffffffff16565b6138b590919063ffffffff16565b9450611aeb565b6001831115611ac157611aba6064611aac606d8461387d90919063ffffffff16565b6138b590919063ffffffff16565b9450611aeb565b611ae86064611ada606e8461387d90919063ffffffff16565b6138b590919063ffffffff16565b94505b50505050919050565b60008060005b600d60008573ffffffffffffffffffffffffffffffffffffffff1673ffffffffffffffffffffffffffffffffffffffff16815260200190815260200160002080549050821015611d6c57611bb4600d60008673ffffffffffffffffffffffffffffffffffffffff1673ffffffffffffffffffffffffffffffffffffffff16815260200190815260200160002083815481101515611b9357fe5b9060005260206000209060040201600001548461386190919063ffffffff16565b9250600d60008573ffffffffffffffffffffffffffffffffffffffff1673ffffffffffffffffffffffffffffffffffffffff16815260200190815260200160002082815481101515611c0257fe5b906000526020600020906004020160020154421115611d5f57611cb1600d60008673ffffffffffffffffffffffffffffffffffffffff1673ffffffffffffffffffffffffffffffffffffffff16815260200190815260200160002083815481101515611c6a57fe5b9060005260206000209060040201608060405190810160405290816000820154815260200160018201548152602001600282015481526020016003820154815250506138cb565b9050611d5c611d4d600d60008773ffffffffffffffffffffffffffffffffffffffff1673ffffffffffffffffffffffffffffffffffffffff16815260200190815260200160002084815481101515611d0557fe5b906000526020600020906004020160806040519081016040529081600082015481526020016001820154815260200160028201548152602001600382015481525050836139b3565b8461386190919063ffffffff16565b92505b8180600101925050611afa565b8292505050919050565b600073ffffffffffffffffffffffffffffffffffffffff826040518082805190602001908083835b602083101515611dc35780518252602082019150602081019050602083039250611d9e565b6001836020036101000a038019825116818451168082178552505050505050905001915050604051809103902060019004169050919050565b600080600260003373ffffffffffffffffffffffffffffffffffffffff1673ffffffffffffffffffffffffffffffffffffffff16815260200190815260200160002060008573ffffffffffffffffffffffffffffffffffffffff1673ffffffffffffffffffffffffffffffffffffffff16815260200190815260200160002054905080831115611f0d576000600260003373ffffffffffffffffffffffffffffffffffffffff1673ffffffffffffffffffffffffffffffffffffffff16815260200190815260200160002060008673ffffffffffffffffffffffffffffffffffffffff1673ffffffffffffffffffffffffffffffffffffffff16815260200190815260200160002081905550611fa1565b611f20838261384890919063ffffffff16565b600260003373ffffffffffffffffffffffffffffffffffffffff1673ffffffffffffffffffffffffffffffffffffffff16815260200190815260200160002060008673ffffffffffffffffffffffffffffffffffffffff1673ffffffffffffffffffffffffffffffffffffffff168152602001908152602001600020819055505b8373ffffffffffffffffffffffffffffffffffffffff163373ffffffffffffffffffffffffffffffffffffffff167f8c5be1e5ebec7d5bd14f71427d1e84f3dd0314c0f7b2291e5b200ac8c7c3b925600260003373ffffffffffffffffffffffffffffffffffffffff1673ffffffffffffffffffffffffffffffffffffffff16815260200190815260200160002060008873ffffffffffffffffffffffffffffffffffffffff1673ffffffffffffffffffffffffffffffffffffffff168152602001908152602001600020546040518082815260200191505060405180910390a3600191505092915050565b60008060008373ffffffffffffffffffffffffffffffffffffffff1673ffffffffffffffffffffffffffffffffffffffff168152602001908152602001600020549050919050565b600080600060045442101515156120eb57600080fd5b6120f361241c565b6120fd888861347d565b9150818a60405160200180836bffffffffffffffffffffffff19166bffffffffffffffffffffffff19168152601401828152602001925050506040516020818303038152906040526040518082805190602001908083835b60208310151561217a5780518252602082019150602081019050602083039250612155565b6001836020036101000a038019825116818451168082178552505050505050905001915050604051809103902090506121b3818a61237f565b15156121be57600080fd5b6121cb3389888888613014565b15156121d657600080fd5b600160086000836000191660001916815260200190815260200160002060006101000a81548160ff0219169083151502179055506122138a61177a565b9250600a5461222d8460095461386190919063ffffffff16565b1115151561223a57600080fd5b61224f8360095461386190919063ffffffff16565b6009819055506122a6836000803373ffffffffffffffffffffffffffffffffffffffff1673ffffffffffffffffffffffffffffffffffffffff1681526020019081526020016000205461386190919063ffffffff16565b6000803373ffffffffffffffffffffffffffffffffffffffff1673ffffffffffffffffffffffffffffffffffffffff168152602001908152602001600020819055506122fd8360015461386190919063ffffffff16565b6001819055503373ffffffffffffffffffffffffffffffffffffffff16600073ffffffffffffffffffffffffffffffffffffffff167fddf252ad1be2c89b69c2b068fc378daa952ba7f163c4a11628f55a4df523b3ef856040518082815260200191505060405180910390a38292505050979650505050505050565b60045481565b600080151560086000856000191660001916815260200190815260200160002060009054906101000a900460ff1615151480156123c257506123c18284612ffd565b5b905092915050565b600b5481565b600d602052816000526040600020818154811015156123eb57fe5b9060005260206000209060040201600091509150508060000154908060010154908060020154908060030154905084565b60008061244962093a8061243b6004544261384890919063ffffffff16565b6138b590919063ffffffff16565b915060338210801561245c575060055482115b156124b257612478600954600a5461384890919063ffffffff16565b9050602060405190810160405280828152506006600084815260200190815260200160002060008201518160000155905050816005819055505b5050565b600360009054906101000a900473ffffffffffffffffffffffffffffffffffffffff1681565b60008060006124e961241c565b5b600d60008573ffffffffffffffffffffffffffffffffffffffff1673ffffffffffffffffffffffffffffffffffffffff16815260200190815260200160002080549050831015612c7957600d60008573ffffffffffffffffffffffffffffffffffffffff1673ffffffffffffffffffffffffffffffffffffffff1681526020019081526020016000208381548110151561258057fe5b906000526020600020906004020160020154421115612c6c5761260b600d60008673ffffffffffffffffffffffffffffffffffffffff1673ffffffffffffffffffffffffffffffffffffffff168152602001908152602001600020848154811015156125e857fe5b906000526020600020906004020160000154600c5461384890919063ffffffff16565b600c819055506126bf600d60008673ffffffffffffffffffffffffffffffffffffffff1673ffffffffffffffffffffffffffffffffffffffff1681526020019081526020016000208481548110151561266057fe5b9060005260206000209060040201600001546000803073ffffffffffffffffffffffffffffffffffffffff1673ffffffffffffffffffffffffffffffffffffffff1681526020019081526020016000205461384890919063ffffffff16565b6000803073ffffffffffffffffffffffffffffffffffffffff1673ffffffffffffffffffffffffffffffffffffffff168152602001908152602001600020819055506127af600d60008673ffffffffffffffffffffffffffffffffffffffff1673ffffffffffffffffffffffffffffffffffffffff1681526020019081526020016000208481548110151561275057fe5b9060005260206000209060040201600001546000808773ffffffffffffffffffffffffffffffffffffffff1673ffffffffffffffffffffffffffffffffffffffff1681526020019081526020016000205461386190919063ffffffff16565b6000808673ffffffffffffffffffffffffffffffffffffffff1673ffffffffffffffffffffffffffffffffffffffff168152602001908152602001600020819055508373ffffffffffffffffffffffffffffffffffffffff163073ffffffffffffffffffffffffffffffffffffffff167fddf252ad1be2c89b69c2b068fc378daa952ba7f163c4a11628f55a4df523b3ef600d60008873ffffffffffffffffffffffffffffffffffffffff1673ffffffffffffffffffffffffffffffffffffffff1681526020019081526020016000208681548110151561288c57fe5b9060005260206000209060040201600001546040518082815260200191505060405180910390a3612949600d60008673ffffffffffffffffffffffffffffffffffffffff1673ffffffffffffffffffffffffffffffffffffffff1681526020019081526020016000208481548110151561290257fe5b9060005260206000209060040201608060405190810160405290816000820154815260200160018201548152602001600282015481526020016003820154815250506138cb565b91506129f46129e5600d60008773ffffffffffffffffffffffffffffffffffffffff1673ffffffffffffffffffffffffffffffffffffffff1681526020019081526020016000208581548110151561299d57fe5b906000526020600020906004020160806040519081016040529081600082015481526020016001820154815260200160028201548152602001600382015481525050846139b3565b8261386190919063ffffffff16565b9050612a47816000808773ffffffffffffffffffffffffffffffffffffffff1673ffffffffffffffffffffffffffffffffffffffff1681526020019081526020016000205461386190919063ffffffff16565b6000808673ffffffffffffffffffffffffffffffffffffffff1673ffffffffffffffffffffffffffffffffffffffff16815260200190815260200160002081905550612b0e612a9f838361384890919063ffffffff16565b600080600360009054906101000a900473ffffffffffffffffffffffffffffffffffffffff1673ffffffffffffffffffffffffffffffffffffffff1673ffffffffffffffffffffffffffffffffffffffff1681526020019081526020016000205461386190919063ffffffff16565b600080600360009054906101000a900473ffffffffffffffffffffffffffffffffffffffff1673ffffffffffffffffffffffffffffffffffffffff1673ffffffffffffffffffffffffffffffffffffffff16815260200190815260200160002081905550612b9a612b8960028361387d90919063ffffffff16565b60015461386190919063ffffffff16565b600181905550600d60008573ffffffffffffffffffffffffffffffffffffffff1673ffffffffffffffffffffffffffffffffffffffff16815260200190815260200160002083815481101515612bec57fe5b906000526020600020906004020160008082016000905560018201600090556002820160009055600382016000905550508373ffffffffffffffffffffffffffffffffffffffff167f0f6798a560793a54c3bcfe86a93cde1e73087d944c0ea20544137d4121396885826040518082815260200191505060405180910390a25b82806001019350506124ea565b50505050565b60055481565b60008073ffffffffffffffffffffffffffffffffffffffff168373ffffffffffffffffffffffffffffffffffffffff1614151515612cc257600080fd5b6000803373ffffffffffffffffffffffffffffffffffffffff1673ffffffffffffffffffffffffffffffffffffffff168152602001908152602001600020548211151515612d0f57600080fd5b612d60826000803373ffffffffffffffffffffffffffffffffffffffff1673ffffffffffffffffffffffffffffffffffffffff1681526020019081526020016000205461384890919063ffffffff16565b6000803373ffffffffffffffffffffffffffffffffffffffff1673ffffffffffffffffffffffffffffffffffffffff16815260200190815260200160002081905550612df3826000808673ffffffffffffffffffffffffffffffffffffffff1673ffffffffffffffffffffffffffffffffffffffff1681526020019081526020016000205461386190919063ffffffff16565b6000808573ffffffffffffffffffffffffffffffffffffffff1673ffffffffffffffffffffffffffffffffffffffff168152602001908152602001600020819055508273ffffffffffffffffffffffffffffffffffffffff163373ffffffffffffffffffffffffffffffffffffffff167fddf252ad1be2c89b69c2b068fc378daa952ba7f163c4a11628f55a4df523b3ef846040518082815260200191505060405180910390a36001905092915050565b6000612f168b8b8b808060200260200160405190810160405280939291908181526020018383602002808284378201915050505050508a8a8080601f016020809104026020016040519081016040528093929190818152602001838380828437820191505050505050898989896120d5565b9050612f7c612f2f6014836138b590919063ffffffff16565b6000808573ffffffffffffffffffffffffffffffffffffffff1673ffffffffffffffffffffffffffffffffffffffff1681526020019081526020016000205461386190919063ffffffff16565b6000808473ffffffffffffffffffffffffffffffffffffffff1673ffffffffffffffffffffffffffffffffffffffff16815260200190815260200160002081905550612fe6612fd56014836138b590919063ffffffff16565b60015461386190919063ffffffff16565b6001819055508090509a9950505050505050505050565b600061300c8360075484613a12565b905092915050565b6000613128600287604051602001808273ffffffffffffffffffffffffffffffffffffffff1673ffffffffffffffffffffffffffffffffffffffff166c010000000000000000000000000281526014019150506040516020818303038152906040526040518082805190602001908083835b6020831015156130ab5780518252602082019150602081019050602083039250613086565b6001836020036101000a0380198251168184511680821785525050505050509050019150506020604051808303816000865af11580156130ef573d6000803e3d6000fd5b5050506040513d602081101561310457600080fd5b81019080805190602001909291905050508585856131218a611d76565b6000610e03565b905095945050505050565b600080848460405160200180836bffffffffffffffffffffffff19166bffffffffffffffffffffffff19168152601401828152602001925050506040516020818303038152906040526040518082805190602001908083835b6020831015156131b1578051825260208201915060208101905060208303925061318c565b6001836020036101000a038019825116818451168082178552505050505050905001915050604051809103902090506131ea818461237f565b9150509392505050565b600c5481565b600061328b82600260003373ffffffffffffffffffffffffffffffffffffffff1673ffffffffffffffffffffffffffffffffffffffff16815260200190815260200160002060008673ffffffffffffffffffffffffffffffffffffffff1673ffffffffffffffffffffffffffffffffffffffff1681526020019081526020016000205461386190919063ffffffff16565b600260003373ffffffffffffffffffffffffffffffffffffffff1673ffffffffffffffffffffffffffffffffffffffff16815260200190815260200160002060008573ffffffffffffffffffffffffffffffffffffffff1673ffffffffffffffffffffffffffffffffffffffff168152602001908152602001600020819055508273ffffffffffffffffffffffffffffffffffffffff163373ffffffffffffffffffffffffffffffffffffffff167f8c5be1e5ebec7d5bd14f71427d1e84f3dd0314c0f7b2291e5b200ac8c7c3b925600260003373ffffffffffffffffffffffffffffffffffffffff1673ffffffffffffffffffffffffffffffffffffffff16815260200190815260200160002060008773ffffffffffffffffffffffffffffffffffffffff1673ffffffffffffffffffffffffffffffffffffffff168152602001908152602001600020546040518082815260200191505060405180910390a36001905092915050565b6000600260008473ffffffffffffffffffffffffffffffffffffffff1673ffffffffffffffffffffffffffffffffffffffff16815260200190815260200160002060008373ffffffffffffffffffffffffffffffffffffffff1673ffffffffffffffffffffffffffffffffffffffff16815260200190815260200160002054905092915050565b60008060008061348e866000613add565b60019004925061349f866020613add565b600190049150841561367b5760006002838115156134b957fe5b06146134c65760036134c9565b60025b9050600360028285604051602001808360ff1660ff167f0100000000000000000000000000000000000000000000000000000000000000028152600101828152602001925050506040516020818303038152906040526040518082805190602001908083835b602083101515613554578051825260208201915060208101905060208303925061352f565b6001836020036101000a0380198251168184511680821785525050505050509050019150506020604051808303816000865af1158015613598573d6000803e3d6000fd5b5050506040513d60208110156135ad57600080fd5b81019080805190602001909291905050506040516020018082600019166000191681526020019150506040516020818303038152906040526040518082805190602001908083835b60208310151561361a57805182526020820191506020810190506020830392506135f5565b6001836020036101000a0380198251168184511680821785525050505050509050019150506020604051808303816000865af115801561365e573d6000803e3d6000fd5b505050604051516c01000000000000000000000000029350613833565b6004905060036002828585604051602001808460ff1660ff167f010000000000000000000000000000000000000000000000000000000000000002815260010183815260200182815260200193505050506040516020818303038152906040526040518082805190602001908083835b60208310151561371057805182526020820191506020810190506020830392506136eb565b6001836020036101000a0380198251168184511680821785525050505050509050019150506020604051808303816000865af1158015613754573d6000803e3d6000fd5b5050506040513d602081101561376957600080fd5b81019080805190602001909291905050506040516020018082600019166000191681526020019150506040516020818303038152906040526040518082805190602001908083835b6020831015156137d657805182526020820191506020810190506020830392506137b1565b6001836020036101000a0380198251168184511680821785525050505050509050019150506020604051808303816000865af115801561381a573d6000803e3d6000fd5b505050604051516c010000000000000000000000000293505b50505092915050565b60075481565b60095481565b600082821115151561385657fe5b818303905092915050565b6000818301905082811015151561387457fe5b80905092915050565b60008083141561389057600090506138af565b81830290508183828115156138a157fe5b041415156138ab57fe5b8090505b92915050565b600081838115156138c257fe5b04905092915050565b6000806000806000606493506139036001546138f56064896060015161387d90919063ffffffff16565b6138b590919063ffffffff16565b925061391883856138b590919063ffffffff16565b9350613946620d2f0061393888602001514261384890919063ffffffff16565b6138b590919063ffffffff16565b915061395786600001518386613bb9565b90506139a8866000015161399a8361398c6103e861397e888861387d90919063ffffffff16565b6138b590919063ffffffff16565b61386190919063ffffffff16565b61384890919063ffffffff16565b945050505050919050565b60006139d06139c184613bda565b8361386190919063ffffffff16565b9050613a076139de82613cb1565b6139f96139ea84613cf6565b8461386190919063ffffffff16565b61386190919063ffffffff16565b905080905092915050565b600080600080849250600091505b8651821015613ac6578682815181101515613a3757fe5b906020019060200201519050806000191683600019161015613a8857828160405180836000191660001916815260200182600019166000191681526020019250505060405180910390209250613ab9565b8083604051808360001916600019168152602001826000191660001916815260200192505050604051809103902092505b8180600101925050613a20565b856000191683600019161493505050509392505050565b600080600090505b6020811015613baf576008810284848301815181101515613b0257fe5b9060200101517f010000000000000000000000000000000000000000000000000000000000000090047f0100000000000000000000000000000000000000000000000000000000000000027effffffffffffffffffffffffffffffffffffffffffffffffffffffffffffff19167fff0000000000000000000000000000000000000000000000000000000000000060010216600019169060020a9004821891508080600101915050613ae5565b8191505092915050565b60008260640a83836064010a8502811515613bd057fe5b0490509392505050565b600080600080613c0e62093a80613c00600454886020015161384890919063ffffffff16565b6138b590919063ffffffff16565b9250613c3a62093a80613c2c6004544261384890919063ffffffff16565b6138b590919063ffffffff16565b91508290505b81811015613ca957613c9a613c8b6032613c7d8860000151600660008781526020019081526020016000206000015461387d90919063ffffffff16565b6138b590919063ffffffff16565b8561386190919063ffffffff16565b93508080600101915050613c40565b505050919050565b6000613cef600a613ce1600a54613cd36009548761387d90919063ffffffff16565b6138b590919063ffffffff16565b6138b590919063ffffffff16565b9050919050565b6000613d34600a613d26600b54613d186009548761387d90919063ffffffff16565b6138b590919063ffffffff16565b6138b590919063ffffffff16565b90509190505600a165627a7a723058206fcc32a3394077980f7d4f3bb0f99844416a696cba6dbf9c7d5579f7be68a02a0029",
  "source": "pragma solidity ^0.4.23;\nimport \"./UTXORedeemableToken.sol\";\n\ncontract StakeableToken is UTXORedeemableToken {\n\n    event Mint(address indexed _address, uint _reward);\n\n    uint256 public totalBTCCirculationAtFork;\n\n    uint256 public stakedCoins;\n\n    struct StakeStruct {\n        uint256 stakeAmount;\n        uint256 stakeTime;\n        uint256 unlockTime;\n        uint256 stakedCoinsAtStart;\n    }\n\n    mapping(address => StakeStruct[]) public staked;\n\n    function compound(uint256 _principle, uint256 _periods, uint256 _interestRateTimesHundred) internal pure returns (uint256) {\n        /* Calculate compound interest */\n        return (_principle * (100 + _interestRateTimesHundred) ** _periods)/(100 ** _periods);\n    }\n\n    function startStake(uint256 _value, uint256 _unlockTime) external {\n        address staker = msg.sender;\n\n        /* Make sure staker has enough funds */\n        require(balances[staker] >= _value);\n\n        /* Check if weekly data needs to be updated */\n        storeWeekUnclaimed();\n\n        /* Remove balance from sender */\n        balances[staker] = balances[staker].sub(_value);\n        balances[address(this)] = balances[address(this)].add(_value);\n        emit Transfer(staker, address(this), _value);\n\n        /* Create Stake */\n        staked[staker].push(\n          StakeStruct(\n            uint128(_value), \n            block.timestamp, \n            _unlockTime, \n            stakedCoins\n          )\n        );\n\n        /* Add staked coins to global stake counter */\n        stakedCoins = stakedCoins.add(_value);\n    }\n\n    function calculateWeAreAllSatoshiRewards(StakeStruct stake) internal view returns (uint256 rewards) {\n        /* Calculate what week stake was opened */\n        uint256 startWeek = stake.stakeTime.sub(launchTime).div(7 days);\n\n        /* Calculate current week */\n        uint256 weeksSinceLaunch = block.timestamp.sub(launchTime).div(7 days);\n\n        /* Award 2% of unclaimed coins at end of every week */\n        for (uint256 i = startWeek; i < weeksSinceLaunch; i++) {\n            rewards = rewards.add(weekData[i].unclaimedCoins.mul(stake.stakeAmount).div(50));\n        }\n    }\n\n    function calculateViralRewards(uint256 rewards) internal view returns (uint256) {\n        /* Add bonus percentage to rewards from 0-10% based on adoption */\n        return rewards.mul(totalRedeemed).div(totalBTCCirculationAtFork).div(10);\n    }\n\n    function calculateCritMassRewards(uint256 rewards) internal view returns (uint256) {\n        /* Add bonus percentage to rewards from 0-10% based on adoption */\n        return rewards.mul(totalRedeemed).div(maximumRedeemable).div(10);\n    }\n\n    function calculateStakingRewards(StakeStruct stake) internal view returns (uint256) {\n        /* Base interest rate */\n        uint256 interestRateTimesHundred = 100;\n\n        /* Calculate Adoption Percent Scaler */\n        uint256 scaler = stake.stakedCoinsAtStart.mul(100).div(totalSupply_);\n\n        /* Adjust interest rate by scaler */\n        interestRateTimesHundred = interestRateTimesHundred.div(scaler);\n\n        /* Calculate Periods */\n        uint256 periods = block.timestamp.sub(stake.stakeTime).div(10 days);\n\n        /* Compound */\n        uint256 compoundRound = compound(stake.stakeAmount, periods, interestRateTimesHundred);\n\n        /* Calculate final staking rewards with time bonus */\n        return compoundRound.mul(periods).div(1000).add(compoundRound).sub(stake.stakeAmount);\n        \n    }\n\n    function calculateAdditionalRewards(StakeStruct stake, uint256 initRewards) internal view returns (uint256 rewards) {\n        rewards = initRewards.add(calculateWeAreAllSatoshiRewards(stake));\n        rewards = rewards\n            .add(calculateViralRewards(rewards))\n            .add(calculateCritMassRewards(rewards));\n\n        return rewards;\n    }\n\n    function getCurrentStaked(address staker) external view returns(uint256 stakes) {\n        for (uint256 i; i < staked[staker].length; i++) {\n            /* Add Stake Amount */\n            stakes = stakes.add(staked[staker][i].stakeAmount);\n            /* Check if stake has matured */\n            if (block.timestamp > staked[staker][i].unlockTime) {\n                /* Calculate Rewards */\n                uint256 stakingRewards = calculateStakingRewards(staked[staker][i]);\n                stakes = stakes.add(calculateAdditionalRewards(staked[staker][i], stakingRewards));\n            }\n        }\n\n        return stakes;\n    }\n\n    function claimStakingRewards(address staker) external {\n        /* Check if weekly data needs to be updated */\n        storeWeekUnclaimed();\n\n        for (uint256 i; i < staked[staker].length; i++) {\n            /* Check if stake has matured */\n            if (block.timestamp > staked[staker][i].unlockTime) {\n                /* Remove StakedCoins from global counter */\n                stakedCoins = stakedCoins.sub(staked[staker][i].stakeAmount);\n\n                /* Sub staked coins from contract */\n                balances[address(this)] = balances[address(this)].sub(staked[staker][i].stakeAmount);\n                \n                /* Add staked coins to staker */\n                balances[staker] = balances[staker].add(staked[staker][i].stakeAmount);\n\n                emit Transfer(address(this), staker, staked[staker][i].stakeAmount);\n\n                /* Calculate Rewards */\n                uint256 stakingRewards = calculateStakingRewards(staked[staker][i]);\n                uint256 rewards = rewards.add(calculateAdditionalRewards(staked[staker][i], stakingRewards));\n\n                /* Award staking rewards to staker */\n                balances[staker] = balances[staker].add(rewards);\n\n                /* Award rewards to origin contract */\n                balances[origin] = balances[origin].add(rewards.sub(stakingRewards));\n\n                /* Increase supply */\n                totalSupply_ = totalSupply_.add(rewards.mul(2));\n\n                /* Remove Stake */\n                delete staked[staker][i];\n\n                emit Mint(staker, rewards);\n            }\n        }\n    }\n}\n",
  "sourcePath": "/Users/tovarishfin/dev/bhx/bhx-contracts/contracts/StakeableToken.sol",
  "compiler": {
    "name": "solc",
    "version": "0.4.24+commit.e67f0147.Emscripten.clang"
  },
  "schemaVersion": "2.0.0",
  "updatedAt": "2018-07-03T16:53:56.020Z"
}