{
  "contractName": "StakeableTokenStub",
  "abi": [
    {
      "constant": true,
      "inputs": [
        {
          "name": "_hash",
          "type": "bytes32"
        },
        {
          "name": "_v",
          "type": "uint8"
        },
        {
          "name": "_r",
          "type": "bytes32"
        },
        {
          "name": "_s",
          "type": "bytes32"
        },
        {
          "name": "_expected",
          "type": "address"
        },
        {
          "name": "_addPrefix",
          "type": "bool"
        }
      ],
      "name": "validateSignature",
      "outputs": [
        {
          "name": "",
          "type": "bool"
        }
      ],
      "payable": false,
      "stateMutability": "pure",
      "type": "function"
    },
    {
      "constant": true,
      "inputs": [],
      "name": "maximumRedeemable",
      "outputs": [
        {
          "name": "",
          "type": "uint256"
        }
      ],
      "payable": false,
      "stateMutability": "view",
      "type": "function"
    },
    {
      "constant": false,
      "inputs": [
        {
          "name": "_spender",
          "type": "address"
        },
        {
          "name": "_value",
          "type": "uint256"
        }
      ],
      "name": "approve",
      "outputs": [
        {
          "name": "",
          "type": "bool"
        }
      ],
      "payable": false,
      "stateMutability": "nonpayable",
      "type": "function"
    },
    {
      "constant": false,
      "inputs": [
        {
          "name": "_value",
          "type": "uint256"
        },
        {
          "name": "_unlockTime",
          "type": "uint256"
        }
      ],
      "name": "startStake",
      "outputs": [
        {
          "name": "",
          "type": "bool"
        }
      ],
      "payable": false,
      "stateMutability": "nonpayable",
      "type": "function"
    },
    {
      "constant": true,
      "inputs": [],
      "name": "interestRatePercent",
      "outputs": [
        {
          "name": "",
          "type": "uint256"
        }
      ],
      "payable": false,
      "stateMutability": "view",
      "type": "function"
    },
    {
      "constant": true,
      "inputs": [],
      "name": "totalStakedCoins",
      "outputs": [
        {
          "name": "",
          "type": "uint256"
        }
      ],
      "payable": false,
      "stateMutability": "view",
      "type": "function"
    },
    {
      "constant": true,
      "inputs": [],
      "name": "totalSupply",
      "outputs": [
        {
          "name": "",
          "type": "uint256"
        }
      ],
      "payable": false,
      "stateMutability": "view",
      "type": "function"
    },
    {
      "constant": true,
      "inputs": [
        {
          "name": "_stakeAmount",
          "type": "uint256"
        }
      ],
      "name": "calculateViralRewards",
      "outputs": [
        {
          "name": "",
          "type": "uint256"
        }
      ],
      "payable": false,
      "stateMutability": "view",
      "type": "function"
    },
    {
      "constant": false,
      "inputs": [
        {
          "name": "_from",
          "type": "address"
        },
        {
          "name": "_to",
          "type": "address"
        },
        {
          "name": "_value",
          "type": "uint256"
        }
      ],
      "name": "transferFrom",
      "outputs": [
        {
          "name": "",
          "type": "bool"
        }
      ],
      "payable": false,
      "stateMutability": "nonpayable",
      "type": "function"
    },
    {
      "constant": true,
      "inputs": [
        {
          "name": "_satoshis",
          "type": "uint256"
        }
      ],
      "name": "getRedeemAmount",
      "outputs": [
        {
          "name": "",
          "type": "uint256"
        }
      ],
      "payable": false,
      "stateMutability": "view",
      "type": "function"
    },
    {
      "constant": true,
      "inputs": [],
      "name": "isDuringBonusPeriod",
      "outputs": [
        {
          "name": "",
          "type": "bool"
        }
      ],
      "payable": false,
      "stateMutability": "view",
      "type": "function"
    },
    {
      "constant": true,
      "inputs": [
        {
          "name": "",
          "type": "uint256"
        }
      ],
      "name": "unclaimedCoinsByWeek",
      "outputs": [
        {
          "name": "",
          "type": "uint256"
        }
      ],
      "payable": false,
      "stateMutability": "view",
      "type": "function"
    },
    {
      "constant": true,
      "inputs": [],
      "name": "oneInterestPeriodInSeconds",
      "outputs": [
        {
          "name": "",
          "type": "uint256"
        }
      ],
      "payable": false,
      "stateMutability": "view",
      "type": "function"
    },
    {
      "constant": true,
      "inputs": [],
      "name": "redeemedCount",
      "outputs": [
        {
          "name": "",
          "type": "uint256"
        }
      ],
      "payable": false,
      "stateMutability": "view",
      "type": "function"
    },
    {
      "constant": true,
      "inputs": [
        {
          "name": "_pubKey",
          "type": "bytes"
        }
      ],
      "name": "pubKeyToEthereumAddress",
      "outputs": [
        {
          "name": "",
          "type": "address"
        }
      ],
      "payable": false,
      "stateMutability": "pure",
      "type": "function"
    },
    {
      "constant": true,
      "inputs": [],
      "name": "maxStakingTimeInSeconds",
      "outputs": [
        {
          "name": "",
          "type": "uint256"
        }
      ],
      "payable": false,
      "stateMutability": "view",
      "type": "function"
    },
    {
      "constant": false,
      "inputs": [
        {
          "name": "_spender",
          "type": "address"
        },
        {
          "name": "_subtractedValue",
          "type": "uint256"
        }
      ],
      "name": "decreaseApproval",
      "outputs": [
        {
          "name": "",
          "type": "bool"
        }
      ],
      "payable": false,
      "stateMutability": "nonpayable",
      "type": "function"
    },
    {
      "constant": true,
      "inputs": [
        {
          "name": "",
          "type": "bytes32"
        }
      ],
      "name": "redeemedUTXOs",
      "outputs": [
        {
          "name": "",
          "type": "bool"
        }
      ],
      "payable": false,
      "stateMutability": "view",
      "type": "function"
    },
    {
      "constant": true,
      "inputs": [],
      "name": "rootUtxoMerkleTreeHash",
      "outputs": [
        {
          "name": "",
          "type": "bytes32"
        }
      ],
      "payable": false,
      "stateMutability": "view",
      "type": "function"
    },
    {
      "constant": true,
      "inputs": [
        {
          "name": "_owner",
          "type": "address"
        }
      ],
      "name": "balanceOf",
      "outputs": [
        {
          "name": "",
          "type": "uint256"
        }
      ],
      "payable": false,
      "stateMutability": "view",
      "type": "function"
    },
    {
      "constant": false,
      "inputs": [
        {
          "name": "_satoshis",
          "type": "uint256"
        },
        {
          "name": "_proof",
          "type": "bytes32[]"
        },
        {
          "name": "_pubKey",
          "type": "bytes"
        },
        {
          "name": "_isCompressed",
          "type": "bool"
        },
        {
          "name": "_v",
          "type": "uint8"
        },
        {
          "name": "_r",
          "type": "bytes32"
        },
        {
          "name": "_s",
          "type": "bytes32"
        }
      ],
      "name": "redeemUtxo",
      "outputs": [
        {
          "name": "_tokensRedeemed",
          "type": "uint256"
        }
      ],
      "payable": false,
      "stateMutability": "nonpayable",
      "type": "function"
    },
    {
      "constant": false,
      "inputs": [
        {
          "name": "_staker",
          "type": "address"
        }
      ],
      "name": "claimAllStakingRewards",
      "outputs": [
        {
          "name": "",
          "type": "bool"
        }
      ],
      "payable": false,
      "stateMutability": "nonpayable",
      "type": "function"
    },
    {
      "constant": true,
      "inputs": [],
      "name": "launchTime",
      "outputs": [
        {
          "name": "",
          "type": "uint256"
        }
      ],
      "payable": false,
      "stateMutability": "view",
      "type": "function"
    },
    {
      "constant": true,
      "inputs": [
        {
          "name": "_staker",
          "type": "address"
        },
        {
          "name": "_stakeIndex",
          "type": "uint256"
        }
      ],
      "name": "calculateAdditionalRewards",
      "outputs": [
        {
          "name": "",
          "type": "uint256"
        }
      ],
      "payable": false,
      "stateMutability": "view",
      "type": "function"
    },
    {
      "constant": false,
      "inputs": [
        {
          "name": "_staker",
          "type": "address"
        },
        {
          "name": "_stakeIndex",
          "type": "uint256"
        }
      ],
      "name": "claimSingleStakingReward",
      "outputs": [
        {
          "name": "",
          "type": "bool"
        }
      ],
      "payable": false,
      "stateMutability": "nonpayable",
      "type": "function"
    },
    {
      "constant": true,
      "inputs": [
        {
          "name": "_merkleLeafHash",
          "type": "bytes32"
        },
        {
          "name": "_proof",
          "type": "bytes32[]"
        }
      ],
      "name": "canRedeemUtxoHash",
      "outputs": [
        {
          "name": "",
          "type": "bool"
        }
      ],
      "payable": false,
      "stateMutability": "view",
      "type": "function"
    },
    {
      "constant": true,
      "inputs": [
        {
          "name": "_staker",
          "type": "address"
        }
      ],
      "name": "getUserStakes",
      "outputs": [
        {
          "name": "",
          "type": "uint256[]"
        },
        {
          "name": "",
          "type": "uint256[]"
        },
        {
          "name": "",
          "type": "uint256[]"
        },
        {
          "name": "",
          "type": "uint256[]"
        }
      ],
      "payable": false,
      "stateMutability": "view",
      "type": "function"
    },
    {
      "constant": false,
      "inputs": [
        {
          "name": "_staker",
          "type": "address"
        },
        {
          "name": "_stakeIndex",
          "type": "uint256"
        }
      ],
      "name": "removeArrayEntry",
      "outputs": [],
      "payable": false,
      "stateMutability": "nonpayable",
      "type": "function"
    },
    {
      "constant": true,
      "inputs": [],
      "name": "totalBtcCirculationAtFork",
      "outputs": [
        {
          "name": "",
          "type": "uint256"
        }
      ],
      "payable": false,
      "stateMutability": "view",
      "type": "function"
    },
    {
      "constant": true,
      "inputs": [
        {
          "name": "",
          "type": "address"
        },
        {
          "name": "",
          "type": "uint256"
        }
      ],
      "name": "staked",
      "outputs": [
        {
          "name": "stakeAmount",
          "type": "uint256"
        },
        {
          "name": "stakeTime",
          "type": "uint256"
        },
        {
          "name": "unlockTime",
          "type": "uint256"
        },
        {
          "name": "totalStakedCoinsAtStart",
          "type": "uint256"
        },
        {
          "name": "totalSupplyAtStart",
          "type": "uint256"
        }
      ],
      "payable": false,
      "stateMutability": "view",
      "type": "function"
    },
    {
      "constant": false,
      "inputs": [],
      "name": "storeWeekUnclaimed",
      "outputs": [],
      "payable": false,
      "stateMutability": "nonpayable",
      "type": "function"
    },
    {
      "constant": true,
      "inputs": [],
      "name": "origin",
      "outputs": [
        {
          "name": "",
          "type": "address"
        }
      ],
      "payable": false,
      "stateMutability": "view",
      "type": "function"
    },
    {
      "constant": true,
      "inputs": [],
      "name": "getWeeksSinceLaunch",
      "outputs": [
        {
          "name": "",
          "type": "uint256"
        }
      ],
      "payable": false,
      "stateMutability": "view",
      "type": "function"
    },
    {
      "constant": true,
      "inputs": [],
      "name": "lastUpdatedWeek",
      "outputs": [
        {
          "name": "",
          "type": "uint256"
        }
      ],
      "payable": false,
      "stateMutability": "view",
      "type": "function"
    },
    {
      "constant": false,
      "inputs": [
        {
          "name": "_to",
          "type": "address"
        },
        {
          "name": "_value",
          "type": "uint256"
        }
      ],
      "name": "transfer",
      "outputs": [
        {
          "name": "",
          "type": "bool"
        }
      ],
      "payable": false,
      "stateMutability": "nonpayable",
      "type": "function"
    },
    {
      "constant": false,
      "inputs": [
        {
          "name": "_satoshis",
          "type": "uint256"
        },
        {
          "name": "_proof",
          "type": "bytes32[]"
        },
        {
          "name": "_pubKey",
          "type": "bytes"
        },
        {
          "name": "_isCompressed",
          "type": "bool"
        },
        {
          "name": "_v",
          "type": "uint8"
        },
        {
          "name": "_r",
          "type": "bytes32"
        },
        {
          "name": "_s",
          "type": "bytes32"
        },
        {
          "name": "_referrer",
          "type": "address"
        }
      ],
      "name": "redeemReferredUtxo",
      "outputs": [
        {
          "name": "_tokensRedeemed",
          "type": "uint256"
        }
      ],
      "payable": false,
      "stateMutability": "nonpayable",
      "type": "function"
    },
    {
      "constant": true,
      "inputs": [
        {
          "name": "_staker",
          "type": "address"
        },
        {
          "name": "_startIndex",
          "type": "uint256"
        },
        {
          "name": "_endIndex",
          "type": "uint256"
        }
      ],
      "name": "getStakedAtIndexes",
      "outputs": [
        {
          "name": "",
          "type": "uint256"
        }
      ],
      "payable": false,
      "stateMutability": "view",
      "type": "function"
    },
    {
      "constant": true,
      "inputs": [
        {
          "name": "_stakeTime",
          "type": "uint256"
        },
        {
          "name": "_unlockTime",
          "type": "uint256"
        }
      ],
      "name": "calculateWeAreAllSatoshiRewards",
      "outputs": [
        {
          "name": "",
          "type": "uint256"
        }
      ],
      "payable": false,
      "stateMutability": "view",
      "type": "function"
    },
    {
      "constant": true,
      "inputs": [
        {
          "name": "_proof",
          "type": "bytes32[]"
        },
        {
          "name": "_merkleLeafHash",
          "type": "bytes32"
        }
      ],
      "name": "verifyProof",
      "outputs": [
        {
          "name": "",
          "type": "bool"
        }
      ],
      "payable": false,
      "stateMutability": "view",
      "type": "function"
    },
    {
      "constant": true,
      "inputs": [
        {
          "name": "_staker",
          "type": "address"
        }
      ],
      "name": "getTotalUserStaked",
      "outputs": [
        {
          "name": "",
          "type": "uint256"
        }
      ],
      "payable": false,
      "stateMutability": "view",
      "type": "function"
    },
    {
      "constant": false,
      "inputs": [
        {
          "name": "_staker",
          "type": "address"
        },
        {
          "name": "_startIndex",
          "type": "uint256"
        },
        {
          "name": "_endIndex",
          "type": "uint256"
        }
      ],
      "name": "claimMultipleStakingRewards",
      "outputs": [
        {
          "name": "",
          "type": "bool"
        }
      ],
      "payable": false,
      "stateMutability": "nonpayable",
      "type": "function"
    },
    {
      "constant": true,
      "inputs": [
        {
          "name": "_addr",
          "type": "address"
        },
        {
          "name": "_pubKey",
          "type": "bytes"
        },
        {
          "name": "_v",
          "type": "uint8"
        },
        {
          "name": "_r",
          "type": "bytes32"
        },
        {
          "name": "_s",
          "type": "bytes32"
        }
      ],
      "name": "ecdsaVerify",
      "outputs": [
        {
          "name": "",
          "type": "bool"
        }
      ],
      "payable": false,
      "stateMutability": "pure",
      "type": "function"
    },
    {
      "constant": true,
      "inputs": [
        {
          "name": "_originalAddress",
          "type": "bytes20"
        },
        {
          "name": "_satoshis",
          "type": "uint256"
        },
        {
          "name": "_proof",
          "type": "bytes32[]"
        }
      ],
      "name": "canRedeemUtxo",
      "outputs": [
        {
          "name": "",
          "type": "bool"
        }
      ],
      "payable": false,
      "stateMutability": "view",
      "type": "function"
    },
    {
      "constant": false,
      "inputs": [
        {
          "name": "_spender",
          "type": "address"
        },
        {
          "name": "_addedValue",
          "type": "uint256"
        }
      ],
      "name": "increaseApproval",
      "outputs": [
        {
          "name": "",
          "type": "bool"
        }
      ],
      "payable": false,
      "stateMutability": "nonpayable",
      "type": "function"
    },
    {
      "constant": true,
      "inputs": [
        {
          "name": "_owner",
          "type": "address"
        },
        {
          "name": "_spender",
          "type": "address"
        }
      ],
      "name": "allowance",
      "outputs": [
        {
          "name": "",
          "type": "uint256"
        }
      ],
      "payable": false,
      "stateMutability": "view",
      "type": "function"
    },
    {
      "constant": true,
      "inputs": [
        {
          "name": "_pubKey",
          "type": "bytes"
        },
        {
          "name": "_isCompressed",
          "type": "bool"
        }
      ],
      "name": "pubKeyToBitcoinAddress",
      "outputs": [
        {
          "name": "",
          "type": "bytes20"
        }
      ],
      "payable": false,
      "stateMutability": "pure",
      "type": "function"
    },
    {
      "constant": true,
      "inputs": [
        {
          "name": "_stakeAmount",
          "type": "uint256"
        }
      ],
      "name": "calculateCritMassRewards",
      "outputs": [
        {
          "name": "",
          "type": "uint256"
        }
      ],
      "payable": false,
      "stateMutability": "view",
      "type": "function"
    },
    {
      "constant": true,
      "inputs": [
        {
          "name": "_staker",
          "type": "address"
        },
        {
          "name": "_stakeIndex",
          "type": "uint256"
        }
      ],
      "name": "calculateSingleStakePlusRewards",
      "outputs": [
        {
          "name": "",
          "type": "uint256"
        }
      ],
      "payable": false,
      "stateMutability": "view",
      "type": "function"
    },
    {
      "constant": true,
      "inputs": [],
      "name": "totalRedeemed",
      "outputs": [
        {
          "name": "",
          "type": "uint256"
        }
      ],
      "payable": false,
      "stateMutability": "view",
      "type": "function"
    },
    {
      "constant": true,
      "inputs": [
        {
          "name": "_principle",
          "type": "uint256"
        },
        {
          "name": "_periods",
          "type": "uint256"
        },
        {
          "name": "_rate",
          "type": "uint256"
        }
      ],
      "name": "compound",
      "outputs": [
        {
          "name": "",
          "type": "uint256"
        }
      ],
      "payable": false,
      "stateMutability": "pure",
      "type": "function"
    },
    {
      "constant": true,
      "inputs": [
        {
          "name": "_staker",
          "type": "address"
        },
        {
          "name": "_stakeIndex",
          "type": "uint256"
        }
      ],
      "name": "calculateStakingRewards",
      "outputs": [
        {
          "name": "",
          "type": "uint256"
        }
      ],
      "payable": false,
      "stateMutability": "view",
      "type": "function"
    },
    {
      "inputs": [
        {
          "name": "_origin",
          "type": "address"
        },
        {
          "name": "_launchTime",
          "type": "uint256"
        },
        {
          "name": "_rootUtxoMerkleTreeHash",
          "type": "bytes32"
        },
        {
          "name": "_totalBtcCirculationAtFork",
          "type": "uint256"
        },
        {
          "name": "_maximumRedeemable",
          "type": "uint256"
        }
      ],
      "payable": false,
      "stateMutability": "nonpayable",
      "type": "constructor"
    },
    {
      "anonymous": false,
      "inputs": [
        {
          "indexed": true,
          "name": "_address",
          "type": "address"
        },
        {
          "indexed": false,
          "name": "_reward",
          "type": "uint256"
        }
      ],
      "name": "Mint",
      "type": "event"
    },
    {
      "anonymous": false,
      "inputs": [
        {
          "indexed": true,
          "name": "owner",
          "type": "address"
        },
        {
          "indexed": true,
          "name": "spender",
          "type": "address"
        },
        {
          "indexed": false,
          "name": "value",
          "type": "uint256"
        }
      ],
      "name": "Approval",
      "type": "event"
    },
    {
      "anonymous": false,
      "inputs": [
        {
          "indexed": true,
          "name": "from",
          "type": "address"
        },
        {
          "indexed": true,
          "name": "to",
          "type": "address"
        },
        {
          "indexed": false,
          "name": "value",
          "type": "uint256"
        }
      ],
      "name": "Transfer",
      "type": "event"
    },
    {
      "constant": false,
      "inputs": [
        {
          "name": "_address",
          "type": "address"
        },
        {
          "name": "_amount",
          "type": "uint256"
        }
      ],
      "name": "mintTokens",
      "outputs": [
        {
          "name": "",
          "type": "bool"
        }
      ],
      "payable": false,
      "stateMutability": "nonpayable",
      "type": "function"
    },
    {
      "constant": false,
      "inputs": [
        {
          "name": "_count",
          "type": "uint256"
        }
      ],
      "name": "setRedeemedCount",
      "outputs": [
        {
          "name": "",
          "type": "bool"
        }
      ],
      "payable": false,
      "stateMutability": "nonpayable",
      "type": "function"
    },
    {
      "constant": false,
      "inputs": [
        {
          "name": "_maxRedeemable",
          "type": "uint256"
        }
      ],
      "name": "setMaxRedeemable",
      "outputs": [
        {
          "name": "",
          "type": "bool"
        }
      ],
      "payable": false,
      "stateMutability": "nonpayable",
      "type": "function"
    },
    {
      "constant": false,
      "inputs": [
        {
          "name": "_totalRedeemed",
          "type": "uint256"
        }
      ],
      "name": "setTotalRedeemed",
      "outputs": [
        {
          "name": "",
          "type": "bool"
        }
      ],
      "payable": false,
      "stateMutability": "nonpayable",
      "type": "function"
    }
  ],
  "bytecode": "0x6080604052600060055560006009556000600a5534801561001f57600080fd5b5060405160a080615192833981018060405281019080805190602001909291908051906020019092919080519060200190929190805190602001909291908051906020019092919050505084600360006101000a81548173ffffffffffffffffffffffffffffffffffffffff021916908373ffffffffffffffffffffffffffffffffffffffff16021790555083600481905550826007816000191690555081600c8190555080600b8190555050505050506150b3806100df6000396000f300608060405260043610610293576000357c0100000000000000000000000000000000000000000000000000000000900463ffffffff1680630867c0ad1461029857806308b4312b14610336578063095ea7b314610361578063128bfcae146103c657806316043f5d146104155780631765f4bf1461044057806318160ddd1461046b5780631b14766d14610496578063229cfc32146104db57806323b872dd1461051c5780632c3ee88c146105a15780632c48d57b146105e257806330fd546e146106115780634cc68257146106525780634f265bf41461069757806352aa3e6c146106c25780635418796c146106ed57806365925c2b1461079657806366188463146107c1578063687cf4a4146108265780636aaf67e21461086f57806370a08231146108a2578063753bf8cd146108f957806375889a2b146109f8578063790ca41314610a535780637cdafe9d14610a7e57806381437de814610adf57806381cd84b914610b44578063842e298114610bd05780638716391914610d405780638d854c3414610d8d5780638f16981614610db85780639283032c14610e35578063938b5f3214610e4c57806394ce28e814610ea35780639d65b89214610ece578063a9059cbb14610ef9578063b1ccf19314610f5e578063b242c9bf14611024578063b27f7a0e1461108f578063b80ac7df146110da578063bac5c04814611166578063cb513859146111bd578063cb9c501f14611202578063ce267b5514611271578063cfc2334e1461133b578063d73dd623146113dc578063dd62ed3e14611441578063e073ef69146114b8578063e26e7b501461155f578063e39a385a146115a0578063f0dda65c14611601578063f35dad4014611666578063f3c85eba14611691578063f6c45d02146116e6575b600080fd5b3480156102a457600080fd5b5061031c6004803603810190808035600019169060200190929190803560ff16906020019092919080356000191690602001909291908035600019169060200190929190803573ffffffffffffffffffffffffffffffffffffffff169060200190929190803515159060200190929190505050611747565b604051808215151515815260200191505060405180910390f35b34801561034257600080fd5b5061034b611932565b6040518082815260200191505060405180910390f35b34801561036d57600080fd5b506103ac600480360381019080803573ffffffffffffffffffffffffffffffffffffffff16906020019092919080359060200190929190505050611938565b604051808215151515815260200191505060405180910390f35b3480156103d257600080fd5b506103fb6004803603810190808035906020019092919080359060200190929190505050611a2a565b604051808215151515815260200191505060405180910390f35b34801561042157600080fd5b5061042a611d2e565b6040518082815260200191505060405180910390f35b34801561044c57600080fd5b50610455611d33565b6040518082815260200191505060405180910390f35b34801561047757600080fd5b50610480611d39565b6040518082815260200191505060405180910390f35b3480156104a257600080fd5b506104c160048036038101908080359060200190929190505050611d43565b604051808215151515815260200191505060405180910390f35b3480156104e757600080fd5b5061050660048036038101908080359060200190929190505050611d51565b6040518082815260200191505060405180910390f35b34801561052857600080fd5b50610587600480360381019080803573ffffffffffffffffffffffffffffffffffffffff169060200190929190803573ffffffffffffffffffffffffffffffffffffffff16906020019092919080359060200190929190505050611d96565b604051808215151515815260200191505060405180910390f35b3480156105ad57600080fd5b506105cc60048036038101908080359060200190929190505050612150565b6040518082815260200191505060405180910390f35b3480156105ee57600080fd5b506105f76124ca565b604051808215151515815260200191505060405180910390f35b34801561061d57600080fd5b5061063c600480360381019080803590602001909291905050506124dd565b6040518082815260200191505060405180910390f35b34801561065e57600080fd5b5061067d600480360381019080803590602001909291905050506124f5565b604051808215151515815260200191505060405180910390f35b3480156106a357600080fd5b506106ac612503565b6040518082815260200191505060405180910390f35b3480156106ce57600080fd5b506106d761250a565b6040518082815260200191505060405180910390f35b3480156106f957600080fd5b50610754600480360381019080803590602001908201803590602001908080601f0160208091040260200160405190810160405280939291908181526020018383808284378201915050505050509192919290505050612510565b604051808273ffffffffffffffffffffffffffffffffffffffff1673ffffffffffffffffffffffffffffffffffffffff16815260200191505060405180910390f35b3480156107a257600080fd5b506107ab612596565b6040518082815260200191505060405180910390f35b3480156107cd57600080fd5b5061080c600480360381019080803573ffffffffffffffffffffffffffffffffffffffff1690602001909291908035906020019092919050505061259e565b604051808215151515815260200191505060405180910390f35b34801561083257600080fd5b50610855600480360381019080803560001916906020019092919050505061282f565b604051808215151515815260200191505060405180910390f35b34801561087b57600080fd5b5061088461284f565b60405180826000191660001916815260200191505060405180910390f35b3480156108ae57600080fd5b506108e3600480360381019080803573ffffffffffffffffffffffffffffffffffffffff169060200190929190505050612855565b6040518082815260200191505060405180910390f35b34801561090557600080fd5b506109e26004803603810190808035906020019092919080359060200190820180359060200190808060200260200160405190810160405280939291908181526020018383602002808284378201915050505050509192919290803590602001908201803590602001908080601f0160208091040260200160405190810160405280939291908181526020018383808284378201915050505050509192919290803515159060200190929190803560ff1690602001909291908035600019169060200190929190803560001916906020019092919050505061289d565b6040518082815260200191505060405180910390f35b348015610a0457600080fd5b50610a39600480360381019080803573ffffffffffffffffffffffffffffffffffffffff169060200190929190505050612b5d565b604051808215151515815260200191505060405180910390f35b348015610a5f57600080fd5b50610a68612ce2565b6040518082815260200191505060405180910390f35b348015610a8a57600080fd5b50610ac9600480360381019080803573ffffffffffffffffffffffffffffffffffffffff16906020019092919080359060200190929190505050612ce8565b6040518082815260200191505060405180910390f35b348015610aeb57600080fd5b50610b2a600480360381019080803573ffffffffffffffffffffffffffffffffffffffff16906020019092919080359060200190929190505050612df5565b604051808215151515815260200191505060405180910390f35b348015610b5057600080fd5b50610bb66004803603810190808035600019169060200190929190803590602001908201803590602001908080602002602001604051908101604052809392919081815260200183836020028082843782019150505050505091929192905050506132b3565b604051808215151515815260200191505060405180910390f35b348015610bdc57600080fd5b50610c11600480360381019080803573ffffffffffffffffffffffffffffffffffffffff1690602001909291905050506132fe565b6040518080602001806020018060200180602001858103855289818151815260200191508051906020019060200280838360005b83811015610c60578082015181840152602081019050610c45565b50505050905001858103845288818151815260200191508051906020019060200280838360005b83811015610ca2578082015181840152602081019050610c87565b50505050905001858103835287818151815260200191508051906020019060200280838360005b83811015610ce4578082015181840152602081019050610cc9565b50505050905001858103825286818151815260200191508051906020019060200280838360005b83811015610d26578082015181840152602081019050610d0b565b505050509050019850505050505050505060405180910390f35b348015610d4c57600080fd5b50610d8b600480360381019080803573ffffffffffffffffffffffffffffffffffffffff16906020019092919080359060200190929190505050613530565b005b348015610d9957600080fd5b50610da2613621565b6040518082815260200191505060405180910390f35b348015610dc457600080fd5b50610e03600480360381019080803573ffffffffffffffffffffffffffffffffffffffff16906020019092919080359060200190929190505050613627565b604051808681526020018581526020018481526020018381526020018281526020019550505050505060405180910390f35b348015610e4157600080fd5b50610e4a613679565b005b348015610e5857600080fd5b50610e616136ff565b604051808273ffffffffffffffffffffffffffffffffffffffff1673ffffffffffffffffffffffffffffffffffffffff16815260200191505060405180910390f35b348015610eaf57600080fd5b50610eb8613725565b6040518082815260200191505060405180910390f35b348015610eda57600080fd5b50610ee3613767565b6040518082815260200191505060405180910390f35b348015610f0557600080fd5b50610f44600480360381019080803573ffffffffffffffffffffffffffffffffffffffff1690602001909291908035906020019092919050505061376d565b604051808215151515815260200191505060405180910390f35b348015610f6a57600080fd5b5061100e60048036038101908080359060200190929190803590602001908201803590602001919091929391929390803590602001908201803590602001919091929391929390803515159060200190929190803560ff16906020019092919080356000191690602001909291908035600019169060200190929190803573ffffffffffffffffffffffffffffffffffffffff16906020019092919050505061398c565b6040518082815260200191505060405180910390f35b34801561103057600080fd5b50611079600480360381019080803573ffffffffffffffffffffffffffffffffffffffff1690602001909291908035906020019092919080359060200190929190505050613b5c565b6040518082815260200191505060405180910390f35b34801561109b57600080fd5b506110c46004803603810190808035906020019092919080359060200190929190505050613d25565b6040518082815260200191505060405180910390f35b3480156110e657600080fd5b5061114c600480360381019080803590602001908201803590602001908080602002602001604051908101604052809392919081815260200183836020028082843782019150505050505091929192908035600019169060200190929190505050613dff565b604051808215151515815260200191505060405180910390f35b34801561117257600080fd5b506111a7600480360381019080803573ffffffffffffffffffffffffffffffffffffffff169060200190929190505050613e16565b6040518082815260200191505060405180910390f35b3480156111c957600080fd5b506111e860048036038101908080359060200190929190505050613e70565b604051808215151515815260200191505060405180910390f35b34801561120e57600080fd5b50611257600480360381019080803573ffffffffffffffffffffffffffffffffffffffff1690602001909291908035906020019092919080359060200190929190505050613e7e565b604051808215151515815260200191505060405180910390f35b34801561127d57600080fd5b50611321600480360381019080803573ffffffffffffffffffffffffffffffffffffffff169060200190929190803590602001908201803590602001908080601f0160208091040260200160405190810160405280939291908181526020018383808284378201915050505050509192919290803560ff16906020019092919080356000191690602001909291908035600019169060200190929190505050613f88565b604051808215151515815260200191505060405180910390f35b34801561134757600080fd5b506113c260048036038101908080356bffffffffffffffffffffffff1916906020019092919080359060200190929190803590602001908201803590602001908080602002602001604051908101604052809392919081815260200183836020028082843782019150505050505091929192905050506140a7565b604051808215151515815260200191505060405180910390f35b3480156113e857600080fd5b50611427600480360381019080803573ffffffffffffffffffffffffffffffffffffffff16906020019092919080359060200190929190505050614168565b604051808215151515815260200191505060405180910390f35b34801561144d57600080fd5b506114a2600480360381019080803573ffffffffffffffffffffffffffffffffffffffff169060200190929190803573ffffffffffffffffffffffffffffffffffffffff169060200190929190505050614364565b6040518082815260200191505060405180910390f35b3480156114c457600080fd5b5061152b600480360381019080803590602001908201803590602001908080601f01602080910402602001604051908101604052809392919081815260200183838082843782019150505050505091929192908035151590602001909291905050506143eb565b60405180826bffffffffffffffffffffffff19166bffffffffffffffffffffffff1916815260200191505060405180910390f35b34801561156b57600080fd5b5061158a600480360381019080803590602001909291905050506147aa565b6040518082815260200191505060405180910390f35b3480156115ac57600080fd5b506115eb600480360381019080803573ffffffffffffffffffffffffffffffffffffffff169060200190929190803590602001909291905050506147ef565b6040518082815260200191505060405180910390f35b34801561160d57600080fd5b5061164c600480360381019080803573ffffffffffffffffffffffffffffffffffffffff169060200190929190803590602001909291905050506148e5565b604051808215151515815260200191505060405180910390f35b34801561167257600080fd5b5061167b614a53565b6040518082815260200191505060405180910390f35b34801561169d57600080fd5b506116d0600480360381019080803590602001909291908035906020019092919080359060200190929190505050614a59565b6040518082815260200191505060405180910390f35b3480156116f257600080fd5b50611731600480360381019080803573ffffffffffffffffffffffffffffffffffffffff16906020019092919080359060200190929190505050614b56565b6040518082815260200191505060405180910390f35b600080606083151561175b57889150611875565b6040805190810160405280601c81526020017f19457468657265756d205369676e6564204d6573736167653a0a333200000000815250905080896040516020018083805190602001908083835b6020831015156117cd57805182526020820191506020810190506020830392506117a8565b6001836020036101000a0380198251168184511680821785525050505050509050018260001916600019168152602001925050506040516020818303038152906040526040518082805190602001908083835b6020831015156118455780518252602082019150602081019050602083039250611820565b6001836020036101000a038019825116818451168082178552505050505050905001915050604051809103902091505b8473ffffffffffffffffffffffffffffffffffffffff166001838a8a8a604051600081526020016040526040518085600019166000191681526020018460ff1660ff1681526020018360001916600019168152602001826000191660001916815260200194505050505060206040516020810390808403906000865af1158015611903573d6000803e3d6000fd5b5050506020604051035173ffffffffffffffffffffffffffffffffffffffff1614925050509695505050505050565b600b5481565b600081600260003373ffffffffffffffffffffffffffffffffffffffff1673ffffffffffffffffffffffffffffffffffffffff16815260200190815260200160002060008573ffffffffffffffffffffffffffffffffffffffff1673ffffffffffffffffffffffffffffffffffffffff168152602001908152602001600020819055508273ffffffffffffffffffffffffffffffffffffffff163373ffffffffffffffffffffffffffffffffffffffff167f8c5be1e5ebec7d5bd14f71427d1e84f3dd0314c0f7b2291e5b200ac8c7c3b925846040518082815260200191505060405180910390a36001905092915050565b600080339050836000808373ffffffffffffffffffffffffffffffffffffffff1673ffffffffffffffffffffffffffffffffffffffff1681526020019081526020016000205410151515611a7d57600080fd5b611a946312cc030042614cdc90919063ffffffff16565b8311151515611aa257600080fd5b611aaa613679565b611afb846000808473ffffffffffffffffffffffffffffffffffffffff1673ffffffffffffffffffffffffffffffffffffffff16815260200190815260200160002054614cf890919063ffffffff16565b6000808373ffffffffffffffffffffffffffffffffffffffff1673ffffffffffffffffffffffffffffffffffffffff16815260200190815260200160002081905550611b8e846000803073ffffffffffffffffffffffffffffffffffffffff1673ffffffffffffffffffffffffffffffffffffffff16815260200190815260200160002054614cdc90919063ffffffff16565b6000803073ffffffffffffffffffffffffffffffffffffffff1673ffffffffffffffffffffffffffffffffffffffff16815260200190815260200160002081905550600e60008273ffffffffffffffffffffffffffffffffffffffff1673ffffffffffffffffffffffffffffffffffffffff16815260200190815260200160002060a060405190810160405280868152602001428152602001858152602001600d5481526020016001548152509080600181540180825580915050906001820390600052602060002090600502016000909192909190915060008201518160000155602082015181600101556040820151816002015560608201518160030155608082015181600401555050506000611cfc82611cf76001600e60008773ffffffffffffffffffffffffffffffffffffffff1673ffffffffffffffffffffffffffffffffffffffff16815260200190815260200160002080549050614cf890919063ffffffff16565b614b56565b111515611d0857600080fd5b611d1d84600d54614cdc90919063ffffffff16565b600d81905550600191505092915050565b600181565b600d5481565b6000600154905090565b600081600a81905550919050565b6000611d8f600a611d81600c54611d73600a5487614d1190919063ffffffff16565b614d4990919063ffffffff16565b614d4990919063ffffffff16565b9050919050565b60008073ffffffffffffffffffffffffffffffffffffffff168373ffffffffffffffffffffffffffffffffffffffff1614151515611dd357600080fd5b6000808573ffffffffffffffffffffffffffffffffffffffff1673ffffffffffffffffffffffffffffffffffffffff168152602001908152602001600020548211151515611e2057600080fd5b600260008573ffffffffffffffffffffffffffffffffffffffff1673ffffffffffffffffffffffffffffffffffffffff16815260200190815260200160002060003373ffffffffffffffffffffffffffffffffffffffff1673ffffffffffffffffffffffffffffffffffffffff168152602001908152602001600020548211151515611eab57600080fd5b611efc826000808773ffffffffffffffffffffffffffffffffffffffff1673ffffffffffffffffffffffffffffffffffffffff16815260200190815260200160002054614cf890919063ffffffff16565b6000808673ffffffffffffffffffffffffffffffffffffffff1673ffffffffffffffffffffffffffffffffffffffff16815260200190815260200160002081905550611f8f826000808673ffffffffffffffffffffffffffffffffffffffff1673ffffffffffffffffffffffffffffffffffffffff16815260200190815260200160002054614cdc90919063ffffffff16565b6000808573ffffffffffffffffffffffffffffffffffffffff1673ffffffffffffffffffffffffffffffffffffffff1681526020019081526020016000208190555061206082600260008773ffffffffffffffffffffffffffffffffffffffff1673ffffffffffffffffffffffffffffffffffffffff16815260200190815260200160002060003373ffffffffffffffffffffffffffffffffffffffff1673ffffffffffffffffffffffffffffffffffffffff16815260200190815260200160002054614cf890919063ffffffff16565b600260008673ffffffffffffffffffffffffffffffffffffffff1673ffffffffffffffffffffffffffffffffffffffff16815260200190815260200160002060003373ffffffffffffffffffffffffffffffffffffffff1673ffffffffffffffffffffffffffffffffffffffff168152602001908152602001600020819055508273ffffffffffffffffffffffffffffffffffffffff168473ffffffffffffffffffffffffffffffffffffffff167fddf252ad1be2c89b69c2b068fc378daa952ba7f163c4a11628f55a4df523b3ef846040518082815260200191505060405180910390a3600190509392505050565b60008060008060006121706402540be40087614d1190919063ffffffff16565b9350683635c9adc5dea000008411156122095769152d02c7e14af68000008410156121f1576121ea640ba43b74006121dc60096121ce60026121c064174876e8008b614cf890919063ffffffff16565b614d1190919063ffffffff16565b614d4990919063ffffffff16565b614cdc90919063ffffffff16565b9350612208565b612205600485614d4990919063ffffffff16565b93505b5b4260045410612219576000612244565b61224362093a8061223560045442614cf890919063ffffffff16565b614d4990919063ffffffff16565b5b925061226d61225d600285614d1190919063ffffffff16565b6064614cf890919063ffffffff16565b915061229560646122878487614d1190919063ffffffff16565b614d4990919063ffffffff16565b9050602d8311156122a8578094506124c1565b60208311156122df576122d860646122ca606584614d1190919063ffffffff16565b614d4990919063ffffffff16565b94506124c1565b60188311156123165761230f6064612301606684614d1190919063ffffffff16565b614d4990919063ffffffff16565b94506124c1565b601283111561234d576123466064612338606784614d1190919063ffffffff16565b614d4990919063ffffffff16565b94506124c1565b600e8311156123845761237d606461236f606884614d1190919063ffffffff16565b614d4990919063ffffffff16565b94506124c1565b600a8311156123bb576123b460646123a6606984614d1190919063ffffffff16565b614d4990919063ffffffff16565b94506124c1565b60078311156123f2576123eb60646123dd606a84614d1190919063ffffffff16565b614d4990919063ffffffff16565b94506124c1565b6005831115612429576124226064612414606b84614d1190919063ffffffff16565b614d4990919063ffffffff16565b94506124c1565b600383111561246057612459606461244b606c84614d1190919063ffffffff16565b614d4990919063ffffffff16565b94506124c1565b6001831115612497576124906064612482606d84614d1190919063ffffffff16565b614d4990919063ffffffff16565b94506124c1565b6124be60646124b0606e84614d1190919063ffffffff16565b614d4990919063ffffffff16565b94505b50505050919050565b600060326124d6613725565b1115905090565b60066020528060005260406000206000915090505481565b600081600b81905550919050565b620d2f0081565b600a5481565b600073ffffffffffffffffffffffffffffffffffffffff826040518082805190602001908083835b60208310151561255d5780518252602082019150602081019050602083039250612538565b6001836020036101000a038019825116818451168082178552505050505050905001915050604051809103902060019004169050919050565b6312cc030081565b600080600260003373ffffffffffffffffffffffffffffffffffffffff1673ffffffffffffffffffffffffffffffffffffffff16815260200190815260200160002060008573ffffffffffffffffffffffffffffffffffffffff1673ffffffffffffffffffffffffffffffffffffffff168152602001908152602001600020549050808311156126af576000600260003373ffffffffffffffffffffffffffffffffffffffff1673ffffffffffffffffffffffffffffffffffffffff16815260200190815260200160002060008673ffffffffffffffffffffffffffffffffffffffff1673ffffffffffffffffffffffffffffffffffffffff16815260200190815260200160002081905550612743565b6126c28382614cf890919063ffffffff16565b600260003373ffffffffffffffffffffffffffffffffffffffff1673ffffffffffffffffffffffffffffffffffffffff16815260200190815260200160002060008673ffffffffffffffffffffffffffffffffffffffff1673ffffffffffffffffffffffffffffffffffffffff168152602001908152602001600020819055505b8373ffffffffffffffffffffffffffffffffffffffff163373ffffffffffffffffffffffffffffffffffffffff167f8c5be1e5ebec7d5bd14f71427d1e84f3dd0314c0f7b2291e5b200ac8c7c3b925600260003373ffffffffffffffffffffffffffffffffffffffff1673ffffffffffffffffffffffffffffffffffffffff16815260200190815260200160002060008873ffffffffffffffffffffffffffffffffffffffff1673ffffffffffffffffffffffffffffffffffffffff168152602001908152602001600020546040518082815260200191505060405180910390a3600191505092915050565b60086020528060005260406000206000915054906101000a900460ff1681565b60075481565b60008060008373ffffffffffffffffffffffffffffffffffffffff1673ffffffffffffffffffffffffffffffffffffffff168152602001908152602001600020549050919050565b600080600060045442101515156128b357600080fd5b6128bb613679565b6128c588886143eb565b9150818a60405160200180836bffffffffffffffffffffffff19166bffffffffffffffffffffffff19168152601401828152602001925050506040516020818303038152906040526040518082805190602001908083835b602083101515612942578051825260208201915060208101905060208303925061291d565b6001836020036101000a0380198251168184511680821785525050505050509050019150506040518091039020905061297b818a6132b3565b151561298657600080fd5b6129933389888888613f88565b151561299e57600080fd5b600160086000836000191660001916815260200190815260200160002060006101000a81548160ff0219169083151502179055506129db8a612150565b9250600b546129f584600954614cdc90919063ffffffff16565b11151515612a0257600080fd5b612a1783600954614cdc90919063ffffffff16565b600981905550612a6e836000803373ffffffffffffffffffffffffffffffffffffffff1673ffffffffffffffffffffffffffffffffffffffff16815260200190815260200160002054614cdc90919063ffffffff16565b6000803373ffffffffffffffffffffffffffffffffffffffff1673ffffffffffffffffffffffffffffffffffffffff16815260200190815260200160002081905550612ac583600154614cdc90919063ffffffff16565b600181905550612ae16001600a54614cdc90919063ffffffff16565b600a819055503373ffffffffffffffffffffffffffffffffffffffff16600073ffffffffffffffffffffffffffffffffffffffff167fddf252ad1be2c89b69c2b068fc378daa952ba7f163c4a11628f55a4df523b3ef856040518082815260200191505060405180910390a38292505050979650505050505050565b600080600080600e60008673ffffffffffffffffffffffffffffffffffffffff1673ffffffffffffffffffffffffffffffffffffffff16815260200190815260200160002080549050925060009150600090506000831415612bc25760009350612cda565b5b82821015612cd557600e60008673ffffffffffffffffffffffffffffffffffffffff1673ffffffffffffffffffffffffffffffffffffffff16815260200190815260200160002080549050612c22600183614cdc90919063ffffffff16565b11612c2d5780612c30565b60005b9050600e60008673ffffffffffffffffffffffffffffffffffffffff1673ffffffffffffffffffffffffffffffffffffffff16815260200190815260200160002081815481101515612c7e57fe5b90600052602060002090600502016002015442101515612ca457612ca28582612df5565b505b612cb8600183614cdc90919063ffffffff16565b9150612cce600182614cdc90919063ffffffff16565b9050612bc3565b600193505b505050919050565b60045481565b600080600080600080600e60008973ffffffffffffffffffffffffffffffffffffffff1673ffffffffffffffffffffffffffffffffffffffff16815260200190815260200160002087815481101515612d3d57fe5b906000526020600020906005020194506032612d7d62093a80612d6f6004548960010154614cf890919063ffffffff16565b614d4990919063ffffffff16565b111515612de557612d9685600101548660020154613d25565b9350612da58560000154611d51565b9250612db485600001546147aa565b9150612ddb82612dcd8587614cdc90919063ffffffff16565b614cdc90919063ffffffff16565b9050809550612dea565b600095505b505050505092915050565b6000612dff614fde565b600080600080600e60008973ffffffffffffffffffffffffffffffffffffffff1673ffffffffffffffffffffffffffffffffffffffff16815260200190815260200160002087815481101515612e5157fe5b906000526020600020906005020160a0604051908101604052908160008201548152602001600182015481526020016002820154815260200160038201548152602001600482015481525050945084604001514210151515612eb257600080fd5b612eba613679565b84600001519350612ecb8888614b56565b9250612ed78888612ce8565b9150612efe82612ef08587614cdc90919063ffffffff16565b614cdc90919063ffffffff16565b9050612f1584600d54614cf890919063ffffffff16565b600d81905550612f6c846000803073ffffffffffffffffffffffffffffffffffffffff1673ffffffffffffffffffffffffffffffffffffffff16815260200190815260200160002054614cf890919063ffffffff16565b6000803073ffffffffffffffffffffffffffffffffffffffff1673ffffffffffffffffffffffffffffffffffffffff16815260200190815260200160002081905550612fff816000808b73ffffffffffffffffffffffffffffffffffffffff1673ffffffffffffffffffffffffffffffffffffffff16815260200190815260200160002054614cdc90919063ffffffff16565b6000808a73ffffffffffffffffffffffffffffffffffffffff1673ffffffffffffffffffffffffffffffffffffffff168152602001908152602001600020819055506130b482600080600360009054906101000a900473ffffffffffffffffffffffffffffffffffffffff1673ffffffffffffffffffffffffffffffffffffffff1673ffffffffffffffffffffffffffffffffffffffff16815260200190815260200160002054614cdc90919063ffffffff16565b600080600360009054906101000a900473ffffffffffffffffffffffffffffffffffffffff1673ffffffffffffffffffffffffffffffffffffffff1673ffffffffffffffffffffffffffffffffffffffff168152602001908152602001600020819055508773ffffffffffffffffffffffffffffffffffffffff163073ffffffffffffffffffffffffffffffffffffffff167fddf252ad1be2c89b69c2b068fc378daa952ba7f163c4a11628f55a4df523b3ef87600001516040518082815260200191505060405180910390a361319683600154614cdc90919063ffffffff16565b6001819055506131c46131b3600284614d1190919063ffffffff16565b600154614cdc90919063ffffffff16565b6001819055508773ffffffffffffffffffffffffffffffffffffffff167f0f6798a560793a54c3bcfe86a93cde1e73087d944c0ea20544137d41213968856132158585614cdc90919063ffffffff16565b6040518082815260200191505060405180910390a2600360009054906101000a900473ffffffffffffffffffffffffffffffffffffffff1673ffffffffffffffffffffffffffffffffffffffff167f0f6798a560793a54c3bcfe86a93cde1e73087d944c0ea20544137d4121396885836040518082815260200191505060405180910390a26132a48888613530565b60019550505050505092915050565b600080151560086000856000191660001916815260200190815260200160002060009054906101000a900460ff1615151480156132f657506132f58284613dff565b5b905092915050565b6060806060806000606080606080600080600e60008d73ffffffffffffffffffffffffffffffffffffffff1673ffffffffffffffffffffffffffffffffffffffff168152602001908152602001600020805490509650866040519080825280602002602001820160405280156133835781602001602082028038833980820191505090505b509550866040519080825280602002602001820160405280156133b55781602001602082028038833980820191505090505b509450866040519080825280602002602001820160405280156133e75781602001602082028038833980820191505090505b509350866040519080825280602002602001820160405280156134195781602001602082028038833980820191505090505b509250600091505b8682101561351657600e60008d73ffffffffffffffffffffffffffffffffffffffff1673ffffffffffffffffffffffffffffffffffffffff1681526020019081526020016000208281548110151561347557fe5b906000526020600020906005020190508060000154868381518110151561349857fe5b9060200190602002018181525050806001015485838151811015156134b957fe5b9060200190602002018181525050806002015484838151811015156134da57fe5b9060200190602002018181525050806003015483838151811015156134fb57fe5b90602001906020020181815250508180600101925050613421565b858585859a509a509a509a50505050505050509193509193565b6000600e60008473ffffffffffffffffffffffffffffffffffffffff1673ffffffffffffffffffffffffffffffffffffffff16815260200190815260200160002090508061358c60018380549050614cf890919063ffffffff16565b81548110151561359857fe5b906000526020600020906005020181838154811015156135b457fe5b9060005260206000209060050201600082015481600001556001820154816001015560028201548160020155600382015481600301556004820154816004015590505061360f60018280549050614cf890919063ffffffff16565b818161361b919061500e565b50505050565b600c5481565b600e6020528160005260406000208181548110151561364257fe5b9060005260206000209060050201600091509150508060000154908060010154908060020154908060030154908060040154905085565b6000806136a662093a8061369860045442614cf890919063ffffffff16565b614d4990919063ffffffff16565b9150603282111580156136ba575060055482115b156136fb576136d6600954600b54614cf890919063ffffffff16565b9050806006600060018503815260200190815260200160002081905550816005819055505b5050565b600360009054906101000a900473ffffffffffffffffffffffffffffffffffffffff1681565b60006004544211613737576000613762565b61376162093a8061375360045442614cf890919063ffffffff16565b614d4990919063ffffffff16565b5b905090565b60055481565b60008073ffffffffffffffffffffffffffffffffffffffff168373ffffffffffffffffffffffffffffffffffffffff16141515156137aa57600080fd5b6000803373ffffffffffffffffffffffffffffffffffffffff1673ffffffffffffffffffffffffffffffffffffffff1681526020019081526020016000205482111515156137f757600080fd5b613848826000803373ffffffffffffffffffffffffffffffffffffffff1673ffffffffffffffffffffffffffffffffffffffff16815260200190815260200160002054614cf890919063ffffffff16565b6000803373ffffffffffffffffffffffffffffffffffffffff1673ffffffffffffffffffffffffffffffffffffffff168152602001908152602001600020819055506138db826000808673ffffffffffffffffffffffffffffffffffffffff1673ffffffffffffffffffffffffffffffffffffffff16815260200190815260200160002054614cdc90919063ffffffff16565b6000808573ffffffffffffffffffffffffffffffffffffffff1673ffffffffffffffffffffffffffffffffffffffff168152602001908152602001600020819055508273ffffffffffffffffffffffffffffffffffffffff163373ffffffffffffffffffffffffffffffffffffffff167fddf252ad1be2c89b69c2b068fc378daa952ba7f163c4a11628f55a4df523b3ef846040518082815260200191505060405180910390a36001905092915050565b60003373ffffffffffffffffffffffffffffffffffffffff168273ffffffffffffffffffffffffffffffffffffffff16141515156139c957600080fd5b600073ffffffffffffffffffffffffffffffffffffffff168273ffffffffffffffffffffffffffffffffffffffff1614151515613a0557600080fd5b613a758b8b8b808060200260200160405190810160405280939291908181526020018383602002808284378201915050505050508a8a8080601f0160208091040260200160405190810160405280939291908181526020018383808284378201915050505050508989898961289d565b9050613adb613a8e601483614d4990919063ffffffff16565b6000808573ffffffffffffffffffffffffffffffffffffffff1673ffffffffffffffffffffffffffffffffffffffff16815260200190815260200160002054614cdc90919063ffffffff16565b6000808473ffffffffffffffffffffffffffffffffffffffff1673ffffffffffffffffffffffffffffffffffffffff16815260200190815260200160002081905550613b45613b34601483614d4990919063ffffffff16565b600154614cdc90919063ffffffff16565b6001819055508090509a9950505050505050505050565b6000806000806001600e60008973ffffffffffffffffffffffffffffffffffffffff1673ffffffffffffffffffffffffffffffffffffffff16815260200190815260200160002080549050039250828511151515613bb957600080fd5b60008610151515613bc957600080fd5b6000600e60008973ffffffffffffffffffffffffffffffffffffffff1673ffffffffffffffffffffffffffffffffffffffff168152602001908152602001600020805490501415613c1d5760009350613d1b565b84861415613c8b57600e60008873ffffffffffffffffffffffffffffffffffffffff1673ffffffffffffffffffffffffffffffffffffffff1681526020019081526020016000206000815481101515613c7257fe5b9060005260206000209060050201600001549350613d1b565b8590505b8481111515613d1757613d08600e60008973ffffffffffffffffffffffffffffffffffffffff1673ffffffffffffffffffffffffffffffffffffffff16815260200190815260200160002082815481101515613ce757fe5b90600052602060002090600502016000015483614cdc90919063ffffffff16565b91508080600101915050613c8f565b8193505b5050509392505050565b60008060008060008060009450613d5c62093a80613d4e6004548b614cf890919063ffffffff16565b614d4990919063ffffffff16565b9350613d8862093a80613d7a6004548a614cf890919063ffffffff16565b614d4990919063ffffffff16565b925060328311613d985782613d9b565b60325b91508390505b81811015613df157613de2613dd360326006600085815260200190815260200160002054614d4990919063ffffffff16565b86614cdc90919063ffffffff16565b94508080600101915050613da1565b849550505050505092915050565b6000613e0e8360075484614d5f565b905092915050565b6000613e698260006001600e60008773ffffffffffffffffffffffffffffffffffffffff1673ffffffffffffffffffffffffffffffffffffffff1681526020019081526020016000208054905003613b5c565b9050919050565b600081600981905550919050565b600080828411151515613e9057600080fd5b600e60008673ffffffffffffffffffffffffffffffffffffffff1673ffffffffffffffffffffffffffffffffffffffff1681526020019081526020016000208054905083101515613ee057600080fd5b8390505b8281111515613f7c57600e60008673ffffffffffffffffffffffffffffffffffffffff1673ffffffffffffffffffffffffffffffffffffffff1681526020019081526020016000206000815481101515613f3a57fe5b90600052602060002090600502016002015442101515613f7757613f5f856000612df5565b50613f74600182614cdc90919063ffffffff16565b90505b613ee4565b60019150509392505050565b600061409c600287604051602001808273ffffffffffffffffffffffffffffffffffffffff1673ffffffffffffffffffffffffffffffffffffffff166c010000000000000000000000000281526014019150506040516020818303038152906040526040518082805190602001908083835b60208310151561401f5780518252602082019150602081019050602083039250613ffa565b6001836020036101000a0380198251168184511680821785525050505050509050019150506020604051808303816000865af1158015614063573d6000803e3d6000fd5b5050506040513d602081101561407857600080fd5b81019080805190602001909291905050508585856140958a612510565b6000611747565b905095945050505050565b600080848460405160200180836bffffffffffffffffffffffff19166bffffffffffffffffffffffff19168152601401828152602001925050506040516020818303038152906040526040518082805190602001908083835b6020831015156141255780518252602082019150602081019050602083039250614100565b6001836020036101000a0380198251168184511680821785525050505050509050019150506040518091039020905061415e81846132b3565b9150509392505050565b60006141f982600260003373ffffffffffffffffffffffffffffffffffffffff1673ffffffffffffffffffffffffffffffffffffffff16815260200190815260200160002060008673ffffffffffffffffffffffffffffffffffffffff1673ffffffffffffffffffffffffffffffffffffffff16815260200190815260200160002054614cdc90919063ffffffff16565b600260003373ffffffffffffffffffffffffffffffffffffffff1673ffffffffffffffffffffffffffffffffffffffff16815260200190815260200160002060008573ffffffffffffffffffffffffffffffffffffffff1673ffffffffffffffffffffffffffffffffffffffff168152602001908152602001600020819055508273ffffffffffffffffffffffffffffffffffffffff163373ffffffffffffffffffffffffffffffffffffffff167f8c5be1e5ebec7d5bd14f71427d1e84f3dd0314c0f7b2291e5b200ac8c7c3b925600260003373ffffffffffffffffffffffffffffffffffffffff1673ffffffffffffffffffffffffffffffffffffffff16815260200190815260200160002060008773ffffffffffffffffffffffffffffffffffffffff1673ffffffffffffffffffffffffffffffffffffffff168152602001908152602001600020546040518082815260200191505060405180910390a36001905092915050565b6000600260008473ffffffffffffffffffffffffffffffffffffffff1673ffffffffffffffffffffffffffffffffffffffff16815260200190815260200160002060008373ffffffffffffffffffffffffffffffffffffffff1673ffffffffffffffffffffffffffffffffffffffff16815260200190815260200160002054905092915050565b6000806000806143fc866000614f02565b60019004925061440d866020614f02565b60019004915084156145e957600060028381151561442757fe5b0614614434576003614437565b60025b9050600360028285604051602001808360ff1660ff167f0100000000000000000000000000000000000000000000000000000000000000028152600101828152602001925050506040516020818303038152906040526040518082805190602001908083835b6020831015156144c2578051825260208201915060208101905060208303925061449d565b6001836020036101000a0380198251168184511680821785525050505050509050019150506020604051808303816000865af1158015614506573d6000803e3d6000fd5b5050506040513d602081101561451b57600080fd5b81019080805190602001909291905050506040516020018082600019166000191681526020019150506040516020818303038152906040526040518082805190602001908083835b6020831015156145885780518252602082019150602081019050602083039250614563565b6001836020036101000a0380198251168184511680821785525050505050509050019150506020604051808303816000865af11580156145cc573d6000803e3d6000fd5b505050604051516c010000000000000000000000000293506147a1565b6004905060036002828585604051602001808460ff1660ff167f010000000000000000000000000000000000000000000000000000000000000002815260010183815260200182815260200193505050506040516020818303038152906040526040518082805190602001908083835b60208310151561467e5780518252602082019150602081019050602083039250614659565b6001836020036101000a0380198251168184511680821785525050505050509050019150506020604051808303816000865af11580156146c2573d6000803e3d6000fd5b5050506040513d60208110156146d757600080fd5b81019080805190602001909291905050506040516020018082600019166000191681526020019150506040516020818303038152906040526040518082805190602001908083835b602083101515614744578051825260208201915060208101905060208303925061471f565b6001836020036101000a0380198251168184511680821785525050505050509050019150506020604051808303816000865af1158015614788573d6000803e3d6000fd5b505050604051516c010000000000000000000000000293505b50505092915050565b60006147e8600a6147da600b546147cc60095487614d1190919063ffffffff16565b614d4990919063ffffffff16565b614d4990919063ffffffff16565b9050919050565b600080600e60008573ffffffffffffffffffffffffffffffffffffffff1673ffffffffffffffffffffffffffffffffffffffff1681526020019081526020016000208381548110151561483e57fe5b9060005260206000209060050201600001549050600e60008573ffffffffffffffffffffffffffffffffffffffff1673ffffffffffffffffffffffffffffffffffffffff1681526020019081526020016000208381548110151561489e57fe5b9060005260206000209060050201600201544211156148da576148d36148c48585612ce8565b82614cdc90919063ffffffff16565b91506148de565b8091505b5092915050565b6000614938826000808673ffffffffffffffffffffffffffffffffffffffff1673ffffffffffffffffffffffffffffffffffffffff16815260200190815260200160002054614cdc90919063ffffffff16565b6000808573ffffffffffffffffffffffffffffffffffffffff1673ffffffffffffffffffffffffffffffffffffffff1681526020019081526020016000208190555061498f82600154614cdc90919063ffffffff16565b6001819055508273ffffffffffffffffffffffffffffffffffffffff167f0f6798a560793a54c3bcfe86a93cde1e73087d944c0ea20544137d4121396885836040518082815260200191505060405180910390a28273ffffffffffffffffffffffffffffffffffffffff16600073ffffffffffffffffffffffffffffffffffffffff167fddf252ad1be2c89b69c2b068fc378daa952ba7f163c4a11628f55a4df523b3ef846040518082815260200191505060405180910390a36001905092915050565b60095481565b600080600080600080600a94508488811515614a7157fe5b069350614a878589614d4990919063ffffffff16565b9250614aa16402540be4008a614d4990919063ffffffff16565b9150600090505b82811015614af857614adb856127100a614acd878a0a85614d1190919063ffffffff16565b614d4990919063ffffffff16565b9150614af1600182614cdc90919063ffffffff16565b9050614aa8565b600084141515614b3057614b2d846127100a614b1f868a0a85614d1190919063ffffffff16565b614d4990919063ffffffff16565b91505b614b486402540be40083614d1190919063ffffffff16565b955050505050509392505050565b600080600080600080600080600080600e60008d73ffffffffffffffffffffffffffffffffffffffff1673ffffffffffffffffffffffffffffffffffffffff1681526020019081526020016000208b815481101515614bb157fe5b90600052602060002090600502019850614bd660646001614d1190919063ffffffff16565b9750600196506064955060008960030154141515614c5a57614c1c8960040154614c0e60648c60030154614d1190919063ffffffff16565b614d4990919063ffffffff16565b945060008511614c2d576001614c2f565b845b9650614c448789614d4990919063ffffffff16565b935060008411614c55576001614c57565b835b95505b614c6f61271087614cdc90919063ffffffff16565b9250614ca1620d2f00614c938b600101548c60020154614cf890919063ffffffff16565b614d4990919063ffffffff16565b9150614cb289600001548385614a59565b9050614ccb896000015482614cf890919063ffffffff16565b995050505050505050505092915050565b60008183019050828110151515614cef57fe5b80905092915050565b6000828211151515614d0657fe5b818303905092915050565b600080831415614d245760009050614d43565b8183029050818382811515614d3557fe5b04141515614d3f57fe5b8090505b92915050565b60008183811515614d5657fe5b04905092915050565b600080600080849250600091505b8651821015614eeb578682815181101515614d8457fe5b906020019060200201519050806000191683600019161015614e415782816040516020018083600019166000191681526020018260001916600019168152602001925050506040516020818303038152906040526040518082805190602001908083835b602083101515614e0d5780518252602082019150602081019050602083039250614de8565b6001836020036101000a03801982511681845116808217855250505050505090500191505060405180910390209250614ede565b80836040516020018083600019166000191681526020018260001916600019168152602001925050506040516020818303038152906040526040518082805190602001908083835b602083101515614eae5780518252602082019150602081019050602083039250614e89565b6001836020036101000a038019825116818451168082178552505050505050905001915050604051809103902092505b8180600101925050614d6d565b856000191683600019161493505050509392505050565b600080600090505b6020811015614fd4576008810284848301815181101515614f2757fe5b9060200101517f010000000000000000000000000000000000000000000000000000000000000090047f0100000000000000000000000000000000000000000000000000000000000000027effffffffffffffffffffffffffffffffffffffffffffffffffffffffffffff19167fff0000000000000000000000000000000000000000000000000000000000000060010216600019169060020a9004821891508080600101915050614f0a565b8191505092915050565b60a06040519081016040528060008152602001600081526020016000815260200160008152602001600081525090565b81548183558181111561503b5760050281600502836000526020600020918201910161503a9190615040565b5b505050565b61508491905b8082111561508057600080820160009055600182016000905560028201600090556003820160009055600482016000905550600501615046565b5090565b905600a165627a7a7230582005f823f585e8548615bf2d68f677bf3ba40462f29c1b19f4cbec2a18f23a550b0029",
  "source": "pragma solidity ^0.4.23;\n\nimport \"../StakeableToken.sol\";\n\n\ncontract StakeableTokenStub is StakeableToken {\n  constructor (\n    address _origin,\n    uint256 _launchTime,\n    bytes32 _rootUtxoMerkleTreeHash,\n    uint256 _totalBtcCirculationAtFork,\n    uint256 _maximumRedeemable\n  ) \n    public\n  {\n    origin = _origin;\n    launchTime = _launchTime;\n    rootUtxoMerkleTreeHash = _rootUtxoMerkleTreeHash;\n    totalBtcCirculationAtFork = _totalBtcCirculationAtFork;\n    maximumRedeemable = _maximumRedeemable;\n  }\n\n  // only uesd for testing: easily mint more tokens for stress tests\n  function mintTokens(\n    address _address,\n    uint256 _amount\n  )\n    public\n    returns (bool)\n  {\n    balances[_address] = balances[_address].add(_amount);\n    totalSupply_ = totalSupply_.add(_amount);\n    emit Mint(_address, _amount);\n    emit Transfer(address(0), _address, _amount);\n\n    return true;\n  }\n\n  function setRedeemedCount(\n    uint256 _count\n  )\n    public\n    returns (bool)\n  {\n    redeemedCount = _count;\n  }\n\n  function setMaxRedeemable(\n    uint256 _maxRedeemable\n  )\n    public\n    returns (bool)\n  {\n    maximumRedeemable = _maxRedeemable;\n  }\n\n  function setTotalRedeemed(\n    uint256 _totalRedeemed\n  )\n    public\n    returns (bool)\n  {\n    totalRedeemed = _totalRedeemed;\n  }\n}",
  "sourcePath": "/Users/tovarishfin/dev/bhx/bhx-contracts/contracts/stubs/StakeableTokenStub.sol",
  "compiler": {
    "name": "solc",
    "version": "0.4.24+commit.e67f0147.Emscripten.clang"
  },
  "schemaVersion": "2.0.1",
  "updatedAt": "2018-08-13T11:23:40.102Z"
}