{
  "contractName": "StakeableTokenStub",
  "abi": [
    {
      "constant": true,
      "inputs": [
        {
          "name": "_hash",
          "type": "bytes32"
        },
        {
          "name": "_v",
          "type": "uint8"
        },
        {
          "name": "_r",
          "type": "bytes32"
        },
        {
          "name": "_s",
          "type": "bytes32"
        },
        {
          "name": "_expected",
          "type": "address"
        },
        {
          "name": "_addPrefix",
          "type": "bool"
        }
      ],
      "name": "validateSignature",
      "outputs": [
        {
          "name": "",
          "type": "bool"
        }
      ],
      "payable": false,
      "stateMutability": "pure",
      "type": "function"
    },
    {
      "constant": true,
      "inputs": [],
      "name": "maximumRedeemable",
      "outputs": [
        {
          "name": "",
          "type": "uint256"
        }
      ],
      "payable": false,
      "stateMutability": "view",
      "type": "function"
    },
    {
      "constant": false,
      "inputs": [
        {
          "name": "_spender",
          "type": "address"
        },
        {
          "name": "_value",
          "type": "uint256"
        }
      ],
      "name": "approve",
      "outputs": [
        {
          "name": "",
          "type": "bool"
        }
      ],
      "payable": false,
      "stateMutability": "nonpayable",
      "type": "function"
    },
    {
      "constant": false,
      "inputs": [
        {
          "name": "_value",
          "type": "uint256"
        },
        {
          "name": "_unlockTime",
          "type": "uint256"
        }
      ],
      "name": "startStake",
      "outputs": [
        {
          "name": "",
          "type": "bool"
        }
      ],
      "payable": false,
      "stateMutability": "nonpayable",
      "type": "function"
    },
    {
      "constant": true,
      "inputs": [],
      "name": "interestRatePercent",
      "outputs": [
        {
          "name": "",
          "type": "uint256"
        }
      ],
      "payable": false,
      "stateMutability": "view",
      "type": "function"
    },
    {
      "constant": true,
      "inputs": [],
      "name": "totalStakedCoins",
      "outputs": [
        {
          "name": "",
          "type": "uint256"
        }
      ],
      "payable": false,
      "stateMutability": "view",
      "type": "function"
    },
    {
      "constant": true,
      "inputs": [],
      "name": "totalSupply",
      "outputs": [
        {
          "name": "",
          "type": "uint256"
        }
      ],
      "payable": false,
      "stateMutability": "view",
      "type": "function"
    },
    {
      "constant": true,
      "inputs": [
        {
          "name": "_stakeAmount",
          "type": "uint256"
        }
      ],
      "name": "calculateViralRewards",
      "outputs": [
        {
          "name": "",
          "type": "uint256"
        }
      ],
      "payable": false,
      "stateMutability": "view",
      "type": "function"
    },
    {
      "constant": false,
      "inputs": [
        {
          "name": "_from",
          "type": "address"
        },
        {
          "name": "_to",
          "type": "address"
        },
        {
          "name": "_value",
          "type": "uint256"
        }
      ],
      "name": "transferFrom",
      "outputs": [
        {
          "name": "",
          "type": "bool"
        }
      ],
      "payable": false,
      "stateMutability": "nonpayable",
      "type": "function"
    },
    {
      "constant": true,
      "inputs": [
        {
          "name": "_satoshis",
          "type": "uint256"
        }
      ],
      "name": "getRedeemAmount",
      "outputs": [
        {
          "name": "",
          "type": "uint256"
        }
      ],
      "payable": false,
      "stateMutability": "view",
      "type": "function"
    },
    {
      "constant": true,
      "inputs": [],
      "name": "isDuringBonusPeriod",
      "outputs": [
        {
          "name": "",
          "type": "bool"
        }
      ],
      "payable": false,
      "stateMutability": "view",
      "type": "function"
    },
    {
      "constant": true,
      "inputs": [
        {
          "name": "",
          "type": "uint256"
        }
      ],
      "name": "unclaimedCoinsByWeek",
      "outputs": [
        {
          "name": "",
          "type": "uint256"
        }
      ],
      "payable": false,
      "stateMutability": "view",
      "type": "function"
    },
    {
      "constant": true,
      "inputs": [],
      "name": "oneInterestPeriodInSeconds",
      "outputs": [
        {
          "name": "",
          "type": "uint256"
        }
      ],
      "payable": false,
      "stateMutability": "view",
      "type": "function"
    },
    {
      "constant": true,
      "inputs": [],
      "name": "redeemedCount",
      "outputs": [
        {
          "name": "",
          "type": "uint256"
        }
      ],
      "payable": false,
      "stateMutability": "view",
      "type": "function"
    },
    {
      "constant": true,
      "inputs": [
        {
          "name": "_pubKey",
          "type": "bytes"
        }
      ],
      "name": "pubKeyToEthereumAddress",
      "outputs": [
        {
          "name": "",
          "type": "address"
        }
      ],
      "payable": false,
      "stateMutability": "pure",
      "type": "function"
    },
    {
      "constant": true,
      "inputs": [],
      "name": "maxStakingTimeInSeconds",
      "outputs": [
        {
          "name": "",
          "type": "uint256"
        }
      ],
      "payable": false,
      "stateMutability": "view",
      "type": "function"
    },
    {
      "constant": false,
      "inputs": [
        {
          "name": "_spender",
          "type": "address"
        },
        {
          "name": "_subtractedValue",
          "type": "uint256"
        }
      ],
      "name": "decreaseApproval",
      "outputs": [
        {
          "name": "",
          "type": "bool"
        }
      ],
      "payable": false,
      "stateMutability": "nonpayable",
      "type": "function"
    },
    {
      "constant": true,
      "inputs": [
        {
          "name": "",
          "type": "bytes32"
        }
      ],
      "name": "redeemedUTXOs",
      "outputs": [
        {
          "name": "",
          "type": "bool"
        }
      ],
      "payable": false,
      "stateMutability": "view",
      "type": "function"
    },
    {
      "constant": true,
      "inputs": [],
      "name": "rootUtxoMerkleTreeHash",
      "outputs": [
        {
          "name": "",
          "type": "bytes32"
        }
      ],
      "payable": false,
      "stateMutability": "view",
      "type": "function"
    },
    {
      "constant": true,
      "inputs": [
        {
          "name": "_owner",
          "type": "address"
        }
      ],
      "name": "balanceOf",
      "outputs": [
        {
          "name": "",
          "type": "uint256"
        }
      ],
      "payable": false,
      "stateMutability": "view",
      "type": "function"
    },
    {
      "constant": false,
      "inputs": [
        {
          "name": "_satoshis",
          "type": "uint256"
        },
        {
          "name": "_proof",
          "type": "bytes32[]"
        },
        {
          "name": "_pubKey",
          "type": "bytes"
        },
        {
          "name": "_isCompressed",
          "type": "bool"
        },
        {
          "name": "_v",
          "type": "uint8"
        },
        {
          "name": "_r",
          "type": "bytes32"
        },
        {
          "name": "_s",
          "type": "bytes32"
        }
      ],
      "name": "redeemUtxo",
      "outputs": [
        {
          "name": "_tokensRedeemed",
          "type": "uint256"
        }
      ],
      "payable": false,
      "stateMutability": "nonpayable",
      "type": "function"
    },
    {
      "constant": false,
      "inputs": [
        {
          "name": "_staker",
          "type": "address"
        }
      ],
      "name": "claimAllStakingRewards",
      "outputs": [
        {
          "name": "",
          "type": "bool"
        }
      ],
      "payable": false,
      "stateMutability": "nonpayable",
      "type": "function"
    },
    {
      "constant": true,
      "inputs": [],
      "name": "launchTime",
      "outputs": [
        {
          "name": "",
          "type": "uint256"
        }
      ],
      "payable": false,
      "stateMutability": "view",
      "type": "function"
    },
    {
      "constant": true,
      "inputs": [
        {
          "name": "_staker",
          "type": "address"
        },
        {
          "name": "_stakeIndex",
          "type": "uint256"
        }
      ],
      "name": "calculateAdditionalRewards",
      "outputs": [
        {
          "name": "",
          "type": "uint256"
        }
      ],
      "payable": false,
      "stateMutability": "view",
      "type": "function"
    },
    {
      "constant": false,
      "inputs": [
        {
          "name": "_staker",
          "type": "address"
        },
        {
          "name": "_stakeIndex",
          "type": "uint256"
        }
      ],
      "name": "claimSingleStakingReward",
      "outputs": [
        {
          "name": "",
          "type": "bool"
        }
      ],
      "payable": false,
      "stateMutability": "nonpayable",
      "type": "function"
    },
    {
      "constant": true,
      "inputs": [
        {
          "name": "_merkleLeafHash",
          "type": "bytes32"
        },
        {
          "name": "_proof",
          "type": "bytes32[]"
        }
      ],
      "name": "canRedeemUtxoHash",
      "outputs": [
        {
          "name": "",
          "type": "bool"
        }
      ],
      "payable": false,
      "stateMutability": "view",
      "type": "function"
    },
    {
      "constant": true,
      "inputs": [
        {
          "name": "_staker",
          "type": "address"
        }
      ],
      "name": "getUserStakes",
      "outputs": [
        {
          "name": "",
          "type": "uint256[]"
        },
        {
          "name": "",
          "type": "uint256[]"
        },
        {
          "name": "",
          "type": "uint256[]"
        },
        {
          "name": "",
          "type": "uint256[]"
        }
      ],
      "payable": false,
      "stateMutability": "view",
      "type": "function"
    },
    {
      "constant": false,
      "inputs": [
        {
          "name": "_staker",
          "type": "address"
        },
        {
          "name": "_stakeIndex",
          "type": "uint256"
        }
      ],
      "name": "removeArrayEntry",
      "outputs": [],
      "payable": false,
      "stateMutability": "nonpayable",
      "type": "function"
    },
    {
      "constant": true,
      "inputs": [],
      "name": "totalBtcCirculationAtFork",
      "outputs": [
        {
          "name": "",
          "type": "uint256"
        }
      ],
      "payable": false,
      "stateMutability": "view",
      "type": "function"
    },
    {
      "constant": true,
      "inputs": [
        {
          "name": "",
          "type": "address"
        },
        {
          "name": "",
          "type": "uint256"
        }
      ],
      "name": "staked",
      "outputs": [
        {
          "name": "stakeAmount",
          "type": "uint256"
        },
        {
          "name": "stakeTime",
          "type": "uint256"
        },
        {
          "name": "unlockTime",
          "type": "uint256"
        },
        {
          "name": "totalStakedCoinsAtStart",
          "type": "uint256"
        },
        {
          "name": "totalSupplyAtStart",
          "type": "uint256"
        }
      ],
      "payable": false,
      "stateMutability": "view",
      "type": "function"
    },
    {
      "constant": false,
      "inputs": [],
      "name": "storeWeekUnclaimed",
      "outputs": [],
      "payable": false,
      "stateMutability": "nonpayable",
      "type": "function"
    },
    {
      "constant": true,
      "inputs": [],
      "name": "origin",
      "outputs": [
        {
          "name": "",
          "type": "address"
        }
      ],
      "payable": false,
      "stateMutability": "view",
      "type": "function"
    },
    {
      "constant": true,
      "inputs": [],
      "name": "getWeeksSinceLaunch",
      "outputs": [
        {
          "name": "",
          "type": "uint256"
        }
      ],
      "payable": false,
      "stateMutability": "view",
      "type": "function"
    },
    {
      "constant": true,
      "inputs": [],
      "name": "lastUpdatedWeek",
      "outputs": [
        {
          "name": "",
          "type": "uint256"
        }
      ],
      "payable": false,
      "stateMutability": "view",
      "type": "function"
    },
    {
      "constant": false,
      "inputs": [
        {
          "name": "_to",
          "type": "address"
        },
        {
          "name": "_value",
          "type": "uint256"
        }
      ],
      "name": "transfer",
      "outputs": [
        {
          "name": "",
          "type": "bool"
        }
      ],
      "payable": false,
      "stateMutability": "nonpayable",
      "type": "function"
    },
    {
      "constant": false,
      "inputs": [
        {
          "name": "_satoshis",
          "type": "uint256"
        },
        {
          "name": "_proof",
          "type": "bytes32[]"
        },
        {
          "name": "_pubKey",
          "type": "bytes"
        },
        {
          "name": "_isCompressed",
          "type": "bool"
        },
        {
          "name": "_v",
          "type": "uint8"
        },
        {
          "name": "_r",
          "type": "bytes32"
        },
        {
          "name": "_s",
          "type": "bytes32"
        },
        {
          "name": "_referrer",
          "type": "address"
        }
      ],
      "name": "redeemReferredUtxo",
      "outputs": [
        {
          "name": "_tokensRedeemed",
          "type": "uint256"
        }
      ],
      "payable": false,
      "stateMutability": "nonpayable",
      "type": "function"
    },
    {
      "constant": true,
      "inputs": [
        {
          "name": "_staker",
          "type": "address"
        },
        {
          "name": "_startIndex",
          "type": "uint256"
        },
        {
          "name": "_endIndex",
          "type": "uint256"
        }
      ],
      "name": "getStakedAtIndexes",
      "outputs": [
        {
          "name": "",
          "type": "uint256"
        }
      ],
      "payable": false,
      "stateMutability": "view",
      "type": "function"
    },
    {
      "constant": true,
      "inputs": [
        {
          "name": "_stakeTime",
          "type": "uint256"
        },
        {
          "name": "_unlockTime",
          "type": "uint256"
        }
      ],
      "name": "calculateWeAreAllSatoshiRewards",
      "outputs": [
        {
          "name": "",
          "type": "uint256"
        }
      ],
      "payable": false,
      "stateMutability": "view",
      "type": "function"
    },
    {
      "constant": true,
      "inputs": [
        {
          "name": "_proof",
          "type": "bytes32[]"
        },
        {
          "name": "_merkleLeafHash",
          "type": "bytes32"
        }
      ],
      "name": "verifyProof",
      "outputs": [
        {
          "name": "",
          "type": "bool"
        }
      ],
      "payable": false,
      "stateMutability": "view",
      "type": "function"
    },
    {
      "constant": true,
      "inputs": [
        {
          "name": "_staker",
          "type": "address"
        }
      ],
      "name": "getTotalUserStaked",
      "outputs": [
        {
          "name": "",
          "type": "uint256"
        }
      ],
      "payable": false,
      "stateMutability": "view",
      "type": "function"
    },
    {
      "constant": false,
      "inputs": [
        {
          "name": "_staker",
          "type": "address"
        },
        {
          "name": "_startIndex",
          "type": "uint256"
        },
        {
          "name": "_endIndex",
          "type": "uint256"
        }
      ],
      "name": "claimMultipleStakingRewards",
      "outputs": [
        {
          "name": "",
          "type": "bool"
        }
      ],
      "payable": false,
      "stateMutability": "nonpayable",
      "type": "function"
    },
    {
      "constant": true,
      "inputs": [
        {
          "name": "_addr",
          "type": "address"
        },
        {
          "name": "_pubKey",
          "type": "bytes"
        },
        {
          "name": "_v",
          "type": "uint8"
        },
        {
          "name": "_r",
          "type": "bytes32"
        },
        {
          "name": "_s",
          "type": "bytes32"
        }
      ],
      "name": "ecdsaVerify",
      "outputs": [
        {
          "name": "",
          "type": "bool"
        }
      ],
      "payable": false,
      "stateMutability": "pure",
      "type": "function"
    },
    {
      "constant": true,
      "inputs": [
        {
          "name": "_originalAddress",
          "type": "bytes20"
        },
        {
          "name": "_satoshis",
          "type": "uint256"
        },
        {
          "name": "_proof",
          "type": "bytes32[]"
        }
      ],
      "name": "canRedeemUtxo",
      "outputs": [
        {
          "name": "",
          "type": "bool"
        }
      ],
      "payable": false,
      "stateMutability": "view",
      "type": "function"
    },
    {
      "constant": false,
      "inputs": [
        {
          "name": "_spender",
          "type": "address"
        },
        {
          "name": "_addedValue",
          "type": "uint256"
        }
      ],
      "name": "increaseApproval",
      "outputs": [
        {
          "name": "",
          "type": "bool"
        }
      ],
      "payable": false,
      "stateMutability": "nonpayable",
      "type": "function"
    },
    {
      "constant": true,
      "inputs": [
        {
          "name": "_owner",
          "type": "address"
        },
        {
          "name": "_spender",
          "type": "address"
        }
      ],
      "name": "allowance",
      "outputs": [
        {
          "name": "",
          "type": "uint256"
        }
      ],
      "payable": false,
      "stateMutability": "view",
      "type": "function"
    },
    {
      "constant": true,
      "inputs": [
        {
          "name": "_pubKey",
          "type": "bytes"
        },
        {
          "name": "_isCompressed",
          "type": "bool"
        }
      ],
      "name": "pubKeyToBitcoinAddress",
      "outputs": [
        {
          "name": "",
          "type": "bytes20"
        }
      ],
      "payable": false,
      "stateMutability": "pure",
      "type": "function"
    },
    {
      "constant": true,
      "inputs": [
        {
          "name": "_stakeAmount",
          "type": "uint256"
        }
      ],
      "name": "calculateCritMassRewards",
      "outputs": [
        {
          "name": "",
          "type": "uint256"
        }
      ],
      "payable": false,
      "stateMutability": "view",
      "type": "function"
    },
    {
      "constant": true,
      "inputs": [
        {
          "name": "_staker",
          "type": "address"
        },
        {
          "name": "_stakeIndex",
          "type": "uint256"
        }
      ],
      "name": "calculateSingleStakePlusRewards",
      "outputs": [
        {
          "name": "",
          "type": "uint256"
        }
      ],
      "payable": false,
      "stateMutability": "view",
      "type": "function"
    },
    {
      "constant": true,
      "inputs": [],
      "name": "totalRedeemed",
      "outputs": [
        {
          "name": "",
          "type": "uint256"
        }
      ],
      "payable": false,
      "stateMutability": "view",
      "type": "function"
    },
    {
      "constant": true,
      "inputs": [
        {
          "name": "_principle",
          "type": "uint256"
        },
        {
          "name": "_periods",
          "type": "uint256"
        },
        {
          "name": "_rate",
          "type": "uint256"
        }
      ],
      "name": "compound",
      "outputs": [
        {
          "name": "",
          "type": "uint256"
        }
      ],
      "payable": false,
      "stateMutability": "pure",
      "type": "function"
    },
    {
      "constant": true,
      "inputs": [
        {
          "name": "_staker",
          "type": "address"
        },
        {
          "name": "_stakeIndex",
          "type": "uint256"
        }
      ],
      "name": "calculateStakingRewards",
      "outputs": [
        {
          "name": "",
          "type": "uint256"
        }
      ],
      "payable": false,
      "stateMutability": "view",
      "type": "function"
    },
    {
      "inputs": [
        {
          "name": "_origin",
          "type": "address"
        },
        {
          "name": "_launchTime",
          "type": "uint256"
        },
        {
          "name": "_rootUtxoMerkleTreeHash",
          "type": "bytes32"
        },
        {
          "name": "_totalBtcCirculationAtFork",
          "type": "uint256"
        },
        {
          "name": "_maximumRedeemable",
          "type": "uint256"
        }
      ],
      "payable": false,
      "stateMutability": "nonpayable",
      "type": "constructor"
    },
    {
      "anonymous": false,
      "inputs": [
        {
          "indexed": true,
          "name": "_address",
          "type": "address"
        },
        {
          "indexed": false,
          "name": "_reward",
          "type": "uint256"
        }
      ],
      "name": "Mint",
      "type": "event"
    },
    {
      "anonymous": false,
      "inputs": [
        {
          "indexed": true,
          "name": "owner",
          "type": "address"
        },
        {
          "indexed": true,
          "name": "spender",
          "type": "address"
        },
        {
          "indexed": false,
          "name": "value",
          "type": "uint256"
        }
      ],
      "name": "Approval",
      "type": "event"
    },
    {
      "anonymous": false,
      "inputs": [
        {
          "indexed": true,
          "name": "from",
          "type": "address"
        },
        {
          "indexed": true,
          "name": "to",
          "type": "address"
        },
        {
          "indexed": false,
          "name": "value",
          "type": "uint256"
        }
      ],
      "name": "Transfer",
      "type": "event"
    },
    {
      "constant": false,
      "inputs": [
        {
          "name": "_address",
          "type": "address"
        },
        {
          "name": "_amount",
          "type": "uint256"
        }
      ],
      "name": "mintTokens",
      "outputs": [
        {
          "name": "",
          "type": "bool"
        }
      ],
      "payable": false,
      "stateMutability": "nonpayable",
      "type": "function"
    },
    {
      "constant": false,
      "inputs": [
        {
          "name": "_count",
          "type": "uint256"
        }
      ],
      "name": "setRedeemedCount",
      "outputs": [
        {
          "name": "",
          "type": "bool"
        }
      ],
      "payable": false,
      "stateMutability": "nonpayable",
      "type": "function"
    },
    {
      "constant": false,
      "inputs": [
        {
          "name": "_maxRedeemable",
          "type": "uint256"
        }
      ],
      "name": "setMaximumRedeemable",
      "outputs": [
        {
          "name": "",
          "type": "bool"
        }
      ],
      "payable": false,
      "stateMutability": "nonpayable",
      "type": "function"
    }
  ],
  "bytecode": "0x6080604052600060055560006009556000600a5534801561001f57600080fd5b5060405160a0806150ee833981018060405281019080805190602001909291908051906020019092919080519060200190929190805190602001909291908051906020019092919050505084600360006101000a81548173ffffffffffffffffffffffffffffffffffffffff021916908373ffffffffffffffffffffffffffffffffffffffff16021790555083600481905550826007816000191690555081600c8190555080600b81905550505050505061500f806100df6000396000f300608060405260043610610288576000357c0100000000000000000000000000000000000000000000000000000000900463ffffffff1680630867c0ad1461028d57806308b4312b1461032b578063095ea7b3146103565780630a3a8712146103bb578063128bfcae1461040057806316043f5d1461044f5780631765f4bf1461047a57806318160ddd146104a55780631b14766d146104d0578063229cfc321461051557806323b872dd146105565780632c3ee88c146105db5780632c48d57b1461061c57806330fd546e1461064b5780634f265bf41461068c57806352aa3e6c146106b75780635418796c146106e257806365925c2b1461078b57806366188463146107b6578063687cf4a41461081b5780636aaf67e21461086457806370a0823114610897578063753bf8cd146108ee57806375889a2b146109ed578063790ca41314610a485780637cdafe9d14610a7357806381437de814610ad457806381cd84b914610b39578063842e298114610bc55780638716391914610d355780638d854c3414610d825780638f16981614610dad5780639283032c14610e2a578063938b5f3214610e4157806394ce28e814610e985780639d65b89214610ec3578063a9059cbb14610eee578063b1ccf19314610f53578063b242c9bf14611019578063b27f7a0e14611084578063b80ac7df146110cf578063bac5c0481461115b578063cb9c501f146111b2578063ce267b5514611221578063cfc2334e146112eb578063d73dd6231461138c578063dd62ed3e146113f1578063e073ef6914611468578063e26e7b501461150f578063e39a385a14611550578063f0dda65c146115b1578063f35dad4014611616578063f3c85eba14611641578063f6c45d0214611696575b600080fd5b34801561029957600080fd5b506103116004803603810190808035600019169060200190929190803560ff16906020019092919080356000191690602001909291908035600019169060200190929190803573ffffffffffffffffffffffffffffffffffffffff1690602001909291908035151590602001909291905050506116f7565b604051808215151515815260200191505060405180910390f35b34801561033757600080fd5b506103406118e2565b6040518082815260200191505060405180910390f35b34801561036257600080fd5b506103a1600480360381019080803573ffffffffffffffffffffffffffffffffffffffff169060200190929190803590602001909291905050506118e8565b604051808215151515815260200191505060405180910390f35b3480156103c757600080fd5b506103e6600480360381019080803590602001909291905050506119da565b604051808215151515815260200191505060405180910390f35b34801561040c57600080fd5b5061043560048036038101908080359060200190929190803590602001909291905050506119e8565b604051808215151515815260200191505060405180910390f35b34801561045b57600080fd5b50610464611cec565b6040518082815260200191505060405180910390f35b34801561048657600080fd5b5061048f611cf1565b6040518082815260200191505060405180910390f35b3480156104b157600080fd5b506104ba611cf7565b6040518082815260200191505060405180910390f35b3480156104dc57600080fd5b506104fb60048036038101908080359060200190929190505050611d01565b604051808215151515815260200191505060405180910390f35b34801561052157600080fd5b5061054060048036038101908080359060200190929190505050611d0f565b6040518082815260200191505060405180910390f35b34801561056257600080fd5b506105c1600480360381019080803573ffffffffffffffffffffffffffffffffffffffff169060200190929190803573ffffffffffffffffffffffffffffffffffffffff16906020019092919080359060200190929190505050611d54565b604051808215151515815260200191505060405180910390f35b3480156105e757600080fd5b506106066004803603810190808035906020019092919050505061210e565b6040518082815260200191505060405180910390f35b34801561062857600080fd5b50610631612488565b604051808215151515815260200191505060405180910390f35b34801561065757600080fd5b506106766004803603810190808035906020019092919050505061249b565b6040518082815260200191505060405180910390f35b34801561069857600080fd5b506106a16124b3565b6040518082815260200191505060405180910390f35b3480156106c357600080fd5b506106cc6124ba565b6040518082815260200191505060405180910390f35b3480156106ee57600080fd5b50610749600480360381019080803590602001908201803590602001908080601f01602080910402602001604051908101604052809392919081815260200183838082843782019150505050505091929192905050506124c0565b604051808273ffffffffffffffffffffffffffffffffffffffff1673ffffffffffffffffffffffffffffffffffffffff16815260200191505060405180910390f35b34801561079757600080fd5b506107a0612546565b6040518082815260200191505060405180910390f35b3480156107c257600080fd5b50610801600480360381019080803573ffffffffffffffffffffffffffffffffffffffff1690602001909291908035906020019092919050505061254e565b604051808215151515815260200191505060405180910390f35b34801561082757600080fd5b5061084a60048036038101908080356000191690602001909291905050506127df565b604051808215151515815260200191505060405180910390f35b34801561087057600080fd5b506108796127ff565b60405180826000191660001916815260200191505060405180910390f35b3480156108a357600080fd5b506108d8600480360381019080803573ffffffffffffffffffffffffffffffffffffffff169060200190929190505050612805565b6040518082815260200191505060405180910390f35b3480156108fa57600080fd5b506109d76004803603810190808035906020019092919080359060200190820180359060200190808060200260200160405190810160405280939291908181526020018383602002808284378201915050505050509192919290803590602001908201803590602001908080601f0160208091040260200160405190810160405280939291908181526020018383808284378201915050505050509192919290803515159060200190929190803560ff1690602001909291908035600019169060200190929190803560001916906020019092919050505061284d565b6040518082815260200191505060405180910390f35b3480156109f957600080fd5b50610a2e600480360381019080803573ffffffffffffffffffffffffffffffffffffffff169060200190929190505050612b0d565b604051808215151515815260200191505060405180910390f35b348015610a5457600080fd5b50610a5d612c92565b6040518082815260200191505060405180910390f35b348015610a7f57600080fd5b50610abe600480360381019080803573ffffffffffffffffffffffffffffffffffffffff16906020019092919080359060200190929190505050612c98565b6040518082815260200191505060405180910390f35b348015610ae057600080fd5b50610b1f600480360381019080803573ffffffffffffffffffffffffffffffffffffffff16906020019092919080359060200190929190505050612da5565b604051808215151515815260200191505060405180910390f35b348015610b4557600080fd5b50610bab600480360381019080803560001916906020019092919080359060200190820180359060200190808060200260200160405190810160405280939291908181526020018383602002808284378201915050505050509192919290505050613236565b604051808215151515815260200191505060405180910390f35b348015610bd157600080fd5b50610c06600480360381019080803573ffffffffffffffffffffffffffffffffffffffff169060200190929190505050613281565b6040518080602001806020018060200180602001858103855289818151815260200191508051906020019060200280838360005b83811015610c55578082015181840152602081019050610c3a565b50505050905001858103845288818151815260200191508051906020019060200280838360005b83811015610c97578082015181840152602081019050610c7c565b50505050905001858103835287818151815260200191508051906020019060200280838360005b83811015610cd9578082015181840152602081019050610cbe565b50505050905001858103825286818151815260200191508051906020019060200280838360005b83811015610d1b578082015181840152602081019050610d00565b505050509050019850505050505050505060405180910390f35b348015610d4157600080fd5b50610d80600480360381019080803573ffffffffffffffffffffffffffffffffffffffff169060200190929190803590602001909291905050506134b3565b005b348015610d8e57600080fd5b50610d976135a4565b6040518082815260200191505060405180910390f35b348015610db957600080fd5b50610df8600480360381019080803573ffffffffffffffffffffffffffffffffffffffff169060200190929190803590602001909291905050506135aa565b604051808681526020018581526020018481526020018381526020018281526020019550505050505060405180910390f35b348015610e3657600080fd5b50610e3f6135fc565b005b348015610e4d57600080fd5b50610e56613682565b604051808273ffffffffffffffffffffffffffffffffffffffff1673ffffffffffffffffffffffffffffffffffffffff16815260200191505060405180910390f35b348015610ea457600080fd5b50610ead6136a8565b6040518082815260200191505060405180910390f35b348015610ecf57600080fd5b50610ed86136ea565b6040518082815260200191505060405180910390f35b348015610efa57600080fd5b50610f39600480360381019080803573ffffffffffffffffffffffffffffffffffffffff169060200190929190803590602001909291905050506136f0565b604051808215151515815260200191505060405180910390f35b348015610f5f57600080fd5b5061100360048036038101908080359060200190929190803590602001908201803590602001919091929391929390803590602001908201803590602001919091929391929390803515159060200190929190803560ff16906020019092919080356000191690602001909291908035600019169060200190929190803573ffffffffffffffffffffffffffffffffffffffff16906020019092919050505061390f565b6040518082815260200191505060405180910390f35b34801561102557600080fd5b5061106e600480360381019080803573ffffffffffffffffffffffffffffffffffffffff1690602001909291908035906020019092919080359060200190929190505050613adf565b6040518082815260200191505060405180910390f35b34801561109057600080fd5b506110b96004803603810190808035906020019092919080359060200190929190505050613ca8565b6040518082815260200191505060405180910390f35b3480156110db57600080fd5b50611141600480360381019080803590602001908201803590602001908080602002602001604051908101604052809392919081815260200183836020028082843782019150505050505091929192908035600019169060200190929190505050613d82565b604051808215151515815260200191505060405180910390f35b34801561116757600080fd5b5061119c600480360381019080803573ffffffffffffffffffffffffffffffffffffffff169060200190929190505050613d99565b6040518082815260200191505060405180910390f35b3480156111be57600080fd5b50611207600480360381019080803573ffffffffffffffffffffffffffffffffffffffff1690602001909291908035906020019092919080359060200190929190505050613df3565b604051808215151515815260200191505060405180910390f35b34801561122d57600080fd5b506112d1600480360381019080803573ffffffffffffffffffffffffffffffffffffffff169060200190929190803590602001908201803590602001908080601f0160208091040260200160405190810160405280939291908181526020018383808284378201915050505050509192919290803560ff16906020019092919080356000191690602001909291908035600019169060200190929190505050613efd565b604051808215151515815260200191505060405180910390f35b3480156112f757600080fd5b5061137260048036038101908080356bffffffffffffffffffffffff19169060200190929190803590602001909291908035906020019082018035906020019080806020026020016040519081016040528093929190818152602001838360200280828437820191505050505050919291929050505061401c565b604051808215151515815260200191505060405180910390f35b34801561139857600080fd5b506113d7600480360381019080803573ffffffffffffffffffffffffffffffffffffffff169060200190929190803590602001909291905050506140dd565b604051808215151515815260200191505060405180910390f35b3480156113fd57600080fd5b50611452600480360381019080803573ffffffffffffffffffffffffffffffffffffffff169060200190929190803573ffffffffffffffffffffffffffffffffffffffff1690602001909291905050506142d9565b6040518082815260200191505060405180910390f35b34801561147457600080fd5b506114db600480360381019080803590602001908201803590602001908080601f0160208091040260200160405190810160405280939291908181526020018383808284378201915050505050509192919290803515159060200190929190505050614360565b60405180826bffffffffffffffffffffffff19166bffffffffffffffffffffffff1916815260200191505060405180910390f35b34801561151b57600080fd5b5061153a6004803603810190808035906020019092919050505061471f565b6040518082815260200191505060405180910390f35b34801561155c57600080fd5b5061159b600480360381019080803573ffffffffffffffffffffffffffffffffffffffff16906020019092919080359060200190929190505050614764565b6040518082815260200191505060405180910390f35b3480156115bd57600080fd5b506115fc600480360381019080803573ffffffffffffffffffffffffffffffffffffffff1690602001909291908035906020019092919050505061485a565b604051808215151515815260200191505060405180910390f35b34801561162257600080fd5b5061162b6149c8565b6040518082815260200191505060405180910390f35b34801561164d57600080fd5b506116806004803603810190808035906020019092919080359060200190929190803590602001909291905050506149ce565b6040518082815260200191505060405180910390f35b3480156116a257600080fd5b506116e1600480360381019080803573ffffffffffffffffffffffffffffffffffffffff16906020019092919080359060200190929190505050614acb565b6040518082815260200191505060405180910390f35b600080606083151561170b57889150611825565b6040805190810160405280601c81526020017f19457468657265756d205369676e6564204d6573736167653a0a333200000000815250905080896040516020018083805190602001908083835b60208310151561177d5780518252602082019150602081019050602083039250611758565b6001836020036101000a0380198251168184511680821785525050505050509050018260001916600019168152602001925050506040516020818303038152906040526040518082805190602001908083835b6020831015156117f557805182526020820191506020810190506020830392506117d0565b6001836020036101000a038019825116818451168082178552505050505050905001915050604051809103902091505b8473ffffffffffffffffffffffffffffffffffffffff166001838a8a8a604051600081526020016040526040518085600019166000191681526020018460ff1660ff1681526020018360001916600019168152602001826000191660001916815260200194505050505060206040516020810390808403906000865af11580156118b3573d6000803e3d6000fd5b5050506020604051035173ffffffffffffffffffffffffffffffffffffffff1614925050509695505050505050565b600b5481565b600081600260003373ffffffffffffffffffffffffffffffffffffffff1673ffffffffffffffffffffffffffffffffffffffff16815260200190815260200160002060008573ffffffffffffffffffffffffffffffffffffffff1673ffffffffffffffffffffffffffffffffffffffff168152602001908152602001600020819055508273ffffffffffffffffffffffffffffffffffffffff163373ffffffffffffffffffffffffffffffffffffffff167f8c5be1e5ebec7d5bd14f71427d1e84f3dd0314c0f7b2291e5b200ac8c7c3b925846040518082815260200191505060405180910390a36001905092915050565b600081600b81905550919050565b600080339050836000808373ffffffffffffffffffffffffffffffffffffffff1673ffffffffffffffffffffffffffffffffffffffff1681526020019081526020016000205410151515611a3b57600080fd5b611a526312cc030042614c3890919063ffffffff16565b8311151515611a6057600080fd5b611a686135fc565b611ab9846000808473ffffffffffffffffffffffffffffffffffffffff1673ffffffffffffffffffffffffffffffffffffffff16815260200190815260200160002054614c5490919063ffffffff16565b6000808373ffffffffffffffffffffffffffffffffffffffff1673ffffffffffffffffffffffffffffffffffffffff16815260200190815260200160002081905550611b4c846000803073ffffffffffffffffffffffffffffffffffffffff1673ffffffffffffffffffffffffffffffffffffffff16815260200190815260200160002054614c3890919063ffffffff16565b6000803073ffffffffffffffffffffffffffffffffffffffff1673ffffffffffffffffffffffffffffffffffffffff16815260200190815260200160002081905550600e60008273ffffffffffffffffffffffffffffffffffffffff1673ffffffffffffffffffffffffffffffffffffffff16815260200190815260200160002060a060405190810160405280868152602001428152602001858152602001600d5481526020016001548152509080600181540180825580915050906001820390600052602060002090600502016000909192909190915060008201518160000155602082015181600101556040820151816002015560608201518160030155608082015181600401555050506000611cba82611cb56001600e60008773ffffffffffffffffffffffffffffffffffffffff1673ffffffffffffffffffffffffffffffffffffffff16815260200190815260200160002080549050614c5490919063ffffffff16565b614acb565b111515611cc657600080fd5b611cdb84600d54614c3890919063ffffffff16565b600d81905550600191505092915050565b600181565b600d5481565b6000600154905090565b600081600a81905550919050565b6000611d4d600a611d3f600c54611d31600a5487614c6d90919063ffffffff16565b614ca590919063ffffffff16565b614ca590919063ffffffff16565b9050919050565b60008073ffffffffffffffffffffffffffffffffffffffff168373ffffffffffffffffffffffffffffffffffffffff1614151515611d9157600080fd5b6000808573ffffffffffffffffffffffffffffffffffffffff1673ffffffffffffffffffffffffffffffffffffffff168152602001908152602001600020548211151515611dde57600080fd5b600260008573ffffffffffffffffffffffffffffffffffffffff1673ffffffffffffffffffffffffffffffffffffffff16815260200190815260200160002060003373ffffffffffffffffffffffffffffffffffffffff1673ffffffffffffffffffffffffffffffffffffffff168152602001908152602001600020548211151515611e6957600080fd5b611eba826000808773ffffffffffffffffffffffffffffffffffffffff1673ffffffffffffffffffffffffffffffffffffffff16815260200190815260200160002054614c5490919063ffffffff16565b6000808673ffffffffffffffffffffffffffffffffffffffff1673ffffffffffffffffffffffffffffffffffffffff16815260200190815260200160002081905550611f4d826000808673ffffffffffffffffffffffffffffffffffffffff1673ffffffffffffffffffffffffffffffffffffffff16815260200190815260200160002054614c3890919063ffffffff16565b6000808573ffffffffffffffffffffffffffffffffffffffff1673ffffffffffffffffffffffffffffffffffffffff1681526020019081526020016000208190555061201e82600260008773ffffffffffffffffffffffffffffffffffffffff1673ffffffffffffffffffffffffffffffffffffffff16815260200190815260200160002060003373ffffffffffffffffffffffffffffffffffffffff1673ffffffffffffffffffffffffffffffffffffffff16815260200190815260200160002054614c5490919063ffffffff16565b600260008673ffffffffffffffffffffffffffffffffffffffff1673ffffffffffffffffffffffffffffffffffffffff16815260200190815260200160002060003373ffffffffffffffffffffffffffffffffffffffff1673ffffffffffffffffffffffffffffffffffffffff168152602001908152602001600020819055508273ffffffffffffffffffffffffffffffffffffffff168473ffffffffffffffffffffffffffffffffffffffff167fddf252ad1be2c89b69c2b068fc378daa952ba7f163c4a11628f55a4df523b3ef846040518082815260200191505060405180910390a3600190509392505050565b600080600080600061212e6402540be40087614c6d90919063ffffffff16565b9350683635c9adc5dea000008411156121c75769152d02c7e14af68000008410156121af576121a8640ba43b740061219a600961218c600261217e64174876e8008b614c5490919063ffffffff16565b614c6d90919063ffffffff16565b614ca590919063ffffffff16565b614c3890919063ffffffff16565b93506121c6565b6121c3600485614ca590919063ffffffff16565b93505b5b42600454106121d7576000612202565b61220162093a806121f360045442614c5490919063ffffffff16565b614ca590919063ffffffff16565b5b925061222b61221b600285614c6d90919063ffffffff16565b6064614c5490919063ffffffff16565b915061225360646122458487614c6d90919063ffffffff16565b614ca590919063ffffffff16565b9050602d8311156122665780945061247f565b602083111561229d576122966064612288606584614c6d90919063ffffffff16565b614ca590919063ffffffff16565b945061247f565b60188311156122d4576122cd60646122bf606684614c6d90919063ffffffff16565b614ca590919063ffffffff16565b945061247f565b601283111561230b5761230460646122f6606784614c6d90919063ffffffff16565b614ca590919063ffffffff16565b945061247f565b600e8311156123425761233b606461232d606884614c6d90919063ffffffff16565b614ca590919063ffffffff16565b945061247f565b600a831115612379576123726064612364606984614c6d90919063ffffffff16565b614ca590919063ffffffff16565b945061247f565b60078311156123b0576123a9606461239b606a84614c6d90919063ffffffff16565b614ca590919063ffffffff16565b945061247f565b60058311156123e7576123e060646123d2606b84614c6d90919063ffffffff16565b614ca590919063ffffffff16565b945061247f565b600383111561241e576124176064612409606c84614c6d90919063ffffffff16565b614ca590919063ffffffff16565b945061247f565b60018311156124555761244e6064612440606d84614c6d90919063ffffffff16565b614ca590919063ffffffff16565b945061247f565b61247c606461246e606e84614c6d90919063ffffffff16565b614ca590919063ffffffff16565b94505b50505050919050565b600060326124946136a8565b1115905090565b60066020528060005260406000206000915090505481565b620d2f0081565b600a5481565b600073ffffffffffffffffffffffffffffffffffffffff826040518082805190602001908083835b60208310151561250d57805182526020820191506020810190506020830392506124e8565b6001836020036101000a038019825116818451168082178552505050505050905001915050604051809103902060019004169050919050565b6312cc030081565b600080600260003373ffffffffffffffffffffffffffffffffffffffff1673ffffffffffffffffffffffffffffffffffffffff16815260200190815260200160002060008573ffffffffffffffffffffffffffffffffffffffff1673ffffffffffffffffffffffffffffffffffffffff1681526020019081526020016000205490508083111561265f576000600260003373ffffffffffffffffffffffffffffffffffffffff1673ffffffffffffffffffffffffffffffffffffffff16815260200190815260200160002060008673ffffffffffffffffffffffffffffffffffffffff1673ffffffffffffffffffffffffffffffffffffffff168152602001908152602001600020819055506126f3565b6126728382614c5490919063ffffffff16565b600260003373ffffffffffffffffffffffffffffffffffffffff1673ffffffffffffffffffffffffffffffffffffffff16815260200190815260200160002060008673ffffffffffffffffffffffffffffffffffffffff1673ffffffffffffffffffffffffffffffffffffffff168152602001908152602001600020819055505b8373ffffffffffffffffffffffffffffffffffffffff163373ffffffffffffffffffffffffffffffffffffffff167f8c5be1e5ebec7d5bd14f71427d1e84f3dd0314c0f7b2291e5b200ac8c7c3b925600260003373ffffffffffffffffffffffffffffffffffffffff1673ffffffffffffffffffffffffffffffffffffffff16815260200190815260200160002060008873ffffffffffffffffffffffffffffffffffffffff1673ffffffffffffffffffffffffffffffffffffffff168152602001908152602001600020546040518082815260200191505060405180910390a3600191505092915050565b60086020528060005260406000206000915054906101000a900460ff1681565b60075481565b60008060008373ffffffffffffffffffffffffffffffffffffffff1673ffffffffffffffffffffffffffffffffffffffff168152602001908152602001600020549050919050565b6000806000600454421015151561286357600080fd5b61286b6135fc565b6128758888614360565b9150818a60405160200180836bffffffffffffffffffffffff19166bffffffffffffffffffffffff19168152601401828152602001925050506040516020818303038152906040526040518082805190602001908083835b6020831015156128f257805182526020820191506020810190506020830392506128cd565b6001836020036101000a0380198251168184511680821785525050505050509050019150506040518091039020905061292b818a613236565b151561293657600080fd5b6129433389888888613efd565b151561294e57600080fd5b600160086000836000191660001916815260200190815260200160002060006101000a81548160ff02191690831515021790555061298b8a61210e565b9250600b546129a584600954614c3890919063ffffffff16565b111515156129b257600080fd5b6129c783600954614c3890919063ffffffff16565b600981905550612a1e836000803373ffffffffffffffffffffffffffffffffffffffff1673ffffffffffffffffffffffffffffffffffffffff16815260200190815260200160002054614c3890919063ffffffff16565b6000803373ffffffffffffffffffffffffffffffffffffffff1673ffffffffffffffffffffffffffffffffffffffff16815260200190815260200160002081905550612a7583600154614c3890919063ffffffff16565b600181905550612a916001600a54614c3890919063ffffffff16565b600a819055503373ffffffffffffffffffffffffffffffffffffffff16600073ffffffffffffffffffffffffffffffffffffffff167fddf252ad1be2c89b69c2b068fc378daa952ba7f163c4a11628f55a4df523b3ef856040518082815260200191505060405180910390a38292505050979650505050505050565b600080600080600e60008673ffffffffffffffffffffffffffffffffffffffff1673ffffffffffffffffffffffffffffffffffffffff16815260200190815260200160002080549050925060009150600090506000831415612b725760009350612c8a565b5b82821015612c8557600e60008673ffffffffffffffffffffffffffffffffffffffff1673ffffffffffffffffffffffffffffffffffffffff16815260200190815260200160002080549050612bd2600183614c3890919063ffffffff16565b11612bdd5780612be0565b60005b9050600e60008673ffffffffffffffffffffffffffffffffffffffff1673ffffffffffffffffffffffffffffffffffffffff16815260200190815260200160002081815481101515612c2e57fe5b90600052602060002090600502016002015442101515612c5457612c528582612da5565b505b612c68600183614c3890919063ffffffff16565b9150612c7e600182614c3890919063ffffffff16565b9050612b73565b600193505b505050919050565b60045481565b600080600080600080600e60008973ffffffffffffffffffffffffffffffffffffffff1673ffffffffffffffffffffffffffffffffffffffff16815260200190815260200160002087815481101515612ced57fe5b906000526020600020906005020194506032612d2d62093a80612d1f6004548960010154614c5490919063ffffffff16565b614ca590919063ffffffff16565b111515612d9557612d4685600101548660020154613ca8565b9350612d558560000154611d0f565b9250612d64856000015461471f565b9150612d8b82612d7d8587614c3890919063ffffffff16565b614c3890919063ffffffff16565b9050809550612d9a565b600095505b505050505092915050565b6000612daf614f3a565b600080600080600e60008973ffffffffffffffffffffffffffffffffffffffff1673ffffffffffffffffffffffffffffffffffffffff16815260200190815260200160002087815481101515612e0157fe5b906000526020600020906005020160a0604051908101604052908160008201548152602001600182015481526020016002820154815260200160038201548152602001600482015481525050945084604001514210151515612e6257600080fd5b612e6a6135fc565b84600001519350612e7b8888614acb565b9250612e878888612c98565b9150612eae82612ea08587614c3890919063ffffffff16565b614c3890919063ffffffff16565b9050612ec584600d54614c5490919063ffffffff16565b600d81905550612f1c846000803073ffffffffffffffffffffffffffffffffffffffff1673ffffffffffffffffffffffffffffffffffffffff16815260200190815260200160002054614c5490919063ffffffff16565b6000803073ffffffffffffffffffffffffffffffffffffffff1673ffffffffffffffffffffffffffffffffffffffff16815260200190815260200160002081905550612faf816000808b73ffffffffffffffffffffffffffffffffffffffff1673ffffffffffffffffffffffffffffffffffffffff16815260200190815260200160002054614c3890919063ffffffff16565b6000808a73ffffffffffffffffffffffffffffffffffffffff1673ffffffffffffffffffffffffffffffffffffffff1681526020019081526020016000208190555061306482600080600360009054906101000a900473ffffffffffffffffffffffffffffffffffffffff1673ffffffffffffffffffffffffffffffffffffffff1673ffffffffffffffffffffffffffffffffffffffff16815260200190815260200160002054614c3890919063ffffffff16565b600080600360009054906101000a900473ffffffffffffffffffffffffffffffffffffffff1673ffffffffffffffffffffffffffffffffffffffff1673ffffffffffffffffffffffffffffffffffffffff168152602001908152602001600020819055508773ffffffffffffffffffffffffffffffffffffffff163073ffffffffffffffffffffffffffffffffffffffff167fddf252ad1be2c89b69c2b068fc378daa952ba7f163c4a11628f55a4df523b3ef87600001516040518082815260200191505060405180910390a3613159613148600284614c6d90919063ffffffff16565b600154614c3890919063ffffffff16565b6001819055508773ffffffffffffffffffffffffffffffffffffffff167f0f6798a560793a54c3bcfe86a93cde1e73087d944c0ea20544137d4121396885836040518082815260200191505060405180910390a2600360009054906101000a900473ffffffffffffffffffffffffffffffffffffffff1673ffffffffffffffffffffffffffffffffffffffff167f0f6798a560793a54c3bcfe86a93cde1e73087d944c0ea20544137d4121396885836040518082815260200191505060405180910390a261322788886134b3565b60019550505050505092915050565b600080151560086000856000191660001916815260200190815260200160002060009054906101000a900460ff16151514801561327957506132788284613d82565b5b905092915050565b6060806060806000606080606080600080600e60008d73ffffffffffffffffffffffffffffffffffffffff1673ffffffffffffffffffffffffffffffffffffffff168152602001908152602001600020805490509650866040519080825280602002602001820160405280156133065781602001602082028038833980820191505090505b509550866040519080825280602002602001820160405280156133385781602001602082028038833980820191505090505b5094508660405190808252806020026020018201604052801561336a5781602001602082028038833980820191505090505b5093508660405190808252806020026020018201604052801561339c5781602001602082028038833980820191505090505b509250600091505b8682101561349957600e60008d73ffffffffffffffffffffffffffffffffffffffff1673ffffffffffffffffffffffffffffffffffffffff168152602001908152602001600020828154811015156133f857fe5b906000526020600020906005020190508060000154868381518110151561341b57fe5b90602001906020020181815250508060010154858381518110151561343c57fe5b90602001906020020181815250508060020154848381518110151561345d57fe5b90602001906020020181815250508060030154838381518110151561347e57fe5b906020019060200201818152505081806001019250506133a4565b858585859a509a509a509a50505050505050509193509193565b6000600e60008473ffffffffffffffffffffffffffffffffffffffff1673ffffffffffffffffffffffffffffffffffffffff16815260200190815260200160002090508061350f60018380549050614c5490919063ffffffff16565b81548110151561351b57fe5b9060005260206000209060050201818381548110151561353757fe5b9060005260206000209060050201600082015481600001556001820154816001015560028201548160020155600382015481600301556004820154816004015590505061359260018280549050614c5490919063ffffffff16565b818161359e9190614f6a565b50505050565b600c5481565b600e602052816000526040600020818154811015156135c557fe5b9060005260206000209060050201600091509150508060000154908060010154908060020154908060030154908060040154905085565b60008061362962093a8061361b60045442614c5490919063ffffffff16565b614ca590919063ffffffff16565b91506032821115801561363d575060055482115b1561367e57613659600954600b54614c5490919063ffffffff16565b9050806006600060018503815260200190815260200160002081905550816005819055505b5050565b600360009054906101000a900473ffffffffffffffffffffffffffffffffffffffff1681565b600060045442116136ba5760006136e5565b6136e462093a806136d660045442614c5490919063ffffffff16565b614ca590919063ffffffff16565b5b905090565b60055481565b60008073ffffffffffffffffffffffffffffffffffffffff168373ffffffffffffffffffffffffffffffffffffffff161415151561372d57600080fd5b6000803373ffffffffffffffffffffffffffffffffffffffff1673ffffffffffffffffffffffffffffffffffffffff16815260200190815260200160002054821115151561377a57600080fd5b6137cb826000803373ffffffffffffffffffffffffffffffffffffffff1673ffffffffffffffffffffffffffffffffffffffff16815260200190815260200160002054614c5490919063ffffffff16565b6000803373ffffffffffffffffffffffffffffffffffffffff1673ffffffffffffffffffffffffffffffffffffffff1681526020019081526020016000208190555061385e826000808673ffffffffffffffffffffffffffffffffffffffff1673ffffffffffffffffffffffffffffffffffffffff16815260200190815260200160002054614c3890919063ffffffff16565b6000808573ffffffffffffffffffffffffffffffffffffffff1673ffffffffffffffffffffffffffffffffffffffff168152602001908152602001600020819055508273ffffffffffffffffffffffffffffffffffffffff163373ffffffffffffffffffffffffffffffffffffffff167fddf252ad1be2c89b69c2b068fc378daa952ba7f163c4a11628f55a4df523b3ef846040518082815260200191505060405180910390a36001905092915050565b60003373ffffffffffffffffffffffffffffffffffffffff168273ffffffffffffffffffffffffffffffffffffffff161415151561394c57600080fd5b600073ffffffffffffffffffffffffffffffffffffffff168273ffffffffffffffffffffffffffffffffffffffff161415151561398857600080fd5b6139f88b8b8b808060200260200160405190810160405280939291908181526020018383602002808284378201915050505050508a8a8080601f0160208091040260200160405190810160405280939291908181526020018383808284378201915050505050508989898961284d565b9050613a5e613a11601483614ca590919063ffffffff16565b6000808573ffffffffffffffffffffffffffffffffffffffff1673ffffffffffffffffffffffffffffffffffffffff16815260200190815260200160002054614c3890919063ffffffff16565b6000808473ffffffffffffffffffffffffffffffffffffffff1673ffffffffffffffffffffffffffffffffffffffff16815260200190815260200160002081905550613ac8613ab7601483614ca590919063ffffffff16565b600154614c3890919063ffffffff16565b6001819055508090509a9950505050505050505050565b6000806000806001600e60008973ffffffffffffffffffffffffffffffffffffffff1673ffffffffffffffffffffffffffffffffffffffff16815260200190815260200160002080549050039250828511151515613b3c57600080fd5b60008610151515613b4c57600080fd5b6000600e60008973ffffffffffffffffffffffffffffffffffffffff1673ffffffffffffffffffffffffffffffffffffffff168152602001908152602001600020805490501415613ba05760009350613c9e565b84861415613c0e57600e60008873ffffffffffffffffffffffffffffffffffffffff1673ffffffffffffffffffffffffffffffffffffffff1681526020019081526020016000206000815481101515613bf557fe5b9060005260206000209060050201600001549350613c9e565b8590505b8481111515613c9a57613c8b600e60008973ffffffffffffffffffffffffffffffffffffffff1673ffffffffffffffffffffffffffffffffffffffff16815260200190815260200160002082815481101515613c6a57fe5b90600052602060002090600502016000015483614c3890919063ffffffff16565b91508080600101915050613c12565b8193505b5050509392505050565b60008060008060008060009450613cdf62093a80613cd16004548b614c5490919063ffffffff16565b614ca590919063ffffffff16565b9350613d0b62093a80613cfd6004548a614c5490919063ffffffff16565b614ca590919063ffffffff16565b925060328311613d1b5782613d1e565b60325b91508390505b81811015613d7457613d65613d5660326006600085815260200190815260200160002054614ca590919063ffffffff16565b86614c3890919063ffffffff16565b94508080600101915050613d24565b849550505050505092915050565b6000613d918360075484614cbb565b905092915050565b6000613dec8260006001600e60008773ffffffffffffffffffffffffffffffffffffffff1673ffffffffffffffffffffffffffffffffffffffff1681526020019081526020016000208054905003613adf565b9050919050565b600080828411151515613e0557600080fd5b600e60008673ffffffffffffffffffffffffffffffffffffffff1673ffffffffffffffffffffffffffffffffffffffff1681526020019081526020016000208054905083101515613e5557600080fd5b8390505b8281111515613ef157600e60008673ffffffffffffffffffffffffffffffffffffffff1673ffffffffffffffffffffffffffffffffffffffff1681526020019081526020016000206000815481101515613eaf57fe5b90600052602060002090600502016002015442101515613eec57613ed4856000612da5565b50613ee9600182614c3890919063ffffffff16565b90505b613e59565b60019150509392505050565b6000614011600287604051602001808273ffffffffffffffffffffffffffffffffffffffff1673ffffffffffffffffffffffffffffffffffffffff166c010000000000000000000000000281526014019150506040516020818303038152906040526040518082805190602001908083835b602083101515613f945780518252602082019150602081019050602083039250613f6f565b6001836020036101000a0380198251168184511680821785525050505050509050019150506020604051808303816000865af1158015613fd8573d6000803e3d6000fd5b5050506040513d6020811015613fed57600080fd5b810190808051906020019092919050505085858561400a8a6124c0565b60006116f7565b905095945050505050565b600080848460405160200180836bffffffffffffffffffffffff19166bffffffffffffffffffffffff19168152601401828152602001925050506040516020818303038152906040526040518082805190602001908083835b60208310151561409a5780518252602082019150602081019050602083039250614075565b6001836020036101000a038019825116818451168082178552505050505050905001915050604051809103902090506140d38184613236565b9150509392505050565b600061416e82600260003373ffffffffffffffffffffffffffffffffffffffff1673ffffffffffffffffffffffffffffffffffffffff16815260200190815260200160002060008673ffffffffffffffffffffffffffffffffffffffff1673ffffffffffffffffffffffffffffffffffffffff16815260200190815260200160002054614c3890919063ffffffff16565b600260003373ffffffffffffffffffffffffffffffffffffffff1673ffffffffffffffffffffffffffffffffffffffff16815260200190815260200160002060008573ffffffffffffffffffffffffffffffffffffffff1673ffffffffffffffffffffffffffffffffffffffff168152602001908152602001600020819055508273ffffffffffffffffffffffffffffffffffffffff163373ffffffffffffffffffffffffffffffffffffffff167f8c5be1e5ebec7d5bd14f71427d1e84f3dd0314c0f7b2291e5b200ac8c7c3b925600260003373ffffffffffffffffffffffffffffffffffffffff1673ffffffffffffffffffffffffffffffffffffffff16815260200190815260200160002060008773ffffffffffffffffffffffffffffffffffffffff1673ffffffffffffffffffffffffffffffffffffffff168152602001908152602001600020546040518082815260200191505060405180910390a36001905092915050565b6000600260008473ffffffffffffffffffffffffffffffffffffffff1673ffffffffffffffffffffffffffffffffffffffff16815260200190815260200160002060008373ffffffffffffffffffffffffffffffffffffffff1673ffffffffffffffffffffffffffffffffffffffff16815260200190815260200160002054905092915050565b600080600080614371866000614e5e565b600190049250614382866020614e5e565b600190049150841561455e57600060028381151561439c57fe5b06146143a95760036143ac565b60025b9050600360028285604051602001808360ff1660ff167f0100000000000000000000000000000000000000000000000000000000000000028152600101828152602001925050506040516020818303038152906040526040518082805190602001908083835b6020831015156144375780518252602082019150602081019050602083039250614412565b6001836020036101000a0380198251168184511680821785525050505050509050019150506020604051808303816000865af115801561447b573d6000803e3d6000fd5b5050506040513d602081101561449057600080fd5b81019080805190602001909291905050506040516020018082600019166000191681526020019150506040516020818303038152906040526040518082805190602001908083835b6020831015156144fd57805182526020820191506020810190506020830392506144d8565b6001836020036101000a0380198251168184511680821785525050505050509050019150506020604051808303816000865af1158015614541573d6000803e3d6000fd5b505050604051516c01000000000000000000000000029350614716565b6004905060036002828585604051602001808460ff1660ff167f010000000000000000000000000000000000000000000000000000000000000002815260010183815260200182815260200193505050506040516020818303038152906040526040518082805190602001908083835b6020831015156145f357805182526020820191506020810190506020830392506145ce565b6001836020036101000a0380198251168184511680821785525050505050509050019150506020604051808303816000865af1158015614637573d6000803e3d6000fd5b5050506040513d602081101561464c57600080fd5b81019080805190602001909291905050506040516020018082600019166000191681526020019150506040516020818303038152906040526040518082805190602001908083835b6020831015156146b95780518252602082019150602081019050602083039250614694565b6001836020036101000a0380198251168184511680821785525050505050509050019150506020604051808303816000865af11580156146fd573d6000803e3d6000fd5b505050604051516c010000000000000000000000000293505b50505092915050565b600061475d600a61474f600b5461474160095487614c6d90919063ffffffff16565b614ca590919063ffffffff16565b614ca590919063ffffffff16565b9050919050565b600080600e60008573ffffffffffffffffffffffffffffffffffffffff1673ffffffffffffffffffffffffffffffffffffffff168152602001908152602001600020838154811015156147b357fe5b9060005260206000209060050201600001549050600e60008573ffffffffffffffffffffffffffffffffffffffff1673ffffffffffffffffffffffffffffffffffffffff1681526020019081526020016000208381548110151561481357fe5b90600052602060002090600502016002015442111561484f576148486148398585612c98565b82614c3890919063ffffffff16565b9150614853565b8091505b5092915050565b60006148ad826000808673ffffffffffffffffffffffffffffffffffffffff1673ffffffffffffffffffffffffffffffffffffffff16815260200190815260200160002054614c3890919063ffffffff16565b6000808573ffffffffffffffffffffffffffffffffffffffff1673ffffffffffffffffffffffffffffffffffffffff1681526020019081526020016000208190555061490482600154614c3890919063ffffffff16565b6001819055508273ffffffffffffffffffffffffffffffffffffffff167f0f6798a560793a54c3bcfe86a93cde1e73087d944c0ea20544137d4121396885836040518082815260200191505060405180910390a28273ffffffffffffffffffffffffffffffffffffffff16600073ffffffffffffffffffffffffffffffffffffffff167fddf252ad1be2c89b69c2b068fc378daa952ba7f163c4a11628f55a4df523b3ef846040518082815260200191505060405180910390a36001905092915050565b60095481565b600080600080600080600a945084888115156149e657fe5b0693506149fc8589614ca590919063ffffffff16565b9250614a166402540be4008a614ca590919063ffffffff16565b9150600090505b82811015614a6d57614a50856127100a614a42878a0a85614c6d90919063ffffffff16565b614ca590919063ffffffff16565b9150614a66600182614c3890919063ffffffff16565b9050614a1d565b600084141515614aa557614aa2846127100a614a94868a0a85614c6d90919063ffffffff16565b614ca590919063ffffffff16565b91505b614abd6402540be40083614c6d90919063ffffffff16565b955050505050509392505050565b6000806000806000806000806000600e60008c73ffffffffffffffffffffffffffffffffffffffff1673ffffffffffffffffffffffffffffffffffffffff1681526020019081526020016000208a815481101515614b2557fe5b90600052602060002090600502019750614b4a60646001614c6d90919063ffffffff16565b96506001955060008860030154141515614ba257614b8c8860040154614b7e60648b60030154614c6d90919063ffffffff16565b614ca590919063ffffffff16565b945060008511614b9d576001614b9f565b845b95505b614bb58688614ca590919063ffffffff16565b9350614bcc61271085614c3890919063ffffffff16565b9250614bfe620d2f00614bf08a600101548b60020154614c5490919063ffffffff16565b614ca590919063ffffffff16565b9150614c0f886000015483856149ce565b9050614c28886000015482614c5490919063ffffffff16565b9850505050505050505092915050565b60008183019050828110151515614c4b57fe5b80905092915050565b6000828211151515614c6257fe5b818303905092915050565b600080831415614c805760009050614c9f565b8183029050818382811515614c9157fe5b04141515614c9b57fe5b8090505b92915050565b60008183811515614cb257fe5b04905092915050565b600080600080849250600091505b8651821015614e47578682815181101515614ce057fe5b906020019060200201519050806000191683600019161015614d9d5782816040516020018083600019166000191681526020018260001916600019168152602001925050506040516020818303038152906040526040518082805190602001908083835b602083101515614d695780518252602082019150602081019050602083039250614d44565b6001836020036101000a03801982511681845116808217855250505050505090500191505060405180910390209250614e3a565b80836040516020018083600019166000191681526020018260001916600019168152602001925050506040516020818303038152906040526040518082805190602001908083835b602083101515614e0a5780518252602082019150602081019050602083039250614de5565b6001836020036101000a038019825116818451168082178552505050505050905001915050604051809103902092505b8180600101925050614cc9565b856000191683600019161493505050509392505050565b600080600090505b6020811015614f30576008810284848301815181101515614e8357fe5b9060200101517f010000000000000000000000000000000000000000000000000000000000000090047f0100000000000000000000000000000000000000000000000000000000000000027effffffffffffffffffffffffffffffffffffffffffffffffffffffffffffff19167fff0000000000000000000000000000000000000000000000000000000000000060010216600019169060020a9004821891508080600101915050614e66565b8191505092915050565b60a06040519081016040528060008152602001600081526020016000815260200160008152602001600081525090565b815481835581811115614f9757600502816005028360005260206000209182019101614f969190614f9c565b5b505050565b614fe091905b80821115614fdc57600080820160009055600182016000905560028201600090556003820160009055600482016000905550600501614fa2565b5090565b905600a165627a7a723058208c97e4b6b9b2414c2eaf7148528d8652de7a52ed9ef58e8f9782afc2bbff767a0029",
  "source": "pragma solidity ^0.4.23;\n\nimport \"../StakeableToken.sol\";\n\n\ncontract StakeableTokenStub is StakeableToken {\n  constructor (\n    address _origin,\n    uint256 _launchTime,\n    bytes32 _rootUtxoMerkleTreeHash,\n    uint256 _totalBtcCirculationAtFork,\n    uint256 _maximumRedeemable\n  ) \n    public\n  {\n    origin = _origin;\n    launchTime = _launchTime;\n    rootUtxoMerkleTreeHash = _rootUtxoMerkleTreeHash;\n    totalBtcCirculationAtFork = _totalBtcCirculationAtFork;\n    maximumRedeemable = _maximumRedeemable;\n  }\n\n  // only uesd for testing: easily mint more tokens for stress tests\n  function mintTokens(\n    address _address,\n    uint256 _amount\n  )\n    public\n    returns (bool)\n  {\n    balances[_address] = balances[_address].add(_amount);\n    totalSupply_ = totalSupply_.add(_amount);\n    emit Mint(_address, _amount);\n    emit Transfer(address(0), _address, _amount);\n\n    return true;\n  }\n\n  function setRedeemedCount(\n    uint256 _count\n  )\n    public\n    returns (bool)\n  {\n    redeemedCount = _count;\n  }\n\n  function setMaximumRedeemable(\n    uint256 _maxRedeemable\n  )\n    public\n    returns (bool)\n  {\n    maximumRedeemable = _maxRedeemable;\n  }\n}",
  "sourcePath": "/Users/tovarishfin/dev/bhx/bhx-contracts/contracts/stubs/StakeableTokenStub.sol",
  "compiler": {
    "name": "solc",
    "version": "0.4.24+commit.e67f0147.Emscripten.clang"
  },
  "schemaVersion": "2.0.1",
  "updatedAt": "2018-08-11T16:07:30.168Z"
}