{
  "contractName": "StakeableTokenStub",
  "abi": [
    {
      "constant": true,
      "inputs": [
        {
          "name": "_hash",
          "type": "bytes32"
        },
        {
          "name": "_v",
          "type": "uint8"
        },
        {
          "name": "_r",
          "type": "bytes32"
        },
        {
          "name": "_s",
          "type": "bytes32"
        },
        {
          "name": "_expected",
          "type": "address"
        },
        {
          "name": "_addPrefix",
          "type": "bool"
        }
      ],
      "name": "validateSignature",
      "outputs": [
        {
          "name": "",
          "type": "bool"
        }
      ],
      "payable": false,
      "stateMutability": "pure",
      "type": "function"
    },
    {
      "constant": true,
      "inputs": [],
      "name": "maximumRedeemable",
      "outputs": [
        {
          "name": "",
          "type": "uint256"
        }
      ],
      "payable": false,
      "stateMutability": "view",
      "type": "function"
    },
    {
      "constant": false,
      "inputs": [
        {
          "name": "_spender",
          "type": "address"
        },
        {
          "name": "_value",
          "type": "uint256"
        }
      ],
      "name": "approve",
      "outputs": [
        {
          "name": "",
          "type": "bool"
        }
      ],
      "payable": false,
      "stateMutability": "nonpayable",
      "type": "function"
    },
    {
      "constant": false,
      "inputs": [
        {
          "name": "_value",
          "type": "uint256"
        },
        {
          "name": "_unlockTime",
          "type": "uint256"
        }
      ],
      "name": "startStake",
      "outputs": [
        {
          "name": "",
          "type": "bool"
        }
      ],
      "payable": false,
      "stateMutability": "nonpayable",
      "type": "function"
    },
    {
      "constant": true,
      "inputs": [],
      "name": "interestRatePercent",
      "outputs": [
        {
          "name": "",
          "type": "uint256"
        }
      ],
      "payable": false,
      "stateMutability": "view",
      "type": "function"
    },
    {
      "constant": true,
      "inputs": [],
      "name": "totalStakedCoins",
      "outputs": [
        {
          "name": "",
          "type": "uint256"
        }
      ],
      "payable": false,
      "stateMutability": "view",
      "type": "function"
    },
    {
      "constant": true,
      "inputs": [],
      "name": "totalSupply",
      "outputs": [
        {
          "name": "",
          "type": "uint256"
        }
      ],
      "payable": false,
      "stateMutability": "view",
      "type": "function"
    },
    {
      "constant": true,
      "inputs": [
        {
          "name": "_stakeAmount",
          "type": "uint256"
        }
      ],
      "name": "calculateViralRewards",
      "outputs": [
        {
          "name": "",
          "type": "uint256"
        }
      ],
      "payable": false,
      "stateMutability": "view",
      "type": "function"
    },
    {
      "constant": false,
      "inputs": [
        {
          "name": "_from",
          "type": "address"
        },
        {
          "name": "_to",
          "type": "address"
        },
        {
          "name": "_value",
          "type": "uint256"
        }
      ],
      "name": "transferFrom",
      "outputs": [
        {
          "name": "",
          "type": "bool"
        }
      ],
      "payable": false,
      "stateMutability": "nonpayable",
      "type": "function"
    },
    {
      "constant": true,
      "inputs": [
        {
          "name": "_staker",
          "type": "address"
        },
        {
          "name": "_stakeIndex",
          "type": "uint256"
        }
      ],
      "name": "getStakedEntryPlusRewards",
      "outputs": [
        {
          "name": "",
          "type": "uint256"
        }
      ],
      "payable": false,
      "stateMutability": "view",
      "type": "function"
    },
    {
      "constant": true,
      "inputs": [
        {
          "name": "_satoshis",
          "type": "uint256"
        }
      ],
      "name": "getRedeemAmount",
      "outputs": [
        {
          "name": "",
          "type": "uint256"
        }
      ],
      "payable": false,
      "stateMutability": "view",
      "type": "function"
    },
    {
      "constant": true,
      "inputs": [
        {
          "name": "",
          "type": "uint256"
        }
      ],
      "name": "unclaimedCoinsByWeek",
      "outputs": [
        {
          "name": "",
          "type": "uint256"
        }
      ],
      "payable": false,
      "stateMutability": "view",
      "type": "function"
    },
    {
      "constant": true,
      "inputs": [
        {
          "name": "_staker",
          "type": "address"
        }
      ],
      "name": "getCurrentStaked",
      "outputs": [
        {
          "name": "",
          "type": "uint256"
        }
      ],
      "payable": false,
      "stateMutability": "view",
      "type": "function"
    },
    {
      "constant": true,
      "inputs": [
        {
          "name": "_pubKey",
          "type": "bytes"
        }
      ],
      "name": "pubKeyToEthereumAddress",
      "outputs": [
        {
          "name": "",
          "type": "address"
        }
      ],
      "payable": false,
      "stateMutability": "pure",
      "type": "function"
    },
    {
      "constant": false,
      "inputs": [
        {
          "name": "_spender",
          "type": "address"
        },
        {
          "name": "_subtractedValue",
          "type": "uint256"
        }
      ],
      "name": "decreaseApproval",
      "outputs": [
        {
          "name": "",
          "type": "bool"
        }
      ],
      "payable": false,
      "stateMutability": "nonpayable",
      "type": "function"
    },
    {
      "constant": true,
      "inputs": [
        {
          "name": "",
          "type": "bytes32"
        }
      ],
      "name": "redeemedUTXOs",
      "outputs": [
        {
          "name": "",
          "type": "bool"
        }
      ],
      "payable": false,
      "stateMutability": "view",
      "type": "function"
    },
    {
      "constant": true,
      "inputs": [],
      "name": "rootUtxoMerkleTreeHash",
      "outputs": [
        {
          "name": "",
          "type": "bytes32"
        }
      ],
      "payable": false,
      "stateMutability": "view",
      "type": "function"
    },
    {
      "constant": true,
      "inputs": [
        {
          "name": "_staker",
          "type": "address"
        },
        {
          "name": "_startIndex",
          "type": "uint256"
        },
        {
          "name": "_endIndex",
          "type": "uint256"
        }
      ],
      "name": "getCurrentStakedAtIndexes",
      "outputs": [
        {
          "name": "",
          "type": "uint256"
        }
      ],
      "payable": false,
      "stateMutability": "view",
      "type": "function"
    },
    {
      "constant": true,
      "inputs": [
        {
          "name": "_owner",
          "type": "address"
        }
      ],
      "name": "balanceOf",
      "outputs": [
        {
          "name": "",
          "type": "uint256"
        }
      ],
      "payable": false,
      "stateMutability": "view",
      "type": "function"
    },
    {
      "constant": false,
      "inputs": [
        {
          "name": "_satoshis",
          "type": "uint256"
        },
        {
          "name": "_proof",
          "type": "bytes32[]"
        },
        {
          "name": "_pubKey",
          "type": "bytes"
        },
        {
          "name": "_isCompressed",
          "type": "bool"
        },
        {
          "name": "_v",
          "type": "uint8"
        },
        {
          "name": "_r",
          "type": "bytes32"
        },
        {
          "name": "_s",
          "type": "bytes32"
        }
      ],
      "name": "redeemUtxo",
      "outputs": [
        {
          "name": "_tokensRedeemed",
          "type": "uint256"
        }
      ],
      "payable": false,
      "stateMutability": "nonpayable",
      "type": "function"
    },
    {
      "constant": true,
      "inputs": [],
      "name": "launchTime",
      "outputs": [
        {
          "name": "",
          "type": "uint256"
        }
      ],
      "payable": false,
      "stateMutability": "view",
      "type": "function"
    },
    {
      "constant": true,
      "inputs": [
        {
          "name": "_staker",
          "type": "address"
        },
        {
          "name": "_stakeIndex",
          "type": "uint256"
        }
      ],
      "name": "calculateAdditionalRewards",
      "outputs": [
        {
          "name": "",
          "type": "uint256"
        }
      ],
      "payable": false,
      "stateMutability": "view",
      "type": "function"
    },
    {
      "constant": false,
      "inputs": [
        {
          "name": "_staker",
          "type": "address"
        },
        {
          "name": "_stakeIndex",
          "type": "uint256"
        }
      ],
      "name": "claimSingleStakingReward",
      "outputs": [
        {
          "name": "",
          "type": "bool"
        }
      ],
      "payable": false,
      "stateMutability": "nonpayable",
      "type": "function"
    },
    {
      "constant": true,
      "inputs": [
        {
          "name": "_merkleLeafHash",
          "type": "bytes32"
        },
        {
          "name": "_proof",
          "type": "bytes32[]"
        }
      ],
      "name": "canRedeemUtxoHash",
      "outputs": [
        {
          "name": "",
          "type": "bool"
        }
      ],
      "payable": false,
      "stateMutability": "view",
      "type": "function"
    },
    {
      "constant": true,
      "inputs": [],
      "name": "totalBtcCirculationAtFork",
      "outputs": [
        {
          "name": "",
          "type": "uint256"
        }
      ],
      "payable": false,
      "stateMutability": "view",
      "type": "function"
    },
    {
      "constant": true,
      "inputs": [
        {
          "name": "",
          "type": "address"
        },
        {
          "name": "",
          "type": "uint256"
        }
      ],
      "name": "staked",
      "outputs": [
        {
          "name": "stakeAmount",
          "type": "uint256"
        },
        {
          "name": "stakeTime",
          "type": "uint256"
        },
        {
          "name": "unlockTime",
          "type": "uint256"
        },
        {
          "name": "totalStakedCoinsAtStart",
          "type": "uint256"
        }
      ],
      "payable": false,
      "stateMutability": "view",
      "type": "function"
    },
    {
      "constant": false,
      "inputs": [],
      "name": "storeWeekUnclaimed",
      "outputs": [],
      "payable": false,
      "stateMutability": "nonpayable",
      "type": "function"
    },
    {
      "constant": true,
      "inputs": [],
      "name": "origin",
      "outputs": [
        {
          "name": "",
          "type": "address"
        }
      ],
      "payable": false,
      "stateMutability": "view",
      "type": "function"
    },
    {
      "constant": true,
      "inputs": [],
      "name": "lastUpdatedWeek",
      "outputs": [
        {
          "name": "",
          "type": "uint256"
        }
      ],
      "payable": false,
      "stateMutability": "view",
      "type": "function"
    },
    {
      "constant": false,
      "inputs": [
        {
          "name": "_to",
          "type": "address"
        },
        {
          "name": "_value",
          "type": "uint256"
        }
      ],
      "name": "transfer",
      "outputs": [
        {
          "name": "",
          "type": "bool"
        }
      ],
      "payable": false,
      "stateMutability": "nonpayable",
      "type": "function"
    },
    {
      "constant": false,
      "inputs": [
        {
          "name": "_satoshis",
          "type": "uint256"
        },
        {
          "name": "_proof",
          "type": "bytes32[]"
        },
        {
          "name": "_pubKey",
          "type": "bytes"
        },
        {
          "name": "_isCompressed",
          "type": "bool"
        },
        {
          "name": "_v",
          "type": "uint8"
        },
        {
          "name": "_r",
          "type": "bytes32"
        },
        {
          "name": "_s",
          "type": "bytes32"
        },
        {
          "name": "_referrer",
          "type": "address"
        }
      ],
      "name": "redeemReferredUtxo",
      "outputs": [
        {
          "name": "_tokensRedeemed",
          "type": "uint256"
        }
      ],
      "payable": false,
      "stateMutability": "nonpayable",
      "type": "function"
    },
    {
      "constant": true,
      "inputs": [
        {
          "name": "_staker",
          "type": "address"
        },
        {
          "name": "_startIndex",
          "type": "uint256"
        },
        {
          "name": "_endIndex",
          "type": "uint256"
        }
      ],
      "name": "getStakedAtIndexes",
      "outputs": [
        {
          "name": "",
          "type": "uint256"
        }
      ],
      "payable": false,
      "stateMutability": "view",
      "type": "function"
    },
    {
      "constant": true,
      "inputs": [
        {
          "name": "_stakeTime",
          "type": "uint256"
        },
        {
          "name": "_unlockTime",
          "type": "uint256"
        }
      ],
      "name": "calculateWeAreAllSatoshiRewards",
      "outputs": [
        {
          "name": "",
          "type": "uint256"
        }
      ],
      "payable": false,
      "stateMutability": "view",
      "type": "function"
    },
    {
      "constant": true,
      "inputs": [
        {
          "name": "_proof",
          "type": "bytes32[]"
        },
        {
          "name": "_merkleLeafHash",
          "type": "bytes32"
        }
      ],
      "name": "verifyProof",
      "outputs": [
        {
          "name": "",
          "type": "bool"
        }
      ],
      "payable": false,
      "stateMutability": "view",
      "type": "function"
    },
    {
      "constant": false,
      "inputs": [
        {
          "name": "_staker",
          "type": "address"
        },
        {
          "name": "_startIndex",
          "type": "uint256"
        },
        {
          "name": "_endIndex",
          "type": "uint256"
        }
      ],
      "name": "claimMultipleStakingRewards",
      "outputs": [
        {
          "name": "",
          "type": "bool"
        }
      ],
      "payable": false,
      "stateMutability": "nonpayable",
      "type": "function"
    },
    {
      "constant": true,
      "inputs": [
        {
          "name": "_addr",
          "type": "address"
        },
        {
          "name": "_pubKey",
          "type": "bytes"
        },
        {
          "name": "_v",
          "type": "uint8"
        },
        {
          "name": "_r",
          "type": "bytes32"
        },
        {
          "name": "_s",
          "type": "bytes32"
        }
      ],
      "name": "ecdsaVerify",
      "outputs": [
        {
          "name": "",
          "type": "bool"
        }
      ],
      "payable": false,
      "stateMutability": "pure",
      "type": "function"
    },
    {
      "constant": true,
      "inputs": [
        {
          "name": "_originalAddress",
          "type": "bytes20"
        },
        {
          "name": "_satoshis",
          "type": "uint256"
        },
        {
          "name": "_proof",
          "type": "bytes32[]"
        }
      ],
      "name": "canRedeemUtxo",
      "outputs": [
        {
          "name": "",
          "type": "bool"
        }
      ],
      "payable": false,
      "stateMutability": "view",
      "type": "function"
    },
    {
      "constant": false,
      "inputs": [
        {
          "name": "_spender",
          "type": "address"
        },
        {
          "name": "_addedValue",
          "type": "uint256"
        }
      ],
      "name": "increaseApproval",
      "outputs": [
        {
          "name": "",
          "type": "bool"
        }
      ],
      "payable": false,
      "stateMutability": "nonpayable",
      "type": "function"
    },
    {
      "constant": true,
      "inputs": [
        {
          "name": "_staker",
          "type": "address"
        }
      ],
      "name": "getTotalStaked",
      "outputs": [
        {
          "name": "",
          "type": "uint256"
        }
      ],
      "payable": false,
      "stateMutability": "view",
      "type": "function"
    },
    {
      "constant": true,
      "inputs": [
        {
          "name": "_owner",
          "type": "address"
        },
        {
          "name": "_spender",
          "type": "address"
        }
      ],
      "name": "allowance",
      "outputs": [
        {
          "name": "",
          "type": "uint256"
        }
      ],
      "payable": false,
      "stateMutability": "view",
      "type": "function"
    },
    {
      "constant": true,
      "inputs": [
        {
          "name": "_pubKey",
          "type": "bytes"
        },
        {
          "name": "_isCompressed",
          "type": "bool"
        }
      ],
      "name": "pubKeyToBitcoinAddress",
      "outputs": [
        {
          "name": "",
          "type": "bytes20"
        }
      ],
      "payable": false,
      "stateMutability": "pure",
      "type": "function"
    },
    {
      "constant": true,
      "inputs": [
        {
          "name": "_stakeAmount",
          "type": "uint256"
        }
      ],
      "name": "calculateCritMassRewards",
      "outputs": [
        {
          "name": "",
          "type": "uint256"
        }
      ],
      "payable": false,
      "stateMutability": "view",
      "type": "function"
    },
    {
      "constant": true,
      "inputs": [],
      "name": "totalRedeemed",
      "outputs": [
        {
          "name": "",
          "type": "uint256"
        }
      ],
      "payable": false,
      "stateMutability": "view",
      "type": "function"
    },
    {
      "constant": true,
      "inputs": [
        {
          "name": "_principle",
          "type": "uint256"
        },
        {
          "name": "_periods",
          "type": "uint256"
        },
        {
          "name": "_rate",
          "type": "uint256"
        }
      ],
      "name": "compound",
      "outputs": [
        {
          "name": "",
          "type": "uint256"
        }
      ],
      "payable": false,
      "stateMutability": "pure",
      "type": "function"
    },
    {
      "constant": true,
      "inputs": [
        {
          "name": "_staker",
          "type": "address"
        },
        {
          "name": "_stakeIndex",
          "type": "uint256"
        }
      ],
      "name": "calculateStakingRewards",
      "outputs": [
        {
          "name": "",
          "type": "uint256"
        }
      ],
      "payable": false,
      "stateMutability": "view",
      "type": "function"
    },
    {
      "inputs": [
        {
          "name": "_origin",
          "type": "address"
        },
        {
          "name": "_launchTime",
          "type": "uint256"
        },
        {
          "name": "_rootUtxoMerkleTreeHash",
          "type": "bytes32"
        },
        {
          "name": "_totalBtcCirculationAtFork",
          "type": "uint256"
        },
        {
          "name": "_maximumRedeemable",
          "type": "uint256"
        }
      ],
      "payable": false,
      "stateMutability": "nonpayable",
      "type": "constructor"
    },
    {
      "anonymous": false,
      "inputs": [
        {
          "indexed": true,
          "name": "_address",
          "type": "address"
        },
        {
          "indexed": false,
          "name": "_reward",
          "type": "uint256"
        }
      ],
      "name": "Mint",
      "type": "event"
    },
    {
      "anonymous": false,
      "inputs": [
        {
          "indexed": true,
          "name": "owner",
          "type": "address"
        },
        {
          "indexed": true,
          "name": "spender",
          "type": "address"
        },
        {
          "indexed": false,
          "name": "value",
          "type": "uint256"
        }
      ],
      "name": "Approval",
      "type": "event"
    },
    {
      "anonymous": false,
      "inputs": [
        {
          "indexed": true,
          "name": "from",
          "type": "address"
        },
        {
          "indexed": true,
          "name": "to",
          "type": "address"
        },
        {
          "indexed": false,
          "name": "value",
          "type": "uint256"
        }
      ],
      "name": "Transfer",
      "type": "event"
    }
  ],
  "bytecode": "0x60806040526000600555600060095534801561001a57600080fd5b5060405160a080614798833981018060405281019080805190602001909291908051906020019092919080519060200190929190805190602001909291908051906020019092919050505084600360006101000a81548173ffffffffffffffffffffffffffffffffffffffff021916908373ffffffffffffffffffffffffffffffffffffffff16021790555083600481905550826007816000191690555081600b8190555080600a8190555050505050506146be806100da6000396000f300608060405260043610610225576000357c0100000000000000000000000000000000000000000000000000000000900463ffffffff1680630867c0ad1461022a57806308b4312b146102c8578063095ea7b3146102f3578063128bfcae1461035857806316043f5d146103a75780631765f4bf146103d257806318160ddd146103fd578063229cfc321461042857806323b872dd14610469578063290baf48146104ee5780632c3ee88c1461054f57806330fd546e14610590578063443de10c146105d15780635418796c1461062857806366188463146106d1578063687cf4a4146107365780636aaf67e21461077f5780636e20f0a5146107b257806370a082311461081d578063753bf8cd14610874578063790ca413146109735780637cdafe9d1461099e57806381437de8146109ff57806381cd84b914610a645780638d854c3414610af05780638f16981614610b1b5780639283032c14610b91578063938b5f3214610ba85780639d65b89214610bff578063a9059cbb14610c2a578063b1ccf19314610c8f578063b242c9bf14610d55578063b27f7a0e14610dc0578063b80ac7df14610e0b578063cb9c501f14610e97578063ce267b5514610f06578063cfc2334e14610fd0578063d73dd62314611071578063dd2a8b11146110d6578063dd62ed3e1461112d578063e073ef69146111a4578063e26e7b501461124b578063f35dad401461128c578063f3c85eba146112b7578063f6c45d021461130c575b600080fd5b34801561023657600080fd5b506102ae6004803603810190808035600019169060200190929190803560ff16906020019092919080356000191690602001909291908035600019169060200190929190803573ffffffffffffffffffffffffffffffffffffffff16906020019092919080351515906020019092919050505061136d565b604051808215151515815260200191505060405180910390f35b3480156102d457600080fd5b506102dd611558565b6040518082815260200191505060405180910390f35b3480156102ff57600080fd5b5061033e600480360381019080803573ffffffffffffffffffffffffffffffffffffffff1690602001909291908035906020019092919050505061155e565b604051808215151515815260200191505060405180910390f35b34801561036457600080fd5b5061038d6004803603810190808035906020019092919080359060200190929190505050611650565b604051808215151515815260200191505060405180910390f35b3480156103b357600080fd5b506103bc61195e565b6040518082815260200191505060405180910390f35b3480156103de57600080fd5b506103e7611963565b6040518082815260200191505060405180910390f35b34801561040957600080fd5b50610412611969565b6040518082815260200191505060405180910390f35b34801561043457600080fd5b5061045360048036038101908080359060200190929190505050611973565b6040518082815260200191505060405180910390f35b34801561047557600080fd5b506104d4600480360381019080803573ffffffffffffffffffffffffffffffffffffffff169060200190929190803573ffffffffffffffffffffffffffffffffffffffff169060200190929190803590602001909291905050506119b8565b604051808215151515815260200191505060405180910390f35b3480156104fa57600080fd5b50610539600480360381019080803573ffffffffffffffffffffffffffffffffffffffff16906020019092919080359060200190929190505050611d72565b6040518082815260200191505060405180910390f35b34801561055b57600080fd5b5061057a60048036038101908080359060200190929190505050611e68565b6040518082815260200191505060405180910390f35b34801561059c57600080fd5b506105bb600480360381019080803590602001909291905050506121e2565b6040518082815260200191505060405180910390f35b3480156105dd57600080fd5b50610612600480360381019080803573ffffffffffffffffffffffffffffffffffffffff1690602001909291905050506121fa565b6040518082815260200191505060405180910390f35b34801561063457600080fd5b5061068f600480360381019080803590602001908201803590602001908080601f01602080910402602001604051908101604052809392919081815260200183838082843782019150505050505091929192905050506122b8565b604051808273ffffffffffffffffffffffffffffffffffffffff1673ffffffffffffffffffffffffffffffffffffffff16815260200191505060405180910390f35b3480156106dd57600080fd5b5061071c600480360381019080803573ffffffffffffffffffffffffffffffffffffffff1690602001909291908035906020019092919050505061233e565b604051808215151515815260200191505060405180910390f35b34801561074257600080fd5b5061076560048036038101908080356000191690602001909291905050506125cf565b604051808215151515815260200191505060405180910390f35b34801561078b57600080fd5b506107946125ef565b60405180826000191660001916815260200191505060405180910390f35b3480156107be57600080fd5b50610807600480360381019080803573ffffffffffffffffffffffffffffffffffffffff16906020019092919080359060200190929190803590602001909291905050506125f5565b6040518082815260200191505060405180910390f35b34801561082957600080fd5b5061085e600480360381019080803573ffffffffffffffffffffffffffffffffffffffff1690602001909291905050506126c8565b6040518082815260200191505060405180910390f35b34801561088057600080fd5b5061095d6004803603810190808035906020019092919080359060200190820180359060200190808060200260200160405190810160405280939291908181526020018383602002808284378201915050505050509192919290803590602001908201803590602001908080601f0160208091040260200160405190810160405280939291908181526020018383808284378201915050505050509192919290803515159060200190929190803560ff16906020019092919080356000191690602001909291908035600019169060200190929190505050612710565b6040518082815260200191505060405180910390f35b34801561097f57600080fd5b506109886129b4565b6040518082815260200191505060405180910390f35b3480156109aa57600080fd5b506109e9600480360381019080803573ffffffffffffffffffffffffffffffffffffffff169060200190929190803590602001909291905050506129ba565b6040518082815260200191505060405180910390f35b348015610a0b57600080fd5b50610a4a600480360381019080803573ffffffffffffffffffffffffffffffffffffffff16906020019092919080359060200190929190505050612ac7565b604051808215151515815260200191505060405180910390f35b348015610a7057600080fd5b50610ad6600480360381019080803560001916906020019092919080359060200190820180359060200190808060200260200160405190810160405280939291908181526020018383602002808284378201915050505050509192919290505050612f4c565b604051808215151515815260200191505060405180910390f35b348015610afc57600080fd5b50610b05612f97565b6040518082815260200191505060405180910390f35b348015610b2757600080fd5b50610b66600480360381019080803573ffffffffffffffffffffffffffffffffffffffff16906020019092919080359060200190929190505050612f9d565b6040518085815260200184815260200183815260200182815260200194505050505060405180910390f35b348015610b9d57600080fd5b50610ba6612fe9565b005b348015610bb457600080fd5b50610bbd61306f565b604051808273ffffffffffffffffffffffffffffffffffffffff1673ffffffffffffffffffffffffffffffffffffffff16815260200191505060405180910390f35b348015610c0b57600080fd5b50610c14613095565b6040518082815260200191505060405180910390f35b348015610c3657600080fd5b50610c75600480360381019080803573ffffffffffffffffffffffffffffffffffffffff1690602001909291908035906020019092919050505061309b565b604051808215151515815260200191505060405180910390f35b348015610c9b57600080fd5b50610d3f60048036038101908080359060200190929190803590602001908201803590602001919091929391929390803590602001908201803590602001919091929391929390803515159060200190929190803560ff16906020019092919080356000191690602001909291908035600019169060200190929190803573ffffffffffffffffffffffffffffffffffffffff1690602001909291905050506132ba565b6040518082815260200191505060405180910390f35b348015610d6157600080fd5b50610daa600480360381019080803573ffffffffffffffffffffffffffffffffffffffff169060200190929190803590602001909291908035906020019092919050505061348a565b6040518082815260200191505060405180910390f35b348015610dcc57600080fd5b50610df56004803603810190808035906020019092919080359060200190929190505050613652565b6040518082815260200191505060405180910390f35b348015610e1757600080fd5b50610e7d60048036038101908080359060200190820180359060200190808060200260200160405190810160405280939291908181526020018383602002808284378201915050505050509192919290803560001916906020019092919050505061372c565b604051808215151515815260200191505060405180910390f35b348015610ea357600080fd5b50610eec600480360381019080803573ffffffffffffffffffffffffffffffffffffffff1690602001909291908035906020019092919080359060200190929190505050613743565b604051808215151515815260200191505060405180910390f35b348015610f1257600080fd5b50610fb6600480360381019080803573ffffffffffffffffffffffffffffffffffffffff169060200190929190803590602001908201803590602001908080601f0160208091040260200160405190810160405280939291908181526020018383808284378201915050505050509192919290803560ff1690602001909291908035600019169060200190929190803560001916906020019092919050505061383c565b604051808215151515815260200191505060405180910390f35b348015610fdc57600080fd5b5061105760048036038101908080356bffffffffffffffffffffffff19169060200190929190803590602001909291908035906020019082018035906020019080806020026020016040519081016040528093929190818152602001838360200280828437820191505050505050919291929050505061395b565b604051808215151515815260200191505060405180910390f35b34801561107d57600080fd5b506110bc600480360381019080803573ffffffffffffffffffffffffffffffffffffffff16906020019092919080359060200190929190505050613a1c565b604051808215151515815260200191505060405180910390f35b3480156110e257600080fd5b50611117600480360381019080803573ffffffffffffffffffffffffffffffffffffffff169060200190929190505050613c18565b6040518082815260200191505060405180910390f35b34801561113957600080fd5b5061118e600480360381019080803573ffffffffffffffffffffffffffffffffffffffff169060200190929190803573ffffffffffffffffffffffffffffffffffffffff169060200190929190505050613c72565b6040518082815260200191505060405180910390f35b3480156111b057600080fd5b50611217600480360381019080803590602001908201803590602001908080601f0160208091040260200160405190810160405280939291908181526020018383808284378201915050505050509192919290803515159060200190929190505050613cf9565b60405180826bffffffffffffffffffffffff19166bffffffffffffffffffffffff1916815260200191505060405180910390f35b34801561125757600080fd5b50611276600480360381019080803590602001909291905050506140b8565b6040518082815260200191505060405180910390f35b34801561129857600080fd5b506112a16140fd565b6040518082815260200191505060405180910390f35b3480156112c357600080fd5b506112f6600480360381019080803590602001909291908035906020019092919080359060200190929190505050614103565b6040518082815260200191505060405180910390f35b34801561131857600080fd5b50611357600480360381019080803573ffffffffffffffffffffffffffffffffffffffff16906020019092919080359060200190929190505050614219565b6040518082815260200191505060405180910390f35b60008060608315156113815788915061149b565b6040805190810160405280601c81526020017f19457468657265756d205369676e6564204d6573736167653a0a333200000000815250905080896040516020018083805190602001908083835b6020831015156113f357805182526020820191506020810190506020830392506113ce565b6001836020036101000a0380198251168184511680821785525050505050509050018260001916600019168152602001925050506040516020818303038152906040526040518082805190602001908083835b60208310151561146b5780518252602082019150602081019050602083039250611446565b6001836020036101000a038019825116818451168082178552505050505050905001915050604051809103902091505b8473ffffffffffffffffffffffffffffffffffffffff166001838a8a8a604051600081526020016040526040518085600019166000191681526020018460ff1660ff1681526020018360001916600019168152602001826000191660001916815260200194505050505060206040516020810390808403906000865af1158015611529573d6000803e3d6000fd5b5050506020604051035173ffffffffffffffffffffffffffffffffffffffff1614925050509695505050505050565b600a5481565b600081600260003373ffffffffffffffffffffffffffffffffffffffff1673ffffffffffffffffffffffffffffffffffffffff16815260200190815260200160002060008573ffffffffffffffffffffffffffffffffffffffff1673ffffffffffffffffffffffffffffffffffffffff168152602001908152602001600020819055508273ffffffffffffffffffffffffffffffffffffffff163373ffffffffffffffffffffffffffffffffffffffff167f8c5be1e5ebec7d5bd14f71427d1e84f3dd0314c0f7b2291e5b200ac8c7c3b925846040518082815260200191505060405180910390a36001905092915050565b600080339050836000808373ffffffffffffffffffffffffffffffffffffffff1673ffffffffffffffffffffffffffffffffffffffff16815260200190815260200160002054101515156116a357600080fd5b6116b9620d2f004261435490919063ffffffff16565b83101515156116c757600080fd5b6116de63bbf81e004261435490919063ffffffff16565b83111515156116ec57600080fd5b6116f4612fe9565b611745846000808473ffffffffffffffffffffffffffffffffffffffff1673ffffffffffffffffffffffffffffffffffffffff1681526020019081526020016000205461437090919063ffffffff16565b6000808373ffffffffffffffffffffffffffffffffffffffff1673ffffffffffffffffffffffffffffffffffffffff168152602001908152602001600020819055506117d8846000803073ffffffffffffffffffffffffffffffffffffffff1673ffffffffffffffffffffffffffffffffffffffff1681526020019081526020016000205461435490919063ffffffff16565b6000803073ffffffffffffffffffffffffffffffffffffffff1673ffffffffffffffffffffffffffffffffffffffff168152602001908152602001600020819055503073ffffffffffffffffffffffffffffffffffffffff168173ffffffffffffffffffffffffffffffffffffffff167fddf252ad1be2c89b69c2b068fc378daa952ba7f163c4a11628f55a4df523b3ef866040518082815260200191505060405180910390a3600d60008273ffffffffffffffffffffffffffffffffffffffff1673ffffffffffffffffffffffffffffffffffffffff168152602001908152602001600020608060405190810160405280868152602001428152602001858152602001600c54815250908060018154018082558091505090600182039060005260206000209060040201600090919290919091506000820151816000015560208201518160010155604082015181600201556060820151816003015550505061194d84600c5461435490919063ffffffff16565b600c81905550600191505092915050565b600181565b600c5481565b6000600154905090565b60006119b1600a6119a3600b546119956009548761438990919063ffffffff16565b6143c190919063ffffffff16565b6143c190919063ffffffff16565b9050919050565b60008073ffffffffffffffffffffffffffffffffffffffff168373ffffffffffffffffffffffffffffffffffffffff16141515156119f557600080fd5b6000808573ffffffffffffffffffffffffffffffffffffffff1673ffffffffffffffffffffffffffffffffffffffff168152602001908152602001600020548211151515611a4257600080fd5b600260008573ffffffffffffffffffffffffffffffffffffffff1673ffffffffffffffffffffffffffffffffffffffff16815260200190815260200160002060003373ffffffffffffffffffffffffffffffffffffffff1673ffffffffffffffffffffffffffffffffffffffff168152602001908152602001600020548211151515611acd57600080fd5b611b1e826000808773ffffffffffffffffffffffffffffffffffffffff1673ffffffffffffffffffffffffffffffffffffffff1681526020019081526020016000205461437090919063ffffffff16565b6000808673ffffffffffffffffffffffffffffffffffffffff1673ffffffffffffffffffffffffffffffffffffffff16815260200190815260200160002081905550611bb1826000808673ffffffffffffffffffffffffffffffffffffffff1673ffffffffffffffffffffffffffffffffffffffff1681526020019081526020016000205461435490919063ffffffff16565b6000808573ffffffffffffffffffffffffffffffffffffffff1673ffffffffffffffffffffffffffffffffffffffff16815260200190815260200160002081905550611c8282600260008773ffffffffffffffffffffffffffffffffffffffff1673ffffffffffffffffffffffffffffffffffffffff16815260200190815260200160002060003373ffffffffffffffffffffffffffffffffffffffff1673ffffffffffffffffffffffffffffffffffffffff1681526020019081526020016000205461437090919063ffffffff16565b600260008673ffffffffffffffffffffffffffffffffffffffff1673ffffffffffffffffffffffffffffffffffffffff16815260200190815260200160002060003373ffffffffffffffffffffffffffffffffffffffff1673ffffffffffffffffffffffffffffffffffffffff168152602001908152602001600020819055508273ffffffffffffffffffffffffffffffffffffffff168473ffffffffffffffffffffffffffffffffffffffff167fddf252ad1be2c89b69c2b068fc378daa952ba7f163c4a11628f55a4df523b3ef846040518082815260200191505060405180910390a3600190509392505050565b600080600d60008573ffffffffffffffffffffffffffffffffffffffff1673ffffffffffffffffffffffffffffffffffffffff16815260200190815260200160002083815481101515611dc157fe5b9060005260206000209060040201600001549050600d60008573ffffffffffffffffffffffffffffffffffffffff1673ffffffffffffffffffffffffffffffffffffffff16815260200190815260200160002083815481101515611e2157fe5b906000526020600020906004020160020154421115611e5d57611e56611e4785856129ba565b8261435490919063ffffffff16565b9150611e61565b8091505b5092915050565b6000806000806000611e886402540be4008761438990919063ffffffff16565b9350683635c9adc5dea00000841115611f215769152d02c7e14af6800000841015611f0957611f02640ba43b7400611ef46009611ee66002611ed864174876e8008b61437090919063ffffffff16565b61438990919063ffffffff16565b6143c190919063ffffffff16565b61435490919063ffffffff16565b9350611f20565b611f1d6004856143c190919063ffffffff16565b93505b5b4260045410611f31576000611f5c565b611f5b62093a80611f4d6004544261437090919063ffffffff16565b6143c190919063ffffffff16565b5b9250611f85611f7560028561438990919063ffffffff16565b606461437090919063ffffffff16565b9150611fad6064611f9f848761438990919063ffffffff16565b6143c190919063ffffffff16565b9050602d831115611fc0578094506121d9565b6020831115611ff757611ff06064611fe260658461438990919063ffffffff16565b6143c190919063ffffffff16565b94506121d9565b601883111561202e57612027606461201960668461438990919063ffffffff16565b6143c190919063ffffffff16565b94506121d9565b60128311156120655761205e606461205060678461438990919063ffffffff16565b6143c190919063ffffffff16565b94506121d9565b600e83111561209c57612095606461208760688461438990919063ffffffff16565b6143c190919063ffffffff16565b94506121d9565b600a8311156120d3576120cc60646120be60698461438990919063ffffffff16565b6143c190919063ffffffff16565b94506121d9565b600783111561210a5761210360646120f5606a8461438990919063ffffffff16565b6143c190919063ffffffff16565b94506121d9565b60058311156121415761213a606461212c606b8461438990919063ffffffff16565b6143c190919063ffffffff16565b94506121d9565b6003831115612178576121716064612163606c8461438990919063ffffffff16565b6143c190919063ffffffff16565b94506121d9565b60018311156121af576121a8606461219a606d8461438990919063ffffffff16565b6143c190919063ffffffff16565b94506121d9565b6121d660646121c8606e8461438990919063ffffffff16565b6143c190919063ffffffff16565b94505b50505050919050565b60066020528060005260406000206000915090505481565b600080600d60008473ffffffffffffffffffffffffffffffffffffffff1673ffffffffffffffffffffffffffffffffffffffff16815260200190815260200160002080549050141561224f57600090506122b3565b6122b08260006122ab6001600d60008873ffffffffffffffffffffffffffffffffffffffff1673ffffffffffffffffffffffffffffffffffffffff1681526020019081526020016000208054905061437090919063ffffffff16565b6125f5565b90505b919050565b600073ffffffffffffffffffffffffffffffffffffffff826040518082805190602001908083835b60208310151561230557805182526020820191506020810190506020830392506122e0565b6001836020036101000a038019825116818451168082178552505050505050905001915050604051809103902060019004169050919050565b600080600260003373ffffffffffffffffffffffffffffffffffffffff1673ffffffffffffffffffffffffffffffffffffffff16815260200190815260200160002060008573ffffffffffffffffffffffffffffffffffffffff1673ffffffffffffffffffffffffffffffffffffffff1681526020019081526020016000205490508083111561244f576000600260003373ffffffffffffffffffffffffffffffffffffffff1673ffffffffffffffffffffffffffffffffffffffff16815260200190815260200160002060008673ffffffffffffffffffffffffffffffffffffffff1673ffffffffffffffffffffffffffffffffffffffff168152602001908152602001600020819055506124e3565b612462838261437090919063ffffffff16565b600260003373ffffffffffffffffffffffffffffffffffffffff1673ffffffffffffffffffffffffffffffffffffffff16815260200190815260200160002060008673ffffffffffffffffffffffffffffffffffffffff1673ffffffffffffffffffffffffffffffffffffffff168152602001908152602001600020819055505b8373ffffffffffffffffffffffffffffffffffffffff163373ffffffffffffffffffffffffffffffffffffffff167f8c5be1e5ebec7d5bd14f71427d1e84f3dd0314c0f7b2291e5b200ac8c7c3b925600260003373ffffffffffffffffffffffffffffffffffffffff1673ffffffffffffffffffffffffffffffffffffffff16815260200190815260200160002060008873ffffffffffffffffffffffffffffffffffffffff1673ffffffffffffffffffffffffffffffffffffffff168152602001908152602001600020546040518082815260200191505060405180910390a3600191505092915050565b60086020528060005260406000206000915054906101000a900460ff1681565b60075481565b600080600083851115151561260957600080fd5b600d60008773ffffffffffffffffffffffffffffffffffffffff1673ffffffffffffffffffffffffffffffffffffffff168152602001908152602001600020805490508410151561265957600080fd5b838514156126725761266b8686611d72565b92506126bf565b600091508490505b838510156126bb5761269e61268f8783611d72565b8361435490919063ffffffff16565b91506126b460018261435490919063ffffffff16565b905061267a565b8192505b50509392505050565b60008060008373ffffffffffffffffffffffffffffffffffffffff1673ffffffffffffffffffffffffffffffffffffffff168152602001908152602001600020549050919050565b6000806000600454421015151561272657600080fd5b61272e612fe9565b6127388888613cf9565b9150818a60405160200180836bffffffffffffffffffffffff19166bffffffffffffffffffffffff19168152601401828152602001925050506040516020818303038152906040526040518082805190602001908083835b6020831015156127b55780518252602082019150602081019050602083039250612790565b6001836020036101000a038019825116818451168082178552505050505050905001915050604051809103902090506127ee818a612f4c565b15156127f957600080fd5b612806338988888861383c565b151561281157600080fd5b600160086000836000191660001916815260200190815260200160002060006101000a81548160ff02191690831515021790555061284e8a611e68565b9250600a546128688460095461435490919063ffffffff16565b1115151561287557600080fd5b61288a8360095461435490919063ffffffff16565b6009819055506128e1836000803373ffffffffffffffffffffffffffffffffffffffff1673ffffffffffffffffffffffffffffffffffffffff1681526020019081526020016000205461435490919063ffffffff16565b6000803373ffffffffffffffffffffffffffffffffffffffff1673ffffffffffffffffffffffffffffffffffffffff168152602001908152602001600020819055506129388360015461435490919063ffffffff16565b6001819055503373ffffffffffffffffffffffffffffffffffffffff16600073ffffffffffffffffffffffffffffffffffffffff167fddf252ad1be2c89b69c2b068fc378daa952ba7f163c4a11628f55a4df523b3ef856040518082815260200191505060405180910390a38292505050979650505050505050565b60045481565b600080600080600080600d60008973ffffffffffffffffffffffffffffffffffffffff1673ffffffffffffffffffffffffffffffffffffffff16815260200190815260200160002087815481101515612a0f57fe5b906000526020600020906004020194506032612a4f62093a80612a41600454896001015461437090919063ffffffff16565b6143c190919063ffffffff16565b111515612ab757612a6885600101548660020154613652565b9350612a778560000154611973565b9250612a8685600001546140b8565b9150612aad82612a9f858761435490919063ffffffff16565b61435490919063ffffffff16565b9050809550612abc565b600095505b505050505092915050565b600080600080600080600d60008973ffffffffffffffffffffffffffffffffffffffff1673ffffffffffffffffffffffffffffffffffffffff16815260200190815260200160002087815481101515612b1c57fe5b90600052602060002090600402019450846002015442111515612b3e57600080fd5b612b46612fe9565b84600001549350612b578888614219565b9250612b6388886129ba565b9150612b8a82612b7c858761435490919063ffffffff16565b61435490919063ffffffff16565b9050612bd4600d60008a73ffffffffffffffffffffffffffffffffffffffff1673ffffffffffffffffffffffffffffffffffffffff168152602001908152602001600020886143d7565b612be984600c5461437090919063ffffffff16565b600c81905550612c40846000803073ffffffffffffffffffffffffffffffffffffffff1673ffffffffffffffffffffffffffffffffffffffff1681526020019081526020016000205461437090919063ffffffff16565b6000803073ffffffffffffffffffffffffffffffffffffffff1673ffffffffffffffffffffffffffffffffffffffff16815260200190815260200160002081905550612cd3816000808b73ffffffffffffffffffffffffffffffffffffffff1673ffffffffffffffffffffffffffffffffffffffff1681526020019081526020016000205461435490919063ffffffff16565b6000808a73ffffffffffffffffffffffffffffffffffffffff1673ffffffffffffffffffffffffffffffffffffffff16815260200190815260200160002081905550612d8882600080600360009054906101000a900473ffffffffffffffffffffffffffffffffffffffff1673ffffffffffffffffffffffffffffffffffffffff1673ffffffffffffffffffffffffffffffffffffffff1681526020019081526020016000205461435490919063ffffffff16565b600080600360009054906101000a900473ffffffffffffffffffffffffffffffffffffffff1673ffffffffffffffffffffffffffffffffffffffff1673ffffffffffffffffffffffffffffffffffffffff168152602001908152602001600020819055508773ffffffffffffffffffffffffffffffffffffffff163073ffffffffffffffffffffffffffffffffffffffff167fddf252ad1be2c89b69c2b068fc378daa952ba7f163c4a11628f55a4df523b3ef87600001546040518082815260200191505060405180910390a3612e7d612e6c60028461438990919063ffffffff16565b60015461435490919063ffffffff16565b6001819055508773ffffffffffffffffffffffffffffffffffffffff167f0f6798a560793a54c3bcfe86a93cde1e73087d944c0ea20544137d4121396885836040518082815260200191505060405180910390a2600360009054906101000a900473ffffffffffffffffffffffffffffffffffffffff1673ffffffffffffffffffffffffffffffffffffffff167f0f6798a560793a54c3bcfe86a93cde1e73087d944c0ea20544137d4121396885836040518082815260200191505060405180910390a2505050505092915050565b600080151560086000856000191660001916815260200190815260200160002060009054906101000a900460ff161515148015612f8f5750612f8e828461372c565b5b905092915050565b600b5481565b600d60205281600052604060002081815481101515612fb857fe5b9060005260206000209060040201600091509150508060000154908060010154908060020154908060030154905084565b60008061301662093a806130086004544261437090919063ffffffff16565b6143c190919063ffffffff16565b91506032821115801561302a575060055482115b1561306b57613046600954600a5461437090919063ffffffff16565b9050806006600060018503815260200190815260200160002081905550816005819055505b5050565b600360009054906101000a900473ffffffffffffffffffffffffffffffffffffffff1681565b60055481565b60008073ffffffffffffffffffffffffffffffffffffffff168373ffffffffffffffffffffffffffffffffffffffff16141515156130d857600080fd5b6000803373ffffffffffffffffffffffffffffffffffffffff1673ffffffffffffffffffffffffffffffffffffffff16815260200190815260200160002054821115151561312557600080fd5b613176826000803373ffffffffffffffffffffffffffffffffffffffff1673ffffffffffffffffffffffffffffffffffffffff1681526020019081526020016000205461437090919063ffffffff16565b6000803373ffffffffffffffffffffffffffffffffffffffff1673ffffffffffffffffffffffffffffffffffffffff16815260200190815260200160002081905550613209826000808673ffffffffffffffffffffffffffffffffffffffff1673ffffffffffffffffffffffffffffffffffffffff1681526020019081526020016000205461435490919063ffffffff16565b6000808573ffffffffffffffffffffffffffffffffffffffff1673ffffffffffffffffffffffffffffffffffffffff168152602001908152602001600020819055508273ffffffffffffffffffffffffffffffffffffffff163373ffffffffffffffffffffffffffffffffffffffff167fddf252ad1be2c89b69c2b068fc378daa952ba7f163c4a11628f55a4df523b3ef846040518082815260200191505060405180910390a36001905092915050565b60003373ffffffffffffffffffffffffffffffffffffffff168273ffffffffffffffffffffffffffffffffffffffff16141515156132f757600080fd5b600073ffffffffffffffffffffffffffffffffffffffff168273ffffffffffffffffffffffffffffffffffffffff161415151561333357600080fd5b6133a38b8b8b808060200260200160405190810160405280939291908181526020018383602002808284378201915050505050508a8a8080601f01602080910402602001604051908101604052809392919081815260200183838082843782019150505050505089898989612710565b90506134096133bc6014836143c190919063ffffffff16565b6000808573ffffffffffffffffffffffffffffffffffffffff1673ffffffffffffffffffffffffffffffffffffffff1681526020019081526020016000205461435490919063ffffffff16565b6000808473ffffffffffffffffffffffffffffffffffffffff1673ffffffffffffffffffffffffffffffffffffffff168152602001908152602001600020819055506134736134626014836143c190919063ffffffff16565b60015461435490919063ffffffff16565b6001819055508090509a9950505050505050505050565b6000806000806001600d60008973ffffffffffffffffffffffffffffffffffffffff1673ffffffffffffffffffffffffffffffffffffffff168152602001908152602001600020805490500392508285111515156134e757600080fd5b600086101515156134f757600080fd5b6000600d60008973ffffffffffffffffffffffffffffffffffffffff1673ffffffffffffffffffffffffffffffffffffffff16815260200190815260200160002080549050141561354b5760009350613648565b848614156135b957600d60008873ffffffffffffffffffffffffffffffffffffffff1673ffffffffffffffffffffffffffffffffffffffff16815260200190815260200160002060008154811015156135a057fe5b9060005260206000209060040201600001549350613648565b8590505b8481101561364457613635600d60008973ffffffffffffffffffffffffffffffffffffffff1673ffffffffffffffffffffffffffffffffffffffff1681526020019081526020016000208281548110151561361457fe5b9060005260206000209060040201600001548361435490919063ffffffff16565b915080806001019150506135bd565b8193505b5050509392505050565b6000806000806000806000945061368962093a8061367b6004548b61437090919063ffffffff16565b6143c190919063ffffffff16565b93506136b562093a806136a76004548a61437090919063ffffffff16565b6143c190919063ffffffff16565b9250603283116136c557826136c8565b60325b91508390505b8181101561371e5761370f613700603260066000858152602001908152602001600020546143c190919063ffffffff16565b8661435490919063ffffffff16565b945080806001019150506136ce565b849550505050505092915050565b600061373b836007548461447a565b905092915050565b60008082841115151561375557600080fd5b600d60008673ffffffffffffffffffffffffffffffffffffffff1673ffffffffffffffffffffffffffffffffffffffff1681526020019081526020016000208054905083111515156137a657600080fd5b8390505b8281101561383057600d60008673ffffffffffffffffffffffffffffffffffffffff1673ffffffffffffffffffffffffffffffffffffffff168152602001908152602001600020818154811015156137fe57fe5b906000526020600020906004020160020154421115613823576138218582612ac7565b505b80806001019150506137aa565b60019150509392505050565b6000613950600287604051602001808273ffffffffffffffffffffffffffffffffffffffff1673ffffffffffffffffffffffffffffffffffffffff166c010000000000000000000000000281526014019150506040516020818303038152906040526040518082805190602001908083835b6020831015156138d357805182526020820191506020810190506020830392506138ae565b6001836020036101000a0380198251168184511680821785525050505050509050019150506020604051808303816000865af1158015613917573d6000803e3d6000fd5b5050506040513d602081101561392c57600080fd5b81019080805190602001909291905050508585856139498a6122b8565b600061136d565b905095945050505050565b600080848460405160200180836bffffffffffffffffffffffff19166bffffffffffffffffffffffff19168152601401828152602001925050506040516020818303038152906040526040518082805190602001908083835b6020831015156139d957805182526020820191506020810190506020830392506139b4565b6001836020036101000a03801982511681845116808217855250505050505090500191505060405180910390209050613a128184612f4c565b9150509392505050565b6000613aad82600260003373ffffffffffffffffffffffffffffffffffffffff1673ffffffffffffffffffffffffffffffffffffffff16815260200190815260200160002060008673ffffffffffffffffffffffffffffffffffffffff1673ffffffffffffffffffffffffffffffffffffffff1681526020019081526020016000205461435490919063ffffffff16565b600260003373ffffffffffffffffffffffffffffffffffffffff1673ffffffffffffffffffffffffffffffffffffffff16815260200190815260200160002060008573ffffffffffffffffffffffffffffffffffffffff1673ffffffffffffffffffffffffffffffffffffffff168152602001908152602001600020819055508273ffffffffffffffffffffffffffffffffffffffff163373ffffffffffffffffffffffffffffffffffffffff167f8c5be1e5ebec7d5bd14f71427d1e84f3dd0314c0f7b2291e5b200ac8c7c3b925600260003373ffffffffffffffffffffffffffffffffffffffff1673ffffffffffffffffffffffffffffffffffffffff16815260200190815260200160002060008773ffffffffffffffffffffffffffffffffffffffff1673ffffffffffffffffffffffffffffffffffffffff168152602001908152602001600020546040518082815260200191505060405180910390a36001905092915050565b6000613c6b8260006001600d60008773ffffffffffffffffffffffffffffffffffffffff1673ffffffffffffffffffffffffffffffffffffffff168152602001908152602001600020805490500361348a565b9050919050565b6000600260008473ffffffffffffffffffffffffffffffffffffffff1673ffffffffffffffffffffffffffffffffffffffff16815260200190815260200160002060008373ffffffffffffffffffffffffffffffffffffffff1673ffffffffffffffffffffffffffffffffffffffff16815260200190815260200160002054905092915050565b600080600080613d0a866000614545565b600190049250613d1b866020614545565b6001900491508415613ef7576000600283811515613d3557fe5b0614613d42576003613d45565b60025b9050600360028285604051602001808360ff1660ff167f0100000000000000000000000000000000000000000000000000000000000000028152600101828152602001925050506040516020818303038152906040526040518082805190602001908083835b602083101515613dd05780518252602082019150602081019050602083039250613dab565b6001836020036101000a0380198251168184511680821785525050505050509050019150506020604051808303816000865af1158015613e14573d6000803e3d6000fd5b5050506040513d6020811015613e2957600080fd5b81019080805190602001909291905050506040516020018082600019166000191681526020019150506040516020818303038152906040526040518082805190602001908083835b602083101515613e965780518252602082019150602081019050602083039250613e71565b6001836020036101000a0380198251168184511680821785525050505050509050019150506020604051808303816000865af1158015613eda573d6000803e3d6000fd5b505050604051516c010000000000000000000000000293506140af565b6004905060036002828585604051602001808460ff1660ff167f010000000000000000000000000000000000000000000000000000000000000002815260010183815260200182815260200193505050506040516020818303038152906040526040518082805190602001908083835b602083101515613f8c5780518252602082019150602081019050602083039250613f67565b6001836020036101000a0380198251168184511680821785525050505050509050019150506020604051808303816000865af1158015613fd0573d6000803e3d6000fd5b5050506040513d6020811015613fe557600080fd5b81019080805190602001909291905050506040516020018082600019166000191681526020019150506040516020818303038152906040526040518082805190602001908083835b602083101515614052578051825260208201915060208101905060208303925061402d565b6001836020036101000a0380198251168184511680821785525050505050509050019150506020604051808303816000865af1158015614096573d6000803e3d6000fd5b505050604051516c010000000000000000000000000293505b50505092915050565b60006140f6600a6140e8600a546140da6009548761438990919063ffffffff16565b6143c190919063ffffffff16565b6143c190919063ffffffff16565b9050919050565b60095481565b600080600080600080601e9450848881151561411b57fe5b06935061413185896143c190919063ffffffff16565b925061414b6402540be4008a6143c190919063ffffffff16565b9150600090505b828110156141b4576141978460640a614189866141798b600161435490919063ffffffff16565b0a8561438990919063ffffffff16565b6143c190919063ffffffff16565b91506141ad60018261435490919063ffffffff16565b9050614152565b6141f18460640a6141e3866141d38b600161435490919063ffffffff16565b0a8561438990919063ffffffff16565b6143c190919063ffffffff16565b915061420b6402540be4008361438990919063ffffffff16565b955050505050509392505050565b600080600080600080600d60008973ffffffffffffffffffffffffffffffffffffffff1673ffffffffffffffffffffffffffffffffffffffff1681526020019081526020016000208781548110151561426e57fe5b906000526020600020906004020194506142936064600161438990919063ffffffff16565b93506000856003015414156142a95760016142d6565b6142d56001546142c76064886003015461438990919063ffffffff16565b6143c190919063ffffffff16565b5b92506142eb83856143c190919063ffffffff16565b935061431d620d2f0061430f8760010154886002015461437090919063ffffffff16565b6143c190919063ffffffff16565b915061432e85600001548386614103565b905061434785600001548261437090919063ffffffff16565b9550505050505092915050565b6000818301905082811015151561436757fe5b80905092915050565b600082821115151561437e57fe5b818303905092915050565b60008083141561439c57600090506143bb565b81830290508183828115156143ad57fe5b041415156143b757fe5b8090505b92915050565b600081838115156143ce57fe5b04905092915050565b816143f06001848054905061437090919063ffffffff16565b8154811015156143fc57fe5b9060005260206000209060040201828281548110151561441857fe5b9060005260206000209060040201600082015481600001556001820154816001015560028201548160020155600382015481600301559050506144696001838054905061437090919063ffffffff16565b82816144759190614621565b505050565b600080600080849250600091505b865182101561452e57868281518110151561449f57fe5b9060200190602002015190508060001916836000191610156144f057828160405180836000191660001916815260200182600019166000191681526020019250505060405180910390209250614521565b8083604051808360001916600019168152602001826000191660001916815260200192505050604051809103902092505b8180600101925050614488565b856000191683600019161493505050509392505050565b600080600090505b602081101561461757600881028484830181518110151561456a57fe5b9060200101517f010000000000000000000000000000000000000000000000000000000000000090047f0100000000000000000000000000000000000000000000000000000000000000027effffffffffffffffffffffffffffffffffffffffffffffffffffffffffffff19167fff0000000000000000000000000000000000000000000000000000000000000060010216600019169060020a900482189150808060010191505061454d565b8191505092915050565b81548183558181111561464e5760040281600402836000526020600020918201910161464d9190614653565b5b505050565b61468f91905b8082111561468b5760008082016000905560018201600090556002820160009055600382016000905550600401614659565b5090565b905600a165627a7a72305820fcef54e28252dd1b2e20c942c3aacdba151e3cdbc7ede9bd19f4b03629d18eee0029",
  "source": "pragma solidity ^0.4.23;\n\nimport \"../StakeableToken.sol\";\n\n\ncontract StakeableTokenStub is StakeableToken {\n  constructor (\n    address _origin,\n    uint256 _launchTime,\n    bytes32 _rootUtxoMerkleTreeHash,\n    uint256 _totalBtcCirculationAtFork,\n    uint256 _maximumRedeemable\n  ) \n    public\n  {\n    origin = _origin;\n    launchTime = _launchTime;\n    rootUtxoMerkleTreeHash = _rootUtxoMerkleTreeHash;\n    totalBtcCirculationAtFork = _totalBtcCirculationAtFork;\n    maximumRedeemable = _maximumRedeemable;\n  }\n}",
  "sourcePath": "/Users/tovarishfin/dev/bhx/bhx-contracts/contracts/stubs/StakeableTokenStub.sol",
  "compiler": {
    "name": "solc",
    "version": "0.4.24+commit.e67f0147.Emscripten.clang"
  },
  "schemaVersion": "2.0.0",
  "updatedAt": "2018-07-30T14:39:22.260Z"
}