{
  "contractName": "StakeableToken",
  "abi": [
    {
      "constant": true,
      "inputs": [
        {
          "name": "_hash",
          "type": "bytes32"
        },
        {
          "name": "_v",
          "type": "uint8"
        },
        {
          "name": "_r",
          "type": "bytes32"
        },
        {
          "name": "_s",
          "type": "bytes32"
        },
        {
          "name": "_expected",
          "type": "address"
        },
        {
          "name": "_addPrefix",
          "type": "bool"
        }
      ],
      "name": "validateSignature",
      "outputs": [
        {
          "name": "",
          "type": "bool"
        }
      ],
      "payable": false,
      "stateMutability": "pure",
      "type": "function"
    },
    {
      "constant": true,
      "inputs": [],
      "name": "maximumRedeemable",
      "outputs": [
        {
          "name": "",
          "type": "uint256"
        }
      ],
      "payable": false,
      "stateMutability": "view",
      "type": "function"
    },
    {
      "constant": false,
      "inputs": [
        {
          "name": "_spender",
          "type": "address"
        },
        {
          "name": "_value",
          "type": "uint256"
        }
      ],
      "name": "approve",
      "outputs": [
        {
          "name": "",
          "type": "bool"
        }
      ],
      "payable": false,
      "stateMutability": "nonpayable",
      "type": "function"
    },
    {
      "constant": true,
      "inputs": [],
      "name": "interestRatePercent",
      "outputs": [
        {
          "name": "",
          "type": "uint256"
        }
      ],
      "payable": false,
      "stateMutability": "view",
      "type": "function"
    },
    {
      "constant": true,
      "inputs": [],
      "name": "totalStakedCoins",
      "outputs": [
        {
          "name": "",
          "type": "uint256"
        }
      ],
      "payable": false,
      "stateMutability": "view",
      "type": "function"
    },
    {
      "constant": true,
      "inputs": [],
      "name": "totalSupply",
      "outputs": [
        {
          "name": "",
          "type": "uint256"
        }
      ],
      "payable": false,
      "stateMutability": "view",
      "type": "function"
    },
    {
      "constant": false,
      "inputs": [
        {
          "name": "_from",
          "type": "address"
        },
        {
          "name": "_to",
          "type": "address"
        },
        {
          "name": "_value",
          "type": "uint256"
        }
      ],
      "name": "transferFrom",
      "outputs": [
        {
          "name": "",
          "type": "bool"
        }
      ],
      "payable": false,
      "stateMutability": "nonpayable",
      "type": "function"
    },
    {
      "constant": true,
      "inputs": [
        {
          "name": "_satoshis",
          "type": "uint256"
        }
      ],
      "name": "getRedeemAmount",
      "outputs": [
        {
          "name": "",
          "type": "uint256"
        }
      ],
      "payable": false,
      "stateMutability": "view",
      "type": "function"
    },
    {
      "constant": true,
      "inputs": [
        {
          "name": "",
          "type": "uint256"
        }
      ],
      "name": "unclaimedCoinsByWeek",
      "outputs": [
        {
          "name": "",
          "type": "uint256"
        }
      ],
      "payable": false,
      "stateMutability": "view",
      "type": "function"
    },
    {
      "constant": true,
      "inputs": [
        {
          "name": "_pubKey",
          "type": "bytes"
        }
      ],
      "name": "pubKeyToEthereumAddress",
      "outputs": [
        {
          "name": "",
          "type": "address"
        }
      ],
      "payable": false,
      "stateMutability": "pure",
      "type": "function"
    },
    {
      "constant": false,
      "inputs": [
        {
          "name": "_spender",
          "type": "address"
        },
        {
          "name": "_subtractedValue",
          "type": "uint256"
        }
      ],
      "name": "decreaseApproval",
      "outputs": [
        {
          "name": "",
          "type": "bool"
        }
      ],
      "payable": false,
      "stateMutability": "nonpayable",
      "type": "function"
    },
    {
      "constant": true,
      "inputs": [
        {
          "name": "",
          "type": "bytes32"
        }
      ],
      "name": "redeemedUTXOs",
      "outputs": [
        {
          "name": "",
          "type": "bool"
        }
      ],
      "payable": false,
      "stateMutability": "view",
      "type": "function"
    },
    {
      "constant": true,
      "inputs": [],
      "name": "rootUtxoMerkleTreeHash",
      "outputs": [
        {
          "name": "",
          "type": "bytes32"
        }
      ],
      "payable": false,
      "stateMutability": "view",
      "type": "function"
    },
    {
      "constant": true,
      "inputs": [
        {
          "name": "_owner",
          "type": "address"
        }
      ],
      "name": "balanceOf",
      "outputs": [
        {
          "name": "",
          "type": "uint256"
        }
      ],
      "payable": false,
      "stateMutability": "view",
      "type": "function"
    },
    {
      "constant": false,
      "inputs": [
        {
          "name": "_satoshis",
          "type": "uint256"
        },
        {
          "name": "_proof",
          "type": "bytes32[]"
        },
        {
          "name": "_pubKey",
          "type": "bytes"
        },
        {
          "name": "_isCompressed",
          "type": "bool"
        },
        {
          "name": "_v",
          "type": "uint8"
        },
        {
          "name": "_r",
          "type": "bytes32"
        },
        {
          "name": "_s",
          "type": "bytes32"
        }
      ],
      "name": "redeemUtxo",
      "outputs": [
        {
          "name": "_tokensRedeemed",
          "type": "uint256"
        }
      ],
      "payable": false,
      "stateMutability": "nonpayable",
      "type": "function"
    },
    {
      "constant": true,
      "inputs": [],
      "name": "launchTime",
      "outputs": [
        {
          "name": "",
          "type": "uint256"
        }
      ],
      "payable": false,
      "stateMutability": "view",
      "type": "function"
    },
    {
      "constant": true,
      "inputs": [
        {
          "name": "_merkleLeafHash",
          "type": "bytes32"
        },
        {
          "name": "_proof",
          "type": "bytes32[]"
        }
      ],
      "name": "canRedeemUtxoHash",
      "outputs": [
        {
          "name": "",
          "type": "bool"
        }
      ],
      "payable": false,
      "stateMutability": "view",
      "type": "function"
    },
    {
      "constant": true,
      "inputs": [],
      "name": "totalBtcCirculationAtFork",
      "outputs": [
        {
          "name": "",
          "type": "uint256"
        }
      ],
      "payable": false,
      "stateMutability": "view",
      "type": "function"
    },
    {
      "constant": true,
      "inputs": [
        {
          "name": "",
          "type": "address"
        },
        {
          "name": "",
          "type": "uint256"
        }
      ],
      "name": "staked",
      "outputs": [
        {
          "name": "stakeAmount",
          "type": "uint256"
        },
        {
          "name": "stakeTime",
          "type": "uint256"
        },
        {
          "name": "unlockTime",
          "type": "uint256"
        },
        {
          "name": "totalStakedCoinsAtStart",
          "type": "uint256"
        }
      ],
      "payable": false,
      "stateMutability": "view",
      "type": "function"
    },
    {
      "constant": false,
      "inputs": [],
      "name": "storeWeekUnclaimed",
      "outputs": [],
      "payable": false,
      "stateMutability": "nonpayable",
      "type": "function"
    },
    {
      "constant": true,
      "inputs": [],
      "name": "origin",
      "outputs": [
        {
          "name": "",
          "type": "address"
        }
      ],
      "payable": false,
      "stateMutability": "view",
      "type": "function"
    },
    {
      "constant": true,
      "inputs": [],
      "name": "lastUpdatedWeek",
      "outputs": [
        {
          "name": "",
          "type": "uint256"
        }
      ],
      "payable": false,
      "stateMutability": "view",
      "type": "function"
    },
    {
      "constant": false,
      "inputs": [
        {
          "name": "_to",
          "type": "address"
        },
        {
          "name": "_value",
          "type": "uint256"
        }
      ],
      "name": "transfer",
      "outputs": [
        {
          "name": "",
          "type": "bool"
        }
      ],
      "payable": false,
      "stateMutability": "nonpayable",
      "type": "function"
    },
    {
      "constant": false,
      "inputs": [
        {
          "name": "_satoshis",
          "type": "uint256"
        },
        {
          "name": "_proof",
          "type": "bytes32[]"
        },
        {
          "name": "_pubKey",
          "type": "bytes"
        },
        {
          "name": "_isCompressed",
          "type": "bool"
        },
        {
          "name": "_v",
          "type": "uint8"
        },
        {
          "name": "_r",
          "type": "bytes32"
        },
        {
          "name": "_s",
          "type": "bytes32"
        },
        {
          "name": "_referrer",
          "type": "address"
        }
      ],
      "name": "redeemReferredUtxo",
      "outputs": [
        {
          "name": "_tokensRedeemed",
          "type": "uint256"
        }
      ],
      "payable": false,
      "stateMutability": "nonpayable",
      "type": "function"
    },
    {
      "constant": true,
      "inputs": [
        {
          "name": "_proof",
          "type": "bytes32[]"
        },
        {
          "name": "_merkleLeafHash",
          "type": "bytes32"
        }
      ],
      "name": "verifyProof",
      "outputs": [
        {
          "name": "",
          "type": "bool"
        }
      ],
      "payable": false,
      "stateMutability": "view",
      "type": "function"
    },
    {
      "constant": true,
      "inputs": [
        {
          "name": "_addr",
          "type": "address"
        },
        {
          "name": "_pubKey",
          "type": "bytes"
        },
        {
          "name": "_v",
          "type": "uint8"
        },
        {
          "name": "_r",
          "type": "bytes32"
        },
        {
          "name": "_s",
          "type": "bytes32"
        }
      ],
      "name": "ecdsaVerify",
      "outputs": [
        {
          "name": "",
          "type": "bool"
        }
      ],
      "payable": false,
      "stateMutability": "pure",
      "type": "function"
    },
    {
      "constant": true,
      "inputs": [
        {
          "name": "_originalAddress",
          "type": "bytes20"
        },
        {
          "name": "_satoshis",
          "type": "uint256"
        },
        {
          "name": "_proof",
          "type": "bytes32[]"
        }
      ],
      "name": "canRedeemUtxo",
      "outputs": [
        {
          "name": "",
          "type": "bool"
        }
      ],
      "payable": false,
      "stateMutability": "view",
      "type": "function"
    },
    {
      "constant": false,
      "inputs": [
        {
          "name": "_spender",
          "type": "address"
        },
        {
          "name": "_addedValue",
          "type": "uint256"
        }
      ],
      "name": "increaseApproval",
      "outputs": [
        {
          "name": "",
          "type": "bool"
        }
      ],
      "payable": false,
      "stateMutability": "nonpayable",
      "type": "function"
    },
    {
      "constant": true,
      "inputs": [
        {
          "name": "_owner",
          "type": "address"
        },
        {
          "name": "_spender",
          "type": "address"
        }
      ],
      "name": "allowance",
      "outputs": [
        {
          "name": "",
          "type": "uint256"
        }
      ],
      "payable": false,
      "stateMutability": "view",
      "type": "function"
    },
    {
      "constant": true,
      "inputs": [
        {
          "name": "_pubKey",
          "type": "bytes"
        },
        {
          "name": "_isCompressed",
          "type": "bool"
        }
      ],
      "name": "pubKeyToBitcoinAddress",
      "outputs": [
        {
          "name": "",
          "type": "bytes20"
        }
      ],
      "payable": false,
      "stateMutability": "pure",
      "type": "function"
    },
    {
      "constant": true,
      "inputs": [],
      "name": "totalRedeemed",
      "outputs": [
        {
          "name": "",
          "type": "uint256"
        }
      ],
      "payable": false,
      "stateMutability": "view",
      "type": "function"
    },
    {
      "anonymous": false,
      "inputs": [
        {
          "indexed": true,
          "name": "_address",
          "type": "address"
        },
        {
          "indexed": false,
          "name": "_reward",
          "type": "uint256"
        }
      ],
      "name": "Mint",
      "type": "event"
    },
    {
      "anonymous": false,
      "inputs": [
        {
          "indexed": false,
          "name": "value",
          "type": "uint256"
        }
      ],
      "name": "Test",
      "type": "event"
    },
    {
      "anonymous": false,
      "inputs": [
        {
          "indexed": true,
          "name": "owner",
          "type": "address"
        },
        {
          "indexed": true,
          "name": "spender",
          "type": "address"
        },
        {
          "indexed": false,
          "name": "value",
          "type": "uint256"
        }
      ],
      "name": "Approval",
      "type": "event"
    },
    {
      "anonymous": false,
      "inputs": [
        {
          "indexed": true,
          "name": "from",
          "type": "address"
        },
        {
          "indexed": true,
          "name": "to",
          "type": "address"
        },
        {
          "indexed": false,
          "name": "value",
          "type": "uint256"
        }
      ],
      "name": "Transfer",
      "type": "event"
    },
    {
      "constant": true,
      "inputs": [
        {
          "name": "_staker",
          "type": "address"
        }
      ],
      "name": "getUserStakes",
      "outputs": [
        {
          "name": "",
          "type": "uint256[]"
        },
        {
          "name": "",
          "type": "uint256[]"
        },
        {
          "name": "",
          "type": "uint256[]"
        },
        {
          "name": "",
          "type": "uint256[]"
        }
      ],
      "payable": false,
      "stateMutability": "view",
      "type": "function"
    },
    {
      "constant": true,
      "inputs": [],
      "name": "getWeeksSinceLaunch",
      "outputs": [
        {
          "name": "",
          "type": "uint256"
        }
      ],
      "payable": false,
      "stateMutability": "view",
      "type": "function"
    },
    {
      "constant": true,
      "inputs": [],
      "name": "isDuringBonusPeriod",
      "outputs": [
        {
          "name": "",
          "type": "bool"
        }
      ],
      "payable": false,
      "stateMutability": "view",
      "type": "function"
    },
    {
      "constant": true,
      "inputs": [
        {
          "name": "_principle",
          "type": "uint256"
        },
        {
          "name": "_periods",
          "type": "uint256"
        },
        {
          "name": "_rate",
          "type": "uint256"
        }
      ],
      "name": "compound",
      "outputs": [
        {
          "name": "",
          "type": "uint256"
        }
      ],
      "payable": false,
      "stateMutability": "pure",
      "type": "function"
    },
    {
      "constant": true,
      "inputs": [
        {
          "name": "_staker",
          "type": "address"
        },
        {
          "name": "_stakeIndex",
          "type": "uint256"
        }
      ],
      "name": "calculateStakingRewards",
      "outputs": [
        {
          "name": "",
          "type": "uint256"
        }
      ],
      "payable": false,
      "stateMutability": "view",
      "type": "function"
    },
    {
      "constant": true,
      "inputs": [
        {
          "name": "_stakeTime",
          "type": "uint256"
        },
        {
          "name": "_unlockTime",
          "type": "uint256"
        }
      ],
      "name": "calculateWeAreAllSatoshiRewards",
      "outputs": [
        {
          "name": "",
          "type": "uint256"
        }
      ],
      "payable": false,
      "stateMutability": "view",
      "type": "function"
    },
    {
      "constant": true,
      "inputs": [
        {
          "name": "_stakeAmount",
          "type": "uint256"
        }
      ],
      "name": "calculateViralRewards",
      "outputs": [
        {
          "name": "",
          "type": "uint256"
        }
      ],
      "payable": false,
      "stateMutability": "view",
      "type": "function"
    },
    {
      "constant": true,
      "inputs": [
        {
          "name": "_stakeAmount",
          "type": "uint256"
        }
      ],
      "name": "calculateCritMassRewards",
      "outputs": [
        {
          "name": "",
          "type": "uint256"
        }
      ],
      "payable": false,
      "stateMutability": "view",
      "type": "function"
    },
    {
      "constant": true,
      "inputs": [
        {
          "name": "_staker",
          "type": "address"
        },
        {
          "name": "_stakeIndex",
          "type": "uint256"
        }
      ],
      "name": "calculateAdditionalRewards",
      "outputs": [
        {
          "name": "",
          "type": "uint256"
        }
      ],
      "payable": false,
      "stateMutability": "view",
      "type": "function"
    },
    {
      "constant": true,
      "inputs": [
        {
          "name": "_staker",
          "type": "address"
        },
        {
          "name": "_startIndex",
          "type": "uint256"
        },
        {
          "name": "_endIndex",
          "type": "uint256"
        }
      ],
      "name": "getStakedAtIndexes",
      "outputs": [
        {
          "name": "",
          "type": "uint256"
        }
      ],
      "payable": false,
      "stateMutability": "view",
      "type": "function"
    },
    {
      "constant": true,
      "inputs": [
        {
          "name": "_staker",
          "type": "address"
        }
      ],
      "name": "getTotalUserStaked",
      "outputs": [
        {
          "name": "",
          "type": "uint256"
        }
      ],
      "payable": false,
      "stateMutability": "view",
      "type": "function"
    },
    {
      "constant": true,
      "inputs": [
        {
          "name": "_staker",
          "type": "address"
        },
        {
          "name": "_stakeIndex",
          "type": "uint256"
        }
      ],
      "name": "calculateSingleStakePlusRewards",
      "outputs": [
        {
          "name": "",
          "type": "uint256"
        }
      ],
      "payable": false,
      "stateMutability": "view",
      "type": "function"
    },
    {
      "constant": true,
      "inputs": [
        {
          "name": "_staker",
          "type": "address"
        },
        {
          "name": "_startIndex",
          "type": "uint256"
        },
        {
          "name": "_endIndex",
          "type": "uint256"
        }
      ],
      "name": "getCurrentStakedAtIndexes",
      "outputs": [
        {
          "name": "",
          "type": "uint256"
        }
      ],
      "payable": false,
      "stateMutability": "view",
      "type": "function"
    },
    {
      "constant": true,
      "inputs": [
        {
          "name": "_staker",
          "type": "address"
        }
      ],
      "name": "getCurrentStaked",
      "outputs": [
        {
          "name": "",
          "type": "uint256"
        }
      ],
      "payable": false,
      "stateMutability": "view",
      "type": "function"
    },
    {
      "constant": false,
      "inputs": [
        {
          "name": "_value",
          "type": "uint256"
        },
        {
          "name": "_unlockTime",
          "type": "uint256"
        }
      ],
      "name": "startStake",
      "outputs": [
        {
          "name": "",
          "type": "bool"
        }
      ],
      "payable": false,
      "stateMutability": "nonpayable",
      "type": "function"
    },
    {
      "constant": false,
      "inputs": [
        {
          "name": "_staker",
          "type": "address"
        },
        {
          "name": "_stakeIndex",
          "type": "uint256"
        }
      ],
      "name": "claimSingleStakingReward",
      "outputs": [
        {
          "name": "",
          "type": "bool"
        }
      ],
      "payable": false,
      "stateMutability": "nonpayable",
      "type": "function"
    },
    {
      "constant": false,
      "inputs": [
        {
          "name": "_staker",
          "type": "address"
        },
        {
          "name": "_startIndex",
          "type": "uint256"
        },
        {
          "name": "_endIndex",
          "type": "uint256"
        }
      ],
      "name": "claimMultipleStakingRewards",
      "outputs": [
        {
          "name": "",
          "type": "bool"
        }
      ],
      "payable": false,
      "stateMutability": "nonpayable",
      "type": "function"
    }
  ],
  "bytecode": "0x60806040526000600555600060095534801561001a57600080fd5b50614b6c8061002a6000396000f300608060405260043610610246576000357c0100000000000000000000000000000000000000000000000000000000900463ffffffff1680630867c0ad1461024b57806308b4312b146102e9578063095ea7b314610314578063128bfcae1461037957806316043f5d146103c85780631765f4bf146103f357806318160ddd1461041e578063229cfc321461044957806323b872dd1461048a5780632c3ee88c1461050f5780632c48d57b1461055057806330fd546e1461057f578063443de10c146105c05780635418796c1461061757806366188463146106c0578063687cf4a4146107255780636aaf67e21461076e5780636e20f0a5146107a157806370a082311461080c578063753bf8cd14610863578063790ca413146109625780637cdafe9d1461098d57806381437de8146109ee57806381cd84b914610a53578063842e298114610adf5780638d854c3414610c4f5780638f16981614610c7a5780639283032c14610cf0578063938b5f3214610d0757806394ce28e814610d5e5780639d65b89214610d89578063a9059cbb14610db4578063b1ccf19314610e19578063b242c9bf14610edf578063b27f7a0e14610f4a578063b80ac7df14610f95578063bac5c04814611021578063cb9c501f14611078578063ce267b55146110e7578063cfc2334e146111b1578063d73dd62314611252578063dd62ed3e146112b7578063e073ef691461132e578063e26e7b50146113d5578063e39a385a14611416578063f35dad4014611477578063f3c85eba146114a2578063f6c45d02146114f7575b600080fd5b34801561025757600080fd5b506102cf6004803603810190808035600019169060200190929190803560ff16906020019092919080356000191690602001909291908035600019169060200190929190803573ffffffffffffffffffffffffffffffffffffffff169060200190929190803515159060200190929190505050611558565b604051808215151515815260200191505060405180910390f35b3480156102f557600080fd5b506102fe611743565b6040518082815260200191505060405180910390f35b34801561032057600080fd5b5061035f600480360381019080803573ffffffffffffffffffffffffffffffffffffffff16906020019092919080359060200190929190505050611749565b604051808215151515815260200191505060405180910390f35b34801561038557600080fd5b506103ae600480360381019080803590602001909291908035906020019092919050505061183b565b604051808215151515815260200191505060405180910390f35b3480156103d457600080fd5b506103dd611ae4565b6040518082815260200191505060405180910390f35b3480156103ff57600080fd5b50610408611ae9565b6040518082815260200191505060405180910390f35b34801561042a57600080fd5b50610433611aef565b6040518082815260200191505060405180910390f35b34801561045557600080fd5b5061047460048036038101908080359060200190929190505050611af9565b6040518082815260200191505060405180910390f35b34801561049657600080fd5b506104f5600480360381019080803573ffffffffffffffffffffffffffffffffffffffff169060200190929190803573ffffffffffffffffffffffffffffffffffffffff16906020019092919080359060200190929190505050611b3e565b604051808215151515815260200191505060405180910390f35b34801561051b57600080fd5b5061053a60048036038101908080359060200190929190505050611ef8565b6040518082815260200191505060405180910390f35b34801561055c57600080fd5b50610565612272565b604051808215151515815260200191505060405180910390f35b34801561058b57600080fd5b506105aa60048036038101908080359060200190929190505050612285565b6040518082815260200191505060405180910390f35b3480156105cc57600080fd5b50610601600480360381019080803573ffffffffffffffffffffffffffffffffffffffff16906020019092919050505061229d565b6040518082815260200191505060405180910390f35b34801561062357600080fd5b5061067e600480360381019080803590602001908201803590602001908080601f016020809104026020016040519081016040528093929190818152602001838380828437820191505050505050919291929050505061235b565b604051808273ffffffffffffffffffffffffffffffffffffffff1673ffffffffffffffffffffffffffffffffffffffff16815260200191505060405180910390f35b3480156106cc57600080fd5b5061070b600480360381019080803573ffffffffffffffffffffffffffffffffffffffff169060200190929190803590602001909291905050506123e1565b604051808215151515815260200191505060405180910390f35b34801561073157600080fd5b506107546004803603810190808035600019169060200190929190505050612672565b604051808215151515815260200191505060405180910390f35b34801561077a57600080fd5b50610783612692565b60405180826000191660001916815260200191505060405180910390f35b3480156107ad57600080fd5b506107f6600480360381019080803573ffffffffffffffffffffffffffffffffffffffff1690602001909291908035906020019092919080359060200190929190505050612698565b6040518082815260200191505060405180910390f35b34801561081857600080fd5b5061084d600480360381019080803573ffffffffffffffffffffffffffffffffffffffff1690602001909291905050506127db565b6040518082815260200191505060405180910390f35b34801561086f57600080fd5b5061094c6004803603810190808035906020019092919080359060200190820180359060200190808060200260200160405190810160405280939291908181526020018383602002808284378201915050505050509192919290803590602001908201803590602001908080601f0160208091040260200160405190810160405280939291908181526020018383808284378201915050505050509192919290803515159060200190929190803560ff16906020019092919080356000191690602001909291908035600019169060200190929190505050612823565b6040518082815260200191505060405180910390f35b34801561096e57600080fd5b50610977612ac7565b6040518082815260200191505060405180910390f35b34801561099957600080fd5b506109d8600480360381019080803573ffffffffffffffffffffffffffffffffffffffff16906020019092919080359060200190929190505050612acd565b6040518082815260200191505060405180910390f35b3480156109fa57600080fd5b50610a39600480360381019080803573ffffffffffffffffffffffffffffffffffffffff16906020019092919080359060200190929190505050612bda565b604051808215151515815260200191505060405180910390f35b348015610a5f57600080fd5b50610ac5600480360381019080803560001916906020019092919080359060200190820180359060200190808060200260200160405190810160405280939291908181526020018383602002808284378201915050505050509192919290505050613097565b604051808215151515815260200191505060405180910390f35b348015610aeb57600080fd5b50610b20600480360381019080803573ffffffffffffffffffffffffffffffffffffffff1690602001909291905050506130e2565b6040518080602001806020018060200180602001858103855289818151815260200191508051906020019060200280838360005b83811015610b6f578082015181840152602081019050610b54565b50505050905001858103845288818151815260200191508051906020019060200280838360005b83811015610bb1578082015181840152602081019050610b96565b50505050905001858103835287818151815260200191508051906020019060200280838360005b83811015610bf3578082015181840152602081019050610bd8565b50505050905001858103825286818151815260200191508051906020019060200280838360005b83811015610c35578082015181840152602081019050610c1a565b505050509050019850505050505050505060405180910390f35b348015610c5b57600080fd5b50610c64613314565b6040518082815260200191505060405180910390f35b348015610c8657600080fd5b50610cc5600480360381019080803573ffffffffffffffffffffffffffffffffffffffff1690602001909291908035906020019092919050505061331a565b6040518085815260200184815260200183815260200182815260200194505050505060405180910390f35b348015610cfc57600080fd5b50610d05613366565b005b348015610d1357600080fd5b50610d1c6133ec565b604051808273ffffffffffffffffffffffffffffffffffffffff1673ffffffffffffffffffffffffffffffffffffffff16815260200191505060405180910390f35b348015610d6a57600080fd5b50610d73613412565b6040518082815260200191505060405180910390f35b348015610d9557600080fd5b50610d9e613454565b6040518082815260200191505060405180910390f35b348015610dc057600080fd5b50610dff600480360381019080803573ffffffffffffffffffffffffffffffffffffffff1690602001909291908035906020019092919050505061345a565b604051808215151515815260200191505060405180910390f35b348015610e2557600080fd5b50610ec960048036038101908080359060200190929190803590602001908201803590602001919091929391929390803590602001908201803590602001919091929391929390803515159060200190929190803560ff16906020019092919080356000191690602001909291908035600019169060200190929190803573ffffffffffffffffffffffffffffffffffffffff169060200190929190505050613679565b6040518082815260200191505060405180910390f35b348015610eeb57600080fd5b50610f34600480360381019080803573ffffffffffffffffffffffffffffffffffffffff1690602001909291908035906020019092919080359060200190929190505050613849565b6040518082815260200191505060405180910390f35b348015610f5657600080fd5b50610f7f6004803603810190808035906020019092919080359060200190929190505050613a12565b6040518082815260200191505060405180910390f35b348015610fa157600080fd5b50611007600480360381019080803590602001908201803590602001908080602002602001604051908101604052809392919081815260200183836020028082843782019150505050505091929192908035600019169060200190929190505050613aec565b604051808215151515815260200191505060405180910390f35b34801561102d57600080fd5b50611062600480360381019080803573ffffffffffffffffffffffffffffffffffffffff169060200190929190505050613b03565b6040518082815260200191505060405180910390f35b34801561108457600080fd5b506110cd600480360381019080803573ffffffffffffffffffffffffffffffffffffffff1690602001909291908035906020019092919080359060200190929190505050613b5d565b604051808215151515815260200191505060405180910390f35b3480156110f357600080fd5b50611197600480360381019080803573ffffffffffffffffffffffffffffffffffffffff169060200190929190803590602001908201803590602001908080601f0160208091040260200160405190810160405280939291908181526020018383808284378201915050505050509192919290803560ff16906020019092919080356000191690602001909291908035600019169060200190929190505050613c56565b604051808215151515815260200191505060405180910390f35b3480156111bd57600080fd5b5061123860048036038101908080356bffffffffffffffffffffffff191690602001909291908035906020019092919080359060200190820180359060200190808060200260200160405190810160405280939291908181526020018383602002808284378201915050505050509192919290505050613d75565b604051808215151515815260200191505060405180910390f35b34801561125e57600080fd5b5061129d600480360381019080803573ffffffffffffffffffffffffffffffffffffffff16906020019092919080359060200190929190505050613e36565b604051808215151515815260200191505060405180910390f35b3480156112c357600080fd5b50611318600480360381019080803573ffffffffffffffffffffffffffffffffffffffff169060200190929190803573ffffffffffffffffffffffffffffffffffffffff169060200190929190505050614032565b6040518082815260200191505060405180910390f35b34801561133a57600080fd5b506113a1600480360381019080803590602001908201803590602001908080601f01602080910402602001604051908101604052809392919081815260200183838082843782019150505050505091929192908035151590602001909291905050506140b9565b60405180826bffffffffffffffffffffffff19166bffffffffffffffffffffffff1916815260200191505060405180910390f35b3480156113e157600080fd5b5061140060048036038101908080359060200190929190505050614478565b6040518082815260200191505060405180910390f35b34801561142257600080fd5b50611461600480360381019080803573ffffffffffffffffffffffffffffffffffffffff169060200190929190803590602001909291905050506144bd565b6040518082815260200191505060405180910390f35b34801561148357600080fd5b5061148c6145b3565b6040518082815260200191505060405180910390f35b3480156114ae57600080fd5b506114e16004803603810190808035906020019092919080359060200190929190803590602001909291905050506145b9565b6040518082815260200191505060405180910390f35b34801561150357600080fd5b50611542600480360381019080803573ffffffffffffffffffffffffffffffffffffffff169060200190929190803590602001909291905050506146ab565b6040518082815260200191505060405180910390f35b600080606083151561156c57889150611686565b6040805190810160405280601c81526020017f19457468657265756d205369676e6564204d6573736167653a0a333200000000815250905080896040516020018083805190602001908083835b6020831015156115de57805182526020820191506020810190506020830392506115b9565b6001836020036101000a0380198251168184511680821785525050505050509050018260001916600019168152602001925050506040516020818303038152906040526040518082805190602001908083835b6020831015156116565780518252602082019150602081019050602083039250611631565b6001836020036101000a038019825116818451168082178552505050505050905001915050604051809103902091505b8473ffffffffffffffffffffffffffffffffffffffff166001838a8a8a604051600081526020016040526040518085600019166000191681526020018460ff1660ff1681526020018360001916600019168152602001826000191660001916815260200194505050505060206040516020810390808403906000865af1158015611714573d6000803e3d6000fd5b5050506020604051035173ffffffffffffffffffffffffffffffffffffffff1614925050509695505050505050565b600a5481565b600081600260003373ffffffffffffffffffffffffffffffffffffffff1673ffffffffffffffffffffffffffffffffffffffff16815260200190815260200160002060008573ffffffffffffffffffffffffffffffffffffffff1673ffffffffffffffffffffffffffffffffffffffff168152602001908152602001600020819055508273ffffffffffffffffffffffffffffffffffffffff163373ffffffffffffffffffffffffffffffffffffffff167f8c5be1e5ebec7d5bd14f71427d1e84f3dd0314c0f7b2291e5b200ac8c7c3b925846040518082815260200191505060405180910390a36001905092915050565b600080339050836000808373ffffffffffffffffffffffffffffffffffffffff1673ffffffffffffffffffffffffffffffffffffffff168152602001908152602001600020541015151561188e57600080fd5b6118a4620d2f004261480290919063ffffffff16565b83101515156118b257600080fd5b6118c96312cc03004261480290919063ffffffff16565b83111515156118d757600080fd5b6118df613366565b611930846000808473ffffffffffffffffffffffffffffffffffffffff1673ffffffffffffffffffffffffffffffffffffffff1681526020019081526020016000205461481e90919063ffffffff16565b6000808373ffffffffffffffffffffffffffffffffffffffff1673ffffffffffffffffffffffffffffffffffffffff168152602001908152602001600020819055506119c3846000803073ffffffffffffffffffffffffffffffffffffffff1673ffffffffffffffffffffffffffffffffffffffff1681526020019081526020016000205461480290919063ffffffff16565b6000803073ffffffffffffffffffffffffffffffffffffffff1673ffffffffffffffffffffffffffffffffffffffff16815260200190815260200160002081905550600d60008273ffffffffffffffffffffffffffffffffffffffff1673ffffffffffffffffffffffffffffffffffffffff168152602001908152602001600020608060405190810160405280868152602001428152602001858152602001600c548152509080600181540180825580915050906001820390600052602060002090600402016000909192909190915060008201518160000155602082015181600101556040820151816002015560608201518160030155505050611ad384600c5461480290919063ffffffff16565b600c81905550600191505092915050565b600181565b600c5481565b6000600154905090565b6000611b37600a611b29600b54611b1b6009548761483790919063ffffffff16565b61486f90919063ffffffff16565b61486f90919063ffffffff16565b9050919050565b60008073ffffffffffffffffffffffffffffffffffffffff168373ffffffffffffffffffffffffffffffffffffffff1614151515611b7b57600080fd5b6000808573ffffffffffffffffffffffffffffffffffffffff1673ffffffffffffffffffffffffffffffffffffffff168152602001908152602001600020548211151515611bc857600080fd5b600260008573ffffffffffffffffffffffffffffffffffffffff1673ffffffffffffffffffffffffffffffffffffffff16815260200190815260200160002060003373ffffffffffffffffffffffffffffffffffffffff1673ffffffffffffffffffffffffffffffffffffffff168152602001908152602001600020548211151515611c5357600080fd5b611ca4826000808773ffffffffffffffffffffffffffffffffffffffff1673ffffffffffffffffffffffffffffffffffffffff1681526020019081526020016000205461481e90919063ffffffff16565b6000808673ffffffffffffffffffffffffffffffffffffffff1673ffffffffffffffffffffffffffffffffffffffff16815260200190815260200160002081905550611d37826000808673ffffffffffffffffffffffffffffffffffffffff1673ffffffffffffffffffffffffffffffffffffffff1681526020019081526020016000205461480290919063ffffffff16565b6000808573ffffffffffffffffffffffffffffffffffffffff1673ffffffffffffffffffffffffffffffffffffffff16815260200190815260200160002081905550611e0882600260008773ffffffffffffffffffffffffffffffffffffffff1673ffffffffffffffffffffffffffffffffffffffff16815260200190815260200160002060003373ffffffffffffffffffffffffffffffffffffffff1673ffffffffffffffffffffffffffffffffffffffff1681526020019081526020016000205461481e90919063ffffffff16565b600260008673ffffffffffffffffffffffffffffffffffffffff1673ffffffffffffffffffffffffffffffffffffffff16815260200190815260200160002060003373ffffffffffffffffffffffffffffffffffffffff1673ffffffffffffffffffffffffffffffffffffffff168152602001908152602001600020819055508273ffffffffffffffffffffffffffffffffffffffff168473ffffffffffffffffffffffffffffffffffffffff167fddf252ad1be2c89b69c2b068fc378daa952ba7f163c4a11628f55a4df523b3ef846040518082815260200191505060405180910390a3600190509392505050565b6000806000806000611f186402540be4008761483790919063ffffffff16565b9350683635c9adc5dea00000841115611fb15769152d02c7e14af6800000841015611f9957611f92640ba43b7400611f846009611f766002611f6864174876e8008b61481e90919063ffffffff16565b61483790919063ffffffff16565b61486f90919063ffffffff16565b61480290919063ffffffff16565b9350611fb0565b611fad60048561486f90919063ffffffff16565b93505b5b4260045410611fc1576000611fec565b611feb62093a80611fdd6004544261481e90919063ffffffff16565b61486f90919063ffffffff16565b5b925061201561200560028561483790919063ffffffff16565b606461481e90919063ffffffff16565b915061203d606461202f848761483790919063ffffffff16565b61486f90919063ffffffff16565b9050602d83111561205057809450612269565b602083111561208757612080606461207260658461483790919063ffffffff16565b61486f90919063ffffffff16565b9450612269565b60188311156120be576120b760646120a960668461483790919063ffffffff16565b61486f90919063ffffffff16565b9450612269565b60128311156120f5576120ee60646120e060678461483790919063ffffffff16565b61486f90919063ffffffff16565b9450612269565b600e83111561212c57612125606461211760688461483790919063ffffffff16565b61486f90919063ffffffff16565b9450612269565b600a8311156121635761215c606461214e60698461483790919063ffffffff16565b61486f90919063ffffffff16565b9450612269565b600783111561219a576121936064612185606a8461483790919063ffffffff16565b61486f90919063ffffffff16565b9450612269565b60058311156121d1576121ca60646121bc606b8461483790919063ffffffff16565b61486f90919063ffffffff16565b9450612269565b60038311156122085761220160646121f3606c8461483790919063ffffffff16565b61486f90919063ffffffff16565b9450612269565b600183111561223f57612238606461222a606d8461483790919063ffffffff16565b61486f90919063ffffffff16565b9450612269565b6122666064612258606e8461483790919063ffffffff16565b61486f90919063ffffffff16565b94505b50505050919050565b6000603261227e613412565b1115905090565b60066020528060005260406000206000915090505481565b600080600d60008473ffffffffffffffffffffffffffffffffffffffff1673ffffffffffffffffffffffffffffffffffffffff1681526020019081526020016000208054905014156122f25760009050612356565b61235382600061234e6001600d60008873ffffffffffffffffffffffffffffffffffffffff1673ffffffffffffffffffffffffffffffffffffffff1681526020019081526020016000208054905061481e90919063ffffffff16565b612698565b90505b919050565b600073ffffffffffffffffffffffffffffffffffffffff826040518082805190602001908083835b6020831015156123a85780518252602082019150602081019050602083039250612383565b6001836020036101000a038019825116818451168082178552505050505050905001915050604051809103902060019004169050919050565b600080600260003373ffffffffffffffffffffffffffffffffffffffff1673ffffffffffffffffffffffffffffffffffffffff16815260200190815260200160002060008573ffffffffffffffffffffffffffffffffffffffff1673ffffffffffffffffffffffffffffffffffffffff168152602001908152602001600020549050808311156124f2576000600260003373ffffffffffffffffffffffffffffffffffffffff1673ffffffffffffffffffffffffffffffffffffffff16815260200190815260200160002060008673ffffffffffffffffffffffffffffffffffffffff1673ffffffffffffffffffffffffffffffffffffffff16815260200190815260200160002081905550612586565b612505838261481e90919063ffffffff16565b600260003373ffffffffffffffffffffffffffffffffffffffff1673ffffffffffffffffffffffffffffffffffffffff16815260200190815260200160002060008673ffffffffffffffffffffffffffffffffffffffff1673ffffffffffffffffffffffffffffffffffffffff168152602001908152602001600020819055505b8373ffffffffffffffffffffffffffffffffffffffff163373ffffffffffffffffffffffffffffffffffffffff167f8c5be1e5ebec7d5bd14f71427d1e84f3dd0314c0f7b2291e5b200ac8c7c3b925600260003373ffffffffffffffffffffffffffffffffffffffff1673ffffffffffffffffffffffffffffffffffffffff16815260200190815260200160002060008873ffffffffffffffffffffffffffffffffffffffff1673ffffffffffffffffffffffffffffffffffffffff168152602001908152602001600020546040518082815260200191505060405180910390a3600191505092915050565b60086020528060005260406000206000915054906101000a900460ff1681565b60075481565b6000806000808486111515156126ad57600080fd5b600d60008873ffffffffffffffffffffffffffffffffffffffff1673ffffffffffffffffffffffffffffffffffffffff16815260200190815260200160002080549050851015156126fd57600080fd5b600d60008873ffffffffffffffffffffffffffffffffffffffff1673ffffffffffffffffffffffffffffffffffffffff16815260200190815260200160002092508486141561276d57828681548110151561275457fe5b90600052602060002090600402016000015493506127d1565b600091508590505b84811115156127cd576127b0838281548110151561278f57fe5b9060005260206000209060040201600001548361480290919063ffffffff16565b91506127c660018261480290919063ffffffff16565b9050612775565b8193505b5050509392505050565b60008060008373ffffffffffffffffffffffffffffffffffffffff1673ffffffffffffffffffffffffffffffffffffffff168152602001908152602001600020549050919050565b6000806000600454421015151561283957600080fd5b612841613366565b61284b88886140b9565b9150818a60405160200180836bffffffffffffffffffffffff19166bffffffffffffffffffffffff19168152601401828152602001925050506040516020818303038152906040526040518082805190602001908083835b6020831015156128c857805182526020820191506020810190506020830392506128a3565b6001836020036101000a03801982511681845116808217855250505050505090500191505060405180910390209050612901818a613097565b151561290c57600080fd5b6129193389888888613c56565b151561292457600080fd5b600160086000836000191660001916815260200190815260200160002060006101000a81548160ff0219169083151502179055506129618a611ef8565b9250600a5461297b8460095461480290919063ffffffff16565b1115151561298857600080fd5b61299d8360095461480290919063ffffffff16565b6009819055506129f4836000803373ffffffffffffffffffffffffffffffffffffffff1673ffffffffffffffffffffffffffffffffffffffff1681526020019081526020016000205461480290919063ffffffff16565b6000803373ffffffffffffffffffffffffffffffffffffffff1673ffffffffffffffffffffffffffffffffffffffff16815260200190815260200160002081905550612a4b8360015461480290919063ffffffff16565b6001819055503373ffffffffffffffffffffffffffffffffffffffff16600073ffffffffffffffffffffffffffffffffffffffff167fddf252ad1be2c89b69c2b068fc378daa952ba7f163c4a11628f55a4df523b3ef856040518082815260200191505060405180910390a38292505050979650505050505050565b60045481565b600080600080600080600d60008973ffffffffffffffffffffffffffffffffffffffff1673ffffffffffffffffffffffffffffffffffffffff16815260200190815260200160002087815481101515612b2257fe5b906000526020600020906004020194506032612b6262093a80612b54600454896001015461481e90919063ffffffff16565b61486f90919063ffffffff16565b111515612bca57612b7b85600101548660020154613a12565b9350612b8a8560000154611af9565b9250612b998560000154614478565b9150612bc082612bb2858761480290919063ffffffff16565b61480290919063ffffffff16565b9050809550612bcf565b600095505b505050505092915050565b600080600080600080600d60008973ffffffffffffffffffffffffffffffffffffffff1673ffffffffffffffffffffffffffffffffffffffff16815260200190815260200160002087815481101515612c2f57fe5b9060005260206000209060040201945084600201544210151515612c5257600080fd5b612c5a613366565b84600001549350612c6b88886146ab565b9250612c778888612acd565b9150612c9e82612c90858761480290919063ffffffff16565b61480290919063ffffffff16565b9050612ce8600d60008a73ffffffffffffffffffffffffffffffffffffffff1673ffffffffffffffffffffffffffffffffffffffff16815260200190815260200160002088614885565b612cfd84600c5461481e90919063ffffffff16565b600c819055507f63a242a632efe33c0e210e04e4173612a17efa4f16aa4890bc7e46caece80de0846040518082815260200191505060405180910390a1612d8b846000803073ffffffffffffffffffffffffffffffffffffffff1673ffffffffffffffffffffffffffffffffffffffff1681526020019081526020016000205461481e90919063ffffffff16565b6000803073ffffffffffffffffffffffffffffffffffffffff1673ffffffffffffffffffffffffffffffffffffffff16815260200190815260200160002081905550612e1e816000808b73ffffffffffffffffffffffffffffffffffffffff1673ffffffffffffffffffffffffffffffffffffffff1681526020019081526020016000205461480290919063ffffffff16565b6000808a73ffffffffffffffffffffffffffffffffffffffff1673ffffffffffffffffffffffffffffffffffffffff16815260200190815260200160002081905550612ed382600080600360009054906101000a900473ffffffffffffffffffffffffffffffffffffffff1673ffffffffffffffffffffffffffffffffffffffff1673ffffffffffffffffffffffffffffffffffffffff1681526020019081526020016000205461480290919063ffffffff16565b600080600360009054906101000a900473ffffffffffffffffffffffffffffffffffffffff1673ffffffffffffffffffffffffffffffffffffffff1673ffffffffffffffffffffffffffffffffffffffff168152602001908152602001600020819055508773ffffffffffffffffffffffffffffffffffffffff163073ffffffffffffffffffffffffffffffffffffffff167fddf252ad1be2c89b69c2b068fc378daa952ba7f163c4a11628f55a4df523b3ef87600001546040518082815260200191505060405180910390a3612fc8612fb760028461483790919063ffffffff16565b60015461480290919063ffffffff16565b6001819055508773ffffffffffffffffffffffffffffffffffffffff167f0f6798a560793a54c3bcfe86a93cde1e73087d944c0ea20544137d4121396885836040518082815260200191505060405180910390a2600360009054906101000a900473ffffffffffffffffffffffffffffffffffffffff1673ffffffffffffffffffffffffffffffffffffffff167f0f6798a560793a54c3bcfe86a93cde1e73087d944c0ea20544137d4121396885836040518082815260200191505060405180910390a2505050505092915050565b600080151560086000856000191660001916815260200190815260200160002060009054906101000a900460ff1615151480156130da57506130d98284613aec565b5b905092915050565b6060806060806000606080606080600080600d60008d73ffffffffffffffffffffffffffffffffffffffff1673ffffffffffffffffffffffffffffffffffffffff168152602001908152602001600020805490509650866040519080825280602002602001820160405280156131675781602001602082028038833980820191505090505b509550866040519080825280602002602001820160405280156131995781602001602082028038833980820191505090505b509450866040519080825280602002602001820160405280156131cb5781602001602082028038833980820191505090505b509350866040519080825280602002602001820160405280156131fd5781602001602082028038833980820191505090505b509250600091505b868210156132fa57600d60008d73ffffffffffffffffffffffffffffffffffffffff1673ffffffffffffffffffffffffffffffffffffffff1681526020019081526020016000208281548110151561325957fe5b906000526020600020906004020190508060000154868381518110151561327c57fe5b90602001906020020181815250508060010154858381518110151561329d57fe5b9060200190602002018181525050806002015484838151811015156132be57fe5b9060200190602002018181525050806003015483838151811015156132df57fe5b90602001906020020181815250508180600101925050613205565b858585859a509a509a509a50505050505050509193509193565b600b5481565b600d6020528160005260406000208181548110151561333557fe5b9060005260206000209060040201600091509150508060000154908060010154908060020154908060030154905084565b60008061339362093a806133856004544261481e90919063ffffffff16565b61486f90919063ffffffff16565b9150603282111580156133a7575060055482115b156133e8576133c3600954600a5461481e90919063ffffffff16565b9050806006600060018503815260200190815260200160002081905550816005819055505b5050565b600360009054906101000a900473ffffffffffffffffffffffffffffffffffffffff1681565b6000600454421161342457600061344f565b61344e62093a806134406004544261481e90919063ffffffff16565b61486f90919063ffffffff16565b5b905090565b60055481565b60008073ffffffffffffffffffffffffffffffffffffffff168373ffffffffffffffffffffffffffffffffffffffff161415151561349757600080fd5b6000803373ffffffffffffffffffffffffffffffffffffffff1673ffffffffffffffffffffffffffffffffffffffff1681526020019081526020016000205482111515156134e457600080fd5b613535826000803373ffffffffffffffffffffffffffffffffffffffff1673ffffffffffffffffffffffffffffffffffffffff1681526020019081526020016000205461481e90919063ffffffff16565b6000803373ffffffffffffffffffffffffffffffffffffffff1673ffffffffffffffffffffffffffffffffffffffff168152602001908152602001600020819055506135c8826000808673ffffffffffffffffffffffffffffffffffffffff1673ffffffffffffffffffffffffffffffffffffffff1681526020019081526020016000205461480290919063ffffffff16565b6000808573ffffffffffffffffffffffffffffffffffffffff1673ffffffffffffffffffffffffffffffffffffffff168152602001908152602001600020819055508273ffffffffffffffffffffffffffffffffffffffff163373ffffffffffffffffffffffffffffffffffffffff167fddf252ad1be2c89b69c2b068fc378daa952ba7f163c4a11628f55a4df523b3ef846040518082815260200191505060405180910390a36001905092915050565b60003373ffffffffffffffffffffffffffffffffffffffff168273ffffffffffffffffffffffffffffffffffffffff16141515156136b657600080fd5b600073ffffffffffffffffffffffffffffffffffffffff168273ffffffffffffffffffffffffffffffffffffffff16141515156136f257600080fd5b6137628b8b8b808060200260200160405190810160405280939291908181526020018383602002808284378201915050505050508a8a8080601f01602080910402602001604051908101604052809392919081815260200183838082843782019150505050505089898989612823565b90506137c861377b60148361486f90919063ffffffff16565b6000808573ffffffffffffffffffffffffffffffffffffffff1673ffffffffffffffffffffffffffffffffffffffff1681526020019081526020016000205461480290919063ffffffff16565b6000808473ffffffffffffffffffffffffffffffffffffffff1673ffffffffffffffffffffffffffffffffffffffff1681526020019081526020016000208190555061383261382160148361486f90919063ffffffff16565b60015461480290919063ffffffff16565b6001819055508090509a9950505050505050505050565b6000806000806001600d60008973ffffffffffffffffffffffffffffffffffffffff1673ffffffffffffffffffffffffffffffffffffffff168152602001908152602001600020805490500392508285111515156138a657600080fd5b600086101515156138b657600080fd5b6000600d60008973ffffffffffffffffffffffffffffffffffffffff1673ffffffffffffffffffffffffffffffffffffffff16815260200190815260200160002080549050141561390a5760009350613a08565b8486141561397857600d60008873ffffffffffffffffffffffffffffffffffffffff1673ffffffffffffffffffffffffffffffffffffffff168152602001908152602001600020600081548110151561395f57fe5b9060005260206000209060040201600001549350613a08565b8590505b8481111515613a04576139f5600d60008973ffffffffffffffffffffffffffffffffffffffff1673ffffffffffffffffffffffffffffffffffffffff168152602001908152602001600020828154811015156139d457fe5b9060005260206000209060040201600001548361480290919063ffffffff16565b9150808060010191505061397c565b8193505b5050509392505050565b60008060008060008060009450613a4962093a80613a3b6004548b61481e90919063ffffffff16565b61486f90919063ffffffff16565b9350613a7562093a80613a676004548a61481e90919063ffffffff16565b61486f90919063ffffffff16565b925060328311613a855782613a88565b60325b91508390505b81811015613ade57613acf613ac06032600660008581526020019081526020016000205461486f90919063ffffffff16565b8661480290919063ffffffff16565b94508080600101915050613a8e565b849550505050505092915050565b6000613afb8360075484614928565b905092915050565b6000613b568260006001600d60008773ffffffffffffffffffffffffffffffffffffffff1673ffffffffffffffffffffffffffffffffffffffff1681526020019081526020016000208054905003613849565b9050919050565b600080828411151515613b6f57600080fd5b600d60008673ffffffffffffffffffffffffffffffffffffffff1673ffffffffffffffffffffffffffffffffffffffff168152602001908152602001600020805490508311151515613bc057600080fd5b8390505b82811015613c4a57600d60008673ffffffffffffffffffffffffffffffffffffffff1673ffffffffffffffffffffffffffffffffffffffff16815260200190815260200160002081815481101515613c1857fe5b906000526020600020906004020160020154421115613c3d57613c3b8582612bda565b505b8080600101915050613bc4565b60019150509392505050565b6000613d6a600287604051602001808273ffffffffffffffffffffffffffffffffffffffff1673ffffffffffffffffffffffffffffffffffffffff166c010000000000000000000000000281526014019150506040516020818303038152906040526040518082805190602001908083835b602083101515613ced5780518252602082019150602081019050602083039250613cc8565b6001836020036101000a0380198251168184511680821785525050505050509050019150506020604051808303816000865af1158015613d31573d6000803e3d6000fd5b5050506040513d6020811015613d4657600080fd5b8101908080519060200190929190505050858585613d638a61235b565b6000611558565b905095945050505050565b600080848460405160200180836bffffffffffffffffffffffff19166bffffffffffffffffffffffff19168152601401828152602001925050506040516020818303038152906040526040518082805190602001908083835b602083101515613df35780518252602082019150602081019050602083039250613dce565b6001836020036101000a03801982511681845116808217855250505050505090500191505060405180910390209050613e2c8184613097565b9150509392505050565b6000613ec782600260003373ffffffffffffffffffffffffffffffffffffffff1673ffffffffffffffffffffffffffffffffffffffff16815260200190815260200160002060008673ffffffffffffffffffffffffffffffffffffffff1673ffffffffffffffffffffffffffffffffffffffff1681526020019081526020016000205461480290919063ffffffff16565b600260003373ffffffffffffffffffffffffffffffffffffffff1673ffffffffffffffffffffffffffffffffffffffff16815260200190815260200160002060008573ffffffffffffffffffffffffffffffffffffffff1673ffffffffffffffffffffffffffffffffffffffff168152602001908152602001600020819055508273ffffffffffffffffffffffffffffffffffffffff163373ffffffffffffffffffffffffffffffffffffffff167f8c5be1e5ebec7d5bd14f71427d1e84f3dd0314c0f7b2291e5b200ac8c7c3b925600260003373ffffffffffffffffffffffffffffffffffffffff1673ffffffffffffffffffffffffffffffffffffffff16815260200190815260200160002060008773ffffffffffffffffffffffffffffffffffffffff1673ffffffffffffffffffffffffffffffffffffffff168152602001908152602001600020546040518082815260200191505060405180910390a36001905092915050565b6000600260008473ffffffffffffffffffffffffffffffffffffffff1673ffffffffffffffffffffffffffffffffffffffff16815260200190815260200160002060008373ffffffffffffffffffffffffffffffffffffffff1673ffffffffffffffffffffffffffffffffffffffff16815260200190815260200160002054905092915050565b6000806000806140ca8660006149f3565b6001900492506140db8660206149f3565b60019004915084156142b75760006002838115156140f557fe5b0614614102576003614105565b60025b9050600360028285604051602001808360ff1660ff167f0100000000000000000000000000000000000000000000000000000000000000028152600101828152602001925050506040516020818303038152906040526040518082805190602001908083835b602083101515614190578051825260208201915060208101905060208303925061416b565b6001836020036101000a0380198251168184511680821785525050505050509050019150506020604051808303816000865af11580156141d4573d6000803e3d6000fd5b5050506040513d60208110156141e957600080fd5b81019080805190602001909291905050506040516020018082600019166000191681526020019150506040516020818303038152906040526040518082805190602001908083835b6020831015156142565780518252602082019150602081019050602083039250614231565b6001836020036101000a0380198251168184511680821785525050505050509050019150506020604051808303816000865af115801561429a573d6000803e3d6000fd5b505050604051516c0100000000000000000000000002935061446f565b6004905060036002828585604051602001808460ff1660ff167f010000000000000000000000000000000000000000000000000000000000000002815260010183815260200182815260200193505050506040516020818303038152906040526040518082805190602001908083835b60208310151561434c5780518252602082019150602081019050602083039250614327565b6001836020036101000a0380198251168184511680821785525050505050509050019150506020604051808303816000865af1158015614390573d6000803e3d6000fd5b5050506040513d60208110156143a557600080fd5b81019080805190602001909291905050506040516020018082600019166000191681526020019150506040516020818303038152906040526040518082805190602001908083835b60208310151561441257805182526020820191506020810190506020830392506143ed565b6001836020036101000a0380198251168184511680821785525050505050509050019150506020604051808303816000865af1158015614456573d6000803e3d6000fd5b505050604051516c010000000000000000000000000293505b50505092915050565b60006144b6600a6144a8600a5461449a6009548761483790919063ffffffff16565b61486f90919063ffffffff16565b61486f90919063ffffffff16565b9050919050565b600080600d60008573ffffffffffffffffffffffffffffffffffffffff1673ffffffffffffffffffffffffffffffffffffffff1681526020019081526020016000208381548110151561450c57fe5b9060005260206000209060040201600001549050600d60008573ffffffffffffffffffffffffffffffffffffffff1673ffffffffffffffffffffffffffffffffffffffff1681526020019081526020016000208381548110151561456c57fe5b9060005260206000209060040201600201544211156145a8576145a16145928585612acd565b8261480290919063ffffffff16565b91506145ac565b8091505b5092915050565b60095481565b600080600080600080601e945084888115156145d157fe5b0693506145e7858961486f90919063ffffffff16565b92506146016402540be4008a61486f90919063ffffffff16565b9150600090505b828110156146585761463b846127100a61462d868a0a8561483790919063ffffffff16565b61486f90919063ffffffff16565b915061465160018261480290919063ffffffff16565b9050614608565b614683846127100a614675868a0a8561483790919063ffffffff16565b61486f90919063ffffffff16565b915061469d6402540be4008361483790919063ffffffff16565b955050505050509392505050565b600080600080600080600080600d60008b73ffffffffffffffffffffffffffffffffffffffff1673ffffffffffffffffffffffffffffffffffffffff1681526020019081526020016000208981548110151561470357fe5b906000526020600020906004020196506147286064600161483790919063ffffffff16565b955060008760030154141561473e57600161476b565b61476a60015461475c60648a6003015461483790919063ffffffff16565b61486f90919063ffffffff16565b5b9450614780858761486f90919063ffffffff16565b93506147976127108561480290919063ffffffff16565b92506147c9620d2f006147bb89600101548a6002015461481e90919063ffffffff16565b61486f90919063ffffffff16565b91506147da876000015483856145b9565b90506147f387600001548261481e90919063ffffffff16565b97505050505050505092915050565b6000818301905082811015151561481557fe5b80905092915050565b600082821115151561482c57fe5b818303905092915050565b60008083141561484a5760009050614869565b818302905081838281151561485b57fe5b0414151561486557fe5b8090505b92915050565b6000818381151561487c57fe5b04905092915050565b8161489e6001848054905061481e90919063ffffffff16565b8154811015156148aa57fe5b906000526020600020906004020182828154811015156148c657fe5b9060005260206000209060040201600082015481600001556001820154816001015560028201548160020155600382015481600301559050506149176001838054905061481e90919063ffffffff16565b82816149239190614acf565b505050565b600080600080849250600091505b86518210156149dc57868281518110151561494d57fe5b90602001906020020151905080600019168360001916101561499e578281604051808360001916600019168152602001826000191660001916815260200192505050604051809103902092506149cf565b8083604051808360001916600019168152602001826000191660001916815260200192505050604051809103902092505b8180600101925050614936565b856000191683600019161493505050509392505050565b600080600090505b6020811015614ac5576008810284848301815181101515614a1857fe5b9060200101517f010000000000000000000000000000000000000000000000000000000000000090047f0100000000000000000000000000000000000000000000000000000000000000027effffffffffffffffffffffffffffffffffffffffffffffffffffffffffffff19167fff0000000000000000000000000000000000000000000000000000000000000060010216600019169060020a90048218915080806001019150506149fb565b8191505092915050565b815481835581811115614afc57600402816004028360005260206000209182019101614afb9190614b01565b5b505050565b614b3d91905b80821115614b395760008082016000905560018201600090556002820160009055600382016000905550600401614b07565b5090565b905600a165627a7a72305820aa96ed1011cb2bb02e55177f721c1f73bb3575ffa90d37fe0cdb20c5825a9f170029",
  "source": "pragma solidity ^0.4.23;\nimport \"./UTXORedeemableToken.sol\";\n\n\ncontract StakeableToken is UTXORedeemableToken {\n\n  event Mint(address indexed _address, uint _reward);\n\n  uint256 public totalBtcCirculationAtFork;\n  uint256 public totalStakedCoins;\n  uint256 public constant interestRatePercent = 1;\n\n  struct StakeStruct {\n    uint256 stakeAmount;\n    uint256 stakeTime;\n    uint256 unlockTime;\n    uint256 totalStakedCoinsAtStart;\n  }\n\n  mapping(address => StakeStruct[]) public staked;\n\n  /************************\n  *start utility functions*\n  ************************/\n\n  function getUserStakes(address _staker)\n    public\n    view\n    returns (uint256[], uint256[], uint256[], uint256[])\n  {\n    uint256 _stakesLength = staked[_staker].length;\n    uint256[] memory _stakeAmount = new uint256[](_stakesLength);\n    uint256[] memory _stakeTime = new uint256[](_stakesLength);\n    uint256[] memory _unlockTime = new uint256[](_stakesLength);\n    uint256[] memory _totalStakedCoinsAtStart = new uint256[](_stakesLength);\n\n    for (uint256 _i = 0; _i < _stakesLength; _i++) {\n      StakeStruct storage stake = staked[_staker][_i];\n      _stakeAmount[_i] = stake.stakeAmount;\n      _stakeTime[_i] = stake.stakeTime;\n      _unlockTime[_i] = stake.unlockTime;\n      _totalStakedCoinsAtStart[_i] = stake.totalStakedCoinsAtStart;\n    }\n\n    return (_stakeAmount, _stakeTime, _unlockTime, _totalStakedCoinsAtStart);\n  }\n\n  function getWeeksSinceLaunch()\n    public\n    view\n    returns (uint256)\n  {\n    return block.timestamp > launchTime \n      ? block.timestamp.sub(launchTime).div(7 days) \n      : 0;\n  }\n\n  function isDuringBonusPeriod()\n    public\n    view\n    returns (bool)\n  {\n    return getWeeksSinceLaunch() <= 50;\n  }\n\n  /** \n    @dev Moves last item in array to location of item to be removed,\n    overwriting array item. Shortens array length by 1, removing now\n    duplicate item at end of array.\n    @param _array an array of StakeStructs\n    @param _index index of the item to delete\n  */\n  function removeArrayEntry(\n    StakeStruct[] storage _array,\n    uint256 _index\n  )\n    internal\n  {\n    // set last item to index of item we want to get rid of\n    _array[_index] = _array[_array.length.sub(1)];\n    // remove last item in array now that safely copied to index of deleted item\n    _array.length = _array.length.sub(1);\n  }\n\n  /**\n    @dev compound groups up compounding periods by 30 in order to avoid  \n    uint overflows when taking (100 + rate) ** periods. Accuracy is also brought by\n    10 decimals in order to avoid uint overflows when \n    taking compounded * ((100  + rate) ** periods).\n\n    @param _principle base amount being compounded\n    @param _periods amount of periods to compound principle\n    @param _rate rate given as uint percent \n  */\n  function compound(\n    uint256 _principle,\n    uint256 _periods,\n    uint256 _rate\n  )\n    public\n    pure\n    returns (uint256)\n  {\n    uint256 _maxGroupPeriods = 30;\n    uint256 _remainingPeriods = _periods % _maxGroupPeriods;\n    uint256 _groupings = _periods.div(_maxGroupPeriods);\n    uint256 _compounded = _principle.div(1e10);\n\n    for(uint256 _i = 0; _i < _groupings; _i = _i.add(1)) {\n      _compounded = _compounded\n        .mul(_rate ** _remainingPeriods)\n        .div(1e4 ** _remainingPeriods);\n    }\n\n    _compounded = _compounded\n      .mul(_rate ** _remainingPeriods)\n      .div(1e4 ** _remainingPeriods);\n\n    return _compounded.mul(1e10);\n  }\n\n  // TODO: HEAVILY test this in order to ensure that there are no integer overflows\n  function calculateStakingRewards(\n    address _staker,\n    uint256 _stakeIndex\n  ) \n    public \n    view\n    returns (uint256)\n  {\n    StakeStruct storage _stake = staked[_staker][_stakeIndex];\n\n    // raise by 100 in order to adjust with scaler\n    uint256 _interestRateTimesHundred = interestRatePercent.mul(100);\n\n    // calculate percent of staked coins vs totalSupply to use for interest rate reduction\n    uint256 _scaler = _stake.totalStakedCoinsAtStart != 0 \n      ? _stake.totalStakedCoinsAtStart\n        .mul(100)\n        .div(totalSupply_)\n      : 1;\n\n    // reduce interest rate by scaler\n    uint256 _scaledInterestRate = _interestRateTimesHundred.div(_scaler);\n    // bring up by 1e4 in order to get an accurate percent\n    uint256 _interestRate = _scaledInterestRate.add(1e4);\n    // Calculate Periods\n    uint256 _periods = _stake.unlockTime\n      .sub(_stake.stakeTime)\n      .div(10 days);\n    // Compound\n    uint256 _compounded = compound(\n      _stake.stakeAmount, \n      _periods, \n      _interestRate\n    );\n\n    // Calculate final staking rewards with time bonus\n    return _compounded.sub(_stake.stakeAmount);\n  }\n\n  function calculateWeAreAllSatoshiRewards(\n    uint256 _stakeTime,\n    uint256 _unlockTime\n  ) \n    public \n    view \n    returns (uint256)\n  {\n    uint256 _rewards = 0;\n    /* Calculate what week stake was opened */\n    uint256 _startWeek = _stakeTime\n      .sub(launchTime)\n      .div(7 days);\n\n    uint256 _endWeek = _unlockTime\n      .sub(launchTime)\n      .div(7 days);\n\n    uint256 _rewardableEndWeek = _endWeek > 50 ? 50 : _endWeek;\n\n    // Award 2% of unclaimed coins at end of every week\n    for (uint256 _i = _startWeek; _i < _rewardableEndWeek; _i++) {\n      _rewards = _rewards.add(unclaimedCoinsByWeek[_i].div(50));\n    }\n    return _rewards;\n  }\n\n  // TODO: double check that we want to make this public... if so... is it ok that\n  // it shows non zero amounts for users outside of bonus period?\n  function calculateViralRewards(\n    uint256 _stakeAmount\n  ) \n    public \n    view \n    returns (uint256)\n  {\n    // Add bonus percentage to _rewards from 0-10% based on adoption\n    return _stakeAmount\n      .mul(totalRedeemed)\n      .div(totalBtcCirculationAtFork)\n      .div(10);\n  }\n\n  function calculateCritMassRewards(\n    uint256 _stakeAmount\n  ) \n    public \n    view \n    returns (uint256)\n  {\n    // Add bonus percentage to _rewards from 0-10% based on adoption\n    return _stakeAmount\n      .mul(totalRedeemed)\n      .div(maximumRedeemable)\n      .div(10);\n  }\n\n  /**\n    @dev Additional rewards should only be given within first 50 weeks.\n   */\n  function calculateAdditionalRewards(\n    address _staker,\n    uint256 _stakeIndex\n  ) \n    public \n    view \n    returns (uint256)\n  {\n    StakeStruct storage _stake = staked[_staker][_stakeIndex];\n    // only give rewards if within first 50 weeks\n    if (_stake.stakeTime.sub(launchTime).div(7 days) <= 50) {\n      uint256 _weAreAllSatoshiRewards = calculateWeAreAllSatoshiRewards(\n        _stake.stakeTime,\n        _stake.unlockTime\n      );\n      uint256 _viralRewards = calculateViralRewards(_stake.stakeAmount);\n      uint256 _critMassRewards = calculateCritMassRewards(_stake.stakeAmount);\n      uint256 _rewards = _weAreAllSatoshiRewards\n        .add(_viralRewards)\n        .add(_critMassRewards);\n\n      return _rewards;\n    } else {\n      return 0;\n    }\n    return 0;\n  }\n\n  /**\n    @notice available for use directly when there are too many stakes to do in a single operation\n  */\n  function getStakedAtIndexes(\n    address _staker,\n    uint256 _startIndex,\n    uint256 _endIndex\n  )\n    public\n    view\n    returns (uint256)\n  {\n    uint256 _maxIndex = staked[_staker].length - 1;\n    require(_endIndex <= _maxIndex);\n    require(_startIndex >= 0);\n    uint256 _totalStaked;\n    // ensure that there are stakes to be retreived\n    if (staked[_staker].length == 0) {\n      return 0;\n    }\n\n    // return single stake if indexes are the same\n    if( _startIndex == _endIndex) {\n      return staked[_staker][0].stakeAmount;\n    }\n\n    for (uint256 _i = _startIndex; _i <= _endIndex; _i++) {\n      _totalStaked = _totalStaked.add(staked[_staker][_i].stakeAmount);\n    }\n\n    return _totalStaked;\n  }\n\n  /**\n    @notice This function might fail if there are too many stakes for a user. Use getStakedAtIndexes if this is the case.\n  */\n  function getTotalUserStaked(\n    address _staker\n  )\n    public\n    view\n    returns (uint256)\n  {\n    return getStakedAtIndexes(_staker, 0, staked[_staker].length - 1);\n  }\n\n  function calculateSingleStakePlusRewards(\n    address _staker,\n    uint256 _stakeIndex\n  )\n    public\n    view\n    returns (uint256)\n  {\n    uint256 _stake = staked[_staker][_stakeIndex].stakeAmount;\n    \n    if (block.timestamp > staked[_staker][_stakeIndex].unlockTime) {\n      return _stake.add(\n          calculateAdditionalRewards(\n            _staker,\n            _stakeIndex\n          )\n      );\n    } else {\n      return _stake;\n    }\n  }\n\n  /**\n    @notice Used in case user creates excessive stakes and array iteration hits gasLimit.\n    @param _staker user for which to check stakes\n    @param _startIndex get stakes from location\n    @param _endIndex get stakes up to location\n  */\n  function getCurrentStakedAtIndexes(\n    address _staker,\n    uint256 _startIndex,\n    uint256 _endIndex\n  )\n    public\n    view\n    returns (uint256)\n  {\n    require(_startIndex <= _endIndex);\n    require(_endIndex < staked[_staker].length);\n\n    StakeStruct[] storage _stakes = staked[_staker];\n    if (_startIndex == _endIndex) {\n      return _stakes[_startIndex].stakeAmount;\n    }\n\n    uint256 _totalStaked = 0;\n    uint256 _i = _startIndex;\n    while (_i <= _endIndex) {\n      _totalStaked = _totalStaked.add(_stakes[_i].stakeAmount);\n      _i = _i.add(1);\n    }\n\n    return _totalStaked;\n  }\n\n  /**\n    @notice Safe for users who have no placed excessive amounts of stakes.\n    @param _staker the user address for which to check current staked\n  */\n  function getCurrentStaked(\n    address _staker\n  )\n    external\n    view \n    returns (uint256)\n  {\n    if (staked[_staker].length == 0) {\n      return 0;\n    }\n\n    return getCurrentStakedAtIndexes(_staker, 0, staked[_staker].length.sub(1));\n  }\n\n  /**********************\n  *end utility functions*\n  **********************/\n\n  /*********************\n  *start user functions*\n  *********************/\n\n  /** \n    @notice start a stake in order to claim rewards at later unlock time.\n    Additional rewards only payable within first 50 weeks.\n    @param _value amount of tokens to lock\n    @param _unlockTime unix timestamp date for when to unlock tokens\n  */\n  function startStake(\n    uint256 _value, \n    uint256 _unlockTime\n  ) \n    external\n    returns (bool)\n  {\n    address _staker = msg.sender;\n\n    // Make sure staker has enough funds\n    require(balances[_staker] >= _value);\n    // ensure unlockTime is in the future\n    require(_unlockTime >= block.timestamp.add(10 days));\n    // ensure that unlock time is not more than approx 10 years\n    require(_unlockTime <= block.timestamp.add(10 * 365 days));\n\n    // Check if weekly data needs to be updated\n    storeWeekUnclaimed();\n\n    // Remove balance from sender\n    balances[_staker] = balances[_staker].sub(_value);\n    balances[address(this)] = balances[address(this)].add(_value);\n\n    // Create Stake\n    staked[_staker].push(\n      StakeStruct(\n        _value, \n        block.timestamp, \n        _unlockTime, \n        totalStakedCoins\n      )\n    );\n\n    // Add staked coins to global stake counter\n    totalStakedCoins = totalStakedCoins.add(_value);\n\n    return true;\n  }\n\n  event Test(uint value);\n  /**\n    @notice Used for claiming a single stake. Another user can claim a stake on another \n    user's behalf. All rewards and original stake go to original staker.\n    Useful for if _staker does not have any gas and someone else is claiming for them.\n    @param _staker user address for who is making the claim\n    @param _stakeIndex location of the stake to claim\n  */\n  function claimSingleStakingReward(\n    address _staker,\n    uint256 _stakeIndex\n  )\n    public\n    returns (bool)\n  {\n    StakeStruct storage _stake = staked[_staker][_stakeIndex];\n    require(block.timestamp >= _stake.unlockTime);\n    // Check if weekly data needs to be updated\n    storeWeekUnclaimed();\n\n    uint256 _startingStake = _stake.stakeAmount;\n    // Calculate Rewards\n    uint256 _stakingRewards = calculateStakingRewards(\n      _staker, \n      _stakeIndex\n    );\n    uint256 _additionalRewards = calculateAdditionalRewards(\n      _staker,\n      _stakeIndex\n    );\n    uint256 _rewards = _startingStake\n      .add(_stakingRewards)\n      .add(_additionalRewards);\n\n    // Remove Stake\n    removeArrayEntry(staked[_staker], _stakeIndex); \n    \n    // Remove StakedCoins from global counter\n    totalStakedCoins = totalStakedCoins\n      .sub(_startingStake);\n    emit Test(_startingStake);\n\n    // Sub staked coins from contract\n    balances[address(this)] = balances[address(this)]\n      .sub(_startingStake);\n    \n    // Add staked coins to staker\n    balances[_staker] = balances[_staker]\n      .add(_rewards);\n\n    // Award rewards to origin contract\n    balances[origin] = balances[origin]\n      .add(_additionalRewards);\n\n    emit Transfer(\n      address(this), \n      _staker, \n      _stake.stakeAmount\n    );\n\n    // Increase supply\n    totalSupply_ = totalSupply_.add(_additionalRewards.mul(2));\n\n    emit Mint(_staker, _additionalRewards);\n    emit Mint(origin, _additionalRewards);\n  }\n\n  /**\n    @notice Used for claiming multiple stakes. Another user can \n    claim a stake on another user's behalf. All rewards and original stake go to original staker.\n    Useful for if _staker does not have any gas and someone else is claiming for them.\n    @param _staker user address for who is making the claim\n    @param _startIndex claim stakes from this location\n    @param _endIndex claim stakes up to this location\n  */\n  function claimMultipleStakingRewards(\n    address _staker,\n    uint256 _startIndex,\n    uint256 _endIndex\n  ) \n    external \n    returns (bool)\n  {\n    // ensure that indexes are in array bounds\n    require(_startIndex <= _endIndex);\n    require(_endIndex <= staked[_staker].length);\n\n    for (uint256 _i = _startIndex; _i < _endIndex; _i++) {\n      // Check if stake has matured\n      if (block.timestamp > staked[_staker][_i].unlockTime) {\n        claimSingleStakingReward(_staker, _i);\n      }\n    }\n\n    return true;\n  }\n\n  /********************\n  *start end functions*\n  ********************/\n}\n",
  "sourcePath": "/Users/tovarishfin/dev/bhx/bhx-contracts/contracts/StakeableToken.sol",
  "compiler": {
    "name": "solc",
    "version": "0.4.24+commit.e67f0147.Emscripten.clang"
  },
  "schemaVersion": "2.0.0",
  "updatedAt": "2018-07-31T19:02:53.516Z"
}