{
  "contractName": "StakeableTokenStub",
  "abi": [
    {
      "constant": true,
      "inputs": [
        {
          "name": "_hash",
          "type": "bytes32"
        },
        {
          "name": "_v",
          "type": "uint8"
        },
        {
          "name": "_r",
          "type": "bytes32"
        },
        {
          "name": "_s",
          "type": "bytes32"
        },
        {
          "name": "_expected",
          "type": "address"
        },
        {
          "name": "_addPrefix",
          "type": "bool"
        }
      ],
      "name": "validateSignature",
      "outputs": [
        {
          "name": "",
          "type": "bool"
        }
      ],
      "payable": false,
      "stateMutability": "pure",
      "type": "function"
    },
    {
      "constant": true,
      "inputs": [],
      "name": "maximumRedeemable",
      "outputs": [
        {
          "name": "",
          "type": "uint256"
        }
      ],
      "payable": false,
      "stateMutability": "view",
      "type": "function"
    },
    {
      "constant": false,
      "inputs": [
        {
          "name": "_spender",
          "type": "address"
        },
        {
          "name": "_value",
          "type": "uint256"
        }
      ],
      "name": "approve",
      "outputs": [
        {
          "name": "",
          "type": "bool"
        }
      ],
      "payable": false,
      "stateMutability": "nonpayable",
      "type": "function"
    },
    {
      "constant": false,
      "inputs": [
        {
          "name": "_value",
          "type": "uint256"
        },
        {
          "name": "_stakePeriods",
          "type": "uint256"
        }
      ],
      "name": "startStake",
      "outputs": [
        {
          "name": "",
          "type": "bool"
        }
      ],
      "payable": false,
      "stateMutability": "nonpayable",
      "type": "function"
    },
    {
      "constant": true,
      "inputs": [],
      "name": "interestRatePercent",
      "outputs": [
        {
          "name": "",
          "type": "uint256"
        }
      ],
      "payable": false,
      "stateMutability": "view",
      "type": "function"
    },
    {
      "constant": true,
      "inputs": [],
      "name": "totalStakedCoins",
      "outputs": [
        {
          "name": "",
          "type": "uint256"
        }
      ],
      "payable": false,
      "stateMutability": "view",
      "type": "function"
    },
    {
      "constant": true,
      "inputs": [],
      "name": "totalSupply",
      "outputs": [
        {
          "name": "",
          "type": "uint256"
        }
      ],
      "payable": false,
      "stateMutability": "view",
      "type": "function"
    },
    {
      "constant": true,
      "inputs": [
        {
          "name": "_stakePayout",
          "type": "uint256"
        }
      ],
      "name": "calculateViralRewards",
      "outputs": [
        {
          "name": "",
          "type": "uint256"
        }
      ],
      "payable": false,
      "stateMutability": "view",
      "type": "function"
    },
    {
      "constant": false,
      "inputs": [
        {
          "name": "_from",
          "type": "address"
        },
        {
          "name": "_to",
          "type": "address"
        },
        {
          "name": "_value",
          "type": "uint256"
        }
      ],
      "name": "transferFrom",
      "outputs": [
        {
          "name": "",
          "type": "bool"
        }
      ],
      "payable": false,
      "stateMutability": "nonpayable",
      "type": "function"
    },
    {
      "constant": true,
      "inputs": [],
      "name": "getCirculatingSupply",
      "outputs": [
        {
          "name": "",
          "type": "uint256"
        }
      ],
      "payable": false,
      "stateMutability": "view",
      "type": "function"
    },
    {
      "constant": true,
      "inputs": [
        {
          "name": "_satoshis",
          "type": "uint256"
        }
      ],
      "name": "getRedeemAmount",
      "outputs": [
        {
          "name": "",
          "type": "uint256"
        },
        {
          "name": "",
          "type": "uint256"
        }
      ],
      "payable": false,
      "stateMutability": "view",
      "type": "function"
    },
    {
      "constant": true,
      "inputs": [],
      "name": "isDuringBonusPeriod",
      "outputs": [
        {
          "name": "",
          "type": "bool"
        }
      ],
      "payable": false,
      "stateMutability": "view",
      "type": "function"
    },
    {
      "constant": true,
      "inputs": [],
      "name": "oneInterestPeriodInSeconds",
      "outputs": [
        {
          "name": "",
          "type": "uint256"
        }
      ],
      "payable": false,
      "stateMutability": "view",
      "type": "function"
    },
    {
      "constant": true,
      "inputs": [],
      "name": "redeemedCount",
      "outputs": [
        {
          "name": "",
          "type": "uint256"
        }
      ],
      "payable": false,
      "stateMutability": "view",
      "type": "function"
    },
    {
      "constant": true,
      "inputs": [
        {
          "name": "_pubKey",
          "type": "bytes"
        }
      ],
      "name": "pubKeyToEthereumAddress",
      "outputs": [
        {
          "name": "",
          "type": "address"
        }
      ],
      "payable": false,
      "stateMutability": "pure",
      "type": "function"
    },
    {
      "constant": true,
      "inputs": [],
      "name": "maxStakingTimeInSeconds",
      "outputs": [
        {
          "name": "",
          "type": "uint256"
        }
      ],
      "payable": false,
      "stateMutability": "view",
      "type": "function"
    },
    {
      "constant": false,
      "inputs": [
        {
          "name": "_spender",
          "type": "address"
        },
        {
          "name": "_subtractedValue",
          "type": "uint256"
        }
      ],
      "name": "decreaseApproval",
      "outputs": [
        {
          "name": "",
          "type": "bool"
        }
      ],
      "payable": false,
      "stateMutability": "nonpayable",
      "type": "function"
    },
    {
      "constant": true,
      "inputs": [
        {
          "name": "",
          "type": "bytes32"
        }
      ],
      "name": "redeemedUTXOs",
      "outputs": [
        {
          "name": "",
          "type": "bool"
        }
      ],
      "payable": false,
      "stateMutability": "view",
      "type": "function"
    },
    {
      "constant": true,
      "inputs": [],
      "name": "rootUtxoMerkleTreeHash",
      "outputs": [
        {
          "name": "",
          "type": "bytes32"
        }
      ],
      "payable": false,
      "stateMutability": "view",
      "type": "function"
    },
    {
      "constant": true,
      "inputs": [
        {
          "name": "",
          "type": "uint256"
        }
      ],
      "name": "satoshiRewardDataByWeek",
      "outputs": [
        {
          "name": "unclaimedCoins",
          "type": "uint256"
        },
        {
          "name": "totalStaked",
          "type": "uint256"
        }
      ],
      "payable": false,
      "stateMutability": "view",
      "type": "function"
    },
    {
      "constant": true,
      "inputs": [
        {
          "name": "_owner",
          "type": "address"
        }
      ],
      "name": "balanceOf",
      "outputs": [
        {
          "name": "",
          "type": "uint256"
        }
      ],
      "payable": false,
      "stateMutability": "view",
      "type": "function"
    },
    {
      "constant": false,
      "inputs": [
        {
          "name": "_satoshis",
          "type": "uint256"
        },
        {
          "name": "_proof",
          "type": "bytes32[]"
        },
        {
          "name": "_pubKey",
          "type": "bytes"
        },
        {
          "name": "_isCompressed",
          "type": "bool"
        },
        {
          "name": "_v",
          "type": "uint8"
        },
        {
          "name": "_r",
          "type": "bytes32"
        },
        {
          "name": "_s",
          "type": "bytes32"
        }
      ],
      "name": "redeemUtxo",
      "outputs": [
        {
          "name": "",
          "type": "uint256"
        }
      ],
      "payable": false,
      "stateMutability": "nonpayable",
      "type": "function"
    },
    {
      "constant": false,
      "inputs": [
        {
          "name": "_staker",
          "type": "address"
        }
      ],
      "name": "claimAllStakingRewards",
      "outputs": [
        {
          "name": "",
          "type": "bool"
        }
      ],
      "payable": false,
      "stateMutability": "nonpayable",
      "type": "function"
    },
    {
      "constant": true,
      "inputs": [],
      "name": "launchTime",
      "outputs": [
        {
          "name": "",
          "type": "uint256"
        }
      ],
      "payable": false,
      "stateMutability": "view",
      "type": "function"
    },
    {
      "constant": false,
      "inputs": [
        {
          "name": "_staker",
          "type": "address"
        },
        {
          "name": "_stakeIndex",
          "type": "uint256"
        }
      ],
      "name": "claimSingleStakingReward",
      "outputs": [
        {
          "name": "",
          "type": "bool"
        }
      ],
      "payable": false,
      "stateMutability": "nonpayable",
      "type": "function"
    },
    {
      "constant": true,
      "inputs": [
        {
          "name": "_merkleLeafHash",
          "type": "bytes32"
        },
        {
          "name": "_proof",
          "type": "bytes32[]"
        }
      ],
      "name": "canRedeemUtxoHash",
      "outputs": [
        {
          "name": "",
          "type": "bool"
        }
      ],
      "payable": false,
      "stateMutability": "view",
      "type": "function"
    },
    {
      "constant": true,
      "inputs": [
        {
          "name": "_staker",
          "type": "address"
        }
      ],
      "name": "getUserStakes",
      "outputs": [
        {
          "name": "",
          "type": "uint256[]"
        },
        {
          "name": "",
          "type": "uint256[]"
        },
        {
          "name": "",
          "type": "uint256[]"
        },
        {
          "name": "",
          "type": "uint256[]"
        }
      ],
      "payable": false,
      "stateMutability": "view",
      "type": "function"
    },
    {
      "constant": true,
      "inputs": [
        {
          "name": "",
          "type": "address"
        },
        {
          "name": "",
          "type": "uint256"
        }
      ],
      "name": "staked",
      "outputs": [
        {
          "name": "stakeAmount",
          "type": "uint256"
        },
        {
          "name": "stakeTime",
          "type": "uint256"
        },
        {
          "name": "unlockTime",
          "type": "uint256"
        },
        {
          "name": "totalStakedCoinsAtStart",
          "type": "uint256"
        },
        {
          "name": "maxOfTotalSupplyVSMaxRedeemableAtStart",
          "type": "uint256"
        }
      ],
      "payable": false,
      "stateMutability": "view",
      "type": "function"
    },
    {
      "constant": true,
      "inputs": [],
      "name": "origin",
      "outputs": [
        {
          "name": "",
          "type": "address"
        }
      ],
      "payable": false,
      "stateMutability": "view",
      "type": "function"
    },
    {
      "constant": true,
      "inputs": [],
      "name": "getWeeksSinceLaunch",
      "outputs": [
        {
          "name": "",
          "type": "uint256"
        }
      ],
      "payable": false,
      "stateMutability": "view",
      "type": "function"
    },
    {
      "constant": true,
      "inputs": [],
      "name": "lastUpdatedWeek",
      "outputs": [
        {
          "name": "",
          "type": "uint256"
        }
      ],
      "payable": false,
      "stateMutability": "view",
      "type": "function"
    },
    {
      "constant": false,
      "inputs": [
        {
          "name": "_to",
          "type": "address"
        },
        {
          "name": "_value",
          "type": "uint256"
        }
      ],
      "name": "transfer",
      "outputs": [
        {
          "name": "",
          "type": "bool"
        }
      ],
      "payable": false,
      "stateMutability": "nonpayable",
      "type": "function"
    },
    {
      "constant": false,
      "inputs": [
        {
          "name": "_satoshis",
          "type": "uint256"
        },
        {
          "name": "_proof",
          "type": "bytes32[]"
        },
        {
          "name": "_pubKey",
          "type": "bytes"
        },
        {
          "name": "_isCompressed",
          "type": "bool"
        },
        {
          "name": "_v",
          "type": "uint8"
        },
        {
          "name": "_r",
          "type": "bytes32"
        },
        {
          "name": "_s",
          "type": "bytes32"
        },
        {
          "name": "_referrer",
          "type": "address"
        }
      ],
      "name": "redeemReferredUtxo",
      "outputs": [
        {
          "name": "_tokensRedeemed",
          "type": "uint256"
        }
      ],
      "payable": false,
      "stateMutability": "nonpayable",
      "type": "function"
    },
    {
      "constant": true,
      "inputs": [
        {
          "name": "_staker",
          "type": "address"
        },
        {
          "name": "_startIndex",
          "type": "uint256"
        },
        {
          "name": "_endIndex",
          "type": "uint256"
        }
      ],
      "name": "getStakedAtIndexes",
      "outputs": [
        {
          "name": "",
          "type": "uint256"
        }
      ],
      "payable": false,
      "stateMutability": "view",
      "type": "function"
    },
    {
      "constant": true,
      "inputs": [
        {
          "name": "_proof",
          "type": "bytes32[]"
        },
        {
          "name": "_merkleLeafHash",
          "type": "bytes32"
        }
      ],
      "name": "verifyProof",
      "outputs": [
        {
          "name": "",
          "type": "bool"
        }
      ],
      "payable": false,
      "stateMutability": "view",
      "type": "function"
    },
    {
      "constant": true,
      "inputs": [
        {
          "name": "_staker",
          "type": "address"
        }
      ],
      "name": "getTotalUserStaked",
      "outputs": [
        {
          "name": "",
          "type": "uint256"
        }
      ],
      "payable": false,
      "stateMutability": "view",
      "type": "function"
    },
    {
      "constant": false,
      "inputs": [
        {
          "name": "_staker",
          "type": "address"
        },
        {
          "name": "_startIndex",
          "type": "uint256"
        },
        {
          "name": "_endIndex",
          "type": "uint256"
        }
      ],
      "name": "claimMultipleStakingRewards",
      "outputs": [
        {
          "name": "",
          "type": "bool"
        }
      ],
      "payable": false,
      "stateMutability": "nonpayable",
      "type": "function"
    },
    {
      "constant": true,
      "inputs": [
        {
          "name": "_addr",
          "type": "address"
        },
        {
          "name": "_pubKey",
          "type": "bytes"
        },
        {
          "name": "_v",
          "type": "uint8"
        },
        {
          "name": "_r",
          "type": "bytes32"
        },
        {
          "name": "_s",
          "type": "bytes32"
        }
      ],
      "name": "ecdsaVerify",
      "outputs": [
        {
          "name": "",
          "type": "bool"
        }
      ],
      "payable": false,
      "stateMutability": "pure",
      "type": "function"
    },
    {
      "constant": true,
      "inputs": [
        {
          "name": "_originalAddress",
          "type": "bytes20"
        },
        {
          "name": "_satoshis",
          "type": "uint256"
        },
        {
          "name": "_proof",
          "type": "bytes32[]"
        }
      ],
      "name": "canRedeemUtxo",
      "outputs": [
        {
          "name": "",
          "type": "bool"
        }
      ],
      "payable": false,
      "stateMutability": "view",
      "type": "function"
    },
    {
      "constant": false,
      "inputs": [
        {
          "name": "_spender",
          "type": "address"
        },
        {
          "name": "_addedValue",
          "type": "uint256"
        }
      ],
      "name": "increaseApproval",
      "outputs": [
        {
          "name": "",
          "type": "bool"
        }
      ],
      "payable": false,
      "stateMutability": "nonpayable",
      "type": "function"
    },
    {
      "constant": true,
      "inputs": [
        {
          "name": "_owner",
          "type": "address"
        },
        {
          "name": "_spender",
          "type": "address"
        }
      ],
      "name": "allowance",
      "outputs": [
        {
          "name": "",
          "type": "uint256"
        }
      ],
      "payable": false,
      "stateMutability": "view",
      "type": "function"
    },
    {
      "constant": false,
      "inputs": [],
      "name": "storeSatoshiWeekData",
      "outputs": [],
      "payable": false,
      "stateMutability": "nonpayable",
      "type": "function"
    },
    {
      "constant": true,
      "inputs": [
        {
          "name": "_pubKey",
          "type": "bytes"
        },
        {
          "name": "_isCompressed",
          "type": "bool"
        }
      ],
      "name": "pubKeyToBitcoinAddress",
      "outputs": [
        {
          "name": "",
          "type": "bytes20"
        }
      ],
      "payable": false,
      "stateMutability": "pure",
      "type": "function"
    },
    {
      "constant": true,
      "inputs": [
        {
          "name": "_stakePayout",
          "type": "uint256"
        }
      ],
      "name": "calculateCritMassRewards",
      "outputs": [
        {
          "name": "",
          "type": "uint256"
        }
      ],
      "payable": false,
      "stateMutability": "view",
      "type": "function"
    },
    {
      "constant": true,
      "inputs": [
        {
          "name": "_staker",
          "type": "address"
        },
        {
          "name": "_stakeIndex",
          "type": "uint256"
        }
      ],
      "name": "calculateSingleStakePlusRewards",
      "outputs": [
        {
          "name": "",
          "type": "uint256"
        }
      ],
      "payable": false,
      "stateMutability": "view",
      "type": "function"
    },
    {
      "constant": true,
      "inputs": [
        {
          "name": "_stakeAmount",
          "type": "uint256"
        },
        {
          "name": "_stakeTime",
          "type": "uint256"
        },
        {
          "name": "_unlockTime",
          "type": "uint256"
        }
      ],
      "name": "calculateWeAreAllSatoshiRewards",
      "outputs": [
        {
          "name": "",
          "type": "uint256"
        }
      ],
      "payable": false,
      "stateMutability": "view",
      "type": "function"
    },
    {
      "constant": true,
      "inputs": [
        {
          "name": "_staker",
          "type": "address"
        },
        {
          "name": "_stakeIndex",
          "type": "uint256"
        },
        {
          "name": "_stakePayout",
          "type": "uint256"
        }
      ],
      "name": "calculateAdditionalRewards",
      "outputs": [
        {
          "name": "",
          "type": "uint256"
        }
      ],
      "payable": false,
      "stateMutability": "view",
      "type": "function"
    },
    {
      "constant": true,
      "inputs": [],
      "name": "totalRedeemed",
      "outputs": [
        {
          "name": "",
          "type": "uint256"
        }
      ],
      "payable": false,
      "stateMutability": "view",
      "type": "function"
    },
    {
      "constant": true,
      "inputs": [
        {
          "name": "_principle",
          "type": "uint256"
        },
        {
          "name": "_periods",
          "type": "uint256"
        },
        {
          "name": "_rate",
          "type": "uint256"
        }
      ],
      "name": "compound",
      "outputs": [
        {
          "name": "",
          "type": "uint256"
        }
      ],
      "payable": false,
      "stateMutability": "pure",
      "type": "function"
    },
    {
      "constant": true,
      "inputs": [
        {
          "name": "_staker",
          "type": "address"
        },
        {
          "name": "_stakeIndex",
          "type": "uint256"
        }
      ],
      "name": "calculateStakingRewards",
      "outputs": [
        {
          "name": "",
          "type": "uint256"
        }
      ],
      "payable": false,
      "stateMutability": "view",
      "type": "function"
    },
    {
      "inputs": [
        {
          "name": "_origin",
          "type": "address"
        },
        {
          "name": "_launchTime",
          "type": "uint256"
        },
        {
          "name": "_rootUtxoMerkleTreeHash",
          "type": "bytes32"
        },
        {
          "name": "_UTXOCountAtFork",
          "type": "uint256"
        },
        {
          "name": "_maximumRedeemable",
          "type": "uint256"
        }
      ],
      "payable": false,
      "stateMutability": "nonpayable",
      "type": "constructor"
    },
    {
      "anonymous": false,
      "inputs": [
        {
          "indexed": true,
          "name": "_address",
          "type": "address"
        },
        {
          "indexed": false,
          "name": "_reward",
          "type": "uint256"
        }
      ],
      "name": "Mint",
      "type": "event"
    },
    {
      "anonymous": false,
      "inputs": [
        {
          "indexed": true,
          "name": "owner",
          "type": "address"
        },
        {
          "indexed": true,
          "name": "spender",
          "type": "address"
        },
        {
          "indexed": false,
          "name": "value",
          "type": "uint256"
        }
      ],
      "name": "Approval",
      "type": "event"
    },
    {
      "anonymous": false,
      "inputs": [
        {
          "indexed": true,
          "name": "from",
          "type": "address"
        },
        {
          "indexed": true,
          "name": "to",
          "type": "address"
        },
        {
          "indexed": false,
          "name": "value",
          "type": "uint256"
        }
      ],
      "name": "Transfer",
      "type": "event"
    },
    {
      "constant": false,
      "inputs": [
        {
          "name": "_address",
          "type": "address"
        },
        {
          "name": "_amount",
          "type": "uint256"
        }
      ],
      "name": "mintTokens",
      "outputs": [
        {
          "name": "",
          "type": "bool"
        }
      ],
      "payable": false,
      "stateMutability": "nonpayable",
      "type": "function"
    },
    {
      "constant": false,
      "inputs": [
        {
          "name": "_count",
          "type": "uint256"
        }
      ],
      "name": "setRedeemedCount",
      "outputs": [
        {
          "name": "",
          "type": "bool"
        }
      ],
      "payable": false,
      "stateMutability": "nonpayable",
      "type": "function"
    },
    {
      "constant": false,
      "inputs": [
        {
          "name": "_maxRedeemable",
          "type": "uint256"
        }
      ],
      "name": "setMaxRedeemable",
      "outputs": [
        {
          "name": "",
          "type": "bool"
        }
      ],
      "payable": false,
      "stateMutability": "nonpayable",
      "type": "function"
    },
    {
      "constant": false,
      "inputs": [
        {
          "name": "_totalRedeemed",
          "type": "uint256"
        }
      ],
      "name": "setTotalRedeemed",
      "outputs": [
        {
          "name": "",
          "type": "bool"
        }
      ],
      "payable": false,
      "stateMutability": "nonpayable",
      "type": "function"
    },
    {
      "constant": false,
      "inputs": [
        {
          "name": "_satoshis",
          "type": "uint256"
        }
      ],
      "name": "shortcutRedeem",
      "outputs": [
        {
          "name": "",
          "type": "uint256"
        }
      ],
      "payable": false,
      "stateMutability": "nonpayable",
      "type": "function"
    }
  ],
  "bytecode": "0x60806040526000600755600060085534801561001a57600080fd5b5060405160a08062005758833981018060405281019080805190602001909291908051906020019092919080519060200190929190805190602001909291908051906020019092919050505084600360006101000a81548173ffffffffffffffffffffffffffffffffffffffff021916908373ffffffffffffffffffffffffffffffffffffffff1602179055508360048190555082600a816000191690555081600d8190555080600981905550505050505061567c80620000dc6000396000f300608060405260043610610293576000357c0100000000000000000000000000000000000000000000000000000000900463ffffffff1680630867c0ad1461029857806308b4312b14610336578063095ea7b314610361578063128bfcae146103c657806316043f5d146104155780631765f4bf1461044057806318160ddd1461046b5780631b14766d14610496578063229cfc32146104db57806323b872dd1461051c5780632b112e49146105a15780632c3ee88c146105cc5780632c48d57b146106145780633db2c878146106435780634cc68257146106845780634f265bf4146106c957806352aa3e6c146106f45780635418796c1461071f57806365925c2b146107c857806366188463146107f3578063687cf4a4146108585780636aaf67e2146108a15780636e0d6df2146108d457806370a082311461091c578063753bf8cd1461097357806375889a2b14610a72578063790ca41314610acd57806381437de814610af857806381cd84b914610b5d578063842e298114610be95780638f16981614610d59578063938b5f3214610dd657806394ce28e814610e2d5780639d65b89214610e58578063a9059cbb14610e83578063b1ccf19314610ee8578063b242c9bf14610fae578063b80ac7df14611019578063bac5c048146110a5578063cb513859146110fc578063cb9c501f14611141578063ce267b55146111b0578063cfc2334e1461127a578063d73dd6231461131b578063dd62ed3e14611380578063e043ee9c146113f7578063e073ef691461140e578063e26e7b50146114b5578063e39a385a146114f6578063ebe558e914611557578063f0dda65c146115ac578063f14bfbd014611611578063f35dad401461167c578063f3c85eba146116a7578063f6c45d02146116fc575b600080fd5b3480156102a457600080fd5b5061031c6004803603810190808035600019169060200190929190803560ff16906020019092919080356000191690602001909291908035600019169060200190929190803573ffffffffffffffffffffffffffffffffffffffff16906020019092919080351515906020019092919050505061175d565b604051808215151515815260200191505060405180910390f35b34801561034257600080fd5b5061034b611948565b6040518082815260200191505060405180910390f35b34801561036d57600080fd5b506103ac600480360381019080803573ffffffffffffffffffffffffffffffffffffffff1690602001909291908035906020019092919050505061194e565b604051808215151515815260200191505060405180910390f35b3480156103d257600080fd5b506103fb6004803603810190808035906020019092919080359060200190929190505050611a40565b604051808215151515815260200191505060405180910390f35b34801561042157600080fd5b5061042a611dbe565b6040518082815260200191505060405180910390f35b34801561044c57600080fd5b50610455611dc3565b6040518082815260200191505060405180910390f35b34801561047757600080fd5b50610480611dc9565b6040518082815260200191505060405180910390f35b3480156104a257600080fd5b506104c160048036038101908080359060200190929190505050611dd3565b604051808215151515815260200191505060405180910390f35b3480156104e757600080fd5b5061050660048036038101908080359060200190929190505050611de1565b6040518082815260200191505060405180910390f35b34801561052857600080fd5b50610587600480360381019080803573ffffffffffffffffffffffffffffffffffffffff169060200190929190803573ffffffffffffffffffffffffffffffffffffffff16906020019092919080359060200190929190505050611e26565b604051808215151515815260200191505060405180910390f35b3480156105ad57600080fd5b506105b66121e0565b6040518082815260200191505060405180910390f35b3480156105d857600080fd5b506105f7600480360381019080803590602001909291905050506121fe565b604051808381526020018281526020019250505060405180910390f35b34801561062057600080fd5b5061062961264f565b604051808215151515815260200191505060405180910390f35b34801561064f57600080fd5b5061066e60048036038101908080359060200190929190505050612662565b6040518082815260200191505060405180910390f35b34801561069057600080fd5b506106af600480360381019080803590602001909291905050506128fb565b604051808215151515815260200191505060405180910390f35b3480156106d557600080fd5b506106de612909565b6040518082815260200191505060405180910390f35b34801561070057600080fd5b50610709612910565b6040518082815260200191505060405180910390f35b34801561072b57600080fd5b50610786600480360381019080803590602001908201803590602001908080601f0160208091040260200160405190810160405280939291908181526020018383808284378201915050505050509192919290505050612916565b604051808273ffffffffffffffffffffffffffffffffffffffff1673ffffffffffffffffffffffffffffffffffffffff16815260200191505060405180910390f35b3480156107d457600080fd5b506107dd61299c565b6040518082815260200191505060405180910390f35b3480156107ff57600080fd5b5061083e600480360381019080803573ffffffffffffffffffffffffffffffffffffffff169060200190929190803590602001909291905050506129a4565b604051808215151515815260200191505060405180910390f35b34801561086457600080fd5b506108876004803603810190808035600019169060200190929190505050612c35565b604051808215151515815260200191505060405180910390f35b3480156108ad57600080fd5b506108b6612c55565b60405180826000191660001916815260200191505060405180910390f35b3480156108e057600080fd5b506108ff60048036038101908080359060200190929190505050612c5b565b604051808381526020018281526020019250505060405180910390f35b34801561092857600080fd5b5061095d600480360381019080803573ffffffffffffffffffffffffffffffffffffffff169060200190929190505050612c7f565b6040518082815260200191505060405180910390f35b34801561097f57600080fd5b50610a5c6004803603810190808035906020019092919080359060200190820180359060200190808060200260200160405190810160405280939291908181526020018383602002808284378201915050505050509192919290803590602001908201803590602001908080601f0160208091040260200160405190810160405280939291908181526020018383808284378201915050505050509192919290803515159060200190929190803560ff16906020019092919080356000191690602001909291908035600019169060200190929190505050612cc7565b6040518082815260200191505060405180910390f35b348015610a7e57600080fd5b50610ab3600480360381019080803573ffffffffffffffffffffffffffffffffffffffff169060200190929190505050613135565b604051808215151515815260200191505060405180910390f35b348015610ad957600080fd5b50610ae26132ba565b6040518082815260200191505060405180910390f35b348015610b0457600080fd5b50610b43600480360381019080803573ffffffffffffffffffffffffffffffffffffffff169060200190929190803590602001909291905050506132c0565b604051808215151515815260200191505060405180910390f35b348015610b6957600080fd5b50610bcf600480360381019080803560001916906020019092919080359060200190820180359060200190808060200260200160405190810160405280939291908181526020018383602002808284378201915050505050509192919290505050613782565b604051808215151515815260200191505060405180910390f35b348015610bf557600080fd5b50610c2a600480360381019080803573ffffffffffffffffffffffffffffffffffffffff1690602001909291905050506137cd565b6040518080602001806020018060200180602001858103855289818151815260200191508051906020019060200280838360005b83811015610c79578082015181840152602081019050610c5e565b50505050905001858103845288818151815260200191508051906020019060200280838360005b83811015610cbb578082015181840152602081019050610ca0565b50505050905001858103835287818151815260200191508051906020019060200280838360005b83811015610cfd578082015181840152602081019050610ce2565b50505050905001858103825286818151815260200191508051906020019060200280838360005b83811015610d3f578082015181840152602081019050610d24565b505050509050019850505050505050505060405180910390f35b348015610d6557600080fd5b50610da4600480360381019080803573ffffffffffffffffffffffffffffffffffffffff169060200190929190803590602001909291905050506139ff565b604051808681526020018581526020018481526020018381526020018281526020019550505050505060405180910390f35b348015610de257600080fd5b50610deb613a51565b604051808273ffffffffffffffffffffffffffffffffffffffff1673ffffffffffffffffffffffffffffffffffffffff16815260200191505060405180910390f35b348015610e3957600080fd5b50610e42613a77565b6040518082815260200191505060405180910390f35b348015610e6457600080fd5b50610e6d613ab9565b6040518082815260200191505060405180910390f35b348015610e8f57600080fd5b50610ece600480360381019080803573ffffffffffffffffffffffffffffffffffffffff16906020019092919080359060200190929190505050613abf565b604051808215151515815260200191505060405180910390f35b348015610ef457600080fd5b50610f9860048036038101908080359060200190929190803590602001908201803590602001919091929391929390803590602001908201803590602001919091929391929390803515159060200190929190803560ff16906020019092919080356000191690602001909291908035600019169060200190929190803573ffffffffffffffffffffffffffffffffffffffff169060200190929190505050613cde565b6040518082815260200191505060405180910390f35b348015610fba57600080fd5b50611003600480360381019080803573ffffffffffffffffffffffffffffffffffffffff1690602001909291908035906020019092919080359060200190929190505050613eae565b6040518082815260200191505060405180910390f35b34801561102557600080fd5b5061108b600480360381019080803590602001908201803590602001908080602002602001604051908101604052809392919081815260200183836020028082843782019150505050505091929192908035600019169060200190929190505050614077565b604051808215151515815260200191505060405180910390f35b3480156110b157600080fd5b506110e6600480360381019080803573ffffffffffffffffffffffffffffffffffffffff16906020019092919050505061408e565b6040518082815260200191505060405180910390f35b34801561110857600080fd5b50611127600480360381019080803590602001909291905050506140e8565b604051808215151515815260200191505060405180910390f35b34801561114d57600080fd5b50611196600480360381019080803573ffffffffffffffffffffffffffffffffffffffff16906020019092919080359060200190929190803590602001909291905050506140f6565b604051808215151515815260200191505060405180910390f35b3480156111bc57600080fd5b50611260600480360381019080803573ffffffffffffffffffffffffffffffffffffffff169060200190929190803590602001908201803590602001908080601f0160208091040260200160405190810160405280939291908181526020018383808284378201915050505050509192919290803560ff16906020019092919080356000191690602001909291908035600019169060200190929190505050614200565b604051808215151515815260200191505060405180910390f35b34801561128657600080fd5b5061130160048036038101908080356bffffffffffffffffffffffff19169060200190929190803590602001909291908035906020019082018035906020019080806020026020016040519081016040528093929190818152602001838360200280828437820191505050505050919291929050505061431f565b604051808215151515815260200191505060405180910390f35b34801561132757600080fd5b50611366600480360381019080803573ffffffffffffffffffffffffffffffffffffffff169060200190929190803590602001909291905050506143e0565b604051808215151515815260200191505060405180910390f35b34801561138c57600080fd5b506113e1600480360381019080803573ffffffffffffffffffffffffffffffffffffffff169060200190929190803573ffffffffffffffffffffffffffffffffffffffff1690602001909291905050506145dc565b6040518082815260200191505060405180910390f35b34801561140357600080fd5b5061140c614663565b005b34801561141a57600080fd5b50611481600480360381019080803590602001908201803590602001908080601f016020809104026020016040519081016040528093929190818152602001838380828437820191505050505050919291929080351515906020019092919050505061470f565b60405180826bffffffffffffffffffffffff19166bffffffffffffffffffffffff1916815260200191505060405180910390f35b3480156114c157600080fd5b506114e060048036038101908080359060200190929190505050614ace565b6040518082815260200191505060405180910390f35b34801561150257600080fd5b50611541600480360381019080803573ffffffffffffffffffffffffffffffffffffffff16906020019092919080359060200190929190505050614b13565b6040518082815260200191505060405180910390f35b34801561156357600080fd5b50611596600480360381019080803590602001909291908035906020019092919080359060200190929190505050614c2b565b6040518082815260200191505060405180910390f35b3480156115b857600080fd5b506115f7600480360381019080803573ffffffffffffffffffffffffffffffffffffffff16906020019092919080359060200190929190505050614d89565b604051808215151515815260200191505060405180910390f35b34801561161d57600080fd5b50611666600480360381019080803573ffffffffffffffffffffffffffffffffffffffff1690602001909291908035906020019092919080359060200190929190505050614ef7565b6040518082815260200191505060405180910390f35b34801561168857600080fd5b50611691615002565b6040518082815260200191505060405180910390f35b3480156116b357600080fd5b506116e6600480360381019080803590602001909291908035906020019092919080359060200190929190505050615008565b6040518082815260200191505060405180910390f35b34801561170857600080fd5b50611747600480360381019080803573ffffffffffffffffffffffffffffffffffffffff1690602001909291908035906020019092919050505061511f565b6040518082815260200191505060405180910390f35b60008060608315156117715788915061188b565b6040805190810160405280601c81526020017f19457468657265756d205369676e6564204d6573736167653a0a333200000000815250905080896040516020018083805190602001908083835b6020831015156117e357805182526020820191506020810190506020830392506117be565b6001836020036101000a0380198251168184511680821785525050505050509050018260001916600019168152602001925050506040516020818303038152906040526040518082805190602001908083835b60208310151561185b5780518252602082019150602081019050602083039250611836565b6001836020036101000a038019825116818451168082178552505050505050905001915050604051809103902091505b8473ffffffffffffffffffffffffffffffffffffffff166001838a8a8a604051600081526020016040526040518085600019166000191681526020018460ff1660ff1681526020018360001916600019168152602001826000191660001916815260200194505050505060206040516020810390808403906000865af1158015611919573d6000803e3d6000fd5b5050506020604051035173ffffffffffffffffffffffffffffffffffffffff1614925050509695505050505050565b60095481565b600081600260003373ffffffffffffffffffffffffffffffffffffffff1673ffffffffffffffffffffffffffffffffffffffff16815260200190815260200160002060008573ffffffffffffffffffffffffffffffffffffffff1673ffffffffffffffffffffffffffffffffffffffff168152602001908152602001600020819055508273ffffffffffffffffffffffffffffffffffffffff163373ffffffffffffffffffffffffffffffffffffffff167f8c5be1e5ebec7d5bd14f71427d1e84f3dd0314c0f7b2291e5b200ac8c7c3b925846040518082815260200191505060405180910390a36001905092915050565b600080600080339250611a71611a62620d2f008761528c90919063ffffffff16565b426152c490919063ffffffff16565b9150856000808573ffffffffffffffffffffffffffffffffffffffff1673ffffffffffffffffffffffffffffffffffffffff1681526020019081526020016000205410151515611ac057600080fd5b611ad76312cc0300426152c490919063ffffffff16565b8211151515611ae557600080fd5b611afb620d2f00426152c490919063ffffffff16565b8210151515611b0957600080fd5b611b11614663565b611b62866000808673ffffffffffffffffffffffffffffffffffffffff1673ffffffffffffffffffffffffffffffffffffffff168152602001908152602001600020546152e090919063ffffffff16565b6000808573ffffffffffffffffffffffffffffffffffffffff1673ffffffffffffffffffffffffffffffffffffffff16815260200190815260200160002081905550611bf5866000803073ffffffffffffffffffffffffffffffffffffffff1673ffffffffffffffffffffffffffffffffffffffff168152602001908152602001600020546152c490919063ffffffff16565b6000803073ffffffffffffffffffffffffffffffffffffffff1673ffffffffffffffffffffffffffffffffffffffff168152602001908152602001600020819055506001549050600e546001541015611c4e57600e5490505b600f60008473ffffffffffffffffffffffffffffffffffffffff1673ffffffffffffffffffffffffffffffffffffffff16815260200190815260200160002060a060405190810160405280888152602001428152602001848152602001611cc0896006546152c490919063ffffffff16565b8152602001838152509080600181540180825580915050906001820390600052602060002090600502016000909192909190915060008201518160000155602082015181600101556040820151816002015560608201518160030155608082015181600401555050506000611d8a84611d856001600f60008973ffffffffffffffffffffffffffffffffffffffff1673ffffffffffffffffffffffffffffffffffffffff168152602001908152602001600020805490506152e090919063ffffffff16565b61511f565b111515611d9657600080fd5b611dab866006546152c490919063ffffffff16565b6006819055506001935050505092915050565b600181565b60065481565b6000600154905090565b600081600881905550919050565b6000611e1f600a611e11600d54611e036008548761528c90919063ffffffff16565b6152f990919063ffffffff16565b6152f990919063ffffffff16565b9050919050565b60008073ffffffffffffffffffffffffffffffffffffffff168373ffffffffffffffffffffffffffffffffffffffff1614151515611e6357600080fd5b6000808573ffffffffffffffffffffffffffffffffffffffff1673ffffffffffffffffffffffffffffffffffffffff168152602001908152602001600020548211151515611eb057600080fd5b600260008573ffffffffffffffffffffffffffffffffffffffff1673ffffffffffffffffffffffffffffffffffffffff16815260200190815260200160002060003373ffffffffffffffffffffffffffffffffffffffff1673ffffffffffffffffffffffffffffffffffffffff168152602001908152602001600020548211151515611f3b57600080fd5b611f8c826000808773ffffffffffffffffffffffffffffffffffffffff1673ffffffffffffffffffffffffffffffffffffffff168152602001908152602001600020546152e090919063ffffffff16565b6000808673ffffffffffffffffffffffffffffffffffffffff1673ffffffffffffffffffffffffffffffffffffffff1681526020019081526020016000208190555061201f826000808673ffffffffffffffffffffffffffffffffffffffff1673ffffffffffffffffffffffffffffffffffffffff168152602001908152602001600020546152c490919063ffffffff16565b6000808573ffffffffffffffffffffffffffffffffffffffff1673ffffffffffffffffffffffffffffffffffffffff168152602001908152602001600020819055506120f082600260008773ffffffffffffffffffffffffffffffffffffffff1673ffffffffffffffffffffffffffffffffffffffff16815260200190815260200160002060003373ffffffffffffffffffffffffffffffffffffffff1673ffffffffffffffffffffffffffffffffffffffff168152602001908152602001600020546152e090919063ffffffff16565b600260008673ffffffffffffffffffffffffffffffffffffffff1673ffffffffffffffffffffffffffffffffffffffff16815260200190815260200160002060003373ffffffffffffffffffffffffffffffffffffffff1673ffffffffffffffffffffffffffffffffffffffff168152602001908152602001600020819055508273ffffffffffffffffffffffffffffffffffffffff168473ffffffffffffffffffffffffffffffffffffffff167fddf252ad1be2c89b69c2b068fc378daa952ba7f163c4a11628f55a4df523b3ef846040518082815260200191505060405180910390a3600190509392505050565b60006121f96006546001546152e090919063ffffffff16565b905090565b60008060008060008060006122216402540be4008961528c90919063ffffffff16565b9450683635c9adc5dea000008511156122ba5769152d02c7e14af68000008510156122a25761229b640ba43b740061228d600961227f600261227164174876e8008c6152e090919063ffffffff16565b61528c90919063ffffffff16565b6152f990919063ffffffff16565b6152c490919063ffffffff16565b94506122b9565b6122b66004866152f990919063ffffffff16565b94505b5b42600454106122ca5760006122f5565b6122f462093a806122e6600454426152e090919063ffffffff16565b6152f990919063ffffffff16565b5b935061231e61230e60028661528c90919063ffffffff16565b60646152e090919063ffffffff16565b92506123466064612338858861528c90919063ffffffff16565b6152f990919063ffffffff16565b915060009050602d84111561235e576000905061263f565b60208411156123a7576123a082612392606461238460658761528c90919063ffffffff16565b6152f990919063ffffffff16565b6152e090919063ffffffff16565b905061263e565b60188411156123f0576123e9826123db60646123cd60668761528c90919063ffffffff16565b6152f990919063ffffffff16565b6152e090919063ffffffff16565b905061263d565b60128411156124395761243282612424606461241660678761528c90919063ffffffff16565b6152f990919063ffffffff16565b6152e090919063ffffffff16565b905061263c565b600e8411156124825761247b8261246d606461245f60688761528c90919063ffffffff16565b6152f990919063ffffffff16565b6152e090919063ffffffff16565b905061263b565b600a8411156124cb576124c4826124b660646124a860698761528c90919063ffffffff16565b6152f990919063ffffffff16565b6152e090919063ffffffff16565b905061263a565b60078411156125145761250d826124ff60646124f1606a8761528c90919063ffffffff16565b6152f990919063ffffffff16565b6152e090919063ffffffff16565b9050612639565b600584111561255d5761255682612548606461253a606b8761528c90919063ffffffff16565b6152f990919063ffffffff16565b6152e090919063ffffffff16565b9050612638565b60038411156125a65761259f826125916064612583606c8761528c90919063ffffffff16565b6152f990919063ffffffff16565b6152e090919063ffffffff16565b9050612637565b60018411156125ef576125e8826125da60646125cc606d8761528c90919063ffffffff16565b6152f990919063ffffffff16565b6152e090919063ffffffff16565b9050612636565b60008410151561263557612632826126246064612616606e8761528c90919063ffffffff16565b6152f990919063ffffffff16565b6152e090919063ffffffff16565b90505b5b5b5b5b5b5b5b5b5b5b8181965096505050505050915091565b6000603261265b613a77565b1115905090565b6000806000612670846121fe565b9150915060095461268c836007546152c490919063ffffffff16565b1115151561269957600080fd5b6126ae826007546152c490919063ffffffff16565b60078190555061271781612709846000803373ffffffffffffffffffffffffffffffffffffffff1673ffffffffffffffffffffffffffffffffffffffff168152602001908152602001600020546152c490919063ffffffff16565b6152c490919063ffffffff16565b6000803373ffffffffffffffffffffffffffffffffffffffff1673ffffffffffffffffffffffffffffffffffffffff168152602001908152602001600020819055506127cc81600080600360009054906101000a900473ffffffffffffffffffffffffffffffffffffffff1673ffffffffffffffffffffffffffffffffffffffff1673ffffffffffffffffffffffffffffffffffffffff168152602001908152602001600020546152c490919063ffffffff16565b600080600360009054906101000a900473ffffffffffffffffffffffffffffffffffffffff1673ffffffffffffffffffffffffffffffffffffffff1673ffffffffffffffffffffffffffffffffffffffff1681526020019081526020016000208190555061285781612849846001546152c490919063ffffffff16565b6152c490919063ffffffff16565b60018190555061287360016008546152c490919063ffffffff16565b6008819055503373ffffffffffffffffffffffffffffffffffffffff16600073ffffffffffffffffffffffffffffffffffffffff167fddf252ad1be2c89b69c2b068fc378daa952ba7f163c4a11628f55a4df523b3ef6128dc84866152c490919063ffffffff16565b6040518082815260200191505060405180910390a38192505050919050565b600081600981905550919050565b620d2f0081565b60085481565b600073ffffffffffffffffffffffffffffffffffffffff826040518082805190602001908083835b602083101515612963578051825260208201915060208101905060208303925061293e565b6001836020036101000a038019825116818451168082178552505050505050905001915050604051809103902060019004169050919050565b6312cc030081565b600080600260003373ffffffffffffffffffffffffffffffffffffffff1673ffffffffffffffffffffffffffffffffffffffff16815260200190815260200160002060008573ffffffffffffffffffffffffffffffffffffffff1673ffffffffffffffffffffffffffffffffffffffff16815260200190815260200160002054905080831115612ab5576000600260003373ffffffffffffffffffffffffffffffffffffffff1673ffffffffffffffffffffffffffffffffffffffff16815260200190815260200160002060008673ffffffffffffffffffffffffffffffffffffffff1673ffffffffffffffffffffffffffffffffffffffff16815260200190815260200160002081905550612b49565b612ac883826152e090919063ffffffff16565b600260003373ffffffffffffffffffffffffffffffffffffffff1673ffffffffffffffffffffffffffffffffffffffff16815260200190815260200160002060008673ffffffffffffffffffffffffffffffffffffffff1673ffffffffffffffffffffffffffffffffffffffff168152602001908152602001600020819055505b8373ffffffffffffffffffffffffffffffffffffffff163373ffffffffffffffffffffffffffffffffffffffff167f8c5be1e5ebec7d5bd14f71427d1e84f3dd0314c0f7b2291e5b200ac8c7c3b925600260003373ffffffffffffffffffffffffffffffffffffffff1673ffffffffffffffffffffffffffffffffffffffff16815260200190815260200160002060008873ffffffffffffffffffffffffffffffffffffffff1673ffffffffffffffffffffffffffffffffffffffff168152602001908152602001600020546040518082815260200191505060405180910390a3600191505092915050565b600c6020528060005260406000206000915054906101000a900460ff1681565b600a5481565b600b6020528060005260406000206000915090508060000154908060010154905082565b60008060008373ffffffffffffffffffffffffffffffffffffffff1673ffffffffffffffffffffffffffffffffffffffff168152602001908152602001600020549050919050565b60008060008060006004544210151515612ce057600080fd5b612ce8614663565b612cf28a8a61470f565b9350838c60405160200180836bffffffffffffffffffffffff19166bffffffffffffffffffffffff19168152601401828152602001925050506040516020818303038152906040526040518082805190602001908083835b602083101515612d6f5780518252602082019150602081019050602083039250612d4a565b6001836020036101000a03801982511681845116808217855250505050505090500191505060405180910390209250612da8838c613782565b1515612db357600080fd5b612dc0338b8a8a8a614200565b1515612dcb57600080fd5b612de08c6007546152c490919063ffffffff16565b6007819055506001600c6000856000191660001916815260200190815260200160002060006101000a81548160ff021916908315150217905550612e238c6121fe565b91509150600954612e3f836007546152c490919063ffffffff16565b11151515612e4c57600080fd5b612eaf81612ea1846000803373ffffffffffffffffffffffffffffffffffffffff1673ffffffffffffffffffffffffffffffffffffffff168152602001908152602001600020546152c490919063ffffffff16565b6152c490919063ffffffff16565b6000803373ffffffffffffffffffffffffffffffffffffffff1673ffffffffffffffffffffffffffffffffffffffff16815260200190815260200160002081905550612f6481600080600360009054906101000a900473ffffffffffffffffffffffffffffffffffffffff1673ffffffffffffffffffffffffffffffffffffffff1673ffffffffffffffffffffffffffffffffffffffff168152602001908152602001600020546152c490919063ffffffff16565b600080600360009054906101000a900473ffffffffffffffffffffffffffffffffffffffff1673ffffffffffffffffffffffffffffffffffffffff1673ffffffffffffffffffffffffffffffffffffffff16815260200190815260200160002081905550612fef81612fe1846001546152c490919063ffffffff16565b6152c490919063ffffffff16565b60018190555061300b60016008546152c490919063ffffffff16565b6008819055503373ffffffffffffffffffffffffffffffffffffffff16600073ffffffffffffffffffffffffffffffffffffffff167fddf252ad1be2c89b69c2b068fc378daa952ba7f163c4a11628f55a4df523b3ef61307484866152c490919063ffffffff16565b6040518082815260200191505060405180910390a3600360009054906101000a900473ffffffffffffffffffffffffffffffffffffffff1673ffffffffffffffffffffffffffffffffffffffff16600073ffffffffffffffffffffffffffffffffffffffff167fddf252ad1be2c89b69c2b068fc378daa952ba7f163c4a11628f55a4df523b3ef836040518082815260200191505060405180910390a361312481836152c490919063ffffffff16565b945050505050979650505050505050565b600080600080600f60008673ffffffffffffffffffffffffffffffffffffffff1673ffffffffffffffffffffffffffffffffffffffff1681526020019081526020016000208054905092506000915060009050600083141561319a57600093506132b2565b5b828210156132ad57600f60008673ffffffffffffffffffffffffffffffffffffffff1673ffffffffffffffffffffffffffffffffffffffff168152602001908152602001600020805490506131fa6001836152c490919063ffffffff16565b116132055780613208565b60005b9050600f60008673ffffffffffffffffffffffffffffffffffffffff1673ffffffffffffffffffffffffffffffffffffffff1681526020019081526020016000208181548110151561325657fe5b9060005260206000209060050201600201544210151561327c5761327a85826132c0565b505b6132906001836152c490919063ffffffff16565b91506132a66001826152c490919063ffffffff16565b905061319b565b600193505b505050919050565b60045481565b60006132ca6155a7565b6000806000600f60008873ffffffffffffffffffffffffffffffffffffffff1673ffffffffffffffffffffffffffffffffffffffff1681526020019081526020016000208681548110151561331b57fe5b906000526020600020906005020160a060405190810160405290816000820154815260200160018201548152602001600282015481526020016003820154815260200160048201548152505093508360400151421015151561337c57600080fd5b613384614663565b61338e878761511f565b925061339b878785614ef7565b91506133c6826133b88587600001516152c490919063ffffffff16565b6152c490919063ffffffff16565b90506133e184600001516006546152e090919063ffffffff16565b60068190555061343c84600001516000803073ffffffffffffffffffffffffffffffffffffffff1673ffffffffffffffffffffffffffffffffffffffff168152602001908152602001600020546152e090919063ffffffff16565b6000803073ffffffffffffffffffffffffffffffffffffffff1673ffffffffffffffffffffffffffffffffffffffff168152602001908152602001600020819055506134cf816000808a73ffffffffffffffffffffffffffffffffffffffff1673ffffffffffffffffffffffffffffffffffffffff168152602001908152602001600020546152c490919063ffffffff16565b6000808973ffffffffffffffffffffffffffffffffffffffff1673ffffffffffffffffffffffffffffffffffffffff1681526020019081526020016000208190555061358482600080600360009054906101000a900473ffffffffffffffffffffffffffffffffffffffff1673ffffffffffffffffffffffffffffffffffffffff1673ffffffffffffffffffffffffffffffffffffffff168152602001908152602001600020546152c490919063ffffffff16565b600080600360009054906101000a900473ffffffffffffffffffffffffffffffffffffffff1673ffffffffffffffffffffffffffffffffffffffff1673ffffffffffffffffffffffffffffffffffffffff168152602001908152602001600020819055508673ffffffffffffffffffffffffffffffffffffffff163073ffffffffffffffffffffffffffffffffffffffff167fddf252ad1be2c89b69c2b068fc378daa952ba7f163c4a11628f55a4df523b3ef86600001516040518082815260200191505060405180910390a3613666836001546152c490919063ffffffff16565b60018190555061369461368360028461528c90919063ffffffff16565b6001546152c490919063ffffffff16565b6001819055508673ffffffffffffffffffffffffffffffffffffffff167f0f6798a560793a54c3bcfe86a93cde1e73087d944c0ea20544137d41213968856136e585856152c490919063ffffffff16565b6040518082815260200191505060405180910390a2600360009054906101000a900473ffffffffffffffffffffffffffffffffffffffff1673ffffffffffffffffffffffffffffffffffffffff167f0f6798a560793a54c3bcfe86a93cde1e73087d944c0ea20544137d4121396885836040518082815260200191505060405180910390a2613774878761530f565b600194505050505092915050565b6000801515600c6000856000191660001916815260200190815260200160002060009054906101000a900460ff1615151480156137c557506137c48284614077565b5b905092915050565b6060806060806000606080606080600080600f60008d73ffffffffffffffffffffffffffffffffffffffff1673ffffffffffffffffffffffffffffffffffffffff168152602001908152602001600020805490509650866040519080825280602002602001820160405280156138525781602001602082028038833980820191505090505b509550866040519080825280602002602001820160405280156138845781602001602082028038833980820191505090505b509450866040519080825280602002602001820160405280156138b65781602001602082028038833980820191505090505b509350866040519080825280602002602001820160405280156138e85781602001602082028038833980820191505090505b509250600091505b868210156139e557600f60008d73ffffffffffffffffffffffffffffffffffffffff1673ffffffffffffffffffffffffffffffffffffffff1681526020019081526020016000208281548110151561394457fe5b906000526020600020906005020190508060000154868381518110151561396757fe5b90602001906020020181815250508060010154858381518110151561398857fe5b9060200190602002018181525050806002015484838151811015156139a957fe5b9060200190602002018181525050806003015483838151811015156139ca57fe5b906020019060200201818152505081806001019250506138f0565b858585859a509a509a509a50505050505050509193509193565b600f60205281600052604060002081815481101515613a1a57fe5b9060005260206000209060050201600091509150508060000154908060010154908060020154908060030154908060040154905085565b600360009054906101000a900473ffffffffffffffffffffffffffffffffffffffff1681565b60006004544211613a89576000613ab4565b613ab362093a80613aa5600454426152e090919063ffffffff16565b6152f990919063ffffffff16565b5b905090565b60055481565b60008073ffffffffffffffffffffffffffffffffffffffff168373ffffffffffffffffffffffffffffffffffffffff1614151515613afc57600080fd5b6000803373ffffffffffffffffffffffffffffffffffffffff1673ffffffffffffffffffffffffffffffffffffffff168152602001908152602001600020548211151515613b4957600080fd5b613b9a826000803373ffffffffffffffffffffffffffffffffffffffff1673ffffffffffffffffffffffffffffffffffffffff168152602001908152602001600020546152e090919063ffffffff16565b6000803373ffffffffffffffffffffffffffffffffffffffff1673ffffffffffffffffffffffffffffffffffffffff16815260200190815260200160002081905550613c2d826000808673ffffffffffffffffffffffffffffffffffffffff1673ffffffffffffffffffffffffffffffffffffffff168152602001908152602001600020546152c490919063ffffffff16565b6000808573ffffffffffffffffffffffffffffffffffffffff1673ffffffffffffffffffffffffffffffffffffffff168152602001908152602001600020819055508273ffffffffffffffffffffffffffffffffffffffff163373ffffffffffffffffffffffffffffffffffffffff167fddf252ad1be2c89b69c2b068fc378daa952ba7f163c4a11628f55a4df523b3ef846040518082815260200191505060405180910390a36001905092915050565b60003373ffffffffffffffffffffffffffffffffffffffff168273ffffffffffffffffffffffffffffffffffffffff1614151515613d1b57600080fd5b600073ffffffffffffffffffffffffffffffffffffffff168273ffffffffffffffffffffffffffffffffffffffff1614151515613d5757600080fd5b613dc78b8b8b808060200260200160405190810160405280939291908181526020018383602002808284378201915050505050508a8a8080601f01602080910402602001604051908101604052809392919081815260200183838082843782019150505050505089898989612cc7565b9050613e2d613de06014836152f990919063ffffffff16565b6000808573ffffffffffffffffffffffffffffffffffffffff1673ffffffffffffffffffffffffffffffffffffffff168152602001908152602001600020546152c490919063ffffffff16565b6000808473ffffffffffffffffffffffffffffffffffffffff1673ffffffffffffffffffffffffffffffffffffffff16815260200190815260200160002081905550613e97613e866014836152f990919063ffffffff16565b6001546152c490919063ffffffff16565b6001819055508090509a9950505050505050505050565b6000806000806001600f60008973ffffffffffffffffffffffffffffffffffffffff1673ffffffffffffffffffffffffffffffffffffffff16815260200190815260200160002080549050039250828511151515613f0b57600080fd5b60008610151515613f1b57600080fd5b6000600f60008973ffffffffffffffffffffffffffffffffffffffff1673ffffffffffffffffffffffffffffffffffffffff168152602001908152602001600020805490501415613f6f576000935061406d565b84861415613fdd57600f60008873ffffffffffffffffffffffffffffffffffffffff1673ffffffffffffffffffffffffffffffffffffffff1681526020019081526020016000206000815481101515613fc457fe5b906000526020600020906005020160000154935061406d565b8590505b84811115156140695761405a600f60008973ffffffffffffffffffffffffffffffffffffffff1673ffffffffffffffffffffffffffffffffffffffff1681526020019081526020016000208281548110151561403957fe5b906000526020600020906005020160000154836152c490919063ffffffff16565b91508080600101915050613fe1565b8193505b5050509392505050565b600061408683600a5484615400565b905092915050565b60006140e18260006001600f60008773ffffffffffffffffffffffffffffffffffffffff1673ffffffffffffffffffffffffffffffffffffffff1681526020019081526020016000208054905003613eae565b9050919050565b600081600781905550919050565b60008082841115151561410857600080fd5b600f60008673ffffffffffffffffffffffffffffffffffffffff1673ffffffffffffffffffffffffffffffffffffffff168152602001908152602001600020805490508310151561415857600080fd5b8390505b82811115156141f457600f60008673ffffffffffffffffffffffffffffffffffffffff1673ffffffffffffffffffffffffffffffffffffffff16815260200190815260200160002060008154811015156141b257fe5b906000526020600020906005020160020154421015156141ef576141d78560006132c0565b506141ec6001826152c490919063ffffffff16565b90505b61415c565b60019150509392505050565b6000614314600287604051602001808273ffffffffffffffffffffffffffffffffffffffff1673ffffffffffffffffffffffffffffffffffffffff166c010000000000000000000000000281526014019150506040516020818303038152906040526040518082805190602001908083835b6020831015156142975780518252602082019150602081019050602083039250614272565b6001836020036101000a0380198251168184511680821785525050505050509050019150506020604051808303816000865af11580156142db573d6000803e3d6000fd5b5050506040513d60208110156142f057600080fd5b810190808051906020019092919050505085858561430d8a612916565b600061175d565b905095945050505050565b600080848460405160200180836bffffffffffffffffffffffff19166bffffffffffffffffffffffff19168152601401828152602001925050506040516020818303038152906040526040518082805190602001908083835b60208310151561439d5780518252602082019150602081019050602083039250614378565b6001836020036101000a038019825116818451168082178552505050505050905001915050604051809103902090506143d68184613782565b9150509392505050565b600061447182600260003373ffffffffffffffffffffffffffffffffffffffff1673ffffffffffffffffffffffffffffffffffffffff16815260200190815260200160002060008673ffffffffffffffffffffffffffffffffffffffff1673ffffffffffffffffffffffffffffffffffffffff168152602001908152602001600020546152c490919063ffffffff16565b600260003373ffffffffffffffffffffffffffffffffffffffff1673ffffffffffffffffffffffffffffffffffffffff16815260200190815260200160002060008573ffffffffffffffffffffffffffffffffffffffff1673ffffffffffffffffffffffffffffffffffffffff168152602001908152602001600020819055508273ffffffffffffffffffffffffffffffffffffffff163373ffffffffffffffffffffffffffffffffffffffff167f8c5be1e5ebec7d5bd14f71427d1e84f3dd0314c0f7b2291e5b200ac8c7c3b925600260003373ffffffffffffffffffffffffffffffffffffffff1673ffffffffffffffffffffffffffffffffffffffff16815260200190815260200160002060008773ffffffffffffffffffffffffffffffffffffffff1673ffffffffffffffffffffffffffffffffffffffff168152602001908152602001600020546040518082815260200191505060405180910390a36001905092915050565b6000600260008473ffffffffffffffffffffffffffffffffffffffff1673ffffffffffffffffffffffffffffffffffffffff16815260200190815260200160002060008373ffffffffffffffffffffffffffffffffffffffff1673ffffffffffffffffffffffffffffffffffffffff16815260200190815260200160002054905092915050565b60008061469062093a80614682600454426152e090919063ffffffff16565b6152f990919063ffffffff16565b9150603282111580156146a4575060055482115b1561470b576146c06007546009546152e090919063ffffffff16565b90506040805190810160405280828152602001600654815250600b60008481526020019081526020016000206000820151816000015560208201518160010155905050816005819055505b5050565b6000806000806147208660006154cb565b6001900492506147318660206154cb565b600190049150841561490d57600060028381151561474b57fe5b061461475857600361475b565b60025b9050600360028285604051602001808360ff1660ff167f0100000000000000000000000000000000000000000000000000000000000000028152600101828152602001925050506040516020818303038152906040526040518082805190602001908083835b6020831015156147e657805182526020820191506020810190506020830392506147c1565b6001836020036101000a0380198251168184511680821785525050505050509050019150506020604051808303816000865af115801561482a573d6000803e3d6000fd5b5050506040513d602081101561483f57600080fd5b81019080805190602001909291905050506040516020018082600019166000191681526020019150506040516020818303038152906040526040518082805190602001908083835b6020831015156148ac5780518252602082019150602081019050602083039250614887565b6001836020036101000a0380198251168184511680821785525050505050509050019150506020604051808303816000865af11580156148f0573d6000803e3d6000fd5b505050604051516c01000000000000000000000000029350614ac5565b6004905060036002828585604051602001808460ff1660ff167f010000000000000000000000000000000000000000000000000000000000000002815260010183815260200182815260200193505050506040516020818303038152906040526040518082805190602001908083835b6020831015156149a2578051825260208201915060208101905060208303925061497d565b6001836020036101000a0380198251168184511680821785525050505050509050019150506020604051808303816000865af11580156149e6573d6000803e3d6000fd5b5050506040513d60208110156149fb57600080fd5b81019080805190602001909291905050506040516020018082600019166000191681526020019150506040516020818303038152906040526040518082805190602001908083835b602083101515614a685780518252602082019150602081019050602083039250614a43565b6001836020036101000a0380198251168184511680821785525050505050509050019150506020604051808303816000865af1158015614aac573d6000803e3d6000fd5b505050604051516c010000000000000000000000000293505b50505092915050565b6000614b0c600a614afe600954614af06007548761528c90919063ffffffff16565b6152f990919063ffffffff16565b6152f990919063ffffffff16565b9050919050565b6000806000600f60008673ffffffffffffffffffffffffffffffffffffffff1673ffffffffffffffffffffffffffffffffffffffff16815260200190815260200160002084815481101515614b6457fe5b9060005260206000209060050201600001549150600f60008673ffffffffffffffffffffffffffffffffffffffff1673ffffffffffffffffffffffffffffffffffffffff16815260200190815260200160002084815481101515614bc457fe5b906000526020600020906005020160020154421115614c1f57614be7858561511f565b9050614c18614c0982614bfb888886614ef7565b6152c490919063ffffffff16565b836152c490919063ffffffff16565b9250614c23565b8192505b505092915050565b6000806000806000806000806000809750614c6662093a80614c586004548e6152e090919063ffffffff16565b6152f990919063ffffffff16565b965060008714614c765786614c79565b60015b9550614ca562093a80614c976004548d6152e090919063ffffffff16565b6152f990919063ffffffff16565b945060328511614cb55784614cb8565b60325b93508592505b83831015614d7757614d02600b600085815260200190815260200160002060010154614cf460648f61528c90919063ffffffff16565b6152f990919063ffffffff16565b9150614d536064614d4584614d376032600b60008a8152602001908152602001600020600001546152f990919063ffffffff16565b61528c90919063ffffffff16565b6152f990919063ffffffff16565b9050614d6881896152c490919063ffffffff16565b97508280600101935050614cbe565b87985050505050505050509392505050565b6000614ddc826000808673ffffffffffffffffffffffffffffffffffffffff1673ffffffffffffffffffffffffffffffffffffffff168152602001908152602001600020546152c490919063ffffffff16565b6000808573ffffffffffffffffffffffffffffffffffffffff1673ffffffffffffffffffffffffffffffffffffffff16815260200190815260200160002081905550614e33826001546152c490919063ffffffff16565b6001819055508273ffffffffffffffffffffffffffffffffffffffff167f0f6798a560793a54c3bcfe86a93cde1e73087d944c0ea20544137d4121396885836040518082815260200191505060405180910390a28273ffffffffffffffffffffffffffffffffffffffff16600073ffffffffffffffffffffffffffffffffffffffff167fddf252ad1be2c89b69c2b068fc378daa952ba7f163c4a11628f55a4df523b3ef846040518082815260200191505060405180910390a36001905092915050565b600080600080600080600f60008a73ffffffffffffffffffffffffffffffffffffffff1673ffffffffffffffffffffffffffffffffffffffff16815260200190815260200160002088815481101515614f4c57fe5b906000526020600020906005020194506032614f8c62093a80614f7e60045489600101546152e090919063ffffffff16565b6152f990919063ffffffff16565b111515614ff157614faa856000015486600101548760020154614c2b565b9350614fb587611de1565b9250614fc087614ace565b9150614fe782614fd985876152c490919063ffffffff16565b6152c490919063ffffffff16565b9050809550614ff6565b600095505b50505050509392505050565b60075481565b6000806000806000806000615028612710896152c490919063ffffffff16565b9550600a9450848981151561503957fe5b06935061504f858a6152f990919063ffffffff16565b92506150696402540be4008b6152f990919063ffffffff16565b9150600090505b828110156150c0576150a3856127100a61509587890a8561528c90919063ffffffff16565b6152f990919063ffffffff16565b91506150b96001826152c490919063ffffffff16565b9050615070565b6000841415156150f8576150f5846127100a6150e786890a8561528c90919063ffffffff16565b6152f990919063ffffffff16565b91505b6151106402540be4008361528c90919063ffffffff16565b96505050505050509392505050565b6000806000806000806000806000600f60008c73ffffffffffffffffffffffffffffffffffffffff1673ffffffffffffffffffffffffffffffffffffffff1681526020019081526020016000208a81548110151561517957fe5b9060005260206000209060050201975061519e6064600161528c90919063ffffffff16565b9650600195506064945060008860030154141515615222576151e488600401546151d660648b6003015461528c90919063ffffffff16565b6152f990919063ffffffff16565b9350600084116151f55760016151f7565b835b955061520c86886152f990919063ffffffff16565b92506000831161521d57600161521f565b825b94505b615252620d2f006152448a600101548b600201546152e090919063ffffffff16565b6152f990919063ffffffff16565b915061526388600001548387615008565b905061527c8860000154826152e090919063ffffffff16565b9850505050505050505092915050565b60008083141561529f57600090506152be565b81830290508183828115156152b057fe5b041415156152ba57fe5b8090505b92915050565b600081830190508281101515156152d757fe5b80905092915050565b60008282111515156152ee57fe5b818303905092915050565b6000818381151561530657fe5b04905092915050565b6000600f60008473ffffffffffffffffffffffffffffffffffffffff1673ffffffffffffffffffffffffffffffffffffffff16815260200190815260200160002090508061536b600183805490506152e090919063ffffffff16565b81548110151561537757fe5b9060005260206000209060050201818381548110151561539357fe5b906000526020600020906005020160008201548160000155600182015481600101556002820154816002015560038201548160030155600482015481600401559050506153ee600182805490506152e090919063ffffffff16565b81816153fa91906155d7565b50505050565b600080600080849250600091505b86518210156154b457868281518110151561542557fe5b906020019060200201519050806000191683600019161015615476578281604051808360001916600019168152602001826000191660001916815260200192505050604051809103902092506154a7565b8083604051808360001916600019168152602001826000191660001916815260200192505050604051809103902092505b818060010192505061540e565b856000191683600019161493505050509392505050565b600080600090505b602081101561559d5760088102848483018151811015156154f057fe5b9060200101517f010000000000000000000000000000000000000000000000000000000000000090047f0100000000000000000000000000000000000000000000000000000000000000027effffffffffffffffffffffffffffffffffffffffffffffffffffffffffffff19167fff0000000000000000000000000000000000000000000000000000000000000060010216600019169060020a90048218915080806001019150506154d3565b8191505092915050565b60a06040519081016040528060008152602001600081526020016000815260200160008152602001600081525090565b815481835581811115615604576005028160050283600052602060002091820191016156039190615609565b5b505050565b61564d91905b808211156156495760008082016000905560018201600090556002820160009055600382016000905560048201600090555060050161560f565b5090565b905600a165627a7a723058203d5e8e18ffd250962ca290ee686ea710e5cc2f3fd8f50fc55e2aaaf47f81d3cb0029",
  "source": "pragma solidity ^0.4.23;\n\nimport \"../StakeableToken.sol\";\n\n\ncontract StakeableTokenStub is StakeableToken {\n  constructor (\n    address _origin,\n    uint256 _launchTime,\n    bytes32 _rootUtxoMerkleTreeHash,\n    uint256 _UTXOCountAtFork,\n    uint256 _maximumRedeemable\n  ) \n    public\n  {\n    origin = _origin;\n    launchTime = _launchTime;\n    rootUtxoMerkleTreeHash = _rootUtxoMerkleTreeHash;\n    UTXOCountAtFork = _UTXOCountAtFork;\n    maximumRedeemable = _maximumRedeemable;\n  }\n\n  // only uesd for testing: easily mint more tokens for stress tests\n  function mintTokens(\n    address _address,\n    uint256 _amount\n  )\n    public\n    returns (bool)\n  {\n    balances[_address] = balances[_address].add(_amount);\n    totalSupply_ = totalSupply_.add(_amount);\n    emit Mint(_address, _amount);\n    emit Transfer(address(0), _address, _amount);\n\n    return true;\n  }\n\n  function setRedeemedCount(\n    uint256 _count\n  )\n    public\n    returns (bool)\n  {\n    redeemedCount = _count;\n  }\n\n  function setMaxRedeemable(\n    uint256 _maxRedeemable\n  )\n    public\n    returns (bool)\n  {\n    maximumRedeemable = _maxRedeemable;\n  }\n\n  function setTotalRedeemed(\n    uint256 _totalRedeemed\n  )\n    public\n    returns (bool)\n  {\n    totalRedeemed = _totalRedeemed;\n  }\n\n  // stub function to claim without merkle tree\n  function shortcutRedeem(\n    uint256 _satoshis\n  ) \n    public \n    returns (uint256)\n  {\n    (uint256 _tokensRedeemed, uint256 _speedBonus) = getRedeemAmount(_satoshis);\n\n    /* Sanity check. */\n    require(totalRedeemed.add(_tokensRedeemed) <= maximumRedeemable);\n\n    /* Track total redeemed tokens. */\n    totalRedeemed = totalRedeemed.add(_tokensRedeemed);\n\n    /* Credit the redeemer. */ \n    balances[msg.sender] = balances[msg.sender].add(_tokensRedeemed).add(_speedBonus);\n    balances[origin] = balances[origin].add(_speedBonus);\n\n    /* Increase supply */\n    totalSupply_ = totalSupply_.add(_tokensRedeemed).add(_speedBonus);\n\n    /* Increment Redeem Count to track viral rewards */\n    redeemedCount = redeemedCount.add(1);\n\n    /* Mark the transfer event. */\n    emit Transfer(address(0), msg.sender, _tokensRedeemed.add(_speedBonus));\n    \n    /* Return the number of tokens redeemed. */\n    return _tokensRedeemed;\n  }\n}",
  "sourcePath": "/Users/mesquka/Git/Bitcoin Hex/contract/contracts/stubs/StakeableTokenStub.sol",
  "compiler": {
    "name": "solc",
    "version": "0.4.24+commit.e67f0147.Emscripten.clang"
  },
  "schemaVersion": "2.0.0",
  "updatedAt": "2018-09-28T06:19:10.675Z"
}