{
  "contractName": "StakeableToken",
  "abi": [
    {
      "constant": true,
      "inputs": [
        {
          "name": "_hash",
          "type": "bytes32"
        },
        {
          "name": "_v",
          "type": "uint8"
        },
        {
          "name": "_r",
          "type": "bytes32"
        },
        {
          "name": "_s",
          "type": "bytes32"
        },
        {
          "name": "_expected",
          "type": "address"
        },
        {
          "name": "_addPrefix",
          "type": "bool"
        }
      ],
      "name": "validateSignature",
      "outputs": [
        {
          "name": "",
          "type": "bool"
        }
      ],
      "payable": false,
      "stateMutability": "pure",
      "type": "function"
    },
    {
      "constant": true,
      "inputs": [],
      "name": "maximumRedeemable",
      "outputs": [
        {
          "name": "",
          "type": "uint256"
        }
      ],
      "payable": false,
      "stateMutability": "view",
      "type": "function"
    },
    {
      "constant": false,
      "inputs": [
        {
          "name": "_spender",
          "type": "address"
        },
        {
          "name": "_value",
          "type": "uint256"
        }
      ],
      "name": "approve",
      "outputs": [
        {
          "name": "",
          "type": "bool"
        }
      ],
      "payable": false,
      "stateMutability": "nonpayable",
      "type": "function"
    },
    {
      "constant": true,
      "inputs": [],
      "name": "totalSupply",
      "outputs": [
        {
          "name": "",
          "type": "uint256"
        }
      ],
      "payable": false,
      "stateMutability": "view",
      "type": "function"
    },
    {
      "constant": false,
      "inputs": [
        {
          "name": "_from",
          "type": "address"
        },
        {
          "name": "_to",
          "type": "address"
        },
        {
          "name": "_value",
          "type": "uint256"
        }
      ],
      "name": "transferFrom",
      "outputs": [
        {
          "name": "",
          "type": "bool"
        }
      ],
      "payable": false,
      "stateMutability": "nonpayable",
      "type": "function"
    },
    {
      "constant": false,
      "inputs": [
        {
          "name": "_satoshis",
          "type": "uint256"
        },
        {
          "name": "_proof",
          "type": "bytes32[]"
        },
        {
          "name": "_pubKey",
          "type": "bytes"
        },
        {
          "name": "_isCompressed",
          "type": "bool"
        },
        {
          "name": "_v",
          "type": "uint8"
        },
        {
          "name": "_r",
          "type": "bytes32"
        },
        {
          "name": "_s",
          "type": "bytes32"
        }
      ],
      "name": "redeemUTXO",
      "outputs": [
        {
          "name": "_tokensRedeemed",
          "type": "uint256"
        }
      ],
      "payable": false,
      "stateMutability": "nonpayable",
      "type": "function"
    },
    {
      "constant": false,
      "inputs": [
        {
          "name": "_satoshis",
          "type": "uint256"
        },
        {
          "name": "_proof",
          "type": "bytes32[]"
        },
        {
          "name": "_pubKey",
          "type": "bytes"
        },
        {
          "name": "_isCompressed",
          "type": "bool"
        },
        {
          "name": "_v",
          "type": "uint8"
        },
        {
          "name": "_r",
          "type": "bytes32"
        },
        {
          "name": "_s",
          "type": "bytes32"
        },
        {
          "name": "_referrer",
          "type": "address"
        }
      ],
      "name": "redeemUTXO",
      "outputs": [
        {
          "name": "tokensRedeemed",
          "type": "uint256"
        }
      ],
      "payable": false,
      "stateMutability": "nonpayable",
      "type": "function"
    },
    {
      "constant": true,
      "inputs": [
        {
          "name": "_pubKey",
          "type": "bytes"
        }
      ],
      "name": "pubKeyToEthereumAddress",
      "outputs": [
        {
          "name": "",
          "type": "address"
        }
      ],
      "payable": false,
      "stateMutability": "pure",
      "type": "function"
    },
    {
      "constant": false,
      "inputs": [
        {
          "name": "_spender",
          "type": "address"
        },
        {
          "name": "_subtractedValue",
          "type": "uint256"
        }
      ],
      "name": "decreaseApproval",
      "outputs": [
        {
          "name": "",
          "type": "bool"
        }
      ],
      "payable": false,
      "stateMutability": "nonpayable",
      "type": "function"
    },
    {
      "constant": true,
      "inputs": [
        {
          "name": "_owner",
          "type": "address"
        }
      ],
      "name": "balanceOf",
      "outputs": [
        {
          "name": "",
          "type": "uint256"
        }
      ],
      "payable": false,
      "stateMutability": "view",
      "type": "function"
    },
    {
      "constant": true,
      "inputs": [],
      "name": "launchTime",
      "outputs": [
        {
          "name": "",
          "type": "uint256"
        }
      ],
      "payable": false,
      "stateMutability": "view",
      "type": "function"
    },
    {
      "constant": true,
      "inputs": [
        {
          "name": "_merkleLeafHash",
          "type": "bytes32"
        },
        {
          "name": "_proof",
          "type": "bytes32[]"
        }
      ],
      "name": "canRedeemUtxoHash",
      "outputs": [
        {
          "name": "",
          "type": "bool"
        }
      ],
      "payable": false,
      "stateMutability": "view",
      "type": "function"
    },
    {
      "constant": true,
      "inputs": [],
      "name": "totalBTCCirculationAtFork",
      "outputs": [
        {
          "name": "",
          "type": "uint256"
        }
      ],
      "payable": false,
      "stateMutability": "view",
      "type": "function"
    },
    {
      "constant": true,
      "inputs": [
        {
          "name": "",
          "type": "address"
        },
        {
          "name": "",
          "type": "uint256"
        }
      ],
      "name": "staked",
      "outputs": [
        {
          "name": "stakeAmount",
          "type": "uint256"
        },
        {
          "name": "stakeTime",
          "type": "uint256"
        },
        {
          "name": "unlockTime",
          "type": "uint256"
        },
        {
          "name": "stakedCoinsAtStart",
          "type": "uint256"
        }
      ],
      "payable": false,
      "stateMutability": "view",
      "type": "function"
    },
    {
      "constant": false,
      "inputs": [],
      "name": "storeWeekUnclaimed",
      "outputs": [],
      "payable": false,
      "stateMutability": "nonpayable",
      "type": "function"
    },
    {
      "constant": true,
      "inputs": [],
      "name": "origin",
      "outputs": [
        {
          "name": "",
          "type": "address"
        }
      ],
      "payable": false,
      "stateMutability": "view",
      "type": "function"
    },
    {
      "constant": true,
      "inputs": [],
      "name": "lastUpdatedWeek",
      "outputs": [
        {
          "name": "",
          "type": "uint256"
        }
      ],
      "payable": false,
      "stateMutability": "view",
      "type": "function"
    },
    {
      "constant": false,
      "inputs": [
        {
          "name": "_to",
          "type": "address"
        },
        {
          "name": "_value",
          "type": "uint256"
        }
      ],
      "name": "transfer",
      "outputs": [
        {
          "name": "",
          "type": "bool"
        }
      ],
      "payable": false,
      "stateMutability": "nonpayable",
      "type": "function"
    },
    {
      "constant": true,
      "inputs": [
        {
          "name": "_proof",
          "type": "bytes32[]"
        },
        {
          "name": "_merkleLeafHash",
          "type": "bytes32"
        }
      ],
      "name": "verifyProof",
      "outputs": [
        {
          "name": "",
          "type": "bool"
        }
      ],
      "payable": false,
      "stateMutability": "view",
      "type": "function"
    },
    {
      "constant": true,
      "inputs": [
        {
          "name": "_addr",
          "type": "address"
        },
        {
          "name": "_pubKey",
          "type": "bytes"
        },
        {
          "name": "_v",
          "type": "uint8"
        },
        {
          "name": "_r",
          "type": "bytes32"
        },
        {
          "name": "_s",
          "type": "bytes32"
        }
      ],
      "name": "ecdsaVerify",
      "outputs": [
        {
          "name": "",
          "type": "bool"
        }
      ],
      "payable": false,
      "stateMutability": "pure",
      "type": "function"
    },
    {
      "constant": true,
      "inputs": [
        {
          "name": "_originalAddress",
          "type": "bytes20"
        },
        {
          "name": "_satoshis",
          "type": "uint256"
        },
        {
          "name": "_proof",
          "type": "bytes32[]"
        }
      ],
      "name": "canRedeemUtxo",
      "outputs": [
        {
          "name": "",
          "type": "bool"
        }
      ],
      "payable": false,
      "stateMutability": "view",
      "type": "function"
    },
    {
      "constant": true,
      "inputs": [],
      "name": "stakedCoins",
      "outputs": [
        {
          "name": "",
          "type": "uint256"
        }
      ],
      "payable": false,
      "stateMutability": "view",
      "type": "function"
    },
    {
      "constant": false,
      "inputs": [
        {
          "name": "_spender",
          "type": "address"
        },
        {
          "name": "_addedValue",
          "type": "uint256"
        }
      ],
      "name": "increaseApproval",
      "outputs": [
        {
          "name": "",
          "type": "bool"
        }
      ],
      "payable": false,
      "stateMutability": "nonpayable",
      "type": "function"
    },
    {
      "constant": true,
      "inputs": [
        {
          "name": "_owner",
          "type": "address"
        },
        {
          "name": "_spender",
          "type": "address"
        }
      ],
      "name": "allowance",
      "outputs": [
        {
          "name": "",
          "type": "uint256"
        }
      ],
      "payable": false,
      "stateMutability": "view",
      "type": "function"
    },
    {
      "constant": true,
      "inputs": [
        {
          "name": "_pubKey",
          "type": "bytes"
        },
        {
          "name": "_isCompressed",
          "type": "bool"
        }
      ],
      "name": "pubKeyToBitcoinAddress",
      "outputs": [
        {
          "name": "",
          "type": "bytes20"
        }
      ],
      "payable": false,
      "stateMutability": "pure",
      "type": "function"
    },
    {
      "constant": true,
      "inputs": [],
      "name": "rootUTXOMerkleTreeHash",
      "outputs": [
        {
          "name": "",
          "type": "bytes32"
        }
      ],
      "payable": false,
      "stateMutability": "view",
      "type": "function"
    },
    {
      "constant": true,
      "inputs": [],
      "name": "totalRedeemed",
      "outputs": [
        {
          "name": "",
          "type": "uint256"
        }
      ],
      "payable": false,
      "stateMutability": "view",
      "type": "function"
    },
    {
      "anonymous": false,
      "inputs": [
        {
          "indexed": true,
          "name": "_address",
          "type": "address"
        },
        {
          "indexed": false,
          "name": "_reward",
          "type": "uint256"
        }
      ],
      "name": "Mint",
      "type": "event"
    },
    {
      "anonymous": false,
      "inputs": [
        {
          "indexed": true,
          "name": "owner",
          "type": "address"
        },
        {
          "indexed": true,
          "name": "spender",
          "type": "address"
        },
        {
          "indexed": false,
          "name": "value",
          "type": "uint256"
        }
      ],
      "name": "Approval",
      "type": "event"
    },
    {
      "anonymous": false,
      "inputs": [
        {
          "indexed": true,
          "name": "from",
          "type": "address"
        },
        {
          "indexed": true,
          "name": "to",
          "type": "address"
        },
        {
          "indexed": false,
          "name": "value",
          "type": "uint256"
        }
      ],
      "name": "Transfer",
      "type": "event"
    },
    {
      "constant": false,
      "inputs": [
        {
          "name": "_value",
          "type": "uint256"
        },
        {
          "name": "_unlockTime",
          "type": "uint256"
        }
      ],
      "name": "startStake",
      "outputs": [],
      "payable": false,
      "stateMutability": "nonpayable",
      "type": "function"
    },
    {
      "constant": true,
      "inputs": [
        {
          "name": "staker",
          "type": "address"
        }
      ],
      "name": "getCurrentStaked",
      "outputs": [
        {
          "name": "stakes",
          "type": "uint256"
        }
      ],
      "payable": false,
      "stateMutability": "view",
      "type": "function"
    },
    {
      "constant": false,
      "inputs": [
        {
          "name": "staker",
          "type": "address"
        }
      ],
      "name": "claimStakingRewards",
      "outputs": [],
      "payable": false,
      "stateMutability": "nonpayable",
      "type": "function"
    }
  ],
  "bytecode": "0x60806040526000600555600060095534801561001a57600080fd5b50613d488061002a6000396000f300608060405260043610610180576000357c0100000000000000000000000000000000000000000000000000000000900463ffffffff1680630867c0ad1461018557806308b4312b14610223578063095ea7b31461024e578063128bfcae146102b357806318160ddd146102ea57806323b872dd14610315578063427da2751461039a578063443de10c146104995780634ecd81b3146104f05780635418796c146105b6578063661884631461065f57806370a08231146106c4578063790ca4131461071b57806381cd84b91461074657806385fcd90b146107d25780638f169816146107fd5780639283032c14610873578063938b5f321461088a57806396bb1fef146108e15780639d65b89214610924578063a9059cbb1461094f578063b80ac7df146109b4578063ce267b5514610a40578063cfc2334e14610b0a578063d0668b3c14610bab578063d73dd62314610bd6578063dd62ed3e14610c3b578063e073ef6914610cb2578063e6997f6d14610d59578063f35dad4014610d8c575b600080fd5b34801561019157600080fd5b506102096004803603810190808035600019169060200190929190803560ff16906020019092919080356000191690602001909291908035600019169060200190929190803573ffffffffffffffffffffffffffffffffffffffff169060200190929190803515159060200190929190505050610db7565b604051808215151515815260200191505060405180910390f35b34801561022f57600080fd5b50610238610fa2565b6040518082815260200191505060405180910390f35b34801561025a57600080fd5b50610299600480360381019080803573ffffffffffffffffffffffffffffffffffffffff16906020019092919080359060200190929190505050610fa8565b604051808215151515815260200191505060405180910390f35b3480156102bf57600080fd5b506102e8600480360381019080803590602001909291908035906020019092919050505061109a565b005b3480156102f657600080fd5b506102ff61136a565b6040518082815260200191505060405180910390f35b34801561032157600080fd5b50610380600480360381019080803573ffffffffffffffffffffffffffffffffffffffff169060200190929190803573ffffffffffffffffffffffffffffffffffffffff16906020019092919080359060200190929190505050611374565b604051808215151515815260200191505060405180910390f35b3480156103a657600080fd5b506104836004803603810190808035906020019092919080359060200190820180359060200190808060200260200160405190810160405280939291908181526020018383602002808284378201915050505050509192919290803590602001908201803590602001908080601f0160208091040260200160405190810160405280939291908181526020018383808284378201915050505050509192919290803515159060200190929190803560ff1690602001909291908035600019169060200190929190803560001916906020019092919050505061172e565b6040518082815260200191505060405180910390f35b3480156104a557600080fd5b506104da600480360381019080803573ffffffffffffffffffffffffffffffffffffffff1690602001909291905050506119f9565b6040518082815260200191505060405180910390f35b3480156104fc57600080fd5b506105a060048036038101908080359060200190929190803590602001908201803590602001919091929391929390803590602001908201803590602001919091929391929390803515159060200190929190803560ff16906020019092919080356000191690602001909291908035600019169060200190929190803573ffffffffffffffffffffffffffffffffffffffff169060200190929190505050611c7b565b6040518082815260200191505060405180910390f35b3480156105c257600080fd5b5061061d600480360381019080803590602001908201803590602001908080601f0160208091040260200160405190810160405280939291908181526020018383808284378201915050505050509192919290505050611dd4565b604051808273ffffffffffffffffffffffffffffffffffffffff1673ffffffffffffffffffffffffffffffffffffffff16815260200191505060405180910390f35b34801561066b57600080fd5b506106aa600480360381019080803573ffffffffffffffffffffffffffffffffffffffff16906020019092919080359060200190929190505050611e5a565b604051808215151515815260200191505060405180910390f35b3480156106d057600080fd5b50610705600480360381019080803573ffffffffffffffffffffffffffffffffffffffff1690602001909291905050506120eb565b6040518082815260200191505060405180910390f35b34801561072757600080fd5b50610730612133565b6040518082815260200191505060405180910390f35b34801561075257600080fd5b506107b8600480360381019080803560001916906020019092919080359060200190820180359060200190808060200260200160405190810160405280939291908181526020018383602002808284378201915050505050509192919290505050612139565b604051808215151515815260200191505060405180910390f35b3480156107de57600080fd5b506107e7612184565b6040518082815260200191505060405180910390f35b34801561080957600080fd5b50610848600480360381019080803573ffffffffffffffffffffffffffffffffffffffff1690602001909291908035906020019092919050505061218a565b6040518085815260200184815260200183815260200182815260200194505050505060405180910390f35b34801561087f57600080fd5b506108886121d6565b005b34801561089657600080fd5b5061089f612270565b604051808273ffffffffffffffffffffffffffffffffffffffff1673ffffffffffffffffffffffffffffffffffffffff16815260200191505060405180910390f35b3480156108ed57600080fd5b50610922600480360381019080803573ffffffffffffffffffffffffffffffffffffffff169060200190929190505050612296565b005b34801561093057600080fd5b50610939612a39565b6040518082815260200191505060405180910390f35b34801561095b57600080fd5b5061099a600480360381019080803573ffffffffffffffffffffffffffffffffffffffff16906020019092919080359060200190929190505050612a3f565b604051808215151515815260200191505060405180910390f35b3480156109c057600080fd5b50610a26600480360381019080803590602001908201803590602001908080602002602001604051908101604052809392919081815260200183836020028082843782019150505050505091929192908035600019169060200190929190505050612c5e565b604051808215151515815260200191505060405180910390f35b348015610a4c57600080fd5b50610af0600480360381019080803573ffffffffffffffffffffffffffffffffffffffff169060200190929190803590602001908201803590602001908080601f0160208091040260200160405190810160405280939291908181526020018383808284378201915050505050509192919290803560ff16906020019092919080356000191690602001909291908035600019169060200190929190505050612c75565b604051808215151515815260200191505060405180910390f35b348015610b1657600080fd5b50610b9160048036038101908080356bffffffffffffffffffffffff191690602001909291908035906020019092919080359060200190820180359060200190808060200260200160405190810160405280939291908181526020018383602002808284378201915050505050509192919290505050612d94565b604051808215151515815260200191505060405180910390f35b348015610bb757600080fd5b50610bc0612e55565b6040518082815260200191505060405180910390f35b348015610be257600080fd5b50610c21600480360381019080803573ffffffffffffffffffffffffffffffffffffffff16906020019092919080359060200190929190505050612e5b565b604051808215151515815260200191505060405180910390f35b348015610c4757600080fd5b50610c9c600480360381019080803573ffffffffffffffffffffffffffffffffffffffff169060200190929190803573ffffffffffffffffffffffffffffffffffffffff169060200190929190505050613057565b6040518082815260200191505060405180910390f35b348015610cbe57600080fd5b50610d25600480360381019080803590602001908201803590602001908080601f01602080910402602001604051908101604052809392919081815260200183838082843782019150505050505091929192908035151590602001909291905050506130de565b60405180826bffffffffffffffffffffffff19166bffffffffffffffffffffffff1916815260200191505060405180910390f35b348015610d6557600080fd5b50610d6e61349d565b60405180826000191660001916815260200191505060405180910390f35b348015610d9857600080fd5b50610da16134a3565b6040518082815260200191505060405180910390f35b6000806060831515610dcb57889150610ee5565b6040805190810160405280601c81526020017f19457468657265756d205369676e6564204d6573736167653a0a333200000000815250905080896040516020018083805190602001908083835b602083101515610e3d5780518252602082019150602081019050602083039250610e18565b6001836020036101000a0380198251168184511680821785525050505050509050018260001916600019168152602001925050506040516020818303038152906040526040518082805190602001908083835b602083101515610eb55780518252602082019150602081019050602083039250610e90565b6001836020036101000a038019825116818451168082178552505050505050905001915050604051809103902091505b8473ffffffffffffffffffffffffffffffffffffffff166001838a8a8a604051600081526020016040526040518085600019166000191681526020018460ff1660ff1681526020018360001916600019168152602001826000191660001916815260200194505050505060206040516020810390808403906000865af1158015610f73573d6000803e3d6000fd5b5050506020604051035173ffffffffffffffffffffffffffffffffffffffff1614925050509695505050505050565b600a5481565b600081600260003373ffffffffffffffffffffffffffffffffffffffff1673ffffffffffffffffffffffffffffffffffffffff16815260200190815260200160002060008573ffffffffffffffffffffffffffffffffffffffff1673ffffffffffffffffffffffffffffffffffffffff168152602001908152602001600020819055508273ffffffffffffffffffffffffffffffffffffffff163373ffffffffffffffffffffffffffffffffffffffff167f8c5be1e5ebec7d5bd14f71427d1e84f3dd0314c0f7b2291e5b200ac8c7c3b925846040518082815260200191505060405180910390a36001905092915050565b6000339050826000808373ffffffffffffffffffffffffffffffffffffffff1673ffffffffffffffffffffffffffffffffffffffff16815260200190815260200160002054101515156110ec57600080fd5b6110f46121d6565b611145836000808473ffffffffffffffffffffffffffffffffffffffff1673ffffffffffffffffffffffffffffffffffffffff168152602001908152602001600020546134a990919063ffffffff16565b6000808373ffffffffffffffffffffffffffffffffffffffff1673ffffffffffffffffffffffffffffffffffffffff168152602001908152602001600020819055506111d8836000803073ffffffffffffffffffffffffffffffffffffffff1673ffffffffffffffffffffffffffffffffffffffff168152602001908152602001600020546134c290919063ffffffff16565b6000803073ffffffffffffffffffffffffffffffffffffffff1673ffffffffffffffffffffffffffffffffffffffff168152602001908152602001600020819055503073ffffffffffffffffffffffffffffffffffffffff168173ffffffffffffffffffffffffffffffffffffffff167fddf252ad1be2c89b69c2b068fc378daa952ba7f163c4a11628f55a4df523b3ef856040518082815260200191505060405180910390a3600d60008273ffffffffffffffffffffffffffffffffffffffff1673ffffffffffffffffffffffffffffffffffffffff168152602001908152602001600020608060405190810160405280856fffffffffffffffffffffffffffffffff168152602001428152602001848152602001600c54815250908060018154018082558091505090600182039060005260206000209060040201600090919290919091506000820151816000015560208201518160010155604082015181600201556060820151816003015550505061135f83600c546134c290919063ffffffff16565b600c81905550505050565b6000600154905090565b60008073ffffffffffffffffffffffffffffffffffffffff168373ffffffffffffffffffffffffffffffffffffffff16141515156113b157600080fd5b6000808573ffffffffffffffffffffffffffffffffffffffff1673ffffffffffffffffffffffffffffffffffffffff1681526020019081526020016000205482111515156113fe57600080fd5b600260008573ffffffffffffffffffffffffffffffffffffffff1673ffffffffffffffffffffffffffffffffffffffff16815260200190815260200160002060003373ffffffffffffffffffffffffffffffffffffffff1673ffffffffffffffffffffffffffffffffffffffff16815260200190815260200160002054821115151561148957600080fd5b6114da826000808773ffffffffffffffffffffffffffffffffffffffff1673ffffffffffffffffffffffffffffffffffffffff168152602001908152602001600020546134a990919063ffffffff16565b6000808673ffffffffffffffffffffffffffffffffffffffff1673ffffffffffffffffffffffffffffffffffffffff1681526020019081526020016000208190555061156d826000808673ffffffffffffffffffffffffffffffffffffffff1673ffffffffffffffffffffffffffffffffffffffff168152602001908152602001600020546134c290919063ffffffff16565b6000808573ffffffffffffffffffffffffffffffffffffffff1673ffffffffffffffffffffffffffffffffffffffff1681526020019081526020016000208190555061163e82600260008773ffffffffffffffffffffffffffffffffffffffff1673ffffffffffffffffffffffffffffffffffffffff16815260200190815260200160002060003373ffffffffffffffffffffffffffffffffffffffff1673ffffffffffffffffffffffffffffffffffffffff168152602001908152602001600020546134a990919063ffffffff16565b600260008673ffffffffffffffffffffffffffffffffffffffff1673ffffffffffffffffffffffffffffffffffffffff16815260200190815260200160002060003373ffffffffffffffffffffffffffffffffffffffff1673ffffffffffffffffffffffffffffffffffffffff168152602001908152602001600020819055508273ffffffffffffffffffffffffffffffffffffffff168473ffffffffffffffffffffffffffffffffffffffff167fddf252ad1be2c89b69c2b068fc378daa952ba7f163c4a11628f55a4df523b3ef846040518082815260200191505060405180910390a3600190509392505050565b600080600061173b6121d6565b603261176762093a80611759600454426134a990919063ffffffff16565b6134de90919063ffffffff16565b10151561177357600080fd5b61177d88886130de565b9150818a60405160200180836bffffffffffffffffffffffff19166bffffffffffffffffffffffff19168152601401828152602001925050506040516020818303038152906040526040518082805190602001908083835b6020831015156117fa57805182526020820191506020810190506020830392506117d5565b6001836020036101000a03801982511681845116808217855250505050505090500191505060405180910390209050611833818a612139565b151561183e57600080fd5b61184b3389888888612c75565b151561185657600080fd5b600160086000836000191660001916815260200190815260200160002060006101000a81548160ff0219169083151502179055506118938a6134f4565b9250600a546118ad846009546134c290919063ffffffff16565b111515156118ba57600080fd5b6118cf836009546134c290919063ffffffff16565b600981905550611926836000803373ffffffffffffffffffffffffffffffffffffffff1673ffffffffffffffffffffffffffffffffffffffff168152602001908152602001600020546134c290919063ffffffff16565b6000803373ffffffffffffffffffffffffffffffffffffffff1673ffffffffffffffffffffffffffffffffffffffff1681526020019081526020016000208190555061197d836001546134c290919063ffffffff16565b6001819055503373ffffffffffffffffffffffffffffffffffffffff16600073ffffffffffffffffffffffffffffffffffffffff167fddf252ad1be2c89b69c2b068fc378daa952ba7f163c4a11628f55a4df523b3ef856040518082815260200191505060405180910390a38292505050979650505050505050565b60008060005b600d60008573ffffffffffffffffffffffffffffffffffffffff1673ffffffffffffffffffffffffffffffffffffffff16815260200190815260200160002080549050821015611c7157611ab9600d60008673ffffffffffffffffffffffffffffffffffffffff1673ffffffffffffffffffffffffffffffffffffffff16815260200190815260200160002083815481101515611a9857fe5b906000526020600020906004020160000154846134c290919063ffffffff16565b9250600d60008573ffffffffffffffffffffffffffffffffffffffff1673ffffffffffffffffffffffffffffffffffffffff16815260200190815260200160002082815481101515611b0757fe5b906000526020600020906004020160020154421115611c6457611bb6600d60008673ffffffffffffffffffffffffffffffffffffffff1673ffffffffffffffffffffffffffffffffffffffff16815260200190815260200160002083815481101515611b6f57fe5b906000526020600020906004020160806040519081016040529081600082015481526020016001820154815260200160028201548152602001600382015481525050613874565b9050611c61611c52600d60008773ffffffffffffffffffffffffffffffffffffffff1673ffffffffffffffffffffffffffffffffffffffff16815260200190815260200160002084815481101515611c0a57fe5b9060005260206000209060040201608060405190810160405290816000820154815260200160018201548152602001600282015481526020016003820154815250508361395c565b846134c290919063ffffffff16565b92505b81806001019250506119ff565b8292505050919050565b6000611ced8b8b8b808060200260200160405190810160405280939291908181526020018383602002808284378201915050505050508a8a8080601f0160208091040260200160405190810160405280939291908181526020018383808284378201915050505050508989898961172e565b9050611d53611d066014836134de90919063ffffffff16565b6000808573ffffffffffffffffffffffffffffffffffffffff1673ffffffffffffffffffffffffffffffffffffffff168152602001908152602001600020546134c290919063ffffffff16565b6000808473ffffffffffffffffffffffffffffffffffffffff1673ffffffffffffffffffffffffffffffffffffffff16815260200190815260200160002081905550611dbd611dac6014836134de90919063ffffffff16565b6001546134c290919063ffffffff16565b6001819055508090509a9950505050505050505050565b600073ffffffffffffffffffffffffffffffffffffffff826040518082805190602001908083835b602083101515611e215780518252602082019150602081019050602083039250611dfc565b6001836020036101000a038019825116818451168082178552505050505050905001915050604051809103902060019004169050919050565b600080600260003373ffffffffffffffffffffffffffffffffffffffff1673ffffffffffffffffffffffffffffffffffffffff16815260200190815260200160002060008573ffffffffffffffffffffffffffffffffffffffff1673ffffffffffffffffffffffffffffffffffffffff16815260200190815260200160002054905080831115611f6b576000600260003373ffffffffffffffffffffffffffffffffffffffff1673ffffffffffffffffffffffffffffffffffffffff16815260200190815260200160002060008673ffffffffffffffffffffffffffffffffffffffff1673ffffffffffffffffffffffffffffffffffffffff16815260200190815260200160002081905550611fff565b611f7e83826134a990919063ffffffff16565b600260003373ffffffffffffffffffffffffffffffffffffffff1673ffffffffffffffffffffffffffffffffffffffff16815260200190815260200160002060008673ffffffffffffffffffffffffffffffffffffffff1673ffffffffffffffffffffffffffffffffffffffff168152602001908152602001600020819055505b8373ffffffffffffffffffffffffffffffffffffffff163373ffffffffffffffffffffffffffffffffffffffff167f8c5be1e5ebec7d5bd14f71427d1e84f3dd0314c0f7b2291e5b200ac8c7c3b925600260003373ffffffffffffffffffffffffffffffffffffffff1673ffffffffffffffffffffffffffffffffffffffff16815260200190815260200160002060008873ffffffffffffffffffffffffffffffffffffffff1673ffffffffffffffffffffffffffffffffffffffff168152602001908152602001600020546040518082815260200191505060405180910390a3600191505092915050565b60008060008373ffffffffffffffffffffffffffffffffffffffff1673ffffffffffffffffffffffffffffffffffffffff168152602001908152602001600020549050919050565b60045481565b600080151560086000856000191660001916815260200190815260200160002060009054906101000a900460ff16151514801561217c575061217b8284612c5e565b5b905092915050565b600b5481565b600d602052816000526040600020818154811015156121a557fe5b9060005260206000209060040201600091509150508060000154908060010154908060020154908060030154905084565b60008061220362093a806121f5600454426134a990919063ffffffff16565b6134de90919063ffffffff16565b9150603382108015612216575060055482115b1561226c57612232600954600a546134a990919063ffffffff16565b9050602060405190810160405280828152506006600084815260200190815260200160002060008201518160000155905050816005819055505b5050565b600360009054906101000a900473ffffffffffffffffffffffffffffffffffffffff1681565b60008060006122a36121d6565b5b600d60008573ffffffffffffffffffffffffffffffffffffffff1673ffffffffffffffffffffffffffffffffffffffff16815260200190815260200160002080549050831015612a3357600d60008573ffffffffffffffffffffffffffffffffffffffff1673ffffffffffffffffffffffffffffffffffffffff1681526020019081526020016000208381548110151561233a57fe5b906000526020600020906004020160020154421115612a26576123c5600d60008673ffffffffffffffffffffffffffffffffffffffff1673ffffffffffffffffffffffffffffffffffffffff168152602001908152602001600020848154811015156123a257fe5b906000526020600020906004020160000154600c546134a990919063ffffffff16565b600c81905550612479600d60008673ffffffffffffffffffffffffffffffffffffffff1673ffffffffffffffffffffffffffffffffffffffff1681526020019081526020016000208481548110151561241a57fe5b9060005260206000209060040201600001546000803073ffffffffffffffffffffffffffffffffffffffff1673ffffffffffffffffffffffffffffffffffffffff168152602001908152602001600020546134a990919063ffffffff16565b6000803073ffffffffffffffffffffffffffffffffffffffff1673ffffffffffffffffffffffffffffffffffffffff16815260200190815260200160002081905550612569600d60008673ffffffffffffffffffffffffffffffffffffffff1673ffffffffffffffffffffffffffffffffffffffff1681526020019081526020016000208481548110151561250a57fe5b9060005260206000209060040201600001546000808773ffffffffffffffffffffffffffffffffffffffff1673ffffffffffffffffffffffffffffffffffffffff168152602001908152602001600020546134c290919063ffffffff16565b6000808673ffffffffffffffffffffffffffffffffffffffff1673ffffffffffffffffffffffffffffffffffffffff168152602001908152602001600020819055508373ffffffffffffffffffffffffffffffffffffffff163073ffffffffffffffffffffffffffffffffffffffff167fddf252ad1be2c89b69c2b068fc378daa952ba7f163c4a11628f55a4df523b3ef600d60008873ffffffffffffffffffffffffffffffffffffffff1673ffffffffffffffffffffffffffffffffffffffff1681526020019081526020016000208681548110151561264657fe5b9060005260206000209060040201600001546040518082815260200191505060405180910390a3612703600d60008673ffffffffffffffffffffffffffffffffffffffff1673ffffffffffffffffffffffffffffffffffffffff168152602001908152602001600020848154811015156126bc57fe5b906000526020600020906004020160806040519081016040529081600082015481526020016001820154815260200160028201548152602001600382015481525050613874565b91506127ae61279f600d60008773ffffffffffffffffffffffffffffffffffffffff1673ffffffffffffffffffffffffffffffffffffffff1681526020019081526020016000208581548110151561275757fe5b9060005260206000209060040201608060405190810160405290816000820154815260200160018201548152602001600282015481526020016003820154815250508461395c565b826134c290919063ffffffff16565b9050612801816000808773ffffffffffffffffffffffffffffffffffffffff1673ffffffffffffffffffffffffffffffffffffffff168152602001908152602001600020546134c290919063ffffffff16565b6000808673ffffffffffffffffffffffffffffffffffffffff1673ffffffffffffffffffffffffffffffffffffffff168152602001908152602001600020819055506128c861285983836134a990919063ffffffff16565b600080600360009054906101000a900473ffffffffffffffffffffffffffffffffffffffff1673ffffffffffffffffffffffffffffffffffffffff1673ffffffffffffffffffffffffffffffffffffffff168152602001908152602001600020546134c290919063ffffffff16565b600080600360009054906101000a900473ffffffffffffffffffffffffffffffffffffffff1673ffffffffffffffffffffffffffffffffffffffff1673ffffffffffffffffffffffffffffffffffffffff168152602001908152602001600020819055506129546129436002836139bb90919063ffffffff16565b6001546134c290919063ffffffff16565b600181905550600d60008573ffffffffffffffffffffffffffffffffffffffff1673ffffffffffffffffffffffffffffffffffffffff168152602001908152602001600020838154811015156129a657fe5b906000526020600020906004020160008082016000905560018201600090556002820160009055600382016000905550508373ffffffffffffffffffffffffffffffffffffffff167f0f6798a560793a54c3bcfe86a93cde1e73087d944c0ea20544137d4121396885826040518082815260200191505060405180910390a25b82806001019350506122a4565b50505050565b60055481565b60008073ffffffffffffffffffffffffffffffffffffffff168373ffffffffffffffffffffffffffffffffffffffff1614151515612a7c57600080fd5b6000803373ffffffffffffffffffffffffffffffffffffffff1673ffffffffffffffffffffffffffffffffffffffff168152602001908152602001600020548211151515612ac957600080fd5b612b1a826000803373ffffffffffffffffffffffffffffffffffffffff1673ffffffffffffffffffffffffffffffffffffffff168152602001908152602001600020546134a990919063ffffffff16565b6000803373ffffffffffffffffffffffffffffffffffffffff1673ffffffffffffffffffffffffffffffffffffffff16815260200190815260200160002081905550612bad826000808673ffffffffffffffffffffffffffffffffffffffff1673ffffffffffffffffffffffffffffffffffffffff168152602001908152602001600020546134c290919063ffffffff16565b6000808573ffffffffffffffffffffffffffffffffffffffff1673ffffffffffffffffffffffffffffffffffffffff168152602001908152602001600020819055508273ffffffffffffffffffffffffffffffffffffffff163373ffffffffffffffffffffffffffffffffffffffff167fddf252ad1be2c89b69c2b068fc378daa952ba7f163c4a11628f55a4df523b3ef846040518082815260200191505060405180910390a36001905092915050565b6000612c6d83600754846139f3565b905092915050565b6000612d89600287604051602001808273ffffffffffffffffffffffffffffffffffffffff1673ffffffffffffffffffffffffffffffffffffffff166c010000000000000000000000000281526014019150506040516020818303038152906040526040518082805190602001908083835b602083101515612d0c5780518252602082019150602081019050602083039250612ce7565b6001836020036101000a0380198251168184511680821785525050505050509050019150506020604051808303816000865af1158015612d50573d6000803e3d6000fd5b5050506040513d6020811015612d6557600080fd5b8101908080519060200190929190505050858585612d828a611dd4565b6000610db7565b905095945050505050565b600080848460405160200180836bffffffffffffffffffffffff19166bffffffffffffffffffffffff19168152601401828152602001925050506040516020818303038152906040526040518082805190602001908083835b602083101515612e125780518252602082019150602081019050602083039250612ded565b6001836020036101000a03801982511681845116808217855250505050505090500191505060405180910390209050612e4b8184612139565b9150509392505050565b600c5481565b6000612eec82600260003373ffffffffffffffffffffffffffffffffffffffff1673ffffffffffffffffffffffffffffffffffffffff16815260200190815260200160002060008673ffffffffffffffffffffffffffffffffffffffff1673ffffffffffffffffffffffffffffffffffffffff168152602001908152602001600020546134c290919063ffffffff16565b600260003373ffffffffffffffffffffffffffffffffffffffff1673ffffffffffffffffffffffffffffffffffffffff16815260200190815260200160002060008573ffffffffffffffffffffffffffffffffffffffff1673ffffffffffffffffffffffffffffffffffffffff168152602001908152602001600020819055508273ffffffffffffffffffffffffffffffffffffffff163373ffffffffffffffffffffffffffffffffffffffff167f8c5be1e5ebec7d5bd14f71427d1e84f3dd0314c0f7b2291e5b200ac8c7c3b925600260003373ffffffffffffffffffffffffffffffffffffffff1673ffffffffffffffffffffffffffffffffffffffff16815260200190815260200160002060008773ffffffffffffffffffffffffffffffffffffffff1673ffffffffffffffffffffffffffffffffffffffff168152602001908152602001600020546040518082815260200191505060405180910390a36001905092915050565b6000600260008473ffffffffffffffffffffffffffffffffffffffff1673ffffffffffffffffffffffffffffffffffffffff16815260200190815260200160002060008373ffffffffffffffffffffffffffffffffffffffff1673ffffffffffffffffffffffffffffffffffffffff16815260200190815260200160002054905092915050565b6000806000806130ef866000613abe565b600190049250613100866020613abe565b60019004915084156132dc57600060028381151561311a57fe5b061461312757600361312a565b60025b9050600360028285604051602001808360ff1660ff167f0100000000000000000000000000000000000000000000000000000000000000028152600101828152602001925050506040516020818303038152906040526040518082805190602001908083835b6020831015156131b55780518252602082019150602081019050602083039250613190565b6001836020036101000a0380198251168184511680821785525050505050509050019150506020604051808303816000865af11580156131f9573d6000803e3d6000fd5b5050506040513d602081101561320e57600080fd5b81019080805190602001909291905050506040516020018082600019166000191681526020019150506040516020818303038152906040526040518082805190602001908083835b60208310151561327b5780518252602082019150602081019050602083039250613256565b6001836020036101000a0380198251168184511680821785525050505050509050019150506020604051808303816000865af11580156132bf573d6000803e3d6000fd5b505050604051516c01000000000000000000000000029350613494565b6004905060036002828585604051602001808460ff1660ff167f010000000000000000000000000000000000000000000000000000000000000002815260010183815260200182815260200193505050506040516020818303038152906040526040518082805190602001908083835b602083101515613371578051825260208201915060208101905060208303925061334c565b6001836020036101000a0380198251168184511680821785525050505050509050019150506020604051808303816000865af11580156133b5573d6000803e3d6000fd5b5050506040513d60208110156133ca57600080fd5b81019080805190602001909291905050506040516020018082600019166000191681526020019150506040516020818303038152906040526040518082805190602001908083835b6020831015156134375780518252602082019150602081019050602083039250613412565b6001836020036101000a0380198251168184511680821785525050505050509050019150506020604051808303816000865af115801561347b573d6000803e3d6000fd5b505050604051516c010000000000000000000000000293505b50505092915050565b60075481565b60095481565b60008282111515156134b757fe5b818303905092915050565b600081830190508281101515156134d557fe5b80905092915050565b600081838115156134eb57fe5b04905092915050565b60008060008060006135146402540be400876139bb90919063ffffffff16565b935061354062093a80613532600454426134a990919063ffffffff16565b6134de90919063ffffffff16565b92506135696135596002856139bb90919063ffffffff16565b60646134a990919063ffffffff16565b9150683635c9adc5dea000008411156136025769152d02c7e14af68000008410156135ea576135e3640ba43b74006135d560096135c760026135b964174876e8008b6134a990919063ffffffff16565b6139bb90919063ffffffff16565b6134de90919063ffffffff16565b6134c290919063ffffffff16565b9350613601565b6135fe6004856134de90919063ffffffff16565b93505b5b61363f60646136316402540be40061362386896139bb90919063ffffffff16565b6139bb90919063ffffffff16565b6134de90919063ffffffff16565b9050602d8311156136525780945061386b565b60208311156136895761368260646136746065846139bb90919063ffffffff16565b6134de90919063ffffffff16565b945061386b565b60188311156136c0576136b960646136ab6066846139bb90919063ffffffff16565b6134de90919063ffffffff16565b945061386b565b60128311156136f7576136f060646136e26067846139bb90919063ffffffff16565b6134de90919063ffffffff16565b945061386b565b600e83111561372e5761372760646137196068846139bb90919063ffffffff16565b6134de90919063ffffffff16565b945061386b565b600a8311156137655761375e60646137506069846139bb90919063ffffffff16565b6134de90919063ffffffff16565b945061386b565b600783111561379c576137956064613787606a846139bb90919063ffffffff16565b6134de90919063ffffffff16565b945061386b565b60058311156137d3576137cc60646137be606b846139bb90919063ffffffff16565b6134de90919063ffffffff16565b945061386b565b600383111561380a5761380360646137f5606c846139bb90919063ffffffff16565b6134de90919063ffffffff16565b945061386b565b60018311156138415761383a606461382c606d846139bb90919063ffffffff16565b6134de90919063ffffffff16565b945061386b565b613868606461385a606e846139bb90919063ffffffff16565b6134de90919063ffffffff16565b94505b50505050919050565b6000806000806000606493506138ac60015461389e606489606001516139bb90919063ffffffff16565b6134de90919063ffffffff16565b92506138c183856134de90919063ffffffff16565b93506138ef620d2f006138e18860200151426134a990919063ffffffff16565b6134de90919063ffffffff16565b915061390086600001518386613b9a565b90506139518660000151613943836139356103e861392788886139bb90919063ffffffff16565b6134de90919063ffffffff16565b6134c290919063ffffffff16565b6134a990919063ffffffff16565b945050505050919050565b600061397961396a84613bbb565b836134c290919063ffffffff16565b90506139b061398782613c92565b6139a261399384613cd7565b846134c290919063ffffffff16565b6134c290919063ffffffff16565b905080905092915050565b6000808314156139ce57600090506139ed565b81830290508183828115156139df57fe5b041415156139e957fe5b8090505b92915050565b600080600080849250600091505b8651821015613aa7578682815181101515613a1857fe5b906020019060200201519050806000191683600019161015613a6957828160405180836000191660001916815260200182600019166000191681526020019250505060405180910390209250613a9a565b8083604051808360001916600019168152602001826000191660001916815260200192505050604051809103902092505b8180600101925050613a01565b856000191683600019161493505050509392505050565b600080600090505b6020811015613b90576008810284848301815181101515613ae357fe5b9060200101517f010000000000000000000000000000000000000000000000000000000000000090047f0100000000000000000000000000000000000000000000000000000000000000027effffffffffffffffffffffffffffffffffffffffffffffffffffffffffffff19167fff0000000000000000000000000000000000000000000000000000000000000060010216600019169060020a9004821891508080600101915050613ac6565b8191505092915050565b60008260640a83836064010a8502811515613bb157fe5b0490509392505050565b600080600080613bef62093a80613be160045488602001516134a990919063ffffffff16565b6134de90919063ffffffff16565b9250613c1b62093a80613c0d600454426134a990919063ffffffff16565b6134de90919063ffffffff16565b91508290505b81811015613c8a57613c7b613c6c6032613c5e886000015160066000878152602001908152602001600020600001546139bb90919063ffffffff16565b6134de90919063ffffffff16565b856134c290919063ffffffff16565b93508080600101915050613c21565b505050919050565b6000613cd0600a613cc2600a54613cb4600954876139bb90919063ffffffff16565b6134de90919063ffffffff16565b6134de90919063ffffffff16565b9050919050565b6000613d15600a613d07600b54613cf9600954876139bb90919063ffffffff16565b6134de90919063ffffffff16565b6134de90919063ffffffff16565b90509190505600a165627a7a7230582000e9bb229d5ecae98cb088c6f5aae5439543c20a19d5c384501690fc5a08f9550029",
  "source": "pragma solidity ^0.4.23;\nimport \"./UTXORedeemableToken.sol\";\n\ncontract StakeableToken is UTXORedeemableToken {\n\n    event Mint(address indexed _address, uint _reward);\n\n    uint256 public totalBTCCirculationAtFork;\n\n    uint256 public stakedCoins;\n\n    struct StakeStruct {\n        uint256 stakeAmount;\n        uint256 stakeTime;\n        uint256 unlockTime;\n        uint256 stakedCoinsAtStart;\n    }\n\n    mapping(address => StakeStruct[]) public staked;\n\n    function compound(uint256 _principle, uint256 _periods, uint256 _interestRateTimesHundred) internal pure returns (uint256) {\n        /* Calculate compound interest */\n        return (_principle * (100 + _interestRateTimesHundred) ** _periods)/(100 ** _periods);\n    }\n\n    function startStake(uint256 _value, uint256 _unlockTime) external {\n        address staker = msg.sender;\n\n        /* Make sure staker has enough funds */\n        require(balances[staker] >= _value);\n\n        /* Check if weekly data needs to be updated */\n        storeWeekUnclaimed();\n\n        /* Remove balance from sender */\n        balances[staker] = balances[staker].sub(_value);\n        balances[address(this)] = balances[address(this)].add(_value);\n        emit Transfer(staker, address(this), _value);\n\n        /* Create Stake */\n        staked[staker].push(\n          StakeStruct(\n            uint128(_value), \n            block.timestamp, \n            _unlockTime, \n            stakedCoins\n          )\n        );\n\n        /* Add staked coins to global stake counter */\n        stakedCoins = stakedCoins.add(_value);\n    }\n\n    function calculateWeAreAllSatoshiRewards(StakeStruct stake) internal view returns (uint256 rewards) {\n        /* Calculate what week stake was opened */\n        uint256 startWeek = stake.stakeTime.sub(launchTime).div(7 days);\n\n        /* Calculate current week */\n        uint256 weeksSinceLaunch = block.timestamp.sub(launchTime).div(7 days);\n\n        /* Award 2% of unclaimed coins at end of every week */\n        for (uint256 i = startWeek; i < weeksSinceLaunch; i++) {\n            rewards = rewards.add(weekData[i].unclaimedCoins.mul(stake.stakeAmount).div(50));\n        }\n    }\n\n    function calculateViralRewards(uint256 rewards) internal view returns (uint256) {\n        /* Add bonus percentage to rewards from 0-10% based on adoption */\n        return rewards.mul(totalRedeemed).div(totalBTCCirculationAtFork).div(10);\n    }\n\n    function calculateCritMassRewards(uint256 rewards) internal view returns (uint256) {\n        /* Add bonus percentage to rewards from 0-10% based on adoption */\n        return rewards.mul(totalRedeemed).div(maximumRedeemable).div(10);\n    }\n\n    function calculateStakingRewards(StakeStruct stake) internal view returns (uint256) {\n        /* Base interest rate */\n        uint256 interestRateTimesHundred = 100;\n\n        /* Calculate Adoption Percent Scaler */\n        uint256 scaler = stake.stakedCoinsAtStart.mul(100).div(totalSupply_);\n\n        /* Adjust interest rate by scaler */\n        interestRateTimesHundred = interestRateTimesHundred.div(scaler);\n\n        /* Calculate Periods */\n        uint256 periods = block.timestamp.sub(stake.stakeTime).div(10 days);\n\n        /* Compound */\n        uint256 compoundRound = compound(stake.stakeAmount, periods, interestRateTimesHundred);\n\n        /* Calculate final staking rewards with time bonus */\n        return compoundRound.mul(periods).div(1000).add(compoundRound).sub(stake.stakeAmount);\n        \n    }\n\n    function calculateAdditionalRewards(StakeStruct stake, uint256 initRewards) internal view returns (uint256 rewards) {\n        rewards = initRewards.add(calculateWeAreAllSatoshiRewards(stake));\n        rewards = rewards\n            .add(calculateViralRewards(rewards))\n            .add(calculateCritMassRewards(rewards));\n\n        return rewards;\n    }\n\n    function getCurrentStaked(address staker) external view returns(uint256 stakes) {\n        for (uint256 i; i < staked[staker].length; i++) {\n            /* Add Stake Amount */\n            stakes = stakes.add(staked[staker][i].stakeAmount);\n            /* Check if stake has matured */\n            if (block.timestamp > staked[staker][i].unlockTime) {\n                /* Calculate Rewards */\n                uint256 stakingRewards = calculateStakingRewards(staked[staker][i]);\n                stakes = stakes.add(calculateAdditionalRewards(staked[staker][i], stakingRewards));\n            }\n        }\n\n        return stakes;\n    }\n\n    function claimStakingRewards(address staker) external {\n        /* Check if weekly data needs to be updated */\n        storeWeekUnclaimed();\n\n        for (uint256 i; i < staked[staker].length; i++) {\n            /* Check if stake has matured */\n            if (block.timestamp > staked[staker][i].unlockTime) {\n                /* Remove StakedCoins from global counter */\n                stakedCoins = stakedCoins.sub(staked[staker][i].stakeAmount);\n\n                /* Sub staked coins from contract */\n                balances[address(this)] = balances[address(this)].sub(staked[staker][i].stakeAmount);\n                \n                /* Add staked coins to staker */\n                balances[staker] = balances[staker].add(staked[staker][i].stakeAmount);\n\n                emit Transfer(address(this), staker, staked[staker][i].stakeAmount);\n\n                /* Calculate Rewards */\n                uint256 stakingRewards = calculateStakingRewards(staked[staker][i]);\n                uint256 rewards = rewards.add(calculateAdditionalRewards(staked[staker][i], stakingRewards));\n\n                /* Award staking rewards to staker */\n                balances[staker] = balances[staker].add(rewards);\n\n                /* Award rewards to origin contract */\n                balances[origin] = balances[origin].add(rewards.sub(stakingRewards));\n\n                /* Increase supply */\n                totalSupply_ = totalSupply_.add(rewards.mul(2));\n\n                /* Remove Stake */\n                delete staked[staker][i];\n\n                emit Mint(staker, rewards);\n            }\n        }\n    }\n}\n",
  "sourcePath": "/Users/tovarishfin/dev/bhx/bhx-contracts/contracts/StakeableToken.sol",
  "compiler": {
    "name": "solc",
    "version": "0.4.24+commit.e67f0147.Emscripten.clang"
  },
  "schemaVersion": "2.0.0",
  "updatedAt": "2018-07-03T12:42:17.786Z"
}