{
  "contractName": "StakeableToken",
  "abi": [
    {
      "constant": true,
      "inputs": [
        {
          "name": "_hash",
          "type": "bytes32"
        },
        {
          "name": "_v",
          "type": "uint8"
        },
        {
          "name": "_r",
          "type": "bytes32"
        },
        {
          "name": "_s",
          "type": "bytes32"
        },
        {
          "name": "_expected",
          "type": "address"
        },
        {
          "name": "_addPrefix",
          "type": "bool"
        }
      ],
      "name": "validateSignature",
      "outputs": [
        {
          "name": "",
          "type": "bool"
        }
      ],
      "payable": false,
      "stateMutability": "pure",
      "type": "function"
    },
    {
      "constant": true,
      "inputs": [],
      "name": "maximumRedeemable",
      "outputs": [
        {
          "name": "",
          "type": "uint256"
        }
      ],
      "payable": false,
      "stateMutability": "view",
      "type": "function"
    },
    {
      "constant": false,
      "inputs": [
        {
          "name": "_spender",
          "type": "address"
        },
        {
          "name": "_value",
          "type": "uint256"
        }
      ],
      "name": "approve",
      "outputs": [
        {
          "name": "",
          "type": "bool"
        }
      ],
      "payable": false,
      "stateMutability": "nonpayable",
      "type": "function"
    },
    {
      "constant": true,
      "inputs": [],
      "name": "interestRatePercent",
      "outputs": [
        {
          "name": "",
          "type": "uint256"
        }
      ],
      "payable": false,
      "stateMutability": "view",
      "type": "function"
    },
    {
      "constant": true,
      "inputs": [],
      "name": "totalStakedCoins",
      "outputs": [
        {
          "name": "",
          "type": "uint256"
        }
      ],
      "payable": false,
      "stateMutability": "view",
      "type": "function"
    },
    {
      "constant": true,
      "inputs": [],
      "name": "totalSupply",
      "outputs": [
        {
          "name": "",
          "type": "uint256"
        }
      ],
      "payable": false,
      "stateMutability": "view",
      "type": "function"
    },
    {
      "constant": false,
      "inputs": [
        {
          "name": "_from",
          "type": "address"
        },
        {
          "name": "_to",
          "type": "address"
        },
        {
          "name": "_value",
          "type": "uint256"
        }
      ],
      "name": "transferFrom",
      "outputs": [
        {
          "name": "",
          "type": "bool"
        }
      ],
      "payable": false,
      "stateMutability": "nonpayable",
      "type": "function"
    },
    {
      "constant": true,
      "inputs": [
        {
          "name": "_satoshis",
          "type": "uint256"
        }
      ],
      "name": "getRedeemAmount",
      "outputs": [
        {
          "name": "",
          "type": "uint256"
        }
      ],
      "payable": false,
      "stateMutability": "view",
      "type": "function"
    },
    {
      "constant": true,
      "inputs": [],
      "name": "oneInterestPeriodInSeconds",
      "outputs": [
        {
          "name": "",
          "type": "uint256"
        }
      ],
      "payable": false,
      "stateMutability": "view",
      "type": "function"
    },
    {
      "constant": true,
      "inputs": [],
      "name": "redeemedCount",
      "outputs": [
        {
          "name": "",
          "type": "uint256"
        }
      ],
      "payable": false,
      "stateMutability": "view",
      "type": "function"
    },
    {
      "constant": true,
      "inputs": [
        {
          "name": "_pubKey",
          "type": "bytes"
        }
      ],
      "name": "pubKeyToEthereumAddress",
      "outputs": [
        {
          "name": "",
          "type": "address"
        }
      ],
      "payable": false,
      "stateMutability": "pure",
      "type": "function"
    },
    {
      "constant": true,
      "inputs": [],
      "name": "maxStakingTimeInSeconds",
      "outputs": [
        {
          "name": "",
          "type": "uint256"
        }
      ],
      "payable": false,
      "stateMutability": "view",
      "type": "function"
    },
    {
      "constant": false,
      "inputs": [
        {
          "name": "_spender",
          "type": "address"
        },
        {
          "name": "_subtractedValue",
          "type": "uint256"
        }
      ],
      "name": "decreaseApproval",
      "outputs": [
        {
          "name": "",
          "type": "bool"
        }
      ],
      "payable": false,
      "stateMutability": "nonpayable",
      "type": "function"
    },
    {
      "constant": true,
      "inputs": [
        {
          "name": "",
          "type": "bytes32"
        }
      ],
      "name": "redeemedUTXOs",
      "outputs": [
        {
          "name": "",
          "type": "bool"
        }
      ],
      "payable": false,
      "stateMutability": "view",
      "type": "function"
    },
    {
      "constant": true,
      "inputs": [],
      "name": "rootUtxoMerkleTreeHash",
      "outputs": [
        {
          "name": "",
          "type": "bytes32"
        }
      ],
      "payable": false,
      "stateMutability": "view",
      "type": "function"
    },
    {
      "constant": true,
      "inputs": [
        {
          "name": "",
          "type": "uint256"
        }
      ],
      "name": "satoshiRewardDataByWeek",
      "outputs": [
        {
          "name": "unclaimedCoins",
          "type": "uint256"
        },
        {
          "name": "totalStaked",
          "type": "uint256"
        }
      ],
      "payable": false,
      "stateMutability": "view",
      "type": "function"
    },
    {
      "constant": true,
      "inputs": [
        {
          "name": "_owner",
          "type": "address"
        }
      ],
      "name": "balanceOf",
      "outputs": [
        {
          "name": "",
          "type": "uint256"
        }
      ],
      "payable": false,
      "stateMutability": "view",
      "type": "function"
    },
    {
      "constant": false,
      "inputs": [
        {
          "name": "_satoshis",
          "type": "uint256"
        },
        {
          "name": "_proof",
          "type": "bytes32[]"
        },
        {
          "name": "_pubKey",
          "type": "bytes"
        },
        {
          "name": "_isCompressed",
          "type": "bool"
        },
        {
          "name": "_v",
          "type": "uint8"
        },
        {
          "name": "_r",
          "type": "bytes32"
        },
        {
          "name": "_s",
          "type": "bytes32"
        }
      ],
      "name": "redeemUtxo",
      "outputs": [
        {
          "name": "_tokensRedeemed",
          "type": "uint256"
        }
      ],
      "payable": false,
      "stateMutability": "nonpayable",
      "type": "function"
    },
    {
      "constant": true,
      "inputs": [],
      "name": "launchTime",
      "outputs": [
        {
          "name": "",
          "type": "uint256"
        }
      ],
      "payable": false,
      "stateMutability": "view",
      "type": "function"
    },
    {
      "constant": true,
      "inputs": [
        {
          "name": "_merkleLeafHash",
          "type": "bytes32"
        },
        {
          "name": "_proof",
          "type": "bytes32[]"
        }
      ],
      "name": "canRedeemUtxoHash",
      "outputs": [
        {
          "name": "",
          "type": "bool"
        }
      ],
      "payable": false,
      "stateMutability": "view",
      "type": "function"
    },
    {
      "constant": true,
      "inputs": [],
      "name": "totalBtcCirculationAtFork",
      "outputs": [
        {
          "name": "",
          "type": "uint256"
        }
      ],
      "payable": false,
      "stateMutability": "view",
      "type": "function"
    },
    {
      "constant": true,
      "inputs": [
        {
          "name": "",
          "type": "address"
        },
        {
          "name": "",
          "type": "uint256"
        }
      ],
      "name": "staked",
      "outputs": [
        {
          "name": "stakeAmount",
          "type": "uint256"
        },
        {
          "name": "stakeTime",
          "type": "uint256"
        },
        {
          "name": "unlockTime",
          "type": "uint256"
        },
        {
          "name": "totalStakedCoinsAtStart",
          "type": "uint256"
        },
        {
          "name": "totalSupplyAtStart",
          "type": "uint256"
        }
      ],
      "payable": false,
      "stateMutability": "view",
      "type": "function"
    },
    {
      "constant": true,
      "inputs": [],
      "name": "origin",
      "outputs": [
        {
          "name": "",
          "type": "address"
        }
      ],
      "payable": false,
      "stateMutability": "view",
      "type": "function"
    },
    {
      "constant": true,
      "inputs": [],
      "name": "lastUpdatedWeek",
      "outputs": [
        {
          "name": "",
          "type": "uint256"
        }
      ],
      "payable": false,
      "stateMutability": "view",
      "type": "function"
    },
    {
      "constant": false,
      "inputs": [
        {
          "name": "_to",
          "type": "address"
        },
        {
          "name": "_value",
          "type": "uint256"
        }
      ],
      "name": "transfer",
      "outputs": [
        {
          "name": "",
          "type": "bool"
        }
      ],
      "payable": false,
      "stateMutability": "nonpayable",
      "type": "function"
    },
    {
      "constant": false,
      "inputs": [
        {
          "name": "_satoshis",
          "type": "uint256"
        },
        {
          "name": "_proof",
          "type": "bytes32[]"
        },
        {
          "name": "_pubKey",
          "type": "bytes"
        },
        {
          "name": "_isCompressed",
          "type": "bool"
        },
        {
          "name": "_v",
          "type": "uint8"
        },
        {
          "name": "_r",
          "type": "bytes32"
        },
        {
          "name": "_s",
          "type": "bytes32"
        },
        {
          "name": "_referrer",
          "type": "address"
        }
      ],
      "name": "redeemReferredUtxo",
      "outputs": [
        {
          "name": "_tokensRedeemed",
          "type": "uint256"
        }
      ],
      "payable": false,
      "stateMutability": "nonpayable",
      "type": "function"
    },
    {
      "constant": true,
      "inputs": [
        {
          "name": "_proof",
          "type": "bytes32[]"
        },
        {
          "name": "_merkleLeafHash",
          "type": "bytes32"
        }
      ],
      "name": "verifyProof",
      "outputs": [
        {
          "name": "",
          "type": "bool"
        }
      ],
      "payable": false,
      "stateMutability": "view",
      "type": "function"
    },
    {
      "constant": true,
      "inputs": [
        {
          "name": "_addr",
          "type": "address"
        },
        {
          "name": "_pubKey",
          "type": "bytes"
        },
        {
          "name": "_v",
          "type": "uint8"
        },
        {
          "name": "_r",
          "type": "bytes32"
        },
        {
          "name": "_s",
          "type": "bytes32"
        }
      ],
      "name": "ecdsaVerify",
      "outputs": [
        {
          "name": "",
          "type": "bool"
        }
      ],
      "payable": false,
      "stateMutability": "pure",
      "type": "function"
    },
    {
      "constant": true,
      "inputs": [
        {
          "name": "_originalAddress",
          "type": "bytes20"
        },
        {
          "name": "_satoshis",
          "type": "uint256"
        },
        {
          "name": "_proof",
          "type": "bytes32[]"
        }
      ],
      "name": "canRedeemUtxo",
      "outputs": [
        {
          "name": "",
          "type": "bool"
        }
      ],
      "payable": false,
      "stateMutability": "view",
      "type": "function"
    },
    {
      "constant": false,
      "inputs": [
        {
          "name": "_spender",
          "type": "address"
        },
        {
          "name": "_addedValue",
          "type": "uint256"
        }
      ],
      "name": "increaseApproval",
      "outputs": [
        {
          "name": "",
          "type": "bool"
        }
      ],
      "payable": false,
      "stateMutability": "nonpayable",
      "type": "function"
    },
    {
      "constant": true,
      "inputs": [
        {
          "name": "_owner",
          "type": "address"
        },
        {
          "name": "_spender",
          "type": "address"
        }
      ],
      "name": "allowance",
      "outputs": [
        {
          "name": "",
          "type": "uint256"
        }
      ],
      "payable": false,
      "stateMutability": "view",
      "type": "function"
    },
    {
      "constant": false,
      "inputs": [],
      "name": "storeSatoshiWeekData",
      "outputs": [],
      "payable": false,
      "stateMutability": "nonpayable",
      "type": "function"
    },
    {
      "constant": true,
      "inputs": [
        {
          "name": "_pubKey",
          "type": "bytes"
        },
        {
          "name": "_isCompressed",
          "type": "bool"
        }
      ],
      "name": "pubKeyToBitcoinAddress",
      "outputs": [
        {
          "name": "",
          "type": "bytes20"
        }
      ],
      "payable": false,
      "stateMutability": "pure",
      "type": "function"
    },
    {
      "constant": true,
      "inputs": [],
      "name": "totalRedeemed",
      "outputs": [
        {
          "name": "",
          "type": "uint256"
        }
      ],
      "payable": false,
      "stateMutability": "view",
      "type": "function"
    },
    {
      "anonymous": false,
      "inputs": [
        {
          "indexed": true,
          "name": "_address",
          "type": "address"
        },
        {
          "indexed": false,
          "name": "_reward",
          "type": "uint256"
        }
      ],
      "name": "Mint",
      "type": "event"
    },
    {
      "anonymous": false,
      "inputs": [
        {
          "indexed": true,
          "name": "owner",
          "type": "address"
        },
        {
          "indexed": true,
          "name": "spender",
          "type": "address"
        },
        {
          "indexed": false,
          "name": "value",
          "type": "uint256"
        }
      ],
      "name": "Approval",
      "type": "event"
    },
    {
      "anonymous": false,
      "inputs": [
        {
          "indexed": true,
          "name": "from",
          "type": "address"
        },
        {
          "indexed": true,
          "name": "to",
          "type": "address"
        },
        {
          "indexed": false,
          "name": "value",
          "type": "uint256"
        }
      ],
      "name": "Transfer",
      "type": "event"
    },
    {
      "constant": true,
      "inputs": [
        {
          "name": "_staker",
          "type": "address"
        }
      ],
      "name": "getUserStakes",
      "outputs": [
        {
          "name": "",
          "type": "uint256[]"
        },
        {
          "name": "",
          "type": "uint256[]"
        },
        {
          "name": "",
          "type": "uint256[]"
        },
        {
          "name": "",
          "type": "uint256[]"
        }
      ],
      "payable": false,
      "stateMutability": "view",
      "type": "function"
    },
    {
      "constant": true,
      "inputs": [],
      "name": "getWeeksSinceLaunch",
      "outputs": [
        {
          "name": "",
          "type": "uint256"
        }
      ],
      "payable": false,
      "stateMutability": "view",
      "type": "function"
    },
    {
      "constant": true,
      "inputs": [],
      "name": "isDuringBonusPeriod",
      "outputs": [
        {
          "name": "",
          "type": "bool"
        }
      ],
      "payable": false,
      "stateMutability": "view",
      "type": "function"
    },
    {
      "constant": false,
      "inputs": [
        {
          "name": "_staker",
          "type": "address"
        },
        {
          "name": "_stakeIndex",
          "type": "uint256"
        }
      ],
      "name": "removeArrayEntry",
      "outputs": [],
      "payable": false,
      "stateMutability": "nonpayable",
      "type": "function"
    },
    {
      "constant": true,
      "inputs": [
        {
          "name": "_principle",
          "type": "uint256"
        },
        {
          "name": "_periods",
          "type": "uint256"
        },
        {
          "name": "_rate",
          "type": "uint256"
        }
      ],
      "name": "compound",
      "outputs": [
        {
          "name": "",
          "type": "uint256"
        }
      ],
      "payable": false,
      "stateMutability": "pure",
      "type": "function"
    },
    {
      "constant": true,
      "inputs": [
        {
          "name": "_staker",
          "type": "address"
        },
        {
          "name": "_stakeIndex",
          "type": "uint256"
        }
      ],
      "name": "calculateStakingRewards",
      "outputs": [
        {
          "name": "",
          "type": "uint256"
        }
      ],
      "payable": false,
      "stateMutability": "view",
      "type": "function"
    },
    {
      "constant": true,
      "inputs": [
        {
          "name": "_stakeAmount",
          "type": "uint256"
        },
        {
          "name": "_stakeTime",
          "type": "uint256"
        },
        {
          "name": "_unlockTime",
          "type": "uint256"
        }
      ],
      "name": "calculateWeAreAllSatoshiRewards",
      "outputs": [
        {
          "name": "",
          "type": "uint256"
        }
      ],
      "payable": false,
      "stateMutability": "view",
      "type": "function"
    },
    {
      "constant": true,
      "inputs": [
        {
          "name": "_stakeAmount",
          "type": "uint256"
        }
      ],
      "name": "calculateViralRewards",
      "outputs": [
        {
          "name": "",
          "type": "uint256"
        }
      ],
      "payable": false,
      "stateMutability": "view",
      "type": "function"
    },
    {
      "constant": true,
      "inputs": [
        {
          "name": "_stakeAmount",
          "type": "uint256"
        }
      ],
      "name": "calculateCritMassRewards",
      "outputs": [
        {
          "name": "",
          "type": "uint256"
        }
      ],
      "payable": false,
      "stateMutability": "view",
      "type": "function"
    },
    {
      "constant": true,
      "inputs": [
        {
          "name": "_staker",
          "type": "address"
        },
        {
          "name": "_stakeIndex",
          "type": "uint256"
        }
      ],
      "name": "calculateAdditionalRewards",
      "outputs": [
        {
          "name": "",
          "type": "uint256"
        }
      ],
      "payable": false,
      "stateMutability": "view",
      "type": "function"
    },
    {
      "constant": true,
      "inputs": [
        {
          "name": "_staker",
          "type": "address"
        },
        {
          "name": "_startIndex",
          "type": "uint256"
        },
        {
          "name": "_endIndex",
          "type": "uint256"
        }
      ],
      "name": "getStakedAtIndexes",
      "outputs": [
        {
          "name": "",
          "type": "uint256"
        }
      ],
      "payable": false,
      "stateMutability": "view",
      "type": "function"
    },
    {
      "constant": true,
      "inputs": [
        {
          "name": "_staker",
          "type": "address"
        }
      ],
      "name": "getTotalUserStaked",
      "outputs": [
        {
          "name": "",
          "type": "uint256"
        }
      ],
      "payable": false,
      "stateMutability": "view",
      "type": "function"
    },
    {
      "constant": true,
      "inputs": [
        {
          "name": "_staker",
          "type": "address"
        },
        {
          "name": "_stakeIndex",
          "type": "uint256"
        }
      ],
      "name": "calculateSingleStakePlusRewards",
      "outputs": [
        {
          "name": "",
          "type": "uint256"
        }
      ],
      "payable": false,
      "stateMutability": "view",
      "type": "function"
    },
    {
      "constant": false,
      "inputs": [
        {
          "name": "_value",
          "type": "uint256"
        },
        {
          "name": "_unlockTime",
          "type": "uint256"
        }
      ],
      "name": "startStake",
      "outputs": [
        {
          "name": "",
          "type": "bool"
        }
      ],
      "payable": false,
      "stateMutability": "nonpayable",
      "type": "function"
    },
    {
      "constant": false,
      "inputs": [
        {
          "name": "_staker",
          "type": "address"
        },
        {
          "name": "_stakeIndex",
          "type": "uint256"
        }
      ],
      "name": "claimSingleStakingReward",
      "outputs": [
        {
          "name": "",
          "type": "bool"
        }
      ],
      "payable": false,
      "stateMutability": "nonpayable",
      "type": "function"
    },
    {
      "constant": false,
      "inputs": [
        {
          "name": "_staker",
          "type": "address"
        },
        {
          "name": "_startIndex",
          "type": "uint256"
        },
        {
          "name": "_endIndex",
          "type": "uint256"
        }
      ],
      "name": "claimMultipleStakingRewards",
      "outputs": [
        {
          "name": "",
          "type": "bool"
        }
      ],
      "payable": false,
      "stateMutability": "nonpayable",
      "type": "function"
    },
    {
      "constant": false,
      "inputs": [
        {
          "name": "_staker",
          "type": "address"
        }
      ],
      "name": "claimAllStakingRewards",
      "outputs": [
        {
          "name": "",
          "type": "bool"
        }
      ],
      "payable": false,
      "stateMutability": "nonpayable",
      "type": "function"
    }
  ],
  "bytecode": "0x60806040526000600755600060085534801561001a57600080fd5b50614e758061002a6000396000f300608060405260043610610267576000357c0100000000000000000000000000000000000000000000000000000000900463ffffffff1680630867c0ad1461026c57806308b4312b1461030a578063095ea7b314610335578063128bfcae1461039a57806316043f5d146103e95780631765f4bf1461041457806318160ddd1461043f578063229cfc321461046a57806323b872dd146104ab5780632c3ee88c146105305780632c48d57b146105715780634f265bf4146105a057806352aa3e6c146105cb5780635418796c146105f657806365925c2b1461069f57806366188463146106ca578063687cf4a41461072f5780636aaf67e2146107785780636e0d6df2146107ab57806370a08231146107f3578063753bf8cd1461084a57806375889a2b14610949578063790ca413146109a45780637cdafe9d146109cf57806381437de814610a3057806381cd84b914610a95578063842e298114610b215780638716391914610c915780638d854c3414610cde5780638f16981614610d09578063938b5f3214610d8657806394ce28e814610ddd5780639d65b89214610e08578063a9059cbb14610e33578063b1ccf19314610e98578063b242c9bf14610f5e578063b80ac7df14610fc9578063bac5c04814611055578063cb9c501f146110ac578063ce267b551461111b578063cfc2334e146111e5578063d73dd62314611286578063dd62ed3e146112eb578063e043ee9c14611362578063e073ef6914611379578063e26e7b5014611420578063e39a385a14611461578063ebe558e9146114c2578063f35dad4014611517578063f3c85eba14611542578063f6c45d0214611597575b600080fd5b34801561027857600080fd5b506102f06004803603810190808035600019169060200190929190803560ff16906020019092919080356000191690602001909291908035600019169060200190929190803573ffffffffffffffffffffffffffffffffffffffff1690602001909291908035151590602001909291905050506115f8565b604051808215151515815260200191505060405180910390f35b34801561031657600080fd5b5061031f6117e3565b6040518082815260200191505060405180910390f35b34801561034157600080fd5b50610380600480360381019080803573ffffffffffffffffffffffffffffffffffffffff169060200190929190803590602001909291905050506117e9565b604051808215151515815260200191505060405180910390f35b3480156103a657600080fd5b506103cf60048036038101908080359060200190929190803590602001909291905050506118db565b604051808215151515815260200191505060405180910390f35b3480156103f557600080fd5b506103fe611bdf565b6040518082815260200191505060405180910390f35b34801561042057600080fd5b50610429611be4565b6040518082815260200191505060405180910390f35b34801561044b57600080fd5b50610454611bea565b6040518082815260200191505060405180910390f35b34801561047657600080fd5b5061049560048036038101908080359060200190929190505050611bf4565b6040518082815260200191505060405180910390f35b3480156104b757600080fd5b50610516600480360381019080803573ffffffffffffffffffffffffffffffffffffffff169060200190929190803573ffffffffffffffffffffffffffffffffffffffff16906020019092919080359060200190929190505050611c39565b604051808215151515815260200191505060405180910390f35b34801561053c57600080fd5b5061055b60048036038101908080359060200190929190505050611ff3565b6040518082815260200191505060405180910390f35b34801561057d57600080fd5b5061058661236d565b604051808215151515815260200191505060405180910390f35b3480156105ac57600080fd5b506105b5612380565b6040518082815260200191505060405180910390f35b3480156105d757600080fd5b506105e0612387565b6040518082815260200191505060405180910390f35b34801561060257600080fd5b5061065d600480360381019080803590602001908201803590602001908080601f016020809104026020016040519081016040528093929190818152602001838380828437820191505050505050919291929050505061238d565b604051808273ffffffffffffffffffffffffffffffffffffffff1673ffffffffffffffffffffffffffffffffffffffff16815260200191505060405180910390f35b3480156106ab57600080fd5b506106b4612413565b6040518082815260200191505060405180910390f35b3480156106d657600080fd5b50610715600480360381019080803573ffffffffffffffffffffffffffffffffffffffff1690602001909291908035906020019092919050505061241b565b604051808215151515815260200191505060405180910390f35b34801561073b57600080fd5b5061075e60048036038101908080356000191690602001909291905050506126ac565b604051808215151515815260200191505060405180910390f35b34801561078457600080fd5b5061078d6126cc565b60405180826000191660001916815260200191505060405180910390f35b3480156107b757600080fd5b506107d6600480360381019080803590602001909291905050506126d2565b604051808381526020018281526020019250505060405180910390f35b3480156107ff57600080fd5b50610834600480360381019080803573ffffffffffffffffffffffffffffffffffffffff1690602001909291905050506126f6565b6040518082815260200191505060405180910390f35b34801561085657600080fd5b506109336004803603810190808035906020019092919080359060200190820180359060200190808060200260200160405190810160405280939291908181526020018383602002808284378201915050505050509192919290803590602001908201803590602001908080601f0160208091040260200160405190810160405280939291908181526020018383808284378201915050505050509192919290803515159060200190929190803560ff1690602001909291908035600019169060200190929190803560001916906020019092919050505061273e565b6040518082815260200191505060405180910390f35b34801561095557600080fd5b5061098a600480360381019080803573ffffffffffffffffffffffffffffffffffffffff1690602001909291905050506129fe565b604051808215151515815260200191505060405180910390f35b3480156109b057600080fd5b506109b9612b83565b6040518082815260200191505060405180910390f35b3480156109db57600080fd5b50610a1a600480360381019080803573ffffffffffffffffffffffffffffffffffffffff16906020019092919080359060200190929190505050612b89565b6040518082815260200191505060405180910390f35b348015610a3c57600080fd5b50610a7b600480360381019080803573ffffffffffffffffffffffffffffffffffffffff16906020019092919080359060200190929190505050612c9b565b604051808215151515815260200191505060405180910390f35b348015610aa157600080fd5b50610b07600480360381019080803560001916906020019092919080359060200190820180359060200190808060200260200160405190810160405280939291908181526020018383602002808284378201915050505050509192919290505050613159565b604051808215151515815260200191505060405180910390f35b348015610b2d57600080fd5b50610b62600480360381019080803573ffffffffffffffffffffffffffffffffffffffff1690602001909291905050506131a4565b6040518080602001806020018060200180602001858103855289818151815260200191508051906020019060200280838360005b83811015610bb1578082015181840152602081019050610b96565b50505050905001858103845288818151815260200191508051906020019060200280838360005b83811015610bf3578082015181840152602081019050610bd8565b50505050905001858103835287818151815260200191508051906020019060200280838360005b83811015610c35578082015181840152602081019050610c1a565b50505050905001858103825286818151815260200191508051906020019060200280838360005b83811015610c77578082015181840152602081019050610c5c565b505050509050019850505050505050505060405180910390f35b348015610c9d57600080fd5b50610cdc600480360381019080803573ffffffffffffffffffffffffffffffffffffffff169060200190929190803590602001909291905050506133d6565b005b348015610cea57600080fd5b50610cf36134c7565b6040518082815260200191505060405180910390f35b348015610d1557600080fd5b50610d54600480360381019080803573ffffffffffffffffffffffffffffffffffffffff169060200190929190803590602001909291905050506134cd565b604051808681526020018581526020018481526020018381526020018281526020019550505050505060405180910390f35b348015610d9257600080fd5b50610d9b61351f565b604051808273ffffffffffffffffffffffffffffffffffffffff1673ffffffffffffffffffffffffffffffffffffffff16815260200191505060405180910390f35b348015610de957600080fd5b50610df2613545565b6040518082815260200191505060405180910390f35b348015610e1457600080fd5b50610e1d613587565b6040518082815260200191505060405180910390f35b348015610e3f57600080fd5b50610e7e600480360381019080803573ffffffffffffffffffffffffffffffffffffffff1690602001909291908035906020019092919050505061358d565b604051808215151515815260200191505060405180910390f35b348015610ea457600080fd5b50610f4860048036038101908080359060200190929190803590602001908201803590602001919091929391929390803590602001908201803590602001919091929391929390803515159060200190929190803560ff16906020019092919080356000191690602001909291908035600019169060200190929190803573ffffffffffffffffffffffffffffffffffffffff1690602001909291905050506137ac565b6040518082815260200191505060405180910390f35b348015610f6a57600080fd5b50610fb3600480360381019080803573ffffffffffffffffffffffffffffffffffffffff169060200190929190803590602001909291908035906020019092919050505061397c565b6040518082815260200191505060405180910390f35b348015610fd557600080fd5b5061103b600480360381019080803590602001908201803590602001908080602002602001604051908101604052809392919081815260200183836020028082843782019150505050505091929192908035600019169060200190929190505050613b45565b604051808215151515815260200191505060405180910390f35b34801561106157600080fd5b50611096600480360381019080803573ffffffffffffffffffffffffffffffffffffffff169060200190929190505050613b5c565b6040518082815260200191505060405180910390f35b3480156110b857600080fd5b50611101600480360381019080803573ffffffffffffffffffffffffffffffffffffffff1690602001909291908035906020019092919080359060200190929190505050613bb6565b604051808215151515815260200191505060405180910390f35b34801561112757600080fd5b506111cb600480360381019080803573ffffffffffffffffffffffffffffffffffffffff169060200190929190803590602001908201803590602001908080601f0160208091040260200160405190810160405280939291908181526020018383808284378201915050505050509192919290803560ff16906020019092919080356000191690602001909291908035600019169060200190929190505050613cc0565b604051808215151515815260200191505060405180910390f35b3480156111f157600080fd5b5061126c60048036038101908080356bffffffffffffffffffffffff191690602001909291908035906020019092919080359060200190820180359060200190808060200260200160405190810160405280939291908181526020018383602002808284378201915050505050509192919290505050613ddf565b604051808215151515815260200191505060405180910390f35b34801561129257600080fd5b506112d1600480360381019080803573ffffffffffffffffffffffffffffffffffffffff16906020019092919080359060200190929190505050613ea0565b604051808215151515815260200191505060405180910390f35b3480156112f757600080fd5b5061134c600480360381019080803573ffffffffffffffffffffffffffffffffffffffff169060200190929190803573ffffffffffffffffffffffffffffffffffffffff16906020019092919050505061409c565b6040518082815260200191505060405180910390f35b34801561136e57600080fd5b50611377614123565b005b34801561138557600080fd5b506113ec600480360381019080803590602001908201803590602001908080601f01602080910402602001604051908101604052809392919081815260200183838082843782019150505050505091929192908035151590602001909291905050506141d2565b60405180826bffffffffffffffffffffffff19166bffffffffffffffffffffffff1916815260200191505060405180910390f35b34801561142c57600080fd5b5061144b60048036038101908080359060200190929190505050614591565b6040518082815260200191505060405180910390f35b34801561146d57600080fd5b506114ac600480360381019080803573ffffffffffffffffffffffffffffffffffffffff169060200190929190803590602001909291905050506145d6565b6040518082815260200191505060405180910390f35b3480156114ce57600080fd5b506115016004803603810190808035906020019092919080359060200190929190803590602001909291905050506146cc565b6040518082815260200191505060405180910390f35b34801561152357600080fd5b5061152c614815565b6040518082815260200191505060405180910390f35b34801561154e57600080fd5b5061158160048036038101908080359060200190929190803590602001909291908035906020019092919050505061481b565b6040518082815260200191505060405180910390f35b3480156115a357600080fd5b506115e2600480360381019080803573ffffffffffffffffffffffffffffffffffffffff16906020019092919080359060200190929190505050614918565b6040518082815260200191505060405180910390f35b600080606083151561160c57889150611726565b6040805190810160405280601c81526020017f19457468657265756d205369676e6564204d6573736167653a0a333200000000815250905080896040516020018083805190602001908083835b60208310151561167e5780518252602082019150602081019050602083039250611659565b6001836020036101000a0380198251168184511680821785525050505050509050018260001916600019168152602001925050506040516020818303038152906040526040518082805190602001908083835b6020831015156116f657805182526020820191506020810190506020830392506116d1565b6001836020036101000a038019825116818451168082178552505050505050905001915050604051809103902091505b8473ffffffffffffffffffffffffffffffffffffffff166001838a8a8a604051600081526020016040526040518085600019166000191681526020018460ff1660ff1681526020018360001916600019168152602001826000191660001916815260200194505050505060206040516020810390808403906000865af11580156117b4573d6000803e3d6000fd5b5050506020604051035173ffffffffffffffffffffffffffffffffffffffff1614925050509695505050505050565b60095481565b600081600260003373ffffffffffffffffffffffffffffffffffffffff1673ffffffffffffffffffffffffffffffffffffffff16815260200190815260200160002060008573ffffffffffffffffffffffffffffffffffffffff1673ffffffffffffffffffffffffffffffffffffffff168152602001908152602001600020819055508273ffffffffffffffffffffffffffffffffffffffff163373ffffffffffffffffffffffffffffffffffffffff167f8c5be1e5ebec7d5bd14f71427d1e84f3dd0314c0f7b2291e5b200ac8c7c3b925846040518082815260200191505060405180910390a36001905092915050565b600080339050836000808373ffffffffffffffffffffffffffffffffffffffff1673ffffffffffffffffffffffffffffffffffffffff168152602001908152602001600020541015151561192e57600080fd5b6119456312cc030042614a9e90919063ffffffff16565b831115151561195357600080fd5b61195b614123565b6119ac846000808473ffffffffffffffffffffffffffffffffffffffff1673ffffffffffffffffffffffffffffffffffffffff16815260200190815260200160002054614aba90919063ffffffff16565b6000808373ffffffffffffffffffffffffffffffffffffffff1673ffffffffffffffffffffffffffffffffffffffff16815260200190815260200160002081905550611a3f846000803073ffffffffffffffffffffffffffffffffffffffff1673ffffffffffffffffffffffffffffffffffffffff16815260200190815260200160002054614a9e90919063ffffffff16565b6000803073ffffffffffffffffffffffffffffffffffffffff1673ffffffffffffffffffffffffffffffffffffffff16815260200190815260200160002081905550600e60008273ffffffffffffffffffffffffffffffffffffffff1673ffffffffffffffffffffffffffffffffffffffff16815260200190815260200160002060a06040519081016040528086815260200142815260200185815260200160065481526020016001548152509080600181540180825580915050906001820390600052602060002090600502016000909192909190915060008201518160000155602082015181600101556040820151816002015560608201518160030155608082015181600401555050506000611bad82611ba86001600e60008773ffffffffffffffffffffffffffffffffffffffff1673ffffffffffffffffffffffffffffffffffffffff16815260200190815260200160002080549050614aba90919063ffffffff16565b614918565b111515611bb957600080fd5b611bce84600654614a9e90919063ffffffff16565b600681905550600191505092915050565b600181565b60065481565b6000600154905090565b6000611c32600a611c24600d54611c1660085487614ad390919063ffffffff16565b614b0b90919063ffffffff16565b614b0b90919063ffffffff16565b9050919050565b60008073ffffffffffffffffffffffffffffffffffffffff168373ffffffffffffffffffffffffffffffffffffffff1614151515611c7657600080fd5b6000808573ffffffffffffffffffffffffffffffffffffffff1673ffffffffffffffffffffffffffffffffffffffff168152602001908152602001600020548211151515611cc357600080fd5b600260008573ffffffffffffffffffffffffffffffffffffffff1673ffffffffffffffffffffffffffffffffffffffff16815260200190815260200160002060003373ffffffffffffffffffffffffffffffffffffffff1673ffffffffffffffffffffffffffffffffffffffff168152602001908152602001600020548211151515611d4e57600080fd5b611d9f826000808773ffffffffffffffffffffffffffffffffffffffff1673ffffffffffffffffffffffffffffffffffffffff16815260200190815260200160002054614aba90919063ffffffff16565b6000808673ffffffffffffffffffffffffffffffffffffffff1673ffffffffffffffffffffffffffffffffffffffff16815260200190815260200160002081905550611e32826000808673ffffffffffffffffffffffffffffffffffffffff1673ffffffffffffffffffffffffffffffffffffffff16815260200190815260200160002054614a9e90919063ffffffff16565b6000808573ffffffffffffffffffffffffffffffffffffffff1673ffffffffffffffffffffffffffffffffffffffff16815260200190815260200160002081905550611f0382600260008773ffffffffffffffffffffffffffffffffffffffff1673ffffffffffffffffffffffffffffffffffffffff16815260200190815260200160002060003373ffffffffffffffffffffffffffffffffffffffff1673ffffffffffffffffffffffffffffffffffffffff16815260200190815260200160002054614aba90919063ffffffff16565b600260008673ffffffffffffffffffffffffffffffffffffffff1673ffffffffffffffffffffffffffffffffffffffff16815260200190815260200160002060003373ffffffffffffffffffffffffffffffffffffffff1673ffffffffffffffffffffffffffffffffffffffff168152602001908152602001600020819055508273ffffffffffffffffffffffffffffffffffffffff168473ffffffffffffffffffffffffffffffffffffffff167fddf252ad1be2c89b69c2b068fc378daa952ba7f163c4a11628f55a4df523b3ef846040518082815260200191505060405180910390a3600190509392505050565b60008060008060006120136402540be40087614ad390919063ffffffff16565b9350683635c9adc5dea000008411156120ac5769152d02c7e14af68000008410156120945761208d640ba43b740061207f6009612071600261206364174876e8008b614aba90919063ffffffff16565b614ad390919063ffffffff16565b614b0b90919063ffffffff16565b614a9e90919063ffffffff16565b93506120ab565b6120a8600485614b0b90919063ffffffff16565b93505b5b42600454106120bc5760006120e7565b6120e662093a806120d860045442614aba90919063ffffffff16565b614b0b90919063ffffffff16565b5b9250612110612100600285614ad390919063ffffffff16565b6064614aba90919063ffffffff16565b9150612138606461212a8487614ad390919063ffffffff16565b614b0b90919063ffffffff16565b9050602d83111561214b57809450612364565b60208311156121825761217b606461216d606584614ad390919063ffffffff16565b614b0b90919063ffffffff16565b9450612364565b60188311156121b9576121b260646121a4606684614ad390919063ffffffff16565b614b0b90919063ffffffff16565b9450612364565b60128311156121f0576121e960646121db606784614ad390919063ffffffff16565b614b0b90919063ffffffff16565b9450612364565b600e831115612227576122206064612212606884614ad390919063ffffffff16565b614b0b90919063ffffffff16565b9450612364565b600a83111561225e576122576064612249606984614ad390919063ffffffff16565b614b0b90919063ffffffff16565b9450612364565b60078311156122955761228e6064612280606a84614ad390919063ffffffff16565b614b0b90919063ffffffff16565b9450612364565b60058311156122cc576122c560646122b7606b84614ad390919063ffffffff16565b614b0b90919063ffffffff16565b9450612364565b6003831115612303576122fc60646122ee606c84614ad390919063ffffffff16565b614b0b90919063ffffffff16565b9450612364565b600183111561233a576123336064612325606d84614ad390919063ffffffff16565b614b0b90919063ffffffff16565b9450612364565b6123616064612353606e84614ad390919063ffffffff16565b614b0b90919063ffffffff16565b94505b50505050919050565b60006032612379613545565b1115905090565b620d2f0081565b60085481565b600073ffffffffffffffffffffffffffffffffffffffff826040518082805190602001908083835b6020831015156123da57805182526020820191506020810190506020830392506123b5565b6001836020036101000a038019825116818451168082178552505050505050905001915050604051809103902060019004169050919050565b6312cc030081565b600080600260003373ffffffffffffffffffffffffffffffffffffffff1673ffffffffffffffffffffffffffffffffffffffff16815260200190815260200160002060008573ffffffffffffffffffffffffffffffffffffffff1673ffffffffffffffffffffffffffffffffffffffff1681526020019081526020016000205490508083111561252c576000600260003373ffffffffffffffffffffffffffffffffffffffff1673ffffffffffffffffffffffffffffffffffffffff16815260200190815260200160002060008673ffffffffffffffffffffffffffffffffffffffff1673ffffffffffffffffffffffffffffffffffffffff168152602001908152602001600020819055506125c0565b61253f8382614aba90919063ffffffff16565b600260003373ffffffffffffffffffffffffffffffffffffffff1673ffffffffffffffffffffffffffffffffffffffff16815260200190815260200160002060008673ffffffffffffffffffffffffffffffffffffffff1673ffffffffffffffffffffffffffffffffffffffff168152602001908152602001600020819055505b8373ffffffffffffffffffffffffffffffffffffffff163373ffffffffffffffffffffffffffffffffffffffff167f8c5be1e5ebec7d5bd14f71427d1e84f3dd0314c0f7b2291e5b200ac8c7c3b925600260003373ffffffffffffffffffffffffffffffffffffffff1673ffffffffffffffffffffffffffffffffffffffff16815260200190815260200160002060008873ffffffffffffffffffffffffffffffffffffffff1673ffffffffffffffffffffffffffffffffffffffff168152602001908152602001600020546040518082815260200191505060405180910390a3600191505092915050565b600c6020528060005260406000206000915054906101000a900460ff1681565b600a5481565b600b6020528060005260406000206000915090508060000154908060010154905082565b60008060008373ffffffffffffffffffffffffffffffffffffffff1673ffffffffffffffffffffffffffffffffffffffff168152602001908152602001600020549050919050565b6000806000600454421015151561275457600080fd5b61275c614123565b61276688886141d2565b9150818a60405160200180836bffffffffffffffffffffffff19166bffffffffffffffffffffffff19168152601401828152602001925050506040516020818303038152906040526040518082805190602001908083835b6020831015156127e357805182526020820191506020810190506020830392506127be565b6001836020036101000a0380198251168184511680821785525050505050509050019150506040518091039020905061281c818a613159565b151561282757600080fd5b6128343389888888613cc0565b151561283f57600080fd5b6001600c6000836000191660001916815260200190815260200160002060006101000a81548160ff02191690831515021790555061287c8a611ff3565b925060095461289684600754614a9e90919063ffffffff16565b111515156128a357600080fd5b6128b883600754614a9e90919063ffffffff16565b60078190555061290f836000803373ffffffffffffffffffffffffffffffffffffffff1673ffffffffffffffffffffffffffffffffffffffff16815260200190815260200160002054614a9e90919063ffffffff16565b6000803373ffffffffffffffffffffffffffffffffffffffff1673ffffffffffffffffffffffffffffffffffffffff1681526020019081526020016000208190555061296683600154614a9e90919063ffffffff16565b6001819055506129826001600854614a9e90919063ffffffff16565b6008819055503373ffffffffffffffffffffffffffffffffffffffff16600073ffffffffffffffffffffffffffffffffffffffff167fddf252ad1be2c89b69c2b068fc378daa952ba7f163c4a11628f55a4df523b3ef856040518082815260200191505060405180910390a38292505050979650505050505050565b600080600080600e60008673ffffffffffffffffffffffffffffffffffffffff1673ffffffffffffffffffffffffffffffffffffffff16815260200190815260200160002080549050925060009150600090506000831415612a635760009350612b7b565b5b82821015612b7657600e60008673ffffffffffffffffffffffffffffffffffffffff1673ffffffffffffffffffffffffffffffffffffffff16815260200190815260200160002080549050612ac3600183614a9e90919063ffffffff16565b11612ace5780612ad1565b60005b9050600e60008673ffffffffffffffffffffffffffffffffffffffff1673ffffffffffffffffffffffffffffffffffffffff16815260200190815260200160002081815481101515612b1f57fe5b90600052602060002090600502016002015442101515612b4557612b438582612c9b565b505b612b59600183614a9e90919063ffffffff16565b9150612b6f600182614a9e90919063ffffffff16565b9050612a64565b600193505b505050919050565b60045481565b600080600080600080600e60008973ffffffffffffffffffffffffffffffffffffffff1673ffffffffffffffffffffffffffffffffffffffff16815260200190815260200160002087815481101515612bde57fe5b906000526020600020906005020194506032612c1e62093a80612c106004548960010154614aba90919063ffffffff16565b614b0b90919063ffffffff16565b111515612c8b57612c3c8560000154866001015487600201546146cc565b9350612c4b8560000154611bf4565b9250612c5a8560000154614591565b9150612c8182612c738587614a9e90919063ffffffff16565b614a9e90919063ffffffff16565b9050809550612c90565b600095505b505050505092915050565b6000612ca5614da0565b600080600080600e60008973ffffffffffffffffffffffffffffffffffffffff1673ffffffffffffffffffffffffffffffffffffffff16815260200190815260200160002087815481101515612cf757fe5b906000526020600020906005020160a0604051908101604052908160008201548152602001600182015481526020016002820154815260200160038201548152602001600482015481525050945084604001514210151515612d5857600080fd5b612d60614123565b84600001519350612d718888614918565b9250612d7d8888612b89565b9150612da482612d968587614a9e90919063ffffffff16565b614a9e90919063ffffffff16565b9050612dbb84600654614aba90919063ffffffff16565b600681905550612e12846000803073ffffffffffffffffffffffffffffffffffffffff1673ffffffffffffffffffffffffffffffffffffffff16815260200190815260200160002054614aba90919063ffffffff16565b6000803073ffffffffffffffffffffffffffffffffffffffff1673ffffffffffffffffffffffffffffffffffffffff16815260200190815260200160002081905550612ea5816000808b73ffffffffffffffffffffffffffffffffffffffff1673ffffffffffffffffffffffffffffffffffffffff16815260200190815260200160002054614a9e90919063ffffffff16565b6000808a73ffffffffffffffffffffffffffffffffffffffff1673ffffffffffffffffffffffffffffffffffffffff16815260200190815260200160002081905550612f5a82600080600360009054906101000a900473ffffffffffffffffffffffffffffffffffffffff1673ffffffffffffffffffffffffffffffffffffffff1673ffffffffffffffffffffffffffffffffffffffff16815260200190815260200160002054614a9e90919063ffffffff16565b600080600360009054906101000a900473ffffffffffffffffffffffffffffffffffffffff1673ffffffffffffffffffffffffffffffffffffffff1673ffffffffffffffffffffffffffffffffffffffff168152602001908152602001600020819055508773ffffffffffffffffffffffffffffffffffffffff163073ffffffffffffffffffffffffffffffffffffffff167fddf252ad1be2c89b69c2b068fc378daa952ba7f163c4a11628f55a4df523b3ef87600001516040518082815260200191505060405180910390a361303c83600154614a9e90919063ffffffff16565b60018190555061306a613059600284614ad390919063ffffffff16565b600154614a9e90919063ffffffff16565b6001819055508773ffffffffffffffffffffffffffffffffffffffff167f0f6798a560793a54c3bcfe86a93cde1e73087d944c0ea20544137d41213968856130bb8585614a9e90919063ffffffff16565b6040518082815260200191505060405180910390a2600360009054906101000a900473ffffffffffffffffffffffffffffffffffffffff1673ffffffffffffffffffffffffffffffffffffffff167f0f6798a560793a54c3bcfe86a93cde1e73087d944c0ea20544137d4121396885836040518082815260200191505060405180910390a261314a88886133d6565b60019550505050505092915050565b6000801515600c6000856000191660001916815260200190815260200160002060009054906101000a900460ff16151514801561319c575061319b8284613b45565b5b905092915050565b6060806060806000606080606080600080600e60008d73ffffffffffffffffffffffffffffffffffffffff1673ffffffffffffffffffffffffffffffffffffffff168152602001908152602001600020805490509650866040519080825280602002602001820160405280156132295781602001602082028038833980820191505090505b5095508660405190808252806020026020018201604052801561325b5781602001602082028038833980820191505090505b5094508660405190808252806020026020018201604052801561328d5781602001602082028038833980820191505090505b509350866040519080825280602002602001820160405280156132bf5781602001602082028038833980820191505090505b509250600091505b868210156133bc57600e60008d73ffffffffffffffffffffffffffffffffffffffff1673ffffffffffffffffffffffffffffffffffffffff1681526020019081526020016000208281548110151561331b57fe5b906000526020600020906005020190508060000154868381518110151561333e57fe5b90602001906020020181815250508060010154858381518110151561335f57fe5b90602001906020020181815250508060020154848381518110151561338057fe5b9060200190602002018181525050806003015483838151811015156133a157fe5b906020019060200201818152505081806001019250506132c7565b858585859a509a509a509a50505050505050509193509193565b6000600e60008473ffffffffffffffffffffffffffffffffffffffff1673ffffffffffffffffffffffffffffffffffffffff16815260200190815260200160002090508061343260018380549050614aba90919063ffffffff16565b81548110151561343e57fe5b9060005260206000209060050201818381548110151561345a57fe5b906000526020600020906005020160008201548160000155600182015481600101556002820154816002015560038201548160030155600482015481600401559050506134b560018280549050614aba90919063ffffffff16565b81816134c19190614dd0565b50505050565b600d5481565b600e602052816000526040600020818154811015156134e857fe5b9060005260206000209060050201600091509150508060000154908060010154908060020154908060030154908060040154905085565b600360009054906101000a900473ffffffffffffffffffffffffffffffffffffffff1681565b60006004544211613557576000613582565b61358162093a8061357360045442614aba90919063ffffffff16565b614b0b90919063ffffffff16565b5b905090565b60055481565b60008073ffffffffffffffffffffffffffffffffffffffff168373ffffffffffffffffffffffffffffffffffffffff16141515156135ca57600080fd5b6000803373ffffffffffffffffffffffffffffffffffffffff1673ffffffffffffffffffffffffffffffffffffffff16815260200190815260200160002054821115151561361757600080fd5b613668826000803373ffffffffffffffffffffffffffffffffffffffff1673ffffffffffffffffffffffffffffffffffffffff16815260200190815260200160002054614aba90919063ffffffff16565b6000803373ffffffffffffffffffffffffffffffffffffffff1673ffffffffffffffffffffffffffffffffffffffff168152602001908152602001600020819055506136fb826000808673ffffffffffffffffffffffffffffffffffffffff1673ffffffffffffffffffffffffffffffffffffffff16815260200190815260200160002054614a9e90919063ffffffff16565b6000808573ffffffffffffffffffffffffffffffffffffffff1673ffffffffffffffffffffffffffffffffffffffff168152602001908152602001600020819055508273ffffffffffffffffffffffffffffffffffffffff163373ffffffffffffffffffffffffffffffffffffffff167fddf252ad1be2c89b69c2b068fc378daa952ba7f163c4a11628f55a4df523b3ef846040518082815260200191505060405180910390a36001905092915050565b60003373ffffffffffffffffffffffffffffffffffffffff168273ffffffffffffffffffffffffffffffffffffffff16141515156137e957600080fd5b600073ffffffffffffffffffffffffffffffffffffffff168273ffffffffffffffffffffffffffffffffffffffff161415151561382557600080fd5b6138958b8b8b808060200260200160405190810160405280939291908181526020018383602002808284378201915050505050508a8a8080601f0160208091040260200160405190810160405280939291908181526020018383808284378201915050505050508989898961273e565b90506138fb6138ae601483614b0b90919063ffffffff16565b6000808573ffffffffffffffffffffffffffffffffffffffff1673ffffffffffffffffffffffffffffffffffffffff16815260200190815260200160002054614a9e90919063ffffffff16565b6000808473ffffffffffffffffffffffffffffffffffffffff1673ffffffffffffffffffffffffffffffffffffffff16815260200190815260200160002081905550613965613954601483614b0b90919063ffffffff16565b600154614a9e90919063ffffffff16565b6001819055508090509a9950505050505050505050565b6000806000806001600e60008973ffffffffffffffffffffffffffffffffffffffff1673ffffffffffffffffffffffffffffffffffffffff168152602001908152602001600020805490500392508285111515156139d957600080fd5b600086101515156139e957600080fd5b6000600e60008973ffffffffffffffffffffffffffffffffffffffff1673ffffffffffffffffffffffffffffffffffffffff168152602001908152602001600020805490501415613a3d5760009350613b3b565b84861415613aab57600e60008873ffffffffffffffffffffffffffffffffffffffff1673ffffffffffffffffffffffffffffffffffffffff1681526020019081526020016000206000815481101515613a9257fe5b9060005260206000209060050201600001549350613b3b565b8590505b8481111515613b3757613b28600e60008973ffffffffffffffffffffffffffffffffffffffff1673ffffffffffffffffffffffffffffffffffffffff16815260200190815260200160002082815481101515613b0757fe5b90600052602060002090600502016000015483614a9e90919063ffffffff16565b91508080600101915050613aaf565b8193505b5050509392505050565b6000613b5483600a5484614b21565b905092915050565b6000613baf8260006001600e60008773ffffffffffffffffffffffffffffffffffffffff1673ffffffffffffffffffffffffffffffffffffffff168152602001908152602001600020805490500361397c565b9050919050565b600080828411151515613bc857600080fd5b600e60008673ffffffffffffffffffffffffffffffffffffffff1673ffffffffffffffffffffffffffffffffffffffff1681526020019081526020016000208054905083101515613c1857600080fd5b8390505b8281111515613cb457600e60008673ffffffffffffffffffffffffffffffffffffffff1673ffffffffffffffffffffffffffffffffffffffff1681526020019081526020016000206000815481101515613c7257fe5b90600052602060002090600502016002015442101515613caf57613c97856000612c9b565b50613cac600182614a9e90919063ffffffff16565b90505b613c1c565b60019150509392505050565b6000613dd4600287604051602001808273ffffffffffffffffffffffffffffffffffffffff1673ffffffffffffffffffffffffffffffffffffffff166c010000000000000000000000000281526014019150506040516020818303038152906040526040518082805190602001908083835b602083101515613d575780518252602082019150602081019050602083039250613d32565b6001836020036101000a0380198251168184511680821785525050505050509050019150506020604051808303816000865af1158015613d9b573d6000803e3d6000fd5b5050506040513d6020811015613db057600080fd5b8101908080519060200190929190505050858585613dcd8a61238d565b60006115f8565b905095945050505050565b600080848460405160200180836bffffffffffffffffffffffff19166bffffffffffffffffffffffff19168152601401828152602001925050506040516020818303038152906040526040518082805190602001908083835b602083101515613e5d5780518252602082019150602081019050602083039250613e38565b6001836020036101000a03801982511681845116808217855250505050505090500191505060405180910390209050613e968184613159565b9150509392505050565b6000613f3182600260003373ffffffffffffffffffffffffffffffffffffffff1673ffffffffffffffffffffffffffffffffffffffff16815260200190815260200160002060008673ffffffffffffffffffffffffffffffffffffffff1673ffffffffffffffffffffffffffffffffffffffff16815260200190815260200160002054614a9e90919063ffffffff16565b600260003373ffffffffffffffffffffffffffffffffffffffff1673ffffffffffffffffffffffffffffffffffffffff16815260200190815260200160002060008573ffffffffffffffffffffffffffffffffffffffff1673ffffffffffffffffffffffffffffffffffffffff168152602001908152602001600020819055508273ffffffffffffffffffffffffffffffffffffffff163373ffffffffffffffffffffffffffffffffffffffff167f8c5be1e5ebec7d5bd14f71427d1e84f3dd0314c0f7b2291e5b200ac8c7c3b925600260003373ffffffffffffffffffffffffffffffffffffffff1673ffffffffffffffffffffffffffffffffffffffff16815260200190815260200160002060008773ffffffffffffffffffffffffffffffffffffffff1673ffffffffffffffffffffffffffffffffffffffff168152602001908152602001600020546040518082815260200191505060405180910390a36001905092915050565b6000600260008473ffffffffffffffffffffffffffffffffffffffff1673ffffffffffffffffffffffffffffffffffffffff16815260200190815260200160002060008373ffffffffffffffffffffffffffffffffffffffff1673ffffffffffffffffffffffffffffffffffffffff16815260200190815260200160002054905092915050565b60008061415062093a8061414260045442614aba90919063ffffffff16565b614b0b90919063ffffffff16565b915060328211158015614164575060055482115b156141ce57614180600754600954614aba90919063ffffffff16565b90506040805190810160405280828152602001600654815250600b60006001850381526020019081526020016000206000820151816000015560208201518160010155905050816005819055505b5050565b6000806000806141e3866000614cc4565b6001900492506141f4866020614cc4565b60019004915084156143d057600060028381151561420e57fe5b061461421b57600361421e565b60025b9050600360028285604051602001808360ff1660ff167f0100000000000000000000000000000000000000000000000000000000000000028152600101828152602001925050506040516020818303038152906040526040518082805190602001908083835b6020831015156142a95780518252602082019150602081019050602083039250614284565b6001836020036101000a0380198251168184511680821785525050505050509050019150506020604051808303816000865af11580156142ed573d6000803e3d6000fd5b5050506040513d602081101561430257600080fd5b81019080805190602001909291905050506040516020018082600019166000191681526020019150506040516020818303038152906040526040518082805190602001908083835b60208310151561436f578051825260208201915060208101905060208303925061434a565b6001836020036101000a0380198251168184511680821785525050505050509050019150506020604051808303816000865af11580156143b3573d6000803e3d6000fd5b505050604051516c01000000000000000000000000029350614588565b6004905060036002828585604051602001808460ff1660ff167f010000000000000000000000000000000000000000000000000000000000000002815260010183815260200182815260200193505050506040516020818303038152906040526040518082805190602001908083835b6020831015156144655780518252602082019150602081019050602083039250614440565b6001836020036101000a0380198251168184511680821785525050505050509050019150506020604051808303816000865af11580156144a9573d6000803e3d6000fd5b5050506040513d60208110156144be57600080fd5b81019080805190602001909291905050506040516020018082600019166000191681526020019150506040516020818303038152906040526040518082805190602001908083835b60208310151561452b5780518252602082019150602081019050602083039250614506565b6001836020036101000a0380198251168184511680821785525050505050509050019150506020604051808303816000865af115801561456f573d6000803e3d6000fd5b505050604051516c010000000000000000000000000293505b50505092915050565b60006145cf600a6145c16009546145b360075487614ad390919063ffffffff16565b614b0b90919063ffffffff16565b614b0b90919063ffffffff16565b9050919050565b600080600e60008573ffffffffffffffffffffffffffffffffffffffff1673ffffffffffffffffffffffffffffffffffffffff1681526020019081526020016000208381548110151561462557fe5b9060005260206000209060050201600001549050600e60008573ffffffffffffffffffffffffffffffffffffffff1673ffffffffffffffffffffffffffffffffffffffff1681526020019081526020016000208381548110151561468557fe5b9060005260206000209060050201600201544211156146c1576146ba6146ab8585612b89565b82614a9e90919063ffffffff16565b91506146c5565b8091505b5092915050565b6000806000806000806000806000965061470662093a806146f86004548d614aba90919063ffffffff16565b614b0b90919063ffffffff16565b955061473262093a806147246004548c614aba90919063ffffffff16565b614b0b90919063ffffffff16565b9450603285116147425784614745565b60325b93508592505b838310156148045761478f600b60008581526020019081526020016000206001015461478160648e614ad390919063ffffffff16565b614b0b90919063ffffffff16565b91506147e060646147d2846147c46032600b60008a815260200190815260200160002060000154614b0b90919063ffffffff16565b614ad390919063ffffffff16565b614b0b90919063ffffffff16565b90506147f58188614a9e90919063ffffffff16565b9650828060010193505061474b565b869750505050505050509392505050565b60075481565b600080600080600080600a9450848881151561483357fe5b0693506148498589614b0b90919063ffffffff16565b92506148636402540be4008a614b0b90919063ffffffff16565b9150600090505b828110156148ba5761489d856127100a61488f878a0a85614ad390919063ffffffff16565b614b0b90919063ffffffff16565b91506148b3600182614a9e90919063ffffffff16565b905061486a565b6000841415156148f2576148ef846127100a6148e1868a0a85614ad390919063ffffffff16565b614b0b90919063ffffffff16565b91505b61490a6402540be40083614ad390919063ffffffff16565b955050505050509392505050565b600080600080600080600080600080600e60008d73ffffffffffffffffffffffffffffffffffffffff1673ffffffffffffffffffffffffffffffffffffffff1681526020019081526020016000208b81548110151561497357fe5b9060005260206000209060050201985061499860646001614ad390919063ffffffff16565b9750600196506064955060008960030154141515614a1c576149de89600401546149d060648c60030154614ad390919063ffffffff16565b614b0b90919063ffffffff16565b9450600085116149ef5760016149f1565b845b9650614a068789614b0b90919063ffffffff16565b935060008411614a17576001614a19565b835b95505b614a3161271087614a9e90919063ffffffff16565b9250614a63620d2f00614a558b600101548c60020154614aba90919063ffffffff16565b614b0b90919063ffffffff16565b9150614a748960000154838561481b565b9050614a8d896000015482614aba90919063ffffffff16565b995050505050505050505092915050565b60008183019050828110151515614ab157fe5b80905092915050565b6000828211151515614ac857fe5b818303905092915050565b600080831415614ae65760009050614b05565b8183029050818382811515614af757fe5b04141515614b0157fe5b8090505b92915050565b60008183811515614b1857fe5b04905092915050565b600080600080849250600091505b8651821015614cad578682815181101515614b4657fe5b906020019060200201519050806000191683600019161015614c035782816040516020018083600019166000191681526020018260001916600019168152602001925050506040516020818303038152906040526040518082805190602001908083835b602083101515614bcf5780518252602082019150602081019050602083039250614baa565b6001836020036101000a03801982511681845116808217855250505050505090500191505060405180910390209250614ca0565b80836040516020018083600019166000191681526020018260001916600019168152602001925050506040516020818303038152906040526040518082805190602001908083835b602083101515614c705780518252602082019150602081019050602083039250614c4b565b6001836020036101000a038019825116818451168082178552505050505050905001915050604051809103902092505b8180600101925050614b2f565b856000191683600019161493505050509392505050565b600080600090505b6020811015614d96576008810284848301815181101515614ce957fe5b9060200101517f010000000000000000000000000000000000000000000000000000000000000090047f0100000000000000000000000000000000000000000000000000000000000000027effffffffffffffffffffffffffffffffffffffffffffffffffffffffffffff19167fff0000000000000000000000000000000000000000000000000000000000000060010216600019169060020a9004821891508080600101915050614ccc565b8191505092915050565b60a06040519081016040528060008152602001600081526020016000815260200160008152602001600081525090565b815481835581811115614dfd57600502816005028360005260206000209182019101614dfc9190614e02565b5b505050565b614e4691905b80821115614e4257600080820160009055600182016000905560028201600090556003820160009055600482016000905550600501614e08565b5090565b905600a165627a7a723058209ac31c0a1c11bc3eecd4d12428699178c20a24dd35490bd09d7bf8a5e3eb098a0029",
  "source": "pragma solidity ^0.4.23;\nimport \"./UTXORedeemableToken.sol\";\n\n\ncontract StakeableToken is UTXORedeemableToken {\n\n  event Mint(address indexed _address, uint _reward);\n\n  uint256 public totalBtcCirculationAtFork;\n  uint256 public constant interestRatePercent = 1;\n  uint256 public constant maxStakingTimeInSeconds = 365 days * 10;\n  uint256 public constant oneInterestPeriodInSeconds = 10 days;\n\n  struct StakeStruct {\n    uint256 stakeAmount;\n    uint256 stakeTime;\n    uint256 unlockTime;\n    uint256 totalStakedCoinsAtStart;\n    uint256 totalSupplyAtStart;\n  }\n\n  mapping(address => StakeStruct[]) public staked;\n\n  /************************\n  *start utility functions*\n  ************************/\n\n  function getUserStakes(address _staker)\n    public\n    view\n    returns (uint256[], uint256[], uint256[], uint256[])\n  {\n    uint256 _stakesLength = staked[_staker].length;\n    uint256[] memory _stakeAmount = new uint256[](_stakesLength);\n    uint256[] memory _stakeTime = new uint256[](_stakesLength);\n    uint256[] memory _unlockTime = new uint256[](_stakesLength);\n    uint256[] memory _totalStakedCoinsAtStart = new uint256[](_stakesLength);\n\n    for (uint256 _i = 0; _i < _stakesLength; _i++) {\n      StakeStruct storage stake = staked[_staker][_i];\n      _stakeAmount[_i] = stake.stakeAmount;\n      _stakeTime[_i] = stake.stakeTime;\n      _unlockTime[_i] = stake.unlockTime;\n      _totalStakedCoinsAtStart[_i] = stake.totalStakedCoinsAtStart;\n    }\n\n    return (_stakeAmount, _stakeTime, _unlockTime, _totalStakedCoinsAtStart);\n  }\n\n  function getWeeksSinceLaunch()\n    public\n    view\n    returns (uint256)\n  {\n    return block.timestamp > launchTime \n      ? block.timestamp.sub(launchTime).div(7 days) \n      : 0;\n  }\n\n  function isDuringBonusPeriod()\n    public\n    view\n    returns (bool)\n  {\n    return getWeeksSinceLaunch() <= 50;\n  }\n\n  /** \n    @dev Moves last item in array to location of item to be removed,\n    overwriting array item. Shortens array length by 1, removing now\n    duplicate item at end of array.\n    @param _staker staker address for accessing array\n    @param _stakeIndex index of the item to delete\n  */\n  function removeArrayEntry(\n    address _staker,\n    uint256 _stakeIndex\n  )\n    public\n  {\n    StakeStruct[] storage _stakedArray = staked[_staker];\n    // set last item to index of item we want to get rid of\n    _stakedArray[_stakeIndex] = _stakedArray[_stakedArray.length.sub(1)];\n    // remove last item in array now that safely copied to index of deleted item\n    _stakedArray.length = _stakedArray.length.sub(1);\n  }\n\n  // TODO: HEAVILY test this in order to ensure that there are no integer overflows\n  /**\n    @dev compound groups up compounding periods by 30 in order to avoid  \n    uint overflows when taking (100 + rate) ** periods. Accuracy is also brought by\n    10 decimals in order to avoid uint overflows when \n    taking compounded * ((100  + rate) ** periods).\n\n    @param _principle base amount being compounded\n    @param _periods amount of periods to compound principle\n    @param _rate rate given as uint percent \n  */\n  function compound(\n    uint256 _principle,\n    uint256 _periods,\n    uint256 _rate\n  )\n    public\n    pure\n    returns (uint256)\n  {\n    uint256 _maxGroupPeriods = 10;\n    uint256 _remainingPeriods = _periods % _maxGroupPeriods;\n    uint256 _groupings = _periods.div(_maxGroupPeriods);\n    uint256 _compounded = _principle.div(1e10);\n\n    for(uint256 _i = 0; _i < _groupings; _i = _i.add(1)) {\n      _compounded = _compounded\n        .mul(_rate ** _maxGroupPeriods)\n        .div(1e4 ** _maxGroupPeriods);\n    }\n\n    if (_remainingPeriods != 0) {\n      _compounded = _compounded\n        .mul(_rate ** _remainingPeriods)\n        .div(1e4 ** _remainingPeriods);\n    }\n\n    return _compounded.mul(1e10);\n  }\n\n  function calculateStakingRewards(\n    address _staker,\n    uint256 _stakeIndex\n  ) \n    public \n    view\n    returns (uint256)\n  {\n    StakeStruct storage _stake = staked[_staker][_stakeIndex];\n\n    // raise by 100 in order to adjust with scaler\n    uint256 _interestRateTimesHundred = interestRatePercent.mul(100);\n\n    // default _scaler to 1\n    uint256 _scaler = 1;\n    // default _scaledInterestRate to 100\n    uint256 _scaledInterestRate = 100;\n    // calculate percent of staked coins vs totalSupply to use for interest rate reduction\n    if (_stake.totalStakedCoinsAtStart != 0) {\n      uint256 _scalerCandidate = _stake.totalStakedCoinsAtStart\n        .mul(100)\n        .div(_stake.totalSupplyAtStart);\n      \n      _scaler = _scalerCandidate > 0 ? _scalerCandidate : 1;\n\n      // reduce interest rate by scaler\n      uint256 _scaledInterestRateCandidate = _interestRateTimesHundred.div(_scaler);\n\n      _scaledInterestRate = _scaledInterestRateCandidate > 0 \n        ? _scaledInterestRateCandidate \n        : 1;\n    }\n\n    // bring up by 1e4 in order to get an accurate percent\n    uint256 _interestRate = _scaledInterestRate.add(1e4);\n    // Calculate Periods\n    uint256 _periods = _stake.unlockTime\n      .sub(_stake.stakeTime)\n      .div(oneInterestPeriodInSeconds);\n    // Compound\n    uint256 _compounded = compound(\n      _stake.stakeAmount, \n      _periods, \n      _interestRate\n    );\n\n    // Calculate final staking rewards with time bonus\n    return _compounded.sub(_stake.stakeAmount);\n  }\n\n  function calculateWeAreAllSatoshiRewards(\n    uint256 _stakeAmount,\n    uint256 _stakeTime,\n    uint256 _unlockTime\n  ) \n    public \n    view \n    returns (uint256)\n  {\n    uint256 _rewards = 0;\n    /* Calculate what week stake was opened */\n    uint256 _startWeek = _stakeTime\n      .sub(launchTime)\n      .div(7 days);\n\n    uint256 _endWeek = _unlockTime\n      .sub(launchTime)\n      .div(7 days);\n\n    uint256 _rewardableEndWeek = _endWeek > 50 ? 50 : _endWeek;\n\n    // Award 2% of unclaimed coins at end of every week\n    for (uint256 _i = _startWeek; _i < _rewardableEndWeek; _i++) {\n      uint256 _rewardRatio = _stakeAmount\n        .mul(100)\n        .div(satoshiRewardDataByWeek[_i].totalStaked);\n\n      uint256 _satoshiRewardWeek = satoshiRewardDataByWeek[_i].unclaimedCoins\n        .div(50)\n        .mul(_rewardRatio)\n        .div(100);\n\n      _rewards = _rewards.add(_satoshiRewardWeek);\n    }\n\n    return _rewards;\n  }\n\n  // TODO: double check that we want to make this public... if so... is it ok that\n  // it shows non zero amounts for users outside of bonus period?\n  function calculateViralRewards(\n    uint256 _stakeAmount\n  ) \n    public \n    view \n    returns (uint256)\n  {\n    // Add bonus percentage to _rewards from 0-10% based on adoption\n    return _stakeAmount\n      .mul(redeemedCount)\n      .div(totalBtcCirculationAtFork)\n      .div(10);\n  }\n\n  function calculateCritMassRewards(\n    uint256 _stakeAmount\n  ) \n    public \n    view \n    returns (uint256)\n  {\n    // Add bonus percentage to _rewards from 0-10% based on adoption\n    return _stakeAmount\n      .mul(totalRedeemed)\n      .div(maximumRedeemable)\n      .div(10);\n  }\n\n  /**\n    @dev Additional rewards should only be given within first 50 weeks.\n   */\n  function calculateAdditionalRewards(\n    address _staker,\n    uint256 _stakeIndex\n  ) \n    public \n    view \n    returns (uint256)\n  {\n    StakeStruct storage _stake = staked[_staker][_stakeIndex];\n    // only give rewards if within first 50 weeks\n    if (_stake.stakeTime.sub(launchTime).div(7 days) <= 50) {\n      uint256 _weAreAllSatoshiRewards = calculateWeAreAllSatoshiRewards(\n        _stake.stakeAmount,\n        _stake.stakeTime,\n        _stake.unlockTime\n      );\n      uint256 _viralRewards = calculateViralRewards(_stake.stakeAmount);\n      uint256 _critMassRewards = calculateCritMassRewards(_stake.stakeAmount);\n      uint256 _rewards = _weAreAllSatoshiRewards\n        .add(_viralRewards)\n        .add(_critMassRewards);\n\n      return _rewards;\n    } else {\n      return 0;\n    }\n\n    return 0;\n  }\n\n  /**\n    @notice available for use directly when there are too many stakes to do in a single operation\n  */\n  function getStakedAtIndexes(\n    address _staker,\n    uint256 _startIndex,\n    uint256 _endIndex\n  )\n    public\n    view\n    returns (uint256)\n  {\n    uint256 _maxIndex = staked[_staker].length - 1;\n    require(_endIndex <= _maxIndex);\n    require(_startIndex >= 0);\n    uint256 _totalStaked;\n    // ensure that there are stakes to be retreived\n    if (staked[_staker].length == 0) {\n      return 0;\n    }\n\n    // return single stake if indexes are the same\n    if( _startIndex == _endIndex) {\n      return staked[_staker][0].stakeAmount;\n    }\n\n    for (uint256 _i = _startIndex; _i <= _endIndex; _i++) {\n      _totalStaked = _totalStaked.add(staked[_staker][_i].stakeAmount);\n    }\n\n    return _totalStaked;\n  }\n\n  /**\n    @notice This function might fail if there are too many stakes for a user. Use getStakedAtIndexes if this is the case.\n  */\n  function getTotalUserStaked(\n    address _staker\n  )\n    public\n    view\n    returns (uint256)\n  {\n    return getStakedAtIndexes(_staker, 0, staked[_staker].length - 1);\n  }\n\n  function calculateSingleStakePlusRewards(\n    address _staker,\n    uint256 _stakeIndex\n  )\n    public\n    view\n    returns (uint256)\n  {\n    uint256 _stake = staked[_staker][_stakeIndex].stakeAmount;\n    \n    if (block.timestamp > staked[_staker][_stakeIndex].unlockTime) {\n      return _stake.add(\n          calculateAdditionalRewards(\n            _staker,\n            _stakeIndex\n          )\n      );\n    } else {\n      return _stake;\n    }\n  }\n\n  /**********************\n  *end utility functions*\n  **********************/\n\n  /*********************\n  *start user functions*\n  *********************/\n\n  /** \n    @notice start a stake in order to claim rewards at later unlock time.\n    Additional rewards only payable within first 50 weeks.\n    @param _value amount of tokens to lock\n    @param _unlockTime unix timestamp date for when to unlock tokens\n  */\n  function startStake(\n    uint256 _value, \n    uint256 _unlockTime\n  ) \n    external\n    returns (bool)\n  {\n    address _staker = msg.sender;\n\n    // Make sure staker has enough funds\n    require(balances[_staker] >= _value);\n    // ensure that unlock time is not more than approx 10 years\n    require(_unlockTime <= block.timestamp.add(maxStakingTimeInSeconds));\n    // Check if weekly data needs to be updated\n    storeSatoshiWeekData();\n\n    // Remove balance from sender\n    balances[_staker] = balances[_staker].sub(_value);\n    balances[address(this)] = balances[address(this)].add(_value);\n\n    // Create Stake\n    staked[_staker].push(\n      StakeStruct(\n        _value, \n        block.timestamp, \n        _unlockTime, \n        totalStakedCoins,\n        totalSupply_\n      )\n    );\n\n    // ensure that the new stake will return interest\n    require(calculateStakingRewards(_staker, staked[_staker].length.sub(1)) > 0);\n\n    // Add staked coins to global stake counter\n    totalStakedCoins = totalStakedCoins.add(_value);\n\n    return true;\n  }\n  \n  /**\n    @notice Used for claiming a single stake. Another user can claim a stake on another \n    user's behalf. All rewards and original stake go to original staker.\n    Useful for if _staker does not have any gas and someone else is claiming for them.\n    @param _staker user address for who is making the claim\n    @param _stakeIndex location of the stake to claim\n  */\n  function claimSingleStakingReward(\n    address _staker,\n    uint256 _stakeIndex\n  )\n    public\n    returns (bool)\n  {\n    StakeStruct memory _stake = staked[_staker][_stakeIndex]; \n    require(block.timestamp >= _stake.unlockTime);\n    // Check if weekly data needs to be updated\n    storeSatoshiWeekData();\n\n    uint256 _startingStake = _stake.stakeAmount;\n    // Calculate Rewards\n    uint256 _stakingRewards = calculateStakingRewards(\n      _staker, \n      _stakeIndex\n    );\n    uint256 _additionalRewards = calculateAdditionalRewards(\n      _staker,\n      _stakeIndex\n    );\n    uint256 _rewards = _startingStake\n      .add(_stakingRewards)\n      .add(_additionalRewards);\n    \n    // Remove StakedCoins from global counter\n    totalStakedCoins = totalStakedCoins\n      .sub(_startingStake);\n\n    // Sub staked coins from contract\n    balances[address(this)] = balances[address(this)]\n      .sub(_startingStake);\n    \n    // Add staked coins to staker\n    balances[_staker] = balances[_staker]\n      .add(_rewards);\n\n    // Award rewards to origin contract\n    balances[origin] = balances[origin]\n      .add(_additionalRewards);\n\n    emit Transfer(\n      address(this), \n      _staker, \n      _stake.stakeAmount\n    );\n\n    // Increase supply\n    totalSupply_ = totalSupply_.add(_stakingRewards);\n    totalSupply_ = totalSupply_.add(_additionalRewards.mul(2));\n\n    emit Mint(_staker, _additionalRewards.add(_stakingRewards));\n    emit Mint(origin, _additionalRewards);\n\n    // Remove Stake\n    removeArrayEntry(_staker, _stakeIndex);\n\n    return true;\n  }\n\n  // TODO: make this private\n  /**\n    @notice Used for claiming multiple stakes. Another user can \n    claim a stake on another user's behalf. All rewards and original stake go to original staker.\n    Useful for if _staker does not have any gas and someone else is claiming for them.\n    @param _staker user address for who is making the claim\n    @param _startIndex claim stakes from this location\n    @param _endIndex claim stakes up to this location\n  */\n  function claimMultipleStakingRewards( // this is no longer truthful when using removeArrayEntry... hm....\n    address _staker,\n    uint256 _startIndex,\n    uint256 _endIndex\n  ) \n    public \n    returns (bool)\n  {\n    // ensure that indexes are in array bounds\n    require(_startIndex <= _endIndex);\n    require(_endIndex < staked[_staker].length);\n\n    uint256 _i = _startIndex;\n    while (_i <= _endIndex) {\n      // Check if stake has matured\n      // all stakes can be claimed using 0 index due to arrays reorganizing every time one is removed\n      if (block.timestamp >= staked[_staker][0].unlockTime) {\n        claimSingleStakingReward(_staker, 0);\n        _i = _i.add(1);\n      }\n    }\n\n    return true;\n  }\n\n  function claimAllStakingRewards(\n    address _staker\n  )\n    external\n    returns (bool)\n  {\n    uint256 _stakeArrayLength = staked[_staker].length;\n    uint256 _processedCount = 0;\n    uint256 _cursor = 0;\n    if (_stakeArrayLength == 0) {\n      return false;\n    }\n\n    while (_processedCount < _stakeArrayLength) {\n      _cursor = _cursor.add(1) > staked[_staker].length\n        ? 0\n        : _cursor;\n\n      if (block.timestamp >= staked[_staker][_cursor].unlockTime) {\n        claimSingleStakingReward(_staker, _cursor);\n      }\n\n      _processedCount = _processedCount.add(1);\n      _cursor = _cursor.add(1);\n    }\n\n    return true;\n  }\n\n  /********************\n  *start end functions*\n  ********************/\n}\n",
  "sourcePath": "/Users/tovarishfin/dev/bhx/bhx-contracts/contracts/StakeableToken.sol",
  "compiler": {
    "name": "solc",
    "version": "0.4.24+commit.e67f0147.Emscripten.clang"
  },
  "schemaVersion": "2.0.1",
  "updatedAt": "2018-08-15T14:27:34.524Z"
}