{
  "contractName": "StakeableToken",
  "abi": [
    {
      "constant": true,
      "inputs": [
        {
          "name": "_hash",
          "type": "bytes32"
        },
        {
          "name": "_v",
          "type": "uint8"
        },
        {
          "name": "_r",
          "type": "bytes32"
        },
        {
          "name": "_s",
          "type": "bytes32"
        },
        {
          "name": "_expected",
          "type": "address"
        },
        {
          "name": "_addPrefix",
          "type": "bool"
        }
      ],
      "name": "validateSignature",
      "outputs": [
        {
          "name": "",
          "type": "bool"
        }
      ],
      "payable": false,
      "stateMutability": "pure",
      "type": "function"
    },
    {
      "constant": true,
      "inputs": [],
      "name": "maximumRedeemable",
      "outputs": [
        {
          "name": "",
          "type": "uint256"
        }
      ],
      "payable": false,
      "stateMutability": "view",
      "type": "function"
    },
    {
      "constant": false,
      "inputs": [
        {
          "name": "_spender",
          "type": "address"
        },
        {
          "name": "_value",
          "type": "uint256"
        }
      ],
      "name": "approve",
      "outputs": [
        {
          "name": "",
          "type": "bool"
        }
      ],
      "payable": false,
      "stateMutability": "nonpayable",
      "type": "function"
    },
    {
      "constant": true,
      "inputs": [],
      "name": "interestRatePercent",
      "outputs": [
        {
          "name": "",
          "type": "uint256"
        }
      ],
      "payable": false,
      "stateMutability": "view",
      "type": "function"
    },
    {
      "constant": true,
      "inputs": [],
      "name": "totalStakedCoins",
      "outputs": [
        {
          "name": "",
          "type": "uint256"
        }
      ],
      "payable": false,
      "stateMutability": "view",
      "type": "function"
    },
    {
      "constant": true,
      "inputs": [],
      "name": "totalSupply",
      "outputs": [
        {
          "name": "",
          "type": "uint256"
        }
      ],
      "payable": false,
      "stateMutability": "view",
      "type": "function"
    },
    {
      "constant": false,
      "inputs": [
        {
          "name": "_from",
          "type": "address"
        },
        {
          "name": "_to",
          "type": "address"
        },
        {
          "name": "_value",
          "type": "uint256"
        }
      ],
      "name": "transferFrom",
      "outputs": [
        {
          "name": "",
          "type": "bool"
        }
      ],
      "payable": false,
      "stateMutability": "nonpayable",
      "type": "function"
    },
    {
      "constant": true,
      "inputs": [
        {
          "name": "_satoshis",
          "type": "uint256"
        }
      ],
      "name": "getRedeemAmount",
      "outputs": [
        {
          "name": "",
          "type": "uint256"
        }
      ],
      "payable": false,
      "stateMutability": "view",
      "type": "function"
    },
    {
      "constant": true,
      "inputs": [
        {
          "name": "",
          "type": "uint256"
        }
      ],
      "name": "unclaimedCoinsByWeek",
      "outputs": [
        {
          "name": "",
          "type": "uint256"
        }
      ],
      "payable": false,
      "stateMutability": "view",
      "type": "function"
    },
    {
      "constant": true,
      "inputs": [
        {
          "name": "_pubKey",
          "type": "bytes"
        }
      ],
      "name": "pubKeyToEthereumAddress",
      "outputs": [
        {
          "name": "",
          "type": "address"
        }
      ],
      "payable": false,
      "stateMutability": "pure",
      "type": "function"
    },
    {
      "constant": false,
      "inputs": [
        {
          "name": "_spender",
          "type": "address"
        },
        {
          "name": "_subtractedValue",
          "type": "uint256"
        }
      ],
      "name": "decreaseApproval",
      "outputs": [
        {
          "name": "",
          "type": "bool"
        }
      ],
      "payable": false,
      "stateMutability": "nonpayable",
      "type": "function"
    },
    {
      "constant": true,
      "inputs": [
        {
          "name": "",
          "type": "bytes32"
        }
      ],
      "name": "redeemedUTXOs",
      "outputs": [
        {
          "name": "",
          "type": "bool"
        }
      ],
      "payable": false,
      "stateMutability": "view",
      "type": "function"
    },
    {
      "constant": true,
      "inputs": [],
      "name": "rootUtxoMerkleTreeHash",
      "outputs": [
        {
          "name": "",
          "type": "bytes32"
        }
      ],
      "payable": false,
      "stateMutability": "view",
      "type": "function"
    },
    {
      "constant": true,
      "inputs": [
        {
          "name": "_owner",
          "type": "address"
        }
      ],
      "name": "balanceOf",
      "outputs": [
        {
          "name": "",
          "type": "uint256"
        }
      ],
      "payable": false,
      "stateMutability": "view",
      "type": "function"
    },
    {
      "constant": false,
      "inputs": [
        {
          "name": "_satoshis",
          "type": "uint256"
        },
        {
          "name": "_proof",
          "type": "bytes32[]"
        },
        {
          "name": "_pubKey",
          "type": "bytes"
        },
        {
          "name": "_isCompressed",
          "type": "bool"
        },
        {
          "name": "_v",
          "type": "uint8"
        },
        {
          "name": "_r",
          "type": "bytes32"
        },
        {
          "name": "_s",
          "type": "bytes32"
        }
      ],
      "name": "redeemUtxo",
      "outputs": [
        {
          "name": "_tokensRedeemed",
          "type": "uint256"
        }
      ],
      "payable": false,
      "stateMutability": "nonpayable",
      "type": "function"
    },
    {
      "constant": true,
      "inputs": [],
      "name": "launchTime",
      "outputs": [
        {
          "name": "",
          "type": "uint256"
        }
      ],
      "payable": false,
      "stateMutability": "view",
      "type": "function"
    },
    {
      "constant": true,
      "inputs": [
        {
          "name": "_merkleLeafHash",
          "type": "bytes32"
        },
        {
          "name": "_proof",
          "type": "bytes32[]"
        }
      ],
      "name": "canRedeemUtxoHash",
      "outputs": [
        {
          "name": "",
          "type": "bool"
        }
      ],
      "payable": false,
      "stateMutability": "view",
      "type": "function"
    },
    {
      "constant": true,
      "inputs": [],
      "name": "totalBtcCirculationAtFork",
      "outputs": [
        {
          "name": "",
          "type": "uint256"
        }
      ],
      "payable": false,
      "stateMutability": "view",
      "type": "function"
    },
    {
      "constant": true,
      "inputs": [
        {
          "name": "",
          "type": "address"
        },
        {
          "name": "",
          "type": "uint256"
        }
      ],
      "name": "staked",
      "outputs": [
        {
          "name": "stakeAmount",
          "type": "uint256"
        },
        {
          "name": "stakeTime",
          "type": "uint256"
        },
        {
          "name": "unlockTime",
          "type": "uint256"
        },
        {
          "name": "totalStakedCoinsAtStart",
          "type": "uint256"
        }
      ],
      "payable": false,
      "stateMutability": "view",
      "type": "function"
    },
    {
      "constant": false,
      "inputs": [],
      "name": "storeWeekUnclaimed",
      "outputs": [],
      "payable": false,
      "stateMutability": "nonpayable",
      "type": "function"
    },
    {
      "constant": true,
      "inputs": [],
      "name": "origin",
      "outputs": [
        {
          "name": "",
          "type": "address"
        }
      ],
      "payable": false,
      "stateMutability": "view",
      "type": "function"
    },
    {
      "constant": true,
      "inputs": [],
      "name": "lastUpdatedWeek",
      "outputs": [
        {
          "name": "",
          "type": "uint256"
        }
      ],
      "payable": false,
      "stateMutability": "view",
      "type": "function"
    },
    {
      "constant": false,
      "inputs": [
        {
          "name": "_to",
          "type": "address"
        },
        {
          "name": "_value",
          "type": "uint256"
        }
      ],
      "name": "transfer",
      "outputs": [
        {
          "name": "",
          "type": "bool"
        }
      ],
      "payable": false,
      "stateMutability": "nonpayable",
      "type": "function"
    },
    {
      "constant": false,
      "inputs": [
        {
          "name": "_satoshis",
          "type": "uint256"
        },
        {
          "name": "_proof",
          "type": "bytes32[]"
        },
        {
          "name": "_pubKey",
          "type": "bytes"
        },
        {
          "name": "_isCompressed",
          "type": "bool"
        },
        {
          "name": "_v",
          "type": "uint8"
        },
        {
          "name": "_r",
          "type": "bytes32"
        },
        {
          "name": "_s",
          "type": "bytes32"
        },
        {
          "name": "_referrer",
          "type": "address"
        }
      ],
      "name": "redeemReferredUtxo",
      "outputs": [
        {
          "name": "_tokensRedeemed",
          "type": "uint256"
        }
      ],
      "payable": false,
      "stateMutability": "nonpayable",
      "type": "function"
    },
    {
      "constant": true,
      "inputs": [
        {
          "name": "_proof",
          "type": "bytes32[]"
        },
        {
          "name": "_merkleLeafHash",
          "type": "bytes32"
        }
      ],
      "name": "verifyProof",
      "outputs": [
        {
          "name": "",
          "type": "bool"
        }
      ],
      "payable": false,
      "stateMutability": "view",
      "type": "function"
    },
    {
      "constant": true,
      "inputs": [
        {
          "name": "_addr",
          "type": "address"
        },
        {
          "name": "_pubKey",
          "type": "bytes"
        },
        {
          "name": "_v",
          "type": "uint8"
        },
        {
          "name": "_r",
          "type": "bytes32"
        },
        {
          "name": "_s",
          "type": "bytes32"
        }
      ],
      "name": "ecdsaVerify",
      "outputs": [
        {
          "name": "",
          "type": "bool"
        }
      ],
      "payable": false,
      "stateMutability": "pure",
      "type": "function"
    },
    {
      "constant": true,
      "inputs": [
        {
          "name": "_originalAddress",
          "type": "bytes20"
        },
        {
          "name": "_satoshis",
          "type": "uint256"
        },
        {
          "name": "_proof",
          "type": "bytes32[]"
        }
      ],
      "name": "canRedeemUtxo",
      "outputs": [
        {
          "name": "",
          "type": "bool"
        }
      ],
      "payable": false,
      "stateMutability": "view",
      "type": "function"
    },
    {
      "constant": false,
      "inputs": [
        {
          "name": "_spender",
          "type": "address"
        },
        {
          "name": "_addedValue",
          "type": "uint256"
        }
      ],
      "name": "increaseApproval",
      "outputs": [
        {
          "name": "",
          "type": "bool"
        }
      ],
      "payable": false,
      "stateMutability": "nonpayable",
      "type": "function"
    },
    {
      "constant": true,
      "inputs": [
        {
          "name": "_owner",
          "type": "address"
        },
        {
          "name": "_spender",
          "type": "address"
        }
      ],
      "name": "allowance",
      "outputs": [
        {
          "name": "",
          "type": "uint256"
        }
      ],
      "payable": false,
      "stateMutability": "view",
      "type": "function"
    },
    {
      "constant": true,
      "inputs": [
        {
          "name": "_pubKey",
          "type": "bytes"
        },
        {
          "name": "_isCompressed",
          "type": "bool"
        }
      ],
      "name": "pubKeyToBitcoinAddress",
      "outputs": [
        {
          "name": "",
          "type": "bytes20"
        }
      ],
      "payable": false,
      "stateMutability": "pure",
      "type": "function"
    },
    {
      "constant": true,
      "inputs": [],
      "name": "totalRedeemed",
      "outputs": [
        {
          "name": "",
          "type": "uint256"
        }
      ],
      "payable": false,
      "stateMutability": "view",
      "type": "function"
    },
    {
      "anonymous": false,
      "inputs": [
        {
          "indexed": true,
          "name": "_address",
          "type": "address"
        },
        {
          "indexed": false,
          "name": "_reward",
          "type": "uint256"
        }
      ],
      "name": "Mint",
      "type": "event"
    },
    {
      "anonymous": false,
      "inputs": [
        {
          "indexed": true,
          "name": "owner",
          "type": "address"
        },
        {
          "indexed": true,
          "name": "spender",
          "type": "address"
        },
        {
          "indexed": false,
          "name": "value",
          "type": "uint256"
        }
      ],
      "name": "Approval",
      "type": "event"
    },
    {
      "anonymous": false,
      "inputs": [
        {
          "indexed": true,
          "name": "from",
          "type": "address"
        },
        {
          "indexed": true,
          "name": "to",
          "type": "address"
        },
        {
          "indexed": false,
          "name": "value",
          "type": "uint256"
        }
      ],
      "name": "Transfer",
      "type": "event"
    },
    {
      "constant": true,
      "inputs": [
        {
          "name": "_principle",
          "type": "uint256"
        },
        {
          "name": "_periods",
          "type": "uint256"
        },
        {
          "name": "_rate",
          "type": "uint256"
        }
      ],
      "name": "compound",
      "outputs": [
        {
          "name": "",
          "type": "uint256"
        }
      ],
      "payable": false,
      "stateMutability": "pure",
      "type": "function"
    },
    {
      "constant": true,
      "inputs": [
        {
          "name": "_staker",
          "type": "address"
        },
        {
          "name": "_stakeIndex",
          "type": "uint256"
        }
      ],
      "name": "calculateWeAreAllSatoshiRewards",
      "outputs": [
        {
          "name": "",
          "type": "uint256"
        }
      ],
      "payable": false,
      "stateMutability": "view",
      "type": "function"
    },
    {
      "constant": true,
      "inputs": [
        {
          "name": "_rewards",
          "type": "uint256"
        }
      ],
      "name": "calculateViralRewards",
      "outputs": [
        {
          "name": "",
          "type": "uint256"
        }
      ],
      "payable": false,
      "stateMutability": "view",
      "type": "function"
    },
    {
      "constant": true,
      "inputs": [
        {
          "name": "_rewards",
          "type": "uint256"
        }
      ],
      "name": "calculateCritMassRewards",
      "outputs": [
        {
          "name": "",
          "type": "uint256"
        }
      ],
      "payable": false,
      "stateMutability": "view",
      "type": "function"
    },
    {
      "constant": true,
      "inputs": [
        {
          "name": "_staker",
          "type": "address"
        },
        {
          "name": "_stakeIndex",
          "type": "uint256"
        },
        {
          "name": "_rewards",
          "type": "uint256"
        }
      ],
      "name": "calculateSpeedBonus",
      "outputs": [
        {
          "name": "",
          "type": "uint256"
        }
      ],
      "payable": false,
      "stateMutability": "view",
      "type": "function"
    },
    {
      "constant": true,
      "inputs": [
        {
          "name": "_staker",
          "type": "address"
        },
        {
          "name": "_stakeIndex",
          "type": "uint256"
        },
        {
          "name": "_initRewards",
          "type": "uint256"
        }
      ],
      "name": "calculateAdditionalRewards",
      "outputs": [
        {
          "name": "",
          "type": "uint256"
        }
      ],
      "payable": false,
      "stateMutability": "view",
      "type": "function"
    },
    {
      "constant": true,
      "inputs": [
        {
          "name": "_staker",
          "type": "address"
        },
        {
          "name": "_stakeIndex",
          "type": "uint256"
        }
      ],
      "name": "calculateStakingRewards",
      "outputs": [
        {
          "name": "",
          "type": "uint256"
        }
      ],
      "payable": false,
      "stateMutability": "view",
      "type": "function"
    },
    {
      "constant": true,
      "inputs": [
        {
          "name": "_staker",
          "type": "address"
        },
        {
          "name": "_stakeIndex",
          "type": "uint256"
        }
      ],
      "name": "getStakedEntry",
      "outputs": [
        {
          "name": "",
          "type": "uint256"
        }
      ],
      "payable": false,
      "stateMutability": "view",
      "type": "function"
    },
    {
      "constant": true,
      "inputs": [
        {
          "name": "_staker",
          "type": "address"
        },
        {
          "name": "_startIndex",
          "type": "uint256"
        },
        {
          "name": "_endIndex",
          "type": "uint256"
        }
      ],
      "name": "getCurrentStakedAtIndexes",
      "outputs": [
        {
          "name": "",
          "type": "uint256"
        }
      ],
      "payable": false,
      "stateMutability": "view",
      "type": "function"
    },
    {
      "constant": true,
      "inputs": [
        {
          "name": "_staker",
          "type": "address"
        }
      ],
      "name": "getCurrentStaked",
      "outputs": [
        {
          "name": "",
          "type": "uint256"
        }
      ],
      "payable": false,
      "stateMutability": "view",
      "type": "function"
    },
    {
      "constant": false,
      "inputs": [
        {
          "name": "_value",
          "type": "uint256"
        },
        {
          "name": "_unlockTime",
          "type": "uint256"
        }
      ],
      "name": "startStake",
      "outputs": [
        {
          "name": "",
          "type": "bool"
        }
      ],
      "payable": false,
      "stateMutability": "nonpayable",
      "type": "function"
    },
    {
      "constant": false,
      "inputs": [
        {
          "name": "_staker",
          "type": "address"
        },
        {
          "name": "_stakeIndex",
          "type": "uint256"
        }
      ],
      "name": "claimSingleStakingReward",
      "outputs": [
        {
          "name": "",
          "type": "bool"
        }
      ],
      "payable": false,
      "stateMutability": "nonpayable",
      "type": "function"
    },
    {
      "constant": false,
      "inputs": [
        {
          "name": "_staker",
          "type": "address"
        },
        {
          "name": "_startIndex",
          "type": "uint256"
        },
        {
          "name": "_endIndex",
          "type": "uint256"
        }
      ],
      "name": "claimMultipleStakingRewards",
      "outputs": [
        {
          "name": "",
          "type": "bool"
        }
      ],
      "payable": false,
      "stateMutability": "nonpayable",
      "type": "function"
    }
  ],
  "bytecode": "0x60806040526000600555600060095534801561001a57600080fd5b506147308061002a6000396000f30060806040526004361061021a576000357c0100000000000000000000000000000000000000000000000000000000900463ffffffff1680630867c0ad1461021f57806308b4312b146102bd578063095ea7b3146102e8578063128bfcae1461034d57806316043f5d1461039c5780631765f4bf146103c757806318160ddd146103f2578063229cfc321461041d57806323b872dd1461045e5780632c3ee88c146104e357806330fd546e14610524578063443de10c146105655780635418796c146105bc5780636618846314610665578063687cf4a4146106ca5780636aaf67e2146107135780636e20f0a51461074657806370a08231146107b1578063753bf8cd146108085780637555419b14610907578063790ca4131461096857806381437de81461099357806381cd84b9146109f85780638d854c3414610a845780638f16981614610aaf5780639283032c14610b25578063938b5f3214610b3c5780639d65b89214610b93578063a9059cbb14610bbe578063b1ccf19314610c23578063b80ac7df14610ce9578063be6eedbd14610d75578063c269077e14610dd6578063cb9c501f14610e41578063ce267b5514610eb0578063cfc2334e14610f7a578063d73dd6231461101b578063dd62ed3e14611080578063e073ef69146110f7578063e26e7b501461119e578063f14bfbd0146111df578063f35dad401461124a578063f3c85eba14611275578063f6c45d02146112ca575b600080fd5b34801561022b57600080fd5b506102a36004803603810190808035600019169060200190929190803560ff16906020019092919080356000191690602001909291908035600019169060200190929190803573ffffffffffffffffffffffffffffffffffffffff16906020019092919080351515906020019092919050505061132b565b604051808215151515815260200191505060405180910390f35b3480156102c957600080fd5b506102d2611516565b6040518082815260200191505060405180910390f35b3480156102f457600080fd5b50610333600480360381019080803573ffffffffffffffffffffffffffffffffffffffff1690602001909291908035906020019092919050505061151c565b604051808215151515815260200191505060405180910390f35b34801561035957600080fd5b50610382600480360381019080803590602001909291908035906020019092919050505061160e565b604051808215151515815260200191505060405180910390f35b3480156103a857600080fd5b506103b161191c565b6040518082815260200191505060405180910390f35b3480156103d357600080fd5b506103dc611921565b6040518082815260200191505060405180910390f35b3480156103fe57600080fd5b50610407611927565b6040518082815260200191505060405180910390f35b34801561042957600080fd5b5061044860048036038101908080359060200190929190505050611931565b6040518082815260200191505060405180910390f35b34801561046a57600080fd5b506104c9600480360381019080803573ffffffffffffffffffffffffffffffffffffffff169060200190929190803573ffffffffffffffffffffffffffffffffffffffff16906020019092919080359060200190929190505050611976565b604051808215151515815260200191505060405180910390f35b3480156104ef57600080fd5b5061050e60048036038101908080359060200190929190505050611d30565b6040518082815260200191505060405180910390f35b34801561053057600080fd5b5061054f600480360381019080803590602001909291905050506120aa565b6040518082815260200191505060405180910390f35b34801561057157600080fd5b506105a6600480360381019080803573ffffffffffffffffffffffffffffffffffffffff1690602001909291905050506120c2565b6040518082815260200191505060405180910390f35b3480156105c857600080fd5b50610623600480360381019080803590602001908201803590602001908080601f0160208091040260200160405190810160405280939291908181526020018383808284378201915050505050509192919290505050612180565b604051808273ffffffffffffffffffffffffffffffffffffffff1673ffffffffffffffffffffffffffffffffffffffff16815260200191505060405180910390f35b34801561067157600080fd5b506106b0600480360381019080803573ffffffffffffffffffffffffffffffffffffffff16906020019092919080359060200190929190505050612206565b604051808215151515815260200191505060405180910390f35b3480156106d657600080fd5b506106f96004803603810190808035600019169060200190929190505050612497565b604051808215151515815260200191505060405180910390f35b34801561071f57600080fd5b506107286124b7565b60405180826000191660001916815260200191505060405180910390f35b34801561075257600080fd5b5061079b600480360381019080803573ffffffffffffffffffffffffffffffffffffffff16906020019092919080359060200190929190803590602001909291905050506124bd565b6040518082815260200191505060405180910390f35b3480156107bd57600080fd5b506107f2600480360381019080803573ffffffffffffffffffffffffffffffffffffffff169060200190929190505050612590565b6040518082815260200191505060405180910390f35b34801561081457600080fd5b506108f16004803603810190808035906020019092919080359060200190820180359060200190808060200260200160405190810160405280939291908181526020018383602002808284378201915050505050509192919290803590602001908201803590602001908080601f0160208091040260200160405190810160405280939291908181526020018383808284378201915050505050509192919290803515159060200190929190803560ff169060200190929190803560001916906020019092919080356000191690602001909291905050506125d8565b6040518082815260200191505060405180910390f35b34801561091357600080fd5b50610952600480360381019080803573ffffffffffffffffffffffffffffffffffffffff1690602001909291908035906020019092919050505061287c565b6040518082815260200191505060405180910390f35b34801561097457600080fd5b5061097d6129b9565b6040518082815260200191505060405180910390f35b34801561099f57600080fd5b506109de600480360381019080803573ffffffffffffffffffffffffffffffffffffffff169060200190929190803590602001909291905050506129bf565b604051808215151515815260200191505060405180910390f35b348015610a0457600080fd5b50610a6a600480360381019080803560001916906020019092919080359060200190820180359060200190808060200260200160405190810160405280939291908181526020018383602002808284378201915050505050509192919290505050612fc4565b604051808215151515815260200191505060405180910390f35b348015610a9057600080fd5b50610a9961300f565b6040518082815260200191505060405180910390f35b348015610abb57600080fd5b50610afa600480360381019080803573ffffffffffffffffffffffffffffffffffffffff16906020019092919080359060200190929190505050613015565b6040518085815260200184815260200183815260200182815260200194505050505060405180910390f35b348015610b3157600080fd5b50610b3a613061565b005b348015610b4857600080fd5b50610b516130e4565b604051808273ffffffffffffffffffffffffffffffffffffffff1673ffffffffffffffffffffffffffffffffffffffff16815260200191505060405180910390f35b348015610b9f57600080fd5b50610ba861310a565b6040518082815260200191505060405180910390f35b348015610bca57600080fd5b50610c09600480360381019080803573ffffffffffffffffffffffffffffffffffffffff16906020019092919080359060200190929190505050613110565b604051808215151515815260200191505060405180910390f35b348015610c2f57600080fd5b50610cd360048036038101908080359060200190929190803590602001908201803590602001919091929391929390803590602001908201803590602001919091929391929390803515159060200190929190803560ff16906020019092919080356000191690602001909291908035600019169060200190929190803573ffffffffffffffffffffffffffffffffffffffff16906020019092919050505061332f565b6040518082815260200191505060405180910390f35b348015610cf557600080fd5b50610d5b6004803603810190808035906020019082018035906020019080806020026020016040519081016040528093929190818152602001838360200280828437820191505050505050919291929080356000191690602001909291905050506134ff565b604051808215151515815260200191505060405180910390f35b348015610d8157600080fd5b50610dc0600480360381019080803573ffffffffffffffffffffffffffffffffffffffff16906020019092919080359060200190929190505050613516565b6040518082815260200191505060405180910390f35b348015610de257600080fd5b50610e2b600480360381019080803573ffffffffffffffffffffffffffffffffffffffff1690602001909291908035906020019092919080359060200190929190505050613616565b6040518082815260200191505060405180910390f35b348015610e4d57600080fd5b50610e96600480360381019080803573ffffffffffffffffffffffffffffffffffffffff169060200190929190803590602001909291908035906020019092919050505061373c565b604051808215151515815260200191505060405180910390f35b348015610ebc57600080fd5b50610f60600480360381019080803573ffffffffffffffffffffffffffffffffffffffff169060200190929190803590602001908201803590602001908080601f0160208091040260200160405190810160405280939291908181526020018383808284378201915050505050509192919290803560ff16906020019092919080356000191690602001909291908035600019169060200190929190505050613835565b604051808215151515815260200191505060405180910390f35b348015610f8657600080fd5b5061100160048036038101908080356bffffffffffffffffffffffff191690602001909291908035906020019092919080359060200190820180359060200190808060200260200160405190810160405280939291908181526020018383602002808284378201915050505050509192919290505050613954565b604051808215151515815260200191505060405180910390f35b34801561102757600080fd5b50611066600480360381019080803573ffffffffffffffffffffffffffffffffffffffff16906020019092919080359060200190929190505050613a15565b604051808215151515815260200191505060405180910390f35b34801561108c57600080fd5b506110e1600480360381019080803573ffffffffffffffffffffffffffffffffffffffff169060200190929190803573ffffffffffffffffffffffffffffffffffffffff169060200190929190505050613c11565b6040518082815260200191505060405180910390f35b34801561110357600080fd5b5061116a600480360381019080803590602001908201803590602001908080601f0160208091040260200160405190810160405280939291908181526020018383808284378201915050505050509192919290803515159060200190929190505050613c98565b60405180826bffffffffffffffffffffffff19166bffffffffffffffffffffffff1916815260200191505060405180910390f35b3480156111aa57600080fd5b506111c960048036038101908080359060200190929190505050614057565b6040518082815260200191505060405180910390f35b3480156111eb57600080fd5b50611234600480360381019080803573ffffffffffffffffffffffffffffffffffffffff169060200190929190803590602001909291908035906020019092919050505061409c565b6040518082815260200191505060405180910390f35b34801561125657600080fd5b5061125f61415c565b6040518082815260200191505060405180910390f35b34801561128157600080fd5b506112b4600480360381019080803590602001909291908035906020019092919080359060200190929190505050614162565b6040518082815260200191505060405180910390f35b3480156112d657600080fd5b50611315600480360381019080803573ffffffffffffffffffffffffffffffffffffffff1690602001909291908035906020019092919050505061428f565b6040518082815260200191505060405180910390f35b600080606083151561133f57889150611459565b6040805190810160405280601c81526020017f19457468657265756d205369676e6564204d6573736167653a0a333200000000815250905080896040516020018083805190602001908083835b6020831015156113b1578051825260208201915060208101905060208303925061138c565b6001836020036101000a0380198251168184511680821785525050505050509050018260001916600019168152602001925050506040516020818303038152906040526040518082805190602001908083835b6020831015156114295780518252602082019150602081019050602083039250611404565b6001836020036101000a038019825116818451168082178552505050505050905001915050604051809103902091505b8473ffffffffffffffffffffffffffffffffffffffff166001838a8a8a604051600081526020016040526040518085600019166000191681526020018460ff1660ff1681526020018360001916600019168152602001826000191660001916815260200194505050505060206040516020810390808403906000865af11580156114e7573d6000803e3d6000fd5b5050506020604051035173ffffffffffffffffffffffffffffffffffffffff1614925050509695505050505050565b600a5481565b600081600260003373ffffffffffffffffffffffffffffffffffffffff1673ffffffffffffffffffffffffffffffffffffffff16815260200190815260200160002060008573ffffffffffffffffffffffffffffffffffffffff1673ffffffffffffffffffffffffffffffffffffffff168152602001908152602001600020819055508273ffffffffffffffffffffffffffffffffffffffff163373ffffffffffffffffffffffffffffffffffffffff167f8c5be1e5ebec7d5bd14f71427d1e84f3dd0314c0f7b2291e5b200ac8c7c3b925846040518082815260200191505060405180910390a36001905092915050565b600080339050836000808373ffffffffffffffffffffffffffffffffffffffff1673ffffffffffffffffffffffffffffffffffffffff168152602001908152602001600020541015151561166157600080fd5b611677620d2f00426143c690919063ffffffff16565b831015151561168557600080fd5b61169c63bbf81e00426143c690919063ffffffff16565b83111515156116aa57600080fd5b6116b2613061565b611703846000808473ffffffffffffffffffffffffffffffffffffffff1673ffffffffffffffffffffffffffffffffffffffff168152602001908152602001600020546143e290919063ffffffff16565b6000808373ffffffffffffffffffffffffffffffffffffffff1673ffffffffffffffffffffffffffffffffffffffff16815260200190815260200160002081905550611796846000803073ffffffffffffffffffffffffffffffffffffffff1673ffffffffffffffffffffffffffffffffffffffff168152602001908152602001600020546143c690919063ffffffff16565b6000803073ffffffffffffffffffffffffffffffffffffffff1673ffffffffffffffffffffffffffffffffffffffff168152602001908152602001600020819055503073ffffffffffffffffffffffffffffffffffffffff168173ffffffffffffffffffffffffffffffffffffffff167fddf252ad1be2c89b69c2b068fc378daa952ba7f163c4a11628f55a4df523b3ef866040518082815260200191505060405180910390a3600d60008273ffffffffffffffffffffffffffffffffffffffff1673ffffffffffffffffffffffffffffffffffffffff168152602001908152602001600020608060405190810160405280868152602001428152602001858152602001600c54815250908060018154018082558091505090600182039060005260206000209060040201600090919290919091506000820151816000015560208201518160010155604082015181600201556060820151816003015550505061190b84600c546143c690919063ffffffff16565b600c81905550600191505092915050565b600181565b600c5481565b6000600154905090565b600061196f600a611961600b54611953600954876143fb90919063ffffffff16565b61443390919063ffffffff16565b61443390919063ffffffff16565b9050919050565b60008073ffffffffffffffffffffffffffffffffffffffff168373ffffffffffffffffffffffffffffffffffffffff16141515156119b357600080fd5b6000808573ffffffffffffffffffffffffffffffffffffffff1673ffffffffffffffffffffffffffffffffffffffff168152602001908152602001600020548211151515611a0057600080fd5b600260008573ffffffffffffffffffffffffffffffffffffffff1673ffffffffffffffffffffffffffffffffffffffff16815260200190815260200160002060003373ffffffffffffffffffffffffffffffffffffffff1673ffffffffffffffffffffffffffffffffffffffff168152602001908152602001600020548211151515611a8b57600080fd5b611adc826000808773ffffffffffffffffffffffffffffffffffffffff1673ffffffffffffffffffffffffffffffffffffffff168152602001908152602001600020546143e290919063ffffffff16565b6000808673ffffffffffffffffffffffffffffffffffffffff1673ffffffffffffffffffffffffffffffffffffffff16815260200190815260200160002081905550611b6f826000808673ffffffffffffffffffffffffffffffffffffffff1673ffffffffffffffffffffffffffffffffffffffff168152602001908152602001600020546143c690919063ffffffff16565b6000808573ffffffffffffffffffffffffffffffffffffffff1673ffffffffffffffffffffffffffffffffffffffff16815260200190815260200160002081905550611c4082600260008773ffffffffffffffffffffffffffffffffffffffff1673ffffffffffffffffffffffffffffffffffffffff16815260200190815260200160002060003373ffffffffffffffffffffffffffffffffffffffff1673ffffffffffffffffffffffffffffffffffffffff168152602001908152602001600020546143e290919063ffffffff16565b600260008673ffffffffffffffffffffffffffffffffffffffff1673ffffffffffffffffffffffffffffffffffffffff16815260200190815260200160002060003373ffffffffffffffffffffffffffffffffffffffff1673ffffffffffffffffffffffffffffffffffffffff168152602001908152602001600020819055508273ffffffffffffffffffffffffffffffffffffffff168473ffffffffffffffffffffffffffffffffffffffff167fddf252ad1be2c89b69c2b068fc378daa952ba7f163c4a11628f55a4df523b3ef846040518082815260200191505060405180910390a3600190509392505050565b6000806000806000611d506402540be400876143fb90919063ffffffff16565b9350683635c9adc5dea00000841115611de95769152d02c7e14af6800000841015611dd157611dca640ba43b7400611dbc6009611dae6002611da064174876e8008b6143e290919063ffffffff16565b6143fb90919063ffffffff16565b61443390919063ffffffff16565b6143c690919063ffffffff16565b9350611de8565b611de560048561443390919063ffffffff16565b93505b5b4260045410611df9576000611e24565b611e2362093a80611e15600454426143e290919063ffffffff16565b61443390919063ffffffff16565b5b9250611e4d611e3d6002856143fb90919063ffffffff16565b60646143e290919063ffffffff16565b9150611e756064611e6784876143fb90919063ffffffff16565b61443390919063ffffffff16565b9050602d831115611e88578094506120a1565b6020831115611ebf57611eb86064611eaa6065846143fb90919063ffffffff16565b61443390919063ffffffff16565b94506120a1565b6018831115611ef657611eef6064611ee16066846143fb90919063ffffffff16565b61443390919063ffffffff16565b94506120a1565b6012831115611f2d57611f266064611f186067846143fb90919063ffffffff16565b61443390919063ffffffff16565b94506120a1565b600e831115611f6457611f5d6064611f4f6068846143fb90919063ffffffff16565b61443390919063ffffffff16565b94506120a1565b600a831115611f9b57611f946064611f866069846143fb90919063ffffffff16565b61443390919063ffffffff16565b94506120a1565b6007831115611fd257611fcb6064611fbd606a846143fb90919063ffffffff16565b61443390919063ffffffff16565b94506120a1565b6005831115612009576120026064611ff4606b846143fb90919063ffffffff16565b61443390919063ffffffff16565b94506120a1565b600383111561204057612039606461202b606c846143fb90919063ffffffff16565b61443390919063ffffffff16565b94506120a1565b6001831115612077576120706064612062606d846143fb90919063ffffffff16565b61443390919063ffffffff16565b94506120a1565b61209e6064612090606e846143fb90919063ffffffff16565b61443390919063ffffffff16565b94505b50505050919050565b60066020528060005260406000206000915090505481565b600080600d60008473ffffffffffffffffffffffffffffffffffffffff1673ffffffffffffffffffffffffffffffffffffffff168152602001908152602001600020805490501415612117576000905061217b565b6121788260006121736001600d60008873ffffffffffffffffffffffffffffffffffffffff1673ffffffffffffffffffffffffffffffffffffffff168152602001908152602001600020805490506143e290919063ffffffff16565b6124bd565b90505b919050565b600073ffffffffffffffffffffffffffffffffffffffff826040518082805190602001908083835b6020831015156121cd57805182526020820191506020810190506020830392506121a8565b6001836020036101000a038019825116818451168082178552505050505050905001915050604051809103902060019004169050919050565b600080600260003373ffffffffffffffffffffffffffffffffffffffff1673ffffffffffffffffffffffffffffffffffffffff16815260200190815260200160002060008573ffffffffffffffffffffffffffffffffffffffff1673ffffffffffffffffffffffffffffffffffffffff16815260200190815260200160002054905080831115612317576000600260003373ffffffffffffffffffffffffffffffffffffffff1673ffffffffffffffffffffffffffffffffffffffff16815260200190815260200160002060008673ffffffffffffffffffffffffffffffffffffffff1673ffffffffffffffffffffffffffffffffffffffff168152602001908152602001600020819055506123ab565b61232a83826143e290919063ffffffff16565b600260003373ffffffffffffffffffffffffffffffffffffffff1673ffffffffffffffffffffffffffffffffffffffff16815260200190815260200160002060008673ffffffffffffffffffffffffffffffffffffffff1673ffffffffffffffffffffffffffffffffffffffff168152602001908152602001600020819055505b8373ffffffffffffffffffffffffffffffffffffffff163373ffffffffffffffffffffffffffffffffffffffff167f8c5be1e5ebec7d5bd14f71427d1e84f3dd0314c0f7b2291e5b200ac8c7c3b925600260003373ffffffffffffffffffffffffffffffffffffffff1673ffffffffffffffffffffffffffffffffffffffff16815260200190815260200160002060008873ffffffffffffffffffffffffffffffffffffffff1673ffffffffffffffffffffffffffffffffffffffff168152602001908152602001600020546040518082815260200191505060405180910390a3600191505092915050565b60086020528060005260406000206000915054906101000a900460ff1681565b60075481565b60008060008385111515156124d157600080fd5b600d60008773ffffffffffffffffffffffffffffffffffffffff1673ffffffffffffffffffffffffffffffffffffffff168152602001908152602001600020805490508410151561252157600080fd5b8385141561253a576125338686613516565b9250612587565b600091508490505b83851015612583576125666125578783613516565b836143c690919063ffffffff16565b915061257c6001826143c690919063ffffffff16565b9050612542565b8192505b50509392505050565b60008060008373ffffffffffffffffffffffffffffffffffffffff1673ffffffffffffffffffffffffffffffffffffffff168152602001908152602001600020549050919050565b600080600060045442101515156125ee57600080fd5b6125f6613061565b6126008888613c98565b9150818a60405160200180836bffffffffffffffffffffffff19166bffffffffffffffffffffffff19168152601401828152602001925050506040516020818303038152906040526040518082805190602001908083835b60208310151561267d5780518252602082019150602081019050602083039250612658565b6001836020036101000a038019825116818451168082178552505050505050905001915050604051809103902090506126b6818a612fc4565b15156126c157600080fd5b6126ce3389888888613835565b15156126d957600080fd5b600160086000836000191660001916815260200190815260200160002060006101000a81548160ff0219169083151502179055506127168a611d30565b9250600a54612730846009546143c690919063ffffffff16565b1115151561273d57600080fd5b612752836009546143c690919063ffffffff16565b6009819055506127a9836000803373ffffffffffffffffffffffffffffffffffffffff1673ffffffffffffffffffffffffffffffffffffffff168152602001908152602001600020546143c690919063ffffffff16565b6000803373ffffffffffffffffffffffffffffffffffffffff1673ffffffffffffffffffffffffffffffffffffffff16815260200190815260200160002081905550612800836001546143c690919063ffffffff16565b6001819055503373ffffffffffffffffffffffffffffffffffffffff16600073ffffffffffffffffffffffffffffffffffffffff167fddf252ad1be2c89b69c2b068fc378daa952ba7f163c4a11628f55a4df523b3ef856040518082815260200191505060405180910390a38292505050979650505050505050565b600080600080600080600d60008973ffffffffffffffffffffffffffffffffffffffff1673ffffffffffffffffffffffffffffffffffffffff168152602001908152602001600020878154811015156128d157fe5b906000526020600020906004020194506000935061291362093a8061290560045488600101546143e290919063ffffffff16565b61443390919063ffffffff16565b925061293f62093a80612931600454426143e290919063ffffffff16565b61443390919063ffffffff16565b91508290505b818110156129ab5761299c61298d603261297f886000015460066000878152602001908152602001600020546143fb90919063ffffffff16565b61443390919063ffffffff16565b856143c690919063ffffffff16565b93508080600101915050612945565b839550505050505092915050565b60045481565b60008060006129cc613061565b600d60008673ffffffffffffffffffffffffffffffffffffffff1673ffffffffffffffffffffffffffffffffffffffff16815260200190815260200160002084815481101515612a1857fe5b90600052602060002090600402016002015442111515612a3757600080fd5b612aa9600d60008773ffffffffffffffffffffffffffffffffffffffff1673ffffffffffffffffffffffffffffffffffffffff16815260200190815260200160002085815481101515612a8657fe5b906000526020600020906004020160000154600c546143e290919063ffffffff16565b600c81905550612b5d600d60008773ffffffffffffffffffffffffffffffffffffffff1673ffffffffffffffffffffffffffffffffffffffff16815260200190815260200160002085815481101515612afe57fe5b9060005260206000209060040201600001546000803073ffffffffffffffffffffffffffffffffffffffff1673ffffffffffffffffffffffffffffffffffffffff168152602001908152602001600020546143e290919063ffffffff16565b6000803073ffffffffffffffffffffffffffffffffffffffff1673ffffffffffffffffffffffffffffffffffffffff16815260200190815260200160002081905550612c4d600d60008773ffffffffffffffffffffffffffffffffffffffff1673ffffffffffffffffffffffffffffffffffffffff16815260200190815260200160002085815481101515612bee57fe5b9060005260206000209060040201600001546000808873ffffffffffffffffffffffffffffffffffffffff1673ffffffffffffffffffffffffffffffffffffffff168152602001908152602001600020546143c690919063ffffffff16565b6000808773ffffffffffffffffffffffffffffffffffffffff1673ffffffffffffffffffffffffffffffffffffffff168152602001908152602001600020819055508473ffffffffffffffffffffffffffffffffffffffff163073ffffffffffffffffffffffffffffffffffffffff167fddf252ad1be2c89b69c2b068fc378daa952ba7f163c4a11628f55a4df523b3ef600d60008973ffffffffffffffffffffffffffffffffffffffff1673ffffffffffffffffffffffffffffffffffffffff16815260200190815260200160002087815481101515612d2a57fe5b9060005260206000209060040201600001546040518082815260200191505060405180910390a3612d5b858561428f565b9150612d7a612d6b86868561409c565b836143c690919063ffffffff16565b9050612dcd816000808873ffffffffffffffffffffffffffffffffffffffff1673ffffffffffffffffffffffffffffffffffffffff168152602001908152602001600020546143c690919063ffffffff16565b6000808773ffffffffffffffffffffffffffffffffffffffff1673ffffffffffffffffffffffffffffffffffffffff16815260200190815260200160002081905550612e94612e2583836143e290919063ffffffff16565b600080600360009054906101000a900473ffffffffffffffffffffffffffffffffffffffff1673ffffffffffffffffffffffffffffffffffffffff1673ffffffffffffffffffffffffffffffffffffffff168152602001908152602001600020546143c690919063ffffffff16565b600080600360009054906101000a900473ffffffffffffffffffffffffffffffffffffffff1673ffffffffffffffffffffffffffffffffffffffff1673ffffffffffffffffffffffffffffffffffffffff16815260200190815260200160002081905550612f20612f0f6002836143fb90919063ffffffff16565b6001546143c690919063ffffffff16565b600181905550612f6e600d60008773ffffffffffffffffffffffffffffffffffffffff1673ffffffffffffffffffffffffffffffffffffffff16815260200190815260200160002085614449565b8473ffffffffffffffffffffffffffffffffffffffff167f0f6798a560793a54c3bcfe86a93cde1e73087d944c0ea20544137d4121396885826040518082815260200191505060405180910390a2505092915050565b600080151560086000856000191660001916815260200190815260200160002060009054906101000a900460ff161515148015613007575061300682846134ff565b5b905092915050565b600b5481565b600d6020528160005260406000208181548110151561303057fe5b9060005260206000209060040201600091509150508060000154908060010154908060020154908060030154905084565b60008061308e62093a80613080600454426143e290919063ffffffff16565b61443390919063ffffffff16565b9150603282111580156130a2575060055482115b156130e0576130be600954600a546143e290919063ffffffff16565b9050806006600084815260200190815260200160002081905550816005819055505b5050565b600360009054906101000a900473ffffffffffffffffffffffffffffffffffffffff1681565b60055481565b60008073ffffffffffffffffffffffffffffffffffffffff168373ffffffffffffffffffffffffffffffffffffffff161415151561314d57600080fd5b6000803373ffffffffffffffffffffffffffffffffffffffff1673ffffffffffffffffffffffffffffffffffffffff16815260200190815260200160002054821115151561319a57600080fd5b6131eb826000803373ffffffffffffffffffffffffffffffffffffffff1673ffffffffffffffffffffffffffffffffffffffff168152602001908152602001600020546143e290919063ffffffff16565b6000803373ffffffffffffffffffffffffffffffffffffffff1673ffffffffffffffffffffffffffffffffffffffff1681526020019081526020016000208190555061327e826000808673ffffffffffffffffffffffffffffffffffffffff1673ffffffffffffffffffffffffffffffffffffffff168152602001908152602001600020546143c690919063ffffffff16565b6000808573ffffffffffffffffffffffffffffffffffffffff1673ffffffffffffffffffffffffffffffffffffffff168152602001908152602001600020819055508273ffffffffffffffffffffffffffffffffffffffff163373ffffffffffffffffffffffffffffffffffffffff167fddf252ad1be2c89b69c2b068fc378daa952ba7f163c4a11628f55a4df523b3ef846040518082815260200191505060405180910390a36001905092915050565b60003373ffffffffffffffffffffffffffffffffffffffff168273ffffffffffffffffffffffffffffffffffffffff161415151561336c57600080fd5b600073ffffffffffffffffffffffffffffffffffffffff168273ffffffffffffffffffffffffffffffffffffffff16141515156133a857600080fd5b6134188b8b8b808060200260200160405190810160405280939291908181526020018383602002808284378201915050505050508a8a8080601f016020809104026020016040519081016040528093929190818152602001838380828437820191505050505050898989896125d8565b905061347e61343160148361443390919063ffffffff16565b6000808573ffffffffffffffffffffffffffffffffffffffff1673ffffffffffffffffffffffffffffffffffffffff168152602001908152602001600020546143c690919063ffffffff16565b6000808473ffffffffffffffffffffffffffffffffffffffff1673ffffffffffffffffffffffffffffffffffffffff168152602001908152602001600020819055506134e86134d760148361443390919063ffffffff16565b6001546143c690919063ffffffff16565b6001819055508090509a9950505050505050505050565b600061350e83600754846144ec565b905092915050565b600080600d60008573ffffffffffffffffffffffffffffffffffffffff1673ffffffffffffffffffffffffffffffffffffffff1681526020019081526020016000208381548110151561356557fe5b9060005260206000209060040201600001549050600d60008573ffffffffffffffffffffffffffffffffffffffff1673ffffffffffffffffffffffffffffffffffffffff168152602001908152602001600020838154811015156135c557fe5b90600052602060002090600402016002015442111561360b576136046135f585856135f0888861428f565b61409c565b826143c690919063ffffffff16565b915061360f565b8091505b5092915050565b600080600080600d60008873ffffffffffffffffffffffffffffffffffffffff1673ffffffffffffffffffffffffffffffffffffffff1681526020019081526020016000208681548110151561366857fe5b90600052602060002090600402016001015492506136a662093a80613698600454866143e290919063ffffffff16565b61443390919063ffffffff16565b91506137086136f860646136ea600a6136dc60326136ce60648a6143fb90919063ffffffff16565b61443390919063ffffffff16565b6143fb90919063ffffffff16565b61443390919063ffffffff16565b600a6143e290919063ffffffff16565b9050613730606461372283886143fb90919063ffffffff16565b61443390919063ffffffff16565b93505050509392505050565b60008082841115151561374e57600080fd5b600d60008673ffffffffffffffffffffffffffffffffffffffff1673ffffffffffffffffffffffffffffffffffffffff16815260200190815260200160002080549050831115151561379f57600080fd5b8390505b8281101561382957600d60008673ffffffffffffffffffffffffffffffffffffffff1673ffffffffffffffffffffffffffffffffffffffff168152602001908152602001600020818154811015156137f757fe5b90600052602060002090600402016002015442111561381c5761381a85826129bf565b505b80806001019150506137a3565b60019150509392505050565b6000613949600287604051602001808273ffffffffffffffffffffffffffffffffffffffff1673ffffffffffffffffffffffffffffffffffffffff166c010000000000000000000000000281526014019150506040516020818303038152906040526040518082805190602001908083835b6020831015156138cc57805182526020820191506020810190506020830392506138a7565b6001836020036101000a0380198251168184511680821785525050505050509050019150506020604051808303816000865af1158015613910573d6000803e3d6000fd5b5050506040513d602081101561392557600080fd5b81019080805190602001909291905050508585856139428a612180565b600061132b565b905095945050505050565b600080848460405160200180836bffffffffffffffffffffffff19166bffffffffffffffffffffffff19168152601401828152602001925050506040516020818303038152906040526040518082805190602001908083835b6020831015156139d257805182526020820191506020810190506020830392506139ad565b6001836020036101000a03801982511681845116808217855250505050505090500191505060405180910390209050613a0b8184612fc4565b9150509392505050565b6000613aa682600260003373ffffffffffffffffffffffffffffffffffffffff1673ffffffffffffffffffffffffffffffffffffffff16815260200190815260200160002060008673ffffffffffffffffffffffffffffffffffffffff1673ffffffffffffffffffffffffffffffffffffffff168152602001908152602001600020546143c690919063ffffffff16565b600260003373ffffffffffffffffffffffffffffffffffffffff1673ffffffffffffffffffffffffffffffffffffffff16815260200190815260200160002060008573ffffffffffffffffffffffffffffffffffffffff1673ffffffffffffffffffffffffffffffffffffffff168152602001908152602001600020819055508273ffffffffffffffffffffffffffffffffffffffff163373ffffffffffffffffffffffffffffffffffffffff167f8c5be1e5ebec7d5bd14f71427d1e84f3dd0314c0f7b2291e5b200ac8c7c3b925600260003373ffffffffffffffffffffffffffffffffffffffff1673ffffffffffffffffffffffffffffffffffffffff16815260200190815260200160002060008773ffffffffffffffffffffffffffffffffffffffff1673ffffffffffffffffffffffffffffffffffffffff168152602001908152602001600020546040518082815260200191505060405180910390a36001905092915050565b6000600260008473ffffffffffffffffffffffffffffffffffffffff1673ffffffffffffffffffffffffffffffffffffffff16815260200190815260200160002060008373ffffffffffffffffffffffffffffffffffffffff1673ffffffffffffffffffffffffffffffffffffffff16815260200190815260200160002054905092915050565b600080600080613ca98660006145b7565b600190049250613cba8660206145b7565b6001900491508415613e96576000600283811515613cd457fe5b0614613ce1576003613ce4565b60025b9050600360028285604051602001808360ff1660ff167f0100000000000000000000000000000000000000000000000000000000000000028152600101828152602001925050506040516020818303038152906040526040518082805190602001908083835b602083101515613d6f5780518252602082019150602081019050602083039250613d4a565b6001836020036101000a0380198251168184511680821785525050505050509050019150506020604051808303816000865af1158015613db3573d6000803e3d6000fd5b5050506040513d6020811015613dc857600080fd5b81019080805190602001909291905050506040516020018082600019166000191681526020019150506040516020818303038152906040526040518082805190602001908083835b602083101515613e355780518252602082019150602081019050602083039250613e10565b6001836020036101000a0380198251168184511680821785525050505050509050019150506020604051808303816000865af1158015613e79573d6000803e3d6000fd5b505050604051516c0100000000000000000000000002935061404e565b6004905060036002828585604051602001808460ff1660ff167f010000000000000000000000000000000000000000000000000000000000000002815260010183815260200182815260200193505050506040516020818303038152906040526040518082805190602001908083835b602083101515613f2b5780518252602082019150602081019050602083039250613f06565b6001836020036101000a0380198251168184511680821785525050505050509050019150506020604051808303816000865af1158015613f6f573d6000803e3d6000fd5b5050506040513d6020811015613f8457600080fd5b81019080805190602001909291905050506040516020018082600019166000191681526020019150506040516020818303038152906040526040518082805190602001908083835b602083101515613ff15780518252602082019150602081019050602083039250613fcc565b6001836020036101000a0380198251168184511680821785525050505050509050019150506020604051808303816000865af1158015614035573d6000803e3d6000fd5b505050604051516c010000000000000000000000000293505b50505092915050565b6000614095600a614087600a54614079600954876143fb90919063ffffffff16565b61443390919063ffffffff16565b61443390919063ffffffff16565b9050919050565b60008060326140cb62093a806140bd600454426143e290919063ffffffff16565b61443390919063ffffffff16565b11151561414f57600090506140f26140e3868661287c565b846143c690919063ffffffff16565b9050614145614102868684613616565b61413761410e84614057565b61412961411a86611931565b866143c690919063ffffffff16565b6143c690919063ffffffff16565b6143c690919063ffffffff16565b9050809150614154565b600091505b509392505050565b60095481565b600080600080600080601e9450848881151561417a57fe5b069350614190858961443390919063ffffffff16565b92506141aa6402540be4008a61443390919063ffffffff16565b9150600090505b8281101561422a5761420d789f4f2726179a224501d762422c946590d910000000000000006141ff601e6141ef8b60646143c690919063ffffffff16565b0a856143fb90919063ffffffff16565b61443390919063ffffffff16565b91506142236001826143c690919063ffffffff16565b90506141b1565b6142678460640a614259866142498b60646143c690919063ffffffff16565b0a856143fb90919063ffffffff16565b61443390919063ffffffff16565b91506142816402540be400836143fb90919063ffffffff16565b955050505050509392505050565b600080600080600080600d60008973ffffffffffffffffffffffffffffffffffffffff1673ffffffffffffffffffffffffffffffffffffffff168152602001908152602001600020878154811015156142e457fe5b90600052602060002090600402019450614309606460016143fb90919063ffffffff16565b935060008560030154141561431f57600161434c565b61434b60015461433d606488600301546143fb90919063ffffffff16565b61443390919063ffffffff16565b5b9250614361838561443390919063ffffffff16565b935061438f620d2f006143818760010154426143e290919063ffffffff16565b61443390919063ffffffff16565b91506143a085600001548386614162565b90506143b98560000154826143e290919063ffffffff16565b9550505050505092915050565b600081830190508281101515156143d957fe5b80905092915050565b60008282111515156143f057fe5b818303905092915050565b60008083141561440e576000905061442d565b818302905081838281151561441f57fe5b0414151561442957fe5b8090505b92915050565b6000818381151561444057fe5b04905092915050565b81614462600184805490506143e290919063ffffffff16565b81548110151561446e57fe5b9060005260206000209060040201828281548110151561448a57fe5b9060005260206000209060040201600082015481600001556001820154816001015560028201548160020155600382015481600301559050506144db600183805490506143e290919063ffffffff16565b82816144e79190614693565b505050565b600080600080849250600091505b86518210156145a057868281518110151561451157fe5b90602001906020020151905080600019168360001916101561456257828160405180836000191660001916815260200182600019166000191681526020019250505060405180910390209250614593565b8083604051808360001916600019168152602001826000191660001916815260200192505050604051809103902092505b81806001019250506144fa565b856000191683600019161493505050509392505050565b600080600090505b60208110156146895760088102848483018151811015156145dc57fe5b9060200101517f010000000000000000000000000000000000000000000000000000000000000090047f0100000000000000000000000000000000000000000000000000000000000000027effffffffffffffffffffffffffffffffffffffffffffffffffffffffffffff19167fff0000000000000000000000000000000000000000000000000000000000000060010216600019169060020a90048218915080806001019150506145bf565b8191505092915050565b8154818355818111156146c0576004028160040283600052602060002091820191016146bf91906146c5565b5b505050565b61470191905b808211156146fd57600080820160009055600182016000905560028201600090556003820160009055506004016146cb565b5090565b905600a165627a7a723058200748ba3e626cd7b221fa41037197f83e1bdd6c6afcb5c66b53e03b6fa82a0cd20029",
  "source": "pragma solidity ^0.4.23;\nimport \"./UTXORedeemableToken.sol\";\n\n\ncontract StakeableToken is UTXORedeemableToken {\n\n    event Mint(address indexed _address, uint _reward);\n\n    uint256 public totalBtcCirculationAtFork;\n    uint256 public totalStakedCoins;\n    uint256 public constant interestRatePercent = 1;\n\n    struct StakeStruct {\n        uint256 stakeAmount;\n        uint256 stakeTime;\n        uint256 unlockTime;\n        uint256 totalStakedCoinsAtStart;\n    }\n\n    mapping(address => StakeStruct[]) public staked;\n\n    //\n    // start utility functions\n    //\n\n    /** \n        @dev Moves last item in array to location of item to be removed,\n        overwriting array item. Shortens array length by 1, removing now\n        duplicate item at end of array.\n        @param _array an array of StakeStructs\n        @param _index index of the item to delete\n    */\n    function removeArrayEntry(\n        StakeStruct[] storage _array,\n        uint256 _index\n    )\n        internal\n    {\n        // set last item to index of item we want to get rid of\n        _array[_index] = _array[_array.length.sub(1)];\n        // remove last item in array now that safely copied to index of deleted item\n        _array.length = _array.length.sub(1);\n    }\n\n    /**\n        @dev compound groups up compounding periods by 30 in order to avoid  \n        uint overflows when taking (100 + rate) ** periods. Accuracy is also brought by\n        10 decimals in order to avoid uint overflows when \n        taking compounded * ((100  + rate) ** periods).\n\n        @param _principle base amount being compounded\n        @param _periods amount of periods to compound principle\n        @param _rate rate given as uint percent \n    */\n    function compound(\n        uint256 _principle,\n        uint256 _periods,\n        uint256 _rate\n    )\n        public\n        pure\n        returns (uint256)\n    {\n        uint256 _maxGroupPeriods = 30;\n        uint256 _remainingPeriods = _periods % _maxGroupPeriods;\n        uint256 _groupings = _periods.div(_maxGroupPeriods);\n    \n        uint256 _compounded = _principle.div(1e10);\n        for(uint256 _i = 0; _i < _groupings; _i = _i.add(1)) {\n            _compounded = _compounded\n                .mul(uint256(100).add(_rate) ** 30)\n                .div(100 ** 30);\n        }\n\n        _compounded = _compounded\n            .mul(uint256(100).add(_rate) ** _remainingPeriods)\n            .div(100 ** _remainingPeriods);\n        \n        return _compounded.mul(1e10);\n    }\n\n    // TODO: double check this works as intended...\n    function calculateWeAreAllSatoshiRewards(\n        address _staker,\n        uint256 _stakeIndex\n    ) \n        public \n        view \n        returns (uint256)\n    {\n        StakeStruct storage _stake = staked[_staker][_stakeIndex];\n        uint256 _rewards = 0;\n        /* Calculate what week stake was opened */\n        uint256 startWeek = _stake.stakeTime\n            .sub(launchTime)\n            .div(7 days);\n\n        /* Calculate current week */\n        uint256 weeksSinceLaunch = block.timestamp\n            .sub(launchTime)\n            .div(7 days);\n\n        /* Award 2% of unclaimed coins at end of every week */\n        for (uint256 _i = startWeek; _i < weeksSinceLaunch; _i++) {\n            _rewards = _rewards\n                .add(unclaimedCoinsByWeek[_i]\n                .mul(_stake.stakeAmount)\n                .div(50));\n        }\n\n        return _rewards;\n    }\n\n    function calculateViralRewards(\n        uint256 _rewards\n    ) \n        public \n        view \n        returns (uint256)\n    {\n        /* Add bonus percentage to _rewards from 0-10% based on adoption */\n        return _rewards\n            .mul(totalRedeemed)\n            .div(totalBtcCirculationAtFork)\n            .div(10);\n    }\n\n    function calculateCritMassRewards(\n        uint256 _rewards\n    ) \n        public \n        view \n        returns (uint256)\n    {\n        /* Add bonus percentage to _rewards from 0-10% based on adoption */\n        return _rewards\n            .mul(totalRedeemed)\n            .div(maximumRedeemable)\n            .div(10);\n    }\n\n    function calculateSpeedBonus(\n        address _staker,\n        uint256 _stakeIndex,\n        uint256 _rewards\n    )\n        public\n        view\n        returns (uint256)\n    {\n        uint256 _stakeTime = staked[_staker][_stakeIndex].stakeTime;\n        uint256 _weeksSinceLaunch = _stakeTime\n            .sub(launchTime)\n            .div(7 days);\n\n        // bonus based on 10 percent being max \n        uint256 _scaler = uint256(10) // max bonus percent\n            .sub( // sub calculated portion of max bonus percent\n                _weeksSinceLaunch\n                .mul(100) // raise by 100 due to integer division\n                .div(50) // max weeks\n                .mul(10) // max bonus percent\n                .div(100) // lower by 200 after calculations\n            );\n\n        return _rewards.mul(_scaler).div(100);\n    }\n\n    /**\n        @dev Additional rewards should only be given within first 50 weeks.\n     */\n    function calculateAdditionalRewards(\n        address _staker,\n        uint256 _stakeIndex, \n        uint256 _initRewards\n    ) \n        public \n        view \n        returns (uint256)\n    {\n        // only give rewards if within first 50 weeks\n        if (block.timestamp.sub(launchTime).div(7 days) <= 50) {\n            uint256 _rewards = 0;\n            _rewards = _initRewards.add(calculateWeAreAllSatoshiRewards(_staker, _stakeIndex));\n            _rewards = _rewards\n                .add(calculateViralRewards(_rewards))\n                .add(calculateCritMassRewards(_rewards))\n                .add(calculateSpeedBonus(_staker, _stakeIndex, _rewards));\n\n            return _rewards;\n        } else {\n            return 0;\n        }\n    }\n\n    function calculateStakingRewards(\n        address _staker,\n        uint256 _stakeIndex\n    ) \n        public \n        view\n        returns (uint256)\n    {\n        StakeStruct storage _stake = staked[_staker][_stakeIndex];\n        /* Base interest rate */\n        uint256 _interestRateTimesHundred = interestRatePercent.mul(100);\n\n        // calculate percent of staked coins vs totalSupply to use for interest rate reduction\n        uint256 _scaler = _stake.totalStakedCoinsAtStart != 0 \n            ? _stake.totalStakedCoinsAtStart\n                .mul(100)\n                .div(totalSupply_)\n            : 1;\n        /* reduce interest rate by percent of tokens staked against totalSupply */\n        _interestRateTimesHundred = _interestRateTimesHundred.div(_scaler);\n\n        /* Calculate Periods */\n        uint256 _periods = block.timestamp\n            .sub(_stake.stakeTime)\n            .div(10 days);\n\n        /* Compound */\n        uint256 _compounded = compound(\n            _stake.stakeAmount, \n            _periods, \n            _interestRateTimesHundred\n        );\n\n        /* Calculate final staking rewards with time bonus */\n        return _compounded.sub(_stake.stakeAmount);\n    }\n\n    function getStakedEntry(\n        address _staker,\n        uint256 _stakeIndex\n    )\n        public\n        view\n        returns (uint256)\n    {\n        uint256 _stake = staked[_staker][_stakeIndex].stakeAmount;\n        \n        if (block.timestamp > staked[_staker][_stakeIndex].unlockTime) {\n            return _stake.add(\n                    calculateAdditionalRewards(\n                        _staker,\n                        _stakeIndex,\n                        calculateStakingRewards(_staker, _stakeIndex)\n                    )\n            );\n        } else {\n            return _stake;\n        }\n    }\n\n    /**\n        @notice Used in case user creates excessive stakes and array iteration hits gasLimit.\n        @param _staker user for which to check stakes\n        @param _startIndex get stakes from location\n        @param _endIndex get stakes up to location\n    */\n    function getCurrentStakedAtIndexes(\n        address _staker,\n        uint256 _startIndex,\n        uint256 _endIndex\n    )\n        public\n        view\n        returns (uint256)\n    {\n        require(_startIndex <= _endIndex);\n        require(_endIndex < staked[_staker].length);\n\n        if (_startIndex == _endIndex) {\n            return getStakedEntry(_staker, _startIndex);\n        }\n\n        uint256 _stakes = 0;\n        for (\n            uint256 _stakeIndex = _startIndex; \n            _startIndex < _endIndex; \n            _stakeIndex = _stakeIndex.add(1)\n        ) {\n            _stakes = _stakes.add(getStakedEntry(_staker, _stakeIndex));\n        }\n\n        return _stakes;\n    }\n\n    /**\n        @notice Safe for users who have no placed excessive amounts of stakes.\n        @param _staker the user address for which to check current staked\n    */\n    function getCurrentStaked(\n        address _staker\n    )\n        external \n        view \n        returns (uint256)\n    {\n        if (staked[_staker].length == 0) {\n            return 0;\n        }\n\n        return getCurrentStakedAtIndexes(_staker, 0, staked[_staker].length.sub(1));\n    }\n\n    //\n    // end utility functions\n    //\n\n    //\n    // start user functinos\n    //\n\n    /** \n        @notice start a stake in order to claim rewards at later unlock time.\n        Additional rewards only payable within first 50 weeks.\n        @param _value amount of tokens to lock\n        @param _unlockTime unix timestamp date for when to unlock tokens\n    */\n    function startStake(\n        uint256 _value, \n        uint256 _unlockTime\n    ) \n        external\n        returns (bool)\n    {\n        address _staker = msg.sender;\n\n        /* Make sure staker has enough funds */\n        require(balances[_staker] >= _value);\n        /* ensure unlockTime is in the future */\n        require(_unlockTime >= block.timestamp.add(10 days));\n        /* ensure that unlock time is not more than approx 10 years */\n        require(_unlockTime <= block.timestamp.add(10 days * 3650));\n\n        /* Check if weekly data needs to be updated */\n        storeWeekUnclaimed();\n\n        /* Remove balance from sender */\n        balances[_staker] = balances[_staker].sub(_value);\n        balances[address(this)] = balances[address(this)].add(_value);\n        emit Transfer(_staker, address(this), _value);\n\n        /* Create Stake */\n        staked[_staker].push(\n          StakeStruct(\n            _value, \n            block.timestamp, \n            _unlockTime, \n            totalStakedCoins\n          )\n        );\n\n        /* Add staked coins to global stake counter */\n        totalStakedCoins = totalStakedCoins.add(_value);\n\n        return true;\n    }\n\n    /**\n        @notice Used for claiming a single stake. Another user can claim a stake on another \n        user's behalf. All rewards and original stake go to original staker.\n        Useful for if _staker does not have any gas and someone else is claiming for them.\n        @param _staker user address for who is making the claim\n        @param _stakeIndex location of the stake to claim\n    */\n    function claimSingleStakingReward(\n        address _staker,\n        uint256 _stakeIndex\n    )\n        public\n        returns (bool)\n    {\n        // Check if weekly data needs to be updated\n        storeWeekUnclaimed();\n        require(block.timestamp > staked[_staker][_stakeIndex].unlockTime);\n        // Remove StakedCoins from global counter\n        totalStakedCoins = totalStakedCoins\n            .sub(staked[_staker][_stakeIndex].stakeAmount);\n\n        // Sub staked coins from contract\n        balances[address(this)] = balances[address(this)]\n            .sub(staked[_staker][_stakeIndex].stakeAmount);\n        \n        // Add staked coins to staker\n        balances[_staker] = balances[_staker]\n            .add(staked[_staker][_stakeIndex].stakeAmount);\n\n        emit Transfer(\n            address(this), \n            _staker, \n            staked[_staker][_stakeIndex].stakeAmount\n        );\n\n        // Calculate Rewards\n        uint256 _stakingRewards = calculateStakingRewards(_staker, _stakeIndex);\n        uint256 _rewards = _stakingRewards.add(\n            calculateAdditionalRewards(\n                _staker,\n                _stakeIndex,\n                _stakingRewards\n            )\n        );\n\n        // Award staking rewards to staker\n        balances[_staker] = balances[_staker].add(_rewards);\n\n        // Award rewards to origin contract\n        balances[origin] = balances[origin]\n            .add(_rewards\n            .sub(_stakingRewards));\n\n        // Increase supply\n        totalSupply_ = totalSupply_.add(_rewards.mul(2));\n\n        // Remove Stake\n        removeArrayEntry(staked[_staker], _stakeIndex);\n\n        emit Mint(_staker, _rewards);\n    }\n\n    /**\n        @notice Used for claiming multiple stakes. Another user can \n        claim a stake on another user's behalf. All rewards and original stake go to original staker.\n        Useful for if _staker does not have any gas and someone else is claiming for them.\n        @param _staker user address for who is making the claim\n        @param _startIndex claim stakes from this location\n        @param _endIndex claim stakes up to this location\n    */\n    function claimMultipleStakingRewards(\n        address _staker,\n        uint256 _startIndex,\n        uint256 _endIndex\n    ) \n        external \n        returns (bool)\n    {\n        // ensure that indexes are in array bounds\n        require(_startIndex <= _endIndex);\n        require(_endIndex <= staked[_staker].length);\n\n        for (uint256 _i = _startIndex; _i < _endIndex; _i++) {\n            /* Check if stake has matured */\n            if (block.timestamp > staked[_staker][_i].unlockTime) {\n                claimSingleStakingReward(_staker, _i);\n            }\n        }\n\n        return true;\n    }\n\n    //\n    // end user functions\n    //\n}\n",
  "sourcePath": "/Users/tovarishfin/dev/bhx/bhx-contracts/contracts/StakeableToken.sol",
  "compiler": {
    "name": "solc",
    "version": "0.4.24+commit.e67f0147.Emscripten.clang"
  },
  "schemaVersion": "2.0.0",
  "updatedAt": "2018-07-17T09:14:02.966Z"
}