{
  "contractName": "StakeableToken",
  "abi": [
    {
      "constant": true,
      "inputs": [
        {
          "name": "_hash",
          "type": "bytes32"
        },
        {
          "name": "_v",
          "type": "uint8"
        },
        {
          "name": "_r",
          "type": "bytes32"
        },
        {
          "name": "_s",
          "type": "bytes32"
        },
        {
          "name": "_expected",
          "type": "address"
        },
        {
          "name": "_addPrefix",
          "type": "bool"
        }
      ],
      "name": "validateSignature",
      "outputs": [
        {
          "name": "",
          "type": "bool"
        }
      ],
      "payable": false,
      "stateMutability": "pure",
      "type": "function"
    },
    {
      "constant": true,
      "inputs": [],
      "name": "maximumRedeemable",
      "outputs": [
        {
          "name": "",
          "type": "uint256"
        }
      ],
      "payable": false,
      "stateMutability": "view",
      "type": "function"
    },
    {
      "constant": false,
      "inputs": [
        {
          "name": "_spender",
          "type": "address"
        },
        {
          "name": "_value",
          "type": "uint256"
        }
      ],
      "name": "approve",
      "outputs": [
        {
          "name": "",
          "type": "bool"
        }
      ],
      "payable": false,
      "stateMutability": "nonpayable",
      "type": "function"
    },
    {
      "constant": true,
      "inputs": [],
      "name": "interestRatePercent",
      "outputs": [
        {
          "name": "",
          "type": "uint256"
        }
      ],
      "payable": false,
      "stateMutability": "view",
      "type": "function"
    },
    {
      "constant": true,
      "inputs": [],
      "name": "totalStakedCoins",
      "outputs": [
        {
          "name": "",
          "type": "uint256"
        }
      ],
      "payable": false,
      "stateMutability": "view",
      "type": "function"
    },
    {
      "constant": true,
      "inputs": [],
      "name": "totalSupply",
      "outputs": [
        {
          "name": "",
          "type": "uint256"
        }
      ],
      "payable": false,
      "stateMutability": "view",
      "type": "function"
    },
    {
      "constant": false,
      "inputs": [
        {
          "name": "_from",
          "type": "address"
        },
        {
          "name": "_to",
          "type": "address"
        },
        {
          "name": "_value",
          "type": "uint256"
        }
      ],
      "name": "transferFrom",
      "outputs": [
        {
          "name": "",
          "type": "bool"
        }
      ],
      "payable": false,
      "stateMutability": "nonpayable",
      "type": "function"
    },
    {
      "constant": true,
      "inputs": [
        {
          "name": "_satoshis",
          "type": "uint256"
        }
      ],
      "name": "getRedeemAmount",
      "outputs": [
        {
          "name": "",
          "type": "uint256"
        }
      ],
      "payable": false,
      "stateMutability": "view",
      "type": "function"
    },
    {
      "constant": true,
      "inputs": [
        {
          "name": "",
          "type": "uint256"
        }
      ],
      "name": "unclaimedCoinsByWeek",
      "outputs": [
        {
          "name": "",
          "type": "uint256"
        }
      ],
      "payable": false,
      "stateMutability": "view",
      "type": "function"
    },
    {
      "constant": true,
      "inputs": [],
      "name": "oneInterestPeriodInSeconds",
      "outputs": [
        {
          "name": "",
          "type": "uint256"
        }
      ],
      "payable": false,
      "stateMutability": "view",
      "type": "function"
    },
    {
      "constant": true,
      "inputs": [
        {
          "name": "_pubKey",
          "type": "bytes"
        }
      ],
      "name": "pubKeyToEthereumAddress",
      "outputs": [
        {
          "name": "",
          "type": "address"
        }
      ],
      "payable": false,
      "stateMutability": "pure",
      "type": "function"
    },
    {
      "constant": true,
      "inputs": [],
      "name": "maxStakingTimeInSeconds",
      "outputs": [
        {
          "name": "",
          "type": "uint256"
        }
      ],
      "payable": false,
      "stateMutability": "view",
      "type": "function"
    },
    {
      "constant": false,
      "inputs": [
        {
          "name": "_spender",
          "type": "address"
        },
        {
          "name": "_subtractedValue",
          "type": "uint256"
        }
      ],
      "name": "decreaseApproval",
      "outputs": [
        {
          "name": "",
          "type": "bool"
        }
      ],
      "payable": false,
      "stateMutability": "nonpayable",
      "type": "function"
    },
    {
      "constant": true,
      "inputs": [
        {
          "name": "",
          "type": "bytes32"
        }
      ],
      "name": "redeemedUTXOs",
      "outputs": [
        {
          "name": "",
          "type": "bool"
        }
      ],
      "payable": false,
      "stateMutability": "view",
      "type": "function"
    },
    {
      "constant": true,
      "inputs": [],
      "name": "rootUtxoMerkleTreeHash",
      "outputs": [
        {
          "name": "",
          "type": "bytes32"
        }
      ],
      "payable": false,
      "stateMutability": "view",
      "type": "function"
    },
    {
      "constant": true,
      "inputs": [
        {
          "name": "_owner",
          "type": "address"
        }
      ],
      "name": "balanceOf",
      "outputs": [
        {
          "name": "",
          "type": "uint256"
        }
      ],
      "payable": false,
      "stateMutability": "view",
      "type": "function"
    },
    {
      "constant": false,
      "inputs": [
        {
          "name": "_satoshis",
          "type": "uint256"
        },
        {
          "name": "_proof",
          "type": "bytes32[]"
        },
        {
          "name": "_pubKey",
          "type": "bytes"
        },
        {
          "name": "_isCompressed",
          "type": "bool"
        },
        {
          "name": "_v",
          "type": "uint8"
        },
        {
          "name": "_r",
          "type": "bytes32"
        },
        {
          "name": "_s",
          "type": "bytes32"
        }
      ],
      "name": "redeemUtxo",
      "outputs": [
        {
          "name": "_tokensRedeemed",
          "type": "uint256"
        }
      ],
      "payable": false,
      "stateMutability": "nonpayable",
      "type": "function"
    },
    {
      "constant": true,
      "inputs": [],
      "name": "launchTime",
      "outputs": [
        {
          "name": "",
          "type": "uint256"
        }
      ],
      "payable": false,
      "stateMutability": "view",
      "type": "function"
    },
    {
      "constant": true,
      "inputs": [
        {
          "name": "_merkleLeafHash",
          "type": "bytes32"
        },
        {
          "name": "_proof",
          "type": "bytes32[]"
        }
      ],
      "name": "canRedeemUtxoHash",
      "outputs": [
        {
          "name": "",
          "type": "bool"
        }
      ],
      "payable": false,
      "stateMutability": "view",
      "type": "function"
    },
    {
      "constant": true,
      "inputs": [],
      "name": "totalBtcCirculationAtFork",
      "outputs": [
        {
          "name": "",
          "type": "uint256"
        }
      ],
      "payable": false,
      "stateMutability": "view",
      "type": "function"
    },
    {
      "constant": true,
      "inputs": [
        {
          "name": "",
          "type": "address"
        },
        {
          "name": "",
          "type": "uint256"
        }
      ],
      "name": "staked",
      "outputs": [
        {
          "name": "stakeAmount",
          "type": "uint256"
        },
        {
          "name": "stakeTime",
          "type": "uint256"
        },
        {
          "name": "unlockTime",
          "type": "uint256"
        },
        {
          "name": "totalStakedCoinsAtStart",
          "type": "uint256"
        },
        {
          "name": "totalSupplyAtStart",
          "type": "uint256"
        }
      ],
      "payable": false,
      "stateMutability": "view",
      "type": "function"
    },
    {
      "constant": false,
      "inputs": [],
      "name": "storeWeekUnclaimed",
      "outputs": [],
      "payable": false,
      "stateMutability": "nonpayable",
      "type": "function"
    },
    {
      "constant": true,
      "inputs": [],
      "name": "origin",
      "outputs": [
        {
          "name": "",
          "type": "address"
        }
      ],
      "payable": false,
      "stateMutability": "view",
      "type": "function"
    },
    {
      "constant": true,
      "inputs": [],
      "name": "lastUpdatedWeek",
      "outputs": [
        {
          "name": "",
          "type": "uint256"
        }
      ],
      "payable": false,
      "stateMutability": "view",
      "type": "function"
    },
    {
      "constant": false,
      "inputs": [
        {
          "name": "_to",
          "type": "address"
        },
        {
          "name": "_value",
          "type": "uint256"
        }
      ],
      "name": "transfer",
      "outputs": [
        {
          "name": "",
          "type": "bool"
        }
      ],
      "payable": false,
      "stateMutability": "nonpayable",
      "type": "function"
    },
    {
      "constant": false,
      "inputs": [
        {
          "name": "_satoshis",
          "type": "uint256"
        },
        {
          "name": "_proof",
          "type": "bytes32[]"
        },
        {
          "name": "_pubKey",
          "type": "bytes"
        },
        {
          "name": "_isCompressed",
          "type": "bool"
        },
        {
          "name": "_v",
          "type": "uint8"
        },
        {
          "name": "_r",
          "type": "bytes32"
        },
        {
          "name": "_s",
          "type": "bytes32"
        },
        {
          "name": "_referrer",
          "type": "address"
        }
      ],
      "name": "redeemReferredUtxo",
      "outputs": [
        {
          "name": "_tokensRedeemed",
          "type": "uint256"
        }
      ],
      "payable": false,
      "stateMutability": "nonpayable",
      "type": "function"
    },
    {
      "constant": true,
      "inputs": [
        {
          "name": "_proof",
          "type": "bytes32[]"
        },
        {
          "name": "_merkleLeafHash",
          "type": "bytes32"
        }
      ],
      "name": "verifyProof",
      "outputs": [
        {
          "name": "",
          "type": "bool"
        }
      ],
      "payable": false,
      "stateMutability": "view",
      "type": "function"
    },
    {
      "constant": true,
      "inputs": [
        {
          "name": "_addr",
          "type": "address"
        },
        {
          "name": "_pubKey",
          "type": "bytes"
        },
        {
          "name": "_v",
          "type": "uint8"
        },
        {
          "name": "_r",
          "type": "bytes32"
        },
        {
          "name": "_s",
          "type": "bytes32"
        }
      ],
      "name": "ecdsaVerify",
      "outputs": [
        {
          "name": "",
          "type": "bool"
        }
      ],
      "payable": false,
      "stateMutability": "pure",
      "type": "function"
    },
    {
      "constant": true,
      "inputs": [
        {
          "name": "_originalAddress",
          "type": "bytes20"
        },
        {
          "name": "_satoshis",
          "type": "uint256"
        },
        {
          "name": "_proof",
          "type": "bytes32[]"
        }
      ],
      "name": "canRedeemUtxo",
      "outputs": [
        {
          "name": "",
          "type": "bool"
        }
      ],
      "payable": false,
      "stateMutability": "view",
      "type": "function"
    },
    {
      "constant": false,
      "inputs": [
        {
          "name": "_spender",
          "type": "address"
        },
        {
          "name": "_addedValue",
          "type": "uint256"
        }
      ],
      "name": "increaseApproval",
      "outputs": [
        {
          "name": "",
          "type": "bool"
        }
      ],
      "payable": false,
      "stateMutability": "nonpayable",
      "type": "function"
    },
    {
      "constant": true,
      "inputs": [
        {
          "name": "_owner",
          "type": "address"
        },
        {
          "name": "_spender",
          "type": "address"
        }
      ],
      "name": "allowance",
      "outputs": [
        {
          "name": "",
          "type": "uint256"
        }
      ],
      "payable": false,
      "stateMutability": "view",
      "type": "function"
    },
    {
      "constant": true,
      "inputs": [
        {
          "name": "_pubKey",
          "type": "bytes"
        },
        {
          "name": "_isCompressed",
          "type": "bool"
        }
      ],
      "name": "pubKeyToBitcoinAddress",
      "outputs": [
        {
          "name": "",
          "type": "bytes20"
        }
      ],
      "payable": false,
      "stateMutability": "pure",
      "type": "function"
    },
    {
      "constant": true,
      "inputs": [],
      "name": "totalRedeemed",
      "outputs": [
        {
          "name": "",
          "type": "uint256"
        }
      ],
      "payable": false,
      "stateMutability": "view",
      "type": "function"
    },
    {
      "anonymous": false,
      "inputs": [
        {
          "indexed": true,
          "name": "_address",
          "type": "address"
        },
        {
          "indexed": false,
          "name": "_reward",
          "type": "uint256"
        }
      ],
      "name": "Mint",
      "type": "event"
    },
    {
      "anonymous": false,
      "inputs": [
        {
          "indexed": true,
          "name": "owner",
          "type": "address"
        },
        {
          "indexed": true,
          "name": "spender",
          "type": "address"
        },
        {
          "indexed": false,
          "name": "value",
          "type": "uint256"
        }
      ],
      "name": "Approval",
      "type": "event"
    },
    {
      "anonymous": false,
      "inputs": [
        {
          "indexed": true,
          "name": "from",
          "type": "address"
        },
        {
          "indexed": true,
          "name": "to",
          "type": "address"
        },
        {
          "indexed": false,
          "name": "value",
          "type": "uint256"
        }
      ],
      "name": "Transfer",
      "type": "event"
    },
    {
      "constant": true,
      "inputs": [
        {
          "name": "_staker",
          "type": "address"
        }
      ],
      "name": "getUserStakes",
      "outputs": [
        {
          "name": "",
          "type": "uint256[]"
        },
        {
          "name": "",
          "type": "uint256[]"
        },
        {
          "name": "",
          "type": "uint256[]"
        },
        {
          "name": "",
          "type": "uint256[]"
        }
      ],
      "payable": false,
      "stateMutability": "view",
      "type": "function"
    },
    {
      "constant": true,
      "inputs": [],
      "name": "getWeeksSinceLaunch",
      "outputs": [
        {
          "name": "",
          "type": "uint256"
        }
      ],
      "payable": false,
      "stateMutability": "view",
      "type": "function"
    },
    {
      "constant": true,
      "inputs": [],
      "name": "isDuringBonusPeriod",
      "outputs": [
        {
          "name": "",
          "type": "bool"
        }
      ],
      "payable": false,
      "stateMutability": "view",
      "type": "function"
    },
    {
      "constant": false,
      "inputs": [
        {
          "name": "_staker",
          "type": "address"
        },
        {
          "name": "_stakeIndex",
          "type": "uint256"
        }
      ],
      "name": "removeArrayEntry",
      "outputs": [],
      "payable": false,
      "stateMutability": "nonpayable",
      "type": "function"
    },
    {
      "constant": true,
      "inputs": [
        {
          "name": "_principle",
          "type": "uint256"
        },
        {
          "name": "_periods",
          "type": "uint256"
        },
        {
          "name": "_rate",
          "type": "uint256"
        }
      ],
      "name": "compound",
      "outputs": [
        {
          "name": "",
          "type": "uint256"
        }
      ],
      "payable": false,
      "stateMutability": "pure",
      "type": "function"
    },
    {
      "constant": true,
      "inputs": [
        {
          "name": "_staker",
          "type": "address"
        },
        {
          "name": "_stakeIndex",
          "type": "uint256"
        }
      ],
      "name": "calculateStakingRewards",
      "outputs": [
        {
          "name": "",
          "type": "uint256"
        }
      ],
      "payable": false,
      "stateMutability": "view",
      "type": "function"
    },
    {
      "constant": true,
      "inputs": [
        {
          "name": "_stakeTime",
          "type": "uint256"
        },
        {
          "name": "_unlockTime",
          "type": "uint256"
        }
      ],
      "name": "calculateWeAreAllSatoshiRewards",
      "outputs": [
        {
          "name": "",
          "type": "uint256"
        }
      ],
      "payable": false,
      "stateMutability": "view",
      "type": "function"
    },
    {
      "constant": true,
      "inputs": [
        {
          "name": "_stakeAmount",
          "type": "uint256"
        }
      ],
      "name": "calculateViralRewards",
      "outputs": [
        {
          "name": "",
          "type": "uint256"
        }
      ],
      "payable": false,
      "stateMutability": "view",
      "type": "function"
    },
    {
      "constant": true,
      "inputs": [
        {
          "name": "_stakeAmount",
          "type": "uint256"
        }
      ],
      "name": "calculateCritMassRewards",
      "outputs": [
        {
          "name": "",
          "type": "uint256"
        }
      ],
      "payable": false,
      "stateMutability": "view",
      "type": "function"
    },
    {
      "constant": true,
      "inputs": [
        {
          "name": "_staker",
          "type": "address"
        },
        {
          "name": "_stakeIndex",
          "type": "uint256"
        }
      ],
      "name": "calculateAdditionalRewards",
      "outputs": [
        {
          "name": "",
          "type": "uint256"
        }
      ],
      "payable": false,
      "stateMutability": "view",
      "type": "function"
    },
    {
      "constant": true,
      "inputs": [
        {
          "name": "_staker",
          "type": "address"
        },
        {
          "name": "_startIndex",
          "type": "uint256"
        },
        {
          "name": "_endIndex",
          "type": "uint256"
        }
      ],
      "name": "getStakedAtIndexes",
      "outputs": [
        {
          "name": "",
          "type": "uint256"
        }
      ],
      "payable": false,
      "stateMutability": "view",
      "type": "function"
    },
    {
      "constant": true,
      "inputs": [
        {
          "name": "_staker",
          "type": "address"
        }
      ],
      "name": "getTotalUserStaked",
      "outputs": [
        {
          "name": "",
          "type": "uint256"
        }
      ],
      "payable": false,
      "stateMutability": "view",
      "type": "function"
    },
    {
      "constant": true,
      "inputs": [
        {
          "name": "_staker",
          "type": "address"
        },
        {
          "name": "_stakeIndex",
          "type": "uint256"
        }
      ],
      "name": "calculateSingleStakePlusRewards",
      "outputs": [
        {
          "name": "",
          "type": "uint256"
        }
      ],
      "payable": false,
      "stateMutability": "view",
      "type": "function"
    },
    {
      "constant": false,
      "inputs": [
        {
          "name": "_value",
          "type": "uint256"
        },
        {
          "name": "_unlockTime",
          "type": "uint256"
        }
      ],
      "name": "startStake",
      "outputs": [
        {
          "name": "",
          "type": "bool"
        }
      ],
      "payable": false,
      "stateMutability": "nonpayable",
      "type": "function"
    },
    {
      "constant": false,
      "inputs": [
        {
          "name": "_staker",
          "type": "address"
        },
        {
          "name": "_stakeIndex",
          "type": "uint256"
        }
      ],
      "name": "claimSingleStakingReward",
      "outputs": [
        {
          "name": "",
          "type": "bool"
        }
      ],
      "payable": false,
      "stateMutability": "nonpayable",
      "type": "function"
    },
    {
      "constant": false,
      "inputs": [
        {
          "name": "_staker",
          "type": "address"
        },
        {
          "name": "_startIndex",
          "type": "uint256"
        },
        {
          "name": "_endIndex",
          "type": "uint256"
        }
      ],
      "name": "claimMultipleStakingRewards",
      "outputs": [
        {
          "name": "",
          "type": "bool"
        }
      ],
      "payable": false,
      "stateMutability": "nonpayable",
      "type": "function"
    },
    {
      "constant": false,
      "inputs": [
        {
          "name": "_staker",
          "type": "address"
        }
      ],
      "name": "claimAllStakingRewards",
      "outputs": [
        {
          "name": "",
          "type": "bool"
        }
      ],
      "payable": false,
      "stateMutability": "nonpayable",
      "type": "function"
    }
  ],
  "bytecode": "0x60806040526000600555600060095534801561001a57600080fd5b50614d1d8061002a6000396000f30060806040526004361061025c576000357c0100000000000000000000000000000000000000000000000000000000900463ffffffff1680630867c0ad1461026157806308b4312b146102ff578063095ea7b31461032a578063128bfcae1461038f57806316043f5d146103de5780631765f4bf1461040957806318160ddd14610434578063229cfc321461045f57806323b872dd146104a05780632c3ee88c146105255780632c48d57b1461056657806330fd546e146105955780634f265bf4146105d65780635418796c1461060157806365925c2b146106aa57806366188463146106d5578063687cf4a41461073a5780636aaf67e21461078357806370a08231146107b6578063753bf8cd1461080d57806375889a2b1461090c578063790ca413146109675780637cdafe9d1461099257806381437de8146109f357806381cd84b914610a58578063842e298114610ae45780638716391914610c545780638d854c3414610ca15780638f16981614610ccc5780639283032c14610d49578063938b5f3214610d6057806394ce28e814610db75780639d65b89214610de2578063a9059cbb14610e0d578063b1ccf19314610e72578063b242c9bf14610f38578063b27f7a0e14610fa3578063b80ac7df14610fee578063bac5c0481461107a578063cb9c501f146110d1578063ce267b5514611140578063cfc2334e1461120a578063d73dd623146112ab578063dd62ed3e14611310578063e073ef6914611387578063e26e7b501461142e578063e39a385a1461146f578063f35dad40146114d0578063f3c85eba146114fb578063f6c45d0214611550575b600080fd5b34801561026d57600080fd5b506102e56004803603810190808035600019169060200190929190803560ff16906020019092919080356000191690602001909291908035600019169060200190929190803573ffffffffffffffffffffffffffffffffffffffff1690602001909291908035151590602001909291905050506115b1565b604051808215151515815260200191505060405180910390f35b34801561030b57600080fd5b5061031461179c565b6040518082815260200191505060405180910390f35b34801561033657600080fd5b50610375600480360381019080803573ffffffffffffffffffffffffffffffffffffffff169060200190929190803590602001909291905050506117a2565b604051808215151515815260200191505060405180910390f35b34801561039b57600080fd5b506103c46004803603810190808035906020019092919080359060200190929190505050611894565b604051808215151515815260200191505060405180910390f35b3480156103ea57600080fd5b506103f3611b98565b6040518082815260200191505060405180910390f35b34801561041557600080fd5b5061041e611b9d565b6040518082815260200191505060405180910390f35b34801561044057600080fd5b50610449611ba3565b6040518082815260200191505060405180910390f35b34801561046b57600080fd5b5061048a60048036038101908080359060200190929190505050611bad565b6040518082815260200191505060405180910390f35b3480156104ac57600080fd5b5061050b600480360381019080803573ffffffffffffffffffffffffffffffffffffffff169060200190929190803573ffffffffffffffffffffffffffffffffffffffff16906020019092919080359060200190929190505050611bf2565b604051808215151515815260200191505060405180910390f35b34801561053157600080fd5b5061055060048036038101908080359060200190929190505050611fac565b6040518082815260200191505060405180910390f35b34801561057257600080fd5b5061057b612326565b604051808215151515815260200191505060405180910390f35b3480156105a157600080fd5b506105c060048036038101908080359060200190929190505050612339565b6040518082815260200191505060405180910390f35b3480156105e257600080fd5b506105eb612351565b6040518082815260200191505060405180910390f35b34801561060d57600080fd5b50610668600480360381019080803590602001908201803590602001908080601f0160208091040260200160405190810160405280939291908181526020018383808284378201915050505050509192919290505050612358565b604051808273ffffffffffffffffffffffffffffffffffffffff1673ffffffffffffffffffffffffffffffffffffffff16815260200191505060405180910390f35b3480156106b657600080fd5b506106bf6123de565b6040518082815260200191505060405180910390f35b3480156106e157600080fd5b50610720600480360381019080803573ffffffffffffffffffffffffffffffffffffffff169060200190929190803590602001909291905050506123e6565b604051808215151515815260200191505060405180910390f35b34801561074657600080fd5b506107696004803603810190808035600019169060200190929190505050612677565b604051808215151515815260200191505060405180910390f35b34801561078f57600080fd5b50610798612697565b60405180826000191660001916815260200191505060405180910390f35b3480156107c257600080fd5b506107f7600480360381019080803573ffffffffffffffffffffffffffffffffffffffff16906020019092919050505061269d565b6040518082815260200191505060405180910390f35b34801561081957600080fd5b506108f66004803603810190808035906020019092919080359060200190820180359060200190808060200260200160405190810160405280939291908181526020018383602002808284378201915050505050509192919290803590602001908201803590602001908080601f0160208091040260200160405190810160405280939291908181526020018383808284378201915050505050509192919290803515159060200190929190803560ff169060200190929190803560001916906020019092919080356000191690602001909291905050506126e5565b6040518082815260200191505060405180910390f35b34801561091857600080fd5b5061094d600480360381019080803573ffffffffffffffffffffffffffffffffffffffff169060200190929190505050612989565b604051808215151515815260200191505060405180910390f35b34801561097357600080fd5b5061097c612b0e565b6040518082815260200191505060405180910390f35b34801561099e57600080fd5b506109dd600480360381019080803573ffffffffffffffffffffffffffffffffffffffff16906020019092919080359060200190929190505050612b14565b6040518082815260200191505060405180910390f35b3480156109ff57600080fd5b50610a3e600480360381019080803573ffffffffffffffffffffffffffffffffffffffff16906020019092919080359060200190929190505050612c21565b604051808215151515815260200191505060405180910390f35b348015610a6457600080fd5b50610aca6004803603810190808035600019169060200190929190803590602001908201803590602001908080602002602001604051908101604052809392919081815260200183836020028082843782019150505050505091929192905050506130b2565b604051808215151515815260200191505060405180910390f35b348015610af057600080fd5b50610b25600480360381019080803573ffffffffffffffffffffffffffffffffffffffff1690602001909291905050506130fd565b6040518080602001806020018060200180602001858103855289818151815260200191508051906020019060200280838360005b83811015610b74578082015181840152602081019050610b59565b50505050905001858103845288818151815260200191508051906020019060200280838360005b83811015610bb6578082015181840152602081019050610b9b565b50505050905001858103835287818151815260200191508051906020019060200280838360005b83811015610bf8578082015181840152602081019050610bdd565b50505050905001858103825286818151815260200191508051906020019060200280838360005b83811015610c3a578082015181840152602081019050610c1f565b505050509050019850505050505050505060405180910390f35b348015610c6057600080fd5b50610c9f600480360381019080803573ffffffffffffffffffffffffffffffffffffffff1690602001909291908035906020019092919050505061332f565b005b348015610cad57600080fd5b50610cb6613420565b6040518082815260200191505060405180910390f35b348015610cd857600080fd5b50610d17600480360381019080803573ffffffffffffffffffffffffffffffffffffffff16906020019092919080359060200190929190505050613426565b604051808681526020018581526020018481526020018381526020018281526020019550505050505060405180910390f35b348015610d5557600080fd5b50610d5e613478565b005b348015610d6c57600080fd5b50610d756134fe565b604051808273ffffffffffffffffffffffffffffffffffffffff1673ffffffffffffffffffffffffffffffffffffffff16815260200191505060405180910390f35b348015610dc357600080fd5b50610dcc613524565b6040518082815260200191505060405180910390f35b348015610dee57600080fd5b50610df7613566565b6040518082815260200191505060405180910390f35b348015610e1957600080fd5b50610e58600480360381019080803573ffffffffffffffffffffffffffffffffffffffff1690602001909291908035906020019092919050505061356c565b604051808215151515815260200191505060405180910390f35b348015610e7e57600080fd5b50610f2260048036038101908080359060200190929190803590602001908201803590602001919091929391929390803590602001908201803590602001919091929391929390803515159060200190929190803560ff16906020019092919080356000191690602001909291908035600019169060200190929190803573ffffffffffffffffffffffffffffffffffffffff16906020019092919050505061378b565b6040518082815260200191505060405180910390f35b348015610f4457600080fd5b50610f8d600480360381019080803573ffffffffffffffffffffffffffffffffffffffff169060200190929190803590602001909291908035906020019092919050505061395b565b6040518082815260200191505060405180910390f35b348015610faf57600080fd5b50610fd86004803603810190808035906020019092919080359060200190929190505050613b24565b6040518082815260200191505060405180910390f35b348015610ffa57600080fd5b50611060600480360381019080803590602001908201803590602001908080602002602001604051908101604052809392919081815260200183836020028082843782019150505050505091929192908035600019169060200190929190505050613bfe565b604051808215151515815260200191505060405180910390f35b34801561108657600080fd5b506110bb600480360381019080803573ffffffffffffffffffffffffffffffffffffffff169060200190929190505050613c15565b6040518082815260200191505060405180910390f35b3480156110dd57600080fd5b50611126600480360381019080803573ffffffffffffffffffffffffffffffffffffffff1690602001909291908035906020019092919080359060200190929190505050613c6f565b604051808215151515815260200191505060405180910390f35b34801561114c57600080fd5b506111f0600480360381019080803573ffffffffffffffffffffffffffffffffffffffff169060200190929190803590602001908201803590602001908080601f0160208091040260200160405190810160405280939291908181526020018383808284378201915050505050509192919290803560ff16906020019092919080356000191690602001909291908035600019169060200190929190505050613d79565b604051808215151515815260200191505060405180910390f35b34801561121657600080fd5b5061129160048036038101908080356bffffffffffffffffffffffff191690602001909291908035906020019092919080359060200190820180359060200190808060200260200160405190810160405280939291908181526020018383602002808284378201915050505050509192919290505050613e98565b604051808215151515815260200191505060405180910390f35b3480156112b757600080fd5b506112f6600480360381019080803573ffffffffffffffffffffffffffffffffffffffff16906020019092919080359060200190929190505050613f59565b604051808215151515815260200191505060405180910390f35b34801561131c57600080fd5b50611371600480360381019080803573ffffffffffffffffffffffffffffffffffffffff169060200190929190803573ffffffffffffffffffffffffffffffffffffffff169060200190929190505050614155565b6040518082815260200191505060405180910390f35b34801561139357600080fd5b506113fa600480360381019080803590602001908201803590602001908080601f01602080910402602001604051908101604052809392919081815260200183838082843782019150505050505091929192908035151590602001909291905050506141dc565b60405180826bffffffffffffffffffffffff19166bffffffffffffffffffffffff1916815260200191505060405180910390f35b34801561143a57600080fd5b506114596004803603810190808035906020019092919050505061459b565b6040518082815260200191505060405180910390f35b34801561147b57600080fd5b506114ba600480360381019080803573ffffffffffffffffffffffffffffffffffffffff169060200190929190803590602001909291905050506145e0565b6040518082815260200191505060405180910390f35b3480156114dc57600080fd5b506114e56146d6565b6040518082815260200191505060405180910390f35b34801561150757600080fd5b5061153a6004803603810190808035906020019092919080359060200190929190803590602001909291905050506146dc565b6040518082815260200191505060405180910390f35b34801561155c57600080fd5b5061159b600480360381019080803573ffffffffffffffffffffffffffffffffffffffff169060200190929190803590602001909291905050506147d9565b6040518082815260200191505060405180910390f35b60008060608315156115c5578891506116df565b6040805190810160405280601c81526020017f19457468657265756d205369676e6564204d6573736167653a0a333200000000815250905080896040516020018083805190602001908083835b6020831015156116375780518252602082019150602081019050602083039250611612565b6001836020036101000a0380198251168184511680821785525050505050509050018260001916600019168152602001925050506040516020818303038152906040526040518082805190602001908083835b6020831015156116af578051825260208201915060208101905060208303925061168a565b6001836020036101000a038019825116818451168082178552505050505050905001915050604051809103902091505b8473ffffffffffffffffffffffffffffffffffffffff166001838a8a8a604051600081526020016040526040518085600019166000191681526020018460ff1660ff1681526020018360001916600019168152602001826000191660001916815260200194505050505060206040516020810390808403906000865af115801561176d573d6000803e3d6000fd5b5050506020604051035173ffffffffffffffffffffffffffffffffffffffff1614925050509695505050505050565b600a5481565b600081600260003373ffffffffffffffffffffffffffffffffffffffff1673ffffffffffffffffffffffffffffffffffffffff16815260200190815260200160002060008573ffffffffffffffffffffffffffffffffffffffff1673ffffffffffffffffffffffffffffffffffffffff168152602001908152602001600020819055508273ffffffffffffffffffffffffffffffffffffffff163373ffffffffffffffffffffffffffffffffffffffff167f8c5be1e5ebec7d5bd14f71427d1e84f3dd0314c0f7b2291e5b200ac8c7c3b925846040518082815260200191505060405180910390a36001905092915050565b600080339050836000808373ffffffffffffffffffffffffffffffffffffffff1673ffffffffffffffffffffffffffffffffffffffff16815260200190815260200160002054101515156118e757600080fd5b6118fe6312cc03004261494690919063ffffffff16565b831115151561190c57600080fd5b611914613478565b611965846000808473ffffffffffffffffffffffffffffffffffffffff1673ffffffffffffffffffffffffffffffffffffffff1681526020019081526020016000205461496290919063ffffffff16565b6000808373ffffffffffffffffffffffffffffffffffffffff1673ffffffffffffffffffffffffffffffffffffffff168152602001908152602001600020819055506119f8846000803073ffffffffffffffffffffffffffffffffffffffff1673ffffffffffffffffffffffffffffffffffffffff1681526020019081526020016000205461494690919063ffffffff16565b6000803073ffffffffffffffffffffffffffffffffffffffff1673ffffffffffffffffffffffffffffffffffffffff16815260200190815260200160002081905550600d60008273ffffffffffffffffffffffffffffffffffffffff1673ffffffffffffffffffffffffffffffffffffffff16815260200190815260200160002060a060405190810160405280868152602001428152602001858152602001600c5481526020016001548152509080600181540180825580915050906001820390600052602060002090600502016000909192909190915060008201518160000155602082015181600101556040820151816002015560608201518160030155608082015181600401555050506000611b6682611b616001600d60008773ffffffffffffffffffffffffffffffffffffffff1673ffffffffffffffffffffffffffffffffffffffff1681526020019081526020016000208054905061496290919063ffffffff16565b6147d9565b111515611b7257600080fd5b611b8784600c5461494690919063ffffffff16565b600c81905550600191505092915050565b600181565b600c5481565b6000600154905090565b6000611beb600a611bdd600b54611bcf6009548761497b90919063ffffffff16565b6149b390919063ffffffff16565b6149b390919063ffffffff16565b9050919050565b60008073ffffffffffffffffffffffffffffffffffffffff168373ffffffffffffffffffffffffffffffffffffffff1614151515611c2f57600080fd5b6000808573ffffffffffffffffffffffffffffffffffffffff1673ffffffffffffffffffffffffffffffffffffffff168152602001908152602001600020548211151515611c7c57600080fd5b600260008573ffffffffffffffffffffffffffffffffffffffff1673ffffffffffffffffffffffffffffffffffffffff16815260200190815260200160002060003373ffffffffffffffffffffffffffffffffffffffff1673ffffffffffffffffffffffffffffffffffffffff168152602001908152602001600020548211151515611d0757600080fd5b611d58826000808773ffffffffffffffffffffffffffffffffffffffff1673ffffffffffffffffffffffffffffffffffffffff1681526020019081526020016000205461496290919063ffffffff16565b6000808673ffffffffffffffffffffffffffffffffffffffff1673ffffffffffffffffffffffffffffffffffffffff16815260200190815260200160002081905550611deb826000808673ffffffffffffffffffffffffffffffffffffffff1673ffffffffffffffffffffffffffffffffffffffff1681526020019081526020016000205461494690919063ffffffff16565b6000808573ffffffffffffffffffffffffffffffffffffffff1673ffffffffffffffffffffffffffffffffffffffff16815260200190815260200160002081905550611ebc82600260008773ffffffffffffffffffffffffffffffffffffffff1673ffffffffffffffffffffffffffffffffffffffff16815260200190815260200160002060003373ffffffffffffffffffffffffffffffffffffffff1673ffffffffffffffffffffffffffffffffffffffff1681526020019081526020016000205461496290919063ffffffff16565b600260008673ffffffffffffffffffffffffffffffffffffffff1673ffffffffffffffffffffffffffffffffffffffff16815260200190815260200160002060003373ffffffffffffffffffffffffffffffffffffffff1673ffffffffffffffffffffffffffffffffffffffff168152602001908152602001600020819055508273ffffffffffffffffffffffffffffffffffffffff168473ffffffffffffffffffffffffffffffffffffffff167fddf252ad1be2c89b69c2b068fc378daa952ba7f163c4a11628f55a4df523b3ef846040518082815260200191505060405180910390a3600190509392505050565b6000806000806000611fcc6402540be4008761497b90919063ffffffff16565b9350683635c9adc5dea000008411156120655769152d02c7e14af680000084101561204d57612046640ba43b7400612038600961202a600261201c64174876e8008b61496290919063ffffffff16565b61497b90919063ffffffff16565b6149b390919063ffffffff16565b61494690919063ffffffff16565b9350612064565b6120616004856149b390919063ffffffff16565b93505b5b42600454106120755760006120a0565b61209f62093a806120916004544261496290919063ffffffff16565b6149b390919063ffffffff16565b5b92506120c96120b960028561497b90919063ffffffff16565b606461496290919063ffffffff16565b91506120f160646120e3848761497b90919063ffffffff16565b6149b390919063ffffffff16565b9050602d8311156121045780945061231d565b602083111561213b57612134606461212660658461497b90919063ffffffff16565b6149b390919063ffffffff16565b945061231d565b60188311156121725761216b606461215d60668461497b90919063ffffffff16565b6149b390919063ffffffff16565b945061231d565b60128311156121a9576121a2606461219460678461497b90919063ffffffff16565b6149b390919063ffffffff16565b945061231d565b600e8311156121e0576121d960646121cb60688461497b90919063ffffffff16565b6149b390919063ffffffff16565b945061231d565b600a83111561221757612210606461220260698461497b90919063ffffffff16565b6149b390919063ffffffff16565b945061231d565b600783111561224e576122476064612239606a8461497b90919063ffffffff16565b6149b390919063ffffffff16565b945061231d565b60058311156122855761227e6064612270606b8461497b90919063ffffffff16565b6149b390919063ffffffff16565b945061231d565b60038311156122bc576122b560646122a7606c8461497b90919063ffffffff16565b6149b390919063ffffffff16565b945061231d565b60018311156122f3576122ec60646122de606d8461497b90919063ffffffff16565b6149b390919063ffffffff16565b945061231d565b61231a606461230c606e8461497b90919063ffffffff16565b6149b390919063ffffffff16565b94505b50505050919050565b60006032612332613524565b1115905090565b60066020528060005260406000206000915090505481565b620d2f0081565b600073ffffffffffffffffffffffffffffffffffffffff826040518082805190602001908083835b6020831015156123a55780518252602082019150602081019050602083039250612380565b6001836020036101000a038019825116818451168082178552505050505050905001915050604051809103902060019004169050919050565b6312cc030081565b600080600260003373ffffffffffffffffffffffffffffffffffffffff1673ffffffffffffffffffffffffffffffffffffffff16815260200190815260200160002060008573ffffffffffffffffffffffffffffffffffffffff1673ffffffffffffffffffffffffffffffffffffffff168152602001908152602001600020549050808311156124f7576000600260003373ffffffffffffffffffffffffffffffffffffffff1673ffffffffffffffffffffffffffffffffffffffff16815260200190815260200160002060008673ffffffffffffffffffffffffffffffffffffffff1673ffffffffffffffffffffffffffffffffffffffff1681526020019081526020016000208190555061258b565b61250a838261496290919063ffffffff16565b600260003373ffffffffffffffffffffffffffffffffffffffff1673ffffffffffffffffffffffffffffffffffffffff16815260200190815260200160002060008673ffffffffffffffffffffffffffffffffffffffff1673ffffffffffffffffffffffffffffffffffffffff168152602001908152602001600020819055505b8373ffffffffffffffffffffffffffffffffffffffff163373ffffffffffffffffffffffffffffffffffffffff167f8c5be1e5ebec7d5bd14f71427d1e84f3dd0314c0f7b2291e5b200ac8c7c3b925600260003373ffffffffffffffffffffffffffffffffffffffff1673ffffffffffffffffffffffffffffffffffffffff16815260200190815260200160002060008873ffffffffffffffffffffffffffffffffffffffff1673ffffffffffffffffffffffffffffffffffffffff168152602001908152602001600020546040518082815260200191505060405180910390a3600191505092915050565b60086020528060005260406000206000915054906101000a900460ff1681565b60075481565b60008060008373ffffffffffffffffffffffffffffffffffffffff1673ffffffffffffffffffffffffffffffffffffffff168152602001908152602001600020549050919050565b600080600060045442101515156126fb57600080fd5b612703613478565b61270d88886141dc565b9150818a60405160200180836bffffffffffffffffffffffff19166bffffffffffffffffffffffff19168152601401828152602001925050506040516020818303038152906040526040518082805190602001908083835b60208310151561278a5780518252602082019150602081019050602083039250612765565b6001836020036101000a038019825116818451168082178552505050505050905001915050604051809103902090506127c3818a6130b2565b15156127ce57600080fd5b6127db3389888888613d79565b15156127e657600080fd5b600160086000836000191660001916815260200190815260200160002060006101000a81548160ff0219169083151502179055506128238a611fac565b9250600a5461283d8460095461494690919063ffffffff16565b1115151561284a57600080fd5b61285f8360095461494690919063ffffffff16565b6009819055506128b6836000803373ffffffffffffffffffffffffffffffffffffffff1673ffffffffffffffffffffffffffffffffffffffff1681526020019081526020016000205461494690919063ffffffff16565b6000803373ffffffffffffffffffffffffffffffffffffffff1673ffffffffffffffffffffffffffffffffffffffff1681526020019081526020016000208190555061290d8360015461494690919063ffffffff16565b6001819055503373ffffffffffffffffffffffffffffffffffffffff16600073ffffffffffffffffffffffffffffffffffffffff167fddf252ad1be2c89b69c2b068fc378daa952ba7f163c4a11628f55a4df523b3ef856040518082815260200191505060405180910390a38292505050979650505050505050565b600080600080600d60008673ffffffffffffffffffffffffffffffffffffffff1673ffffffffffffffffffffffffffffffffffffffff168152602001908152602001600020805490509250600091506000905060008314156129ee5760009350612b06565b5b82821015612b0157600d60008673ffffffffffffffffffffffffffffffffffffffff1673ffffffffffffffffffffffffffffffffffffffff16815260200190815260200160002080549050612a4e60018361494690919063ffffffff16565b11612a595780612a5c565b60005b9050600d60008673ffffffffffffffffffffffffffffffffffffffff1673ffffffffffffffffffffffffffffffffffffffff16815260200190815260200160002081815481101515612aaa57fe5b90600052602060002090600502016002015442101515612ad057612ace8582612c21565b505b612ae460018361494690919063ffffffff16565b9150612afa60018261494690919063ffffffff16565b90506129ef565b600193505b505050919050565b60045481565b600080600080600080600d60008973ffffffffffffffffffffffffffffffffffffffff1673ffffffffffffffffffffffffffffffffffffffff16815260200190815260200160002087815481101515612b6957fe5b906000526020600020906005020194506032612ba962093a80612b9b600454896001015461496290919063ffffffff16565b6149b390919063ffffffff16565b111515612c1157612bc285600101548660020154613b24565b9350612bd18560000154611bad565b9250612be0856000015461459b565b9150612c0782612bf9858761494690919063ffffffff16565b61494690919063ffffffff16565b9050809550612c16565b600095505b505050505092915050565b6000612c2b614c48565b600080600080600d60008973ffffffffffffffffffffffffffffffffffffffff1673ffffffffffffffffffffffffffffffffffffffff16815260200190815260200160002087815481101515612c7d57fe5b906000526020600020906005020160a0604051908101604052908160008201548152602001600182015481526020016002820154815260200160038201548152602001600482015481525050945084604001514210151515612cde57600080fd5b612ce6613478565b84600001519350612cf788886147d9565b9250612d038888612b14565b9150612d2a82612d1c858761494690919063ffffffff16565b61494690919063ffffffff16565b9050612d4184600c5461496290919063ffffffff16565b600c81905550612d98846000803073ffffffffffffffffffffffffffffffffffffffff1673ffffffffffffffffffffffffffffffffffffffff1681526020019081526020016000205461496290919063ffffffff16565b6000803073ffffffffffffffffffffffffffffffffffffffff1673ffffffffffffffffffffffffffffffffffffffff16815260200190815260200160002081905550612e2b816000808b73ffffffffffffffffffffffffffffffffffffffff1673ffffffffffffffffffffffffffffffffffffffff1681526020019081526020016000205461494690919063ffffffff16565b6000808a73ffffffffffffffffffffffffffffffffffffffff1673ffffffffffffffffffffffffffffffffffffffff16815260200190815260200160002081905550612ee082600080600360009054906101000a900473ffffffffffffffffffffffffffffffffffffffff1673ffffffffffffffffffffffffffffffffffffffff1673ffffffffffffffffffffffffffffffffffffffff1681526020019081526020016000205461494690919063ffffffff16565b600080600360009054906101000a900473ffffffffffffffffffffffffffffffffffffffff1673ffffffffffffffffffffffffffffffffffffffff1673ffffffffffffffffffffffffffffffffffffffff168152602001908152602001600020819055508773ffffffffffffffffffffffffffffffffffffffff163073ffffffffffffffffffffffffffffffffffffffff167fddf252ad1be2c89b69c2b068fc378daa952ba7f163c4a11628f55a4df523b3ef87600001516040518082815260200191505060405180910390a3612fd5612fc460028461497b90919063ffffffff16565b60015461494690919063ffffffff16565b6001819055508773ffffffffffffffffffffffffffffffffffffffff167f0f6798a560793a54c3bcfe86a93cde1e73087d944c0ea20544137d4121396885836040518082815260200191505060405180910390a2600360009054906101000a900473ffffffffffffffffffffffffffffffffffffffff1673ffffffffffffffffffffffffffffffffffffffff167f0f6798a560793a54c3bcfe86a93cde1e73087d944c0ea20544137d4121396885836040518082815260200191505060405180910390a26130a3888861332f565b60019550505050505092915050565b600080151560086000856000191660001916815260200190815260200160002060009054906101000a900460ff1615151480156130f557506130f48284613bfe565b5b905092915050565b6060806060806000606080606080600080600d60008d73ffffffffffffffffffffffffffffffffffffffff1673ffffffffffffffffffffffffffffffffffffffff168152602001908152602001600020805490509650866040519080825280602002602001820160405280156131825781602001602082028038833980820191505090505b509550866040519080825280602002602001820160405280156131b45781602001602082028038833980820191505090505b509450866040519080825280602002602001820160405280156131e65781602001602082028038833980820191505090505b509350866040519080825280602002602001820160405280156132185781602001602082028038833980820191505090505b509250600091505b8682101561331557600d60008d73ffffffffffffffffffffffffffffffffffffffff1673ffffffffffffffffffffffffffffffffffffffff1681526020019081526020016000208281548110151561327457fe5b906000526020600020906005020190508060000154868381518110151561329757fe5b9060200190602002018181525050806001015485838151811015156132b857fe5b9060200190602002018181525050806002015484838151811015156132d957fe5b9060200190602002018181525050806003015483838151811015156132fa57fe5b90602001906020020181815250508180600101925050613220565b858585859a509a509a509a50505050505050509193509193565b6000600d60008473ffffffffffffffffffffffffffffffffffffffff1673ffffffffffffffffffffffffffffffffffffffff16815260200190815260200160002090508061338b6001838054905061496290919063ffffffff16565b81548110151561339757fe5b906000526020600020906005020181838154811015156133b357fe5b9060005260206000209060050201600082015481600001556001820154816001015560028201548160020155600382015481600301556004820154816004015590505061340e6001828054905061496290919063ffffffff16565b818161341a9190614c78565b50505050565b600b5481565b600d6020528160005260406000208181548110151561344157fe5b9060005260206000209060050201600091509150508060000154908060010154908060020154908060030154908060040154905085565b6000806134a562093a806134976004544261496290919063ffffffff16565b6149b390919063ffffffff16565b9150603282111580156134b9575060055482115b156134fa576134d5600954600a5461496290919063ffffffff16565b9050806006600060018503815260200190815260200160002081905550816005819055505b5050565b600360009054906101000a900473ffffffffffffffffffffffffffffffffffffffff1681565b60006004544211613536576000613561565b61356062093a806135526004544261496290919063ffffffff16565b6149b390919063ffffffff16565b5b905090565b60055481565b60008073ffffffffffffffffffffffffffffffffffffffff168373ffffffffffffffffffffffffffffffffffffffff16141515156135a957600080fd5b6000803373ffffffffffffffffffffffffffffffffffffffff1673ffffffffffffffffffffffffffffffffffffffff1681526020019081526020016000205482111515156135f657600080fd5b613647826000803373ffffffffffffffffffffffffffffffffffffffff1673ffffffffffffffffffffffffffffffffffffffff1681526020019081526020016000205461496290919063ffffffff16565b6000803373ffffffffffffffffffffffffffffffffffffffff1673ffffffffffffffffffffffffffffffffffffffff168152602001908152602001600020819055506136da826000808673ffffffffffffffffffffffffffffffffffffffff1673ffffffffffffffffffffffffffffffffffffffff1681526020019081526020016000205461494690919063ffffffff16565b6000808573ffffffffffffffffffffffffffffffffffffffff1673ffffffffffffffffffffffffffffffffffffffff168152602001908152602001600020819055508273ffffffffffffffffffffffffffffffffffffffff163373ffffffffffffffffffffffffffffffffffffffff167fddf252ad1be2c89b69c2b068fc378daa952ba7f163c4a11628f55a4df523b3ef846040518082815260200191505060405180910390a36001905092915050565b60003373ffffffffffffffffffffffffffffffffffffffff168273ffffffffffffffffffffffffffffffffffffffff16141515156137c857600080fd5b600073ffffffffffffffffffffffffffffffffffffffff168273ffffffffffffffffffffffffffffffffffffffff161415151561380457600080fd5b6138748b8b8b808060200260200160405190810160405280939291908181526020018383602002808284378201915050505050508a8a8080601f016020809104026020016040519081016040528093929190818152602001838380828437820191505050505050898989896126e5565b90506138da61388d6014836149b390919063ffffffff16565b6000808573ffffffffffffffffffffffffffffffffffffffff1673ffffffffffffffffffffffffffffffffffffffff1681526020019081526020016000205461494690919063ffffffff16565b6000808473ffffffffffffffffffffffffffffffffffffffff1673ffffffffffffffffffffffffffffffffffffffff168152602001908152602001600020819055506139446139336014836149b390919063ffffffff16565b60015461494690919063ffffffff16565b6001819055508090509a9950505050505050505050565b6000806000806001600d60008973ffffffffffffffffffffffffffffffffffffffff1673ffffffffffffffffffffffffffffffffffffffff168152602001908152602001600020805490500392508285111515156139b857600080fd5b600086101515156139c857600080fd5b6000600d60008973ffffffffffffffffffffffffffffffffffffffff1673ffffffffffffffffffffffffffffffffffffffff168152602001908152602001600020805490501415613a1c5760009350613b1a565b84861415613a8a57600d60008873ffffffffffffffffffffffffffffffffffffffff1673ffffffffffffffffffffffffffffffffffffffff1681526020019081526020016000206000815481101515613a7157fe5b9060005260206000209060050201600001549350613b1a565b8590505b8481111515613b1657613b07600d60008973ffffffffffffffffffffffffffffffffffffffff1673ffffffffffffffffffffffffffffffffffffffff16815260200190815260200160002082815481101515613ae657fe5b9060005260206000209060050201600001548361494690919063ffffffff16565b91508080600101915050613a8e565b8193505b5050509392505050565b60008060008060008060009450613b5b62093a80613b4d6004548b61496290919063ffffffff16565b6149b390919063ffffffff16565b9350613b8762093a80613b796004548a61496290919063ffffffff16565b6149b390919063ffffffff16565b925060328311613b975782613b9a565b60325b91508390505b81811015613bf057613be1613bd2603260066000858152602001908152602001600020546149b390919063ffffffff16565b8661494690919063ffffffff16565b94508080600101915050613ba0565b849550505050505092915050565b6000613c0d83600754846149c9565b905092915050565b6000613c688260006001600d60008773ffffffffffffffffffffffffffffffffffffffff1673ffffffffffffffffffffffffffffffffffffffff168152602001908152602001600020805490500361395b565b9050919050565b600080828411151515613c8157600080fd5b600d60008673ffffffffffffffffffffffffffffffffffffffff1673ffffffffffffffffffffffffffffffffffffffff1681526020019081526020016000208054905083101515613cd157600080fd5b8390505b8281111515613d6d57600d60008673ffffffffffffffffffffffffffffffffffffffff1673ffffffffffffffffffffffffffffffffffffffff1681526020019081526020016000206000815481101515613d2b57fe5b90600052602060002090600502016002015442101515613d6857613d50856000612c21565b50613d6560018261494690919063ffffffff16565b90505b613cd5565b60019150509392505050565b6000613e8d600287604051602001808273ffffffffffffffffffffffffffffffffffffffff1673ffffffffffffffffffffffffffffffffffffffff166c010000000000000000000000000281526014019150506040516020818303038152906040526040518082805190602001908083835b602083101515613e105780518252602082019150602081019050602083039250613deb565b6001836020036101000a0380198251168184511680821785525050505050509050019150506020604051808303816000865af1158015613e54573d6000803e3d6000fd5b5050506040513d6020811015613e6957600080fd5b8101908080519060200190929190505050858585613e868a612358565b60006115b1565b905095945050505050565b600080848460405160200180836bffffffffffffffffffffffff19166bffffffffffffffffffffffff19168152601401828152602001925050506040516020818303038152906040526040518082805190602001908083835b602083101515613f165780518252602082019150602081019050602083039250613ef1565b6001836020036101000a03801982511681845116808217855250505050505090500191505060405180910390209050613f4f81846130b2565b9150509392505050565b6000613fea82600260003373ffffffffffffffffffffffffffffffffffffffff1673ffffffffffffffffffffffffffffffffffffffff16815260200190815260200160002060008673ffffffffffffffffffffffffffffffffffffffff1673ffffffffffffffffffffffffffffffffffffffff1681526020019081526020016000205461494690919063ffffffff16565b600260003373ffffffffffffffffffffffffffffffffffffffff1673ffffffffffffffffffffffffffffffffffffffff16815260200190815260200160002060008573ffffffffffffffffffffffffffffffffffffffff1673ffffffffffffffffffffffffffffffffffffffff168152602001908152602001600020819055508273ffffffffffffffffffffffffffffffffffffffff163373ffffffffffffffffffffffffffffffffffffffff167f8c5be1e5ebec7d5bd14f71427d1e84f3dd0314c0f7b2291e5b200ac8c7c3b925600260003373ffffffffffffffffffffffffffffffffffffffff1673ffffffffffffffffffffffffffffffffffffffff16815260200190815260200160002060008773ffffffffffffffffffffffffffffffffffffffff1673ffffffffffffffffffffffffffffffffffffffff168152602001908152602001600020546040518082815260200191505060405180910390a36001905092915050565b6000600260008473ffffffffffffffffffffffffffffffffffffffff1673ffffffffffffffffffffffffffffffffffffffff16815260200190815260200160002060008373ffffffffffffffffffffffffffffffffffffffff1673ffffffffffffffffffffffffffffffffffffffff16815260200190815260200160002054905092915050565b6000806000806141ed866000614b6c565b6001900492506141fe866020614b6c565b60019004915084156143da57600060028381151561421857fe5b0614614225576003614228565b60025b9050600360028285604051602001808360ff1660ff167f0100000000000000000000000000000000000000000000000000000000000000028152600101828152602001925050506040516020818303038152906040526040518082805190602001908083835b6020831015156142b3578051825260208201915060208101905060208303925061428e565b6001836020036101000a0380198251168184511680821785525050505050509050019150506020604051808303816000865af11580156142f7573d6000803e3d6000fd5b5050506040513d602081101561430c57600080fd5b81019080805190602001909291905050506040516020018082600019166000191681526020019150506040516020818303038152906040526040518082805190602001908083835b6020831015156143795780518252602082019150602081019050602083039250614354565b6001836020036101000a0380198251168184511680821785525050505050509050019150506020604051808303816000865af11580156143bd573d6000803e3d6000fd5b505050604051516c01000000000000000000000000029350614592565b6004905060036002828585604051602001808460ff1660ff167f010000000000000000000000000000000000000000000000000000000000000002815260010183815260200182815260200193505050506040516020818303038152906040526040518082805190602001908083835b60208310151561446f578051825260208201915060208101905060208303925061444a565b6001836020036101000a0380198251168184511680821785525050505050509050019150506020604051808303816000865af11580156144b3573d6000803e3d6000fd5b5050506040513d60208110156144c857600080fd5b81019080805190602001909291905050506040516020018082600019166000191681526020019150506040516020818303038152906040526040518082805190602001908083835b6020831015156145355780518252602082019150602081019050602083039250614510565b6001836020036101000a0380198251168184511680821785525050505050509050019150506020604051808303816000865af1158015614579573d6000803e3d6000fd5b505050604051516c010000000000000000000000000293505b50505092915050565b60006145d9600a6145cb600a546145bd6009548761497b90919063ffffffff16565b6149b390919063ffffffff16565b6149b390919063ffffffff16565b9050919050565b600080600d60008573ffffffffffffffffffffffffffffffffffffffff1673ffffffffffffffffffffffffffffffffffffffff1681526020019081526020016000208381548110151561462f57fe5b9060005260206000209060050201600001549050600d60008573ffffffffffffffffffffffffffffffffffffffff1673ffffffffffffffffffffffffffffffffffffffff1681526020019081526020016000208381548110151561468f57fe5b9060005260206000209060050201600201544211156146cb576146c46146b58585612b14565b8261494690919063ffffffff16565b91506146cf565b8091505b5092915050565b60095481565b600080600080600080600a945084888115156146f457fe5b06935061470a85896149b390919063ffffffff16565b92506147246402540be4008a6149b390919063ffffffff16565b9150600090505b8281101561477b5761475e856127100a614750878a0a8561497b90919063ffffffff16565b6149b390919063ffffffff16565b915061477460018261494690919063ffffffff16565b905061472b565b6000841415156147b3576147b0846127100a6147a2868a0a8561497b90919063ffffffff16565b6149b390919063ffffffff16565b91505b6147cb6402540be4008361497b90919063ffffffff16565b955050505050509392505050565b6000806000806000806000806000600d60008c73ffffffffffffffffffffffffffffffffffffffff1673ffffffffffffffffffffffffffffffffffffffff1681526020019081526020016000208a81548110151561483357fe5b906000526020600020906005020197506148586064600161497b90919063ffffffff16565b965060019550600088600301541415156148b05761489a886004015461488c60648b6003015461497b90919063ffffffff16565b6149b390919063ffffffff16565b9450600085116148ab5760016148ad565b845b95505b6148c386886149b390919063ffffffff16565b93506148da6127108561494690919063ffffffff16565b925061490c620d2f006148fe8a600101548b6002015461496290919063ffffffff16565b6149b390919063ffffffff16565b915061491d886000015483856146dc565b905061493688600001548261496290919063ffffffff16565b9850505050505050505092915050565b6000818301905082811015151561495957fe5b80905092915050565b600082821115151561497057fe5b818303905092915050565b60008083141561498e57600090506149ad565b818302905081838281151561499f57fe5b041415156149a957fe5b8090505b92915050565b600081838115156149c057fe5b04905092915050565b600080600080849250600091505b8651821015614b555786828151811015156149ee57fe5b906020019060200201519050806000191683600019161015614aab5782816040516020018083600019166000191681526020018260001916600019168152602001925050506040516020818303038152906040526040518082805190602001908083835b602083101515614a775780518252602082019150602081019050602083039250614a52565b6001836020036101000a03801982511681845116808217855250505050505090500191505060405180910390209250614b48565b80836040516020018083600019166000191681526020018260001916600019168152602001925050506040516020818303038152906040526040518082805190602001908083835b602083101515614b185780518252602082019150602081019050602083039250614af3565b6001836020036101000a038019825116818451168082178552505050505050905001915050604051809103902092505b81806001019250506149d7565b856000191683600019161493505050509392505050565b600080600090505b6020811015614c3e576008810284848301815181101515614b9157fe5b9060200101517f010000000000000000000000000000000000000000000000000000000000000090047f0100000000000000000000000000000000000000000000000000000000000000027effffffffffffffffffffffffffffffffffffffffffffffffffffffffffffff19167fff0000000000000000000000000000000000000000000000000000000000000060010216600019169060020a9004821891508080600101915050614b74565b8191505092915050565b60a06040519081016040528060008152602001600081526020016000815260200160008152602001600081525090565b815481835581811115614ca557600502816005028360005260206000209182019101614ca49190614caa565b5b505050565b614cee91905b80821115614cea57600080820160009055600182016000905560028201600090556003820160009055600482016000905550600501614cb0565b5090565b905600a165627a7a723058203a7a7ad1be37b4bec29265cf9df94daf74026ec58bf8fe22eb2b030b2bc017780029",
  "source": "pragma solidity ^0.4.23;\nimport \"./UTXORedeemableToken.sol\";\n\n\ncontract StakeableToken is UTXORedeemableToken {\n\n  event Mint(address indexed _address, uint _reward);\n\n  uint256 public totalBtcCirculationAtFork;\n  uint256 public totalStakedCoins;\n  uint256 public constant interestRatePercent = 1;\n  uint256 public constant maxStakingTimeInSeconds = 365 days * 10;\n  uint256 public constant oneInterestPeriodInSeconds = 10 days;\n\n  struct StakeStruct {\n    uint256 stakeAmount;\n    uint256 stakeTime;\n    uint256 unlockTime;\n    uint256 totalStakedCoinsAtStart;\n    uint256 totalSupplyAtStart;\n  }\n\n  mapping(address => StakeStruct[]) public staked;\n\n  /************************\n  *start utility functions*\n  ************************/\n\n  function getUserStakes(address _staker)\n    public\n    view\n    returns (uint256[], uint256[], uint256[], uint256[])\n  {\n    uint256 _stakesLength = staked[_staker].length;\n    uint256[] memory _stakeAmount = new uint256[](_stakesLength);\n    uint256[] memory _stakeTime = new uint256[](_stakesLength);\n    uint256[] memory _unlockTime = new uint256[](_stakesLength);\n    uint256[] memory _totalStakedCoinsAtStart = new uint256[](_stakesLength);\n\n    for (uint256 _i = 0; _i < _stakesLength; _i++) {\n      StakeStruct storage stake = staked[_staker][_i];\n      _stakeAmount[_i] = stake.stakeAmount;\n      _stakeTime[_i] = stake.stakeTime;\n      _unlockTime[_i] = stake.unlockTime;\n      _totalStakedCoinsAtStart[_i] = stake.totalStakedCoinsAtStart;\n    }\n\n    return (_stakeAmount, _stakeTime, _unlockTime, _totalStakedCoinsAtStart);\n  }\n\n  function getWeeksSinceLaunch()\n    public\n    view\n    returns (uint256)\n  {\n    return block.timestamp > launchTime \n      ? block.timestamp.sub(launchTime).div(7 days) \n      : 0;\n  }\n\n  function isDuringBonusPeriod()\n    public\n    view\n    returns (bool)\n  {\n    return getWeeksSinceLaunch() <= 50;\n  }\n\n  /** \n    @dev Moves last item in array to location of item to be removed,\n    overwriting array item. Shortens array length by 1, removing now\n    duplicate item at end of array.\n    @param _staker staker address for accessing array\n    @param _stakeIndex index of the item to delete\n  */\n  function removeArrayEntry(\n    address _staker,\n    uint256 _stakeIndex\n  )\n    public\n  {\n    StakeStruct[] storage _stakedArray = staked[_staker];\n    // set last item to index of item we want to get rid of\n    _stakedArray[_stakeIndex] = _stakedArray[_stakedArray.length.sub(1)];\n    // remove last item in array now that safely copied to index of deleted item\n    _stakedArray.length = _stakedArray.length.sub(1);\n  }\n\n  // TODO: HEAVILY test this in order to ensure that there are no integer overflows\n  /**\n    @dev compound groups up compounding periods by 30 in order to avoid  \n    uint overflows when taking (100 + rate) ** periods. Accuracy is also brought by\n    10 decimals in order to avoid uint overflows when \n    taking compounded * ((100  + rate) ** periods).\n\n    @param _principle base amount being compounded\n    @param _periods amount of periods to compound principle\n    @param _rate rate given as uint percent \n  */\n  function compound(\n    uint256 _principle,\n    uint256 _periods,\n    uint256 _rate\n  )\n    public\n    pure\n    returns (uint256)\n  {\n    uint256 _maxGroupPeriods = 10;\n    uint256 _remainingPeriods = _periods % _maxGroupPeriods;\n    uint256 _groupings = _periods.div(_maxGroupPeriods);\n    uint256 _compounded = _principle.div(1e10);\n\n    for(uint256 _i = 0; _i < _groupings; _i = _i.add(1)) {\n      _compounded = _compounded\n        .mul(_rate ** _maxGroupPeriods)\n        .div(1e4 ** _maxGroupPeriods);\n    }\n\n    if (_remainingPeriods != 0) {\n      _compounded = _compounded\n        .mul(_rate ** _remainingPeriods)\n        .div(1e4 ** _remainingPeriods);\n    }\n\n    return _compounded.mul(1e10);\n  }\n\n  function calculateStakingRewards(\n    address _staker,\n    uint256 _stakeIndex\n  ) \n    public \n    view\n    returns (uint256)\n  {\n    StakeStruct storage _stake = staked[_staker][_stakeIndex];\n\n    // raise by 100 in order to adjust with scaler\n    uint256 _interestRateTimesHundred = interestRatePercent.mul(100);\n\n    // default _scaler to 1\n    uint256 _scaler = 1;\n    // calculate percent of staked coins vs totalSupply to use for interest rate reduction\n    if (_stake.totalStakedCoinsAtStart != 0) {\n      uint256 _scalerCandidate = _stake.totalStakedCoinsAtStart\n        .mul(100)\n        .div(_stake.totalSupplyAtStart);\n      \n      _scaler = _scalerCandidate > 0 ? _scalerCandidate : 1;\n    }\n\n    // reduce interest rate by scaler\n    uint256 _scaledInterestRate = _interestRateTimesHundred.div(_scaler);\n    // bring up by 1e4 in order to get an accurate percent\n    uint256 _interestRate = _scaledInterestRate.add(1e4);\n    // Calculate Periods\n    uint256 _periods = _stake.unlockTime\n      .sub(_stake.stakeTime)\n      .div(oneInterestPeriodInSeconds);\n    // Compound\n    uint256 _compounded = compound(\n      _stake.stakeAmount, \n      _periods, \n      _interestRate\n    );\n\n    // Calculate final staking rewards with time bonus\n    return _compounded.sub(_stake.stakeAmount);\n  }\n\n  function calculateWeAreAllSatoshiRewards(\n    uint256 _stakeTime,\n    uint256 _unlockTime\n  ) \n    public \n    view \n    returns (uint256)\n  {\n    uint256 _rewards = 0;\n    /* Calculate what week stake was opened */\n    uint256 _startWeek = _stakeTime\n      .sub(launchTime)\n      .div(7 days);\n\n    uint256 _endWeek = _unlockTime\n      .sub(launchTime)\n      .div(7 days);\n\n    uint256 _rewardableEndWeek = _endWeek > 50 ? 50 : _endWeek;\n\n    // Award 2% of unclaimed coins at end of every week\n    for (uint256 _i = _startWeek; _i < _rewardableEndWeek; _i++) {\n      _rewards = _rewards.add(unclaimedCoinsByWeek[_i].div(50));\n    }\n    return _rewards;\n  }\n\n  // TODO: double check that we want to make this public... if so... is it ok that\n  // it shows non zero amounts for users outside of bonus period?\n  function calculateViralRewards(\n    uint256 _stakeAmount\n  ) \n    public \n    view \n    returns (uint256)\n  {\n    // Add bonus percentage to _rewards from 0-10% based on adoption\n    return _stakeAmount\n      .mul(totalRedeemed)\n      .div(totalBtcCirculationAtFork)\n      .div(10);\n  }\n\n  function calculateCritMassRewards(\n    uint256 _stakeAmount\n  ) \n    public \n    view \n    returns (uint256)\n  {\n    // Add bonus percentage to _rewards from 0-10% based on adoption\n    return _stakeAmount\n      .mul(totalRedeemed)\n      .div(maximumRedeemable)\n      .div(10);\n  }\n\n  /**\n    @dev Additional rewards should only be given within first 50 weeks.\n   */\n  function calculateAdditionalRewards(\n    address _staker,\n    uint256 _stakeIndex\n  ) \n    public \n    view \n    returns (uint256)\n  {\n    StakeStruct storage _stake = staked[_staker][_stakeIndex];\n    // only give rewards if within first 50 weeks\n    if (_stake.stakeTime.sub(launchTime).div(7 days) <= 50) {\n      uint256 _weAreAllSatoshiRewards = calculateWeAreAllSatoshiRewards(\n        _stake.stakeTime,\n        _stake.unlockTime\n      );\n      uint256 _viralRewards = calculateViralRewards(_stake.stakeAmount);\n      uint256 _critMassRewards = calculateCritMassRewards(_stake.stakeAmount);\n      uint256 _rewards = _weAreAllSatoshiRewards\n        .add(_viralRewards)\n        .add(_critMassRewards);\n\n      return _rewards;\n    } else {\n      return 0;\n    }\n\n    return 0;\n  }\n\n  /**\n    @notice available for use directly when there are too many stakes to do in a single operation\n  */\n  function getStakedAtIndexes(\n    address _staker,\n    uint256 _startIndex,\n    uint256 _endIndex\n  )\n    public\n    view\n    returns (uint256)\n  {\n    uint256 _maxIndex = staked[_staker].length - 1;\n    require(_endIndex <= _maxIndex);\n    require(_startIndex >= 0);\n    uint256 _totalStaked;\n    // ensure that there are stakes to be retreived\n    if (staked[_staker].length == 0) {\n      return 0;\n    }\n\n    // return single stake if indexes are the same\n    if( _startIndex == _endIndex) {\n      return staked[_staker][0].stakeAmount;\n    }\n\n    for (uint256 _i = _startIndex; _i <= _endIndex; _i++) {\n      _totalStaked = _totalStaked.add(staked[_staker][_i].stakeAmount);\n    }\n\n    return _totalStaked;\n  }\n\n  /**\n    @notice This function might fail if there are too many stakes for a user. Use getStakedAtIndexes if this is the case.\n  */\n  function getTotalUserStaked(\n    address _staker\n  )\n    public\n    view\n    returns (uint256)\n  {\n    return getStakedAtIndexes(_staker, 0, staked[_staker].length - 1);\n  }\n\n  function calculateSingleStakePlusRewards(\n    address _staker,\n    uint256 _stakeIndex\n  )\n    public\n    view\n    returns (uint256)\n  {\n    uint256 _stake = staked[_staker][_stakeIndex].stakeAmount;\n    \n    if (block.timestamp > staked[_staker][_stakeIndex].unlockTime) {\n      return _stake.add(\n          calculateAdditionalRewards(\n            _staker,\n            _stakeIndex\n          )\n      );\n    } else {\n      return _stake;\n    }\n  }\n\n  /**********************\n  *end utility functions*\n  **********************/\n\n  /*********************\n  *start user functions*\n  *********************/\n\n  /** \n    @notice start a stake in order to claim rewards at later unlock time.\n    Additional rewards only payable within first 50 weeks.\n    @param _value amount of tokens to lock\n    @param _unlockTime unix timestamp date for when to unlock tokens\n  */\n  function startStake(\n    uint256 _value, \n    uint256 _unlockTime\n  ) \n    external\n    returns (bool)\n  {\n    address _staker = msg.sender;\n\n    // Make sure staker has enough funds\n    require(balances[_staker] >= _value);\n    // ensure that unlock time is not more than approx 10 years\n    require(_unlockTime <= block.timestamp.add(maxStakingTimeInSeconds));\n    // Check if weekly data needs to be updated\n    storeWeekUnclaimed();\n\n    // Remove balance from sender\n    balances[_staker] = balances[_staker].sub(_value);\n    balances[address(this)] = balances[address(this)].add(_value);\n\n    // Create Stake\n    staked[_staker].push(\n      StakeStruct(\n        _value, \n        block.timestamp, \n        _unlockTime, \n        totalStakedCoins,\n        totalSupply_\n      )\n    );\n\n    // ensure that the new stake will return interest\n    require(calculateStakingRewards(_staker, staked[_staker].length.sub(1)) > 0);\n\n    // Add staked coins to global stake counter\n    totalStakedCoins = totalStakedCoins.add(_value);\n\n    return true;\n  }\n  \n  /**\n    @notice Used for claiming a single stake. Another user can claim a stake on another \n    user's behalf. All rewards and original stake go to original staker.\n    Useful for if _staker does not have any gas and someone else is claiming for them.\n    @param _staker user address for who is making the claim\n    @param _stakeIndex location of the stake to claim\n  */\n  function claimSingleStakingReward(\n    address _staker,\n    uint256 _stakeIndex\n  )\n    public\n    returns (bool)\n  {\n    StakeStruct memory _stake = staked[_staker][_stakeIndex]; \n    require(block.timestamp >= _stake.unlockTime);\n    // Check if weekly data needs to be updated\n    storeWeekUnclaimed();\n\n    uint256 _startingStake = _stake.stakeAmount;\n    // Calculate Rewards\n    uint256 _stakingRewards = calculateStakingRewards(\n      _staker, \n      _stakeIndex\n    );\n    uint256 _additionalRewards = calculateAdditionalRewards(\n      _staker,\n      _stakeIndex\n    );\n    uint256 _rewards = _startingStake\n      .add(_stakingRewards)\n      .add(_additionalRewards);\n    \n    // Remove StakedCoins from global counter\n    totalStakedCoins = totalStakedCoins\n      .sub(_startingStake);\n\n    // Sub staked coins from contract\n    balances[address(this)] = balances[address(this)]\n      .sub(_startingStake);\n    \n    // Add staked coins to staker\n    balances[_staker] = balances[_staker]\n      .add(_rewards);\n\n    // Award rewards to origin contract\n    balances[origin] = balances[origin]\n      .add(_additionalRewards);\n\n    emit Transfer(\n      address(this), \n      _staker, \n      _stake.stakeAmount\n    );\n\n    // Increase supply\n    totalSupply_ = totalSupply_.add(_additionalRewards.mul(2));\n\n    emit Mint(_staker, _additionalRewards);\n    emit Mint(origin, _additionalRewards);\n\n    // Remove Stake\n    removeArrayEntry(_staker, _stakeIndex);\n\n    return true;\n  }\n\n  // TODO: make this private\n  /**\n    @notice Used for claiming multiple stakes. Another user can \n    claim a stake on another user's behalf. All rewards and original stake go to original staker.\n    Useful for if _staker does not have any gas and someone else is claiming for them.\n    @param _staker user address for who is making the claim\n    @param _startIndex claim stakes from this location\n    @param _endIndex claim stakes up to this location\n  */\n  function claimMultipleStakingRewards( // this is no longer truthful when using removeArrayEntry... hm....\n    address _staker,\n    uint256 _startIndex,\n    uint256 _endIndex\n  ) \n    public \n    returns (bool)\n  {\n    // ensure that indexes are in array bounds\n    require(_startIndex <= _endIndex);\n    require(_endIndex < staked[_staker].length);\n\n    uint256 _i = _startIndex;\n    while (_i <= _endIndex) {\n      // Check if stake has matured\n      // all stakes can be claimed using 0 index due to arrays reorganizing every time one is removed\n      if (block.timestamp >= staked[_staker][0].unlockTime) {\n        claimSingleStakingReward(_staker, 0);\n        _i = _i.add(1);\n      }\n    }\n\n    return true;\n  }\n\n  function claimAllStakingRewards(\n    address _staker\n  )\n    external\n    returns (bool)\n  {\n    uint256 _stakeArrayLength = staked[_staker].length;\n    uint256 _processedCount = 0;\n    uint256 _cursor = 0;\n    if (_stakeArrayLength == 0) {\n      return false;\n    }\n\n    while (_processedCount < _stakeArrayLength) {\n      _cursor = _cursor.add(1) > staked[_staker].length\n        ? 0\n        : _cursor;\n\n      if (block.timestamp >= staked[_staker][_cursor].unlockTime) {\n        claimSingleStakingReward(_staker, _cursor);\n      }\n\n      _processedCount = _processedCount.add(1);\n      _cursor = _cursor.add(1);\n    }\n\n    return true;\n  }\n\n  /********************\n  *start end functions*\n  ********************/\n}\n",
  "sourcePath": "/Users/tovarishfin/dev/bhx/bhx-contracts/contracts/StakeableToken.sol",
  "compiler": {
    "name": "solc",
    "version": "0.4.24+commit.e67f0147.Emscripten.clang"
  },
  "schemaVersion": "2.0.1",
  "updatedAt": "2018-08-11T13:45:05.432Z"
}