{
  "contractName": "StakeableTokenStub",
  "abi": [
    {
      "constant": true,
      "inputs": [
        {
          "name": "_hash",
          "type": "bytes32"
        },
        {
          "name": "_v",
          "type": "uint8"
        },
        {
          "name": "_r",
          "type": "bytes32"
        },
        {
          "name": "_s",
          "type": "bytes32"
        },
        {
          "name": "_expected",
          "type": "address"
        },
        {
          "name": "_addPrefix",
          "type": "bool"
        }
      ],
      "name": "validateSignature",
      "outputs": [
        {
          "name": "",
          "type": "bool"
        }
      ],
      "payable": false,
      "stateMutability": "pure",
      "type": "function"
    },
    {
      "constant": true,
      "inputs": [],
      "name": "maximumRedeemable",
      "outputs": [
        {
          "name": "",
          "type": "uint256"
        }
      ],
      "payable": false,
      "stateMutability": "view",
      "type": "function"
    },
    {
      "constant": false,
      "inputs": [
        {
          "name": "_spender",
          "type": "address"
        },
        {
          "name": "_value",
          "type": "uint256"
        }
      ],
      "name": "approve",
      "outputs": [
        {
          "name": "",
          "type": "bool"
        }
      ],
      "payable": false,
      "stateMutability": "nonpayable",
      "type": "function"
    },
    {
      "constant": false,
      "inputs": [
        {
          "name": "_value",
          "type": "uint256"
        },
        {
          "name": "_unlockTime",
          "type": "uint256"
        }
      ],
      "name": "startStake",
      "outputs": [
        {
          "name": "",
          "type": "bool"
        }
      ],
      "payable": false,
      "stateMutability": "nonpayable",
      "type": "function"
    },
    {
      "constant": true,
      "inputs": [],
      "name": "interestRatePercent",
      "outputs": [
        {
          "name": "",
          "type": "uint256"
        }
      ],
      "payable": false,
      "stateMutability": "view",
      "type": "function"
    },
    {
      "constant": true,
      "inputs": [],
      "name": "totalStakedCoins",
      "outputs": [
        {
          "name": "",
          "type": "uint256"
        }
      ],
      "payable": false,
      "stateMutability": "view",
      "type": "function"
    },
    {
      "constant": true,
      "inputs": [],
      "name": "totalSupply",
      "outputs": [
        {
          "name": "",
          "type": "uint256"
        }
      ],
      "payable": false,
      "stateMutability": "view",
      "type": "function"
    },
    {
      "constant": true,
      "inputs": [
        {
          "name": "_stakeAmount",
          "type": "uint256"
        }
      ],
      "name": "calculateViralRewards",
      "outputs": [
        {
          "name": "",
          "type": "uint256"
        }
      ],
      "payable": false,
      "stateMutability": "view",
      "type": "function"
    },
    {
      "constant": false,
      "inputs": [
        {
          "name": "_from",
          "type": "address"
        },
        {
          "name": "_to",
          "type": "address"
        },
        {
          "name": "_value",
          "type": "uint256"
        }
      ],
      "name": "transferFrom",
      "outputs": [
        {
          "name": "",
          "type": "bool"
        }
      ],
      "payable": false,
      "stateMutability": "nonpayable",
      "type": "function"
    },
    {
      "constant": false,
      "inputs": [
        {
          "name": "_satoshis",
          "type": "uint256"
        }
      ],
      "name": "getRedeemAmount",
      "outputs": [
        {
          "name": "",
          "type": "uint256"
        },
        {
          "name": "",
          "type": "uint256"
        }
      ],
      "payable": false,
      "stateMutability": "nonpayable",
      "type": "function"
    },
    {
      "constant": true,
      "inputs": [],
      "name": "isDuringBonusPeriod",
      "outputs": [
        {
          "name": "",
          "type": "bool"
        }
      ],
      "payable": false,
      "stateMutability": "view",
      "type": "function"
    },
    {
      "constant": true,
      "inputs": [],
      "name": "oneInterestPeriodInSeconds",
      "outputs": [
        {
          "name": "",
          "type": "uint256"
        }
      ],
      "payable": false,
      "stateMutability": "view",
      "type": "function"
    },
    {
      "constant": true,
      "inputs": [],
      "name": "redeemedCount",
      "outputs": [
        {
          "name": "",
          "type": "uint256"
        }
      ],
      "payable": false,
      "stateMutability": "view",
      "type": "function"
    },
    {
      "constant": true,
      "inputs": [
        {
          "name": "_pubKey",
          "type": "bytes"
        }
      ],
      "name": "pubKeyToEthereumAddress",
      "outputs": [
        {
          "name": "",
          "type": "address"
        }
      ],
      "payable": false,
      "stateMutability": "pure",
      "type": "function"
    },
    {
      "constant": true,
      "inputs": [],
      "name": "maxStakingTimeInSeconds",
      "outputs": [
        {
          "name": "",
          "type": "uint256"
        }
      ],
      "payable": false,
      "stateMutability": "view",
      "type": "function"
    },
    {
      "constant": false,
      "inputs": [
        {
          "name": "_spender",
          "type": "address"
        },
        {
          "name": "_subtractedValue",
          "type": "uint256"
        }
      ],
      "name": "decreaseApproval",
      "outputs": [
        {
          "name": "",
          "type": "bool"
        }
      ],
      "payable": false,
      "stateMutability": "nonpayable",
      "type": "function"
    },
    {
      "constant": true,
      "inputs": [
        {
          "name": "",
          "type": "bytes32"
        }
      ],
      "name": "redeemedUTXOs",
      "outputs": [
        {
          "name": "",
          "type": "bool"
        }
      ],
      "payable": false,
      "stateMutability": "view",
      "type": "function"
    },
    {
      "constant": true,
      "inputs": [],
      "name": "rootUtxoMerkleTreeHash",
      "outputs": [
        {
          "name": "",
          "type": "bytes32"
        }
      ],
      "payable": false,
      "stateMutability": "view",
      "type": "function"
    },
    {
      "constant": true,
      "inputs": [
        {
          "name": "",
          "type": "uint256"
        }
      ],
      "name": "satoshiRewardDataByWeek",
      "outputs": [
        {
          "name": "unclaimedCoins",
          "type": "uint256"
        },
        {
          "name": "totalStaked",
          "type": "uint256"
        }
      ],
      "payable": false,
      "stateMutability": "view",
      "type": "function"
    },
    {
      "constant": true,
      "inputs": [
        {
          "name": "_owner",
          "type": "address"
        }
      ],
      "name": "balanceOf",
      "outputs": [
        {
          "name": "",
          "type": "uint256"
        }
      ],
      "payable": false,
      "stateMutability": "view",
      "type": "function"
    },
    {
      "constant": false,
      "inputs": [
        {
          "name": "_satoshis",
          "type": "uint256"
        },
        {
          "name": "_proof",
          "type": "bytes32[]"
        },
        {
          "name": "_pubKey",
          "type": "bytes"
        },
        {
          "name": "_isCompressed",
          "type": "bool"
        },
        {
          "name": "_v",
          "type": "uint8"
        },
        {
          "name": "_r",
          "type": "bytes32"
        },
        {
          "name": "_s",
          "type": "bytes32"
        }
      ],
      "name": "redeemUtxo",
      "outputs": [
        {
          "name": "",
          "type": "uint256"
        }
      ],
      "payable": false,
      "stateMutability": "nonpayable",
      "type": "function"
    },
    {
      "constant": false,
      "inputs": [
        {
          "name": "_staker",
          "type": "address"
        }
      ],
      "name": "claimAllStakingRewards",
      "outputs": [
        {
          "name": "",
          "type": "bool"
        }
      ],
      "payable": false,
      "stateMutability": "nonpayable",
      "type": "function"
    },
    {
      "constant": true,
      "inputs": [],
      "name": "launchTime",
      "outputs": [
        {
          "name": "",
          "type": "uint256"
        }
      ],
      "payable": false,
      "stateMutability": "view",
      "type": "function"
    },
    {
      "constant": true,
      "inputs": [
        {
          "name": "_staker",
          "type": "address"
        },
        {
          "name": "_stakeIndex",
          "type": "uint256"
        }
      ],
      "name": "calculateAdditionalRewards",
      "outputs": [
        {
          "name": "",
          "type": "uint256"
        }
      ],
      "payable": false,
      "stateMutability": "view",
      "type": "function"
    },
    {
      "constant": false,
      "inputs": [
        {
          "name": "_staker",
          "type": "address"
        },
        {
          "name": "_stakeIndex",
          "type": "uint256"
        }
      ],
      "name": "claimSingleStakingReward",
      "outputs": [
        {
          "name": "",
          "type": "bool"
        }
      ],
      "payable": false,
      "stateMutability": "nonpayable",
      "type": "function"
    },
    {
      "constant": true,
      "inputs": [
        {
          "name": "_merkleLeafHash",
          "type": "bytes32"
        },
        {
          "name": "_proof",
          "type": "bytes32[]"
        }
      ],
      "name": "canRedeemUtxoHash",
      "outputs": [
        {
          "name": "",
          "type": "bool"
        }
      ],
      "payable": false,
      "stateMutability": "view",
      "type": "function"
    },
    {
      "constant": true,
      "inputs": [
        {
          "name": "_staker",
          "type": "address"
        }
      ],
      "name": "getUserStakes",
      "outputs": [
        {
          "name": "",
          "type": "uint256[]"
        },
        {
          "name": "",
          "type": "uint256[]"
        },
        {
          "name": "",
          "type": "uint256[]"
        },
        {
          "name": "",
          "type": "uint256[]"
        }
      ],
      "payable": false,
      "stateMutability": "view",
      "type": "function"
    },
    {
      "constant": true,
      "inputs": [],
      "name": "totalBtcCirculationAtFork",
      "outputs": [
        {
          "name": "",
          "type": "uint256"
        }
      ],
      "payable": false,
      "stateMutability": "view",
      "type": "function"
    },
    {
      "constant": true,
      "inputs": [
        {
          "name": "",
          "type": "address"
        },
        {
          "name": "",
          "type": "uint256"
        }
      ],
      "name": "staked",
      "outputs": [
        {
          "name": "stakeAmount",
          "type": "uint256"
        },
        {
          "name": "stakeTime",
          "type": "uint256"
        },
        {
          "name": "unlockTime",
          "type": "uint256"
        },
        {
          "name": "totalStakedCoinsAtStart",
          "type": "uint256"
        },
        {
          "name": "totalSupplyAtStart",
          "type": "uint256"
        }
      ],
      "payable": false,
      "stateMutability": "view",
      "type": "function"
    },
    {
      "constant": true,
      "inputs": [],
      "name": "origin",
      "outputs": [
        {
          "name": "",
          "type": "address"
        }
      ],
      "payable": false,
      "stateMutability": "view",
      "type": "function"
    },
    {
      "constant": true,
      "inputs": [],
      "name": "getWeeksSinceLaunch",
      "outputs": [
        {
          "name": "",
          "type": "uint256"
        }
      ],
      "payable": false,
      "stateMutability": "view",
      "type": "function"
    },
    {
      "constant": true,
      "inputs": [],
      "name": "lastUpdatedWeek",
      "outputs": [
        {
          "name": "",
          "type": "uint256"
        }
      ],
      "payable": false,
      "stateMutability": "view",
      "type": "function"
    },
    {
      "constant": false,
      "inputs": [
        {
          "name": "_to",
          "type": "address"
        },
        {
          "name": "_value",
          "type": "uint256"
        }
      ],
      "name": "transfer",
      "outputs": [
        {
          "name": "",
          "type": "bool"
        }
      ],
      "payable": false,
      "stateMutability": "nonpayable",
      "type": "function"
    },
    {
      "constant": false,
      "inputs": [
        {
          "name": "_satoshis",
          "type": "uint256"
        },
        {
          "name": "_proof",
          "type": "bytes32[]"
        },
        {
          "name": "_pubKey",
          "type": "bytes"
        },
        {
          "name": "_isCompressed",
          "type": "bool"
        },
        {
          "name": "_v",
          "type": "uint8"
        },
        {
          "name": "_r",
          "type": "bytes32"
        },
        {
          "name": "_s",
          "type": "bytes32"
        },
        {
          "name": "_referrer",
          "type": "address"
        }
      ],
      "name": "redeemReferredUtxo",
      "outputs": [
        {
          "name": "_tokensRedeemed",
          "type": "uint256"
        }
      ],
      "payable": false,
      "stateMutability": "nonpayable",
      "type": "function"
    },
    {
      "constant": true,
      "inputs": [
        {
          "name": "_staker",
          "type": "address"
        },
        {
          "name": "_startIndex",
          "type": "uint256"
        },
        {
          "name": "_endIndex",
          "type": "uint256"
        }
      ],
      "name": "getStakedAtIndexes",
      "outputs": [
        {
          "name": "",
          "type": "uint256"
        }
      ],
      "payable": false,
      "stateMutability": "view",
      "type": "function"
    },
    {
      "constant": true,
      "inputs": [
        {
          "name": "_proof",
          "type": "bytes32[]"
        },
        {
          "name": "_merkleLeafHash",
          "type": "bytes32"
        }
      ],
      "name": "verifyProof",
      "outputs": [
        {
          "name": "",
          "type": "bool"
        }
      ],
      "payable": false,
      "stateMutability": "view",
      "type": "function"
    },
    {
      "constant": true,
      "inputs": [
        {
          "name": "_staker",
          "type": "address"
        }
      ],
      "name": "getTotalUserStaked",
      "outputs": [
        {
          "name": "",
          "type": "uint256"
        }
      ],
      "payable": false,
      "stateMutability": "view",
      "type": "function"
    },
    {
      "constant": false,
      "inputs": [
        {
          "name": "_staker",
          "type": "address"
        },
        {
          "name": "_startIndex",
          "type": "uint256"
        },
        {
          "name": "_endIndex",
          "type": "uint256"
        }
      ],
      "name": "claimMultipleStakingRewards",
      "outputs": [
        {
          "name": "",
          "type": "bool"
        }
      ],
      "payable": false,
      "stateMutability": "nonpayable",
      "type": "function"
    },
    {
      "constant": true,
      "inputs": [
        {
          "name": "_addr",
          "type": "address"
        },
        {
          "name": "_pubKey",
          "type": "bytes"
        },
        {
          "name": "_v",
          "type": "uint8"
        },
        {
          "name": "_r",
          "type": "bytes32"
        },
        {
          "name": "_s",
          "type": "bytes32"
        }
      ],
      "name": "ecdsaVerify",
      "outputs": [
        {
          "name": "",
          "type": "bool"
        }
      ],
      "payable": false,
      "stateMutability": "pure",
      "type": "function"
    },
    {
      "constant": true,
      "inputs": [
        {
          "name": "_originalAddress",
          "type": "bytes20"
        },
        {
          "name": "_satoshis",
          "type": "uint256"
        },
        {
          "name": "_proof",
          "type": "bytes32[]"
        }
      ],
      "name": "canRedeemUtxo",
      "outputs": [
        {
          "name": "",
          "type": "bool"
        }
      ],
      "payable": false,
      "stateMutability": "view",
      "type": "function"
    },
    {
      "constant": false,
      "inputs": [
        {
          "name": "_spender",
          "type": "address"
        },
        {
          "name": "_addedValue",
          "type": "uint256"
        }
      ],
      "name": "increaseApproval",
      "outputs": [
        {
          "name": "",
          "type": "bool"
        }
      ],
      "payable": false,
      "stateMutability": "nonpayable",
      "type": "function"
    },
    {
      "constant": true,
      "inputs": [
        {
          "name": "_owner",
          "type": "address"
        },
        {
          "name": "_spender",
          "type": "address"
        }
      ],
      "name": "allowance",
      "outputs": [
        {
          "name": "",
          "type": "uint256"
        }
      ],
      "payable": false,
      "stateMutability": "view",
      "type": "function"
    },
    {
      "constant": false,
      "inputs": [],
      "name": "storeSatoshiWeekData",
      "outputs": [],
      "payable": false,
      "stateMutability": "nonpayable",
      "type": "function"
    },
    {
      "constant": true,
      "inputs": [
        {
          "name": "_pubKey",
          "type": "bytes"
        },
        {
          "name": "_isCompressed",
          "type": "bool"
        }
      ],
      "name": "pubKeyToBitcoinAddress",
      "outputs": [
        {
          "name": "",
          "type": "bytes20"
        }
      ],
      "payable": false,
      "stateMutability": "pure",
      "type": "function"
    },
    {
      "constant": true,
      "inputs": [
        {
          "name": "_stakeAmount",
          "type": "uint256"
        }
      ],
      "name": "calculateCritMassRewards",
      "outputs": [
        {
          "name": "",
          "type": "uint256"
        }
      ],
      "payable": false,
      "stateMutability": "view",
      "type": "function"
    },
    {
      "constant": true,
      "inputs": [
        {
          "name": "_staker",
          "type": "address"
        },
        {
          "name": "_stakeIndex",
          "type": "uint256"
        }
      ],
      "name": "calculateSingleStakePlusRewards",
      "outputs": [
        {
          "name": "",
          "type": "uint256"
        }
      ],
      "payable": false,
      "stateMutability": "view",
      "type": "function"
    },
    {
      "constant": true,
      "inputs": [
        {
          "name": "_stakeAmount",
          "type": "uint256"
        },
        {
          "name": "_stakeTime",
          "type": "uint256"
        },
        {
          "name": "_unlockTime",
          "type": "uint256"
        }
      ],
      "name": "calculateWeAreAllSatoshiRewards",
      "outputs": [
        {
          "name": "",
          "type": "uint256"
        }
      ],
      "payable": false,
      "stateMutability": "view",
      "type": "function"
    },
    {
      "constant": true,
      "inputs": [],
      "name": "totalRedeemed",
      "outputs": [
        {
          "name": "",
          "type": "uint256"
        }
      ],
      "payable": false,
      "stateMutability": "view",
      "type": "function"
    },
    {
      "constant": true,
      "inputs": [
        {
          "name": "_principle",
          "type": "uint256"
        },
        {
          "name": "_periods",
          "type": "uint256"
        },
        {
          "name": "_rate",
          "type": "uint256"
        }
      ],
      "name": "compound",
      "outputs": [
        {
          "name": "",
          "type": "uint256"
        }
      ],
      "payable": false,
      "stateMutability": "pure",
      "type": "function"
    },
    {
      "constant": true,
      "inputs": [
        {
          "name": "_staker",
          "type": "address"
        },
        {
          "name": "_stakeIndex",
          "type": "uint256"
        }
      ],
      "name": "calculateStakingRewards",
      "outputs": [
        {
          "name": "",
          "type": "uint256"
        }
      ],
      "payable": false,
      "stateMutability": "view",
      "type": "function"
    },
    {
      "inputs": [
        {
          "name": "_origin",
          "type": "address"
        },
        {
          "name": "_launchTime",
          "type": "uint256"
        },
        {
          "name": "_rootUtxoMerkleTreeHash",
          "type": "bytes32"
        },
        {
          "name": "_totalBtcCirculationAtFork",
          "type": "uint256"
        },
        {
          "name": "_maximumRedeemable",
          "type": "uint256"
        }
      ],
      "payable": false,
      "stateMutability": "nonpayable",
      "type": "constructor"
    },
    {
      "anonymous": false,
      "inputs": [
        {
          "indexed": true,
          "name": "_address",
          "type": "address"
        },
        {
          "indexed": false,
          "name": "_reward",
          "type": "uint256"
        }
      ],
      "name": "Mint",
      "type": "event"
    },
    {
      "anonymous": false,
      "inputs": [
        {
          "indexed": false,
          "name": "test",
          "type": "uint256"
        }
      ],
      "name": "Test",
      "type": "event"
    },
    {
      "anonymous": false,
      "inputs": [
        {
          "indexed": true,
          "name": "owner",
          "type": "address"
        },
        {
          "indexed": true,
          "name": "spender",
          "type": "address"
        },
        {
          "indexed": false,
          "name": "value",
          "type": "uint256"
        }
      ],
      "name": "Approval",
      "type": "event"
    },
    {
      "anonymous": false,
      "inputs": [
        {
          "indexed": true,
          "name": "from",
          "type": "address"
        },
        {
          "indexed": true,
          "name": "to",
          "type": "address"
        },
        {
          "indexed": false,
          "name": "value",
          "type": "uint256"
        }
      ],
      "name": "Transfer",
      "type": "event"
    },
    {
      "constant": false,
      "inputs": [
        {
          "name": "_address",
          "type": "address"
        },
        {
          "name": "_amount",
          "type": "uint256"
        }
      ],
      "name": "mintTokens",
      "outputs": [
        {
          "name": "",
          "type": "bool"
        }
      ],
      "payable": false,
      "stateMutability": "nonpayable",
      "type": "function"
    },
    {
      "constant": false,
      "inputs": [
        {
          "name": "_count",
          "type": "uint256"
        }
      ],
      "name": "setRedeemedCount",
      "outputs": [
        {
          "name": "",
          "type": "bool"
        }
      ],
      "payable": false,
      "stateMutability": "nonpayable",
      "type": "function"
    },
    {
      "constant": false,
      "inputs": [
        {
          "name": "_maxRedeemable",
          "type": "uint256"
        }
      ],
      "name": "setMaxRedeemable",
      "outputs": [
        {
          "name": "",
          "type": "bool"
        }
      ],
      "payable": false,
      "stateMutability": "nonpayable",
      "type": "function"
    },
    {
      "constant": false,
      "inputs": [
        {
          "name": "_totalRedeemed",
          "type": "uint256"
        }
      ],
      "name": "setTotalRedeemed",
      "outputs": [
        {
          "name": "",
          "type": "bool"
        }
      ],
      "payable": false,
      "stateMutability": "nonpayable",
      "type": "function"
    },
    {
      "constant": false,
      "inputs": [
        {
          "name": "_satoshis",
          "type": "uint256"
        }
      ],
      "name": "shortcutRedeem",
      "outputs": [
        {
          "name": "",
          "type": "uint256"
        }
      ],
      "payable": false,
      "stateMutability": "nonpayable",
      "type": "function"
    }
  ],
  "bytecode": "0x60806040526000600755600060085534801561001a57600080fd5b5060405160a080620057f4833981018060405281019080805190602001909291908051906020019092919080519060200190929190805190602001909291908051906020019092919050505084600360006101000a81548173ffffffffffffffffffffffffffffffffffffffff021916908373ffffffffffffffffffffffffffffffffffffffff1602179055508360048190555082600a816000191690555081600d8190555080600981905550505050505061571880620000dc6000396000f300608060405260043610610293576000357c0100000000000000000000000000000000000000000000000000000000900463ffffffff1680630867c0ad1461029857806308b4312b14610336578063095ea7b314610361578063128bfcae146103c657806316043f5d146104155780631765f4bf1461044057806318160ddd1461046b5780631b14766d14610496578063229cfc32146104db57806323b872dd1461051c5780632c3ee88c146105a15780632c48d57b146105e95780633db2c878146106185780634cc68257146106595780634f265bf41461069e57806352aa3e6c146106c95780635418796c146106f457806365925c2b1461079d57806366188463146107c8578063687cf4a41461082d5780636aaf67e2146108765780636e0d6df2146108a957806370a08231146108f1578063753bf8cd1461094857806375889a2b14610a47578063790ca41314610aa25780637cdafe9d14610acd57806381437de814610b2e57806381cd84b914610b93578063842e298114610c1f5780638d854c3414610d8f5780638f16981614610dba578063938b5f3214610e3757806394ce28e814610e8e5780639d65b89214610eb9578063a9059cbb14610ee4578063b1ccf19314610f49578063b242c9bf1461100f578063b80ac7df1461107a578063bac5c04814611106578063cb5138591461115d578063cb9c501f146111a2578063ce267b5514611211578063cfc2334e146112db578063d73dd6231461137c578063dd62ed3e146113e1578063e043ee9c14611458578063e073ef691461146f578063e26e7b5014611516578063e39a385a14611557578063ebe558e9146115b8578063f0dda65c1461160d578063f35dad4014611672578063f3c85eba1461169d578063f6c45d02146116f2575b600080fd5b3480156102a457600080fd5b5061031c6004803603810190808035600019169060200190929190803560ff16906020019092919080356000191690602001909291908035600019169060200190929190803573ffffffffffffffffffffffffffffffffffffffff169060200190929190803515159060200190929190505050611753565b604051808215151515815260200191505060405180910390f35b34801561034257600080fd5b5061034b61193e565b6040518082815260200191505060405180910390f35b34801561036d57600080fd5b506103ac600480360381019080803573ffffffffffffffffffffffffffffffffffffffff16906020019092919080359060200190929190505050611944565b604051808215151515815260200191505060405180910390f35b3480156103d257600080fd5b506103fb6004803603810190808035906020019092919080359060200190929190505050611a36565b604051808215151515815260200191505060405180910390f35b34801561042157600080fd5b5061042a611d4c565b6040518082815260200191505060405180910390f35b34801561044c57600080fd5b50610455611d51565b6040518082815260200191505060405180910390f35b34801561047757600080fd5b50610480611d57565b6040518082815260200191505060405180910390f35b3480156104a257600080fd5b506104c160048036038101908080359060200190929190505050611d61565b604051808215151515815260200191505060405180910390f35b3480156104e757600080fd5b5061050660048036038101908080359060200190929190505050611d6f565b6040518082815260200191505060405180910390f35b34801561052857600080fd5b50610587600480360381019080803573ffffffffffffffffffffffffffffffffffffffff169060200190929190803573ffffffffffffffffffffffffffffffffffffffff16906020019092919080359060200190929190505050611db4565b604051808215151515815260200191505060405180910390f35b3480156105ad57600080fd5b506105cc6004803603810190808035906020019092919050505061216e565b604051808381526020018281526020019250505060405180910390f35b3480156105f557600080fd5b506105fe61262c565b604051808215151515815260200191505060405180910390f35b34801561062457600080fd5b506106436004803603810190808035906020019092919050505061263f565b6040518082815260200191505060405180910390f35b34801561066557600080fd5b50610684600480360381019080803590602001909291905050506128d8565b604051808215151515815260200191505060405180910390f35b3480156106aa57600080fd5b506106b36128e6565b6040518082815260200191505060405180910390f35b3480156106d557600080fd5b506106de6128ed565b6040518082815260200191505060405180910390f35b34801561070057600080fd5b5061075b600480360381019080803590602001908201803590602001908080601f01602080910402602001604051908101604052809392919081815260200183838082843782019150505050505091929192905050506128f3565b604051808273ffffffffffffffffffffffffffffffffffffffff1673ffffffffffffffffffffffffffffffffffffffff16815260200191505060405180910390f35b3480156107a957600080fd5b506107b2612979565b6040518082815260200191505060405180910390f35b3480156107d457600080fd5b50610813600480360381019080803573ffffffffffffffffffffffffffffffffffffffff16906020019092919080359060200190929190505050612981565b604051808215151515815260200191505060405180910390f35b34801561083957600080fd5b5061085c6004803603810190808035600019169060200190929190505050612c12565b604051808215151515815260200191505060405180910390f35b34801561088257600080fd5b5061088b612c32565b60405180826000191660001916815260200191505060405180910390f35b3480156108b557600080fd5b506108d460048036038101908080359060200190929190505050612c38565b604051808381526020018281526020019250505060405180910390f35b3480156108fd57600080fd5b50610932600480360381019080803573ffffffffffffffffffffffffffffffffffffffff169060200190929190505050612c5c565b6040518082815260200191505060405180910390f35b34801561095457600080fd5b50610a316004803603810190808035906020019092919080359060200190820180359060200190808060200260200160405190810160405280939291908181526020018383602002808284378201915050505050509192919290803590602001908201803590602001908080601f0160208091040260200160405190810160405280939291908181526020018383808284378201915050505050509192919290803515159060200190929190803560ff16906020019092919080356000191690602001909291908035600019169060200190929190505050612ca4565b6040518082815260200191505060405180910390f35b348015610a5357600080fd5b50610a88600480360381019080803573ffffffffffffffffffffffffffffffffffffffff169060200190929190505050613112565b604051808215151515815260200191505060405180910390f35b348015610aae57600080fd5b50610ab7613297565b6040518082815260200191505060405180910390f35b348015610ad957600080fd5b50610b18600480360381019080803573ffffffffffffffffffffffffffffffffffffffff1690602001909291908035906020019092919050505061329d565b6040518082815260200191505060405180910390f35b348015610b3a57600080fd5b50610b79600480360381019080803573ffffffffffffffffffffffffffffffffffffffff169060200190929190803590602001909291905050506133af565b604051808215151515815260200191505060405180910390f35b348015610b9f57600080fd5b50610c0560048036038101908080356000191690602001909291908035906020019082018035906020019080806020026020016040519081016040528093929190818152602001838360200280828437820191505050505050919291929050505061386d565b604051808215151515815260200191505060405180910390f35b348015610c2b57600080fd5b50610c60600480360381019080803573ffffffffffffffffffffffffffffffffffffffff1690602001909291905050506138b8565b6040518080602001806020018060200180602001858103855289818151815260200191508051906020019060200280838360005b83811015610caf578082015181840152602081019050610c94565b50505050905001858103845288818151815260200191508051906020019060200280838360005b83811015610cf1578082015181840152602081019050610cd6565b50505050905001858103835287818151815260200191508051906020019060200280838360005b83811015610d33578082015181840152602081019050610d18565b50505050905001858103825286818151815260200191508051906020019060200280838360005b83811015610d75578082015181840152602081019050610d5a565b505050509050019850505050505050505060405180910390f35b348015610d9b57600080fd5b50610da4613aea565b6040518082815260200191505060405180910390f35b348015610dc657600080fd5b50610e05600480360381019080803573ffffffffffffffffffffffffffffffffffffffff16906020019092919080359060200190929190505050613af0565b604051808681526020018581526020018481526020018381526020018281526020019550505050505060405180910390f35b348015610e4357600080fd5b50610e4c613b42565b604051808273ffffffffffffffffffffffffffffffffffffffff1673ffffffffffffffffffffffffffffffffffffffff16815260200191505060405180910390f35b348015610e9a57600080fd5b50610ea3613b68565b6040518082815260200191505060405180910390f35b348015610ec557600080fd5b50610ece613baa565b6040518082815260200191505060405180910390f35b348015610ef057600080fd5b50610f2f600480360381019080803573ffffffffffffffffffffffffffffffffffffffff16906020019092919080359060200190929190505050613bb0565b604051808215151515815260200191505060405180910390f35b348015610f5557600080fd5b50610ff960048036038101908080359060200190929190803590602001908201803590602001919091929391929390803590602001908201803590602001919091929391929390803515159060200190929190803560ff16906020019092919080356000191690602001909291908035600019169060200190929190803573ffffffffffffffffffffffffffffffffffffffff169060200190929190505050613dcf565b6040518082815260200191505060405180910390f35b34801561101b57600080fd5b50611064600480360381019080803573ffffffffffffffffffffffffffffffffffffffff1690602001909291908035906020019092919080359060200190929190505050613f9f565b6040518082815260200191505060405180910390f35b34801561108657600080fd5b506110ec600480360381019080803590602001908201803590602001908080602002602001604051908101604052809392919081815260200183836020028082843782019150505050505091929192908035600019169060200190929190505050614168565b604051808215151515815260200191505060405180910390f35b34801561111257600080fd5b50611147600480360381019080803573ffffffffffffffffffffffffffffffffffffffff16906020019092919050505061417f565b6040518082815260200191505060405180910390f35b34801561116957600080fd5b50611188600480360381019080803590602001909291905050506141d9565b604051808215151515815260200191505060405180910390f35b3480156111ae57600080fd5b506111f7600480360381019080803573ffffffffffffffffffffffffffffffffffffffff16906020019092919080359060200190929190803590602001909291905050506141e7565b604051808215151515815260200191505060405180910390f35b34801561121d57600080fd5b506112c1600480360381019080803573ffffffffffffffffffffffffffffffffffffffff169060200190929190803590602001908201803590602001908080601f0160208091040260200160405190810160405280939291908181526020018383808284378201915050505050509192919290803560ff169060200190929190803560001916906020019092919080356000191690602001909291905050506142f1565b604051808215151515815260200191505060405180910390f35b3480156112e757600080fd5b5061136260048036038101908080356bffffffffffffffffffffffff191690602001909291908035906020019092919080359060200190820180359060200190808060200260200160405190810160405280939291908181526020018383602002808284378201915050505050509192919290505050614410565b604051808215151515815260200191505060405180910390f35b34801561138857600080fd5b506113c7600480360381019080803573ffffffffffffffffffffffffffffffffffffffff169060200190929190803590602001909291905050506144d1565b604051808215151515815260200191505060405180910390f35b3480156113ed57600080fd5b50611442600480360381019080803573ffffffffffffffffffffffffffffffffffffffff169060200190929190803573ffffffffffffffffffffffffffffffffffffffff1690602001909291905050506146cd565b6040518082815260200191505060405180910390f35b34801561146457600080fd5b5061146d614754565b005b34801561147b57600080fd5b506114e2600480360381019080803590602001908201803590602001908080601f0160208091040260200160405190810160405280939291908181526020018383808284378201915050505050509192919290803515159060200190929190505050614800565b60405180826bffffffffffffffffffffffff19166bffffffffffffffffffffffff1916815260200191505060405180910390f35b34801561152257600080fd5b5061154160048036038101908080359060200190929190505050614bbf565b6040518082815260200191505060405180910390f35b34801561156357600080fd5b506115a2600480360381019080803573ffffffffffffffffffffffffffffffffffffffff16906020019092919080359060200190929190505050614c04565b6040518082815260200191505060405180910390f35b3480156115c457600080fd5b506115f7600480360381019080803590602001909291908035906020019092919080359060200190929190505050614cfa565b6040518082815260200191505060405180910390f35b34801561161957600080fd5b50611658600480360381019080803573ffffffffffffffffffffffffffffffffffffffff16906020019092919080359060200190929190505050614e58565b604051808215151515815260200191505060405180910390f35b34801561167e57600080fd5b50611687614fc6565b6040518082815260200191505060405180910390f35b3480156116a957600080fd5b506116dc600480360381019080803590602001909291908035906020019092919080359060200190929190505050614fcc565b6040518082815260200191505060405180910390f35b3480156116fe57600080fd5b5061173d600480360381019080803573ffffffffffffffffffffffffffffffffffffffff169060200190929190803590602001909291905050506150e3565b6040518082815260200191505060405180910390f35b600080606083151561176757889150611881565b6040805190810160405280601c81526020017f19457468657265756d205369676e6564204d6573736167653a0a333200000000815250905080896040516020018083805190602001908083835b6020831015156117d957805182526020820191506020810190506020830392506117b4565b6001836020036101000a0380198251168184511680821785525050505050509050018260001916600019168152602001925050506040516020818303038152906040526040518082805190602001908083835b602083101515611851578051825260208201915060208101905060208303925061182c565b6001836020036101000a038019825116818451168082178552505050505050905001915050604051809103902091505b8473ffffffffffffffffffffffffffffffffffffffff166001838a8a8a604051600081526020016040526040518085600019166000191681526020018460ff1660ff1681526020018360001916600019168152602001826000191660001916815260200194505050505060206040516020810390808403906000865af115801561190f573d6000803e3d6000fd5b5050506020604051035173ffffffffffffffffffffffffffffffffffffffff1614925050509695505050505050565b60095481565b600081600260003373ffffffffffffffffffffffffffffffffffffffff1673ffffffffffffffffffffffffffffffffffffffff16815260200190815260200160002060008573ffffffffffffffffffffffffffffffffffffffff1673ffffffffffffffffffffffffffffffffffffffff168152602001908152602001600020819055508273ffffffffffffffffffffffffffffffffffffffff163373ffffffffffffffffffffffffffffffffffffffff167f8c5be1e5ebec7d5bd14f71427d1e84f3dd0314c0f7b2291e5b200ac8c7c3b925846040518082815260200191505060405180910390a36001905092915050565b600080339050836000808373ffffffffffffffffffffffffffffffffffffffff1673ffffffffffffffffffffffffffffffffffffffff1681526020019081526020016000205410151515611a8957600080fd5b611aa06312cc03004261525090919063ffffffff16565b8311151515611aae57600080fd5b611ab6614754565b611b07846000808473ffffffffffffffffffffffffffffffffffffffff1673ffffffffffffffffffffffffffffffffffffffff1681526020019081526020016000205461526c90919063ffffffff16565b6000808373ffffffffffffffffffffffffffffffffffffffff1673ffffffffffffffffffffffffffffffffffffffff16815260200190815260200160002081905550611b9a846000803073ffffffffffffffffffffffffffffffffffffffff1673ffffffffffffffffffffffffffffffffffffffff1681526020019081526020016000205461525090919063ffffffff16565b6000803073ffffffffffffffffffffffffffffffffffffffff1673ffffffffffffffffffffffffffffffffffffffff16815260200190815260200160002081905550600e60008273ffffffffffffffffffffffffffffffffffffffff1673ffffffffffffffffffffffffffffffffffffffff16815260200190815260200160002060a060405190810160405280868152602001428152602001858152602001611c4e8760065461525090919063ffffffff16565b81526020016001548152509080600181540180825580915050906001820390600052602060002090600502016000909192909190915060008201518160000155602082015181600101556040820151816002015560608201518160030155608082015181600401555050506000611d1a82611d156001600e60008773ffffffffffffffffffffffffffffffffffffffff1673ffffffffffffffffffffffffffffffffffffffff1681526020019081526020016000208054905061526c90919063ffffffff16565b6150e3565b111515611d2657600080fd5b611d3b8460065461525090919063ffffffff16565b600681905550600191505092915050565b600181565b60065481565b6000600154905090565b600081600881905550919050565b6000611dad600a611d9f600d54611d916008548761528590919063ffffffff16565b6152bd90919063ffffffff16565b6152bd90919063ffffffff16565b9050919050565b60008073ffffffffffffffffffffffffffffffffffffffff168373ffffffffffffffffffffffffffffffffffffffff1614151515611df157600080fd5b6000808573ffffffffffffffffffffffffffffffffffffffff1673ffffffffffffffffffffffffffffffffffffffff168152602001908152602001600020548211151515611e3e57600080fd5b600260008573ffffffffffffffffffffffffffffffffffffffff1673ffffffffffffffffffffffffffffffffffffffff16815260200190815260200160002060003373ffffffffffffffffffffffffffffffffffffffff1673ffffffffffffffffffffffffffffffffffffffff168152602001908152602001600020548211151515611ec957600080fd5b611f1a826000808773ffffffffffffffffffffffffffffffffffffffff1673ffffffffffffffffffffffffffffffffffffffff1681526020019081526020016000205461526c90919063ffffffff16565b6000808673ffffffffffffffffffffffffffffffffffffffff1673ffffffffffffffffffffffffffffffffffffffff16815260200190815260200160002081905550611fad826000808673ffffffffffffffffffffffffffffffffffffffff1673ffffffffffffffffffffffffffffffffffffffff1681526020019081526020016000205461525090919063ffffffff16565b6000808573ffffffffffffffffffffffffffffffffffffffff1673ffffffffffffffffffffffffffffffffffffffff1681526020019081526020016000208190555061207e82600260008773ffffffffffffffffffffffffffffffffffffffff1673ffffffffffffffffffffffffffffffffffffffff16815260200190815260200160002060003373ffffffffffffffffffffffffffffffffffffffff1673ffffffffffffffffffffffffffffffffffffffff1681526020019081526020016000205461526c90919063ffffffff16565b600260008673ffffffffffffffffffffffffffffffffffffffff1673ffffffffffffffffffffffffffffffffffffffff16815260200190815260200160002060003373ffffffffffffffffffffffffffffffffffffffff1673ffffffffffffffffffffffffffffffffffffffff168152602001908152602001600020819055508273ffffffffffffffffffffffffffffffffffffffff168473ffffffffffffffffffffffffffffffffffffffff167fddf252ad1be2c89b69c2b068fc378daa952ba7f163c4a11628f55a4df523b3ef846040518082815260200191505060405180910390a3600190509392505050565b60008060008060008060006121916402540be4008961528590919063ffffffff16565b9450683635c9adc5dea0000085111561222a5769152d02c7e14af68000008510156122125761220b640ba43b74006121fd60096121ef60026121e164174876e8008c61526c90919063ffffffff16565b61528590919063ffffffff16565b6152bd90919063ffffffff16565b61525090919063ffffffff16565b9450612229565b6122266004866152bd90919063ffffffff16565b94505b5b426004541061223a576000612265565b61226462093a806122566004544261526c90919063ffffffff16565b6152bd90919063ffffffff16565b5b935061228e61227e60028661528590919063ffffffff16565b606461526c90919063ffffffff16565b92506122b660646122a8858861528590919063ffffffff16565b6152bd90919063ffffffff16565b91507f63a242a632efe33c0e210e04e4173612a17efa4f16aa4890bc7e46caece80de0846040518082815260200191505060405180910390a160009050602d841115612305576000905061261c565b602084111561234e5761234782612339606461232b60658761528590919063ffffffff16565b6152bd90919063ffffffff16565b61526c90919063ffffffff16565b905061261b565b60188411156123975761239082612382606461237460668761528590919063ffffffff16565b6152bd90919063ffffffff16565b61526c90919063ffffffff16565b905061261a565b60128411156123e0576123d9826123cb60646123bd60678761528590919063ffffffff16565b6152bd90919063ffffffff16565b61526c90919063ffffffff16565b9050612619565b600e8411156124295761242282612414606461240660688761528590919063ffffffff16565b6152bd90919063ffffffff16565b61526c90919063ffffffff16565b9050612618565b600a8411156124725761246b8261245d606461244f60698761528590919063ffffffff16565b6152bd90919063ffffffff16565b61526c90919063ffffffff16565b9050612617565b60078411156124bb576124b4826124a66064612498606a8761528590919063ffffffff16565b6152bd90919063ffffffff16565b61526c90919063ffffffff16565b9050612616565b6005841115612504576124fd826124ef60646124e1606b8761528590919063ffffffff16565b6152bd90919063ffffffff16565b61526c90919063ffffffff16565b9050612615565b600384111561254d5761254682612538606461252a606c8761528590919063ffffffff16565b6152bd90919063ffffffff16565b61526c90919063ffffffff16565b9050612614565b60018411156125cd5761258f826125816064612573606d8761528590919063ffffffff16565b6152bd90919063ffffffff16565b61526c90919063ffffffff16565b90507f63a242a632efe33c0e210e04e4173612a17efa4f16aa4890bc7e46caece80de0816040518082815260200191505060405180910390a1612613565b60018410156126125761260f8261260160646125f3606e8761528590919063ffffffff16565b6152bd90919063ffffffff16565b61526c90919063ffffffff16565b90505b5b5b5b5b5b5b5b5b5b5b8181965096505050505050915091565b60006032612638613b68565b1115905090565b600080600061264d8461216e565b915091506009546126698360075461525090919063ffffffff16565b1115151561267657600080fd5b61268b8260075461525090919063ffffffff16565b6007819055506126f4816126e6846000803373ffffffffffffffffffffffffffffffffffffffff1673ffffffffffffffffffffffffffffffffffffffff1681526020019081526020016000205461525090919063ffffffff16565b61525090919063ffffffff16565b6000803373ffffffffffffffffffffffffffffffffffffffff1673ffffffffffffffffffffffffffffffffffffffff168152602001908152602001600020819055506127a981600080600360009054906101000a900473ffffffffffffffffffffffffffffffffffffffff1673ffffffffffffffffffffffffffffffffffffffff1673ffffffffffffffffffffffffffffffffffffffff1681526020019081526020016000205461525090919063ffffffff16565b600080600360009054906101000a900473ffffffffffffffffffffffffffffffffffffffff1673ffffffffffffffffffffffffffffffffffffffff1673ffffffffffffffffffffffffffffffffffffffff16815260200190815260200160002081905550612834816128268460015461525090919063ffffffff16565b61525090919063ffffffff16565b600181905550612850600160085461525090919063ffffffff16565b6008819055503373ffffffffffffffffffffffffffffffffffffffff16600073ffffffffffffffffffffffffffffffffffffffff167fddf252ad1be2c89b69c2b068fc378daa952ba7f163c4a11628f55a4df523b3ef6128b9848661525090919063ffffffff16565b6040518082815260200191505060405180910390a38192505050919050565b600081600981905550919050565b620d2f0081565b60085481565b600073ffffffffffffffffffffffffffffffffffffffff826040518082805190602001908083835b602083101515612940578051825260208201915060208101905060208303925061291b565b6001836020036101000a038019825116818451168082178552505050505050905001915050604051809103902060019004169050919050565b6312cc030081565b600080600260003373ffffffffffffffffffffffffffffffffffffffff1673ffffffffffffffffffffffffffffffffffffffff16815260200190815260200160002060008573ffffffffffffffffffffffffffffffffffffffff1673ffffffffffffffffffffffffffffffffffffffff16815260200190815260200160002054905080831115612a92576000600260003373ffffffffffffffffffffffffffffffffffffffff1673ffffffffffffffffffffffffffffffffffffffff16815260200190815260200160002060008673ffffffffffffffffffffffffffffffffffffffff1673ffffffffffffffffffffffffffffffffffffffff16815260200190815260200160002081905550612b26565b612aa5838261526c90919063ffffffff16565b600260003373ffffffffffffffffffffffffffffffffffffffff1673ffffffffffffffffffffffffffffffffffffffff16815260200190815260200160002060008673ffffffffffffffffffffffffffffffffffffffff1673ffffffffffffffffffffffffffffffffffffffff168152602001908152602001600020819055505b8373ffffffffffffffffffffffffffffffffffffffff163373ffffffffffffffffffffffffffffffffffffffff167f8c5be1e5ebec7d5bd14f71427d1e84f3dd0314c0f7b2291e5b200ac8c7c3b925600260003373ffffffffffffffffffffffffffffffffffffffff1673ffffffffffffffffffffffffffffffffffffffff16815260200190815260200160002060008873ffffffffffffffffffffffffffffffffffffffff1673ffffffffffffffffffffffffffffffffffffffff168152602001908152602001600020546040518082815260200191505060405180910390a3600191505092915050565b600c6020528060005260406000206000915054906101000a900460ff1681565b600a5481565b600b6020528060005260406000206000915090508060000154908060010154905082565b60008060008373ffffffffffffffffffffffffffffffffffffffff1673ffffffffffffffffffffffffffffffffffffffff168152602001908152602001600020549050919050565b60008060008060006004544210151515612cbd57600080fd5b612cc5614754565b612ccf8a8a614800565b9350838c60405160200180836bffffffffffffffffffffffff19166bffffffffffffffffffffffff19168152601401828152602001925050506040516020818303038152906040526040518082805190602001908083835b602083101515612d4c5780518252602082019150602081019050602083039250612d27565b6001836020036101000a03801982511681845116808217855250505050505090500191505060405180910390209250612d85838c61386d565b1515612d9057600080fd5b612d9d338b8a8a8a6142f1565b1515612da857600080fd5b6001600c6000856000191660001916815260200190815260200160002060006101000a81548160ff021916908315150217905550612de58c61216e565b91509150600954612e018360075461525090919063ffffffff16565b11151515612e0e57600080fd5b612e238260075461525090919063ffffffff16565b600781905550612e8c81612e7e846000803373ffffffffffffffffffffffffffffffffffffffff1673ffffffffffffffffffffffffffffffffffffffff1681526020019081526020016000205461525090919063ffffffff16565b61525090919063ffffffff16565b6000803373ffffffffffffffffffffffffffffffffffffffff1673ffffffffffffffffffffffffffffffffffffffff16815260200190815260200160002081905550612f4181600080600360009054906101000a900473ffffffffffffffffffffffffffffffffffffffff1673ffffffffffffffffffffffffffffffffffffffff1673ffffffffffffffffffffffffffffffffffffffff1681526020019081526020016000205461525090919063ffffffff16565b600080600360009054906101000a900473ffffffffffffffffffffffffffffffffffffffff1673ffffffffffffffffffffffffffffffffffffffff1673ffffffffffffffffffffffffffffffffffffffff16815260200190815260200160002081905550612fcc81612fbe8460015461525090919063ffffffff16565b61525090919063ffffffff16565b600181905550612fe8600160085461525090919063ffffffff16565b6008819055503373ffffffffffffffffffffffffffffffffffffffff16600073ffffffffffffffffffffffffffffffffffffffff167fddf252ad1be2c89b69c2b068fc378daa952ba7f163c4a11628f55a4df523b3ef613051848661525090919063ffffffff16565b6040518082815260200191505060405180910390a3600360009054906101000a900473ffffffffffffffffffffffffffffffffffffffff1673ffffffffffffffffffffffffffffffffffffffff16600073ffffffffffffffffffffffffffffffffffffffff167fddf252ad1be2c89b69c2b068fc378daa952ba7f163c4a11628f55a4df523b3ef836040518082815260200191505060405180910390a3613101818361525090919063ffffffff16565b945050505050979650505050505050565b600080600080600e60008673ffffffffffffffffffffffffffffffffffffffff1673ffffffffffffffffffffffffffffffffffffffff16815260200190815260200160002080549050925060009150600090506000831415613177576000935061328f565b5b8282101561328a57600e60008673ffffffffffffffffffffffffffffffffffffffff1673ffffffffffffffffffffffffffffffffffffffff168152602001908152602001600020805490506131d760018361525090919063ffffffff16565b116131e257806131e5565b60005b9050600e60008673ffffffffffffffffffffffffffffffffffffffff1673ffffffffffffffffffffffffffffffffffffffff1681526020019081526020016000208181548110151561323357fe5b906000526020600020906005020160020154421015156132595761325785826133af565b505b61326d60018361525090919063ffffffff16565b915061328360018261525090919063ffffffff16565b9050613178565b600193505b505050919050565b60045481565b600080600080600080600e60008973ffffffffffffffffffffffffffffffffffffffff1673ffffffffffffffffffffffffffffffffffffffff168152602001908152602001600020878154811015156132f257fe5b90600052602060002090600502019450603261333262093a80613324600454896001015461526c90919063ffffffff16565b6152bd90919063ffffffff16565b11151561339f57613350856000015486600101548760020154614cfa565b935061335f8560000154611d6f565b925061336e8560000154614bbf565b915061339582613387858761525090919063ffffffff16565b61525090919063ffffffff16565b90508095506133a4565b600095505b505050505092915050565b60006133b9615643565b600080600080600e60008973ffffffffffffffffffffffffffffffffffffffff1673ffffffffffffffffffffffffffffffffffffffff1681526020019081526020016000208781548110151561340b57fe5b906000526020600020906005020160a060405190810160405290816000820154815260200160018201548152602001600282015481526020016003820154815260200160048201548152505094508460400151421015151561346c57600080fd5b613474614754565b8460000151935061348588886150e3565b9250613491888861329d565b91506134b8826134aa858761525090919063ffffffff16565b61525090919063ffffffff16565b90506134cf8460065461526c90919063ffffffff16565b600681905550613526846000803073ffffffffffffffffffffffffffffffffffffffff1673ffffffffffffffffffffffffffffffffffffffff1681526020019081526020016000205461526c90919063ffffffff16565b6000803073ffffffffffffffffffffffffffffffffffffffff1673ffffffffffffffffffffffffffffffffffffffff168152602001908152602001600020819055506135b9816000808b73ffffffffffffffffffffffffffffffffffffffff1673ffffffffffffffffffffffffffffffffffffffff1681526020019081526020016000205461525090919063ffffffff16565b6000808a73ffffffffffffffffffffffffffffffffffffffff1673ffffffffffffffffffffffffffffffffffffffff1681526020019081526020016000208190555061366e82600080600360009054906101000a900473ffffffffffffffffffffffffffffffffffffffff1673ffffffffffffffffffffffffffffffffffffffff1673ffffffffffffffffffffffffffffffffffffffff1681526020019081526020016000205461525090919063ffffffff16565b600080600360009054906101000a900473ffffffffffffffffffffffffffffffffffffffff1673ffffffffffffffffffffffffffffffffffffffff1673ffffffffffffffffffffffffffffffffffffffff168152602001908152602001600020819055508773ffffffffffffffffffffffffffffffffffffffff163073ffffffffffffffffffffffffffffffffffffffff167fddf252ad1be2c89b69c2b068fc378daa952ba7f163c4a11628f55a4df523b3ef87600001516040518082815260200191505060405180910390a36137508360015461525090919063ffffffff16565b60018190555061377e61376d60028461528590919063ffffffff16565b60015461525090919063ffffffff16565b6001819055508773ffffffffffffffffffffffffffffffffffffffff167f0f6798a560793a54c3bcfe86a93cde1e73087d944c0ea20544137d41213968856137cf858561525090919063ffffffff16565b6040518082815260200191505060405180910390a2600360009054906101000a900473ffffffffffffffffffffffffffffffffffffffff1673ffffffffffffffffffffffffffffffffffffffff167f0f6798a560793a54c3bcfe86a93cde1e73087d944c0ea20544137d4121396885836040518082815260200191505060405180910390a261385e88886152d3565b60019550505050505092915050565b6000801515600c6000856000191660001916815260200190815260200160002060009054906101000a900460ff1615151480156138b057506138af8284614168565b5b905092915050565b6060806060806000606080606080600080600e60008d73ffffffffffffffffffffffffffffffffffffffff1673ffffffffffffffffffffffffffffffffffffffff1681526020019081526020016000208054905096508660405190808252806020026020018201604052801561393d5781602001602082028038833980820191505090505b5095508660405190808252806020026020018201604052801561396f5781602001602082028038833980820191505090505b509450866040519080825280602002602001820160405280156139a15781602001602082028038833980820191505090505b509350866040519080825280602002602001820160405280156139d35781602001602082028038833980820191505090505b509250600091505b86821015613ad057600e60008d73ffffffffffffffffffffffffffffffffffffffff1673ffffffffffffffffffffffffffffffffffffffff16815260200190815260200160002082815481101515613a2f57fe5b9060005260206000209060050201905080600001548683815181101515613a5257fe5b906020019060200201818152505080600101548583815181101515613a7357fe5b906020019060200201818152505080600201548483815181101515613a9457fe5b906020019060200201818152505080600301548383815181101515613ab557fe5b906020019060200201818152505081806001019250506139db565b858585859a509a509a509a50505050505050509193509193565b600d5481565b600e60205281600052604060002081815481101515613b0b57fe5b9060005260206000209060050201600091509150508060000154908060010154908060020154908060030154908060040154905085565b600360009054906101000a900473ffffffffffffffffffffffffffffffffffffffff1681565b60006004544211613b7a576000613ba5565b613ba462093a80613b966004544261526c90919063ffffffff16565b6152bd90919063ffffffff16565b5b905090565b60055481565b60008073ffffffffffffffffffffffffffffffffffffffff168373ffffffffffffffffffffffffffffffffffffffff1614151515613bed57600080fd5b6000803373ffffffffffffffffffffffffffffffffffffffff1673ffffffffffffffffffffffffffffffffffffffff168152602001908152602001600020548211151515613c3a57600080fd5b613c8b826000803373ffffffffffffffffffffffffffffffffffffffff1673ffffffffffffffffffffffffffffffffffffffff1681526020019081526020016000205461526c90919063ffffffff16565b6000803373ffffffffffffffffffffffffffffffffffffffff1673ffffffffffffffffffffffffffffffffffffffff16815260200190815260200160002081905550613d1e826000808673ffffffffffffffffffffffffffffffffffffffff1673ffffffffffffffffffffffffffffffffffffffff1681526020019081526020016000205461525090919063ffffffff16565b6000808573ffffffffffffffffffffffffffffffffffffffff1673ffffffffffffffffffffffffffffffffffffffff168152602001908152602001600020819055508273ffffffffffffffffffffffffffffffffffffffff163373ffffffffffffffffffffffffffffffffffffffff167fddf252ad1be2c89b69c2b068fc378daa952ba7f163c4a11628f55a4df523b3ef846040518082815260200191505060405180910390a36001905092915050565b60003373ffffffffffffffffffffffffffffffffffffffff168273ffffffffffffffffffffffffffffffffffffffff1614151515613e0c57600080fd5b600073ffffffffffffffffffffffffffffffffffffffff168273ffffffffffffffffffffffffffffffffffffffff1614151515613e4857600080fd5b613eb88b8b8b808060200260200160405190810160405280939291908181526020018383602002808284378201915050505050508a8a8080601f01602080910402602001604051908101604052809392919081815260200183838082843782019150505050505089898989612ca4565b9050613f1e613ed16014836152bd90919063ffffffff16565b6000808573ffffffffffffffffffffffffffffffffffffffff1673ffffffffffffffffffffffffffffffffffffffff1681526020019081526020016000205461525090919063ffffffff16565b6000808473ffffffffffffffffffffffffffffffffffffffff1673ffffffffffffffffffffffffffffffffffffffff16815260200190815260200160002081905550613f88613f776014836152bd90919063ffffffff16565b60015461525090919063ffffffff16565b6001819055508090509a9950505050505050505050565b6000806000806001600e60008973ffffffffffffffffffffffffffffffffffffffff1673ffffffffffffffffffffffffffffffffffffffff16815260200190815260200160002080549050039250828511151515613ffc57600080fd5b6000861015151561400c57600080fd5b6000600e60008973ffffffffffffffffffffffffffffffffffffffff1673ffffffffffffffffffffffffffffffffffffffff168152602001908152602001600020805490501415614060576000935061415e565b848614156140ce57600e60008873ffffffffffffffffffffffffffffffffffffffff1673ffffffffffffffffffffffffffffffffffffffff16815260200190815260200160002060008154811015156140b557fe5b906000526020600020906005020160000154935061415e565b8590505b848111151561415a5761414b600e60008973ffffffffffffffffffffffffffffffffffffffff1673ffffffffffffffffffffffffffffffffffffffff1681526020019081526020016000208281548110151561412a57fe5b9060005260206000209060050201600001548361525090919063ffffffff16565b915080806001019150506140d2565b8193505b5050509392505050565b600061417783600a54846153c4565b905092915050565b60006141d28260006001600e60008773ffffffffffffffffffffffffffffffffffffffff1673ffffffffffffffffffffffffffffffffffffffff1681526020019081526020016000208054905003613f9f565b9050919050565b600081600781905550919050565b6000808284111515156141f957600080fd5b600e60008673ffffffffffffffffffffffffffffffffffffffff1673ffffffffffffffffffffffffffffffffffffffff168152602001908152602001600020805490508310151561424957600080fd5b8390505b82811115156142e557600e60008673ffffffffffffffffffffffffffffffffffffffff1673ffffffffffffffffffffffffffffffffffffffff16815260200190815260200160002060008154811015156142a357fe5b906000526020600020906005020160020154421015156142e0576142c88560006133af565b506142dd60018261525090919063ffffffff16565b90505b61424d565b60019150509392505050565b6000614405600287604051602001808273ffffffffffffffffffffffffffffffffffffffff1673ffffffffffffffffffffffffffffffffffffffff166c010000000000000000000000000281526014019150506040516020818303038152906040526040518082805190602001908083835b6020831015156143885780518252602082019150602081019050602083039250614363565b6001836020036101000a0380198251168184511680821785525050505050509050019150506020604051808303816000865af11580156143cc573d6000803e3d6000fd5b5050506040513d60208110156143e157600080fd5b81019080805190602001909291905050508585856143fe8a6128f3565b6000611753565b905095945050505050565b600080848460405160200180836bffffffffffffffffffffffff19166bffffffffffffffffffffffff19168152601401828152602001925050506040516020818303038152906040526040518082805190602001908083835b60208310151561448e5780518252602082019150602081019050602083039250614469565b6001836020036101000a038019825116818451168082178552505050505050905001915050604051809103902090506144c7818461386d565b9150509392505050565b600061456282600260003373ffffffffffffffffffffffffffffffffffffffff1673ffffffffffffffffffffffffffffffffffffffff16815260200190815260200160002060008673ffffffffffffffffffffffffffffffffffffffff1673ffffffffffffffffffffffffffffffffffffffff1681526020019081526020016000205461525090919063ffffffff16565b600260003373ffffffffffffffffffffffffffffffffffffffff1673ffffffffffffffffffffffffffffffffffffffff16815260200190815260200160002060008573ffffffffffffffffffffffffffffffffffffffff1673ffffffffffffffffffffffffffffffffffffffff168152602001908152602001600020819055508273ffffffffffffffffffffffffffffffffffffffff163373ffffffffffffffffffffffffffffffffffffffff167f8c5be1e5ebec7d5bd14f71427d1e84f3dd0314c0f7b2291e5b200ac8c7c3b925600260003373ffffffffffffffffffffffffffffffffffffffff1673ffffffffffffffffffffffffffffffffffffffff16815260200190815260200160002060008773ffffffffffffffffffffffffffffffffffffffff1673ffffffffffffffffffffffffffffffffffffffff168152602001908152602001600020546040518082815260200191505060405180910390a36001905092915050565b6000600260008473ffffffffffffffffffffffffffffffffffffffff1673ffffffffffffffffffffffffffffffffffffffff16815260200190815260200160002060008373ffffffffffffffffffffffffffffffffffffffff1673ffffffffffffffffffffffffffffffffffffffff16815260200190815260200160002054905092915050565b60008061478162093a806147736004544261526c90919063ffffffff16565b6152bd90919063ffffffff16565b915060328211158015614795575060055482115b156147fc576147b160075460095461526c90919063ffffffff16565b90506040805190810160405280828152602001600654815250600b60008481526020019081526020016000206000820151816000015560208201518160010155905050816005819055505b5050565b600080600080614811866000615567565b600190049250614822866020615567565b60019004915084156149fe57600060028381151561483c57fe5b061461484957600361484c565b60025b9050600360028285604051602001808360ff1660ff167f0100000000000000000000000000000000000000000000000000000000000000028152600101828152602001925050506040516020818303038152906040526040518082805190602001908083835b6020831015156148d757805182526020820191506020810190506020830392506148b2565b6001836020036101000a0380198251168184511680821785525050505050509050019150506020604051808303816000865af115801561491b573d6000803e3d6000fd5b5050506040513d602081101561493057600080fd5b81019080805190602001909291905050506040516020018082600019166000191681526020019150506040516020818303038152906040526040518082805190602001908083835b60208310151561499d5780518252602082019150602081019050602083039250614978565b6001836020036101000a0380198251168184511680821785525050505050509050019150506020604051808303816000865af11580156149e1573d6000803e3d6000fd5b505050604051516c01000000000000000000000000029350614bb6565b6004905060036002828585604051602001808460ff1660ff167f010000000000000000000000000000000000000000000000000000000000000002815260010183815260200182815260200193505050506040516020818303038152906040526040518082805190602001908083835b602083101515614a935780518252602082019150602081019050602083039250614a6e565b6001836020036101000a0380198251168184511680821785525050505050509050019150506020604051808303816000865af1158015614ad7573d6000803e3d6000fd5b5050506040513d6020811015614aec57600080fd5b81019080805190602001909291905050506040516020018082600019166000191681526020019150506040516020818303038152906040526040518082805190602001908083835b602083101515614b595780518252602082019150602081019050602083039250614b34565b6001836020036101000a0380198251168184511680821785525050505050509050019150506020604051808303816000865af1158015614b9d573d6000803e3d6000fd5b505050604051516c010000000000000000000000000293505b50505092915050565b6000614bfd600a614bef600954614be16007548761528590919063ffffffff16565b6152bd90919063ffffffff16565b6152bd90919063ffffffff16565b9050919050565b600080600e60008573ffffffffffffffffffffffffffffffffffffffff1673ffffffffffffffffffffffffffffffffffffffff16815260200190815260200160002083815481101515614c5357fe5b9060005260206000209060050201600001549050600e60008573ffffffffffffffffffffffffffffffffffffffff1673ffffffffffffffffffffffffffffffffffffffff16815260200190815260200160002083815481101515614cb357fe5b906000526020600020906005020160020154421115614cef57614ce8614cd9858561329d565b8261525090919063ffffffff16565b9150614cf3565b8091505b5092915050565b6000806000806000806000806000809750614d3562093a80614d276004548e61526c90919063ffffffff16565b6152bd90919063ffffffff16565b965060008714614d455786614d48565b60015b9550614d7462093a80614d666004548d61526c90919063ffffffff16565b6152bd90919063ffffffff16565b945060328511614d845784614d87565b60325b93508592505b83831015614e4657614dd1600b600085815260200190815260200160002060010154614dc360648f61528590919063ffffffff16565b6152bd90919063ffffffff16565b9150614e226064614e1484614e066032600b60008a8152602001908152602001600020600001546152bd90919063ffffffff16565b61528590919063ffffffff16565b6152bd90919063ffffffff16565b9050614e37818961525090919063ffffffff16565b97508280600101935050614d8d565b87985050505050505050509392505050565b6000614eab826000808673ffffffffffffffffffffffffffffffffffffffff1673ffffffffffffffffffffffffffffffffffffffff1681526020019081526020016000205461525090919063ffffffff16565b6000808573ffffffffffffffffffffffffffffffffffffffff1673ffffffffffffffffffffffffffffffffffffffff16815260200190815260200160002081905550614f028260015461525090919063ffffffff16565b6001819055508273ffffffffffffffffffffffffffffffffffffffff167f0f6798a560793a54c3bcfe86a93cde1e73087d944c0ea20544137d4121396885836040518082815260200191505060405180910390a28273ffffffffffffffffffffffffffffffffffffffff16600073ffffffffffffffffffffffffffffffffffffffff167fddf252ad1be2c89b69c2b068fc378daa952ba7f163c4a11628f55a4df523b3ef846040518082815260200191505060405180910390a36001905092915050565b60075481565b6000806000806000806000614fec6127108961525090919063ffffffff16565b9550600a94508489811515614ffd57fe5b069350615013858a6152bd90919063ffffffff16565b925061502d6402540be4008b6152bd90919063ffffffff16565b9150600090505b8281101561508457615067856127100a61505987890a8561528590919063ffffffff16565b6152bd90919063ffffffff16565b915061507d60018261525090919063ffffffff16565b9050615034565b6000841415156150bc576150b9846127100a6150ab86890a8561528590919063ffffffff16565b6152bd90919063ffffffff16565b91505b6150d46402540be4008361528590919063ffffffff16565b96505050505050509392505050565b6000806000806000806000806000600e60008c73ffffffffffffffffffffffffffffffffffffffff1673ffffffffffffffffffffffffffffffffffffffff1681526020019081526020016000208a81548110151561513d57fe5b906000526020600020906005020197506151626064600161528590919063ffffffff16565b96506001955060649450600088600301541415156151e6576151a8886004015461519a60648b6003015461528590919063ffffffff16565b6152bd90919063ffffffff16565b9350600084116151b95760016151bb565b835b95506151d086886152bd90919063ffffffff16565b9250600083116151e15760016151e3565b825b94505b615216620d2f006152088a600101548b6002015461526c90919063ffffffff16565b6152bd90919063ffffffff16565b915061522788600001548387614fcc565b905061524088600001548261526c90919063ffffffff16565b9850505050505050505092915050565b6000818301905082811015151561526357fe5b80905092915050565b600082821115151561527a57fe5b818303905092915050565b60008083141561529857600090506152b7565b81830290508183828115156152a957fe5b041415156152b357fe5b8090505b92915050565b600081838115156152ca57fe5b04905092915050565b6000600e60008473ffffffffffffffffffffffffffffffffffffffff1673ffffffffffffffffffffffffffffffffffffffff16815260200190815260200160002090508061532f6001838054905061526c90919063ffffffff16565b81548110151561533b57fe5b9060005260206000209060050201818381548110151561535757fe5b906000526020600020906005020160008201548160000155600182015481600101556002820154816002015560038201548160030155600482015481600401559050506153b26001828054905061526c90919063ffffffff16565b81816153be9190615673565b50505050565b600080600080849250600091505b86518210156155505786828151811015156153e957fe5b9060200190602002015190508060001916836000191610156154a65782816040516020018083600019166000191681526020018260001916600019168152602001925050506040516020818303038152906040526040518082805190602001908083835b602083101515615472578051825260208201915060208101905060208303925061544d565b6001836020036101000a03801982511681845116808217855250505050505090500191505060405180910390209250615543565b80836040516020018083600019166000191681526020018260001916600019168152602001925050506040516020818303038152906040526040518082805190602001908083835b60208310151561551357805182526020820191506020810190506020830392506154ee565b6001836020036101000a038019825116818451168082178552505050505050905001915050604051809103902092505b81806001019250506153d2565b856000191683600019161493505050509392505050565b600080600090505b602081101561563957600881028484830181518110151561558c57fe5b9060200101517f010000000000000000000000000000000000000000000000000000000000000090047f0100000000000000000000000000000000000000000000000000000000000000027effffffffffffffffffffffffffffffffffffffffffffffffffffffffffffff19167fff0000000000000000000000000000000000000000000000000000000000000060010216600019169060020a900482189150808060010191505061556f565b8191505092915050565b60a06040519081016040528060008152602001600081526020016000815260200160008152602001600081525090565b8154818355818111156156a05760050281600502836000526020600020918201910161569f91906156a5565b5b505050565b6156e991905b808211156156e5576000808201600090556001820160009055600282016000905560038201600090556004820160009055506005016156ab565b5090565b905600a165627a7a72305820de798ec39479d27e5d255aae7f96fa69a1525d892c701b34453019b9f08c02240029",
  "source": "pragma solidity ^0.4.23;\n\nimport \"../StakeableToken.sol\";\n\n\ncontract StakeableTokenStub is StakeableToken {\n  constructor (\n    address _origin,\n    uint256 _launchTime,\n    bytes32 _rootUtxoMerkleTreeHash,\n    uint256 _totalBtcCirculationAtFork,\n    uint256 _maximumRedeemable\n  ) \n    public\n  {\n    origin = _origin;\n    launchTime = _launchTime;\n    rootUtxoMerkleTreeHash = _rootUtxoMerkleTreeHash;\n    totalBtcCirculationAtFork = _totalBtcCirculationAtFork;\n    maximumRedeemable = _maximumRedeemable;\n  }\n\n  // only uesd for testing: easily mint more tokens for stress tests\n  function mintTokens(\n    address _address,\n    uint256 _amount\n  )\n    public\n    returns (bool)\n  {\n    balances[_address] = balances[_address].add(_amount);\n    totalSupply_ = totalSupply_.add(_amount);\n    emit Mint(_address, _amount);\n    emit Transfer(address(0), _address, _amount);\n\n    return true;\n  }\n\n  function setRedeemedCount(\n    uint256 _count\n  )\n    public\n    returns (bool)\n  {\n    redeemedCount = _count;\n  }\n\n  function setMaxRedeemable(\n    uint256 _maxRedeemable\n  )\n    public\n    returns (bool)\n  {\n    maximumRedeemable = _maxRedeemable;\n  }\n\n  function setTotalRedeemed(\n    uint256 _totalRedeemed\n  )\n    public\n    returns (bool)\n  {\n    totalRedeemed = _totalRedeemed;\n  }\n\n  // stub function to claim without merkle tree\n  function shortcutRedeem(\n    uint256 _satoshis\n  ) \n    public \n    returns (uint256)\n  {\n    (uint256 _tokensRedeemed, uint256 _speedBonus) = getRedeemAmount(_satoshis);\n\n    /* Sanity check. */\n    require(totalRedeemed.add(_tokensRedeemed) <= maximumRedeemable);\n\n    /* Track total redeemed tokens. */\n    totalRedeemed = totalRedeemed.add(_tokensRedeemed);\n\n    /* Credit the redeemer. */ \n    balances[msg.sender] = balances[msg.sender].add(_tokensRedeemed).add(_speedBonus);\n    balances[origin] = balances[origin].add(_speedBonus);\n\n    /* Increase supply */\n    totalSupply_ = totalSupply_.add(_tokensRedeemed).add(_speedBonus);\n\n    /* Increment Redeem Count to track viral rewards */\n    redeemedCount = redeemedCount.add(1);\n\n    /* Mark the transfer event. */\n    emit Transfer(address(0), msg.sender, _tokensRedeemed.add(_speedBonus));\n    \n    /* Return the number of tokens redeemed. */\n    return _tokensRedeemed;\n  }\n}",
  "sourcePath": "/Users/tovarishfin/dev/bhx/contract/contracts/stubs/StakeableTokenStub.sol",
  "compiler": {
    "name": "solc",
    "version": "0.4.24+commit.e67f0147.Emscripten.clang"
  },
  "schemaVersion": "2.0.1",
  "updatedAt": "2018-08-29T17:14:35.296Z"
}