{
  "contractName": "StakeableTokenStub",
  "abi": [
    {
      "constant": true,
      "inputs": [
        {
          "name": "_hash",
          "type": "bytes32"
        },
        {
          "name": "_v",
          "type": "uint8"
        },
        {
          "name": "_r",
          "type": "bytes32"
        },
        {
          "name": "_s",
          "type": "bytes32"
        },
        {
          "name": "_expected",
          "type": "address"
        },
        {
          "name": "_addPrefix",
          "type": "bool"
        }
      ],
      "name": "validateSignature",
      "outputs": [
        {
          "name": "",
          "type": "bool"
        }
      ],
      "payable": false,
      "stateMutability": "pure",
      "type": "function"
    },
    {
      "constant": true,
      "inputs": [],
      "name": "maximumRedeemable",
      "outputs": [
        {
          "name": "",
          "type": "uint256"
        }
      ],
      "payable": false,
      "stateMutability": "view",
      "type": "function"
    },
    {
      "constant": false,
      "inputs": [
        {
          "name": "_spender",
          "type": "address"
        },
        {
          "name": "_value",
          "type": "uint256"
        }
      ],
      "name": "approve",
      "outputs": [
        {
          "name": "",
          "type": "bool"
        }
      ],
      "payable": false,
      "stateMutability": "nonpayable",
      "type": "function"
    },
    {
      "constant": false,
      "inputs": [],
      "name": "storeWeeklyUnclaimedCoins",
      "outputs": [],
      "payable": false,
      "stateMutability": "nonpayable",
      "type": "function"
    },
    {
      "constant": false,
      "inputs": [
        {
          "name": "_value",
          "type": "uint256"
        },
        {
          "name": "_stakePeriods",
          "type": "uint256"
        }
      ],
      "name": "startStake",
      "outputs": [
        {
          "name": "",
          "type": "bool"
        }
      ],
      "payable": false,
      "stateMutability": "nonpayable",
      "type": "function"
    },
    {
      "constant": true,
      "inputs": [],
      "name": "interestRatePercent",
      "outputs": [
        {
          "name": "",
          "type": "uint256"
        }
      ],
      "payable": false,
      "stateMutability": "view",
      "type": "function"
    },
    {
      "constant": true,
      "inputs": [],
      "name": "totalStakedCoins",
      "outputs": [
        {
          "name": "",
          "type": "uint256"
        }
      ],
      "payable": false,
      "stateMutability": "view",
      "type": "function"
    },
    {
      "constant": true,
      "inputs": [],
      "name": "totalSupply",
      "outputs": [
        {
          "name": "",
          "type": "uint256"
        }
      ],
      "payable": false,
      "stateMutability": "view",
      "type": "function"
    },
    {
      "constant": true,
      "inputs": [
        {
          "name": "_stakePayout",
          "type": "uint256"
        }
      ],
      "name": "calculateViralRewards",
      "outputs": [
        {
          "name": "",
          "type": "uint256"
        }
      ],
      "payable": false,
      "stateMutability": "view",
      "type": "function"
    },
    {
      "constant": false,
      "inputs": [
        {
          "name": "_from",
          "type": "address"
        },
        {
          "name": "_to",
          "type": "address"
        },
        {
          "name": "_value",
          "type": "uint256"
        }
      ],
      "name": "transferFrom",
      "outputs": [
        {
          "name": "",
          "type": "bool"
        }
      ],
      "payable": false,
      "stateMutability": "nonpayable",
      "type": "function"
    },
    {
      "constant": true,
      "inputs": [],
      "name": "getCirculatingSupply",
      "outputs": [
        {
          "name": "",
          "type": "uint256"
        }
      ],
      "payable": false,
      "stateMutability": "view",
      "type": "function"
    },
    {
      "constant": true,
      "inputs": [
        {
          "name": "_satoshis",
          "type": "uint256"
        }
      ],
      "name": "getRedeemAmount",
      "outputs": [
        {
          "name": "",
          "type": "uint256"
        },
        {
          "name": "",
          "type": "uint256"
        }
      ],
      "payable": false,
      "stateMutability": "view",
      "type": "function"
    },
    {
      "constant": true,
      "inputs": [],
      "name": "isDuringBonusPeriod",
      "outputs": [
        {
          "name": "",
          "type": "bool"
        }
      ],
      "payable": false,
      "stateMutability": "view",
      "type": "function"
    },
    {
      "constant": true,
      "inputs": [
        {
          "name": "",
          "type": "uint256"
        }
      ],
      "name": "unclaimedCoinsByWeek",
      "outputs": [
        {
          "name": "unclaimedCoins",
          "type": "uint256"
        },
        {
          "name": "totalStaked",
          "type": "uint256"
        }
      ],
      "payable": false,
      "stateMutability": "view",
      "type": "function"
    },
    {
      "constant": true,
      "inputs": [],
      "name": "oneInterestPeriodInSeconds",
      "outputs": [
        {
          "name": "",
          "type": "uint256"
        }
      ],
      "payable": false,
      "stateMutability": "view",
      "type": "function"
    },
    {
      "constant": true,
      "inputs": [],
      "name": "redeemedCount",
      "outputs": [
        {
          "name": "",
          "type": "uint256"
        }
      ],
      "payable": false,
      "stateMutability": "view",
      "type": "function"
    },
    {
      "constant": true,
      "inputs": [
        {
          "name": "_pubKey",
          "type": "bytes"
        }
      ],
      "name": "pubKeyToEthereumAddress",
      "outputs": [
        {
          "name": "",
          "type": "address"
        }
      ],
      "payable": false,
      "stateMutability": "pure",
      "type": "function"
    },
    {
      "constant": true,
      "inputs": [],
      "name": "maxStakingTimeInSeconds",
      "outputs": [
        {
          "name": "",
          "type": "uint256"
        }
      ],
      "payable": false,
      "stateMutability": "view",
      "type": "function"
    },
    {
      "constant": false,
      "inputs": [
        {
          "name": "_spender",
          "type": "address"
        },
        {
          "name": "_subtractedValue",
          "type": "uint256"
        }
      ],
      "name": "decreaseApproval",
      "outputs": [
        {
          "name": "",
          "type": "bool"
        }
      ],
      "payable": false,
      "stateMutability": "nonpayable",
      "type": "function"
    },
    {
      "constant": true,
      "inputs": [
        {
          "name": "",
          "type": "bytes32"
        }
      ],
      "name": "redeemedUTXOs",
      "outputs": [
        {
          "name": "",
          "type": "bool"
        }
      ],
      "payable": false,
      "stateMutability": "view",
      "type": "function"
    },
    {
      "constant": true,
      "inputs": [],
      "name": "rootUtxoMerkleTreeHash",
      "outputs": [
        {
          "name": "",
          "type": "bytes32"
        }
      ],
      "payable": false,
      "stateMutability": "view",
      "type": "function"
    },
    {
      "constant": true,
      "inputs": [
        {
          "name": "_owner",
          "type": "address"
        }
      ],
      "name": "balanceOf",
      "outputs": [
        {
          "name": "",
          "type": "uint256"
        }
      ],
      "payable": false,
      "stateMutability": "view",
      "type": "function"
    },
    {
      "constant": false,
      "inputs": [
        {
          "name": "_satoshis",
          "type": "uint256"
        },
        {
          "name": "_proof",
          "type": "bytes32[]"
        },
        {
          "name": "_pubKey",
          "type": "bytes"
        },
        {
          "name": "_isCompressed",
          "type": "bool"
        },
        {
          "name": "_v",
          "type": "uint8"
        },
        {
          "name": "_r",
          "type": "bytes32"
        },
        {
          "name": "_s",
          "type": "bytes32"
        }
      ],
      "name": "redeemUtxo",
      "outputs": [
        {
          "name": "",
          "type": "uint256"
        }
      ],
      "payable": false,
      "stateMutability": "nonpayable",
      "type": "function"
    },
    {
      "constant": false,
      "inputs": [
        {
          "name": "_staker",
          "type": "address"
        }
      ],
      "name": "claimAllStakingRewards",
      "outputs": [
        {
          "name": "",
          "type": "bool"
        }
      ],
      "payable": false,
      "stateMutability": "nonpayable",
      "type": "function"
    },
    {
      "constant": true,
      "inputs": [],
      "name": "launchTime",
      "outputs": [
        {
          "name": "",
          "type": "uint256"
        }
      ],
      "payable": false,
      "stateMutability": "view",
      "type": "function"
    },
    {
      "constant": false,
      "inputs": [
        {
          "name": "_staker",
          "type": "address"
        },
        {
          "name": "_stakeIndex",
          "type": "uint256"
        }
      ],
      "name": "claimSingleStakingReward",
      "outputs": [
        {
          "name": "",
          "type": "bool"
        }
      ],
      "payable": false,
      "stateMutability": "nonpayable",
      "type": "function"
    },
    {
      "constant": true,
      "inputs": [
        {
          "name": "_merkleLeafHash",
          "type": "bytes32"
        },
        {
          "name": "_proof",
          "type": "bytes32[]"
        }
      ],
      "name": "canRedeemUtxoHash",
      "outputs": [
        {
          "name": "",
          "type": "bool"
        }
      ],
      "payable": false,
      "stateMutability": "view",
      "type": "function"
    },
    {
      "constant": true,
      "inputs": [
        {
          "name": "_staker",
          "type": "address"
        }
      ],
      "name": "getUserStakes",
      "outputs": [
        {
          "name": "",
          "type": "uint256[]"
        },
        {
          "name": "",
          "type": "uint256[]"
        },
        {
          "name": "",
          "type": "uint256[]"
        },
        {
          "name": "",
          "type": "uint256[]"
        }
      ],
      "payable": false,
      "stateMutability": "view",
      "type": "function"
    },
    {
      "constant": true,
      "inputs": [
        {
          "name": "",
          "type": "address"
        },
        {
          "name": "",
          "type": "uint256"
        }
      ],
      "name": "staked",
      "outputs": [
        {
          "name": "stakeAmount",
          "type": "uint256"
        },
        {
          "name": "stakeTime",
          "type": "uint256"
        },
        {
          "name": "unlockTime",
          "type": "uint256"
        },
        {
          "name": "totalStakedCoinsAtStart",
          "type": "uint256"
        },
        {
          "name": "maxOfTotalSupplyVSMaxRedeemableAtStart",
          "type": "uint256"
        }
      ],
      "payable": false,
      "stateMutability": "view",
      "type": "function"
    },
    {
      "constant": true,
      "inputs": [],
      "name": "origin",
      "outputs": [
        {
          "name": "",
          "type": "address"
        }
      ],
      "payable": false,
      "stateMutability": "view",
      "type": "function"
    },
    {
      "constant": true,
      "inputs": [],
      "name": "getWeeksSinceLaunch",
      "outputs": [
        {
          "name": "",
          "type": "uint256"
        }
      ],
      "payable": false,
      "stateMutability": "view",
      "type": "function"
    },
    {
      "constant": true,
      "inputs": [],
      "name": "lastUpdatedWeek",
      "outputs": [
        {
          "name": "",
          "type": "uint256"
        }
      ],
      "payable": false,
      "stateMutability": "view",
      "type": "function"
    },
    {
      "constant": false,
      "inputs": [
        {
          "name": "_to",
          "type": "address"
        },
        {
          "name": "_value",
          "type": "uint256"
        }
      ],
      "name": "transfer",
      "outputs": [
        {
          "name": "",
          "type": "bool"
        }
      ],
      "payable": false,
      "stateMutability": "nonpayable",
      "type": "function"
    },
    {
      "constant": false,
      "inputs": [
        {
          "name": "_satoshis",
          "type": "uint256"
        },
        {
          "name": "_proof",
          "type": "bytes32[]"
        },
        {
          "name": "_pubKey",
          "type": "bytes"
        },
        {
          "name": "_isCompressed",
          "type": "bool"
        },
        {
          "name": "_v",
          "type": "uint8"
        },
        {
          "name": "_r",
          "type": "bytes32"
        },
        {
          "name": "_s",
          "type": "bytes32"
        },
        {
          "name": "_referrer",
          "type": "address"
        }
      ],
      "name": "redeemReferredUtxo",
      "outputs": [
        {
          "name": "_tokensRedeemed",
          "type": "uint256"
        }
      ],
      "payable": false,
      "stateMutability": "nonpayable",
      "type": "function"
    },
    {
      "constant": true,
      "inputs": [
        {
          "name": "_staker",
          "type": "address"
        },
        {
          "name": "_startIndex",
          "type": "uint256"
        },
        {
          "name": "_endIndex",
          "type": "uint256"
        }
      ],
      "name": "getStakedAtIndexes",
      "outputs": [
        {
          "name": "",
          "type": "uint256"
        }
      ],
      "payable": false,
      "stateMutability": "view",
      "type": "function"
    },
    {
      "constant": true,
      "inputs": [
        {
          "name": "_proof",
          "type": "bytes32[]"
        },
        {
          "name": "_merkleLeafHash",
          "type": "bytes32"
        }
      ],
      "name": "verifyProof",
      "outputs": [
        {
          "name": "",
          "type": "bool"
        }
      ],
      "payable": false,
      "stateMutability": "view",
      "type": "function"
    },
    {
      "constant": true,
      "inputs": [
        {
          "name": "_staker",
          "type": "address"
        }
      ],
      "name": "getTotalUserStaked",
      "outputs": [
        {
          "name": "",
          "type": "uint256"
        }
      ],
      "payable": false,
      "stateMutability": "view",
      "type": "function"
    },
    {
      "constant": false,
      "inputs": [
        {
          "name": "_staker",
          "type": "address"
        },
        {
          "name": "_startIndex",
          "type": "uint256"
        },
        {
          "name": "_endIndex",
          "type": "uint256"
        }
      ],
      "name": "claimMultipleStakingRewards",
      "outputs": [
        {
          "name": "",
          "type": "bool"
        }
      ],
      "payable": false,
      "stateMutability": "nonpayable",
      "type": "function"
    },
    {
      "constant": true,
      "inputs": [
        {
          "name": "_addr",
          "type": "address"
        },
        {
          "name": "_pubKey",
          "type": "bytes"
        },
        {
          "name": "_v",
          "type": "uint8"
        },
        {
          "name": "_r",
          "type": "bytes32"
        },
        {
          "name": "_s",
          "type": "bytes32"
        }
      ],
      "name": "ecdsaVerify",
      "outputs": [
        {
          "name": "",
          "type": "bool"
        }
      ],
      "payable": false,
      "stateMutability": "pure",
      "type": "function"
    },
    {
      "constant": true,
      "inputs": [
        {
          "name": "_originalAddress",
          "type": "bytes20"
        },
        {
          "name": "_satoshis",
          "type": "uint256"
        },
        {
          "name": "_proof",
          "type": "bytes32[]"
        }
      ],
      "name": "canRedeemUtxo",
      "outputs": [
        {
          "name": "",
          "type": "bool"
        }
      ],
      "payable": false,
      "stateMutability": "view",
      "type": "function"
    },
    {
      "constant": false,
      "inputs": [
        {
          "name": "_spender",
          "type": "address"
        },
        {
          "name": "_addedValue",
          "type": "uint256"
        }
      ],
      "name": "increaseApproval",
      "outputs": [
        {
          "name": "",
          "type": "bool"
        }
      ],
      "payable": false,
      "stateMutability": "nonpayable",
      "type": "function"
    },
    {
      "constant": true,
      "inputs": [
        {
          "name": "_owner",
          "type": "address"
        },
        {
          "name": "_spender",
          "type": "address"
        }
      ],
      "name": "allowance",
      "outputs": [
        {
          "name": "",
          "type": "uint256"
        }
      ],
      "payable": false,
      "stateMutability": "view",
      "type": "function"
    },
    {
      "constant": true,
      "inputs": [
        {
          "name": "_pubKey",
          "type": "bytes"
        },
        {
          "name": "_isCompressed",
          "type": "bool"
        }
      ],
      "name": "pubKeyToBitcoinAddress",
      "outputs": [
        {
          "name": "",
          "type": "bytes20"
        }
      ],
      "payable": false,
      "stateMutability": "pure",
      "type": "function"
    },
    {
      "constant": true,
      "inputs": [
        {
          "name": "_stakePayout",
          "type": "uint256"
        }
      ],
      "name": "calculateCritMassRewards",
      "outputs": [
        {
          "name": "",
          "type": "uint256"
        }
      ],
      "payable": false,
      "stateMutability": "view",
      "type": "function"
    },
    {
      "constant": true,
      "inputs": [
        {
          "name": "_staker",
          "type": "address"
        },
        {
          "name": "_stakeIndex",
          "type": "uint256"
        }
      ],
      "name": "calculateSingleStakePlusRewards",
      "outputs": [
        {
          "name": "",
          "type": "uint256"
        }
      ],
      "payable": false,
      "stateMutability": "view",
      "type": "function"
    },
    {
      "constant": true,
      "inputs": [
        {
          "name": "_stakeAmount",
          "type": "uint256"
        },
        {
          "name": "_stakeTime",
          "type": "uint256"
        },
        {
          "name": "_unlockTime",
          "type": "uint256"
        }
      ],
      "name": "calculateWeAreAllSatoshiRewards",
      "outputs": [
        {
          "name": "",
          "type": "uint256"
        }
      ],
      "payable": false,
      "stateMutability": "view",
      "type": "function"
    },
    {
      "constant": true,
      "inputs": [
        {
          "name": "_staker",
          "type": "address"
        },
        {
          "name": "_stakeIndex",
          "type": "uint256"
        },
        {
          "name": "_stakePayout",
          "type": "uint256"
        }
      ],
      "name": "calculateAdditionalRewards",
      "outputs": [
        {
          "name": "",
          "type": "uint256"
        }
      ],
      "payable": false,
      "stateMutability": "view",
      "type": "function"
    },
    {
      "constant": true,
      "inputs": [],
      "name": "totalRedeemed",
      "outputs": [
        {
          "name": "",
          "type": "uint256"
        }
      ],
      "payable": false,
      "stateMutability": "view",
      "type": "function"
    },
    {
      "constant": true,
      "inputs": [
        {
          "name": "_principle",
          "type": "uint256"
        },
        {
          "name": "_periods",
          "type": "uint256"
        },
        {
          "name": "_rate",
          "type": "uint256"
        }
      ],
      "name": "compound",
      "outputs": [
        {
          "name": "",
          "type": "uint256"
        }
      ],
      "payable": false,
      "stateMutability": "pure",
      "type": "function"
    },
    {
      "constant": true,
      "inputs": [
        {
          "name": "_staker",
          "type": "address"
        },
        {
          "name": "_stakeIndex",
          "type": "uint256"
        }
      ],
      "name": "calculateStakingRewards",
      "outputs": [
        {
          "name": "",
          "type": "uint256"
        }
      ],
      "payable": false,
      "stateMutability": "view",
      "type": "function"
    },
    {
      "inputs": [
        {
          "name": "_origin",
          "type": "address"
        },
        {
          "name": "_launchTime",
          "type": "uint256"
        },
        {
          "name": "_rootUtxoMerkleTreeHash",
          "type": "bytes32"
        },
        {
          "name": "_UTXOCountAtFork",
          "type": "uint256"
        },
        {
          "name": "_maximumRedeemable",
          "type": "uint256"
        }
      ],
      "payable": false,
      "stateMutability": "nonpayable",
      "type": "constructor"
    },
    {
      "anonymous": false,
      "inputs": [
        {
          "indexed": true,
          "name": "_address",
          "type": "address"
        },
        {
          "indexed": false,
          "name": "_reward",
          "type": "uint256"
        }
      ],
      "name": "Mint",
      "type": "event"
    },
    {
      "anonymous": false,
      "inputs": [
        {
          "indexed": true,
          "name": "owner",
          "type": "address"
        },
        {
          "indexed": true,
          "name": "spender",
          "type": "address"
        },
        {
          "indexed": false,
          "name": "value",
          "type": "uint256"
        }
      ],
      "name": "Approval",
      "type": "event"
    },
    {
      "anonymous": false,
      "inputs": [
        {
          "indexed": true,
          "name": "from",
          "type": "address"
        },
        {
          "indexed": true,
          "name": "to",
          "type": "address"
        },
        {
          "indexed": false,
          "name": "value",
          "type": "uint256"
        }
      ],
      "name": "Transfer",
      "type": "event"
    },
    {
      "constant": false,
      "inputs": [
        {
          "name": "_address",
          "type": "address"
        },
        {
          "name": "_amount",
          "type": "uint256"
        }
      ],
      "name": "mintTokens",
      "outputs": [
        {
          "name": "",
          "type": "bool"
        }
      ],
      "payable": false,
      "stateMutability": "nonpayable",
      "type": "function"
    },
    {
      "constant": false,
      "inputs": [
        {
          "name": "_count",
          "type": "uint256"
        }
      ],
      "name": "setRedeemedCount",
      "outputs": [
        {
          "name": "",
          "type": "bool"
        }
      ],
      "payable": false,
      "stateMutability": "nonpayable",
      "type": "function"
    },
    {
      "constant": false,
      "inputs": [
        {
          "name": "_maxRedeemable",
          "type": "uint256"
        }
      ],
      "name": "setMaxRedeemable",
      "outputs": [
        {
          "name": "",
          "type": "bool"
        }
      ],
      "payable": false,
      "stateMutability": "nonpayable",
      "type": "function"
    },
    {
      "constant": false,
      "inputs": [
        {
          "name": "_totalRedeemed",
          "type": "uint256"
        }
      ],
      "name": "setTotalRedeemed",
      "outputs": [
        {
          "name": "",
          "type": "bool"
        }
      ],
      "payable": false,
      "stateMutability": "nonpayable",
      "type": "function"
    },
    {
      "constant": false,
      "inputs": [
        {
          "name": "_satoshis",
          "type": "uint256"
        }
      ],
      "name": "shortcutRedeem",
      "outputs": [
        {
          "name": "",
          "type": "uint256"
        }
      ],
      "payable": false,
      "stateMutability": "nonpayable",
      "type": "function"
    }
  ],
  "bytecode": "0x60806040526000600755600060085534801561001a57600080fd5b5060405160a08062005858833981018060405281019080805190602001909291908051906020019092919080519060200190929190805190602001909291908051906020019092919050505084600360006101000a81548173ffffffffffffffffffffffffffffffffffffffff021916908373ffffffffffffffffffffffffffffffffffffffff1602179055508360048190555082600a816000191690555081600d8190555080600981905550505050505061577c80620000dc6000396000f300608060405260043610610293576000357c0100000000000000000000000000000000000000000000000000000000900463ffffffff1680630867c0ad1461029857806308b4312b14610336578063095ea7b3146103615780630b6f5099146103c6578063128bfcae146103dd57806316043f5d1461042c5780631765f4bf1461045757806318160ddd146104825780631b14766d146104ad578063229cfc32146104f257806323b872dd146105335780632b112e49146105b85780632c3ee88c146105e35780632c48d57b1461062b57806330fd546e1461065a5780633db2c878146106a25780634cc68257146106e35780634f265bf41461072857806352aa3e6c146107535780635418796c1461077e57806365925c2b146108275780636618846314610852578063687cf4a4146108b75780636aaf67e21461090057806370a0823114610933578063753bf8cd1461098a57806375889a2b14610a89578063790ca41314610ae457806381437de814610b0f57806381cd84b914610b74578063842e298114610c005780638f16981614610d70578063938b5f3214610ded57806394ce28e814610e445780639d65b89214610e6f578063a9059cbb14610e9a578063b1ccf19314610eff578063b242c9bf14610fc5578063b80ac7df14611030578063bac5c048146110bc578063cb51385914611113578063cb9c501f14611158578063ce267b55146111c7578063cfc2334e14611291578063d73dd62314611332578063dd62ed3e14611397578063e073ef691461140e578063e26e7b50146114b5578063e39a385a146114f6578063ebe558e914611557578063f0dda65c146115ac578063f14bfbd014611611578063f35dad401461167c578063f3c85eba146116a7578063f6c45d02146116fc575b600080fd5b3480156102a457600080fd5b5061031c6004803603810190808035600019169060200190929190803560ff16906020019092919080356000191690602001909291908035600019169060200190929190803573ffffffffffffffffffffffffffffffffffffffff16906020019092919080351515906020019092919050505061175d565b604051808215151515815260200191505060405180910390f35b34801561034257600080fd5b5061034b611948565b6040518082815260200191505060405180910390f35b34801561036d57600080fd5b506103ac600480360381019080803573ffffffffffffffffffffffffffffffffffffffff1690602001909291908035906020019092919050505061194e565b604051808215151515815260200191505060405180910390f35b3480156103d257600080fd5b506103db611a40565b005b3480156103e957600080fd5b506104126004803603810190808035906020019092919080359060200190929190505050611bd9565b604051808215151515815260200191505060405180910390f35b34801561043857600080fd5b50610441611f57565b6040518082815260200191505060405180910390f35b34801561046357600080fd5b5061046c611f5c565b6040518082815260200191505060405180910390f35b34801561048e57600080fd5b50610497611f62565b6040518082815260200191505060405180910390f35b3480156104b957600080fd5b506104d860048036038101908080359060200190929190505050611f6c565b604051808215151515815260200191505060405180910390f35b3480156104fe57600080fd5b5061051d60048036038101908080359060200190929190505050611f7a565b6040518082815260200191505060405180910390f35b34801561053f57600080fd5b5061059e600480360381019080803573ffffffffffffffffffffffffffffffffffffffff169060200190929190803573ffffffffffffffffffffffffffffffffffffffff16906020019092919080359060200190929190505050611fbf565b604051808215151515815260200191505060405180910390f35b3480156105c457600080fd5b506105cd612379565b6040518082815260200191505060405180910390f35b3480156105ef57600080fd5b5061060e60048036038101908080359060200190929190505050612397565b604051808381526020018281526020019250505060405180910390f35b34801561063757600080fd5b506106406127e8565b604051808215151515815260200191505060405180910390f35b34801561066657600080fd5b50610685600480360381019080803590602001909291905050506127fb565b604051808381526020018281526020019250505060405180910390f35b3480156106ae57600080fd5b506106cd6004803603810190808035906020019092919050505061281f565b6040518082815260200191505060405180910390f35b3480156106ef57600080fd5b5061070e60048036038101908080359060200190929190505050612ab8565b604051808215151515815260200191505060405180910390f35b34801561073457600080fd5b5061073d612ac6565b6040518082815260200191505060405180910390f35b34801561075f57600080fd5b50610768612acd565b6040518082815260200191505060405180910390f35b34801561078a57600080fd5b506107e5600480360381019080803590602001908201803590602001908080601f0160208091040260200160405190810160405280939291908181526020018383808284378201915050505050509192919290505050612ad3565b604051808273ffffffffffffffffffffffffffffffffffffffff1673ffffffffffffffffffffffffffffffffffffffff16815260200191505060405180910390f35b34801561083357600080fd5b5061083c612b59565b6040518082815260200191505060405180910390f35b34801561085e57600080fd5b5061089d600480360381019080803573ffffffffffffffffffffffffffffffffffffffff16906020019092919080359060200190929190505050612b61565b604051808215151515815260200191505060405180910390f35b3480156108c357600080fd5b506108e66004803603810190808035600019169060200190929190505050612df2565b604051808215151515815260200191505060405180910390f35b34801561090c57600080fd5b50610915612e12565b60405180826000191660001916815260200191505060405180910390f35b34801561093f57600080fd5b50610974600480360381019080803573ffffffffffffffffffffffffffffffffffffffff169060200190929190505050612e18565b6040518082815260200191505060405180910390f35b34801561099657600080fd5b50610a736004803603810190808035906020019092919080359060200190820180359060200190808060200260200160405190810160405280939291908181526020018383602002808284378201915050505050509192919290803590602001908201803590602001908080601f0160208091040260200160405190810160405280939291908181526020018383808284378201915050505050509192919290803515159060200190929190803560ff16906020019092919080356000191690602001909291908035600019169060200190929190505050612e60565b6040518082815260200191505060405180910390f35b348015610a9557600080fd5b50610aca600480360381019080803573ffffffffffffffffffffffffffffffffffffffff1690602001909291905050506132ce565b604051808215151515815260200191505060405180910390f35b348015610af057600080fd5b50610af9613453565b6040518082815260200191505060405180910390f35b348015610b1b57600080fd5b50610b5a600480360381019080803573ffffffffffffffffffffffffffffffffffffffff16906020019092919080359060200190929190505050613459565b604051808215151515815260200191505060405180910390f35b348015610b8057600080fd5b50610be6600480360381019080803560001916906020019092919080359060200190820180359060200190808060200260200160405190810160405280939291908181526020018383602002808284378201915050505050509192919290505050613844565b604051808215151515815260200191505060405180910390f35b348015610c0c57600080fd5b50610c41600480360381019080803573ffffffffffffffffffffffffffffffffffffffff16906020019092919050505061388f565b6040518080602001806020018060200180602001858103855289818151815260200191508051906020019060200280838360005b83811015610c90578082015181840152602081019050610c75565b50505050905001858103845288818151815260200191508051906020019060200280838360005b83811015610cd2578082015181840152602081019050610cb7565b50505050905001858103835287818151815260200191508051906020019060200280838360005b83811015610d14578082015181840152602081019050610cf9565b50505050905001858103825286818151815260200191508051906020019060200280838360005b83811015610d56578082015181840152602081019050610d3b565b505050509050019850505050505050505060405180910390f35b348015610d7c57600080fd5b50610dbb600480360381019080803573ffffffffffffffffffffffffffffffffffffffff16906020019092919080359060200190929190505050613ac1565b604051808681526020018581526020018481526020018381526020018281526020019550505050505060405180910390f35b348015610df957600080fd5b50610e02613b13565b604051808273ffffffffffffffffffffffffffffffffffffffff1673ffffffffffffffffffffffffffffffffffffffff16815260200191505060405180910390f35b348015610e5057600080fd5b50610e59613b39565b6040518082815260200191505060405180910390f35b348015610e7b57600080fd5b50610e84613b7b565b6040518082815260200191505060405180910390f35b348015610ea657600080fd5b50610ee5600480360381019080803573ffffffffffffffffffffffffffffffffffffffff16906020019092919080359060200190929190505050613b81565b604051808215151515815260200191505060405180910390f35b348015610f0b57600080fd5b50610faf60048036038101908080359060200190929190803590602001908201803590602001919091929391929390803590602001908201803590602001919091929391929390803515159060200190929190803560ff16906020019092919080356000191690602001909291908035600019169060200190929190803573ffffffffffffffffffffffffffffffffffffffff169060200190929190505050613da0565b6040518082815260200191505060405180910390f35b348015610fd157600080fd5b5061101a600480360381019080803573ffffffffffffffffffffffffffffffffffffffff169060200190929190803590602001909291908035906020019092919050505061405a565b6040518082815260200191505060405180910390f35b34801561103c57600080fd5b506110a2600480360381019080803590602001908201803590602001908080602002602001604051908101604052809392919081815260200183836020028082843782019150505050505091929192908035600019169060200190929190505050614223565b604051808215151515815260200191505060405180910390f35b3480156110c857600080fd5b506110fd600480360381019080803573ffffffffffffffffffffffffffffffffffffffff16906020019092919050505061423a565b6040518082815260200191505060405180910390f35b34801561111f57600080fd5b5061113e60048036038101908080359060200190929190505050614294565b604051808215151515815260200191505060405180910390f35b34801561116457600080fd5b506111ad600480360381019080803573ffffffffffffffffffffffffffffffffffffffff16906020019092919080359060200190929190803590602001909291905050506142a2565b604051808215151515815260200191505060405180910390f35b3480156111d357600080fd5b50611277600480360381019080803573ffffffffffffffffffffffffffffffffffffffff169060200190929190803590602001908201803590602001908080601f0160208091040260200160405190810160405280939291908181526020018383808284378201915050505050509192919290803560ff169060200190929190803560001916906020019092919080356000191690602001909291905050506143ac565b604051808215151515815260200191505060405180910390f35b34801561129d57600080fd5b5061131860048036038101908080356bffffffffffffffffffffffff1916906020019092919080359060200190929190803590602001908201803590602001908080602002602001604051908101604052809392919081815260200183836020028082843782019150505050505091929192905050506144cb565b604051808215151515815260200191505060405180910390f35b34801561133e57600080fd5b5061137d600480360381019080803573ffffffffffffffffffffffffffffffffffffffff1690602001909291908035906020019092919050505061458c565b604051808215151515815260200191505060405180910390f35b3480156113a357600080fd5b506113f8600480360381019080803573ffffffffffffffffffffffffffffffffffffffff169060200190929190803573ffffffffffffffffffffffffffffffffffffffff169060200190929190505050614788565b6040518082815260200191505060405180910390f35b34801561141a57600080fd5b50611481600480360381019080803590602001908201803590602001908080601f016020809104026020016040519081016040528093929190818152602001838380828437820191505050505050919291929080351515906020019092919050505061480f565b60405180826bffffffffffffffffffffffff19166bffffffffffffffffffffffff1916815260200191505060405180910390f35b3480156114c157600080fd5b506114e060048036038101908080359060200190929190505050614bce565b6040518082815260200191505060405180910390f35b34801561150257600080fd5b50611541600480360381019080803573ffffffffffffffffffffffffffffffffffffffff16906020019092919080359060200190929190505050614c13565b6040518082815260200191505060405180910390f35b34801561156357600080fd5b50611596600480360381019080803590602001909291908035906020019092919080359060200190929190505050614d2b565b6040518082815260200191505060405180910390f35b3480156115b857600080fd5b506115f7600480360381019080803573ffffffffffffffffffffffffffffffffffffffff16906020019092919080359060200190929190505050614e89565b604051808215151515815260200191505060405180910390f35b34801561161d57600080fd5b50611666600480360381019080803573ffffffffffffffffffffffffffffffffffffffff1690602001909291908035906020019092919080359060200190929190505050614ff7565b6040518082815260200191505060405180910390f35b34801561168857600080fd5b50611691615102565b6040518082815260200191505060405180910390f35b3480156116b357600080fd5b506116e6600480360381019080803590602001909291908035906020019092919080359060200190929190505050615108565b6040518082815260200191505060405180910390f35b34801561170857600080fd5b50611747600480360381019080803573ffffffffffffffffffffffffffffffffffffffff1690602001909291908035906020019092919050505061521f565b6040518082815260200191505060405180910390f35b60008060608315156117715788915061188b565b6040805190810160405280601c81526020017f19457468657265756d205369676e6564204d6573736167653a0a333200000000815250905080896040516020018083805190602001908083835b6020831015156117e357805182526020820191506020810190506020830392506117be565b6001836020036101000a0380198251168184511680821785525050505050509050018260001916600019168152602001925050506040516020818303038152906040526040518082805190602001908083835b60208310151561185b5780518252602082019150602081019050602083039250611836565b6001836020036101000a038019825116818451168082178552505050505050905001915050604051809103902091505b8473ffffffffffffffffffffffffffffffffffffffff166001838a8a8a604051600081526020016040526040518085600019166000191681526020018460ff1660ff1681526020018360001916600019168152602001826000191660001916815260200194505050505060206040516020810390808403906000865af1158015611919573d6000803e3d6000fd5b5050506020604051035173ffffffffffffffffffffffffffffffffffffffff1614925050509695505050505050565b60095481565b600081600260003373ffffffffffffffffffffffffffffffffffffffff1673ffffffffffffffffffffffffffffffffffffffff16815260200190815260200160002060008573ffffffffffffffffffffffffffffffffffffffff1673ffffffffffffffffffffffffffffffffffffffff168152602001908152602001600020819055508273ffffffffffffffffffffffffffffffffffffffff163373ffffffffffffffffffffffffffffffffffffffff167f8c5be1e5ebec7d5bd14f71427d1e84f3dd0314c0f7b2291e5b200ac8c7c3b925846040518082815260200191505060405180910390a36001905092915050565b600080611a6d62093a80611a5f6004544261538c90919063ffffffff16565b6153a590919063ffffffff16565b91505b600554821115611bd557611a9160075460095461538c90919063ffffffff16565b90506040805190810160405280828152602001600654815250600c60008481526020019081526020016000206000820151816000015560208201518160010155905050611b5a611aeb6032836153a590919063ffffffff16565b600080600360009054906101000a900473ffffffffffffffffffffffffffffffffffffffff1673ffffffffffffffffffffffffffffffffffffffff1673ffffffffffffffffffffffffffffffffffffffff168152602001908152602001600020546153bb90919063ffffffff16565b600080600360009054906101000a900473ffffffffffffffffffffffffffffffffffffffff1673ffffffffffffffffffffffffffffffffffffffff1673ffffffffffffffffffffffffffffffffffffffff16815260200190815260200160002081905550600560008154809291906001019190505550611a70565b5050565b600080600080339250611c0a611bfb620d2f00876153d790919063ffffffff16565b426153bb90919063ffffffff16565b9150856000808573ffffffffffffffffffffffffffffffffffffffff1673ffffffffffffffffffffffffffffffffffffffff1681526020019081526020016000205410151515611c5957600080fd5b611c706312cc0300426153bb90919063ffffffff16565b8211151515611c7e57600080fd5b611c94620d2f00426153bb90919063ffffffff16565b8210151515611ca257600080fd5b611caa611a40565b611cfb866000808673ffffffffffffffffffffffffffffffffffffffff1673ffffffffffffffffffffffffffffffffffffffff1681526020019081526020016000205461538c90919063ffffffff16565b6000808573ffffffffffffffffffffffffffffffffffffffff1673ffffffffffffffffffffffffffffffffffffffff16815260200190815260200160002081905550611d8e866000803073ffffffffffffffffffffffffffffffffffffffff1673ffffffffffffffffffffffffffffffffffffffff168152602001908152602001600020546153bb90919063ffffffff16565b6000803073ffffffffffffffffffffffffffffffffffffffff1673ffffffffffffffffffffffffffffffffffffffff168152602001908152602001600020819055506001549050600e546001541015611de757600e5490505b600f60008473ffffffffffffffffffffffffffffffffffffffff1673ffffffffffffffffffffffffffffffffffffffff16815260200190815260200160002060a060405190810160405280888152602001428152602001848152602001611e59896006546153bb90919063ffffffff16565b8152602001838152509080600181540180825580915050906001820390600052602060002090600502016000909192909190915060008201518160000155602082015181600101556040820151816002015560608201518160030155608082015181600401555050506000611f2384611f1e6001600f60008973ffffffffffffffffffffffffffffffffffffffff1673ffffffffffffffffffffffffffffffffffffffff1681526020019081526020016000208054905061538c90919063ffffffff16565b61521f565b111515611f2f57600080fd5b611f44866006546153bb90919063ffffffff16565b6006819055506001935050505092915050565b600181565b60065481565b6000600154905090565b600081600881905550919050565b6000611fb8600a611faa600d54611f9c600854876153d790919063ffffffff16565b6153a590919063ffffffff16565b6153a590919063ffffffff16565b9050919050565b60008073ffffffffffffffffffffffffffffffffffffffff168373ffffffffffffffffffffffffffffffffffffffff1614151515611ffc57600080fd5b6000808573ffffffffffffffffffffffffffffffffffffffff1673ffffffffffffffffffffffffffffffffffffffff16815260200190815260200160002054821115151561204957600080fd5b600260008573ffffffffffffffffffffffffffffffffffffffff1673ffffffffffffffffffffffffffffffffffffffff16815260200190815260200160002060003373ffffffffffffffffffffffffffffffffffffffff1673ffffffffffffffffffffffffffffffffffffffff1681526020019081526020016000205482111515156120d457600080fd5b612125826000808773ffffffffffffffffffffffffffffffffffffffff1673ffffffffffffffffffffffffffffffffffffffff1681526020019081526020016000205461538c90919063ffffffff16565b6000808673ffffffffffffffffffffffffffffffffffffffff1673ffffffffffffffffffffffffffffffffffffffff168152602001908152602001600020819055506121b8826000808673ffffffffffffffffffffffffffffffffffffffff1673ffffffffffffffffffffffffffffffffffffffff168152602001908152602001600020546153bb90919063ffffffff16565b6000808573ffffffffffffffffffffffffffffffffffffffff1673ffffffffffffffffffffffffffffffffffffffff1681526020019081526020016000208190555061228982600260008773ffffffffffffffffffffffffffffffffffffffff1673ffffffffffffffffffffffffffffffffffffffff16815260200190815260200160002060003373ffffffffffffffffffffffffffffffffffffffff1673ffffffffffffffffffffffffffffffffffffffff1681526020019081526020016000205461538c90919063ffffffff16565b600260008673ffffffffffffffffffffffffffffffffffffffff1673ffffffffffffffffffffffffffffffffffffffff16815260200190815260200160002060003373ffffffffffffffffffffffffffffffffffffffff1673ffffffffffffffffffffffffffffffffffffffff168152602001908152602001600020819055508273ffffffffffffffffffffffffffffffffffffffff168473ffffffffffffffffffffffffffffffffffffffff167fddf252ad1be2c89b69c2b068fc378daa952ba7f163c4a11628f55a4df523b3ef846040518082815260200191505060405180910390a3600190509392505050565b600061239260065460015461538c90919063ffffffff16565b905090565b60008060008060008060006123ba6402540be400896153d790919063ffffffff16565b9450683635c9adc5dea000008511156124535769152d02c7e14af680000085101561243b57612434640ba43b74006124266009612418600261240a64174876e8008c61538c90919063ffffffff16565b6153d790919063ffffffff16565b6153a590919063ffffffff16565b6153bb90919063ffffffff16565b9450612452565b61244f6004866153a590919063ffffffff16565b94505b5b426004541061246357600061248e565b61248d62093a8061247f6004544261538c90919063ffffffff16565b6153a590919063ffffffff16565b5b93506124b76124a76002866153d790919063ffffffff16565b606461538c90919063ffffffff16565b92506124df60646124d185886153d790919063ffffffff16565b6153a590919063ffffffff16565b915060009050602d8411156124f757600090506127d8565b6020841115612540576125398261252b606461251d6065876153d790919063ffffffff16565b6153a590919063ffffffff16565b61538c90919063ffffffff16565b90506127d7565b6018841115612589576125828261257460646125666066876153d790919063ffffffff16565b6153a590919063ffffffff16565b61538c90919063ffffffff16565b90506127d6565b60128411156125d2576125cb826125bd60646125af6067876153d790919063ffffffff16565b6153a590919063ffffffff16565b61538c90919063ffffffff16565b90506127d5565b600e84111561261b576126148261260660646125f86068876153d790919063ffffffff16565b6153a590919063ffffffff16565b61538c90919063ffffffff16565b90506127d4565b600a8411156126645761265d8261264f60646126416069876153d790919063ffffffff16565b6153a590919063ffffffff16565b61538c90919063ffffffff16565b90506127d3565b60078411156126ad576126a682612698606461268a606a876153d790919063ffffffff16565b6153a590919063ffffffff16565b61538c90919063ffffffff16565b90506127d2565b60058411156126f6576126ef826126e160646126d3606b876153d790919063ffffffff16565b6153a590919063ffffffff16565b61538c90919063ffffffff16565b90506127d1565b600384111561273f576127388261272a606461271c606c876153d790919063ffffffff16565b6153a590919063ffffffff16565b61538c90919063ffffffff16565b90506127d0565b600184111561278857612781826127736064612765606d876153d790919063ffffffff16565b6153a590919063ffffffff16565b61538c90919063ffffffff16565b90506127cf565b6000841015156127ce576127cb826127bd60646127af606e876153d790919063ffffffff16565b6153a590919063ffffffff16565b61538c90919063ffffffff16565b90505b5b5b5b5b5b5b5b5b5b5b8181965096505050505050915091565b600060326127f4613b39565b1115905090565b600c6020528060005260406000206000915090508060000154908060010154905082565b600080600061282d84612397565b91509150600954612849836007546153bb90919063ffffffff16565b1115151561285657600080fd5b61286b826007546153bb90919063ffffffff16565b6007819055506128d4816128c6846000803373ffffffffffffffffffffffffffffffffffffffff1673ffffffffffffffffffffffffffffffffffffffff168152602001908152602001600020546153bb90919063ffffffff16565b6153bb90919063ffffffff16565b6000803373ffffffffffffffffffffffffffffffffffffffff1673ffffffffffffffffffffffffffffffffffffffff1681526020019081526020016000208190555061298981600080600360009054906101000a900473ffffffffffffffffffffffffffffffffffffffff1673ffffffffffffffffffffffffffffffffffffffff1673ffffffffffffffffffffffffffffffffffffffff168152602001908152602001600020546153bb90919063ffffffff16565b600080600360009054906101000a900473ffffffffffffffffffffffffffffffffffffffff1673ffffffffffffffffffffffffffffffffffffffff1673ffffffffffffffffffffffffffffffffffffffff16815260200190815260200160002081905550612a1481612a06846001546153bb90919063ffffffff16565b6153bb90919063ffffffff16565b600181905550612a3060016008546153bb90919063ffffffff16565b6008819055503373ffffffffffffffffffffffffffffffffffffffff16600073ffffffffffffffffffffffffffffffffffffffff167fddf252ad1be2c89b69c2b068fc378daa952ba7f163c4a11628f55a4df523b3ef612a9984866153bb90919063ffffffff16565b6040518082815260200191505060405180910390a38192505050919050565b600081600981905550919050565b620d2f0081565b60085481565b600073ffffffffffffffffffffffffffffffffffffffff826040518082805190602001908083835b602083101515612b205780518252602082019150602081019050602083039250612afb565b6001836020036101000a038019825116818451168082178552505050505050905001915050604051809103902060019004169050919050565b6312cc030081565b600080600260003373ffffffffffffffffffffffffffffffffffffffff1673ffffffffffffffffffffffffffffffffffffffff16815260200190815260200160002060008573ffffffffffffffffffffffffffffffffffffffff1673ffffffffffffffffffffffffffffffffffffffff16815260200190815260200160002054905080831115612c72576000600260003373ffffffffffffffffffffffffffffffffffffffff1673ffffffffffffffffffffffffffffffffffffffff16815260200190815260200160002060008673ffffffffffffffffffffffffffffffffffffffff1673ffffffffffffffffffffffffffffffffffffffff16815260200190815260200160002081905550612d06565b612c85838261538c90919063ffffffff16565b600260003373ffffffffffffffffffffffffffffffffffffffff1673ffffffffffffffffffffffffffffffffffffffff16815260200190815260200160002060008673ffffffffffffffffffffffffffffffffffffffff1673ffffffffffffffffffffffffffffffffffffffff168152602001908152602001600020819055505b8373ffffffffffffffffffffffffffffffffffffffff163373ffffffffffffffffffffffffffffffffffffffff167f8c5be1e5ebec7d5bd14f71427d1e84f3dd0314c0f7b2291e5b200ac8c7c3b925600260003373ffffffffffffffffffffffffffffffffffffffff1673ffffffffffffffffffffffffffffffffffffffff16815260200190815260200160002060008873ffffffffffffffffffffffffffffffffffffffff1673ffffffffffffffffffffffffffffffffffffffff168152602001908152602001600020546040518082815260200191505060405180910390a3600191505092915050565b600b6020528060005260406000206000915054906101000a900460ff1681565b600a5481565b60008060008373ffffffffffffffffffffffffffffffffffffffff1673ffffffffffffffffffffffffffffffffffffffff168152602001908152602001600020549050919050565b60008060008060006004544210151515612e7957600080fd5b612e838a8a61480f565b9350838c60405160200180836bffffffffffffffffffffffff19166bffffffffffffffffffffffff19168152601401828152602001925050506040516020818303038152906040526040518082805190602001908083835b602083101515612f005780518252602082019150602081019050602083039250612edb565b6001836020036101000a03801982511681845116808217855250505050505090500191505060405180910390209250612f37611a40565b612f41838c613844565b1515612f4c57600080fd5b612f59338b8a8a8a6143ac565b1515612f6457600080fd5b612f798c6007546153bb90919063ffffffff16565b6007819055506001600b6000856000191660001916815260200190815260200160002060006101000a81548160ff021916908315150217905550612fbc8c612397565b91509150600954612fd8836007546153bb90919063ffffffff16565b11151515612fe557600080fd5b6130488161303a846000803373ffffffffffffffffffffffffffffffffffffffff1673ffffffffffffffffffffffffffffffffffffffff168152602001908152602001600020546153bb90919063ffffffff16565b6153bb90919063ffffffff16565b6000803373ffffffffffffffffffffffffffffffffffffffff1673ffffffffffffffffffffffffffffffffffffffff168152602001908152602001600020819055506130fd81600080600360009054906101000a900473ffffffffffffffffffffffffffffffffffffffff1673ffffffffffffffffffffffffffffffffffffffff1673ffffffffffffffffffffffffffffffffffffffff168152602001908152602001600020546153bb90919063ffffffff16565b600080600360009054906101000a900473ffffffffffffffffffffffffffffffffffffffff1673ffffffffffffffffffffffffffffffffffffffff1673ffffffffffffffffffffffffffffffffffffffff168152602001908152602001600020819055506131888161317a846001546153bb90919063ffffffff16565b6153bb90919063ffffffff16565b6001819055506131a460016008546153bb90919063ffffffff16565b6008819055503373ffffffffffffffffffffffffffffffffffffffff16600073ffffffffffffffffffffffffffffffffffffffff167fddf252ad1be2c89b69c2b068fc378daa952ba7f163c4a11628f55a4df523b3ef61320d84866153bb90919063ffffffff16565b6040518082815260200191505060405180910390a3600360009054906101000a900473ffffffffffffffffffffffffffffffffffffffff1673ffffffffffffffffffffffffffffffffffffffff16600073ffffffffffffffffffffffffffffffffffffffff167fddf252ad1be2c89b69c2b068fc378daa952ba7f163c4a11628f55a4df523b3ef836040518082815260200191505060405180910390a36132bd81836153bb90919063ffffffff16565b945050505050979650505050505050565b600080600080600f60008673ffffffffffffffffffffffffffffffffffffffff1673ffffffffffffffffffffffffffffffffffffffff16815260200190815260200160002080549050925060009150600090506000831415613333576000935061344b565b5b8282101561344657600f60008673ffffffffffffffffffffffffffffffffffffffff1673ffffffffffffffffffffffffffffffffffffffff168152602001908152602001600020805490506133936001836153bb90919063ffffffff16565b1161339e57806133a1565b60005b9050600f60008673ffffffffffffffffffffffffffffffffffffffff1673ffffffffffffffffffffffffffffffffffffffff168152602001908152602001600020818154811015156133ef57fe5b90600052602060002090600502016002015442101515613415576134138582613459565b505b6134296001836153bb90919063ffffffff16565b915061343f6001826153bb90919063ffffffff16565b9050613334565b600193505b505050919050565b60045481565b60006134636156a7565b6000806000600f60008873ffffffffffffffffffffffffffffffffffffffff1673ffffffffffffffffffffffffffffffffffffffff168152602001908152602001600020868154811015156134b457fe5b906000526020600020906005020160a060405190810160405290816000820154815260200160018201548152602001600282015481526020016003820154815260200160048201548152505093508360400151421015151561351557600080fd5b61351d611a40565b613527878761521f565b9250613534878785614ff7565b915061355f826135518587600001516153bb90919063ffffffff16565b6153bb90919063ffffffff16565b905061357a846000015160065461538c90919063ffffffff16565b6006819055506135d584600001516000803073ffffffffffffffffffffffffffffffffffffffff1673ffffffffffffffffffffffffffffffffffffffff1681526020019081526020016000205461538c90919063ffffffff16565b6000803073ffffffffffffffffffffffffffffffffffffffff1673ffffffffffffffffffffffffffffffffffffffff16815260200190815260200160002081905550613668816000808a73ffffffffffffffffffffffffffffffffffffffff1673ffffffffffffffffffffffffffffffffffffffff168152602001908152602001600020546153bb90919063ffffffff16565b6000808973ffffffffffffffffffffffffffffffffffffffff1673ffffffffffffffffffffffffffffffffffffffff168152602001908152602001600020819055508673ffffffffffffffffffffffffffffffffffffffff163073ffffffffffffffffffffffffffffffffffffffff167fddf252ad1be2c89b69c2b068fc378daa952ba7f163c4a11628f55a4df523b3ef86600001516040518082815260200191505060405180910390a3613728836001546153bb90919063ffffffff16565b6001819055506137566137456002846153d790919063ffffffff16565b6001546153bb90919063ffffffff16565b6001819055508673ffffffffffffffffffffffffffffffffffffffff167f0f6798a560793a54c3bcfe86a93cde1e73087d944c0ea20544137d41213968856137a785856153bb90919063ffffffff16565b6040518082815260200191505060405180910390a2600360009054906101000a900473ffffffffffffffffffffffffffffffffffffffff1673ffffffffffffffffffffffffffffffffffffffff167f0f6798a560793a54c3bcfe86a93cde1e73087d944c0ea20544137d4121396885836040518082815260200191505060405180910390a2613836878761540f565b600194505050505092915050565b6000801515600b6000856000191660001916815260200190815260200160002060009054906101000a900460ff16151514801561388757506138868284614223565b5b905092915050565b6060806060806000606080606080600080600f60008d73ffffffffffffffffffffffffffffffffffffffff1673ffffffffffffffffffffffffffffffffffffffff168152602001908152602001600020805490509650866040519080825280602002602001820160405280156139145781602001602082028038833980820191505090505b509550866040519080825280602002602001820160405280156139465781602001602082028038833980820191505090505b509450866040519080825280602002602001820160405280156139785781602001602082028038833980820191505090505b509350866040519080825280602002602001820160405280156139aa5781602001602082028038833980820191505090505b509250600091505b86821015613aa757600f60008d73ffffffffffffffffffffffffffffffffffffffff1673ffffffffffffffffffffffffffffffffffffffff16815260200190815260200160002082815481101515613a0657fe5b9060005260206000209060050201905080600001548683815181101515613a2957fe5b906020019060200201818152505080600101548583815181101515613a4a57fe5b906020019060200201818152505080600201548483815181101515613a6b57fe5b906020019060200201818152505080600301548383815181101515613a8c57fe5b906020019060200201818152505081806001019250506139b2565b858585859a509a509a509a50505050505050509193509193565b600f60205281600052604060002081815481101515613adc57fe5b9060005260206000209060050201600091509150508060000154908060010154908060020154908060030154908060040154905085565b600360009054906101000a900473ffffffffffffffffffffffffffffffffffffffff1681565b60006004544211613b4b576000613b76565b613b7562093a80613b676004544261538c90919063ffffffff16565b6153a590919063ffffffff16565b5b905090565b60055481565b60008073ffffffffffffffffffffffffffffffffffffffff168373ffffffffffffffffffffffffffffffffffffffff1614151515613bbe57600080fd5b6000803373ffffffffffffffffffffffffffffffffffffffff1673ffffffffffffffffffffffffffffffffffffffff168152602001908152602001600020548211151515613c0b57600080fd5b613c5c826000803373ffffffffffffffffffffffffffffffffffffffff1673ffffffffffffffffffffffffffffffffffffffff1681526020019081526020016000205461538c90919063ffffffff16565b6000803373ffffffffffffffffffffffffffffffffffffffff1673ffffffffffffffffffffffffffffffffffffffff16815260200190815260200160002081905550613cef826000808673ffffffffffffffffffffffffffffffffffffffff1673ffffffffffffffffffffffffffffffffffffffff168152602001908152602001600020546153bb90919063ffffffff16565b6000808573ffffffffffffffffffffffffffffffffffffffff1673ffffffffffffffffffffffffffffffffffffffff168152602001908152602001600020819055508273ffffffffffffffffffffffffffffffffffffffff163373ffffffffffffffffffffffffffffffffffffffff167fddf252ad1be2c89b69c2b068fc378daa952ba7f163c4a11628f55a4df523b3ef846040518082815260200191505060405180910390a36001905092915050565b60003373ffffffffffffffffffffffffffffffffffffffff168273ffffffffffffffffffffffffffffffffffffffff1614151515613ddd57600080fd5b600073ffffffffffffffffffffffffffffffffffffffff168273ffffffffffffffffffffffffffffffffffffffff1614151515613e1957600080fd5b613e898b8b8b808060200260200160405190810160405280939291908181526020018383602002808284378201915050505050508a8a8080601f01602080910402602001604051908101604052809392919081815260200183838082843782019150505050505089898989612e60565b9050613eef613ea26014836153a590919063ffffffff16565b6000808573ffffffffffffffffffffffffffffffffffffffff1673ffffffffffffffffffffffffffffffffffffffff168152602001908152602001600020546153bb90919063ffffffff16565b6000808473ffffffffffffffffffffffffffffffffffffffff1673ffffffffffffffffffffffffffffffffffffffff16815260200190815260200160002081905550613fb7613f486014836153a590919063ffffffff16565b600080600360009054906101000a900473ffffffffffffffffffffffffffffffffffffffff1673ffffffffffffffffffffffffffffffffffffffff1673ffffffffffffffffffffffffffffffffffffffff168152602001908152602001600020546153bb90919063ffffffff16565b600080600360009054906101000a900473ffffffffffffffffffffffffffffffffffffffff1673ffffffffffffffffffffffffffffffffffffffff1673ffffffffffffffffffffffffffffffffffffffff168152602001908152602001600020819055506140436140326014836153a590919063ffffffff16565b6001546153bb90919063ffffffff16565b6001819055508090509a9950505050505050505050565b6000806000806001600f60008973ffffffffffffffffffffffffffffffffffffffff1673ffffffffffffffffffffffffffffffffffffffff168152602001908152602001600020805490500392508285111515156140b757600080fd5b600086101515156140c757600080fd5b6000600f60008973ffffffffffffffffffffffffffffffffffffffff1673ffffffffffffffffffffffffffffffffffffffff16815260200190815260200160002080549050141561411b5760009350614219565b8486141561418957600f60008873ffffffffffffffffffffffffffffffffffffffff1673ffffffffffffffffffffffffffffffffffffffff168152602001908152602001600020600081548110151561417057fe5b9060005260206000209060050201600001549350614219565b8590505b848111151561421557614206600f60008973ffffffffffffffffffffffffffffffffffffffff1673ffffffffffffffffffffffffffffffffffffffff168152602001908152602001600020828154811015156141e557fe5b906000526020600020906005020160000154836153bb90919063ffffffff16565b9150808060010191505061418d565b8193505b5050509392505050565b600061423283600a5484615500565b905092915050565b600061428d8260006001600f60008773ffffffffffffffffffffffffffffffffffffffff1673ffffffffffffffffffffffffffffffffffffffff168152602001908152602001600020805490500361405a565b9050919050565b600081600781905550919050565b6000808284111515156142b457600080fd5b600f60008673ffffffffffffffffffffffffffffffffffffffff1673ffffffffffffffffffffffffffffffffffffffff168152602001908152602001600020805490508310151561430457600080fd5b8390505b82811115156143a057600f60008673ffffffffffffffffffffffffffffffffffffffff1673ffffffffffffffffffffffffffffffffffffffff168152602001908152602001600020600081548110151561435e57fe5b9060005260206000209060050201600201544210151561439b57614383856000613459565b506143986001826153bb90919063ffffffff16565b90505b614308565b60019150509392505050565b60006144c0600287604051602001808273ffffffffffffffffffffffffffffffffffffffff1673ffffffffffffffffffffffffffffffffffffffff166c010000000000000000000000000281526014019150506040516020818303038152906040526040518082805190602001908083835b602083101515614443578051825260208201915060208101905060208303925061441e565b6001836020036101000a0380198251168184511680821785525050505050509050019150506020604051808303816000865af1158015614487573d6000803e3d6000fd5b5050506040513d602081101561449c57600080fd5b81019080805190602001909291905050508585856144b98a612ad3565b600061175d565b905095945050505050565b600080848460405160200180836bffffffffffffffffffffffff19166bffffffffffffffffffffffff19168152601401828152602001925050506040516020818303038152906040526040518082805190602001908083835b6020831015156145495780518252602082019150602081019050602083039250614524565b6001836020036101000a038019825116818451168082178552505050505050905001915050604051809103902090506145828184613844565b9150509392505050565b600061461d82600260003373ffffffffffffffffffffffffffffffffffffffff1673ffffffffffffffffffffffffffffffffffffffff16815260200190815260200160002060008673ffffffffffffffffffffffffffffffffffffffff1673ffffffffffffffffffffffffffffffffffffffff168152602001908152602001600020546153bb90919063ffffffff16565b600260003373ffffffffffffffffffffffffffffffffffffffff1673ffffffffffffffffffffffffffffffffffffffff16815260200190815260200160002060008573ffffffffffffffffffffffffffffffffffffffff1673ffffffffffffffffffffffffffffffffffffffff168152602001908152602001600020819055508273ffffffffffffffffffffffffffffffffffffffff163373ffffffffffffffffffffffffffffffffffffffff167f8c5be1e5ebec7d5bd14f71427d1e84f3dd0314c0f7b2291e5b200ac8c7c3b925600260003373ffffffffffffffffffffffffffffffffffffffff1673ffffffffffffffffffffffffffffffffffffffff16815260200190815260200160002060008773ffffffffffffffffffffffffffffffffffffffff1673ffffffffffffffffffffffffffffffffffffffff168152602001908152602001600020546040518082815260200191505060405180910390a36001905092915050565b6000600260008473ffffffffffffffffffffffffffffffffffffffff1673ffffffffffffffffffffffffffffffffffffffff16815260200190815260200160002060008373ffffffffffffffffffffffffffffffffffffffff1673ffffffffffffffffffffffffffffffffffffffff16815260200190815260200160002054905092915050565b6000806000806148208660006155cb565b6001900492506148318660206155cb565b6001900491508415614a0d57600060028381151561484b57fe5b061461485857600361485b565b60025b9050600360028285604051602001808360ff1660ff167f0100000000000000000000000000000000000000000000000000000000000000028152600101828152602001925050506040516020818303038152906040526040518082805190602001908083835b6020831015156148e657805182526020820191506020810190506020830392506148c1565b6001836020036101000a0380198251168184511680821785525050505050509050019150506020604051808303816000865af115801561492a573d6000803e3d6000fd5b5050506040513d602081101561493f57600080fd5b81019080805190602001909291905050506040516020018082600019166000191681526020019150506040516020818303038152906040526040518082805190602001908083835b6020831015156149ac5780518252602082019150602081019050602083039250614987565b6001836020036101000a0380198251168184511680821785525050505050509050019150506020604051808303816000865af11580156149f0573d6000803e3d6000fd5b505050604051516c01000000000000000000000000029350614bc5565b6004905060036002828585604051602001808460ff1660ff167f010000000000000000000000000000000000000000000000000000000000000002815260010183815260200182815260200193505050506040516020818303038152906040526040518082805190602001908083835b602083101515614aa25780518252602082019150602081019050602083039250614a7d565b6001836020036101000a0380198251168184511680821785525050505050509050019150506020604051808303816000865af1158015614ae6573d6000803e3d6000fd5b5050506040513d6020811015614afb57600080fd5b81019080805190602001909291905050506040516020018082600019166000191681526020019150506040516020818303038152906040526040518082805190602001908083835b602083101515614b685780518252602082019150602081019050602083039250614b43565b6001836020036101000a0380198251168184511680821785525050505050509050019150506020604051808303816000865af1158015614bac573d6000803e3d6000fd5b505050604051516c010000000000000000000000000293505b50505092915050565b6000614c0c600a614bfe600954614bf0600754876153d790919063ffffffff16565b6153a590919063ffffffff16565b6153a590919063ffffffff16565b9050919050565b6000806000600f60008673ffffffffffffffffffffffffffffffffffffffff1673ffffffffffffffffffffffffffffffffffffffff16815260200190815260200160002084815481101515614c6457fe5b9060005260206000209060050201600001549150600f60008673ffffffffffffffffffffffffffffffffffffffff1673ffffffffffffffffffffffffffffffffffffffff16815260200190815260200160002084815481101515614cc457fe5b906000526020600020906005020160020154421115614d1f57614ce7858561521f565b9050614d18614d0982614cfb888886614ff7565b6153bb90919063ffffffff16565b836153bb90919063ffffffff16565b9250614d23565b8192505b505092915050565b6000806000806000806000806000809750614d6662093a80614d586004548e61538c90919063ffffffff16565b6153a590919063ffffffff16565b965060008714614d765786614d79565b60015b9550614da562093a80614d976004548d61538c90919063ffffffff16565b6153a590919063ffffffff16565b945060328511614db55784614db8565b60325b93508592505b83831015614e7757614e02600c600085815260200190815260200160002060010154614df460648f6153d790919063ffffffff16565b6153a590919063ffffffff16565b9150614e536064614e4584614e376032600c60008a8152602001908152602001600020600001546153a590919063ffffffff16565b6153d790919063ffffffff16565b6153a590919063ffffffff16565b9050614e6881896153bb90919063ffffffff16565b97508280600101935050614dbe565b87985050505050505050509392505050565b6000614edc826000808673ffffffffffffffffffffffffffffffffffffffff1673ffffffffffffffffffffffffffffffffffffffff168152602001908152602001600020546153bb90919063ffffffff16565b6000808573ffffffffffffffffffffffffffffffffffffffff1673ffffffffffffffffffffffffffffffffffffffff16815260200190815260200160002081905550614f33826001546153bb90919063ffffffff16565b6001819055508273ffffffffffffffffffffffffffffffffffffffff167f0f6798a560793a54c3bcfe86a93cde1e73087d944c0ea20544137d4121396885836040518082815260200191505060405180910390a28273ffffffffffffffffffffffffffffffffffffffff16600073ffffffffffffffffffffffffffffffffffffffff167fddf252ad1be2c89b69c2b068fc378daa952ba7f163c4a11628f55a4df523b3ef846040518082815260200191505060405180910390a36001905092915050565b600080600080600080600f60008a73ffffffffffffffffffffffffffffffffffffffff1673ffffffffffffffffffffffffffffffffffffffff1681526020019081526020016000208881548110151561504c57fe5b90600052602060002090600502019450603261508c62093a8061507e600454896001015461538c90919063ffffffff16565b6153a590919063ffffffff16565b1115156150f1576150aa856000015486600101548760020154614d2b565b93506150b587611f7a565b92506150c087614bce565b91506150e7826150d985876153bb90919063ffffffff16565b6153bb90919063ffffffff16565b90508095506150f6565b600095505b50505050509392505050565b60075481565b6000806000806000806000615128612710896153bb90919063ffffffff16565b9550600a9450848981151561513957fe5b06935061514f858a6153a590919063ffffffff16565b92506151696402540be4008b6153a590919063ffffffff16565b9150600090505b828110156151c0576151a3856127100a61519587890a856153d790919063ffffffff16565b6153a590919063ffffffff16565b91506151b96001826153bb90919063ffffffff16565b9050615170565b6000841415156151f8576151f5846127100a6151e786890a856153d790919063ffffffff16565b6153a590919063ffffffff16565b91505b6152106402540be400836153d790919063ffffffff16565b96505050505050509392505050565b6000806000806000806000806000600f60008c73ffffffffffffffffffffffffffffffffffffffff1673ffffffffffffffffffffffffffffffffffffffff1681526020019081526020016000208a81548110151561527957fe5b9060005260206000209060050201975061529e606460016153d790919063ffffffff16565b9650600195506064945060008860030154141515615322576152e488600401546152d660648b600301546153d790919063ffffffff16565b6153a590919063ffffffff16565b9350600084116152f55760016152f7565b835b955061530c86886153a590919063ffffffff16565b92506000831161531d57600161531f565b825b94505b615352620d2f006153448a600101548b6002015461538c90919063ffffffff16565b6153a590919063ffffffff16565b915061536388600001548387615108565b905061537c88600001548261538c90919063ffffffff16565b9850505050505050505092915050565b600082821115151561539a57fe5b818303905092915050565b600081838115156153b257fe5b04905092915050565b600081830190508281101515156153ce57fe5b80905092915050565b6000808314156153ea5760009050615409565b81830290508183828115156153fb57fe5b0414151561540557fe5b8090505b92915050565b6000600f60008473ffffffffffffffffffffffffffffffffffffffff1673ffffffffffffffffffffffffffffffffffffffff16815260200190815260200160002090508061546b6001838054905061538c90919063ffffffff16565b81548110151561547757fe5b9060005260206000209060050201818381548110151561549357fe5b906000526020600020906005020160008201548160000155600182015481600101556002820154816002015560038201548160030155600482015481600401559050506154ee6001828054905061538c90919063ffffffff16565b81816154fa91906156d7565b50505050565b600080600080849250600091505b86518210156155b457868281518110151561552557fe5b906020019060200201519050806000191683600019161015615576578281604051808360001916600019168152602001826000191660001916815260200192505050604051809103902092506155a7565b8083604051808360001916600019168152602001826000191660001916815260200192505050604051809103902092505b818060010192505061550e565b856000191683600019161493505050509392505050565b600080600090505b602081101561569d5760088102848483018151811015156155f057fe5b9060200101517f010000000000000000000000000000000000000000000000000000000000000090047f0100000000000000000000000000000000000000000000000000000000000000027effffffffffffffffffffffffffffffffffffffffffffffffffffffffffffff19167fff0000000000000000000000000000000000000000000000000000000000000060010216600019169060020a90048218915080806001019150506155d3565b8191505092915050565b60a06040519081016040528060008152602001600081526020016000815260200160008152602001600081525090565b815481835581811115615704576005028160050283600052602060002091820191016157039190615709565b5b505050565b61574d91905b808211156157495760008082016000905560018201600090556002820160009055600382016000905560048201600090555060050161570f565b5090565b905600a165627a7a723058205f9d692ea76f4de21ff81ed78b66556c11d64d01dc2df4eb39a56ab2059993e40029",
  "source": "pragma solidity ^0.4.23;\n\nimport \"../StakeableToken.sol\";\n\n\ncontract StakeableTokenStub is StakeableToken {\n  constructor (\n    address _origin,\n    uint256 _launchTime,\n    bytes32 _rootUtxoMerkleTreeHash,\n    uint256 _UTXOCountAtFork,\n    uint256 _maximumRedeemable\n  ) \n    public\n  {\n    origin = _origin;\n    launchTime = _launchTime;\n    rootUtxoMerkleTreeHash = _rootUtxoMerkleTreeHash;\n    UTXOCountAtFork = _UTXOCountAtFork;\n    maximumRedeemable = _maximumRedeemable;\n  }\n\n  // only uesd for testing: easily mint more tokens for stress tests\n  function mintTokens(\n    address _address,\n    uint256 _amount\n  )\n    public\n    returns (bool)\n  {\n    balances[_address] = balances[_address].add(_amount);\n    totalSupply_ = totalSupply_.add(_amount);\n    emit Mint(_address, _amount);\n    emit Transfer(address(0), _address, _amount);\n\n    return true;\n  }\n\n  function setRedeemedCount(\n    uint256 _count\n  )\n    public\n    returns (bool)\n  {\n    redeemedCount = _count;\n  }\n\n  function setMaxRedeemable(\n    uint256 _maxRedeemable\n  )\n    public\n    returns (bool)\n  {\n    maximumRedeemable = _maxRedeemable;\n  }\n\n  function setTotalRedeemed(\n    uint256 _totalRedeemed\n  )\n    public\n    returns (bool)\n  {\n    totalRedeemed = _totalRedeemed;\n  }\n\n  // stub function to claim without merkle tree\n  function shortcutRedeem(\n    uint256 _satoshis\n  ) \n    public \n    returns (uint256)\n  {\n    (uint256 _tokensRedeemed, uint256 _speedBonus) = getRedeemAmount(_satoshis);\n\n    /* Sanity check. */\n    require(totalRedeemed.add(_tokensRedeemed) <= maximumRedeemable);\n\n    /* Track total redeemed tokens. */\n    totalRedeemed = totalRedeemed.add(_tokensRedeemed);\n\n    /* Credit the redeemer. */ \n    balances[msg.sender] = balances[msg.sender].add(_tokensRedeemed).add(_speedBonus);\n    balances[origin] = balances[origin].add(_speedBonus);\n\n    /* Increase supply */\n    totalSupply_ = totalSupply_.add(_tokensRedeemed).add(_speedBonus);\n\n    /* Increment Redeem Count to track viral rewards */\n    redeemedCount = redeemedCount.add(1);\n\n    /* Mark the transfer event. */\n    emit Transfer(address(0), msg.sender, _tokensRedeemed.add(_speedBonus));\n    \n    /* Return the number of tokens redeemed. */\n    return _tokensRedeemed;\n  }\n}",
  "sourcePath": "/Users/mesquka/Git/Bitcoin Hex/contract/contracts/stubs/StakeableTokenStub.sol",
  "compiler": {
    "name": "solc",
    "version": "0.4.24+commit.e67f0147.Emscripten.clang"
  },
  "schemaVersion": "2.0.0",
  "updatedAt": "2018-09-28T07:22:23.528Z"
}