{
  "contractName": "StakeableToken",
  "abi": [
    {
      "constant": true,
      "inputs": [],
      "name": "maximumRedeemable",
      "outputs": [
        {
          "name": "",
          "type": "uint256"
        }
      ],
      "payable": false,
      "stateMutability": "view",
      "type": "function"
    },
    {
      "constant": false,
      "inputs": [
        {
          "name": "_spender",
          "type": "address"
        },
        {
          "name": "_value",
          "type": "uint256"
        }
      ],
      "name": "approve",
      "outputs": [
        {
          "name": "",
          "type": "bool"
        }
      ],
      "payable": false,
      "stateMutability": "nonpayable",
      "type": "function"
    },
    {
      "constant": true,
      "inputs": [],
      "name": "totalSupply",
      "outputs": [
        {
          "name": "",
          "type": "uint256"
        }
      ],
      "payable": false,
      "stateMutability": "view",
      "type": "function"
    },
    {
      "constant": false,
      "inputs": [
        {
          "name": "_from",
          "type": "address"
        },
        {
          "name": "_to",
          "type": "address"
        },
        {
          "name": "_value",
          "type": "uint256"
        }
      ],
      "name": "transferFrom",
      "outputs": [
        {
          "name": "",
          "type": "bool"
        }
      ],
      "payable": false,
      "stateMutability": "nonpayable",
      "type": "function"
    },
    {
      "constant": true,
      "inputs": [
        {
          "name": "pubKey",
          "type": "bytes"
        }
      ],
      "name": "pubKeyToEthereumAddress",
      "outputs": [
        {
          "name": "",
          "type": "address"
        }
      ],
      "payable": false,
      "stateMutability": "pure",
      "type": "function"
    },
    {
      "constant": false,
      "inputs": [
        {
          "name": "txid",
          "type": "bytes32"
        },
        {
          "name": "outputIndex",
          "type": "uint8"
        },
        {
          "name": "satoshis",
          "type": "uint256"
        },
        {
          "name": "proof",
          "type": "bytes32[]"
        },
        {
          "name": "pubKey",
          "type": "bytes"
        },
        {
          "name": "isCompressed",
          "type": "bool"
        },
        {
          "name": "v",
          "type": "uint8"
        },
        {
          "name": "r",
          "type": "bytes32"
        },
        {
          "name": "s",
          "type": "bytes32"
        },
        {
          "name": "referrer",
          "type": "address"
        }
      ],
      "name": "redeemUTXO",
      "outputs": [
        {
          "name": "tokensRedeemed",
          "type": "uint256"
        }
      ],
      "payable": false,
      "stateMutability": "nonpayable",
      "type": "function"
    },
    {
      "constant": false,
      "inputs": [
        {
          "name": "_spender",
          "type": "address"
        },
        {
          "name": "_subtractedValue",
          "type": "uint256"
        }
      ],
      "name": "decreaseApproval",
      "outputs": [
        {
          "name": "",
          "type": "bool"
        }
      ],
      "payable": false,
      "stateMutability": "nonpayable",
      "type": "function"
    },
    {
      "constant": true,
      "inputs": [
        {
          "name": "_owner",
          "type": "address"
        }
      ],
      "name": "balanceOf",
      "outputs": [
        {
          "name": "",
          "type": "uint256"
        }
      ],
      "payable": false,
      "stateMutability": "view",
      "type": "function"
    },
    {
      "constant": false,
      "inputs": [
        {
          "name": "txid",
          "type": "bytes32"
        },
        {
          "name": "outputIndex",
          "type": "uint8"
        },
        {
          "name": "satoshis",
          "type": "uint256"
        },
        {
          "name": "proof",
          "type": "bytes32[]"
        },
        {
          "name": "pubKey",
          "type": "bytes"
        },
        {
          "name": "isCompressed",
          "type": "bool"
        },
        {
          "name": "v",
          "type": "uint8"
        },
        {
          "name": "r",
          "type": "bytes32"
        },
        {
          "name": "s",
          "type": "bytes32"
        }
      ],
      "name": "redeemUTXO",
      "outputs": [
        {
          "name": "tokensRedeemed",
          "type": "uint256"
        }
      ],
      "payable": false,
      "stateMutability": "nonpayable",
      "type": "function"
    },
    {
      "constant": true,
      "inputs": [
        {
          "name": "merkleLeafHash",
          "type": "bytes32"
        },
        {
          "name": "proof",
          "type": "bytes32[]"
        }
      ],
      "name": "canRedeemUTXOHash",
      "outputs": [
        {
          "name": "",
          "type": "bool"
        }
      ],
      "payable": false,
      "stateMutability": "view",
      "type": "function"
    },
    {
      "constant": true,
      "inputs": [
        {
          "name": "",
          "type": "address"
        },
        {
          "name": "",
          "type": "uint256"
        }
      ],
      "name": "staked",
      "outputs": [
        {
          "name": "stakeAmount",
          "type": "uint256"
        },
        {
          "name": "stakeTime",
          "type": "uint256"
        },
        {
          "name": "unlockTime",
          "type": "uint256"
        },
        {
          "name": "stakedCoinsAtStart",
          "type": "uint256"
        }
      ],
      "payable": false,
      "stateMutability": "view",
      "type": "function"
    },
    {
      "constant": false,
      "inputs": [],
      "name": "storeWeekUnclaimed",
      "outputs": [],
      "payable": false,
      "stateMutability": "nonpayable",
      "type": "function"
    },
    {
      "constant": true,
      "inputs": [],
      "name": "originContract",
      "outputs": [
        {
          "name": "",
          "type": "address"
        }
      ],
      "payable": false,
      "stateMutability": "view",
      "type": "function"
    },
    {
      "constant": false,
      "inputs": [
        {
          "name": "_to",
          "type": "address"
        },
        {
          "name": "_value",
          "type": "uint256"
        }
      ],
      "name": "transfer",
      "outputs": [
        {
          "name": "",
          "type": "bool"
        }
      ],
      "payable": false,
      "stateMutability": "nonpayable",
      "type": "function"
    },
    {
      "constant": true,
      "inputs": [
        {
          "name": "hash",
          "type": "bytes32"
        },
        {
          "name": "v",
          "type": "uint8"
        },
        {
          "name": "r",
          "type": "bytes32"
        },
        {
          "name": "s",
          "type": "bytes32"
        },
        {
          "name": "expected",
          "type": "address"
        }
      ],
      "name": "validateSignature",
      "outputs": [
        {
          "name": "",
          "type": "bool"
        }
      ],
      "payable": false,
      "stateMutability": "pure",
      "type": "function"
    },
    {
      "constant": true,
      "inputs": [
        {
          "name": "proof",
          "type": "bytes32[]"
        },
        {
          "name": "merkleLeafHash",
          "type": "bytes32"
        }
      ],
      "name": "verifyProof",
      "outputs": [
        {
          "name": "",
          "type": "bool"
        }
      ],
      "payable": false,
      "stateMutability": "view",
      "type": "function"
    },
    {
      "constant": true,
      "inputs": [
        {
          "name": "txid",
          "type": "bytes32"
        },
        {
          "name": "originalAddress",
          "type": "bytes20"
        },
        {
          "name": "outputIndex",
          "type": "uint8"
        },
        {
          "name": "satoshis",
          "type": "uint256"
        },
        {
          "name": "proof",
          "type": "bytes32[]"
        }
      ],
      "name": "canRedeemUTXO",
      "outputs": [
        {
          "name": "",
          "type": "bool"
        }
      ],
      "payable": false,
      "stateMutability": "view",
      "type": "function"
    },
    {
      "constant": true,
      "inputs": [
        {
          "name": "addr",
          "type": "address"
        },
        {
          "name": "pubKey",
          "type": "bytes"
        },
        {
          "name": "v",
          "type": "uint8"
        },
        {
          "name": "r",
          "type": "bytes32"
        },
        {
          "name": "s",
          "type": "bytes32"
        }
      ],
      "name": "ecdsaVerify",
      "outputs": [
        {
          "name": "",
          "type": "bool"
        }
      ],
      "payable": false,
      "stateMutability": "pure",
      "type": "function"
    },
    {
      "constant": false,
      "inputs": [
        {
          "name": "_spender",
          "type": "address"
        },
        {
          "name": "_addedValue",
          "type": "uint256"
        }
      ],
      "name": "increaseApproval",
      "outputs": [
        {
          "name": "",
          "type": "bool"
        }
      ],
      "payable": false,
      "stateMutability": "nonpayable",
      "type": "function"
    },
    {
      "constant": true,
      "inputs": [
        {
          "name": "_owner",
          "type": "address"
        },
        {
          "name": "_spender",
          "type": "address"
        }
      ],
      "name": "allowance",
      "outputs": [
        {
          "name": "",
          "type": "uint256"
        }
      ],
      "payable": false,
      "stateMutability": "view",
      "type": "function"
    },
    {
      "constant": true,
      "inputs": [
        {
          "name": "pubKey",
          "type": "bytes"
        },
        {
          "name": "isCompressed",
          "type": "bool"
        }
      ],
      "name": "pubKeyToBitcoinAddress",
      "outputs": [
        {
          "name": "",
          "type": "bytes20"
        }
      ],
      "payable": false,
      "stateMutability": "pure",
      "type": "function"
    },
    {
      "constant": true,
      "inputs": [],
      "name": "rootUTXOMerkleTreeHash",
      "outputs": [
        {
          "name": "",
          "type": "bytes32"
        }
      ],
      "payable": false,
      "stateMutability": "view",
      "type": "function"
    },
    {
      "constant": true,
      "inputs": [],
      "name": "totalRedeemed",
      "outputs": [
        {
          "name": "",
          "type": "uint256"
        }
      ],
      "payable": false,
      "stateMutability": "view",
      "type": "function"
    },
    {
      "inputs": [
        {
          "name": "_originContract",
          "type": "address"
        }
      ],
      "payable": false,
      "stateMutability": "nonpayable",
      "type": "constructor"
    },
    {
      "anonymous": false,
      "inputs": [
        {
          "indexed": true,
          "name": "_address",
          "type": "address"
        },
        {
          "indexed": false,
          "name": "_reward",
          "type": "uint256"
        }
      ],
      "name": "Mint",
      "type": "event"
    },
    {
      "anonymous": false,
      "inputs": [
        {
          "indexed": false,
          "name": "txid",
          "type": "bytes32"
        },
        {
          "indexed": false,
          "name": "outputIndex",
          "type": "uint8"
        },
        {
          "indexed": false,
          "name": "satoshis",
          "type": "uint256"
        },
        {
          "indexed": false,
          "name": "proof",
          "type": "bytes32[]"
        },
        {
          "indexed": false,
          "name": "pubKey",
          "type": "bytes"
        },
        {
          "indexed": false,
          "name": "v",
          "type": "uint8"
        },
        {
          "indexed": false,
          "name": "r",
          "type": "bytes32"
        },
        {
          "indexed": false,
          "name": "s",
          "type": "bytes32"
        },
        {
          "indexed": true,
          "name": "redeemer",
          "type": "address"
        },
        {
          "indexed": false,
          "name": "numberOfTokens",
          "type": "uint256"
        }
      ],
      "name": "UTXORedeemed",
      "type": "event"
    },
    {
      "anonymous": false,
      "inputs": [
        {
          "indexed": true,
          "name": "owner",
          "type": "address"
        },
        {
          "indexed": true,
          "name": "spender",
          "type": "address"
        },
        {
          "indexed": false,
          "name": "value",
          "type": "uint256"
        }
      ],
      "name": "Approval",
      "type": "event"
    },
    {
      "anonymous": false,
      "inputs": [
        {
          "indexed": true,
          "name": "from",
          "type": "address"
        },
        {
          "indexed": true,
          "name": "to",
          "type": "address"
        },
        {
          "indexed": false,
          "name": "value",
          "type": "uint256"
        }
      ],
      "name": "Transfer",
      "type": "event"
    },
    {
      "constant": false,
      "inputs": [
        {
          "name": "_value",
          "type": "uint256"
        },
        {
          "name": "_unlockTime",
          "type": "uint256"
        }
      ],
      "name": "startStake",
      "outputs": [],
      "payable": false,
      "stateMutability": "nonpayable",
      "type": "function"
    },
    {
      "constant": false,
      "inputs": [
        {
          "name": "staker",
          "type": "address"
        }
      ],
      "name": "mint",
      "outputs": [],
      "payable": false,
      "stateMutability": "nonpayable",
      "type": "function"
    }
  ],
  "bytecode": "0x6080604052600060045534801561001557600080fd5b5060405160208061358f833981018060405281019080805190602001909291905050506000813b905060008111151561004d57600080fd5b81600b60006101000a81548173ffffffffffffffffffffffffffffffffffffffff021916908373ffffffffffffffffffffffffffffffffffffffff16021790555050506134f08061009f6000396000f300608060405260043610610149576000357c0100000000000000000000000000000000000000000000000000000000900463ffffffff16806308b4312b1461014e578063095ea7b314610179578063128bfcae146101de57806318160ddd1461021557806323b872dd146102405780635418796c146102c557806358523e011461036e57806366188463146104a85780636a6278421461050d57806370a0823114610550578063782520dd146105a75780637f761472146106c15780638f1698161461074d5780639283032c146107c35780639afb416c146107da578063a9059cbb14610831578063af1d06e814610896578063b80ac7df14610928578063ca193e4d146109b4578063ce267b5514610a70578063d73dd62314610b3a578063dd62ed3e14610b9f578063e073ef6914610c16578063e6997f6d14610cbd578063f35dad4014610cf0575b600080fd5b34801561015a57600080fd5b50610163610d1b565b6040518082815260200191505060405180910390f35b34801561018557600080fd5b506101c4600480360381019080803573ffffffffffffffffffffffffffffffffffffffff16906020019092919080359060200190929190505050610d21565b604051808215151515815260200191505060405180910390f35b3480156101ea57600080fd5b506102136004803603810190808035906020019092919080359060200190929190505050610e13565b005b34801561022157600080fd5b5061022a610feb565b6040518082815260200191505060405180910390f35b34801561024c57600080fd5b506102ab600480360381019080803573ffffffffffffffffffffffffffffffffffffffff169060200190929190803573ffffffffffffffffffffffffffffffffffffffff16906020019092919080359060200190929190505050610ff5565b604051808215151515815260200191505060405180910390f35b3480156102d157600080fd5b5061032c600480360381019080803590602001908201803590602001908080601f01602080910402602001604051908101604052809392919081815260200183838082843782019150505050505091929192905050506113af565b604051808273ffffffffffffffffffffffffffffffffffffffff1673ffffffffffffffffffffffffffffffffffffffff16815260200191505060405180910390f35b34801561037a57600080fd5b506104926004803603810190808035600019169060200190929190803560ff1690602001909291908035906020019092919080359060200190820180359060200190808060200260200160405190810160405280939291908181526020018383602002808284378201915050505050509192919290803590602001908201803590602001908080601f0160208091040260200160405190810160405280939291908181526020018383808284378201915050505050509192919290803515159060200190929190803560ff16906020019092919080356000191690602001909291908035600019169060200190929190803573ffffffffffffffffffffffffffffffffffffffff169060200190929190505050611435565b6040518082815260200191505060405180910390f35b3480156104b457600080fd5b506104f3600480360381019080803573ffffffffffffffffffffffffffffffffffffffff1690602001909291908035906020019092919050505061152f565b604051808215151515815260200191505060405180910390f35b34801561051957600080fd5b5061054e600480360381019080803573ffffffffffffffffffffffffffffffffffffffff1690602001909291905050506117c0565b005b34801561055c57600080fd5b50610591600480360381019080803573ffffffffffffffffffffffffffffffffffffffff169060200190929190505050611cf1565b6040518082815260200191505060405180910390f35b3480156105b357600080fd5b506106ab6004803603810190808035600019169060200190929190803560ff1690602001909291908035906020019092919080359060200190820180359060200190808060200260200160405190810160405280939291908181526020018383602002808284378201915050505050509192919290803590602001908201803590602001908080601f0160208091040260200160405190810160405280939291908181526020018383808284378201915050505050509192919290803515159060200190929190803560ff16906020019092919080356000191690602001909291908035600019169060200190929190505050611d39565b6040518082815260200191505060405180910390f35b3480156106cd57600080fd5b5061073360048036038101908080356000191690602001909291908035906020019082018035906020019080806020026020016040519081016040528093929190818152602001838360200280828437820191505050505050919291929050505061219e565b604051808215151515815260200191505060405180910390f35b34801561075957600080fd5b50610798600480360381019080803573ffffffffffffffffffffffffffffffffffffffff169060200190929190803590602001909291905050506121e9565b6040518085815260200184815260200183815260200182815260200194505050505060405180910390f35b3480156107cf57600080fd5b506107d8612235565b005b3480156107e657600080fd5b506107ef6122cf565b604051808273ffffffffffffffffffffffffffffffffffffffff1673ffffffffffffffffffffffffffffffffffffffff16815260200191505060405180910390f35b34801561083d57600080fd5b5061087c600480360381019080803573ffffffffffffffffffffffffffffffffffffffff169060200190929190803590602001909291905050506122f5565b604051808215151515815260200191505060405180910390f35b3480156108a257600080fd5b5061090e6004803603810190808035600019169060200190929190803560ff16906020019092919080356000191690602001909291908035600019169060200190929190803573ffffffffffffffffffffffffffffffffffffffff169060200190929190505050612514565b604051808215151515815260200191505060405180910390f35b34801561093457600080fd5b5061099a6004803603810190808035906020019082018035906020019080806020026020016040519081016040528093929190818152602001838360200280828437820191505050505050919291929080356000191690602001909291905050506125d0565b604051808215151515815260200191505060405180910390f35b3480156109c057600080fd5b50610a56600480360381019080803560001916906020019092919080356bffffffffffffffffffffffff19169060200190929190803560ff16906020019092919080359060200190929190803590602001908201803590602001908080602002602001604051908101604052809392919081815260200183836020028082843782019150505050505091929192905050506125e7565b604051808215151515815260200191505060405180910390f35b348015610a7c57600080fd5b50610b20600480360381019080803573ffffffffffffffffffffffffffffffffffffffff169060200190929190803590602001908201803590602001908080601f0160208091040260200160405190810160405280939291908181526020018383808284378201915050505050509192919290803560ff169060200190929190803560001916906020019092919080356000191690602001909291905050506126ea565b604051808215151515815260200191505060405180910390f35b348015610b4657600080fd5b50610b85600480360381019080803573ffffffffffffffffffffffffffffffffffffffff16906020019092919080359060200190929190505050612807565b604051808215151515815260200191505060405180910390f35b348015610bab57600080fd5b50610c00600480360381019080803573ffffffffffffffffffffffffffffffffffffffff169060200190929190803573ffffffffffffffffffffffffffffffffffffffff169060200190929190505050612a03565b6040518082815260200191505060405180910390f35b348015610c2257600080fd5b50610c89600480360381019080803590602001908201803590602001908080601f0160208091040260200160405190810160405280939291908181526020018383808284378201915050505050509192919290803515159060200190929190505050612a8a565b60405180826bffffffffffffffffffffffff19166bffffffffffffffffffffffff1916815260200191505060405180910390f35b348015610cc957600080fd5b50610cd2612e49565b60405180826000191660001916815260200191505060405180910390f35b348015610cfc57600080fd5b50610d05612e4f565b6040518082815260200191505060405180910390f35b60095481565b600081600260003373ffffffffffffffffffffffffffffffffffffffff1673ffffffffffffffffffffffffffffffffffffffff16815260200190815260200160002060008573ffffffffffffffffffffffffffffffffffffffff1673ffffffffffffffffffffffffffffffffffffffff168152602001908152602001600020819055508273ffffffffffffffffffffffffffffffffffffffff163373ffffffffffffffffffffffffffffffffffffffff167f8c5be1e5ebec7d5bd14f71427d1e84f3dd0314c0f7b2291e5b200ac8c7c3b925846040518082815260200191505060405180910390a36001905092915050565b6000339050610e20612235565b6000808273ffffffffffffffffffffffffffffffffffffffff1673ffffffffffffffffffffffffffffffffffffffff168152602001908152602001600020548311151515610e6d57600080fd5b610ebe836000808473ffffffffffffffffffffffffffffffffffffffff1673ffffffffffffffffffffffffffffffffffffffff16815260200190815260200160002054612e5590919063ffffffff16565b6000808373ffffffffffffffffffffffffffffffffffffffff1673ffffffffffffffffffffffffffffffffffffffff16815260200190815260200160002081905550600e60008273ffffffffffffffffffffffffffffffffffffffff1673ffffffffffffffffffffffffffffffffffffffff168152602001908152602001600020608060405190810160405280856fffffffffffffffffffffffffffffffff168152602001428152602001848152602001600d548152509080600181540180825580915050906001820390600052602060002090600402016000909192909190915060008201518160000155602082015181600101556040820151816002015560608201518160030155505050610fe083600d54612e6e90919063ffffffff16565b600d81905550505050565b6000600154905090565b60008073ffffffffffffffffffffffffffffffffffffffff168373ffffffffffffffffffffffffffffffffffffffff161415151561103257600080fd5b6000808573ffffffffffffffffffffffffffffffffffffffff1673ffffffffffffffffffffffffffffffffffffffff16815260200190815260200160002054821115151561107f57600080fd5b600260008573ffffffffffffffffffffffffffffffffffffffff1673ffffffffffffffffffffffffffffffffffffffff16815260200190815260200160002060003373ffffffffffffffffffffffffffffffffffffffff1673ffffffffffffffffffffffffffffffffffffffff16815260200190815260200160002054821115151561110a57600080fd5b61115b826000808773ffffffffffffffffffffffffffffffffffffffff1673ffffffffffffffffffffffffffffffffffffffff16815260200190815260200160002054612e5590919063ffffffff16565b6000808673ffffffffffffffffffffffffffffffffffffffff1673ffffffffffffffffffffffffffffffffffffffff168152602001908152602001600020819055506111ee826000808673ffffffffffffffffffffffffffffffffffffffff1673ffffffffffffffffffffffffffffffffffffffff16815260200190815260200160002054612e6e90919063ffffffff16565b6000808573ffffffffffffffffffffffffffffffffffffffff1673ffffffffffffffffffffffffffffffffffffffff168152602001908152602001600020819055506112bf82600260008773ffffffffffffffffffffffffffffffffffffffff1673ffffffffffffffffffffffffffffffffffffffff16815260200190815260200160002060003373ffffffffffffffffffffffffffffffffffffffff1673ffffffffffffffffffffffffffffffffffffffff16815260200190815260200160002054612e5590919063ffffffff16565b600260008673ffffffffffffffffffffffffffffffffffffffff1673ffffffffffffffffffffffffffffffffffffffff16815260200190815260200160002060003373ffffffffffffffffffffffffffffffffffffffff1673ffffffffffffffffffffffffffffffffffffffff168152602001908152602001600020819055508273ffffffffffffffffffffffffffffffffffffffff168473ffffffffffffffffffffffffffffffffffffffff167fddf252ad1be2c89b69c2b068fc378daa952ba7f163c4a11628f55a4df523b3ef846040518082815260200191505060405180910390a3600190509392505050565b600073ffffffffffffffffffffffffffffffffffffffff826040518082805190602001908083835b6020831015156113fc57805182526020820191506020810190506020830392506113d7565b6001836020036101000a038019825116818451168082178552505050505050905001915050604051809103902060019004169050919050565b60006114488b8b8b8b8b8b8b8b8b611d39565b90506114ae611461601483612e8a90919063ffffffff16565b6000808573ffffffffffffffffffffffffffffffffffffffff1673ffffffffffffffffffffffffffffffffffffffff16815260200190815260200160002054612e6e90919063ffffffff16565b6000808473ffffffffffffffffffffffffffffffffffffffff1673ffffffffffffffffffffffffffffffffffffffff16815260200190815260200160002081905550611518611507601483612e8a90919063ffffffff16565b600154612e6e90919063ffffffff16565b6001819055508090509a9950505050505050505050565b600080600260003373ffffffffffffffffffffffffffffffffffffffff1673ffffffffffffffffffffffffffffffffffffffff16815260200190815260200160002060008573ffffffffffffffffffffffffffffffffffffffff1673ffffffffffffffffffffffffffffffffffffffff16815260200190815260200160002054905080831115611640576000600260003373ffffffffffffffffffffffffffffffffffffffff1673ffffffffffffffffffffffffffffffffffffffff16815260200190815260200160002060008673ffffffffffffffffffffffffffffffffffffffff1673ffffffffffffffffffffffffffffffffffffffff168152602001908152602001600020819055506116d4565b6116538382612e5590919063ffffffff16565b600260003373ffffffffffffffffffffffffffffffffffffffff1673ffffffffffffffffffffffffffffffffffffffff16815260200190815260200160002060008673ffffffffffffffffffffffffffffffffffffffff1673ffffffffffffffffffffffffffffffffffffffff168152602001908152602001600020819055505b8373ffffffffffffffffffffffffffffffffffffffff163373ffffffffffffffffffffffffffffffffffffffff167f8c5be1e5ebec7d5bd14f71427d1e84f3dd0314c0f7b2291e5b200ac8c7c3b925600260003373ffffffffffffffffffffffffffffffffffffffff1673ffffffffffffffffffffffffffffffffffffffff16815260200190815260200160002060008873ffffffffffffffffffffffffffffffffffffffff1673ffffffffffffffffffffffffffffffffffffffff168152602001908152602001600020546040518082815260200191505060405180910390a3600191505092915050565b6000806117cb612235565b5b600e60008473ffffffffffffffffffffffffffffffffffffffff1673ffffffffffffffffffffffffffffffffffffffff16815260200190815260200160002080549050821015611cec57600e60008473ffffffffffffffffffffffffffffffffffffffff1673ffffffffffffffffffffffffffffffffffffffff1681526020019081526020016000208281548110151561186257fe5b906000526020600020906004020160020154421115611cdf576118ed600e60008573ffffffffffffffffffffffffffffffffffffffff1673ffffffffffffffffffffffffffffffffffffffff168152602001908152602001600020838154811015156118ca57fe5b906000526020600020906004020160000154600d54612e5590919063ffffffff16565b600d819055506119a1600e60008573ffffffffffffffffffffffffffffffffffffffff1673ffffffffffffffffffffffffffffffffffffffff1681526020019081526020016000208381548110151561194257fe5b9060005260206000209060040201600001546000808673ffffffffffffffffffffffffffffffffffffffff1673ffffffffffffffffffffffffffffffffffffffff16815260200190815260200160002054612e6e90919063ffffffff16565b6000808573ffffffffffffffffffffffffffffffffffffffff1673ffffffffffffffffffffffffffffffffffffffff16815260200190815260200160002081905550611a79600e60008573ffffffffffffffffffffffffffffffffffffffff1673ffffffffffffffffffffffffffffffffffffffff16815260200190815260200160002083815481101515611a3257fe5b906000526020600020906004020160806040519081016040529081600082015481526020016001820154815260200160028201548152602001600382015481525050612ea0565b9050611acc816000808673ffffffffffffffffffffffffffffffffffffffff1673ffffffffffffffffffffffffffffffffffffffff16815260200190815260200160002054612e6e90919063ffffffff16565b6000808573ffffffffffffffffffffffffffffffffffffffff1673ffffffffffffffffffffffffffffffffffffffff16815260200190815260200160002081905550611b8181600080600b60009054906101000a900473ffffffffffffffffffffffffffffffffffffffff1673ffffffffffffffffffffffffffffffffffffffff1673ffffffffffffffffffffffffffffffffffffffff16815260200190815260200160002054612e6e90919063ffffffff16565b600080600b60009054906101000a900473ffffffffffffffffffffffffffffffffffffffff1673ffffffffffffffffffffffffffffffffffffffff1673ffffffffffffffffffffffffffffffffffffffff16815260200190815260200160002081905550611c0d611bfc600283612f1e90919063ffffffff16565b600154612e6e90919063ffffffff16565b600181905550600e60008473ffffffffffffffffffffffffffffffffffffffff1673ffffffffffffffffffffffffffffffffffffffff16815260200190815260200160002082815481101515611c5f57fe5b906000526020600020906004020160008082016000905560018201600090556002820160009055600382016000905550508273ffffffffffffffffffffffffffffffffffffffff167f0f6798a560793a54c3bcfe86a93cde1e73087d944c0ea20544137d4121396885826040518082815260200191505060405180910390a25b81806001019250506117cc565b505050565b60008060008373ffffffffffffffffffffffffffffffffffffffff1673ffffffffffffffffffffffffffffffffffffffff168152602001908152602001600020549050919050565b6000806000611d46612235565b6032611d7262093a80611d6460035442612e5590919063ffffffff16565b612e8a90919063ffffffff16565b101515611d7e57600080fd5b611d888888612a8a565b91508b828c8c604051602001808560001916600019168152602001846bffffffffffffffffffffffff19166bffffffffffffffffffffffff191681526014018360ff1660ff167f01000000000000000000000000000000000000000000000000000000000000000281526001018281526020019450505050506040516020818303038152906040526040518082805190602001908083835b602083101515611e455780518252602082019150602081019050602083039250611e20565b6001836020036101000a03801982511681845116808217855250505050505090500191505060405180910390209050611e7e818a61219e565b1515611e8957600080fd5b611e9633898888886126ea565b1515611ea157600080fd5b600160076000836000191660001916815260200190815260200160002060006101000a81548160ff021916908315150217905550611ede8a612f56565b9250600954611ef884600854612e6e90919063ffffffff16565b11151515611f0557600080fd5b611f1a83600854612e6e90919063ffffffff16565b600881905550611f71836000803373ffffffffffffffffffffffffffffffffffffffff1673ffffffffffffffffffffffffffffffffffffffff16815260200190815260200160002054612e6e90919063ffffffff16565b6000803373ffffffffffffffffffffffffffffffffffffffff1673ffffffffffffffffffffffffffffffffffffffff16815260200190815260200160002081905550611fc883600154612e6e90919063ffffffff16565b6001819055503373ffffffffffffffffffffffffffffffffffffffff16600073ffffffffffffffffffffffffffffffffffffffff167fddf252ad1be2c89b69c2b068fc378daa952ba7f163c4a11628f55a4df523b3ef856040518082815260200191505060405180910390a33373ffffffffffffffffffffffffffffffffffffffff167f312ab01e6ce21dfe30ce841b1cd250767ce180d2c10a5bea492a1cb6b62eb97b8d8d8d8d8d8c8c8c8c604051808a600019166000191681526020018960ff1660ff16815260200188815260200180602001806020018760ff1660ff16815260200186600019166000191681526020018560001916600019168152602001848152602001838103835289818151815260200191508051906020019060200280838360005b8381101561210a5780820151818401526020810190506120ef565b50505050905001838103825288818151815260200191508051906020019080838360005b8381101561214957808201518184015260208101905061212e565b50505050905090810190601f1680156121765780820380516001836020036101000a031916815260200191505b509b50505050505050505050505060405180910390a282925050509998505050505050505050565b600080151560076000856000191660001916815260200190815260200160002060009054906101000a900460ff1615151480156121e157506121e082846125d0565b5b905092915050565b600e6020528160005260406000208181548110151561220457fe5b9060005260206000209060040201600091509150508060000154908060010154908060020154908060030154905084565b60008061226262093a8061225460035442612e5590919063ffffffff16565b612e8a90919063ffffffff16565b9150603382108015612275575060045482115b156122cb57612291600854600954612e5590919063ffffffff16565b9050602060405190810160405280828152506005600084815260200190815260200160002060008201518160000155905050816004819055505b5050565b600b60009054906101000a900473ffffffffffffffffffffffffffffffffffffffff1681565b60008073ffffffffffffffffffffffffffffffffffffffff168373ffffffffffffffffffffffffffffffffffffffff161415151561233257600080fd5b6000803373ffffffffffffffffffffffffffffffffffffffff1673ffffffffffffffffffffffffffffffffffffffff16815260200190815260200160002054821115151561237f57600080fd5b6123d0826000803373ffffffffffffffffffffffffffffffffffffffff1673ffffffffffffffffffffffffffffffffffffffff16815260200190815260200160002054612e5590919063ffffffff16565b6000803373ffffffffffffffffffffffffffffffffffffffff1673ffffffffffffffffffffffffffffffffffffffff16815260200190815260200160002081905550612463826000808673ffffffffffffffffffffffffffffffffffffffff1673ffffffffffffffffffffffffffffffffffffffff16815260200190815260200160002054612e6e90919063ffffffff16565b6000808573ffffffffffffffffffffffffffffffffffffffff1673ffffffffffffffffffffffffffffffffffffffff168152602001908152602001600020819055508273ffffffffffffffffffffffffffffffffffffffff163373ffffffffffffffffffffffffffffffffffffffff167fddf252ad1be2c89b69c2b068fc378daa952ba7f163c4a11628f55a4df523b3ef846040518082815260200191505060405180910390a36001905092915050565b60008173ffffffffffffffffffffffffffffffffffffffff16600187878787604051600081526020016040526040518085600019166000191681526020018460ff1660ff1681526020018360001916600019168152602001826000191660001916815260200194505050505060206040516020810390808403906000865af11580156125a4573d6000803e3d6000fd5b5050506020604051035173ffffffffffffffffffffffffffffffffffffffff1614905095945050505050565b60006125df83600654846130b3565b905092915050565b60008086868686604051602001808560001916600019168152602001846bffffffffffffffffffffffff19166bffffffffffffffffffffffff191681526014018360ff1660ff167f01000000000000000000000000000000000000000000000000000000000000000281526001018281526020019450505050506040516020818303038152906040526040518082805190602001908083835b6020831015156126a55780518252602082019150602081019050602083039250612680565b6001836020036101000a038019825116818451168082178552505050505050905001915050604051809103902090506126de818461219e565b91505095945050505050565b60006127fc600287604051602001808273ffffffffffffffffffffffffffffffffffffffff1673ffffffffffffffffffffffffffffffffffffffff166c010000000000000000000000000281526014019150506040516020818303038152906040526040518082805190602001908083835b602083101515612781578051825260208201915060208101905060208303925061275c565b6001836020036101000a0380198251168184511680821785525050505050509050019150506020604051808303816000865af11580156127c5573d6000803e3d6000fd5b5050506040513d60208110156127da57600080fd5b81019080805190602001909291905050508585856127f78a6113af565b612514565b905095945050505050565b600061289882600260003373ffffffffffffffffffffffffffffffffffffffff1673ffffffffffffffffffffffffffffffffffffffff16815260200190815260200160002060008673ffffffffffffffffffffffffffffffffffffffff1673ffffffffffffffffffffffffffffffffffffffff16815260200190815260200160002054612e6e90919063ffffffff16565b600260003373ffffffffffffffffffffffffffffffffffffffff1673ffffffffffffffffffffffffffffffffffffffff16815260200190815260200160002060008573ffffffffffffffffffffffffffffffffffffffff1673ffffffffffffffffffffffffffffffffffffffff168152602001908152602001600020819055508273ffffffffffffffffffffffffffffffffffffffff163373ffffffffffffffffffffffffffffffffffffffff167f8c5be1e5ebec7d5bd14f71427d1e84f3dd0314c0f7b2291e5b200ac8c7c3b925600260003373ffffffffffffffffffffffffffffffffffffffff1673ffffffffffffffffffffffffffffffffffffffff16815260200190815260200160002060008773ffffffffffffffffffffffffffffffffffffffff1673ffffffffffffffffffffffffffffffffffffffff168152602001908152602001600020546040518082815260200191505060405180910390a36001905092915050565b6000600260008473ffffffffffffffffffffffffffffffffffffffff1673ffffffffffffffffffffffffffffffffffffffff16815260200190815260200160002060008373ffffffffffffffffffffffffffffffffffffffff1673ffffffffffffffffffffffffffffffffffffffff16815260200190815260200160002054905092915050565b600080600080612a9b86600061317e565b600190049250612aac86602061317e565b6001900491508415612c88576000600283811515612ac657fe5b0614612ad3576003612ad6565b60025b9050600360028285604051602001808360ff1660ff167f0100000000000000000000000000000000000000000000000000000000000000028152600101828152602001925050506040516020818303038152906040526040518082805190602001908083835b602083101515612b615780518252602082019150602081019050602083039250612b3c565b6001836020036101000a0380198251168184511680821785525050505050509050019150506020604051808303816000865af1158015612ba5573d6000803e3d6000fd5b5050506040513d6020811015612bba57600080fd5b81019080805190602001909291905050506040516020018082600019166000191681526020019150506040516020818303038152906040526040518082805190602001908083835b602083101515612c275780518252602082019150602081019050602083039250612c02565b6001836020036101000a0380198251168184511680821785525050505050509050019150506020604051808303816000865af1158015612c6b573d6000803e3d6000fd5b505050604051516c01000000000000000000000000029350612e40565b6004905060036002828585604051602001808460ff1660ff167f010000000000000000000000000000000000000000000000000000000000000002815260010183815260200182815260200193505050506040516020818303038152906040526040518082805190602001908083835b602083101515612d1d5780518252602082019150602081019050602083039250612cf8565b6001836020036101000a0380198251168184511680821785525050505050509050019150506020604051808303816000865af1158015612d61573d6000803e3d6000fd5b5050506040513d6020811015612d7657600080fd5b81019080805190602001909291905050506040516020018082600019166000191681526020019150506040516020818303038152906040526040518082805190602001908083835b602083101515612de35780518252602082019150602081019050602083039250612dbe565b6001836020036101000a0380198251168184511680821785525050505050509050019150506020604051808303816000865af1158015612e27573d6000803e3d6000fd5b505050604051516c010000000000000000000000000293505b50505092915050565b60065481565b60085481565b6000828211151515612e6357fe5b818303905092915050565b60008183019050828110151515612e8157fe5b80905092915050565b60008183811515612e9757fe5b04905092915050565b60008060009050612edc612eb38461325a565b612ece612ebf86613331565b84612e6e90919063ffffffff16565b612e6e90919063ffffffff16565b9050612f13612eea82613419565b612f05612ef68461345e565b84612e6e90919063ffffffff16565b612e6e90919063ffffffff16565b905080915050919050565b600080831415612f315760009050612f50565b8183029050818382811515612f4257fe5b04141515612f4c57fe5b8090505b92915050565b6000806000806000859350612f8b62093a80612f7d60035442612e5590919063ffffffff16565b612e8a90919063ffffffff16565b9250612fb4612fa4600285612f1e90919063ffffffff16565b6064612e5590919063ffffffff16565b915064174876e8008411156130445764e8d4a5100084101561302c57613025640ba43b740061301760096130096002612ffb64174876e8008b612e5590919063ffffffff16565b612f1e90919063ffffffff16565b612e8a90919063ffffffff16565b612e6e90919063ffffffff16565b9350613043565b613040600485612e8a90919063ffffffff16565b93505b5b61306a606461305c8487612f1e90919063ffffffff16565b612e8a90919063ffffffff16565b90506130a56064613097600a60008781526020019081526020016000205484612f1e90919063ffffffff16565b612e8a90919063ffffffff16565b905080945050505050919050565b600080600080849250600091505b86518210156131675786828151811015156130d857fe5b9060200190602002015190508060001916836000191610156131295782816040518083600019166000191681526020018260001916600019168152602001925050506040518091039020925061315a565b8083604051808360001916600019168152602001826000191660001916815260200192505050604051809103902092505b81806001019250506130c1565b856000191683600019161493505050509392505050565b600080600090505b60208110156132505760088102848483018151811015156131a357fe5b9060200101517f010000000000000000000000000000000000000000000000000000000000000090047f0100000000000000000000000000000000000000000000000000000000000000027effffffffffffffffffffffffffffffffffffffffffffffffffffffffffffff19167fff0000000000000000000000000000000000000000000000000000000000000060010216600019169060020a9004821891508080600101915050613186565b8191505092915050565b60008060008061328e62093a806132806003548860200151612e5590919063ffffffff16565b612e8a90919063ffffffff16565b92506132ba62093a806132ac60035442612e5590919063ffffffff16565b612e8a90919063ffffffff16565b91508290505b818110156133295761331a61330b60326132fd88600001516005600087815260200190815260200160002060000154612f1e90919063ffffffff16565b612e8a90919063ffffffff16565b85612e6e90919063ffffffff16565b935080806001019150506132c0565b505050919050565b60008060008060006064935061336960015461335b60648960600151612f1e90919063ffffffff16565b612e8a90919063ffffffff16565b925061337e8385612e8a90919063ffffffff16565b93506133ac620d2f0061339e886020015142612e5590919063ffffffff16565b612e8a90919063ffffffff16565b91506133bd866000015183866134a3565b905061340e8660000151613400836133f26103e86133e48888612f1e90919063ffffffff16565b612e8a90919063ffffffff16565b612e6e90919063ffffffff16565b612e5590919063ffffffff16565b945050505050919050565b6000613457600a61344960095461343b60085487612f1e90919063ffffffff16565b612e8a90919063ffffffff16565b612e8a90919063ffffffff16565b9050919050565b600061349c600a61348e600c5461348060085487612f1e90919063ffffffff16565b612e8a90919063ffffffff16565b612e8a90919063ffffffff16565b9050919050565b60008260640a83836064010a85028115156134ba57fe5b04905093925050505600a165627a7a723058203f234a71061a4145feb4983b72de243cf4d999829bc9412c41a38fbf5c0fbecf0029",
  "source": "pragma solidity ^0.4.23;\n\nimport \"./UTXORedeemableToken.sol\";\n\n/* solium-disable security/no-block-members */\n\n\ncontract StakeableToken is UTXORedeemableToken {\n\n    event Mint(address indexed _address, uint _reward);\n\n    address public originContract;\n\n    uint256 totalBTCCirculationAtFork;\n\n    uint256 stakedCoins;\n\n    struct StakeStruct {\n        uint256 stakeAmount;\n        uint256 stakeTime;\n        uint256 unlockTime;\n        uint256 stakedCoinsAtStart;\n    }\n\n    mapping(address => StakeStruct[]) public staked;\n\n    constructor(address _originContract)\n        public\n    {\n        uint256 _size;\n        assembly { _size := extcodesize(_originContract) }\n        require(_size > 0);\n        originContract = _originContract;\n    }\n\n    function compound(uint256 _principle, uint256 _periods, uint256 _interestRateTimesHundred) internal pure returns (uint256) {\n        /* Calculate compound interest */\n        return (_principle * (100 + _interestRateTimesHundred) ** _periods)/(100 ** _periods);\n    }\n\n    function startStake(uint256 _value, uint256 _unlockTime) public {\n        address staker = msg.sender;\n\n        /* Check if weekly data needs to be updated */\n        storeWeekUnclaimed();\n\n        /* Check if sender has sufficient balance */\n        require(_value <= balances[staker]);\n\n        /* Remove balance from sender */\n        balances[staker] = balances[staker].sub(_value);\n\n        /* Create Stake */\n        staked[staker].push(\n          StakeStruct(\n            uint128(_value), \n            block.timestamp, \n            _unlockTime, \n            stakedCoins\n          )\n        );\n\n        /* Add staked coins to global stake counter */\n        stakedCoins = stakedCoins.add(_value);\n    }\n\n    function calculateWeAreAllSatoshiRewards(StakeStruct stake) internal view returns (uint256 rewards) {\n        /* Calculate what week stake was opened */\n        uint256 startWeek = stake.stakeTime.sub(launchTime).div(7 days);\n\n        /* Calculate current week */\n        uint256 weeksSinceLaunch = block.timestamp.sub(launchTime).div(7 days);\n\n        /* Award 2% of unclaimed coins at end of every week */\n        for (uint256 i = startWeek; i < weeksSinceLaunch; i++) {\n            rewards = rewards.add(weekData[i].unclaimedCoins.mul(stake.stakeAmount).div(50));\n        }\n    }\n\n    function calculateViralRewards(uint256 rewards) internal view returns (uint256) {\n        /* Add bonus percentage to rewards from 0-10% based on adoption */\n        return rewards.mul(totalRedeemed).div(totalBTCCirculationAtFork).div(10);\n    }\n\n    function calculateCritMassRewards(uint256 rewards) internal view returns (uint256) {\n        /* Add bonus percentage to rewards from 0-10% based on adoption */\n        return rewards.mul(totalRedeemed).div(maximumRedeemable).div(10);\n    }\n\n    function calculateStakingRewards(StakeStruct stake) internal view returns (uint256) {\n        /* Base interest rate */\n        uint256 interestRateTimesHundred = 100;\n\n        /* Calculate Adoption Percent Scaler */\n        uint256 scaler = stake.stakedCoinsAtStart.mul(100).div(totalSupply_);\n\n        /* Adjust interest rate by scaler */\n        interestRateTimesHundred = interestRateTimesHundred.div(scaler);\n\n        /* Calculate Periods */\n        uint256 periods = block.timestamp.sub(stake.stakeTime).div(10 days);\n\n        /* Compound */\n        uint256 compoundRound = compound(stake.stakeAmount, periods, interestRateTimesHundred);\n\n        /* Calculate final staking rewards with time bonus */\n        return compoundRound.mul(periods).div(1000).add(compoundRound).sub(stake.stakeAmount);\n        \n    }\n\n    function calculateRewards(StakeStruct stake) internal view returns (uint256) {\n        uint256 rewards = 0;\n        rewards = rewards\n        .add(calculateStakingRewards(stake))\n        .add(calculateWeAreAllSatoshiRewards(stake));\n        rewards = rewards\n        .add(calculateViralRewards(rewards))\n        .add(calculateCritMassRewards(rewards));\n        return rewards;\n    }\n\n    function mint(address staker) public {\n        /* Check if weekly data needs to be updated */\n        storeWeekUnclaimed();\n\n        for (uint256 i; i < staked[staker].length; i++) {\n            /* Check if stake has matured */\n            if (block.timestamp > staked[staker][i].unlockTime) {\n                /* Remove StakedCoins from global counter */\n                stakedCoins = stakedCoins.sub(staked[staker][i].stakeAmount);\n\n                /* Add staked coins to staker */\n                balances[staker] = balances[staker].add(staked[staker][i].stakeAmount);\n\n                /* Calculate Rewards */\n                uint256 rewards = calculateRewards(staked[staker][i]);\n\n                /* Award staking rewards to staker */\n                balances[staker] = balances[staker].add(rewards);\n\n                /* Award staking rewards to origin contract */\n                balances[originContract] = balances[originContract].add(rewards);\n\n                /* Increase supply */\n                totalSupply_ = totalSupply_.add(rewards.mul(2));\n\n                /* Remove Stake */\n                delete staked[staker][i];\n\n                emit Mint(staker, rewards);\n            }\n        }\n    }\n}\n",
  "sourcePath": "/Users/tovarishfin/dev/bhex/bhex-contracts/contracts/StakeableToken.sol",
  "compiler": {
    "name": "solc",
    "version": "0.4.24+commit.e67f0147.Emscripten.clang"
  },
  "schemaVersion": "2.0.0",
  "updatedAt": "2018-06-08T12:27:20.540Z"
}