{
  "contractName": "StakeableToken",
  "abi": [
    {
      "constant": true,
      "inputs": [],
      "name": "name",
      "outputs": [
        {
          "name": "",
          "type": "string"
        }
      ],
      "payable": false,
      "stateMutability": "view",
      "type": "function"
    },
    {
      "constant": true,
      "inputs": [
        {
          "name": "_hash",
          "type": "bytes32"
        },
        {
          "name": "_v",
          "type": "uint8"
        },
        {
          "name": "_r",
          "type": "bytes32"
        },
        {
          "name": "_s",
          "type": "bytes32"
        },
        {
          "name": "_expected",
          "type": "address"
        },
        {
          "name": "_addPrefix",
          "type": "bool"
        }
      ],
      "name": "validateSignature",
      "outputs": [
        {
          "name": "",
          "type": "bool"
        }
      ],
      "payable": false,
      "stateMutability": "pure",
      "type": "function"
    },
    {
      "constant": false,
      "inputs": [
        {
          "name": "spender",
          "type": "address"
        },
        {
          "name": "value",
          "type": "uint256"
        }
      ],
      "name": "approve",
      "outputs": [
        {
          "name": "",
          "type": "bool"
        }
      ],
      "payable": false,
      "stateMutability": "nonpayable",
      "type": "function"
    },
    {
      "constant": true,
      "inputs": [],
      "name": "totalStakedCoins",
      "outputs": [
        {
          "name": "",
          "type": "uint256"
        }
      ],
      "payable": false,
      "stateMutability": "view",
      "type": "function"
    },
    {
      "constant": true,
      "inputs": [],
      "name": "totalSupply",
      "outputs": [
        {
          "name": "",
          "type": "uint256"
        }
      ],
      "payable": false,
      "stateMutability": "view",
      "type": "function"
    },
    {
      "constant": true,
      "inputs": [],
      "name": "totalStakeShares",
      "outputs": [
        {
          "name": "",
          "type": "uint256"
        }
      ],
      "payable": false,
      "stateMutability": "view",
      "type": "function"
    },
    {
      "constant": false,
      "inputs": [],
      "name": "storePeriodData",
      "outputs": [],
      "payable": false,
      "stateMutability": "nonpayable",
      "type": "function"
    },
    {
      "constant": false,
      "inputs": [
        {
          "name": "from",
          "type": "address"
        },
        {
          "name": "to",
          "type": "address"
        },
        {
          "name": "value",
          "type": "uint256"
        }
      ],
      "name": "transferFrom",
      "outputs": [
        {
          "name": "",
          "type": "bool"
        }
      ],
      "payable": false,
      "stateMutability": "nonpayable",
      "type": "function"
    },
    {
      "constant": true,
      "inputs": [
        {
          "name": "_satoshis",
          "type": "uint256"
        }
      ],
      "name": "getRedeemAmount",
      "outputs": [
        {
          "name": "",
          "type": "uint256"
        },
        {
          "name": "",
          "type": "uint256"
        }
      ],
      "payable": false,
      "stateMutability": "view",
      "type": "function"
    },
    {
      "constant": true,
      "inputs": [],
      "name": "decimals",
      "outputs": [
        {
          "name": "",
          "type": "uint256"
        }
      ],
      "payable": false,
      "stateMutability": "view",
      "type": "function"
    },
    {
      "constant": false,
      "inputs": [
        {
          "name": "spender",
          "type": "address"
        },
        {
          "name": "addedValue",
          "type": "uint256"
        }
      ],
      "name": "increaseAllowance",
      "outputs": [
        {
          "name": "",
          "type": "bool"
        }
      ],
      "payable": false,
      "stateMutability": "nonpayable",
      "type": "function"
    },
    {
      "constant": false,
      "inputs": [],
      "name": "storeWeeklyData",
      "outputs": [],
      "payable": false,
      "stateMutability": "nonpayable",
      "type": "function"
    },
    {
      "constant": false,
      "inputs": [
        {
          "name": "_satoshis",
          "type": "uint256"
        },
        {
          "name": "_proof",
          "type": "bytes32[]"
        },
        {
          "name": "_pubKey",
          "type": "bytes"
        },
        {
          "name": "_isCompressed",
          "type": "bool"
        },
        {
          "name": "_v",
          "type": "uint8"
        },
        {
          "name": "_r",
          "type": "bytes32"
        },
        {
          "name": "_s",
          "type": "bytes32"
        },
        {
          "name": "_referrer",
          "type": "address"
        }
      ],
      "name": "redeemUTXO",
      "outputs": [
        {
          "name": "",
          "type": "uint256"
        }
      ],
      "payable": false,
      "stateMutability": "nonpayable",
      "type": "function"
    },
    {
      "constant": true,
      "inputs": [],
      "name": "redeemedCount",
      "outputs": [
        {
          "name": "",
          "type": "uint256"
        }
      ],
      "payable": false,
      "stateMutability": "view",
      "type": "function"
    },
    {
      "constant": true,
      "inputs": [
        {
          "name": "_pubKey",
          "type": "bytes"
        }
      ],
      "name": "pubKeyToEthereumAddress",
      "outputs": [
        {
          "name": "",
          "type": "address"
        }
      ],
      "payable": false,
      "stateMutability": "pure",
      "type": "function"
    },
    {
      "constant": true,
      "inputs": [],
      "name": "rootUtxoMerkleTreeHash",
      "outputs": [
        {
          "name": "",
          "type": "bytes32"
        }
      ],
      "payable": false,
      "stateMutability": "view",
      "type": "function"
    },
    {
      "constant": true,
      "inputs": [
        {
          "name": "owner",
          "type": "address"
        }
      ],
      "name": "balanceOf",
      "outputs": [
        {
          "name": "",
          "type": "uint256"
        }
      ],
      "payable": false,
      "stateMutability": "view",
      "type": "function"
    },
    {
      "constant": true,
      "inputs": [
        {
          "name": "_merkleLeafHash",
          "type": "bytes32"
        },
        {
          "name": "_proof",
          "type": "bytes32[]"
        }
      ],
      "name": "canRedeemUtxoHash",
      "outputs": [
        {
          "name": "",
          "type": "bool"
        }
      ],
      "payable": false,
      "stateMutability": "view",
      "type": "function"
    },
    {
      "constant": true,
      "inputs": [
        {
          "name": "",
          "type": "address"
        },
        {
          "name": "",
          "type": "uint256"
        }
      ],
      "name": "staked",
      "outputs": [
        {
          "name": "amount",
          "type": "uint256"
        },
        {
          "name": "stakeShares",
          "type": "uint256"
        },
        {
          "name": "stakeTime",
          "type": "uint256"
        },
        {
          "name": "unlockTime",
          "type": "uint256"
        }
      ],
      "payable": false,
      "stateMutability": "view",
      "type": "function"
    },
    {
      "constant": true,
      "inputs": [],
      "name": "geTrueSupply",
      "outputs": [
        {
          "name": "",
          "type": "uint256"
        }
      ],
      "payable": false,
      "stateMutability": "view",
      "type": "function"
    },
    {
      "constant": true,
      "inputs": [],
      "name": "symbol",
      "outputs": [
        {
          "name": "",
          "type": "string"
        }
      ],
      "payable": false,
      "stateMutability": "view",
      "type": "function"
    },
    {
      "constant": false,
      "inputs": [
        {
          "name": "spender",
          "type": "address"
        },
        {
          "name": "subtractedValue",
          "type": "uint256"
        }
      ],
      "name": "decreaseAllowance",
      "outputs": [
        {
          "name": "",
          "type": "bool"
        }
      ],
      "payable": false,
      "stateMutability": "nonpayable",
      "type": "function"
    },
    {
      "constant": false,
      "inputs": [
        {
          "name": "to",
          "type": "address"
        },
        {
          "name": "value",
          "type": "uint256"
        }
      ],
      "name": "transfer",
      "outputs": [
        {
          "name": "",
          "type": "bool"
        }
      ],
      "payable": false,
      "stateMutability": "nonpayable",
      "type": "function"
    },
    {
      "constant": true,
      "inputs": [],
      "name": "isClaimsPeriod",
      "outputs": [
        {
          "name": "",
          "type": "bool"
        }
      ],
      "payable": false,
      "stateMutability": "view",
      "type": "function"
    },
    {
      "constant": true,
      "inputs": [
        {
          "name": "_proof",
          "type": "bytes32[]"
        },
        {
          "name": "_merkleLeafHash",
          "type": "bytes32"
        }
      ],
      "name": "verifyProof",
      "outputs": [
        {
          "name": "",
          "type": "bool"
        }
      ],
      "payable": false,
      "stateMutability": "view",
      "type": "function"
    },
    {
      "constant": true,
      "inputs": [
        {
          "name": "_addr",
          "type": "address"
        },
        {
          "name": "_pubKey",
          "type": "bytes"
        },
        {
          "name": "_v",
          "type": "uint8"
        },
        {
          "name": "_r",
          "type": "bytes32"
        },
        {
          "name": "_s",
          "type": "bytes32"
        }
      ],
      "name": "ecdsaVerify",
      "outputs": [
        {
          "name": "",
          "type": "bool"
        }
      ],
      "payable": false,
      "stateMutability": "pure",
      "type": "function"
    },
    {
      "constant": true,
      "inputs": [
        {
          "name": "_originalAddress",
          "type": "bytes20"
        },
        {
          "name": "_satoshis",
          "type": "uint256"
        },
        {
          "name": "_proof",
          "type": "bytes32[]"
        }
      ],
      "name": "canRedeemUtxo",
      "outputs": [
        {
          "name": "",
          "type": "bool"
        }
      ],
      "payable": false,
      "stateMutability": "view",
      "type": "function"
    },
    {
      "constant": true,
      "inputs": [
        {
          "name": "owner",
          "type": "address"
        },
        {
          "name": "spender",
          "type": "address"
        }
      ],
      "name": "allowance",
      "outputs": [
        {
          "name": "",
          "type": "uint256"
        }
      ],
      "payable": false,
      "stateMutability": "view",
      "type": "function"
    },
    {
      "constant": true,
      "inputs": [
        {
          "name": "_pubKey",
          "type": "bytes"
        },
        {
          "name": "_isCompressed",
          "type": "bool"
        }
      ],
      "name": "pubKeyToBitcoinAddress",
      "outputs": [
        {
          "name": "",
          "type": "bytes20"
        }
      ],
      "payable": false,
      "stateMutability": "pure",
      "type": "function"
    },
    {
      "constant": true,
      "inputs": [],
      "name": "totalRedeemed",
      "outputs": [
        {
          "name": "",
          "type": "uint256"
        }
      ],
      "payable": false,
      "stateMutability": "view",
      "type": "function"
    },
    {
      "anonymous": false,
      "inputs": [
        {
          "indexed": true,
          "name": "from",
          "type": "address"
        },
        {
          "indexed": true,
          "name": "to",
          "type": "address"
        },
        {
          "indexed": false,
          "name": "value",
          "type": "uint256"
        }
      ],
      "name": "Transfer",
      "type": "event"
    },
    {
      "anonymous": false,
      "inputs": [
        {
          "indexed": true,
          "name": "owner",
          "type": "address"
        },
        {
          "indexed": true,
          "name": "spender",
          "type": "address"
        },
        {
          "indexed": false,
          "name": "value",
          "type": "uint256"
        }
      ],
      "name": "Approval",
      "type": "event"
    },
    {
      "constant": true,
      "inputs": [
        {
          "name": "_amount",
          "type": "uint256"
        },
        {
          "name": "_stakeTime",
          "type": "uint256"
        },
        {
          "name": "_unlockTime",
          "type": "uint256"
        }
      ],
      "name": "calculateBonuses",
      "outputs": [
        {
          "name": "",
          "type": "uint256"
        }
      ],
      "payable": false,
      "stateMutability": "view",
      "type": "function"
    },
    {
      "constant": true,
      "inputs": [
        {
          "name": "_stakeShares",
          "type": "uint256"
        },
        {
          "name": "_stakeTime",
          "type": "uint256"
        },
        {
          "name": "_unlockTime",
          "type": "uint256"
        }
      ],
      "name": "calculatePayout",
      "outputs": [
        {
          "name": "",
          "type": "uint256"
        }
      ],
      "payable": false,
      "stateMutability": "view",
      "type": "function"
    },
    {
      "constant": false,
      "inputs": [
        {
          "name": "_satoshis",
          "type": "uint256"
        },
        {
          "name": "_periods",
          "type": "uint256"
        }
      ],
      "name": "startStake",
      "outputs": [],
      "payable": false,
      "stateMutability": "nonpayable",
      "type": "function"
    },
    {
      "constant": false,
      "inputs": [
        {
          "name": "_stakeIndex",
          "type": "uint256"
        }
      ],
      "name": "endStake",
      "outputs": [],
      "payable": false,
      "stateMutability": "nonpayable",
      "type": "function"
    }
  ],
  "bytecode": "0x60806040526000600555600060065534801561001a57600080fd5b506136668061002a6000396000f3006080604052600436106101ac576000357c0100000000000000000000000000000000000000000000000000000000900463ffffffff16806306fdde03146101b15780630867c0ad14610241578063095ea7b3146102df5780630caee2ca146103445780630cbe28d614610399578063128bfcae146103c65780631765f4bf146103fd57806318160ddd146104285780631aa024b7146104535780631ee752701461047e57806323b872dd146104955780632c3ee88c1461051a578063313ce56714610562578063395093511461058d5780634d3c8bc8146105f25780634ecd81b31461060957806352aa3e6c146107285780635418796c146107535780636aaf67e2146107fc57806370a082311461082f57806381cd84b9146108865780638f169816146109125780638f903a551461098857806395d89b41146109b35780639eb6f05d14610a43578063a457c2d714610a98578063a9059cbb14610afd578063adf71f1f14610b62578063b80ac7df14610b91578063ce267b5514610c1d578063cfc2334e14610ce7578063dd62ed3e14610d88578063e073ef6914610dff578063f35dad4014610ea6575b600080fd5b3480156101bd57600080fd5b506101c6610ed1565b6040518080602001828103825283818151815260200191508051906020019080838360005b838110156102065780820151818401526020810190506101eb565b50505050905090810190601f1680156102335780820380516001836020036101000a031916815260200191505b509250505060405180910390f35b34801561024d57600080fd5b506102c56004803603810190808035600019169060200190929190803560ff16906020019092919080356000191690602001909291908035600019169060200190929190803573ffffffffffffffffffffffffffffffffffffffff169060200190929190803515159060200190929190505050610f0a565b604051808215151515815260200191505060405180910390f35b3480156102eb57600080fd5b5061032a600480360381019080803573ffffffffffffffffffffffffffffffffffffffff169060200190929190803590602001909291905050506110f5565b604051808215151515815260200191505060405180910390f35b34801561035057600080fd5b50610383600480360381019080803590602001909291908035906020019092919080359060200190929190505050611222565b6040518082815260200191505060405180910390f35b3480156103a557600080fd5b506103c4600480360381019080803590602001909291905050506112d5565b005b3480156103d257600080fd5b506103fb6004803603810190808035906020019092919080359060200190929190505050611545565b005b34801561040957600080fd5b50610412611746565b6040518082815260200191505060405180910390f35b34801561043457600080fd5b5061043d61174c565b6040518082815260200191505060405180910390f35b34801561045f57600080fd5b50610468611756565b6040518082815260200191505060405180910390f35b34801561048a57600080fd5b5061049361175c565b005b3480156104a157600080fd5b50610500600480360381019080803573ffffffffffffffffffffffffffffffffffffffff169060200190929190803573ffffffffffffffffffffffffffffffffffffffff169060200190929190803590602001909291905050506118c8565b604051808215151515815260200191505060405180910390f35b34801561052657600080fd5b5061054560048036038101908080359060200190929190505050611a7a565b604051808381526020018281526020019250505060405180910390f35b34801561056e57600080fd5b50610577611aa3565b6040518082815260200191505060405180910390f35b34801561059957600080fd5b506105d8600480360381019080803573ffffffffffffffffffffffffffffffffffffffff16906020019092919080359060200190929190505050611aa8565b604051808215151515815260200191505060405180910390f35b3480156105fe57600080fd5b50610607611cdf565b005b34801561061557600080fd5b506107126004803603810190808035906020019092919080359060200190820180359060200190808060200260200160405190810160405280939291908181526020018383602002808284378201915050505050509192919290803590602001908201803590602001908080601f0160208091040260200160405190810160405280939291908181526020018383808284378201915050505050509192919290803515159060200190929190803560ff16906020019092919080356000191690602001909291908035600019169060200190929190803573ffffffffffffffffffffffffffffffffffffffff169060200190929190505050611dbb565b6040518082815260200191505060405180910390f35b34801561073457600080fd5b5061073d612153565b6040518082815260200191505060405180910390f35b34801561075f57600080fd5b506107ba600480360381019080803590602001908201803590602001908080601f0160208091040260200160405190810160405280939291908181526020018383808284378201915050505050509192919290505050612159565b604051808273ffffffffffffffffffffffffffffffffffffffff1673ffffffffffffffffffffffffffffffffffffffff16815260200191505060405180910390f35b34801561080857600080fd5b506108116121df565b60405180826000191660001916815260200191505060405180910390f35b34801561083b57600080fd5b50610870600480360381019080803573ffffffffffffffffffffffffffffffffffffffff1690602001909291905050506121e5565b6040518082815260200191505060405180910390f35b34801561089257600080fd5b506108f860048036038101908080356000191690602001909291908035906020019082018035906020019080806020026020016040519081016040528093929190818152602001838360200280828437820191505050505050919291929050505061222d565b604051808215151515815260200191505060405180910390f35b34801561091e57600080fd5b5061095d600480360381019080803573ffffffffffffffffffffffffffffffffffffffff16906020019092919080359060200190929190505050612278565b6040518085815260200184815260200183815260200182815260200194505050505060405180910390f35b34801561099457600080fd5b5061099d6122c4565b6040518082815260200191505060405180910390f35b3480156109bf57600080fd5b506109c86122e7565b6040518080602001828103825283818151815260200191508051906020019080838360005b83811015610a085780820151818401526020810190506109ed565b50505050905090810190601f168015610a355780820380516001836020036101000a031916815260200191505b509250505060405180910390f35b348015610a4f57600080fd5b50610a82600480360381019080803590602001909291908035906020019092919080359060200190929190505050612320565b6040518082815260200191505060405180910390f35b348015610aa457600080fd5b50610ae3600480360381019080803573ffffffffffffffffffffffffffffffffffffffff1690602001909291908035906020019092919050505061235f565b604051808215151515815260200191505060405180910390f35b348015610b0957600080fd5b50610b48600480360381019080803573ffffffffffffffffffffffffffffffffffffffff16906020019092919080359060200190929190505050612596565b604051808215151515815260200191505060405180910390f35b348015610b6e57600080fd5b50610b776125ad565b604051808215151515815260200191505060405180910390f35b348015610b9d57600080fd5b50610c036004803603810190808035906020019082018035906020019080806020026020016040519081016040528093929190818152602001838360200280828437820191505050505050919291929080356000191690602001909291905050506125bf565b604051808215151515815260200191505060405180910390f35b348015610c2957600080fd5b50610ccd600480360381019080803573ffffffffffffffffffffffffffffffffffffffff169060200190929190803590602001908201803590602001908080601f0160208091040260200160405190810160405280939291908181526020018383808284378201915050505050509192919290803560ff169060200190929190803560001916906020019092919080356000191690602001909291905050506125d6565b604051808215151515815260200191505060405180910390f35b348015610cf357600080fd5b50610d6e60048036038101908080356bffffffffffffffffffffffff1916906020019092919080359060200190929190803590602001908201803590602001908080602002602001604051908101604052809392919081815260200183836020028082843782019150505050505091929192905050506126f5565b604051808215151515815260200191505060405180910390f35b348015610d9457600080fd5b50610de9600480360381019080803573ffffffffffffffffffffffffffffffffffffffff169060200190929190803573ffffffffffffffffffffffffffffffffffffffff1690602001909291905050506127b6565b6040518082815260200191505060405180910390f35b348015610e0b57600080fd5b50610e72600480360381019080803590602001908201803590602001908080601f016020809104026020016040519081016040528093929190818152602001838380828437820191505050505050919291929080351515906020019092919050505061283d565b60405180826bffffffffffffffffffffffff19166bffffffffffffffffffffffff1916815260200191505060405180910390f35b348015610eb257600080fd5b50610ebb612bfc565b6040518082815260200191505060405180910390f35b6040805190810160405280600a81526020017f426974636f696e4865780000000000000000000000000000000000000000000081525081565b6000806060831515610f1e57889150611038565b6040805190810160405280601c81526020017f19457468657265756d205369676e6564204d6573736167653a0a333200000000815250905080896040516020018083805190602001908083835b602083101515610f905780518252602082019150602081019050602083039250610f6b565b6001836020036101000a0380198251168184511680821785525050505050509050018260001916600019168152602001925050506040516020818303038152906040526040518082805190602001908083835b6020831015156110085780518252602082019150602081019050602083039250610fe3565b6001836020036101000a038019825116818451168082178552505050505050905001915050604051809103902091505b8473ffffffffffffffffffffffffffffffffffffffff166001838a8a8a604051600081526020016040526040518085600019166000191681526020018460ff1660ff1681526020018360001916600019168152602001826000191660001916815260200194505050505060206040516020810390808403906000865af11580156110c6573d6000803e3d6000fd5b5050506020604051035173ffffffffffffffffffffffffffffffffffffffff1614925050509695505050505050565b60008073ffffffffffffffffffffffffffffffffffffffff168373ffffffffffffffffffffffffffffffffffffffff161415151561113257600080fd5b81600160003373ffffffffffffffffffffffffffffffffffffffff1673ffffffffffffffffffffffffffffffffffffffff16815260200190815260200160002060008573ffffffffffffffffffffffffffffffffffffffff1673ffffffffffffffffffffffffffffffffffffffff168152602001908152602001600020819055508273ffffffffffffffffffffffffffffffffffffffff163373ffffffffffffffffffffffffffffffffffffffff167f8c5be1e5ebec7d5bd14f71427d1e84f3dd0314c0f7b2291e5b200ac8c7c3b925846040518082815260200191505060405180910390a36001905092915050565b6000806000806000806000945061123888612c02565b935061124387612c02565b92508391505b828210156112c6576112a2600d6000848152602001908152602001600020600101546112948b600d600087815260200190815260200160002060000154612c3590919063ffffffff16565b612c7390919063ffffffff16565b90506112b78186612c9d90919063ffffffff16565b94508180600101925050611249565b84955050505050509392505050565b600080600080600080601060003373ffffffffffffffffffffffffffffffffffffffff1673ffffffffffffffffffffffffffffffffffffffff1681526020019081526020016000208781548110151561132a57fe5b90600052602060002090600402019550611379611354876000015488600201548960030154612320565b61136b886001015489600201548a60030154611222565b612c9d90919063ffffffff16565b9450856003015442111561151c576113bd60026113af88600201546113a18a60030154612cbe565b612cf190919063ffffffff16565b612c7390919063ffffffff16565b935060096113e487600201546113d68960030154612cbe565b612cf190919063ffffffff16565b10156113ef57600493505b602461141487600201546114068960030154612cbe565b612cf190919063ffffffff16565b111561141f57601293505b611447611438620d2f0086612c3590919063ffffffff16565b42612cf190919063ffffffff16565b925085600201548311156114b95761148161146e620d2f0086612c3590919063ffffffff16565b8760020154612c9d90919063ffffffff16565b90506114b261149587600001544284612320565b6114a488600101544285611222565b612c9d90919063ffffffff16565b91506114eb565b6114e86114cb87600001548542612320565b6114da88600101548642611222565b612c9d90919063ffffffff16565b91505b61150082600c54612c9d90919063ffffffff16565b600c819055506115198286612cf190919063ffffffff16565b94505b61153c33611537878960000154612c9d90919063ffffffff16565b612d12565b50505050505050565b6000806000611572611563620d2f0086612c3590919063ffffffff16565b42612c9d90919063ffffffff16565b92508461157e336121e5565b1015151561158b57600080fd5b6115a26312cc030042612c9d90919063ffffffff16565b83111515156115b057600080fd5b6115c6620d2f0042612c9d90919063ffffffff16565b83101515156115d457600080fd5b6115dc611cdf565b6115e461175c565b61160c6101686115fe60c887612c3590919063ffffffff16565b612c7390919063ffffffff16565b915061164661163760646116298589612c3590919063ffffffff16565b612c7390919063ffffffff16565b86612c9d90919063ffffffff16565b9050601060003373ffffffffffffffffffffffffffffffffffffffff1673ffffffffffffffffffffffffffffffffffffffff16815260200190815260200160002060806040519081016040528087815260200183815260200142815260200185815250908060018154018082558091505090600182039060005260206000209060040201600090919290919091506000820151816000015560208201518160010155604082015181600201556060820151816003015550505061171485601154612c9d90919063ffffffff16565b60118190555061172f81601254612c9d90919063ffffffff16565b60128190555061173f3386612e50565b5050505050565b60115481565b6000600254905090565b60125481565b60005b600a5461176a612fdb565b11156118c55761178c61041661177e612feb565b612c7390919063ffffffff16565b90506117966125ad565b15611839576118366117da600a6117cc600f546117be60055487612c3590919063ffffffff16565b612c7390919063ffffffff16565b612c7390919063ffffffff16565b611828611819600a61180b600e546117fd60065489612c3590919063ffffffff16565b612c7390919063ffffffff16565b612c7390919063ffffffff16565b84612c9d90919063ffffffff16565b612c9d90919063ffffffff16565b90505b61184e600c5482612c9d90919063ffffffff16565b90506000600c819055506040805190810160405280828152602001601154815250600d60006118896001600a54612c9d90919063ffffffff16565b81526020019081526020016000206000820151816000015560208201518160010155905050600a6000815480929190600101919050555061175f565b50565b6000600160008573ffffffffffffffffffffffffffffffffffffffff1673ffffffffffffffffffffffffffffffffffffffff16815260200190815260200160002060003373ffffffffffffffffffffffffffffffffffffffff1673ffffffffffffffffffffffffffffffffffffffff16815260200190815260200160002054821115151561195557600080fd5b6119e482600160008773ffffffffffffffffffffffffffffffffffffffff1673ffffffffffffffffffffffffffffffffffffffff16815260200190815260200160002060003373ffffffffffffffffffffffffffffffffffffffff1673ffffffffffffffffffffffffffffffffffffffff16815260200190815260200160002054612cf190919063ffffffff16565b600160008673ffffffffffffffffffffffffffffffffffffffff1673ffffffffffffffffffffffffffffffffffffffff16815260200190815260200160002060003373ffffffffffffffffffffffffffffffffffffffff1673ffffffffffffffffffffffffffffffffffffffff16815260200190815260200160002081905550611a6f848484613016565b600190509392505050565b600080600080611a898561322f565b9150611a9482613278565b90508181935093505050915091565b600881565b60008073ffffffffffffffffffffffffffffffffffffffff168373ffffffffffffffffffffffffffffffffffffffff1614151515611ae557600080fd5b611b7482600160003373ffffffffffffffffffffffffffffffffffffffff1673ffffffffffffffffffffffffffffffffffffffff16815260200190815260200160002060008673ffffffffffffffffffffffffffffffffffffffff1673ffffffffffffffffffffffffffffffffffffffff16815260200190815260200160002054612c9d90919063ffffffff16565b600160003373ffffffffffffffffffffffffffffffffffffffff1673ffffffffffffffffffffffffffffffffffffffff16815260200190815260200160002060008573ffffffffffffffffffffffffffffffffffffffff1673ffffffffffffffffffffffffffffffffffffffff168152602001908152602001600020819055508273ffffffffffffffffffffffffffffffffffffffff163373ffffffffffffffffffffffffffffffffffffffff167f8c5be1e5ebec7d5bd14f71427d1e84f3dd0314c0f7b2291e5b200ac8c7c3b925600160003373ffffffffffffffffffffffffffffffffffffffff1673ffffffffffffffffffffffffffffffffffffffff16815260200190815260200160002060008773ffffffffffffffffffffffffffffffffffffffff1673ffffffffffffffffffffffffffffffffffffffff168152602001908152602001600020546040518082815260200191505060405180910390a36001905092915050565b60005b600954611ced6132e0565b1115611db857611d0a600554600f54612cf190919063ffffffff16565b90506040805190810160405280828152602001601154815250600b6000611d3d6001600954612c9d90919063ffffffff16565b81526020019081526020016000206000820151816000015560208201518160010155905050611da1600360009054906101000a900473ffffffffffffffffffffffffffffffffffffffff16611d9c603284612c7390919063ffffffff16565b612d12565b600960008154809291906001019190505550611ce2565b50565b6000806000806000611dcb6125ad565b1515611dd657600080fd5b611de08b8b61283d565b9350838d60405160200180836bffffffffffffffffffffffff19166bffffffffffffffffffffffff19168152601401828152602001925050506040516020818303038152906040526040518082805190602001908083835b602083101515611e5d5780518252602082019150602081019050602083039250611e38565b6001836020036101000a03801982511681845116808217855250505050505090500191505060405180910390209250611e96838d61222d565b1515611ea157600080fd5b611ea9611cdf565b611eb161175c565b611ebe338c8b8b8b6125d6565b1515611ec957600080fd5b600f54611ee183600554612c9d90919063ffffffff16565b11151515611eee57600080fd5b611f038d600554612c9d90919063ffffffff16565b600581905550600160086000856000191660001916815260200190815260200160002060006101000a81548160ff021916908315150217905550611f468d611a7a565b91509150611f6633611f618385612c9d90919063ffffffff16565b612d12565b611f92600360009054906101000a900473ffffffffffffffffffffffffffffffffffffffff1682612d12565b611fa86001600654612c9d90919063ffffffff16565b6006819055503373ffffffffffffffffffffffffffffffffffffffff16600073ffffffffffffffffffffffffffffffffffffffff167fddf252ad1be2c89b69c2b068fc378daa952ba7f163c4a11628f55a4df523b3ef6120118486612c9d90919063ffffffff16565b6040518082815260200191505060405180910390a3600360009054906101000a900473ffffffffffffffffffffffffffffffffffffffff1673ffffffffffffffffffffffffffffffffffffffff16600073ffffffffffffffffffffffffffffffffffffffff167fddf252ad1be2c89b69c2b068fc378daa952ba7f163c4a11628f55a4df523b3ef836040518082815260200191505060405180910390a3600073ffffffffffffffffffffffffffffffffffffffff168673ffffffffffffffffffffffffffffffffffffffff1614151561212e576120ee8683612d12565b61212d600360009054906101000a900473ffffffffffffffffffffffffffffffffffffffff16612128601485612c7390919063ffffffff16565b612d12565b5b6121418183612c9d90919063ffffffff16565b94505050505098975050505050505050565b60065481565b600073ffffffffffffffffffffffffffffffffffffffff826040518082805190602001908083835b6020831015156121a65780518252602082019150602081019050602083039250612181565b6001836020036101000a038019825116818451168082178552505050505050905001915050604051809103902060019004169050919050565b60075481565b60008060008373ffffffffffffffffffffffffffffffffffffffff1673ffffffffffffffffffffffffffffffffffffffff168152602001908152602001600020549050919050565b600080151560086000856000191660001916815260200190815260200160002060009054906101000a900460ff161515148015612270575061226f82846125bf565b5b905092915050565b60106020528160005260406000208181548110151561229357fe5b9060005260206000209060040201600091509150508060000154908060010154908060020154908060030154905084565b60006122e26011546122d461174c565b612c9d90919063ffffffff16565b905090565b6040805190810160405280600381526020017f424858000000000000000000000000000000000000000000000000000000000081525081565b6000806000905061232f6125ad565b15612354576123516123428686866132f0565b82612c9d90919063ffffffff16565b90505b809150509392505050565b60008073ffffffffffffffffffffffffffffffffffffffff168373ffffffffffffffffffffffffffffffffffffffff161415151561239c57600080fd5b61242b82600160003373ffffffffffffffffffffffffffffffffffffffff1673ffffffffffffffffffffffffffffffffffffffff16815260200190815260200160002060008673ffffffffffffffffffffffffffffffffffffffff1673ffffffffffffffffffffffffffffffffffffffff16815260200190815260200160002054612cf190919063ffffffff16565b600160003373ffffffffffffffffffffffffffffffffffffffff1673ffffffffffffffffffffffffffffffffffffffff16815260200190815260200160002060008573ffffffffffffffffffffffffffffffffffffffff1673ffffffffffffffffffffffffffffffffffffffff168152602001908152602001600020819055508273ffffffffffffffffffffffffffffffffffffffff163373ffffffffffffffffffffffffffffffffffffffff167f8c5be1e5ebec7d5bd14f71427d1e84f3dd0314c0f7b2291e5b200ac8c7c3b925600160003373ffffffffffffffffffffffffffffffffffffffff1673ffffffffffffffffffffffffffffffffffffffff16815260200190815260200160002060008773ffffffffffffffffffffffffffffffffffffffff1673ffffffffffffffffffffffffffffffffffffffff168152602001908152602001600020546040518082815260200191505060405180910390a36001905092915050565b60006125a3338484613016565b6001905092915050565b600060326125b96132e0565b10905090565b60006125ce83600754846133b9565b905092915050565b60006126ea600287604051602001808273ffffffffffffffffffffffffffffffffffffffff1673ffffffffffffffffffffffffffffffffffffffff166c010000000000000000000000000281526014019150506040516020818303038152906040526040518082805190602001908083835b60208310151561266d5780518252602082019150602081019050602083039250612648565b6001836020036101000a0380198251168184511680821785525050505050509050019150506020604051808303816000865af11580156126b1573d6000803e3d6000fd5b5050506040513d60208110156126c657600080fd5b81019080805190602001909291905050508585856126e38a612159565b6000610f0a565b905095945050505050565b600080848460405160200180836bffffffffffffffffffffffff19166bffffffffffffffffffffffff19168152601401828152602001925050506040516020818303038152906040526040518082805190602001908083835b602083101515612773578051825260208201915060208101905060208303925061274e565b6001836020036101000a038019825116818451168082178552505050505050905001915050604051809103902090506127ac818461222d565b9150509392505050565b6000600160008473ffffffffffffffffffffffffffffffffffffffff1673ffffffffffffffffffffffffffffffffffffffff16815260200190815260200160002060008373ffffffffffffffffffffffffffffffffffffffff1673ffffffffffffffffffffffffffffffffffffffff16815260200190815260200160002054905092915050565b60008060008061284e86600061355c565b60019004925061285f86602061355c565b6001900491508415612a3b57600060028381151561287957fe5b0614612886576003612889565b60025b9050600360028285604051602001808360ff1660ff167f0100000000000000000000000000000000000000000000000000000000000000028152600101828152602001925050506040516020818303038152906040526040518082805190602001908083835b60208310151561291457805182526020820191506020810190506020830392506128ef565b6001836020036101000a0380198251168184511680821785525050505050509050019150506020604051808303816000865af1158015612958573d6000803e3d6000fd5b5050506040513d602081101561296d57600080fd5b81019080805190602001909291905050506040516020018082600019166000191681526020019150506040516020818303038152906040526040518082805190602001908083835b6020831015156129da57805182526020820191506020810190506020830392506129b5565b6001836020036101000a0380198251168184511680821785525050505050509050019150506020604051808303816000865af1158015612a1e573d6000803e3d6000fd5b505050604051516c01000000000000000000000000029350612bf3565b6004905060036002828585604051602001808460ff1660ff167f010000000000000000000000000000000000000000000000000000000000000002815260010183815260200182815260200193505050506040516020818303038152906040526040518082805190602001908083835b602083101515612ad05780518252602082019150602081019050602083039250612aab565b6001836020036101000a0380198251168184511680821785525050505050509050019150506020604051808303816000865af1158015612b14573d6000803e3d6000fd5b5050506040513d6020811015612b2957600080fd5b81019080805190602001909291905050506040516020018082600019166000191681526020019150506040516020818303038152906040526040518082805190602001908083835b602083101515612b965780518252602082019150602081019050602083039250612b71565b6001836020036101000a0380198251168184511680821785525050505050509050019150506020604051808303816000865af1158015612bda573d6000803e3d6000fd5b505050604051516c010000000000000000000000000293505b50505092915050565b60055481565b6000612c2e620d2f00612c2060045485612cf190919063ffffffff16565b612c7390919063ffffffff16565b9050919050565b6000806000841415612c4a5760009150612c6c565b8284029050828482811515612c5b57fe5b04141515612c6857600080fd5b8091505b5092915050565b600080600083111515612c8557600080fd5b8284811515612c9057fe5b0490508091505092915050565b6000808284019050838110151515612cb457600080fd5b8091505092915050565b6000612cea62093a80612cdc60045485612cf190919063ffffffff16565b612c7390919063ffffffff16565b9050919050565b600080838311151515612d0357600080fd5b82840390508091505092915050565b60008273ffffffffffffffffffffffffffffffffffffffff1614151515612d3857600080fd5b612d4d81600254612c9d90919063ffffffff16565b600281905550612da4816000808573ffffffffffffffffffffffffffffffffffffffff1673ffffffffffffffffffffffffffffffffffffffff16815260200190815260200160002054612c9d90919063ffffffff16565b6000808473ffffffffffffffffffffffffffffffffffffffff1673ffffffffffffffffffffffffffffffffffffffff168152602001908152602001600020819055508173ffffffffffffffffffffffffffffffffffffffff16600073ffffffffffffffffffffffffffffffffffffffff167fddf252ad1be2c89b69c2b068fc378daa952ba7f163c4a11628f55a4df523b3ef836040518082815260200191505060405180910390a35050565b60008273ffffffffffffffffffffffffffffffffffffffff1614151515612e7657600080fd5b6000808373ffffffffffffffffffffffffffffffffffffffff1673ffffffffffffffffffffffffffffffffffffffff168152602001908152602001600020548111151515612ec357600080fd5b612ed881600254612cf190919063ffffffff16565b600281905550612f2f816000808573ffffffffffffffffffffffffffffffffffffffff1673ffffffffffffffffffffffffffffffffffffffff16815260200190815260200160002054612cf190919063ffffffff16565b6000808473ffffffffffffffffffffffffffffffffffffffff1673ffffffffffffffffffffffffffffffffffffffff16815260200190815260200160002081905550600073ffffffffffffffffffffffffffffffffffffffff168273ffffffffffffffffffffffffffffffffffffffff167fddf252ad1be2c89b69c2b068fc378daa952ba7f163c4a11628f55a4df523b3ef836040518082815260200191505060405180910390a35050565b6000612fe642612c02565b905090565b600080612ff661174c565b9050600f5461300361174c565b101561300f57600f5490505b8091505090565b6000808473ffffffffffffffffffffffffffffffffffffffff1673ffffffffffffffffffffffffffffffffffffffff16815260200190815260200160002054811115151561306357600080fd5b600073ffffffffffffffffffffffffffffffffffffffff168273ffffffffffffffffffffffffffffffffffffffff161415151561309f57600080fd5b6130f0816000808673ffffffffffffffffffffffffffffffffffffffff1673ffffffffffffffffffffffffffffffffffffffff16815260200190815260200160002054612cf190919063ffffffff16565b6000808573ffffffffffffffffffffffffffffffffffffffff1673ffffffffffffffffffffffffffffffffffffffff16815260200190815260200160002081905550613183816000808573ffffffffffffffffffffffffffffffffffffffff1673ffffffffffffffffffffffffffffffffffffffff16815260200190815260200160002054612c9d90919063ffffffff16565b6000808473ffffffffffffffffffffffffffffffffffffffff1673ffffffffffffffffffffffffffffffffffffffff168152602001908152602001600020819055508173ffffffffffffffffffffffffffffffffffffffff168373ffffffffffffffffffffffffffffffffffffffff167fddf252ad1be2c89b69c2b068fc378daa952ba7f163c4a11628f55a4df523b3ef836040518082815260200191505060405180910390a3505050565b6000613271606461326361325460026132466132e0565b612c3590919063ffffffff16565b85612c3590919063ffffffff16565b612c7390919063ffffffff16565b9050919050565b6000806000606491506132ae61329f60026132916132e0565b612c3590919063ffffffff16565b83612cf190919063ffffffff16565b90506132d76103e86132c98387612c3590919063ffffffff16565b612c7390919063ffffffff16565b92505050919050565b60006132eb42612cbe565b905090565b600080600080600080600080600096506133098a612cbe565b955060008614613319578561331c565b60015b945061332789612cbe565b935060328411613337578361333a565b60325b92508491505b828210156133a85761338460326133768d600b600087815260200190815260200160002060000154612c3590919063ffffffff16565b612c7390919063ffffffff16565b90506133998188612c9d90919063ffffffff16565b96508180600101925050613340565b869750505050505050509392505050565b600080600080849250600091505b86518210156135455786828151811015156133de57fe5b90602001906020020151905080600019168360001916101561349b5782816040516020018083600019166000191681526020018260001916600019168152602001925050506040516020818303038152906040526040518082805190602001908083835b6020831015156134675780518252602082019150602081019050602083039250613442565b6001836020036101000a03801982511681845116808217855250505050505090500191505060405180910390209250613538565b80836040516020018083600019166000191681526020018260001916600019168152602001925050506040516020818303038152906040526040518082805190602001908083835b60208310151561350857805182526020820191506020810190506020830392506134e3565b6001836020036101000a038019825116818451168082178552505050505050905001915050604051809103902092505b81806001019250506133c7565b856000191683600019161493505050509392505050565b60008060008090505b602081101561362f57600881028585830181518110151561358257fe5b9060200101517f010000000000000000000000000000000000000000000000000000000000000090047f0100000000000000000000000000000000000000000000000000000000000000027effffffffffffffffffffffffffffffffffffffffffffffffffffffffffffff19167fff0000000000000000000000000000000000000000000000000000000000000060010216600019169060020a9004821891508080600101915050613565565b8192505050929150505600a165627a7a723058201c0afd2b221c8806cf96a6c9bf2065aba7328416faaee1b55965618046730cbc0029",
  "source": "pragma solidity ^0.4.24;\n\nimport \"./UTXORedeemableToken.sol\";\nimport \"../node_modules/openzeppelin-solidity/contracts/math/SafeMath.sol\";\n\ncontract StakeableToken is UTXORedeemableToken {\n  using SafeMath for uint256;\n\n  /**\n   * @dev Calculates weareallsatoshi bonus for a given stake\n   * @param _amount param of stake to calculate bonuses for\n   * @param _stakeTime param of stake to calculate bonuses for\n   * @param _unlockTime param of stake to calculate bonuses for\n   * @return bonus amount\n   */\n  function calculateWeAreAllSatoshiRewards(\n    uint256 _amount,\n    uint256 _stakeTime,\n    uint256 _unlockTime\n  ) private view returns (uint256) {\n    uint256 _bonus = 0;\n\n    /* Calculate what week stake was opened */\n    uint256 _startWeekCandidate = timestampToWeeks(_stakeTime);\n\n    /* Bonuses are not deducted nor given before end of first week of contract launching */\n    uint256 _startWeek = _startWeekCandidate == 0 ? 1 : _startWeekCandidate;\n\n    /* Calculate last week of stake */\n    uint256 _endWeek = timestampToWeeks(_unlockTime);\n\n    uint256 _rewardableEndWeek = _endWeek > 50 ? 50 : _endWeek;\n\n    /* Award 2% of unclaimed coins at end of every week - We intentionally overshoot to compensate for reduction from late claim scaling */\n    for (uint256 _i = _startWeek; _i < _rewardableEndWeek; _i++) {\n      /* Calculate what proportion of unclaimed coins stake is entitled to, and calculate 2% of it (div 50) */\n      uint256 _satoshiRewardWeek = weeklyData[_i].unclaimedCoins.mul(_amount).div(50);\n\n      /* Add to tally */\n      _bonus = _bonus.add(_satoshiRewardWeek);\n    }\n\n    return _bonus;\n  }\n  \n  /**\n   * @dev PUBLIC FACING: Calculates total bonuses for a given stake\n   * @param _amount param of stake to calculate bonuses for\n   * @param _stakeTime param of stake to calculate bonuses for\n   * @param _unlockTime param of stake to calculate bonuses for\n   * @return bonus amount\n   */\n  function calculateBonuses(\n    uint256 _amount,\n    uint256 _stakeTime,\n    uint256 _unlockTime\n  ) public view returns (uint256) {\n    uint256 _bonus = 0;\n    if (isClaimsPeriod()) {\n      _bonus = _bonus.add(calculateWeAreAllSatoshiRewards(\n        _amount,\n        _stakeTime,\n        _unlockTime\n      ));\n    }\n    return _bonus;\n  }\n\n  /**\n   * @dev PUBLIC FACING: Calculates stake payouts for a given stake\n   * @param _stakeShares param of stake to calculate bonuses for\n   * @param _stakeTime param of stake to calculate bonuses for\n   * @param _unlockTime param of stake to calculate bonuses for\n   * @return payout amount\n   */\n  function calculatePayout(\n    uint256 _stakeShares,\n    uint256 _stakeTime,\n    uint256 _unlockTime\n  ) public view returns (uint256) {\n    uint256 _payout = 0;\n\n    /* Calculate what period stake was opened */\n    uint256 _startPeriod = timestampToPeriods(_stakeTime);\n\n    /* Calculate what period stake was closed */\n    uint256 _endPeriod = timestampToPeriods(_unlockTime);\n\n    /* Loop though each period and tally payout */\n    for (uint256 _i = _startPeriod; _i < _endPeriod; _i++) {\n      /* Calculate payout from period */\n      uint256 _periodPayout = periodData[_i].payoutRoundAmount.mul(_stakeShares).div(periodData[_i].totalStaked);\n\n      /* Add to tally */\n      _payout = _payout.add(_periodPayout);\n    }\n\n    return _payout;\n  }\n\n  /**\n   * @dev PUBLIC FACING: Open a stake\n   * @param _satoshis Amount of satoshi to stake\n   * @param _periods Number of 10 day periods to stake\n   */\n  function startStake(\n    uint256 _satoshis,\n    uint256 _periods\n  ) external {\n    /* Calculate Unlock time */\n    uint256 _unlockTime = block.timestamp.add(_periods.mul(oneInterestPeriod));\n\n    /* Make sure staker has enough funds */\n    require(balanceOf(msg.sender) >= _satoshis);\n    \n    /* ensure that unlock time is not more than approx 10 years */\n    require(_unlockTime <= block.timestamp.add(maxStakingTime));\n\n    /* ensure that unlock time is more than 10 days */\n    require(_unlockTime >= block.timestamp.add(oneInterestPeriod));\n\n    /* Check if log data needs to be updated */\n    storeWeeklyData();\n    storePeriodData();\n\n    /* Calculate stake shares */\n    uint256 _sharesModifier = _periods.mul(200).div(360); // 0.55% bonus shares for each extra period staked\n    uint256 _stakeShares = _satoshis.add(_satoshis.mul(_sharesModifier).div(100));\n\n    /* Create Stake */\n    staked[msg.sender].push(\n      StakeStruct(\n        _satoshis,\n        _stakeShares,\n        block.timestamp,\n        _unlockTime\n      )\n    );\n\n    /* Add staked coins to global stake counter */\n    totalStakedCoins = totalStakedCoins.add(_satoshis);\n\n    /* Add staked shares to global stake counter */\n    totalStakeShares = totalStakeShares.add(_stakeShares);\n\n    /* Remove staked coins */\n    _burn(msg.sender, _satoshis);\n  }\n\n  /**\n   * @dev PUBLIC FACING: Closes a stake\n   * @notice SafeMath prevents any cases where these calculations go below 0, effectively disabling emergency unstaking for these cases\n   * @param _stakeIndex Index of stake to close\n   */\n  function endStake(\n    uint256 _stakeIndex\n  ) external {\n    StakeStruct storage _stake = staked[msg.sender][_stakeIndex];\n    \n    /* Calculate Payout */\n    uint256 _payout = calculatePayout(\n      _stake.stakeShares,\n      _stake.stakeTime,\n      _stake.unlockTime\n    ).add(calculateBonuses(\n      _stake.amount,\n      _stake.stakeTime,\n      _stake.unlockTime\n    ));\n\n    /* Early Unstake Penalty */\n    if (block.timestamp > _stake.unlockTime) {\n      /* Calculate periods to penalise for early unstaking */\n      uint256 _penaltyPeriods = timestampToWeeks(_stake.unlockTime).sub(_stake.stakeTime).div(2);\n      if (timestampToWeeks(_stake.unlockTime).sub(_stake.stakeTime) < 9) {\n        _penaltyPeriods = 4;\n      }\n      if (timestampToWeeks(_stake.unlockTime).sub(_stake.stakeTime) > 36) {\n        _penaltyPeriods = 18;\n      }\n\n      /* Calculate start of penalty period */\n      uint256 _penaltyStart = block.timestamp.sub(_penaltyPeriods.mul(oneInterestPeriod));\n\n      uint256 _penalty;\n\n      if (_penaltyStart > _stake.stakeTime) {\n        /* If stake has already served more than penalty periods, take penatly from start */\n        uint256 _penaltyEnd = _stake.stakeTime.add(_penaltyPeriods.mul(oneInterestPeriod));\n        _penalty = calculatePayout(\n          _stake.stakeShares,\n          block.timestamp,\n          _penaltyEnd\n        ).add(calculateBonuses(\n          _stake.amount,\n          block.timestamp,\n          _penaltyEnd\n        ));\n      } else {\n        /* Else use historical stake data to make up to penalty period */\n        _penalty = calculatePayout(\n          _stake.stakeShares,\n          _penaltyStart,\n          block.timestamp\n        ).add(calculateBonuses(\n          _stake.amount,\n          _penaltyStart,\n          block.timestamp\n        ));\n      }\n\n      /* Add penalty to payout pool */\n      emergencyUnstakePool = emergencyUnstakePool.add(_penalty);\n\n      /* Remove penalty from this stake's payout */\n      _payout = _payout.sub(_penalty);\n    }\n\n    /* Payout */\n    _mint(msg.sender, _stake.amount.add(_payout));\n  }\n}\n",
  "sourcePath": "/Users/mesquka/Git/Bitcoin Hex/contract/contracts/StakeableToken.sol",
  "compiler": {
    "name": "solc",
    "version": "0.4.24+commit.e67f0147.Emscripten.clang"
  },
  "schemaVersion": "2.0.1",
  "updatedAt": "2018-11-03T21:22:33.127Z"
}