{
  "contractName": "StakeableToken",
  "abi": [
    {
      "constant": true,
      "inputs": [
        {
          "name": "_hash",
          "type": "bytes32"
        },
        {
          "name": "_v",
          "type": "uint8"
        },
        {
          "name": "_r",
          "type": "bytes32"
        },
        {
          "name": "_s",
          "type": "bytes32"
        },
        {
          "name": "_expected",
          "type": "address"
        },
        {
          "name": "_addPrefix",
          "type": "bool"
        }
      ],
      "name": "validateSignature",
      "outputs": [
        {
          "name": "",
          "type": "bool"
        }
      ],
      "payable": false,
      "stateMutability": "pure",
      "type": "function"
    },
    {
      "constant": true,
      "inputs": [],
      "name": "maximumRedeemable",
      "outputs": [
        {
          "name": "",
          "type": "uint256"
        }
      ],
      "payable": false,
      "stateMutability": "view",
      "type": "function"
    },
    {
      "constant": false,
      "inputs": [
        {
          "name": "_spender",
          "type": "address"
        },
        {
          "name": "_value",
          "type": "uint256"
        }
      ],
      "name": "approve",
      "outputs": [
        {
          "name": "",
          "type": "bool"
        }
      ],
      "payable": false,
      "stateMutability": "nonpayable",
      "type": "function"
    },
    {
      "constant": true,
      "inputs": [],
      "name": "interestRatePercent",
      "outputs": [
        {
          "name": "",
          "type": "uint256"
        }
      ],
      "payable": false,
      "stateMutability": "view",
      "type": "function"
    },
    {
      "constant": true,
      "inputs": [],
      "name": "totalStakedCoins",
      "outputs": [
        {
          "name": "",
          "type": "uint256"
        }
      ],
      "payable": false,
      "stateMutability": "view",
      "type": "function"
    },
    {
      "constant": true,
      "inputs": [],
      "name": "totalSupply",
      "outputs": [
        {
          "name": "",
          "type": "uint256"
        }
      ],
      "payable": false,
      "stateMutability": "view",
      "type": "function"
    },
    {
      "constant": false,
      "inputs": [
        {
          "name": "_from",
          "type": "address"
        },
        {
          "name": "_to",
          "type": "address"
        },
        {
          "name": "_value",
          "type": "uint256"
        }
      ],
      "name": "transferFrom",
      "outputs": [
        {
          "name": "",
          "type": "bool"
        }
      ],
      "payable": false,
      "stateMutability": "nonpayable",
      "type": "function"
    },
    {
      "constant": true,
      "inputs": [
        {
          "name": "_satoshis",
          "type": "uint256"
        }
      ],
      "name": "getRedeemAmount",
      "outputs": [
        {
          "name": "",
          "type": "uint256"
        }
      ],
      "payable": false,
      "stateMutability": "view",
      "type": "function"
    },
    {
      "constant": true,
      "inputs": [
        {
          "name": "",
          "type": "uint256"
        }
      ],
      "name": "unclaimedCoinsByWeek",
      "outputs": [
        {
          "name": "",
          "type": "uint256"
        }
      ],
      "payable": false,
      "stateMutability": "view",
      "type": "function"
    },
    {
      "constant": true,
      "inputs": [
        {
          "name": "_pubKey",
          "type": "bytes"
        }
      ],
      "name": "pubKeyToEthereumAddress",
      "outputs": [
        {
          "name": "",
          "type": "address"
        }
      ],
      "payable": false,
      "stateMutability": "pure",
      "type": "function"
    },
    {
      "constant": false,
      "inputs": [
        {
          "name": "_spender",
          "type": "address"
        },
        {
          "name": "_subtractedValue",
          "type": "uint256"
        }
      ],
      "name": "decreaseApproval",
      "outputs": [
        {
          "name": "",
          "type": "bool"
        }
      ],
      "payable": false,
      "stateMutability": "nonpayable",
      "type": "function"
    },
    {
      "constant": true,
      "inputs": [
        {
          "name": "",
          "type": "bytes32"
        }
      ],
      "name": "redeemedUTXOs",
      "outputs": [
        {
          "name": "",
          "type": "bool"
        }
      ],
      "payable": false,
      "stateMutability": "view",
      "type": "function"
    },
    {
      "constant": true,
      "inputs": [],
      "name": "rootUtxoMerkleTreeHash",
      "outputs": [
        {
          "name": "",
          "type": "bytes32"
        }
      ],
      "payable": false,
      "stateMutability": "view",
      "type": "function"
    },
    {
      "constant": true,
      "inputs": [
        {
          "name": "_owner",
          "type": "address"
        }
      ],
      "name": "balanceOf",
      "outputs": [
        {
          "name": "",
          "type": "uint256"
        }
      ],
      "payable": false,
      "stateMutability": "view",
      "type": "function"
    },
    {
      "constant": false,
      "inputs": [
        {
          "name": "_satoshis",
          "type": "uint256"
        },
        {
          "name": "_proof",
          "type": "bytes32[]"
        },
        {
          "name": "_pubKey",
          "type": "bytes"
        },
        {
          "name": "_isCompressed",
          "type": "bool"
        },
        {
          "name": "_v",
          "type": "uint8"
        },
        {
          "name": "_r",
          "type": "bytes32"
        },
        {
          "name": "_s",
          "type": "bytes32"
        }
      ],
      "name": "redeemUtxo",
      "outputs": [
        {
          "name": "_tokensRedeemed",
          "type": "uint256"
        }
      ],
      "payable": false,
      "stateMutability": "nonpayable",
      "type": "function"
    },
    {
      "constant": true,
      "inputs": [],
      "name": "launchTime",
      "outputs": [
        {
          "name": "",
          "type": "uint256"
        }
      ],
      "payable": false,
      "stateMutability": "view",
      "type": "function"
    },
    {
      "constant": true,
      "inputs": [
        {
          "name": "_merkleLeafHash",
          "type": "bytes32"
        },
        {
          "name": "_proof",
          "type": "bytes32[]"
        }
      ],
      "name": "canRedeemUtxoHash",
      "outputs": [
        {
          "name": "",
          "type": "bool"
        }
      ],
      "payable": false,
      "stateMutability": "view",
      "type": "function"
    },
    {
      "constant": true,
      "inputs": [],
      "name": "totalBtcCirculationAtFork",
      "outputs": [
        {
          "name": "",
          "type": "uint256"
        }
      ],
      "payable": false,
      "stateMutability": "view",
      "type": "function"
    },
    {
      "constant": true,
      "inputs": [
        {
          "name": "",
          "type": "address"
        },
        {
          "name": "",
          "type": "uint256"
        }
      ],
      "name": "staked",
      "outputs": [
        {
          "name": "stakeAmount",
          "type": "uint256"
        },
        {
          "name": "stakeTime",
          "type": "uint256"
        },
        {
          "name": "unlockTime",
          "type": "uint256"
        },
        {
          "name": "totalStakedCoinsAtStart",
          "type": "uint256"
        }
      ],
      "payable": false,
      "stateMutability": "view",
      "type": "function"
    },
    {
      "constant": false,
      "inputs": [],
      "name": "storeWeekUnclaimed",
      "outputs": [],
      "payable": false,
      "stateMutability": "nonpayable",
      "type": "function"
    },
    {
      "constant": true,
      "inputs": [],
      "name": "origin",
      "outputs": [
        {
          "name": "",
          "type": "address"
        }
      ],
      "payable": false,
      "stateMutability": "view",
      "type": "function"
    },
    {
      "constant": true,
      "inputs": [],
      "name": "lastUpdatedWeek",
      "outputs": [
        {
          "name": "",
          "type": "uint256"
        }
      ],
      "payable": false,
      "stateMutability": "view",
      "type": "function"
    },
    {
      "constant": false,
      "inputs": [
        {
          "name": "_to",
          "type": "address"
        },
        {
          "name": "_value",
          "type": "uint256"
        }
      ],
      "name": "transfer",
      "outputs": [
        {
          "name": "",
          "type": "bool"
        }
      ],
      "payable": false,
      "stateMutability": "nonpayable",
      "type": "function"
    },
    {
      "constant": false,
      "inputs": [
        {
          "name": "_satoshis",
          "type": "uint256"
        },
        {
          "name": "_proof",
          "type": "bytes32[]"
        },
        {
          "name": "_pubKey",
          "type": "bytes"
        },
        {
          "name": "_isCompressed",
          "type": "bool"
        },
        {
          "name": "_v",
          "type": "uint8"
        },
        {
          "name": "_r",
          "type": "bytes32"
        },
        {
          "name": "_s",
          "type": "bytes32"
        },
        {
          "name": "_referrer",
          "type": "address"
        }
      ],
      "name": "redeemReferredUtxo",
      "outputs": [
        {
          "name": "_tokensRedeemed",
          "type": "uint256"
        }
      ],
      "payable": false,
      "stateMutability": "nonpayable",
      "type": "function"
    },
    {
      "constant": true,
      "inputs": [
        {
          "name": "_proof",
          "type": "bytes32[]"
        },
        {
          "name": "_merkleLeafHash",
          "type": "bytes32"
        }
      ],
      "name": "verifyProof",
      "outputs": [
        {
          "name": "",
          "type": "bool"
        }
      ],
      "payable": false,
      "stateMutability": "view",
      "type": "function"
    },
    {
      "constant": true,
      "inputs": [
        {
          "name": "_addr",
          "type": "address"
        },
        {
          "name": "_pubKey",
          "type": "bytes"
        },
        {
          "name": "_v",
          "type": "uint8"
        },
        {
          "name": "_r",
          "type": "bytes32"
        },
        {
          "name": "_s",
          "type": "bytes32"
        }
      ],
      "name": "ecdsaVerify",
      "outputs": [
        {
          "name": "",
          "type": "bool"
        }
      ],
      "payable": false,
      "stateMutability": "pure",
      "type": "function"
    },
    {
      "constant": true,
      "inputs": [
        {
          "name": "_originalAddress",
          "type": "bytes20"
        },
        {
          "name": "_satoshis",
          "type": "uint256"
        },
        {
          "name": "_proof",
          "type": "bytes32[]"
        }
      ],
      "name": "canRedeemUtxo",
      "outputs": [
        {
          "name": "",
          "type": "bool"
        }
      ],
      "payable": false,
      "stateMutability": "view",
      "type": "function"
    },
    {
      "constant": false,
      "inputs": [
        {
          "name": "_spender",
          "type": "address"
        },
        {
          "name": "_addedValue",
          "type": "uint256"
        }
      ],
      "name": "increaseApproval",
      "outputs": [
        {
          "name": "",
          "type": "bool"
        }
      ],
      "payable": false,
      "stateMutability": "nonpayable",
      "type": "function"
    },
    {
      "constant": true,
      "inputs": [
        {
          "name": "_owner",
          "type": "address"
        },
        {
          "name": "_spender",
          "type": "address"
        }
      ],
      "name": "allowance",
      "outputs": [
        {
          "name": "",
          "type": "uint256"
        }
      ],
      "payable": false,
      "stateMutability": "view",
      "type": "function"
    },
    {
      "constant": true,
      "inputs": [
        {
          "name": "_pubKey",
          "type": "bytes"
        },
        {
          "name": "_isCompressed",
          "type": "bool"
        }
      ],
      "name": "pubKeyToBitcoinAddress",
      "outputs": [
        {
          "name": "",
          "type": "bytes20"
        }
      ],
      "payable": false,
      "stateMutability": "pure",
      "type": "function"
    },
    {
      "constant": true,
      "inputs": [],
      "name": "totalRedeemed",
      "outputs": [
        {
          "name": "",
          "type": "uint256"
        }
      ],
      "payable": false,
      "stateMutability": "view",
      "type": "function"
    },
    {
      "anonymous": false,
      "inputs": [
        {
          "indexed": true,
          "name": "_address",
          "type": "address"
        },
        {
          "indexed": false,
          "name": "_reward",
          "type": "uint256"
        }
      ],
      "name": "Mint",
      "type": "event"
    },
    {
      "anonymous": false,
      "inputs": [
        {
          "indexed": true,
          "name": "owner",
          "type": "address"
        },
        {
          "indexed": true,
          "name": "spender",
          "type": "address"
        },
        {
          "indexed": false,
          "name": "value",
          "type": "uint256"
        }
      ],
      "name": "Approval",
      "type": "event"
    },
    {
      "anonymous": false,
      "inputs": [
        {
          "indexed": true,
          "name": "from",
          "type": "address"
        },
        {
          "indexed": true,
          "name": "to",
          "type": "address"
        },
        {
          "indexed": false,
          "name": "value",
          "type": "uint256"
        }
      ],
      "name": "Transfer",
      "type": "event"
    },
    {
      "constant": false,
      "inputs": [
        {
          "name": "_value",
          "type": "uint256"
        },
        {
          "name": "_unlockTime",
          "type": "uint256"
        }
      ],
      "name": "startStake",
      "outputs": [],
      "payable": false,
      "stateMutability": "nonpayable",
      "type": "function"
    },
    {
      "constant": true,
      "inputs": [
        {
          "name": "_principle",
          "type": "uint256"
        },
        {
          "name": "_periods",
          "type": "uint256"
        },
        {
          "name": "_rate",
          "type": "uint256"
        }
      ],
      "name": "compound",
      "outputs": [
        {
          "name": "",
          "type": "uint256"
        }
      ],
      "payable": false,
      "stateMutability": "pure",
      "type": "function"
    },
    {
      "constant": true,
      "inputs": [
        {
          "name": "_staker",
          "type": "address"
        },
        {
          "name": "_stakeIndex",
          "type": "uint256"
        }
      ],
      "name": "calculateWeAreAllSatoshiRewards",
      "outputs": [
        {
          "name": "",
          "type": "uint256"
        }
      ],
      "payable": false,
      "stateMutability": "view",
      "type": "function"
    },
    {
      "constant": true,
      "inputs": [
        {
          "name": "_rewards",
          "type": "uint256"
        }
      ],
      "name": "calculateViralRewards",
      "outputs": [
        {
          "name": "",
          "type": "uint256"
        }
      ],
      "payable": false,
      "stateMutability": "view",
      "type": "function"
    },
    {
      "constant": true,
      "inputs": [
        {
          "name": "_rewards",
          "type": "uint256"
        }
      ],
      "name": "calculateCritMassRewards",
      "outputs": [
        {
          "name": "",
          "type": "uint256"
        }
      ],
      "payable": false,
      "stateMutability": "view",
      "type": "function"
    },
    {
      "constant": true,
      "inputs": [
        {
          "name": "_staker",
          "type": "address"
        },
        {
          "name": "_stakeIndex",
          "type": "uint256"
        },
        {
          "name": "_rewards",
          "type": "uint256"
        }
      ],
      "name": "calculateSpeedBonus",
      "outputs": [
        {
          "name": "",
          "type": "uint256"
        }
      ],
      "payable": false,
      "stateMutability": "view",
      "type": "function"
    },
    {
      "constant": true,
      "inputs": [
        {
          "name": "_staker",
          "type": "address"
        },
        {
          "name": "_stakeIndex",
          "type": "uint256"
        },
        {
          "name": "_initRewards",
          "type": "uint256"
        }
      ],
      "name": "calculateAdditionalRewards",
      "outputs": [
        {
          "name": "",
          "type": "uint256"
        }
      ],
      "payable": false,
      "stateMutability": "view",
      "type": "function"
    },
    {
      "constant": true,
      "inputs": [
        {
          "name": "_staker",
          "type": "address"
        },
        {
          "name": "_stakeIndex",
          "type": "uint256"
        }
      ],
      "name": "calculateStakingRewards",
      "outputs": [
        {
          "name": "",
          "type": "uint256"
        }
      ],
      "payable": false,
      "stateMutability": "view",
      "type": "function"
    },
    {
      "constant": true,
      "inputs": [
        {
          "name": "_staker",
          "type": "address"
        }
      ],
      "name": "getCurrentStaked",
      "outputs": [
        {
          "name": "",
          "type": "uint256"
        }
      ],
      "payable": false,
      "stateMutability": "view",
      "type": "function"
    },
    {
      "constant": false,
      "inputs": [
        {
          "name": "_staker",
          "type": "address"
        }
      ],
      "name": "claimStakingRewards",
      "outputs": [],
      "payable": false,
      "stateMutability": "nonpayable",
      "type": "function"
    }
  ],
  "bytecode": "0x60806040526000600555600060095534801561001a57600080fd5b506142d68061002a6000396000f3006080604052600436106101f9576000357c0100000000000000000000000000000000000000000000000000000000900463ffffffff1680630867c0ad146101fe57806308b4312b1461029c578063095ea7b3146102c7578063128bfcae1461032c57806316043f5d146103635780631765f4bf1461038e57806318160ddd146103b9578063229cfc32146103e457806323b872dd146104255780632c3ee88c146104aa57806330fd546e146104eb578063443de10c1461052c5780635418796c14610583578063661884631461062c578063687cf4a4146106915780636aaf67e2146106da57806370a082311461070d578063753bf8cd146107645780637555419b14610863578063790ca413146108c457806381cd84b9146108ef5780638d854c341461097b5780638f169816146109a65780639283032c14610a1c578063938b5f3214610a3357806396bb1fef14610a8a5780639d65b89214610acd578063a9059cbb14610af8578063b1ccf19314610b5d578063b80ac7df14610c23578063c269077e14610caf578063ce267b5514610d1a578063cfc2334e14610de4578063d73dd62314610e85578063dd62ed3e14610eea578063e073ef6914610f61578063e26e7b5014611008578063f14bfbd014611049578063f35dad40146110b4578063f3c85eba146110df578063f6c45d0214611134575b600080fd5b34801561020a57600080fd5b506102826004803603810190808035600019169060200190929190803560ff16906020019092919080356000191690602001909291908035600019169060200190929190803573ffffffffffffffffffffffffffffffffffffffff169060200190929190803515159060200190929190505050611195565b604051808215151515815260200191505060405180910390f35b3480156102a857600080fd5b506102b1611380565b6040518082815260200191505060405180910390f35b3480156102d357600080fd5b50610312600480360381019080803573ffffffffffffffffffffffffffffffffffffffff16906020019092919080359060200190929190505050611386565b604051808215151515815260200191505060405180910390f35b34801561033857600080fd5b506103616004803603810190808035906020019092919080359060200190929190505050611478565b005b34801561036f57600080fd5b5061037861177f565b6040518082815260200191505060405180910390f35b34801561039a57600080fd5b506103a3611785565b6040518082815260200191505060405180910390f35b3480156103c557600080fd5b506103ce61178b565b6040518082815260200191505060405180910390f35b3480156103f057600080fd5b5061040f60048036038101908080359060200190929190505050611795565b6040518082815260200191505060405180910390f35b34801561043157600080fd5b50610490600480360381019080803573ffffffffffffffffffffffffffffffffffffffff169060200190929190803573ffffffffffffffffffffffffffffffffffffffff169060200190929190803590602001909291905050506117da565b604051808215151515815260200191505060405180910390f35b3480156104b657600080fd5b506104d560048036038101908080359060200190929190505050611b94565b6040518082815260200191505060405180910390f35b3480156104f757600080fd5b5061051660048036038101908080359060200190929190505050611f0e565b6040518082815260200191505060405180910390f35b34801561053857600080fd5b5061056d600480360381019080803573ffffffffffffffffffffffffffffffffffffffff169060200190929190505050611f26565b6040518082815260200191505060405180910390f35b34801561058f57600080fd5b506105ea600480360381019080803590602001908201803590602001908080601f0160208091040260200160405190810160405280939291908181526020018383808284378201915050505050509192919290505050612090565b604051808273ffffffffffffffffffffffffffffffffffffffff1673ffffffffffffffffffffffffffffffffffffffff16815260200191505060405180910390f35b34801561063857600080fd5b50610677600480360381019080803573ffffffffffffffffffffffffffffffffffffffff16906020019092919080359060200190929190505050612116565b604051808215151515815260200191505060405180910390f35b34801561069d57600080fd5b506106c060048036038101908080356000191690602001909291905050506123a7565b604051808215151515815260200191505060405180910390f35b3480156106e657600080fd5b506106ef6123c7565b60405180826000191660001916815260200191505060405180910390f35b34801561071957600080fd5b5061074e600480360381019080803573ffffffffffffffffffffffffffffffffffffffff1690602001909291905050506123cd565b6040518082815260200191505060405180910390f35b34801561077057600080fd5b5061084d6004803603810190808035906020019092919080359060200190820180359060200190808060200260200160405190810160405280939291908181526020018383602002808284378201915050505050509192919290803590602001908201803590602001908080601f0160208091040260200160405190810160405280939291908181526020018383808284378201915050505050509192919290803515159060200190929190803560ff16906020019092919080356000191690602001909291908035600019169060200190929190505050612415565b6040518082815260200191505060405180910390f35b34801561086f57600080fd5b506108ae600480360381019080803573ffffffffffffffffffffffffffffffffffffffff169060200190929190803590602001909291905050506126b9565b6040518082815260200191505060405180910390f35b3480156108d057600080fd5b506108d96127f6565b6040518082815260200191505060405180910390f35b3480156108fb57600080fd5b506109616004803603810190808035600019169060200190929190803590602001908201803590602001908080602002602001604051908101604052809392919081815260200183836020028082843782019150505050505091929192905050506127fc565b604051808215151515815260200191505060405180910390f35b34801561098757600080fd5b50610990612847565b6040518082815260200191505060405180910390f35b3480156109b257600080fd5b506109f1600480360381019080803573ffffffffffffffffffffffffffffffffffffffff1690602001909291908035906020019092919050505061284d565b6040518085815260200184815260200183815260200182815260200194505050505060405180910390f35b348015610a2857600080fd5b50610a31612899565b005b348015610a3f57600080fd5b50610a4861291c565b604051808273ffffffffffffffffffffffffffffffffffffffff1673ffffffffffffffffffffffffffffffffffffffff16815260200191505060405180910390f35b348015610a9657600080fd5b50610acb600480360381019080803573ffffffffffffffffffffffffffffffffffffffff169060200190929190505050612942565b005b348015610ad957600080fd5b50610ae2612fd1565b6040518082815260200191505060405180910390f35b348015610b0457600080fd5b50610b43600480360381019080803573ffffffffffffffffffffffffffffffffffffffff16906020019092919080359060200190929190505050612fd7565b604051808215151515815260200191505060405180910390f35b348015610b6957600080fd5b50610c0d60048036038101908080359060200190929190803590602001908201803590602001919091929391929390803590602001908201803590602001919091929391929390803515159060200190929190803560ff16906020019092919080356000191690602001909291908035600019169060200190929190803573ffffffffffffffffffffffffffffffffffffffff1690602001909291905050506131f6565b6040518082815260200191505060405180910390f35b348015610c2f57600080fd5b50610c956004803603810190808035906020019082018035906020019080806020026020016040519081016040528093929190818152602001838360200280828437820191505050505050919291929080356000191690602001909291905050506133c6565b604051808215151515815260200191505060405180910390f35b348015610cbb57600080fd5b50610d04600480360381019080803573ffffffffffffffffffffffffffffffffffffffff16906020019092919080359060200190929190803590602001909291905050506133dd565b6040518082815260200191505060405180910390f35b348015610d2657600080fd5b50610dca600480360381019080803573ffffffffffffffffffffffffffffffffffffffff169060200190929190803590602001908201803590602001908080601f0160208091040260200160405190810160405280939291908181526020018383808284378201915050505050509192919290803560ff16906020019092919080356000191690602001909291908035600019169060200190929190505050613503565b604051808215151515815260200191505060405180910390f35b348015610df057600080fd5b50610e6b60048036038101908080356bffffffffffffffffffffffff191690602001909291908035906020019092919080359060200190820180359060200190808060200260200160405190810160405280939291908181526020018383602002808284378201915050505050509192919290505050613622565b604051808215151515815260200191505060405180910390f35b348015610e9157600080fd5b50610ed0600480360381019080803573ffffffffffffffffffffffffffffffffffffffff169060200190929190803590602001909291905050506136e3565b604051808215151515815260200191505060405180910390f35b348015610ef657600080fd5b50610f4b600480360381019080803573ffffffffffffffffffffffffffffffffffffffff169060200190929190803573ffffffffffffffffffffffffffffffffffffffff1690602001909291905050506138df565b6040518082815260200191505060405180910390f35b348015610f6d57600080fd5b50610fd4600480360381019080803590602001908201803590602001908080601f0160208091040260200160405190810160405280939291908181526020018383808284378201915050505050509192919290803515159060200190929190505050613966565b60405180826bffffffffffffffffffffffff19166bffffffffffffffffffffffff1916815260200191505060405180910390f35b34801561101457600080fd5b5061103360048036038101908080359060200190929190505050613d25565b6040518082815260200191505060405180910390f35b34801561105557600080fd5b5061109e600480360381019080803573ffffffffffffffffffffffffffffffffffffffff1690602001909291908035906020019092919080359060200190929190505050613d6a565b6040518082815260200191505060405180910390f35b3480156110c057600080fd5b506110c9613e2a565b6040518082815260200191505060405180910390f35b3480156110eb57600080fd5b5061111e600480360381019080803590602001909291908035906020019092919080359060200190929190505050613e30565b6040518082815260200191505060405180910390f35b34801561114057600080fd5b5061117f600480360381019080803573ffffffffffffffffffffffffffffffffffffffff16906020019092919080359060200190929190505050613f5d565b6040518082815260200191505060405180910390f35b60008060608315156111a9578891506112c3565b6040805190810160405280601c81526020017f19457468657265756d205369676e6564204d6573736167653a0a333200000000815250905080896040516020018083805190602001908083835b60208310151561121b57805182526020820191506020810190506020830392506111f6565b6001836020036101000a0380198251168184511680821785525050505050509050018260001916600019168152602001925050506040516020818303038152906040526040518082805190602001908083835b602083101515611293578051825260208201915060208101905060208303925061126e565b6001836020036101000a038019825116818451168082178552505050505050905001915050604051809103902091505b8473ffffffffffffffffffffffffffffffffffffffff166001838a8a8a604051600081526020016040526040518085600019166000191681526020018460ff1660ff1681526020018360001916600019168152602001826000191660001916815260200194505050505060206040516020810390808403906000865af1158015611351573d6000803e3d6000fd5b5050506020604051035173ffffffffffffffffffffffffffffffffffffffff1614925050509695505050505050565b600a5481565b600081600260003373ffffffffffffffffffffffffffffffffffffffff1673ffffffffffffffffffffffffffffffffffffffff16815260200190815260200160002060008573ffffffffffffffffffffffffffffffffffffffff1673ffffffffffffffffffffffffffffffffffffffff168152602001908152602001600020819055508273ffffffffffffffffffffffffffffffffffffffff163373ffffffffffffffffffffffffffffffffffffffff167f8c5be1e5ebec7d5bd14f71427d1e84f3dd0314c0f7b2291e5b200ac8c7c3b925846040518082815260200191505060405180910390a36001905092915050565b6000339050826000808373ffffffffffffffffffffffffffffffffffffffff1673ffffffffffffffffffffffffffffffffffffffff16815260200190815260200160002054101515156114ca57600080fd5b6114e0620d2f004261408090919063ffffffff16565b82101515156114ee57600080fd5b61150563bbf81e004261408090919063ffffffff16565b821115151561151357600080fd5b61151b612899565b61156c836000808473ffffffffffffffffffffffffffffffffffffffff1673ffffffffffffffffffffffffffffffffffffffff1681526020019081526020016000205461409c90919063ffffffff16565b6000808373ffffffffffffffffffffffffffffffffffffffff1673ffffffffffffffffffffffffffffffffffffffff168152602001908152602001600020819055506115ff836000803073ffffffffffffffffffffffffffffffffffffffff1673ffffffffffffffffffffffffffffffffffffffff1681526020019081526020016000205461408090919063ffffffff16565b6000803073ffffffffffffffffffffffffffffffffffffffff1673ffffffffffffffffffffffffffffffffffffffff168152602001908152602001600020819055503073ffffffffffffffffffffffffffffffffffffffff168173ffffffffffffffffffffffffffffffffffffffff167fddf252ad1be2c89b69c2b068fc378daa952ba7f163c4a11628f55a4df523b3ef856040518082815260200191505060405180910390a3600e60008273ffffffffffffffffffffffffffffffffffffffff1673ffffffffffffffffffffffffffffffffffffffff168152602001908152602001600020608060405190810160405280858152602001428152602001848152602001600c54815250908060018154018082558091505090600182039060005260206000209060040201600090919290919091506000820151816000015560208201518160010155604082015181600201556060820151816003015550505061177483600c5461408090919063ffffffff16565b600c81905550505050565b600d5481565b600c5481565b6000600154905090565b60006117d3600a6117c5600b546117b7600954876140b590919063ffffffff16565b6140ed90919063ffffffff16565b6140ed90919063ffffffff16565b9050919050565b60008073ffffffffffffffffffffffffffffffffffffffff168373ffffffffffffffffffffffffffffffffffffffff161415151561181757600080fd5b6000808573ffffffffffffffffffffffffffffffffffffffff1673ffffffffffffffffffffffffffffffffffffffff16815260200190815260200160002054821115151561186457600080fd5b600260008573ffffffffffffffffffffffffffffffffffffffff1673ffffffffffffffffffffffffffffffffffffffff16815260200190815260200160002060003373ffffffffffffffffffffffffffffffffffffffff1673ffffffffffffffffffffffffffffffffffffffff1681526020019081526020016000205482111515156118ef57600080fd5b611940826000808773ffffffffffffffffffffffffffffffffffffffff1673ffffffffffffffffffffffffffffffffffffffff1681526020019081526020016000205461409c90919063ffffffff16565b6000808673ffffffffffffffffffffffffffffffffffffffff1673ffffffffffffffffffffffffffffffffffffffff168152602001908152602001600020819055506119d3826000808673ffffffffffffffffffffffffffffffffffffffff1673ffffffffffffffffffffffffffffffffffffffff1681526020019081526020016000205461408090919063ffffffff16565b6000808573ffffffffffffffffffffffffffffffffffffffff1673ffffffffffffffffffffffffffffffffffffffff16815260200190815260200160002081905550611aa482600260008773ffffffffffffffffffffffffffffffffffffffff1673ffffffffffffffffffffffffffffffffffffffff16815260200190815260200160002060003373ffffffffffffffffffffffffffffffffffffffff1673ffffffffffffffffffffffffffffffffffffffff1681526020019081526020016000205461409c90919063ffffffff16565b600260008673ffffffffffffffffffffffffffffffffffffffff1673ffffffffffffffffffffffffffffffffffffffff16815260200190815260200160002060003373ffffffffffffffffffffffffffffffffffffffff1673ffffffffffffffffffffffffffffffffffffffff168152602001908152602001600020819055508273ffffffffffffffffffffffffffffffffffffffff168473ffffffffffffffffffffffffffffffffffffffff167fddf252ad1be2c89b69c2b068fc378daa952ba7f163c4a11628f55a4df523b3ef846040518082815260200191505060405180910390a3600190509392505050565b6000806000806000611bb46402540be400876140b590919063ffffffff16565b9350683635c9adc5dea00000841115611c4d5769152d02c7e14af6800000841015611c3557611c2e640ba43b7400611c206009611c126002611c0464174876e8008b61409c90919063ffffffff16565b6140b590919063ffffffff16565b6140ed90919063ffffffff16565b61408090919063ffffffff16565b9350611c4c565b611c496004856140ed90919063ffffffff16565b93505b5b4260045410611c5d576000611c88565b611c8762093a80611c796004544261409c90919063ffffffff16565b6140ed90919063ffffffff16565b5b9250611cb1611ca16002856140b590919063ffffffff16565b606461409c90919063ffffffff16565b9150611cd96064611ccb84876140b590919063ffffffff16565b6140ed90919063ffffffff16565b9050602d831115611cec57809450611f05565b6020831115611d2357611d1c6064611d0e6065846140b590919063ffffffff16565b6140ed90919063ffffffff16565b9450611f05565b6018831115611d5a57611d536064611d456066846140b590919063ffffffff16565b6140ed90919063ffffffff16565b9450611f05565b6012831115611d9157611d8a6064611d7c6067846140b590919063ffffffff16565b6140ed90919063ffffffff16565b9450611f05565b600e831115611dc857611dc16064611db36068846140b590919063ffffffff16565b6140ed90919063ffffffff16565b9450611f05565b600a831115611dff57611df86064611dea6069846140b590919063ffffffff16565b6140ed90919063ffffffff16565b9450611f05565b6007831115611e3657611e2f6064611e21606a846140b590919063ffffffff16565b6140ed90919063ffffffff16565b9450611f05565b6005831115611e6d57611e666064611e58606b846140b590919063ffffffff16565b6140ed90919063ffffffff16565b9450611f05565b6003831115611ea457611e9d6064611e8f606c846140b590919063ffffffff16565b6140ed90919063ffffffff16565b9450611f05565b6001831115611edb57611ed46064611ec6606d846140b590919063ffffffff16565b6140ed90919063ffffffff16565b9450611f05565b611f026064611ef4606e846140b590919063ffffffff16565b6140ed90919063ffffffff16565b94505b50505050919050565b60066020528060005260406000206000915090505481565b60008060008091505b600e60008573ffffffffffffffffffffffffffffffffffffffff1673ffffffffffffffffffffffffffffffffffffffff1681526020019081526020016000208054905081101561208657611fe9600e60008673ffffffffffffffffffffffffffffffffffffffff1673ffffffffffffffffffffffffffffffffffffffff16815260200190815260200160002082815481101515611fc857fe5b9060005260206000209060040201600001548361408090919063ffffffff16565b9150600e60008573ffffffffffffffffffffffffffffffffffffffff1673ffffffffffffffffffffffffffffffffffffffff1681526020019081526020016000208181548110151561203757fe5b9060005260206000209060040201600201544211156120795761207661206785836120628886613f5d565b613d6a565b8361408090919063ffffffff16565b91505b8080600101915050611f2f565b8192505050919050565b600073ffffffffffffffffffffffffffffffffffffffff826040518082805190602001908083835b6020831015156120dd57805182526020820191506020810190506020830392506120b8565b6001836020036101000a038019825116818451168082178552505050505050905001915050604051809103902060019004169050919050565b600080600260003373ffffffffffffffffffffffffffffffffffffffff1673ffffffffffffffffffffffffffffffffffffffff16815260200190815260200160002060008573ffffffffffffffffffffffffffffffffffffffff1673ffffffffffffffffffffffffffffffffffffffff16815260200190815260200160002054905080831115612227576000600260003373ffffffffffffffffffffffffffffffffffffffff1673ffffffffffffffffffffffffffffffffffffffff16815260200190815260200160002060008673ffffffffffffffffffffffffffffffffffffffff1673ffffffffffffffffffffffffffffffffffffffff168152602001908152602001600020819055506122bb565b61223a838261409c90919063ffffffff16565b600260003373ffffffffffffffffffffffffffffffffffffffff1673ffffffffffffffffffffffffffffffffffffffff16815260200190815260200160002060008673ffffffffffffffffffffffffffffffffffffffff1673ffffffffffffffffffffffffffffffffffffffff168152602001908152602001600020819055505b8373ffffffffffffffffffffffffffffffffffffffff163373ffffffffffffffffffffffffffffffffffffffff167f8c5be1e5ebec7d5bd14f71427d1e84f3dd0314c0f7b2291e5b200ac8c7c3b925600260003373ffffffffffffffffffffffffffffffffffffffff1673ffffffffffffffffffffffffffffffffffffffff16815260200190815260200160002060008873ffffffffffffffffffffffffffffffffffffffff1673ffffffffffffffffffffffffffffffffffffffff168152602001908152602001600020546040518082815260200191505060405180910390a3600191505092915050565b60086020528060005260406000206000915054906101000a900460ff1681565b60075481565b60008060008373ffffffffffffffffffffffffffffffffffffffff1673ffffffffffffffffffffffffffffffffffffffff168152602001908152602001600020549050919050565b6000806000600454421015151561242b57600080fd5b612433612899565b61243d8888613966565b9150818a60405160200180836bffffffffffffffffffffffff19166bffffffffffffffffffffffff19168152601401828152602001925050506040516020818303038152906040526040518082805190602001908083835b6020831015156124ba5780518252602082019150602081019050602083039250612495565b6001836020036101000a038019825116818451168082178552505050505050905001915050604051809103902090506124f3818a6127fc565b15156124fe57600080fd5b61250b3389888888613503565b151561251657600080fd5b600160086000836000191660001916815260200190815260200160002060006101000a81548160ff0219169083151502179055506125538a611b94565b9250600a5461256d8460095461408090919063ffffffff16565b1115151561257a57600080fd5b61258f8360095461408090919063ffffffff16565b6009819055506125e6836000803373ffffffffffffffffffffffffffffffffffffffff1673ffffffffffffffffffffffffffffffffffffffff1681526020019081526020016000205461408090919063ffffffff16565b6000803373ffffffffffffffffffffffffffffffffffffffff1673ffffffffffffffffffffffffffffffffffffffff1681526020019081526020016000208190555061263d8360015461408090919063ffffffff16565b6001819055503373ffffffffffffffffffffffffffffffffffffffff16600073ffffffffffffffffffffffffffffffffffffffff167fddf252ad1be2c89b69c2b068fc378daa952ba7f163c4a11628f55a4df523b3ef856040518082815260200191505060405180910390a38292505050979650505050505050565b600080600080600080600e60008973ffffffffffffffffffffffffffffffffffffffff1673ffffffffffffffffffffffffffffffffffffffff1681526020019081526020016000208781548110151561270e57fe5b906000526020600020906004020194506000935061275062093a80612742600454886001015461409c90919063ffffffff16565b6140ed90919063ffffffff16565b925061277c62093a8061276e6004544261409c90919063ffffffff16565b6140ed90919063ffffffff16565b91508290505b818110156127e8576127d96127ca60326127bc886000015460066000878152602001908152602001600020546140b590919063ffffffff16565b6140ed90919063ffffffff16565b8561408090919063ffffffff16565b93508080600101915050612782565b839550505050505092915050565b60045481565b600080151560086000856000191660001916815260200190815260200160002060009054906101000a900460ff16151514801561283f575061283e82846133c6565b5b905092915050565b600b5481565b600e6020528160005260406000208181548110151561286857fe5b9060005260206000209060040201600091509150508060000154908060010154908060020154908060030154905084565b6000806128c662093a806128b86004544261409c90919063ffffffff16565b6140ed90919063ffffffff16565b9150603282111580156128da575060055482115b15612918576128f6600954600a5461409c90919063ffffffff16565b9050806006600084815260200190815260200160002081905550816005819055505b5050565b600360009054906101000a900473ffffffffffffffffffffffffffffffffffffffff1681565b600080600061294f612899565b600092505b600e60008573ffffffffffffffffffffffffffffffffffffffff1673ffffffffffffffffffffffffffffffffffffffff16815260200190815260200160002080549050831015612fcb57600e60008573ffffffffffffffffffffffffffffffffffffffff1673ffffffffffffffffffffffffffffffffffffffff168152602001908152602001600020838154811015156129ea57fe5b906000526020600020906004020160020154421115612fbe57612a75600e60008673ffffffffffffffffffffffffffffffffffffffff1673ffffffffffffffffffffffffffffffffffffffff16815260200190815260200160002084815481101515612a5257fe5b906000526020600020906004020160000154600c5461409c90919063ffffffff16565b600c81905550612b29600e60008673ffffffffffffffffffffffffffffffffffffffff1673ffffffffffffffffffffffffffffffffffffffff16815260200190815260200160002084815481101515612aca57fe5b9060005260206000209060040201600001546000803073ffffffffffffffffffffffffffffffffffffffff1673ffffffffffffffffffffffffffffffffffffffff1681526020019081526020016000205461409c90919063ffffffff16565b6000803073ffffffffffffffffffffffffffffffffffffffff1673ffffffffffffffffffffffffffffffffffffffff16815260200190815260200160002081905550612c19600e60008673ffffffffffffffffffffffffffffffffffffffff1673ffffffffffffffffffffffffffffffffffffffff16815260200190815260200160002084815481101515612bba57fe5b9060005260206000209060040201600001546000808773ffffffffffffffffffffffffffffffffffffffff1673ffffffffffffffffffffffffffffffffffffffff1681526020019081526020016000205461408090919063ffffffff16565b6000808673ffffffffffffffffffffffffffffffffffffffff1673ffffffffffffffffffffffffffffffffffffffff168152602001908152602001600020819055508373ffffffffffffffffffffffffffffffffffffffff163073ffffffffffffffffffffffffffffffffffffffff167fddf252ad1be2c89b69c2b068fc378daa952ba7f163c4a11628f55a4df523b3ef600e60008873ffffffffffffffffffffffffffffffffffffffff1673ffffffffffffffffffffffffffffffffffffffff16815260200190815260200160002086815481101515612cf657fe5b9060005260206000209060040201600001546040518082815260200191505060405180910390a3612d278484613f5d565b9150612d46612d37858585613d6a565b8361408090919063ffffffff16565b9050612d99816000808773ffffffffffffffffffffffffffffffffffffffff1673ffffffffffffffffffffffffffffffffffffffff1681526020019081526020016000205461408090919063ffffffff16565b6000808673ffffffffffffffffffffffffffffffffffffffff1673ffffffffffffffffffffffffffffffffffffffff16815260200190815260200160002081905550612e60612df1838361409c90919063ffffffff16565b600080600360009054906101000a900473ffffffffffffffffffffffffffffffffffffffff1673ffffffffffffffffffffffffffffffffffffffff1673ffffffffffffffffffffffffffffffffffffffff1681526020019081526020016000205461408090919063ffffffff16565b600080600360009054906101000a900473ffffffffffffffffffffffffffffffffffffffff1673ffffffffffffffffffffffffffffffffffffffff1673ffffffffffffffffffffffffffffffffffffffff16815260200190815260200160002081905550612eec612edb6002836140b590919063ffffffff16565b60015461408090919063ffffffff16565b600181905550600e60008573ffffffffffffffffffffffffffffffffffffffff1673ffffffffffffffffffffffffffffffffffffffff16815260200190815260200160002083815481101515612f3e57fe5b906000526020600020906004020160008082016000905560018201600090556002820160009055600382016000905550508373ffffffffffffffffffffffffffffffffffffffff167f0f6798a560793a54c3bcfe86a93cde1e73087d944c0ea20544137d4121396885826040518082815260200191505060405180910390a25b8280600101935050612954565b50505050565b60055481565b60008073ffffffffffffffffffffffffffffffffffffffff168373ffffffffffffffffffffffffffffffffffffffff161415151561301457600080fd5b6000803373ffffffffffffffffffffffffffffffffffffffff1673ffffffffffffffffffffffffffffffffffffffff16815260200190815260200160002054821115151561306157600080fd5b6130b2826000803373ffffffffffffffffffffffffffffffffffffffff1673ffffffffffffffffffffffffffffffffffffffff1681526020019081526020016000205461409c90919063ffffffff16565b6000803373ffffffffffffffffffffffffffffffffffffffff1673ffffffffffffffffffffffffffffffffffffffff16815260200190815260200160002081905550613145826000808673ffffffffffffffffffffffffffffffffffffffff1673ffffffffffffffffffffffffffffffffffffffff1681526020019081526020016000205461408090919063ffffffff16565b6000808573ffffffffffffffffffffffffffffffffffffffff1673ffffffffffffffffffffffffffffffffffffffff168152602001908152602001600020819055508273ffffffffffffffffffffffffffffffffffffffff163373ffffffffffffffffffffffffffffffffffffffff167fddf252ad1be2c89b69c2b068fc378daa952ba7f163c4a11628f55a4df523b3ef846040518082815260200191505060405180910390a36001905092915050565b60003373ffffffffffffffffffffffffffffffffffffffff168273ffffffffffffffffffffffffffffffffffffffff161415151561323357600080fd5b600073ffffffffffffffffffffffffffffffffffffffff168273ffffffffffffffffffffffffffffffffffffffff161415151561326f57600080fd5b6132df8b8b8b808060200260200160405190810160405280939291908181526020018383602002808284378201915050505050508a8a8080601f01602080910402602001604051908101604052809392919081815260200183838082843782019150505050505089898989612415565b90506133456132f86014836140ed90919063ffffffff16565b6000808573ffffffffffffffffffffffffffffffffffffffff1673ffffffffffffffffffffffffffffffffffffffff1681526020019081526020016000205461408090919063ffffffff16565b6000808473ffffffffffffffffffffffffffffffffffffffff1673ffffffffffffffffffffffffffffffffffffffff168152602001908152602001600020819055506133af61339e6014836140ed90919063ffffffff16565b60015461408090919063ffffffff16565b6001819055508090509a9950505050505050505050565b60006133d58360075484614103565b905092915050565b600080600080600e60008873ffffffffffffffffffffffffffffffffffffffff1673ffffffffffffffffffffffffffffffffffffffff1681526020019081526020016000208681548110151561342f57fe5b906000526020600020906004020160010154925061346d62093a8061345f6004548661409c90919063ffffffff16565b6140ed90919063ffffffff16565b91506134cf6134bf60646134b1600a6134a3603261349560648a6140b590919063ffffffff16565b6140ed90919063ffffffff16565b6140b590919063ffffffff16565b6140ed90919063ffffffff16565b600a61409c90919063ffffffff16565b90506134f760646134e983886140b590919063ffffffff16565b6140ed90919063ffffffff16565b93505050509392505050565b6000613617600287604051602001808273ffffffffffffffffffffffffffffffffffffffff1673ffffffffffffffffffffffffffffffffffffffff166c010000000000000000000000000281526014019150506040516020818303038152906040526040518082805190602001908083835b60208310151561359a5780518252602082019150602081019050602083039250613575565b6001836020036101000a0380198251168184511680821785525050505050509050019150506020604051808303816000865af11580156135de573d6000803e3d6000fd5b5050506040513d60208110156135f357600080fd5b81019080805190602001909291905050508585856136108a612090565b6000611195565b905095945050505050565b600080848460405160200180836bffffffffffffffffffffffff19166bffffffffffffffffffffffff19168152601401828152602001925050506040516020818303038152906040526040518082805190602001908083835b6020831015156136a0578051825260208201915060208101905060208303925061367b565b6001836020036101000a038019825116818451168082178552505050505050905001915050604051809103902090506136d981846127fc565b9150509392505050565b600061377482600260003373ffffffffffffffffffffffffffffffffffffffff1673ffffffffffffffffffffffffffffffffffffffff16815260200190815260200160002060008673ffffffffffffffffffffffffffffffffffffffff1673ffffffffffffffffffffffffffffffffffffffff1681526020019081526020016000205461408090919063ffffffff16565b600260003373ffffffffffffffffffffffffffffffffffffffff1673ffffffffffffffffffffffffffffffffffffffff16815260200190815260200160002060008573ffffffffffffffffffffffffffffffffffffffff1673ffffffffffffffffffffffffffffffffffffffff168152602001908152602001600020819055508273ffffffffffffffffffffffffffffffffffffffff163373ffffffffffffffffffffffffffffffffffffffff167f8c5be1e5ebec7d5bd14f71427d1e84f3dd0314c0f7b2291e5b200ac8c7c3b925600260003373ffffffffffffffffffffffffffffffffffffffff1673ffffffffffffffffffffffffffffffffffffffff16815260200190815260200160002060008773ffffffffffffffffffffffffffffffffffffffff1673ffffffffffffffffffffffffffffffffffffffff168152602001908152602001600020546040518082815260200191505060405180910390a36001905092915050565b6000600260008473ffffffffffffffffffffffffffffffffffffffff1673ffffffffffffffffffffffffffffffffffffffff16815260200190815260200160002060008373ffffffffffffffffffffffffffffffffffffffff1673ffffffffffffffffffffffffffffffffffffffff16815260200190815260200160002054905092915050565b6000806000806139778660006141ce565b6001900492506139888660206141ce565b6001900491508415613b645760006002838115156139a257fe5b06146139af5760036139b2565b60025b9050600360028285604051602001808360ff1660ff167f0100000000000000000000000000000000000000000000000000000000000000028152600101828152602001925050506040516020818303038152906040526040518082805190602001908083835b602083101515613a3d5780518252602082019150602081019050602083039250613a18565b6001836020036101000a0380198251168184511680821785525050505050509050019150506020604051808303816000865af1158015613a81573d6000803e3d6000fd5b5050506040513d6020811015613a9657600080fd5b81019080805190602001909291905050506040516020018082600019166000191681526020019150506040516020818303038152906040526040518082805190602001908083835b602083101515613b035780518252602082019150602081019050602083039250613ade565b6001836020036101000a0380198251168184511680821785525050505050509050019150506020604051808303816000865af1158015613b47573d6000803e3d6000fd5b505050604051516c01000000000000000000000000029350613d1c565b6004905060036002828585604051602001808460ff1660ff167f010000000000000000000000000000000000000000000000000000000000000002815260010183815260200182815260200193505050506040516020818303038152906040526040518082805190602001908083835b602083101515613bf95780518252602082019150602081019050602083039250613bd4565b6001836020036101000a0380198251168184511680821785525050505050509050019150506020604051808303816000865af1158015613c3d573d6000803e3d6000fd5b5050506040513d6020811015613c5257600080fd5b81019080805190602001909291905050506040516020018082600019166000191681526020019150506040516020818303038152906040526040518082805190602001908083835b602083101515613cbf5780518252602082019150602081019050602083039250613c9a565b6001836020036101000a0380198251168184511680821785525050505050509050019150506020604051808303816000865af1158015613d03573d6000803e3d6000fd5b505050604051516c010000000000000000000000000293505b50505092915050565b6000613d63600a613d55600a54613d47600954876140b590919063ffffffff16565b6140ed90919063ffffffff16565b6140ed90919063ffffffff16565b9050919050565b6000806032613d9962093a80613d8b6004544261409c90919063ffffffff16565b6140ed90919063ffffffff16565b111515613e1d5760009050613dc0613db186866126b9565b8461408090919063ffffffff16565b9050613e13613dd08686846133dd565b613e05613ddc84613d25565b613df7613de886611795565b8661408090919063ffffffff16565b61408090919063ffffffff16565b61408090919063ffffffff16565b9050809150613e22565b600091505b509392505050565b60095481565b600080600080600080601e94508488811515613e4857fe5b069350613e5e85896140ed90919063ffffffff16565b9250613e786402540be4008a6140ed90919063ffffffff16565b9150600090505b82811015613ef857613edb789f4f2726179a224501d762422c946590d91000000000000000613ecd601e613ebd8b606461408090919063ffffffff16565b0a856140b590919063ffffffff16565b6140ed90919063ffffffff16565b9150613ef160018261408090919063ffffffff16565b9050613e7f565b613f358460640a613f2786613f178b606461408090919063ffffffff16565b0a856140b590919063ffffffff16565b6140ed90919063ffffffff16565b9150613f4f6402540be400836140b590919063ffffffff16565b955050505050509392505050565b600080600080600080600e60008973ffffffffffffffffffffffffffffffffffffffff1673ffffffffffffffffffffffffffffffffffffffff16815260200190815260200160002087815481101515613fb257fe5b90600052602060002090600402019450613fd86064600d546140b590919063ffffffff16565b9350614006600154613ff8606488600301546140b590919063ffffffff16565b6140ed90919063ffffffff16565b925061401b83856140ed90919063ffffffff16565b9350614049620d2f0061403b87600101544261409c90919063ffffffff16565b6140ed90919063ffffffff16565b915061405a85600001548386613e30565b905061407385600001548261409c90919063ffffffff16565b9550505050505092915050565b6000818301905082811015151561409357fe5b80905092915050565b60008282111515156140aa57fe5b818303905092915050565b6000808314156140c857600090506140e7565b81830290508183828115156140d957fe5b041415156140e357fe5b8090505b92915050565b600081838115156140fa57fe5b04905092915050565b600080600080849250600091505b86518210156141b757868281518110151561412857fe5b906020019060200201519050806000191683600019161015614179578281604051808360001916600019168152602001826000191660001916815260200192505050604051809103902092506141aa565b8083604051808360001916600019168152602001826000191660001916815260200192505050604051809103902092505b8180600101925050614111565b856000191683600019161493505050509392505050565b600080600090505b60208110156142a05760088102848483018151811015156141f357fe5b9060200101517f010000000000000000000000000000000000000000000000000000000000000090047f0100000000000000000000000000000000000000000000000000000000000000027effffffffffffffffffffffffffffffffffffffffffffffffffffffffffffff19167fff0000000000000000000000000000000000000000000000000000000000000060010216600019169060020a90048218915080806001019150506141d6565b81915050929150505600a165627a7a72305820a2c97b5fb841b62ecb7bfb0fe197376c962d977c18b08f868f6eb968eabbc4950029",
  "source": "pragma solidity ^0.4.23;\nimport \"./UTXORedeemableToken.sol\";\n\n\ncontract StakeableToken is UTXORedeemableToken {\n\n    event Mint(address indexed _address, uint _reward);\n\n    uint256 public totalBtcCirculationAtFork;\n\n    uint256 public totalStakedCoins;\n    uint256 public interestRatePercent;\n\n    struct StakeStruct {\n        uint256 stakeAmount;\n        uint256 stakeTime;\n        uint256 unlockTime;\n        uint256 totalStakedCoinsAtStart;\n    }\n\n    mapping(address => StakeStruct[]) public staked;\n\n    function startStake(\n        uint256 _value, \n        uint256 _unlockTime\n    ) \n        external \n    {\n        address _staker = msg.sender;\n\n        /* Make sure staker has enough funds */\n        require(balances[_staker] >= _value);\n        /* ensure unlockTime is in the future */\n        require(_unlockTime >= block.timestamp.add(10 days));\n        /* ensure that unlock time is not more than approx 10 years */\n        require(_unlockTime <= block.timestamp.add(10 days * 3650));\n\n        /* Check if weekly data needs to be updated */\n        storeWeekUnclaimed();\n\n        /* Remove balance from sender */\n        balances[_staker] = balances[_staker].sub(_value);\n        balances[address(this)] = balances[address(this)].add(_value);\n        emit Transfer(_staker, address(this), _value);\n\n        /* Create Stake */\n        staked[_staker].push(\n          StakeStruct(\n            _value, \n            block.timestamp, \n            _unlockTime, \n            totalStakedCoins\n          )\n        );\n\n        /* Add staked coins to global stake counter */\n        totalStakedCoins = totalStakedCoins.add(_value);\n    }\n\n    function compound(\n        uint256 _principle,\n        uint256 _periods,\n        uint256 _rate\n    )\n        public\n        pure\n        returns (uint256)\n    {\n        uint256 _maxGroupPeriods = 30;\n        uint256 _remainingPeriods = _periods % _maxGroupPeriods;\n        uint256 _groupings = _periods.div(_maxGroupPeriods);\n    \n        uint256 _compounded = _principle.div(1e10);\n        for(uint256 _i = 0; _i < _groupings; _i = _i.add(1)) {\n            _compounded = _compounded\n                .mul(uint256(100).add(_rate) ** 30)\n                .div(100 ** 30);\n        }\n\n        _compounded = _compounded\n            .mul(uint256(100).add(_rate) ** _remainingPeriods)\n            .div(100 ** _remainingPeriods);\n        \n        return _compounded.mul(1e10);\n    }\n\n    function calculateWeAreAllSatoshiRewards(\n        address _staker,\n        uint256 _stakeIndex\n    ) \n        public \n        view \n        returns (uint256)\n    {\n        StakeStruct storage _stake = staked[_staker][_stakeIndex];\n        uint256 _rewards = 0;\n        /* Calculate what week stake was opened */\n        uint256 startWeek = _stake.stakeTime\n            .sub(launchTime)\n            .div(7 days);\n\n        /* Calculate current week */\n        uint256 weeksSinceLaunch = block.timestamp\n            .sub(launchTime)\n            .div(7 days);\n\n        /* Award 2% of unclaimed coins at end of every week */\n        for (uint256 _i = startWeek; _i < weeksSinceLaunch; _i++) {\n            _rewards = _rewards\n                .add(unclaimedCoinsByWeek[_i]\n                .mul(_stake.stakeAmount)\n                .div(50));\n        }\n\n        return _rewards;\n    }\n\n    // TODO: this must operate on weekly claims\n    function calculateViralRewards(\n        uint256 _rewards\n    ) \n        public \n        view \n        returns (uint256)\n    {\n        /* Add bonus percentage to _rewards from 0-10% based on adoption */\n        return _rewards\n            .mul(totalRedeemed)\n            .div(totalBtcCirculationAtFork)\n            .div(10);\n    }\n\n    function calculateCritMassRewards(\n        uint256 _rewards\n    ) \n        public \n        view \n        returns (uint256)\n    {\n        /* Add bonus percentage to _rewards from 0-10% based on adoption */\n        return _rewards\n            .mul(totalRedeemed)\n            .div(maximumRedeemable)\n            .div(10);\n    }\n\n    function calculateSpeedBonus(\n        address _staker,\n        uint256 _stakeIndex,\n        uint256 _rewards\n    )\n        public\n        view\n        returns (uint256)\n    {\n        uint256 _stakeTime = staked[_staker][_stakeIndex].stakeTime;\n        uint256 _weeksSinceLaunch = _stakeTime\n            .sub(launchTime)\n            .div(7 days);\n\n        // bonus based on 10 percent being max \n        uint256 _scaler = uint256(10) // max bonus percent\n            .sub( // sub calculated portion of max bonus percent\n                _weeksSinceLaunch\n                .mul(100) // raise by 100 due to integer division\n                .div(50) // max weeks\n                .mul(10) // max bonus percent\n                .div(100) // lower by 200 after calculations\n            );\n\n        return _rewards.mul(_scaler).div(100);\n    }\n\n    function calculateAdditionalRewards(\n        address _staker,\n        uint256 _stakeIndex, \n        uint256 _initRewards\n    ) \n        public \n        view \n        returns (uint256)\n    {\n        // only give rewards if within first 50 weeks\n        if (block.timestamp.sub(launchTime).div(7 days) <= 50) {\n            uint256 _rewards = 0;\n            _rewards = _initRewards.add(calculateWeAreAllSatoshiRewards(_staker, _stakeIndex));\n            _rewards = _rewards\n                .add(calculateViralRewards(_rewards))\n                .add(calculateCritMassRewards(_rewards))\n                .add(calculateSpeedBonus(_staker, _stakeIndex, _rewards));\n\n            return _rewards;\n        } else {\n            return 0;\n        }\n    }\n\n    function calculateStakingRewards(\n        address _staker,\n        uint256 _stakeIndex\n    ) \n        public \n        view \n        returns (uint256)\n    {\n        StakeStruct storage _stake = staked[_staker][_stakeIndex];\n        /* Base interest rate */\n        uint256 _interestRateTimesHundred = interestRatePercent.mul(100);\n\n        // calculate percent of staked coins vs totalSupply to use for interest rate reduction\n        uint256 _scaler = _stake.totalStakedCoinsAtStart\n            .mul(100)\n            .div(totalSupply_);\n\n        /* reduce interest rate by percent of tokens staked against totalSupply */\n        _interestRateTimesHundred = _interestRateTimesHundred.div(_scaler);\n\n        /* Calculate Periods */\n        uint256 _periods = block.timestamp\n            .sub(_stake.stakeTime)\n            .div(10 days);\n\n        /* Compound */\n        uint256 _compounded = compound(\n            _stake.stakeAmount, \n            _periods, \n            _interestRateTimesHundred\n        );\n\n        /* Calculate final staking rewards with time bonus */\n        return _compounded.sub(_stake.stakeAmount);\n    }\n\n    // paginate?\n    function getCurrentStaked(\n        address _staker\n    )\n        external \n        view \n        returns (uint256)\n    {\n        uint256 _stakes = 0;\n\n        for (uint256 _i; _i < staked[_staker].length; _i++) {\n            /* Add Stake Amount */\n            _stakes = _stakes.add(staked[_staker][_i].stakeAmount);\n            /* Check if stake has matured */\n            if (block.timestamp > staked[_staker][_i].unlockTime) {\n                /* Calculate Rewards */\n                _stakes = _stakes.add(\n                    calculateAdditionalRewards(\n                        _staker,\n                        _i,\n                        calculateStakingRewards(_staker, _i)\n                    )\n                );\n            }\n        }\n\n        return _stakes;\n    }\n\n    // TODO: paginate or make single use\n    function claimStakingRewards(\n        address _staker\n    ) \n        external \n    {\n        /* Check if weekly data needs to be updated */\n        storeWeekUnclaimed();\n\n        for (uint256 _i = 0; _i < staked[_staker].length; _i++) {\n            /* Check if stake has matured */\n            if (block.timestamp > staked[_staker][_i].unlockTime) {\n                /* Remove StakedCoins from global counter */\n                totalStakedCoins = totalStakedCoins\n                    .sub(staked[_staker][_i].stakeAmount);\n\n                /* Sub staked coins from contract */\n                balances[address(this)] = balances[address(this)]\n                    .sub(staked[_staker][_i].stakeAmount);\n                \n                /* Add staked coins to staker */\n                balances[_staker] = balances[_staker]\n                    .add(staked[_staker][_i].stakeAmount);\n\n                emit Transfer(\n                    address(this), \n                    _staker, \n                    staked[_staker][_i].stakeAmount\n                );\n\n                /* Calculate Rewards */\n                uint256 _stakingRewards = calculateStakingRewards(_staker, _i);\n                uint256 _rewards = _stakingRewards.add(\n                    calculateAdditionalRewards(\n                        _staker,\n                        _i,\n                        _stakingRewards\n                    )\n                );\n\n                /* Award staking rewards to staker */\n                balances[_staker] = balances[_staker].add(_rewards);\n\n                /* Award rewards to origin contract */\n                balances[origin] = balances[origin]\n                    .add(_rewards\n                    .sub(_stakingRewards));\n\n                /* Increase supply */\n                totalSupply_ = totalSupply_.add(_rewards.mul(2));\n\n                /* Remove Stake */\n                delete staked[_staker][_i];\n\n                emit Mint(_staker, _rewards);\n            }\n        }\n    }\n}\n",
  "sourcePath": "/Users/tovarishfin/dev/bhx/bhx-contracts/contracts/StakeableToken.sol",
  "compiler": {
    "name": "solc",
    "version": "0.4.24+commit.e67f0147.Emscripten.clang"
  },
  "schemaVersion": "2.0.0",
  "updatedAt": "2018-07-09T15:57:21.995Z"
}