{
  "contractName": "StakeableToken",
  "abi": [
    {
      "constant": true,
      "inputs": [
        {
          "name": "_hash",
          "type": "bytes32"
        },
        {
          "name": "_v",
          "type": "uint8"
        },
        {
          "name": "_r",
          "type": "bytes32"
        },
        {
          "name": "_s",
          "type": "bytes32"
        },
        {
          "name": "_expected",
          "type": "address"
        },
        {
          "name": "_addPrefix",
          "type": "bool"
        }
      ],
      "name": "validateSignature",
      "outputs": [
        {
          "name": "",
          "type": "bool"
        }
      ],
      "payable": false,
      "stateMutability": "pure",
      "type": "function"
    },
    {
      "constant": true,
      "inputs": [],
      "name": "maximumRedeemable",
      "outputs": [
        {
          "name": "",
          "type": "uint256"
        }
      ],
      "payable": false,
      "stateMutability": "view",
      "type": "function"
    },
    {
      "constant": false,
      "inputs": [
        {
          "name": "_spender",
          "type": "address"
        },
        {
          "name": "_value",
          "type": "uint256"
        }
      ],
      "name": "approve",
      "outputs": [
        {
          "name": "",
          "type": "bool"
        }
      ],
      "payable": false,
      "stateMutability": "nonpayable",
      "type": "function"
    },
    {
      "constant": false,
      "inputs": [],
      "name": "storeWeeklyUnclaimedCoins",
      "outputs": [],
      "payable": false,
      "stateMutability": "nonpayable",
      "type": "function"
    },
    {
      "constant": true,
      "inputs": [],
      "name": "interestRatePercent",
      "outputs": [
        {
          "name": "",
          "type": "uint256"
        }
      ],
      "payable": false,
      "stateMutability": "view",
      "type": "function"
    },
    {
      "constant": true,
      "inputs": [],
      "name": "totalStakedCoins",
      "outputs": [
        {
          "name": "",
          "type": "uint256"
        }
      ],
      "payable": false,
      "stateMutability": "view",
      "type": "function"
    },
    {
      "constant": true,
      "inputs": [],
      "name": "totalSupply",
      "outputs": [
        {
          "name": "",
          "type": "uint256"
        }
      ],
      "payable": false,
      "stateMutability": "view",
      "type": "function"
    },
    {
      "constant": false,
      "inputs": [
        {
          "name": "_from",
          "type": "address"
        },
        {
          "name": "_to",
          "type": "address"
        },
        {
          "name": "_value",
          "type": "uint256"
        }
      ],
      "name": "transferFrom",
      "outputs": [
        {
          "name": "",
          "type": "bool"
        }
      ],
      "payable": false,
      "stateMutability": "nonpayable",
      "type": "function"
    },
    {
      "constant": true,
      "inputs": [
        {
          "name": "_satoshis",
          "type": "uint256"
        }
      ],
      "name": "getRedeemAmount",
      "outputs": [
        {
          "name": "",
          "type": "uint256"
        },
        {
          "name": "",
          "type": "uint256"
        }
      ],
      "payable": false,
      "stateMutability": "view",
      "type": "function"
    },
    {
      "constant": true,
      "inputs": [
        {
          "name": "",
          "type": "uint256"
        }
      ],
      "name": "unclaimedCoinsByWeek",
      "outputs": [
        {
          "name": "unclaimedCoins",
          "type": "uint256"
        },
        {
          "name": "totalStaked",
          "type": "uint256"
        }
      ],
      "payable": false,
      "stateMutability": "view",
      "type": "function"
    },
    {
      "constant": true,
      "inputs": [],
      "name": "oneInterestPeriodInSeconds",
      "outputs": [
        {
          "name": "",
          "type": "uint256"
        }
      ],
      "payable": false,
      "stateMutability": "view",
      "type": "function"
    },
    {
      "constant": true,
      "inputs": [],
      "name": "redeemedCount",
      "outputs": [
        {
          "name": "",
          "type": "uint256"
        }
      ],
      "payable": false,
      "stateMutability": "view",
      "type": "function"
    },
    {
      "constant": true,
      "inputs": [
        {
          "name": "_pubKey",
          "type": "bytes"
        }
      ],
      "name": "pubKeyToEthereumAddress",
      "outputs": [
        {
          "name": "",
          "type": "address"
        }
      ],
      "payable": false,
      "stateMutability": "pure",
      "type": "function"
    },
    {
      "constant": true,
      "inputs": [],
      "name": "maxStakingTimeInSeconds",
      "outputs": [
        {
          "name": "",
          "type": "uint256"
        }
      ],
      "payable": false,
      "stateMutability": "view",
      "type": "function"
    },
    {
      "constant": false,
      "inputs": [
        {
          "name": "_spender",
          "type": "address"
        },
        {
          "name": "_subtractedValue",
          "type": "uint256"
        }
      ],
      "name": "decreaseApproval",
      "outputs": [
        {
          "name": "",
          "type": "bool"
        }
      ],
      "payable": false,
      "stateMutability": "nonpayable",
      "type": "function"
    },
    {
      "constant": true,
      "inputs": [
        {
          "name": "",
          "type": "bytes32"
        }
      ],
      "name": "redeemedUTXOs",
      "outputs": [
        {
          "name": "",
          "type": "bool"
        }
      ],
      "payable": false,
      "stateMutability": "view",
      "type": "function"
    },
    {
      "constant": true,
      "inputs": [],
      "name": "rootUtxoMerkleTreeHash",
      "outputs": [
        {
          "name": "",
          "type": "bytes32"
        }
      ],
      "payable": false,
      "stateMutability": "view",
      "type": "function"
    },
    {
      "constant": true,
      "inputs": [
        {
          "name": "_owner",
          "type": "address"
        }
      ],
      "name": "balanceOf",
      "outputs": [
        {
          "name": "",
          "type": "uint256"
        }
      ],
      "payable": false,
      "stateMutability": "view",
      "type": "function"
    },
    {
      "constant": false,
      "inputs": [
        {
          "name": "_satoshis",
          "type": "uint256"
        },
        {
          "name": "_proof",
          "type": "bytes32[]"
        },
        {
          "name": "_pubKey",
          "type": "bytes"
        },
        {
          "name": "_isCompressed",
          "type": "bool"
        },
        {
          "name": "_v",
          "type": "uint8"
        },
        {
          "name": "_r",
          "type": "bytes32"
        },
        {
          "name": "_s",
          "type": "bytes32"
        }
      ],
      "name": "redeemUtxo",
      "outputs": [
        {
          "name": "",
          "type": "uint256"
        }
      ],
      "payable": false,
      "stateMutability": "nonpayable",
      "type": "function"
    },
    {
      "constant": true,
      "inputs": [],
      "name": "launchTime",
      "outputs": [
        {
          "name": "",
          "type": "uint256"
        }
      ],
      "payable": false,
      "stateMutability": "view",
      "type": "function"
    },
    {
      "constant": true,
      "inputs": [
        {
          "name": "_merkleLeafHash",
          "type": "bytes32"
        },
        {
          "name": "_proof",
          "type": "bytes32[]"
        }
      ],
      "name": "canRedeemUtxoHash",
      "outputs": [
        {
          "name": "",
          "type": "bool"
        }
      ],
      "payable": false,
      "stateMutability": "view",
      "type": "function"
    },
    {
      "constant": true,
      "inputs": [
        {
          "name": "",
          "type": "address"
        },
        {
          "name": "",
          "type": "uint256"
        }
      ],
      "name": "staked",
      "outputs": [
        {
          "name": "stakeAmount",
          "type": "uint256"
        },
        {
          "name": "stakeTime",
          "type": "uint256"
        },
        {
          "name": "unlockTime",
          "type": "uint256"
        },
        {
          "name": "totalStakedCoinsAtStart",
          "type": "uint256"
        },
        {
          "name": "maxOfTotalSupplyVSMaxRedeemableAtStart",
          "type": "uint256"
        }
      ],
      "payable": false,
      "stateMutability": "view",
      "type": "function"
    },
    {
      "constant": true,
      "inputs": [],
      "name": "origin",
      "outputs": [
        {
          "name": "",
          "type": "address"
        }
      ],
      "payable": false,
      "stateMutability": "view",
      "type": "function"
    },
    {
      "constant": true,
      "inputs": [],
      "name": "lastUpdatedWeek",
      "outputs": [
        {
          "name": "",
          "type": "uint256"
        }
      ],
      "payable": false,
      "stateMutability": "view",
      "type": "function"
    },
    {
      "constant": false,
      "inputs": [
        {
          "name": "_to",
          "type": "address"
        },
        {
          "name": "_value",
          "type": "uint256"
        }
      ],
      "name": "transfer",
      "outputs": [
        {
          "name": "",
          "type": "bool"
        }
      ],
      "payable": false,
      "stateMutability": "nonpayable",
      "type": "function"
    },
    {
      "constant": false,
      "inputs": [
        {
          "name": "_satoshis",
          "type": "uint256"
        },
        {
          "name": "_proof",
          "type": "bytes32[]"
        },
        {
          "name": "_pubKey",
          "type": "bytes"
        },
        {
          "name": "_isCompressed",
          "type": "bool"
        },
        {
          "name": "_v",
          "type": "uint8"
        },
        {
          "name": "_r",
          "type": "bytes32"
        },
        {
          "name": "_s",
          "type": "bytes32"
        },
        {
          "name": "_referrer",
          "type": "address"
        }
      ],
      "name": "redeemReferredUtxo",
      "outputs": [
        {
          "name": "_tokensRedeemed",
          "type": "uint256"
        }
      ],
      "payable": false,
      "stateMutability": "nonpayable",
      "type": "function"
    },
    {
      "constant": true,
      "inputs": [
        {
          "name": "_proof",
          "type": "bytes32[]"
        },
        {
          "name": "_merkleLeafHash",
          "type": "bytes32"
        }
      ],
      "name": "verifyProof",
      "outputs": [
        {
          "name": "",
          "type": "bool"
        }
      ],
      "payable": false,
      "stateMutability": "view",
      "type": "function"
    },
    {
      "constant": true,
      "inputs": [
        {
          "name": "_addr",
          "type": "address"
        },
        {
          "name": "_pubKey",
          "type": "bytes"
        },
        {
          "name": "_v",
          "type": "uint8"
        },
        {
          "name": "_r",
          "type": "bytes32"
        },
        {
          "name": "_s",
          "type": "bytes32"
        }
      ],
      "name": "ecdsaVerify",
      "outputs": [
        {
          "name": "",
          "type": "bool"
        }
      ],
      "payable": false,
      "stateMutability": "pure",
      "type": "function"
    },
    {
      "constant": true,
      "inputs": [
        {
          "name": "_originalAddress",
          "type": "bytes20"
        },
        {
          "name": "_satoshis",
          "type": "uint256"
        },
        {
          "name": "_proof",
          "type": "bytes32[]"
        }
      ],
      "name": "canRedeemUtxo",
      "outputs": [
        {
          "name": "",
          "type": "bool"
        }
      ],
      "payable": false,
      "stateMutability": "view",
      "type": "function"
    },
    {
      "constant": false,
      "inputs": [
        {
          "name": "_spender",
          "type": "address"
        },
        {
          "name": "_addedValue",
          "type": "uint256"
        }
      ],
      "name": "increaseApproval",
      "outputs": [
        {
          "name": "",
          "type": "bool"
        }
      ],
      "payable": false,
      "stateMutability": "nonpayable",
      "type": "function"
    },
    {
      "constant": true,
      "inputs": [
        {
          "name": "_owner",
          "type": "address"
        },
        {
          "name": "_spender",
          "type": "address"
        }
      ],
      "name": "allowance",
      "outputs": [
        {
          "name": "",
          "type": "uint256"
        }
      ],
      "payable": false,
      "stateMutability": "view",
      "type": "function"
    },
    {
      "constant": true,
      "inputs": [
        {
          "name": "_pubKey",
          "type": "bytes"
        },
        {
          "name": "_isCompressed",
          "type": "bool"
        }
      ],
      "name": "pubKeyToBitcoinAddress",
      "outputs": [
        {
          "name": "",
          "type": "bytes20"
        }
      ],
      "payable": false,
      "stateMutability": "pure",
      "type": "function"
    },
    {
      "constant": true,
      "inputs": [],
      "name": "totalRedeemed",
      "outputs": [
        {
          "name": "",
          "type": "uint256"
        }
      ],
      "payable": false,
      "stateMutability": "view",
      "type": "function"
    },
    {
      "anonymous": false,
      "inputs": [
        {
          "indexed": true,
          "name": "_address",
          "type": "address"
        },
        {
          "indexed": false,
          "name": "_reward",
          "type": "uint256"
        }
      ],
      "name": "Mint",
      "type": "event"
    },
    {
      "anonymous": false,
      "inputs": [
        {
          "indexed": true,
          "name": "owner",
          "type": "address"
        },
        {
          "indexed": true,
          "name": "spender",
          "type": "address"
        },
        {
          "indexed": false,
          "name": "value",
          "type": "uint256"
        }
      ],
      "name": "Approval",
      "type": "event"
    },
    {
      "anonymous": false,
      "inputs": [
        {
          "indexed": true,
          "name": "from",
          "type": "address"
        },
        {
          "indexed": true,
          "name": "to",
          "type": "address"
        },
        {
          "indexed": false,
          "name": "value",
          "type": "uint256"
        }
      ],
      "name": "Transfer",
      "type": "event"
    },
    {
      "constant": true,
      "inputs": [
        {
          "name": "_staker",
          "type": "address"
        }
      ],
      "name": "getUserStakes",
      "outputs": [
        {
          "name": "",
          "type": "uint256[]"
        },
        {
          "name": "",
          "type": "uint256[]"
        },
        {
          "name": "",
          "type": "uint256[]"
        },
        {
          "name": "",
          "type": "uint256[]"
        }
      ],
      "payable": false,
      "stateMutability": "view",
      "type": "function"
    },
    {
      "constant": true,
      "inputs": [],
      "name": "getCirculatingSupply",
      "outputs": [
        {
          "name": "",
          "type": "uint256"
        }
      ],
      "payable": false,
      "stateMutability": "view",
      "type": "function"
    },
    {
      "constant": true,
      "inputs": [],
      "name": "getWeeksSinceLaunch",
      "outputs": [
        {
          "name": "",
          "type": "uint256"
        }
      ],
      "payable": false,
      "stateMutability": "view",
      "type": "function"
    },
    {
      "constant": true,
      "inputs": [],
      "name": "isDuringBonusPeriod",
      "outputs": [
        {
          "name": "",
          "type": "bool"
        }
      ],
      "payable": false,
      "stateMutability": "view",
      "type": "function"
    },
    {
      "constant": true,
      "inputs": [
        {
          "name": "_principle",
          "type": "uint256"
        },
        {
          "name": "_periods",
          "type": "uint256"
        },
        {
          "name": "_rate",
          "type": "uint256"
        }
      ],
      "name": "compound",
      "outputs": [
        {
          "name": "",
          "type": "uint256"
        }
      ],
      "payable": false,
      "stateMutability": "pure",
      "type": "function"
    },
    {
      "constant": true,
      "inputs": [
        {
          "name": "_staker",
          "type": "address"
        },
        {
          "name": "_stakeIndex",
          "type": "uint256"
        }
      ],
      "name": "calculateStakingRewards",
      "outputs": [
        {
          "name": "",
          "type": "uint256"
        }
      ],
      "payable": false,
      "stateMutability": "view",
      "type": "function"
    },
    {
      "constant": true,
      "inputs": [
        {
          "name": "_stakeAmount",
          "type": "uint256"
        },
        {
          "name": "_stakeTime",
          "type": "uint256"
        },
        {
          "name": "_unlockTime",
          "type": "uint256"
        }
      ],
      "name": "calculateWeAreAllSatoshiRewards",
      "outputs": [
        {
          "name": "",
          "type": "uint256"
        }
      ],
      "payable": false,
      "stateMutability": "view",
      "type": "function"
    },
    {
      "constant": true,
      "inputs": [
        {
          "name": "_stakePayout",
          "type": "uint256"
        }
      ],
      "name": "calculateViralRewards",
      "outputs": [
        {
          "name": "",
          "type": "uint256"
        }
      ],
      "payable": false,
      "stateMutability": "view",
      "type": "function"
    },
    {
      "constant": true,
      "inputs": [
        {
          "name": "_stakePayout",
          "type": "uint256"
        }
      ],
      "name": "calculateCritMassRewards",
      "outputs": [
        {
          "name": "",
          "type": "uint256"
        }
      ],
      "payable": false,
      "stateMutability": "view",
      "type": "function"
    },
    {
      "constant": true,
      "inputs": [
        {
          "name": "_staker",
          "type": "address"
        },
        {
          "name": "_stakeIndex",
          "type": "uint256"
        },
        {
          "name": "_stakePayout",
          "type": "uint256"
        }
      ],
      "name": "calculateAdditionalRewards",
      "outputs": [
        {
          "name": "",
          "type": "uint256"
        }
      ],
      "payable": false,
      "stateMutability": "view",
      "type": "function"
    },
    {
      "constant": true,
      "inputs": [
        {
          "name": "_staker",
          "type": "address"
        },
        {
          "name": "_startIndex",
          "type": "uint256"
        },
        {
          "name": "_endIndex",
          "type": "uint256"
        }
      ],
      "name": "getStakedAtIndexes",
      "outputs": [
        {
          "name": "",
          "type": "uint256"
        }
      ],
      "payable": false,
      "stateMutability": "view",
      "type": "function"
    },
    {
      "constant": true,
      "inputs": [
        {
          "name": "_staker",
          "type": "address"
        }
      ],
      "name": "getTotalUserStaked",
      "outputs": [
        {
          "name": "",
          "type": "uint256"
        }
      ],
      "payable": false,
      "stateMutability": "view",
      "type": "function"
    },
    {
      "constant": true,
      "inputs": [
        {
          "name": "_staker",
          "type": "address"
        },
        {
          "name": "_stakeIndex",
          "type": "uint256"
        }
      ],
      "name": "calculateSingleStakePlusRewards",
      "outputs": [
        {
          "name": "",
          "type": "uint256"
        }
      ],
      "payable": false,
      "stateMutability": "view",
      "type": "function"
    },
    {
      "constant": false,
      "inputs": [
        {
          "name": "_value",
          "type": "uint256"
        },
        {
          "name": "_stakePeriods",
          "type": "uint256"
        }
      ],
      "name": "startStake",
      "outputs": [
        {
          "name": "",
          "type": "bool"
        }
      ],
      "payable": false,
      "stateMutability": "nonpayable",
      "type": "function"
    },
    {
      "constant": false,
      "inputs": [
        {
          "name": "_staker",
          "type": "address"
        },
        {
          "name": "_stakeIndex",
          "type": "uint256"
        }
      ],
      "name": "claimSingleStakingReward",
      "outputs": [
        {
          "name": "",
          "type": "bool"
        }
      ],
      "payable": false,
      "stateMutability": "nonpayable",
      "type": "function"
    },
    {
      "constant": false,
      "inputs": [
        {
          "name": "_staker",
          "type": "address"
        },
        {
          "name": "_startIndex",
          "type": "uint256"
        },
        {
          "name": "_endIndex",
          "type": "uint256"
        }
      ],
      "name": "claimMultipleStakingRewards",
      "outputs": [
        {
          "name": "",
          "type": "bool"
        }
      ],
      "payable": false,
      "stateMutability": "nonpayable",
      "type": "function"
    },
    {
      "constant": false,
      "inputs": [
        {
          "name": "_staker",
          "type": "address"
        }
      ],
      "name": "claimAllStakingRewards",
      "outputs": [
        {
          "name": "",
          "type": "bool"
        }
      ],
      "payable": false,
      "stateMutability": "nonpayable",
      "type": "function"
    }
  ],
  "bytecode": "0x60806040526000600755600060085534801561001a57600080fd5b506151b58061002a6000396000f30060806040526004361061025c576000357c0100000000000000000000000000000000000000000000000000000000900463ffffffff1680630867c0ad1461026157806308b4312b146102ff578063095ea7b31461032a5780630b6f50991461038f578063128bfcae146103a657806316043f5d146103f55780631765f4bf1461042057806318160ddd1461044b578063229cfc321461047657806323b872dd146104b75780632b112e491461053c5780632c3ee88c146105675780632c48d57b146105af57806330fd546e146105de5780634f265bf41461062657806352aa3e6c146106515780635418796c1461067c57806365925c2b146107255780636618846314610750578063687cf4a4146107b55780636aaf67e2146107fe57806370a0823114610831578063753bf8cd1461088857806375889a2b14610987578063790ca413146109e257806381437de814610a0d57806381cd84b914610a72578063842e298114610afe5780638f16981614610c6e578063938b5f3214610ceb57806394ce28e814610d425780639d65b89214610d6d578063a9059cbb14610d98578063b1ccf19314610dfd578063b242c9bf14610ec3578063b80ac7df14610f2e578063bac5c04814610fba578063cb9c501f14611011578063ce267b5514611080578063cfc2334e1461114a578063d73dd623146111eb578063dd62ed3e14611250578063e073ef69146112c7578063e26e7b501461136e578063e39a385a146113af578063ebe558e914611410578063f14bfbd014611465578063f35dad40146114d0578063f3c85eba146114fb578063f6c45d0214611550575b600080fd5b34801561026d57600080fd5b506102e56004803603810190808035600019169060200190929190803560ff16906020019092919080356000191690602001909291908035600019169060200190929190803573ffffffffffffffffffffffffffffffffffffffff1690602001909291908035151590602001909291905050506115b1565b604051808215151515815260200191505060405180910390f35b34801561030b57600080fd5b5061031461179c565b6040518082815260200191505060405180910390f35b34801561033657600080fd5b50610375600480360381019080803573ffffffffffffffffffffffffffffffffffffffff169060200190929190803590602001909291905050506117a2565b604051808215151515815260200191505060405180910390f35b34801561039b57600080fd5b506103a4611894565b005b3480156103b257600080fd5b506103db6004803603810190808035906020019092919080359060200190929190505050611a2d565b604051808215151515815260200191505060405180910390f35b34801561040157600080fd5b5061040a611dab565b6040518082815260200191505060405180910390f35b34801561042c57600080fd5b50610435611db0565b6040518082815260200191505060405180910390f35b34801561045757600080fd5b50610460611db6565b6040518082815260200191505060405180910390f35b34801561048257600080fd5b506104a160048036038101908080359060200190929190505050611dc0565b6040518082815260200191505060405180910390f35b3480156104c357600080fd5b50610522600480360381019080803573ffffffffffffffffffffffffffffffffffffffff169060200190929190803573ffffffffffffffffffffffffffffffffffffffff16906020019092919080359060200190929190505050611e05565b604051808215151515815260200191505060405180910390f35b34801561054857600080fd5b506105516121bf565b6040518082815260200191505060405180910390f35b34801561057357600080fd5b50610592600480360381019080803590602001909291905050506121dd565b604051808381526020018281526020019250505060405180910390f35b3480156105bb57600080fd5b506105c461262e565b604051808215151515815260200191505060405180910390f35b3480156105ea57600080fd5b5061060960048036038101908080359060200190929190505050612641565b604051808381526020018281526020019250505060405180910390f35b34801561063257600080fd5b5061063b612665565b6040518082815260200191505060405180910390f35b34801561065d57600080fd5b5061066661266c565b6040518082815260200191505060405180910390f35b34801561068857600080fd5b506106e3600480360381019080803590602001908201803590602001908080601f0160208091040260200160405190810160405280939291908181526020018383808284378201915050505050509192919290505050612672565b604051808273ffffffffffffffffffffffffffffffffffffffff1673ffffffffffffffffffffffffffffffffffffffff16815260200191505060405180910390f35b34801561073157600080fd5b5061073a6126f8565b6040518082815260200191505060405180910390f35b34801561075c57600080fd5b5061079b600480360381019080803573ffffffffffffffffffffffffffffffffffffffff16906020019092919080359060200190929190505050612700565b604051808215151515815260200191505060405180910390f35b3480156107c157600080fd5b506107e46004803603810190808035600019169060200190929190505050612991565b604051808215151515815260200191505060405180910390f35b34801561080a57600080fd5b506108136129b1565b60405180826000191660001916815260200191505060405180910390f35b34801561083d57600080fd5b50610872600480360381019080803573ffffffffffffffffffffffffffffffffffffffff1690602001909291905050506129b7565b6040518082815260200191505060405180910390f35b34801561089457600080fd5b506109716004803603810190808035906020019092919080359060200190820180359060200190808060200260200160405190810160405280939291908181526020018383602002808284378201915050505050509192919290803590602001908201803590602001908080601f0160208091040260200160405190810160405280939291908181526020018383808284378201915050505050509192919290803515159060200190929190803560ff169060200190929190803560001916906020019092919080356000191690602001909291905050506129ff565b6040518082815260200191505060405180910390f35b34801561099357600080fd5b506109c8600480360381019080803573ffffffffffffffffffffffffffffffffffffffff169060200190929190505050612e6d565b604051808215151515815260200191505060405180910390f35b3480156109ee57600080fd5b506109f7612ff2565b6040518082815260200191505060405180910390f35b348015610a1957600080fd5b50610a58600480360381019080803573ffffffffffffffffffffffffffffffffffffffff16906020019092919080359060200190929190505050612ff8565b604051808215151515815260200191505060405180910390f35b348015610a7e57600080fd5b50610ae46004803603810190808035600019169060200190929190803590602001908201803590602001908080602002602001604051908101604052809392919081815260200183836020028082843782019150505050505091929192905050506133e3565b604051808215151515815260200191505060405180910390f35b348015610b0a57600080fd5b50610b3f600480360381019080803573ffffffffffffffffffffffffffffffffffffffff16906020019092919050505061342e565b6040518080602001806020018060200180602001858103855289818151815260200191508051906020019060200280838360005b83811015610b8e578082015181840152602081019050610b73565b50505050905001858103845288818151815260200191508051906020019060200280838360005b83811015610bd0578082015181840152602081019050610bb5565b50505050905001858103835287818151815260200191508051906020019060200280838360005b83811015610c12578082015181840152602081019050610bf7565b50505050905001858103825286818151815260200191508051906020019060200280838360005b83811015610c54578082015181840152602081019050610c39565b505050509050019850505050505050505060405180910390f35b348015610c7a57600080fd5b50610cb9600480360381019080803573ffffffffffffffffffffffffffffffffffffffff16906020019092919080359060200190929190505050613660565b604051808681526020018581526020018481526020018381526020018281526020019550505050505060405180910390f35b348015610cf757600080fd5b50610d006136b2565b604051808273ffffffffffffffffffffffffffffffffffffffff1673ffffffffffffffffffffffffffffffffffffffff16815260200191505060405180910390f35b348015610d4e57600080fd5b50610d576136d8565b6040518082815260200191505060405180910390f35b348015610d7957600080fd5b50610d8261371a565b6040518082815260200191505060405180910390f35b348015610da457600080fd5b50610de3600480360381019080803573ffffffffffffffffffffffffffffffffffffffff16906020019092919080359060200190929190505050613720565b604051808215151515815260200191505060405180910390f35b348015610e0957600080fd5b50610ead60048036038101908080359060200190929190803590602001908201803590602001919091929391929390803590602001908201803590602001919091929391929390803515159060200190929190803560ff16906020019092919080356000191690602001909291908035600019169060200190929190803573ffffffffffffffffffffffffffffffffffffffff16906020019092919050505061393f565b6040518082815260200191505060405180910390f35b348015610ecf57600080fd5b50610f18600480360381019080803573ffffffffffffffffffffffffffffffffffffffff1690602001909291908035906020019092919080359060200190929190505050613bf9565b6040518082815260200191505060405180910390f35b348015610f3a57600080fd5b50610fa0600480360381019080803590602001908201803590602001908080602002602001604051908101604052809392919081815260200183836020028082843782019150505050505091929192908035600019169060200190929190505050613dc2565b604051808215151515815260200191505060405180910390f35b348015610fc657600080fd5b50610ffb600480360381019080803573ffffffffffffffffffffffffffffffffffffffff169060200190929190505050613dd9565b6040518082815260200191505060405180910390f35b34801561101d57600080fd5b50611066600480360381019080803573ffffffffffffffffffffffffffffffffffffffff1690602001909291908035906020019092919080359060200190929190505050613e33565b604051808215151515815260200191505060405180910390f35b34801561108c57600080fd5b50611130600480360381019080803573ffffffffffffffffffffffffffffffffffffffff169060200190929190803590602001908201803590602001908080601f0160208091040260200160405190810160405280939291908181526020018383808284378201915050505050509192919290803560ff16906020019092919080356000191690602001909291908035600019169060200190929190505050613f3d565b604051808215151515815260200191505060405180910390f35b34801561115657600080fd5b506111d160048036038101908080356bffffffffffffffffffffffff19169060200190929190803590602001909291908035906020019082018035906020019080806020026020016040519081016040528093929190818152602001838360200280828437820191505050505050919291929050505061405c565b604051808215151515815260200191505060405180910390f35b3480156111f757600080fd5b50611236600480360381019080803573ffffffffffffffffffffffffffffffffffffffff1690602001909291908035906020019092919050505061411d565b604051808215151515815260200191505060405180910390f35b34801561125c57600080fd5b506112b1600480360381019080803573ffffffffffffffffffffffffffffffffffffffff169060200190929190803573ffffffffffffffffffffffffffffffffffffffff169060200190929190505050614319565b6040518082815260200191505060405180910390f35b3480156112d357600080fd5b5061133a600480360381019080803590602001908201803590602001908080601f01602080910402602001604051908101604052809392919081815260200183838082843782019150505050505091929192908035151590602001909291905050506143a0565b60405180826bffffffffffffffffffffffff19166bffffffffffffffffffffffff1916815260200191505060405180910390f35b34801561137a57600080fd5b506113996004803603810190808035906020019092919050505061475f565b6040518082815260200191505060405180910390f35b3480156113bb57600080fd5b506113fa600480360381019080803573ffffffffffffffffffffffffffffffffffffffff169060200190929190803590602001909291905050506147a4565b6040518082815260200191505060405180910390f35b34801561141c57600080fd5b5061144f6004803603810190808035906020019092919080359060200190929190803590602001909291905050506148bc565b6040518082815260200191505060405180910390f35b34801561147157600080fd5b506114ba600480360381019080803573ffffffffffffffffffffffffffffffffffffffff1690602001909291908035906020019092919080359060200190929190505050614a1a565b6040518082815260200191505060405180910390f35b3480156114dc57600080fd5b506114e5614b25565b6040518082815260200191505060405180910390f35b34801561150757600080fd5b5061153a600480360381019080803590602001909291908035906020019092919080359060200190929190505050614b2b565b6040518082815260200191505060405180910390f35b34801561155c57600080fd5b5061159b600480360381019080803573ffffffffffffffffffffffffffffffffffffffff16906020019092919080359060200190929190505050614c42565b6040518082815260200191505060405180910390f35b60008060608315156115c5578891506116df565b6040805190810160405280601c81526020017f19457468657265756d205369676e6564204d6573736167653a0a333200000000815250905080896040516020018083805190602001908083835b6020831015156116375780518252602082019150602081019050602083039250611612565b6001836020036101000a0380198251168184511680821785525050505050509050018260001916600019168152602001925050506040516020818303038152906040526040518082805190602001908083835b6020831015156116af578051825260208201915060208101905060208303925061168a565b6001836020036101000a038019825116818451168082178552505050505050905001915050604051809103902091505b8473ffffffffffffffffffffffffffffffffffffffff166001838a8a8a604051600081526020016040526040518085600019166000191681526020018460ff1660ff1681526020018360001916600019168152602001826000191660001916815260200194505050505060206040516020810390808403906000865af115801561176d573d6000803e3d6000fd5b5050506020604051035173ffffffffffffffffffffffffffffffffffffffff1614925050509695505050505050565b60095481565b600081600260003373ffffffffffffffffffffffffffffffffffffffff1673ffffffffffffffffffffffffffffffffffffffff16815260200190815260200160002060008573ffffffffffffffffffffffffffffffffffffffff1673ffffffffffffffffffffffffffffffffffffffff168152602001908152602001600020819055508273ffffffffffffffffffffffffffffffffffffffff163373ffffffffffffffffffffffffffffffffffffffff167f8c5be1e5ebec7d5bd14f71427d1e84f3dd0314c0f7b2291e5b200ac8c7c3b925846040518082815260200191505060405180910390a36001905092915050565b6000806118c162093a806118b360045442614dc590919063ffffffff16565b614dde90919063ffffffff16565b91505b600554821115611a29576118e5600754600954614dc590919063ffffffff16565b90506040805190810160405280828152602001600654815250600c600084815260200190815260200160002060008201518160000155602082015181600101559050506119ae61193f603283614dde90919063ffffffff16565b600080600360009054906101000a900473ffffffffffffffffffffffffffffffffffffffff1673ffffffffffffffffffffffffffffffffffffffff1673ffffffffffffffffffffffffffffffffffffffff16815260200190815260200160002054614df490919063ffffffff16565b600080600360009054906101000a900473ffffffffffffffffffffffffffffffffffffffff1673ffffffffffffffffffffffffffffffffffffffff1673ffffffffffffffffffffffffffffffffffffffff168152602001908152602001600020819055506005600081548092919060010191905055506118c4565b5050565b600080600080339250611a5e611a4f620d2f0087614e1090919063ffffffff16565b42614df490919063ffffffff16565b9150856000808573ffffffffffffffffffffffffffffffffffffffff1673ffffffffffffffffffffffffffffffffffffffff1681526020019081526020016000205410151515611aad57600080fd5b611ac46312cc030042614df490919063ffffffff16565b8211151515611ad257600080fd5b611ae8620d2f0042614df490919063ffffffff16565b8210151515611af657600080fd5b611afe611894565b611b4f866000808673ffffffffffffffffffffffffffffffffffffffff1673ffffffffffffffffffffffffffffffffffffffff16815260200190815260200160002054614dc590919063ffffffff16565b6000808573ffffffffffffffffffffffffffffffffffffffff1673ffffffffffffffffffffffffffffffffffffffff16815260200190815260200160002081905550611be2866000803073ffffffffffffffffffffffffffffffffffffffff1673ffffffffffffffffffffffffffffffffffffffff16815260200190815260200160002054614df490919063ffffffff16565b6000803073ffffffffffffffffffffffffffffffffffffffff1673ffffffffffffffffffffffffffffffffffffffff168152602001908152602001600020819055506001549050600e546001541015611c3b57600e5490505b600f60008473ffffffffffffffffffffffffffffffffffffffff1673ffffffffffffffffffffffffffffffffffffffff16815260200190815260200160002060a060405190810160405280888152602001428152602001848152602001611cad89600654614df490919063ffffffff16565b8152602001838152509080600181540180825580915050906001820390600052602060002090600502016000909192909190915060008201518160000155602082015181600101556040820151816002015560608201518160030155608082015181600401555050506000611d7784611d726001600f60008973ffffffffffffffffffffffffffffffffffffffff1673ffffffffffffffffffffffffffffffffffffffff16815260200190815260200160002080549050614dc590919063ffffffff16565b614c42565b111515611d8357600080fd5b611d9886600654614df490919063ffffffff16565b6006819055506001935050505092915050565b600181565b60065481565b6000600154905090565b6000611dfe600a611df0600d54611de260085487614e1090919063ffffffff16565b614dde90919063ffffffff16565b614dde90919063ffffffff16565b9050919050565b60008073ffffffffffffffffffffffffffffffffffffffff168373ffffffffffffffffffffffffffffffffffffffff1614151515611e4257600080fd5b6000808573ffffffffffffffffffffffffffffffffffffffff1673ffffffffffffffffffffffffffffffffffffffff168152602001908152602001600020548211151515611e8f57600080fd5b600260008573ffffffffffffffffffffffffffffffffffffffff1673ffffffffffffffffffffffffffffffffffffffff16815260200190815260200160002060003373ffffffffffffffffffffffffffffffffffffffff1673ffffffffffffffffffffffffffffffffffffffff168152602001908152602001600020548211151515611f1a57600080fd5b611f6b826000808773ffffffffffffffffffffffffffffffffffffffff1673ffffffffffffffffffffffffffffffffffffffff16815260200190815260200160002054614dc590919063ffffffff16565b6000808673ffffffffffffffffffffffffffffffffffffffff1673ffffffffffffffffffffffffffffffffffffffff16815260200190815260200160002081905550611ffe826000808673ffffffffffffffffffffffffffffffffffffffff1673ffffffffffffffffffffffffffffffffffffffff16815260200190815260200160002054614df490919063ffffffff16565b6000808573ffffffffffffffffffffffffffffffffffffffff1673ffffffffffffffffffffffffffffffffffffffff168152602001908152602001600020819055506120cf82600260008773ffffffffffffffffffffffffffffffffffffffff1673ffffffffffffffffffffffffffffffffffffffff16815260200190815260200160002060003373ffffffffffffffffffffffffffffffffffffffff1673ffffffffffffffffffffffffffffffffffffffff16815260200190815260200160002054614dc590919063ffffffff16565b600260008673ffffffffffffffffffffffffffffffffffffffff1673ffffffffffffffffffffffffffffffffffffffff16815260200190815260200160002060003373ffffffffffffffffffffffffffffffffffffffff1673ffffffffffffffffffffffffffffffffffffffff168152602001908152602001600020819055508273ffffffffffffffffffffffffffffffffffffffff168473ffffffffffffffffffffffffffffffffffffffff167fddf252ad1be2c89b69c2b068fc378daa952ba7f163c4a11628f55a4df523b3ef846040518082815260200191505060405180910390a3600190509392505050565b60006121d8600654600154614dc590919063ffffffff16565b905090565b60008060008060008060006122006402540be40089614e1090919063ffffffff16565b9450683635c9adc5dea000008511156122995769152d02c7e14af68000008510156122815761227a640ba43b740061226c600961225e600261225064174876e8008c614dc590919063ffffffff16565b614e1090919063ffffffff16565b614dde90919063ffffffff16565b614df490919063ffffffff16565b9450612298565b612295600486614dde90919063ffffffff16565b94505b5b42600454106122a95760006122d4565b6122d362093a806122c560045442614dc590919063ffffffff16565b614dde90919063ffffffff16565b5b93506122fd6122ed600286614e1090919063ffffffff16565b6064614dc590919063ffffffff16565b925061232560646123178588614e1090919063ffffffff16565b614dde90919063ffffffff16565b915060009050602d84111561233d576000905061261e565b60208411156123865761237f826123716064612363606587614e1090919063ffffffff16565b614dde90919063ffffffff16565b614dc590919063ffffffff16565b905061261d565b60188411156123cf576123c8826123ba60646123ac606687614e1090919063ffffffff16565b614dde90919063ffffffff16565b614dc590919063ffffffff16565b905061261c565b6012841115612418576124118261240360646123f5606787614e1090919063ffffffff16565b614dde90919063ffffffff16565b614dc590919063ffffffff16565b905061261b565b600e8411156124615761245a8261244c606461243e606887614e1090919063ffffffff16565b614dde90919063ffffffff16565b614dc590919063ffffffff16565b905061261a565b600a8411156124aa576124a3826124956064612487606987614e1090919063ffffffff16565b614dde90919063ffffffff16565b614dc590919063ffffffff16565b9050612619565b60078411156124f3576124ec826124de60646124d0606a87614e1090919063ffffffff16565b614dde90919063ffffffff16565b614dc590919063ffffffff16565b9050612618565b600584111561253c57612535826125276064612519606b87614e1090919063ffffffff16565b614dde90919063ffffffff16565b614dc590919063ffffffff16565b9050612617565b60038411156125855761257e826125706064612562606c87614e1090919063ffffffff16565b614dde90919063ffffffff16565b614dc590919063ffffffff16565b9050612616565b60018411156125ce576125c7826125b960646125ab606d87614e1090919063ffffffff16565b614dde90919063ffffffff16565b614dc590919063ffffffff16565b9050612615565b600084101515612614576126118261260360646125f5606e87614e1090919063ffffffff16565b614dde90919063ffffffff16565b614dc590919063ffffffff16565b90505b5b5b5b5b5b5b5b5b5b5b8181965096505050505050915091565b6000603261263a6136d8565b1115905090565b600c6020528060005260406000206000915090508060000154908060010154905082565b620d2f0081565b60085481565b600073ffffffffffffffffffffffffffffffffffffffff826040518082805190602001908083835b6020831015156126bf578051825260208201915060208101905060208303925061269a565b6001836020036101000a038019825116818451168082178552505050505050905001915050604051809103902060019004169050919050565b6312cc030081565b600080600260003373ffffffffffffffffffffffffffffffffffffffff1673ffffffffffffffffffffffffffffffffffffffff16815260200190815260200160002060008573ffffffffffffffffffffffffffffffffffffffff1673ffffffffffffffffffffffffffffffffffffffff16815260200190815260200160002054905080831115612811576000600260003373ffffffffffffffffffffffffffffffffffffffff1673ffffffffffffffffffffffffffffffffffffffff16815260200190815260200160002060008673ffffffffffffffffffffffffffffffffffffffff1673ffffffffffffffffffffffffffffffffffffffff168152602001908152602001600020819055506128a5565b6128248382614dc590919063ffffffff16565b600260003373ffffffffffffffffffffffffffffffffffffffff1673ffffffffffffffffffffffffffffffffffffffff16815260200190815260200160002060008673ffffffffffffffffffffffffffffffffffffffff1673ffffffffffffffffffffffffffffffffffffffff168152602001908152602001600020819055505b8373ffffffffffffffffffffffffffffffffffffffff163373ffffffffffffffffffffffffffffffffffffffff167f8c5be1e5ebec7d5bd14f71427d1e84f3dd0314c0f7b2291e5b200ac8c7c3b925600260003373ffffffffffffffffffffffffffffffffffffffff1673ffffffffffffffffffffffffffffffffffffffff16815260200190815260200160002060008873ffffffffffffffffffffffffffffffffffffffff1673ffffffffffffffffffffffffffffffffffffffff168152602001908152602001600020546040518082815260200191505060405180910390a3600191505092915050565b600b6020528060005260406000206000915054906101000a900460ff1681565b600a5481565b60008060008373ffffffffffffffffffffffffffffffffffffffff1673ffffffffffffffffffffffffffffffffffffffff168152602001908152602001600020549050919050565b60008060008060006004544210151515612a1857600080fd5b612a228a8a6143a0565b9350838c60405160200180836bffffffffffffffffffffffff19166bffffffffffffffffffffffff19168152601401828152602001925050506040516020818303038152906040526040518082805190602001908083835b602083101515612a9f5780518252602082019150602081019050602083039250612a7a565b6001836020036101000a03801982511681845116808217855250505050505090500191505060405180910390209250612ad6611894565b612ae0838c6133e3565b1515612aeb57600080fd5b612af8338b8a8a8a613f3d565b1515612b0357600080fd5b612b188c600754614df490919063ffffffff16565b6007819055506001600b6000856000191660001916815260200190815260200160002060006101000a81548160ff021916908315150217905550612b5b8c6121dd565b91509150600954612b7783600754614df490919063ffffffff16565b11151515612b8457600080fd5b612be781612bd9846000803373ffffffffffffffffffffffffffffffffffffffff1673ffffffffffffffffffffffffffffffffffffffff16815260200190815260200160002054614df490919063ffffffff16565b614df490919063ffffffff16565b6000803373ffffffffffffffffffffffffffffffffffffffff1673ffffffffffffffffffffffffffffffffffffffff16815260200190815260200160002081905550612c9c81600080600360009054906101000a900473ffffffffffffffffffffffffffffffffffffffff1673ffffffffffffffffffffffffffffffffffffffff1673ffffffffffffffffffffffffffffffffffffffff16815260200190815260200160002054614df490919063ffffffff16565b600080600360009054906101000a900473ffffffffffffffffffffffffffffffffffffffff1673ffffffffffffffffffffffffffffffffffffffff1673ffffffffffffffffffffffffffffffffffffffff16815260200190815260200160002081905550612d2781612d1984600154614df490919063ffffffff16565b614df490919063ffffffff16565b600181905550612d436001600854614df490919063ffffffff16565b6008819055503373ffffffffffffffffffffffffffffffffffffffff16600073ffffffffffffffffffffffffffffffffffffffff167fddf252ad1be2c89b69c2b068fc378daa952ba7f163c4a11628f55a4df523b3ef612dac8486614df490919063ffffffff16565b6040518082815260200191505060405180910390a3600360009054906101000a900473ffffffffffffffffffffffffffffffffffffffff1673ffffffffffffffffffffffffffffffffffffffff16600073ffffffffffffffffffffffffffffffffffffffff167fddf252ad1be2c89b69c2b068fc378daa952ba7f163c4a11628f55a4df523b3ef836040518082815260200191505060405180910390a3612e5c8183614df490919063ffffffff16565b945050505050979650505050505050565b600080600080600f60008673ffffffffffffffffffffffffffffffffffffffff1673ffffffffffffffffffffffffffffffffffffffff16815260200190815260200160002080549050925060009150600090506000831415612ed25760009350612fea565b5b82821015612fe557600f60008673ffffffffffffffffffffffffffffffffffffffff1673ffffffffffffffffffffffffffffffffffffffff16815260200190815260200160002080549050612f32600183614df490919063ffffffff16565b11612f3d5780612f40565b60005b9050600f60008673ffffffffffffffffffffffffffffffffffffffff1673ffffffffffffffffffffffffffffffffffffffff16815260200190815260200160002081815481101515612f8e57fe5b90600052602060002090600502016002015442101515612fb457612fb28582612ff8565b505b612fc8600183614df490919063ffffffff16565b9150612fde600182614df490919063ffffffff16565b9050612ed3565b600193505b505050919050565b60045481565b60006130026150e0565b6000806000600f60008873ffffffffffffffffffffffffffffffffffffffff1673ffffffffffffffffffffffffffffffffffffffff1681526020019081526020016000208681548110151561305357fe5b906000526020600020906005020160a06040519081016040529081600082015481526020016001820154815260200160028201548152602001600382015481526020016004820154815250509350836040015142101515156130b457600080fd5b6130bc611894565b6130c68787614c42565b92506130d3878785614a1a565b91506130fe826130f0858760000151614df490919063ffffffff16565b614df490919063ffffffff16565b90506131198460000151600654614dc590919063ffffffff16565b60068190555061317484600001516000803073ffffffffffffffffffffffffffffffffffffffff1673ffffffffffffffffffffffffffffffffffffffff16815260200190815260200160002054614dc590919063ffffffff16565b6000803073ffffffffffffffffffffffffffffffffffffffff1673ffffffffffffffffffffffffffffffffffffffff16815260200190815260200160002081905550613207816000808a73ffffffffffffffffffffffffffffffffffffffff1673ffffffffffffffffffffffffffffffffffffffff16815260200190815260200160002054614df490919063ffffffff16565b6000808973ffffffffffffffffffffffffffffffffffffffff1673ffffffffffffffffffffffffffffffffffffffff168152602001908152602001600020819055508673ffffffffffffffffffffffffffffffffffffffff163073ffffffffffffffffffffffffffffffffffffffff167fddf252ad1be2c89b69c2b068fc378daa952ba7f163c4a11628f55a4df523b3ef86600001516040518082815260200191505060405180910390a36132c783600154614df490919063ffffffff16565b6001819055506132f56132e4600284614e1090919063ffffffff16565b600154614df490919063ffffffff16565b6001819055508673ffffffffffffffffffffffffffffffffffffffff167f0f6798a560793a54c3bcfe86a93cde1e73087d944c0ea20544137d41213968856133468585614df490919063ffffffff16565b6040518082815260200191505060405180910390a2600360009054906101000a900473ffffffffffffffffffffffffffffffffffffffff1673ffffffffffffffffffffffffffffffffffffffff167f0f6798a560793a54c3bcfe86a93cde1e73087d944c0ea20544137d4121396885836040518082815260200191505060405180910390a26133d58787614e48565b600194505050505092915050565b6000801515600b6000856000191660001916815260200190815260200160002060009054906101000a900460ff16151514801561342657506134258284613dc2565b5b905092915050565b6060806060806000606080606080600080600f60008d73ffffffffffffffffffffffffffffffffffffffff1673ffffffffffffffffffffffffffffffffffffffff168152602001908152602001600020805490509650866040519080825280602002602001820160405280156134b35781602001602082028038833980820191505090505b509550866040519080825280602002602001820160405280156134e55781602001602082028038833980820191505090505b509450866040519080825280602002602001820160405280156135175781602001602082028038833980820191505090505b509350866040519080825280602002602001820160405280156135495781602001602082028038833980820191505090505b509250600091505b8682101561364657600f60008d73ffffffffffffffffffffffffffffffffffffffff1673ffffffffffffffffffffffffffffffffffffffff168152602001908152602001600020828154811015156135a557fe5b90600052602060002090600502019050806000015486838151811015156135c857fe5b9060200190602002018181525050806001015485838151811015156135e957fe5b90602001906020020181815250508060020154848381518110151561360a57fe5b90602001906020020181815250508060030154838381518110151561362b57fe5b90602001906020020181815250508180600101925050613551565b858585859a509a509a509a50505050505050509193509193565b600f6020528160005260406000208181548110151561367b57fe5b9060005260206000209060050201600091509150508060000154908060010154908060020154908060030154908060040154905085565b600360009054906101000a900473ffffffffffffffffffffffffffffffffffffffff1681565b600060045442116136ea576000613715565b61371462093a8061370660045442614dc590919063ffffffff16565b614dde90919063ffffffff16565b5b905090565b60055481565b60008073ffffffffffffffffffffffffffffffffffffffff168373ffffffffffffffffffffffffffffffffffffffff161415151561375d57600080fd5b6000803373ffffffffffffffffffffffffffffffffffffffff1673ffffffffffffffffffffffffffffffffffffffff1681526020019081526020016000205482111515156137aa57600080fd5b6137fb826000803373ffffffffffffffffffffffffffffffffffffffff1673ffffffffffffffffffffffffffffffffffffffff16815260200190815260200160002054614dc590919063ffffffff16565b6000803373ffffffffffffffffffffffffffffffffffffffff1673ffffffffffffffffffffffffffffffffffffffff1681526020019081526020016000208190555061388e826000808673ffffffffffffffffffffffffffffffffffffffff1673ffffffffffffffffffffffffffffffffffffffff16815260200190815260200160002054614df490919063ffffffff16565b6000808573ffffffffffffffffffffffffffffffffffffffff1673ffffffffffffffffffffffffffffffffffffffff168152602001908152602001600020819055508273ffffffffffffffffffffffffffffffffffffffff163373ffffffffffffffffffffffffffffffffffffffff167fddf252ad1be2c89b69c2b068fc378daa952ba7f163c4a11628f55a4df523b3ef846040518082815260200191505060405180910390a36001905092915050565b60003373ffffffffffffffffffffffffffffffffffffffff168273ffffffffffffffffffffffffffffffffffffffff161415151561397c57600080fd5b600073ffffffffffffffffffffffffffffffffffffffff168273ffffffffffffffffffffffffffffffffffffffff16141515156139b857600080fd5b613a288b8b8b808060200260200160405190810160405280939291908181526020018383602002808284378201915050505050508a8a8080601f016020809104026020016040519081016040528093929190818152602001838380828437820191505050505050898989896129ff565b9050613a8e613a41601483614dde90919063ffffffff16565b6000808573ffffffffffffffffffffffffffffffffffffffff1673ffffffffffffffffffffffffffffffffffffffff16815260200190815260200160002054614df490919063ffffffff16565b6000808473ffffffffffffffffffffffffffffffffffffffff1673ffffffffffffffffffffffffffffffffffffffff16815260200190815260200160002081905550613b56613ae7601483614dde90919063ffffffff16565b600080600360009054906101000a900473ffffffffffffffffffffffffffffffffffffffff1673ffffffffffffffffffffffffffffffffffffffff1673ffffffffffffffffffffffffffffffffffffffff16815260200190815260200160002054614df490919063ffffffff16565b600080600360009054906101000a900473ffffffffffffffffffffffffffffffffffffffff1673ffffffffffffffffffffffffffffffffffffffff1673ffffffffffffffffffffffffffffffffffffffff16815260200190815260200160002081905550613be2613bd1601483614dde90919063ffffffff16565b600154614df490919063ffffffff16565b6001819055508090509a9950505050505050505050565b6000806000806001600f60008973ffffffffffffffffffffffffffffffffffffffff1673ffffffffffffffffffffffffffffffffffffffff16815260200190815260200160002080549050039250828511151515613c5657600080fd5b60008610151515613c6657600080fd5b6000600f60008973ffffffffffffffffffffffffffffffffffffffff1673ffffffffffffffffffffffffffffffffffffffff168152602001908152602001600020805490501415613cba5760009350613db8565b84861415613d2857600f60008873ffffffffffffffffffffffffffffffffffffffff1673ffffffffffffffffffffffffffffffffffffffff1681526020019081526020016000206000815481101515613d0f57fe5b9060005260206000209060050201600001549350613db8565b8590505b8481111515613db457613da5600f60008973ffffffffffffffffffffffffffffffffffffffff1673ffffffffffffffffffffffffffffffffffffffff16815260200190815260200160002082815481101515613d8457fe5b90600052602060002090600502016000015483614df490919063ffffffff16565b91508080600101915050613d2c565b8193505b5050509392505050565b6000613dd183600a5484614f39565b905092915050565b6000613e2c8260006001600f60008773ffffffffffffffffffffffffffffffffffffffff1673ffffffffffffffffffffffffffffffffffffffff1681526020019081526020016000208054905003613bf9565b9050919050565b600080828411151515613e4557600080fd5b600f60008673ffffffffffffffffffffffffffffffffffffffff1673ffffffffffffffffffffffffffffffffffffffff1681526020019081526020016000208054905083101515613e9557600080fd5b8390505b8281111515613f3157600f60008673ffffffffffffffffffffffffffffffffffffffff1673ffffffffffffffffffffffffffffffffffffffff1681526020019081526020016000206000815481101515613eef57fe5b90600052602060002090600502016002015442101515613f2c57613f14856000612ff8565b50613f29600182614df490919063ffffffff16565b90505b613e99565b60019150509392505050565b6000614051600287604051602001808273ffffffffffffffffffffffffffffffffffffffff1673ffffffffffffffffffffffffffffffffffffffff166c010000000000000000000000000281526014019150506040516020818303038152906040526040518082805190602001908083835b602083101515613fd45780518252602082019150602081019050602083039250613faf565b6001836020036101000a0380198251168184511680821785525050505050509050019150506020604051808303816000865af1158015614018573d6000803e3d6000fd5b5050506040513d602081101561402d57600080fd5b810190808051906020019092919050505085858561404a8a612672565b60006115b1565b905095945050505050565b600080848460405160200180836bffffffffffffffffffffffff19166bffffffffffffffffffffffff19168152601401828152602001925050506040516020818303038152906040526040518082805190602001908083835b6020831015156140da57805182526020820191506020810190506020830392506140b5565b6001836020036101000a0380198251168184511680821785525050505050509050019150506040518091039020905061411381846133e3565b9150509392505050565b60006141ae82600260003373ffffffffffffffffffffffffffffffffffffffff1673ffffffffffffffffffffffffffffffffffffffff16815260200190815260200160002060008673ffffffffffffffffffffffffffffffffffffffff1673ffffffffffffffffffffffffffffffffffffffff16815260200190815260200160002054614df490919063ffffffff16565b600260003373ffffffffffffffffffffffffffffffffffffffff1673ffffffffffffffffffffffffffffffffffffffff16815260200190815260200160002060008573ffffffffffffffffffffffffffffffffffffffff1673ffffffffffffffffffffffffffffffffffffffff168152602001908152602001600020819055508273ffffffffffffffffffffffffffffffffffffffff163373ffffffffffffffffffffffffffffffffffffffff167f8c5be1e5ebec7d5bd14f71427d1e84f3dd0314c0f7b2291e5b200ac8c7c3b925600260003373ffffffffffffffffffffffffffffffffffffffff1673ffffffffffffffffffffffffffffffffffffffff16815260200190815260200160002060008773ffffffffffffffffffffffffffffffffffffffff1673ffffffffffffffffffffffffffffffffffffffff168152602001908152602001600020546040518082815260200191505060405180910390a36001905092915050565b6000600260008473ffffffffffffffffffffffffffffffffffffffff1673ffffffffffffffffffffffffffffffffffffffff16815260200190815260200160002060008373ffffffffffffffffffffffffffffffffffffffff1673ffffffffffffffffffffffffffffffffffffffff16815260200190815260200160002054905092915050565b6000806000806143b1866000615004565b6001900492506143c2866020615004565b600190049150841561459e5760006002838115156143dc57fe5b06146143e95760036143ec565b60025b9050600360028285604051602001808360ff1660ff167f0100000000000000000000000000000000000000000000000000000000000000028152600101828152602001925050506040516020818303038152906040526040518082805190602001908083835b6020831015156144775780518252602082019150602081019050602083039250614452565b6001836020036101000a0380198251168184511680821785525050505050509050019150506020604051808303816000865af11580156144bb573d6000803e3d6000fd5b5050506040513d60208110156144d057600080fd5b81019080805190602001909291905050506040516020018082600019166000191681526020019150506040516020818303038152906040526040518082805190602001908083835b60208310151561453d5780518252602082019150602081019050602083039250614518565b6001836020036101000a0380198251168184511680821785525050505050509050019150506020604051808303816000865af1158015614581573d6000803e3d6000fd5b505050604051516c01000000000000000000000000029350614756565b6004905060036002828585604051602001808460ff1660ff167f010000000000000000000000000000000000000000000000000000000000000002815260010183815260200182815260200193505050506040516020818303038152906040526040518082805190602001908083835b602083101515614633578051825260208201915060208101905060208303925061460e565b6001836020036101000a0380198251168184511680821785525050505050509050019150506020604051808303816000865af1158015614677573d6000803e3d6000fd5b5050506040513d602081101561468c57600080fd5b81019080805190602001909291905050506040516020018082600019166000191681526020019150506040516020818303038152906040526040518082805190602001908083835b6020831015156146f957805182526020820191506020810190506020830392506146d4565b6001836020036101000a0380198251168184511680821785525050505050509050019150506020604051808303816000865af115801561473d573d6000803e3d6000fd5b505050604051516c010000000000000000000000000293505b50505092915050565b600061479d600a61478f60095461478160075487614e1090919063ffffffff16565b614dde90919063ffffffff16565b614dde90919063ffffffff16565b9050919050565b6000806000600f60008673ffffffffffffffffffffffffffffffffffffffff1673ffffffffffffffffffffffffffffffffffffffff168152602001908152602001600020848154811015156147f557fe5b9060005260206000209060050201600001549150600f60008673ffffffffffffffffffffffffffffffffffffffff1673ffffffffffffffffffffffffffffffffffffffff1681526020019081526020016000208481548110151561485557fe5b9060005260206000209060050201600201544211156148b0576148788585614c42565b90506148a961489a8261488c888886614a1a565b614df490919063ffffffff16565b83614df490919063ffffffff16565b92506148b4565b8192505b505092915050565b60008060008060008060008060008097506148f762093a806148e96004548e614dc590919063ffffffff16565b614dde90919063ffffffff16565b965060008714614907578661490a565b60015b955061493662093a806149286004548d614dc590919063ffffffff16565b614dde90919063ffffffff16565b9450603285116149465784614949565b60325b93508592505b83831015614a0857614993600c60008581526020019081526020016000206001015461498560648f614e1090919063ffffffff16565b614dde90919063ffffffff16565b91506149e460646149d6846149c86032600c60008a815260200190815260200160002060000154614dde90919063ffffffff16565b614e1090919063ffffffff16565b614dde90919063ffffffff16565b90506149f98189614df490919063ffffffff16565b9750828060010193505061494f565b87985050505050505050509392505050565b600080600080600080600f60008a73ffffffffffffffffffffffffffffffffffffffff1673ffffffffffffffffffffffffffffffffffffffff16815260200190815260200160002088815481101515614a6f57fe5b906000526020600020906005020194506032614aaf62093a80614aa16004548960010154614dc590919063ffffffff16565b614dde90919063ffffffff16565b111515614b1457614acd8560000154866001015487600201546148bc565b9350614ad887611dc0565b9250614ae38761475f565b9150614b0a82614afc8587614df490919063ffffffff16565b614df490919063ffffffff16565b9050809550614b19565b600095505b50505050509392505050565b60075481565b6000806000806000806000614b4b61271089614df490919063ffffffff16565b9550600a94508489811515614b5c57fe5b069350614b72858a614dde90919063ffffffff16565b9250614b8c6402540be4008b614dde90919063ffffffff16565b9150600090505b82811015614be357614bc6856127100a614bb887890a85614e1090919063ffffffff16565b614dde90919063ffffffff16565b9150614bdc600182614df490919063ffffffff16565b9050614b93565b600084141515614c1b57614c18846127100a614c0a86890a85614e1090919063ffffffff16565b614dde90919063ffffffff16565b91505b614c336402540be40083614e1090919063ffffffff16565b96505050505050509392505050565b6000806000806000806000806000600f60008c73ffffffffffffffffffffffffffffffffffffffff1673ffffffffffffffffffffffffffffffffffffffff1681526020019081526020016000208a815481101515614c9c57fe5b90600052602060002090600502019750614cc160646001614e1090919063ffffffff16565b9650600195506064945060008860030154141515614d5b57614d1d8860040154614d0f6064614d018c600001548d60030154614df490919063ffffffff16565b614e1090919063ffffffff16565b614dde90919063ffffffff16565b935060008411614d2e576001614d30565b835b9550614d458688614dde90919063ffffffff16565b925060008311614d56576001614d58565b825b94505b614d8b620d2f00614d7d8a600101548b60020154614dc590919063ffffffff16565b614dde90919063ffffffff16565b9150614d9c88600001548387614b2b565b9050614db5886000015482614dc590919063ffffffff16565b9850505050505050505092915050565b6000828211151515614dd357fe5b818303905092915050565b60008183811515614deb57fe5b04905092915050565b60008183019050828110151515614e0757fe5b80905092915050565b600080831415614e235760009050614e42565b8183029050818382811515614e3457fe5b04141515614e3e57fe5b8090505b92915050565b6000600f60008473ffffffffffffffffffffffffffffffffffffffff1673ffffffffffffffffffffffffffffffffffffffff168152602001908152602001600020905080614ea460018380549050614dc590919063ffffffff16565b815481101515614eb057fe5b90600052602060002090600502018183815481101515614ecc57fe5b90600052602060002090600502016000820154816000015560018201548160010155600282015481600201556003820154816003015560048201548160040155905050614f2760018280549050614dc590919063ffffffff16565b8181614f339190615110565b50505050565b600080600080849250600091505b8651821015614fed578682815181101515614f5e57fe5b906020019060200201519050806000191683600019161015614faf57828160405180836000191660001916815260200182600019166000191681526020019250505060405180910390209250614fe0565b8083604051808360001916600019168152602001826000191660001916815260200192505050604051809103902092505b8180600101925050614f47565b856000191683600019161493505050509392505050565b600080600090505b60208110156150d657600881028484830181518110151561502957fe5b9060200101517f010000000000000000000000000000000000000000000000000000000000000090047f0100000000000000000000000000000000000000000000000000000000000000027effffffffffffffffffffffffffffffffffffffffffffffffffffffffffffff19167fff0000000000000000000000000000000000000000000000000000000000000060010216600019169060020a900482189150808060010191505061500c565b8191505092915050565b60a06040519081016040528060008152602001600081526020016000815260200160008152602001600081525090565b81548183558181111561513d5760050281600502836000526020600020918201910161513c9190615142565b5b505050565b61518691905b8082111561518257600080820160009055600182016000905560028201600090556003820160009055600482016000905550600501615148565b5090565b905600a165627a7a723058200e161aac50358fdcadf8d6554c86728f49141f5475f8d111dad1553e6d1fe4b40029",
  "source": "pragma solidity ^0.4.23;\nimport \"./UTXORedeemableToken.sol\";\n\n\n/**\n@title StakeableToken is the component of BitcoinHex token which \nhandles staking and the associated rewards.\n@notice Some of functions and state must be supplied from UTXORedeemableToken.\n\nOverflows due to interest have been tested and should not occur until 150 years from start time\nassuming 17.5e24 * .2 redeemed and every user staking full amounts the entire time.\n*/\ncontract StakeableToken is UTXORedeemableToken {\n\n  event Mint(address indexed _address, uint _reward);\n\n  uint256 UTXOCountAtFork;\n  uint256 _maximumRedeemable;\n  uint256 public constant interestRatePercent = 1;\n  uint256 public constant maxStakingTimeInSeconds = 365 days * 10;\n  uint256 public constant oneInterestPeriodInSeconds = 10 days;\n\n  struct StakeStruct {\n    uint256 stakeAmount;\n    uint256 stakeTime;\n    uint256 unlockTime;\n    uint256 totalStakedCoinsAtStart;\n    uint256 maxOfTotalSupplyVSMaxRedeemableAtStart;\n  }\n\n  /* Staked coins mapping */\n  mapping(address => StakeStruct[]) public staked;\n\n  /************************\n  *start utility functions*\n  ************************/\n\n  /**\n    @notice Retrieves all user stakes. \n    @dev Must return as tuple due to the way solidity works.\n    @param _staker staker address for accessing array\n  */\n  function getUserStakes(address _staker)\n    public\n    view\n    returns (uint256[], uint256[], uint256[], uint256[])\n  {\n    uint256 _stakesLength = staked[_staker].length;\n    uint256[] memory _stakeAmount = new uint256[](_stakesLength);\n    uint256[] memory _stakeTime = new uint256[](_stakesLength);\n    uint256[] memory _unlockTime = new uint256[](_stakesLength);\n    uint256[] memory _totalStakedCoinsAtStart = new uint256[](_stakesLength);\n\n    for (uint256 _i = 0; _i < _stakesLength; _i++) {\n      StakeStruct storage stake = staked[_staker][_i];\n      _stakeAmount[_i] = stake.stakeAmount;\n      _stakeTime[_i] = stake.stakeTime;\n      _unlockTime[_i] = stake.unlockTime;\n      _totalStakedCoinsAtStart[_i] = stake.totalStakedCoinsAtStart;\n    }\n\n    return (_stakeAmount, _stakeTime, _unlockTime, _totalStakedCoinsAtStart);\n  }\n\n  /**\n    @notice A convenience function to get circulating supply.\n  */\n  function getCirculatingSupply()\n    public\n    view\n    returns (uint256)\n  {\n    return totalSupply_.sub(totalStakedCoins);\n  }\n\n  /** \n    @notice A convenience function to get weeks since launch.\n  */\n  function getWeeksSinceLaunch()\n    public\n    view\n    returns (uint256)\n  {\n    return block.timestamp > launchTime \n      ? block.timestamp.sub(launchTime).div(7 days) \n      : 0;\n  }\n\n  /**\n    @notice A convenience function for users to check if currently\n    in bonus period (first 50 weeks after launch)\n  */\n  function isDuringBonusPeriod()\n    public\n    view\n    returns (bool)\n  {\n    return getWeeksSinceLaunch() <= 50;\n  }\n\n  /** \n    @dev Moves last item in array to location of item to be removed,\n    overwriting array item. Shortens array length by 1, removing now\n    duplicate item at end of array.\n    @param _staker staker address for accessing array\n    @param _stakeIndex index of the item to delete\n  */\n  function removeArrayEntry(\n    address _staker,\n    uint256 _stakeIndex\n  )\n    internal\n  {\n    StakeStruct[] storage _stakedArray = staked[_staker];\n    // set last item to index of item we want to get rid of\n    _stakedArray[_stakeIndex] = _stakedArray[_stakedArray.length.sub(1)];\n    // remove last item in array now that safely copied to index of deleted item\n    _stakedArray.length = _stakedArray.length.sub(1);\n  }\n\n  /**\n    @dev compound groups up compounding periods by 10 in order to avoid  \n    uint overflows when taking (100 + rate) ** periods. Accuracy is also brought \n    down by 10 decimals in order to avoid uint overflows when \n    running: compounded * ((100  + rate) ** periods).\n\n    @param _principle base amount being compounded\n    @param _periods amount of periods to compound principle\n    @param _rate rate given as uint percent \n  */\n  function compound(\n    uint256 _principle,\n    uint256 _periods,\n    uint256 _rate\n  )\n    public\n    pure\n    returns (uint256)\n  {\n    // bring up by 1e4 in order to get an accurate percent\n    uint256 _interestRate = _rate.add(1e4);\n    uint256 _maxGroupPeriods = 10;\n    uint256 _remainingPeriods = _periods % _maxGroupPeriods;\n    uint256 _groupings = _periods.div(_maxGroupPeriods);\n    uint256 _compounded = _principle.div(1e10);\n\n    for (uint256 _i = 0; _i < _groupings; _i = _i.add(1)) {\n      _compounded = _compounded\n        .mul(_interestRate ** _maxGroupPeriods)\n        .div(1e4 ** _maxGroupPeriods);\n    }\n\n    if (_remainingPeriods != 0) {\n      _compounded = _compounded\n        .mul(_interestRate ** _remainingPeriods)\n        .div(1e4 ** _remainingPeriods);\n    }\n\n    return _compounded.mul(1e10);\n  }\n\n  /**\n    @notice A utility funciton for calculating staking rewards for a single \n    staker based on index. Used with claimSingleStakingReward to \n    calculate part of rewards. Can also be used as a user \n    convenience function.\n\n    @param _staker user who has a stake already created\n    @param _stakeIndex index of the already created stake\n  */\n  function calculateStakingRewards(\n    address _staker,\n    uint256 _stakeIndex\n  ) \n    public \n    view\n    returns (uint256)\n  {\n    StakeStruct storage _stake = staked[_staker][_stakeIndex];\n\n    // raise by 100 in order to adjust with scaler\n    uint256 _interestRateTimesHundred = interestRatePercent.mul(100);\n\n    // default _scaler to 1\n    uint256 _scaler = 1;\n    // default _scaledInterestRate to 100\n    uint256 _scaledInterestRate = 100;\n    // calculate percent of staked coins vs totalSupply (or maximumRedeemable if larger) to use for interest rate reduction\n    if (_stake.totalStakedCoinsAtStart != 0) {\n      uint256 _scalerCandidate = _stake.totalStakedCoinsAtStart\n        .add(_stake.stakeAmount)\n        .mul(100)\n        .div(_stake.maxOfTotalSupplyVSMaxRedeemableAtStart);\n      \n      _scaler = _scalerCandidate > 0 ? _scalerCandidate : 1;\n\n      // reduce interest rate by scaler\n      uint256 _scaledInterestRateCandidate = _interestRateTimesHundred.div(_scaler);\n\n      _scaledInterestRate = _scaledInterestRateCandidate > 0 \n        ? _scaledInterestRateCandidate \n        : 1;\n    }\n\n    // Calculate Periods\n    uint256 _periods = _stake.unlockTime\n      .sub(_stake.stakeTime)\n      .div(oneInterestPeriodInSeconds);\n    // Compound\n    uint256 _compounded = compound(\n      _stake.stakeAmount, \n      _periods, \n      _scaledInterestRate\n    );\n\n    // Calculate final staking rewards with time bonus\n    return _compounded.sub(_stake.stakeAmount);\n  }\n\n  /**\n    @notice A utility function for calculating satoshi rewards.\n    Depends on getRedeemAmount in UTXORedeemableToken which\n    reduces tokens given when redeeming proportionally to bonus\n    given by this function. Goal is to give unclaimed tokens as\n    a bonus to staking users during bonus period.\n\n    @param _stakeAmount amount to stake for calculations  (doesnt actually stake)\n    @param _stakeTime amount of time in seconds to stake\n    @param _unlockTime unix timestamp in seconds for when the \n    tokens would be unlocked.\n  */\n  function calculateWeAreAllSatoshiRewards(\n    uint256 _stakeAmount,\n    uint256 _stakeTime,\n    uint256 _unlockTime\n  ) \n    public \n    view \n    returns (uint256)\n  {\n    uint256 _rewards = 0;\n    /* Calculate what week stake was opened */\n    uint256 _startWeekCandidate = _stakeTime\n      .sub(launchTime)\n      .div(7 days);\n\n    // rewards are not deducted nor given before end of first week\n    uint256 _startWeek = _startWeekCandidate == 0 ? 1 : _startWeekCandidate;\n\n    uint256 _endWeek = _unlockTime\n      .sub(launchTime)\n      .div(7 days);\n\n    uint256 _rewardableEndWeek = _endWeek > 50 ? 50 : _endWeek;\n\n    // Award 2% of unclaimed coins at end of every week - We intentionally overshoot to compensate for reduction from late claim scaling\n    for (uint256 _i = _startWeek; _i < _rewardableEndWeek; _i++) {\n      uint256 _rewardRatio = _stakeAmount\n        .mul(100)\n        .div(unclaimedCoinsByWeek[_i].totalStaked);\n\n      // Check storeWeeklyUnclaimedCoins() for math on how unclaimedCoinsByWeek is calculated\n      uint256 _satoshiRewardWeek = unclaimedCoinsByWeek[_i].unclaimedCoins\n        .div(50)\n        .mul(_rewardRatio)\n        .div(100);\n\n      _rewards = _rewards.add(_satoshiRewardWeek);\n    }\n\n    return _rewards;\n  }\n\n  /**\n    @notice A utility function which calculates the viral \n    component of additional rewards.\n    @notice This function can be used outside of the\n    bonus period and will give a non-zero value which\n    could be misleading. It does not affect functionality\n    of the contract however.\n    @param _stakePayout the base amount to stake for calculations\n  */\n  function calculateViralRewards(\n    uint256 _stakePayout\n  ) \n    public \n    view \n    returns (uint256)\n  {\n    // Add bonus percentage to _rewards from 0-10% based on adoption\n    return _stakePayout\n      .mul(redeemedCount)\n      .div(UTXOCountAtFork)\n      .div(10);\n  }\n\n  /**\n    @notice A utility function which calculates the crit mass\n    component of additional rewards\n    @param _stakePayout the base amount to stake for calculations\n  */\n  function calculateCritMassRewards(\n    uint256 _stakePayout\n  ) \n    public \n    view \n    returns (uint256)\n  {\n    // Add bonus percentage to _rewards from 0-10% based on adoption\n    return _stakePayout\n      .mul(totalRedeemed)\n      .div(maximumRedeemable)\n      .div(10);\n  }\n\n  /**\n    @notice Additional rewards should only be given within first 50 weeks.\n    Additional rewards is composed of satoshi, viral and crit mass rewards.\n    Calculates additional rewards for a single stake.\n    @param _staker user that has an already existing stake\n    @param _stakeIndex index of already created user stake\n   */\n  function calculateAdditionalRewards(\n    address _staker,\n    uint256 _stakeIndex,\n    uint256 _stakePayout\n  ) \n    public \n    view \n    returns (uint256)\n  {\n    StakeStruct storage _stake = staked[_staker][_stakeIndex];\n    // only give rewards if within first 50 weeks\n    if (_stake.stakeTime.sub(launchTime).div(7 days) <= 50) {\n      uint256 _weAreAllSatoshiRewards = calculateWeAreAllSatoshiRewards(\n        _stake.stakeAmount,\n        _stake.stakeTime,\n        _stake.unlockTime\n      );\n      uint256 _viralRewards = calculateViralRewards(_stakePayout);\n      uint256 _critMassRewards = calculateCritMassRewards(_stakePayout);\n      uint256 _rewards = _weAreAllSatoshiRewards\n        .add(_viralRewards)\n        .add(_critMassRewards);\n\n      return _rewards;\n    } else {\n      return 0;\n    }\n\n    return 0;\n  }\n\n  /**\n    @notice Available for use directly when there are too many stakes \n    to get in a single operation. \n    Returns total staked between indexes for a given user.\n    @param _staker user with existing stakes\n    @param _startIndex starting index of stakes to return\n    @param _endIndex ending index of stakes to return\n  */\n  function getStakedAtIndexes(\n    address _staker,\n    uint256 _startIndex,\n    uint256 _endIndex\n  )\n    public\n    view\n    returns (uint256)\n  {\n    uint256 _maxIndex = staked[_staker].length - 1;\n    require(_endIndex <= _maxIndex);\n    require(_startIndex >= 0);\n    uint256 _totalStaked;\n    // ensure that there are stakes to be retreived\n    if (staked[_staker].length == 0) {\n      return 0;\n    }\n\n    // return single stake if indexes are the same\n    if ( _startIndex == _endIndex) {\n      return staked[_staker][0].stakeAmount;\n    }\n\n    for (uint256 _i = _startIndex; _i <= _endIndex; _i++) {\n      _totalStaked = _totalStaked.add(staked[_staker][_i].stakeAmount);\n    }\n\n    return _totalStaked;\n  }\n\n  /**\n    @notice Retrieves total amount of staked tokens for a single user. \n    This function might fail if there are too many stakes for a user. \n    Use getStakedAtIndexes if this is the case.\n    @param _staker user address with an existing stake\n  */\n  function getTotalUserStaked(\n    address _staker\n  )\n    public\n    view\n    returns (uint256)\n  {\n    return getStakedAtIndexes(_staker, 0, staked[_staker].length - 1);\n  }\n\n  /**\n    @notice This is a convenience function for calculating the total amount\n    returned once when a stake is unlockable. Includes the original stake.\n    @param _staker user address with an already existing stake\n    @param _stakeIndex index of already existing user stake\n  */\n  function calculateSingleStakePlusRewards(\n    address _staker,\n    uint256 _stakeIndex\n  )\n    public\n    view\n    returns (uint256)\n  {\n    uint256 _stake = staked[_staker][_stakeIndex].stakeAmount;\n    \n    if (block.timestamp > staked[_staker][_stakeIndex].unlockTime) {\n      uint256 _stakingRewards = calculateStakingRewards(\n        _staker, \n        _stakeIndex\n      );\n\n      return _stake.add(\n          calculateAdditionalRewards(\n            _staker,\n            _stakeIndex,\n            _stakingRewards\n          ).add(_stakingRewards)\n      );\n    } else {\n      return _stake;\n    }\n  }\n\n  /**********************\n  *end utility functions*\n  **********************/\n\n  /*********************\n  *start user functions*\n  *********************/\n\n  /** \n    @notice start a stake in order to claim rewards at later unlock time.\n    Additional rewards only payable within first 50 weeks.\n    @param _value amount of tokens to lock\n    @param _stakePeriods number of 10 day periods to lock for\n  */\n  function startStake(\n    uint256 _value,\n    uint256 _stakePeriods\n  ) \n    external\n    returns (bool)\n  {\n    address _staker = msg.sender;\n\n    // Calculate Unlock time\n    uint256 _unlockTime = block.timestamp.add(_stakePeriods.mul(10 days));\n\n    // Make sure staker has enough funds\n    require(balances[_staker] >= _value);\n    // ensure that unlock time is not more than approx 10 years\n    require(_unlockTime <= block.timestamp.add(maxStakingTimeInSeconds));\n    // ensure that unlock time is more than 10 days\n    require(_unlockTime >= block.timestamp.add(oneInterestPeriodInSeconds));\n    // Check if weekly data needs to be updated\n    storeWeeklyUnclaimedCoins();\n\n    // Remove balance from sender\n    balances[_staker] = balances[_staker].sub(_value);\n    balances[address(this)] = balances[address(this)].add(_value);\n\n    // maxOfTotalSupplyVSMaxRedeemableAtStart = Maximum redeemable supply, or total supply, whichever one is larger\n    // Prevent early stakers from being penalised for being early\n    uint256 maxOfTotalSupplyVSMaxRedeemableAtStart = totalSupply_;\n    if (totalSupply_ < _maximumRedeemable) {\n      maxOfTotalSupplyVSMaxRedeemableAtStart = _maximumRedeemable;\n    }\n\n    // Create Stake\n    staked[_staker].push(\n      StakeStruct(\n        _value, \n        block.timestamp, \n        _unlockTime, \n        totalStakedCoins.add(_value),\n        maxOfTotalSupplyVSMaxRedeemableAtStart\n      )\n    );\n\n    // ensure that the new stake will return interest\n    require(calculateStakingRewards(_staker, staked[_staker].length.sub(1)) > 0);\n\n    // Add staked coins to global stake counter\n    totalStakedCoins = totalStakedCoins.add(_value);\n\n    return true;\n  }\n  \n  /**\n    @notice Used for claiming a single stake. Another user can claim a stake on another \n    user's behalf. All rewards and original stake go to original staker.\n    Useful for when _staker does not have any gas and someone else is claiming for them.\n    @param _staker user address for who is making the claim\n    @param _stakeIndex location of the stake to claim\n  */\n  function claimSingleStakingReward(\n    address _staker,\n    uint256 _stakeIndex\n  )\n    public\n    returns (bool)\n  {\n    StakeStruct memory _stake = staked[_staker][_stakeIndex]; \n    require(block.timestamp >= _stake.unlockTime);\n    // Check if weekly data needs to be updated\n    storeWeeklyUnclaimedCoins();\n    \n    // Calculate Rewards\n    uint256 _stakingRewards = calculateStakingRewards(\n      _staker, \n      _stakeIndex\n    );\n    uint256 _additionalRewards = calculateAdditionalRewards(\n      _staker,\n      _stakeIndex,\n      _stakingRewards\n    );\n    uint256 _rewards = _stake.stakeAmount\n      .add(_stakingRewards)\n      .add(_additionalRewards);\n    \n    // Remove StakedCoins from global counter\n    totalStakedCoins = totalStakedCoins\n      .sub(_stake.stakeAmount);\n\n    // Sub staked coins from contract\n    balances[address(this)] = balances[address(this)]\n      .sub(_stake.stakeAmount);\n    \n    // Add staked coins to staker\n    balances[_staker] = balances[_staker]\n      .add(_rewards);\n\n    emit Transfer(\n      address(this), \n      _staker, \n      _stake.stakeAmount\n    );\n\n    // Increase supply\n    totalSupply_ = totalSupply_.add(_stakingRewards);\n    totalSupply_ = totalSupply_.add(_additionalRewards.mul(2));\n\n    emit Mint(_staker, _additionalRewards.add(_stakingRewards));\n    emit Mint(origin, _additionalRewards);\n\n    // Remove Stake\n    removeArrayEntry(_staker, _stakeIndex);\n\n    return true;\n  }\n\n  // TODO: make this private\n  /**\n    @notice Used for claiming multiple stakes. Another user can \n    claim a stake on another user's behalf. All rewards and original stake go to original staker.\n    Useful for if _staker does not have any gas and someone else is claiming for them.\n    @param _staker user address for who is making the claim\n    @param _startIndex claim stakes from this location\n    @param _endIndex claim stakes up to this location\n  */\n  function claimMultipleStakingRewards( // this is no longer truthful when using removeArrayEntry... hm....\n    address _staker,\n    uint256 _startIndex,\n    uint256 _endIndex\n  ) \n    public \n    returns (bool)\n  {\n    // ensure that indexes are in array bounds\n    require(_startIndex <= _endIndex);\n    require(_endIndex < staked[_staker].length);\n\n    uint256 _i = _startIndex;\n    while (_i <= _endIndex) {\n      // Check if stake has matured\n      // all stakes can be claimed using 0 index due to arrays reorganizing every time one is removed\n      if (block.timestamp >= staked[_staker][0].unlockTime) {\n        claimSingleStakingReward(_staker, 0);\n        _i = _i.add(1);\n      }\n    }\n\n    return true;\n  }\n\n  /**\n    @notice Used for claiming a single stake. Another user can \n    claim a stake on another user's behalf. All rewards and original stake go to original staker.\n    Useful for if _staker does not have any gas and someone else is claiming for them.\n    @param _staker user address for who is making the claim\n  */\n  function claimAllStakingRewards(\n    address _staker\n  )\n    external\n    returns (bool)\n  {\n    uint256 _stakeArrayLength = staked[_staker].length;\n    uint256 _processedCount = 0;\n    uint256 _cursor = 0;\n    if (_stakeArrayLength == 0) {\n      return false;\n    }\n\n    while (_processedCount < _stakeArrayLength) {\n      _cursor = _cursor.add(1) > staked[_staker].length\n        ? 0\n        : _cursor;\n\n      if (block.timestamp >= staked[_staker][_cursor].unlockTime) {\n        claimSingleStakingReward(_staker, _cursor);\n      }\n\n      _processedCount = _processedCount.add(1);\n      _cursor = _cursor.add(1);\n    }\n\n    return true;\n  }\n\n  /********************\n  *start end functions*\n  ********************/\n}\n",
  "sourcePath": "/Users/mesquka/Git/Bitcoin Hex/contract/contracts/StakeableToken.sol",
  "compiler": {
    "name": "solc",
    "version": "0.4.24+commit.e67f0147.Emscripten.clang"
  },
  "schemaVersion": "2.0.0",
  "updatedAt": "2018-09-28T07:31:32.686Z"
}