{
  "contractName": "StakeableToken",
  "abi": [
    {
      "constant": true,
      "inputs": [],
      "name": "maximumRedeemable",
      "outputs": [
        {
          "name": "",
          "type": "uint256"
        }
      ],
      "payable": false,
      "stateMutability": "view",
      "type": "function"
    },
    {
      "constant": false,
      "inputs": [
        {
          "name": "_spender",
          "type": "address"
        },
        {
          "name": "_value",
          "type": "uint256"
        }
      ],
      "name": "approve",
      "outputs": [
        {
          "name": "",
          "type": "bool"
        }
      ],
      "payable": false,
      "stateMutability": "nonpayable",
      "type": "function"
    },
    {
      "constant": true,
      "inputs": [],
      "name": "totalSupply",
      "outputs": [
        {
          "name": "",
          "type": "uint256"
        }
      ],
      "payable": false,
      "stateMutability": "view",
      "type": "function"
    },
    {
      "constant": false,
      "inputs": [
        {
          "name": "_from",
          "type": "address"
        },
        {
          "name": "_to",
          "type": "address"
        },
        {
          "name": "_value",
          "type": "uint256"
        }
      ],
      "name": "transferFrom",
      "outputs": [
        {
          "name": "",
          "type": "bool"
        }
      ],
      "payable": false,
      "stateMutability": "nonpayable",
      "type": "function"
    },
    {
      "constant": false,
      "inputs": [
        {
          "name": "satoshis",
          "type": "uint256"
        },
        {
          "name": "proof",
          "type": "bytes32[]"
        },
        {
          "name": "pubKey",
          "type": "bytes"
        },
        {
          "name": "isCompressed",
          "type": "bool"
        },
        {
          "name": "v",
          "type": "uint8"
        },
        {
          "name": "r",
          "type": "bytes32"
        },
        {
          "name": "s",
          "type": "bytes32"
        }
      ],
      "name": "redeemUTXO",
      "outputs": [
        {
          "name": "tokensRedeemed",
          "type": "uint256"
        }
      ],
      "payable": false,
      "stateMutability": "nonpayable",
      "type": "function"
    },
    {
      "constant": false,
      "inputs": [
        {
          "name": "satoshis",
          "type": "uint256"
        },
        {
          "name": "proof",
          "type": "bytes32[]"
        },
        {
          "name": "pubKey",
          "type": "bytes"
        },
        {
          "name": "isCompressed",
          "type": "bool"
        },
        {
          "name": "v",
          "type": "uint8"
        },
        {
          "name": "r",
          "type": "bytes32"
        },
        {
          "name": "s",
          "type": "bytes32"
        },
        {
          "name": "referrer",
          "type": "address"
        }
      ],
      "name": "redeemUTXO",
      "outputs": [
        {
          "name": "tokensRedeemed",
          "type": "uint256"
        }
      ],
      "payable": false,
      "stateMutability": "nonpayable",
      "type": "function"
    },
    {
      "constant": true,
      "inputs": [
        {
          "name": "pubKey",
          "type": "bytes"
        }
      ],
      "name": "pubKeyToEthereumAddress",
      "outputs": [
        {
          "name": "",
          "type": "address"
        }
      ],
      "payable": false,
      "stateMutability": "pure",
      "type": "function"
    },
    {
      "constant": false,
      "inputs": [
        {
          "name": "_spender",
          "type": "address"
        },
        {
          "name": "_subtractedValue",
          "type": "uint256"
        }
      ],
      "name": "decreaseApproval",
      "outputs": [
        {
          "name": "",
          "type": "bool"
        }
      ],
      "payable": false,
      "stateMutability": "nonpayable",
      "type": "function"
    },
    {
      "constant": true,
      "inputs": [
        {
          "name": "_owner",
          "type": "address"
        }
      ],
      "name": "balanceOf",
      "outputs": [
        {
          "name": "",
          "type": "uint256"
        }
      ],
      "payable": false,
      "stateMutability": "view",
      "type": "function"
    },
    {
      "constant": true,
      "inputs": [],
      "name": "launchTime",
      "outputs": [
        {
          "name": "",
          "type": "uint256"
        }
      ],
      "payable": false,
      "stateMutability": "view",
      "type": "function"
    },
    {
      "constant": true,
      "inputs": [
        {
          "name": "merkleLeafHash",
          "type": "bytes32"
        },
        {
          "name": "proof",
          "type": "bytes32[]"
        }
      ],
      "name": "canRedeemUTXOHash",
      "outputs": [
        {
          "name": "",
          "type": "bool"
        }
      ],
      "payable": false,
      "stateMutability": "view",
      "type": "function"
    },
    {
      "constant": true,
      "inputs": [],
      "name": "totalBTCCirculationAtFork",
      "outputs": [
        {
          "name": "",
          "type": "uint256"
        }
      ],
      "payable": false,
      "stateMutability": "view",
      "type": "function"
    },
    {
      "constant": true,
      "inputs": [
        {
          "name": "",
          "type": "address"
        },
        {
          "name": "",
          "type": "uint256"
        }
      ],
      "name": "staked",
      "outputs": [
        {
          "name": "stakeAmount",
          "type": "uint256"
        },
        {
          "name": "stakeTime",
          "type": "uint256"
        },
        {
          "name": "unlockTime",
          "type": "uint256"
        },
        {
          "name": "stakedCoinsAtStart",
          "type": "uint256"
        }
      ],
      "payable": false,
      "stateMutability": "view",
      "type": "function"
    },
    {
      "constant": false,
      "inputs": [],
      "name": "storeWeekUnclaimed",
      "outputs": [],
      "payable": false,
      "stateMutability": "nonpayable",
      "type": "function"
    },
    {
      "constant": true,
      "inputs": [],
      "name": "origin",
      "outputs": [
        {
          "name": "",
          "type": "address"
        }
      ],
      "payable": false,
      "stateMutability": "view",
      "type": "function"
    },
    {
      "constant": true,
      "inputs": [],
      "name": "lastUpdatedWeek",
      "outputs": [
        {
          "name": "",
          "type": "uint256"
        }
      ],
      "payable": false,
      "stateMutability": "view",
      "type": "function"
    },
    {
      "constant": false,
      "inputs": [
        {
          "name": "_to",
          "type": "address"
        },
        {
          "name": "_value",
          "type": "uint256"
        }
      ],
      "name": "transfer",
      "outputs": [
        {
          "name": "",
          "type": "bool"
        }
      ],
      "payable": false,
      "stateMutability": "nonpayable",
      "type": "function"
    },
    {
      "constant": true,
      "inputs": [
        {
          "name": "hash",
          "type": "bytes32"
        },
        {
          "name": "v",
          "type": "uint8"
        },
        {
          "name": "r",
          "type": "bytes32"
        },
        {
          "name": "s",
          "type": "bytes32"
        },
        {
          "name": "expected",
          "type": "address"
        }
      ],
      "name": "validateSignature",
      "outputs": [
        {
          "name": "",
          "type": "bool"
        }
      ],
      "payable": false,
      "stateMutability": "pure",
      "type": "function"
    },
    {
      "constant": true,
      "inputs": [
        {
          "name": "proof",
          "type": "bytes32[]"
        },
        {
          "name": "merkleLeafHash",
          "type": "bytes32"
        }
      ],
      "name": "verifyProof",
      "outputs": [
        {
          "name": "",
          "type": "bool"
        }
      ],
      "payable": false,
      "stateMutability": "view",
      "type": "function"
    },
    {
      "constant": true,
      "inputs": [
        {
          "name": "txid",
          "type": "bytes32"
        },
        {
          "name": "originalAddress",
          "type": "bytes20"
        },
        {
          "name": "outputIndex",
          "type": "uint8"
        },
        {
          "name": "satoshis",
          "type": "uint256"
        },
        {
          "name": "proof",
          "type": "bytes32[]"
        }
      ],
      "name": "canRedeemUTXO",
      "outputs": [
        {
          "name": "",
          "type": "bool"
        }
      ],
      "payable": false,
      "stateMutability": "view",
      "type": "function"
    },
    {
      "constant": true,
      "inputs": [
        {
          "name": "addr",
          "type": "address"
        },
        {
          "name": "pubKey",
          "type": "bytes"
        },
        {
          "name": "v",
          "type": "uint8"
        },
        {
          "name": "r",
          "type": "bytes32"
        },
        {
          "name": "s",
          "type": "bytes32"
        }
      ],
      "name": "ecdsaVerify",
      "outputs": [
        {
          "name": "",
          "type": "bool"
        }
      ],
      "payable": false,
      "stateMutability": "pure",
      "type": "function"
    },
    {
      "constant": true,
      "inputs": [],
      "name": "stakedCoins",
      "outputs": [
        {
          "name": "",
          "type": "uint256"
        }
      ],
      "payable": false,
      "stateMutability": "view",
      "type": "function"
    },
    {
      "constant": false,
      "inputs": [
        {
          "name": "_spender",
          "type": "address"
        },
        {
          "name": "_addedValue",
          "type": "uint256"
        }
      ],
      "name": "increaseApproval",
      "outputs": [
        {
          "name": "",
          "type": "bool"
        }
      ],
      "payable": false,
      "stateMutability": "nonpayable",
      "type": "function"
    },
    {
      "constant": true,
      "inputs": [
        {
          "name": "_owner",
          "type": "address"
        },
        {
          "name": "_spender",
          "type": "address"
        }
      ],
      "name": "allowance",
      "outputs": [
        {
          "name": "",
          "type": "uint256"
        }
      ],
      "payable": false,
      "stateMutability": "view",
      "type": "function"
    },
    {
      "constant": true,
      "inputs": [
        {
          "name": "pubKey",
          "type": "bytes"
        },
        {
          "name": "isCompressed",
          "type": "bool"
        }
      ],
      "name": "pubKeyToBitcoinAddress",
      "outputs": [
        {
          "name": "",
          "type": "bytes20"
        }
      ],
      "payable": false,
      "stateMutability": "pure",
      "type": "function"
    },
    {
      "constant": true,
      "inputs": [],
      "name": "rootUTXOMerkleTreeHash",
      "outputs": [
        {
          "name": "",
          "type": "bytes32"
        }
      ],
      "payable": false,
      "stateMutability": "view",
      "type": "function"
    },
    {
      "constant": true,
      "inputs": [],
      "name": "totalRedeemed",
      "outputs": [
        {
          "name": "",
          "type": "uint256"
        }
      ],
      "payable": false,
      "stateMutability": "view",
      "type": "function"
    },
    {
      "anonymous": false,
      "inputs": [
        {
          "indexed": true,
          "name": "_address",
          "type": "address"
        },
        {
          "indexed": false,
          "name": "_reward",
          "type": "uint256"
        }
      ],
      "name": "Mint",
      "type": "event"
    },
    {
      "anonymous": false,
      "inputs": [
        {
          "indexed": true,
          "name": "owner",
          "type": "address"
        },
        {
          "indexed": true,
          "name": "spender",
          "type": "address"
        },
        {
          "indexed": false,
          "name": "value",
          "type": "uint256"
        }
      ],
      "name": "Approval",
      "type": "event"
    },
    {
      "anonymous": false,
      "inputs": [
        {
          "indexed": true,
          "name": "from",
          "type": "address"
        },
        {
          "indexed": true,
          "name": "to",
          "type": "address"
        },
        {
          "indexed": false,
          "name": "value",
          "type": "uint256"
        }
      ],
      "name": "Transfer",
      "type": "event"
    },
    {
      "constant": false,
      "inputs": [
        {
          "name": "_value",
          "type": "uint256"
        },
        {
          "name": "_unlockTime",
          "type": "uint256"
        }
      ],
      "name": "startStake",
      "outputs": [],
      "payable": false,
      "stateMutability": "nonpayable",
      "type": "function"
    },
    {
      "constant": true,
      "inputs": [
        {
          "name": "staker",
          "type": "address"
        }
      ],
      "name": "getCurrentStaked",
      "outputs": [
        {
          "name": "stakes",
          "type": "uint256"
        }
      ],
      "payable": false,
      "stateMutability": "view",
      "type": "function"
    },
    {
      "constant": false,
      "inputs": [
        {
          "name": "staker",
          "type": "address"
        }
      ],
      "name": "claimStakingRewards",
      "outputs": [],
      "payable": false,
      "stateMutability": "nonpayable",
      "type": "function"
    }
  ],
  "bytecode": "0x60806040526000600555600060095534801561001a57600080fd5b50613d708061002a6000396000f300608060405260043610610180576000357c0100000000000000000000000000000000000000000000000000000000900463ffffffff16806308b4312b14610185578063095ea7b3146101b0578063128bfcae1461021557806318160ddd1461024c57806323b872dd14610277578063427da275146102fc578063443de10c146103fb5780634ecd81b3146104525780635418796c1461051857806366188463146105c157806370a0823114610626578063790ca4131461067d5780637f761472146106a857806385fcd90b146107345780638f1698161461075f5780639283032c146107d5578063938b5f32146107ec57806396bb1fef146108435780639d65b89214610886578063a9059cbb146108b1578063af1d06e814610916578063b80ac7df146109a8578063ca193e4d14610a34578063ce267b5514610af0578063d0668b3c14610bba578063d73dd62314610be5578063dd62ed3e14610c4a578063e073ef6914610cc1578063e6997f6d14610d68578063f35dad4014610d9b575b600080fd5b34801561019157600080fd5b5061019a610dc6565b6040518082815260200191505060405180910390f35b3480156101bc57600080fd5b506101fb600480360381019080803573ffffffffffffffffffffffffffffffffffffffff16906020019092919080359060200190929190505050610dcc565b604051808215151515815260200191505060405180910390f35b34801561022157600080fd5b5061024a6004803603810190808035906020019092919080359060200190929190505050610ebe565b005b34801561025857600080fd5b5061026161118e565b6040518082815260200191505060405180910390f35b34801561028357600080fd5b506102e2600480360381019080803573ffffffffffffffffffffffffffffffffffffffff169060200190929190803573ffffffffffffffffffffffffffffffffffffffff16906020019092919080359060200190929190505050611198565b604051808215151515815260200191505060405180910390f35b34801561030857600080fd5b506103e56004803603810190808035906020019092919080359060200190820180359060200190808060200260200160405190810160405280939291908181526020018383602002808284378201915050505050509192919290803590602001908201803590602001908080601f0160208091040260200160405190810160405280939291908181526020018383808284378201915050505050509192919290803515159060200190929190803560ff16906020019092919080356000191690602001909291908035600019169060200190929190505050611552565b6040518082815260200191505060405180910390f35b34801561040757600080fd5b5061043c600480360381019080803573ffffffffffffffffffffffffffffffffffffffff16906020019092919050505061181d565b6040518082815260200191505060405180910390f35b34801561045e57600080fd5b5061050260048036038101908080359060200190929190803590602001908201803590602001919091929391929390803590602001908201803590602001919091929391929390803515159060200190929190803560ff16906020019092919080356000191690602001909291908035600019169060200190929190803573ffffffffffffffffffffffffffffffffffffffff169060200190929190505050611a9f565b6040518082815260200191505060405180910390f35b34801561052457600080fd5b5061057f600480360381019080803590602001908201803590602001908080601f0160208091040260200160405190810160405280939291908181526020018383808284378201915050505050509192919290505050611bf8565b604051808273ffffffffffffffffffffffffffffffffffffffff1673ffffffffffffffffffffffffffffffffffffffff16815260200191505060405180910390f35b3480156105cd57600080fd5b5061060c600480360381019080803573ffffffffffffffffffffffffffffffffffffffff16906020019092919080359060200190929190505050611c7e565b604051808215151515815260200191505060405180910390f35b34801561063257600080fd5b50610667600480360381019080803573ffffffffffffffffffffffffffffffffffffffff169060200190929190505050611f0f565b6040518082815260200191505060405180910390f35b34801561068957600080fd5b50610692611f57565b6040518082815260200191505060405180910390f35b3480156106b457600080fd5b5061071a600480360381019080803560001916906020019092919080359060200190820180359060200190808060200260200160405190810160405280939291908181526020018383602002808284378201915050505050509192919290505050611f5d565b604051808215151515815260200191505060405180910390f35b34801561074057600080fd5b50610749611fa8565b6040518082815260200191505060405180910390f35b34801561076b57600080fd5b506107aa600480360381019080803573ffffffffffffffffffffffffffffffffffffffff16906020019092919080359060200190929190505050611fae565b6040518085815260200184815260200183815260200182815260200194505050505060405180910390f35b3480156107e157600080fd5b506107ea611ffa565b005b3480156107f857600080fd5b50610801612094565b604051808273ffffffffffffffffffffffffffffffffffffffff1673ffffffffffffffffffffffffffffffffffffffff16815260200191505060405180910390f35b34801561084f57600080fd5b50610884600480360381019080803573ffffffffffffffffffffffffffffffffffffffff1690602001909291905050506120ba565b005b34801561089257600080fd5b5061089b61285d565b6040518082815260200191505060405180910390f35b3480156108bd57600080fd5b506108fc600480360381019080803573ffffffffffffffffffffffffffffffffffffffff16906020019092919080359060200190929190505050612863565b604051808215151515815260200191505060405180910390f35b34801561092257600080fd5b5061098e6004803603810190808035600019169060200190929190803560ff16906020019092919080356000191690602001909291908035600019169060200190929190803573ffffffffffffffffffffffffffffffffffffffff169060200190929190505050612a82565b604051808215151515815260200191505060405180910390f35b3480156109b457600080fd5b50610a1a600480360381019080803590602001908201803590602001908080602002602001604051908101604052809392919081815260200183836020028082843782019150505050505091929192908035600019169060200190929190505050612c5d565b604051808215151515815260200191505060405180910390f35b348015610a4057600080fd5b50610ad6600480360381019080803560001916906020019092919080356bffffffffffffffffffffffff19169060200190929190803560ff1690602001909291908035906020019092919080359060200190820180359060200190808060200260200160405190810160405280939291908181526020018383602002808284378201915050505050509192919290505050612c74565b604051808215151515815260200191505060405180910390f35b348015610afc57600080fd5b50610ba0600480360381019080803573ffffffffffffffffffffffffffffffffffffffff169060200190929190803590602001908201803590602001908080601f0160208091040260200160405190810160405280939291908181526020018383808284378201915050505050509192919290803560ff16906020019092919080356000191690602001909291908035600019169060200190929190505050612d77565b604051808215151515815260200191505060405180910390f35b348015610bc657600080fd5b50610bcf612e94565b6040518082815260200191505060405180910390f35b348015610bf157600080fd5b50610c30600480360381019080803573ffffffffffffffffffffffffffffffffffffffff16906020019092919080359060200190929190505050612e9a565b604051808215151515815260200191505060405180910390f35b348015610c5657600080fd5b50610cab600480360381019080803573ffffffffffffffffffffffffffffffffffffffff169060200190929190803573ffffffffffffffffffffffffffffffffffffffff169060200190929190505050613096565b6040518082815260200191505060405180910390f35b348015610ccd57600080fd5b50610d34600480360381019080803590602001908201803590602001908080601f016020809104026020016040519081016040528093929190818152602001838380828437820191505050505050919291929080351515906020019092919050505061311d565b60405180826bffffffffffffffffffffffff19166bffffffffffffffffffffffff1916815260200191505060405180910390f35b348015610d7457600080fd5b50610d7d6134dc565b60405180826000191660001916815260200191505060405180910390f35b348015610da757600080fd5b50610db06134e2565b6040518082815260200191505060405180910390f35b600a5481565b600081600260003373ffffffffffffffffffffffffffffffffffffffff1673ffffffffffffffffffffffffffffffffffffffff16815260200190815260200160002060008573ffffffffffffffffffffffffffffffffffffffff1673ffffffffffffffffffffffffffffffffffffffff168152602001908152602001600020819055508273ffffffffffffffffffffffffffffffffffffffff163373ffffffffffffffffffffffffffffffffffffffff167f8c5be1e5ebec7d5bd14f71427d1e84f3dd0314c0f7b2291e5b200ac8c7c3b925846040518082815260200191505060405180910390a36001905092915050565b6000339050826000808373ffffffffffffffffffffffffffffffffffffffff1673ffffffffffffffffffffffffffffffffffffffff1681526020019081526020016000205410151515610f1057600080fd5b610f18611ffa565b610f69836000808473ffffffffffffffffffffffffffffffffffffffff1673ffffffffffffffffffffffffffffffffffffffff168152602001908152602001600020546134e890919063ffffffff16565b6000808373ffffffffffffffffffffffffffffffffffffffff1673ffffffffffffffffffffffffffffffffffffffff16815260200190815260200160002081905550610ffc836000803073ffffffffffffffffffffffffffffffffffffffff1673ffffffffffffffffffffffffffffffffffffffff1681526020019081526020016000205461350190919063ffffffff16565b6000803073ffffffffffffffffffffffffffffffffffffffff1673ffffffffffffffffffffffffffffffffffffffff168152602001908152602001600020819055503073ffffffffffffffffffffffffffffffffffffffff168173ffffffffffffffffffffffffffffffffffffffff167fddf252ad1be2c89b69c2b068fc378daa952ba7f163c4a11628f55a4df523b3ef856040518082815260200191505060405180910390a3600d60008273ffffffffffffffffffffffffffffffffffffffff1673ffffffffffffffffffffffffffffffffffffffff168152602001908152602001600020608060405190810160405280856fffffffffffffffffffffffffffffffff168152602001428152602001848152602001600c54815250908060018154018082558091505090600182039060005260206000209060040201600090919290919091506000820151816000015560208201518160010155604082015181600201556060820151816003015550505061118383600c5461350190919063ffffffff16565b600c81905550505050565b6000600154905090565b60008073ffffffffffffffffffffffffffffffffffffffff168373ffffffffffffffffffffffffffffffffffffffff16141515156111d557600080fd5b6000808573ffffffffffffffffffffffffffffffffffffffff1673ffffffffffffffffffffffffffffffffffffffff16815260200190815260200160002054821115151561122257600080fd5b600260008573ffffffffffffffffffffffffffffffffffffffff1673ffffffffffffffffffffffffffffffffffffffff16815260200190815260200160002060003373ffffffffffffffffffffffffffffffffffffffff1673ffffffffffffffffffffffffffffffffffffffff1681526020019081526020016000205482111515156112ad57600080fd5b6112fe826000808773ffffffffffffffffffffffffffffffffffffffff1673ffffffffffffffffffffffffffffffffffffffff168152602001908152602001600020546134e890919063ffffffff16565b6000808673ffffffffffffffffffffffffffffffffffffffff1673ffffffffffffffffffffffffffffffffffffffff16815260200190815260200160002081905550611391826000808673ffffffffffffffffffffffffffffffffffffffff1673ffffffffffffffffffffffffffffffffffffffff1681526020019081526020016000205461350190919063ffffffff16565b6000808573ffffffffffffffffffffffffffffffffffffffff1673ffffffffffffffffffffffffffffffffffffffff1681526020019081526020016000208190555061146282600260008773ffffffffffffffffffffffffffffffffffffffff1673ffffffffffffffffffffffffffffffffffffffff16815260200190815260200160002060003373ffffffffffffffffffffffffffffffffffffffff1673ffffffffffffffffffffffffffffffffffffffff168152602001908152602001600020546134e890919063ffffffff16565b600260008673ffffffffffffffffffffffffffffffffffffffff1673ffffffffffffffffffffffffffffffffffffffff16815260200190815260200160002060003373ffffffffffffffffffffffffffffffffffffffff1673ffffffffffffffffffffffffffffffffffffffff168152602001908152602001600020819055508273ffffffffffffffffffffffffffffffffffffffff168473ffffffffffffffffffffffffffffffffffffffff167fddf252ad1be2c89b69c2b068fc378daa952ba7f163c4a11628f55a4df523b3ef846040518082815260200191505060405180910390a3600190509392505050565b600080600061155f611ffa565b603261158b62093a8061157d600454426134e890919063ffffffff16565b61351d90919063ffffffff16565b10151561159757600080fd5b6115a1888861311d565b9150818a60405160200180836bffffffffffffffffffffffff19166bffffffffffffffffffffffff19168152601401828152602001925050506040516020818303038152906040526040518082805190602001908083835b60208310151561161e57805182526020820191506020810190506020830392506115f9565b6001836020036101000a03801982511681845116808217855250505050505090500191505060405180910390209050611657818a611f5d565b151561166257600080fd5b61166f3389888888612d77565b151561167a57600080fd5b600160086000836000191660001916815260200190815260200160002060006101000a81548160ff0219169083151502179055506116b78a613533565b9250600a546116d18460095461350190919063ffffffff16565b111515156116de57600080fd5b6116f38360095461350190919063ffffffff16565b60098190555061174a836000803373ffffffffffffffffffffffffffffffffffffffff1673ffffffffffffffffffffffffffffffffffffffff1681526020019081526020016000205461350190919063ffffffff16565b6000803373ffffffffffffffffffffffffffffffffffffffff1673ffffffffffffffffffffffffffffffffffffffff168152602001908152602001600020819055506117a18360015461350190919063ffffffff16565b6001819055503373ffffffffffffffffffffffffffffffffffffffff16600073ffffffffffffffffffffffffffffffffffffffff167fddf252ad1be2c89b69c2b068fc378daa952ba7f163c4a11628f55a4df523b3ef856040518082815260200191505060405180910390a38292505050979650505050505050565b60008060005b600d60008573ffffffffffffffffffffffffffffffffffffffff1673ffffffffffffffffffffffffffffffffffffffff16815260200190815260200160002080549050821015611a95576118dd600d60008673ffffffffffffffffffffffffffffffffffffffff1673ffffffffffffffffffffffffffffffffffffffff168152602001908152602001600020838154811015156118bc57fe5b9060005260206000209060040201600001548461350190919063ffffffff16565b9250600d60008573ffffffffffffffffffffffffffffffffffffffff1673ffffffffffffffffffffffffffffffffffffffff1681526020019081526020016000208281548110151561192b57fe5b906000526020600020906004020160020154421115611a88576119da600d60008673ffffffffffffffffffffffffffffffffffffffff1673ffffffffffffffffffffffffffffffffffffffff1681526020019081526020016000208381548110151561199357fe5b90600052602060002090600402016080604051908101604052908160008201548152602001600182015481526020016002820154815260200160038201548152505061389c565b9050611a85611a76600d60008773ffffffffffffffffffffffffffffffffffffffff1673ffffffffffffffffffffffffffffffffffffffff16815260200190815260200160002084815481101515611a2e57fe5b90600052602060002090600402016080604051908101604052908160008201548152602001600182015481526020016002820154815260200160038201548152505083613984565b8461350190919063ffffffff16565b92505b8180600101925050611823565b8292505050919050565b6000611b118b8b8b808060200260200160405190810160405280939291908181526020018383602002808284378201915050505050508a8a8080601f01602080910402602001604051908101604052809392919081815260200183838082843782019150505050505089898989611552565b9050611b77611b2a60148361351d90919063ffffffff16565b6000808573ffffffffffffffffffffffffffffffffffffffff1673ffffffffffffffffffffffffffffffffffffffff1681526020019081526020016000205461350190919063ffffffff16565b6000808473ffffffffffffffffffffffffffffffffffffffff1673ffffffffffffffffffffffffffffffffffffffff16815260200190815260200160002081905550611be1611bd060148361351d90919063ffffffff16565b60015461350190919063ffffffff16565b6001819055508090509a9950505050505050505050565b600073ffffffffffffffffffffffffffffffffffffffff826040518082805190602001908083835b602083101515611c455780518252602082019150602081019050602083039250611c20565b6001836020036101000a038019825116818451168082178552505050505050905001915050604051809103902060019004169050919050565b600080600260003373ffffffffffffffffffffffffffffffffffffffff1673ffffffffffffffffffffffffffffffffffffffff16815260200190815260200160002060008573ffffffffffffffffffffffffffffffffffffffff1673ffffffffffffffffffffffffffffffffffffffff16815260200190815260200160002054905080831115611d8f576000600260003373ffffffffffffffffffffffffffffffffffffffff1673ffffffffffffffffffffffffffffffffffffffff16815260200190815260200160002060008673ffffffffffffffffffffffffffffffffffffffff1673ffffffffffffffffffffffffffffffffffffffff16815260200190815260200160002081905550611e23565b611da283826134e890919063ffffffff16565b600260003373ffffffffffffffffffffffffffffffffffffffff1673ffffffffffffffffffffffffffffffffffffffff16815260200190815260200160002060008673ffffffffffffffffffffffffffffffffffffffff1673ffffffffffffffffffffffffffffffffffffffff168152602001908152602001600020819055505b8373ffffffffffffffffffffffffffffffffffffffff163373ffffffffffffffffffffffffffffffffffffffff167f8c5be1e5ebec7d5bd14f71427d1e84f3dd0314c0f7b2291e5b200ac8c7c3b925600260003373ffffffffffffffffffffffffffffffffffffffff1673ffffffffffffffffffffffffffffffffffffffff16815260200190815260200160002060008873ffffffffffffffffffffffffffffffffffffffff1673ffffffffffffffffffffffffffffffffffffffff168152602001908152602001600020546040518082815260200191505060405180910390a3600191505092915050565b60008060008373ffffffffffffffffffffffffffffffffffffffff1673ffffffffffffffffffffffffffffffffffffffff168152602001908152602001600020549050919050565b60045481565b600080151560086000856000191660001916815260200190815260200160002060009054906101000a900460ff161515148015611fa05750611f9f8284612c5d565b5b905092915050565b600b5481565b600d60205281600052604060002081815481101515611fc957fe5b9060005260206000209060040201600091509150508060000154908060010154908060020154908060030154905084565b60008061202762093a80612019600454426134e890919063ffffffff16565b61351d90919063ffffffff16565b915060338210801561203a575060055482115b1561209057612056600954600a546134e890919063ffffffff16565b9050602060405190810160405280828152506006600084815260200190815260200160002060008201518160000155905050816005819055505b5050565b600360009054906101000a900473ffffffffffffffffffffffffffffffffffffffff1681565b60008060006120c7611ffa565b5b600d60008573ffffffffffffffffffffffffffffffffffffffff1673ffffffffffffffffffffffffffffffffffffffff1681526020019081526020016000208054905083101561285757600d60008573ffffffffffffffffffffffffffffffffffffffff1673ffffffffffffffffffffffffffffffffffffffff1681526020019081526020016000208381548110151561215e57fe5b90600052602060002090600402016002015442111561284a576121e9600d60008673ffffffffffffffffffffffffffffffffffffffff1673ffffffffffffffffffffffffffffffffffffffff168152602001908152602001600020848154811015156121c657fe5b906000526020600020906004020160000154600c546134e890919063ffffffff16565b600c8190555061229d600d60008673ffffffffffffffffffffffffffffffffffffffff1673ffffffffffffffffffffffffffffffffffffffff1681526020019081526020016000208481548110151561223e57fe5b9060005260206000209060040201600001546000803073ffffffffffffffffffffffffffffffffffffffff1673ffffffffffffffffffffffffffffffffffffffff168152602001908152602001600020546134e890919063ffffffff16565b6000803073ffffffffffffffffffffffffffffffffffffffff1673ffffffffffffffffffffffffffffffffffffffff1681526020019081526020016000208190555061238d600d60008673ffffffffffffffffffffffffffffffffffffffff1673ffffffffffffffffffffffffffffffffffffffff1681526020019081526020016000208481548110151561232e57fe5b9060005260206000209060040201600001546000808773ffffffffffffffffffffffffffffffffffffffff1673ffffffffffffffffffffffffffffffffffffffff1681526020019081526020016000205461350190919063ffffffff16565b6000808673ffffffffffffffffffffffffffffffffffffffff1673ffffffffffffffffffffffffffffffffffffffff168152602001908152602001600020819055508373ffffffffffffffffffffffffffffffffffffffff163073ffffffffffffffffffffffffffffffffffffffff167fddf252ad1be2c89b69c2b068fc378daa952ba7f163c4a11628f55a4df523b3ef600d60008873ffffffffffffffffffffffffffffffffffffffff1673ffffffffffffffffffffffffffffffffffffffff1681526020019081526020016000208681548110151561246a57fe5b9060005260206000209060040201600001546040518082815260200191505060405180910390a3612527600d60008673ffffffffffffffffffffffffffffffffffffffff1673ffffffffffffffffffffffffffffffffffffffff168152602001908152602001600020848154811015156124e057fe5b90600052602060002090600402016080604051908101604052908160008201548152602001600182015481526020016002820154815260200160038201548152505061389c565b91506125d26125c3600d60008773ffffffffffffffffffffffffffffffffffffffff1673ffffffffffffffffffffffffffffffffffffffff1681526020019081526020016000208581548110151561257b57fe5b90600052602060002090600402016080604051908101604052908160008201548152602001600182015481526020016002820154815260200160038201548152505084613984565b8261350190919063ffffffff16565b9050612625816000808773ffffffffffffffffffffffffffffffffffffffff1673ffffffffffffffffffffffffffffffffffffffff1681526020019081526020016000205461350190919063ffffffff16565b6000808673ffffffffffffffffffffffffffffffffffffffff1673ffffffffffffffffffffffffffffffffffffffff168152602001908152602001600020819055506126ec61267d83836134e890919063ffffffff16565b600080600360009054906101000a900473ffffffffffffffffffffffffffffffffffffffff1673ffffffffffffffffffffffffffffffffffffffff1673ffffffffffffffffffffffffffffffffffffffff1681526020019081526020016000205461350190919063ffffffff16565b600080600360009054906101000a900473ffffffffffffffffffffffffffffffffffffffff1673ffffffffffffffffffffffffffffffffffffffff1673ffffffffffffffffffffffffffffffffffffffff168152602001908152602001600020819055506127786127676002836139e390919063ffffffff16565b60015461350190919063ffffffff16565b600181905550600d60008573ffffffffffffffffffffffffffffffffffffffff1673ffffffffffffffffffffffffffffffffffffffff168152602001908152602001600020838154811015156127ca57fe5b906000526020600020906004020160008082016000905560018201600090556002820160009055600382016000905550508373ffffffffffffffffffffffffffffffffffffffff167f0f6798a560793a54c3bcfe86a93cde1e73087d944c0ea20544137d4121396885826040518082815260200191505060405180910390a25b82806001019350506120c8565b50505050565b60055481565b60008073ffffffffffffffffffffffffffffffffffffffff168373ffffffffffffffffffffffffffffffffffffffff16141515156128a057600080fd5b6000803373ffffffffffffffffffffffffffffffffffffffff1673ffffffffffffffffffffffffffffffffffffffff1681526020019081526020016000205482111515156128ed57600080fd5b61293e826000803373ffffffffffffffffffffffffffffffffffffffff1673ffffffffffffffffffffffffffffffffffffffff168152602001908152602001600020546134e890919063ffffffff16565b6000803373ffffffffffffffffffffffffffffffffffffffff1673ffffffffffffffffffffffffffffffffffffffff168152602001908152602001600020819055506129d1826000808673ffffffffffffffffffffffffffffffffffffffff1673ffffffffffffffffffffffffffffffffffffffff1681526020019081526020016000205461350190919063ffffffff16565b6000808573ffffffffffffffffffffffffffffffffffffffff1673ffffffffffffffffffffffffffffffffffffffff168152602001908152602001600020819055508273ffffffffffffffffffffffffffffffffffffffff163373ffffffffffffffffffffffffffffffffffffffff167fddf252ad1be2c89b69c2b068fc378daa952ba7f163c4a11628f55a4df523b3ef846040518082815260200191505060405180910390a36001905092915050565b6000606060006040805190810160405280601c81526020017f19457468657265756d205369676e6564204d6573736167653a0a333200000000815250915081886040516020018083805190602001908083835b602083101515612afa5780518252602082019150602081019050602083039250612ad5565b6001836020036101000a0380198251168184511680821785525050505050509050018260001916600019168152602001925050506040516020818303038152906040526040518082805190602001908083835b602083101515612b725780518252602082019150602081019050602083039250612b4d565b6001836020036101000a038019825116818451168082178552505050505050905001915050604051809103902090508373ffffffffffffffffffffffffffffffffffffffff16600182898989604051600081526020016040526040518085600019166000191681526020018460ff1660ff1681526020018360001916600019168152602001826000191660001916815260200194505050505060206040516020810390808403906000865af1158015612c2f573d6000803e3d6000fd5b5050506020604051035173ffffffffffffffffffffffffffffffffffffffff16149250505095945050505050565b6000612c6c8360075484613a1b565b905092915050565b60008086868686604051602001808560001916600019168152602001846bffffffffffffffffffffffff19166bffffffffffffffffffffffff191681526014018360ff1660ff167f01000000000000000000000000000000000000000000000000000000000000000281526001018281526020019450505050506040516020818303038152906040526040518082805190602001908083835b602083101515612d325780518252602082019150602081019050602083039250612d0d565b6001836020036101000a03801982511681845116808217855250505050505090500191505060405180910390209050612d6b8184611f5d565b91505095945050505050565b6000612e89600287604051602001808273ffffffffffffffffffffffffffffffffffffffff1673ffffffffffffffffffffffffffffffffffffffff166c010000000000000000000000000281526014019150506040516020818303038152906040526040518082805190602001908083835b602083101515612e0e5780518252602082019150602081019050602083039250612de9565b6001836020036101000a0380198251168184511680821785525050505050509050019150506020604051808303816000865af1158015612e52573d6000803e3d6000fd5b5050506040513d6020811015612e6757600080fd5b8101908080519060200190929190505050858585612e848a611bf8565b612a82565b905095945050505050565b600c5481565b6000612f2b82600260003373ffffffffffffffffffffffffffffffffffffffff1673ffffffffffffffffffffffffffffffffffffffff16815260200190815260200160002060008673ffffffffffffffffffffffffffffffffffffffff1673ffffffffffffffffffffffffffffffffffffffff1681526020019081526020016000205461350190919063ffffffff16565b600260003373ffffffffffffffffffffffffffffffffffffffff1673ffffffffffffffffffffffffffffffffffffffff16815260200190815260200160002060008573ffffffffffffffffffffffffffffffffffffffff1673ffffffffffffffffffffffffffffffffffffffff168152602001908152602001600020819055508273ffffffffffffffffffffffffffffffffffffffff163373ffffffffffffffffffffffffffffffffffffffff167f8c5be1e5ebec7d5bd14f71427d1e84f3dd0314c0f7b2291e5b200ac8c7c3b925600260003373ffffffffffffffffffffffffffffffffffffffff1673ffffffffffffffffffffffffffffffffffffffff16815260200190815260200160002060008773ffffffffffffffffffffffffffffffffffffffff1673ffffffffffffffffffffffffffffffffffffffff168152602001908152602001600020546040518082815260200191505060405180910390a36001905092915050565b6000600260008473ffffffffffffffffffffffffffffffffffffffff1673ffffffffffffffffffffffffffffffffffffffff16815260200190815260200160002060008373ffffffffffffffffffffffffffffffffffffffff1673ffffffffffffffffffffffffffffffffffffffff16815260200190815260200160002054905092915050565b60008060008061312e866000613ae6565b60019004925061313f866020613ae6565b600190049150841561331b57600060028381151561315957fe5b0614613166576003613169565b60025b9050600360028285604051602001808360ff1660ff167f0100000000000000000000000000000000000000000000000000000000000000028152600101828152602001925050506040516020818303038152906040526040518082805190602001908083835b6020831015156131f457805182526020820191506020810190506020830392506131cf565b6001836020036101000a0380198251168184511680821785525050505050509050019150506020604051808303816000865af1158015613238573d6000803e3d6000fd5b5050506040513d602081101561324d57600080fd5b81019080805190602001909291905050506040516020018082600019166000191681526020019150506040516020818303038152906040526040518082805190602001908083835b6020831015156132ba5780518252602082019150602081019050602083039250613295565b6001836020036101000a0380198251168184511680821785525050505050509050019150506020604051808303816000865af11580156132fe573d6000803e3d6000fd5b505050604051516c010000000000000000000000000293506134d3565b6004905060036002828585604051602001808460ff1660ff167f010000000000000000000000000000000000000000000000000000000000000002815260010183815260200182815260200193505050506040516020818303038152906040526040518082805190602001908083835b6020831015156133b0578051825260208201915060208101905060208303925061338b565b6001836020036101000a0380198251168184511680821785525050505050509050019150506020604051808303816000865af11580156133f4573d6000803e3d6000fd5b5050506040513d602081101561340957600080fd5b81019080805190602001909291905050506040516020018082600019166000191681526020019150506040516020818303038152906040526040518082805190602001908083835b6020831015156134765780518252602082019150602081019050602083039250613451565b6001836020036101000a0380198251168184511680821785525050505050509050019150506020604051808303816000865af11580156134ba573d6000803e3d6000fd5b505050604051516c010000000000000000000000000293505b50505092915050565b60075481565b60095481565b60008282111515156134f657fe5b818303905092915050565b6000818301905082811015151561351457fe5b80905092915050565b6000818381151561352a57fe5b04905092915050565b600080600080600085935061356862093a8061355a600454426134e890919063ffffffff16565b61351d90919063ffffffff16565b92506135916135816002856139e390919063ffffffff16565b60646134e890919063ffffffff16565b9150683635c9adc5dea0000084111561362a5769152d02c7e14af68000008410156136125761360b640ba43b74006135fd60096135ef60026135e164174876e8008b6134e890919063ffffffff16565b6139e390919063ffffffff16565b61351d90919063ffffffff16565b61350190919063ffffffff16565b9350613629565b61362660048561351d90919063ffffffff16565b93505b5b61366760646136596402540be40061364b86896139e390919063ffffffff16565b6139e390919063ffffffff16565b61351d90919063ffffffff16565b9050602d83111561367a57809450613893565b60208311156136b1576136aa606461369c6065846139e390919063ffffffff16565b61351d90919063ffffffff16565b9450613893565b60188311156136e8576136e160646136d36066846139e390919063ffffffff16565b61351d90919063ffffffff16565b9450613893565b601283111561371f57613718606461370a6067846139e390919063ffffffff16565b61351d90919063ffffffff16565b9450613893565b600e8311156137565761374f60646137416068846139e390919063ffffffff16565b61351d90919063ffffffff16565b9450613893565b600a83111561378d5761378660646137786069846139e390919063ffffffff16565b61351d90919063ffffffff16565b9450613893565b60078311156137c4576137bd60646137af606a846139e390919063ffffffff16565b61351d90919063ffffffff16565b9450613893565b60058311156137fb576137f460646137e6606b846139e390919063ffffffff16565b61351d90919063ffffffff16565b9450613893565b60038311156138325761382b606461381d606c846139e390919063ffffffff16565b61351d90919063ffffffff16565b9450613893565b6001831115613869576138626064613854606d846139e390919063ffffffff16565b61351d90919063ffffffff16565b9450613893565b6138906064613882606e846139e390919063ffffffff16565b61351d90919063ffffffff16565b94505b50505050919050565b6000806000806000606493506138d46001546138c6606489606001516139e390919063ffffffff16565b61351d90919063ffffffff16565b92506138e9838561351d90919063ffffffff16565b9350613917620d2f006139098860200151426134e890919063ffffffff16565b61351d90919063ffffffff16565b915061392886600001518386613bc2565b9050613979866000015161396b8361395d6103e861394f88886139e390919063ffffffff16565b61351d90919063ffffffff16565b61350190919063ffffffff16565b6134e890919063ffffffff16565b945050505050919050565b60006139a161399284613be3565b8361350190919063ffffffff16565b90506139d86139af82613cba565b6139ca6139bb84613cff565b8461350190919063ffffffff16565b61350190919063ffffffff16565b905080905092915050565b6000808314156139f65760009050613a15565b8183029050818382811515613a0757fe5b04141515613a1157fe5b8090505b92915050565b600080600080849250600091505b8651821015613acf578682815181101515613a4057fe5b906020019060200201519050806000191683600019161015613a9157828160405180836000191660001916815260200182600019166000191681526020019250505060405180910390209250613ac2565b8083604051808360001916600019168152602001826000191660001916815260200192505050604051809103902092505b8180600101925050613a29565b856000191683600019161493505050509392505050565b600080600090505b6020811015613bb8576008810284848301815181101515613b0b57fe5b9060200101517f010000000000000000000000000000000000000000000000000000000000000090047f0100000000000000000000000000000000000000000000000000000000000000027effffffffffffffffffffffffffffffffffffffffffffffffffffffffffffff19167fff0000000000000000000000000000000000000000000000000000000000000060010216600019169060020a9004821891508080600101915050613aee565b8191505092915050565b60008260640a83836064010a8502811515613bd957fe5b0490509392505050565b600080600080613c1762093a80613c0960045488602001516134e890919063ffffffff16565b61351d90919063ffffffff16565b9250613c4362093a80613c35600454426134e890919063ffffffff16565b61351d90919063ffffffff16565b91508290505b81811015613cb257613ca3613c946032613c86886000015160066000878152602001908152602001600020600001546139e390919063ffffffff16565b61351d90919063ffffffff16565b8561350190919063ffffffff16565b93508080600101915050613c49565b505050919050565b6000613cf8600a613cea600a54613cdc600954876139e390919063ffffffff16565b61351d90919063ffffffff16565b61351d90919063ffffffff16565b9050919050565b6000613d3d600a613d2f600b54613d21600954876139e390919063ffffffff16565b61351d90919063ffffffff16565b61351d90919063ffffffff16565b90509190505600a165627a7a72305820f5ae4258e985eb214ff6daafdd2b4f22c4881af39dda336120fa267e5add8fcd0029",
  "source": "pragma solidity ^0.4.23;\n\nimport \"./UTXORedeemableToken.sol\";\n\n/* solium-disable security/no-block-members */\n\n\ncontract StakeableToken is UTXORedeemableToken {\n\n    event Mint(address indexed _address, uint _reward);\n\n    uint256 public totalBTCCirculationAtFork;\n\n    uint256 public stakedCoins;\n\n    struct StakeStruct {\n        uint256 stakeAmount;\n        uint256 stakeTime;\n        uint256 unlockTime;\n        uint256 stakedCoinsAtStart;\n    }\n\n    mapping(address => StakeStruct[]) public staked;\n\n    function compound(uint256 _principle, uint256 _periods, uint256 _interestRateTimesHundred) internal pure returns (uint256) {\n        /* Calculate compound interest */\n        return (_principle * (100 + _interestRateTimesHundred) ** _periods)/(100 ** _periods);\n    }\n\n    function startStake(uint256 _value, uint256 _unlockTime) external {\n        address staker = msg.sender;\n\n        /* Make sure staker has enough funds */\n        require(balances[staker] >= _value);\n\n        /* Check if weekly data needs to be updated */\n        storeWeekUnclaimed();\n\n        /* Remove balance from sender */\n        balances[staker] = balances[staker].sub(_value);\n        balances[address(this)] = balances[address(this)].add(_value);\n        emit Transfer(staker, address(this), _value);\n\n        /* Create Stake */\n        staked[staker].push(\n          StakeStruct(\n            uint128(_value), \n            block.timestamp, \n            _unlockTime, \n            stakedCoins\n          )\n        );\n\n        /* Add staked coins to global stake counter */\n        stakedCoins = stakedCoins.add(_value);\n    }\n\n    function calculateWeAreAllSatoshiRewards(StakeStruct stake) internal view returns (uint256 rewards) {\n        /* Calculate what week stake was opened */\n        uint256 startWeek = stake.stakeTime.sub(launchTime).div(7 days);\n\n        /* Calculate current week */\n        uint256 weeksSinceLaunch = block.timestamp.sub(launchTime).div(7 days);\n\n        /* Award 2% of unclaimed coins at end of every week */\n        for (uint256 i = startWeek; i < weeksSinceLaunch; i++) {\n            rewards = rewards.add(weekData[i].unclaimedCoins.mul(stake.stakeAmount).div(50));\n        }\n    }\n\n    function calculateViralRewards(uint256 rewards) internal view returns (uint256) {\n        /* Add bonus percentage to rewards from 0-10% based on adoption */\n        return rewards.mul(totalRedeemed).div(totalBTCCirculationAtFork).div(10);\n    }\n\n    function calculateCritMassRewards(uint256 rewards) internal view returns (uint256) {\n        /* Add bonus percentage to rewards from 0-10% based on adoption */\n        return rewards.mul(totalRedeemed).div(maximumRedeemable).div(10);\n    }\n\n    function calculateStakingRewards(StakeStruct stake) internal view returns (uint256) {\n        /* Base interest rate */\n        uint256 interestRateTimesHundred = 100;\n\n        /* Calculate Adoption Percent Scaler */\n        uint256 scaler = stake.stakedCoinsAtStart.mul(100).div(totalSupply_);\n\n        /* Adjust interest rate by scaler */\n        interestRateTimesHundred = interestRateTimesHundred.div(scaler);\n\n        /* Calculate Periods */\n        uint256 periods = block.timestamp.sub(stake.stakeTime).div(10 days);\n\n        /* Compound */\n        uint256 compoundRound = compound(stake.stakeAmount, periods, interestRateTimesHundred);\n\n        /* Calculate final staking rewards with time bonus */\n        return compoundRound.mul(periods).div(1000).add(compoundRound).sub(stake.stakeAmount);\n        \n    }\n\n    function calculateAdditionalRewards(StakeStruct stake, uint256 initRewards) internal view returns (uint256 rewards) {\n        rewards = initRewards.add(calculateWeAreAllSatoshiRewards(stake));\n        rewards = rewards\n            .add(calculateViralRewards(rewards))\n            .add(calculateCritMassRewards(rewards));\n\n        return rewards;\n    }\n\n    function getCurrentStaked(address staker) external view returns(uint256 stakes) {\n        for (uint256 i; i < staked[staker].length; i++) {\n            /* Add Stake Amount */\n            stakes = stakes.add(staked[staker][i].stakeAmount);\n            /* Check if stake has matured */\n            if (block.timestamp > staked[staker][i].unlockTime) {\n                /* Calculate Rewards */\n                uint256 stakingRewards = calculateStakingRewards(staked[staker][i]);\n                stakes = stakes.add(calculateAdditionalRewards(staked[staker][i], stakingRewards));\n            }\n        }\n\n        return stakes;\n    }\n\n    function claimStakingRewards(address staker) external {\n        /* Check if weekly data needs to be updated */\n        storeWeekUnclaimed();\n\n        for (uint256 i; i < staked[staker].length; i++) {\n            /* Check if stake has matured */\n            if (block.timestamp > staked[staker][i].unlockTime) {\n                /* Remove StakedCoins from global counter */\n                stakedCoins = stakedCoins.sub(staked[staker][i].stakeAmount);\n\n                /* Sub staked coins from contract */\n                balances[address(this)] = balances[address(this)].sub(staked[staker][i].stakeAmount);\n                \n                /* Add staked coins to staker */\n                balances[staker] = balances[staker].add(staked[staker][i].stakeAmount);\n\n                emit Transfer(address(this), staker, staked[staker][i].stakeAmount);\n\n                /* Calculate Rewards */\n                uint256 stakingRewards = calculateStakingRewards(staked[staker][i]);\n                uint256 rewards = rewards.add(calculateAdditionalRewards(staked[staker][i], stakingRewards));\n\n                /* Award staking rewards to staker */\n                balances[staker] = balances[staker].add(rewards);\n\n                /* Award rewards to origin contract */\n                balances[origin] = balances[origin].add(rewards.sub(stakingRewards));\n\n                /* Increase supply */\n                totalSupply_ = totalSupply_.add(rewards.mul(2));\n\n                /* Remove Stake */\n                delete staked[staker][i];\n\n                emit Mint(staker, rewards);\n            }\n        }\n    }\n}\n",
  "sourcePath": "/Users/tovarishfin/dev/bhx/bhx-contracts/contracts/StakeableToken.sol",
  "compiler": {
    "name": "solc",
    "version": "0.4.24+commit.e67f0147.Emscripten.clang"
  },
  "schemaVersion": "2.0.0",
  "updatedAt": "2018-06-24T15:32:31.274Z"
}