{
  "contractName": "StakeableToken",
  "abi": [
    {
      "constant": true,
      "inputs": [],
      "name": "name",
      "outputs": [
        {
          "name": "",
          "type": "string"
        }
      ],
      "payable": false,
      "stateMutability": "view",
      "type": "function"
    },
    {
      "constant": true,
      "inputs": [
        {
          "name": "_hash",
          "type": "bytes32"
        },
        {
          "name": "_v",
          "type": "uint8"
        },
        {
          "name": "_r",
          "type": "bytes32"
        },
        {
          "name": "_s",
          "type": "bytes32"
        },
        {
          "name": "_expected",
          "type": "address"
        },
        {
          "name": "_addPrefix",
          "type": "bool"
        }
      ],
      "name": "validateSignature",
      "outputs": [
        {
          "name": "",
          "type": "bool"
        }
      ],
      "payable": false,
      "stateMutability": "pure",
      "type": "function"
    },
    {
      "constant": false,
      "inputs": [
        {
          "name": "spender",
          "type": "address"
        },
        {
          "name": "value",
          "type": "uint256"
        }
      ],
      "name": "approve",
      "outputs": [
        {
          "name": "",
          "type": "bool"
        }
      ],
      "payable": false,
      "stateMutability": "nonpayable",
      "type": "function"
    },
    {
      "constant": true,
      "inputs": [],
      "name": "totalStakedCoins",
      "outputs": [
        {
          "name": "",
          "type": "uint256"
        }
      ],
      "payable": false,
      "stateMutability": "view",
      "type": "function"
    },
    {
      "constant": true,
      "inputs": [],
      "name": "totalSupply",
      "outputs": [
        {
          "name": "",
          "type": "uint256"
        }
      ],
      "payable": false,
      "stateMutability": "view",
      "type": "function"
    },
    {
      "constant": true,
      "inputs": [],
      "name": "totalStakeShares",
      "outputs": [
        {
          "name": "",
          "type": "uint256"
        }
      ],
      "payable": false,
      "stateMutability": "view",
      "type": "function"
    },
    {
      "constant": false,
      "inputs": [],
      "name": "storePeriodData",
      "outputs": [],
      "payable": false,
      "stateMutability": "nonpayable",
      "type": "function"
    },
    {
      "constant": false,
      "inputs": [
        {
          "name": "from",
          "type": "address"
        },
        {
          "name": "to",
          "type": "address"
        },
        {
          "name": "value",
          "type": "uint256"
        }
      ],
      "name": "transferFrom",
      "outputs": [
        {
          "name": "",
          "type": "bool"
        }
      ],
      "payable": false,
      "stateMutability": "nonpayable",
      "type": "function"
    },
    {
      "constant": true,
      "inputs": [],
      "name": "getCirculatingSupply",
      "outputs": [
        {
          "name": "",
          "type": "uint256"
        }
      ],
      "payable": false,
      "stateMutability": "view",
      "type": "function"
    },
    {
      "constant": true,
      "inputs": [
        {
          "name": "_satoshis",
          "type": "uint256"
        }
      ],
      "name": "getRedeemAmount",
      "outputs": [
        {
          "name": "",
          "type": "uint256"
        },
        {
          "name": "",
          "type": "uint256"
        }
      ],
      "payable": false,
      "stateMutability": "view",
      "type": "function"
    },
    {
      "constant": true,
      "inputs": [],
      "name": "decimals",
      "outputs": [
        {
          "name": "",
          "type": "uint256"
        }
      ],
      "payable": false,
      "stateMutability": "view",
      "type": "function"
    },
    {
      "constant": false,
      "inputs": [
        {
          "name": "spender",
          "type": "address"
        },
        {
          "name": "addedValue",
          "type": "uint256"
        }
      ],
      "name": "increaseAllowance",
      "outputs": [
        {
          "name": "",
          "type": "bool"
        }
      ],
      "payable": false,
      "stateMutability": "nonpayable",
      "type": "function"
    },
    {
      "constant": false,
      "inputs": [],
      "name": "storeWeeklyData",
      "outputs": [],
      "payable": false,
      "stateMutability": "nonpayable",
      "type": "function"
    },
    {
      "constant": false,
      "inputs": [
        {
          "name": "_satoshis",
          "type": "uint256"
        },
        {
          "name": "_proof",
          "type": "bytes32[]"
        },
        {
          "name": "_pubKey",
          "type": "bytes"
        },
        {
          "name": "_isCompressed",
          "type": "bool"
        },
        {
          "name": "_v",
          "type": "uint8"
        },
        {
          "name": "_r",
          "type": "bytes32"
        },
        {
          "name": "_s",
          "type": "bytes32"
        },
        {
          "name": "_referrer",
          "type": "address"
        }
      ],
      "name": "redeemUTXO",
      "outputs": [
        {
          "name": "",
          "type": "uint256"
        }
      ],
      "payable": false,
      "stateMutability": "nonpayable",
      "type": "function"
    },
    {
      "constant": true,
      "inputs": [],
      "name": "redeemedCount",
      "outputs": [
        {
          "name": "",
          "type": "uint256"
        }
      ],
      "payable": false,
      "stateMutability": "view",
      "type": "function"
    },
    {
      "constant": true,
      "inputs": [
        {
          "name": "_pubKey",
          "type": "bytes"
        }
      ],
      "name": "pubKeyToEthereumAddress",
      "outputs": [
        {
          "name": "",
          "type": "address"
        }
      ],
      "payable": false,
      "stateMutability": "pure",
      "type": "function"
    },
    {
      "constant": true,
      "inputs": [],
      "name": "rootUtxoMerkleTreeHash",
      "outputs": [
        {
          "name": "",
          "type": "bytes32"
        }
      ],
      "payable": false,
      "stateMutability": "view",
      "type": "function"
    },
    {
      "constant": true,
      "inputs": [
        {
          "name": "owner",
          "type": "address"
        }
      ],
      "name": "balanceOf",
      "outputs": [
        {
          "name": "",
          "type": "uint256"
        }
      ],
      "payable": false,
      "stateMutability": "view",
      "type": "function"
    },
    {
      "constant": true,
      "inputs": [
        {
          "name": "_merkleLeafHash",
          "type": "bytes32"
        },
        {
          "name": "_proof",
          "type": "bytes32[]"
        }
      ],
      "name": "canRedeemUtxoHash",
      "outputs": [
        {
          "name": "",
          "type": "bool"
        }
      ],
      "payable": false,
      "stateMutability": "view",
      "type": "function"
    },
    {
      "constant": true,
      "inputs": [
        {
          "name": "",
          "type": "address"
        },
        {
          "name": "",
          "type": "uint256"
        }
      ],
      "name": "staked",
      "outputs": [
        {
          "name": "amount",
          "type": "uint256"
        },
        {
          "name": "stakeShares",
          "type": "uint256"
        },
        {
          "name": "stakeTime",
          "type": "uint256"
        },
        {
          "name": "unlockTime",
          "type": "uint256"
        }
      ],
      "payable": false,
      "stateMutability": "view",
      "type": "function"
    },
    {
      "constant": true,
      "inputs": [],
      "name": "symbol",
      "outputs": [
        {
          "name": "",
          "type": "string"
        }
      ],
      "payable": false,
      "stateMutability": "view",
      "type": "function"
    },
    {
      "constant": false,
      "inputs": [
        {
          "name": "spender",
          "type": "address"
        },
        {
          "name": "subtractedValue",
          "type": "uint256"
        }
      ],
      "name": "decreaseAllowance",
      "outputs": [
        {
          "name": "",
          "type": "bool"
        }
      ],
      "payable": false,
      "stateMutability": "nonpayable",
      "type": "function"
    },
    {
      "constant": false,
      "inputs": [
        {
          "name": "to",
          "type": "address"
        },
        {
          "name": "value",
          "type": "uint256"
        }
      ],
      "name": "transfer",
      "outputs": [
        {
          "name": "",
          "type": "bool"
        }
      ],
      "payable": false,
      "stateMutability": "nonpayable",
      "type": "function"
    },
    {
      "constant": true,
      "inputs": [],
      "name": "isClaimsPeriod",
      "outputs": [
        {
          "name": "",
          "type": "bool"
        }
      ],
      "payable": false,
      "stateMutability": "view",
      "type": "function"
    },
    {
      "constant": true,
      "inputs": [
        {
          "name": "_proof",
          "type": "bytes32[]"
        },
        {
          "name": "_merkleLeafHash",
          "type": "bytes32"
        }
      ],
      "name": "verifyProof",
      "outputs": [
        {
          "name": "",
          "type": "bool"
        }
      ],
      "payable": false,
      "stateMutability": "view",
      "type": "function"
    },
    {
      "constant": true,
      "inputs": [
        {
          "name": "_addr",
          "type": "address"
        },
        {
          "name": "_pubKey",
          "type": "bytes"
        },
        {
          "name": "_v",
          "type": "uint8"
        },
        {
          "name": "_r",
          "type": "bytes32"
        },
        {
          "name": "_s",
          "type": "bytes32"
        }
      ],
      "name": "ecdsaVerify",
      "outputs": [
        {
          "name": "",
          "type": "bool"
        }
      ],
      "payable": false,
      "stateMutability": "pure",
      "type": "function"
    },
    {
      "constant": true,
      "inputs": [
        {
          "name": "_originalAddress",
          "type": "bytes20"
        },
        {
          "name": "_satoshis",
          "type": "uint256"
        },
        {
          "name": "_proof",
          "type": "bytes32[]"
        }
      ],
      "name": "canRedeemUtxo",
      "outputs": [
        {
          "name": "",
          "type": "bool"
        }
      ],
      "payable": false,
      "stateMutability": "view",
      "type": "function"
    },
    {
      "constant": true,
      "inputs": [
        {
          "name": "owner",
          "type": "address"
        },
        {
          "name": "spender",
          "type": "address"
        }
      ],
      "name": "allowance",
      "outputs": [
        {
          "name": "",
          "type": "uint256"
        }
      ],
      "payable": false,
      "stateMutability": "view",
      "type": "function"
    },
    {
      "constant": true,
      "inputs": [
        {
          "name": "_pubKey",
          "type": "bytes"
        },
        {
          "name": "_isCompressed",
          "type": "bool"
        }
      ],
      "name": "pubKeyToBitcoinAddress",
      "outputs": [
        {
          "name": "",
          "type": "bytes20"
        }
      ],
      "payable": false,
      "stateMutability": "pure",
      "type": "function"
    },
    {
      "constant": true,
      "inputs": [],
      "name": "totalRedeemed",
      "outputs": [
        {
          "name": "",
          "type": "uint256"
        }
      ],
      "payable": false,
      "stateMutability": "view",
      "type": "function"
    },
    {
      "anonymous": false,
      "inputs": [
        {
          "indexed": true,
          "name": "from",
          "type": "address"
        },
        {
          "indexed": true,
          "name": "to",
          "type": "address"
        },
        {
          "indexed": false,
          "name": "value",
          "type": "uint256"
        }
      ],
      "name": "Transfer",
      "type": "event"
    },
    {
      "anonymous": false,
      "inputs": [
        {
          "indexed": true,
          "name": "owner",
          "type": "address"
        },
        {
          "indexed": true,
          "name": "spender",
          "type": "address"
        },
        {
          "indexed": false,
          "name": "value",
          "type": "uint256"
        }
      ],
      "name": "Approval",
      "type": "event"
    },
    {
      "constant": true,
      "inputs": [
        {
          "name": "_amount",
          "type": "uint256"
        },
        {
          "name": "_stakeTime",
          "type": "uint256"
        },
        {
          "name": "_unlockTime",
          "type": "uint256"
        }
      ],
      "name": "calculateBonuses",
      "outputs": [
        {
          "name": "",
          "type": "uint256"
        }
      ],
      "payable": false,
      "stateMutability": "view",
      "type": "function"
    },
    {
      "constant": true,
      "inputs": [
        {
          "name": "_amount",
          "type": "uint256"
        },
        {
          "name": "_stakeShares",
          "type": "uint256"
        },
        {
          "name": "_stakeTime",
          "type": "uint256"
        },
        {
          "name": "_unlockTime",
          "type": "uint256"
        }
      ],
      "name": "calculatePayout",
      "outputs": [
        {
          "name": "",
          "type": "uint256"
        }
      ],
      "payable": false,
      "stateMutability": "view",
      "type": "function"
    },
    {
      "constant": false,
      "inputs": [
        {
          "name": "_satoshis",
          "type": "uint256"
        },
        {
          "name": "_periods",
          "type": "uint256"
        }
      ],
      "name": "startStake",
      "outputs": [],
      "payable": false,
      "stateMutability": "nonpayable",
      "type": "function"
    },
    {
      "constant": false,
      "inputs": [
        {
          "name": "_stakeIndex",
          "type": "uint256"
        }
      ],
      "name": "endStake",
      "outputs": [],
      "payable": false,
      "stateMutability": "nonpayable",
      "type": "function"
    }
  ],
  "bytecode": "0x60806040526000600560006101000a81548173ffffffffffffffffffffffffffffffffffffffff021916908373ffffffffffffffffffffffffffffffffffffffff1602179055506000600655600060075534801561005c57600080fd5b5061327d8061006c6000396000f3006080604052600436106101ac576000357c0100000000000000000000000000000000000000000000000000000000900463ffffffff16806306fdde03146101b15780630867c0ad14610241578063095ea7b3146102df5780630cbe28d614610344578063128bfcae146103715780631765f4bf146103a857806318160ddd146103d35780631aa024b7146103fe5780631ee752701461042957806323b872dd146104405780632b112e49146104c55780632c3ee88c146104f0578063313ce5671461053857806339509351146105635780634d3c8bc8146105c85780634ecd81b3146105df57806352aa3e6c146106fe5780635418796c1461072957806365fbbf9d146107d25780636aaf67e21461083157806370a082311461086457806381cd84b9146108bb5780638f1698161461094757806395d89b41146109bd5780639eb6f05d14610a4d578063a457c2d714610aa2578063a9059cbb14610b07578063adf71f1f14610b6c578063b80ac7df14610b9b578063ce267b5514610c27578063cfc2334e14610cf1578063dd62ed3e14610d92578063e073ef6914610e09578063f35dad4014610eb0575b600080fd5b3480156101bd57600080fd5b506101c6610edb565b6040518080602001828103825283818151815260200191508051906020019080838360005b838110156102065780820151818401526020810190506101eb565b50505050905090810190601f1680156102335780820380516001836020036101000a031916815260200191505b509250505060405180910390f35b34801561024d57600080fd5b506102c56004803603810190808035600019169060200190929190803560ff16906020019092919080356000191690602001909291908035600019169060200190929190803573ffffffffffffffffffffffffffffffffffffffff169060200190929190803515159060200190929190505050610f14565b604051808215151515815260200191505060405180910390f35b3480156102eb57600080fd5b5061032a600480360381019080803573ffffffffffffffffffffffffffffffffffffffff169060200190929190803590602001909291905050506110ff565b604051808215151515815260200191505060405180910390f35b34801561035057600080fd5b5061036f6004803603810190808035906020019092919050505061122c565b005b34801561037d57600080fd5b506103a6600480360381019080803590602001909291908035906020019092919050505061122f565b005b3480156103b457600080fd5b506103bd611453565b6040518082815260200191505060405180910390f35b3480156103df57600080fd5b506103e8611459565b6040518082815260200191505060405180910390f35b34801561040a57600080fd5b50610413611463565b6040518082815260200191505060405180910390f35b34801561043557600080fd5b5061043e611469565b005b34801561044c57600080fd5b506104ab600480360381019080803573ffffffffffffffffffffffffffffffffffffffff169060200190929190803573ffffffffffffffffffffffffffffffffffffffff169060200190929190803590602001909291905050506115b6565b604051808215151515815260200191505060405180910390f35b3480156104d157600080fd5b506104da611768565b6040518082815260200191505060405180910390f35b3480156104fc57600080fd5b5061051b6004803603810190808035906020019092919050505061178b565b604051808381526020018281526020019250505060405180910390f35b34801561054457600080fd5b5061054d6117b4565b6040518082815260200191505060405180910390f35b34801561056f57600080fd5b506105ae600480360381019080803573ffffffffffffffffffffffffffffffffffffffff169060200190929190803590602001909291905050506117b9565b604051808215151515815260200191505060405180910390f35b3480156105d457600080fd5b506105dd6119f0565b005b3480156105eb57600080fd5b506106e86004803603810190808035906020019092919080359060200190820180359060200190808060200260200160405190810160405280939291908181526020018383602002808284378201915050505050509192919290803590602001908201803590602001908080601f0160208091040260200160405190810160405280939291908181526020018383808284378201915050505050509192919290803515159060200190929190803560ff16906020019092919080356000191690602001909291908035600019169060200190929190803573ffffffffffffffffffffffffffffffffffffffff169060200190929190505050611acc565b6040518082815260200191505060405180910390f35b34801561070a57600080fd5b50610713611e64565b6040518082815260200191505060405180910390f35b34801561073557600080fd5b50610790600480360381019080803590602001908201803590602001908080601f0160208091040260200160405190810160405280939291908181526020018383808284378201915050505050509192919290505050611e6a565b604051808273ffffffffffffffffffffffffffffffffffffffff1673ffffffffffffffffffffffffffffffffffffffff16815260200191505060405180910390f35b3480156107de57600080fd5b5061081b60048036038101908080359060200190929190803590602001909291908035906020019092919080359060200190929190505050611ef0565b6040518082815260200191505060405180910390f35b34801561083d57600080fd5b50610846611fa4565b60405180826000191660001916815260200191505060405180910390f35b34801561087057600080fd5b506108a5600480360381019080803573ffffffffffffffffffffffffffffffffffffffff169060200190929190505050611faa565b6040518082815260200191505060405180910390f35b3480156108c757600080fd5b5061092d600480360381019080803560001916906020019092919080359060200190820180359060200190808060200260200160405190810160405280939291908181526020018383602002808284378201915050505050509192919290505050611ff2565b604051808215151515815260200191505060405180910390f35b34801561095357600080fd5b50610992600480360381019080803573ffffffffffffffffffffffffffffffffffffffff1690602001909291908035906020019092919050505061203d565b6040518085815260200184815260200183815260200182815260200194505050505060405180910390f35b3480156109c957600080fd5b506109d2612089565b6040518080602001828103825283818151815260200191508051906020019080838360005b83811015610a125780820151818401526020810190506109f7565b50505050905090810190601f168015610a3f5780820380516001836020036101000a031916815260200191505b509250505060405180910390f35b348015610a5957600080fd5b50610a8c6004803603810190808035906020019092919080359060200190929190803590602001909291905050506120c2565b6040518082815260200191505060405180910390f35b348015610aae57600080fd5b50610aed600480360381019080803573ffffffffffffffffffffffffffffffffffffffff16906020019092919080359060200190929190505050612101565b604051808215151515815260200191505060405180910390f35b348015610b1357600080fd5b50610b52600480360381019080803573ffffffffffffffffffffffffffffffffffffffff16906020019092919080359060200190929190505050612338565b604051808215151515815260200191505060405180910390f35b348015610b7857600080fd5b50610b8161234f565b604051808215151515815260200191505060405180910390f35b348015610ba757600080fd5b50610c0d600480360381019080803590602001908201803590602001908080602002602001604051908101604052809392919081815260200183836020028082843782019150505050505091929192908035600019169060200190929190505050612361565b604051808215151515815260200191505060405180910390f35b348015610c3357600080fd5b50610cd7600480360381019080803573ffffffffffffffffffffffffffffffffffffffff169060200190929190803590602001908201803590602001908080601f0160208091040260200160405190810160405280939291908181526020018383808284378201915050505050509192919290803560ff16906020019092919080356000191690602001909291908035600019169060200190929190505050612378565b604051808215151515815260200191505060405180910390f35b348015610cfd57600080fd5b50610d7860048036038101908080356bffffffffffffffffffffffff191690602001909291908035906020019092919080359060200190820180359060200190808060200260200160405190810160405280939291908181526020018383602002808284378201915050505050509192919290505050612497565b604051808215151515815260200191505060405180910390f35b348015610d9e57600080fd5b50610df3600480360381019080803573ffffffffffffffffffffffffffffffffffffffff169060200190929190803573ffffffffffffffffffffffffffffffffffffffff169060200190929190505050612558565b6040518082815260200191505060405180910390f35b348015610e1557600080fd5b50610e7c600480360381019080803590602001908201803590602001908080601f01602080910402602001604051908101604052809392919081815260200183838082843782019150505050505091929192908035151590602001909291905050506125df565b60405180826bffffffffffffffffffffffff19166bffffffffffffffffffffffff1916815260200191505060405180910390f35b348015610ebc57600080fd5b50610ec561299e565b6040518082815260200191505060405180910390f35b6040805190810160405280600a81526020017f426974636f696e4865780000000000000000000000000000000000000000000081525081565b6000806060831515610f2857889150611042565b6040805190810160405280601c81526020017f19457468657265756d205369676e6564204d6573736167653a0a333200000000815250905080896040516020018083805190602001908083835b602083101515610f9a5780518252602082019150602081019050602083039250610f75565b6001836020036101000a0380198251168184511680821785525050505050509050018260001916600019168152602001925050506040516020818303038152906040526040518082805190602001908083835b6020831015156110125780518252602082019150602081019050602083039250610fed565b6001836020036101000a038019825116818451168082178552505050505050905001915050604051809103902091505b8473ffffffffffffffffffffffffffffffffffffffff166001838a8a8a604051600081526020016040526040518085600019166000191681526020018460ff1660ff1681526020018360001916600019168152602001826000191660001916815260200194505050505060206040516020810390808403906000865af11580156110d0573d6000803e3d6000fd5b5050506020604051035173ffffffffffffffffffffffffffffffffffffffff1614925050509695505050505050565b60008073ffffffffffffffffffffffffffffffffffffffff168373ffffffffffffffffffffffffffffffffffffffff161415151561113c57600080fd5b81600160003373ffffffffffffffffffffffffffffffffffffffff1673ffffffffffffffffffffffffffffffffffffffff16815260200190815260200160002060008573ffffffffffffffffffffffffffffffffffffffff1673ffffffffffffffffffffffffffffffffffffffff168152602001908152602001600020819055508273ffffffffffffffffffffffffffffffffffffffff163373ffffffffffffffffffffffffffffffffffffffff167f8c5be1e5ebec7d5bd14f71427d1e84f3dd0314c0f7b2291e5b200ac8c7c3b925846040518082815260200191505060405180910390a36001905092915050565b50565b600080600061125c61124d620d2f00866129a490919063ffffffff16565b426129e290919063ffffffff16565b92508461126833611faa565b1015151561127557600080fd5b61128c6312cc0300426129e290919063ffffffff16565b831115151561129a57600080fd5b6112b0620d2f00426129e290919063ffffffff16565b83101515156112be57600080fd5b6112c66119f0565b6112ce611469565b6112f66101686112e860c8876129a490919063ffffffff16565b612a0390919063ffffffff16565b9150611330611321606461131385896129a490919063ffffffff16565b612a0390919063ffffffff16565b866129e290919063ffffffff16565b9050601060003373ffffffffffffffffffffffffffffffffffffffff1673ffffffffffffffffffffffffffffffffffffffff1681526020019081526020016000206080604051908101604052808781526020018381526020014281526020018581525090806001815401808255809150509060018203906000526020600020906004020160009091929091909150600082015181600001556020820151816001015560408201518160020155606082015181600301555050506113fe856011546129e290919063ffffffff16565b601181905550611419816012546129e290919063ffffffff16565b60128190555061144c33600560009054906101000a900473ffffffffffffffffffffffffffffffffffffffff1687612a2d565b5050505050565b60115481565b6000600254905090565b60125481565b60005b600b54611477612c46565b11156115b35761149961041661148b612c56565b612a0390919063ffffffff16565b90506114a361234f565b15611546576115436114e7600a6114d9600f546114cb600654876129a490919063ffffffff16565b612a0390919063ffffffff16565b612a0390919063ffffffff16565b611535611526600a611518600e5461150a600754896129a490919063ffffffff16565b612a0390919063ffffffff16565b612a0390919063ffffffff16565b846129e290919063ffffffff16565b6129e290919063ffffffff16565b90505b6040805190810160405280828152602001601154815250600d60006115776001600b546129e290919063ffffffff16565b81526020019081526020016000206000820151816000015560208201518160010155905050600b6000815480929190600101919050555061146c565b50565b6000600160008573ffffffffffffffffffffffffffffffffffffffff1673ffffffffffffffffffffffffffffffffffffffff16815260200190815260200160002060003373ffffffffffffffffffffffffffffffffffffffff1673ffffffffffffffffffffffffffffffffffffffff16815260200190815260200160002054821115151561164357600080fd5b6116d282600160008773ffffffffffffffffffffffffffffffffffffffff1673ffffffffffffffffffffffffffffffffffffffff16815260200190815260200160002060003373ffffffffffffffffffffffffffffffffffffffff1673ffffffffffffffffffffffffffffffffffffffff16815260200190815260200160002054612c8190919063ffffffff16565b600160008673ffffffffffffffffffffffffffffffffffffffff1673ffffffffffffffffffffffffffffffffffffffff16815260200190815260200160002060003373ffffffffffffffffffffffffffffffffffffffff1673ffffffffffffffffffffffffffffffffffffffff1681526020019081526020016000208190555061175d848484612a2d565b600190509392505050565b6000611786601154611778611459565b612c8190919063ffffffff16565b905090565b60008060008061179a85612ca2565b91506117a582612ceb565b90508181935093505050915091565b600881565b60008073ffffffffffffffffffffffffffffffffffffffff168373ffffffffffffffffffffffffffffffffffffffff16141515156117f657600080fd5b61188582600160003373ffffffffffffffffffffffffffffffffffffffff1673ffffffffffffffffffffffffffffffffffffffff16815260200190815260200160002060008673ffffffffffffffffffffffffffffffffffffffff1673ffffffffffffffffffffffffffffffffffffffff168152602001908152602001600020546129e290919063ffffffff16565b600160003373ffffffffffffffffffffffffffffffffffffffff1673ffffffffffffffffffffffffffffffffffffffff16815260200190815260200160002060008573ffffffffffffffffffffffffffffffffffffffff1673ffffffffffffffffffffffffffffffffffffffff168152602001908152602001600020819055508273ffffffffffffffffffffffffffffffffffffffff163373ffffffffffffffffffffffffffffffffffffffff167f8c5be1e5ebec7d5bd14f71427d1e84f3dd0314c0f7b2291e5b200ac8c7c3b925600160003373ffffffffffffffffffffffffffffffffffffffff1673ffffffffffffffffffffffffffffffffffffffff16815260200190815260200160002060008773ffffffffffffffffffffffffffffffffffffffff1673ffffffffffffffffffffffffffffffffffffffff168152602001908152602001600020546040518082815260200191505060405180910390a36001905092915050565b60005b600a546119fe612d53565b1115611ac957611a1b600654600f54612c8190919063ffffffff16565b90506040805190810160405280828152602001601154815250600c6000611a4e6001600a546129e290919063ffffffff16565b81526020019081526020016000206000820151816000015560208201518160010155905050611ab2600360009054906101000a900473ffffffffffffffffffffffffffffffffffffffff16611aad603284612a0390919063ffffffff16565b612d63565b600a600081548092919060010191905055506119f3565b50565b6000806000806000611adc61234f565b1515611ae757600080fd5b611af18b8b6125df565b9350838d60405160200180836bffffffffffffffffffffffff19166bffffffffffffffffffffffff19168152601401828152602001925050506040516020818303038152906040526040518082805190602001908083835b602083101515611b6e5780518252602082019150602081019050602083039250611b49565b6001836020036101000a03801982511681845116808217855250505050505090500191505060405180910390209250611ba7838d611ff2565b1515611bb257600080fd5b611bba6119f0565b611bc2611469565b611bcf338c8b8b8b612378565b1515611bda57600080fd5b600f54611bf2836006546129e290919063ffffffff16565b11151515611bff57600080fd5b611c148d6006546129e290919063ffffffff16565b600681905550600160096000856000191660001916815260200190815260200160002060006101000a81548160ff021916908315150217905550611c578d61178b565b91509150611c7733611c7283856129e290919063ffffffff16565b612d63565b611ca3600360009054906101000a900473ffffffffffffffffffffffffffffffffffffffff1682612d63565b611cb960016007546129e290919063ffffffff16565b6007819055503373ffffffffffffffffffffffffffffffffffffffff16600073ffffffffffffffffffffffffffffffffffffffff167fddf252ad1be2c89b69c2b068fc378daa952ba7f163c4a11628f55a4df523b3ef611d2284866129e290919063ffffffff16565b6040518082815260200191505060405180910390a3600360009054906101000a900473ffffffffffffffffffffffffffffffffffffffff1673ffffffffffffffffffffffffffffffffffffffff16600073ffffffffffffffffffffffffffffffffffffffff167fddf252ad1be2c89b69c2b068fc378daa952ba7f163c4a11628f55a4df523b3ef836040518082815260200191505060405180910390a3600073ffffffffffffffffffffffffffffffffffffffff168673ffffffffffffffffffffffffffffffffffffffff16141515611e3f57611dff8683612d63565b611e3e600360009054906101000a900473ffffffffffffffffffffffffffffffffffffffff16611e39601485612a0390919063ffffffff16565b612d63565b5b611e5281836129e290919063ffffffff16565b94505050505098975050505050505050565b60075481565b600073ffffffffffffffffffffffffffffffffffffffff826040518082805190602001908083835b602083101515611eb75780518252602082019150602081019050602083039250611e92565b6001836020036101000a038019825116818451168082178552505050505050905001915050604051809103902060019004169050919050565b60008060008060008060009450611f0688612ea1565b9350611f1187612ea1565b92508391505b82821015611f9457611f70600d600084815260200190815260200160002060010154611f628b600d6000878152602001908152602001600020600001546129a490919063ffffffff16565b612a0390919063ffffffff16565b9050611f8581866129e290919063ffffffff16565b94508180600101925050611f17565b8495505050505050949350505050565b60085481565b60008060008373ffffffffffffffffffffffffffffffffffffffff1673ffffffffffffffffffffffffffffffffffffffff168152602001908152602001600020549050919050565b600080151560096000856000191660001916815260200190815260200160002060009054906101000a900460ff16151514801561203557506120348284612361565b5b905092915050565b60106020528160005260406000208181548110151561205857fe5b9060005260206000209060040201600091509150508060000154908060010154908060020154908060030154905084565b6040805190810160405280600381526020017f424858000000000000000000000000000000000000000000000000000000000081525081565b600080600090506120d161234f565b156120f6576120f36120e4868686612ed4565b826129e290919063ffffffff16565b90505b809150509392505050565b60008073ffffffffffffffffffffffffffffffffffffffff168373ffffffffffffffffffffffffffffffffffffffff161415151561213e57600080fd5b6121cd82600160003373ffffffffffffffffffffffffffffffffffffffff1673ffffffffffffffffffffffffffffffffffffffff16815260200190815260200160002060008673ffffffffffffffffffffffffffffffffffffffff1673ffffffffffffffffffffffffffffffffffffffff16815260200190815260200160002054612c8190919063ffffffff16565b600160003373ffffffffffffffffffffffffffffffffffffffff1673ffffffffffffffffffffffffffffffffffffffff16815260200190815260200160002060008573ffffffffffffffffffffffffffffffffffffffff1673ffffffffffffffffffffffffffffffffffffffff168152602001908152602001600020819055508273ffffffffffffffffffffffffffffffffffffffff163373ffffffffffffffffffffffffffffffffffffffff167f8c5be1e5ebec7d5bd14f71427d1e84f3dd0314c0f7b2291e5b200ac8c7c3b925600160003373ffffffffffffffffffffffffffffffffffffffff1673ffffffffffffffffffffffffffffffffffffffff16815260200190815260200160002060008773ffffffffffffffffffffffffffffffffffffffff1673ffffffffffffffffffffffffffffffffffffffff168152602001908152602001600020546040518082815260200191505060405180910390a36001905092915050565b6000612345338484612a2d565b6001905092915050565b6000603261235b612d53565b10905090565b60006123708360085484612f9d565b905092915050565b600061248c600287604051602001808273ffffffffffffffffffffffffffffffffffffffff1673ffffffffffffffffffffffffffffffffffffffff166c010000000000000000000000000281526014019150506040516020818303038152906040526040518082805190602001908083835b60208310151561240f57805182526020820191506020810190506020830392506123ea565b6001836020036101000a0380198251168184511680821785525050505050509050019150506020604051808303816000865af1158015612453573d6000803e3d6000fd5b5050506040513d602081101561246857600080fd5b81019080805190602001909291905050508585856124858a611e6a565b6000610f14565b905095945050505050565b600080848460405160200180836bffffffffffffffffffffffff19166bffffffffffffffffffffffff19168152601401828152602001925050506040516020818303038152906040526040518082805190602001908083835b60208310151561251557805182526020820191506020810190506020830392506124f0565b6001836020036101000a0380198251168184511680821785525050505050509050019150506040518091039020905061254e8184611ff2565b9150509392505050565b6000600160008473ffffffffffffffffffffffffffffffffffffffff1673ffffffffffffffffffffffffffffffffffffffff16815260200190815260200160002060008373ffffffffffffffffffffffffffffffffffffffff1673ffffffffffffffffffffffffffffffffffffffff16815260200190815260200160002054905092915050565b6000806000806125f0866000613140565b600190049250612601866020613140565b60019004915084156127dd57600060028381151561261b57fe5b061461262857600361262b565b60025b9050600360028285604051602001808360ff1660ff167f0100000000000000000000000000000000000000000000000000000000000000028152600101828152602001925050506040516020818303038152906040526040518082805190602001908083835b6020831015156126b65780518252602082019150602081019050602083039250612691565b6001836020036101000a0380198251168184511680821785525050505050509050019150506020604051808303816000865af11580156126fa573d6000803e3d6000fd5b5050506040513d602081101561270f57600080fd5b81019080805190602001909291905050506040516020018082600019166000191681526020019150506040516020818303038152906040526040518082805190602001908083835b60208310151561277c5780518252602082019150602081019050602083039250612757565b6001836020036101000a0380198251168184511680821785525050505050509050019150506020604051808303816000865af11580156127c0573d6000803e3d6000fd5b505050604051516c01000000000000000000000000029350612995565b6004905060036002828585604051602001808460ff1660ff167f010000000000000000000000000000000000000000000000000000000000000002815260010183815260200182815260200193505050506040516020818303038152906040526040518082805190602001908083835b602083101515612872578051825260208201915060208101905060208303925061284d565b6001836020036101000a0380198251168184511680821785525050505050509050019150506020604051808303816000865af11580156128b6573d6000803e3d6000fd5b5050506040513d60208110156128cb57600080fd5b81019080805190602001909291905050506040516020018082600019166000191681526020019150506040516020818303038152906040526040518082805190602001908083835b6020831015156129385780518252602082019150602081019050602083039250612913565b6001836020036101000a0380198251168184511680821785525050505050509050019150506020604051808303816000865af115801561297c573d6000803e3d6000fd5b505050604051516c010000000000000000000000000293505b50505092915050565b60065481565b60008060008414156129b957600091506129db565b82840290508284828115156129ca57fe5b041415156129d757600080fd5b8091505b5092915050565b60008082840190508381101515156129f957600080fd5b8091505092915050565b600080600083111515612a1557600080fd5b8284811515612a2057fe5b0490508091505092915050565b6000808473ffffffffffffffffffffffffffffffffffffffff1673ffffffffffffffffffffffffffffffffffffffff168152602001908152602001600020548111151515612a7a57600080fd5b600073ffffffffffffffffffffffffffffffffffffffff168273ffffffffffffffffffffffffffffffffffffffff1614151515612ab657600080fd5b612b07816000808673ffffffffffffffffffffffffffffffffffffffff1673ffffffffffffffffffffffffffffffffffffffff16815260200190815260200160002054612c8190919063ffffffff16565b6000808573ffffffffffffffffffffffffffffffffffffffff1673ffffffffffffffffffffffffffffffffffffffff16815260200190815260200160002081905550612b9a816000808573ffffffffffffffffffffffffffffffffffffffff1673ffffffffffffffffffffffffffffffffffffffff168152602001908152602001600020546129e290919063ffffffff16565b6000808473ffffffffffffffffffffffffffffffffffffffff1673ffffffffffffffffffffffffffffffffffffffff168152602001908152602001600020819055508173ffffffffffffffffffffffffffffffffffffffff168373ffffffffffffffffffffffffffffffffffffffff167fddf252ad1be2c89b69c2b068fc378daa952ba7f163c4a11628f55a4df523b3ef836040518082815260200191505060405180910390a3505050565b6000612c5142612ea1565b905090565b600080612c61611459565b9050600f54612c6e611459565b1015612c7a57600f5490505b8091505090565b600080838311151515612c9357600080fd5b82840390508091505092915050565b6000612ce46064612cd6612cc76002612cb9612d53565b6129a490919063ffffffff16565b856129a490919063ffffffff16565b612a0390919063ffffffff16565b9050919050565b600080600060649150612d21612d126002612d04612d53565b6129a490919063ffffffff16565b83612c8190919063ffffffff16565b9050612d4a6103e8612d3c83876129a490919063ffffffff16565b612a0390919063ffffffff16565b92505050919050565b6000612d5e4261321e565b905090565b60008273ffffffffffffffffffffffffffffffffffffffff1614151515612d8957600080fd5b612d9e816002546129e290919063ffffffff16565b600281905550612df5816000808573ffffffffffffffffffffffffffffffffffffffff1673ffffffffffffffffffffffffffffffffffffffff168152602001908152602001600020546129e290919063ffffffff16565b6000808473ffffffffffffffffffffffffffffffffffffffff1673ffffffffffffffffffffffffffffffffffffffff168152602001908152602001600020819055508173ffffffffffffffffffffffffffffffffffffffff16600073ffffffffffffffffffffffffffffffffffffffff167fddf252ad1be2c89b69c2b068fc378daa952ba7f163c4a11628f55a4df523b3ef836040518082815260200191505060405180910390a35050565b6000612ecd620d2f00612ebf60045485612c8190919063ffffffff16565b612a0390919063ffffffff16565b9050919050565b60008060008060008060008060009650612eed8a61321e565b955060008614612efd5785612f00565b60015b9450612f0b8961321e565b935060328411612f1b5783612f1e565b60325b92508491505b82821015612f8c57612f686032612f5a8d600c6000878152602001908152602001600020600001546129a490919063ffffffff16565b612a0390919063ffffffff16565b9050612f7d81886129e290919063ffffffff16565b96508180600101925050612f24565b869750505050505050509392505050565b600080600080849250600091505b8651821015613129578682815181101515612fc257fe5b90602001906020020151905080600019168360001916101561307f5782816040516020018083600019166000191681526020018260001916600019168152602001925050506040516020818303038152906040526040518082805190602001908083835b60208310151561304b5780518252602082019150602081019050602083039250613026565b6001836020036101000a0380198251168184511680821785525050505050509050019150506040518091039020925061311c565b80836040516020018083600019166000191681526020018260001916600019168152602001925050506040516020818303038152906040526040518082805190602001908083835b6020831015156130ec57805182526020820191506020810190506020830392506130c7565b6001836020036101000a038019825116818451168082178552505050505050905001915050604051809103902092505b8180600101925050612fab565b856000191683600019161493505050509392505050565b60008060008090505b602081101561321357600881028585830181518110151561316657fe5b9060200101517f010000000000000000000000000000000000000000000000000000000000000090047f0100000000000000000000000000000000000000000000000000000000000000027effffffffffffffffffffffffffffffffffffffffffffffffffffffffffffff19167fff0000000000000000000000000000000000000000000000000000000000000060010216600019169060020a9004821891508080600101915050613149565b819250505092915050565b600061324a62093a8061323c60045485612c8190919063ffffffff16565b612a0390919063ffffffff16565b90509190505600a165627a7a72305820f1c90a569ac1dc548b05f168cebd74802d8c9ce8fcb40fe1df2cc9cb47e283750029",
  "source": "pragma solidity ^0.4.24;\n\nimport \"./UTXORedeemableToken.sol\";\nimport \"../node_modules/openzeppelin-solidity/contracts/math/SafeMath.sol\";\n\ncontract StakeableToken is UTXORedeemableToken {\n  using SafeMath for uint256;\n\n  /**\n   * @dev Calculates weareallsatoshi bonus for a given stake\n   * @param _amount param of stake to calculate bonuses for\n   * @param _stakeTime param of stake to calculate bonuses for\n   * @param _unlockTime param of stake to calculate bonuses for\n   * @return bonus amount\n   */\n  function calculateWeAreAllSatoshiRewards(\n    uint256 _amount,\n    uint256 _stakeTime,\n    uint256 _unlockTime\n  ) private view returns (uint256) {\n    uint256 _bonus = 0;\n\n    /* Calculate what week stake was opened */\n    uint256 _startWeekCandidate = timestampToWeeks(_stakeTime);\n\n    /* Bonuses are not deducted nor given before end of first week of contract launching */\n    uint256 _startWeek = _startWeekCandidate == 0 ? 1 : _startWeekCandidate;\n\n    /* Calculate last week of stake */\n    uint256 _endWeek = timestampToWeeks(_unlockTime);\n\n    uint256 _rewardableEndWeek = _endWeek > 50 ? 50 : _endWeek;\n\n    /* Award 2% of unclaimed coins at end of every week - We intentionally overshoot to compensate for reduction from late claim scaling */\n    for (uint256 _i = _startWeek; _i < _rewardableEndWeek; _i++) {\n      /* Calculate what proportion of unclaimed coins stake is entitled to, and calculate 2% of it (div 50) */\n      uint256 _satoshiRewardWeek = weeklyData[_i].unclaimedCoins.mul(_amount).div(50);\n\n      /* Add to tally */\n      _bonus = _bonus.add(_satoshiRewardWeek);\n    }\n\n    return _bonus;\n  }\n  \n  /**\n   * @dev PUBLIC FACING: Calculates total bonuses for a given stake\n   * @param _amount param of stake to calculate bonuses for\n   * @param _stakeTime param of stake to calculate bonuses for\n   * @param _unlockTime param of stake to calculate bonuses for\n   * @return bonus amount\n   */\n  function calculateBonuses(\n    uint256 _amount,\n    uint256 _stakeTime,\n    uint256 _unlockTime\n  ) public view returns (uint256) {\n    uint256 _bonus = 0;\n    if (isClaimsPeriod()) {\n      _bonus = _bonus.add(calculateWeAreAllSatoshiRewards(\n        _amount,\n        _stakeTime,\n        _unlockTime\n      ));\n    }\n    return _bonus;\n  }\n\n  /**\n   * @dev PUBLIC FACING: Calculates stake payouts for a given stake\n   * @param _amount param of stake to calculate bonuses for\n   * @param _stakeShares param of stake to calculate bonuses for\n   * @param _stakeTime param of stake to calculate bonuses for\n   * @param _unlockTime param of stake to calculate bonuses for\n   * @return payout amount\n   */\n  function calculatePayout(\n    uint256 _amount,\n    uint256 _stakeShares,\n    uint256 _stakeTime,\n    uint256 _unlockTime\n  ) public view returns (uint256) {\n    uint256 _payout = 0;\n\n    /* Calculate what period stake was opened */\n    uint256 _startPeriod = timestampToPeriods(_stakeTime);\n\n    /* Calculate what period stake was closed */\n    uint256 _endPeriod = timestampToPeriods(_unlockTime);\n\n    /* Loop though each period and tally payout */\n    for (uint256 _i = _startPeriod; _i < _endPeriod; _i++) {\n      /* Calculate payout from period */\n      uint256 _periodPayout = periodData[_i].payoutRoundAmount.mul(_stakeShares).div(periodData[_i].totalStaked);\n\n      /* Add to tally */\n      _payout = _payout.add(_periodPayout);\n    }\n\n    return _payout;\n  }\n\n  /**\n   * @dev PUBLIC FACING: Open a stake\n   * @param _satoshis Amount of satoshi to stake\n   * @param _periods Number of 10 day periods to stake\n   */\n  function startStake(\n    uint256 _satoshis,\n    uint256 _periods\n  ) external {\n    /* Calculate Unlock time */\n    uint256 _unlockTime = block.timestamp.add(_periods.mul(oneInterestPeriod));\n\n    /* Make sure staker has enough funds */\n    require(balanceOf(msg.sender) >= _satoshis);\n    \n    /* ensure that unlock time is not more than approx 10 years */\n    require(_unlockTime <= block.timestamp.add(maxStakingTime));\n\n    /* ensure that unlock time is more than 10 days */\n    require(_unlockTime >= block.timestamp.add(oneInterestPeriod));\n\n    /* Check if log data needs to be updated */\n    storeWeeklyData();\n    storePeriodData();\n\n    /* Calculate stake shares */\n    uint256 _sharesModifier = _periods.mul(200).div(360); // 0.55% bonus shares for each extra period staked\n    uint256 _stakeShares = _satoshis.add(_satoshis.mul(_sharesModifier).div(100));\n\n    /* Create Stake */\n    staked[msg.sender].push(\n      StakeStruct(\n        _satoshis,\n        _stakeShares,\n        block.timestamp,\n        _unlockTime\n      )\n    );\n\n    /* Add staked coins to global stake counter */\n    totalStakedCoins = totalStakedCoins.add(_satoshis);\n\n    /* Add staked shares to global stake counter */\n    totalStakeShares = totalStakeShares.add(_stakeShares);\n\n    /* Move coins to staking address to store */\n    _transfer(msg.sender, stakingAddress, _satoshis);\n  }\n\n  /**\n   * @dev PUBLIC FACING: Closes a stake\n   * @param _stakeIndex Index of stake to close\n   */\n  function endStake(\n    uint256 _stakeIndex\n  ) external {\n\n  }\n}\n",
  "sourcePath": "/Users/mesquka/Git/Bitcoin Hex/contract/contracts/StakeableToken.sol",
  "compiler": {
    "name": "solc",
    "version": "0.4.24+commit.e67f0147.Emscripten.clang"
  },
  "schemaVersion": "2.0.1",
  "updatedAt": "2018-11-03T05:02:49.226Z"
}