{
  "contractName": "StakeableToken",
  "abi": [
    {
      "constant": true,
      "inputs": [
        {
          "name": "_hash",
          "type": "bytes32"
        },
        {
          "name": "_v",
          "type": "uint8"
        },
        {
          "name": "_r",
          "type": "bytes32"
        },
        {
          "name": "_s",
          "type": "bytes32"
        },
        {
          "name": "_expected",
          "type": "address"
        },
        {
          "name": "_addPrefix",
          "type": "bool"
        }
      ],
      "name": "validateSignature",
      "outputs": [
        {
          "name": "",
          "type": "bool"
        }
      ],
      "payable": false,
      "stateMutability": "pure",
      "type": "function"
    },
    {
      "constant": true,
      "inputs": [],
      "name": "maximumRedeemable",
      "outputs": [
        {
          "name": "",
          "type": "uint256"
        }
      ],
      "payable": false,
      "stateMutability": "view",
      "type": "function"
    },
    {
      "constant": false,
      "inputs": [
        {
          "name": "_spender",
          "type": "address"
        },
        {
          "name": "_value",
          "type": "uint256"
        }
      ],
      "name": "approve",
      "outputs": [
        {
          "name": "",
          "type": "bool"
        }
      ],
      "payable": false,
      "stateMutability": "nonpayable",
      "type": "function"
    },
    {
      "constant": true,
      "inputs": [],
      "name": "interestRatePercent",
      "outputs": [
        {
          "name": "",
          "type": "uint256"
        }
      ],
      "payable": false,
      "stateMutability": "view",
      "type": "function"
    },
    {
      "constant": true,
      "inputs": [],
      "name": "totalStakedCoins",
      "outputs": [
        {
          "name": "",
          "type": "uint256"
        }
      ],
      "payable": false,
      "stateMutability": "view",
      "type": "function"
    },
    {
      "constant": true,
      "inputs": [],
      "name": "totalSupply",
      "outputs": [
        {
          "name": "",
          "type": "uint256"
        }
      ],
      "payable": false,
      "stateMutability": "view",
      "type": "function"
    },
    {
      "constant": false,
      "inputs": [
        {
          "name": "_from",
          "type": "address"
        },
        {
          "name": "_to",
          "type": "address"
        },
        {
          "name": "_value",
          "type": "uint256"
        }
      ],
      "name": "transferFrom",
      "outputs": [
        {
          "name": "",
          "type": "bool"
        }
      ],
      "payable": false,
      "stateMutability": "nonpayable",
      "type": "function"
    },
    {
      "constant": true,
      "inputs": [
        {
          "name": "_satoshis",
          "type": "uint256"
        }
      ],
      "name": "getRedeemAmount",
      "outputs": [
        {
          "name": "",
          "type": "uint256"
        }
      ],
      "payable": false,
      "stateMutability": "view",
      "type": "function"
    },
    {
      "constant": true,
      "inputs": [
        {
          "name": "",
          "type": "uint256"
        }
      ],
      "name": "unclaimedCoinsByWeek",
      "outputs": [
        {
          "name": "",
          "type": "uint256"
        }
      ],
      "payable": false,
      "stateMutability": "view",
      "type": "function"
    },
    {
      "constant": true,
      "inputs": [
        {
          "name": "_pubKey",
          "type": "bytes"
        }
      ],
      "name": "pubKeyToEthereumAddress",
      "outputs": [
        {
          "name": "",
          "type": "address"
        }
      ],
      "payable": false,
      "stateMutability": "pure",
      "type": "function"
    },
    {
      "constant": false,
      "inputs": [
        {
          "name": "_spender",
          "type": "address"
        },
        {
          "name": "_subtractedValue",
          "type": "uint256"
        }
      ],
      "name": "decreaseApproval",
      "outputs": [
        {
          "name": "",
          "type": "bool"
        }
      ],
      "payable": false,
      "stateMutability": "nonpayable",
      "type": "function"
    },
    {
      "constant": true,
      "inputs": [
        {
          "name": "",
          "type": "bytes32"
        }
      ],
      "name": "redeemedUTXOs",
      "outputs": [
        {
          "name": "",
          "type": "bool"
        }
      ],
      "payable": false,
      "stateMutability": "view",
      "type": "function"
    },
    {
      "constant": true,
      "inputs": [],
      "name": "rootUtxoMerkleTreeHash",
      "outputs": [
        {
          "name": "",
          "type": "bytes32"
        }
      ],
      "payable": false,
      "stateMutability": "view",
      "type": "function"
    },
    {
      "constant": true,
      "inputs": [
        {
          "name": "_owner",
          "type": "address"
        }
      ],
      "name": "balanceOf",
      "outputs": [
        {
          "name": "",
          "type": "uint256"
        }
      ],
      "payable": false,
      "stateMutability": "view",
      "type": "function"
    },
    {
      "constant": false,
      "inputs": [
        {
          "name": "_satoshis",
          "type": "uint256"
        },
        {
          "name": "_proof",
          "type": "bytes32[]"
        },
        {
          "name": "_pubKey",
          "type": "bytes"
        },
        {
          "name": "_isCompressed",
          "type": "bool"
        },
        {
          "name": "_v",
          "type": "uint8"
        },
        {
          "name": "_r",
          "type": "bytes32"
        },
        {
          "name": "_s",
          "type": "bytes32"
        }
      ],
      "name": "redeemUtxo",
      "outputs": [
        {
          "name": "_tokensRedeemed",
          "type": "uint256"
        }
      ],
      "payable": false,
      "stateMutability": "nonpayable",
      "type": "function"
    },
    {
      "constant": true,
      "inputs": [],
      "name": "launchTime",
      "outputs": [
        {
          "name": "",
          "type": "uint256"
        }
      ],
      "payable": false,
      "stateMutability": "view",
      "type": "function"
    },
    {
      "constant": true,
      "inputs": [
        {
          "name": "_merkleLeafHash",
          "type": "bytes32"
        },
        {
          "name": "_proof",
          "type": "bytes32[]"
        }
      ],
      "name": "canRedeemUtxoHash",
      "outputs": [
        {
          "name": "",
          "type": "bool"
        }
      ],
      "payable": false,
      "stateMutability": "view",
      "type": "function"
    },
    {
      "constant": true,
      "inputs": [],
      "name": "totalBtcCirculationAtFork",
      "outputs": [
        {
          "name": "",
          "type": "uint256"
        }
      ],
      "payable": false,
      "stateMutability": "view",
      "type": "function"
    },
    {
      "constant": true,
      "inputs": [
        {
          "name": "",
          "type": "address"
        },
        {
          "name": "",
          "type": "uint256"
        }
      ],
      "name": "staked",
      "outputs": [
        {
          "name": "stakeAmount",
          "type": "uint256"
        },
        {
          "name": "stakeTime",
          "type": "uint256"
        },
        {
          "name": "unlockTime",
          "type": "uint256"
        },
        {
          "name": "totalStakedCoinsAtStart",
          "type": "uint256"
        }
      ],
      "payable": false,
      "stateMutability": "view",
      "type": "function"
    },
    {
      "constant": false,
      "inputs": [],
      "name": "storeWeekUnclaimed",
      "outputs": [],
      "payable": false,
      "stateMutability": "nonpayable",
      "type": "function"
    },
    {
      "constant": true,
      "inputs": [],
      "name": "origin",
      "outputs": [
        {
          "name": "",
          "type": "address"
        }
      ],
      "payable": false,
      "stateMutability": "view",
      "type": "function"
    },
    {
      "constant": true,
      "inputs": [],
      "name": "lastUpdatedWeek",
      "outputs": [
        {
          "name": "",
          "type": "uint256"
        }
      ],
      "payable": false,
      "stateMutability": "view",
      "type": "function"
    },
    {
      "constant": false,
      "inputs": [
        {
          "name": "_to",
          "type": "address"
        },
        {
          "name": "_value",
          "type": "uint256"
        }
      ],
      "name": "transfer",
      "outputs": [
        {
          "name": "",
          "type": "bool"
        }
      ],
      "payable": false,
      "stateMutability": "nonpayable",
      "type": "function"
    },
    {
      "constant": false,
      "inputs": [
        {
          "name": "_satoshis",
          "type": "uint256"
        },
        {
          "name": "_proof",
          "type": "bytes32[]"
        },
        {
          "name": "_pubKey",
          "type": "bytes"
        },
        {
          "name": "_isCompressed",
          "type": "bool"
        },
        {
          "name": "_v",
          "type": "uint8"
        },
        {
          "name": "_r",
          "type": "bytes32"
        },
        {
          "name": "_s",
          "type": "bytes32"
        },
        {
          "name": "_referrer",
          "type": "address"
        }
      ],
      "name": "redeemReferredUtxo",
      "outputs": [
        {
          "name": "_tokensRedeemed",
          "type": "uint256"
        }
      ],
      "payable": false,
      "stateMutability": "nonpayable",
      "type": "function"
    },
    {
      "constant": true,
      "inputs": [
        {
          "name": "_proof",
          "type": "bytes32[]"
        },
        {
          "name": "_merkleLeafHash",
          "type": "bytes32"
        }
      ],
      "name": "verifyProof",
      "outputs": [
        {
          "name": "",
          "type": "bool"
        }
      ],
      "payable": false,
      "stateMutability": "view",
      "type": "function"
    },
    {
      "constant": true,
      "inputs": [
        {
          "name": "_addr",
          "type": "address"
        },
        {
          "name": "_pubKey",
          "type": "bytes"
        },
        {
          "name": "_v",
          "type": "uint8"
        },
        {
          "name": "_r",
          "type": "bytes32"
        },
        {
          "name": "_s",
          "type": "bytes32"
        }
      ],
      "name": "ecdsaVerify",
      "outputs": [
        {
          "name": "",
          "type": "bool"
        }
      ],
      "payable": false,
      "stateMutability": "pure",
      "type": "function"
    },
    {
      "constant": true,
      "inputs": [
        {
          "name": "_originalAddress",
          "type": "bytes20"
        },
        {
          "name": "_satoshis",
          "type": "uint256"
        },
        {
          "name": "_proof",
          "type": "bytes32[]"
        }
      ],
      "name": "canRedeemUtxo",
      "outputs": [
        {
          "name": "",
          "type": "bool"
        }
      ],
      "payable": false,
      "stateMutability": "view",
      "type": "function"
    },
    {
      "constant": false,
      "inputs": [
        {
          "name": "_spender",
          "type": "address"
        },
        {
          "name": "_addedValue",
          "type": "uint256"
        }
      ],
      "name": "increaseApproval",
      "outputs": [
        {
          "name": "",
          "type": "bool"
        }
      ],
      "payable": false,
      "stateMutability": "nonpayable",
      "type": "function"
    },
    {
      "constant": true,
      "inputs": [
        {
          "name": "_owner",
          "type": "address"
        },
        {
          "name": "_spender",
          "type": "address"
        }
      ],
      "name": "allowance",
      "outputs": [
        {
          "name": "",
          "type": "uint256"
        }
      ],
      "payable": false,
      "stateMutability": "view",
      "type": "function"
    },
    {
      "constant": true,
      "inputs": [
        {
          "name": "_pubKey",
          "type": "bytes"
        },
        {
          "name": "_isCompressed",
          "type": "bool"
        }
      ],
      "name": "pubKeyToBitcoinAddress",
      "outputs": [
        {
          "name": "",
          "type": "bytes20"
        }
      ],
      "payable": false,
      "stateMutability": "pure",
      "type": "function"
    },
    {
      "constant": true,
      "inputs": [],
      "name": "totalRedeemed",
      "outputs": [
        {
          "name": "",
          "type": "uint256"
        }
      ],
      "payable": false,
      "stateMutability": "view",
      "type": "function"
    },
    {
      "anonymous": false,
      "inputs": [
        {
          "indexed": true,
          "name": "_address",
          "type": "address"
        },
        {
          "indexed": false,
          "name": "_reward",
          "type": "uint256"
        }
      ],
      "name": "Mint",
      "type": "event"
    },
    {
      "anonymous": false,
      "inputs": [
        {
          "indexed": false,
          "name": "test1",
          "type": "uint256"
        }
      ],
      "name": "Test",
      "type": "event"
    },
    {
      "anonymous": false,
      "inputs": [
        {
          "indexed": true,
          "name": "owner",
          "type": "address"
        },
        {
          "indexed": true,
          "name": "spender",
          "type": "address"
        },
        {
          "indexed": false,
          "name": "value",
          "type": "uint256"
        }
      ],
      "name": "Approval",
      "type": "event"
    },
    {
      "anonymous": false,
      "inputs": [
        {
          "indexed": true,
          "name": "from",
          "type": "address"
        },
        {
          "indexed": true,
          "name": "to",
          "type": "address"
        },
        {
          "indexed": false,
          "name": "value",
          "type": "uint256"
        }
      ],
      "name": "Transfer",
      "type": "event"
    },
    {
      "constant": false,
      "inputs": [
        {
          "name": "_principle",
          "type": "uint256"
        },
        {
          "name": "_periods",
          "type": "uint256"
        },
        {
          "name": "_rate",
          "type": "uint256"
        }
      ],
      "name": "compound",
      "outputs": [
        {
          "name": "",
          "type": "uint256"
        }
      ],
      "payable": false,
      "stateMutability": "nonpayable",
      "type": "function"
    },
    {
      "constant": true,
      "inputs": [
        {
          "name": "_staker",
          "type": "address"
        },
        {
          "name": "_stakeIndex",
          "type": "uint256"
        }
      ],
      "name": "calculateWeAreAllSatoshiRewards",
      "outputs": [
        {
          "name": "",
          "type": "uint256"
        }
      ],
      "payable": false,
      "stateMutability": "view",
      "type": "function"
    },
    {
      "constant": true,
      "inputs": [
        {
          "name": "_rewards",
          "type": "uint256"
        }
      ],
      "name": "calculateViralRewards",
      "outputs": [
        {
          "name": "",
          "type": "uint256"
        }
      ],
      "payable": false,
      "stateMutability": "view",
      "type": "function"
    },
    {
      "constant": true,
      "inputs": [
        {
          "name": "_rewards",
          "type": "uint256"
        }
      ],
      "name": "calculateCritMassRewards",
      "outputs": [
        {
          "name": "",
          "type": "uint256"
        }
      ],
      "payable": false,
      "stateMutability": "view",
      "type": "function"
    },
    {
      "constant": true,
      "inputs": [
        {
          "name": "_staker",
          "type": "address"
        },
        {
          "name": "_stakeIndex",
          "type": "uint256"
        },
        {
          "name": "_initRewards",
          "type": "uint256"
        }
      ],
      "name": "calculateAdditionalRewards",
      "outputs": [
        {
          "name": "",
          "type": "uint256"
        }
      ],
      "payable": false,
      "stateMutability": "view",
      "type": "function"
    },
    {
      "constant": true,
      "inputs": [
        {
          "name": "_staker",
          "type": "address"
        },
        {
          "name": "_stakeIndex",
          "type": "uint256"
        }
      ],
      "name": "calculateStakingRewards",
      "outputs": [
        {
          "name": "",
          "type": "uint256"
        }
      ],
      "payable": false,
      "stateMutability": "view",
      "type": "function"
    },
    {
      "constant": true,
      "inputs": [
        {
          "name": "_staker",
          "type": "address"
        },
        {
          "name": "_stakeIndex",
          "type": "uint256"
        }
      ],
      "name": "getStakedEntry",
      "outputs": [
        {
          "name": "",
          "type": "uint256"
        }
      ],
      "payable": false,
      "stateMutability": "view",
      "type": "function"
    },
    {
      "constant": true,
      "inputs": [
        {
          "name": "_staker",
          "type": "address"
        },
        {
          "name": "_startIndex",
          "type": "uint256"
        },
        {
          "name": "_endIndex",
          "type": "uint256"
        }
      ],
      "name": "getCurrentStakedAtIndexes",
      "outputs": [
        {
          "name": "",
          "type": "uint256"
        }
      ],
      "payable": false,
      "stateMutability": "view",
      "type": "function"
    },
    {
      "constant": true,
      "inputs": [
        {
          "name": "_staker",
          "type": "address"
        }
      ],
      "name": "getCurrentStaked",
      "outputs": [
        {
          "name": "",
          "type": "uint256"
        }
      ],
      "payable": false,
      "stateMutability": "view",
      "type": "function"
    },
    {
      "constant": false,
      "inputs": [
        {
          "name": "_value",
          "type": "uint256"
        },
        {
          "name": "_unlockTime",
          "type": "uint256"
        }
      ],
      "name": "startStake",
      "outputs": [
        {
          "name": "",
          "type": "bool"
        }
      ],
      "payable": false,
      "stateMutability": "nonpayable",
      "type": "function"
    },
    {
      "constant": false,
      "inputs": [
        {
          "name": "_staker",
          "type": "address"
        },
        {
          "name": "_stakeIndex",
          "type": "uint256"
        }
      ],
      "name": "claimSingleStakingReward",
      "outputs": [
        {
          "name": "",
          "type": "bool"
        }
      ],
      "payable": false,
      "stateMutability": "nonpayable",
      "type": "function"
    },
    {
      "constant": false,
      "inputs": [
        {
          "name": "_staker",
          "type": "address"
        },
        {
          "name": "_startIndex",
          "type": "uint256"
        },
        {
          "name": "_endIndex",
          "type": "uint256"
        }
      ],
      "name": "claimMultipleStakingRewards",
      "outputs": [
        {
          "name": "",
          "type": "bool"
        }
      ],
      "payable": false,
      "stateMutability": "nonpayable",
      "type": "function"
    }
  ],
  "bytecode": "0x60806040526000600555600060095534801561001a57600080fd5b506145d88061002a6000396000f30060806040526004361061020f576000357c0100000000000000000000000000000000000000000000000000000000900463ffffffff1680630867c0ad1461021457806308b4312b146102b2578063095ea7b3146102dd578063128bfcae1461034257806316043f5d146103915780631765f4bf146103bc57806318160ddd146103e7578063229cfc321461041257806323b872dd146104535780632c3ee88c146104d857806330fd546e14610519578063443de10c1461055a5780635418796c146105b1578063661884631461065a578063687cf4a4146106bf5780636aaf67e2146107085780636e20f0a51461073b57806370a08231146107a6578063753bf8cd146107fd5780637555419b146108fc578063790ca4131461095d57806381437de81461098857806381cd84b9146109ed5780638d854c3414610a795780638f16981614610aa45780639283032c14610b1a578063938b5f3214610b315780639d65b89214610b88578063a9059cbb14610bb3578063b1ccf19314610c18578063b80ac7df14610cde578063be6eedbd14610d6a578063cb9c501f14610dcb578063ce267b5514610e3a578063cfc2334e14610f04578063d73dd62314610fa5578063dd62ed3e1461100a578063e073ef6914611081578063e26e7b5014611128578063f14bfbd014611169578063f35dad40146111d4578063f3c85eba146111ff578063f6c45d0214611254575b600080fd5b34801561022057600080fd5b506102986004803603810190808035600019169060200190929190803560ff16906020019092919080356000191690602001909291908035600019169060200190929190803573ffffffffffffffffffffffffffffffffffffffff1690602001909291908035151590602001909291905050506112b5565b604051808215151515815260200191505060405180910390f35b3480156102be57600080fd5b506102c76114a0565b6040518082815260200191505060405180910390f35b3480156102e957600080fd5b50610328600480360381019080803573ffffffffffffffffffffffffffffffffffffffff169060200190929190803590602001909291905050506114a6565b604051808215151515815260200191505060405180910390f35b34801561034e57600080fd5b506103776004803603810190808035906020019092919080359060200190929190505050611598565b604051808215151515815260200191505060405180910390f35b34801561039d57600080fd5b506103a66118a6565b6040518082815260200191505060405180910390f35b3480156103c857600080fd5b506103d16118ab565b6040518082815260200191505060405180910390f35b3480156103f357600080fd5b506103fc6118b1565b6040518082815260200191505060405180910390f35b34801561041e57600080fd5b5061043d600480360381019080803590602001909291905050506118bb565b6040518082815260200191505060405180910390f35b34801561045f57600080fd5b506104be600480360381019080803573ffffffffffffffffffffffffffffffffffffffff169060200190929190803573ffffffffffffffffffffffffffffffffffffffff16906020019092919080359060200190929190505050611900565b604051808215151515815260200191505060405180910390f35b3480156104e457600080fd5b5061050360048036038101908080359060200190929190505050611cba565b6040518082815260200191505060405180910390f35b34801561052557600080fd5b5061054460048036038101908080359060200190929190505050612034565b6040518082815260200191505060405180910390f35b34801561056657600080fd5b5061059b600480360381019080803573ffffffffffffffffffffffffffffffffffffffff16906020019092919050505061204c565b6040518082815260200191505060405180910390f35b3480156105bd57600080fd5b50610618600480360381019080803590602001908201803590602001908080601f016020809104026020016040519081016040528093929190818152602001838380828437820191505050505050919291929050505061210a565b604051808273ffffffffffffffffffffffffffffffffffffffff1673ffffffffffffffffffffffffffffffffffffffff16815260200191505060405180910390f35b34801561066657600080fd5b506106a5600480360381019080803573ffffffffffffffffffffffffffffffffffffffff16906020019092919080359060200190929190505050612190565b604051808215151515815260200191505060405180910390f35b3480156106cb57600080fd5b506106ee6004803603810190808035600019169060200190929190505050612421565b604051808215151515815260200191505060405180910390f35b34801561071457600080fd5b5061071d612441565b60405180826000191660001916815260200191505060405180910390f35b34801561074757600080fd5b50610790600480360381019080803573ffffffffffffffffffffffffffffffffffffffff1690602001909291908035906020019092919080359060200190929190505050612447565b6040518082815260200191505060405180910390f35b3480156107b257600080fd5b506107e7600480360381019080803573ffffffffffffffffffffffffffffffffffffffff16906020019092919050505061251a565b6040518082815260200191505060405180910390f35b34801561080957600080fd5b506108e66004803603810190808035906020019092919080359060200190820180359060200190808060200260200160405190810160405280939291908181526020018383602002808284378201915050505050509192919290803590602001908201803590602001908080601f0160208091040260200160405190810160405280939291908181526020018383808284378201915050505050509192919290803515159060200190929190803560ff16906020019092919080356000191690602001909291908035600019169060200190929190505050612562565b6040518082815260200191505060405180910390f35b34801561090857600080fd5b50610947600480360381019080803573ffffffffffffffffffffffffffffffffffffffff16906020019092919080359060200190929190505050612806565b6040518082815260200191505060405180910390f35b34801561096957600080fd5b50610972612943565b6040518082815260200191505060405180910390f35b34801561099457600080fd5b506109d3600480360381019080803573ffffffffffffffffffffffffffffffffffffffff16906020019092919080359060200190929190505050612949565b604051808215151515815260200191505060405180910390f35b3480156109f957600080fd5b50610a5f600480360381019080803560001916906020019092919080359060200190820180359060200190808060200260200160405190810160405280939291908181526020018383602002808284378201915050505050509192919290505050612fc1565b604051808215151515815260200191505060405180910390f35b348015610a8557600080fd5b50610a8e61300c565b6040518082815260200191505060405180910390f35b348015610ab057600080fd5b50610aef600480360381019080803573ffffffffffffffffffffffffffffffffffffffff16906020019092919080359060200190929190505050613012565b6040518085815260200184815260200183815260200182815260200194505050505060405180910390f35b348015610b2657600080fd5b50610b2f61305e565b005b348015610b3d57600080fd5b50610b466130e1565b604051808273ffffffffffffffffffffffffffffffffffffffff1673ffffffffffffffffffffffffffffffffffffffff16815260200191505060405180910390f35b348015610b9457600080fd5b50610b9d613107565b6040518082815260200191505060405180910390f35b348015610bbf57600080fd5b50610bfe600480360381019080803573ffffffffffffffffffffffffffffffffffffffff1690602001909291908035906020019092919050505061310d565b604051808215151515815260200191505060405180910390f35b348015610c2457600080fd5b50610cc860048036038101908080359060200190929190803590602001908201803590602001919091929391929390803590602001908201803590602001919091929391929390803515159060200190929190803560ff16906020019092919080356000191690602001909291908035600019169060200190929190803573ffffffffffffffffffffffffffffffffffffffff16906020019092919050505061332c565b6040518082815260200191505060405180910390f35b348015610cea57600080fd5b50610d506004803603810190808035906020019082018035906020019080806020026020016040519081016040528093929190818152602001838360200280828437820191505050505050919291929080356000191690602001909291905050506134fc565b604051808215151515815260200191505060405180910390f35b348015610d7657600080fd5b50610db5600480360381019080803573ffffffffffffffffffffffffffffffffffffffff16906020019092919080359060200190929190505050613513565b6040518082815260200191505060405180910390f35b348015610dd757600080fd5b50610e20600480360381019080803573ffffffffffffffffffffffffffffffffffffffff1690602001909291908035906020019092919080359060200190929190505050613613565b604051808215151515815260200191505060405180910390f35b348015610e4657600080fd5b50610eea600480360381019080803573ffffffffffffffffffffffffffffffffffffffff169060200190929190803590602001908201803590602001908080601f0160208091040260200160405190810160405280939291908181526020018383808284378201915050505050509192919290803560ff1690602001909291908035600019169060200190929190803560001916906020019092919050505061370c565b604051808215151515815260200191505060405180910390f35b348015610f1057600080fd5b50610f8b60048036038101908080356bffffffffffffffffffffffff19169060200190929190803590602001909291908035906020019082018035906020019080806020026020016040519081016040528093929190818152602001838360200280828437820191505050505050919291929050505061382b565b604051808215151515815260200191505060405180910390f35b348015610fb157600080fd5b50610ff0600480360381019080803573ffffffffffffffffffffffffffffffffffffffff169060200190929190803590602001909291905050506138ec565b604051808215151515815260200191505060405180910390f35b34801561101657600080fd5b5061106b600480360381019080803573ffffffffffffffffffffffffffffffffffffffff169060200190929190803573ffffffffffffffffffffffffffffffffffffffff169060200190929190505050613ae8565b6040518082815260200191505060405180910390f35b34801561108d57600080fd5b506110f4600480360381019080803590602001908201803590602001908080601f0160208091040260200160405190810160405280939291908181526020018383808284378201915050505050509192919290803515159060200190929190505050613b6f565b60405180826bffffffffffffffffffffffff19166bffffffffffffffffffffffff1916815260200191505060405180910390f35b34801561113457600080fd5b5061115360048036038101908080359060200190929190505050613f2e565b6040518082815260200191505060405180910390f35b34801561117557600080fd5b506111be600480360381019080803573ffffffffffffffffffffffffffffffffffffffff1690602001909291908035906020019092919080359060200190929190505050613f73565b6040518082815260200191505060405180910390f35b3480156111e057600080fd5b506111e9614017565b6040518082815260200191505060405180910390f35b34801561120b57600080fd5b5061123e60048036038101908080359060200190929190803590602001909291908035906020019092919050505061401d565b6040518082815260200191505060405180910390f35b34801561126057600080fd5b5061129f600480360381019080803573ffffffffffffffffffffffffffffffffffffffff16906020019092919080359060200190929190505050614133565b6040518082815260200191505060405180910390f35b60008060608315156112c9578891506113e3565b6040805190810160405280601c81526020017f19457468657265756d205369676e6564204d6573736167653a0a333200000000815250905080896040516020018083805190602001908083835b60208310151561133b5780518252602082019150602081019050602083039250611316565b6001836020036101000a0380198251168184511680821785525050505050509050018260001916600019168152602001925050506040516020818303038152906040526040518082805190602001908083835b6020831015156113b3578051825260208201915060208101905060208303925061138e565b6001836020036101000a038019825116818451168082178552505050505050905001915050604051809103902091505b8473ffffffffffffffffffffffffffffffffffffffff166001838a8a8a604051600081526020016040526040518085600019166000191681526020018460ff1660ff1681526020018360001916600019168152602001826000191660001916815260200194505050505060206040516020810390808403906000865af1158015611471573d6000803e3d6000fd5b5050506020604051035173ffffffffffffffffffffffffffffffffffffffff1614925050509695505050505050565b600a5481565b600081600260003373ffffffffffffffffffffffffffffffffffffffff1673ffffffffffffffffffffffffffffffffffffffff16815260200190815260200160002060008573ffffffffffffffffffffffffffffffffffffffff1673ffffffffffffffffffffffffffffffffffffffff168152602001908152602001600020819055508273ffffffffffffffffffffffffffffffffffffffff163373ffffffffffffffffffffffffffffffffffffffff167f8c5be1e5ebec7d5bd14f71427d1e84f3dd0314c0f7b2291e5b200ac8c7c3b925846040518082815260200191505060405180910390a36001905092915050565b600080339050836000808373ffffffffffffffffffffffffffffffffffffffff1673ffffffffffffffffffffffffffffffffffffffff16815260200190815260200160002054101515156115eb57600080fd5b611601620d2f004261426e90919063ffffffff16565b831015151561160f57600080fd5b61162663bbf81e004261426e90919063ffffffff16565b831115151561163457600080fd5b61163c61305e565b61168d846000808473ffffffffffffffffffffffffffffffffffffffff1673ffffffffffffffffffffffffffffffffffffffff1681526020019081526020016000205461428a90919063ffffffff16565b6000808373ffffffffffffffffffffffffffffffffffffffff1673ffffffffffffffffffffffffffffffffffffffff16815260200190815260200160002081905550611720846000803073ffffffffffffffffffffffffffffffffffffffff1673ffffffffffffffffffffffffffffffffffffffff1681526020019081526020016000205461426e90919063ffffffff16565b6000803073ffffffffffffffffffffffffffffffffffffffff1673ffffffffffffffffffffffffffffffffffffffff168152602001908152602001600020819055503073ffffffffffffffffffffffffffffffffffffffff168173ffffffffffffffffffffffffffffffffffffffff167fddf252ad1be2c89b69c2b068fc378daa952ba7f163c4a11628f55a4df523b3ef866040518082815260200191505060405180910390a3600d60008273ffffffffffffffffffffffffffffffffffffffff1673ffffffffffffffffffffffffffffffffffffffff168152602001908152602001600020608060405190810160405280868152602001428152602001858152602001600c54815250908060018154018082558091505090600182039060005260206000209060040201600090919290919091506000820151816000015560208201518160010155604082015181600201556060820151816003015550505061189584600c5461426e90919063ffffffff16565b600c81905550600191505092915050565b600181565b600c5481565b6000600154905090565b60006118f9600a6118eb600b546118dd600954876142a390919063ffffffff16565b6142db90919063ffffffff16565b6142db90919063ffffffff16565b9050919050565b60008073ffffffffffffffffffffffffffffffffffffffff168373ffffffffffffffffffffffffffffffffffffffff161415151561193d57600080fd5b6000808573ffffffffffffffffffffffffffffffffffffffff1673ffffffffffffffffffffffffffffffffffffffff16815260200190815260200160002054821115151561198a57600080fd5b600260008573ffffffffffffffffffffffffffffffffffffffff1673ffffffffffffffffffffffffffffffffffffffff16815260200190815260200160002060003373ffffffffffffffffffffffffffffffffffffffff1673ffffffffffffffffffffffffffffffffffffffff168152602001908152602001600020548211151515611a1557600080fd5b611a66826000808773ffffffffffffffffffffffffffffffffffffffff1673ffffffffffffffffffffffffffffffffffffffff1681526020019081526020016000205461428a90919063ffffffff16565b6000808673ffffffffffffffffffffffffffffffffffffffff1673ffffffffffffffffffffffffffffffffffffffff16815260200190815260200160002081905550611af9826000808673ffffffffffffffffffffffffffffffffffffffff1673ffffffffffffffffffffffffffffffffffffffff1681526020019081526020016000205461426e90919063ffffffff16565b6000808573ffffffffffffffffffffffffffffffffffffffff1673ffffffffffffffffffffffffffffffffffffffff16815260200190815260200160002081905550611bca82600260008773ffffffffffffffffffffffffffffffffffffffff1673ffffffffffffffffffffffffffffffffffffffff16815260200190815260200160002060003373ffffffffffffffffffffffffffffffffffffffff1673ffffffffffffffffffffffffffffffffffffffff1681526020019081526020016000205461428a90919063ffffffff16565b600260008673ffffffffffffffffffffffffffffffffffffffff1673ffffffffffffffffffffffffffffffffffffffff16815260200190815260200160002060003373ffffffffffffffffffffffffffffffffffffffff1673ffffffffffffffffffffffffffffffffffffffff168152602001908152602001600020819055508273ffffffffffffffffffffffffffffffffffffffff168473ffffffffffffffffffffffffffffffffffffffff167fddf252ad1be2c89b69c2b068fc378daa952ba7f163c4a11628f55a4df523b3ef846040518082815260200191505060405180910390a3600190509392505050565b6000806000806000611cda6402540be400876142a390919063ffffffff16565b9350683635c9adc5dea00000841115611d735769152d02c7e14af6800000841015611d5b57611d54640ba43b7400611d466009611d386002611d2a64174876e8008b61428a90919063ffffffff16565b6142a390919063ffffffff16565b6142db90919063ffffffff16565b61426e90919063ffffffff16565b9350611d72565b611d6f6004856142db90919063ffffffff16565b93505b5b4260045410611d83576000611dae565b611dad62093a80611d9f6004544261428a90919063ffffffff16565b6142db90919063ffffffff16565b5b9250611dd7611dc76002856142a390919063ffffffff16565b606461428a90919063ffffffff16565b9150611dff6064611df184876142a390919063ffffffff16565b6142db90919063ffffffff16565b9050602d831115611e125780945061202b565b6020831115611e4957611e426064611e346065846142a390919063ffffffff16565b6142db90919063ffffffff16565b945061202b565b6018831115611e8057611e796064611e6b6066846142a390919063ffffffff16565b6142db90919063ffffffff16565b945061202b565b6012831115611eb757611eb06064611ea26067846142a390919063ffffffff16565b6142db90919063ffffffff16565b945061202b565b600e831115611eee57611ee76064611ed96068846142a390919063ffffffff16565b6142db90919063ffffffff16565b945061202b565b600a831115611f2557611f1e6064611f106069846142a390919063ffffffff16565b6142db90919063ffffffff16565b945061202b565b6007831115611f5c57611f556064611f47606a846142a390919063ffffffff16565b6142db90919063ffffffff16565b945061202b565b6005831115611f9357611f8c6064611f7e606b846142a390919063ffffffff16565b6142db90919063ffffffff16565b945061202b565b6003831115611fca57611fc36064611fb5606c846142a390919063ffffffff16565b6142db90919063ffffffff16565b945061202b565b600183111561200157611ffa6064611fec606d846142a390919063ffffffff16565b6142db90919063ffffffff16565b945061202b565b612028606461201a606e846142a390919063ffffffff16565b6142db90919063ffffffff16565b94505b50505050919050565b60066020528060005260406000206000915090505481565b600080600d60008473ffffffffffffffffffffffffffffffffffffffff1673ffffffffffffffffffffffffffffffffffffffff1681526020019081526020016000208054905014156120a15760009050612105565b6121028260006120fd6001600d60008873ffffffffffffffffffffffffffffffffffffffff1673ffffffffffffffffffffffffffffffffffffffff1681526020019081526020016000208054905061428a90919063ffffffff16565b612447565b90505b919050565b600073ffffffffffffffffffffffffffffffffffffffff826040518082805190602001908083835b6020831015156121575780518252602082019150602081019050602083039250612132565b6001836020036101000a038019825116818451168082178552505050505050905001915050604051809103902060019004169050919050565b600080600260003373ffffffffffffffffffffffffffffffffffffffff1673ffffffffffffffffffffffffffffffffffffffff16815260200190815260200160002060008573ffffffffffffffffffffffffffffffffffffffff1673ffffffffffffffffffffffffffffffffffffffff168152602001908152602001600020549050808311156122a1576000600260003373ffffffffffffffffffffffffffffffffffffffff1673ffffffffffffffffffffffffffffffffffffffff16815260200190815260200160002060008673ffffffffffffffffffffffffffffffffffffffff1673ffffffffffffffffffffffffffffffffffffffff16815260200190815260200160002081905550612335565b6122b4838261428a90919063ffffffff16565b600260003373ffffffffffffffffffffffffffffffffffffffff1673ffffffffffffffffffffffffffffffffffffffff16815260200190815260200160002060008673ffffffffffffffffffffffffffffffffffffffff1673ffffffffffffffffffffffffffffffffffffffff168152602001908152602001600020819055505b8373ffffffffffffffffffffffffffffffffffffffff163373ffffffffffffffffffffffffffffffffffffffff167f8c5be1e5ebec7d5bd14f71427d1e84f3dd0314c0f7b2291e5b200ac8c7c3b925600260003373ffffffffffffffffffffffffffffffffffffffff1673ffffffffffffffffffffffffffffffffffffffff16815260200190815260200160002060008873ffffffffffffffffffffffffffffffffffffffff1673ffffffffffffffffffffffffffffffffffffffff168152602001908152602001600020546040518082815260200191505060405180910390a3600191505092915050565b60086020528060005260406000206000915054906101000a900460ff1681565b60075481565b600080600083851115151561245b57600080fd5b600d60008773ffffffffffffffffffffffffffffffffffffffff1673ffffffffffffffffffffffffffffffffffffffff16815260200190815260200160002080549050841015156124ab57600080fd5b838514156124c4576124bd8686613513565b9250612511565b600091508490505b8385101561250d576124f06124e18783613513565b8361426e90919063ffffffff16565b915061250660018261426e90919063ffffffff16565b90506124cc565b8192505b50509392505050565b60008060008373ffffffffffffffffffffffffffffffffffffffff1673ffffffffffffffffffffffffffffffffffffffff168152602001908152602001600020549050919050565b6000806000600454421015151561257857600080fd5b61258061305e565b61258a8888613b6f565b9150818a60405160200180836bffffffffffffffffffffffff19166bffffffffffffffffffffffff19168152601401828152602001925050506040516020818303038152906040526040518082805190602001908083835b60208310151561260757805182526020820191506020810190506020830392506125e2565b6001836020036101000a03801982511681845116808217855250505050505090500191505060405180910390209050612640818a612fc1565b151561264b57600080fd5b612658338988888861370c565b151561266357600080fd5b600160086000836000191660001916815260200190815260200160002060006101000a81548160ff0219169083151502179055506126a08a611cba565b9250600a546126ba8460095461426e90919063ffffffff16565b111515156126c757600080fd5b6126dc8360095461426e90919063ffffffff16565b600981905550612733836000803373ffffffffffffffffffffffffffffffffffffffff1673ffffffffffffffffffffffffffffffffffffffff1681526020019081526020016000205461426e90919063ffffffff16565b6000803373ffffffffffffffffffffffffffffffffffffffff1673ffffffffffffffffffffffffffffffffffffffff1681526020019081526020016000208190555061278a8360015461426e90919063ffffffff16565b6001819055503373ffffffffffffffffffffffffffffffffffffffff16600073ffffffffffffffffffffffffffffffffffffffff167fddf252ad1be2c89b69c2b068fc378daa952ba7f163c4a11628f55a4df523b3ef856040518082815260200191505060405180910390a38292505050979650505050505050565b600080600080600080600d60008973ffffffffffffffffffffffffffffffffffffffff1673ffffffffffffffffffffffffffffffffffffffff1681526020019081526020016000208781548110151561285b57fe5b906000526020600020906004020194506000935061289d62093a8061288f600454886001015461428a90919063ffffffff16565b6142db90919063ffffffff16565b92506128c962093a806128bb6004544261428a90919063ffffffff16565b6142db90919063ffffffff16565b91508290505b81811015612935576129266129176032612909886000015460066000878152602001908152602001600020546142a390919063ffffffff16565b6142db90919063ffffffff16565b8561426e90919063ffffffff16565b935080806001019150506128cf565b839550505050505092915050565b60045481565b60008060008061295761305e565b600d60008773ffffffffffffffffffffffffffffffffffffffff1673ffffffffffffffffffffffffffffffffffffffff168152602001908152602001600020858154811015156129a357fe5b906000526020600020906004020160020154421115156129c257600080fd5b612a34600d60008873ffffffffffffffffffffffffffffffffffffffff1673ffffffffffffffffffffffffffffffffffffffff16815260200190815260200160002086815481101515612a1157fe5b906000526020600020906004020160000154600c5461428a90919063ffffffff16565b600c81905550612ae8600d60008873ffffffffffffffffffffffffffffffffffffffff1673ffffffffffffffffffffffffffffffffffffffff16815260200190815260200160002086815481101515612a8957fe5b9060005260206000209060040201600001546000803073ffffffffffffffffffffffffffffffffffffffff1673ffffffffffffffffffffffffffffffffffffffff1681526020019081526020016000205461428a90919063ffffffff16565b6000803073ffffffffffffffffffffffffffffffffffffffff1673ffffffffffffffffffffffffffffffffffffffff16815260200190815260200160002081905550612bd8600d60008873ffffffffffffffffffffffffffffffffffffffff1673ffffffffffffffffffffffffffffffffffffffff16815260200190815260200160002086815481101515612b7957fe5b9060005260206000209060040201600001546000808973ffffffffffffffffffffffffffffffffffffffff1673ffffffffffffffffffffffffffffffffffffffff1681526020019081526020016000205461426e90919063ffffffff16565b6000808873ffffffffffffffffffffffffffffffffffffffff1673ffffffffffffffffffffffffffffffffffffffff168152602001908152602001600020819055508573ffffffffffffffffffffffffffffffffffffffff163073ffffffffffffffffffffffffffffffffffffffff167fddf252ad1be2c89b69c2b068fc378daa952ba7f163c4a11628f55a4df523b3ef600d60008a73ffffffffffffffffffffffffffffffffffffffff1673ffffffffffffffffffffffffffffffffffffffff16815260200190815260200160002088815481101515612cb557fe5b9060005260206000209060040201600001546040518082815260200191505060405180910390a3612ce68686614133565b9250612cf3868685613f73565b9150612d08828461426e90919063ffffffff16565b90507f63a242a632efe33c0e210e04e4173612a17efa4f16aa4890bc7e46caece80de0836040518082815260200191505060405180910390a17f63a242a632efe33c0e210e04e4173612a17efa4f16aa4890bc7e46caece80de0826040518082815260200191505060405180910390a1612dc9816000808973ffffffffffffffffffffffffffffffffffffffff1673ffffffffffffffffffffffffffffffffffffffff1681526020019081526020016000205461426e90919063ffffffff16565b6000808873ffffffffffffffffffffffffffffffffffffffff1673ffffffffffffffffffffffffffffffffffffffff16815260200190815260200160002081905550612e90612e21848361428a90919063ffffffff16565b600080600360009054906101000a900473ffffffffffffffffffffffffffffffffffffffff1673ffffffffffffffffffffffffffffffffffffffff1673ffffffffffffffffffffffffffffffffffffffff1681526020019081526020016000205461426e90919063ffffffff16565b600080600360009054906101000a900473ffffffffffffffffffffffffffffffffffffffff1673ffffffffffffffffffffffffffffffffffffffff1673ffffffffffffffffffffffffffffffffffffffff16815260200190815260200160002081905550612f1c612f0b6002836142a390919063ffffffff16565b60015461426e90919063ffffffff16565b600181905550612f6a600d60008873ffffffffffffffffffffffffffffffffffffffff1673ffffffffffffffffffffffffffffffffffffffff168152602001908152602001600020866142f1565b8573ffffffffffffffffffffffffffffffffffffffff167f0f6798a560793a54c3bcfe86a93cde1e73087d944c0ea20544137d4121396885826040518082815260200191505060405180910390a250505092915050565b600080151560086000856000191660001916815260200190815260200160002060009054906101000a900460ff161515148015613004575061300382846134fc565b5b905092915050565b600b5481565b600d6020528160005260406000208181548110151561302d57fe5b9060005260206000209060040201600091509150508060000154908060010154908060020154908060030154905084565b60008061308b62093a8061307d6004544261428a90919063ffffffff16565b6142db90919063ffffffff16565b91506032821115801561309f575060055482115b156130dd576130bb600954600a5461428a90919063ffffffff16565b9050806006600084815260200190815260200160002081905550816005819055505b5050565b600360009054906101000a900473ffffffffffffffffffffffffffffffffffffffff1681565b60055481565b60008073ffffffffffffffffffffffffffffffffffffffff168373ffffffffffffffffffffffffffffffffffffffff161415151561314a57600080fd5b6000803373ffffffffffffffffffffffffffffffffffffffff1673ffffffffffffffffffffffffffffffffffffffff16815260200190815260200160002054821115151561319757600080fd5b6131e8826000803373ffffffffffffffffffffffffffffffffffffffff1673ffffffffffffffffffffffffffffffffffffffff1681526020019081526020016000205461428a90919063ffffffff16565b6000803373ffffffffffffffffffffffffffffffffffffffff1673ffffffffffffffffffffffffffffffffffffffff1681526020019081526020016000208190555061327b826000808673ffffffffffffffffffffffffffffffffffffffff1673ffffffffffffffffffffffffffffffffffffffff1681526020019081526020016000205461426e90919063ffffffff16565b6000808573ffffffffffffffffffffffffffffffffffffffff1673ffffffffffffffffffffffffffffffffffffffff168152602001908152602001600020819055508273ffffffffffffffffffffffffffffffffffffffff163373ffffffffffffffffffffffffffffffffffffffff167fddf252ad1be2c89b69c2b068fc378daa952ba7f163c4a11628f55a4df523b3ef846040518082815260200191505060405180910390a36001905092915050565b60003373ffffffffffffffffffffffffffffffffffffffff168273ffffffffffffffffffffffffffffffffffffffff161415151561336957600080fd5b600073ffffffffffffffffffffffffffffffffffffffff168273ffffffffffffffffffffffffffffffffffffffff16141515156133a557600080fd5b6134158b8b8b808060200260200160405190810160405280939291908181526020018383602002808284378201915050505050508a8a8080601f01602080910402602001604051908101604052809392919081815260200183838082843782019150505050505089898989612562565b905061347b61342e6014836142db90919063ffffffff16565b6000808573ffffffffffffffffffffffffffffffffffffffff1673ffffffffffffffffffffffffffffffffffffffff1681526020019081526020016000205461426e90919063ffffffff16565b6000808473ffffffffffffffffffffffffffffffffffffffff1673ffffffffffffffffffffffffffffffffffffffff168152602001908152602001600020819055506134e56134d46014836142db90919063ffffffff16565b60015461426e90919063ffffffff16565b6001819055508090509a9950505050505050505050565b600061350b8360075484614394565b905092915050565b600080600d60008573ffffffffffffffffffffffffffffffffffffffff1673ffffffffffffffffffffffffffffffffffffffff1681526020019081526020016000208381548110151561356257fe5b9060005260206000209060040201600001549050600d60008573ffffffffffffffffffffffffffffffffffffffff1673ffffffffffffffffffffffffffffffffffffffff168152602001908152602001600020838154811015156135c257fe5b906000526020600020906004020160020154421115613608576136016135f285856135ed8888614133565b613f73565b8261426e90919063ffffffff16565b915061360c565b8091505b5092915050565b60008082841115151561362557600080fd5b600d60008673ffffffffffffffffffffffffffffffffffffffff1673ffffffffffffffffffffffffffffffffffffffff16815260200190815260200160002080549050831115151561367657600080fd5b8390505b8281101561370057600d60008673ffffffffffffffffffffffffffffffffffffffff1673ffffffffffffffffffffffffffffffffffffffff168152602001908152602001600020818154811015156136ce57fe5b9060005260206000209060040201600201544211156136f3576136f18582612949565b505b808060010191505061367a565b60019150509392505050565b6000613820600287604051602001808273ffffffffffffffffffffffffffffffffffffffff1673ffffffffffffffffffffffffffffffffffffffff166c010000000000000000000000000281526014019150506040516020818303038152906040526040518082805190602001908083835b6020831015156137a3578051825260208201915060208101905060208303925061377e565b6001836020036101000a0380198251168184511680821785525050505050509050019150506020604051808303816000865af11580156137e7573d6000803e3d6000fd5b5050506040513d60208110156137fc57600080fd5b81019080805190602001909291905050508585856138198a61210a565b60006112b5565b905095945050505050565b600080848460405160200180836bffffffffffffffffffffffff19166bffffffffffffffffffffffff19168152601401828152602001925050506040516020818303038152906040526040518082805190602001908083835b6020831015156138a95780518252602082019150602081019050602083039250613884565b6001836020036101000a038019825116818451168082178552505050505050905001915050604051809103902090506138e28184612fc1565b9150509392505050565b600061397d82600260003373ffffffffffffffffffffffffffffffffffffffff1673ffffffffffffffffffffffffffffffffffffffff16815260200190815260200160002060008673ffffffffffffffffffffffffffffffffffffffff1673ffffffffffffffffffffffffffffffffffffffff1681526020019081526020016000205461426e90919063ffffffff16565b600260003373ffffffffffffffffffffffffffffffffffffffff1673ffffffffffffffffffffffffffffffffffffffff16815260200190815260200160002060008573ffffffffffffffffffffffffffffffffffffffff1673ffffffffffffffffffffffffffffffffffffffff168152602001908152602001600020819055508273ffffffffffffffffffffffffffffffffffffffff163373ffffffffffffffffffffffffffffffffffffffff167f8c5be1e5ebec7d5bd14f71427d1e84f3dd0314c0f7b2291e5b200ac8c7c3b925600260003373ffffffffffffffffffffffffffffffffffffffff1673ffffffffffffffffffffffffffffffffffffffff16815260200190815260200160002060008773ffffffffffffffffffffffffffffffffffffffff1673ffffffffffffffffffffffffffffffffffffffff168152602001908152602001600020546040518082815260200191505060405180910390a36001905092915050565b6000600260008473ffffffffffffffffffffffffffffffffffffffff1673ffffffffffffffffffffffffffffffffffffffff16815260200190815260200160002060008373ffffffffffffffffffffffffffffffffffffffff1673ffffffffffffffffffffffffffffffffffffffff16815260200190815260200160002054905092915050565b600080600080613b8086600061445f565b600190049250613b9186602061445f565b6001900491508415613d6d576000600283811515613bab57fe5b0614613bb8576003613bbb565b60025b9050600360028285604051602001808360ff1660ff167f0100000000000000000000000000000000000000000000000000000000000000028152600101828152602001925050506040516020818303038152906040526040518082805190602001908083835b602083101515613c465780518252602082019150602081019050602083039250613c21565b6001836020036101000a0380198251168184511680821785525050505050509050019150506020604051808303816000865af1158015613c8a573d6000803e3d6000fd5b5050506040513d6020811015613c9f57600080fd5b81019080805190602001909291905050506040516020018082600019166000191681526020019150506040516020818303038152906040526040518082805190602001908083835b602083101515613d0c5780518252602082019150602081019050602083039250613ce7565b6001836020036101000a0380198251168184511680821785525050505050509050019150506020604051808303816000865af1158015613d50573d6000803e3d6000fd5b505050604051516c01000000000000000000000000029350613f25565b6004905060036002828585604051602001808460ff1660ff167f010000000000000000000000000000000000000000000000000000000000000002815260010183815260200182815260200193505050506040516020818303038152906040526040518082805190602001908083835b602083101515613e025780518252602082019150602081019050602083039250613ddd565b6001836020036101000a0380198251168184511680821785525050505050509050019150506020604051808303816000865af1158015613e46573d6000803e3d6000fd5b5050506040513d6020811015613e5b57600080fd5b81019080805190602001909291905050506040516020018082600019166000191681526020019150506040516020818303038152906040526040518082805190602001908083835b602083101515613ec85780518252602082019150602081019050602083039250613ea3565b6001836020036101000a0380198251168184511680821785525050505050509050019150506020604051808303816000865af1158015613f0c573d6000803e3d6000fd5b505050604051516c010000000000000000000000000293505b50505092915050565b6000613f6c600a613f5e600a54613f50600954876142a390919063ffffffff16565b6142db90919063ffffffff16565b6142db90919063ffffffff16565b9050919050565b6000806032613fa262093a80613f946004544261428a90919063ffffffff16565b6142db90919063ffffffff16565b11151561400a5760009050613fc9613fba8686612806565b8461426e90919063ffffffff16565b9050614000613fd782613f2e565b613ff2613fe3846118bb565b8461426e90919063ffffffff16565b61426e90919063ffffffff16565b905080915061400f565b600091505b509392505050565b60095481565b600080600080600080601e9450848881151561403557fe5b06935061404b85896142db90919063ffffffff16565b92506140656402540be4008a6142db90919063ffffffff16565b9150600090505b828110156140ce576140b18460640a6140a3866140938b600161426e90919063ffffffff16565b0a856142a390919063ffffffff16565b6142db90919063ffffffff16565b91506140c760018261426e90919063ffffffff16565b905061406c565b61410b8460640a6140fd866140ed8b600161426e90919063ffffffff16565b0a856142a390919063ffffffff16565b6142db90919063ffffffff16565b91506141256402540be400836142a390919063ffffffff16565b955050505050509392505050565b600080600080600080600d60008973ffffffffffffffffffffffffffffffffffffffff1673ffffffffffffffffffffffffffffffffffffffff1681526020019081526020016000208781548110151561418857fe5b906000526020600020906004020194506141ad606460016142a390919063ffffffff16565b93506000856003015414156141c35760016141f0565b6141ef6001546141e1606488600301546142a390919063ffffffff16565b6142db90919063ffffffff16565b5b925061420583856142db90919063ffffffff16565b9350614237620d2f006142298760010154886002015461428a90919063ffffffff16565b6142db90919063ffffffff16565b91506142488560000154838661401d565b905061426185600001548261428a90919063ffffffff16565b9550505050505092915050565b6000818301905082811015151561428157fe5b80905092915050565b600082821115151561429857fe5b818303905092915050565b6000808314156142b657600090506142d5565b81830290508183828115156142c757fe5b041415156142d157fe5b8090505b92915050565b600081838115156142e857fe5b04905092915050565b8161430a6001848054905061428a90919063ffffffff16565b81548110151561431657fe5b9060005260206000209060040201828281548110151561433257fe5b9060005260206000209060040201600082015481600001556001820154816001015560028201548160020155600382015481600301559050506143836001838054905061428a90919063ffffffff16565b828161438f919061453b565b505050565b600080600080849250600091505b86518210156144485786828151811015156143b957fe5b90602001906020020151905080600019168360001916101561440a5782816040518083600019166000191681526020018260001916600019168152602001925050506040518091039020925061443b565b8083604051808360001916600019168152602001826000191660001916815260200192505050604051809103902092505b81806001019250506143a2565b856000191683600019161493505050509392505050565b600080600090505b602081101561453157600881028484830181518110151561448457fe5b9060200101517f010000000000000000000000000000000000000000000000000000000000000090047f0100000000000000000000000000000000000000000000000000000000000000027effffffffffffffffffffffffffffffffffffffffffffffffffffffffffffff19167fff0000000000000000000000000000000000000000000000000000000000000060010216600019169060020a9004821891508080600101915050614467565b8191505092915050565b81548183558181111561456857600402816004028360005260206000209182019101614567919061456d565b5b505050565b6145a991905b808211156145a55760008082016000905560018201600090556002820160009055600382016000905550600401614573565b5090565b905600a165627a7a72305820f67a0ade7591264c3ce8249bd965eee443fc9f9ae6f0aea07e38b1122747b8d80029",
  "source": "pragma solidity ^0.4.23;\nimport \"./UTXORedeemableToken.sol\";\n\n\ncontract StakeableToken is UTXORedeemableToken {\n\n    event Mint(address indexed _address, uint _reward);\n    // TODO: remove this\n    event Test(uint256 test1);\n\n    uint256 public totalBtcCirculationAtFork;\n    uint256 public totalStakedCoins;\n    uint256 public constant interestRatePercent = 1;\n\n    struct StakeStruct {\n        uint256 stakeAmount;\n        uint256 stakeTime;\n        uint256 unlockTime;\n        uint256 totalStakedCoinsAtStart;\n    }\n\n    mapping(address => StakeStruct[]) public staked;\n\n    //\n    // start utility functions\n    //\n\n    /** \n        @dev Moves last item in array to location of item to be removed,\n        overwriting array item. Shortens array length by 1, removing now\n        duplicate item at end of array.\n        @param _array an array of StakeStructs\n        @param _index index of the item to delete\n    */\n    function removeArrayEntry(\n        StakeStruct[] storage _array,\n        uint256 _index\n    )\n        internal\n    {\n        // set last item to index of item we want to get rid of\n        _array[_index] = _array[_array.length.sub(1)];\n        // remove last item in array now that safely copied to index of deleted item\n        _array.length = _array.length.sub(1);\n    }\n\n    /**\n        @dev compound groups up compounding periods by 30 in order to avoid  \n        uint overflows when taking (100 + rate) ** periods. Accuracy is also brought by\n        10 decimals in order to avoid uint overflows when \n        taking compounded * ((100  + rate) ** periods).\n\n        @param _principle base amount being compounded\n        @param _periods amount of periods to compound principle\n        @param _rate rate given as uint percent \n    */\n    function compound(\n        uint256 _principle,\n        uint256 _periods,\n        uint256 _rate\n    )\n        public\n        // pure\n        returns (uint256)\n    {\n        uint256 _maxGroupPeriods = 30;\n        uint256 _remainingPeriods = _periods % _maxGroupPeriods;\n        uint256 _groupings = _periods.div(_maxGroupPeriods);\n        uint256 _compounded = _principle.div(1e10);\n\n        for(uint256 _i = 0; _i < _groupings; _i = _i.add(1)) {\n            _compounded = _compounded\n                .mul(uint256(1).add(_rate) ** _remainingPeriods)\n                .div(100 ** _remainingPeriods);\n        }\n\n        _compounded = _compounded\n            .mul(uint256(1).add(_rate) ** _remainingPeriods)\n            .div(100 ** _remainingPeriods);\n\n        return _compounded.mul(1e10);\n    }\n\n    // TODO: double check this works as intended...\n    function calculateWeAreAllSatoshiRewards(\n        address _staker,\n        uint256 _stakeIndex\n    ) \n        public \n        view \n        returns (uint256)\n    {\n        StakeStruct storage _stake = staked[_staker][_stakeIndex];\n        uint256 _rewards = 0;\n        /* Calculate what week stake was opened */\n        uint256 startWeek = _stake.stakeTime\n            .sub(launchTime)\n            .div(7 days);\n\n        /* Calculate current week */\n        uint256 weeksSinceLaunch = block.timestamp\n            .sub(launchTime)\n            .div(7 days);\n\n        /* Award 2% of unclaimed coins at end of every week */\n        for (uint256 _i = startWeek; _i < weeksSinceLaunch; _i++) {\n            _rewards = _rewards\n                .add(unclaimedCoinsByWeek[_i]\n                .mul(_stake.stakeAmount)\n                .div(50));\n        }\n\n        return _rewards;\n    }\n\n    function calculateViralRewards(\n        uint256 _rewards\n    ) \n        public \n        view \n        returns (uint256)\n    {\n        /* Add bonus percentage to _rewards from 0-10% based on adoption */\n        return _rewards\n            .mul(totalRedeemed)\n            .div(totalBtcCirculationAtFork)\n            .div(10);\n    }\n\n    function calculateCritMassRewards(\n        uint256 _rewards\n    ) \n        public \n        view \n        returns (uint256)\n    {\n        /* Add bonus percentage to _rewards from 0-10% based on adoption */\n        return _rewards\n            .mul(totalRedeemed)\n            .div(maximumRedeemable)\n            .div(10);\n    }\n\n    /**\n        @dev Additional rewards should only be given within first 50 weeks.\n     */\n    function calculateAdditionalRewards(\n        address _staker,\n        uint256 _stakeIndex, \n        uint256 _initRewards\n    ) \n        public \n        view \n        returns (uint256)\n    {\n        // only give rewards if within first 50 weeks\n        if (block.timestamp.sub(launchTime).div(7 days) <= 50) {\n            uint256 _rewards = 0;\n            _rewards = _initRewards.add(calculateWeAreAllSatoshiRewards(_staker, _stakeIndex));\n            _rewards = _rewards\n                .add(calculateViralRewards(_rewards))\n                .add(calculateCritMassRewards(_rewards));\n\n            return _rewards;\n        } else {\n            return 0;\n        }\n    }\n\n    function calculateStakingRewards(\n        address _staker,\n        uint256 _stakeIndex\n    ) \n        public \n        view\n        returns (uint256)\n    {\n        StakeStruct storage _stake = staked[_staker][_stakeIndex];\n        /* Base interest rate */\n        uint256 _interestRateTimesHundred = interestRatePercent.mul(100);\n\n        // calculate percent of staked coins vs totalSupply to use for interest rate reduction\n        uint256 _scaler = _stake.totalStakedCoinsAtStart != 0 \n            ? _stake.totalStakedCoinsAtStart\n                .mul(100)\n                .div(totalSupply_)\n            : 1;\n        /* reduce interest rate by percent of tokens staked against totalSupply */\n        _interestRateTimesHundred = _interestRateTimesHundred.div(_scaler);\n\n        /* Calculate Periods */\n        uint256 _periods = _stake.unlockTime\n            .sub(_stake.stakeTime)\n            .div(10 days);\n        /* Compound */\n        uint256 _compounded = compound(\n            _stake.stakeAmount, \n            _periods, \n            _interestRateTimesHundred\n        );\n\n        /* Calculate final staking rewards with time bonus */\n        return _compounded.sub(_stake.stakeAmount);\n    }\n\n    function getStakedEntry(\n        address _staker,\n        uint256 _stakeIndex\n    )\n        public\n        view\n        returns (uint256)\n    {\n        uint256 _stake = staked[_staker][_stakeIndex].stakeAmount;\n        \n        if (block.timestamp > staked[_staker][_stakeIndex].unlockTime) {\n            return _stake.add(\n                    calculateAdditionalRewards(\n                        _staker,\n                        _stakeIndex,\n                        calculateStakingRewards(_staker, _stakeIndex)\n                    )\n            );\n        } else {\n            return _stake;\n        }\n    }\n\n    /**\n        @notice Used in case user creates excessive stakes and array iteration hits gasLimit.\n        @param _staker user for which to check stakes\n        @param _startIndex get stakes from location\n        @param _endIndex get stakes up to location\n    */\n    function getCurrentStakedAtIndexes(\n        address _staker,\n        uint256 _startIndex,\n        uint256 _endIndex\n    )\n        public\n        view\n        returns (uint256)\n    {\n        require(_startIndex <= _endIndex);\n        require(_endIndex < staked[_staker].length);\n\n        if (_startIndex == _endIndex) {\n            return getStakedEntry(_staker, _startIndex);\n        }\n\n        uint256 _stakes = 0;\n        for (\n            uint256 _stakeIndex = _startIndex; \n            _startIndex < _endIndex; \n            _stakeIndex = _stakeIndex.add(1)\n        ) {\n            _stakes = _stakes.add(getStakedEntry(_staker, _stakeIndex));\n        }\n\n        return _stakes;\n    }\n\n    /**\n        @notice Safe for users who have no placed excessive amounts of stakes.\n        @param _staker the user address for which to check current staked\n    */\n    function getCurrentStaked(\n        address _staker\n    )\n        external \n        view \n        returns (uint256)\n    {\n        if (staked[_staker].length == 0) {\n            return 0;\n        }\n\n        return getCurrentStakedAtIndexes(_staker, 0, staked[_staker].length.sub(1));\n    }\n\n    //\n    // end utility functions\n    //\n\n    //\n    // start user functinos\n    //\n\n    /** \n        @notice start a stake in order to claim rewards at later unlock time.\n        Additional rewards only payable within first 50 weeks.\n        @param _value amount of tokens to lock\n        @param _unlockTime unix timestamp date for when to unlock tokens\n    */\n    function startStake(\n        uint256 _value, \n        uint256 _unlockTime\n    ) \n        external\n        returns (bool)\n    {\n        address _staker = msg.sender;\n\n        /* Make sure staker has enough funds */\n        require(balances[_staker] >= _value);\n        /* ensure unlockTime is in the future */\n        require(_unlockTime >= block.timestamp.add(10 days));\n        /* ensure that unlock time is not more than approx 10 years */\n        require(_unlockTime <= block.timestamp.add(10 days * 3650));\n\n        /* Check if weekly data needs to be updated */\n        storeWeekUnclaimed();\n\n        /* Remove balance from sender */\n        balances[_staker] = balances[_staker].sub(_value);\n        balances[address(this)] = balances[address(this)].add(_value);\n        emit Transfer(_staker, address(this), _value);\n\n        /* Create Stake */\n        staked[_staker].push(\n          StakeStruct(\n            _value, \n            block.timestamp, \n            _unlockTime, \n            totalStakedCoins\n          )\n        );\n\n        /* Add staked coins to global stake counter */\n        totalStakedCoins = totalStakedCoins.add(_value);\n\n        return true;\n    }\n\n    /**\n        @notice Used for claiming a single stake. Another user can claim a stake on another \n        user's behalf. All rewards and original stake go to original staker.\n        Useful for if _staker does not have any gas and someone else is claiming for them.\n        @param _staker user address for who is making the claim\n        @param _stakeIndex location of the stake to claim\n    */\n    function claimSingleStakingReward(\n        address _staker,\n        uint256 _stakeIndex\n    )\n        public\n        returns (bool)\n    {\n        // Check if weekly data needs to be updated\n        storeWeekUnclaimed();\n        require(block.timestamp > staked[_staker][_stakeIndex].unlockTime);\n        // Remove StakedCoins from global counter\n        totalStakedCoins = totalStakedCoins\n            .sub(staked[_staker][_stakeIndex].stakeAmount);\n\n        // Sub staked coins from contract\n        balances[address(this)] = balances[address(this)]\n            .sub(staked[_staker][_stakeIndex].stakeAmount);\n        \n        // Add staked coins to staker\n        balances[_staker] = balances[_staker]\n            .add(staked[_staker][_stakeIndex].stakeAmount);\n\n        emit Transfer(\n            address(this), \n            _staker, \n            staked[_staker][_stakeIndex].stakeAmount\n        );\n\n        // Calculate Rewards\n        uint256 _stakingRewards = calculateStakingRewards(_staker, _stakeIndex);\n        uint256 _additionalRewards = calculateAdditionalRewards(\n            _staker,\n            _stakeIndex,\n            _stakingRewards\n        );\n        uint256 _rewards = _stakingRewards.add(_additionalRewards);\n        emit Test(_stakingRewards);\n        emit Test(_additionalRewards);\n\n        // Award staking rewards to staker\n        balances[_staker] = balances[_staker].add(_rewards);\n\n        // Award rewards to origin contract\n        balances[origin] = balances[origin]\n            .add(_rewards\n            .sub(_stakingRewards));\n\n        // Increase supply\n        totalSupply_ = totalSupply_.add(_rewards.mul(2));\n\n        // Remove Stake\n        removeArrayEntry(staked[_staker], _stakeIndex);\n\n        emit Mint(_staker, _rewards);\n    }\n\n    /**\n        @notice Used for claiming multiple stakes. Another user can \n        claim a stake on another user's behalf. All rewards and original stake go to original staker.\n        Useful for if _staker does not have any gas and someone else is claiming for them.\n        @param _staker user address for who is making the claim\n        @param _startIndex claim stakes from this location\n        @param _endIndex claim stakes up to this location\n    */\n    function claimMultipleStakingRewards(\n        address _staker,\n        uint256 _startIndex,\n        uint256 _endIndex\n    ) \n        external \n        returns (bool)\n    {\n        // ensure that indexes are in array bounds\n        require(_startIndex <= _endIndex);\n        require(_endIndex <= staked[_staker].length);\n\n        for (uint256 _i = _startIndex; _i < _endIndex; _i++) {\n            /* Check if stake has matured */\n            if (block.timestamp > staked[_staker][_i].unlockTime) {\n                claimSingleStakingReward(_staker, _i);\n            }\n        }\n\n        return true;\n    }\n\n    //\n    // end user functions\n    //\n}\n",
  "sourcePath": "/Users/tovarishfin/dev/bhx/bhx-contracts/contracts/StakeableToken.sol",
  "compiler": {
    "name": "solc",
    "version": "0.4.24+commit.e67f0147.Emscripten.clang"
  },
  "schemaVersion": "2.0.0",
  "updatedAt": "2018-07-23T10:02:26.975Z"
}