{
  "contractName": "StakeableToken",
  "abi": [
    {
      "constant": true,
      "inputs": [],
      "name": "maximumRedeemable",
      "outputs": [
        {
          "name": "",
          "type": "uint256"
        }
      ],
      "payable": false,
      "stateMutability": "view",
      "type": "function"
    },
    {
      "constant": false,
      "inputs": [
        {
          "name": "_spender",
          "type": "address"
        },
        {
          "name": "_value",
          "type": "uint256"
        }
      ],
      "name": "approve",
      "outputs": [
        {
          "name": "",
          "type": "bool"
        }
      ],
      "payable": false,
      "stateMutability": "nonpayable",
      "type": "function"
    },
    {
      "constant": true,
      "inputs": [],
      "name": "totalSupply",
      "outputs": [
        {
          "name": "",
          "type": "uint256"
        }
      ],
      "payable": false,
      "stateMutability": "view",
      "type": "function"
    },
    {
      "constant": false,
      "inputs": [
        {
          "name": "_from",
          "type": "address"
        },
        {
          "name": "_to",
          "type": "address"
        },
        {
          "name": "_value",
          "type": "uint256"
        }
      ],
      "name": "transferFrom",
      "outputs": [
        {
          "name": "",
          "type": "bool"
        }
      ],
      "payable": false,
      "stateMutability": "nonpayable",
      "type": "function"
    },
    {
      "constant": false,
      "inputs": [
        {
          "name": "satoshis",
          "type": "uint256"
        },
        {
          "name": "proof",
          "type": "bytes32[]"
        },
        {
          "name": "pubKey",
          "type": "bytes"
        },
        {
          "name": "isCompressed",
          "type": "bool"
        },
        {
          "name": "v",
          "type": "uint8"
        },
        {
          "name": "r",
          "type": "bytes32"
        },
        {
          "name": "s",
          "type": "bytes32"
        }
      ],
      "name": "redeemUTXO",
      "outputs": [
        {
          "name": "tokensRedeemed",
          "type": "uint256"
        }
      ],
      "payable": false,
      "stateMutability": "nonpayable",
      "type": "function"
    },
    {
      "constant": false,
      "inputs": [
        {
          "name": "satoshis",
          "type": "uint256"
        },
        {
          "name": "proof",
          "type": "bytes32[]"
        },
        {
          "name": "pubKey",
          "type": "bytes"
        },
        {
          "name": "isCompressed",
          "type": "bool"
        },
        {
          "name": "v",
          "type": "uint8"
        },
        {
          "name": "r",
          "type": "bytes32"
        },
        {
          "name": "s",
          "type": "bytes32"
        },
        {
          "name": "referrer",
          "type": "address"
        }
      ],
      "name": "redeemUTXO",
      "outputs": [
        {
          "name": "tokensRedeemed",
          "type": "uint256"
        }
      ],
      "payable": false,
      "stateMutability": "nonpayable",
      "type": "function"
    },
    {
      "constant": true,
      "inputs": [
        {
          "name": "pubKey",
          "type": "bytes"
        }
      ],
      "name": "pubKeyToEthereumAddress",
      "outputs": [
        {
          "name": "",
          "type": "address"
        }
      ],
      "payable": false,
      "stateMutability": "pure",
      "type": "function"
    },
    {
      "constant": false,
      "inputs": [
        {
          "name": "_spender",
          "type": "address"
        },
        {
          "name": "_subtractedValue",
          "type": "uint256"
        }
      ],
      "name": "decreaseApproval",
      "outputs": [
        {
          "name": "",
          "type": "bool"
        }
      ],
      "payable": false,
      "stateMutability": "nonpayable",
      "type": "function"
    },
    {
      "constant": true,
      "inputs": [
        {
          "name": "_owner",
          "type": "address"
        }
      ],
      "name": "balanceOf",
      "outputs": [
        {
          "name": "",
          "type": "uint256"
        }
      ],
      "payable": false,
      "stateMutability": "view",
      "type": "function"
    },
    {
      "constant": true,
      "inputs": [],
      "name": "launchTime",
      "outputs": [
        {
          "name": "",
          "type": "uint256"
        }
      ],
      "payable": false,
      "stateMutability": "view",
      "type": "function"
    },
    {
      "constant": true,
      "inputs": [
        {
          "name": "merkleLeafHash",
          "type": "bytes32"
        },
        {
          "name": "proof",
          "type": "bytes32[]"
        }
      ],
      "name": "canRedeemUTXOHash",
      "outputs": [
        {
          "name": "",
          "type": "bool"
        }
      ],
      "payable": false,
      "stateMutability": "view",
      "type": "function"
    },
    {
      "constant": true,
      "inputs": [],
      "name": "totalBTCCirculationAtFork",
      "outputs": [
        {
          "name": "",
          "type": "uint256"
        }
      ],
      "payable": false,
      "stateMutability": "view",
      "type": "function"
    },
    {
      "constant": true,
      "inputs": [
        {
          "name": "",
          "type": "address"
        },
        {
          "name": "",
          "type": "uint256"
        }
      ],
      "name": "staked",
      "outputs": [
        {
          "name": "stakeAmount",
          "type": "uint256"
        },
        {
          "name": "stakeTime",
          "type": "uint256"
        },
        {
          "name": "unlockTime",
          "type": "uint256"
        },
        {
          "name": "stakedCoinsAtStart",
          "type": "uint256"
        }
      ],
      "payable": false,
      "stateMutability": "view",
      "type": "function"
    },
    {
      "constant": false,
      "inputs": [],
      "name": "storeWeekUnclaimed",
      "outputs": [],
      "payable": false,
      "stateMutability": "nonpayable",
      "type": "function"
    },
    {
      "constant": true,
      "inputs": [],
      "name": "origin",
      "outputs": [
        {
          "name": "",
          "type": "address"
        }
      ],
      "payable": false,
      "stateMutability": "view",
      "type": "function"
    },
    {
      "constant": true,
      "inputs": [],
      "name": "lastUpdatedWeek",
      "outputs": [
        {
          "name": "",
          "type": "uint256"
        }
      ],
      "payable": false,
      "stateMutability": "view",
      "type": "function"
    },
    {
      "constant": false,
      "inputs": [
        {
          "name": "_to",
          "type": "address"
        },
        {
          "name": "_value",
          "type": "uint256"
        }
      ],
      "name": "transfer",
      "outputs": [
        {
          "name": "",
          "type": "bool"
        }
      ],
      "payable": false,
      "stateMutability": "nonpayable",
      "type": "function"
    },
    {
      "constant": true,
      "inputs": [
        {
          "name": "hash",
          "type": "bytes32"
        },
        {
          "name": "v",
          "type": "uint8"
        },
        {
          "name": "r",
          "type": "bytes32"
        },
        {
          "name": "s",
          "type": "bytes32"
        },
        {
          "name": "expected",
          "type": "address"
        }
      ],
      "name": "validateSignature",
      "outputs": [
        {
          "name": "",
          "type": "bool"
        }
      ],
      "payable": false,
      "stateMutability": "pure",
      "type": "function"
    },
    {
      "constant": true,
      "inputs": [
        {
          "name": "proof",
          "type": "bytes32[]"
        },
        {
          "name": "merkleLeafHash",
          "type": "bytes32"
        }
      ],
      "name": "verifyProof",
      "outputs": [
        {
          "name": "",
          "type": "bool"
        }
      ],
      "payable": false,
      "stateMutability": "view",
      "type": "function"
    },
    {
      "constant": true,
      "inputs": [
        {
          "name": "txid",
          "type": "bytes32"
        },
        {
          "name": "originalAddress",
          "type": "bytes20"
        },
        {
          "name": "outputIndex",
          "type": "uint8"
        },
        {
          "name": "satoshis",
          "type": "uint256"
        },
        {
          "name": "proof",
          "type": "bytes32[]"
        }
      ],
      "name": "canRedeemUTXO",
      "outputs": [
        {
          "name": "",
          "type": "bool"
        }
      ],
      "payable": false,
      "stateMutability": "view",
      "type": "function"
    },
    {
      "constant": true,
      "inputs": [
        {
          "name": "addr",
          "type": "address"
        },
        {
          "name": "pubKey",
          "type": "bytes"
        },
        {
          "name": "v",
          "type": "uint8"
        },
        {
          "name": "r",
          "type": "bytes32"
        },
        {
          "name": "s",
          "type": "bytes32"
        }
      ],
      "name": "ecdsaVerify",
      "outputs": [
        {
          "name": "",
          "type": "bool"
        }
      ],
      "payable": false,
      "stateMutability": "pure",
      "type": "function"
    },
    {
      "constant": true,
      "inputs": [],
      "name": "stakedCoins",
      "outputs": [
        {
          "name": "",
          "type": "uint256"
        }
      ],
      "payable": false,
      "stateMutability": "view",
      "type": "function"
    },
    {
      "constant": false,
      "inputs": [
        {
          "name": "_spender",
          "type": "address"
        },
        {
          "name": "_addedValue",
          "type": "uint256"
        }
      ],
      "name": "increaseApproval",
      "outputs": [
        {
          "name": "",
          "type": "bool"
        }
      ],
      "payable": false,
      "stateMutability": "nonpayable",
      "type": "function"
    },
    {
      "constant": true,
      "inputs": [
        {
          "name": "_owner",
          "type": "address"
        },
        {
          "name": "_spender",
          "type": "address"
        }
      ],
      "name": "allowance",
      "outputs": [
        {
          "name": "",
          "type": "uint256"
        }
      ],
      "payable": false,
      "stateMutability": "view",
      "type": "function"
    },
    {
      "constant": true,
      "inputs": [
        {
          "name": "pubKey",
          "type": "bytes"
        },
        {
          "name": "isCompressed",
          "type": "bool"
        }
      ],
      "name": "pubKeyToBitcoinAddress",
      "outputs": [
        {
          "name": "",
          "type": "bytes20"
        }
      ],
      "payable": false,
      "stateMutability": "pure",
      "type": "function"
    },
    {
      "constant": true,
      "inputs": [],
      "name": "rootUTXOMerkleTreeHash",
      "outputs": [
        {
          "name": "",
          "type": "bytes32"
        }
      ],
      "payable": false,
      "stateMutability": "view",
      "type": "function"
    },
    {
      "constant": true,
      "inputs": [],
      "name": "totalRedeemed",
      "outputs": [
        {
          "name": "",
          "type": "uint256"
        }
      ],
      "payable": false,
      "stateMutability": "view",
      "type": "function"
    },
    {
      "anonymous": false,
      "inputs": [
        {
          "indexed": true,
          "name": "_address",
          "type": "address"
        },
        {
          "indexed": false,
          "name": "_reward",
          "type": "uint256"
        }
      ],
      "name": "Mint",
      "type": "event"
    },
    {
      "anonymous": false,
      "inputs": [
        {
          "indexed": true,
          "name": "owner",
          "type": "address"
        },
        {
          "indexed": true,
          "name": "spender",
          "type": "address"
        },
        {
          "indexed": false,
          "name": "value",
          "type": "uint256"
        }
      ],
      "name": "Approval",
      "type": "event"
    },
    {
      "anonymous": false,
      "inputs": [
        {
          "indexed": true,
          "name": "from",
          "type": "address"
        },
        {
          "indexed": true,
          "name": "to",
          "type": "address"
        },
        {
          "indexed": false,
          "name": "value",
          "type": "uint256"
        }
      ],
      "name": "Transfer",
      "type": "event"
    },
    {
      "constant": false,
      "inputs": [
        {
          "name": "_value",
          "type": "uint256"
        },
        {
          "name": "_unlockTime",
          "type": "uint256"
        }
      ],
      "name": "startStake",
      "outputs": [],
      "payable": false,
      "stateMutability": "nonpayable",
      "type": "function"
    },
    {
      "constant": true,
      "inputs": [
        {
          "name": "staker",
          "type": "address"
        }
      ],
      "name": "getCurrentStaked",
      "outputs": [
        {
          "name": "stakes",
          "type": "uint256"
        }
      ],
      "payable": false,
      "stateMutability": "view",
      "type": "function"
    },
    {
      "constant": false,
      "inputs": [
        {
          "name": "staker",
          "type": "address"
        }
      ],
      "name": "claimStakingRewards",
      "outputs": [],
      "payable": false,
      "stateMutability": "nonpayable",
      "type": "function"
    }
  ],
  "bytecode": "0x6080604052600060055534801561001557600080fd5b50613c51806100256000396000f300608060405260043610610180576000357c0100000000000000000000000000000000000000000000000000000000900463ffffffff16806308b4312b14610185578063095ea7b3146101b0578063128bfcae1461021557806318160ddd1461024c57806323b872dd14610277578063427da275146102fc578063443de10c146103fb5780634ecd81b3146104525780635418796c1461051857806366188463146105c157806370a0823114610626578063790ca4131461067d5780637f761472146106a857806385fcd90b146107345780638f1698161461075f5780639283032c146107d5578063938b5f32146107ec57806396bb1fef146108435780639d65b89214610886578063a9059cbb146108b1578063af1d06e814610916578063b80ac7df146109a8578063ca193e4d14610a34578063ce267b5514610af0578063d0668b3c14610bba578063d73dd62314610be5578063dd62ed3e14610c4a578063e073ef6914610cc1578063e6997f6d14610d68578063f35dad4014610d9b575b600080fd5b34801561019157600080fd5b5061019a610dc6565b6040518082815260200191505060405180910390f35b3480156101bc57600080fd5b506101fb600480360381019080803573ffffffffffffffffffffffffffffffffffffffff16906020019092919080359060200190929190505050610dcc565b604051808215151515815260200191505060405180910390f35b34801561022157600080fd5b5061024a6004803603810190808035906020019092919080359060200190929190505050610ebe565b005b34801561025857600080fd5b5061026161118e565b6040518082815260200191505060405180910390f35b34801561028357600080fd5b506102e2600480360381019080803573ffffffffffffffffffffffffffffffffffffffff169060200190929190803573ffffffffffffffffffffffffffffffffffffffff16906020019092919080359060200190929190505050611198565b604051808215151515815260200191505060405180910390f35b34801561030857600080fd5b506103e56004803603810190808035906020019092919080359060200190820180359060200190808060200260200160405190810160405280939291908181526020018383602002808284378201915050505050509192919290803590602001908201803590602001908080601f0160208091040260200160405190810160405280939291908181526020018383808284378201915050505050509192919290803515159060200190929190803560ff16906020019092919080356000191690602001909291908035600019169060200190929190505050611552565b6040518082815260200191505060405180910390f35b34801561040757600080fd5b5061043c600480360381019080803573ffffffffffffffffffffffffffffffffffffffff16906020019092919050505061181d565b6040518082815260200191505060405180910390f35b34801561045e57600080fd5b5061050260048036038101908080359060200190929190803590602001908201803590602001919091929391929390803590602001908201803590602001919091929391929390803515159060200190929190803560ff16906020019092919080356000191690602001909291908035600019169060200190929190803573ffffffffffffffffffffffffffffffffffffffff169060200190929190505050611a9f565b6040518082815260200191505060405180910390f35b34801561052457600080fd5b5061057f600480360381019080803590602001908201803590602001908080601f0160208091040260200160405190810160405280939291908181526020018383808284378201915050505050509192919290505050611bf8565b604051808273ffffffffffffffffffffffffffffffffffffffff1673ffffffffffffffffffffffffffffffffffffffff16815260200191505060405180910390f35b3480156105cd57600080fd5b5061060c600480360381019080803573ffffffffffffffffffffffffffffffffffffffff16906020019092919080359060200190929190505050611c7e565b604051808215151515815260200191505060405180910390f35b34801561063257600080fd5b50610667600480360381019080803573ffffffffffffffffffffffffffffffffffffffff169060200190929190505050611f0f565b6040518082815260200191505060405180910390f35b34801561068957600080fd5b50610692611f57565b6040518082815260200191505060405180910390f35b3480156106b457600080fd5b5061071a600480360381019080803560001916906020019092919080359060200190820180359060200190808060200260200160405190810160405280939291908181526020018383602002808284378201915050505050509192919290505050611f5d565b604051808215151515815260200191505060405180910390f35b34801561074057600080fd5b50610749611fa8565b6040518082815260200191505060405180910390f35b34801561076b57600080fd5b506107aa600480360381019080803573ffffffffffffffffffffffffffffffffffffffff16906020019092919080359060200190929190505050611fae565b6040518085815260200184815260200183815260200182815260200194505050505060405180910390f35b3480156107e157600080fd5b506107ea611ffa565b005b3480156107f857600080fd5b50610801612094565b604051808273ffffffffffffffffffffffffffffffffffffffff1673ffffffffffffffffffffffffffffffffffffffff16815260200191505060405180910390f35b34801561084f57600080fd5b50610884600480360381019080803573ffffffffffffffffffffffffffffffffffffffff1690602001909291905050506120ba565b005b34801561089257600080fd5b5061089b61285d565b6040518082815260200191505060405180910390f35b3480156108bd57600080fd5b506108fc600480360381019080803573ffffffffffffffffffffffffffffffffffffffff16906020019092919080359060200190929190505050612863565b604051808215151515815260200191505060405180910390f35b34801561092257600080fd5b5061098e6004803603810190808035600019169060200190929190803560ff16906020019092919080356000191690602001909291908035600019169060200190929190803573ffffffffffffffffffffffffffffffffffffffff169060200190929190505050612a82565b604051808215151515815260200191505060405180910390f35b3480156109b457600080fd5b50610a1a600480360381019080803590602001908201803590602001908080602002602001604051908101604052809392919081815260200183836020028082843782019150505050505091929192908035600019169060200190929190505050612b3e565b604051808215151515815260200191505060405180910390f35b348015610a4057600080fd5b50610ad6600480360381019080803560001916906020019092919080356bffffffffffffffffffffffff19169060200190929190803560ff1690602001909291908035906020019092919080359060200190820180359060200190808060200260200160405190810160405280939291908181526020018383602002808284378201915050505050509192919290505050612b55565b604051808215151515815260200191505060405180910390f35b348015610afc57600080fd5b50610ba0600480360381019080803573ffffffffffffffffffffffffffffffffffffffff169060200190929190803590602001908201803590602001908080601f0160208091040260200160405190810160405280939291908181526020018383808284378201915050505050509192919290803560ff16906020019092919080356000191690602001909291908035600019169060200190929190505050612c58565b604051808215151515815260200191505060405180910390f35b348015610bc657600080fd5b50610bcf612d75565b6040518082815260200191505060405180910390f35b348015610bf157600080fd5b50610c30600480360381019080803573ffffffffffffffffffffffffffffffffffffffff16906020019092919080359060200190929190505050612d7b565b604051808215151515815260200191505060405180910390f35b348015610c5657600080fd5b50610cab600480360381019080803573ffffffffffffffffffffffffffffffffffffffff169060200190929190803573ffffffffffffffffffffffffffffffffffffffff169060200190929190505050612f77565b6040518082815260200191505060405180910390f35b348015610ccd57600080fd5b50610d34600480360381019080803590602001908201803590602001908080601f0160208091040260200160405190810160405280939291908181526020018383808284378201915050505050509192919290803515159060200190929190505050612ffe565b60405180826bffffffffffffffffffffffff19166bffffffffffffffffffffffff1916815260200191505060405180910390f35b348015610d7457600080fd5b50610d7d6133bd565b60405180826000191660001916815260200191505060405180910390f35b348015610da757600080fd5b50610db06133c3565b6040518082815260200191505060405180910390f35b600a5481565b600081600260003373ffffffffffffffffffffffffffffffffffffffff1673ffffffffffffffffffffffffffffffffffffffff16815260200190815260200160002060008573ffffffffffffffffffffffffffffffffffffffff1673ffffffffffffffffffffffffffffffffffffffff168152602001908152602001600020819055508273ffffffffffffffffffffffffffffffffffffffff163373ffffffffffffffffffffffffffffffffffffffff167f8c5be1e5ebec7d5bd14f71427d1e84f3dd0314c0f7b2291e5b200ac8c7c3b925846040518082815260200191505060405180910390a36001905092915050565b6000339050826000808373ffffffffffffffffffffffffffffffffffffffff1673ffffffffffffffffffffffffffffffffffffffff1681526020019081526020016000205410151515610f1057600080fd5b610f18611ffa565b610f69836000808473ffffffffffffffffffffffffffffffffffffffff1673ffffffffffffffffffffffffffffffffffffffff168152602001908152602001600020546133c990919063ffffffff16565b6000808373ffffffffffffffffffffffffffffffffffffffff1673ffffffffffffffffffffffffffffffffffffffff16815260200190815260200160002081905550610ffc836000803073ffffffffffffffffffffffffffffffffffffffff1673ffffffffffffffffffffffffffffffffffffffff168152602001908152602001600020546133e290919063ffffffff16565b6000803073ffffffffffffffffffffffffffffffffffffffff1673ffffffffffffffffffffffffffffffffffffffff168152602001908152602001600020819055503073ffffffffffffffffffffffffffffffffffffffff168173ffffffffffffffffffffffffffffffffffffffff167fddf252ad1be2c89b69c2b068fc378daa952ba7f163c4a11628f55a4df523b3ef856040518082815260200191505060405180910390a3600d60008273ffffffffffffffffffffffffffffffffffffffff1673ffffffffffffffffffffffffffffffffffffffff168152602001908152602001600020608060405190810160405280856fffffffffffffffffffffffffffffffff168152602001428152602001848152602001600c54815250908060018154018082558091505090600182039060005260206000209060040201600090919290919091506000820151816000015560208201518160010155604082015181600201556060820151816003015550505061118383600c546133e290919063ffffffff16565b600c81905550505050565b6000600154905090565b60008073ffffffffffffffffffffffffffffffffffffffff168373ffffffffffffffffffffffffffffffffffffffff16141515156111d557600080fd5b6000808573ffffffffffffffffffffffffffffffffffffffff1673ffffffffffffffffffffffffffffffffffffffff16815260200190815260200160002054821115151561122257600080fd5b600260008573ffffffffffffffffffffffffffffffffffffffff1673ffffffffffffffffffffffffffffffffffffffff16815260200190815260200160002060003373ffffffffffffffffffffffffffffffffffffffff1673ffffffffffffffffffffffffffffffffffffffff1681526020019081526020016000205482111515156112ad57600080fd5b6112fe826000808773ffffffffffffffffffffffffffffffffffffffff1673ffffffffffffffffffffffffffffffffffffffff168152602001908152602001600020546133c990919063ffffffff16565b6000808673ffffffffffffffffffffffffffffffffffffffff1673ffffffffffffffffffffffffffffffffffffffff16815260200190815260200160002081905550611391826000808673ffffffffffffffffffffffffffffffffffffffff1673ffffffffffffffffffffffffffffffffffffffff168152602001908152602001600020546133e290919063ffffffff16565b6000808573ffffffffffffffffffffffffffffffffffffffff1673ffffffffffffffffffffffffffffffffffffffff1681526020019081526020016000208190555061146282600260008773ffffffffffffffffffffffffffffffffffffffff1673ffffffffffffffffffffffffffffffffffffffff16815260200190815260200160002060003373ffffffffffffffffffffffffffffffffffffffff1673ffffffffffffffffffffffffffffffffffffffff168152602001908152602001600020546133c990919063ffffffff16565b600260008673ffffffffffffffffffffffffffffffffffffffff1673ffffffffffffffffffffffffffffffffffffffff16815260200190815260200160002060003373ffffffffffffffffffffffffffffffffffffffff1673ffffffffffffffffffffffffffffffffffffffff168152602001908152602001600020819055508273ffffffffffffffffffffffffffffffffffffffff168473ffffffffffffffffffffffffffffffffffffffff167fddf252ad1be2c89b69c2b068fc378daa952ba7f163c4a11628f55a4df523b3ef846040518082815260200191505060405180910390a3600190509392505050565b600080600061155f611ffa565b603261158b62093a8061157d600454426133c990919063ffffffff16565b6133fe90919063ffffffff16565b10151561159757600080fd5b6115a18888612ffe565b9150818a60405160200180836bffffffffffffffffffffffff19166bffffffffffffffffffffffff19168152601401828152602001925050506040516020818303038152906040526040518082805190602001908083835b60208310151561161e57805182526020820191506020810190506020830392506115f9565b6001836020036101000a03801982511681845116808217855250505050505090500191505060405180910390209050611657818a611f5d565b151561166257600080fd5b61166f3389888888612c58565b151561167a57600080fd5b600160086000836000191660001916815260200190815260200160002060006101000a81548160ff0219169083151502179055506116b78a613414565b9250600a546116d1846009546133e290919063ffffffff16565b111515156116de57600080fd5b6116f3836009546133e290919063ffffffff16565b60098190555061174a836000803373ffffffffffffffffffffffffffffffffffffffff1673ffffffffffffffffffffffffffffffffffffffff168152602001908152602001600020546133e290919063ffffffff16565b6000803373ffffffffffffffffffffffffffffffffffffffff1673ffffffffffffffffffffffffffffffffffffffff168152602001908152602001600020819055506117a1836001546133e290919063ffffffff16565b6001819055503373ffffffffffffffffffffffffffffffffffffffff16600073ffffffffffffffffffffffffffffffffffffffff167fddf252ad1be2c89b69c2b068fc378daa952ba7f163c4a11628f55a4df523b3ef856040518082815260200191505060405180910390a38292505050979650505050505050565b60008060005b600d60008573ffffffffffffffffffffffffffffffffffffffff1673ffffffffffffffffffffffffffffffffffffffff16815260200190815260200160002080549050821015611a95576118dd600d60008673ffffffffffffffffffffffffffffffffffffffff1673ffffffffffffffffffffffffffffffffffffffff168152602001908152602001600020838154811015156118bc57fe5b906000526020600020906004020160000154846133e290919063ffffffff16565b9250600d60008573ffffffffffffffffffffffffffffffffffffffff1673ffffffffffffffffffffffffffffffffffffffff1681526020019081526020016000208281548110151561192b57fe5b906000526020600020906004020160020154421115611a88576119da600d60008673ffffffffffffffffffffffffffffffffffffffff1673ffffffffffffffffffffffffffffffffffffffff1681526020019081526020016000208381548110151561199357fe5b90600052602060002090600402016080604051908101604052908160008201548152602001600182015481526020016002820154815260200160038201548152505061377d565b9050611a85611a76600d60008773ffffffffffffffffffffffffffffffffffffffff1673ffffffffffffffffffffffffffffffffffffffff16815260200190815260200160002084815481101515611a2e57fe5b90600052602060002090600402016080604051908101604052908160008201548152602001600182015481526020016002820154815260200160038201548152505083613865565b846133e290919063ffffffff16565b92505b8180600101925050611823565b8292505050919050565b6000611b118b8b8b808060200260200160405190810160405280939291908181526020018383602002808284378201915050505050508a8a8080601f01602080910402602001604051908101604052809392919081815260200183838082843782019150505050505089898989611552565b9050611b77611b2a6014836133fe90919063ffffffff16565b6000808573ffffffffffffffffffffffffffffffffffffffff1673ffffffffffffffffffffffffffffffffffffffff168152602001908152602001600020546133e290919063ffffffff16565b6000808473ffffffffffffffffffffffffffffffffffffffff1673ffffffffffffffffffffffffffffffffffffffff16815260200190815260200160002081905550611be1611bd06014836133fe90919063ffffffff16565b6001546133e290919063ffffffff16565b6001819055508090509a9950505050505050505050565b600073ffffffffffffffffffffffffffffffffffffffff826040518082805190602001908083835b602083101515611c455780518252602082019150602081019050602083039250611c20565b6001836020036101000a038019825116818451168082178552505050505050905001915050604051809103902060019004169050919050565b600080600260003373ffffffffffffffffffffffffffffffffffffffff1673ffffffffffffffffffffffffffffffffffffffff16815260200190815260200160002060008573ffffffffffffffffffffffffffffffffffffffff1673ffffffffffffffffffffffffffffffffffffffff16815260200190815260200160002054905080831115611d8f576000600260003373ffffffffffffffffffffffffffffffffffffffff1673ffffffffffffffffffffffffffffffffffffffff16815260200190815260200160002060008673ffffffffffffffffffffffffffffffffffffffff1673ffffffffffffffffffffffffffffffffffffffff16815260200190815260200160002081905550611e23565b611da283826133c990919063ffffffff16565b600260003373ffffffffffffffffffffffffffffffffffffffff1673ffffffffffffffffffffffffffffffffffffffff16815260200190815260200160002060008673ffffffffffffffffffffffffffffffffffffffff1673ffffffffffffffffffffffffffffffffffffffff168152602001908152602001600020819055505b8373ffffffffffffffffffffffffffffffffffffffff163373ffffffffffffffffffffffffffffffffffffffff167f8c5be1e5ebec7d5bd14f71427d1e84f3dd0314c0f7b2291e5b200ac8c7c3b925600260003373ffffffffffffffffffffffffffffffffffffffff1673ffffffffffffffffffffffffffffffffffffffff16815260200190815260200160002060008873ffffffffffffffffffffffffffffffffffffffff1673ffffffffffffffffffffffffffffffffffffffff168152602001908152602001600020546040518082815260200191505060405180910390a3600191505092915050565b60008060008373ffffffffffffffffffffffffffffffffffffffff1673ffffffffffffffffffffffffffffffffffffffff168152602001908152602001600020549050919050565b60045481565b600080151560086000856000191660001916815260200190815260200160002060009054906101000a900460ff161515148015611fa05750611f9f8284612b3e565b5b905092915050565b600b5481565b600d60205281600052604060002081815481101515611fc957fe5b9060005260206000209060040201600091509150508060000154908060010154908060020154908060030154905084565b60008061202762093a80612019600454426133c990919063ffffffff16565b6133fe90919063ffffffff16565b915060338210801561203a575060055482115b1561209057612056600954600a546133c990919063ffffffff16565b9050602060405190810160405280828152506006600084815260200190815260200160002060008201518160000155905050816005819055505b5050565b600360009054906101000a900473ffffffffffffffffffffffffffffffffffffffff1681565b60008060006120c7611ffa565b5b600d60008573ffffffffffffffffffffffffffffffffffffffff1673ffffffffffffffffffffffffffffffffffffffff1681526020019081526020016000208054905083101561285757600d60008573ffffffffffffffffffffffffffffffffffffffff1673ffffffffffffffffffffffffffffffffffffffff1681526020019081526020016000208381548110151561215e57fe5b90600052602060002090600402016002015442111561284a576121e9600d60008673ffffffffffffffffffffffffffffffffffffffff1673ffffffffffffffffffffffffffffffffffffffff168152602001908152602001600020848154811015156121c657fe5b906000526020600020906004020160000154600c546133c990919063ffffffff16565b600c8190555061229d600d60008673ffffffffffffffffffffffffffffffffffffffff1673ffffffffffffffffffffffffffffffffffffffff1681526020019081526020016000208481548110151561223e57fe5b9060005260206000209060040201600001546000803073ffffffffffffffffffffffffffffffffffffffff1673ffffffffffffffffffffffffffffffffffffffff168152602001908152602001600020546133c990919063ffffffff16565b6000803073ffffffffffffffffffffffffffffffffffffffff1673ffffffffffffffffffffffffffffffffffffffff1681526020019081526020016000208190555061238d600d60008673ffffffffffffffffffffffffffffffffffffffff1673ffffffffffffffffffffffffffffffffffffffff1681526020019081526020016000208481548110151561232e57fe5b9060005260206000209060040201600001546000808773ffffffffffffffffffffffffffffffffffffffff1673ffffffffffffffffffffffffffffffffffffffff168152602001908152602001600020546133e290919063ffffffff16565b6000808673ffffffffffffffffffffffffffffffffffffffff1673ffffffffffffffffffffffffffffffffffffffff168152602001908152602001600020819055508373ffffffffffffffffffffffffffffffffffffffff163073ffffffffffffffffffffffffffffffffffffffff167fddf252ad1be2c89b69c2b068fc378daa952ba7f163c4a11628f55a4df523b3ef600d60008873ffffffffffffffffffffffffffffffffffffffff1673ffffffffffffffffffffffffffffffffffffffff1681526020019081526020016000208681548110151561246a57fe5b9060005260206000209060040201600001546040518082815260200191505060405180910390a3612527600d60008673ffffffffffffffffffffffffffffffffffffffff1673ffffffffffffffffffffffffffffffffffffffff168152602001908152602001600020848154811015156124e057fe5b90600052602060002090600402016080604051908101604052908160008201548152602001600182015481526020016002820154815260200160038201548152505061377d565b91506125d26125c3600d60008773ffffffffffffffffffffffffffffffffffffffff1673ffffffffffffffffffffffffffffffffffffffff1681526020019081526020016000208581548110151561257b57fe5b90600052602060002090600402016080604051908101604052908160008201548152602001600182015481526020016002820154815260200160038201548152505084613865565b826133e290919063ffffffff16565b9050612625816000808773ffffffffffffffffffffffffffffffffffffffff1673ffffffffffffffffffffffffffffffffffffffff168152602001908152602001600020546133e290919063ffffffff16565b6000808673ffffffffffffffffffffffffffffffffffffffff1673ffffffffffffffffffffffffffffffffffffffff168152602001908152602001600020819055506126ec61267d83836133c990919063ffffffff16565b600080600360009054906101000a900473ffffffffffffffffffffffffffffffffffffffff1673ffffffffffffffffffffffffffffffffffffffff1673ffffffffffffffffffffffffffffffffffffffff168152602001908152602001600020546133e290919063ffffffff16565b600080600360009054906101000a900473ffffffffffffffffffffffffffffffffffffffff1673ffffffffffffffffffffffffffffffffffffffff1673ffffffffffffffffffffffffffffffffffffffff168152602001908152602001600020819055506127786127676002836138c490919063ffffffff16565b6001546133e290919063ffffffff16565b600181905550600d60008573ffffffffffffffffffffffffffffffffffffffff1673ffffffffffffffffffffffffffffffffffffffff168152602001908152602001600020838154811015156127ca57fe5b906000526020600020906004020160008082016000905560018201600090556002820160009055600382016000905550508373ffffffffffffffffffffffffffffffffffffffff167f0f6798a560793a54c3bcfe86a93cde1e73087d944c0ea20544137d4121396885826040518082815260200191505060405180910390a25b82806001019350506120c8565b50505050565b60055481565b60008073ffffffffffffffffffffffffffffffffffffffff168373ffffffffffffffffffffffffffffffffffffffff16141515156128a057600080fd5b6000803373ffffffffffffffffffffffffffffffffffffffff1673ffffffffffffffffffffffffffffffffffffffff1681526020019081526020016000205482111515156128ed57600080fd5b61293e826000803373ffffffffffffffffffffffffffffffffffffffff1673ffffffffffffffffffffffffffffffffffffffff168152602001908152602001600020546133c990919063ffffffff16565b6000803373ffffffffffffffffffffffffffffffffffffffff1673ffffffffffffffffffffffffffffffffffffffff168152602001908152602001600020819055506129d1826000808673ffffffffffffffffffffffffffffffffffffffff1673ffffffffffffffffffffffffffffffffffffffff168152602001908152602001600020546133e290919063ffffffff16565b6000808573ffffffffffffffffffffffffffffffffffffffff1673ffffffffffffffffffffffffffffffffffffffff168152602001908152602001600020819055508273ffffffffffffffffffffffffffffffffffffffff163373ffffffffffffffffffffffffffffffffffffffff167fddf252ad1be2c89b69c2b068fc378daa952ba7f163c4a11628f55a4df523b3ef846040518082815260200191505060405180910390a36001905092915050565b60008173ffffffffffffffffffffffffffffffffffffffff16600187878787604051600081526020016040526040518085600019166000191681526020018460ff1660ff1681526020018360001916600019168152602001826000191660001916815260200194505050505060206040516020810390808403906000865af1158015612b12573d6000803e3d6000fd5b5050506020604051035173ffffffffffffffffffffffffffffffffffffffff1614905095945050505050565b6000612b4d83600754846138fc565b905092915050565b60008086868686604051602001808560001916600019168152602001846bffffffffffffffffffffffff19166bffffffffffffffffffffffff191681526014018360ff1660ff167f01000000000000000000000000000000000000000000000000000000000000000281526001018281526020019450505050506040516020818303038152906040526040518082805190602001908083835b602083101515612c135780518252602082019150602081019050602083039250612bee565b6001836020036101000a03801982511681845116808217855250505050505090500191505060405180910390209050612c4c8184611f5d565b91505095945050505050565b6000612d6a600287604051602001808273ffffffffffffffffffffffffffffffffffffffff1673ffffffffffffffffffffffffffffffffffffffff166c010000000000000000000000000281526014019150506040516020818303038152906040526040518082805190602001908083835b602083101515612cef5780518252602082019150602081019050602083039250612cca565b6001836020036101000a0380198251168184511680821785525050505050509050019150506020604051808303816000865af1158015612d33573d6000803e3d6000fd5b5050506040513d6020811015612d4857600080fd5b8101908080519060200190929190505050858585612d658a611bf8565b612a82565b905095945050505050565b600c5481565b6000612e0c82600260003373ffffffffffffffffffffffffffffffffffffffff1673ffffffffffffffffffffffffffffffffffffffff16815260200190815260200160002060008673ffffffffffffffffffffffffffffffffffffffff1673ffffffffffffffffffffffffffffffffffffffff168152602001908152602001600020546133e290919063ffffffff16565b600260003373ffffffffffffffffffffffffffffffffffffffff1673ffffffffffffffffffffffffffffffffffffffff16815260200190815260200160002060008573ffffffffffffffffffffffffffffffffffffffff1673ffffffffffffffffffffffffffffffffffffffff168152602001908152602001600020819055508273ffffffffffffffffffffffffffffffffffffffff163373ffffffffffffffffffffffffffffffffffffffff167f8c5be1e5ebec7d5bd14f71427d1e84f3dd0314c0f7b2291e5b200ac8c7c3b925600260003373ffffffffffffffffffffffffffffffffffffffff1673ffffffffffffffffffffffffffffffffffffffff16815260200190815260200160002060008773ffffffffffffffffffffffffffffffffffffffff1673ffffffffffffffffffffffffffffffffffffffff168152602001908152602001600020546040518082815260200191505060405180910390a36001905092915050565b6000600260008473ffffffffffffffffffffffffffffffffffffffff1673ffffffffffffffffffffffffffffffffffffffff16815260200190815260200160002060008373ffffffffffffffffffffffffffffffffffffffff1673ffffffffffffffffffffffffffffffffffffffff16815260200190815260200160002054905092915050565b60008060008061300f8660006139c7565b6001900492506130208660206139c7565b60019004915084156131fc57600060028381151561303a57fe5b061461304757600361304a565b60025b9050600360028285604051602001808360ff1660ff167f0100000000000000000000000000000000000000000000000000000000000000028152600101828152602001925050506040516020818303038152906040526040518082805190602001908083835b6020831015156130d557805182526020820191506020810190506020830392506130b0565b6001836020036101000a0380198251168184511680821785525050505050509050019150506020604051808303816000865af1158015613119573d6000803e3d6000fd5b5050506040513d602081101561312e57600080fd5b81019080805190602001909291905050506040516020018082600019166000191681526020019150506040516020818303038152906040526040518082805190602001908083835b60208310151561319b5780518252602082019150602081019050602083039250613176565b6001836020036101000a0380198251168184511680821785525050505050509050019150506020604051808303816000865af11580156131df573d6000803e3d6000fd5b505050604051516c010000000000000000000000000293506133b4565b6004905060036002828585604051602001808460ff1660ff167f010000000000000000000000000000000000000000000000000000000000000002815260010183815260200182815260200193505050506040516020818303038152906040526040518082805190602001908083835b602083101515613291578051825260208201915060208101905060208303925061326c565b6001836020036101000a0380198251168184511680821785525050505050509050019150506020604051808303816000865af11580156132d5573d6000803e3d6000fd5b5050506040513d60208110156132ea57600080fd5b81019080805190602001909291905050506040516020018082600019166000191681526020019150506040516020818303038152906040526040518082805190602001908083835b6020831015156133575780518252602082019150602081019050602083039250613332565b6001836020036101000a0380198251168184511680821785525050505050509050019150506020604051808303816000865af115801561339b573d6000803e3d6000fd5b505050604051516c010000000000000000000000000293505b50505092915050565b60075481565b60095481565b60008282111515156133d757fe5b818303905092915050565b600081830190508281101515156133f557fe5b80905092915050565b6000818381151561340b57fe5b04905092915050565b600080600080600085935061344962093a8061343b600454426133c990919063ffffffff16565b6133fe90919063ffffffff16565b92506134726134626002856138c490919063ffffffff16565b60646133c990919063ffffffff16565b9150683635c9adc5dea0000084111561350b5769152d02c7e14af68000008410156134f3576134ec640ba43b74006134de60096134d060026134c264174876e8008b6133c990919063ffffffff16565b6138c490919063ffffffff16565b6133fe90919063ffffffff16565b6133e290919063ffffffff16565b935061350a565b6135076004856133fe90919063ffffffff16565b93505b5b613548606461353a6402540be40061352c86896138c490919063ffffffff16565b6138c490919063ffffffff16565b6133fe90919063ffffffff16565b9050602d83111561355b57809450613774565b60208311156135925761358b606461357d6065846138c490919063ffffffff16565b6133fe90919063ffffffff16565b9450613774565b60188311156135c9576135c260646135b46066846138c490919063ffffffff16565b6133fe90919063ffffffff16565b9450613774565b6012831115613600576135f960646135eb6067846138c490919063ffffffff16565b6133fe90919063ffffffff16565b9450613774565b600e8311156136375761363060646136226068846138c490919063ffffffff16565b6133fe90919063ffffffff16565b9450613774565b600a83111561366e5761366760646136596069846138c490919063ffffffff16565b6133fe90919063ffffffff16565b9450613774565b60078311156136a55761369e6064613690606a846138c490919063ffffffff16565b6133fe90919063ffffffff16565b9450613774565b60058311156136dc576136d560646136c7606b846138c490919063ffffffff16565b6133fe90919063ffffffff16565b9450613774565b60038311156137135761370c60646136fe606c846138c490919063ffffffff16565b6133fe90919063ffffffff16565b9450613774565b600183111561374a576137436064613735606d846138c490919063ffffffff16565b6133fe90919063ffffffff16565b9450613774565b6137716064613763606e846138c490919063ffffffff16565b6133fe90919063ffffffff16565b94505b50505050919050565b6000806000806000606493506137b56001546137a7606489606001516138c490919063ffffffff16565b6133fe90919063ffffffff16565b92506137ca83856133fe90919063ffffffff16565b93506137f8620d2f006137ea8860200151426133c990919063ffffffff16565b6133fe90919063ffffffff16565b915061380986600001518386613aa3565b905061385a866000015161384c8361383e6103e861383088886138c490919063ffffffff16565b6133fe90919063ffffffff16565b6133e290919063ffffffff16565b6133c990919063ffffffff16565b945050505050919050565b600061388261387384613ac4565b836133e290919063ffffffff16565b90506138b961389082613b9b565b6138ab61389c84613be0565b846133e290919063ffffffff16565b6133e290919063ffffffff16565b905080905092915050565b6000808314156138d757600090506138f6565b81830290508183828115156138e857fe5b041415156138f257fe5b8090505b92915050565b600080600080849250600091505b86518210156139b057868281518110151561392157fe5b906020019060200201519050806000191683600019161015613972578281604051808360001916600019168152602001826000191660001916815260200192505050604051809103902092506139a3565b8083604051808360001916600019168152602001826000191660001916815260200192505050604051809103902092505b818060010192505061390a565b856000191683600019161493505050509392505050565b600080600090505b6020811015613a995760088102848483018151811015156139ec57fe5b9060200101517f010000000000000000000000000000000000000000000000000000000000000090047f0100000000000000000000000000000000000000000000000000000000000000027effffffffffffffffffffffffffffffffffffffffffffffffffffffffffffff19167fff0000000000000000000000000000000000000000000000000000000000000060010216600019169060020a90048218915080806001019150506139cf565b8191505092915050565b60008260640a83836064010a8502811515613aba57fe5b0490509392505050565b600080600080613af862093a80613aea60045488602001516133c990919063ffffffff16565b6133fe90919063ffffffff16565b9250613b2462093a80613b16600454426133c990919063ffffffff16565b6133fe90919063ffffffff16565b91508290505b81811015613b9357613b84613b756032613b67886000015160066000878152602001908152602001600020600001546138c490919063ffffffff16565b6133fe90919063ffffffff16565b856133e290919063ffffffff16565b93508080600101915050613b2a565b505050919050565b6000613bd9600a613bcb600a54613bbd600954876138c490919063ffffffff16565b6133fe90919063ffffffff16565b6133fe90919063ffffffff16565b9050919050565b6000613c1e600a613c10600b54613c02600954876138c490919063ffffffff16565b6133fe90919063ffffffff16565b6133fe90919063ffffffff16565b90509190505600a165627a7a723058206aaed60eb0ea9d0ec8c1c1d966870f4845df25f38a17e2f995b7db7a6b777b730029",
  "source": "pragma solidity ^0.4.23;\n\nimport \"./UTXORedeemableToken.sol\";\n\n/* solium-disable security/no-block-members */\n\n\ncontract StakeableToken is UTXORedeemableToken {\n\n    event Mint(address indexed _address, uint _reward);\n\n    uint256 public totalBTCCirculationAtFork;\n\n    uint256 public stakedCoins;\n\n    struct StakeStruct {\n        uint256 stakeAmount;\n        uint256 stakeTime;\n        uint256 unlockTime;\n        uint256 stakedCoinsAtStart;\n    }\n\n    mapping(address => StakeStruct[]) public staked;\n\n    function compound(uint256 _principle, uint256 _periods, uint256 _interestRateTimesHundred) internal pure returns (uint256) {\n        /* Calculate compound interest */\n        return (_principle * (100 + _interestRateTimesHundred) ** _periods)/(100 ** _periods);\n    }\n\n    function startStake(uint256 _value, uint256 _unlockTime) external {\n        address staker = msg.sender;\n\n        /* Make sure staker has enough funds */\n        require(balances[staker] >= _value);\n\n        /* Check if weekly data needs to be updated */\n        storeWeekUnclaimed();\n\n        /* Remove balance from sender */\n        balances[staker] = balances[staker].sub(_value);\n        balances[address(this)] = balances[address(this)].add(_value);\n        emit Transfer(staker, address(this), _value);\n\n        /* Create Stake */\n        staked[staker].push(\n          StakeStruct(\n            uint128(_value), \n            block.timestamp, \n            _unlockTime, \n            stakedCoins\n          )\n        );\n\n        /* Add staked coins to global stake counter */\n        stakedCoins = stakedCoins.add(_value);\n    }\n\n    function calculateWeAreAllSatoshiRewards(StakeStruct stake) internal view returns (uint256 rewards) {\n        /* Calculate what week stake was opened */\n        uint256 startWeek = stake.stakeTime.sub(launchTime).div(7 days);\n\n        /* Calculate current week */\n        uint256 weeksSinceLaunch = block.timestamp.sub(launchTime).div(7 days);\n\n        /* Award 2% of unclaimed coins at end of every week */\n        for (uint256 i = startWeek; i < weeksSinceLaunch; i++) {\n            rewards = rewards.add(weekData[i].unclaimedCoins.mul(stake.stakeAmount).div(50));\n        }\n    }\n\n    function calculateViralRewards(uint256 rewards) internal view returns (uint256) {\n        /* Add bonus percentage to rewards from 0-10% based on adoption */\n        return rewards.mul(totalRedeemed).div(totalBTCCirculationAtFork).div(10);\n    }\n\n    function calculateCritMassRewards(uint256 rewards) internal view returns (uint256) {\n        /* Add bonus percentage to rewards from 0-10% based on adoption */\n        return rewards.mul(totalRedeemed).div(maximumRedeemable).div(10);\n    }\n\n    function calculateStakingRewards(StakeStruct stake) internal view returns (uint256) {\n        /* Base interest rate */\n        uint256 interestRateTimesHundred = 100;\n\n        /* Calculate Adoption Percent Scaler */\n        uint256 scaler = stake.stakedCoinsAtStart.mul(100).div(totalSupply_);\n\n        /* Adjust interest rate by scaler */\n        interestRateTimesHundred = interestRateTimesHundred.div(scaler);\n\n        /* Calculate Periods */\n        uint256 periods = block.timestamp.sub(stake.stakeTime).div(10 days);\n\n        /* Compound */\n        uint256 compoundRound = compound(stake.stakeAmount, periods, interestRateTimesHundred);\n\n        /* Calculate final staking rewards with time bonus */\n        return compoundRound.mul(periods).div(1000).add(compoundRound).sub(stake.stakeAmount);\n        \n    }\n\n    function calculateAdditionalRewards(StakeStruct stake, uint256 initRewards) internal view returns (uint256 rewards) {\n        rewards = initRewards.add(calculateWeAreAllSatoshiRewards(stake));\n        rewards = rewards\n            .add(calculateViralRewards(rewards))\n            .add(calculateCritMassRewards(rewards));\n\n        return rewards;\n    }\n\n    function getCurrentStaked(address staker) external view returns(uint256 stakes) {\n        for (uint256 i; i < staked[staker].length; i++) {\n            /* Add Stake Amount */\n            stakes = stakes.add(staked[staker][i].stakeAmount);\n            /* Check if stake has matured */\n            if (block.timestamp > staked[staker][i].unlockTime) {\n                /* Calculate Rewards */\n                uint256 stakingRewards = calculateStakingRewards(staked[staker][i]);\n                stakes = stakes.add(calculateAdditionalRewards(staked[staker][i], stakingRewards));\n            }\n        }\n\n        return stakes;\n    }\n\n    function claimStakingRewards(address staker) external {\n        /* Check if weekly data needs to be updated */\n        storeWeekUnclaimed();\n\n        for (uint256 i; i < staked[staker].length; i++) {\n            /* Check if stake has matured */\n            if (block.timestamp > staked[staker][i].unlockTime) {\n                /* Remove StakedCoins from global counter */\n                stakedCoins = stakedCoins.sub(staked[staker][i].stakeAmount);\n\n                /* Sub staked coins from contract */\n                balances[address(this)] = balances[address(this)].sub(staked[staker][i].stakeAmount);\n                \n                /* Add staked coins to staker */\n                balances[staker] = balances[staker].add(staked[staker][i].stakeAmount);\n\n                emit Transfer(address(this), staker, staked[staker][i].stakeAmount);\n\n                /* Calculate Rewards */\n                uint256 stakingRewards = calculateStakingRewards(staked[staker][i]);\n                uint256 rewards = rewards.add(calculateAdditionalRewards(staked[staker][i], stakingRewards));\n\n                /* Award staking rewards to staker */\n                balances[staker] = balances[staker].add(rewards);\n\n                /* Award rewards to origin contract */\n                balances[origin] = balances[origin].add(rewards.sub(stakingRewards));\n\n                /* Increase supply */\n                totalSupply_ = totalSupply_.add(rewards.mul(2));\n\n                /* Remove Stake */\n                delete staked[staker][i];\n\n                emit Mint(staker, rewards);\n            }\n        }\n    }\n}\n",
  "sourcePath": "/Users/mesquka/Git/Bitcoin Hex/contract/contracts/StakeableToken.sol",
  "compiler": {
    "name": "solc",
    "version": "0.4.24+commit.e67f0147.Emscripten.clang"
  },
  "schemaVersion": "2.0.0",
  "updatedAt": "2018-06-18T14:55:26.340Z"
}