{
  "contractName": "UTXOClaimValidation",
  "abi": [
    {
      "constant": true,
      "inputs": [],
      "name": "name",
      "outputs": [
        {
          "name": "",
          "type": "string"
        }
      ],
      "payable": false,
      "stateMutability": "view",
      "type": "function"
    },
    {
      "constant": false,
      "inputs": [
        {
          "name": "spender",
          "type": "address"
        },
        {
          "name": "value",
          "type": "uint256"
        }
      ],
      "name": "approve",
      "outputs": [
        {
          "name": "",
          "type": "bool"
        }
      ],
      "payable": false,
      "stateMutability": "nonpayable",
      "type": "function"
    },
    {
      "constant": true,
      "inputs": [],
      "name": "totalStakedCoins",
      "outputs": [
        {
          "name": "",
          "type": "uint256"
        }
      ],
      "payable": false,
      "stateMutability": "view",
      "type": "function"
    },
    {
      "constant": true,
      "inputs": [],
      "name": "totalSupply",
      "outputs": [
        {
          "name": "",
          "type": "uint256"
        }
      ],
      "payable": false,
      "stateMutability": "view",
      "type": "function"
    },
    {
      "constant": false,
      "inputs": [
        {
          "name": "from",
          "type": "address"
        },
        {
          "name": "to",
          "type": "address"
        },
        {
          "name": "value",
          "type": "uint256"
        }
      ],
      "name": "transferFrom",
      "outputs": [
        {
          "name": "",
          "type": "bool"
        }
      ],
      "payable": false,
      "stateMutability": "nonpayable",
      "type": "function"
    },
    {
      "constant": true,
      "inputs": [],
      "name": "decimals",
      "outputs": [
        {
          "name": "",
          "type": "uint256"
        }
      ],
      "payable": false,
      "stateMutability": "view",
      "type": "function"
    },
    {
      "constant": false,
      "inputs": [
        {
          "name": "spender",
          "type": "address"
        },
        {
          "name": "addedValue",
          "type": "uint256"
        }
      ],
      "name": "increaseAllowance",
      "outputs": [
        {
          "name": "",
          "type": "bool"
        }
      ],
      "payable": false,
      "stateMutability": "nonpayable",
      "type": "function"
    },
    {
      "constant": false,
      "inputs": [],
      "name": "storeWeeklyData",
      "outputs": [],
      "payable": false,
      "stateMutability": "nonpayable",
      "type": "function"
    },
    {
      "constant": true,
      "inputs": [],
      "name": "redeemedCount",
      "outputs": [
        {
          "name": "",
          "type": "uint256"
        }
      ],
      "payable": false,
      "stateMutability": "view",
      "type": "function"
    },
    {
      "constant": true,
      "inputs": [],
      "name": "rootUtxoMerkleTreeHash",
      "outputs": [
        {
          "name": "",
          "type": "bytes32"
        }
      ],
      "payable": false,
      "stateMutability": "view",
      "type": "function"
    },
    {
      "constant": true,
      "inputs": [
        {
          "name": "owner",
          "type": "address"
        }
      ],
      "name": "balanceOf",
      "outputs": [
        {
          "name": "",
          "type": "uint256"
        }
      ],
      "payable": false,
      "stateMutability": "view",
      "type": "function"
    },
    {
      "constant": true,
      "inputs": [
        {
          "name": "",
          "type": "address"
        },
        {
          "name": "",
          "type": "uint256"
        }
      ],
      "name": "staked",
      "outputs": [
        {
          "name": "stakeAmount",
          "type": "uint256"
        },
        {
          "name": "stakeTime",
          "type": "uint256"
        },
        {
          "name": "unlockTime",
          "type": "uint256"
        },
        {
          "name": "totalStakedCoinsAtStart",
          "type": "uint256"
        },
        {
          "name": "maxOfTotalSupplyVSMaxRedeemableAtStart",
          "type": "uint256"
        }
      ],
      "payable": false,
      "stateMutability": "view",
      "type": "function"
    },
    {
      "constant": true,
      "inputs": [],
      "name": "symbol",
      "outputs": [
        {
          "name": "",
          "type": "string"
        }
      ],
      "payable": false,
      "stateMutability": "view",
      "type": "function"
    },
    {
      "constant": false,
      "inputs": [
        {
          "name": "spender",
          "type": "address"
        },
        {
          "name": "subtractedValue",
          "type": "uint256"
        }
      ],
      "name": "decreaseAllowance",
      "outputs": [
        {
          "name": "",
          "type": "bool"
        }
      ],
      "payable": false,
      "stateMutability": "nonpayable",
      "type": "function"
    },
    {
      "constant": false,
      "inputs": [
        {
          "name": "to",
          "type": "address"
        },
        {
          "name": "value",
          "type": "uint256"
        }
      ],
      "name": "transfer",
      "outputs": [
        {
          "name": "",
          "type": "bool"
        }
      ],
      "payable": false,
      "stateMutability": "nonpayable",
      "type": "function"
    },
    {
      "constant": true,
      "inputs": [
        {
          "name": "owner",
          "type": "address"
        },
        {
          "name": "spender",
          "type": "address"
        }
      ],
      "name": "allowance",
      "outputs": [
        {
          "name": "",
          "type": "uint256"
        }
      ],
      "payable": false,
      "stateMutability": "view",
      "type": "function"
    },
    {
      "constant": true,
      "inputs": [],
      "name": "totalRedeemed",
      "outputs": [
        {
          "name": "",
          "type": "uint256"
        }
      ],
      "payable": false,
      "stateMutability": "view",
      "type": "function"
    },
    {
      "anonymous": false,
      "inputs": [
        {
          "indexed": true,
          "name": "from",
          "type": "address"
        },
        {
          "indexed": true,
          "name": "to",
          "type": "address"
        },
        {
          "indexed": false,
          "name": "value",
          "type": "uint256"
        }
      ],
      "name": "Transfer",
      "type": "event"
    },
    {
      "anonymous": false,
      "inputs": [
        {
          "indexed": true,
          "name": "owner",
          "type": "address"
        },
        {
          "indexed": true,
          "name": "spender",
          "type": "address"
        },
        {
          "indexed": false,
          "name": "value",
          "type": "uint256"
        }
      ],
      "name": "Approval",
      "type": "event"
    },
    {
      "constant": true,
      "inputs": [
        {
          "name": "_hash",
          "type": "bytes32"
        },
        {
          "name": "_v",
          "type": "uint8"
        },
        {
          "name": "_r",
          "type": "bytes32"
        },
        {
          "name": "_s",
          "type": "bytes32"
        },
        {
          "name": "_expected",
          "type": "address"
        },
        {
          "name": "_addPrefix",
          "type": "bool"
        }
      ],
      "name": "validateSignature",
      "outputs": [
        {
          "name": "",
          "type": "bool"
        }
      ],
      "payable": false,
      "stateMutability": "pure",
      "type": "function"
    },
    {
      "constant": true,
      "inputs": [
        {
          "name": "_addr",
          "type": "address"
        },
        {
          "name": "_pubKey",
          "type": "bytes"
        },
        {
          "name": "_v",
          "type": "uint8"
        },
        {
          "name": "_r",
          "type": "bytes32"
        },
        {
          "name": "_s",
          "type": "bytes32"
        }
      ],
      "name": "ecdsaVerify",
      "outputs": [
        {
          "name": "",
          "type": "bool"
        }
      ],
      "payable": false,
      "stateMutability": "pure",
      "type": "function"
    },
    {
      "constant": true,
      "inputs": [
        {
          "name": "_pubKey",
          "type": "bytes"
        }
      ],
      "name": "pubKeyToEthereumAddress",
      "outputs": [
        {
          "name": "",
          "type": "address"
        }
      ],
      "payable": false,
      "stateMutability": "pure",
      "type": "function"
    },
    {
      "constant": true,
      "inputs": [
        {
          "name": "_pubKey",
          "type": "bytes"
        },
        {
          "name": "_isCompressed",
          "type": "bool"
        }
      ],
      "name": "pubKeyToBitcoinAddress",
      "outputs": [
        {
          "name": "",
          "type": "bytes20"
        }
      ],
      "payable": false,
      "stateMutability": "pure",
      "type": "function"
    },
    {
      "constant": true,
      "inputs": [
        {
          "name": "_proof",
          "type": "bytes32[]"
        },
        {
          "name": "_merkleLeafHash",
          "type": "bytes32"
        }
      ],
      "name": "verifyProof",
      "outputs": [
        {
          "name": "",
          "type": "bool"
        }
      ],
      "payable": false,
      "stateMutability": "view",
      "type": "function"
    },
    {
      "constant": true,
      "inputs": [
        {
          "name": "_merkleLeafHash",
          "type": "bytes32"
        },
        {
          "name": "_proof",
          "type": "bytes32[]"
        }
      ],
      "name": "canRedeemUtxoHash",
      "outputs": [
        {
          "name": "",
          "type": "bool"
        }
      ],
      "payable": false,
      "stateMutability": "view",
      "type": "function"
    },
    {
      "constant": true,
      "inputs": [
        {
          "name": "_originalAddress",
          "type": "bytes20"
        },
        {
          "name": "_satoshis",
          "type": "uint256"
        },
        {
          "name": "_proof",
          "type": "bytes32[]"
        }
      ],
      "name": "canRedeemUtxo",
      "outputs": [
        {
          "name": "",
          "type": "bool"
        }
      ],
      "payable": false,
      "stateMutability": "view",
      "type": "function"
    }
  ],
  "bytecode": "0x60806040526000600655600060075534801561001a57600080fd5b506124668061002a6000396000f30060806040526004361061013e576000357c0100000000000000000000000000000000000000000000000000000000900463ffffffff16806306fdde03146101435780630867c0ad146101d3578063095ea7b3146102715780631765f4bf146102d657806318160ddd1461030157806323b872dd1461032c578063313ce567146103b157806339509351146103dc5780634d3c8bc81461044157806352aa3e6c146104585780635418796c146104835780636aaf67e21461052c57806370a082311461055f57806381cd84b9146105b65780638f1698161461064257806395d89b41146106bf578063a457c2d71461074f578063a9059cbb146107b4578063b80ac7df14610819578063ce267b55146108a5578063cfc2334e1461096f578063dd62ed3e14610a10578063e073ef6914610a87578063f35dad4014610b2e575b600080fd5b34801561014f57600080fd5b50610158610b59565b6040518080602001828103825283818151815260200191508051906020019080838360005b8381101561019857808201518184015260208101905061017d565b50505050905090810190601f1680156101c55780820380516001836020036101000a031916815260200191505b509250505060405180910390f35b3480156101df57600080fd5b506102576004803603810190808035600019169060200190929190803560ff16906020019092919080356000191690602001909291908035600019169060200190929190803573ffffffffffffffffffffffffffffffffffffffff169060200190929190803515159060200190929190505050610b92565b604051808215151515815260200191505060405180910390f35b34801561027d57600080fd5b506102bc600480360381019080803573ffffffffffffffffffffffffffffffffffffffff16906020019092919080359060200190929190505050610d7d565b604051808215151515815260200191505060405180910390f35b3480156102e257600080fd5b506102eb610eaa565b6040518082815260200191505060405180910390f35b34801561030d57600080fd5b50610316610eb0565b6040518082815260200191505060405180910390f35b34801561033857600080fd5b50610397600480360381019080803573ffffffffffffffffffffffffffffffffffffffff169060200190929190803573ffffffffffffffffffffffffffffffffffffffff16906020019092919080359060200190929190505050610eba565b604051808215151515815260200191505060405180910390f35b3480156103bd57600080fd5b506103c661106c565b6040518082815260200191505060405180910390f35b3480156103e857600080fd5b50610427600480360381019080803573ffffffffffffffffffffffffffffffffffffffff16906020019092919080359060200190929190505050611071565b604051808215151515815260200191505060405180910390f35b34801561044d57600080fd5b506104566112a8565b005b34801561046457600080fd5b5061046d611384565b6040518082815260200191505060405180910390f35b34801561048f57600080fd5b506104ea600480360381019080803590602001908201803590602001908080601f016020809104026020016040519081016040528093929190818152602001838380828437820191505050505050919291929050505061138a565b604051808273ffffffffffffffffffffffffffffffffffffffff1673ffffffffffffffffffffffffffffffffffffffff16815260200191505060405180910390f35b34801561053857600080fd5b50610541611410565b60405180826000191660001916815260200191505060405180910390f35b34801561056b57600080fd5b506105a0600480360381019080803573ffffffffffffffffffffffffffffffffffffffff169060200190929190505050611416565b6040518082815260200191505060405180910390f35b3480156105c257600080fd5b5061062860048036038101908080356000191690602001909291908035906020019082018035906020019080806020026020016040519081016040528093929190818152602001838360200280828437820191505050505050919291929050505061145e565b604051808215151515815260200191505060405180910390f35b34801561064e57600080fd5b5061068d600480360381019080803573ffffffffffffffffffffffffffffffffffffffff169060200190929190803590602001909291905050506114a9565b604051808681526020018581526020018481526020018381526020018281526020019550505050505060405180910390f35b3480156106cb57600080fd5b506106d46114fb565b6040518080602001828103825283818151815260200191508051906020019080838360005b838110156107145780820151818401526020810190506106f9565b50505050905090810190601f1680156107415780820380516001836020036101000a031916815260200191505b509250505060405180910390f35b34801561075b57600080fd5b5061079a600480360381019080803573ffffffffffffffffffffffffffffffffffffffff16906020019092919080359060200190929190505050611534565b604051808215151515815260200191505060405180910390f35b3480156107c057600080fd5b506107ff600480360381019080803573ffffffffffffffffffffffffffffffffffffffff1690602001909291908035906020019092919050505061176b565b604051808215151515815260200191505060405180910390f35b34801561082557600080fd5b5061088b600480360381019080803590602001908201803590602001908080602002602001604051908101604052809392919081815260200183836020028082843782019150505050505091929192908035600019169060200190929190505050611782565b604051808215151515815260200191505060405180910390f35b3480156108b157600080fd5b50610955600480360381019080803573ffffffffffffffffffffffffffffffffffffffff169060200190929190803590602001908201803590602001908080601f0160208091040260200160405190810160405280939291908181526020018383808284378201915050505050509192919290803560ff16906020019092919080356000191690602001909291908035600019169060200190929190505050611799565b604051808215151515815260200191505060405180910390f35b34801561097b57600080fd5b506109f660048036038101908080356bffffffffffffffffffffffff1916906020019092919080359060200190929190803590602001908201803590602001908080602002602001604051908101604052809392919081815260200183836020028082843782019150505050505091929192905050506118b8565b604051808215151515815260200191505060405180910390f35b348015610a1c57600080fd5b50610a71600480360381019080803573ffffffffffffffffffffffffffffffffffffffff169060200190929190803573ffffffffffffffffffffffffffffffffffffffff169060200190929190505050611979565b6040518082815260200191505060405180910390f35b348015610a9357600080fd5b50610afa600480360381019080803590602001908201803590602001908080601f0160208091040260200160405190810160405280939291908181526020018383808284378201915050505050509192919290803515159060200190929190505050611a00565b60405180826bffffffffffffffffffffffff19166bffffffffffffffffffffffff1916815260200191505060405180910390f35b348015610b3a57600080fd5b50610b43611dbf565b6040518082815260200191505060405180910390f35b6040805190810160405280600a81526020017f426974636f696e4865780000000000000000000000000000000000000000000081525081565b6000806060831515610ba657889150610cc0565b6040805190810160405280601c81526020017f19457468657265756d205369676e6564204d6573736167653a0a333200000000815250905080896040516020018083805190602001908083835b602083101515610c185780518252602082019150602081019050602083039250610bf3565b6001836020036101000a0380198251168184511680821785525050505050509050018260001916600019168152602001925050506040516020818303038152906040526040518082805190602001908083835b602083101515610c905780518252602082019150602081019050602083039250610c6b565b6001836020036101000a038019825116818451168082178552505050505050905001915050604051809103902091505b8473ffffffffffffffffffffffffffffffffffffffff166001838a8a8a604051600081526020016040526040518085600019166000191681526020018460ff1660ff1681526020018360001916600019168152602001826000191660001916815260200194505050505060206040516020810390808403906000865af1158015610d4e573d6000803e3d6000fd5b5050506020604051035173ffffffffffffffffffffffffffffffffffffffff1614925050509695505050505050565b60008073ffffffffffffffffffffffffffffffffffffffff168373ffffffffffffffffffffffffffffffffffffffff1614151515610dba57600080fd5b81600160003373ffffffffffffffffffffffffffffffffffffffff1673ffffffffffffffffffffffffffffffffffffffff16815260200190815260200160002060008573ffffffffffffffffffffffffffffffffffffffff1673ffffffffffffffffffffffffffffffffffffffff168152602001908152602001600020819055508273ffffffffffffffffffffffffffffffffffffffff163373ffffffffffffffffffffffffffffffffffffffff167f8c5be1e5ebec7d5bd14f71427d1e84f3dd0314c0f7b2291e5b200ac8c7c3b925846040518082815260200191505060405180910390a36001905092915050565b60105481565b6000600254905090565b6000600160008573ffffffffffffffffffffffffffffffffffffffff1673ffffffffffffffffffffffffffffffffffffffff16815260200190815260200160002060003373ffffffffffffffffffffffffffffffffffffffff1673ffffffffffffffffffffffffffffffffffffffff168152602001908152602001600020548211151515610f4757600080fd5b610fd682600160008773ffffffffffffffffffffffffffffffffffffffff1673ffffffffffffffffffffffffffffffffffffffff16815260200190815260200160002060003373ffffffffffffffffffffffffffffffffffffffff1673ffffffffffffffffffffffffffffffffffffffff16815260200190815260200160002054611dc590919063ffffffff16565b600160008673ffffffffffffffffffffffffffffffffffffffff1673ffffffffffffffffffffffffffffffffffffffff16815260200190815260200160002060003373ffffffffffffffffffffffffffffffffffffffff1673ffffffffffffffffffffffffffffffffffffffff16815260200190815260200160002081905550611061848484611de6565b600190509392505050565b601281565b60008073ffffffffffffffffffffffffffffffffffffffff168373ffffffffffffffffffffffffffffffffffffffff16141515156110ae57600080fd5b61113d82600160003373ffffffffffffffffffffffffffffffffffffffff1673ffffffffffffffffffffffffffffffffffffffff16815260200190815260200160002060008673ffffffffffffffffffffffffffffffffffffffff1673ffffffffffffffffffffffffffffffffffffffff16815260200190815260200160002054611fff90919063ffffffff16565b600160003373ffffffffffffffffffffffffffffffffffffffff1673ffffffffffffffffffffffffffffffffffffffff16815260200190815260200160002060008573ffffffffffffffffffffffffffffffffffffffff1673ffffffffffffffffffffffffffffffffffffffff168152602001908152602001600020819055508273ffffffffffffffffffffffffffffffffffffffff163373ffffffffffffffffffffffffffffffffffffffff167f8c5be1e5ebec7d5bd14f71427d1e84f3dd0314c0f7b2291e5b200ac8c7c3b925600160003373ffffffffffffffffffffffffffffffffffffffff1673ffffffffffffffffffffffffffffffffffffffff16815260200190815260200160002060008773ffffffffffffffffffffffffffffffffffffffff1673ffffffffffffffffffffffffffffffffffffffff168152602001908152602001600020546040518082815260200191505060405180910390a36001905092915050565b60005b600b546112b6612020565b1115611381576112d3600654600854611dc590919063ffffffff16565b90506040805190810160405280828152602001601054815250600c60006113066001600b54611fff90919063ffffffff16565b8152602001908152602001600020600082015181600001556020820151816001015590505061136a600360009054906101000a900473ffffffffffffffffffffffffffffffffffffffff1661136560328461205190919063ffffffff16565b61207b565b600b600081548092919060010191905055506112ab565b50565b60075481565b600073ffffffffffffffffffffffffffffffffffffffff826040518082805190602001908083835b6020831015156113d757805182526020820191506020810190506020830392506113b2565b6001836020036101000a038019825116818451168082178552505050505050905001915050604051809103902060019004169050919050565b60095481565b60008060008373ffffffffffffffffffffffffffffffffffffffff1673ffffffffffffffffffffffffffffffffffffffff168152602001908152602001600020549050919050565b6000801515600a6000856000191660001916815260200190815260200160002060009054906101000a900460ff1615151480156114a157506114a08284611782565b5b905092915050565b600f602052816000526040600020818154811015156114c457fe5b9060005260206000209060050201600091509150508060000154908060010154908060020154908060030154908060040154905085565b6040805190810160405280600381526020017f424858000000000000000000000000000000000000000000000000000000000081525081565b60008073ffffffffffffffffffffffffffffffffffffffff168373ffffffffffffffffffffffffffffffffffffffff161415151561157157600080fd5b61160082600160003373ffffffffffffffffffffffffffffffffffffffff1673ffffffffffffffffffffffffffffffffffffffff16815260200190815260200160002060008673ffffffffffffffffffffffffffffffffffffffff1673ffffffffffffffffffffffffffffffffffffffff16815260200190815260200160002054611dc590919063ffffffff16565b600160003373ffffffffffffffffffffffffffffffffffffffff1673ffffffffffffffffffffffffffffffffffffffff16815260200190815260200160002060008573ffffffffffffffffffffffffffffffffffffffff1673ffffffffffffffffffffffffffffffffffffffff168152602001908152602001600020819055508273ffffffffffffffffffffffffffffffffffffffff163373ffffffffffffffffffffffffffffffffffffffff167f8c5be1e5ebec7d5bd14f71427d1e84f3dd0314c0f7b2291e5b200ac8c7c3b925600160003373ffffffffffffffffffffffffffffffffffffffff1673ffffffffffffffffffffffffffffffffffffffff16815260200190815260200160002060008773ffffffffffffffffffffffffffffffffffffffff1673ffffffffffffffffffffffffffffffffffffffff168152602001908152602001600020546040518082815260200191505060405180910390a36001905092915050565b6000611778338484611de6565b6001905092915050565b600061179183600954846121b9565b905092915050565b60006118ad600287604051602001808273ffffffffffffffffffffffffffffffffffffffff1673ffffffffffffffffffffffffffffffffffffffff166c010000000000000000000000000281526014019150506040516020818303038152906040526040518082805190602001908083835b602083101515611830578051825260208201915060208101905060208303925061180b565b6001836020036101000a0380198251168184511680821785525050505050509050019150506020604051808303816000865af1158015611874573d6000803e3d6000fd5b5050506040513d602081101561188957600080fd5b81019080805190602001909291905050508585856118a68a61138a565b6000610b92565b905095945050505050565b600080848460405160200180836bffffffffffffffffffffffff19166bffffffffffffffffffffffff19168152601401828152602001925050506040516020818303038152906040526040518082805190602001908083835b6020831015156119365780518252602082019150602081019050602083039250611911565b6001836020036101000a0380198251168184511680821785525050505050509050019150506040518091039020905061196f818461145e565b9150509392505050565b6000600160008473ffffffffffffffffffffffffffffffffffffffff1673ffffffffffffffffffffffffffffffffffffffff16815260200190815260200160002060008373ffffffffffffffffffffffffffffffffffffffff1673ffffffffffffffffffffffffffffffffffffffff16815260200190815260200160002054905092915050565b600080600080611a1186600061235c565b600190049250611a2286602061235c565b6001900491508415611bfe576000600283811515611a3c57fe5b0614611a49576003611a4c565b60025b9050600360028285604051602001808360ff1660ff167f0100000000000000000000000000000000000000000000000000000000000000028152600101828152602001925050506040516020818303038152906040526040518082805190602001908083835b602083101515611ad75780518252602082019150602081019050602083039250611ab2565b6001836020036101000a0380198251168184511680821785525050505050509050019150506020604051808303816000865af1158015611b1b573d6000803e3d6000fd5b5050506040513d6020811015611b3057600080fd5b81019080805190602001909291905050506040516020018082600019166000191681526020019150506040516020818303038152906040526040518082805190602001908083835b602083101515611b9d5780518252602082019150602081019050602083039250611b78565b6001836020036101000a0380198251168184511680821785525050505050509050019150506020604051808303816000865af1158015611be1573d6000803e3d6000fd5b505050604051516c01000000000000000000000000029350611db6565b6004905060036002828585604051602001808460ff1660ff167f010000000000000000000000000000000000000000000000000000000000000002815260010183815260200182815260200193505050506040516020818303038152906040526040518082805190602001908083835b602083101515611c935780518252602082019150602081019050602083039250611c6e565b6001836020036101000a0380198251168184511680821785525050505050509050019150506020604051808303816000865af1158015611cd7573d6000803e3d6000fd5b5050506040513d6020811015611cec57600080fd5b81019080805190602001909291905050506040516020018082600019166000191681526020019150506040516020818303038152906040526040518082805190602001908083835b602083101515611d595780518252602082019150602081019050602083039250611d34565b6001836020036101000a0380198251168184511680821785525050505050509050019150506020604051808303816000865af1158015611d9d573d6000803e3d6000fd5b505050604051516c010000000000000000000000000293505b50505092915050565b60065481565b600080838311151515611dd757600080fd5b82840390508091505092915050565b6000808473ffffffffffffffffffffffffffffffffffffffff1673ffffffffffffffffffffffffffffffffffffffff168152602001908152602001600020548111151515611e3357600080fd5b600073ffffffffffffffffffffffffffffffffffffffff168273ffffffffffffffffffffffffffffffffffffffff1614151515611e6f57600080fd5b611ec0816000808673ffffffffffffffffffffffffffffffffffffffff1673ffffffffffffffffffffffffffffffffffffffff16815260200190815260200160002054611dc590919063ffffffff16565b6000808573ffffffffffffffffffffffffffffffffffffffff1673ffffffffffffffffffffffffffffffffffffffff16815260200190815260200160002081905550611f53816000808573ffffffffffffffffffffffffffffffffffffffff1673ffffffffffffffffffffffffffffffffffffffff16815260200190815260200160002054611fff90919063ffffffff16565b6000808473ffffffffffffffffffffffffffffffffffffffff1673ffffffffffffffffffffffffffffffffffffffff168152602001908152602001600020819055508173ffffffffffffffffffffffffffffffffffffffff168373ffffffffffffffffffffffffffffffffffffffff167fddf252ad1be2c89b69c2b068fc378daa952ba7f163c4a11628f55a4df523b3ef836040518082815260200191505060405180910390a3505050565b600080828401905083811015151561201657600080fd5b8091505092915050565b600061204c62093a8061203e60045442611dc590919063ffffffff16565b61205190919063ffffffff16565b905090565b60008060008311151561206357600080fd5b828481151561206e57fe5b0490508091505092915050565b60008273ffffffffffffffffffffffffffffffffffffffff16141515156120a157600080fd5b6120b681600254611fff90919063ffffffff16565b60028190555061210d816000808573ffffffffffffffffffffffffffffffffffffffff1673ffffffffffffffffffffffffffffffffffffffff16815260200190815260200160002054611fff90919063ffffffff16565b6000808473ffffffffffffffffffffffffffffffffffffffff1673ffffffffffffffffffffffffffffffffffffffff168152602001908152602001600020819055508173ffffffffffffffffffffffffffffffffffffffff16600073ffffffffffffffffffffffffffffffffffffffff167fddf252ad1be2c89b69c2b068fc378daa952ba7f163c4a11628f55a4df523b3ef836040518082815260200191505060405180910390a35050565b600080600080849250600091505b86518210156123455786828151811015156121de57fe5b90602001906020020151905080600019168360001916101561229b5782816040516020018083600019166000191681526020018260001916600019168152602001925050506040516020818303038152906040526040518082805190602001908083835b6020831015156122675780518252602082019150602081019050602083039250612242565b6001836020036101000a03801982511681845116808217855250505050505090500191505060405180910390209250612338565b80836040516020018083600019166000191681526020018260001916600019168152602001925050506040516020818303038152906040526040518082805190602001908083835b60208310151561230857805182526020820191506020810190506020830392506122e3565b6001836020036101000a038019825116818451168082178552505050505050905001915050604051809103902092505b81806001019250506121c7565b856000191683600019161493505050509392505050565b60008060008090505b602081101561242f57600881028585830181518110151561238257fe5b9060200101517f010000000000000000000000000000000000000000000000000000000000000090047f0100000000000000000000000000000000000000000000000000000000000000027effffffffffffffffffffffffffffffffffffffffffffffffffffffffffffff19167fff0000000000000000000000000000000000000000000000000000000000000060010216600019169060020a9004821891508080600101915050612365565b8192505050929150505600a165627a7a723058206dc100b393c443d4ace3400c1b41c26a65353ac3736c52e8926d997ffbef65e90029",
  "source": "pragma solidity ^0.4.24;\n\nimport \"./GlobalsAndUtility.sol\";\nimport \"../node_modules/openzeppelin-solidity/contracts/cryptography/MerkleProof.sol\";\n\ncontract UTXOClaimValidation is GlobalsAndUtility {\n  /**\n   * @dev Extract a bytes32 subarray from an arbitrary length bytes array.\n   * @param _data Bytes array from which to extract the subarray\n   * @param _pos Starting position from which to copy\n   * @return Extracted length 32 byte array\n   */\n  function extract(\n    bytes _data, uint256 _pos\n  ) private pure returns (bytes32) {\n    bytes32 _result;\n    for (uint256 _i = 0; _i < 32; _i++) {\n      _result ^= (bytes32(0xff00000000000000000000000000000000000000000000000000000000000000) & _data[_i + _pos]) >> (_i * 8);\n    }\n    return _result;\n  }\n\n  \n  /**\n   * @dev Validate that a provided ECSDA signature was signed by the specified address\n   * @param _hash Hash of signed data\n   * @param _v v parameter of ECDSA signature\n   * @param _r r parameter of ECDSA signature\n   * @param _s s parameter of ECDSA signature\n   * @param _expected Address claiming to have created this signature\n   * @return Whether or not the signature was valid\n   */\n  function validateSignature(\n    bytes32 _hash,\n    uint8 _v,\n    bytes32 _r,\n    bytes32 _s,\n    address _expected,\n    bool _addPrefix\n  ) public pure returns (bool) {\n    bytes32 _formattedHash;\n\n    if (!_addPrefix) {\n      _formattedHash = _hash;\n    } else {\n      bytes memory _prefix = \"\\x19Ethereum Signed Message:\\n32\"; // accomodate geth method of signing data with prefixed message\n      _formattedHash = keccak256(abi.encodePacked(_prefix, _hash));\n    }\n\n    return ecrecover(\n      _formattedHash, \n      _v, \n      _r, \n      _s\n    ) == _expected;\n  }\n\n  /**\n   * @dev Validate that the hash of a provided address was signed by the ECDSA public key associated with the specified Ethereum address\n   * @param _addr Address signed\n   * @param _pubKey Uncompressed ECDSA public key claiming to have created this signature\n   * @param _v v parameter of ECDSA signature\n   * @param _r r parameter of ECDSA signature\n   * @param _s s parameter of ECDSA signature\n   * @return Whether or not the signature was valid\n   */\n  function ecdsaVerify(\n    address _addr, \n    bytes _pubKey, \n    uint8 _v, \n    bytes32 _r, \n    bytes32 _s\n  ) public pure returns (bool) {\n    return validateSignature(\n      sha256(abi.encodePacked(_addr)),  // hash\n      _v, \n      _r, \n      _s, \n      pubKeyToEthereumAddress(_pubKey), // expected\n      false // do not prepend message\n    );\n  }\n\n  /**\n   * @dev Convert an uncompressed ECDSA public key into an Ethereum address\n   * @param _pubKey Uncompressed ECDSA public key to convert\n   * @return Ethereum address generated from the ECDSA public key\n   */\n  function pubKeyToEthereumAddress(\n    bytes _pubKey\n  ) public pure returns (address) {\n    return address(\n      uint256(keccak256(_pubKey)) & 0x000FFFFFFFFFFFFFFFFFFFFFFFFFFFFFFFFFFFFFFFF\n    );\n  }\n\n  /**\n   * @dev Calculate the Bitcoin-style address associated with an ECDSA public key\n   * @param _pubKey ECDSA public key to convert\n   * @param _isCompressed Whether or not the Bitcoin address was generated from a compressed key\n   * @return Raw Bitcoin address (no base58-check encoding)\n   */\n  function pubKeyToBitcoinAddress(\n    bytes _pubKey, \n    bool _isCompressed\n  ) public pure returns (bytes20) {\n    /* Helpful references:\n       - https://en.bitcoin.it/wiki/Technical_background_of_version_1_Bitcoin_addresses \n       - https://github.com/cryptocoinjs/ecurve/blob/master/lib/point.js\n    */\n\n    /* x coordinate - first 32 bytes of public key */\n    uint256 _x = uint256(extract(_pubKey, 0));\n    /* y coordinate - second 32 bytes of public key */\n    uint256 _y = uint256(extract(_pubKey, 32)); \n    uint8 _startingByte;\n    if (_isCompressed) {\n      /* Hash the compressed public key format. */\n      _startingByte = _y % 2 == 0 ? 0x02 : 0x03;\n      return ripemd160(\n        abi.encodePacked(sha256(abi.encodePacked(_startingByte, _x)))\n      );\n    } else {\n      /* Hash the uncompressed public key format. */\n      _startingByte = 0x04;\n      return ripemd160(\n        abi.encodePacked(sha256(abi.encodePacked(_startingByte, _x, _y)))\n      );\n    }\n  }\n\n  /**\n   * @dev Verify a Merkle proof using the UTXO Merkle tree\n   * @param _proof Generated Merkle tree proof\n   * @param _merkleLeafHash Hash asserted to be present in the Merkle tree\n   * @return Whether or not the proof is valid\n   */\n  function verifyProof(\n    bytes32[] _proof, \n    bytes32 _merkleLeafHash\n  ) public view returns (bool) {\n    return MerkleProof.verify(_proof, rootUtxoMerkleTreeHash, _merkleLeafHash);\n  }\n\n  /**\n   * @dev PUBLIC FACING: Verify that a UTXO with the specified Merkle leaf hash can be redeemed\n   * @param _merkleLeafHash Merkle tree hash of the UTXO to be checked\n   * @param _proof Merkle tree proof\n   * @return Whether or not the UTXO with the specified hash can be redeemed\n   */\n  function canRedeemUtxoHash(\n    bytes32 _merkleLeafHash, \n    bytes32[] _proof\n  ) public view returns (bool) {\n    /* Check that the UTXO has not yet been redeemed and that it exists in the Merkle tree. */\n    return(\n      (redeemedUTXOs[_merkleLeafHash] == false) && \n      verifyProof(_proof, _merkleLeafHash)\n    );\n  }\n\n  /**\n   * @dev PUBLIC FACING: Convenience helper function to check if a UTXO can be redeemed\n   * @param _originalAddress Raw Bitcoin address (no base58-check encoding)\n   * @param _satoshis Amount of UTXO in satoshis\n   * @param _proof Merkle tree proof\n   * @return Whether or not the UTXO can be redeemed\n   */\n  function canRedeemUtxo(\n    bytes20 _originalAddress,\n    uint256 _satoshis,\n    bytes32[] _proof\n  ) public view returns (bool) {\n    /* Calculate the hash of the Merkle leaf associated with this UTXO. */\n    bytes32 merkleLeafHash = keccak256(\n      abi.encodePacked(\n        _originalAddress, \n        _satoshis\n      )\n    );\n  \n    /* Verify the proof. */\n    return canRedeemUtxoHash(merkleLeafHash, _proof);\n  }\n}",
  "sourcePath": "/Users/mesquka/Git/Bitcoin Hex/contract/contracts/UTXOClaimValidation.sol",
  "compiler": {
    "name": "solc",
    "version": "0.4.24+commit.e67f0147.Emscripten.clang"
  },
  "schemaVersion": "2.0.1",
  "updatedAt": "2018-10-25T14:12:55.693Z"
}