{
  "contractName": "UTXORedeemableToken",
  "abi": [
    {
      "constant": true,
      "inputs": [],
      "name": "maximumRedeemable",
      "outputs": [
        {
          "name": "",
          "type": "uint256"
        }
      ],
      "payable": false,
      "stateMutability": "view",
      "type": "function"
    },
    {
      "constant": false,
      "inputs": [
        {
          "name": "_spender",
          "type": "address"
        },
        {
          "name": "_value",
          "type": "uint256"
        }
      ],
      "name": "approve",
      "outputs": [
        {
          "name": "",
          "type": "bool"
        }
      ],
      "payable": false,
      "stateMutability": "nonpayable",
      "type": "function"
    },
    {
      "constant": true,
      "inputs": [],
      "name": "totalSupply",
      "outputs": [
        {
          "name": "",
          "type": "uint256"
        }
      ],
      "payable": false,
      "stateMutability": "view",
      "type": "function"
    },
    {
      "constant": false,
      "inputs": [
        {
          "name": "_from",
          "type": "address"
        },
        {
          "name": "_to",
          "type": "address"
        },
        {
          "name": "_value",
          "type": "uint256"
        }
      ],
      "name": "transferFrom",
      "outputs": [
        {
          "name": "",
          "type": "bool"
        }
      ],
      "payable": false,
      "stateMutability": "nonpayable",
      "type": "function"
    },
    {
      "constant": true,
      "inputs": [
        {
          "name": "",
          "type": "uint256"
        }
      ],
      "name": "unclaimedCoinsByWeek",
      "outputs": [
        {
          "name": "",
          "type": "uint256"
        }
      ],
      "payable": false,
      "stateMutability": "view",
      "type": "function"
    },
    {
      "constant": false,
      "inputs": [
        {
          "name": "_spender",
          "type": "address"
        },
        {
          "name": "_subtractedValue",
          "type": "uint256"
        }
      ],
      "name": "decreaseApproval",
      "outputs": [
        {
          "name": "",
          "type": "bool"
        }
      ],
      "payable": false,
      "stateMutability": "nonpayable",
      "type": "function"
    },
    {
      "constant": true,
      "inputs": [
        {
          "name": "",
          "type": "bytes32"
        }
      ],
      "name": "redeemedUTXOs",
      "outputs": [
        {
          "name": "",
          "type": "bool"
        }
      ],
      "payable": false,
      "stateMutability": "view",
      "type": "function"
    },
    {
      "constant": true,
      "inputs": [],
      "name": "rootUtxoMerkleTreeHash",
      "outputs": [
        {
          "name": "",
          "type": "bytes32"
        }
      ],
      "payable": false,
      "stateMutability": "view",
      "type": "function"
    },
    {
      "constant": true,
      "inputs": [
        {
          "name": "_owner",
          "type": "address"
        }
      ],
      "name": "balanceOf",
      "outputs": [
        {
          "name": "",
          "type": "uint256"
        }
      ],
      "payable": false,
      "stateMutability": "view",
      "type": "function"
    },
    {
      "constant": true,
      "inputs": [],
      "name": "launchTime",
      "outputs": [
        {
          "name": "",
          "type": "uint256"
        }
      ],
      "payable": false,
      "stateMutability": "view",
      "type": "function"
    },
    {
      "constant": true,
      "inputs": [],
      "name": "origin",
      "outputs": [
        {
          "name": "",
          "type": "address"
        }
      ],
      "payable": false,
      "stateMutability": "view",
      "type": "function"
    },
    {
      "constant": true,
      "inputs": [],
      "name": "lastUpdatedWeek",
      "outputs": [
        {
          "name": "",
          "type": "uint256"
        }
      ],
      "payable": false,
      "stateMutability": "view",
      "type": "function"
    },
    {
      "constant": false,
      "inputs": [
        {
          "name": "_to",
          "type": "address"
        },
        {
          "name": "_value",
          "type": "uint256"
        }
      ],
      "name": "transfer",
      "outputs": [
        {
          "name": "",
          "type": "bool"
        }
      ],
      "payable": false,
      "stateMutability": "nonpayable",
      "type": "function"
    },
    {
      "constant": false,
      "inputs": [
        {
          "name": "_spender",
          "type": "address"
        },
        {
          "name": "_addedValue",
          "type": "uint256"
        }
      ],
      "name": "increaseApproval",
      "outputs": [
        {
          "name": "",
          "type": "bool"
        }
      ],
      "payable": false,
      "stateMutability": "nonpayable",
      "type": "function"
    },
    {
      "constant": true,
      "inputs": [
        {
          "name": "_owner",
          "type": "address"
        },
        {
          "name": "_spender",
          "type": "address"
        }
      ],
      "name": "allowance",
      "outputs": [
        {
          "name": "",
          "type": "uint256"
        }
      ],
      "payable": false,
      "stateMutability": "view",
      "type": "function"
    },
    {
      "constant": true,
      "inputs": [],
      "name": "totalRedeemed",
      "outputs": [
        {
          "name": "",
          "type": "uint256"
        }
      ],
      "payable": false,
      "stateMutability": "view",
      "type": "function"
    },
    {
      "anonymous": false,
      "inputs": [
        {
          "indexed": true,
          "name": "owner",
          "type": "address"
        },
        {
          "indexed": true,
          "name": "spender",
          "type": "address"
        },
        {
          "indexed": false,
          "name": "value",
          "type": "uint256"
        }
      ],
      "name": "Approval",
      "type": "event"
    },
    {
      "anonymous": false,
      "inputs": [
        {
          "indexed": true,
          "name": "from",
          "type": "address"
        },
        {
          "indexed": true,
          "name": "to",
          "type": "address"
        },
        {
          "indexed": false,
          "name": "value",
          "type": "uint256"
        }
      ],
      "name": "Transfer",
      "type": "event"
    },
    {
      "constant": false,
      "inputs": [],
      "name": "storeWeekUnclaimed",
      "outputs": [],
      "payable": false,
      "stateMutability": "nonpayable",
      "type": "function"
    },
    {
      "constant": true,
      "inputs": [
        {
          "name": "_hash",
          "type": "bytes32"
        },
        {
          "name": "_v",
          "type": "uint8"
        },
        {
          "name": "_r",
          "type": "bytes32"
        },
        {
          "name": "_s",
          "type": "bytes32"
        },
        {
          "name": "_expected",
          "type": "address"
        },
        {
          "name": "_addPrefix",
          "type": "bool"
        }
      ],
      "name": "validateSignature",
      "outputs": [
        {
          "name": "",
          "type": "bool"
        }
      ],
      "payable": false,
      "stateMutability": "pure",
      "type": "function"
    },
    {
      "constant": true,
      "inputs": [
        {
          "name": "_addr",
          "type": "address"
        },
        {
          "name": "_pubKey",
          "type": "bytes"
        },
        {
          "name": "_v",
          "type": "uint8"
        },
        {
          "name": "_r",
          "type": "bytes32"
        },
        {
          "name": "_s",
          "type": "bytes32"
        }
      ],
      "name": "ecdsaVerify",
      "outputs": [
        {
          "name": "",
          "type": "bool"
        }
      ],
      "payable": false,
      "stateMutability": "pure",
      "type": "function"
    },
    {
      "constant": true,
      "inputs": [
        {
          "name": "_pubKey",
          "type": "bytes"
        }
      ],
      "name": "pubKeyToEthereumAddress",
      "outputs": [
        {
          "name": "",
          "type": "address"
        }
      ],
      "payable": false,
      "stateMutability": "pure",
      "type": "function"
    },
    {
      "constant": true,
      "inputs": [
        {
          "name": "_pubKey",
          "type": "bytes"
        },
        {
          "name": "_isCompressed",
          "type": "bool"
        }
      ],
      "name": "pubKeyToBitcoinAddress",
      "outputs": [
        {
          "name": "",
          "type": "bytes20"
        }
      ],
      "payable": false,
      "stateMutability": "pure",
      "type": "function"
    },
    {
      "constant": true,
      "inputs": [
        {
          "name": "_proof",
          "type": "bytes32[]"
        },
        {
          "name": "_merkleLeafHash",
          "type": "bytes32"
        }
      ],
      "name": "verifyProof",
      "outputs": [
        {
          "name": "",
          "type": "bool"
        }
      ],
      "payable": false,
      "stateMutability": "view",
      "type": "function"
    },
    {
      "constant": true,
      "inputs": [
        {
          "name": "_merkleLeafHash",
          "type": "bytes32"
        },
        {
          "name": "_proof",
          "type": "bytes32[]"
        }
      ],
      "name": "canRedeemUtxoHash",
      "outputs": [
        {
          "name": "",
          "type": "bool"
        }
      ],
      "payable": false,
      "stateMutability": "view",
      "type": "function"
    },
    {
      "constant": true,
      "inputs": [
        {
          "name": "_originalAddress",
          "type": "bytes20"
        },
        {
          "name": "_satoshis",
          "type": "uint256"
        },
        {
          "name": "_proof",
          "type": "bytes32[]"
        }
      ],
      "name": "canRedeemUtxo",
      "outputs": [
        {
          "name": "",
          "type": "bool"
        }
      ],
      "payable": false,
      "stateMutability": "view",
      "type": "function"
    },
    {
      "constant": true,
      "inputs": [
        {
          "name": "_satoshis",
          "type": "uint256"
        }
      ],
      "name": "getRedeemAmount",
      "outputs": [
        {
          "name": "",
          "type": "uint256"
        }
      ],
      "payable": false,
      "stateMutability": "view",
      "type": "function"
    },
    {
      "constant": false,
      "inputs": [
        {
          "name": "_satoshis",
          "type": "uint256"
        },
        {
          "name": "_proof",
          "type": "bytes32[]"
        },
        {
          "name": "_pubKey",
          "type": "bytes"
        },
        {
          "name": "_isCompressed",
          "type": "bool"
        },
        {
          "name": "_v",
          "type": "uint8"
        },
        {
          "name": "_r",
          "type": "bytes32"
        },
        {
          "name": "_s",
          "type": "bytes32"
        }
      ],
      "name": "redeemUtxo",
      "outputs": [
        {
          "name": "_tokensRedeemed",
          "type": "uint256"
        }
      ],
      "payable": false,
      "stateMutability": "nonpayable",
      "type": "function"
    },
    {
      "constant": false,
      "inputs": [
        {
          "name": "_satoshis",
          "type": "uint256"
        },
        {
          "name": "_proof",
          "type": "bytes32[]"
        },
        {
          "name": "_pubKey",
          "type": "bytes"
        },
        {
          "name": "_isCompressed",
          "type": "bool"
        },
        {
          "name": "_v",
          "type": "uint8"
        },
        {
          "name": "_r",
          "type": "bytes32"
        },
        {
          "name": "_s",
          "type": "bytes32"
        },
        {
          "name": "_referrer",
          "type": "address"
        }
      ],
      "name": "redeemReferredUtxo",
      "outputs": [
        {
          "name": "_tokensRedeemed",
          "type": "uint256"
        }
      ],
      "payable": false,
      "stateMutability": "nonpayable",
      "type": "function"
    }
  ],
  "bytecode": "0x60806040526000600555600060095534801561001a57600080fd5b50612caa8061002a6000396000f30060806040526004361061015f576000357c0100000000000000000000000000000000000000000000000000000000900463ffffffff1680630867c0ad1461016457806308b4312b14610202578063095ea7b31461022d57806318160ddd1461029257806323b872dd146102bd5780632c3ee88c1461034257806330fd546e146103835780635418796c146103c4578063661884631461046d578063687cf4a4146104d25780636aaf67e21461051b57806370a082311461054e578063753bf8cd146105a5578063790ca413146106a457806381cd84b9146106cf5780639283032c1461075b578063938b5f32146107725780639d65b892146107c9578063a9059cbb146107f4578063b1ccf19314610859578063b80ac7df1461091f578063ce267b55146109ab578063cfc2334e14610a75578063d73dd62314610b16578063dd62ed3e14610b7b578063e073ef6914610bf2578063f35dad4014610c99575b600080fd5b34801561017057600080fd5b506101e86004803603810190808035600019169060200190929190803560ff16906020019092919080356000191690602001909291908035600019169060200190929190803573ffffffffffffffffffffffffffffffffffffffff169060200190929190803515159060200190929190505050610cc4565b604051808215151515815260200191505060405180910390f35b34801561020e57600080fd5b50610217610eaf565b6040518082815260200191505060405180910390f35b34801561023957600080fd5b50610278600480360381019080803573ffffffffffffffffffffffffffffffffffffffff16906020019092919080359060200190929190505050610eb5565b604051808215151515815260200191505060405180910390f35b34801561029e57600080fd5b506102a7610fa7565b6040518082815260200191505060405180910390f35b3480156102c957600080fd5b50610328600480360381019080803573ffffffffffffffffffffffffffffffffffffffff169060200190929190803573ffffffffffffffffffffffffffffffffffffffff16906020019092919080359060200190929190505050610fb1565b604051808215151515815260200191505060405180910390f35b34801561034e57600080fd5b5061036d6004803603810190808035906020019092919050505061136b565b6040518082815260200191505060405180910390f35b34801561038f57600080fd5b506103ae600480360381019080803590602001909291905050506116e5565b6040518082815260200191505060405180910390f35b3480156103d057600080fd5b5061042b600480360381019080803590602001908201803590602001908080601f01602080910402602001604051908101604052809392919081815260200183838082843782019150505050505091929192905050506116fd565b604051808273ffffffffffffffffffffffffffffffffffffffff1673ffffffffffffffffffffffffffffffffffffffff16815260200191505060405180910390f35b34801561047957600080fd5b506104b8600480360381019080803573ffffffffffffffffffffffffffffffffffffffff16906020019092919080359060200190929190505050611783565b604051808215151515815260200191505060405180910390f35b3480156104de57600080fd5b506105016004803603810190808035600019169060200190929190505050611a14565b604051808215151515815260200191505060405180910390f35b34801561052757600080fd5b50610530611a34565b60405180826000191660001916815260200191505060405180910390f35b34801561055a57600080fd5b5061058f600480360381019080803573ffffffffffffffffffffffffffffffffffffffff169060200190929190505050611a3a565b6040518082815260200191505060405180910390f35b3480156105b157600080fd5b5061068e6004803603810190808035906020019092919080359060200190820180359060200190808060200260200160405190810160405280939291908181526020018383602002808284378201915050505050509192919290803590602001908201803590602001908080601f0160208091040260200160405190810160405280939291908181526020018383808284378201915050505050509192919290803515159060200190929190803560ff16906020019092919080356000191690602001909291908035600019169060200190929190505050611a82565b6040518082815260200191505060405180910390f35b3480156106b057600080fd5b506106b9611d26565b6040518082815260200191505060405180910390f35b3480156106db57600080fd5b50610741600480360381019080803560001916906020019092919080359060200190820180359060200190808060200260200160405190810160405280939291908181526020018383602002808284378201915050505050509192919290505050611d2c565b604051808215151515815260200191505060405180910390f35b34801561076757600080fd5b50610770611d77565b005b34801561077e57600080fd5b50610787611dfa565b604051808273ffffffffffffffffffffffffffffffffffffffff1673ffffffffffffffffffffffffffffffffffffffff16815260200191505060405180910390f35b3480156107d557600080fd5b506107de611e20565b6040518082815260200191505060405180910390f35b34801561080057600080fd5b5061083f600480360381019080803573ffffffffffffffffffffffffffffffffffffffff16906020019092919080359060200190929190505050611e26565b604051808215151515815260200191505060405180910390f35b34801561086557600080fd5b5061090960048036038101908080359060200190929190803590602001908201803590602001919091929391929390803590602001908201803590602001919091929391929390803515159060200190929190803560ff16906020019092919080356000191690602001909291908035600019169060200190929190803573ffffffffffffffffffffffffffffffffffffffff169060200190929190505050612045565b6040518082815260200191505060405180910390f35b34801561092b57600080fd5b50610991600480360381019080803590602001908201803590602001908080602002602001604051908101604052809392919081815260200183836020028082843782019150505050505091929192908035600019169060200190929190505050612215565b604051808215151515815260200191505060405180910390f35b3480156109b757600080fd5b50610a5b600480360381019080803573ffffffffffffffffffffffffffffffffffffffff169060200190929190803590602001908201803590602001908080601f0160208091040260200160405190810160405280939291908181526020018383808284378201915050505050509192919290803560ff1690602001909291908035600019169060200190929190803560001916906020019092919050505061222c565b604051808215151515815260200191505060405180910390f35b348015610a8157600080fd5b50610afc60048036038101908080356bffffffffffffffffffffffff19169060200190929190803590602001909291908035906020019082018035906020019080806020026020016040519081016040528093929190818152602001838360200280828437820191505050505050919291929050505061234b565b604051808215151515815260200191505060405180910390f35b348015610b2257600080fd5b50610b61600480360381019080803573ffffffffffffffffffffffffffffffffffffffff1690602001909291908035906020019092919050505061240c565b604051808215151515815260200191505060405180910390f35b348015610b8757600080fd5b50610bdc600480360381019080803573ffffffffffffffffffffffffffffffffffffffff169060200190929190803573ffffffffffffffffffffffffffffffffffffffff169060200190929190505050612608565b6040518082815260200191505060405180910390f35b348015610bfe57600080fd5b50610c65600480360381019080803590602001908201803590602001908080601f016020809104026020016040519081016040528093929190818152602001838380828437820191505050505050919291929080351515906020019092919050505061268f565b60405180826bffffffffffffffffffffffff19166bffffffffffffffffffffffff1916815260200191505060405180910390f35b348015610ca557600080fd5b50610cae612a4e565b6040518082815260200191505060405180910390f35b6000806060831515610cd857889150610df2565b6040805190810160405280601c81526020017f19457468657265756d205369676e6564204d6573736167653a0a333200000000815250905080896040516020018083805190602001908083835b602083101515610d4a5780518252602082019150602081019050602083039250610d25565b6001836020036101000a0380198251168184511680821785525050505050509050018260001916600019168152602001925050506040516020818303038152906040526040518082805190602001908083835b602083101515610dc25780518252602082019150602081019050602083039250610d9d565b6001836020036101000a038019825116818451168082178552505050505050905001915050604051809103902091505b8473ffffffffffffffffffffffffffffffffffffffff166001838a8a8a604051600081526020016040526040518085600019166000191681526020018460ff1660ff1681526020018360001916600019168152602001826000191660001916815260200194505050505060206040516020810390808403906000865af1158015610e80573d6000803e3d6000fd5b5050506020604051035173ffffffffffffffffffffffffffffffffffffffff1614925050509695505050505050565b600a5481565b600081600260003373ffffffffffffffffffffffffffffffffffffffff1673ffffffffffffffffffffffffffffffffffffffff16815260200190815260200160002060008573ffffffffffffffffffffffffffffffffffffffff1673ffffffffffffffffffffffffffffffffffffffff168152602001908152602001600020819055508273ffffffffffffffffffffffffffffffffffffffff163373ffffffffffffffffffffffffffffffffffffffff167f8c5be1e5ebec7d5bd14f71427d1e84f3dd0314c0f7b2291e5b200ac8c7c3b925846040518082815260200191505060405180910390a36001905092915050565b6000600154905090565b60008073ffffffffffffffffffffffffffffffffffffffff168373ffffffffffffffffffffffffffffffffffffffff1614151515610fee57600080fd5b6000808573ffffffffffffffffffffffffffffffffffffffff1673ffffffffffffffffffffffffffffffffffffffff16815260200190815260200160002054821115151561103b57600080fd5b600260008573ffffffffffffffffffffffffffffffffffffffff1673ffffffffffffffffffffffffffffffffffffffff16815260200190815260200160002060003373ffffffffffffffffffffffffffffffffffffffff1673ffffffffffffffffffffffffffffffffffffffff1681526020019081526020016000205482111515156110c657600080fd5b611117826000808773ffffffffffffffffffffffffffffffffffffffff1673ffffffffffffffffffffffffffffffffffffffff16815260200190815260200160002054612a5490919063ffffffff16565b6000808673ffffffffffffffffffffffffffffffffffffffff1673ffffffffffffffffffffffffffffffffffffffff168152602001908152602001600020819055506111aa826000808673ffffffffffffffffffffffffffffffffffffffff1673ffffffffffffffffffffffffffffffffffffffff16815260200190815260200160002054612a6d90919063ffffffff16565b6000808573ffffffffffffffffffffffffffffffffffffffff1673ffffffffffffffffffffffffffffffffffffffff1681526020019081526020016000208190555061127b82600260008773ffffffffffffffffffffffffffffffffffffffff1673ffffffffffffffffffffffffffffffffffffffff16815260200190815260200160002060003373ffffffffffffffffffffffffffffffffffffffff1673ffffffffffffffffffffffffffffffffffffffff16815260200190815260200160002054612a5490919063ffffffff16565b600260008673ffffffffffffffffffffffffffffffffffffffff1673ffffffffffffffffffffffffffffffffffffffff16815260200190815260200160002060003373ffffffffffffffffffffffffffffffffffffffff1673ffffffffffffffffffffffffffffffffffffffff168152602001908152602001600020819055508273ffffffffffffffffffffffffffffffffffffffff168473ffffffffffffffffffffffffffffffffffffffff167fddf252ad1be2c89b69c2b068fc378daa952ba7f163c4a11628f55a4df523b3ef846040518082815260200191505060405180910390a3600190509392505050565b600080600080600061138b6402540be40087612a8990919063ffffffff16565b9350683635c9adc5dea000008411156114245769152d02c7e14af680000084101561140c57611405640ba43b74006113f760096113e960026113db64174876e8008b612a5490919063ffffffff16565b612a8990919063ffffffff16565b612ac190919063ffffffff16565b612a6d90919063ffffffff16565b9350611423565b611420600485612ac190919063ffffffff16565b93505b5b426004541061143457600061145f565b61145e62093a8061145060045442612a5490919063ffffffff16565b612ac190919063ffffffff16565b5b9250611488611478600285612a8990919063ffffffff16565b6064612a5490919063ffffffff16565b91506114b060646114a28487612a8990919063ffffffff16565b612ac190919063ffffffff16565b9050602d8311156114c3578094506116dc565b60208311156114fa576114f360646114e5606584612a8990919063ffffffff16565b612ac190919063ffffffff16565b94506116dc565b60188311156115315761152a606461151c606684612a8990919063ffffffff16565b612ac190919063ffffffff16565b94506116dc565b6012831115611568576115616064611553606784612a8990919063ffffffff16565b612ac190919063ffffffff16565b94506116dc565b600e83111561159f57611598606461158a606884612a8990919063ffffffff16565b612ac190919063ffffffff16565b94506116dc565b600a8311156115d6576115cf60646115c1606984612a8990919063ffffffff16565b612ac190919063ffffffff16565b94506116dc565b600783111561160d5761160660646115f8606a84612a8990919063ffffffff16565b612ac190919063ffffffff16565b94506116dc565b60058311156116445761163d606461162f606b84612a8990919063ffffffff16565b612ac190919063ffffffff16565b94506116dc565b600383111561167b576116746064611666606c84612a8990919063ffffffff16565b612ac190919063ffffffff16565b94506116dc565b60018311156116b2576116ab606461169d606d84612a8990919063ffffffff16565b612ac190919063ffffffff16565b94506116dc565b6116d960646116cb606e84612a8990919063ffffffff16565b612ac190919063ffffffff16565b94505b50505050919050565b60066020528060005260406000206000915090505481565b600073ffffffffffffffffffffffffffffffffffffffff826040518082805190602001908083835b60208310151561174a5780518252602082019150602081019050602083039250611725565b6001836020036101000a038019825116818451168082178552505050505050905001915050604051809103902060019004169050919050565b600080600260003373ffffffffffffffffffffffffffffffffffffffff1673ffffffffffffffffffffffffffffffffffffffff16815260200190815260200160002060008573ffffffffffffffffffffffffffffffffffffffff1673ffffffffffffffffffffffffffffffffffffffff16815260200190815260200160002054905080831115611894576000600260003373ffffffffffffffffffffffffffffffffffffffff1673ffffffffffffffffffffffffffffffffffffffff16815260200190815260200160002060008673ffffffffffffffffffffffffffffffffffffffff1673ffffffffffffffffffffffffffffffffffffffff16815260200190815260200160002081905550611928565b6118a78382612a5490919063ffffffff16565b600260003373ffffffffffffffffffffffffffffffffffffffff1673ffffffffffffffffffffffffffffffffffffffff16815260200190815260200160002060008673ffffffffffffffffffffffffffffffffffffffff1673ffffffffffffffffffffffffffffffffffffffff168152602001908152602001600020819055505b8373ffffffffffffffffffffffffffffffffffffffff163373ffffffffffffffffffffffffffffffffffffffff167f8c5be1e5ebec7d5bd14f71427d1e84f3dd0314c0f7b2291e5b200ac8c7c3b925600260003373ffffffffffffffffffffffffffffffffffffffff1673ffffffffffffffffffffffffffffffffffffffff16815260200190815260200160002060008873ffffffffffffffffffffffffffffffffffffffff1673ffffffffffffffffffffffffffffffffffffffff168152602001908152602001600020546040518082815260200191505060405180910390a3600191505092915050565b60086020528060005260406000206000915054906101000a900460ff1681565b60075481565b60008060008373ffffffffffffffffffffffffffffffffffffffff1673ffffffffffffffffffffffffffffffffffffffff168152602001908152602001600020549050919050565b60008060006004544210151515611a9857600080fd5b611aa0611d77565b611aaa888861268f565b9150818a60405160200180836bffffffffffffffffffffffff19166bffffffffffffffffffffffff19168152601401828152602001925050506040516020818303038152906040526040518082805190602001908083835b602083101515611b275780518252602082019150602081019050602083039250611b02565b6001836020036101000a03801982511681845116808217855250505050505090500191505060405180910390209050611b60818a611d2c565b1515611b6b57600080fd5b611b78338988888861222c565b1515611b8357600080fd5b600160086000836000191660001916815260200190815260200160002060006101000a81548160ff021916908315150217905550611bc08a61136b565b9250600a54611bda84600954612a6d90919063ffffffff16565b11151515611be757600080fd5b611bfc83600954612a6d90919063ffffffff16565b600981905550611c53836000803373ffffffffffffffffffffffffffffffffffffffff1673ffffffffffffffffffffffffffffffffffffffff16815260200190815260200160002054612a6d90919063ffffffff16565b6000803373ffffffffffffffffffffffffffffffffffffffff1673ffffffffffffffffffffffffffffffffffffffff16815260200190815260200160002081905550611caa83600154612a6d90919063ffffffff16565b6001819055503373ffffffffffffffffffffffffffffffffffffffff16600073ffffffffffffffffffffffffffffffffffffffff167fddf252ad1be2c89b69c2b068fc378daa952ba7f163c4a11628f55a4df523b3ef856040518082815260200191505060405180910390a38292505050979650505050505050565b60045481565b600080151560086000856000191660001916815260200190815260200160002060009054906101000a900460ff161515148015611d6f5750611d6e8284612215565b5b905092915050565b600080611da462093a80611d9660045442612a5490919063ffffffff16565b612ac190919063ffffffff16565b915060328211158015611db8575060055482115b15611df657611dd4600954600a54612a5490919063ffffffff16565b9050806006600084815260200190815260200160002081905550816005819055505b5050565b600360009054906101000a900473ffffffffffffffffffffffffffffffffffffffff1681565b60055481565b60008073ffffffffffffffffffffffffffffffffffffffff168373ffffffffffffffffffffffffffffffffffffffff1614151515611e6357600080fd5b6000803373ffffffffffffffffffffffffffffffffffffffff1673ffffffffffffffffffffffffffffffffffffffff168152602001908152602001600020548211151515611eb057600080fd5b611f01826000803373ffffffffffffffffffffffffffffffffffffffff1673ffffffffffffffffffffffffffffffffffffffff16815260200190815260200160002054612a5490919063ffffffff16565b6000803373ffffffffffffffffffffffffffffffffffffffff1673ffffffffffffffffffffffffffffffffffffffff16815260200190815260200160002081905550611f94826000808673ffffffffffffffffffffffffffffffffffffffff1673ffffffffffffffffffffffffffffffffffffffff16815260200190815260200160002054612a6d90919063ffffffff16565b6000808573ffffffffffffffffffffffffffffffffffffffff1673ffffffffffffffffffffffffffffffffffffffff168152602001908152602001600020819055508273ffffffffffffffffffffffffffffffffffffffff163373ffffffffffffffffffffffffffffffffffffffff167fddf252ad1be2c89b69c2b068fc378daa952ba7f163c4a11628f55a4df523b3ef846040518082815260200191505060405180910390a36001905092915050565b60003373ffffffffffffffffffffffffffffffffffffffff168273ffffffffffffffffffffffffffffffffffffffff161415151561208257600080fd5b600073ffffffffffffffffffffffffffffffffffffffff168273ffffffffffffffffffffffffffffffffffffffff16141515156120be57600080fd5b61212e8b8b8b808060200260200160405190810160405280939291908181526020018383602002808284378201915050505050508a8a8080601f01602080910402602001604051908101604052809392919081815260200183838082843782019150505050505089898989611a82565b9050612194612147601483612ac190919063ffffffff16565b6000808573ffffffffffffffffffffffffffffffffffffffff1673ffffffffffffffffffffffffffffffffffffffff16815260200190815260200160002054612a6d90919063ffffffff16565b6000808473ffffffffffffffffffffffffffffffffffffffff1673ffffffffffffffffffffffffffffffffffffffff168152602001908152602001600020819055506121fe6121ed601483612ac190919063ffffffff16565b600154612a6d90919063ffffffff16565b6001819055508090509a9950505050505050505050565b60006122248360075484612ad7565b905092915050565b6000612340600287604051602001808273ffffffffffffffffffffffffffffffffffffffff1673ffffffffffffffffffffffffffffffffffffffff166c010000000000000000000000000281526014019150506040516020818303038152906040526040518082805190602001908083835b6020831015156122c3578051825260208201915060208101905060208303925061229e565b6001836020036101000a0380198251168184511680821785525050505050509050019150506020604051808303816000865af1158015612307573d6000803e3d6000fd5b5050506040513d602081101561231c57600080fd5b81019080805190602001909291905050508585856123398a6116fd565b6000610cc4565b905095945050505050565b600080848460405160200180836bffffffffffffffffffffffff19166bffffffffffffffffffffffff19168152601401828152602001925050506040516020818303038152906040526040518082805190602001908083835b6020831015156123c957805182526020820191506020810190506020830392506123a4565b6001836020036101000a038019825116818451168082178552505050505050905001915050604051809103902090506124028184611d2c565b9150509392505050565b600061249d82600260003373ffffffffffffffffffffffffffffffffffffffff1673ffffffffffffffffffffffffffffffffffffffff16815260200190815260200160002060008673ffffffffffffffffffffffffffffffffffffffff1673ffffffffffffffffffffffffffffffffffffffff16815260200190815260200160002054612a6d90919063ffffffff16565b600260003373ffffffffffffffffffffffffffffffffffffffff1673ffffffffffffffffffffffffffffffffffffffff16815260200190815260200160002060008573ffffffffffffffffffffffffffffffffffffffff1673ffffffffffffffffffffffffffffffffffffffff168152602001908152602001600020819055508273ffffffffffffffffffffffffffffffffffffffff163373ffffffffffffffffffffffffffffffffffffffff167f8c5be1e5ebec7d5bd14f71427d1e84f3dd0314c0f7b2291e5b200ac8c7c3b925600260003373ffffffffffffffffffffffffffffffffffffffff1673ffffffffffffffffffffffffffffffffffffffff16815260200190815260200160002060008773ffffffffffffffffffffffffffffffffffffffff1673ffffffffffffffffffffffffffffffffffffffff168152602001908152602001600020546040518082815260200191505060405180910390a36001905092915050565b6000600260008473ffffffffffffffffffffffffffffffffffffffff1673ffffffffffffffffffffffffffffffffffffffff16815260200190815260200160002060008373ffffffffffffffffffffffffffffffffffffffff1673ffffffffffffffffffffffffffffffffffffffff16815260200190815260200160002054905092915050565b6000806000806126a0866000612ba2565b6001900492506126b1866020612ba2565b600190049150841561288d5760006002838115156126cb57fe5b06146126d85760036126db565b60025b9050600360028285604051602001808360ff1660ff167f0100000000000000000000000000000000000000000000000000000000000000028152600101828152602001925050506040516020818303038152906040526040518082805190602001908083835b6020831015156127665780518252602082019150602081019050602083039250612741565b6001836020036101000a0380198251168184511680821785525050505050509050019150506020604051808303816000865af11580156127aa573d6000803e3d6000fd5b5050506040513d60208110156127bf57600080fd5b81019080805190602001909291905050506040516020018082600019166000191681526020019150506040516020818303038152906040526040518082805190602001908083835b60208310151561282c5780518252602082019150602081019050602083039250612807565b6001836020036101000a0380198251168184511680821785525050505050509050019150506020604051808303816000865af1158015612870573d6000803e3d6000fd5b505050604051516c01000000000000000000000000029350612a45565b6004905060036002828585604051602001808460ff1660ff167f010000000000000000000000000000000000000000000000000000000000000002815260010183815260200182815260200193505050506040516020818303038152906040526040518082805190602001908083835b60208310151561292257805182526020820191506020810190506020830392506128fd565b6001836020036101000a0380198251168184511680821785525050505050509050019150506020604051808303816000865af1158015612966573d6000803e3d6000fd5b5050506040513d602081101561297b57600080fd5b81019080805190602001909291905050506040516020018082600019166000191681526020019150506040516020818303038152906040526040518082805190602001908083835b6020831015156129e857805182526020820191506020810190506020830392506129c3565b6001836020036101000a0380198251168184511680821785525050505050509050019150506020604051808303816000865af1158015612a2c573d6000803e3d6000fd5b505050604051516c010000000000000000000000000293505b50505092915050565b60095481565b6000828211151515612a6257fe5b818303905092915050565b60008183019050828110151515612a8057fe5b80905092915050565b600080831415612a9c5760009050612abb565b8183029050818382811515612aad57fe5b04141515612ab757fe5b8090505b92915050565b60008183811515612ace57fe5b04905092915050565b600080600080849250600091505b8651821015612b8b578682815181101515612afc57fe5b906020019060200201519050806000191683600019161015612b4d57828160405180836000191660001916815260200182600019166000191681526020019250505060405180910390209250612b7e565b8083604051808360001916600019168152602001826000191660001916815260200192505050604051809103902092505b8180600101925050612ae5565b856000191683600019161493505050509392505050565b600080600090505b6020811015612c74576008810284848301815181101515612bc757fe5b9060200101517f010000000000000000000000000000000000000000000000000000000000000090047f0100000000000000000000000000000000000000000000000000000000000000027effffffffffffffffffffffffffffffffffffffffffffffffffffffffffffff19167fff0000000000000000000000000000000000000000000000000000000000000060010216600019169060020a9004821891508080600101915050612baa565b81915050929150505600a165627a7a72305820e54c46ef250a2beba81ea645ba358ea771e798b3665ea83809ed68bf76f64b6c0029",
  "source": "/*\n\n  UTXO redeemable token.\n\n  This is a token extension to allow porting a Bitcoin or Bitcoin-fork sourced UTXO set to an ERC20 token through redemption of individual UTXOs in the token contract.\n    \n  Owners of UTXOs in a chosen final set (where \"owner\" is simply anyone who could have spent the UTXO) are allowed to redeem (mint) a number of tokens proportional to the satoshi amount of the UTXO.\n\n  Notes\n\n    - This method *does not* provision for special Bitcoin scripts (e.g. multisig addresses).\n    - Pending transactions are public, so the UTXO redemption transaction must work *only* for an Ethereum address belonging to the same person who owns the UTXO.\n      This is enforced by requiring that the redeeemer sign their Ethereum address with their Bitcoin (original-chain) private key.\n    - We cannot simply store the UTXO set, as that would be far too expensive. Instead we compute a Merkle tree for the entire UTXO set at the chain state which is to be ported,\n      store only the root of that Merkle tree, and require UTXO claimants prove that the UTXO they wish to claim is present in the tree.\n\n*/\n\npragma solidity ^0.4.23;\n\nimport \"../node_modules/openzeppelin-solidity/contracts/token/ERC20/StandardToken.sol\";\nimport \"../node_modules/openzeppelin-solidity/contracts/MerkleProof.sol\";\n\n\n/**\n* Based on https://github.com/ProjectWyvern/wyvern-ethereum\n*/\ncontract UTXORedeemableToken is StandardToken {\n\n    /* Origin Address */\n    address public origin;\n\n    /* Store time of launch for contract */\n    uint256 public launchTime;\n\n    /* Store last updated week */\n    uint256 public lastUpdatedWeek = 0;\n\n    /* Weekly update data */\n    mapping(uint256 => uint256) public unclaimedCoinsByWeek;\n\n    /* Root hash of the UTXO Merkle tree, must be initialized by token constructor. */\n    bytes32 public rootUtxoMerkleTreeHash;\n\n    /* Redeemed UTXOs. */\n    mapping(bytes32 => bool) public redeemedUTXOs;\n\n    /* Total tokens redeemed so far. */\n    uint256 public totalRedeemed = 0;\n\n    /* Maximum redeemable tokens, must be initialized by token constructor. */\n    uint256 public maximumRedeemable;\n\n    /* Claim, stake, and minting events need to happen atleast once every week for this function to\n       run automatically, otherwise function can be manually called for that week */\n    function storeWeekUnclaimed()\n      public \n    {\n        uint256 _weeksSinceLaunch = block.timestamp.sub(launchTime).div(7 days);\n\n        if (_weeksSinceLaunch <= 50 && _weeksSinceLaunch > lastUpdatedWeek) {\n            uint256 unclaimedCoins = maximumRedeemable.sub(totalRedeemed);\n            unclaimedCoinsByWeek[_weeksSinceLaunch] = unclaimedCoins;\n            lastUpdatedWeek = _weeksSinceLaunch;\n        }\n    }\n\n    /**\n     * @dev Extract a bytes32 subarray from an arbitrary length bytes array.\n     * @param _data Bytes array from which to extract the subarray\n     * @param _pos Starting position from which to copy\n     * @return Extracted length 32 byte array\n     */\n    function extract(\n        bytes _data, \n        uint256 _pos\n    ) \n        private\n        pure \n        returns (bytes32 _result) \n    { \n        for (uint256 _i = 0; _i < 32; _i++) {\n            _result ^= (bytes32(0xff00000000000000000000000000000000000000000000000000000000000000) & _data[_i + _pos]) >> (_i * 8);\n        }\n        return _result;\n    }\n    \n    /**\n     * @dev Validate that a provided ECSDA signature was signed by the specified address\n     * @param _hash Hash of signed data\n     * @param _v v parameter of ECDSA signature\n     * @param _r r parameter of ECDSA signature\n     * @param _s s parameter of ECDSA signature\n     * @param _expected Address claiming to have created this signature\n     * @return Whether or not the signature was valid\n     */\n    function validateSignature(\n        bytes32 _hash, \n        uint8 _v, \n        bytes32 _r, \n        bytes32 _s, \n        address _expected,\n        bool _addPrefix\n    ) \n      public \n      pure \n      returns (bool) \n    {\n        bytes32 _formattedHash;\n\n        if (!_addPrefix) {\n            _formattedHash = _hash;\n        } else {\n            // accomodate geth method of signing data with prefixed message\n            bytes memory _prefix = \"\\x19Ethereum Signed Message:\\n32\";\n            _formattedHash = keccak256(abi.encodePacked(_prefix, _hash));\n        }\n\n        return ecrecover(\n            _formattedHash, \n            _v, \n            _r, \n            _s\n        ) == _expected;\n    }\n\n    /**\n     * @dev Validate that the hash of a provided address was signed by the ECDSA public key associated with the specified Ethereum address\n     * @param _addr Address signed\n     * @param _pubKey Uncompressed ECDSA public key claiming to have created this signature\n     * @param _v v parameter of ECDSA signature\n     * @param _r r parameter of ECDSA signature\n     * @param _s s parameter of ECDSA signature\n     * @return Whether or not the signature was valid\n     */\n    function ecdsaVerify(\n        address _addr, \n        bytes _pubKey, \n        uint8 _v, \n        bytes32 _r, \n        bytes32 _s\n    ) \n      public \n      pure \n      returns (bool)\n    {\n        return validateSignature(\n            sha256(abi.encodePacked(_addr)),  // hash\n            _v, \n            _r, \n            _s, \n            pubKeyToEthereumAddress(_pubKey), // expected\n            false // do not prepend message\n        );\n    }\n\n    /**\n     * @dev Convert an uncompressed ECDSA public key into an Ethereum address\n     * @param _pubKey Uncompressed ECDSA public key to convert\n     * @return Ethereum address generated from the ECDSA public key\n     */\n    function pubKeyToEthereumAddress(\n        bytes _pubKey\n    )\n        public \n        pure \n        returns (address) \n    {\n        return address(\n            uint256(keccak256(_pubKey)) & 0x000FFFFFFFFFFFFFFFFFFFFFFFFFFFFFFFFFFFFFFFF\n        );\n    }\n\n    /**\n     * @dev Calculate the Bitcoin-style address associated with an ECDSA public key\n     * @param _pubKey ECDSA public key to convert\n     * @param _isCompressed Whether or not the Bitcoin address was generated from a compressed key\n     * @return Raw Bitcoin address (no base58-check encoding)\n     */\n    function pubKeyToBitcoinAddress(\n        bytes _pubKey, \n        bool _isCompressed\n    ) \n        public \n        pure \n        returns (bytes20) \n    {\n        /* Helpful references:\n           - https://en.bitcoin.it/wiki/Technical_background_of_version_1_Bitcoin_addresses \n           - https://github.com/cryptocoinjs/ecurve/blob/master/lib/point.js\n        */\n\n        /* x coordinate - first 32 bytes of public key */\n        uint256 _x = uint256(extract(_pubKey, 0));\n        /* y coordinate - second 32 bytes of public key */\n        uint256 _y = uint256(extract(_pubKey, 32)); \n        uint8 _startingByte;\n        if (_isCompressed) {\n            /* Hash the compressed public key format. */\n            _startingByte = _y % 2 == 0 ? 0x02 : 0x03;\n            return ripemd160(\n                abi.encodePacked(sha256(abi.encodePacked(_startingByte, _x)))\n            );\n        } else {\n            /* Hash the uncompressed public key format. */\n            _startingByte = 0x04;\n            return ripemd160(\n                abi.encodePacked(sha256(abi.encodePacked(_startingByte, _x, _y)))\n            );\n        }\n    }\n\n    /**\n     * @dev Verify a Merkle proof using the UTXO Merkle tree\n     * @param _proof Generated Merkle tree proof\n     * @param _merkleLeafHash Hash asserted to be present in the Merkle tree\n     * @return Whether or not the proof is valid\n     */\n    function verifyProof(\n        bytes32[] _proof, \n        bytes32 _merkleLeafHash\n    ) \n        public \n        view \n        returns (bool)\n    {\n        return MerkleProof.verifyProof(_proof, rootUtxoMerkleTreeHash, _merkleLeafHash);\n    }\n\n    /**\n     * @dev Verify that a UTXO with the specified Merkle leaf hash can be redeemed\n     * @param _merkleLeafHash Merkle tree hash of the UTXO to be checked\n     * @param _proof Merkle tree proof\n     * @return Whether or not the UTXO with the specified hash can be redeemed\n     */\n    function canRedeemUtxoHash(\n        bytes32 _merkleLeafHash, \n        bytes32[] _proof\n    ) \n        public view returns (bool) \n    {\n        /* Check that the UTXO has not yet been redeemed and that it exists in the Merkle tree. */\n        return(\n          (redeemedUTXOs[_merkleLeafHash] == false) && \n          verifyProof(_proof, _merkleLeafHash)\n        );\n    }\n\n    /**\n     * @dev Convenience helper function to check if a UTXO can be redeemed\n     * @param _originalAddress Raw Bitcoin address (no base58-check encoding)\n     * @param _satoshis Amount of UTXO in satoshis\n     * @param _proof Merkle tree proof\n     * @return Whether or not the UTXO can be redeemed\n     */\n    function canRedeemUtxo(\n        bytes20 _originalAddress,\n        uint256 _satoshis,\n        bytes32[] _proof\n    ) \n        public \n        view \n        returns (bool)\n    {\n        /* Calculate the hash of the Merkle leaf associated with this UTXO. */\n        bytes32 merkleLeafHash = keccak256(\n            abi.encodePacked(\n                _originalAddress, \n                _satoshis\n            )\n        );\n    \n        /* Verify the proof. */\n        return canRedeemUtxoHash(merkleLeafHash, _proof);\n    }\n\n    function getRedeemAmount(\n        uint256 _satoshis\n    ) \n        public \n        view \n        returns (uint256) \n    {\n        /* Convert from 8 decimals to 18 */\n        uint256 _bhxWei = _satoshis.mul(1e10);\n\n        /* Silly whale reduction\n           If claim amount is above 1000 BHX with 18 decimals ( 1e3 * 1e18 = 1e21) */\n        if (_bhxWei > 1e21) {\n            /* If claim amount is below 100000 BHX with 18 decimals (1e5 * 1e18 = 1e23) */\n            if (_bhxWei < 1e23) {\n                /* If between 1000 and 10000, penalise by 50% to 75% linearly\n                   The following is a range convert from 1000-10000 to 500-2500\n                   _bhxWei = ((Input - InputLow) / (InputHigh - InputLow)) * (OutputHigh - OutputLow) + OutputLow\n                   _bhxWei = ((x - 1000) / (10000 - 1000)) * (2500 - 500) + 500\n                   _bhxWei = (2 (x - 1000))/9 + 500 */\n                _bhxWei = _bhxWei\n                    .sub(1e11)\n                    .mul(2)\n                    .div(9)\n                    .add(5e10);\n            } else {\n                /* If greater than 10000 BHX penalise by 75% */\n                _bhxWei = _bhxWei.div(4);\n            }\n        }\n\n        /* If before launch return 0 weeks otherwise calculate */\n        uint256 _weeksSinceLaunch = launchTime < block.timestamp \n            ? block.timestamp.sub(launchTime).div(7 days) \n            : 0;\n\n        /* Calculate percent reduction */\n        uint256 _reduction = uint256(100).sub(_weeksSinceLaunch.mul(2));\n\n        /* \n          Calculate redeem amount in standard token decimals (1e18): \n          already has 8 decimals (1e8 * 1e10 = 1e18) \n        */\n        uint256 _redeemAmount = _bhxWei.mul(_reduction).div(100);\n\n        /* Apply speed bonus */\n        if(_weeksSinceLaunch > 45) {\n            return _redeemAmount;\n        }\n\n        if(_weeksSinceLaunch > 32) {\n            return _redeemAmount.mul(101).div(100);\n        }\n\n        if(_weeksSinceLaunch > 24) {\n            return _redeemAmount.mul(102).div(100);\n        }\n\n        if(_weeksSinceLaunch > 18) {\n            return _redeemAmount.mul(103).div(100);\n        }\n\n        if(_weeksSinceLaunch > 14) {\n            return _redeemAmount.mul(104).div(100);\n        }\n\n        if(_weeksSinceLaunch > 10) {\n            return _redeemAmount.mul(105).div(100);\n        }\n\n        if(_weeksSinceLaunch > 7) {\n            return _redeemAmount.mul(106).div(100);\n        }\n\n        if(_weeksSinceLaunch > 5) {\n            return _redeemAmount.mul(107).div(100);\n        }\n\n        if(_weeksSinceLaunch > 3) {\n            return _redeemAmount.mul(108).div(100);\n        }\n\n        if(_weeksSinceLaunch > 1) {\n            return _redeemAmount.mul(109).div(100);\n        }\n\n        return _redeemAmount.mul(110).div(100);\n    }\n\n    /**\n     * @dev Redeem a UTXO, crediting a proportional amount of tokens (if valid) to the sending address\n     * @param _satoshis Amount of UTXO in satoshis\n     * @param _proof Merkle tree proof\n     * @param _pubKey Uncompressed ECDSA public key to which the UTXO was sent\n     * @param _isCompressed Whether the Bitcoin address was generated from a compressed public key\n     * @param _v v parameter of ECDSA signature\n     * @param _r r parameter of ECDSA signature\n     * @param _s s parameter of ECDSA signature\n     * @return The number of tokens redeemed, if successful\n     */\n     // TODO: make sure that this cannot be claimed after 50 weeks\n    function redeemUtxo(\n        uint256 _satoshis,\n        bytes32[] _proof,\n        bytes _pubKey,\n        bool _isCompressed,\n        uint8 _v,\n        bytes32 _r,\n        bytes32 _s\n    ) \n        public \n        returns (uint256 _tokensRedeemed)\n    {\n        // ensure that redeeming after launch time\n        require(block.timestamp >= launchTime);\n        /* Check if weekly data needs to be updated */\n        storeWeekUnclaimed();\n\n        // /* Disable claims after 50 weeks */\n        // require(block.timestamp.sub(launchTime).div(7 days) < 50);\n\n        /* Calculate original Bitcoin-style address associated with the provided public key. */\n        bytes20 _originalAddress = pubKeyToBitcoinAddress(_pubKey, _isCompressed);\n\n        /* Calculate the UTXO Merkle leaf hash. */\n        bytes32 _merkleLeafHash = keccak256(\n            abi.encodePacked(\n                _originalAddress, \n                _satoshis\n            )\n        );\n\n        /* Verify that the UTXO can be redeemed. */\n        require(canRedeemUtxoHash(_merkleLeafHash, _proof));\n\n        /* Claimant must sign the Ethereum address to which they wish to remit the redeemed tokens. */\n        require(\n            ecdsaVerify(\n                msg.sender, \n                _pubKey, \n                _v, \n                _r, \n                _s\n            )\n        );\n\n        /* Mark the UTXO as redeemed. */\n        redeemedUTXOs[_merkleLeafHash] = true;\n\n        _tokensRedeemed = getRedeemAmount(_satoshis);\n\n        /* Sanity check. */\n        require(totalRedeemed.add(_tokensRedeemed) <= maximumRedeemable);\n\n        /* Track total redeemed tokens. */\n        totalRedeemed = totalRedeemed.add(_tokensRedeemed);\n\n        /* Credit the redeemer. */ \n        balances[msg.sender] = balances[msg.sender].add(_tokensRedeemed);\n\n        /* Increase supply */\n        totalSupply_ = totalSupply_.add(_tokensRedeemed);\n\n        /* Mark the transfer event. */\n        emit Transfer(address(0), msg.sender, _tokensRedeemed);\n        \n        /* Return the number of tokens redeemed. */\n        return _tokensRedeemed;\n\n    }\n\n    /**\n     * @dev Redeem a UTXO, crediting a proportional amount of tokens (if valid) to the sending address\n     * @param _satoshis Amount of UTXO in satoshis\n     * @param _proof Merkle tree proof\n     * @param _pubKey Uncompressed ECDSA public key to which the UTXO was sent\n     * @param _isCompressed Whether the Bitcoin address was generated from a compressed public key\n     * @param _v v parameter of ECDSA signature\n     * @param _r r parameter of ECDSA signature\n     * @param _s s parameter of ECDSA signature\n     * @param _referrer address of referring person\n     * @return The number of tokens redeemed, if successful\n     */\n    function redeemReferredUtxo(\n        uint256 _satoshis,\n        bytes32[] _proof,\n        bytes _pubKey,\n        bool _isCompressed,\n        uint8 _v,\n        bytes32 _r,\n        bytes32 _s,\n        address _referrer\n    ) \n        external \n        returns (uint256 _tokensRedeemed) \n    {\n        /* Prevent Self-Referral */\n        require(_referrer != msg.sender);\n        require(_referrer != address(0));\n\n        /* Credit claimer */\n        _tokensRedeemed = redeemUtxo (\n            _satoshis,\n            _proof,\n            _pubKey,\n            _isCompressed,\n            _v,\n            _r,\n            _s\n        );\n\n        /* Credit referrer */\n        balances[_referrer] = balances[_referrer].add(_tokensRedeemed.div(20));\n\n        /* Increase supply */\n        totalSupply_ = totalSupply_.add(_tokensRedeemed.div(20));\n\n        return _tokensRedeemed;\n    }\n\n}",
  "sourcePath": "/Users/tovarishfin/dev/bhx/bhx-contracts/contracts/UTXORedeemableToken.sol",
  "compiler": {
    "name": "solc",
    "version": "0.4.24+commit.e67f0147.Emscripten.clang"
  },
  "schemaVersion": "2.0.0",
  "updatedAt": "2018-07-17T09:14:02.970Z"
}