{
  "contractName": "UTXORedeemableTokenStub",
  "abi": [
    {
      "constant": true,
      "inputs": [],
      "name": "maximumRedeemable",
      "outputs": [
        {
          "name": "",
          "type": "uint256"
        }
      ],
      "payable": false,
      "stateMutability": "view",
      "type": "function"
    },
    {
      "constant": false,
      "inputs": [
        {
          "name": "_spender",
          "type": "address"
        },
        {
          "name": "_value",
          "type": "uint256"
        }
      ],
      "name": "approve",
      "outputs": [
        {
          "name": "",
          "type": "bool"
        }
      ],
      "payable": false,
      "stateMutability": "nonpayable",
      "type": "function"
    },
    {
      "constant": true,
      "inputs": [],
      "name": "totalSupply",
      "outputs": [
        {
          "name": "",
          "type": "uint256"
        }
      ],
      "payable": false,
      "stateMutability": "view",
      "type": "function"
    },
    {
      "constant": false,
      "inputs": [
        {
          "name": "_from",
          "type": "address"
        },
        {
          "name": "_to",
          "type": "address"
        },
        {
          "name": "_value",
          "type": "uint256"
        }
      ],
      "name": "transferFrom",
      "outputs": [
        {
          "name": "",
          "type": "bool"
        }
      ],
      "payable": false,
      "stateMutability": "nonpayable",
      "type": "function"
    },
    {
      "constant": true,
      "inputs": [
        {
          "name": "pubKey",
          "type": "bytes"
        }
      ],
      "name": "pubKeyToEthereumAddress",
      "outputs": [
        {
          "name": "",
          "type": "address"
        }
      ],
      "payable": false,
      "stateMutability": "pure",
      "type": "function"
    },
    {
      "constant": false,
      "inputs": [
        {
          "name": "txid",
          "type": "bytes32"
        },
        {
          "name": "outputIndex",
          "type": "uint8"
        },
        {
          "name": "satoshis",
          "type": "uint256"
        },
        {
          "name": "proof",
          "type": "bytes32[]"
        },
        {
          "name": "pubKey",
          "type": "bytes"
        },
        {
          "name": "isCompressed",
          "type": "bool"
        },
        {
          "name": "v",
          "type": "uint8"
        },
        {
          "name": "r",
          "type": "bytes32"
        },
        {
          "name": "s",
          "type": "bytes32"
        },
        {
          "name": "referrer",
          "type": "address"
        }
      ],
      "name": "redeemUTXO",
      "outputs": [
        {
          "name": "tokensRedeemed",
          "type": "uint256"
        }
      ],
      "payable": false,
      "stateMutability": "nonpayable",
      "type": "function"
    },
    {
      "constant": false,
      "inputs": [
        {
          "name": "_spender",
          "type": "address"
        },
        {
          "name": "_subtractedValue",
          "type": "uint256"
        }
      ],
      "name": "decreaseApproval",
      "outputs": [
        {
          "name": "",
          "type": "bool"
        }
      ],
      "payable": false,
      "stateMutability": "nonpayable",
      "type": "function"
    },
    {
      "constant": true,
      "inputs": [
        {
          "name": "_owner",
          "type": "address"
        }
      ],
      "name": "balanceOf",
      "outputs": [
        {
          "name": "",
          "type": "uint256"
        }
      ],
      "payable": false,
      "stateMutability": "view",
      "type": "function"
    },
    {
      "constant": false,
      "inputs": [
        {
          "name": "txid",
          "type": "bytes32"
        },
        {
          "name": "outputIndex",
          "type": "uint8"
        },
        {
          "name": "satoshis",
          "type": "uint256"
        },
        {
          "name": "proof",
          "type": "bytes32[]"
        },
        {
          "name": "pubKey",
          "type": "bytes"
        },
        {
          "name": "isCompressed",
          "type": "bool"
        },
        {
          "name": "v",
          "type": "uint8"
        },
        {
          "name": "r",
          "type": "bytes32"
        },
        {
          "name": "s",
          "type": "bytes32"
        }
      ],
      "name": "redeemUTXO",
      "outputs": [
        {
          "name": "tokensRedeemed",
          "type": "uint256"
        }
      ],
      "payable": false,
      "stateMutability": "nonpayable",
      "type": "function"
    },
    {
      "constant": true,
      "inputs": [],
      "name": "launchTime",
      "outputs": [
        {
          "name": "",
          "type": "uint256"
        }
      ],
      "payable": false,
      "stateMutability": "view",
      "type": "function"
    },
    {
      "constant": true,
      "inputs": [
        {
          "name": "merkleLeafHash",
          "type": "bytes32"
        },
        {
          "name": "proof",
          "type": "bytes32[]"
        }
      ],
      "name": "canRedeemUTXOHash",
      "outputs": [
        {
          "name": "",
          "type": "bool"
        }
      ],
      "payable": false,
      "stateMutability": "view",
      "type": "function"
    },
    {
      "constant": false,
      "inputs": [],
      "name": "storeWeekUnclaimed",
      "outputs": [],
      "payable": false,
      "stateMutability": "nonpayable",
      "type": "function"
    },
    {
      "constant": true,
      "inputs": [],
      "name": "origin",
      "outputs": [
        {
          "name": "",
          "type": "address"
        }
      ],
      "payable": false,
      "stateMutability": "view",
      "type": "function"
    },
    {
      "constant": true,
      "inputs": [],
      "name": "lastUpdatedWeek",
      "outputs": [
        {
          "name": "",
          "type": "uint256"
        }
      ],
      "payable": false,
      "stateMutability": "view",
      "type": "function"
    },
    {
      "constant": false,
      "inputs": [
        {
          "name": "_to",
          "type": "address"
        },
        {
          "name": "_value",
          "type": "uint256"
        }
      ],
      "name": "transfer",
      "outputs": [
        {
          "name": "",
          "type": "bool"
        }
      ],
      "payable": false,
      "stateMutability": "nonpayable",
      "type": "function"
    },
    {
      "constant": true,
      "inputs": [
        {
          "name": "hash",
          "type": "bytes32"
        },
        {
          "name": "v",
          "type": "uint8"
        },
        {
          "name": "r",
          "type": "bytes32"
        },
        {
          "name": "s",
          "type": "bytes32"
        },
        {
          "name": "expected",
          "type": "address"
        }
      ],
      "name": "validateSignature",
      "outputs": [
        {
          "name": "",
          "type": "bool"
        }
      ],
      "payable": false,
      "stateMutability": "pure",
      "type": "function"
    },
    {
      "constant": true,
      "inputs": [
        {
          "name": "proof",
          "type": "bytes32[]"
        },
        {
          "name": "merkleLeafHash",
          "type": "bytes32"
        }
      ],
      "name": "verifyProof",
      "outputs": [
        {
          "name": "",
          "type": "bool"
        }
      ],
      "payable": false,
      "stateMutability": "view",
      "type": "function"
    },
    {
      "constant": true,
      "inputs": [
        {
          "name": "txid",
          "type": "bytes32"
        },
        {
          "name": "originalAddress",
          "type": "bytes20"
        },
        {
          "name": "outputIndex",
          "type": "uint8"
        },
        {
          "name": "satoshis",
          "type": "uint256"
        },
        {
          "name": "proof",
          "type": "bytes32[]"
        }
      ],
      "name": "canRedeemUTXO",
      "outputs": [
        {
          "name": "",
          "type": "bool"
        }
      ],
      "payable": false,
      "stateMutability": "view",
      "type": "function"
    },
    {
      "constant": true,
      "inputs": [
        {
          "name": "addr",
          "type": "address"
        },
        {
          "name": "pubKey",
          "type": "bytes"
        },
        {
          "name": "v",
          "type": "uint8"
        },
        {
          "name": "r",
          "type": "bytes32"
        },
        {
          "name": "s",
          "type": "bytes32"
        }
      ],
      "name": "ecdsaVerify",
      "outputs": [
        {
          "name": "",
          "type": "bool"
        }
      ],
      "payable": false,
      "stateMutability": "pure",
      "type": "function"
    },
    {
      "constant": false,
      "inputs": [
        {
          "name": "_spender",
          "type": "address"
        },
        {
          "name": "_addedValue",
          "type": "uint256"
        }
      ],
      "name": "increaseApproval",
      "outputs": [
        {
          "name": "",
          "type": "bool"
        }
      ],
      "payable": false,
      "stateMutability": "nonpayable",
      "type": "function"
    },
    {
      "constant": true,
      "inputs": [
        {
          "name": "_owner",
          "type": "address"
        },
        {
          "name": "_spender",
          "type": "address"
        }
      ],
      "name": "allowance",
      "outputs": [
        {
          "name": "",
          "type": "uint256"
        }
      ],
      "payable": false,
      "stateMutability": "view",
      "type": "function"
    },
    {
      "constant": true,
      "inputs": [
        {
          "name": "pubKey",
          "type": "bytes"
        },
        {
          "name": "isCompressed",
          "type": "bool"
        }
      ],
      "name": "pubKeyToBitcoinAddress",
      "outputs": [
        {
          "name": "",
          "type": "bytes20"
        }
      ],
      "payable": false,
      "stateMutability": "pure",
      "type": "function"
    },
    {
      "constant": true,
      "inputs": [],
      "name": "rootUTXOMerkleTreeHash",
      "outputs": [
        {
          "name": "",
          "type": "bytes32"
        }
      ],
      "payable": false,
      "stateMutability": "view",
      "type": "function"
    },
    {
      "constant": true,
      "inputs": [],
      "name": "totalRedeemed",
      "outputs": [
        {
          "name": "",
          "type": "uint256"
        }
      ],
      "payable": false,
      "stateMutability": "view",
      "type": "function"
    },
    {
      "inputs": [
        {
          "name": "_origin",
          "type": "address"
        },
        {
          "name": "_launchTime",
          "type": "uint256"
        },
        {
          "name": "_rootUTXOMerkleTreeHash",
          "type": "bytes32"
        },
        {
          "name": "_maximumRedeemable",
          "type": "uint256"
        }
      ],
      "payable": false,
      "stateMutability": "nonpayable",
      "type": "constructor"
    },
    {
      "anonymous": false,
      "inputs": [
        {
          "indexed": false,
          "name": "txid",
          "type": "bytes32"
        },
        {
          "indexed": false,
          "name": "outputIndex",
          "type": "uint8"
        },
        {
          "indexed": false,
          "name": "satoshis",
          "type": "uint256"
        },
        {
          "indexed": false,
          "name": "proof",
          "type": "bytes32[]"
        },
        {
          "indexed": false,
          "name": "pubKey",
          "type": "bytes"
        },
        {
          "indexed": false,
          "name": "v",
          "type": "uint8"
        },
        {
          "indexed": false,
          "name": "r",
          "type": "bytes32"
        },
        {
          "indexed": false,
          "name": "s",
          "type": "bytes32"
        },
        {
          "indexed": true,
          "name": "redeemer",
          "type": "address"
        },
        {
          "indexed": false,
          "name": "numberOfTokens",
          "type": "uint256"
        }
      ],
      "name": "UTXORedeemed",
      "type": "event"
    },
    {
      "anonymous": false,
      "inputs": [
        {
          "indexed": true,
          "name": "owner",
          "type": "address"
        },
        {
          "indexed": true,
          "name": "spender",
          "type": "address"
        },
        {
          "indexed": false,
          "name": "value",
          "type": "uint256"
        }
      ],
      "name": "Approval",
      "type": "event"
    },
    {
      "anonymous": false,
      "inputs": [
        {
          "indexed": true,
          "name": "from",
          "type": "address"
        },
        {
          "indexed": true,
          "name": "to",
          "type": "address"
        },
        {
          "indexed": false,
          "name": "value",
          "type": "uint256"
        }
      ],
      "name": "Transfer",
      "type": "event"
    }
  ],
  "bytecode": "0x60806040526000600555600060095534801561001a57600080fd5b50604051608080612cf88339810180604052810190808051906020019092919080519060200190929190805190602001909291908051906020019092919050505083600360006101000a81548173ffffffffffffffffffffffffffffffffffffffff021916908373ffffffffffffffffffffffffffffffffffffffff16021790555082600481905550816007816000191690555080600a8190555050505050612c30806100c86000396000f30060806040526004361061013e576000357c0100000000000000000000000000000000000000000000000000000000900463ffffffff16806308b4312b14610143578063095ea7b31461016e57806318160ddd146101d357806323b872dd146101fe5780635418796c1461028357806358523e011461032c578063661884631461040d57806370a0823114610472578063782520dd146104c9578063790ca413146105e35780637f7614721461060e5780639283032c1461069a578063938b5f32146106b15780639d65b89214610708578063a9059cbb14610733578063af1d06e814610798578063b80ac7df1461082a578063ca193e4d146108b6578063ce267b5514610972578063d73dd62314610a3c578063dd62ed3e14610aa1578063e073ef6914610b18578063e6997f6d14610bbf578063f35dad4014610bf2575b600080fd5b34801561014f57600080fd5b50610158610c1d565b6040518082815260200191505060405180910390f35b34801561017a57600080fd5b506101b9600480360381019080803573ffffffffffffffffffffffffffffffffffffffff16906020019092919080359060200190929190505050610c23565b604051808215151515815260200191505060405180910390f35b3480156101df57600080fd5b506101e8610d15565b6040518082815260200191505060405180910390f35b34801561020a57600080fd5b50610269600480360381019080803573ffffffffffffffffffffffffffffffffffffffff169060200190929190803573ffffffffffffffffffffffffffffffffffffffff16906020019092919080359060200190929190505050610d1f565b604051808215151515815260200191505060405180910390f35b34801561028f57600080fd5b506102ea600480360381019080803590602001908201803590602001908080601f01602080910402602001604051908101604052809392919081815260200183838082843782019150505050505091929192905050506110d9565b604051808273ffffffffffffffffffffffffffffffffffffffff1673ffffffffffffffffffffffffffffffffffffffff16815260200191505060405180910390f35b34801561033857600080fd5b506103f76004803603810190808035600019169060200190929190803560ff16906020019092919080359060200190929190803590602001908201803590602001919091929391929390803590602001908201803590602001919091929391929390803515159060200190929190803560ff16906020019092919080356000191690602001909291908035600019169060200190929190803573ffffffffffffffffffffffffffffffffffffffff16906020019092919050505061115f565b6040518082815260200191505060405180910390f35b34801561041957600080fd5b50610458600480360381019080803573ffffffffffffffffffffffffffffffffffffffff169060200190929190803590602001909291905050506112bc565b604051808215151515815260200191505060405180910390f35b34801561047e57600080fd5b506104b3600480360381019080803573ffffffffffffffffffffffffffffffffffffffff16906020019092919050505061154d565b6040518082815260200191505060405180910390f35b3480156104d557600080fd5b506105cd6004803603810190808035600019169060200190929190803560ff1690602001909291908035906020019092919080359060200190820180359060200190808060200260200160405190810160405280939291908181526020018383602002808284378201915050505050509192919290803590602001908201803590602001908080601f0160208091040260200160405190810160405280939291908181526020018383808284378201915050505050509192919290803515159060200190929190803560ff16906020019092919080356000191690602001909291908035600019169060200190929190505050611595565b6040518082815260200191505060405180910390f35b3480156105ef57600080fd5b506105f86119fa565b6040518082815260200191505060405180910390f35b34801561061a57600080fd5b50610680600480360381019080803560001916906020019092919080359060200190820180359060200190808060200260200160405190810160405280939291908181526020018383602002808284378201915050505050509192919290505050611a00565b604051808215151515815260200191505060405180910390f35b3480156106a657600080fd5b506106af611a4b565b005b3480156106bd57600080fd5b506106c6611ae5565b604051808273ffffffffffffffffffffffffffffffffffffffff1673ffffffffffffffffffffffffffffffffffffffff16815260200191505060405180910390f35b34801561071457600080fd5b5061071d611b0b565b6040518082815260200191505060405180910390f35b34801561073f57600080fd5b5061077e600480360381019080803573ffffffffffffffffffffffffffffffffffffffff16906020019092919080359060200190929190505050611b11565b604051808215151515815260200191505060405180910390f35b3480156107a457600080fd5b506108106004803603810190808035600019169060200190929190803560ff16906020019092919080356000191690602001909291908035600019169060200190929190803573ffffffffffffffffffffffffffffffffffffffff169060200190929190505050611d30565b604051808215151515815260200191505060405180910390f35b34801561083657600080fd5b5061089c600480360381019080803590602001908201803590602001908080602002602001604051908101604052809392919081815260200183836020028082843782019150505050505091929192908035600019169060200190929190505050611dec565b604051808215151515815260200191505060405180910390f35b3480156108c257600080fd5b50610958600480360381019080803560001916906020019092919080356bffffffffffffffffffffffff19169060200190929190803560ff1690602001909291908035906020019092919080359060200190820180359060200190808060200260200160405190810160405280939291908181526020018383602002808284378201915050505050509192919290505050611e03565b604051808215151515815260200191505060405180910390f35b34801561097e57600080fd5b50610a22600480360381019080803573ffffffffffffffffffffffffffffffffffffffff169060200190929190803590602001908201803590602001908080601f0160208091040260200160405190810160405280939291908181526020018383808284378201915050505050509192919290803560ff16906020019092919080356000191690602001909291908035600019169060200190929190505050611f06565b604051808215151515815260200191505060405180910390f35b348015610a4857600080fd5b50610a87600480360381019080803573ffffffffffffffffffffffffffffffffffffffff16906020019092919080359060200190929190505050612023565b604051808215151515815260200191505060405180910390f35b348015610aad57600080fd5b50610b02600480360381019080803573ffffffffffffffffffffffffffffffffffffffff169060200190929190803573ffffffffffffffffffffffffffffffffffffffff16906020019092919050505061221f565b6040518082815260200191505060405180910390f35b348015610b2457600080fd5b50610b8b600480360381019080803590602001908201803590602001908080601f01602080910402602001604051908101604052809392919081815260200183838082843782019150505050505091929192908035151590602001909291905050506122a6565b60405180826bffffffffffffffffffffffff19166bffffffffffffffffffffffff1916815260200191505060405180910390f35b348015610bcb57600080fd5b50610bd4612665565b60405180826000191660001916815260200191505060405180910390f35b348015610bfe57600080fd5b50610c0761266b565b6040518082815260200191505060405180910390f35b600a5481565b600081600260003373ffffffffffffffffffffffffffffffffffffffff1673ffffffffffffffffffffffffffffffffffffffff16815260200190815260200160002060008573ffffffffffffffffffffffffffffffffffffffff1673ffffffffffffffffffffffffffffffffffffffff168152602001908152602001600020819055508273ffffffffffffffffffffffffffffffffffffffff163373ffffffffffffffffffffffffffffffffffffffff167f8c5be1e5ebec7d5bd14f71427d1e84f3dd0314c0f7b2291e5b200ac8c7c3b925846040518082815260200191505060405180910390a36001905092915050565b6000600154905090565b60008073ffffffffffffffffffffffffffffffffffffffff168373ffffffffffffffffffffffffffffffffffffffff1614151515610d5c57600080fd5b6000808573ffffffffffffffffffffffffffffffffffffffff1673ffffffffffffffffffffffffffffffffffffffff168152602001908152602001600020548211151515610da957600080fd5b600260008573ffffffffffffffffffffffffffffffffffffffff1673ffffffffffffffffffffffffffffffffffffffff16815260200190815260200160002060003373ffffffffffffffffffffffffffffffffffffffff1673ffffffffffffffffffffffffffffffffffffffff168152602001908152602001600020548211151515610e3457600080fd5b610e85826000808773ffffffffffffffffffffffffffffffffffffffff1673ffffffffffffffffffffffffffffffffffffffff1681526020019081526020016000205461267190919063ffffffff16565b6000808673ffffffffffffffffffffffffffffffffffffffff1673ffffffffffffffffffffffffffffffffffffffff16815260200190815260200160002081905550610f18826000808673ffffffffffffffffffffffffffffffffffffffff1673ffffffffffffffffffffffffffffffffffffffff1681526020019081526020016000205461268a90919063ffffffff16565b6000808573ffffffffffffffffffffffffffffffffffffffff1673ffffffffffffffffffffffffffffffffffffffff16815260200190815260200160002081905550610fe982600260008773ffffffffffffffffffffffffffffffffffffffff1673ffffffffffffffffffffffffffffffffffffffff16815260200190815260200160002060003373ffffffffffffffffffffffffffffffffffffffff1673ffffffffffffffffffffffffffffffffffffffff1681526020019081526020016000205461267190919063ffffffff16565b600260008673ffffffffffffffffffffffffffffffffffffffff1673ffffffffffffffffffffffffffffffffffffffff16815260200190815260200160002060003373ffffffffffffffffffffffffffffffffffffffff1673ffffffffffffffffffffffffffffffffffffffff168152602001908152602001600020819055508273ffffffffffffffffffffffffffffffffffffffff168473ffffffffffffffffffffffffffffffffffffffff167fddf252ad1be2c89b69c2b068fc378daa952ba7f163c4a11628f55a4df523b3ef846040518082815260200191505060405180910390a3600190509392505050565b600073ffffffffffffffffffffffffffffffffffffffff826040518082805190602001908083835b6020831015156111265780518252602082019150602081019050602083039250611101565b6001836020036101000a038019825116818451168082178552505050505050905001915050604051809103902060019004169050919050565b60006111d38d8d8d8d8d808060200260200160405190810160405280939291908181526020018383602002808284378201915050505050508c8c8080601f0160208091040260200160405190810160405280939291908181526020018383808284378201915050505050508b8b8b8b611595565b90506112396111ec6014836126a690919063ffffffff16565b6000808573ffffffffffffffffffffffffffffffffffffffff1673ffffffffffffffffffffffffffffffffffffffff1681526020019081526020016000205461268a90919063ffffffff16565b6000808473ffffffffffffffffffffffffffffffffffffffff1673ffffffffffffffffffffffffffffffffffffffff168152602001908152602001600020819055506112a36112926014836126a690919063ffffffff16565b60015461268a90919063ffffffff16565b6001819055508090509c9b505050505050505050505050565b600080600260003373ffffffffffffffffffffffffffffffffffffffff1673ffffffffffffffffffffffffffffffffffffffff16815260200190815260200160002060008573ffffffffffffffffffffffffffffffffffffffff1673ffffffffffffffffffffffffffffffffffffffff168152602001908152602001600020549050808311156113cd576000600260003373ffffffffffffffffffffffffffffffffffffffff1673ffffffffffffffffffffffffffffffffffffffff16815260200190815260200160002060008673ffffffffffffffffffffffffffffffffffffffff1673ffffffffffffffffffffffffffffffffffffffff16815260200190815260200160002081905550611461565b6113e0838261267190919063ffffffff16565b600260003373ffffffffffffffffffffffffffffffffffffffff1673ffffffffffffffffffffffffffffffffffffffff16815260200190815260200160002060008673ffffffffffffffffffffffffffffffffffffffff1673ffffffffffffffffffffffffffffffffffffffff168152602001908152602001600020819055505b8373ffffffffffffffffffffffffffffffffffffffff163373ffffffffffffffffffffffffffffffffffffffff167f8c5be1e5ebec7d5bd14f71427d1e84f3dd0314c0f7b2291e5b200ac8c7c3b925600260003373ffffffffffffffffffffffffffffffffffffffff1673ffffffffffffffffffffffffffffffffffffffff16815260200190815260200160002060008873ffffffffffffffffffffffffffffffffffffffff1673ffffffffffffffffffffffffffffffffffffffff168152602001908152602001600020546040518082815260200191505060405180910390a3600191505092915050565b60008060008373ffffffffffffffffffffffffffffffffffffffff1673ffffffffffffffffffffffffffffffffffffffff168152602001908152602001600020549050919050565b60008060006115a2611a4b565b60326115ce62093a806115c06004544261267190919063ffffffff16565b6126a690919063ffffffff16565b1015156115da57600080fd5b6115e488886122a6565b91508b828c8c604051602001808560001916600019168152602001846bffffffffffffffffffffffff19166bffffffffffffffffffffffff191681526014018360ff1660ff167f01000000000000000000000000000000000000000000000000000000000000000281526001018281526020019450505050506040516020818303038152906040526040518082805190602001908083835b6020831015156116a1578051825260208201915060208101905060208303925061167c565b6001836020036101000a038019825116818451168082178552505050505050905001915050604051809103902090506116da818a611a00565b15156116e557600080fd5b6116f23389888888611f06565b15156116fd57600080fd5b600160086000836000191660001916815260200190815260200160002060006101000a81548160ff02191690831515021790555061173a8a6126bc565b9250600a546117548460095461268a90919063ffffffff16565b1115151561176157600080fd5b6117768360095461268a90919063ffffffff16565b6009819055506117cd836000803373ffffffffffffffffffffffffffffffffffffffff1673ffffffffffffffffffffffffffffffffffffffff1681526020019081526020016000205461268a90919063ffffffff16565b6000803373ffffffffffffffffffffffffffffffffffffffff1673ffffffffffffffffffffffffffffffffffffffff168152602001908152602001600020819055506118248360015461268a90919063ffffffff16565b6001819055503373ffffffffffffffffffffffffffffffffffffffff16600073ffffffffffffffffffffffffffffffffffffffff167fddf252ad1be2c89b69c2b068fc378daa952ba7f163c4a11628f55a4df523b3ef856040518082815260200191505060405180910390a33373ffffffffffffffffffffffffffffffffffffffff167f312ab01e6ce21dfe30ce841b1cd250767ce180d2c10a5bea492a1cb6b62eb97b8d8d8d8d8d8c8c8c8c604051808a600019166000191681526020018960ff1660ff16815260200188815260200180602001806020018760ff1660ff16815260200186600019166000191681526020018560001916600019168152602001848152602001838103835289818151815260200191508051906020019060200280838360005b8381101561196657808201518184015260208101905061194b565b50505050905001838103825288818151815260200191508051906020019080838360005b838110156119a557808201518184015260208101905061198a565b50505050905090810190601f1680156119d25780820380516001836020036101000a031916815260200191505b509b50505050505050505050505060405180910390a282925050509998505050505050505050565b60045481565b600080151560086000856000191660001916815260200190815260200160002060009054906101000a900460ff161515148015611a435750611a428284611dec565b5b905092915050565b600080611a7862093a80611a6a6004544261267190919063ffffffff16565b6126a690919063ffffffff16565b9150603382108015611a8b575060055482115b15611ae157611aa7600954600a5461267190919063ffffffff16565b9050602060405190810160405280828152506006600084815260200190815260200160002060008201518160000155905050816005819055505b5050565b600360009054906101000a900473ffffffffffffffffffffffffffffffffffffffff1681565b60055481565b60008073ffffffffffffffffffffffffffffffffffffffff168373ffffffffffffffffffffffffffffffffffffffff1614151515611b4e57600080fd5b6000803373ffffffffffffffffffffffffffffffffffffffff1673ffffffffffffffffffffffffffffffffffffffff168152602001908152602001600020548211151515611b9b57600080fd5b611bec826000803373ffffffffffffffffffffffffffffffffffffffff1673ffffffffffffffffffffffffffffffffffffffff1681526020019081526020016000205461267190919063ffffffff16565b6000803373ffffffffffffffffffffffffffffffffffffffff1673ffffffffffffffffffffffffffffffffffffffff16815260200190815260200160002081905550611c7f826000808673ffffffffffffffffffffffffffffffffffffffff1673ffffffffffffffffffffffffffffffffffffffff1681526020019081526020016000205461268a90919063ffffffff16565b6000808573ffffffffffffffffffffffffffffffffffffffff1673ffffffffffffffffffffffffffffffffffffffff168152602001908152602001600020819055508273ffffffffffffffffffffffffffffffffffffffff163373ffffffffffffffffffffffffffffffffffffffff167fddf252ad1be2c89b69c2b068fc378daa952ba7f163c4a11628f55a4df523b3ef846040518082815260200191505060405180910390a36001905092915050565b60008173ffffffffffffffffffffffffffffffffffffffff16600187878787604051600081526020016040526040518085600019166000191681526020018460ff1660ff1681526020018360001916600019168152602001826000191660001916815260200194505050505060206040516020810390808403906000865af1158015611dc0573d6000803e3d6000fd5b5050506020604051035173ffffffffffffffffffffffffffffffffffffffff1614905095945050505050565b6000611dfb8360075484612a25565b905092915050565b60008086868686604051602001808560001916600019168152602001846bffffffffffffffffffffffff19166bffffffffffffffffffffffff191681526014018360ff1660ff167f01000000000000000000000000000000000000000000000000000000000000000281526001018281526020019450505050506040516020818303038152906040526040518082805190602001908083835b602083101515611ec15780518252602082019150602081019050602083039250611e9c565b6001836020036101000a03801982511681845116808217855250505050505090500191505060405180910390209050611efa8184611a00565b91505095945050505050565b6000612018600287604051602001808273ffffffffffffffffffffffffffffffffffffffff1673ffffffffffffffffffffffffffffffffffffffff166c010000000000000000000000000281526014019150506040516020818303038152906040526040518082805190602001908083835b602083101515611f9d5780518252602082019150602081019050602083039250611f78565b6001836020036101000a0380198251168184511680821785525050505050509050019150506020604051808303816000865af1158015611fe1573d6000803e3d6000fd5b5050506040513d6020811015611ff657600080fd5b81019080805190602001909291905050508585856120138a6110d9565b611d30565b905095945050505050565b60006120b482600260003373ffffffffffffffffffffffffffffffffffffffff1673ffffffffffffffffffffffffffffffffffffffff16815260200190815260200160002060008673ffffffffffffffffffffffffffffffffffffffff1673ffffffffffffffffffffffffffffffffffffffff1681526020019081526020016000205461268a90919063ffffffff16565b600260003373ffffffffffffffffffffffffffffffffffffffff1673ffffffffffffffffffffffffffffffffffffffff16815260200190815260200160002060008573ffffffffffffffffffffffffffffffffffffffff1673ffffffffffffffffffffffffffffffffffffffff168152602001908152602001600020819055508273ffffffffffffffffffffffffffffffffffffffff163373ffffffffffffffffffffffffffffffffffffffff167f8c5be1e5ebec7d5bd14f71427d1e84f3dd0314c0f7b2291e5b200ac8c7c3b925600260003373ffffffffffffffffffffffffffffffffffffffff1673ffffffffffffffffffffffffffffffffffffffff16815260200190815260200160002060008773ffffffffffffffffffffffffffffffffffffffff1673ffffffffffffffffffffffffffffffffffffffff168152602001908152602001600020546040518082815260200191505060405180910390a36001905092915050565b6000600260008473ffffffffffffffffffffffffffffffffffffffff1673ffffffffffffffffffffffffffffffffffffffff16815260200190815260200160002060008373ffffffffffffffffffffffffffffffffffffffff1673ffffffffffffffffffffffffffffffffffffffff16815260200190815260200160002054905092915050565b6000806000806122b7866000612af0565b6001900492506122c8866020612af0565b60019004915084156124a45760006002838115156122e257fe5b06146122ef5760036122f2565b60025b9050600360028285604051602001808360ff1660ff167f0100000000000000000000000000000000000000000000000000000000000000028152600101828152602001925050506040516020818303038152906040526040518082805190602001908083835b60208310151561237d5780518252602082019150602081019050602083039250612358565b6001836020036101000a0380198251168184511680821785525050505050509050019150506020604051808303816000865af11580156123c1573d6000803e3d6000fd5b5050506040513d60208110156123d657600080fd5b81019080805190602001909291905050506040516020018082600019166000191681526020019150506040516020818303038152906040526040518082805190602001908083835b602083101515612443578051825260208201915060208101905060208303925061241e565b6001836020036101000a0380198251168184511680821785525050505050509050019150506020604051808303816000865af1158015612487573d6000803e3d6000fd5b505050604051516c0100000000000000000000000002935061265c565b6004905060036002828585604051602001808460ff1660ff167f010000000000000000000000000000000000000000000000000000000000000002815260010183815260200182815260200193505050506040516020818303038152906040526040518082805190602001908083835b6020831015156125395780518252602082019150602081019050602083039250612514565b6001836020036101000a0380198251168184511680821785525050505050509050019150506020604051808303816000865af115801561257d573d6000803e3d6000fd5b5050506040513d602081101561259257600080fd5b81019080805190602001909291905050506040516020018082600019166000191681526020019150506040516020818303038152906040526040518082805190602001908083835b6020831015156125ff57805182526020820191506020810190506020830392506125da565b6001836020036101000a0380198251168184511680821785525050505050509050019150506020604051808303816000865af1158015612643573d6000803e3d6000fd5b505050604051516c010000000000000000000000000293505b50505092915050565b60075481565b60095481565b600082821115151561267f57fe5b818303905092915050565b6000818301905082811015151561269d57fe5b80905092915050565b600081838115156126b357fe5b04905092915050565b60008060008060008593506126f162093a806126e36004544261267190919063ffffffff16565b6126a690919063ffffffff16565b925061271a61270a600285612bcc90919063ffffffff16565b606461267190919063ffffffff16565b9150683635c9adc5dea000008411156127b35769152d02c7e14af680000084101561279b57612794640ba43b74006127866009612778600261276a64174876e8008b61267190919063ffffffff16565b612bcc90919063ffffffff16565b6126a690919063ffffffff16565b61268a90919063ffffffff16565b93506127b2565b6127af6004856126a690919063ffffffff16565b93505b5b6127f060646127e26402540be4006127d48689612bcc90919063ffffffff16565b612bcc90919063ffffffff16565b6126a690919063ffffffff16565b9050602d83111561280357809450612a1c565b602083111561283a576128336064612825606584612bcc90919063ffffffff16565b6126a690919063ffffffff16565b9450612a1c565b60188311156128715761286a606461285c606684612bcc90919063ffffffff16565b6126a690919063ffffffff16565b9450612a1c565b60128311156128a8576128a16064612893606784612bcc90919063ffffffff16565b6126a690919063ffffffff16565b9450612a1c565b600e8311156128df576128d860646128ca606884612bcc90919063ffffffff16565b6126a690919063ffffffff16565b9450612a1c565b600a8311156129165761290f6064612901606984612bcc90919063ffffffff16565b6126a690919063ffffffff16565b9450612a1c565b600783111561294d576129466064612938606a84612bcc90919063ffffffff16565b6126a690919063ffffffff16565b9450612a1c565b60058311156129845761297d606461296f606b84612bcc90919063ffffffff16565b6126a690919063ffffffff16565b9450612a1c565b60038311156129bb576129b460646129a6606c84612bcc90919063ffffffff16565b6126a690919063ffffffff16565b9450612a1c565b60018311156129f2576129eb60646129dd606d84612bcc90919063ffffffff16565b6126a690919063ffffffff16565b9450612a1c565b612a196064612a0b606e84612bcc90919063ffffffff16565b6126a690919063ffffffff16565b94505b50505050919050565b600080600080849250600091505b8651821015612ad9578682815181101515612a4a57fe5b906020019060200201519050806000191683600019161015612a9b57828160405180836000191660001916815260200182600019166000191681526020019250505060405180910390209250612acc565b8083604051808360001916600019168152602001826000191660001916815260200192505050604051809103902092505b8180600101925050612a33565b856000191683600019161493505050509392505050565b600080600090505b6020811015612bc2576008810284848301815181101515612b1557fe5b9060200101517f010000000000000000000000000000000000000000000000000000000000000090047f0100000000000000000000000000000000000000000000000000000000000000027effffffffffffffffffffffffffffffffffffffffffffffffffffffffffffff19167fff0000000000000000000000000000000000000000000000000000000000000060010216600019169060020a9004821891508080600101915050612af8565b8191505092915050565b600080831415612bdf5760009050612bfe565b8183029050818382811515612bf057fe5b04141515612bfa57fe5b8090505b929150505600a165627a7a723058203c9e61c0a8a9daf338ee84f715e6101572ed56a355be817bdde95188c5f635660029",
  "source": "pragma solidity ^0.4.23;\n\nimport \"../UTXORedeemableToken.sol\";\n\n\ncontract UTXORedeemableTokenStub is UTXORedeemableToken {\n    constructor(\n        address _origin,\n        uint256 _launchTime,\n        bytes32 _rootUTXOMerkleTreeHash,\n        uint256 _maximumRedeemable\n\n    )\n        public\n    {\n        origin = _origin;\n        launchTime = _launchTime;\n        rootUTXOMerkleTreeHash = _rootUTXOMerkleTreeHash;\n        maximumRedeemable = _maximumRedeemable;\n    }\n}",
  "sourcePath": "/Users/tovarishfin/dev/bhx/bhx-contracts/contracts/stubs/UTXORedeemableTokenStub.sol",
  "compiler": {
    "name": "solc",
    "version": "0.4.24+commit.e67f0147.Emscripten.clang"
  },
  "schemaVersion": "2.0.0",
  "updatedAt": "2018-06-17T17:00:34.664Z"
}