{
  "contractName": "UTXOClaimValidation",
  "abi": [
    {
      "constant": true,
      "inputs": [],
      "name": "name",
      "outputs": [
        {
          "name": "",
          "type": "string"
        }
      ],
      "payable": false,
      "stateMutability": "view",
      "type": "function"
    },
    {
      "constant": false,
      "inputs": [
        {
          "name": "spender",
          "type": "address"
        },
        {
          "name": "value",
          "type": "uint256"
        }
      ],
      "name": "approve",
      "outputs": [
        {
          "name": "",
          "type": "bool"
        }
      ],
      "payable": false,
      "stateMutability": "nonpayable",
      "type": "function"
    },
    {
      "constant": true,
      "inputs": [],
      "name": "totalStakedCoins",
      "outputs": [
        {
          "name": "",
          "type": "uint256"
        }
      ],
      "payable": false,
      "stateMutability": "view",
      "type": "function"
    },
    {
      "constant": true,
      "inputs": [],
      "name": "totalSupply",
      "outputs": [
        {
          "name": "",
          "type": "uint256"
        }
      ],
      "payable": false,
      "stateMutability": "view",
      "type": "function"
    },
    {
      "constant": true,
      "inputs": [],
      "name": "totalStakeShares",
      "outputs": [
        {
          "name": "",
          "type": "uint256"
        }
      ],
      "payable": false,
      "stateMutability": "view",
      "type": "function"
    },
    {
      "constant": false,
      "inputs": [],
      "name": "storePeriodData",
      "outputs": [],
      "payable": false,
      "stateMutability": "nonpayable",
      "type": "function"
    },
    {
      "constant": false,
      "inputs": [
        {
          "name": "from",
          "type": "address"
        },
        {
          "name": "to",
          "type": "address"
        },
        {
          "name": "value",
          "type": "uint256"
        }
      ],
      "name": "transferFrom",
      "outputs": [
        {
          "name": "",
          "type": "bool"
        }
      ],
      "payable": false,
      "stateMutability": "nonpayable",
      "type": "function"
    },
    {
      "constant": true,
      "inputs": [],
      "name": "decimals",
      "outputs": [
        {
          "name": "",
          "type": "uint256"
        }
      ],
      "payable": false,
      "stateMutability": "view",
      "type": "function"
    },
    {
      "constant": false,
      "inputs": [
        {
          "name": "spender",
          "type": "address"
        },
        {
          "name": "addedValue",
          "type": "uint256"
        }
      ],
      "name": "increaseAllowance",
      "outputs": [
        {
          "name": "",
          "type": "bool"
        }
      ],
      "payable": false,
      "stateMutability": "nonpayable",
      "type": "function"
    },
    {
      "constant": false,
      "inputs": [],
      "name": "storeWeeklyData",
      "outputs": [],
      "payable": false,
      "stateMutability": "nonpayable",
      "type": "function"
    },
    {
      "constant": true,
      "inputs": [],
      "name": "redeemedCount",
      "outputs": [
        {
          "name": "",
          "type": "uint256"
        }
      ],
      "payable": false,
      "stateMutability": "view",
      "type": "function"
    },
    {
      "constant": true,
      "inputs": [],
      "name": "rootUtxoMerkleTreeHash",
      "outputs": [
        {
          "name": "",
          "type": "bytes32"
        }
      ],
      "payable": false,
      "stateMutability": "view",
      "type": "function"
    },
    {
      "constant": true,
      "inputs": [
        {
          "name": "owner",
          "type": "address"
        }
      ],
      "name": "balanceOf",
      "outputs": [
        {
          "name": "",
          "type": "uint256"
        }
      ],
      "payable": false,
      "stateMutability": "view",
      "type": "function"
    },
    {
      "constant": true,
      "inputs": [
        {
          "name": "",
          "type": "address"
        },
        {
          "name": "",
          "type": "uint256"
        }
      ],
      "name": "staked",
      "outputs": [
        {
          "name": "amount",
          "type": "uint256"
        },
        {
          "name": "stakeShares",
          "type": "uint256"
        },
        {
          "name": "stakeTime",
          "type": "uint256"
        },
        {
          "name": "unlockTime",
          "type": "uint256"
        }
      ],
      "payable": false,
      "stateMutability": "view",
      "type": "function"
    },
    {
      "constant": true,
      "inputs": [],
      "name": "geTrueSupply",
      "outputs": [
        {
          "name": "",
          "type": "uint256"
        }
      ],
      "payable": false,
      "stateMutability": "view",
      "type": "function"
    },
    {
      "constant": true,
      "inputs": [],
      "name": "symbol",
      "outputs": [
        {
          "name": "",
          "type": "string"
        }
      ],
      "payable": false,
      "stateMutability": "view",
      "type": "function"
    },
    {
      "constant": false,
      "inputs": [
        {
          "name": "spender",
          "type": "address"
        },
        {
          "name": "subtractedValue",
          "type": "uint256"
        }
      ],
      "name": "decreaseAllowance",
      "outputs": [
        {
          "name": "",
          "type": "bool"
        }
      ],
      "payable": false,
      "stateMutability": "nonpayable",
      "type": "function"
    },
    {
      "constant": false,
      "inputs": [
        {
          "name": "to",
          "type": "address"
        },
        {
          "name": "value",
          "type": "uint256"
        }
      ],
      "name": "transfer",
      "outputs": [
        {
          "name": "",
          "type": "bool"
        }
      ],
      "payable": false,
      "stateMutability": "nonpayable",
      "type": "function"
    },
    {
      "constant": true,
      "inputs": [],
      "name": "isClaimsPeriod",
      "outputs": [
        {
          "name": "",
          "type": "bool"
        }
      ],
      "payable": false,
      "stateMutability": "view",
      "type": "function"
    },
    {
      "constant": true,
      "inputs": [
        {
          "name": "owner",
          "type": "address"
        },
        {
          "name": "spender",
          "type": "address"
        }
      ],
      "name": "allowance",
      "outputs": [
        {
          "name": "",
          "type": "uint256"
        }
      ],
      "payable": false,
      "stateMutability": "view",
      "type": "function"
    },
    {
      "constant": true,
      "inputs": [],
      "name": "totalRedeemed",
      "outputs": [
        {
          "name": "",
          "type": "uint256"
        }
      ],
      "payable": false,
      "stateMutability": "view",
      "type": "function"
    },
    {
      "anonymous": false,
      "inputs": [
        {
          "indexed": true,
          "name": "from",
          "type": "address"
        },
        {
          "indexed": true,
          "name": "to",
          "type": "address"
        },
        {
          "indexed": false,
          "name": "value",
          "type": "uint256"
        }
      ],
      "name": "Transfer",
      "type": "event"
    },
    {
      "anonymous": false,
      "inputs": [
        {
          "indexed": true,
          "name": "owner",
          "type": "address"
        },
        {
          "indexed": true,
          "name": "spender",
          "type": "address"
        },
        {
          "indexed": false,
          "name": "value",
          "type": "uint256"
        }
      ],
      "name": "Approval",
      "type": "event"
    },
    {
      "constant": true,
      "inputs": [
        {
          "name": "_hash",
          "type": "bytes32"
        },
        {
          "name": "_v",
          "type": "uint8"
        },
        {
          "name": "_r",
          "type": "bytes32"
        },
        {
          "name": "_s",
          "type": "bytes32"
        },
        {
          "name": "_expected",
          "type": "address"
        },
        {
          "name": "_addPrefix",
          "type": "bool"
        }
      ],
      "name": "validateSignature",
      "outputs": [
        {
          "name": "",
          "type": "bool"
        }
      ],
      "payable": false,
      "stateMutability": "pure",
      "type": "function"
    },
    {
      "constant": true,
      "inputs": [
        {
          "name": "_addr",
          "type": "address"
        },
        {
          "name": "_pubKey",
          "type": "bytes"
        },
        {
          "name": "_v",
          "type": "uint8"
        },
        {
          "name": "_r",
          "type": "bytes32"
        },
        {
          "name": "_s",
          "type": "bytes32"
        }
      ],
      "name": "ecdsaVerify",
      "outputs": [
        {
          "name": "",
          "type": "bool"
        }
      ],
      "payable": false,
      "stateMutability": "pure",
      "type": "function"
    },
    {
      "constant": true,
      "inputs": [
        {
          "name": "_pubKey",
          "type": "bytes"
        }
      ],
      "name": "pubKeyToEthereumAddress",
      "outputs": [
        {
          "name": "",
          "type": "address"
        }
      ],
      "payable": false,
      "stateMutability": "pure",
      "type": "function"
    },
    {
      "constant": true,
      "inputs": [
        {
          "name": "_pubKey",
          "type": "bytes"
        },
        {
          "name": "_isCompressed",
          "type": "bool"
        }
      ],
      "name": "pubKeyToBitcoinAddress",
      "outputs": [
        {
          "name": "",
          "type": "bytes20"
        }
      ],
      "payable": false,
      "stateMutability": "pure",
      "type": "function"
    },
    {
      "constant": true,
      "inputs": [
        {
          "name": "_proof",
          "type": "bytes32[]"
        },
        {
          "name": "_merkleLeafHash",
          "type": "bytes32"
        }
      ],
      "name": "verifyProof",
      "outputs": [
        {
          "name": "",
          "type": "bool"
        }
      ],
      "payable": false,
      "stateMutability": "view",
      "type": "function"
    },
    {
      "constant": true,
      "inputs": [
        {
          "name": "_merkleLeafHash",
          "type": "bytes32"
        },
        {
          "name": "_proof",
          "type": "bytes32[]"
        }
      ],
      "name": "canRedeemUtxoHash",
      "outputs": [
        {
          "name": "",
          "type": "bool"
        }
      ],
      "payable": false,
      "stateMutability": "view",
      "type": "function"
    },
    {
      "constant": true,
      "inputs": [
        {
          "name": "_originalAddress",
          "type": "bytes20"
        },
        {
          "name": "_satoshis",
          "type": "uint256"
        },
        {
          "name": "_proof",
          "type": "bytes32[]"
        }
      ],
      "name": "canRedeemUtxo",
      "outputs": [
        {
          "name": "",
          "type": "bool"
        }
      ],
      "payable": false,
      "stateMutability": "view",
      "type": "function"
    }
  ],
  "bytecode": "0x60806040526000600555600060065534801561001a57600080fd5b506127868061002a6000396000f30060806040526004361061016a576000357c0100000000000000000000000000000000000000000000000000000000900463ffffffff16806306fdde031461016f5780630867c0ad146101ff578063095ea7b31461029d5780631765f4bf1461030257806318160ddd1461032d5780631aa024b7146103585780631ee752701461038357806323b872dd1461039a578063313ce5671461041f578063395093511461044a5780634d3c8bc8146104af57806352aa3e6c146104c65780635418796c146104f15780636aaf67e21461059a57806370a08231146105cd57806381cd84b9146106245780638f169816146106b05780638f903a551461072657806395d89b4114610751578063a457c2d7146107e1578063a9059cbb14610846578063adf71f1f146108ab578063b80ac7df146108da578063ce267b5514610966578063cfc2334e14610a30578063dd62ed3e14610ad1578063e073ef6914610b48578063f35dad4014610bef575b600080fd5b34801561017b57600080fd5b50610184610c1a565b6040518080602001828103825283818151815260200191508051906020019080838360005b838110156101c45780820151818401526020810190506101a9565b50505050905090810190601f1680156101f15780820380516001836020036101000a031916815260200191505b509250505060405180910390f35b34801561020b57600080fd5b506102836004803603810190808035600019169060200190929190803560ff16906020019092919080356000191690602001909291908035600019169060200190929190803573ffffffffffffffffffffffffffffffffffffffff169060200190929190803515159060200190929190505050610c53565b604051808215151515815260200191505060405180910390f35b3480156102a957600080fd5b506102e8600480360381019080803573ffffffffffffffffffffffffffffffffffffffff16906020019092919080359060200190929190505050610e3e565b604051808215151515815260200191505060405180910390f35b34801561030e57600080fd5b50610317610f6b565b6040518082815260200191505060405180910390f35b34801561033957600080fd5b50610342610f71565b6040518082815260200191505060405180910390f35b34801561036457600080fd5b5061036d610f7b565b6040518082815260200191505060405180910390f35b34801561038f57600080fd5b50610398610f81565b005b3480156103a657600080fd5b50610405600480360381019080803573ffffffffffffffffffffffffffffffffffffffff169060200190929190803573ffffffffffffffffffffffffffffffffffffffff169060200190929190803590602001909291905050506110ed565b604051808215151515815260200191505060405180910390f35b34801561042b57600080fd5b5061043461129f565b6040518082815260200191505060405180910390f35b34801561045657600080fd5b50610495600480360381019080803573ffffffffffffffffffffffffffffffffffffffff169060200190929190803590602001909291905050506112a4565b604051808215151515815260200191505060405180910390f35b3480156104bb57600080fd5b506104c46114db565b005b3480156104d257600080fd5b506104db6115b7565b6040518082815260200191505060405180910390f35b3480156104fd57600080fd5b50610558600480360381019080803590602001908201803590602001908080601f01602080910402602001604051908101604052809392919081815260200183838082843782019150505050505091929192905050506115bd565b604051808273ffffffffffffffffffffffffffffffffffffffff1673ffffffffffffffffffffffffffffffffffffffff16815260200191505060405180910390f35b3480156105a657600080fd5b506105af611643565b60405180826000191660001916815260200191505060405180910390f35b3480156105d957600080fd5b5061060e600480360381019080803573ffffffffffffffffffffffffffffffffffffffff169060200190929190505050611649565b6040518082815260200191505060405180910390f35b34801561063057600080fd5b50610696600480360381019080803560001916906020019092919080359060200190820180359060200190808060200260200160405190810160405280939291908181526020018383602002808284378201915050505050509192919290505050611691565b604051808215151515815260200191505060405180910390f35b3480156106bc57600080fd5b506106fb600480360381019080803573ffffffffffffffffffffffffffffffffffffffff169060200190929190803590602001909291905050506116dc565b6040518085815260200184815260200183815260200182815260200194505050505060405180910390f35b34801561073257600080fd5b5061073b611728565b6040518082815260200191505060405180910390f35b34801561075d57600080fd5b5061076661174b565b6040518080602001828103825283818151815260200191508051906020019080838360005b838110156107a657808201518184015260208101905061078b565b50505050905090810190601f1680156107d35780820380516001836020036101000a031916815260200191505b509250505060405180910390f35b3480156107ed57600080fd5b5061082c600480360381019080803573ffffffffffffffffffffffffffffffffffffffff16906020019092919080359060200190929190505050611784565b604051808215151515815260200191505060405180910390f35b34801561085257600080fd5b50610891600480360381019080803573ffffffffffffffffffffffffffffffffffffffff169060200190929190803590602001909291905050506119bb565b604051808215151515815260200191505060405180910390f35b3480156108b757600080fd5b506108c06119d2565b604051808215151515815260200191505060405180910390f35b3480156108e657600080fd5b5061094c6004803603810190808035906020019082018035906020019080806020026020016040519081016040528093929190818152602001838360200280828437820191505050505050919291929080356000191690602001909291905050506119e4565b604051808215151515815260200191505060405180910390f35b34801561097257600080fd5b50610a16600480360381019080803573ffffffffffffffffffffffffffffffffffffffff169060200190929190803590602001908201803590602001908080601f0160208091040260200160405190810160405280939291908181526020018383808284378201915050505050509192919290803560ff169060200190929190803560001916906020019092919080356000191690602001909291905050506119fb565b604051808215151515815260200191505060405180910390f35b348015610a3c57600080fd5b50610ab760048036038101908080356bffffffffffffffffffffffff191690602001909291908035906020019092919080359060200190820180359060200190808060200260200160405190810160405280939291908181526020018383602002808284378201915050505050509192919290505050611b1a565b604051808215151515815260200191505060405180910390f35b348015610add57600080fd5b50610b32600480360381019080803573ffffffffffffffffffffffffffffffffffffffff169060200190929190803573ffffffffffffffffffffffffffffffffffffffff169060200190929190505050611bdb565b6040518082815260200191505060405180910390f35b348015610b5457600080fd5b50610bbb600480360381019080803590602001908201803590602001908080601f0160208091040260200160405190810160405280939291908181526020018383808284378201915050505050509192919290803515159060200190929190505050611c62565b60405180826bffffffffffffffffffffffff19166bffffffffffffffffffffffff1916815260200191505060405180910390f35b348015610bfb57600080fd5b50610c04612021565b6040518082815260200191505060405180910390f35b6040805190810160405280600a81526020017f426974636f696e4865780000000000000000000000000000000000000000000081525081565b6000806060831515610c6757889150610d81565b6040805190810160405280601c81526020017f19457468657265756d205369676e6564204d6573736167653a0a333200000000815250905080896040516020018083805190602001908083835b602083101515610cd95780518252602082019150602081019050602083039250610cb4565b6001836020036101000a0380198251168184511680821785525050505050509050018260001916600019168152602001925050506040516020818303038152906040526040518082805190602001908083835b602083101515610d515780518252602082019150602081019050602083039250610d2c565b6001836020036101000a038019825116818451168082178552505050505050905001915050604051809103902091505b8473ffffffffffffffffffffffffffffffffffffffff166001838a8a8a604051600081526020016040526040518085600019166000191681526020018460ff1660ff1681526020018360001916600019168152602001826000191660001916815260200194505050505060206040516020810390808403906000865af1158015610e0f573d6000803e3d6000fd5b5050506020604051035173ffffffffffffffffffffffffffffffffffffffff1614925050509695505050505050565b60008073ffffffffffffffffffffffffffffffffffffffff168373ffffffffffffffffffffffffffffffffffffffff1614151515610e7b57600080fd5b81600160003373ffffffffffffffffffffffffffffffffffffffff1673ffffffffffffffffffffffffffffffffffffffff16815260200190815260200160002060008573ffffffffffffffffffffffffffffffffffffffff1673ffffffffffffffffffffffffffffffffffffffff168152602001908152602001600020819055508273ffffffffffffffffffffffffffffffffffffffff163373ffffffffffffffffffffffffffffffffffffffff167f8c5be1e5ebec7d5bd14f71427d1e84f3dd0314c0f7b2291e5b200ac8c7c3b925846040518082815260200191505060405180910390a36001905092915050565b60115481565b6000600254905090565b60125481565b60005b600a54610f8f612027565b11156110ea57610fb1610416610fa3612037565b61206290919063ffffffff16565b9050610fbb6119d2565b1561105e5761105b610fff600a610ff1600f54610fe36005548761208c90919063ffffffff16565b61206290919063ffffffff16565b61206290919063ffffffff16565b61104d61103e600a611030600e546110226006548961208c90919063ffffffff16565b61206290919063ffffffff16565b61206290919063ffffffff16565b846120ca90919063ffffffff16565b6120ca90919063ffffffff16565b90505b611073600c54826120ca90919063ffffffff16565b90506000600c819055506040805190810160405280828152602001601154815250600d60006110ae6001600a546120ca90919063ffffffff16565b81526020019081526020016000206000820151816000015560208201518160010155905050600a60008154809291906001019190505550610f84565b50565b6000600160008573ffffffffffffffffffffffffffffffffffffffff1673ffffffffffffffffffffffffffffffffffffffff16815260200190815260200160002060003373ffffffffffffffffffffffffffffffffffffffff1673ffffffffffffffffffffffffffffffffffffffff16815260200190815260200160002054821115151561117a57600080fd5b61120982600160008773ffffffffffffffffffffffffffffffffffffffff1673ffffffffffffffffffffffffffffffffffffffff16815260200190815260200160002060003373ffffffffffffffffffffffffffffffffffffffff1673ffffffffffffffffffffffffffffffffffffffff168152602001908152602001600020546120eb90919063ffffffff16565b600160008673ffffffffffffffffffffffffffffffffffffffff1673ffffffffffffffffffffffffffffffffffffffff16815260200190815260200160002060003373ffffffffffffffffffffffffffffffffffffffff1673ffffffffffffffffffffffffffffffffffffffff1681526020019081526020016000208190555061129484848461210c565b600190509392505050565b600881565b60008073ffffffffffffffffffffffffffffffffffffffff168373ffffffffffffffffffffffffffffffffffffffff16141515156112e157600080fd5b61137082600160003373ffffffffffffffffffffffffffffffffffffffff1673ffffffffffffffffffffffffffffffffffffffff16815260200190815260200160002060008673ffffffffffffffffffffffffffffffffffffffff1673ffffffffffffffffffffffffffffffffffffffff168152602001908152602001600020546120ca90919063ffffffff16565b600160003373ffffffffffffffffffffffffffffffffffffffff1673ffffffffffffffffffffffffffffffffffffffff16815260200190815260200160002060008573ffffffffffffffffffffffffffffffffffffffff1673ffffffffffffffffffffffffffffffffffffffff168152602001908152602001600020819055508273ffffffffffffffffffffffffffffffffffffffff163373ffffffffffffffffffffffffffffffffffffffff167f8c5be1e5ebec7d5bd14f71427d1e84f3dd0314c0f7b2291e5b200ac8c7c3b925600160003373ffffffffffffffffffffffffffffffffffffffff1673ffffffffffffffffffffffffffffffffffffffff16815260200190815260200160002060008773ffffffffffffffffffffffffffffffffffffffff1673ffffffffffffffffffffffffffffffffffffffff168152602001908152602001600020546040518082815260200191505060405180910390a36001905092915050565b60005b6009546114e9612325565b11156115b457611506600554600f546120eb90919063ffffffff16565b90506040805190810160405280828152602001601154815250600b600061153960016009546120ca90919063ffffffff16565b8152602001908152602001600020600082015181600001556020820151816001015590505061159d600360009054906101000a900473ffffffffffffffffffffffffffffffffffffffff1661159860328461206290919063ffffffff16565b612335565b6009600081548092919060010191905055506114de565b50565b60065481565b600073ffffffffffffffffffffffffffffffffffffffff826040518082805190602001908083835b60208310151561160a57805182526020820191506020810190506020830392506115e5565b6001836020036101000a038019825116818451168082178552505050505050905001915050604051809103902060019004169050919050565b60075481565b60008060008373ffffffffffffffffffffffffffffffffffffffff1673ffffffffffffffffffffffffffffffffffffffff168152602001908152602001600020549050919050565b600080151560086000856000191660001916815260200190815260200160002060009054906101000a900460ff1615151480156116d457506116d382846119e4565b5b905092915050565b6010602052816000526040600020818154811015156116f757fe5b9060005260206000209060040201600091509150508060000154908060010154908060020154908060030154905084565b6000611746601154611738610f71565b6120ca90919063ffffffff16565b905090565b6040805190810160405280600381526020017f424858000000000000000000000000000000000000000000000000000000000081525081565b60008073ffffffffffffffffffffffffffffffffffffffff168373ffffffffffffffffffffffffffffffffffffffff16141515156117c157600080fd5b61185082600160003373ffffffffffffffffffffffffffffffffffffffff1673ffffffffffffffffffffffffffffffffffffffff16815260200190815260200160002060008673ffffffffffffffffffffffffffffffffffffffff1673ffffffffffffffffffffffffffffffffffffffff168152602001908152602001600020546120eb90919063ffffffff16565b600160003373ffffffffffffffffffffffffffffffffffffffff1673ffffffffffffffffffffffffffffffffffffffff16815260200190815260200160002060008573ffffffffffffffffffffffffffffffffffffffff1673ffffffffffffffffffffffffffffffffffffffff168152602001908152602001600020819055508273ffffffffffffffffffffffffffffffffffffffff163373ffffffffffffffffffffffffffffffffffffffff167f8c5be1e5ebec7d5bd14f71427d1e84f3dd0314c0f7b2291e5b200ac8c7c3b925600160003373ffffffffffffffffffffffffffffffffffffffff1673ffffffffffffffffffffffffffffffffffffffff16815260200190815260200160002060008773ffffffffffffffffffffffffffffffffffffffff1673ffffffffffffffffffffffffffffffffffffffff168152602001908152602001600020546040518082815260200191505060405180910390a36001905092915050565b60006119c833848461210c565b6001905092915050565b600060326119de612325565b10905090565b60006119f38360075484612473565b905092915050565b6000611b0f600287604051602001808273ffffffffffffffffffffffffffffffffffffffff1673ffffffffffffffffffffffffffffffffffffffff166c010000000000000000000000000281526014019150506040516020818303038152906040526040518082805190602001908083835b602083101515611a925780518252602082019150602081019050602083039250611a6d565b6001836020036101000a0380198251168184511680821785525050505050509050019150506020604051808303816000865af1158015611ad6573d6000803e3d6000fd5b5050506040513d6020811015611aeb57600080fd5b8101908080519060200190929190505050858585611b088a6115bd565b6000610c53565b905095945050505050565b600080848460405160200180836bffffffffffffffffffffffff19166bffffffffffffffffffffffff19168152601401828152602001925050506040516020818303038152906040526040518082805190602001908083835b602083101515611b985780518252602082019150602081019050602083039250611b73565b6001836020036101000a03801982511681845116808217855250505050505090500191505060405180910390209050611bd18184611691565b9150509392505050565b6000600160008473ffffffffffffffffffffffffffffffffffffffff1673ffffffffffffffffffffffffffffffffffffffff16815260200190815260200160002060008373ffffffffffffffffffffffffffffffffffffffff1673ffffffffffffffffffffffffffffffffffffffff16815260200190815260200160002054905092915050565b600080600080611c73866000612616565b600190049250611c84866020612616565b6001900491508415611e60576000600283811515611c9e57fe5b0614611cab576003611cae565b60025b9050600360028285604051602001808360ff1660ff167f0100000000000000000000000000000000000000000000000000000000000000028152600101828152602001925050506040516020818303038152906040526040518082805190602001908083835b602083101515611d395780518252602082019150602081019050602083039250611d14565b6001836020036101000a0380198251168184511680821785525050505050509050019150506020604051808303816000865af1158015611d7d573d6000803e3d6000fd5b5050506040513d6020811015611d9257600080fd5b81019080805190602001909291905050506040516020018082600019166000191681526020019150506040516020818303038152906040526040518082805190602001908083835b602083101515611dff5780518252602082019150602081019050602083039250611dda565b6001836020036101000a0380198251168184511680821785525050505050509050019150506020604051808303816000865af1158015611e43573d6000803e3d6000fd5b505050604051516c01000000000000000000000000029350612018565b6004905060036002828585604051602001808460ff1660ff167f010000000000000000000000000000000000000000000000000000000000000002815260010183815260200182815260200193505050506040516020818303038152906040526040518082805190602001908083835b602083101515611ef55780518252602082019150602081019050602083039250611ed0565b6001836020036101000a0380198251168184511680821785525050505050509050019150506020604051808303816000865af1158015611f39573d6000803e3d6000fd5b5050506040513d6020811015611f4e57600080fd5b81019080805190602001909291905050506040516020018082600019166000191681526020019150506040516020818303038152906040526040518082805190602001908083835b602083101515611fbb5780518252602082019150602081019050602083039250611f96565b6001836020036101000a0380198251168184511680821785525050505050509050019150506020604051808303816000865af1158015611fff573d6000803e3d6000fd5b505050604051516c010000000000000000000000000293505b50505092915050565b60055481565b6000612032426126f4565b905090565b600080612042610f71565b9050600f5461204f610f71565b101561205b57600f5490505b8091505090565b60008060008311151561207457600080fd5b828481151561207f57fe5b0490508091505092915050565b60008060008414156120a157600091506120c3565b82840290508284828115156120b257fe5b041415156120bf57600080fd5b8091505b5092915050565b60008082840190508381101515156120e157600080fd5b8091505092915050565b6000808383111515156120fd57600080fd5b82840390508091505092915050565b6000808473ffffffffffffffffffffffffffffffffffffffff1673ffffffffffffffffffffffffffffffffffffffff16815260200190815260200160002054811115151561215957600080fd5b600073ffffffffffffffffffffffffffffffffffffffff168273ffffffffffffffffffffffffffffffffffffffff161415151561219557600080fd5b6121e6816000808673ffffffffffffffffffffffffffffffffffffffff1673ffffffffffffffffffffffffffffffffffffffff168152602001908152602001600020546120eb90919063ffffffff16565b6000808573ffffffffffffffffffffffffffffffffffffffff1673ffffffffffffffffffffffffffffffffffffffff16815260200190815260200160002081905550612279816000808573ffffffffffffffffffffffffffffffffffffffff1673ffffffffffffffffffffffffffffffffffffffff168152602001908152602001600020546120ca90919063ffffffff16565b6000808473ffffffffffffffffffffffffffffffffffffffff1673ffffffffffffffffffffffffffffffffffffffff168152602001908152602001600020819055508173ffffffffffffffffffffffffffffffffffffffff168373ffffffffffffffffffffffffffffffffffffffff167fddf252ad1be2c89b69c2b068fc378daa952ba7f163c4a11628f55a4df523b3ef836040518082815260200191505060405180910390a3505050565b600061233042612727565b905090565b60008273ffffffffffffffffffffffffffffffffffffffff161415151561235b57600080fd5b612370816002546120ca90919063ffffffff16565b6002819055506123c7816000808573ffffffffffffffffffffffffffffffffffffffff1673ffffffffffffffffffffffffffffffffffffffff168152602001908152602001600020546120ca90919063ffffffff16565b6000808473ffffffffffffffffffffffffffffffffffffffff1673ffffffffffffffffffffffffffffffffffffffff168152602001908152602001600020819055508173ffffffffffffffffffffffffffffffffffffffff16600073ffffffffffffffffffffffffffffffffffffffff167fddf252ad1be2c89b69c2b068fc378daa952ba7f163c4a11628f55a4df523b3ef836040518082815260200191505060405180910390a35050565b600080600080849250600091505b86518210156125ff57868281518110151561249857fe5b9060200190602002015190508060001916836000191610156125555782816040516020018083600019166000191681526020018260001916600019168152602001925050506040516020818303038152906040526040518082805190602001908083835b60208310151561252157805182526020820191506020810190506020830392506124fc565b6001836020036101000a038019825116818451168082178552505050505050905001915050604051809103902092506125f2565b80836040516020018083600019166000191681526020018260001916600019168152602001925050506040516020818303038152906040526040518082805190602001908083835b6020831015156125c2578051825260208201915060208101905060208303925061259d565b6001836020036101000a038019825116818451168082178552505050505050905001915050604051809103902092505b8180600101925050612481565b856000191683600019161493505050509392505050565b60008060008090505b60208110156126e957600881028585830181518110151561263c57fe5b9060200101517f010000000000000000000000000000000000000000000000000000000000000090047f0100000000000000000000000000000000000000000000000000000000000000027effffffffffffffffffffffffffffffffffffffffffffffffffffffffffffff19167fff0000000000000000000000000000000000000000000000000000000000000060010216600019169060020a900482189150808060010191505061261f565b819250505092915050565b6000612720620d2f00612712600454856120eb90919063ffffffff16565b61206290919063ffffffff16565b9050919050565b600061275362093a80612745600454856120eb90919063ffffffff16565b61206290919063ffffffff16565b90509190505600a165627a7a7230582045a339c3201ebb5e8a9e2163fe32e03231087c4a119cd802091ff8b50b588b0c0029",
  "source": "pragma solidity ^0.4.24;\n\nimport \"./GlobalsAndUtility.sol\";\nimport \"../node_modules/openzeppelin-solidity/contracts/cryptography/MerkleProof.sol\";\n\ncontract UTXOClaimValidation is GlobalsAndUtility {\n  /**\n   * @dev Extract a bytes32 subarray from an arbitrary length bytes array.\n   * @param _data Bytes array from which to extract the subarray\n   * @param _pos Starting position from which to copy\n   * @return Extracted length 32 byte array\n   */\n  function extract(\n    bytes _data, uint256 _pos\n  ) private pure returns (bytes32) {\n    bytes32 _result;\n    for (uint256 _i = 0; _i < 32; _i++) {\n      _result ^= (bytes32(0xff00000000000000000000000000000000000000000000000000000000000000) & _data[_i + _pos]) >> (_i * 8);\n    }\n    return _result;\n  }\n\n  \n  /**\n   * @dev Validate that a provided ECSDA signature was signed by the specified address\n   * @param _hash Hash of signed data\n   * @param _v v parameter of ECDSA signature\n   * @param _r r parameter of ECDSA signature\n   * @param _s s parameter of ECDSA signature\n   * @param _expected Address claiming to have created this signature\n   * @return Whether or not the signature was valid\n   */\n  function validateSignature(\n    bytes32 _hash,\n    uint8 _v,\n    bytes32 _r,\n    bytes32 _s,\n    address _expected,\n    bool _addPrefix\n  ) public pure returns (bool) {\n    bytes32 _formattedHash;\n\n    if (!_addPrefix) {\n      _formattedHash = _hash;\n    } else {\n      bytes memory _prefix = \"\\x19Ethereum Signed Message:\\n32\"; // accomodate geth method of signing data with prefixed message\n      _formattedHash = keccak256(abi.encodePacked(_prefix, _hash));\n    }\n\n    return ecrecover(\n      _formattedHash, \n      _v, \n      _r, \n      _s\n    ) == _expected;\n  }\n\n  /**\n   * @dev Validate that the hash of a provided address was signed by the ECDSA public key associated with the specified Ethereum address\n   * @param _addr Address signed\n   * @param _pubKey Uncompressed ECDSA public key claiming to have created this signature\n   * @param _v v parameter of ECDSA signature\n   * @param _r r parameter of ECDSA signature\n   * @param _s s parameter of ECDSA signature\n   * @return Whether or not the signature was valid\n   */\n  function ecdsaVerify(\n    address _addr, \n    bytes _pubKey, \n    uint8 _v, \n    bytes32 _r, \n    bytes32 _s\n  ) public pure returns (bool) {\n    return validateSignature(\n      sha256(abi.encodePacked(_addr)),  // hash\n      _v, \n      _r, \n      _s, \n      pubKeyToEthereumAddress(_pubKey), // expected\n      false // do not prepend message\n    );\n  }\n\n  /**\n   * @dev Convert an uncompressed ECDSA public key into an Ethereum address\n   * @param _pubKey Uncompressed ECDSA public key to convert\n   * @return Ethereum address generated from the ECDSA public key\n   */\n  function pubKeyToEthereumAddress(\n    bytes _pubKey\n  ) public pure returns (address) {\n    return address(\n      uint256(keccak256(_pubKey)) & 0x000FFFFFFFFFFFFFFFFFFFFFFFFFFFFFFFFFFFFFFFF\n    );\n  }\n\n  /**\n   * @dev Calculate the Bitcoin-style address associated with an ECDSA public key\n   * @param _pubKey ECDSA public key to convert\n   * @param _isCompressed Whether or not the Bitcoin address was generated from a compressed key\n   * @return Raw Bitcoin address (no base58-check encoding)\n   */\n  function pubKeyToBitcoinAddress(\n    bytes _pubKey, \n    bool _isCompressed\n  ) public pure returns (bytes20) {\n    /* Helpful references:\n       - https://en.bitcoin.it/wiki/Technical_background_of_version_1_Bitcoin_addresses \n       - https://github.com/cryptocoinjs/ecurve/blob/master/lib/point.js\n    */\n\n    /* x coordinate - first 32 bytes of public key */\n    uint256 _x = uint256(extract(_pubKey, 0));\n    /* y coordinate - second 32 bytes of public key */\n    uint256 _y = uint256(extract(_pubKey, 32)); \n    uint8 _startingByte;\n    if (_isCompressed) {\n      /* Hash the compressed public key format. */\n      _startingByte = _y % 2 == 0 ? 0x02 : 0x03;\n      return ripemd160(\n        abi.encodePacked(sha256(abi.encodePacked(_startingByte, _x)))\n      );\n    } else {\n      /* Hash the uncompressed public key format. */\n      _startingByte = 0x04;\n      return ripemd160(\n        abi.encodePacked(sha256(abi.encodePacked(_startingByte, _x, _y)))\n      );\n    }\n  }\n\n  /**\n   * @dev Verify a Merkle proof using the UTXO Merkle tree\n   * @param _proof Generated Merkle tree proof\n   * @param _merkleLeafHash Hash asserted to be present in the Merkle tree\n   * @return Whether or not the proof is valid\n   */\n  function verifyProof(\n    bytes32[] _proof, \n    bytes32 _merkleLeafHash\n  ) public view returns (bool) {\n    return MerkleProof.verify(_proof, rootUtxoMerkleTreeHash, _merkleLeafHash);\n  }\n\n  /**\n   * @dev PUBLIC FACING: Verify that a UTXO with the specified Merkle leaf hash can be redeemed\n   * @param _merkleLeafHash Merkle tree hash of the UTXO to be checked\n   * @param _proof Merkle tree proof\n   * @return Whether or not the UTXO with the specified hash can be redeemed\n   */\n  function canRedeemUtxoHash(\n    bytes32 _merkleLeafHash, \n    bytes32[] _proof\n  ) public view returns (bool) {\n    /* Check that the UTXO has not yet been redeemed and that it exists in the Merkle tree. */\n    return(\n      (redeemedUTXOs[_merkleLeafHash] == false) && \n      verifyProof(_proof, _merkleLeafHash)\n    );\n  }\n\n  /**\n   * @dev PUBLIC FACING: Convenience helper function to check if a UTXO can be redeemed\n   * @param _originalAddress Raw Bitcoin address (no base58-check encoding)\n   * @param _satoshis Amount of UTXO in satoshis\n   * @param _proof Merkle tree proof\n   * @return Whether or not the UTXO can be redeemed\n   */\n  function canRedeemUtxo(\n    bytes20 _originalAddress,\n    uint256 _satoshis,\n    bytes32[] _proof\n  ) public view returns (bool) {\n    /* Calculate the hash of the Merkle leaf associated with this UTXO. */\n    bytes32 merkleLeafHash = keccak256(\n      abi.encodePacked(\n        _originalAddress, \n        _satoshis\n      )\n    );\n  \n    /* Verify the proof. */\n    return canRedeemUtxoHash(merkleLeafHash, _proof);\n  }\n}",
  "sourcePath": "/Users/mesquka/Git/Bitcoin Hex/contract/contracts/UTXOClaimValidation.sol",
  "compiler": {
    "name": "solc",
    "version": "0.4.24+commit.e67f0147.Emscripten.clang"
  },
  "schemaVersion": "2.0.1",
  "updatedAt": "2018-11-03T21:22:33.111Z"
}