{
  "contractName": "UTXORedeemableToken",
  "abi": [
    {
      "constant": true,
      "inputs": [],
      "name": "name",
      "outputs": [
        {
          "name": "",
          "type": "string"
        }
      ],
      "payable": false,
      "stateMutability": "view",
      "type": "function"
    },
    {
      "constant": true,
      "inputs": [
        {
          "name": "_hash",
          "type": "bytes32"
        },
        {
          "name": "_v",
          "type": "uint8"
        },
        {
          "name": "_r",
          "type": "bytes32"
        },
        {
          "name": "_s",
          "type": "bytes32"
        },
        {
          "name": "_expected",
          "type": "address"
        },
        {
          "name": "_addPrefix",
          "type": "bool"
        }
      ],
      "name": "validateSignature",
      "outputs": [
        {
          "name": "",
          "type": "bool"
        }
      ],
      "payable": false,
      "stateMutability": "pure",
      "type": "function"
    },
    {
      "constant": false,
      "inputs": [
        {
          "name": "spender",
          "type": "address"
        },
        {
          "name": "value",
          "type": "uint256"
        }
      ],
      "name": "approve",
      "outputs": [
        {
          "name": "",
          "type": "bool"
        }
      ],
      "payable": false,
      "stateMutability": "nonpayable",
      "type": "function"
    },
    {
      "constant": false,
      "inputs": [],
      "name": "storeWeeklyUnclaimedCoins",
      "outputs": [],
      "payable": false,
      "stateMutability": "nonpayable",
      "type": "function"
    },
    {
      "constant": true,
      "inputs": [],
      "name": "totalStakedCoins",
      "outputs": [
        {
          "name": "",
          "type": "uint256"
        }
      ],
      "payable": false,
      "stateMutability": "view",
      "type": "function"
    },
    {
      "constant": true,
      "inputs": [],
      "name": "totalSupply",
      "outputs": [
        {
          "name": "",
          "type": "uint256"
        }
      ],
      "payable": false,
      "stateMutability": "view",
      "type": "function"
    },
    {
      "constant": false,
      "inputs": [
        {
          "name": "from",
          "type": "address"
        },
        {
          "name": "to",
          "type": "address"
        },
        {
          "name": "value",
          "type": "uint256"
        }
      ],
      "name": "transferFrom",
      "outputs": [
        {
          "name": "",
          "type": "bool"
        }
      ],
      "payable": false,
      "stateMutability": "nonpayable",
      "type": "function"
    },
    {
      "constant": true,
      "inputs": [],
      "name": "decimals",
      "outputs": [
        {
          "name": "",
          "type": "uint256"
        }
      ],
      "payable": false,
      "stateMutability": "view",
      "type": "function"
    },
    {
      "constant": false,
      "inputs": [
        {
          "name": "spender",
          "type": "address"
        },
        {
          "name": "addedValue",
          "type": "uint256"
        }
      ],
      "name": "increaseAllowance",
      "outputs": [
        {
          "name": "",
          "type": "bool"
        }
      ],
      "payable": false,
      "stateMutability": "nonpayable",
      "type": "function"
    },
    {
      "constant": true,
      "inputs": [],
      "name": "redeemedCount",
      "outputs": [
        {
          "name": "",
          "type": "uint256"
        }
      ],
      "payable": false,
      "stateMutability": "view",
      "type": "function"
    },
    {
      "constant": true,
      "inputs": [
        {
          "name": "_pubKey",
          "type": "bytes"
        }
      ],
      "name": "pubKeyToEthereumAddress",
      "outputs": [
        {
          "name": "",
          "type": "address"
        }
      ],
      "payable": false,
      "stateMutability": "pure",
      "type": "function"
    },
    {
      "constant": true,
      "inputs": [],
      "name": "rootUtxoMerkleTreeHash",
      "outputs": [
        {
          "name": "",
          "type": "bytes32"
        }
      ],
      "payable": false,
      "stateMutability": "view",
      "type": "function"
    },
    {
      "constant": true,
      "inputs": [
        {
          "name": "owner",
          "type": "address"
        }
      ],
      "name": "balanceOf",
      "outputs": [
        {
          "name": "",
          "type": "uint256"
        }
      ],
      "payable": false,
      "stateMutability": "view",
      "type": "function"
    },
    {
      "constant": true,
      "inputs": [],
      "name": "launchTime",
      "outputs": [
        {
          "name": "",
          "type": "uint256"
        }
      ],
      "payable": false,
      "stateMutability": "view",
      "type": "function"
    },
    {
      "constant": true,
      "inputs": [
        {
          "name": "_merkleLeafHash",
          "type": "bytes32"
        },
        {
          "name": "_proof",
          "type": "bytes32[]"
        }
      ],
      "name": "canRedeemUtxoHash",
      "outputs": [
        {
          "name": "",
          "type": "bool"
        }
      ],
      "payable": false,
      "stateMutability": "view",
      "type": "function"
    },
    {
      "constant": true,
      "inputs": [
        {
          "name": "",
          "type": "address"
        },
        {
          "name": "",
          "type": "uint256"
        }
      ],
      "name": "staked",
      "outputs": [
        {
          "name": "stakeAmount",
          "type": "uint256"
        },
        {
          "name": "stakeTime",
          "type": "uint256"
        },
        {
          "name": "unlockTime",
          "type": "uint256"
        },
        {
          "name": "totalStakedCoinsAtStart",
          "type": "uint256"
        },
        {
          "name": "maxOfTotalSupplyVSMaxRedeemableAtStart",
          "type": "uint256"
        }
      ],
      "payable": false,
      "stateMutability": "view",
      "type": "function"
    },
    {
      "constant": true,
      "inputs": [],
      "name": "symbol",
      "outputs": [
        {
          "name": "",
          "type": "string"
        }
      ],
      "payable": false,
      "stateMutability": "view",
      "type": "function"
    },
    {
      "constant": false,
      "inputs": [
        {
          "name": "spender",
          "type": "address"
        },
        {
          "name": "subtractedValue",
          "type": "uint256"
        }
      ],
      "name": "decreaseAllowance",
      "outputs": [
        {
          "name": "",
          "type": "bool"
        }
      ],
      "payable": false,
      "stateMutability": "nonpayable",
      "type": "function"
    },
    {
      "constant": false,
      "inputs": [
        {
          "name": "to",
          "type": "address"
        },
        {
          "name": "value",
          "type": "uint256"
        }
      ],
      "name": "transfer",
      "outputs": [
        {
          "name": "",
          "type": "bool"
        }
      ],
      "payable": false,
      "stateMutability": "nonpayable",
      "type": "function"
    },
    {
      "constant": true,
      "inputs": [
        {
          "name": "_proof",
          "type": "bytes32[]"
        },
        {
          "name": "_merkleLeafHash",
          "type": "bytes32"
        }
      ],
      "name": "verifyProof",
      "outputs": [
        {
          "name": "",
          "type": "bool"
        }
      ],
      "payable": false,
      "stateMutability": "view",
      "type": "function"
    },
    {
      "constant": true,
      "inputs": [
        {
          "name": "_addr",
          "type": "address"
        },
        {
          "name": "_pubKey",
          "type": "bytes"
        },
        {
          "name": "_v",
          "type": "uint8"
        },
        {
          "name": "_r",
          "type": "bytes32"
        },
        {
          "name": "_s",
          "type": "bytes32"
        }
      ],
      "name": "ecdsaVerify",
      "outputs": [
        {
          "name": "",
          "type": "bool"
        }
      ],
      "payable": false,
      "stateMutability": "pure",
      "type": "function"
    },
    {
      "constant": true,
      "inputs": [
        {
          "name": "_originalAddress",
          "type": "bytes20"
        },
        {
          "name": "_satoshis",
          "type": "uint256"
        },
        {
          "name": "_proof",
          "type": "bytes32[]"
        }
      ],
      "name": "canRedeemUtxo",
      "outputs": [
        {
          "name": "",
          "type": "bool"
        }
      ],
      "payable": false,
      "stateMutability": "view",
      "type": "function"
    },
    {
      "constant": true,
      "inputs": [
        {
          "name": "owner",
          "type": "address"
        },
        {
          "name": "spender",
          "type": "address"
        }
      ],
      "name": "allowance",
      "outputs": [
        {
          "name": "",
          "type": "uint256"
        }
      ],
      "payable": false,
      "stateMutability": "view",
      "type": "function"
    },
    {
      "constant": true,
      "inputs": [
        {
          "name": "_pubKey",
          "type": "bytes"
        },
        {
          "name": "_isCompressed",
          "type": "bool"
        }
      ],
      "name": "pubKeyToBitcoinAddress",
      "outputs": [
        {
          "name": "",
          "type": "bytes20"
        }
      ],
      "payable": false,
      "stateMutability": "pure",
      "type": "function"
    },
    {
      "constant": true,
      "inputs": [],
      "name": "totalRedeemed",
      "outputs": [
        {
          "name": "",
          "type": "uint256"
        }
      ],
      "payable": false,
      "stateMutability": "view",
      "type": "function"
    },
    {
      "anonymous": false,
      "inputs": [
        {
          "indexed": true,
          "name": "from",
          "type": "address"
        },
        {
          "indexed": true,
          "name": "to",
          "type": "address"
        },
        {
          "indexed": false,
          "name": "value",
          "type": "uint256"
        }
      ],
      "name": "Transfer",
      "type": "event"
    },
    {
      "anonymous": false,
      "inputs": [
        {
          "indexed": true,
          "name": "owner",
          "type": "address"
        },
        {
          "indexed": true,
          "name": "spender",
          "type": "address"
        },
        {
          "indexed": false,
          "name": "value",
          "type": "uint256"
        }
      ],
      "name": "Approval",
      "type": "event"
    },
    {
      "constant": true,
      "inputs": [
        {
          "name": "_satoshis",
          "type": "uint256"
        }
      ],
      "name": "getRedeemAmount",
      "outputs": [
        {
          "name": "",
          "type": "uint256"
        },
        {
          "name": "",
          "type": "uint256"
        }
      ],
      "payable": false,
      "stateMutability": "view",
      "type": "function"
    },
    {
      "constant": false,
      "inputs": [
        {
          "name": "_satoshis",
          "type": "uint256"
        },
        {
          "name": "_proof",
          "type": "bytes32[]"
        },
        {
          "name": "_pubKey",
          "type": "bytes"
        },
        {
          "name": "_isCompressed",
          "type": "bool"
        },
        {
          "name": "_v",
          "type": "uint8"
        },
        {
          "name": "_r",
          "type": "bytes32"
        },
        {
          "name": "_s",
          "type": "bytes32"
        },
        {
          "name": "_referrer",
          "type": "address"
        }
      ],
      "name": "redeemUTXO",
      "outputs": [
        {
          "name": "",
          "type": "uint256"
        }
      ],
      "payable": false,
      "stateMutability": "nonpayable",
      "type": "function"
    }
  ],
  "bytecode": "0x60806040526000600655600060075534801561001a57600080fd5b506129c78061002a6000396000f30060806040526004361061015f576000357c0100000000000000000000000000000000000000000000000000000000900463ffffffff16806306fdde03146101645780630867c0ad146101f4578063095ea7b3146102925780630b6f5099146102f75780631765f4bf1461030e57806318160ddd1461033957806323b872dd146103645780632c3ee88c146103e9578063313ce56714610431578063395093511461045c5780634ecd81b3146104c157806352aa3e6c146105e05780635418796c1461060b5780636aaf67e2146106b457806370a08231146106e7578063790ca4131461073e57806381cd84b9146107695780638f169816146107f557806395d89b4114610872578063a457c2d714610902578063a9059cbb14610967578063b80ac7df146109cc578063ce267b5514610a58578063cfc2334e14610b22578063dd62ed3e14610bc3578063e073ef6914610c3a578063f35dad4014610ce1575b600080fd5b34801561017057600080fd5b50610179610d0c565b6040518080602001828103825283818151815260200191508051906020019080838360005b838110156101b957808201518184015260208101905061019e565b50505050905090810190601f1680156101e65780820380516001836020036101000a031916815260200191505b509250505060405180910390f35b34801561020057600080fd5b506102786004803603810190808035600019169060200190929190803560ff16906020019092919080356000191690602001909291908035600019169060200190929190803573ffffffffffffffffffffffffffffffffffffffff169060200190929190803515159060200190929190505050610d45565b604051808215151515815260200191505060405180910390f35b34801561029e57600080fd5b506102dd600480360381019080803573ffffffffffffffffffffffffffffffffffffffff16906020019092919080359060200190929190505050610f30565b604051808215151515815260200191505060405180910390f35b34801561030357600080fd5b5061030c61105d565b005b34801561031a57600080fd5b5061032361114b565b6040518082815260200191505060405180910390f35b34801561034557600080fd5b5061034e611151565b6040518082815260200191505060405180910390f35b34801561037057600080fd5b506103cf600480360381019080803573ffffffffffffffffffffffffffffffffffffffff169060200190929190803573ffffffffffffffffffffffffffffffffffffffff1690602001909291908035906020019092919050505061115b565b604051808215151515815260200191505060405180910390f35b3480156103f557600080fd5b506104146004803603810190808035906020019092919050505061130d565b604051808381526020018281526020019250505060405180910390f35b34801561043d57600080fd5b50610446611339565b6040518082815260200191505060405180910390f35b34801561046857600080fd5b506104a7600480360381019080803573ffffffffffffffffffffffffffffffffffffffff1690602001909291908035906020019092919050505061133e565b604051808215151515815260200191505060405180910390f35b3480156104cd57600080fd5b506105ca6004803603810190808035906020019092919080359060200190820180359060200190808060200260200160405190810160405280939291908181526020018383602002808284378201915050505050509192919290803590602001908201803590602001908080601f0160208091040260200160405190810160405280939291908181526020018383808284378201915050505050509192919290803515159060200190929190803560ff16906020019092919080356000191690602001909291908035600019169060200190929190803573ffffffffffffffffffffffffffffffffffffffff169060200190929190505050611575565b6040518082815260200191505060405180910390f35b3480156105ec57600080fd5b506105f56118f2565b6040518082815260200191505060405180910390f35b34801561061757600080fd5b50610672600480360381019080803590602001908201803590602001908080601f01602080910402602001604051908101604052809392919081815260200183838082843782019150505050505091929192905050506118f8565b604051808273ffffffffffffffffffffffffffffffffffffffff1673ffffffffffffffffffffffffffffffffffffffff16815260200191505060405180910390f35b3480156106c057600080fd5b506106c961197e565b60405180826000191660001916815260200191505060405180910390f35b3480156106f357600080fd5b50610728600480360381019080803573ffffffffffffffffffffffffffffffffffffffff169060200190929190505050611984565b6040518082815260200191505060405180910390f35b34801561074a57600080fd5b506107536119cc565b6040518082815260200191505060405180910390f35b34801561077557600080fd5b506107db6004803603810190808035600019169060200190929190803590602001908201803590602001908080602002602001604051908101604052809392919081815260200183836020028082843782019150505050505091929192905050506119d2565b604051808215151515815260200191505060405180910390f35b34801561080157600080fd5b50610840600480360381019080803573ffffffffffffffffffffffffffffffffffffffff16906020019092919080359060200190929190505050611a1d565b604051808681526020018581526020018481526020018381526020018281526020019550505050505060405180910390f35b34801561087e57600080fd5b50610887611a6f565b6040518080602001828103825283818151815260200191508051906020019080838360005b838110156108c75780820151818401526020810190506108ac565b50505050905090810190601f1680156108f45780820380516001836020036101000a031916815260200191505b509250505060405180910390f35b34801561090e57600080fd5b5061094d600480360381019080803573ffffffffffffffffffffffffffffffffffffffff16906020019092919080359060200190929190505050611aa8565b604051808215151515815260200191505060405180910390f35b34801561097357600080fd5b506109b2600480360381019080803573ffffffffffffffffffffffffffffffffffffffff16906020019092919080359060200190929190505050611cdf565b604051808215151515815260200191505060405180910390f35b3480156109d857600080fd5b50610a3e600480360381019080803590602001908201803590602001908080602002602001604051908101604052809392919081815260200183836020028082843782019150505050505091929192908035600019169060200190929190505050611cf6565b604051808215151515815260200191505060405180910390f35b348015610a6457600080fd5b50610b08600480360381019080803573ffffffffffffffffffffffffffffffffffffffff169060200190929190803590602001908201803590602001908080601f0160208091040260200160405190810160405280939291908181526020018383808284378201915050505050509192919290803560ff16906020019092919080356000191690602001909291908035600019169060200190929190505050611d0d565b604051808215151515815260200191505060405180910390f35b348015610b2e57600080fd5b50610ba960048036038101908080356bffffffffffffffffffffffff191690602001909291908035906020019092919080359060200190820180359060200190808060200260200160405190810160405280939291908181526020018383602002808284378201915050505050509192919290505050611e2c565b604051808215151515815260200191505060405180910390f35b348015610bcf57600080fd5b50610c24600480360381019080803573ffffffffffffffffffffffffffffffffffffffff169060200190929190803573ffffffffffffffffffffffffffffffffffffffff169060200190929190505050611eed565b6040518082815260200191505060405180910390f35b348015610c4657600080fd5b50610cad600480360381019080803590602001908201803590602001908080601f0160208091040260200160405190810160405280939291908181526020018383808284378201915050505050509192919290803515159060200190929190505050611f74565b60405180826bffffffffffffffffffffffff19166bffffffffffffffffffffffff1916815260200191505060405180910390f35b348015610ced57600080fd5b50610cf6612333565b6040518082815260200191505060405180910390f35b6040805190810160405280600a81526020017f426974636f696e4865780000000000000000000000000000000000000000000081525081565b6000806060831515610d5957889150610e73565b6040805190810160405280601c81526020017f19457468657265756d205369676e6564204d6573736167653a0a333200000000815250905080896040516020018083805190602001908083835b602083101515610dcb5780518252602082019150602081019050602083039250610da6565b6001836020036101000a0380198251168184511680821785525050505050509050018260001916600019168152602001925050506040516020818303038152906040526040518082805190602001908083835b602083101515610e435780518252602082019150602081019050602083039250610e1e565b6001836020036101000a038019825116818451168082178552505050505050905001915050604051809103902091505b8473ffffffffffffffffffffffffffffffffffffffff166001838a8a8a604051600081526020016040526040518085600019166000191681526020018460ff1660ff1681526020018360001916600019168152602001826000191660001916815260200194505050505060206040516020810390808403906000865af1158015610f01573d6000803e3d6000fd5b5050506020604051035173ffffffffffffffffffffffffffffffffffffffff1614925050509695505050505050565b60008073ffffffffffffffffffffffffffffffffffffffff168373ffffffffffffffffffffffffffffffffffffffff1614151515610f6d57600080fd5b81600160003373ffffffffffffffffffffffffffffffffffffffff1673ffffffffffffffffffffffffffffffffffffffff16815260200190815260200160002060008573ffffffffffffffffffffffffffffffffffffffff1673ffffffffffffffffffffffffffffffffffffffff168152602001908152602001600020819055508273ffffffffffffffffffffffffffffffffffffffff163373ffffffffffffffffffffffffffffffffffffffff167f8c5be1e5ebec7d5bd14f71427d1e84f3dd0314c0f7b2291e5b200ac8c7c3b925846040518082815260200191505060405180910390a36001905092915050565b60008061108a62093a8061107c6004544261233990919063ffffffff16565b61235a90919063ffffffff16565b91505b600554821115611147576110ae60065460085461233990919063ffffffff16565b90506040805190810160405280828152602001600f54815250600b60008481526020019081526020016000206000820151816000015560208201518160010155905050611130600360009054906101000a900473ffffffffffffffffffffffffffffffffffffffff1661112b60328461235a90919063ffffffff16565b612384565b60056000815480929190600101919050555061108d565b5050565b600f5481565b6000600254905090565b6000600160008573ffffffffffffffffffffffffffffffffffffffff1673ffffffffffffffffffffffffffffffffffffffff16815260200190815260200160002060003373ffffffffffffffffffffffffffffffffffffffff1673ffffffffffffffffffffffffffffffffffffffff1681526020019081526020016000205482111515156111e857600080fd5b61127782600160008773ffffffffffffffffffffffffffffffffffffffff1673ffffffffffffffffffffffffffffffffffffffff16815260200190815260200160002060003373ffffffffffffffffffffffffffffffffffffffff1673ffffffffffffffffffffffffffffffffffffffff1681526020019081526020016000205461233990919063ffffffff16565b600160008673ffffffffffffffffffffffffffffffffffffffff1673ffffffffffffffffffffffffffffffffffffffff16815260200190815260200160002060003373ffffffffffffffffffffffffffffffffffffffff1673ffffffffffffffffffffffffffffffffffffffff168152602001908152602001600020819055506113028484846124c2565b600190509392505050565b60008060008084915061131f826126db565b915061132a856126ea565b90508181935093505050915091565b601281565b60008073ffffffffffffffffffffffffffffffffffffffff168373ffffffffffffffffffffffffffffffffffffffff161415151561137b57600080fd5b61140a82600160003373ffffffffffffffffffffffffffffffffffffffff1673ffffffffffffffffffffffffffffffffffffffff16815260200190815260200160002060008673ffffffffffffffffffffffffffffffffffffffff1673ffffffffffffffffffffffffffffffffffffffff168152602001908152602001600020546126f990919063ffffffff16565b600160003373ffffffffffffffffffffffffffffffffffffffff1673ffffffffffffffffffffffffffffffffffffffff16815260200190815260200160002060008573ffffffffffffffffffffffffffffffffffffffff1673ffffffffffffffffffffffffffffffffffffffff168152602001908152602001600020819055508273ffffffffffffffffffffffffffffffffffffffff163373ffffffffffffffffffffffffffffffffffffffff167f8c5be1e5ebec7d5bd14f71427d1e84f3dd0314c0f7b2291e5b200ac8c7c3b925600160003373ffffffffffffffffffffffffffffffffffffffff1673ffffffffffffffffffffffffffffffffffffffff16815260200190815260200160002060008773ffffffffffffffffffffffffffffffffffffffff1673ffffffffffffffffffffffffffffffffffffffff168152602001908152602001600020546040518082815260200191505060405180910390a36001905092915050565b60008060008060006115878b8b611f74565b9350838d60405160200180836bffffffffffffffffffffffff19166bffffffffffffffffffffffff19168152601401828152602001925050506040516020818303038152906040526040518082805190602001908083835b60208310151561160457805182526020820191506020810190506020830392506115df565b6001836020036101000a0380198251168184511680821785525050505050509050019150506040518091039020925061163d838d6119d2565b151561164857600080fd5b61165061105d565b61165d338c8b8b8b611d0d565b151561166857600080fd5b600854611680836006546126f990919063ffffffff16565b1115151561168d57600080fd5b6116a28d6006546126f990919063ffffffff16565b6006819055506001600a6000856000191660001916815260200190815260200160002060006101000a81548160ff0219169083151502179055506116e58d61130d565b915091506117053361170083856126f990919063ffffffff16565b612384565b611731600360009054906101000a900473ffffffffffffffffffffffffffffffffffffffff1682612384565b61174760016007546126f990919063ffffffff16565b6007819055503373ffffffffffffffffffffffffffffffffffffffff16600073ffffffffffffffffffffffffffffffffffffffff167fddf252ad1be2c89b69c2b068fc378daa952ba7f163c4a11628f55a4df523b3ef6117b084866126f990919063ffffffff16565b6040518082815260200191505060405180910390a3600360009054906101000a900473ffffffffffffffffffffffffffffffffffffffff1673ffffffffffffffffffffffffffffffffffffffff16600073ffffffffffffffffffffffffffffffffffffffff167fddf252ad1be2c89b69c2b068fc378daa952ba7f163c4a11628f55a4df523b3ef836040518082815260200191505060405180910390a3600073ffffffffffffffffffffffffffffffffffffffff168673ffffffffffffffffffffffffffffffffffffffff161415156118cd5761188d8683612384565b6118cc600360009054906101000a900473ffffffffffffffffffffffffffffffffffffffff166118c760148561235a90919063ffffffff16565b612384565b5b6118e081836126f990919063ffffffff16565b94505050505098975050505050505050565b60075481565b600073ffffffffffffffffffffffffffffffffffffffff826040518082805190602001908083835b6020831015156119455780518252602082019150602081019050602083039250611920565b6001836020036101000a038019825116818451168082178552505050505050905001915050604051809103902060019004169050919050565b60095481565b60008060008373ffffffffffffffffffffffffffffffffffffffff1673ffffffffffffffffffffffffffffffffffffffff168152602001908152602001600020549050919050565b60045481565b6000801515600a6000856000191660001916815260200190815260200160002060009054906101000a900460ff161515148015611a155750611a148284611cf6565b5b905092915050565b600e60205281600052604060002081815481101515611a3857fe5b9060005260206000209060050201600091509150508060000154908060010154908060020154908060030154908060040154905085565b6040805190810160405280600381526020017f424858000000000000000000000000000000000000000000000000000000000081525081565b60008073ffffffffffffffffffffffffffffffffffffffff168373ffffffffffffffffffffffffffffffffffffffff1614151515611ae557600080fd5b611b7482600160003373ffffffffffffffffffffffffffffffffffffffff1673ffffffffffffffffffffffffffffffffffffffff16815260200190815260200160002060008673ffffffffffffffffffffffffffffffffffffffff1673ffffffffffffffffffffffffffffffffffffffff1681526020019081526020016000205461233990919063ffffffff16565b600160003373ffffffffffffffffffffffffffffffffffffffff1673ffffffffffffffffffffffffffffffffffffffff16815260200190815260200160002060008573ffffffffffffffffffffffffffffffffffffffff1673ffffffffffffffffffffffffffffffffffffffff168152602001908152602001600020819055508273ffffffffffffffffffffffffffffffffffffffff163373ffffffffffffffffffffffffffffffffffffffff167f8c5be1e5ebec7d5bd14f71427d1e84f3dd0314c0f7b2291e5b200ac8c7c3b925600160003373ffffffffffffffffffffffffffffffffffffffff1673ffffffffffffffffffffffffffffffffffffffff16815260200190815260200160002060008773ffffffffffffffffffffffffffffffffffffffff1673ffffffffffffffffffffffffffffffffffffffff168152602001908152602001600020546040518082815260200191505060405180910390a36001905092915050565b6000611cec3384846124c2565b6001905092915050565b6000611d05836009548461271a565b905092915050565b6000611e21600287604051602001808273ffffffffffffffffffffffffffffffffffffffff1673ffffffffffffffffffffffffffffffffffffffff166c010000000000000000000000000281526014019150506040516020818303038152906040526040518082805190602001908083835b602083101515611da45780518252602082019150602081019050602083039250611d7f565b6001836020036101000a0380198251168184511680821785525050505050509050019150506020604051808303816000865af1158015611de8573d6000803e3d6000fd5b5050506040513d6020811015611dfd57600080fd5b8101908080519060200190929190505050858585611e1a8a6118f8565b6000610d45565b905095945050505050565b600080848460405160200180836bffffffffffffffffffffffff19166bffffffffffffffffffffffff19168152601401828152602001925050506040516020818303038152906040526040518082805190602001908083835b602083101515611eaa5780518252602082019150602081019050602083039250611e85565b6001836020036101000a03801982511681845116808217855250505050505090500191505060405180910390209050611ee381846119d2565b9150509392505050565b6000600160008473ffffffffffffffffffffffffffffffffffffffff1673ffffffffffffffffffffffffffffffffffffffff16815260200190815260200160002060008373ffffffffffffffffffffffffffffffffffffffff1673ffffffffffffffffffffffffffffffffffffffff16815260200190815260200160002054905092915050565b600080600080611f858660006128bd565b600190049250611f968660206128bd565b6001900491508415612172576000600283811515611fb057fe5b0614611fbd576003611fc0565b60025b9050600360028285604051602001808360ff1660ff167f0100000000000000000000000000000000000000000000000000000000000000028152600101828152602001925050506040516020818303038152906040526040518082805190602001908083835b60208310151561204b5780518252602082019150602081019050602083039250612026565b6001836020036101000a0380198251168184511680821785525050505050509050019150506020604051808303816000865af115801561208f573d6000803e3d6000fd5b5050506040513d60208110156120a457600080fd5b81019080805190602001909291905050506040516020018082600019166000191681526020019150506040516020818303038152906040526040518082805190602001908083835b60208310151561211157805182526020820191506020810190506020830392506120ec565b6001836020036101000a0380198251168184511680821785525050505050509050019150506020604051808303816000865af1158015612155573d6000803e3d6000fd5b505050604051516c0100000000000000000000000002935061232a565b6004905060036002828585604051602001808460ff1660ff167f010000000000000000000000000000000000000000000000000000000000000002815260010183815260200182815260200193505050506040516020818303038152906040526040518082805190602001908083835b60208310151561220757805182526020820191506020810190506020830392506121e2565b6001836020036101000a0380198251168184511680821785525050505050509050019150506020604051808303816000865af115801561224b573d6000803e3d6000fd5b5050506040513d602081101561226057600080fd5b81019080805190602001909291905050506040516020018082600019166000191681526020019150506040516020818303038152906040526040518082805190602001908083835b6020831015156122cd57805182526020820191506020810190506020830392506122a8565b6001836020036101000a0380198251168184511680821785525050505050509050019150506020604051808303816000865af1158015612311573d6000803e3d6000fd5b505050604051516c010000000000000000000000000293505b50505092915050565b60065481565b60008083831115151561234b57600080fd5b82840390508091505092915050565b60008060008311151561236c57600080fd5b828481151561237757fe5b0490508091505092915050565b60008273ffffffffffffffffffffffffffffffffffffffff16141515156123aa57600080fd5b6123bf816002546126f990919063ffffffff16565b600281905550612416816000808573ffffffffffffffffffffffffffffffffffffffff1673ffffffffffffffffffffffffffffffffffffffff168152602001908152602001600020546126f990919063ffffffff16565b6000808473ffffffffffffffffffffffffffffffffffffffff1673ffffffffffffffffffffffffffffffffffffffff168152602001908152602001600020819055508173ffffffffffffffffffffffffffffffffffffffff16600073ffffffffffffffffffffffffffffffffffffffff167fddf252ad1be2c89b69c2b068fc378daa952ba7f163c4a11628f55a4df523b3ef836040518082815260200191505060405180910390a35050565b6000808473ffffffffffffffffffffffffffffffffffffffff1673ffffffffffffffffffffffffffffffffffffffff16815260200190815260200160002054811115151561250f57600080fd5b600073ffffffffffffffffffffffffffffffffffffffff168273ffffffffffffffffffffffffffffffffffffffff161415151561254b57600080fd5b61259c816000808673ffffffffffffffffffffffffffffffffffffffff1673ffffffffffffffffffffffffffffffffffffffff1681526020019081526020016000205461233990919063ffffffff16565b6000808573ffffffffffffffffffffffffffffffffffffffff1673ffffffffffffffffffffffffffffffffffffffff1681526020019081526020016000208190555061262f816000808573ffffffffffffffffffffffffffffffffffffffff1673ffffffffffffffffffffffffffffffffffffffff168152602001908152602001600020546126f990919063ffffffff16565b6000808473ffffffffffffffffffffffffffffffffffffffff1673ffffffffffffffffffffffffffffffffffffffff168152602001908152602001600020819055508173ffffffffffffffffffffffffffffffffffffffff168373ffffffffffffffffffffffffffffffffffffffff167fddf252ad1be2c89b69c2b068fc378daa952ba7f163c4a11628f55a4df523b3ef836040518082815260200191505060405180910390a3505050565b60008082905080915050919050565b60008082905080915050919050565b600080828401905083811015151561271057600080fd5b8091505092915050565b600080600080849250600091505b86518210156128a657868281518110151561273f57fe5b9060200190602002015190508060001916836000191610156127fc5782816040516020018083600019166000191681526020018260001916600019168152602001925050506040516020818303038152906040526040518082805190602001908083835b6020831015156127c857805182526020820191506020810190506020830392506127a3565b6001836020036101000a03801982511681845116808217855250505050505090500191505060405180910390209250612899565b80836040516020018083600019166000191681526020018260001916600019168152602001925050506040516020818303038152906040526040518082805190602001908083835b6020831015156128695780518252602082019150602081019050602083039250612844565b6001836020036101000a038019825116818451168082178552505050505050905001915050604051809103902092505b8180600101925050612728565b856000191683600019161493505050509392505050565b60008060008090505b60208110156129905760088102858583018151811015156128e357fe5b9060200101517f010000000000000000000000000000000000000000000000000000000000000090047f0100000000000000000000000000000000000000000000000000000000000000027effffffffffffffffffffffffffffffffffffffffffffffffffffffffffffff19167fff0000000000000000000000000000000000000000000000000000000000000060010216600019169060020a90048218915080806001019150506128c6565b8192505050929150505600a165627a7a723058207282c2ba7e31623171eea0d36a28b2591b72780c22e56dfaa9b3c058e4a625b00029",
  "source": "pragma solidity ^0.4.24;\n\nimport \"./UTXOClaimValidation.sol\";\nimport \"../node_modules/openzeppelin-solidity/contracts/math/SafeMath.sol\";\n\ncontract UTXORedeemableToken is UTXOClaimValidation {\n  using SafeMath for uint256;\n  /**\n  * @dev Calculates speed bonus for claiming early\n  * @param _satoshis Amount of UTXO in satoshis\n  * @return Speed bonus amount\n  */\n  function getSpeedBonus(uint256 _satoshis) internal view returns (uint256) {\n    uint256 _bonus = _satoshis;\n    return _bonus;\n  }\n\n  /**\n  * @dev Returns adjusted claim amount based on weeks passed since launch\n  * @param _satoshis Amount of UTXO in satoshis\n  * @return Adjusted claim amount\n  */\n  function getDelayAdjustedClaimAmount(uint256 _satoshis) internal view returns (uint256) {\n    uint256 _amount = _satoshis;\n    return _amount;\n  }\n\n  /**\n  * @dev PUBLIC FACING: Get post-adjustment redeem amount if claim of x satoshis redeemed\n  * @param _satoshis Amount of UTXO in satoshis\n  * @return 1: Adjusted claim amount; 2: Total claim bonuses\n  */\n  function getRedeemAmount(uint256 _satoshis) public view returns (uint256, uint256) {\n    uint256 _amount = _satoshis;\n    uint256 _bonus;\n    _amount = getDelayAdjustedClaimAmount(_amount);\n    _bonus = getSpeedBonus(_satoshis);\n    return (_amount, _bonus);\n  }\n\n  /**\n   * @dev PUBLIC FACING: Redeem a UTXO, crediting a proportional amount of tokens (if valid) to the sending address\n   * @param _satoshis Amount of UTXO in satoshis\n   * @param _proof Merkle tree proof\n   * @param _pubKey Uncompressed ECDSA public key to which the UTXO was sent\n   * @param _isCompressed Whether the Bitcoin address was generated from a compressed public key\n   * @param _v v parameter of ECDSA signature\n   * @param _r r parameter of ECDSA signature\n   * @param _s s parameter of ECDSA signature\n   * @param _referrer (optional, send 0x0 for default) addresss of referring persons\n   * @return The number of tokens redeemed, if successful\n   */\n  function redeemUTXO(\n    uint256 _satoshis,\n    bytes32[] _proof,\n    bytes _pubKey,\n    bool _isCompressed,\n    uint8 _v,\n    bytes32 _r,\n    bytes32 _s,\n    address _referrer\n  ) public returns (uint256) {\n    /* Calculate original Bitcoin-style address associated with the provided public key. */\n    bytes20 _originalAddress = pubKeyToBitcoinAddress(_pubKey, _isCompressed);\n\n    /* Calculate the UTXO Merkle leaf hash. */\n    bytes32 _merkleLeafHash = keccak256(\n      abi.encodePacked(\n        _originalAddress, \n        _satoshis\n      )\n    );\n\n     /* Verify that the UTXO can be redeemed. */\n    require(canRedeemUtxoHash(_merkleLeafHash, _proof));\n\n    /* Check if weekly unclaimed coins data needs to be logged */\n    storeWeeklyUnclaimedCoins();\n\n    /* Claimant must sign the Ethereum address to which they wish to remit the redeemed tokens. */\n    require(\n      ecdsaVerify(\n        msg.sender, \n        _pubKey, \n        _v, \n        _r, \n        _s\n      )\n    );\n\n    /* Sanity check. */\n    require(totalRedeemed.add(_tokensRedeemed) <= maximumRedeemable);\n\n    /* Track total redeemed tokens. This needs to be logged before scaling */\n    totalRedeemed = totalRedeemed.add(_satoshis);\n\n    /* Mark the UTXO as redeemed. */\n    redeemedUTXOs[_merkleLeafHash] = true;\n\n    /* Fetch value of claim */\n    (uint256 _tokensRedeemed, uint256 _bonuses) = getRedeemAmount(_satoshis);\n\n    /* Credit the redeemer, and award bonuses to origin. */ \n    _mint(msg.sender, _tokensRedeemed.add(_bonuses));\n    _mint(origin, _bonuses);\n\n    /* Increment Redeem Count to track viral rewards */\n    redeemedCount = redeemedCount.add(1);\n\n    /* Mark the transfer event. */\n    emit Transfer(address(0), msg.sender, _tokensRedeemed.add(_bonuses));\n    emit Transfer(address(0), origin, _bonuses);\n\n    /* Check if non-zero referral address has been passed */\n    if (_referrer != address(0)) {\n      /* Credit referrer and origin */\n      _mint(_referrer, _tokensRedeemed);\n      _mint(origin, _tokensRedeemed.div(20));\n    }\n    \n    /* Return the number of tokens redeemed. */\n    return _tokensRedeemed.add(_bonuses);\n  }\n}",
  "sourcePath": "/Users/mesquka/Git/Bitcoin Hex/contract/contracts/UTXORedeemableToken.sol",
  "compiler": {
    "name": "solc",
    "version": "0.4.24+commit.e67f0147.Emscripten.clang"
  },
  "schemaVersion": "2.0.1",
  "updatedAt": "2018-10-25T12:11:18.113Z"
}