{
  "contractName": "UTXOClaimValidation",
  "abi": [
    {
      "constant": true,
      "inputs": [],
      "name": "name",
      "outputs": [
        {
          "name": "",
          "type": "string"
        }
      ],
      "payable": false,
      "stateMutability": "view",
      "type": "function"
    },
    {
      "constant": false,
      "inputs": [
        {
          "name": "spender",
          "type": "address"
        },
        {
          "name": "value",
          "type": "uint256"
        }
      ],
      "name": "approve",
      "outputs": [
        {
          "name": "",
          "type": "bool"
        }
      ],
      "payable": false,
      "stateMutability": "nonpayable",
      "type": "function"
    },
    {
      "constant": true,
      "inputs": [],
      "name": "totalStakedCoins",
      "outputs": [
        {
          "name": "",
          "type": "uint256"
        }
      ],
      "payable": false,
      "stateMutability": "view",
      "type": "function"
    },
    {
      "constant": true,
      "inputs": [],
      "name": "totalSupply",
      "outputs": [
        {
          "name": "",
          "type": "uint256"
        }
      ],
      "payable": false,
      "stateMutability": "view",
      "type": "function"
    },
    {
      "constant": false,
      "inputs": [],
      "name": "storePeriodData",
      "outputs": [],
      "payable": false,
      "stateMutability": "nonpayable",
      "type": "function"
    },
    {
      "constant": false,
      "inputs": [
        {
          "name": "from",
          "type": "address"
        },
        {
          "name": "to",
          "type": "address"
        },
        {
          "name": "value",
          "type": "uint256"
        }
      ],
      "name": "transferFrom",
      "outputs": [
        {
          "name": "",
          "type": "bool"
        }
      ],
      "payable": false,
      "stateMutability": "nonpayable",
      "type": "function"
    },
    {
      "constant": true,
      "inputs": [],
      "name": "getCirculatingSupply",
      "outputs": [
        {
          "name": "",
          "type": "uint256"
        }
      ],
      "payable": false,
      "stateMutability": "view",
      "type": "function"
    },
    {
      "constant": true,
      "inputs": [],
      "name": "decimals",
      "outputs": [
        {
          "name": "",
          "type": "uint256"
        }
      ],
      "payable": false,
      "stateMutability": "view",
      "type": "function"
    },
    {
      "constant": false,
      "inputs": [
        {
          "name": "spender",
          "type": "address"
        },
        {
          "name": "addedValue",
          "type": "uint256"
        }
      ],
      "name": "increaseAllowance",
      "outputs": [
        {
          "name": "",
          "type": "bool"
        }
      ],
      "payable": false,
      "stateMutability": "nonpayable",
      "type": "function"
    },
    {
      "constant": false,
      "inputs": [],
      "name": "storeWeeklyData",
      "outputs": [],
      "payable": false,
      "stateMutability": "nonpayable",
      "type": "function"
    },
    {
      "constant": true,
      "inputs": [],
      "name": "redeemedCount",
      "outputs": [
        {
          "name": "",
          "type": "uint256"
        }
      ],
      "payable": false,
      "stateMutability": "view",
      "type": "function"
    },
    {
      "constant": true,
      "inputs": [],
      "name": "rootUtxoMerkleTreeHash",
      "outputs": [
        {
          "name": "",
          "type": "bytes32"
        }
      ],
      "payable": false,
      "stateMutability": "view",
      "type": "function"
    },
    {
      "constant": true,
      "inputs": [
        {
          "name": "owner",
          "type": "address"
        }
      ],
      "name": "balanceOf",
      "outputs": [
        {
          "name": "",
          "type": "uint256"
        }
      ],
      "payable": false,
      "stateMutability": "view",
      "type": "function"
    },
    {
      "constant": true,
      "inputs": [
        {
          "name": "",
          "type": "address"
        },
        {
          "name": "",
          "type": "uint256"
        }
      ],
      "name": "staked",
      "outputs": [
        {
          "name": "amount",
          "type": "uint256"
        },
        {
          "name": "stakeTime",
          "type": "uint256"
        },
        {
          "name": "unlockTime",
          "type": "uint256"
        }
      ],
      "payable": false,
      "stateMutability": "view",
      "type": "function"
    },
    {
      "constant": true,
      "inputs": [],
      "name": "symbol",
      "outputs": [
        {
          "name": "",
          "type": "string"
        }
      ],
      "payable": false,
      "stateMutability": "view",
      "type": "function"
    },
    {
      "constant": false,
      "inputs": [
        {
          "name": "spender",
          "type": "address"
        },
        {
          "name": "subtractedValue",
          "type": "uint256"
        }
      ],
      "name": "decreaseAllowance",
      "outputs": [
        {
          "name": "",
          "type": "bool"
        }
      ],
      "payable": false,
      "stateMutability": "nonpayable",
      "type": "function"
    },
    {
      "constant": false,
      "inputs": [
        {
          "name": "to",
          "type": "address"
        },
        {
          "name": "value",
          "type": "uint256"
        }
      ],
      "name": "transfer",
      "outputs": [
        {
          "name": "",
          "type": "bool"
        }
      ],
      "payable": false,
      "stateMutability": "nonpayable",
      "type": "function"
    },
    {
      "constant": true,
      "inputs": [],
      "name": "isClaimsPeriod",
      "outputs": [
        {
          "name": "",
          "type": "bool"
        }
      ],
      "payable": false,
      "stateMutability": "view",
      "type": "function"
    },
    {
      "constant": true,
      "inputs": [
        {
          "name": "owner",
          "type": "address"
        },
        {
          "name": "spender",
          "type": "address"
        }
      ],
      "name": "allowance",
      "outputs": [
        {
          "name": "",
          "type": "uint256"
        }
      ],
      "payable": false,
      "stateMutability": "view",
      "type": "function"
    },
    {
      "constant": true,
      "inputs": [],
      "name": "totalRedeemed",
      "outputs": [
        {
          "name": "",
          "type": "uint256"
        }
      ],
      "payable": false,
      "stateMutability": "view",
      "type": "function"
    },
    {
      "anonymous": false,
      "inputs": [
        {
          "indexed": true,
          "name": "from",
          "type": "address"
        },
        {
          "indexed": true,
          "name": "to",
          "type": "address"
        },
        {
          "indexed": false,
          "name": "value",
          "type": "uint256"
        }
      ],
      "name": "Transfer",
      "type": "event"
    },
    {
      "anonymous": false,
      "inputs": [
        {
          "indexed": true,
          "name": "owner",
          "type": "address"
        },
        {
          "indexed": true,
          "name": "spender",
          "type": "address"
        },
        {
          "indexed": false,
          "name": "value",
          "type": "uint256"
        }
      ],
      "name": "Approval",
      "type": "event"
    },
    {
      "constant": true,
      "inputs": [
        {
          "name": "_hash",
          "type": "bytes32"
        },
        {
          "name": "_v",
          "type": "uint8"
        },
        {
          "name": "_r",
          "type": "bytes32"
        },
        {
          "name": "_s",
          "type": "bytes32"
        },
        {
          "name": "_expected",
          "type": "address"
        },
        {
          "name": "_addPrefix",
          "type": "bool"
        }
      ],
      "name": "validateSignature",
      "outputs": [
        {
          "name": "",
          "type": "bool"
        }
      ],
      "payable": false,
      "stateMutability": "pure",
      "type": "function"
    },
    {
      "constant": true,
      "inputs": [
        {
          "name": "_addr",
          "type": "address"
        },
        {
          "name": "_pubKey",
          "type": "bytes"
        },
        {
          "name": "_v",
          "type": "uint8"
        },
        {
          "name": "_r",
          "type": "bytes32"
        },
        {
          "name": "_s",
          "type": "bytes32"
        }
      ],
      "name": "ecdsaVerify",
      "outputs": [
        {
          "name": "",
          "type": "bool"
        }
      ],
      "payable": false,
      "stateMutability": "pure",
      "type": "function"
    },
    {
      "constant": true,
      "inputs": [
        {
          "name": "_pubKey",
          "type": "bytes"
        }
      ],
      "name": "pubKeyToEthereumAddress",
      "outputs": [
        {
          "name": "",
          "type": "address"
        }
      ],
      "payable": false,
      "stateMutability": "pure",
      "type": "function"
    },
    {
      "constant": true,
      "inputs": [
        {
          "name": "_pubKey",
          "type": "bytes"
        },
        {
          "name": "_isCompressed",
          "type": "bool"
        }
      ],
      "name": "pubKeyToBitcoinAddress",
      "outputs": [
        {
          "name": "",
          "type": "bytes20"
        }
      ],
      "payable": false,
      "stateMutability": "pure",
      "type": "function"
    },
    {
      "constant": true,
      "inputs": [
        {
          "name": "_proof",
          "type": "bytes32[]"
        },
        {
          "name": "_merkleLeafHash",
          "type": "bytes32"
        }
      ],
      "name": "verifyProof",
      "outputs": [
        {
          "name": "",
          "type": "bool"
        }
      ],
      "payable": false,
      "stateMutability": "view",
      "type": "function"
    },
    {
      "constant": true,
      "inputs": [
        {
          "name": "_merkleLeafHash",
          "type": "bytes32"
        },
        {
          "name": "_proof",
          "type": "bytes32[]"
        }
      ],
      "name": "canRedeemUtxoHash",
      "outputs": [
        {
          "name": "",
          "type": "bool"
        }
      ],
      "payable": false,
      "stateMutability": "view",
      "type": "function"
    },
    {
      "constant": true,
      "inputs": [
        {
          "name": "_originalAddress",
          "type": "bytes20"
        },
        {
          "name": "_satoshis",
          "type": "uint256"
        },
        {
          "name": "_proof",
          "type": "bytes32[]"
        }
      ],
      "name": "canRedeemUtxo",
      "outputs": [
        {
          "name": "",
          "type": "bool"
        }
      ],
      "payable": false,
      "stateMutability": "view",
      "type": "function"
    }
  ],
  "bytecode": "0x60806040526000600660006101000a81548173ffffffffffffffffffffffffffffffffffffffff021916908373ffffffffffffffffffffffffffffffffffffffff1602179055506000600755600060085534801561005c57600080fd5b5061260b8061006c6000396000f30060806040526004361061015f576000357c0100000000000000000000000000000000000000000000000000000000900463ffffffff16806306fdde03146101645780630867c0ad146101f4578063095ea7b3146102925780631765f4bf146102f757806318160ddd146103225780631ee752701461034d57806323b872dd146103645780632b112e49146103e9578063313ce56714610414578063395093511461043f5780634d3c8bc8146104a457806352aa3e6c146104bb5780635418796c146104e65780636aaf67e21461058f57806370a08231146105c257806381cd84b9146106195780638f169816146106a557806395d89b4114610714578063a457c2d7146107a4578063a9059cbb14610809578063adf71f1f1461086e578063b80ac7df1461089d578063ce267b5514610929578063cfc2334e146109f3578063dd62ed3e14610a94578063e073ef6914610b0b578063f35dad4014610bb2575b600080fd5b34801561017057600080fd5b50610179610bdd565b6040518080602001828103825283818151815260200191508051906020019080838360005b838110156101b957808201518184015260208101905061019e565b50505050905090810190601f1680156101e65780820380516001836020036101000a031916815260200191505b509250505060405180910390f35b34801561020057600080fd5b506102786004803603810190808035600019169060200190929190803560ff16906020019092919080356000191690602001909291908035600019169060200190929190803573ffffffffffffffffffffffffffffffffffffffff169060200190929190803515159060200190929190505050610c16565b604051808215151515815260200191505060405180910390f35b34801561029e57600080fd5b506102dd600480360381019080803573ffffffffffffffffffffffffffffffffffffffff16906020019092919080359060200190929190505050610e01565b604051808215151515815260200191505060405180910390f35b34801561030357600080fd5b5061030c610f2e565b6040518082815260200191505060405180910390f35b34801561032e57600080fd5b50610337610f34565b6040518082815260200191505060405180910390f35b34801561035957600080fd5b50610362610f3e565b005b34801561037057600080fd5b506103cf600480360381019080803573ffffffffffffffffffffffffffffffffffffffff169060200190929190803573ffffffffffffffffffffffffffffffffffffffff16906020019092919080359060200190929190505050610fe0565b604051808215151515815260200191505060405180910390f35b3480156103f557600080fd5b506103fe611192565b6040518082815260200191505060405180910390f35b34801561042057600080fd5b506104296111b5565b6040518082815260200191505060405180910390f35b34801561044b57600080fd5b5061048a600480360381019080803573ffffffffffffffffffffffffffffffffffffffff169060200190929190803590602001909291905050506111ba565b604051808215151515815260200191505060405180910390f35b3480156104b057600080fd5b506104b96113f1565b005b3480156104c757600080fd5b506104d06114cd565b6040518082815260200191505060405180910390f35b3480156104f257600080fd5b5061054d600480360381019080803590602001908201803590602001908080601f01602080910402602001604051908101604052809392919081815260200183838082843782019150505050505091929192905050506114d3565b604051808273ffffffffffffffffffffffffffffffffffffffff1673ffffffffffffffffffffffffffffffffffffffff16815260200191505060405180910390f35b34801561059b57600080fd5b506105a4611559565b60405180826000191660001916815260200191505060405180910390f35b3480156105ce57600080fd5b50610603600480360381019080803573ffffffffffffffffffffffffffffffffffffffff16906020019092919050505061155f565b6040518082815260200191505060405180910390f35b34801561062557600080fd5b5061068b6004803603810190808035600019169060200190929190803590602001908201803590602001908080602002602001604051908101604052809392919081815260200183836020028082843782019150505050505091929192905050506115a7565b604051808215151515815260200191505060405180910390f35b3480156106b157600080fd5b506106f0600480360381019080803573ffffffffffffffffffffffffffffffffffffffff169060200190929190803590602001909291905050506115f2565b60405180848152602001838152602001828152602001935050505060405180910390f35b34801561072057600080fd5b50610729611638565b6040518080602001828103825283818151815260200191508051906020019080838360005b8381101561076957808201518184015260208101905061074e565b50505050905090810190601f1680156107965780820380516001836020036101000a031916815260200191505b509250505060405180910390f35b3480156107b057600080fd5b506107ef600480360381019080803573ffffffffffffffffffffffffffffffffffffffff16906020019092919080359060200190929190505050611671565b604051808215151515815260200191505060405180910390f35b34801561081557600080fd5b50610854600480360381019080803573ffffffffffffffffffffffffffffffffffffffff169060200190929190803590602001909291905050506118a8565b604051808215151515815260200191505060405180910390f35b34801561087a57600080fd5b506108836118bf565b604051808215151515815260200191505060405180910390f35b3480156108a957600080fd5b5061090f6004803603810190808035906020019082018035906020019080806020026020016040519081016040528093929190818152602001838360200280828437820191505050505050919291929080356000191690602001909291905050506118cb565b604051808215151515815260200191505060405180910390f35b34801561093557600080fd5b506109d9600480360381019080803573ffffffffffffffffffffffffffffffffffffffff169060200190929190803590602001908201803590602001908080601f0160208091040260200160405190810160405280939291908181526020018383808284378201915050505050509192919290803560ff169060200190929190803560001916906020019092919080356000191690602001909291905050506118e2565b604051808215151515815260200191505060405180910390f35b3480156109ff57600080fd5b50610a7a60048036038101908080356bffffffffffffffffffffffff191690602001909291908035906020019092919080359060200190820180359060200190808060200260200160405190810160405280939291908181526020018383602002808284378201915050505050509192919290505050611a01565b604051808215151515815260200191505060405180910390f35b348015610aa057600080fd5b50610af5600480360381019080803573ffffffffffffffffffffffffffffffffffffffff169060200190929190803573ffffffffffffffffffffffffffffffffffffffff169060200190929190505050611ac2565b6040518082815260200191505060405180910390f35b348015610b1757600080fd5b50610b7e600480360381019080803590602001908201803590602001908080601f0160208091040260200160405190810160405280939291908181526020018383808284378201915050505050509192919290803515159060200190929190505050611b49565b60405180826bffffffffffffffffffffffff19166bffffffffffffffffffffffff1916815260200191505060405180910390f35b348015610bbe57600080fd5b50610bc7611f08565b6040518082815260200191505060405180910390f35b6040805190810160405280600a81526020017f426974636f696e4865780000000000000000000000000000000000000000000081525081565b6000806060831515610c2a57889150610d44565b6040805190810160405280601c81526020017f19457468657265756d205369676e6564204d6573736167653a0a333200000000815250905080896040516020018083805190602001908083835b602083101515610c9c5780518252602082019150602081019050602083039250610c77565b6001836020036101000a0380198251168184511680821785525050505050509050018260001916600019168152602001925050506040516020818303038152906040526040518082805190602001908083835b602083101515610d145780518252602082019150602081019050602083039250610cef565b6001836020036101000a038019825116818451168082178552505050505050905001915050604051809103902091505b8473ffffffffffffffffffffffffffffffffffffffff166001838a8a8a604051600081526020016040526040518085600019166000191681526020018460ff1660ff1681526020018360001916600019168152602001826000191660001916815260200194505050505060206040516020810390808403906000865af1158015610dd2573d6000803e3d6000fd5b5050506020604051035173ffffffffffffffffffffffffffffffffffffffff1614925050509695505050505050565b60008073ffffffffffffffffffffffffffffffffffffffff168373ffffffffffffffffffffffffffffffffffffffff1614151515610e3e57600080fd5b81600160003373ffffffffffffffffffffffffffffffffffffffff1673ffffffffffffffffffffffffffffffffffffffff16815260200190815260200160002060008573ffffffffffffffffffffffffffffffffffffffff1673ffffffffffffffffffffffffffffffffffffffff168152602001908152602001600020819055508273ffffffffffffffffffffffffffffffffffffffff163373ffffffffffffffffffffffffffffffffffffffff167f8c5be1e5ebec7d5bd14f71427d1e84f3dd0314c0f7b2291e5b200ac8c7c3b925846040518082815260200191505060405180910390a36001905092915050565b60125481565b6000600254905090565b60005b600c54610f4c611f0e565b1115610fdd57610f6e610416610f60611f3f565b611f6a90919063ffffffff16565b90506040805190810160405280828152602001601254815250600e6000610fa16001600c54611f9490919063ffffffff16565b81526020019081526020016000206000820151816000015560208201518160010155905050600c60008154809291906001019190505550610f41565b50565b6000600160008573ffffffffffffffffffffffffffffffffffffffff1673ffffffffffffffffffffffffffffffffffffffff16815260200190815260200160002060003373ffffffffffffffffffffffffffffffffffffffff1673ffffffffffffffffffffffffffffffffffffffff16815260200190815260200160002054821115151561106d57600080fd5b6110fc82600160008773ffffffffffffffffffffffffffffffffffffffff1673ffffffffffffffffffffffffffffffffffffffff16815260200190815260200160002060003373ffffffffffffffffffffffffffffffffffffffff1673ffffffffffffffffffffffffffffffffffffffff16815260200190815260200160002054611fb590919063ffffffff16565b600160008673ffffffffffffffffffffffffffffffffffffffff1673ffffffffffffffffffffffffffffffffffffffff16815260200190815260200160002060003373ffffffffffffffffffffffffffffffffffffffff1673ffffffffffffffffffffffffffffffffffffffff16815260200190815260200160002081905550611187848484611fd6565b600190509392505050565b60006111b06012546111a2610f34565b611fb590919063ffffffff16565b905090565b600881565b60008073ffffffffffffffffffffffffffffffffffffffff168373ffffffffffffffffffffffffffffffffffffffff16141515156111f757600080fd5b61128682600160003373ffffffffffffffffffffffffffffffffffffffff1673ffffffffffffffffffffffffffffffffffffffff16815260200190815260200160002060008673ffffffffffffffffffffffffffffffffffffffff1673ffffffffffffffffffffffffffffffffffffffff16815260200190815260200160002054611f9490919063ffffffff16565b600160003373ffffffffffffffffffffffffffffffffffffffff1673ffffffffffffffffffffffffffffffffffffffff16815260200190815260200160002060008573ffffffffffffffffffffffffffffffffffffffff1673ffffffffffffffffffffffffffffffffffffffff168152602001908152602001600020819055508273ffffffffffffffffffffffffffffffffffffffff163373ffffffffffffffffffffffffffffffffffffffff167f8c5be1e5ebec7d5bd14f71427d1e84f3dd0314c0f7b2291e5b200ac8c7c3b925600160003373ffffffffffffffffffffffffffffffffffffffff1673ffffffffffffffffffffffffffffffffffffffff16815260200190815260200160002060008773ffffffffffffffffffffffffffffffffffffffff1673ffffffffffffffffffffffffffffffffffffffff168152602001908152602001600020546040518082815260200191505060405180910390a36001905092915050565b60005b600b546113ff6121ef565b11156114ca5761141c600754601054611fb590919063ffffffff16565b90506040805190810160405280828152602001601254815250600d600061144f6001600b54611f9490919063ffffffff16565b815260200190815260200160002060008201518160000155602082015181600101559050506114b3600360009054906101000a900473ffffffffffffffffffffffffffffffffffffffff166114ae603284611f6a90919063ffffffff16565b612220565b600b600081548092919060010191905055506113f4565b50565b60085481565b600073ffffffffffffffffffffffffffffffffffffffff826040518082805190602001908083835b60208310151561152057805182526020820191506020810190506020830392506114fb565b6001836020036101000a038019825116818451168082178552505050505050905001915050604051809103902060019004169050919050565b60095481565b60008060008373ffffffffffffffffffffffffffffffffffffffff1673ffffffffffffffffffffffffffffffffffffffff168152602001908152602001600020549050919050565b6000801515600a6000856000191660001916815260200190815260200160002060009054906101000a900460ff1615151480156115ea57506115e982846118cb565b5b905092915050565b60116020528160005260406000208181548110151561160d57fe5b9060005260206000209060030201600091509150508060000154908060010154908060020154905083565b6040805190810160405280600381526020017f424858000000000000000000000000000000000000000000000000000000000081525081565b60008073ffffffffffffffffffffffffffffffffffffffff168373ffffffffffffffffffffffffffffffffffffffff16141515156116ae57600080fd5b61173d82600160003373ffffffffffffffffffffffffffffffffffffffff1673ffffffffffffffffffffffffffffffffffffffff16815260200190815260200160002060008673ffffffffffffffffffffffffffffffffffffffff1673ffffffffffffffffffffffffffffffffffffffff16815260200190815260200160002054611fb590919063ffffffff16565b600160003373ffffffffffffffffffffffffffffffffffffffff1673ffffffffffffffffffffffffffffffffffffffff16815260200190815260200160002060008573ffffffffffffffffffffffffffffffffffffffff1673ffffffffffffffffffffffffffffffffffffffff168152602001908152602001600020819055508273ffffffffffffffffffffffffffffffffffffffff163373ffffffffffffffffffffffffffffffffffffffff167f8c5be1e5ebec7d5bd14f71427d1e84f3dd0314c0f7b2291e5b200ac8c7c3b925600160003373ffffffffffffffffffffffffffffffffffffffff1673ffffffffffffffffffffffffffffffffffffffff16815260200190815260200160002060008773ffffffffffffffffffffffffffffffffffffffff1673ffffffffffffffffffffffffffffffffffffffff168152602001908152602001600020546040518082815260200191505060405180910390a36001905092915050565b60006118b5338484611fd6565b6001905092915050565b60006005544210905090565b60006118da836009548461235e565b905092915050565b60006119f6600287604051602001808273ffffffffffffffffffffffffffffffffffffffff1673ffffffffffffffffffffffffffffffffffffffff166c010000000000000000000000000281526014019150506040516020818303038152906040526040518082805190602001908083835b6020831015156119795780518252602082019150602081019050602083039250611954565b6001836020036101000a0380198251168184511680821785525050505050509050019150506020604051808303816000865af11580156119bd573d6000803e3d6000fd5b5050506040513d60208110156119d257600080fd5b81019080805190602001909291905050508585856119ef8a6114d3565b6000610c16565b905095945050505050565b600080848460405160200180836bffffffffffffffffffffffff19166bffffffffffffffffffffffff19168152601401828152602001925050506040516020818303038152906040526040518082805190602001908083835b602083101515611a7f5780518252602082019150602081019050602083039250611a5a565b6001836020036101000a03801982511681845116808217855250505050505090500191505060405180910390209050611ab881846115a7565b9150509392505050565b6000600160008473ffffffffffffffffffffffffffffffffffffffff1673ffffffffffffffffffffffffffffffffffffffff16815260200190815260200160002060008373ffffffffffffffffffffffffffffffffffffffff1673ffffffffffffffffffffffffffffffffffffffff16815260200190815260200160002054905092915050565b600080600080611b5a866000612501565b600190049250611b6b866020612501565b6001900491508415611d47576000600283811515611b8557fe5b0614611b92576003611b95565b60025b9050600360028285604051602001808360ff1660ff167f0100000000000000000000000000000000000000000000000000000000000000028152600101828152602001925050506040516020818303038152906040526040518082805190602001908083835b602083101515611c205780518252602082019150602081019050602083039250611bfb565b6001836020036101000a0380198251168184511680821785525050505050509050019150506020604051808303816000865af1158015611c64573d6000803e3d6000fd5b5050506040513d6020811015611c7957600080fd5b81019080805190602001909291905050506040516020018082600019166000191681526020019150506040516020818303038152906040526040518082805190602001908083835b602083101515611ce65780518252602082019150602081019050602083039250611cc1565b6001836020036101000a0380198251168184511680821785525050505050509050019150506020604051808303816000865af1158015611d2a573d6000803e3d6000fd5b505050604051516c01000000000000000000000000029350611eff565b6004905060036002828585604051602001808460ff1660ff167f010000000000000000000000000000000000000000000000000000000000000002815260010183815260200182815260200193505050506040516020818303038152906040526040518082805190602001908083835b602083101515611ddc5780518252602082019150602081019050602083039250611db7565b6001836020036101000a0380198251168184511680821785525050505050509050019150506020604051808303816000865af1158015611e20573d6000803e3d6000fd5b5050506040513d6020811015611e3557600080fd5b81019080805190602001909291905050506040516020018082600019166000191681526020019150506040516020818303038152906040526040518082805190602001908083835b602083101515611ea25780518252602082019150602081019050602083039250611e7d565b6001836020036101000a0380198251168184511680821785525050505050509050019150506020604051808303816000865af1158015611ee6573d6000803e3d6000fd5b505050604051516c010000000000000000000000000293505b50505092915050565b60075481565b6000611f3a620d2f00611f2c60045442611fb590919063ffffffff16565b611f6a90919063ffffffff16565b905090565b600080611f4a610f34565b9050601054611f57610f34565b1015611f635760105490505b8091505090565b600080600083111515611f7c57600080fd5b8284811515611f8757fe5b0490508091505092915050565b6000808284019050838110151515611fab57600080fd5b8091505092915050565b600080838311151515611fc757600080fd5b82840390508091505092915050565b6000808473ffffffffffffffffffffffffffffffffffffffff1673ffffffffffffffffffffffffffffffffffffffff16815260200190815260200160002054811115151561202357600080fd5b600073ffffffffffffffffffffffffffffffffffffffff168273ffffffffffffffffffffffffffffffffffffffff161415151561205f57600080fd5b6120b0816000808673ffffffffffffffffffffffffffffffffffffffff1673ffffffffffffffffffffffffffffffffffffffff16815260200190815260200160002054611fb590919063ffffffff16565b6000808573ffffffffffffffffffffffffffffffffffffffff1673ffffffffffffffffffffffffffffffffffffffff16815260200190815260200160002081905550612143816000808573ffffffffffffffffffffffffffffffffffffffff1673ffffffffffffffffffffffffffffffffffffffff16815260200190815260200160002054611f9490919063ffffffff16565b6000808473ffffffffffffffffffffffffffffffffffffffff1673ffffffffffffffffffffffffffffffffffffffff168152602001908152602001600020819055508173ffffffffffffffffffffffffffffffffffffffff168373ffffffffffffffffffffffffffffffffffffffff167fddf252ad1be2c89b69c2b068fc378daa952ba7f163c4a11628f55a4df523b3ef836040518082815260200191505060405180910390a3505050565b600061221b62093a8061220d60045442611fb590919063ffffffff16565b611f6a90919063ffffffff16565b905090565b60008273ffffffffffffffffffffffffffffffffffffffff161415151561224657600080fd5b61225b81600254611f9490919063ffffffff16565b6002819055506122b2816000808573ffffffffffffffffffffffffffffffffffffffff1673ffffffffffffffffffffffffffffffffffffffff16815260200190815260200160002054611f9490919063ffffffff16565b6000808473ffffffffffffffffffffffffffffffffffffffff1673ffffffffffffffffffffffffffffffffffffffff168152602001908152602001600020819055508173ffffffffffffffffffffffffffffffffffffffff16600073ffffffffffffffffffffffffffffffffffffffff167fddf252ad1be2c89b69c2b068fc378daa952ba7f163c4a11628f55a4df523b3ef836040518082815260200191505060405180910390a35050565b600080600080849250600091505b86518210156124ea57868281518110151561238357fe5b9060200190602002015190508060001916836000191610156124405782816040516020018083600019166000191681526020018260001916600019168152602001925050506040516020818303038152906040526040518082805190602001908083835b60208310151561240c57805182526020820191506020810190506020830392506123e7565b6001836020036101000a038019825116818451168082178552505050505050905001915050604051809103902092506124dd565b80836040516020018083600019166000191681526020018260001916600019168152602001925050506040516020818303038152906040526040518082805190602001908083835b6020831015156124ad5780518252602082019150602081019050602083039250612488565b6001836020036101000a038019825116818451168082178552505050505050905001915050604051809103902092505b818060010192505061236c565b856000191683600019161493505050509392505050565b60008060008090505b60208110156125d457600881028585830181518110151561252757fe5b9060200101517f010000000000000000000000000000000000000000000000000000000000000090047f0100000000000000000000000000000000000000000000000000000000000000027effffffffffffffffffffffffffffffffffffffffffffffffffffffffffffff19167fff0000000000000000000000000000000000000000000000000000000000000060010216600019169060020a900482189150808060010191505061250a565b8192505050929150505600a165627a7a723058209396df9b553126600f25b6465c95e94939617dc81fadd2fe95644670b211f8a40029",
  "source": "pragma solidity ^0.4.24;\n\nimport \"./GlobalsAndUtility.sol\";\nimport \"../node_modules/openzeppelin-solidity/contracts/cryptography/MerkleProof.sol\";\n\ncontract UTXOClaimValidation is GlobalsAndUtility {\n  /**\n   * @dev Extract a bytes32 subarray from an arbitrary length bytes array.\n   * @param _data Bytes array from which to extract the subarray\n   * @param _pos Starting position from which to copy\n   * @return Extracted length 32 byte array\n   */\n  function extract(\n    bytes _data, uint256 _pos\n  ) private pure returns (bytes32) {\n    bytes32 _result;\n    for (uint256 _i = 0; _i < 32; _i++) {\n      _result ^= (bytes32(0xff00000000000000000000000000000000000000000000000000000000000000) & _data[_i + _pos]) >> (_i * 8);\n    }\n    return _result;\n  }\n\n  \n  /**\n   * @dev Validate that a provided ECSDA signature was signed by the specified address\n   * @param _hash Hash of signed data\n   * @param _v v parameter of ECDSA signature\n   * @param _r r parameter of ECDSA signature\n   * @param _s s parameter of ECDSA signature\n   * @param _expected Address claiming to have created this signature\n   * @return Whether or not the signature was valid\n   */\n  function validateSignature(\n    bytes32 _hash,\n    uint8 _v,\n    bytes32 _r,\n    bytes32 _s,\n    address _expected,\n    bool _addPrefix\n  ) public pure returns (bool) {\n    bytes32 _formattedHash;\n\n    if (!_addPrefix) {\n      _formattedHash = _hash;\n    } else {\n      bytes memory _prefix = \"\\x19Ethereum Signed Message:\\n32\"; // accomodate geth method of signing data with prefixed message\n      _formattedHash = keccak256(abi.encodePacked(_prefix, _hash));\n    }\n\n    return ecrecover(\n      _formattedHash, \n      _v, \n      _r, \n      _s\n    ) == _expected;\n  }\n\n  /**\n   * @dev Validate that the hash of a provided address was signed by the ECDSA public key associated with the specified Ethereum address\n   * @param _addr Address signed\n   * @param _pubKey Uncompressed ECDSA public key claiming to have created this signature\n   * @param _v v parameter of ECDSA signature\n   * @param _r r parameter of ECDSA signature\n   * @param _s s parameter of ECDSA signature\n   * @return Whether or not the signature was valid\n   */\n  function ecdsaVerify(\n    address _addr, \n    bytes _pubKey, \n    uint8 _v, \n    bytes32 _r, \n    bytes32 _s\n  ) public pure returns (bool) {\n    return validateSignature(\n      sha256(abi.encodePacked(_addr)),  // hash\n      _v, \n      _r, \n      _s, \n      pubKeyToEthereumAddress(_pubKey), // expected\n      false // do not prepend message\n    );\n  }\n\n  /**\n   * @dev Convert an uncompressed ECDSA public key into an Ethereum address\n   * @param _pubKey Uncompressed ECDSA public key to convert\n   * @return Ethereum address generated from the ECDSA public key\n   */\n  function pubKeyToEthereumAddress(\n    bytes _pubKey\n  ) public pure returns (address) {\n    return address(\n      uint256(keccak256(_pubKey)) & 0x000FFFFFFFFFFFFFFFFFFFFFFFFFFFFFFFFFFFFFFFF\n    );\n  }\n\n  /**\n   * @dev Calculate the Bitcoin-style address associated with an ECDSA public key\n   * @param _pubKey ECDSA public key to convert\n   * @param _isCompressed Whether or not the Bitcoin address was generated from a compressed key\n   * @return Raw Bitcoin address (no base58-check encoding)\n   */\n  function pubKeyToBitcoinAddress(\n    bytes _pubKey, \n    bool _isCompressed\n  ) public pure returns (bytes20) {\n    /* Helpful references:\n       - https://en.bitcoin.it/wiki/Technical_background_of_version_1_Bitcoin_addresses \n       - https://github.com/cryptocoinjs/ecurve/blob/master/lib/point.js\n    */\n\n    /* x coordinate - first 32 bytes of public key */\n    uint256 _x = uint256(extract(_pubKey, 0));\n    /* y coordinate - second 32 bytes of public key */\n    uint256 _y = uint256(extract(_pubKey, 32)); \n    uint8 _startingByte;\n    if (_isCompressed) {\n      /* Hash the compressed public key format. */\n      _startingByte = _y % 2 == 0 ? 0x02 : 0x03;\n      return ripemd160(\n        abi.encodePacked(sha256(abi.encodePacked(_startingByte, _x)))\n      );\n    } else {\n      /* Hash the uncompressed public key format. */\n      _startingByte = 0x04;\n      return ripemd160(\n        abi.encodePacked(sha256(abi.encodePacked(_startingByte, _x, _y)))\n      );\n    }\n  }\n\n  /**\n   * @dev Verify a Merkle proof using the UTXO Merkle tree\n   * @param _proof Generated Merkle tree proof\n   * @param _merkleLeafHash Hash asserted to be present in the Merkle tree\n   * @return Whether or not the proof is valid\n   */\n  function verifyProof(\n    bytes32[] _proof, \n    bytes32 _merkleLeafHash\n  ) public view returns (bool) {\n    return MerkleProof.verify(_proof, rootUtxoMerkleTreeHash, _merkleLeafHash);\n  }\n\n  /**\n   * @dev PUBLIC FACING: Verify that a UTXO with the specified Merkle leaf hash can be redeemed\n   * @param _merkleLeafHash Merkle tree hash of the UTXO to be checked\n   * @param _proof Merkle tree proof\n   * @return Whether or not the UTXO with the specified hash can be redeemed\n   */\n  function canRedeemUtxoHash(\n    bytes32 _merkleLeafHash, \n    bytes32[] _proof\n  ) public view returns (bool) {\n    /* Check that the UTXO has not yet been redeemed and that it exists in the Merkle tree. */\n    return(\n      (redeemedUTXOs[_merkleLeafHash] == false) && \n      verifyProof(_proof, _merkleLeafHash)\n    );\n  }\n\n  /**\n   * @dev PUBLIC FACING: Convenience helper function to check if a UTXO can be redeemed\n   * @param _originalAddress Raw Bitcoin address (no base58-check encoding)\n   * @param _satoshis Amount of UTXO in satoshis\n   * @param _proof Merkle tree proof\n   * @return Whether or not the UTXO can be redeemed\n   */\n  function canRedeemUtxo(\n    bytes20 _originalAddress,\n    uint256 _satoshis,\n    bytes32[] _proof\n  ) public view returns (bool) {\n    /* Calculate the hash of the Merkle leaf associated with this UTXO. */\n    bytes32 merkleLeafHash = keccak256(\n      abi.encodePacked(\n        _originalAddress, \n        _satoshis\n      )\n    );\n  \n    /* Verify the proof. */\n    return canRedeemUtxoHash(merkleLeafHash, _proof);\n  }\n}",
  "sourcePath": "/Users/mesquka/Git/Bitcoin Hex/contract/contracts/UTXOClaimValidation.sol",
  "compiler": {
    "name": "solc",
    "version": "0.4.24+commit.e67f0147.Emscripten.clang"
  },
  "schemaVersion": "2.0.1",
  "updatedAt": "2018-10-31T03:00:35.689Z"
}