{
  "contractName": "UTXORedeemableToken",
  "abi": [
    {
      "constant": true,
      "inputs": [],
      "name": "maximumRedeemable",
      "outputs": [
        {
          "name": "",
          "type": "uint256"
        }
      ],
      "payable": false,
      "stateMutability": "view",
      "type": "function"
    },
    {
      "constant": false,
      "inputs": [
        {
          "name": "_spender",
          "type": "address"
        },
        {
          "name": "_value",
          "type": "uint256"
        }
      ],
      "name": "approve",
      "outputs": [
        {
          "name": "",
          "type": "bool"
        }
      ],
      "payable": false,
      "stateMutability": "nonpayable",
      "type": "function"
    },
    {
      "constant": true,
      "inputs": [],
      "name": "totalSupply",
      "outputs": [
        {
          "name": "",
          "type": "uint256"
        }
      ],
      "payable": false,
      "stateMutability": "view",
      "type": "function"
    },
    {
      "constant": false,
      "inputs": [
        {
          "name": "_from",
          "type": "address"
        },
        {
          "name": "_to",
          "type": "address"
        },
        {
          "name": "_value",
          "type": "uint256"
        }
      ],
      "name": "transferFrom",
      "outputs": [
        {
          "name": "",
          "type": "bool"
        }
      ],
      "payable": false,
      "stateMutability": "nonpayable",
      "type": "function"
    },
    {
      "constant": false,
      "inputs": [
        {
          "name": "_spender",
          "type": "address"
        },
        {
          "name": "_subtractedValue",
          "type": "uint256"
        }
      ],
      "name": "decreaseApproval",
      "outputs": [
        {
          "name": "",
          "type": "bool"
        }
      ],
      "payable": false,
      "stateMutability": "nonpayable",
      "type": "function"
    },
    {
      "constant": true,
      "inputs": [
        {
          "name": "_owner",
          "type": "address"
        }
      ],
      "name": "balanceOf",
      "outputs": [
        {
          "name": "",
          "type": "uint256"
        }
      ],
      "payable": false,
      "stateMutability": "view",
      "type": "function"
    },
    {
      "constant": true,
      "inputs": [],
      "name": "launchTime",
      "outputs": [
        {
          "name": "",
          "type": "uint256"
        }
      ],
      "payable": false,
      "stateMutability": "view",
      "type": "function"
    },
    {
      "constant": true,
      "inputs": [],
      "name": "origin",
      "outputs": [
        {
          "name": "",
          "type": "address"
        }
      ],
      "payable": false,
      "stateMutability": "view",
      "type": "function"
    },
    {
      "constant": true,
      "inputs": [],
      "name": "lastUpdatedWeek",
      "outputs": [
        {
          "name": "",
          "type": "uint256"
        }
      ],
      "payable": false,
      "stateMutability": "view",
      "type": "function"
    },
    {
      "constant": false,
      "inputs": [
        {
          "name": "_to",
          "type": "address"
        },
        {
          "name": "_value",
          "type": "uint256"
        }
      ],
      "name": "transfer",
      "outputs": [
        {
          "name": "",
          "type": "bool"
        }
      ],
      "payable": false,
      "stateMutability": "nonpayable",
      "type": "function"
    },
    {
      "constant": false,
      "inputs": [
        {
          "name": "_spender",
          "type": "address"
        },
        {
          "name": "_addedValue",
          "type": "uint256"
        }
      ],
      "name": "increaseApproval",
      "outputs": [
        {
          "name": "",
          "type": "bool"
        }
      ],
      "payable": false,
      "stateMutability": "nonpayable",
      "type": "function"
    },
    {
      "constant": true,
      "inputs": [
        {
          "name": "_owner",
          "type": "address"
        },
        {
          "name": "_spender",
          "type": "address"
        }
      ],
      "name": "allowance",
      "outputs": [
        {
          "name": "",
          "type": "uint256"
        }
      ],
      "payable": false,
      "stateMutability": "view",
      "type": "function"
    },
    {
      "constant": true,
      "inputs": [],
      "name": "rootUTXOMerkleTreeHash",
      "outputs": [
        {
          "name": "",
          "type": "bytes32"
        }
      ],
      "payable": false,
      "stateMutability": "view",
      "type": "function"
    },
    {
      "constant": true,
      "inputs": [],
      "name": "totalRedeemed",
      "outputs": [
        {
          "name": "",
          "type": "uint256"
        }
      ],
      "payable": false,
      "stateMutability": "view",
      "type": "function"
    },
    {
      "anonymous": false,
      "inputs": [
        {
          "indexed": true,
          "name": "owner",
          "type": "address"
        },
        {
          "indexed": true,
          "name": "spender",
          "type": "address"
        },
        {
          "indexed": false,
          "name": "value",
          "type": "uint256"
        }
      ],
      "name": "Approval",
      "type": "event"
    },
    {
      "anonymous": false,
      "inputs": [
        {
          "indexed": true,
          "name": "from",
          "type": "address"
        },
        {
          "indexed": true,
          "name": "to",
          "type": "address"
        },
        {
          "indexed": false,
          "name": "value",
          "type": "uint256"
        }
      ],
      "name": "Transfer",
      "type": "event"
    },
    {
      "constant": false,
      "inputs": [],
      "name": "storeWeekUnclaimed",
      "outputs": [],
      "payable": false,
      "stateMutability": "nonpayable",
      "type": "function"
    },
    {
      "constant": true,
      "inputs": [
        {
          "name": "hash",
          "type": "bytes32"
        },
        {
          "name": "v",
          "type": "uint8"
        },
        {
          "name": "r",
          "type": "bytes32"
        },
        {
          "name": "s",
          "type": "bytes32"
        },
        {
          "name": "expected",
          "type": "address"
        },
        {
          "name": "addPrefix",
          "type": "bool"
        }
      ],
      "name": "validateSignature",
      "outputs": [
        {
          "name": "",
          "type": "bool"
        }
      ],
      "payable": false,
      "stateMutability": "pure",
      "type": "function"
    },
    {
      "constant": true,
      "inputs": [
        {
          "name": "addr",
          "type": "address"
        },
        {
          "name": "pubKey",
          "type": "bytes"
        },
        {
          "name": "v",
          "type": "uint8"
        },
        {
          "name": "r",
          "type": "bytes32"
        },
        {
          "name": "s",
          "type": "bytes32"
        }
      ],
      "name": "ecdsaVerify",
      "outputs": [
        {
          "name": "",
          "type": "bool"
        }
      ],
      "payable": false,
      "stateMutability": "pure",
      "type": "function"
    },
    {
      "constant": true,
      "inputs": [
        {
          "name": "pubKey",
          "type": "bytes"
        }
      ],
      "name": "pubKeyToEthereumAddress",
      "outputs": [
        {
          "name": "",
          "type": "address"
        }
      ],
      "payable": false,
      "stateMutability": "pure",
      "type": "function"
    },
    {
      "constant": true,
      "inputs": [
        {
          "name": "pubKey",
          "type": "bytes"
        },
        {
          "name": "isCompressed",
          "type": "bool"
        }
      ],
      "name": "pubKeyToBitcoinAddress",
      "outputs": [
        {
          "name": "",
          "type": "bytes20"
        }
      ],
      "payable": false,
      "stateMutability": "pure",
      "type": "function"
    },
    {
      "constant": true,
      "inputs": [
        {
          "name": "proof",
          "type": "bytes32[]"
        },
        {
          "name": "merkleLeafHash",
          "type": "bytes32"
        }
      ],
      "name": "verifyProof",
      "outputs": [
        {
          "name": "",
          "type": "bool"
        }
      ],
      "payable": false,
      "stateMutability": "view",
      "type": "function"
    },
    {
      "constant": true,
      "inputs": [
        {
          "name": "merkleLeafHash",
          "type": "bytes32"
        },
        {
          "name": "proof",
          "type": "bytes32[]"
        }
      ],
      "name": "canRedeemUTXOHash",
      "outputs": [
        {
          "name": "",
          "type": "bool"
        }
      ],
      "payable": false,
      "stateMutability": "view",
      "type": "function"
    },
    {
      "constant": true,
      "inputs": [
        {
          "name": "txid",
          "type": "bytes32"
        },
        {
          "name": "originalAddress",
          "type": "bytes20"
        },
        {
          "name": "outputIndex",
          "type": "uint8"
        },
        {
          "name": "satoshis",
          "type": "uint256"
        },
        {
          "name": "proof",
          "type": "bytes32[]"
        }
      ],
      "name": "canRedeemUTXO",
      "outputs": [
        {
          "name": "",
          "type": "bool"
        }
      ],
      "payable": false,
      "stateMutability": "view",
      "type": "function"
    },
    {
      "constant": false,
      "inputs": [
        {
          "name": "satoshis",
          "type": "uint256"
        },
        {
          "name": "proof",
          "type": "bytes32[]"
        },
        {
          "name": "pubKey",
          "type": "bytes"
        },
        {
          "name": "isCompressed",
          "type": "bool"
        },
        {
          "name": "v",
          "type": "uint8"
        },
        {
          "name": "r",
          "type": "bytes32"
        },
        {
          "name": "s",
          "type": "bytes32"
        }
      ],
      "name": "redeemUTXO",
      "outputs": [
        {
          "name": "tokensRedeemed",
          "type": "uint256"
        }
      ],
      "payable": false,
      "stateMutability": "nonpayable",
      "type": "function"
    },
    {
      "constant": false,
      "inputs": [
        {
          "name": "satoshis",
          "type": "uint256"
        },
        {
          "name": "proof",
          "type": "bytes32[]"
        },
        {
          "name": "pubKey",
          "type": "bytes"
        },
        {
          "name": "isCompressed",
          "type": "bool"
        },
        {
          "name": "v",
          "type": "uint8"
        },
        {
          "name": "r",
          "type": "bytes32"
        },
        {
          "name": "s",
          "type": "bytes32"
        },
        {
          "name": "referrer",
          "type": "address"
        }
      ],
      "name": "redeemUTXO",
      "outputs": [
        {
          "name": "tokensRedeemed",
          "type": "uint256"
        }
      ],
      "payable": false,
      "stateMutability": "nonpayable",
      "type": "function"
    }
  ],
  "bytecode": "0x60806040526000600555600060095534801561001a57600080fd5b50612b998061002a6000396000f30060806040526004361061013e576000357c0100000000000000000000000000000000000000000000000000000000900463ffffffff1680630867c0ad1461014357806308b4312b146101e1578063095ea7b31461020c57806318160ddd1461027157806323b872dd1461029c578063427da275146103215780634ecd81b3146104205780635418796c146104e6578063661884631461058f57806370a08231146105f4578063790ca4131461064b5780637f761472146106765780639283032c14610702578063938b5f32146107195780639d65b89214610770578063a9059cbb1461079b578063b80ac7df14610800578063ca193e4d1461088c578063ce267b5514610948578063d73dd62314610a12578063dd62ed3e14610a77578063e073ef6914610aee578063e6997f6d14610b95578063f35dad4014610bc8575b600080fd5b34801561014f57600080fd5b506101c76004803603810190808035600019169060200190929190803560ff16906020019092919080356000191690602001909291908035600019169060200190929190803573ffffffffffffffffffffffffffffffffffffffff169060200190929190803515159060200190929190505050610bf3565b604051808215151515815260200191505060405180910390f35b3480156101ed57600080fd5b506101f6610dde565b6040518082815260200191505060405180910390f35b34801561021857600080fd5b50610257600480360381019080803573ffffffffffffffffffffffffffffffffffffffff16906020019092919080359060200190929190505050610de4565b604051808215151515815260200191505060405180910390f35b34801561027d57600080fd5b50610286610ed6565b6040518082815260200191505060405180910390f35b3480156102a857600080fd5b50610307600480360381019080803573ffffffffffffffffffffffffffffffffffffffff169060200190929190803573ffffffffffffffffffffffffffffffffffffffff16906020019092919080359060200190929190505050610ee0565b604051808215151515815260200191505060405180910390f35b34801561032d57600080fd5b5061040a6004803603810190808035906020019092919080359060200190820180359060200190808060200260200160405190810160405280939291908181526020018383602002808284378201915050505050509192919290803590602001908201803590602001908080601f0160208091040260200160405190810160405280939291908181526020018383808284378201915050505050509192919290803515159060200190929190803560ff1690602001909291908035600019169060200190929190803560001916906020019092919050505061129a565b6040518082815260200191505060405180910390f35b34801561042c57600080fd5b506104d060048036038101908080359060200190929190803590602001908201803590602001919091929391929390803590602001908201803590602001919091929391929390803515159060200190929190803560ff16906020019092919080356000191690602001909291908035600019169060200190929190803573ffffffffffffffffffffffffffffffffffffffff169060200190929190505050611565565b6040518082815260200191505060405180910390f35b3480156104f257600080fd5b5061054d600480360381019080803590602001908201803590602001908080601f01602080910402602001604051908101604052809392919081815260200183838082843782019150505050505091929192905050506116be565b604051808273ffffffffffffffffffffffffffffffffffffffff1673ffffffffffffffffffffffffffffffffffffffff16815260200191505060405180910390f35b34801561059b57600080fd5b506105da600480360381019080803573ffffffffffffffffffffffffffffffffffffffff16906020019092919080359060200190929190505050611744565b604051808215151515815260200191505060405180910390f35b34801561060057600080fd5b50610635600480360381019080803573ffffffffffffffffffffffffffffffffffffffff1690602001909291905050506119d5565b6040518082815260200191505060405180910390f35b34801561065757600080fd5b50610660611a1d565b6040518082815260200191505060405180910390f35b34801561068257600080fd5b506106e8600480360381019080803560001916906020019092919080359060200190820180359060200190808060200260200160405190810160405280939291908181526020018383602002808284378201915050505050509192919290505050611a23565b604051808215151515815260200191505060405180910390f35b34801561070e57600080fd5b50610717611a6e565b005b34801561072557600080fd5b5061072e611b08565b604051808273ffffffffffffffffffffffffffffffffffffffff1673ffffffffffffffffffffffffffffffffffffffff16815260200191505060405180910390f35b34801561077c57600080fd5b50610785611b2e565b6040518082815260200191505060405180910390f35b3480156107a757600080fd5b506107e6600480360381019080803573ffffffffffffffffffffffffffffffffffffffff16906020019092919080359060200190929190505050611b34565b604051808215151515815260200191505060405180910390f35b34801561080c57600080fd5b50610872600480360381019080803590602001908201803590602001908080602002602001604051908101604052809392919081815260200183836020028082843782019150505050505091929192908035600019169060200190929190505050611d53565b604051808215151515815260200191505060405180910390f35b34801561089857600080fd5b5061092e600480360381019080803560001916906020019092919080356bffffffffffffffffffffffff19169060200190929190803560ff1690602001909291908035906020019092919080359060200190820180359060200190808060200260200160405190810160405280939291908181526020018383602002808284378201915050505050509192919290505050611d6a565b604051808215151515815260200191505060405180910390f35b34801561095457600080fd5b506109f8600480360381019080803573ffffffffffffffffffffffffffffffffffffffff169060200190929190803590602001908201803590602001908080601f0160208091040260200160405190810160405280939291908181526020018383808284378201915050505050509192919290803560ff16906020019092919080356000191690602001909291908035600019169060200190929190505050611e6d565b604051808215151515815260200191505060405180910390f35b348015610a1e57600080fd5b50610a5d600480360381019080803573ffffffffffffffffffffffffffffffffffffffff16906020019092919080359060200190929190505050611f8c565b604051808215151515815260200191505060405180910390f35b348015610a8357600080fd5b50610ad8600480360381019080803573ffffffffffffffffffffffffffffffffffffffff169060200190929190803573ffffffffffffffffffffffffffffffffffffffff169060200190929190505050612188565b6040518082815260200191505060405180910390f35b348015610afa57600080fd5b50610b61600480360381019080803590602001908201803590602001908080601f016020809104026020016040519081016040528093929190818152602001838380828437820191505050505050919291929080351515906020019092919050505061220f565b60405180826bffffffffffffffffffffffff19166bffffffffffffffffffffffff1916815260200191505060405180910390f35b348015610ba157600080fd5b50610baa6125ce565b60405180826000191660001916815260200191505060405180910390f35b348015610bd457600080fd5b50610bdd6125d4565b6040518082815260200191505060405180910390f35b6000806060831515610c0757889150610d21565b6040805190810160405280601c81526020017f19457468657265756d205369676e6564204d6573736167653a0a333200000000815250905080896040516020018083805190602001908083835b602083101515610c795780518252602082019150602081019050602083039250610c54565b6001836020036101000a0380198251168184511680821785525050505050509050018260001916600019168152602001925050506040516020818303038152906040526040518082805190602001908083835b602083101515610cf15780518252602082019150602081019050602083039250610ccc565b6001836020036101000a038019825116818451168082178552505050505050905001915050604051809103902091505b8473ffffffffffffffffffffffffffffffffffffffff166001838a8a8a604051600081526020016040526040518085600019166000191681526020018460ff1660ff1681526020018360001916600019168152602001826000191660001916815260200194505050505060206040516020810390808403906000865af1158015610daf573d6000803e3d6000fd5b5050506020604051035173ffffffffffffffffffffffffffffffffffffffff1614925050509695505050505050565b600a5481565b600081600260003373ffffffffffffffffffffffffffffffffffffffff1673ffffffffffffffffffffffffffffffffffffffff16815260200190815260200160002060008573ffffffffffffffffffffffffffffffffffffffff1673ffffffffffffffffffffffffffffffffffffffff168152602001908152602001600020819055508273ffffffffffffffffffffffffffffffffffffffff163373ffffffffffffffffffffffffffffffffffffffff167f8c5be1e5ebec7d5bd14f71427d1e84f3dd0314c0f7b2291e5b200ac8c7c3b925846040518082815260200191505060405180910390a36001905092915050565b6000600154905090565b60008073ffffffffffffffffffffffffffffffffffffffff168373ffffffffffffffffffffffffffffffffffffffff1614151515610f1d57600080fd5b6000808573ffffffffffffffffffffffffffffffffffffffff1673ffffffffffffffffffffffffffffffffffffffff168152602001908152602001600020548211151515610f6a57600080fd5b600260008573ffffffffffffffffffffffffffffffffffffffff1673ffffffffffffffffffffffffffffffffffffffff16815260200190815260200160002060003373ffffffffffffffffffffffffffffffffffffffff1673ffffffffffffffffffffffffffffffffffffffff168152602001908152602001600020548211151515610ff557600080fd5b611046826000808773ffffffffffffffffffffffffffffffffffffffff1673ffffffffffffffffffffffffffffffffffffffff168152602001908152602001600020546125da90919063ffffffff16565b6000808673ffffffffffffffffffffffffffffffffffffffff1673ffffffffffffffffffffffffffffffffffffffff168152602001908152602001600020819055506110d9826000808673ffffffffffffffffffffffffffffffffffffffff1673ffffffffffffffffffffffffffffffffffffffff168152602001908152602001600020546125f390919063ffffffff16565b6000808573ffffffffffffffffffffffffffffffffffffffff1673ffffffffffffffffffffffffffffffffffffffff168152602001908152602001600020819055506111aa82600260008773ffffffffffffffffffffffffffffffffffffffff1673ffffffffffffffffffffffffffffffffffffffff16815260200190815260200160002060003373ffffffffffffffffffffffffffffffffffffffff1673ffffffffffffffffffffffffffffffffffffffff168152602001908152602001600020546125da90919063ffffffff16565b600260008673ffffffffffffffffffffffffffffffffffffffff1673ffffffffffffffffffffffffffffffffffffffff16815260200190815260200160002060003373ffffffffffffffffffffffffffffffffffffffff1673ffffffffffffffffffffffffffffffffffffffff168152602001908152602001600020819055508273ffffffffffffffffffffffffffffffffffffffff168473ffffffffffffffffffffffffffffffffffffffff167fddf252ad1be2c89b69c2b068fc378daa952ba7f163c4a11628f55a4df523b3ef846040518082815260200191505060405180910390a3600190509392505050565b60008060006112a7611a6e565b60326112d362093a806112c5600454426125da90919063ffffffff16565b61260f90919063ffffffff16565b1015156112df57600080fd5b6112e9888861220f565b9150818a60405160200180836bffffffffffffffffffffffff19166bffffffffffffffffffffffff19168152601401828152602001925050506040516020818303038152906040526040518082805190602001908083835b6020831015156113665780518252602082019150602081019050602083039250611341565b6001836020036101000a0380198251168184511680821785525050505050509050019150506040518091039020905061139f818a611a23565b15156113aa57600080fd5b6113b73389888888611e6d565b15156113c257600080fd5b600160086000836000191660001916815260200190815260200160002060006101000a81548160ff0219169083151502179055506113ff8a612625565b9250600a54611419846009546125f390919063ffffffff16565b1115151561142657600080fd5b61143b836009546125f390919063ffffffff16565b600981905550611492836000803373ffffffffffffffffffffffffffffffffffffffff1673ffffffffffffffffffffffffffffffffffffffff168152602001908152602001600020546125f390919063ffffffff16565b6000803373ffffffffffffffffffffffffffffffffffffffff1673ffffffffffffffffffffffffffffffffffffffff168152602001908152602001600020819055506114e9836001546125f390919063ffffffff16565b6001819055503373ffffffffffffffffffffffffffffffffffffffff16600073ffffffffffffffffffffffffffffffffffffffff167fddf252ad1be2c89b69c2b068fc378daa952ba7f163c4a11628f55a4df523b3ef856040518082815260200191505060405180910390a38292505050979650505050505050565b60006115d78b8b8b808060200260200160405190810160405280939291908181526020018383602002808284378201915050505050508a8a8080601f0160208091040260200160405190810160405280939291908181526020018383808284378201915050505050508989898961129a565b905061163d6115f060148361260f90919063ffffffff16565b6000808573ffffffffffffffffffffffffffffffffffffffff1673ffffffffffffffffffffffffffffffffffffffff168152602001908152602001600020546125f390919063ffffffff16565b6000808473ffffffffffffffffffffffffffffffffffffffff1673ffffffffffffffffffffffffffffffffffffffff168152602001908152602001600020819055506116a761169660148361260f90919063ffffffff16565b6001546125f390919063ffffffff16565b6001819055508090509a9950505050505050505050565b600073ffffffffffffffffffffffffffffffffffffffff826040518082805190602001908083835b60208310151561170b57805182526020820191506020810190506020830392506116e6565b6001836020036101000a038019825116818451168082178552505050505050905001915050604051809103902060019004169050919050565b600080600260003373ffffffffffffffffffffffffffffffffffffffff1673ffffffffffffffffffffffffffffffffffffffff16815260200190815260200160002060008573ffffffffffffffffffffffffffffffffffffffff1673ffffffffffffffffffffffffffffffffffffffff16815260200190815260200160002054905080831115611855576000600260003373ffffffffffffffffffffffffffffffffffffffff1673ffffffffffffffffffffffffffffffffffffffff16815260200190815260200160002060008673ffffffffffffffffffffffffffffffffffffffff1673ffffffffffffffffffffffffffffffffffffffff168152602001908152602001600020819055506118e9565b61186883826125da90919063ffffffff16565b600260003373ffffffffffffffffffffffffffffffffffffffff1673ffffffffffffffffffffffffffffffffffffffff16815260200190815260200160002060008673ffffffffffffffffffffffffffffffffffffffff1673ffffffffffffffffffffffffffffffffffffffff168152602001908152602001600020819055505b8373ffffffffffffffffffffffffffffffffffffffff163373ffffffffffffffffffffffffffffffffffffffff167f8c5be1e5ebec7d5bd14f71427d1e84f3dd0314c0f7b2291e5b200ac8c7c3b925600260003373ffffffffffffffffffffffffffffffffffffffff1673ffffffffffffffffffffffffffffffffffffffff16815260200190815260200160002060008873ffffffffffffffffffffffffffffffffffffffff1673ffffffffffffffffffffffffffffffffffffffff168152602001908152602001600020546040518082815260200191505060405180910390a3600191505092915050565b60008060008373ffffffffffffffffffffffffffffffffffffffff1673ffffffffffffffffffffffffffffffffffffffff168152602001908152602001600020549050919050565b60045481565b600080151560086000856000191660001916815260200190815260200160002060009054906101000a900460ff161515148015611a665750611a658284611d53565b5b905092915050565b600080611a9b62093a80611a8d600454426125da90919063ffffffff16565b61260f90919063ffffffff16565b9150603382108015611aae575060055482115b15611b0457611aca600954600a546125da90919063ffffffff16565b9050602060405190810160405280828152506006600084815260200190815260200160002060008201518160000155905050816005819055505b5050565b600360009054906101000a900473ffffffffffffffffffffffffffffffffffffffff1681565b60055481565b60008073ffffffffffffffffffffffffffffffffffffffff168373ffffffffffffffffffffffffffffffffffffffff1614151515611b7157600080fd5b6000803373ffffffffffffffffffffffffffffffffffffffff1673ffffffffffffffffffffffffffffffffffffffff168152602001908152602001600020548211151515611bbe57600080fd5b611c0f826000803373ffffffffffffffffffffffffffffffffffffffff1673ffffffffffffffffffffffffffffffffffffffff168152602001908152602001600020546125da90919063ffffffff16565b6000803373ffffffffffffffffffffffffffffffffffffffff1673ffffffffffffffffffffffffffffffffffffffff16815260200190815260200160002081905550611ca2826000808673ffffffffffffffffffffffffffffffffffffffff1673ffffffffffffffffffffffffffffffffffffffff168152602001908152602001600020546125f390919063ffffffff16565b6000808573ffffffffffffffffffffffffffffffffffffffff1673ffffffffffffffffffffffffffffffffffffffff168152602001908152602001600020819055508273ffffffffffffffffffffffffffffffffffffffff163373ffffffffffffffffffffffffffffffffffffffff167fddf252ad1be2c89b69c2b068fc378daa952ba7f163c4a11628f55a4df523b3ef846040518082815260200191505060405180910390a36001905092915050565b6000611d62836007548461298e565b905092915050565b60008086868686604051602001808560001916600019168152602001846bffffffffffffffffffffffff19166bffffffffffffffffffffffff191681526014018360ff1660ff167f01000000000000000000000000000000000000000000000000000000000000000281526001018281526020019450505050506040516020818303038152906040526040518082805190602001908083835b602083101515611e285780518252602082019150602081019050602083039250611e03565b6001836020036101000a03801982511681845116808217855250505050505090500191505060405180910390209050611e618184611a23565b91505095945050505050565b6000611f81600287604051602001808273ffffffffffffffffffffffffffffffffffffffff1673ffffffffffffffffffffffffffffffffffffffff166c010000000000000000000000000281526014019150506040516020818303038152906040526040518082805190602001908083835b602083101515611f045780518252602082019150602081019050602083039250611edf565b6001836020036101000a0380198251168184511680821785525050505050509050019150506020604051808303816000865af1158015611f48573d6000803e3d6000fd5b5050506040513d6020811015611f5d57600080fd5b8101908080519060200190929190505050858585611f7a8a6116be565b6000610bf3565b905095945050505050565b600061201d82600260003373ffffffffffffffffffffffffffffffffffffffff1673ffffffffffffffffffffffffffffffffffffffff16815260200190815260200160002060008673ffffffffffffffffffffffffffffffffffffffff1673ffffffffffffffffffffffffffffffffffffffff168152602001908152602001600020546125f390919063ffffffff16565b600260003373ffffffffffffffffffffffffffffffffffffffff1673ffffffffffffffffffffffffffffffffffffffff16815260200190815260200160002060008573ffffffffffffffffffffffffffffffffffffffff1673ffffffffffffffffffffffffffffffffffffffff168152602001908152602001600020819055508273ffffffffffffffffffffffffffffffffffffffff163373ffffffffffffffffffffffffffffffffffffffff167f8c5be1e5ebec7d5bd14f71427d1e84f3dd0314c0f7b2291e5b200ac8c7c3b925600260003373ffffffffffffffffffffffffffffffffffffffff1673ffffffffffffffffffffffffffffffffffffffff16815260200190815260200160002060008773ffffffffffffffffffffffffffffffffffffffff1673ffffffffffffffffffffffffffffffffffffffff168152602001908152602001600020546040518082815260200191505060405180910390a36001905092915050565b6000600260008473ffffffffffffffffffffffffffffffffffffffff1673ffffffffffffffffffffffffffffffffffffffff16815260200190815260200160002060008373ffffffffffffffffffffffffffffffffffffffff1673ffffffffffffffffffffffffffffffffffffffff16815260200190815260200160002054905092915050565b600080600080612220866000612a59565b600190049250612231866020612a59565b600190049150841561240d57600060028381151561224b57fe5b061461225857600361225b565b60025b9050600360028285604051602001808360ff1660ff167f0100000000000000000000000000000000000000000000000000000000000000028152600101828152602001925050506040516020818303038152906040526040518082805190602001908083835b6020831015156122e657805182526020820191506020810190506020830392506122c1565b6001836020036101000a0380198251168184511680821785525050505050509050019150506020604051808303816000865af115801561232a573d6000803e3d6000fd5b5050506040513d602081101561233f57600080fd5b81019080805190602001909291905050506040516020018082600019166000191681526020019150506040516020818303038152906040526040518082805190602001908083835b6020831015156123ac5780518252602082019150602081019050602083039250612387565b6001836020036101000a0380198251168184511680821785525050505050509050019150506020604051808303816000865af11580156123f0573d6000803e3d6000fd5b505050604051516c010000000000000000000000000293506125c5565b6004905060036002828585604051602001808460ff1660ff167f010000000000000000000000000000000000000000000000000000000000000002815260010183815260200182815260200193505050506040516020818303038152906040526040518082805190602001908083835b6020831015156124a2578051825260208201915060208101905060208303925061247d565b6001836020036101000a0380198251168184511680821785525050505050509050019150506020604051808303816000865af11580156124e6573d6000803e3d6000fd5b5050506040513d60208110156124fb57600080fd5b81019080805190602001909291905050506040516020018082600019166000191681526020019150506040516020818303038152906040526040518082805190602001908083835b6020831015156125685780518252602082019150602081019050602083039250612543565b6001836020036101000a0380198251168184511680821785525050505050509050019150506020604051808303816000865af11580156125ac573d6000803e3d6000fd5b505050604051516c010000000000000000000000000293505b50505092915050565b60075481565b60095481565b60008282111515156125e857fe5b818303905092915050565b6000818301905082811015151561260657fe5b80905092915050565b6000818381151561261c57fe5b04905092915050565b600080600080600085935061265a62093a8061264c600454426125da90919063ffffffff16565b61260f90919063ffffffff16565b9250612683612673600285612b3590919063ffffffff16565b60646125da90919063ffffffff16565b9150683635c9adc5dea0000084111561271c5769152d02c7e14af6800000841015612704576126fd640ba43b74006126ef60096126e160026126d364174876e8008b6125da90919063ffffffff16565b612b3590919063ffffffff16565b61260f90919063ffffffff16565b6125f390919063ffffffff16565b935061271b565b61271860048561260f90919063ffffffff16565b93505b5b612759606461274b6402540be40061273d8689612b3590919063ffffffff16565b612b3590919063ffffffff16565b61260f90919063ffffffff16565b9050602d83111561276c57809450612985565b60208311156127a35761279c606461278e606584612b3590919063ffffffff16565b61260f90919063ffffffff16565b9450612985565b60188311156127da576127d360646127c5606684612b3590919063ffffffff16565b61260f90919063ffffffff16565b9450612985565b60128311156128115761280a60646127fc606784612b3590919063ffffffff16565b61260f90919063ffffffff16565b9450612985565b600e831115612848576128416064612833606884612b3590919063ffffffff16565b61260f90919063ffffffff16565b9450612985565b600a83111561287f57612878606461286a606984612b3590919063ffffffff16565b61260f90919063ffffffff16565b9450612985565b60078311156128b6576128af60646128a1606a84612b3590919063ffffffff16565b61260f90919063ffffffff16565b9450612985565b60058311156128ed576128e660646128d8606b84612b3590919063ffffffff16565b61260f90919063ffffffff16565b9450612985565b60038311156129245761291d606461290f606c84612b3590919063ffffffff16565b61260f90919063ffffffff16565b9450612985565b600183111561295b576129546064612946606d84612b3590919063ffffffff16565b61260f90919063ffffffff16565b9450612985565b6129826064612974606e84612b3590919063ffffffff16565b61260f90919063ffffffff16565b94505b50505050919050565b600080600080849250600091505b8651821015612a425786828151811015156129b357fe5b906020019060200201519050806000191683600019161015612a0457828160405180836000191660001916815260200182600019166000191681526020019250505060405180910390209250612a35565b8083604051808360001916600019168152602001826000191660001916815260200192505050604051809103902092505b818060010192505061299c565b856000191683600019161493505050509392505050565b600080600090505b6020811015612b2b576008810284848301815181101515612a7e57fe5b9060200101517f010000000000000000000000000000000000000000000000000000000000000090047f0100000000000000000000000000000000000000000000000000000000000000027effffffffffffffffffffffffffffffffffffffffffffffffffffffffffffff19167fff0000000000000000000000000000000000000000000000000000000000000060010216600019169060020a9004821891508080600101915050612a61565b8191505092915050565b600080831415612b485760009050612b67565b8183029050818382811515612b5957fe5b04141515612b6357fe5b8090505b929150505600a165627a7a72305820a8d3f87e32f4b64eba0d271db7ab09351a6cdf0e4249e6d923af33f6f2ba4de00029",
  "source": "/*\n\n  UTXO redeemable token.\n\n  This is a token extension to allow porting a Bitcoin or Bitcoin-fork sourced UTXO set to an ERC20 token through redemption of individual UTXOs in the token contract.\n    \n  Owners of UTXOs in a chosen final set (where \"owner\" is simply anyone who could have spent the UTXO) are allowed to redeem (mint) a number of tokens proportional to the satoshi amount of the UTXO.\n\n  Notes\n\n    - This method *does not* provision for special Bitcoin scripts (e.g. multisig addresses).\n    - Pending transactions are public, so the UTXO redemption transaction must work *only* for an Ethereum address belonging to the same person who owns the UTXO.\n      This is enforced by requiring that the redeeemer sign their Ethereum address with their Bitcoin (original-chain) private key.\n    - We cannot simply store the UTXO set, as that would be far too expensive. Instead we compute a Merkle tree for the entire UTXO set at the chain state which is to be ported,\n      store only the root of that Merkle tree, and require UTXO claimants prove that the UTXO they wish to claim is present in the tree.\n\n*/\n\npragma solidity ^0.4.23;\n\nimport \"../node_modules/openzeppelin-solidity/contracts/token/ERC20/StandardToken.sol\";\nimport \"../node_modules/openzeppelin-solidity/contracts/MerkleProof.sol\";\n\n/* solium-disable security/no-block-members */\n\n\n/**\n* Based on https://github.com/ProjectWyvern/wyvern-ethereum\n*/\ncontract UTXORedeemableToken is StandardToken {\n\n    /* Origin Address */\n    address public origin;\n\n    /* Store time of launch for contract */\n    uint256 public launchTime;\n\n    /* Store last updated week */\n    uint256 public lastUpdatedWeek = 0;\n\n    struct WeekDataStruct {\n        uint256 unclaimedCoins;\n    }\n\n    /* Weekly update data */\n    mapping(uint256 => WeekDataStruct) internal weekData;\n\n    /* Root hash of the UTXO Merkle tree, must be initialized by token constructor. */\n    bytes32 public rootUTXOMerkleTreeHash;\n\n    /* Redeemed UTXOs. */\n    mapping(bytes32 => bool) internal redeemedUTXOs;\n\n    /* Total tokens redeemed so far. */\n    uint256 public totalRedeemed = 0;\n\n    /* Maximum redeemable tokens, must be initialized by token constructor. */\n    uint256 public maximumRedeemable;\n\n    /* Claim, stake, and minting events need to happen atleast once every week for this function to\n       run automatically, otherwise function can be manually called for that week */\n    function storeWeekUnclaimed() public {\n        uint256 weeksSinceLaunch = block.timestamp.sub(launchTime).div(7 days);\n        if (weeksSinceLaunch < 51 && weeksSinceLaunch > lastUpdatedWeek) {\n            uint256 unclaimedCoins = maximumRedeemable.sub(totalRedeemed);\n            weekData[weeksSinceLaunch] = WeekDataStruct(unclaimedCoins);\n            lastUpdatedWeek = weeksSinceLaunch;\n        }\n    }\n\n    /**\n     * @dev Extract a bytes32 subarray from an arbitrary length bytes array.\n     * @param data Bytes array from which to extract the subarray\n     * @param pos Starting position from which to copy\n     * @return Extracted length 32 byte array\n     */\n    function extract(bytes data, uint256 pos) private pure returns (bytes32 result) { \n        for (uint256 i = 0; i < 32; i++) {\n            result ^= (bytes32(0xff00000000000000000000000000000000000000000000000000000000000000) & data[i + pos]) >> (i * 8);\n        }\n        return result;\n    }\n    \n    /**\n     * @dev Validate that a provided ECSDA signature was signed by the specified address\n     * @param hash Hash of signed data\n     * @param v v parameter of ECDSA signature\n     * @param r r parameter of ECDSA signature\n     * @param s s parameter of ECDSA signature\n     * @param expected Address claiming to have created this signature\n     * @return Whether or not the signature was valid\n     */\n    function validateSignature (\n        bytes32 hash, \n        uint8 v, \n        bytes32 r, \n        bytes32 s, \n        address expected,\n        bool addPrefix\n    ) \n      public \n      pure \n      returns (bool) \n    {\n        bytes32 formattedHash;\n\n        if (!addPrefix) {\n            formattedHash = hash;\n        } else {\n            // accomodate geth method of signing data with prefixed message\n            bytes memory prefix = \"\\x19Ethereum Signed Message:\\n32\";\n            formattedHash = keccak256(abi.encodePacked(prefix, hash));\n        }\n\n        return ecrecover(\n            formattedHash, \n            v, \n            r, \n            s\n        ) == expected;\n    }\n\n    /**\n     * @dev Validate that the hash of a provided address was signed by the ECDSA public key associated with the specified Ethereum address\n     * @param addr Address signed\n     * @param pubKey Uncompressed ECDSA public key claiming to have created this signature\n     * @param v v parameter of ECDSA signature\n     * @param r r parameter of ECDSA signature\n     * @param s s parameter of ECDSA signature\n     * @return Whether or not the signature was valid\n     */\n    function ecdsaVerify (\n        address addr, \n        bytes pubKey, \n        uint8 v, \n        bytes32 r, \n        bytes32 s\n    ) \n      public \n      pure \n      returns (bool)\n    {\n        return validateSignature(\n            sha256(abi.encodePacked(addr)),  // hash\n            v, \n            r, \n            s, \n            pubKeyToEthereumAddress(pubKey), // expected\n            false // do not prepend message\n        );\n    }\n\n    /**\n     * @dev Convert an uncompressed ECDSA public key into an Ethereum address\n     * @param pubKey Uncompressed ECDSA public key to convert\n     * @return Ethereum address generated from the ECDSA public key\n     */\n    function pubKeyToEthereumAddress (bytes pubKey) public pure returns (address) {\n        return address(uint(keccak256(pubKey)) & 0x000FFFFFFFFFFFFFFFFFFFFFFFFFFFFFFFFFFFFFFFF);\n    }\n\n    /**\n     * @dev Calculate the Bitcoin-style address associated with an ECDSA public key\n     * @param pubKey ECDSA public key to convert\n     * @param isCompressed Whether or not the Bitcoin address was generated from a compressed key\n     * @return Raw Bitcoin address (no base58-check encoding)\n     */\n    function pubKeyToBitcoinAddress(bytes pubKey, bool isCompressed) public pure returns (bytes20) {\n        /* Helpful references:\n           - https://en.bitcoin.it/wiki/Technical_background_of_version_1_Bitcoin_addresses \n           - https://github.com/cryptocoinjs/ecurve/blob/master/lib/point.js\n        */\n\n        /* x coordinate - first 32 bytes of public key */\n        uint256 x = uint(extract(pubKey, 0));\n        /* y coordinate - second 32 bytes of public key */\n        uint256 y = uint(extract(pubKey, 32)); \n        uint8 startingByte;\n        if (isCompressed) {\n            /* Hash the compressed public key format. */\n            startingByte = y % 2 == 0 ? 0x02 : 0x03;\n            return ripemd160(abi.encodePacked(sha256(abi.encodePacked(startingByte, x))));\n        } else {\n            /* Hash the uncompressed public key format. */\n            startingByte = 0x04;\n            return ripemd160(abi.encodePacked(sha256(abi.encodePacked(startingByte, x, y))));\n        }\n    }\n\n    /**\n     * @dev Verify a Merkle proof using the UTXO Merkle tree\n     * @param proof Generated Merkle tree proof\n     * @param merkleLeafHash Hash asserted to be present in the Merkle tree\n     * @return Whether or not the proof is valid\n     */\n    function verifyProof(bytes32[] proof, bytes32 merkleLeafHash) public view returns (bool) {\n        return MerkleProof.verifyProof(proof, rootUTXOMerkleTreeHash, merkleLeafHash);\n    }\n\n    /**\n     * @dev Verify that a UTXO with the specified Merkle leaf hash can be redeemed\n     * @param merkleLeafHash Merkle tree hash of the UTXO to be checked\n     * @param proof Merkle tree proof\n     * @return Whether or not the UTXO with the specified hash can be redeemed\n     */\n    function canRedeemUTXOHash(bytes32 merkleLeafHash, bytes32[] proof) public view returns (bool) {\n        /* Check that the UTXO has not yet been redeemed and that it exists in the Merkle tree. */\n        return((redeemedUTXOs[merkleLeafHash] == false) && verifyProof(proof, merkleLeafHash));\n    }\n\n    /**\n     * @dev Convenience helper function to check if a UTXO can be redeemed\n     * @param txid Transaction hash\n     * @param originalAddress Raw Bitcoin address (no base58-check encoding)\n     * @param outputIndex Output index of UTXO\n     * @param satoshis Amount of UTXO in satoshis\n     * @param proof Merkle tree proof\n     * @return Whether or not the UTXO can be redeemed\n     */\n    function canRedeemUTXO(\n        bytes32 txid,\n        bytes20 originalAddress,\n        uint8 outputIndex,\n        uint256 satoshis,\n        bytes32[] proof\n    ) \n        public \n        view \n        returns (bool)\n    {\n        /* Calculate the hash of the Merkle leaf associated with this UTXO. */\n        bytes32 merkleLeafHash = keccak256(\n            abi.encodePacked(\n                txid, \n                originalAddress, \n                outputIndex, \n                satoshis\n            )\n        );\n    \n        /* Verify the proof. */\n        return canRedeemUTXOHash(merkleLeafHash, proof);\n    }\n\n    function getRedeemAmount(uint256 amount) internal view returns (uint256 redeemed) {\n        uint256 satoshis = amount;\n\n        /* Weeks since launch */\n        uint256 weeksSinceLaunch = block.timestamp.sub(launchTime).div(7 days);\n\n        /* Calculate percent reduction */\n        uint256 reduction = uint256(100).sub(weeksSinceLaunch.mul(2));\n\n        /* Silly whale reduction\n           If claim amount is above 1000 BHX with 18 decimals ( 1e3 * 1e18 = 1e20) */\n        if (satoshis > 1e21) {\n            /* If claim amount is below 100000 BHX with 18 decimals (1e5 * 1e18 = 1e23) */\n            if (satoshis < 1e23) {\n                /* If between 1000 and 10000, penalise by 50% to 75% linearly\n                   The following is a range convert from 1000-10000 to 500-2500\n                   satoshis = ((Input - InputLow) / (InputHigh - InputLow)) * (OutputHigh - OutputLow) + OutputLow\n                   satoshis = ((x - 1000) / (10000 - 1000)) * (2500 - 500) + 500\n                   satoshis = (2 (x - 1000))/9 + 500 */\n                satoshis = satoshis\n                    .sub(1e11)\n                    .mul(2)\n                    .div(9)\n                    .add(5e10);\n            } else {\n                /* If greater than 10000 BHX penalise by 75% */\n                satoshis = satoshis.div(4);\n            }\n        }\n\n        /* \n          Calculate redeem amount in standard token decimals (1e18): \n          already has 8 decimals (1e8 * 1e10 = 1e18) \n        */\n        uint256 redeemAmount = satoshis.mul(reduction).mul(1e10).div(100);\n\n        /* Apply speed bonus */\n        if(weeksSinceLaunch > 45) {\n            return redeemAmount;\n        }\n\n        if(weeksSinceLaunch > 32) {\n            return redeemAmount.mul(101).div(100);\n        }\n\n        if(weeksSinceLaunch > 24) {\n            return redeemAmount.mul(102).div(100);\n        }\n\n        if(weeksSinceLaunch > 18) {\n            return redeemAmount.mul(103).div(100);\n        }\n\n        if(weeksSinceLaunch > 14) {\n            return redeemAmount.mul(104).div(100);\n        }\n\n        if(weeksSinceLaunch > 10) {\n            return redeemAmount.mul(105).div(100);\n        }\n\n        if(weeksSinceLaunch > 7) {\n            return redeemAmount.mul(106).div(100);\n        }\n\n        if(weeksSinceLaunch > 5) {\n            return redeemAmount.mul(107).div(100);\n        }\n\n        if(weeksSinceLaunch > 3) {\n            return redeemAmount.mul(108).div(100);\n        }\n\n        if(weeksSinceLaunch > 1) {\n            return redeemAmount.mul(109).div(100);\n        }\n\n        return redeemAmount.mul(110).div(100);\n    }\n\n    /**\n     * @dev Redeem a UTXO, crediting a proportional amount of tokens (if valid) to the sending address\n     * @param satoshis Amount of UTXO in satoshis\n     * @param proof Merkle tree proof\n     * @param pubKey Uncompressed ECDSA public key to which the UTXO was sent\n     * @param isCompressed Whether the Bitcoin address was generated from a compressed public key\n     * @param v v parameter of ECDSA signature\n     * @param r r parameter of ECDSA signature\n     * @param s s parameter of ECDSA signature\n     * @return The number of tokens redeemed, if successful\n     */\n    function redeemUTXO (\n        uint256 satoshis,\n        bytes32[] proof,\n        bytes pubKey,\n        bool isCompressed,\n        uint8 v,\n        bytes32 r,\n        bytes32 s\n    ) \n        public \n        returns (uint256 tokensRedeemed)\n    {\n        /* Check if weekly data needs to be updated */\n        storeWeekUnclaimed();\n\n        /* Disable claims after 50 weeks */\n        require(block.timestamp.sub(launchTime).div(7 days) < 50);\n\n        /* Calculate original Bitcoin-style address associated with the provided public key. */\n        bytes20 originalAddress = pubKeyToBitcoinAddress(pubKey, isCompressed);\n\n        /* Calculate the UTXO Merkle leaf hash. */\n        bytes32 merkleLeafHash = keccak256(\n            abi.encodePacked(\n                originalAddress, \n                satoshis\n            )\n        );\n\n        /* Verify that the UTXO can be redeemed. */\n        require(canRedeemUTXOHash(merkleLeafHash, proof));\n\n        /* Claimant must sign the Ethereum address to which they wish to remit the redeemed tokens. */\n        require(\n            ecdsaVerify(\n                msg.sender, \n                pubKey, \n                v, \n                r, \n                s\n            )\n        );\n\n        /* Mark the UTXO as redeemed. */\n        redeemedUTXOs[merkleLeafHash] = true;\n\n        tokensRedeemed = getRedeemAmount(satoshis);\n\n        /* Sanity check. */\n        require(totalRedeemed.add(tokensRedeemed) <= maximumRedeemable);\n\n        /* Track total redeemed tokens. */\n        totalRedeemed = totalRedeemed.add(tokensRedeemed);\n\n        /* Credit the redeemer. */ \n        balances[msg.sender] = balances[msg.sender].add(tokensRedeemed);\n\n        /* Increase supply */\n        totalSupply_ = totalSupply_.add(tokensRedeemed);\n\n        /* Mark the transfer event. */\n        emit Transfer(address(0), msg.sender, tokensRedeemed);\n        \n        /* Return the number of tokens redeemed. */\n        return tokensRedeemed;\n\n    }\n\n    /**\n     * @dev Redeem a UTXO, crediting a proportional amount of tokens (if valid) to the sending address\n     * @param satoshis Amount of UTXO in satoshis\n     * @param proof Merkle tree proof\n     * @param pubKey Uncompressed ECDSA public key to which the UTXO was sent\n     * @param isCompressed Whether the Bitcoin address was generated from a compressed public key\n     * @param v v parameter of ECDSA signature\n     * @param r r parameter of ECDSA signature\n     * @param s s parameter of ECDSA signature\n     * @param referrer address of referring person\n     * @return The number of tokens redeemed, if successful\n     */\n    function redeemUTXO (\n        uint256 satoshis,\n        bytes32[] proof,\n        bytes pubKey,\n        bool isCompressed,\n        uint8 v,\n        bytes32 r,\n        bytes32 s,\n        address referrer\n    ) \n        external \n        returns (uint256 tokensRedeemed) \n    {\n        /* Credit claimer */\n        tokensRedeemed = redeemUTXO (\n            satoshis,\n            proof,\n            pubKey,\n            isCompressed,\n            v,\n            r,\n            s\n        );\n\n        /* Credit referrer */\n        balances[referrer] = balances[referrer].add(tokensRedeemed.div(20));\n\n        /* Increase supply */\n        totalSupply_ = totalSupply_.add(tokensRedeemed.div(20));\n\n        return tokensRedeemed;\n    }\n\n}",
  "sourcePath": "/Users/tovarishfin/dev/bhx/bhx-contracts/contracts/UTXORedeemableToken.sol",
  "compiler": {
    "name": "solc",
    "version": "0.4.24+commit.e67f0147.Emscripten.clang"
  },
  "schemaVersion": "2.0.0",
  "updatedAt": "2018-06-25T14:52:31.961Z"
}